{
	"enum_implementation.sol": {
		"enumImplementation": {
			"abi": [
				{
					"inputs": [],
					"name": "resetStatus",
					"outputs": [],
					"stateMutability": "nonpayable",
					"type": "function"
				},
				{
					"inputs": [],
					"name": "setRej",
					"outputs": [],
					"stateMutability": "nonpayable",
					"type": "function"
				},
				{
					"inputs": [
						{
							"internalType": "enum enumImplementation.Status",
							"name": "_status",
							"type": "uint8"
						}
					],
					"name": "setstatus",
					"outputs": [],
					"stateMutability": "nonpayable",
					"type": "function"
				},
				{
					"inputs": [],
					"name": "status",
					"outputs": [
						{
							"internalType": "enum enumImplementation.Status",
							"name": "",
							"type": "uint8"
						}
					],
					"stateMutability": "view",
					"type": "function"
				}
			],
			"devdoc": {
				"kind": "dev",
				"methods": {},
				"version": 1
			},
			"evm": {
				"assembly": "    /* \"enum_implementation.sol\":62:447  contract enumImplementation{... */\n  mstore(0x40, 0x80)\n  callvalue\n  dup1\n  iszero\n  tag_1\n  jumpi\n  0x00\n  dup1\n  revert\ntag_1:\n  pop\n  dataSize(sub_0)\n  dup1\n  dataOffset(sub_0)\n  0x00\n  codecopy\n  0x00\n  return\nstop\n\nsub_0: assembly {\n        /* \"enum_implementation.sol\":62:447  contract enumImplementation{... */\n      mstore(0x40, 0x80)\n      callvalue\n      dup1\n      iszero\n      tag_1\n      jumpi\n      0x00\n      dup1\n      revert\n    tag_1:\n      pop\n      jumpi(tag_2, lt(calldatasize, 0x04))\n      shr(0xe0, calldataload(0x00))\n      dup1\n      0x200d2ed2\n      eq\n      tag_3\n      jumpi\n      dup1\n      0x8c3c4c62\n      eq\n      tag_4\n      jumpi\n      dup1\n      0xced32c93\n      eq\n      tag_5\n      jumpi\n      dup1\n      0xf4c3fbd1\n      eq\n      tag_6\n      jumpi\n    tag_2:\n      0x00\n      dup1\n      revert\n        /* \"enum_implementation.sol\":205:225  Status public status */\n    tag_3:\n      tag_7\n      tag_8\n      jump\t// in\n    tag_7:\n      mload(0x40)\n      tag_9\n      swap2\n      swap1\n      tag_10\n      jump\t// in\n    tag_9:\n      mload(0x40)\n      dup1\n      swap2\n      sub\n      swap1\n      return\n        /* \"enum_implementation.sol\":385:444  function resetStatus() public{... */\n    tag_4:\n      tag_11\n      tag_12\n      jump\t// in\n    tag_11:\n      stop\n        /* \"enum_implementation.sol\":314:379  function setRej() public{... */\n    tag_5:\n      tag_13\n      tag_14\n      jump\t// in\n    tag_13:\n      stop\n        /* \"enum_implementation.sol\":233:307  function setstatus(Status _status) public{... */\n    tag_6:\n      tag_15\n      0x04\n      dup1\n      calldatasize\n      sub\n      dup2\n      add\n      swap1\n      tag_16\n      swap2\n      swap1\n      tag_17\n      jump\t// in\n    tag_16:\n      tag_18\n      jump\t// in\n    tag_15:\n      stop\n        /* \"enum_implementation.sol\":205:225  Status public status */\n    tag_8:\n      0x00\n      dup1\n      sload\n      swap1\n      0x0100\n      exp\n      swap1\n      div\n      0xff\n      and\n      dup2\n      jump\t// out\n        /* \"enum_implementation.sol\":385:444  function resetStatus() public{... */\n    tag_12:\n        /* \"enum_implementation.sol\":431:437  status */\n      0x00\n      dup1\n        /* \"enum_implementation.sol\":424:437  delete status */\n      0x0100\n      exp\n      dup2\n      sload\n      swap1\n      0xff\n      mul\n      not\n      and\n      swap1\n      sstore\n        /* \"enum_implementation.sol\":385:444  function resetStatus() public{... */\n      jump\t// out\n        /* \"enum_implementation.sol\":314:379  function setRej() public{... */\n    tag_14:\n        /* \"enum_implementation.sol\":357:372  Status.Rejected */\n      0x03\n        /* \"enum_implementation.sol\":348:354  status */\n      0x00\n      dup1\n        /* \"enum_implementation.sol\":348:372  status = Status.Rejected */\n      0x0100\n      exp\n      dup2\n      sload\n      dup2\n      0xff\n      mul\n      not\n      and\n      swap1\n      dup4\n      0x04\n      dup2\n      gt\n      iszero\n      tag_21\n      jumpi\n      tag_22\n      tag_23\n      jump\t// in\n    tag_22:\n    tag_21:\n      mul\n      or\n      swap1\n      sstore\n      pop\n        /* \"enum_implementation.sol\":314:379  function setRej() public{... */\n      jump\t// out\n        /* \"enum_implementation.sol\":233:307  function setstatus(Status _status) public{... */\n    tag_18:\n        /* \"enum_implementation.sol\":293:300  _status */\n      dup1\n        /* \"enum_implementation.sol\":284:290  status */\n      0x00\n      dup1\n        /* \"enum_implementation.sol\":284:300  status = _status */\n      0x0100\n      exp\n      dup2\n      sload\n      dup2\n      0xff\n      mul\n      not\n      and\n      swap1\n      dup4\n      0x04\n      dup2\n      gt\n      iszero\n      tag_25\n      jumpi\n      tag_26\n      tag_23\n      jump\t// in\n    tag_26:\n    tag_25:\n      mul\n      or\n      swap1\n      sstore\n      pop\n        /* \"enum_implementation.sol\":233:307  function setstatus(Status _status) public{... */\n      pop\n      jump\t// out\n        /* \"#utility.yul\":7:162   */\n    tag_28:\n        /* \"#utility.yul\":61:66   */\n      0x00\n        /* \"#utility.yul\":99:105   */\n      dup2\n        /* \"#utility.yul\":86:106   */\n      calldataload\n        /* \"#utility.yul\":77:106   */\n      swap1\n      pop\n        /* \"#utility.yul\":115:156   */\n      tag_30\n        /* \"#utility.yul\":150:155   */\n      dup2\n        /* \"#utility.yul\":115:156   */\n      tag_31\n      jump\t// in\n    tag_30:\n        /* \"#utility.yul\":7:162   */\n      swap3\n      swap2\n      pop\n      pop\n      jump\t// out\n        /* \"#utility.yul\":168:513   */\n    tag_17:\n        /* \"#utility.yul\":235:241   */\n      0x00\n        /* \"#utility.yul\":284:286   */\n      0x20\n        /* \"#utility.yul\":272:281   */\n      dup3\n        /* \"#utility.yul\":263:270   */\n      dup5\n        /* \"#utility.yul\":259:282   */\n      sub\n        /* \"#utility.yul\":255:287   */\n      slt\n        /* \"#utility.yul\":252:371   */\n      iszero\n      tag_33\n      jumpi\n        /* \"#utility.yul\":290:369   */\n      tag_34\n      tag_35\n      jump\t// in\n    tag_34:\n        /* \"#utility.yul\":252:371   */\n    tag_33:\n        /* \"#utility.yul\":410:411   */\n      0x00\n        /* \"#utility.yul\":435:496   */\n      tag_36\n        /* \"#utility.yul\":488:495   */\n      dup5\n        /* \"#utility.yul\":479:485   */\n      dup3\n        /* \"#utility.yul\":468:477   */\n      dup6\n        /* \"#utility.yul\":464:486   */\n      add\n        /* \"#utility.yul\":435:496   */\n      tag_28\n      jump\t// in\n    tag_36:\n        /* \"#utility.yul\":425:496   */\n      swap2\n      pop\n        /* \"#utility.yul\":381:506   */\n      pop\n        /* \"#utility.yul\":168:513   */\n      swap3\n      swap2\n      pop\n      pop\n      jump\t// out\n        /* \"#utility.yul\":519:662   */\n    tag_37:\n        /* \"#utility.yul\":612:655   */\n      tag_39\n        /* \"#utility.yul\":649:654   */\n      dup2\n        /* \"#utility.yul\":612:655   */\n      tag_40\n      jump\t// in\n    tag_39:\n        /* \"#utility.yul\":607:610   */\n      dup3\n        /* \"#utility.yul\":600:656   */\n      mstore\n        /* \"#utility.yul\":519:662   */\n      pop\n      pop\n      jump\t// out\n        /* \"#utility.yul\":668:902   */\n    tag_10:\n        /* \"#utility.yul\":767:771   */\n      0x00\n        /* \"#utility.yul\":805:807   */\n      0x20\n        /* \"#utility.yul\":794:803   */\n      dup3\n        /* \"#utility.yul\":790:808   */\n      add\n        /* \"#utility.yul\":782:808   */\n      swap1\n      pop\n        /* \"#utility.yul\":818:895   */\n      tag_42\n        /* \"#utility.yul\":892:893   */\n      0x00\n        /* \"#utility.yul\":881:890   */\n      dup4\n        /* \"#utility.yul\":877:894   */\n      add\n        /* \"#utility.yul\":868:874   */\n      dup5\n        /* \"#utility.yul\":818:895   */\n      tag_37\n      jump\t// in\n    tag_42:\n        /* \"#utility.yul\":668:902   */\n      swap3\n      swap2\n      pop\n      pop\n      jump\t// out\n        /* \"#utility.yul\":989:1116   */\n    tag_45:\n        /* \"#utility.yul\":1034:1041   */\n      0x00\n        /* \"#utility.yul\":1063:1068   */\n      dup2\n        /* \"#utility.yul\":1052:1068   */\n      swap1\n      pop\n        /* \"#utility.yul\":1069:1110   */\n      tag_47\n        /* \"#utility.yul\":1104:1109   */\n      dup3\n        /* \"#utility.yul\":1069:1110   */\n      tag_48\n      jump\t// in\n    tag_47:\n        /* \"#utility.yul\":989:1116   */\n      swap2\n      swap1\n      pop\n      jump\t// out\n        /* \"#utility.yul\":1122:1249   */\n    tag_40:\n        /* \"#utility.yul\":1178:1187   */\n      0x00\n        /* \"#utility.yul\":1211:1243   */\n      tag_50\n        /* \"#utility.yul\":1237:1242   */\n      dup3\n        /* \"#utility.yul\":1211:1243   */\n      tag_45\n      jump\t// in\n    tag_50:\n        /* \"#utility.yul\":1198:1243   */\n      swap1\n      pop\n        /* \"#utility.yul\":1122:1249   */\n      swap2\n      swap1\n      pop\n      jump\t// out\n        /* \"#utility.yul\":1255:1435   */\n    tag_23:\n        /* \"#utility.yul\":1303:1380   */\n      0x4e487b7100000000000000000000000000000000000000000000000000000000\n        /* \"#utility.yul\":1300:1301   */\n      0x00\n        /* \"#utility.yul\":1293:1381   */\n      mstore\n        /* \"#utility.yul\":1400:1404   */\n      0x21\n        /* \"#utility.yul\":1397:1398   */\n      0x04\n        /* \"#utility.yul\":1390:1405   */\n      mstore\n        /* \"#utility.yul\":1424:1428   */\n      0x24\n        /* \"#utility.yul\":1421:1422   */\n      0x00\n        /* \"#utility.yul\":1414:1429   */\n      revert\n        /* \"#utility.yul\":1564:1681   */\n    tag_35:\n        /* \"#utility.yul\":1673:1674   */\n      0x00\n        /* \"#utility.yul\":1670:1671   */\n      dup1\n        /* \"#utility.yul\":1663:1675   */\n      revert\n        /* \"#utility.yul\":1687:1800   */\n    tag_48:\n        /* \"#utility.yul\":1768:1769   */\n      0x05\n        /* \"#utility.yul\":1761:1766   */\n      dup2\n        /* \"#utility.yul\":1758:1770   */\n      lt\n        /* \"#utility.yul\":1748:1794   */\n      tag_56\n      jumpi\n        /* \"#utility.yul\":1774:1792   */\n      tag_57\n      tag_23\n      jump\t// in\n    tag_57:\n        /* \"#utility.yul\":1748:1794   */\n    tag_56:\n        /* \"#utility.yul\":1687:1800   */\n      pop\n      jump\t// out\n        /* \"#utility.yul\":1806:1913   */\n    tag_31:\n        /* \"#utility.yul\":1887:1888   */\n      0x05\n        /* \"#utility.yul\":1880:1885   */\n      dup2\n        /* \"#utility.yul\":1877:1889   */\n      lt\n        /* \"#utility.yul\":1867:1907   */\n      tag_59\n      jumpi\n        /* \"#utility.yul\":1903:1904   */\n      0x00\n        /* \"#utility.yul\":1900:1901   */\n      dup1\n        /* \"#utility.yul\":1893:1905   */\n      revert\n        /* \"#utility.yul\":1867:1907   */\n    tag_59:\n        /* \"#utility.yul\":1806:1913   */\n      pop\n      jump\t// out\n\n    auxdata: 0xa264697066735822122096499a4a4f7649374fc3838cc0a938e54abf37fe6cb68968cf2099376be6734464736f6c63430008070033\n}\n",
				"bytecode": {
					"linkReferences": {},
					"object": "608060405234801561001057600080fd5b5061023a806100206000396000f3fe608060405234801561001057600080fd5b506004361061004c5760003560e01c8063200d2ed2146100515780638c3c4c621461006f578063ced32c9314610079578063f4c3fbd114610083575b600080fd5b61005961009f565b604051610066919061016c565b60405180910390f35b6100776100b0565b005b6100816100c3565b005b61009d60048036038101906100989190610130565b6100ef565b005b60008054906101000a900460ff1681565b6000806101000a81549060ff0219169055565b60036000806101000a81548160ff021916908360048111156100e8576100e76101ac565b5b0217905550565b806000806101000a81548160ff02191690836004811115610113576101126101ac565b5b021790555050565b60008135905061012a816101f4565b92915050565b600060208284031215610146576101456101db565b5b60006101548482850161011b565b91505092915050565b6101668161019a565b82525050565b6000602082019050610181600083018461015d565b92915050565b6000819050610195826101e0565b919050565b60006101a582610187565b9050919050565b7f4e487b7100000000000000000000000000000000000000000000000000000000600052602160045260246000fd5b600080fd5b600581106101f1576101f06101ac565b5b50565b6005811061020157600080fd5b5056fea264697066735822122096499a4a4f7649374fc3838cc0a938e54abf37fe6cb68968cf2099376be6734464736f6c63430008070033",
					"opcodes": "PUSH1 0x80 PUSH1 0x40 MSTORE CALLVALUE DUP1 ISZERO PUSH2 0x10 JUMPI PUSH1 0x0 DUP1 REVERT JUMPDEST POP PUSH2 0x23A DUP1 PUSH2 0x20 PUSH1 0x0 CODECOPY PUSH1 0x0 RETURN INVALID PUSH1 0x80 PUSH1 0x40 MSTORE CALLVALUE DUP1 ISZERO PUSH2 0x10 JUMPI PUSH1 0x0 DUP1 REVERT JUMPDEST POP PUSH1 0x4 CALLDATASIZE LT PUSH2 0x4C JUMPI PUSH1 0x0 CALLDATALOAD PUSH1 0xE0 SHR DUP1 PUSH4 0x200D2ED2 EQ PUSH2 0x51 JUMPI DUP1 PUSH4 0x8C3C4C62 EQ PUSH2 0x6F JUMPI DUP1 PUSH4 0xCED32C93 EQ PUSH2 0x79 JUMPI DUP1 PUSH4 0xF4C3FBD1 EQ PUSH2 0x83 JUMPI JUMPDEST PUSH1 0x0 DUP1 REVERT JUMPDEST PUSH2 0x59 PUSH2 0x9F JUMP JUMPDEST PUSH1 0x40 MLOAD PUSH2 0x66 SWAP2 SWAP1 PUSH2 0x16C JUMP JUMPDEST PUSH1 0x40 MLOAD DUP1 SWAP2 SUB SWAP1 RETURN JUMPDEST PUSH2 0x77 PUSH2 0xB0 JUMP JUMPDEST STOP JUMPDEST PUSH2 0x81 PUSH2 0xC3 JUMP JUMPDEST STOP JUMPDEST PUSH2 0x9D PUSH1 0x4 DUP1 CALLDATASIZE SUB DUP2 ADD SWAP1 PUSH2 0x98 SWAP2 SWAP1 PUSH2 0x130 JUMP JUMPDEST PUSH2 0xEF JUMP JUMPDEST STOP JUMPDEST PUSH1 0x0 DUP1 SLOAD SWAP1 PUSH2 0x100 EXP SWAP1 DIV PUSH1 0xFF AND DUP2 JUMP JUMPDEST PUSH1 0x0 DUP1 PUSH2 0x100 EXP DUP2 SLOAD SWAP1 PUSH1 0xFF MUL NOT AND SWAP1 SSTORE JUMP JUMPDEST PUSH1 0x3 PUSH1 0x0 DUP1 PUSH2 0x100 EXP DUP2 SLOAD DUP2 PUSH1 0xFF MUL NOT AND SWAP1 DUP4 PUSH1 0x4 DUP2 GT ISZERO PUSH2 0xE8 JUMPI PUSH2 0xE7 PUSH2 0x1AC JUMP JUMPDEST JUMPDEST MUL OR SWAP1 SSTORE POP JUMP JUMPDEST DUP1 PUSH1 0x0 DUP1 PUSH2 0x100 EXP DUP2 SLOAD DUP2 PUSH1 0xFF MUL NOT AND SWAP1 DUP4 PUSH1 0x4 DUP2 GT ISZERO PUSH2 0x113 JUMPI PUSH2 0x112 PUSH2 0x1AC JUMP JUMPDEST JUMPDEST MUL OR SWAP1 SSTORE POP POP JUMP JUMPDEST PUSH1 0x0 DUP2 CALLDATALOAD SWAP1 POP PUSH2 0x12A DUP2 PUSH2 0x1F4 JUMP JUMPDEST SWAP3 SWAP2 POP POP JUMP JUMPDEST PUSH1 0x0 PUSH1 0x20 DUP3 DUP5 SUB SLT ISZERO PUSH2 0x146 JUMPI PUSH2 0x145 PUSH2 0x1DB JUMP JUMPDEST JUMPDEST PUSH1 0x0 PUSH2 0x154 DUP5 DUP3 DUP6 ADD PUSH2 0x11B JUMP JUMPDEST SWAP2 POP POP SWAP3 SWAP2 POP POP JUMP JUMPDEST PUSH2 0x166 DUP2 PUSH2 0x19A JUMP JUMPDEST DUP3 MSTORE POP POP JUMP JUMPDEST PUSH1 0x0 PUSH1 0x20 DUP3 ADD SWAP1 POP PUSH2 0x181 PUSH1 0x0 DUP4 ADD DUP5 PUSH2 0x15D JUMP JUMPDEST SWAP3 SWAP2 POP POP JUMP JUMPDEST PUSH1 0x0 DUP2 SWAP1 POP PUSH2 0x195 DUP3 PUSH2 0x1E0 JUMP JUMPDEST SWAP2 SWAP1 POP JUMP JUMPDEST PUSH1 0x0 PUSH2 0x1A5 DUP3 PUSH2 0x187 JUMP JUMPDEST SWAP1 POP SWAP2 SWAP1 POP JUMP JUMPDEST PUSH32 0x4E487B7100000000000000000000000000000000000000000000000000000000 PUSH1 0x0 MSTORE PUSH1 0x21 PUSH1 0x4 MSTORE PUSH1 0x24 PUSH1 0x0 REVERT JUMPDEST PUSH1 0x0 DUP1 REVERT JUMPDEST PUSH1 0x5 DUP2 LT PUSH2 0x1F1 JUMPI PUSH2 0x1F0 PUSH2 0x1AC JUMP JUMPDEST JUMPDEST POP JUMP JUMPDEST PUSH1 0x5 DUP2 LT PUSH2 0x201 JUMPI PUSH1 0x0 DUP1 REVERT JUMPDEST POP JUMP INVALID LOG2 PUSH5 0x6970667358 0x22 SLT KECCAK256 SWAP7 0x49 SWAP11 0x4A 0x4F PUSH23 0x49374FC3838CC0A938E54ABF37FE6CB68968CF2099376B 0xE6 PUSH20 0x4464736F6C634300080700330000000000000000 "
				},
				"gasEstimates": {
					"creation": {
						"codeDepositCost": "114000",
						"executionCost": "159",
						"totalCost": "114159"
					},
					"external": {
						"resetStatus()": "24386",
						"setRej()": "24453",
						"setstatus(uint8)": "24694",
						"status()": "2535"
					}
				},
				"methodIdentifiers": {
					"resetStatus()": "8c3c4c62",
					"setRej()": "ced32c93",
					"setstatus(uint8)": "f4c3fbd1",
					"status()": "200d2ed2"
				}
			},
			"storageLayout": {
				"storage": [
					{
						"astId": 10,
						"contract": "enum_implementation.sol:enumImplementation",
						"label": "status",
						"offset": 0,
						"slot": "0",
						"type": "t_enum(Status)7"
					}
				],
				"types": {
					"t_enum(Status)7": {
						"encoding": "inplace",
						"label": "enum enumImplementation.Status",
						"numberOfBytes": "1"
					}
				}
			},
			"userdoc": {
				"kind": "user",
				"methods": {},
				"version": 1
			}
		}
	}
}