{
	"send_eth.sol": {
		"sendETH": {
			"abi": [
				{
					"inputs": [],
					"name": "CALL",
					"outputs": [],
					"stateMutability": "nonpayable",
					"type": "function"
				},
				{
					"inputs": [
						{
							"internalType": "address payable",
							"name": "getter",
							"type": "address"
						}
					],
					"name": "SEND",
					"outputs": [],
					"stateMutability": "nonpayable",
					"type": "function"
				},
				{
					"inputs": [
						{
							"internalType": "address payable",
							"name": "getter",
							"type": "address"
						}
					],
					"name": "TRANSFER",
					"outputs": [],
					"stateMutability": "nonpayable",
					"type": "function"
				},
				{
					"inputs": [],
					"name": "checkBalance",
					"outputs": [
						{
							"internalType": "uint256",
							"name": "",
							"type": "uint256"
						}
					],
					"stateMutability": "view",
					"type": "function"
				},
				{
					"inputs": [],
					"name": "getter",
					"outputs": [
						{
							"internalType": "address payable",
							"name": "",
							"type": "address"
						}
					],
					"stateMutability": "view",
					"type": "function"
				},
				{
					"stateMutability": "payable",
					"type": "receive"
				}
			],
			"devdoc": {
				"kind": "dev",
				"methods": {},
				"version": 1
			},
			"evm": {
				"assembly": "    /* \"send_eth.sol\":411:1135  contract sendETH{... */\n  mstore(0x40, 0x80)\n    /* \"send_eth.sol\":473:515  0x03C6FcED478cBbC9a4FAB34eF9f40767739D1Ff7 */\n  0x03c6fced478cbbc9a4fab34ef9f40767739d1ff7\n    /* \"send_eth.sol\":433:516  address payable public getter = payable(0x03C6FcED478cBbC9a4FAB34eF9f40767739D1Ff7) */\n  0x00\n  dup1\n  0x0100\n  exp\n  dup2\n  sload\n  dup2\n  0xffffffffffffffffffffffffffffffffffffffff\n  mul\n  not\n  and\n  swap1\n  dup4\n  0xffffffffffffffffffffffffffffffffffffffff\n  and\n  mul\n  or\n  swap1\n  sstore\n  pop\n    /* \"send_eth.sol\":411:1135  contract sendETH{... */\n  callvalue\n  dup1\n  iszero\n  tag_1\n  jumpi\n  0x00\n  dup1\n  revert\ntag_1:\n  pop\n  dataSize(sub_0)\n  dup1\n  dataOffset(sub_0)\n  0x00\n  codecopy\n  0x00\n  return\nstop\n\nsub_0: assembly {\n        /* \"send_eth.sol\":411:1135  contract sendETH{... */\n      mstore(0x40, 0x80)\n      jumpi(tag_1, lt(calldatasize, 0x04))\n      shr(0xe0, calldataload(0x00))\n      dup1\n      0x1cd48842\n      eq\n      tag_3\n      jumpi\n      dup1\n      0x993a04b7\n      eq\n      tag_4\n      jumpi\n      dup1\n      0x9cb4ddd0\n      eq\n      tag_5\n      jumpi\n      dup1\n      0xaf075e0c\n      eq\n      tag_6\n      jumpi\n      dup1\n      0xc71daccb\n      eq\n      tag_7\n      jumpi\n      jump(tag_2)\n    tag_1:\n      jumpi(tag_2, calldatasize)\n      stop\n    tag_2:\n      0x00\n      dup1\n      revert\n        /* \"send_eth.sol\":935:1133  function CALL() public{... */\n    tag_3:\n      callvalue\n      dup1\n      iszero\n      tag_10\n      jumpi\n      0x00\n      dup1\n      revert\n    tag_10:\n      pop\n      tag_11\n      tag_12\n      jump\t// in\n    tag_11:\n      stop\n        /* \"send_eth.sol\":433:516  address payable public getter = payable(0x03C6FcED478cBbC9a4FAB34eF9f40767739D1Ff7) */\n    tag_4:\n      callvalue\n      dup1\n      iszero\n      tag_13\n      jumpi\n      0x00\n      dup1\n      revert\n    tag_13:\n      pop\n      tag_14\n      tag_15\n      jump\t// in\n    tag_14:\n      mload(0x40)\n      tag_16\n      swap2\n      swap1\n      tag_17\n      jump\t// in\n    tag_16:\n      mload(0x40)\n      dup1\n      swap2\n      sub\n      swap1\n      return\n        /* \"send_eth.sol\":828:929  function TRANSFER(address payable getter) public{... */\n    tag_5:\n      callvalue\n      dup1\n      iszero\n      tag_18\n      jumpi\n      0x00\n      dup1\n      revert\n    tag_18:\n      pop\n      tag_19\n      0x04\n      dup1\n      calldatasize\n      sub\n      dup2\n      add\n      swap1\n      tag_20\n      swap2\n      swap1\n      tag_21\n      jump\t// in\n    tag_20:\n      tag_22\n      jump\t// in\n    tag_19:\n      stop\n        /* \"send_eth.sol\":665:822  function SEND(address payable getter) public{... */\n    tag_6:\n      callvalue\n      dup1\n      iszero\n      tag_23\n      jumpi\n      0x00\n      dup1\n      revert\n    tag_23:\n      pop\n      tag_24\n      0x04\n      dup1\n      calldatasize\n      sub\n      dup2\n      add\n      swap1\n      tag_25\n      swap2\n      swap1\n      tag_21\n      jump\t// in\n    tag_25:\n      tag_26\n      jump\t// in\n    tag_24:\n      stop\n        /* \"send_eth.sol\":564:658  function checkBalance() public view returns(uint){... */\n    tag_7:\n      callvalue\n      dup1\n      iszero\n      tag_27\n      jumpi\n      0x00\n      dup1\n      revert\n    tag_27:\n      pop\n      tag_28\n      tag_29\n      jump\t// in\n    tag_28:\n      mload(0x40)\n      tag_30\n      swap2\n      swap1\n      tag_31\n      jump\t// in\n    tag_30:\n      mload(0x40)\n      dup1\n      swap2\n      sub\n      swap1\n      return\n        /* \"send_eth.sol\":935:1133  function CALL() public{... */\n    tag_12:\n        /* \"send_eth.sol\":977:985  bool get */\n      0x00\n        /* \"send_eth.sol\":989:995  getter */\n      dup1\n      0x00\n      swap1\n      sload\n      swap1\n      0x0100\n      exp\n      swap1\n      div\n      0xffffffffffffffffffffffffffffffffffffffff\n      and\n        /* \"send_eth.sol\":989:1000  getter.call */\n      0xffffffffffffffffffffffffffffffffffffffff\n      and\n        /* \"send_eth.sol\":1020:1038  100000000000000000 */\n      0x016345785d8a0000\n        /* \"send_eth.sol\":989:1078  getter.call{... */\n      mload(0x40)\n      tag_33\n      swap1\n      tag_34\n      jump\t// in\n    tag_33:\n      0x00\n      mload(0x40)\n      dup1\n      dup4\n      sub\n      dup2\n      dup6\n      dup8\n      gas\n      call\n      swap3\n      pop\n      pop\n      pop\n      returndatasize\n      dup1\n      0x00\n      dup2\n      eq\n      tag_37\n      jumpi\n      mload(0x40)\n      swap2\n      pop\n      and(add(returndatasize, 0x3f), not(0x1f))\n      dup3\n      add\n      0x40\n      mstore\n      returndatasize\n      dup3\n      mstore\n      returndatasize\n      0x00\n      0x20\n      dup5\n      add\n      returndatacopy\n      jump(tag_36)\n    tag_37:\n      0x60\n      swap2\n      pop\n    tag_36:\n      pop\n        /* \"send_eth.sol\":976:1078  (bool get, )=getter.call{... */\n      pop\n      swap1\n      pop\n        /* \"send_eth.sol\":1097:1100  get */\n      dup1\n        /* \"send_eth.sol\":1089:1126  require(get, \"Transcation is Failed\") */\n      tag_38\n      jumpi\n      mload(0x40)\n      0x08c379a000000000000000000000000000000000000000000000000000000000\n      dup2\n      mstore\n      0x04\n      add\n      tag_39\n      swap1\n      tag_40\n      jump\t// in\n    tag_39:\n      mload(0x40)\n      dup1\n      swap2\n      sub\n      swap1\n      revert\n    tag_38:\n        /* \"send_eth.sol\":957:1133  {... */\n      pop\n        /* \"send_eth.sol\":935:1133  function CALL() public{... */\n      jump\t// out\n        /* \"send_eth.sol\":433:516  address payable public getter = payable(0x03C6FcED478cBbC9a4FAB34eF9f40767739D1Ff7) */\n    tag_15:\n      0x00\n      dup1\n      sload\n      swap1\n      0x0100\n      exp\n      swap1\n      div\n      0xffffffffffffffffffffffffffffffffffffffff\n      and\n      dup2\n      jump\t// out\n        /* \"send_eth.sol\":828:929  function TRANSFER(address payable getter) public{... */\n    tag_22:\n        /* \"send_eth.sol\":886:892  getter */\n      dup1\n        /* \"send_eth.sol\":886:901  getter.transfer */\n      0xffffffffffffffffffffffffffffffffffffffff\n      and\n        /* \"send_eth.sol\":886:922  getter.transfer(1000000000000000000) */\n      0x08fc\n        /* \"send_eth.sol\":902:921  1000000000000000000 */\n      0x0de0b6b3a7640000\n        /* \"send_eth.sol\":886:922  getter.transfer(1000000000000000000) */\n      swap1\n      dup2\n      iszero\n      mul\n      swap1\n      mload(0x40)\n      0x00\n      mload(0x40)\n      dup1\n      dup4\n      sub\n      dup2\n      dup6\n      dup9\n      dup9\n      call\n      swap4\n      pop\n      pop\n      pop\n      pop\n      iszero\n      dup1\n      iszero\n      tag_43\n      jumpi\n      returndatasize\n      0x00\n      dup1\n      returndatacopy\n      revert(0x00, returndatasize)\n    tag_43:\n      pop\n        /* \"send_eth.sol\":828:929  function TRANSFER(address payable getter) public{... */\n      pop\n      jump\t// out\n        /* \"send_eth.sol\":665:822  function SEND(address payable getter) public{... */\n    tag_26:\n        /* \"send_eth.sol\":719:730  bool isSend */\n      0x00\n        /* \"send_eth.sol\":733:739  getter */\n      dup2\n        /* \"send_eth.sol\":733:744  getter.send */\n      0xffffffffffffffffffffffffffffffffffffffff\n      and\n        /* \"send_eth.sol\":733:765  getter.send(1000000000000000000) */\n      0x08fc\n        /* \"send_eth.sol\":745:764  1000000000000000000 */\n      0x0de0b6b3a7640000\n        /* \"send_eth.sol\":733:765  getter.send(1000000000000000000) */\n      swap1\n      dup2\n      iszero\n      mul\n      swap1\n      mload(0x40)\n      0x00\n      mload(0x40)\n      dup1\n      dup4\n      sub\n      dup2\n      dup6\n      dup9\n      dup9\n      call\n      swap4\n      pop\n      pop\n      pop\n      pop\n        /* \"send_eth.sol\":719:765  bool isSend = getter.send(1000000000000000000) */\n      swap1\n      pop\n        /* \"send_eth.sol\":783:789  isSend */\n      dup1\n        /* \"send_eth.sol\":775:815  require(isSend, \"Transcation is Failed\") */\n      tag_46\n      jumpi\n      mload(0x40)\n      0x08c379a000000000000000000000000000000000000000000000000000000000\n      dup2\n      mstore\n      0x04\n      add\n      tag_47\n      swap1\n      tag_40\n      jump\t// in\n    tag_47:\n      mload(0x40)\n      dup1\n      swap2\n      sub\n      swap1\n      revert\n    tag_46:\n        /* \"send_eth.sol\":709:822  {... */\n      pop\n        /* \"send_eth.sol\":665:822  function SEND(address payable getter) public{... */\n      pop\n      jump\t// out\n        /* \"send_eth.sol\":564:658  function checkBalance() public view returns(uint){... */\n    tag_29:\n        /* \"send_eth.sol\":608:612  uint */\n      0x00\n        /* \"send_eth.sol\":630:651  address(this).balance */\n      selfbalance\n        /* \"send_eth.sol\":623:651  return address(this).balance */\n      swap1\n      pop\n        /* \"send_eth.sol\":564:658  function checkBalance() public view returns(uint){... */\n      swap1\n      jump\t// out\n        /* \"#utility.yul\":7:162   */\n    tag_50:\n        /* \"#utility.yul\":61:66   */\n      0x00\n        /* \"#utility.yul\":99:105   */\n      dup2\n        /* \"#utility.yul\":86:106   */\n      calldataload\n        /* \"#utility.yul\":77:106   */\n      swap1\n      pop\n        /* \"#utility.yul\":115:156   */\n      tag_52\n        /* \"#utility.yul\":150:155   */\n      dup2\n        /* \"#utility.yul\":115:156   */\n      tag_53\n      jump\t// in\n    tag_52:\n        /* \"#utility.yul\":7:162   */\n      swap3\n      swap2\n      pop\n      pop\n      jump\t// out\n        /* \"#utility.yul\":168:513   */\n    tag_21:\n        /* \"#utility.yul\":235:241   */\n      0x00\n        /* \"#utility.yul\":284:286   */\n      0x20\n        /* \"#utility.yul\":272:281   */\n      dup3\n        /* \"#utility.yul\":263:270   */\n      dup5\n        /* \"#utility.yul\":259:282   */\n      sub\n        /* \"#utility.yul\":255:287   */\n      slt\n        /* \"#utility.yul\":252:371   */\n      iszero\n      tag_55\n      jumpi\n        /* \"#utility.yul\":290:369   */\n      tag_56\n      tag_57\n      jump\t// in\n    tag_56:\n        /* \"#utility.yul\":252:371   */\n    tag_55:\n        /* \"#utility.yul\":410:411   */\n      0x00\n        /* \"#utility.yul\":435:496   */\n      tag_58\n        /* \"#utility.yul\":488:495   */\n      dup5\n        /* \"#utility.yul\":479:485   */\n      dup3\n        /* \"#utility.yul\":468:477   */\n      dup6\n        /* \"#utility.yul\":464:486   */\n      add\n        /* \"#utility.yul\":435:496   */\n      tag_50\n      jump\t// in\n    tag_58:\n        /* \"#utility.yul\":425:496   */\n      swap2\n      pop\n        /* \"#utility.yul\":381:506   */\n      pop\n        /* \"#utility.yul\":168:513   */\n      swap3\n      swap2\n      pop\n      pop\n      jump\t// out\n        /* \"#utility.yul\":519:661   */\n    tag_59:\n        /* \"#utility.yul\":622:654   */\n      tag_61\n        /* \"#utility.yul\":648:653   */\n      dup2\n        /* \"#utility.yul\":622:654   */\n      tag_62\n      jump\t// in\n    tag_61:\n        /* \"#utility.yul\":617:620   */\n      dup3\n        /* \"#utility.yul\":610:655   */\n      mstore\n        /* \"#utility.yul\":519:661   */\n      pop\n      pop\n      jump\t// out\n        /* \"#utility.yul\":667:1033   */\n    tag_63:\n        /* \"#utility.yul\":809:812   */\n      0x00\n        /* \"#utility.yul\":830:897   */\n      tag_65\n        /* \"#utility.yul\":894:896   */\n      0x15\n        /* \"#utility.yul\":889:892   */\n      dup4\n        /* \"#utility.yul\":830:897   */\n      tag_66\n      jump\t// in\n    tag_65:\n        /* \"#utility.yul\":823:897   */\n      swap2\n      pop\n        /* \"#utility.yul\":906:999   */\n      tag_67\n        /* \"#utility.yul\":995:998   */\n      dup3\n        /* \"#utility.yul\":906:999   */\n      tag_68\n      jump\t// in\n    tag_67:\n        /* \"#utility.yul\":1024:1026   */\n      0x20\n        /* \"#utility.yul\":1019:1022   */\n      dup3\n        /* \"#utility.yul\":1015:1027   */\n      add\n        /* \"#utility.yul\":1008:1027   */\n      swap1\n      pop\n        /* \"#utility.yul\":667:1033   */\n      swap2\n      swap1\n      pop\n      jump\t// out\n        /* \"#utility.yul\":1039:1437   */\n    tag_69:\n        /* \"#utility.yul\":1198:1201   */\n      0x00\n        /* \"#utility.yul\":1219:1302   */\n      tag_71\n        /* \"#utility.yul\":1300:1301   */\n      0x00\n        /* \"#utility.yul\":1295:1298   */\n      dup4\n        /* \"#utility.yul\":1219:1302   */\n      tag_72\n      jump\t// in\n    tag_71:\n        /* \"#utility.yul\":1212:1302   */\n      swap2\n      pop\n        /* \"#utility.yul\":1311:1404   */\n      tag_73\n        /* \"#utility.yul\":1400:1403   */\n      dup3\n        /* \"#utility.yul\":1311:1404   */\n      tag_74\n      jump\t// in\n    tag_73:\n        /* \"#utility.yul\":1429:1430   */\n      0x00\n        /* \"#utility.yul\":1424:1427   */\n      dup3\n        /* \"#utility.yul\":1420:1431   */\n      add\n        /* \"#utility.yul\":1413:1431   */\n      swap1\n      pop\n        /* \"#utility.yul\":1039:1437   */\n      swap2\n      swap1\n      pop\n      jump\t// out\n        /* \"#utility.yul\":1443:1561   */\n    tag_75:\n        /* \"#utility.yul\":1530:1554   */\n      tag_77\n        /* \"#utility.yul\":1548:1553   */\n      dup2\n        /* \"#utility.yul\":1530:1554   */\n      tag_78\n      jump\t// in\n    tag_77:\n        /* \"#utility.yul\":1525:1528   */\n      dup3\n        /* \"#utility.yul\":1518:1555   */\n      mstore\n        /* \"#utility.yul\":1443:1561   */\n      pop\n      pop\n      jump\t// out\n        /* \"#utility.yul\":1567:1946   */\n    tag_34:\n        /* \"#utility.yul\":1751:1754   */\n      0x00\n        /* \"#utility.yul\":1773:1920   */\n      tag_80\n        /* \"#utility.yul\":1916:1919   */\n      dup3\n        /* \"#utility.yul\":1773:1920   */\n      tag_69\n      jump\t// in\n    tag_80:\n        /* \"#utility.yul\":1766:1920   */\n      swap2\n      pop\n        /* \"#utility.yul\":1937:1940   */\n      dup2\n        /* \"#utility.yul\":1930:1940   */\n      swap1\n      pop\n        /* \"#utility.yul\":1567:1946   */\n      swap2\n      swap1\n      pop\n      jump\t// out\n        /* \"#utility.yul\":1952:2206   */\n    tag_17:\n        /* \"#utility.yul\":2061:2065   */\n      0x00\n        /* \"#utility.yul\":2099:2101   */\n      0x20\n        /* \"#utility.yul\":2088:2097   */\n      dup3\n        /* \"#utility.yul\":2084:2102   */\n      add\n        /* \"#utility.yul\":2076:2102   */\n      swap1\n      pop\n        /* \"#utility.yul\":2112:2199   */\n      tag_82\n        /* \"#utility.yul\":2196:2197   */\n      0x00\n        /* \"#utility.yul\":2185:2194   */\n      dup4\n        /* \"#utility.yul\":2181:2198   */\n      add\n        /* \"#utility.yul\":2172:2178   */\n      dup5\n        /* \"#utility.yul\":2112:2199   */\n      tag_59\n      jump\t// in\n    tag_82:\n        /* \"#utility.yul\":1952:2206   */\n      swap3\n      swap2\n      pop\n      pop\n      jump\t// out\n        /* \"#utility.yul\":2212:2631   */\n    tag_40:\n        /* \"#utility.yul\":2378:2382   */\n      0x00\n        /* \"#utility.yul\":2416:2418   */\n      0x20\n        /* \"#utility.yul\":2405:2414   */\n      dup3\n        /* \"#utility.yul\":2401:2419   */\n      add\n        /* \"#utility.yul\":2393:2419   */\n      swap1\n      pop\n        /* \"#utility.yul\":2465:2474   */\n      dup2\n        /* \"#utility.yul\":2459:2463   */\n      dup2\n        /* \"#utility.yul\":2455:2475   */\n      sub\n        /* \"#utility.yul\":2451:2452   */\n      0x00\n        /* \"#utility.yul\":2440:2449   */\n      dup4\n        /* \"#utility.yul\":2436:2453   */\n      add\n        /* \"#utility.yul\":2429:2476   */\n      mstore\n        /* \"#utility.yul\":2493:2624   */\n      tag_84\n        /* \"#utility.yul\":2619:2623   */\n      dup2\n        /* \"#utility.yul\":2493:2624   */\n      tag_63\n      jump\t// in\n    tag_84:\n        /* \"#utility.yul\":2485:2624   */\n      swap1\n      pop\n        /* \"#utility.yul\":2212:2631   */\n      swap2\n      swap1\n      pop\n      jump\t// out\n        /* \"#utility.yul\":2637:2859   */\n    tag_31:\n        /* \"#utility.yul\":2730:2734   */\n      0x00\n        /* \"#utility.yul\":2768:2770   */\n      0x20\n        /* \"#utility.yul\":2757:2766   */\n      dup3\n        /* \"#utility.yul\":2753:2771   */\n      add\n        /* \"#utility.yul\":2745:2771   */\n      swap1\n      pop\n        /* \"#utility.yul\":2781:2852   */\n      tag_86\n        /* \"#utility.yul\":2849:2850   */\n      0x00\n        /* \"#utility.yul\":2838:2847   */\n      dup4\n        /* \"#utility.yul\":2834:2851   */\n      add\n        /* \"#utility.yul\":2825:2831   */\n      dup5\n        /* \"#utility.yul\":2781:2852   */\n      tag_75\n      jump\t// in\n    tag_86:\n        /* \"#utility.yul\":2637:2859   */\n      swap3\n      swap2\n      pop\n      pop\n      jump\t// out\n        /* \"#utility.yul\":2946:3093   */\n    tag_72:\n        /* \"#utility.yul\":3047:3058   */\n      0x00\n        /* \"#utility.yul\":3084:3087   */\n      dup2\n        /* \"#utility.yul\":3069:3087   */\n      swap1\n      pop\n        /* \"#utility.yul\":2946:3093   */\n      swap3\n      swap2\n      pop\n      pop\n      jump\t// out\n        /* \"#utility.yul\":3099:3268   */\n    tag_66:\n        /* \"#utility.yul\":3183:3194   */\n      0x00\n        /* \"#utility.yul\":3217:3223   */\n      dup3\n        /* \"#utility.yul\":3212:3215   */\n      dup3\n        /* \"#utility.yul\":3205:3224   */\n      mstore\n        /* \"#utility.yul\":3257:3261   */\n      0x20\n        /* \"#utility.yul\":3252:3255   */\n      dup3\n        /* \"#utility.yul\":3248:3262   */\n      add\n        /* \"#utility.yul\":3233:3262   */\n      swap1\n      pop\n        /* \"#utility.yul\":3099:3268   */\n      swap3\n      swap2\n      pop\n      pop\n      jump\t// out\n        /* \"#utility.yul\":3274:3378   */\n    tag_62:\n        /* \"#utility.yul\":3319:3326   */\n      0x00\n        /* \"#utility.yul\":3348:3372   */\n      tag_92\n        /* \"#utility.yul\":3366:3371   */\n      dup3\n        /* \"#utility.yul\":3348:3372   */\n      tag_93\n      jump\t// in\n    tag_92:\n        /* \"#utility.yul\":3337:3372   */\n      swap1\n      pop\n        /* \"#utility.yul\":3274:3378   */\n      swap2\n      swap1\n      pop\n      jump\t// out\n        /* \"#utility.yul\":3384:3510   */\n    tag_93:\n        /* \"#utility.yul\":3421:3428   */\n      0x00\n        /* \"#utility.yul\":3461:3503   */\n      0xffffffffffffffffffffffffffffffffffffffff\n        /* \"#utility.yul\":3454:3459   */\n      dup3\n        /* \"#utility.yul\":3450:3504   */\n      and\n        /* \"#utility.yul\":3439:3504   */\n      swap1\n      pop\n        /* \"#utility.yul\":3384:3510   */\n      swap2\n      swap1\n      pop\n      jump\t// out\n        /* \"#utility.yul\":3516:3593   */\n    tag_78:\n        /* \"#utility.yul\":3553:3560   */\n      0x00\n        /* \"#utility.yul\":3582:3587   */\n      dup2\n        /* \"#utility.yul\":3571:3587   */\n      swap1\n      pop\n        /* \"#utility.yul\":3516:3593   */\n      swap2\n      swap1\n      pop\n      jump\t// out\n        /* \"#utility.yul\":3722:3839   */\n    tag_57:\n        /* \"#utility.yul\":3831:3832   */\n      0x00\n        /* \"#utility.yul\":3828:3829   */\n      dup1\n        /* \"#utility.yul\":3821:3833   */\n      revert\n        /* \"#utility.yul\":3845:4016   */\n    tag_68:\n        /* \"#utility.yul\":3985:4008   */\n      0x5472616e73636174696f6e206973204661696c65640000000000000000000000\n        /* \"#utility.yul\":3981:3982   */\n      0x00\n        /* \"#utility.yul\":3973:3979   */\n      dup3\n        /* \"#utility.yul\":3969:3983   */\n      add\n        /* \"#utility.yul\":3962:4009   */\n      mstore\n        /* \"#utility.yul\":3845:4016   */\n      pop\n      jump\t// out\n        /* \"#utility.yul\":4022:4136   */\n    tag_74:\n      pop\n      jump\t// out\n        /* \"#utility.yul\":4142:4280   */\n    tag_53:\n        /* \"#utility.yul\":4223:4255   */\n      tag_102\n        /* \"#utility.yul\":4249:4254   */\n      dup2\n        /* \"#utility.yul\":4223:4255   */\n      tag_62\n      jump\t// in\n    tag_102:\n        /* \"#utility.yul\":4216:4221   */\n      dup2\n        /* \"#utility.yul\":4213:4256   */\n      eq\n        /* \"#utility.yul\":4203:4274   */\n      tag_103\n      jumpi\n        /* \"#utility.yul\":4270:4271   */\n      0x00\n        /* \"#utility.yul\":4267:4268   */\n      dup1\n        /* \"#utility.yul\":4260:4272   */\n      revert\n        /* \"#utility.yul\":4203:4274   */\n    tag_103:\n        /* \"#utility.yul\":4142:4280   */\n      pop\n      jump\t// out\n\n    auxdata: 0xa2646970667358221220125628e9128fc577aa7be144ea1d0a5aed335524cd5c42addfb0a8683788bfe764736f6c63430008070033\n}\n",
				"bytecode": {
					"linkReferences": {},
					"object": "60806040527303c6fced478cbbc9a4fab34ef9f40767739d1ff76000806101000a81548173ffffffffffffffffffffffffffffffffffffffff021916908373ffffffffffffffffffffffffffffffffffffffff16021790555034801561006457600080fd5b506104db806100746000396000f3fe60806040526004361061004e5760003560e01c80631cd488421461005a578063993a04b7146100715780639cb4ddd01461009c578063af075e0c146100c5578063c71daccb146100ee57610055565b3661005557005b600080fd5b34801561006657600080fd5b5061006f610119565b005b34801561007d57600080fd5b506100866101f1565b60405161009391906103af565b60405180910390f35b3480156100a857600080fd5b506100c360048036038101906100be9190610309565b610215565b005b3480156100d157600080fd5b506100ec60048036038101906100e79190610309565b610267565b005b3480156100fa57600080fd5b506101036102ec565b60405161011091906103ea565b60405180910390f35b60008060009054906101000a900473ffffffffffffffffffffffffffffffffffffffff1673ffffffffffffffffffffffffffffffffffffffff1667016345785d8a00006040516101689061039a565b60006040518083038185875af1925050503d80600081146101a5576040519150601f19603f3d011682016040523d82523d6000602084013e6101aa565b606091505b50509050806101ee576040517f08c379a00000000000000000000000000000000000000000000000000000000081526004016101e5906103ca565b60405180910390fd5b50565b60008054906101000a900473ffffffffffffffffffffffffffffffffffffffff1681565b8073ffffffffffffffffffffffffffffffffffffffff166108fc670de0b6b3a76400009081150290604051600060405180830381858888f19350505050158015610263573d6000803e3d6000fd5b5050565b60008173ffffffffffffffffffffffffffffffffffffffff166108fc670de0b6b3a76400009081150290604051600060405180830381858888f193505050509050806102e8576040517f08c379a00000000000000000000000000000000000000000000000000000000081526004016102df906103ca565b60405180910390fd5b5050565b600047905090565b6000813590506103038161048e565b92915050565b60006020828403121561031f5761031e61045d565b5b600061032d848285016102f4565b91505092915050565b61033f81610421565b82525050565b6000610352601583610410565b915061035d82610462565b602082019050919050565b6000610375600083610405565b91506103808261048b565b600082019050919050565b61039481610453565b82525050565b60006103a582610368565b9150819050919050565b60006020820190506103c46000830184610336565b92915050565b600060208201905081810360008301526103e381610345565b9050919050565b60006020820190506103ff600083018461038b565b92915050565b600081905092915050565b600082825260208201905092915050565b600061042c82610433565b9050919050565b600073ffffffffffffffffffffffffffffffffffffffff82169050919050565b6000819050919050565b600080fd5b7f5472616e73636174696f6e206973204661696c65640000000000000000000000600082015250565b50565b61049781610421565b81146104a257600080fd5b5056fea2646970667358221220125628e9128fc577aa7be144ea1d0a5aed335524cd5c42addfb0a8683788bfe764736f6c63430008070033",
					"opcodes": "PUSH1 0x80 PUSH1 0x40 MSTORE PUSH20 0x3C6FCED478CBBC9A4FAB34EF9F40767739D1FF7 PUSH1 0x0 DUP1 PUSH2 0x100 EXP DUP2 SLOAD DUP2 PUSH20 0xFFFFFFFFFFFFFFFFFFFFFFFFFFFFFFFFFFFFFFFF MUL NOT AND SWAP1 DUP4 PUSH20 0xFFFFFFFFFFFFFFFFFFFFFFFFFFFFFFFFFFFFFFFF AND MUL OR SWAP1 SSTORE POP CALLVALUE DUP1 ISZERO PUSH2 0x64 JUMPI PUSH1 0x0 DUP1 REVERT JUMPDEST POP PUSH2 0x4DB DUP1 PUSH2 0x74 PUSH1 0x0 CODECOPY PUSH1 0x0 RETURN INVALID PUSH1 0x80 PUSH1 0x40 MSTORE PUSH1 0x4 CALLDATASIZE LT PUSH2 0x4E JUMPI PUSH1 0x0 CALLDATALOAD PUSH1 0xE0 SHR DUP1 PUSH4 0x1CD48842 EQ PUSH2 0x5A JUMPI DUP1 PUSH4 0x993A04B7 EQ PUSH2 0x71 JUMPI DUP1 PUSH4 0x9CB4DDD0 EQ PUSH2 0x9C JUMPI DUP1 PUSH4 0xAF075E0C EQ PUSH2 0xC5 JUMPI DUP1 PUSH4 0xC71DACCB EQ PUSH2 0xEE JUMPI PUSH2 0x55 JUMP JUMPDEST CALLDATASIZE PUSH2 0x55 JUMPI STOP JUMPDEST PUSH1 0x0 DUP1 REVERT JUMPDEST CALLVALUE DUP1 ISZERO PUSH2 0x66 JUMPI PUSH1 0x0 DUP1 REVERT JUMPDEST POP PUSH2 0x6F PUSH2 0x119 JUMP JUMPDEST STOP JUMPDEST CALLVALUE DUP1 ISZERO PUSH2 0x7D JUMPI PUSH1 0x0 DUP1 REVERT JUMPDEST POP PUSH2 0x86 PUSH2 0x1F1 JUMP JUMPDEST PUSH1 0x40 MLOAD PUSH2 0x93 SWAP2 SWAP1 PUSH2 0x3AF JUMP JUMPDEST PUSH1 0x40 MLOAD DUP1 SWAP2 SUB SWAP1 RETURN JUMPDEST CALLVALUE DUP1 ISZERO PUSH2 0xA8 JUMPI PUSH1 0x0 DUP1 REVERT JUMPDEST POP PUSH2 0xC3 PUSH1 0x4 DUP1 CALLDATASIZE SUB DUP2 ADD SWAP1 PUSH2 0xBE SWAP2 SWAP1 PUSH2 0x309 JUMP JUMPDEST PUSH2 0x215 JUMP JUMPDEST STOP JUMPDEST CALLVALUE DUP1 ISZERO PUSH2 0xD1 JUMPI PUSH1 0x0 DUP1 REVERT JUMPDEST POP PUSH2 0xEC PUSH1 0x4 DUP1 CALLDATASIZE SUB DUP2 ADD SWAP1 PUSH2 0xE7 SWAP2 SWAP1 PUSH2 0x309 JUMP JUMPDEST PUSH2 0x267 JUMP JUMPDEST STOP JUMPDEST CALLVALUE DUP1 ISZERO PUSH2 0xFA JUMPI PUSH1 0x0 DUP1 REVERT JUMPDEST POP PUSH2 0x103 PUSH2 0x2EC JUMP JUMPDEST PUSH1 0x40 MLOAD PUSH2 0x110 SWAP2 SWAP1 PUSH2 0x3EA JUMP JUMPDEST PUSH1 0x40 MLOAD DUP1 SWAP2 SUB SWAP1 RETURN JUMPDEST PUSH1 0x0 DUP1 PUSH1 0x0 SWAP1 SLOAD SWAP1 PUSH2 0x100 EXP SWAP1 DIV PUSH20 0xFFFFFFFFFFFFFFFFFFFFFFFFFFFFFFFFFFFFFFFF AND PUSH20 0xFFFFFFFFFFFFFFFFFFFFFFFFFFFFFFFFFFFFFFFF AND PUSH8 0x16345785D8A0000 PUSH1 0x40 MLOAD PUSH2 0x168 SWAP1 PUSH2 0x39A JUMP JUMPDEST PUSH1 0x0 PUSH1 0x40 MLOAD DUP1 DUP4 SUB DUP2 DUP6 DUP8 GAS CALL SWAP3 POP POP POP RETURNDATASIZE DUP1 PUSH1 0x0 DUP2 EQ PUSH2 0x1A5 JUMPI PUSH1 0x40 MLOAD SWAP2 POP PUSH1 0x1F NOT PUSH1 0x3F RETURNDATASIZE ADD AND DUP3 ADD PUSH1 0x40 MSTORE RETURNDATASIZE DUP3 MSTORE RETURNDATASIZE PUSH1 0x0 PUSH1 0x20 DUP5 ADD RETURNDATACOPY PUSH2 0x1AA JUMP JUMPDEST PUSH1 0x60 SWAP2 POP JUMPDEST POP POP SWAP1 POP DUP1 PUSH2 0x1EE JUMPI PUSH1 0x40 MLOAD PUSH32 0x8C379A000000000000000000000000000000000000000000000000000000000 DUP2 MSTORE PUSH1 0x4 ADD PUSH2 0x1E5 SWAP1 PUSH2 0x3CA JUMP JUMPDEST PUSH1 0x40 MLOAD DUP1 SWAP2 SUB SWAP1 REVERT JUMPDEST POP JUMP JUMPDEST PUSH1 0x0 DUP1 SLOAD SWAP1 PUSH2 0x100 EXP SWAP1 DIV PUSH20 0xFFFFFFFFFFFFFFFFFFFFFFFFFFFFFFFFFFFFFFFF AND DUP2 JUMP JUMPDEST DUP1 PUSH20 0xFFFFFFFFFFFFFFFFFFFFFFFFFFFFFFFFFFFFFFFF AND PUSH2 0x8FC PUSH8 0xDE0B6B3A7640000 SWAP1 DUP2 ISZERO MUL SWAP1 PUSH1 0x40 MLOAD PUSH1 0x0 PUSH1 0x40 MLOAD DUP1 DUP4 SUB DUP2 DUP6 DUP9 DUP9 CALL SWAP4 POP POP POP POP ISZERO DUP1 ISZERO PUSH2 0x263 JUMPI RETURNDATASIZE PUSH1 0x0 DUP1 RETURNDATACOPY RETURNDATASIZE PUSH1 0x0 REVERT JUMPDEST POP POP JUMP JUMPDEST PUSH1 0x0 DUP2 PUSH20 0xFFFFFFFFFFFFFFFFFFFFFFFFFFFFFFFFFFFFFFFF AND PUSH2 0x8FC PUSH8 0xDE0B6B3A7640000 SWAP1 DUP2 ISZERO MUL SWAP1 PUSH1 0x40 MLOAD PUSH1 0x0 PUSH1 0x40 MLOAD DUP1 DUP4 SUB DUP2 DUP6 DUP9 DUP9 CALL SWAP4 POP POP POP POP SWAP1 POP DUP1 PUSH2 0x2E8 JUMPI PUSH1 0x40 MLOAD PUSH32 0x8C379A000000000000000000000000000000000000000000000000000000000 DUP2 MSTORE PUSH1 0x4 ADD PUSH2 0x2DF SWAP1 PUSH2 0x3CA JUMP JUMPDEST PUSH1 0x40 MLOAD DUP1 SWAP2 SUB SWAP1 REVERT JUMPDEST POP POP JUMP JUMPDEST PUSH1 0x0 SELFBALANCE SWAP1 POP SWAP1 JUMP JUMPDEST PUSH1 0x0 DUP2 CALLDATALOAD SWAP1 POP PUSH2 0x303 DUP2 PUSH2 0x48E JUMP JUMPDEST SWAP3 SWAP2 POP POP JUMP JUMPDEST PUSH1 0x0 PUSH1 0x20 DUP3 DUP5 SUB SLT ISZERO PUSH2 0x31F JUMPI PUSH2 0x31E PUSH2 0x45D JUMP JUMPDEST JUMPDEST PUSH1 0x0 PUSH2 0x32D DUP5 DUP3 DUP6 ADD PUSH2 0x2F4 JUMP JUMPDEST SWAP2 POP POP SWAP3 SWAP2 POP POP JUMP JUMPDEST PUSH2 0x33F DUP2 PUSH2 0x421 JUMP JUMPDEST DUP3 MSTORE POP POP JUMP JUMPDEST PUSH1 0x0 PUSH2 0x352 PUSH1 0x15 DUP4 PUSH2 0x410 JUMP JUMPDEST SWAP2 POP PUSH2 0x35D DUP3 PUSH2 0x462 JUMP JUMPDEST PUSH1 0x20 DUP3 ADD SWAP1 POP SWAP2 SWAP1 POP JUMP JUMPDEST PUSH1 0x0 PUSH2 0x375 PUSH1 0x0 DUP4 PUSH2 0x405 JUMP JUMPDEST SWAP2 POP PUSH2 0x380 DUP3 PUSH2 0x48B JUMP JUMPDEST PUSH1 0x0 DUP3 ADD SWAP1 POP SWAP2 SWAP1 POP JUMP JUMPDEST PUSH2 0x394 DUP2 PUSH2 0x453 JUMP JUMPDEST DUP3 MSTORE POP POP JUMP JUMPDEST PUSH1 0x0 PUSH2 0x3A5 DUP3 PUSH2 0x368 JUMP JUMPDEST SWAP2 POP DUP2 SWAP1 POP SWAP2 SWAP1 POP JUMP JUMPDEST PUSH1 0x0 PUSH1 0x20 DUP3 ADD SWAP1 POP PUSH2 0x3C4 PUSH1 0x0 DUP4 ADD DUP5 PUSH2 0x336 JUMP JUMPDEST SWAP3 SWAP2 POP POP JUMP JUMPDEST PUSH1 0x0 PUSH1 0x20 DUP3 ADD SWAP1 POP DUP2 DUP2 SUB PUSH1 0x0 DUP4 ADD MSTORE PUSH2 0x3E3 DUP2 PUSH2 0x345 JUMP JUMPDEST SWAP1 POP SWAP2 SWAP1 POP JUMP JUMPDEST PUSH1 0x0 PUSH1 0x20 DUP3 ADD SWAP1 POP PUSH2 0x3FF PUSH1 0x0 DUP4 ADD DUP5 PUSH2 0x38B JUMP JUMPDEST SWAP3 SWAP2 POP POP JUMP JUMPDEST PUSH1 0x0 DUP2 SWAP1 POP SWAP3 SWAP2 POP POP JUMP JUMPDEST PUSH1 0x0 DUP3 DUP3 MSTORE PUSH1 0x20 DUP3 ADD SWAP1 POP SWAP3 SWAP2 POP POP JUMP JUMPDEST PUSH1 0x0 PUSH2 0x42C DUP3 PUSH2 0x433 JUMP JUMPDEST SWAP1 POP SWAP2 SWAP1 POP JUMP JUMPDEST PUSH1 0x0 PUSH20 0xFFFFFFFFFFFFFFFFFFFFFFFFFFFFFFFFFFFFFFFF DUP3 AND SWAP1 POP SWAP2 SWAP1 POP JUMP JUMPDEST PUSH1 0x0 DUP2 SWAP1 POP SWAP2 SWAP1 POP JUMP JUMPDEST PUSH1 0x0 DUP1 REVERT JUMPDEST PUSH32 0x5472616E73636174696F6E206973204661696C65640000000000000000000000 PUSH1 0x0 DUP3 ADD MSTORE POP JUMP JUMPDEST POP JUMP JUMPDEST PUSH2 0x497 DUP2 PUSH2 0x421 JUMP JUMPDEST DUP2 EQ PUSH2 0x4A2 JUMPI PUSH1 0x0 DUP1 REVERT JUMPDEST POP JUMP INVALID LOG2 PUSH5 0x6970667358 0x22 SLT KECCAK256 SLT JUMP 0x28 0xE9 SLT DUP16 0xC5 PUSH24 0xAA7BE144EA1D0A5AED335524CD5C42ADDFB0A8683788BFE7 PUSH5 0x736F6C6343 STOP ADDMOD SMOD STOP CALLER "
				},
				"gasEstimates": {
					"creation": {
						"codeDepositCost": "248600",
						"executionCost": "24554",
						"totalCost": "273154"
					},
					"external": {
						"CALL()": "infinite",
						"SEND(address)": "infinite",
						"TRANSFER(address)": "infinite",
						"checkBalance()": "405",
						"getter()": "2511"
					}
				},
				"methodIdentifiers": {
					"CALL()": "1cd48842",
					"SEND(address)": "af075e0c",
					"TRANSFER(address)": "9cb4ddd0",
					"checkBalance()": "c71daccb",
					"getter()": "993a04b7"
				}
			},
			"storageLayout": {
				"storage": [
					{
						"astId": 7,
						"contract": "send_eth.sol:sendETH",
						"label": "getter",
						"offset": 0,
						"slot": "0",
						"type": "t_address_payable"
					}
				],
				"types": {
					"t_address_payable": {
						"encoding": "inplace",
						"label": "address payable",
						"numberOfBytes": "20"
					}
				}
			},
			"userdoc": {
				"kind": "user",
				"methods": {},
				"version": 1
			}
		}
	}
}