{
	"localvariable.sol": {
		"localvariable": {
			"abi": [
				{
					"inputs": [],
					"stateMutability": "nonpayable",
					"type": "constructor"
				},
				{
					"inputs": [],
					"name": "add",
					"outputs": [
						{
							"internalType": "address",
							"name": "",
							"type": "address"
						}
					],
					"stateMutability": "view",
					"type": "function"
				},
				{
					"inputs": [],
					"name": "boolvar",
					"outputs": [
						{
							"internalType": "bool",
							"name": "",
							"type": "bool"
						}
					],
					"stateMutability": "view",
					"type": "function"
				},
				{
					"inputs": [
						{
							"internalType": "uint256",
							"name": "_x",
							"type": "uint256"
						},
						{
							"internalType": "bool",
							"name": "_y",
							"type": "bool"
						},
						{
							"internalType": "address",
							"name": "_z",
							"type": "address"
						}
					],
					"name": "locvariable",
					"outputs": [
						{
							"internalType": "uint256",
							"name": "",
							"type": "uint256"
						},
						{
							"internalType": "bool",
							"name": "",
							"type": "bool"
						}
					],
					"stateMutability": "nonpayable",
					"type": "function"
				},
				{
					"inputs": [],
					"name": "statevarable",
					"outputs": [
						{
							"internalType": "uint256",
							"name": "",
							"type": "uint256"
						}
					],
					"stateMutability": "view",
					"type": "function"
				}
			],
			"devdoc": {
				"kind": "dev",
				"methods": {},
				"version": 1
			},
			"evm": {
				"assembly": "    /* \"localvariable.sol\":63:447  contract localvariable{... */\n  mstore(0x40, 0x80)\n    /* \"localvariable.sol\":144:149  false */\n  0x00\n    /* \"localvariable.sol\":122:149  bool public boolvar = false */\n  0x01\n  exp(0x0100, 0x00)\n  dup2\n  sload\n  dup2\n  0xff\n  mul\n  not\n  and\n  swap1\n  dup4\n  iszero\n  iszero\n  mul\n  or\n  swap1\n  sstore\n  pop\n    /* \"localvariable.sol\":181:229  constructor(){... */\n  callvalue\n  dup1\n  iszero\n  tag_1\n  jumpi\n  0x00\n  dup1\n  revert\ntag_1:\n  pop\n    /* \"localvariable.sol\":219:222  100 */\n  0x64\n    /* \"localvariable.sol\":204:216  statevarable */\n  0x00\n    /* \"localvariable.sol\":204:222  statevarable = 100 */\n  dup2\n  swap1\n  sstore\n  pop\n    /* \"localvariable.sol\":63:447  contract localvariable{... */\n  dataSize(sub_0)\n  dup1\n  dataOffset(sub_0)\n  0x00\n  codecopy\n  0x00\n  return\nstop\n\nsub_0: assembly {\n        /* \"localvariable.sol\":63:447  contract localvariable{... */\n      mstore(0x40, 0x80)\n      callvalue\n      dup1\n      iszero\n      tag_1\n      jumpi\n      0x00\n      dup1\n      revert\n    tag_1:\n      pop\n      jumpi(tag_2, lt(calldatasize, 0x04))\n      shr(0xe0, calldataload(0x00))\n      dup1\n      0x1abd155f\n      eq\n      tag_3\n      jumpi\n      dup1\n      0x4f2be91f\n      eq\n      tag_4\n      jumpi\n      dup1\n      0x8a3b12ae\n      eq\n      tag_5\n      jumpi\n      dup1\n      0xb75f17c5\n      eq\n      tag_6\n      jumpi\n    tag_2:\n      0x00\n      dup1\n      revert\n        /* \"localvariable.sol\":239:443  function locvariable(uint _x, bool _y, address _z) public returns(uint, bool) {... */\n    tag_3:\n      tag_7\n      0x04\n      dup1\n      calldatasize\n      sub\n      dup2\n      add\n      swap1\n      tag_8\n      swap2\n      swap1\n      tag_9\n      jump\t// in\n    tag_8:\n      tag_10\n      jump\t// in\n    tag_7:\n      mload(0x40)\n      tag_11\n      swap3\n      swap2\n      swap1\n      tag_12\n      jump\t// in\n    tag_11:\n      mload(0x40)\n      dup1\n      swap2\n      sub\n      swap1\n      return\n        /* \"localvariable.sol\":155:173  address public add */\n    tag_4:\n      tag_13\n      tag_14\n      jump\t// in\n    tag_13:\n      mload(0x40)\n      tag_15\n      swap2\n      swap1\n      tag_16\n      jump\t// in\n    tag_15:\n      mload(0x40)\n      dup1\n      swap2\n      sub\n      swap1\n      return\n        /* \"localvariable.sol\":92:116  uint public statevarable */\n    tag_5:\n      tag_17\n      tag_18\n      jump\t// in\n    tag_17:\n      mload(0x40)\n      tag_19\n      swap2\n      swap1\n      tag_20\n      jump\t// in\n    tag_19:\n      mload(0x40)\n      dup1\n      swap2\n      sub\n      swap1\n      return\n        /* \"localvariable.sol\":122:149  bool public boolvar = false */\n    tag_6:\n      tag_21\n      tag_22\n      jump\t// in\n    tag_21:\n      mload(0x40)\n      tag_23\n      swap2\n      swap1\n      tag_24\n      jump\t// in\n    tag_23:\n      mload(0x40)\n      dup1\n      swap2\n      sub\n      swap1\n      return\n        /* \"localvariable.sol\":239:443  function locvariable(uint _x, bool _y, address _z) public returns(uint, bool) {... */\n    tag_10:\n        /* \"localvariable.sol\":305:309  uint */\n      0x00\n        /* \"localvariable.sol\":311:315  bool */\n      dup1\n        /* \"localvariable.sol\":328:334  uint a */\n      0x00\n        /* \"localvariable.sol\":342:344  _x */\n      dup6\n        /* \"localvariable.sol\":337:339  22 */\n      0x16\n        /* \"localvariable.sol\":337:344  22 + _x */\n      tag_26\n      swap2\n      swap1\n      tag_27\n      jump\t// in\n    tag_26:\n        /* \"localvariable.sol\":328:344  uint a = 22 + _x */\n      swap1\n      pop\n        /* \"localvariable.sol\":354:363  bool var1 */\n      0x00\n        /* \"localvariable.sol\":366:370  true */\n      0x01\n        /* \"localvariable.sol\":354:370  bool var1 = true */\n      swap1\n      pop\n        /* \"localvariable.sol\":391:393  _y */\n      dup6\n        /* \"localvariable.sol\":381:388  boolvar */\n      0x01\n      0x00\n        /* \"localvariable.sol\":381:393  boolvar = _y */\n      0x0100\n      exp\n      dup2\n      sload\n      dup2\n      0xff\n      mul\n      not\n      and\n      swap1\n      dup4\n      iszero\n      iszero\n      mul\n      or\n      swap1\n      sstore\n      pop\n        /* \"localvariable.sol\":409:411  _z */\n      dup5\n        /* \"localvariable.sol\":403:406  add */\n      0x01\n      dup1\n        /* \"localvariable.sol\":403:411  add = _z */\n      0x0100\n      exp\n      dup2\n      sload\n      dup2\n      0xffffffffffffffffffffffffffffffffffffffff\n      mul\n      not\n      and\n      swap1\n      dup4\n      0xffffffffffffffffffffffffffffffffffffffff\n      and\n      mul\n      or\n      swap1\n      sstore\n      pop\n        /* \"localvariable.sol\":428:429  a */\n      dup2\n        /* \"localvariable.sol\":431:435  var1 */\n      dup2\n        /* \"localvariable.sol\":421:436  return(a, var1) */\n      swap4\n      pop\n      swap4\n      pop\n      pop\n      pop\n        /* \"localvariable.sol\":239:443  function locvariable(uint _x, bool _y, address _z) public returns(uint, bool) {... */\n      swap4\n      pop\n      swap4\n      swap2\n      pop\n      pop\n      jump\t// out\n        /* \"localvariable.sol\":155:173  address public add */\n    tag_14:\n      0x01\n      dup1\n      sload\n      swap1\n      0x0100\n      exp\n      swap1\n      div\n      0xffffffffffffffffffffffffffffffffffffffff\n      and\n      dup2\n      jump\t// out\n        /* \"localvariable.sol\":92:116  uint public statevarable */\n    tag_18:\n      sload(0x00)\n      dup2\n      jump\t// out\n        /* \"localvariable.sol\":122:149  bool public boolvar = false */\n    tag_22:\n      0x01\n      0x00\n      swap1\n      sload\n      swap1\n      0x0100\n      exp\n      swap1\n      div\n      0xff\n      and\n      dup2\n      jump\t// out\n        /* \"#utility.yul\":7:146   */\n    tag_29:\n        /* \"#utility.yul\":53:58   */\n      0x00\n        /* \"#utility.yul\":91:97   */\n      dup2\n        /* \"#utility.yul\":78:98   */\n      calldataload\n        /* \"#utility.yul\":69:98   */\n      swap1\n      pop\n        /* \"#utility.yul\":107:140   */\n      tag_31\n        /* \"#utility.yul\":134:139   */\n      dup2\n        /* \"#utility.yul\":107:140   */\n      tag_32\n      jump\t// in\n    tag_31:\n        /* \"#utility.yul\":7:146   */\n      swap3\n      swap2\n      pop\n      pop\n      jump\t// out\n        /* \"#utility.yul\":152:285   */\n    tag_33:\n        /* \"#utility.yul\":195:200   */\n      0x00\n        /* \"#utility.yul\":233:239   */\n      dup2\n        /* \"#utility.yul\":220:240   */\n      calldataload\n        /* \"#utility.yul\":211:240   */\n      swap1\n      pop\n        /* \"#utility.yul\":249:279   */\n      tag_35\n        /* \"#utility.yul\":273:278   */\n      dup2\n        /* \"#utility.yul\":249:279   */\n      tag_36\n      jump\t// in\n    tag_35:\n        /* \"#utility.yul\":152:285   */\n      swap3\n      swap2\n      pop\n      pop\n      jump\t// out\n        /* \"#utility.yul\":291:430   */\n    tag_37:\n        /* \"#utility.yul\":337:342   */\n      0x00\n        /* \"#utility.yul\":375:381   */\n      dup2\n        /* \"#utility.yul\":362:382   */\n      calldataload\n        /* \"#utility.yul\":353:382   */\n      swap1\n      pop\n        /* \"#utility.yul\":391:424   */\n      tag_39\n        /* \"#utility.yul\":418:423   */\n      dup2\n        /* \"#utility.yul\":391:424   */\n      tag_40\n      jump\t// in\n    tag_39:\n        /* \"#utility.yul\":291:430   */\n      swap3\n      swap2\n      pop\n      pop\n      jump\t// out\n        /* \"#utility.yul\":436:1049   */\n    tag_9:\n        /* \"#utility.yul\":510:516   */\n      0x00\n        /* \"#utility.yul\":518:524   */\n      dup1\n        /* \"#utility.yul\":526:532   */\n      0x00\n        /* \"#utility.yul\":575:577   */\n      0x60\n        /* \"#utility.yul\":563:572   */\n      dup5\n        /* \"#utility.yul\":554:561   */\n      dup7\n        /* \"#utility.yul\":550:573   */\n      sub\n        /* \"#utility.yul\":546:578   */\n      slt\n        /* \"#utility.yul\":543:662   */\n      iszero\n      tag_42\n      jumpi\n        /* \"#utility.yul\":581:660   */\n      tag_43\n      tag_44\n      jump\t// in\n    tag_43:\n        /* \"#utility.yul\":543:662   */\n    tag_42:\n        /* \"#utility.yul\":701:702   */\n      0x00\n        /* \"#utility.yul\":726:779   */\n      tag_45\n        /* \"#utility.yul\":771:778   */\n      dup7\n        /* \"#utility.yul\":762:768   */\n      dup3\n        /* \"#utility.yul\":751:760   */\n      dup8\n        /* \"#utility.yul\":747:769   */\n      add\n        /* \"#utility.yul\":726:779   */\n      tag_37\n      jump\t// in\n    tag_45:\n        /* \"#utility.yul\":716:779   */\n      swap4\n      pop\n        /* \"#utility.yul\":672:789   */\n      pop\n        /* \"#utility.yul\":828:830   */\n      0x20\n        /* \"#utility.yul\":854:904   */\n      tag_46\n        /* \"#utility.yul\":896:903   */\n      dup7\n        /* \"#utility.yul\":887:893   */\n      dup3\n        /* \"#utility.yul\":876:885   */\n      dup8\n        /* \"#utility.yul\":872:894   */\n      add\n        /* \"#utility.yul\":854:904   */\n      tag_33\n      jump\t// in\n    tag_46:\n        /* \"#utility.yul\":844:904   */\n      swap3\n      pop\n        /* \"#utility.yul\":799:914   */\n      pop\n        /* \"#utility.yul\":953:955   */\n      0x40\n        /* \"#utility.yul\":979:1032   */\n      tag_47\n        /* \"#utility.yul\":1024:1031   */\n      dup7\n        /* \"#utility.yul\":1015:1021   */\n      dup3\n        /* \"#utility.yul\":1004:1013   */\n      dup8\n        /* \"#utility.yul\":1000:1022   */\n      add\n        /* \"#utility.yul\":979:1032   */\n      tag_29\n      jump\t// in\n    tag_47:\n        /* \"#utility.yul\":969:1032   */\n      swap2\n      pop\n        /* \"#utility.yul\":924:1042   */\n      pop\n        /* \"#utility.yul\":436:1049   */\n      swap3\n      pop\n      swap3\n      pop\n      swap3\n      jump\t// out\n        /* \"#utility.yul\":1055:1173   */\n    tag_48:\n        /* \"#utility.yul\":1142:1166   */\n      tag_50\n        /* \"#utility.yul\":1160:1165   */\n      dup2\n        /* \"#utility.yul\":1142:1166   */\n      tag_51\n      jump\t// in\n    tag_50:\n        /* \"#utility.yul\":1137:1140   */\n      dup3\n        /* \"#utility.yul\":1130:1167   */\n      mstore\n        /* \"#utility.yul\":1055:1173   */\n      pop\n      pop\n      jump\t// out\n        /* \"#utility.yul\":1179:1288   */\n    tag_52:\n        /* \"#utility.yul\":1260:1281   */\n      tag_54\n        /* \"#utility.yul\":1275:1280   */\n      dup2\n        /* \"#utility.yul\":1260:1281   */\n      tag_55\n      jump\t// in\n    tag_54:\n        /* \"#utility.yul\":1255:1258   */\n      dup3\n        /* \"#utility.yul\":1248:1282   */\n      mstore\n        /* \"#utility.yul\":1179:1288   */\n      pop\n      pop\n      jump\t// out\n        /* \"#utility.yul\":1294:1412   */\n    tag_56:\n        /* \"#utility.yul\":1381:1405   */\n      tag_58\n        /* \"#utility.yul\":1399:1404   */\n      dup2\n        /* \"#utility.yul\":1381:1405   */\n      tag_59\n      jump\t// in\n    tag_58:\n        /* \"#utility.yul\":1376:1379   */\n      dup3\n        /* \"#utility.yul\":1369:1406   */\n      mstore\n        /* \"#utility.yul\":1294:1412   */\n      pop\n      pop\n      jump\t// out\n        /* \"#utility.yul\":1418:1640   */\n    tag_16:\n        /* \"#utility.yul\":1511:1515   */\n      0x00\n        /* \"#utility.yul\":1549:1551   */\n      0x20\n        /* \"#utility.yul\":1538:1547   */\n      dup3\n        /* \"#utility.yul\":1534:1552   */\n      add\n        /* \"#utility.yul\":1526:1552   */\n      swap1\n      pop\n        /* \"#utility.yul\":1562:1633   */\n      tag_61\n        /* \"#utility.yul\":1630:1631   */\n      0x00\n        /* \"#utility.yul\":1619:1628   */\n      dup4\n        /* \"#utility.yul\":1615:1632   */\n      add\n        /* \"#utility.yul\":1606:1612   */\n      dup5\n        /* \"#utility.yul\":1562:1633   */\n      tag_48\n      jump\t// in\n    tag_61:\n        /* \"#utility.yul\":1418:1640   */\n      swap3\n      swap2\n      pop\n      pop\n      jump\t// out\n        /* \"#utility.yul\":1646:1856   */\n    tag_24:\n        /* \"#utility.yul\":1733:1737   */\n      0x00\n        /* \"#utility.yul\":1771:1773   */\n      0x20\n        /* \"#utility.yul\":1760:1769   */\n      dup3\n        /* \"#utility.yul\":1756:1774   */\n      add\n        /* \"#utility.yul\":1748:1774   */\n      swap1\n      pop\n        /* \"#utility.yul\":1784:1849   */\n      tag_63\n        /* \"#utility.yul\":1846:1847   */\n      0x00\n        /* \"#utility.yul\":1835:1844   */\n      dup4\n        /* \"#utility.yul\":1831:1848   */\n      add\n        /* \"#utility.yul\":1822:1828   */\n      dup5\n        /* \"#utility.yul\":1784:1849   */\n      tag_52\n      jump\t// in\n    tag_63:\n        /* \"#utility.yul\":1646:1856   */\n      swap3\n      swap2\n      pop\n      pop\n      jump\t// out\n        /* \"#utility.yul\":1862:2084   */\n    tag_20:\n        /* \"#utility.yul\":1955:1959   */\n      0x00\n        /* \"#utility.yul\":1993:1995   */\n      0x20\n        /* \"#utility.yul\":1982:1991   */\n      dup3\n        /* \"#utility.yul\":1978:1996   */\n      add\n        /* \"#utility.yul\":1970:1996   */\n      swap1\n      pop\n        /* \"#utility.yul\":2006:2077   */\n      tag_65\n        /* \"#utility.yul\":2074:2075   */\n      0x00\n        /* \"#utility.yul\":2063:2072   */\n      dup4\n        /* \"#utility.yul\":2059:2076   */\n      add\n        /* \"#utility.yul\":2050:2056   */\n      dup5\n        /* \"#utility.yul\":2006:2077   */\n      tag_56\n      jump\t// in\n    tag_65:\n        /* \"#utility.yul\":1862:2084   */\n      swap3\n      swap2\n      pop\n      pop\n      jump\t// out\n        /* \"#utility.yul\":2090:2410   */\n    tag_12:\n        /* \"#utility.yul\":2205:2209   */\n      0x00\n        /* \"#utility.yul\":2243:2245   */\n      0x40\n        /* \"#utility.yul\":2232:2241   */\n      dup3\n        /* \"#utility.yul\":2228:2246   */\n      add\n        /* \"#utility.yul\":2220:2246   */\n      swap1\n      pop\n        /* \"#utility.yul\":2256:2327   */\n      tag_67\n        /* \"#utility.yul\":2324:2325   */\n      0x00\n        /* \"#utility.yul\":2313:2322   */\n      dup4\n        /* \"#utility.yul\":2309:2326   */\n      add\n        /* \"#utility.yul\":2300:2306   */\n      dup6\n        /* \"#utility.yul\":2256:2327   */\n      tag_56\n      jump\t// in\n    tag_67:\n        /* \"#utility.yul\":2337:2403   */\n      tag_68\n        /* \"#utility.yul\":2399:2401   */\n      0x20\n        /* \"#utility.yul\":2388:2397   */\n      dup4\n        /* \"#utility.yul\":2384:2402   */\n      add\n        /* \"#utility.yul\":2375:2381   */\n      dup5\n        /* \"#utility.yul\":2337:2403   */\n      tag_52\n      jump\t// in\n    tag_68:\n        /* \"#utility.yul\":2090:2410   */\n      swap4\n      swap3\n      pop\n      pop\n      pop\n      jump\t// out\n        /* \"#utility.yul\":2497:2802   */\n    tag_27:\n        /* \"#utility.yul\":2537:2540   */\n      0x00\n        /* \"#utility.yul\":2556:2576   */\n      tag_72\n        /* \"#utility.yul\":2574:2575   */\n      dup3\n        /* \"#utility.yul\":2556:2576   */\n      tag_59\n      jump\t// in\n    tag_72:\n        /* \"#utility.yul\":2551:2576   */\n      swap2\n      pop\n        /* \"#utility.yul\":2590:2610   */\n      tag_73\n        /* \"#utility.yul\":2608:2609   */\n      dup4\n        /* \"#utility.yul\":2590:2610   */\n      tag_59\n      jump\t// in\n    tag_73:\n        /* \"#utility.yul\":2585:2610   */\n      swap3\n      pop\n        /* \"#utility.yul\":2744:2745   */\n      dup3\n        /* \"#utility.yul\":2676:2742   */\n      0xffffffffffffffffffffffffffffffffffffffffffffffffffffffffffffffff\n        /* \"#utility.yul\":2672:2746   */\n      sub\n        /* \"#utility.yul\":2669:2670   */\n      dup3\n        /* \"#utility.yul\":2666:2747   */\n      gt\n        /* \"#utility.yul\":2663:2770   */\n      iszero\n      tag_74\n      jumpi\n        /* \"#utility.yul\":2750:2768   */\n      tag_75\n      tag_76\n      jump\t// in\n    tag_75:\n        /* \"#utility.yul\":2663:2770   */\n    tag_74:\n        /* \"#utility.yul\":2794:2795   */\n      dup3\n        /* \"#utility.yul\":2791:2792   */\n      dup3\n        /* \"#utility.yul\":2787:2796   */\n      add\n        /* \"#utility.yul\":2780:2796   */\n      swap1\n      pop\n        /* \"#utility.yul\":2497:2802   */\n      swap3\n      swap2\n      pop\n      pop\n      jump\t// out\n        /* \"#utility.yul\":2808:2904   */\n    tag_51:\n        /* \"#utility.yul\":2845:2852   */\n      0x00\n        /* \"#utility.yul\":2874:2898   */\n      tag_78\n        /* \"#utility.yul\":2892:2897   */\n      dup3\n        /* \"#utility.yul\":2874:2898   */\n      tag_79\n      jump\t// in\n    tag_78:\n        /* \"#utility.yul\":2863:2898   */\n      swap1\n      pop\n        /* \"#utility.yul\":2808:2904   */\n      swap2\n      swap1\n      pop\n      jump\t// out\n        /* \"#utility.yul\":2910:3000   */\n    tag_55:\n        /* \"#utility.yul\":2944:2951   */\n      0x00\n        /* \"#utility.yul\":2987:2992   */\n      dup2\n        /* \"#utility.yul\":2980:2993   */\n      iszero\n        /* \"#utility.yul\":2973:2994   */\n      iszero\n        /* \"#utility.yul\":2962:2994   */\n      swap1\n      pop\n        /* \"#utility.yul\":2910:3000   */\n      swap2\n      swap1\n      pop\n      jump\t// out\n        /* \"#utility.yul\":3006:3132   */\n    tag_79:\n        /* \"#utility.yul\":3043:3050   */\n      0x00\n        /* \"#utility.yul\":3083:3125   */\n      0xffffffffffffffffffffffffffffffffffffffff\n        /* \"#utility.yul\":3076:3081   */\n      dup3\n        /* \"#utility.yul\":3072:3126   */\n      and\n        /* \"#utility.yul\":3061:3126   */\n      swap1\n      pop\n        /* \"#utility.yul\":3006:3132   */\n      swap2\n      swap1\n      pop\n      jump\t// out\n        /* \"#utility.yul\":3138:3215   */\n    tag_59:\n        /* \"#utility.yul\":3175:3182   */\n      0x00\n        /* \"#utility.yul\":3204:3209   */\n      dup2\n        /* \"#utility.yul\":3193:3209   */\n      swap1\n      pop\n        /* \"#utility.yul\":3138:3215   */\n      swap2\n      swap1\n      pop\n      jump\t// out\n        /* \"#utility.yul\":3221:3401   */\n    tag_76:\n        /* \"#utility.yul\":3269:3346   */\n      0x4e487b7100000000000000000000000000000000000000000000000000000000\n        /* \"#utility.yul\":3266:3267   */\n      0x00\n        /* \"#utility.yul\":3259:3347   */\n      mstore\n        /* \"#utility.yul\":3366:3370   */\n      0x11\n        /* \"#utility.yul\":3363:3364   */\n      0x04\n        /* \"#utility.yul\":3356:3371   */\n      mstore\n        /* \"#utility.yul\":3390:3394   */\n      0x24\n        /* \"#utility.yul\":3387:3388   */\n      0x00\n        /* \"#utility.yul\":3380:3395   */\n      revert\n        /* \"#utility.yul\":3530:3647   */\n    tag_44:\n        /* \"#utility.yul\":3639:3640   */\n      0x00\n        /* \"#utility.yul\":3636:3637   */\n      dup1\n        /* \"#utility.yul\":3629:3641   */\n      revert\n        /* \"#utility.yul\":3653:3775   */\n    tag_32:\n        /* \"#utility.yul\":3726:3750   */\n      tag_88\n        /* \"#utility.yul\":3744:3749   */\n      dup2\n        /* \"#utility.yul\":3726:3750   */\n      tag_51\n      jump\t// in\n    tag_88:\n        /* \"#utility.yul\":3719:3724   */\n      dup2\n        /* \"#utility.yul\":3716:3751   */\n      eq\n        /* \"#utility.yul\":3706:3769   */\n      tag_89\n      jumpi\n        /* \"#utility.yul\":3765:3766   */\n      0x00\n        /* \"#utility.yul\":3762:3763   */\n      dup1\n        /* \"#utility.yul\":3755:3767   */\n      revert\n        /* \"#utility.yul\":3706:3769   */\n    tag_89:\n        /* \"#utility.yul\":3653:3775   */\n      pop\n      jump\t// out\n        /* \"#utility.yul\":3781:3897   */\n    tag_36:\n        /* \"#utility.yul\":3851:3872   */\n      tag_91\n        /* \"#utility.yul\":3866:3871   */\n      dup2\n        /* \"#utility.yul\":3851:3872   */\n      tag_55\n      jump\t// in\n    tag_91:\n        /* \"#utility.yul\":3844:3849   */\n      dup2\n        /* \"#utility.yul\":3841:3873   */\n      eq\n        /* \"#utility.yul\":3831:3891   */\n      tag_92\n      jumpi\n        /* \"#utility.yul\":3887:3888   */\n      0x00\n        /* \"#utility.yul\":3884:3885   */\n      dup1\n        /* \"#utility.yul\":3877:3889   */\n      revert\n        /* \"#utility.yul\":3831:3891   */\n    tag_92:\n        /* \"#utility.yul\":3781:3897   */\n      pop\n      jump\t// out\n        /* \"#utility.yul\":3903:4025   */\n    tag_40:\n        /* \"#utility.yul\":3976:4000   */\n      tag_94\n        /* \"#utility.yul\":3994:3999   */\n      dup2\n        /* \"#utility.yul\":3976:4000   */\n      tag_59\n      jump\t// in\n    tag_94:\n        /* \"#utility.yul\":3969:3974   */\n      dup2\n        /* \"#utility.yul\":3966:4001   */\n      eq\n        /* \"#utility.yul\":3956:4019   */\n      tag_95\n      jumpi\n        /* \"#utility.yul\":4015:4016   */\n      0x00\n        /* \"#utility.yul\":4012:4013   */\n      dup1\n        /* \"#utility.yul\":4005:4017   */\n      revert\n        /* \"#utility.yul\":3956:4019   */\n    tag_95:\n        /* \"#utility.yul\":3903:4025   */\n      pop\n      jump\t// out\n\n    auxdata: 0xa2646970667358221220402463e557f565e20514f9ac8be11bf28e23bc3c5762e101a65364b38f366dc064736f6c63430008070033\n}\n",
				"bytecode": {
					"linkReferences": {},
					"object": "60806040526000600160006101000a81548160ff02191690831515021790555034801561002b57600080fd5b506064600081905550610423806100436000396000f3fe608060405234801561001057600080fd5b506004361061004c5760003560e01c80631abd155f146100515780634f2be91f146100825780638a3b12ae146100a0578063b75f17c5146100be575b600080fd5b61006b600480360381019061006691906101dc565b6100dc565b6040516100799291906102ad565b60405180910390f35b61008a610160565b604051610097919061025c565b60405180910390f35b6100a8610184565b6040516100b59190610292565b60405180910390f35b6100c661018a565b6040516100d39190610277565b60405180910390f35b60008060008560166100ee91906102d6565b905060006001905085600160006101000a81548160ff021916908315150217905550846001806101000a81548173ffffffffffffffffffffffffffffffffffffffff021916908373ffffffffffffffffffffffffffffffffffffffff1602179055508181935093505050935093915050565b60018054906101000a900473ffffffffffffffffffffffffffffffffffffffff1681565b60005481565b600160009054906101000a900460ff1681565b6000813590506101ac816103a8565b92915050565b6000813590506101c1816103bf565b92915050565b6000813590506101d6816103d6565b92915050565b6000806000606084860312156101f5576101f46103a3565b5b6000610203868287016101c7565b9350506020610214868287016101b2565b92505060406102258682870161019d565b9150509250925092565b6102388161032c565b82525050565b6102478161033e565b82525050565b6102568161036a565b82525050565b6000602082019050610271600083018461022f565b92915050565b600060208201905061028c600083018461023e565b92915050565b60006020820190506102a7600083018461024d565b92915050565b60006040820190506102c2600083018561024d565b6102cf602083018461023e565b9392505050565b60006102e18261036a565b91506102ec8361036a565b9250827fffffffffffffffffffffffffffffffffffffffffffffffffffffffffffffffff0382111561032157610320610374565b5b828201905092915050565b60006103378261034a565b9050919050565b60008115159050919050565b600073ffffffffffffffffffffffffffffffffffffffff82169050919050565b6000819050919050565b7f4e487b7100000000000000000000000000000000000000000000000000000000600052601160045260246000fd5b600080fd5b6103b18161032c565b81146103bc57600080fd5b50565b6103c88161033e565b81146103d357600080fd5b50565b6103df8161036a565b81146103ea57600080fd5b5056fea2646970667358221220402463e557f565e20514f9ac8be11bf28e23bc3c5762e101a65364b38f366dc064736f6c63430008070033",
					"opcodes": "PUSH1 0x80 PUSH1 0x40 MSTORE PUSH1 0x0 PUSH1 0x1 PUSH1 0x0 PUSH2 0x100 EXP DUP2 SLOAD DUP2 PUSH1 0xFF MUL NOT AND SWAP1 DUP4 ISZERO ISZERO MUL OR SWAP1 SSTORE POP CALLVALUE DUP1 ISZERO PUSH2 0x2B JUMPI PUSH1 0x0 DUP1 REVERT JUMPDEST POP PUSH1 0x64 PUSH1 0x0 DUP2 SWAP1 SSTORE POP PUSH2 0x423 DUP1 PUSH2 0x43 PUSH1 0x0 CODECOPY PUSH1 0x0 RETURN INVALID PUSH1 0x80 PUSH1 0x40 MSTORE CALLVALUE DUP1 ISZERO PUSH2 0x10 JUMPI PUSH1 0x0 DUP1 REVERT JUMPDEST POP PUSH1 0x4 CALLDATASIZE LT PUSH2 0x4C JUMPI PUSH1 0x0 CALLDATALOAD PUSH1 0xE0 SHR DUP1 PUSH4 0x1ABD155F EQ PUSH2 0x51 JUMPI DUP1 PUSH4 0x4F2BE91F EQ PUSH2 0x82 JUMPI DUP1 PUSH4 0x8A3B12AE EQ PUSH2 0xA0 JUMPI DUP1 PUSH4 0xB75F17C5 EQ PUSH2 0xBE JUMPI JUMPDEST PUSH1 0x0 DUP1 REVERT JUMPDEST PUSH2 0x6B PUSH1 0x4 DUP1 CALLDATASIZE SUB DUP2 ADD SWAP1 PUSH2 0x66 SWAP2 SWAP1 PUSH2 0x1DC JUMP JUMPDEST PUSH2 0xDC JUMP JUMPDEST PUSH1 0x40 MLOAD PUSH2 0x79 SWAP3 SWAP2 SWAP1 PUSH2 0x2AD JUMP JUMPDEST PUSH1 0x40 MLOAD DUP1 SWAP2 SUB SWAP1 RETURN JUMPDEST PUSH2 0x8A PUSH2 0x160 JUMP JUMPDEST PUSH1 0x40 MLOAD PUSH2 0x97 SWAP2 SWAP1 PUSH2 0x25C JUMP JUMPDEST PUSH1 0x40 MLOAD DUP1 SWAP2 SUB SWAP1 RETURN JUMPDEST PUSH2 0xA8 PUSH2 0x184 JUMP JUMPDEST PUSH1 0x40 MLOAD PUSH2 0xB5 SWAP2 SWAP1 PUSH2 0x292 JUMP JUMPDEST PUSH1 0x40 MLOAD DUP1 SWAP2 SUB SWAP1 RETURN JUMPDEST PUSH2 0xC6 PUSH2 0x18A JUMP JUMPDEST PUSH1 0x40 MLOAD PUSH2 0xD3 SWAP2 SWAP1 PUSH2 0x277 JUMP JUMPDEST PUSH1 0x40 MLOAD DUP1 SWAP2 SUB SWAP1 RETURN JUMPDEST PUSH1 0x0 DUP1 PUSH1 0x0 DUP6 PUSH1 0x16 PUSH2 0xEE SWAP2 SWAP1 PUSH2 0x2D6 JUMP JUMPDEST SWAP1 POP PUSH1 0x0 PUSH1 0x1 SWAP1 POP DUP6 PUSH1 0x1 PUSH1 0x0 PUSH2 0x100 EXP DUP2 SLOAD DUP2 PUSH1 0xFF MUL NOT AND SWAP1 DUP4 ISZERO ISZERO MUL OR SWAP1 SSTORE POP DUP5 PUSH1 0x1 DUP1 PUSH2 0x100 EXP DUP2 SLOAD DUP2 PUSH20 0xFFFFFFFFFFFFFFFFFFFFFFFFFFFFFFFFFFFFFFFF MUL NOT AND SWAP1 DUP4 PUSH20 0xFFFFFFFFFFFFFFFFFFFFFFFFFFFFFFFFFFFFFFFF AND MUL OR SWAP1 SSTORE POP DUP2 DUP2 SWAP4 POP SWAP4 POP POP POP SWAP4 POP SWAP4 SWAP2 POP POP JUMP JUMPDEST PUSH1 0x1 DUP1 SLOAD SWAP1 PUSH2 0x100 EXP SWAP1 DIV PUSH20 0xFFFFFFFFFFFFFFFFFFFFFFFFFFFFFFFFFFFFFFFF AND DUP2 JUMP JUMPDEST PUSH1 0x0 SLOAD DUP2 JUMP JUMPDEST PUSH1 0x1 PUSH1 0x0 SWAP1 SLOAD SWAP1 PUSH2 0x100 EXP SWAP1 DIV PUSH1 0xFF AND DUP2 JUMP JUMPDEST PUSH1 0x0 DUP2 CALLDATALOAD SWAP1 POP PUSH2 0x1AC DUP2 PUSH2 0x3A8 JUMP JUMPDEST SWAP3 SWAP2 POP POP JUMP JUMPDEST PUSH1 0x0 DUP2 CALLDATALOAD SWAP1 POP PUSH2 0x1C1 DUP2 PUSH2 0x3BF JUMP JUMPDEST SWAP3 SWAP2 POP POP JUMP JUMPDEST PUSH1 0x0 DUP2 CALLDATALOAD SWAP1 POP PUSH2 0x1D6 DUP2 PUSH2 0x3D6 JUMP JUMPDEST SWAP3 SWAP2 POP POP JUMP JUMPDEST PUSH1 0x0 DUP1 PUSH1 0x0 PUSH1 0x60 DUP5 DUP7 SUB SLT ISZERO PUSH2 0x1F5 JUMPI PUSH2 0x1F4 PUSH2 0x3A3 JUMP JUMPDEST JUMPDEST PUSH1 0x0 PUSH2 0x203 DUP7 DUP3 DUP8 ADD PUSH2 0x1C7 JUMP JUMPDEST SWAP4 POP POP PUSH1 0x20 PUSH2 0x214 DUP7 DUP3 DUP8 ADD PUSH2 0x1B2 JUMP JUMPDEST SWAP3 POP POP PUSH1 0x40 PUSH2 0x225 DUP7 DUP3 DUP8 ADD PUSH2 0x19D JUMP JUMPDEST SWAP2 POP POP SWAP3 POP SWAP3 POP SWAP3 JUMP JUMPDEST PUSH2 0x238 DUP2 PUSH2 0x32C JUMP JUMPDEST DUP3 MSTORE POP POP JUMP JUMPDEST PUSH2 0x247 DUP2 PUSH2 0x33E JUMP JUMPDEST DUP3 MSTORE POP POP JUMP JUMPDEST PUSH2 0x256 DUP2 PUSH2 0x36A JUMP JUMPDEST DUP3 MSTORE POP POP JUMP JUMPDEST PUSH1 0x0 PUSH1 0x20 DUP3 ADD SWAP1 POP PUSH2 0x271 PUSH1 0x0 DUP4 ADD DUP5 PUSH2 0x22F JUMP JUMPDEST SWAP3 SWAP2 POP POP JUMP JUMPDEST PUSH1 0x0 PUSH1 0x20 DUP3 ADD SWAP1 POP PUSH2 0x28C PUSH1 0x0 DUP4 ADD DUP5 PUSH2 0x23E JUMP JUMPDEST SWAP3 SWAP2 POP POP JUMP JUMPDEST PUSH1 0x0 PUSH1 0x20 DUP3 ADD SWAP1 POP PUSH2 0x2A7 PUSH1 0x0 DUP4 ADD DUP5 PUSH2 0x24D JUMP JUMPDEST SWAP3 SWAP2 POP POP JUMP JUMPDEST PUSH1 0x0 PUSH1 0x40 DUP3 ADD SWAP1 POP PUSH2 0x2C2 PUSH1 0x0 DUP4 ADD DUP6 PUSH2 0x24D JUMP JUMPDEST PUSH2 0x2CF PUSH1 0x20 DUP4 ADD DUP5 PUSH2 0x23E JUMP JUMPDEST SWAP4 SWAP3 POP POP POP JUMP JUMPDEST PUSH1 0x0 PUSH2 0x2E1 DUP3 PUSH2 0x36A JUMP JUMPDEST SWAP2 POP PUSH2 0x2EC DUP4 PUSH2 0x36A JUMP JUMPDEST SWAP3 POP DUP3 PUSH32 0xFFFFFFFFFFFFFFFFFFFFFFFFFFFFFFFFFFFFFFFFFFFFFFFFFFFFFFFFFFFFFFFF SUB DUP3 GT ISZERO PUSH2 0x321 JUMPI PUSH2 0x320 PUSH2 0x374 JUMP JUMPDEST JUMPDEST DUP3 DUP3 ADD SWAP1 POP SWAP3 SWAP2 POP POP JUMP JUMPDEST PUSH1 0x0 PUSH2 0x337 DUP3 PUSH2 0x34A JUMP JUMPDEST SWAP1 POP SWAP2 SWAP1 POP JUMP JUMPDEST PUSH1 0x0 DUP2 ISZERO ISZERO SWAP1 POP SWAP2 SWAP1 POP JUMP JUMPDEST PUSH1 0x0 PUSH20 0xFFFFFFFFFFFFFFFFFFFFFFFFFFFFFFFFFFFFFFFF DUP3 AND SWAP1 POP SWAP2 SWAP1 POP JUMP JUMPDEST PUSH1 0x0 DUP2 SWAP1 POP SWAP2 SWAP1 POP JUMP JUMPDEST PUSH32 0x4E487B7100000000000000000000000000000000000000000000000000000000 PUSH1 0x0 MSTORE PUSH1 0x11 PUSH1 0x4 MSTORE PUSH1 0x24 PUSH1 0x0 REVERT JUMPDEST PUSH1 0x0 DUP1 REVERT JUMPDEST PUSH2 0x3B1 DUP2 PUSH2 0x32C JUMP JUMPDEST DUP2 EQ PUSH2 0x3BC JUMPI PUSH1 0x0 DUP1 REVERT JUMPDEST POP JUMP JUMPDEST PUSH2 0x3C8 DUP2 PUSH2 0x33E JUMP JUMPDEST DUP2 EQ PUSH2 0x3D3 JUMPI PUSH1 0x0 DUP1 REVERT JUMPDEST POP JUMP JUMPDEST PUSH2 0x3DF DUP2 PUSH2 0x36A JUMP JUMPDEST DUP2 EQ PUSH2 0x3EA JUMPI PUSH1 0x0 DUP1 REVERT JUMPDEST POP JUMP INVALID LOG2 PUSH5 0x6970667358 0x22 SLT KECCAK256 BLOCKHASH 0x24 PUSH4 0xE557F565 0xE2 SDIV EQ 0xF9 0xAC DUP12 0xE1 SHL CALLCODE DUP15 0x23 0xBC EXTCODECOPY JUMPI PUSH3 0xE101A6 MSTORE8 PUSH5 0xB38F366DC0 PUSH5 0x736F6C6343 STOP ADDMOD SMOD STOP CALLER "
				},
				"gasEstimates": {
					"creation": {
						"codeDepositCost": "211800",
						"executionCost": "46638",
						"totalCost": "258438"
					},
					"external": {
						"add()": "2561",
						"boolvar()": "2515",
						"locvariable(uint256,bool,address)": "infinite",
						"statevarable()": "2451"
					}
				},
				"methodIdentifiers": {
					"add()": "4f2be91f",
					"boolvar()": "b75f17c5",
					"locvariable(uint256,bool,address)": "1abd155f",
					"statevarable()": "8a3b12ae"
				}
			},
			"storageLayout": {
				"storage": [
					{
						"astId": 3,
						"contract": "localvariable.sol:localvariable",
						"label": "statevarable",
						"offset": 0,
						"slot": "0",
						"type": "t_uint256"
					},
					{
						"astId": 6,
						"contract": "localvariable.sol:localvariable",
						"label": "boolvar",
						"offset": 0,
						"slot": "1",
						"type": "t_bool"
					},
					{
						"astId": 8,
						"contract": "localvariable.sol:localvariable",
						"label": "add",
						"offset": 1,
						"slot": "1",
						"type": "t_address"
					}
				],
				"types": {
					"t_address": {
						"encoding": "inplace",
						"label": "address",
						"numberOfBytes": "20"
					},
					"t_bool": {
						"encoding": "inplace",
						"label": "bool",
						"numberOfBytes": "1"
					},
					"t_uint256": {
						"encoding": "inplace",
						"label": "uint256",
						"numberOfBytes": "32"
					}
				}
			},
			"userdoc": {
				"kind": "user",
				"methods": {},
				"version": 1
			}
		}
	}
}