{
	"smartAuction.sol": {
		"smartAuction": {
			"abi": [
				{
					"inputs": [],
					"stateMutability": "nonpayable",
					"type": "constructor"
				},
				{
					"inputs": [],
					"name": "auctionState",
					"outputs": [
						{
							"internalType": "enum smartAuction.Auction_state",
							"name": "",
							"type": "uint8"
						}
					],
					"stateMutability": "view",
					"type": "function"
				},
				{
					"inputs": [],
					"name": "autioneer",
					"outputs": [
						{
							"internalType": "address payable",
							"name": "",
							"type": "address"
						}
					],
					"stateMutability": "view",
					"type": "function"
				},
				{
					"inputs": [],
					"name": "bid",
					"outputs": [],
					"stateMutability": "payable",
					"type": "function"
				},
				{
					"inputs": [],
					"name": "bid_inc",
					"outputs": [
						{
							"internalType": "uint256",
							"name": "",
							"type": "uint256"
						}
					],
					"stateMutability": "view",
					"type": "function"
				},
				{
					"inputs": [
						{
							"internalType": "address",
							"name": "",
							"type": "address"
						}
					],
					"name": "bids",
					"outputs": [
						{
							"internalType": "uint256",
							"name": "",
							"type": "uint256"
						}
					],
					"stateMutability": "view",
					"type": "function"
				},
				{
					"inputs": [],
					"name": "cancelAuction",
					"outputs": [],
					"stateMutability": "nonpayable",
					"type": "function"
				},
				{
					"inputs": [],
					"name": "endBlock",
					"outputs": [
						{
							"internalType": "uint256",
							"name": "",
							"type": "uint256"
						}
					],
					"stateMutability": "view",
					"type": "function"
				},
				{
					"inputs": [],
					"name": "finalizeAuction",
					"outputs": [],
					"stateMutability": "view",
					"type": "function"
				},
				{
					"inputs": [],
					"name": "highest_bid",
					"outputs": [
						{
							"internalType": "uint256",
							"name": "",
							"type": "uint256"
						}
					],
					"stateMutability": "view",
					"type": "function"
				},
				{
					"inputs": [],
					"name": "highest_bidder",
					"outputs": [
						{
							"internalType": "address payable",
							"name": "",
							"type": "address"
						}
					],
					"stateMutability": "view",
					"type": "function"
				},
				{
					"inputs": [],
					"name": "highest_payable_bid",
					"outputs": [
						{
							"internalType": "uint256",
							"name": "",
							"type": "uint256"
						}
					],
					"stateMutability": "view",
					"type": "function"
				},
				{
					"inputs": [],
					"name": "startBlock",
					"outputs": [
						{
							"internalType": "uint256",
							"name": "",
							"type": "uint256"
						}
					],
					"stateMutability": "view",
					"type": "function"
				}
			],
			"devdoc": {
				"kind": "dev",
				"methods": {},
				"version": 1
			},
			"evm": {
				"assembly": "    /* \"smartAuction.sol\":63:2309  contract smartAuction{... */\n  mstore(0x40, 0x80)\n    /* \"smartAuction.sol\":471:676  constructor(){... */\n  callvalue\n  dup1\n  iszero\n  tag_1\n  jumpi\n  0x00\n  dup1\n  revert\ntag_1:\n  pop\n    /* \"smartAuction.sol\":514:524  msg.sender */\n  caller\n    /* \"smartAuction.sol\":494:503  autioneer */\n  0x00\n  dup1\n    /* \"smartAuction.sol\":494:525  autioneer = payable(msg.sender) */\n  0x0100\n  exp\n  dup2\n  sload\n  dup2\n  0xffffffffffffffffffffffffffffffffffffffff\n  mul\n  not\n  and\n  swap1\n  dup4\n  0xffffffffffffffffffffffffffffffffffffffff\n  and\n  mul\n  or\n  swap1\n  sstore\n  pop\n    /* \"smartAuction.sol\":548:560  block.number */\n  number\n    /* \"smartAuction.sol\":535:545  startBlock */\n  0x01\n    /* \"smartAuction.sol\":535:560  startBlock = block.number */\n  dup2\n  swap1\n  sstore\n  pop\n    /* \"smartAuction.sol\":586:607  Auction_state.Running */\n  0x01\n    /* \"smartAuction.sol\":570:582  auctionState */\n  0x03\n  0x00\n    /* \"smartAuction.sol\":570:607  auctionState =  Auction_state.Running */\n  0x0100\n  exp\n  dup2\n  sload\n  dup2\n  0xff\n  mul\n  not\n  and\n  swap1\n  dup4\n  0x03\n  dup2\n  gt\n  iszero\n  tag_4\n  jumpi\n  tag_5\n  tag_6\n  jump\t// in\ntag_5:\ntag_4:\n  mul\n  or\n  swap1\n  sstore\n  pop\n    /* \"smartAuction.sol\":641:642  1 */\n  0x01\n    /* \"smartAuction.sol\":628:638  startBlock */\n  dup1\n  sload\n    /* \"smartAuction.sol\":628:642  startBlock + 1 */\n  tag_7\n  swap2\n  swap1\n  tag_8\n  jump\t// in\ntag_7:\n    /* \"smartAuction.sol\":617:625  endBlock */\n  0x02\n    /* \"smartAuction.sol\":617:642  endBlock = startBlock + 1 */\n  dup2\n  swap1\n  sstore\n  pop\n    /* \"smartAuction.sol\":662:669  1 ether */\n  0x0de0b6b3a7640000\n    /* \"smartAuction.sol\":652:659  bid_inc */\n  0x06\n    /* \"smartAuction.sol\":652:669  bid_inc = 1 ether */\n  dup2\n  swap1\n  sstore\n  pop\n    /* \"smartAuction.sol\":63:2309  contract smartAuction{... */\n  jump(tag_9)\n    /* \"#utility.yul\":7:312   */\ntag_8:\n    /* \"#utility.yul\":47:50   */\n  0x00\n    /* \"#utility.yul\":66:86   */\n  tag_12\n    /* \"#utility.yul\":84:85   */\n  dup3\n    /* \"#utility.yul\":66:86   */\n  tag_13\n  jump\t// in\ntag_12:\n    /* \"#utility.yul\":61:86   */\n  swap2\n  pop\n    /* \"#utility.yul\":100:120   */\n  tag_14\n    /* \"#utility.yul\":118:119   */\n  dup4\n    /* \"#utility.yul\":100:120   */\n  tag_13\n  jump\t// in\ntag_14:\n    /* \"#utility.yul\":95:120   */\n  swap3\n  pop\n    /* \"#utility.yul\":254:255   */\n  dup3\n    /* \"#utility.yul\":186:252   */\n  0xffffffffffffffffffffffffffffffffffffffffffffffffffffffffffffffff\n    /* \"#utility.yul\":182:256   */\n  sub\n    /* \"#utility.yul\":179:180   */\n  dup3\n    /* \"#utility.yul\":176:257   */\n  gt\n    /* \"#utility.yul\":173:280   */\n  iszero\n  tag_15\n  jumpi\n    /* \"#utility.yul\":260:278   */\n  tag_16\n  tag_17\n  jump\t// in\ntag_16:\n    /* \"#utility.yul\":173:280   */\ntag_15:\n    /* \"#utility.yul\":304:305   */\n  dup3\n    /* \"#utility.yul\":301:302   */\n  dup3\n    /* \"#utility.yul\":297:306   */\n  add\n    /* \"#utility.yul\":290:306   */\n  swap1\n  pop\n    /* \"#utility.yul\":7:312   */\n  swap3\n  swap2\n  pop\n  pop\n  jump\t// out\n    /* \"#utility.yul\":318:395   */\ntag_13:\n    /* \"#utility.yul\":355:362   */\n  0x00\n    /* \"#utility.yul\":384:389   */\n  dup2\n    /* \"#utility.yul\":373:389   */\n  swap1\n  pop\n    /* \"#utility.yul\":318:395   */\n  swap2\n  swap1\n  pop\n  jump\t// out\n    /* \"#utility.yul\":401:581   */\ntag_17:\n    /* \"#utility.yul\":449:526   */\n  0x4e487b7100000000000000000000000000000000000000000000000000000000\n    /* \"#utility.yul\":446:447   */\n  0x00\n    /* \"#utility.yul\":439:527   */\n  mstore\n    /* \"#utility.yul\":546:550   */\n  0x11\n    /* \"#utility.yul\":543:544   */\n  0x04\n    /* \"#utility.yul\":536:551   */\n  mstore\n    /* \"#utility.yul\":570:574   */\n  0x24\n    /* \"#utility.yul\":567:568   */\n  0x00\n    /* \"#utility.yul\":560:575   */\n  revert\n    /* \"#utility.yul\":587:767   */\ntag_6:\n    /* \"#utility.yul\":635:712   */\n  0x4e487b7100000000000000000000000000000000000000000000000000000000\n    /* \"#utility.yul\":632:633   */\n  0x00\n    /* \"#utility.yul\":625:713   */\n  mstore\n    /* \"#utility.yul\":732:736   */\n  0x21\n    /* \"#utility.yul\":729:730   */\n  0x04\n    /* \"#utility.yul\":722:737   */\n  mstore\n    /* \"#utility.yul\":756:760   */\n  0x24\n    /* \"#utility.yul\":753:754   */\n  0x00\n    /* \"#utility.yul\":746:761   */\n  revert\n    /* \"smartAuction.sol\":63:2309  contract smartAuction{... */\ntag_9:\n  dataSize(sub_0)\n  dup1\n  dataOffset(sub_0)\n  0x00\n  codecopy\n  0x00\n  return\nstop\n\nsub_0: assembly {\n        /* \"smartAuction.sol\":63:2309  contract smartAuction{... */\n      mstore(0x40, 0x80)\n      jumpi(tag_1, lt(calldatasize, 0x04))\n      shr(0xe0, calldataload(0x00))\n      dup1\n      0x8fa8b790\n      gt\n      tag_14\n      jumpi\n      dup1\n      0x8fa8b790\n      eq\n      tag_8\n      jumpi\n      dup1\n      0xb035bf60\n      eq\n      tag_9\n      jumpi\n      dup1\n      0xbd9215f4\n      eq\n      tag_10\n      jumpi\n      dup1\n      0xe5c60091\n      eq\n      tag_11\n      jumpi\n      dup1\n      0xf3ef35f8\n      eq\n      tag_12\n      jumpi\n      dup1\n      0xf77282ab\n      eq\n      tag_13\n      jumpi\n      jump(tag_1)\n    tag_14:\n      dup1\n      0x083c6323\n      eq\n      tag_2\n      jumpi\n      dup1\n      0x1998aeef\n      eq\n      tag_3\n      jumpi\n      dup1\n      0x48cd4cb1\n      eq\n      tag_4\n      jumpi\n      dup1\n      0x62ea82db\n      eq\n      tag_5\n      jumpi\n      dup1\n      0x7eb695a1\n      eq\n      tag_6\n      jumpi\n      dup1\n      0x7fb45099\n      eq\n      tag_7\n      jumpi\n    tag_1:\n      0x00\n      dup1\n      revert\n        /* \"smartAuction.sol\":158:178  uint public endBlock */\n    tag_2:\n      callvalue\n      dup1\n      iszero\n      tag_15\n      jumpi\n      0x00\n      dup1\n      revert\n    tag_15:\n      pop\n      tag_16\n      tag_17\n      jump\t// in\n    tag_16:\n      mload(0x40)\n      tag_18\n      swap2\n      swap1\n      tag_19\n      jump\t// in\n    tag_18:\n      mload(0x40)\n      dup1\n      swap2\n      sub\n      swap1\n      return\n        /* \"smartAuction.sol\":1375:1971  function bid() payable public notOwner started ending{... */\n    tag_3:\n      tag_20\n      tag_21\n      jump\t// in\n    tag_20:\n      stop\n        /* \"smartAuction.sol\":130:152  uint public startBlock */\n    tag_4:\n      callvalue\n      dup1\n      iszero\n      tag_22\n      jumpi\n      0x00\n      dup1\n      revert\n    tag_22:\n      pop\n      tag_23\n      tag_24\n      jump\t// in\n    tag_23:\n      mload(0x40)\n      tag_25\n      swap2\n      swap1\n      tag_19\n      jump\t// in\n    tag_25:\n      mload(0x40)\n      dup1\n      swap2\n      sub\n      swap1\n      return\n        /* \"smartAuction.sol\":428:464  mapping(address => uint) public bids */\n    tag_5:\n      callvalue\n      dup1\n      iszero\n      tag_26\n      jumpi\n      0x00\n      dup1\n      revert\n    tag_26:\n      pop\n      tag_27\n      0x04\n      dup1\n      calldatasize\n      sub\n      dup2\n      add\n      swap1\n      tag_28\n      swap2\n      swap1\n      tag_29\n      jump\t// in\n    tag_28:\n      tag_30\n      jump\t// in\n    tag_27:\n      mload(0x40)\n      tag_31\n      swap2\n      swap1\n      tag_19\n      jump\t// in\n    tag_31:\n      mload(0x40)\n      dup1\n      swap2\n      sub\n      swap1\n      return\n        /* \"smartAuction.sol\":321:352  uint public highest_payable_bid */\n    tag_6:\n      callvalue\n      dup1\n      iszero\n      tag_32\n      jumpi\n      0x00\n      dup1\n      revert\n    tag_32:\n      pop\n      tag_33\n      tag_34\n      jump\t// in\n    tag_33:\n      mload(0x40)\n      tag_35\n      swap2\n      swap1\n      tag_19\n      jump\t// in\n    tag_35:\n      mload(0x40)\n      dup1\n      swap2\n      sub\n      swap1\n      return\n        /* \"smartAuction.sol\":252:285  Auction_state public auctionState */\n    tag_7:\n      callvalue\n      dup1\n      iszero\n      tag_36\n      jumpi\n      0x00\n      dup1\n      revert\n    tag_36:\n      pop\n      tag_37\n      tag_38\n      jump\t// in\n    tag_37:\n      mload(0x40)\n      tag_39\n      swap2\n      swap1\n      tag_40\n      jump\t// in\n    tag_39:\n      mload(0x40)\n      dup1\n      swap2\n      sub\n      swap1\n      return\n        /* \"smartAuction.sol\":1129:1223  function cancelAuction() public Owner{... */\n    tag_8:\n      callvalue\n      dup1\n      iszero\n      tag_41\n      jumpi\n      0x00\n      dup1\n      revert\n    tag_41:\n      pop\n      tag_42\n      tag_43\n      jump\t// in\n    tag_42:\n      stop\n        /* \"smartAuction.sol\":91:124  address payable public  autioneer */\n    tag_9:\n      callvalue\n      dup1\n      iszero\n      tag_44\n      jumpi\n      0x00\n      dup1\n      revert\n    tag_44:\n      pop\n      tag_45\n      tag_46\n      jump\t// in\n    tag_45:\n      mload(0x40)\n      tag_47\n      swap2\n      swap1\n      tag_48\n      jump\t// in\n    tag_47:\n      mload(0x40)\n      dup1\n      swap2\n      sub\n      swap1\n      return\n        /* \"smartAuction.sol\":384:421  address payable public highest_bidder */\n    tag_10:\n      callvalue\n      dup1\n      iszero\n      tag_49\n      jumpi\n      0x00\n      dup1\n      revert\n    tag_49:\n      pop\n      tag_50\n      tag_51\n      jump\t// in\n    tag_50:\n      mload(0x40)\n      tag_52\n      swap2\n      swap1\n      tag_48\n      jump\t// in\n    tag_52:\n      mload(0x40)\n      dup1\n      swap2\n      sub\n      swap1\n      return\n        /* \"smartAuction.sol\":292:315  uint public highest_bid */\n    tag_11:\n      callvalue\n      dup1\n      iszero\n      tag_53\n      jumpi\n      0x00\n      dup1\n      revert\n    tag_53:\n      pop\n      tag_54\n      tag_55\n      jump\t// in\n    tag_54:\n      mload(0x40)\n      tag_56\n      swap2\n      swap1\n      tag_19\n      jump\t// in\n    tag_56:\n      mload(0x40)\n      dup1\n      swap2\n      sub\n      swap1\n      return\n        /* \"smartAuction.sol\":358:377  uint public bid_inc */\n    tag_12:\n      callvalue\n      dup1\n      iszero\n      tag_57\n      jumpi\n      0x00\n      dup1\n      revert\n    tag_57:\n      pop\n      tag_58\n      tag_59\n      jump\t// in\n    tag_58:\n      mload(0x40)\n      tag_60\n      swap2\n      swap1\n      tag_19\n      jump\t// in\n    tag_60:\n      mload(0x40)\n      dup1\n      swap2\n      sub\n      swap1\n      return\n        /* \"smartAuction.sol\":1977:2307  function finalizeAuction() public view {... */\n    tag_13:\n      callvalue\n      dup1\n      iszero\n      tag_61\n      jumpi\n      0x00\n      dup1\n      revert\n    tag_61:\n      pop\n      tag_62\n      tag_63\n      jump\t// in\n    tag_62:\n      stop\n        /* \"smartAuction.sol\":158:178  uint public endBlock */\n    tag_17:\n      sload(0x02)\n      dup2\n      jump\t// out\n        /* \"smartAuction.sol\":1375:1971  function bid() payable public notOwner started ending{... */\n    tag_21:\n        /* \"smartAuction.sol\":733:742  autioneer */\n      0x00\n      dup1\n      sload\n      swap1\n      0x0100\n      exp\n      swap1\n      div\n      0xffffffffffffffffffffffffffffffffffffffff\n      and\n        /* \"smartAuction.sol\":719:742  msg.sender != autioneer */\n      0xffffffffffffffffffffffffffffffffffffffff\n      and\n        /* \"smartAuction.sol\":719:729  msg.sender */\n      caller\n        /* \"smartAuction.sol\":719:742  msg.sender != autioneer */\n      0xffffffffffffffffffffffffffffffffffffffff\n      and\n      eq\n      iszero\n        /* \"smartAuction.sol\":711:763  require(msg.sender != autioneer, \"Owner Cannot bid\") */\n      tag_65\n      jumpi\n      mload(0x40)\n      0x08c379a000000000000000000000000000000000000000000000000000000000\n      dup2\n      mstore\n      0x04\n      add\n      tag_66\n      swap1\n      tag_67\n      jump\t// in\n    tag_66:\n      mload(0x40)\n      dup1\n      swap2\n      sub\n      swap1\n      revert\n    tag_65:\n        /* \"smartAuction.sol\":938:948  startBlock */\n      sload(0x01)\n        /* \"smartAuction.sol\":925:937  block.number */\n      number\n        /* \"smartAuction.sol\":925:948  block.number>startBlock */\n      gt\n        /* \"smartAuction.sol\":917:997  require(block.number>startBlock, \"Start Block must be greater than total block\") */\n      tag_69\n      jumpi\n      mload(0x40)\n      0x08c379a000000000000000000000000000000000000000000000000000000000\n      dup2\n      mstore\n      0x04\n      add\n      tag_70\n      swap1\n      tag_71\n      jump\t// in\n    tag_70:\n      mload(0x40)\n      dup1\n      swap2\n      sub\n      swap1\n      revert\n    tag_69:\n        /* \"smartAuction.sol\":1068:1076  endBlock */\n      sload(0x02)\n        /* \"smartAuction.sol\":1055:1067  block.number */\n      number\n        /* \"smartAuction.sol\":1055:1076  block.number<endBlock */\n      lt\n        /* \"smartAuction.sol\":1047:1105  require(block.number<endBlock, \"Auction is not Ended yet\") */\n      tag_73\n      jumpi\n      mload(0x40)\n      0x08c379a000000000000000000000000000000000000000000000000000000000\n      dup2\n      mstore\n      0x04\n      add\n      tag_74\n      swap1\n      tag_75\n      jump\t// in\n    tag_74:\n      mload(0x40)\n      dup1\n      swap2\n      sub\n      swap1\n      revert\n    tag_73:\n        /* \"smartAuction.sol\":1471:1492  Auction_state.Running */\n      0x01\n        /* \"smartAuction.sol\":1455:1492  auctionState == Auction_state.Running */\n      0x03\n      dup2\n      gt\n      iszero\n      tag_77\n      jumpi\n      tag_78\n      tag_79\n      jump\t// in\n    tag_78:\n    tag_77:\n        /* \"smartAuction.sol\":1455:1467  auctionState */\n      0x03\n      0x00\n      swap1\n      sload\n      swap1\n      0x0100\n      exp\n      swap1\n      div\n      0xff\n      and\n        /* \"smartAuction.sol\":1455:1492  auctionState == Auction_state.Running */\n      0x03\n      dup2\n      gt\n      iszero\n      tag_80\n      jumpi\n      tag_81\n      tag_79\n      jump\t// in\n    tag_81:\n    tag_80:\n      eq\n        /* \"smartAuction.sol\":1447:1493  require(auctionState == Auction_state.Running) */\n      tag_82\n      jumpi\n      0x00\n      dup1\n      revert\n    tag_82:\n        /* \"smartAuction.sol\":1523:1530  2 ether */\n      0x1bc16d674ec80000\n        /* \"smartAuction.sol\":1511:1520  msg.value */\n      callvalue\n        /* \"smartAuction.sol\":1511:1530  msg.value > 2 ether */\n      gt\n        /* \"smartAuction.sol\":1503:1531  require(msg.value > 2 ether) */\n      tag_83\n      jumpi\n      0x00\n      dup1\n      revert\n    tag_83:\n        /* \"smartAuction.sol\":1542:1557  uint currentBid */\n      0x00\n        /* \"smartAuction.sol\":1579:1586  bid_inc */\n      sload(0x06)\n        /* \"smartAuction.sol\":1560:1564  bids */\n      0x08\n        /* \"smartAuction.sol\":1560:1576  bids[msg.sender] */\n      0x00\n        /* \"smartAuction.sol\":1565:1575  msg.sender */\n      caller\n        /* \"smartAuction.sol\":1560:1576  bids[msg.sender] */\n      0xffffffffffffffffffffffffffffffffffffffff\n      and\n      0xffffffffffffffffffffffffffffffffffffffff\n      and\n      dup2\n      mstore\n      0x20\n      add\n      swap1\n      dup2\n      mstore\n      0x20\n      add\n      0x00\n      keccak256\n      sload\n        /* \"smartAuction.sol\":1560:1586  bids[msg.sender] + bid_inc */\n      tag_84\n      swap2\n      swap1\n      tag_85\n      jump\t// in\n    tag_84:\n        /* \"smartAuction.sol\":1542:1586  uint currentBid = bids[msg.sender] + bid_inc */\n      swap1\n      pop\n        /* \"smartAuction.sol\":1618:1637  highest_payable_bid */\n      sload(0x05)\n        /* \"smartAuction.sol\":1605:1615  currentBid */\n      dup2\n        /* \"smartAuction.sol\":1605:1637  currentBid > highest_payable_bid */\n      gt\n        /* \"smartAuction.sol\":1597:1669  require(currentBid > highest_payable_bid, \"Increase You  Bid Valu than\") */\n      tag_86\n      jumpi\n      mload(0x40)\n      0x08c379a000000000000000000000000000000000000000000000000000000000\n      dup2\n      mstore\n      0x04\n      add\n      tag_87\n      swap1\n      tag_88\n      jump\t// in\n    tag_87:\n      mload(0x40)\n      dup1\n      swap2\n      sub\n      swap1\n      revert\n    tag_86:\n        /* \"smartAuction.sol\":1696:1700  bids */\n      0x08\n        /* \"smartAuction.sol\":1696:1716  bids[highest_bidder] */\n      0x00\n        /* \"smartAuction.sol\":1701:1715  highest_bidder */\n      0x07\n      0x00\n      swap1\n      sload\n      swap1\n      0x0100\n      exp\n      swap1\n      div\n      0xffffffffffffffffffffffffffffffffffffffff\n      and\n        /* \"smartAuction.sol\":1696:1716  bids[highest_bidder] */\n      0xffffffffffffffffffffffffffffffffffffffff\n      and\n      0xffffffffffffffffffffffffffffffffffffffff\n      and\n      dup2\n      mstore\n      0x20\n      add\n      swap1\n      dup2\n      mstore\n      0x20\n      add\n      0x00\n      keccak256\n      sload\n        /* \"smartAuction.sol\":1683:1693  currentBid */\n      dup2\n        /* \"smartAuction.sol\":1683:1716  currentBid < bids[highest_bidder] */\n      lt\n        /* \"smartAuction.sol\":1680:1964  if(currentBid < bids[highest_bidder]){... */\n      iszero\n      tag_89\n      jumpi\n        /* \"smartAuction.sol\":1753:1798  min(currentBid+bid_inc, bids[highest_bidder]) */\n      tag_90\n        /* \"smartAuction.sol\":1768:1775  bid_inc */\n      sload(0x06)\n        /* \"smartAuction.sol\":1757:1767  currentBid */\n      dup3\n        /* \"smartAuction.sol\":1757:1775  currentBid+bid_inc */\n      tag_91\n      swap2\n      swap1\n      tag_85\n      jump\t// in\n    tag_91:\n        /* \"smartAuction.sol\":1777:1781  bids */\n      0x08\n        /* \"smartAuction.sol\":1777:1797  bids[highest_bidder] */\n      0x00\n        /* \"smartAuction.sol\":1782:1796  highest_bidder */\n      0x07\n      0x00\n      swap1\n      sload\n      swap1\n      0x0100\n      exp\n      swap1\n      div\n      0xffffffffffffffffffffffffffffffffffffffff\n      and\n        /* \"smartAuction.sol\":1777:1797  bids[highest_bidder] */\n      0xffffffffffffffffffffffffffffffffffffffff\n      and\n      0xffffffffffffffffffffffffffffffffffffffff\n      and\n      dup2\n      mstore\n      0x20\n      add\n      swap1\n      dup2\n      mstore\n      0x20\n      add\n      0x00\n      keccak256\n      sload\n        /* \"smartAuction.sol\":1753:1756  min */\n      tag_92\n        /* \"smartAuction.sol\":1753:1798  min(currentBid+bid_inc, bids[highest_bidder]) */\n      jump\t// in\n    tag_90:\n        /* \"smartAuction.sol\":1731:1750  highest_payable_bid */\n      0x05\n        /* \"smartAuction.sol\":1731:1798  highest_payable_bid = min(currentBid+bid_inc, bids[highest_bidder]) */\n      dup2\n      swap1\n      sstore\n      pop\n        /* \"smartAuction.sol\":1680:1964  if(currentBid < bids[highest_bidder]){... */\n      jump(tag_93)\n    tag_89:\n        /* \"smartAuction.sol\":1858:1903  min(currentBid, bids[highest_bidder]+bid_inc) */\n      tag_94\n        /* \"smartAuction.sol\":1862:1872  currentBid */\n      dup2\n        /* \"smartAuction.sol\":1895:1902  bid_inc */\n      sload(0x06)\n        /* \"smartAuction.sol\":1874:1878  bids */\n      0x08\n        /* \"smartAuction.sol\":1874:1894  bids[highest_bidder] */\n      0x00\n        /* \"smartAuction.sol\":1879:1893  highest_bidder */\n      0x07\n      0x00\n      swap1\n      sload\n      swap1\n      0x0100\n      exp\n      swap1\n      div\n      0xffffffffffffffffffffffffffffffffffffffff\n      and\n        /* \"smartAuction.sol\":1874:1894  bids[highest_bidder] */\n      0xffffffffffffffffffffffffffffffffffffffff\n      and\n      0xffffffffffffffffffffffffffffffffffffffff\n      and\n      dup2\n      mstore\n      0x20\n      add\n      swap1\n      dup2\n      mstore\n      0x20\n      add\n      0x00\n      keccak256\n      sload\n        /* \"smartAuction.sol\":1874:1902  bids[highest_bidder]+bid_inc */\n      tag_95\n      swap2\n      swap1\n      tag_85\n      jump\t// in\n    tag_95:\n        /* \"smartAuction.sol\":1858:1861  min */\n      tag_92\n        /* \"smartAuction.sol\":1858:1903  min(currentBid, bids[highest_bidder]+bid_inc) */\n      jump\t// in\n    tag_94:\n        /* \"smartAuction.sol\":1836:1855  highest_payable_bid */\n      0x05\n        /* \"smartAuction.sol\":1836:1903  highest_payable_bid = min(currentBid, bids[highest_bidder]+bid_inc) */\n      dup2\n      swap1\n      sstore\n      pop\n        /* \"smartAuction.sol\":1942:1952  msg.sender */\n      caller\n        /* \"smartAuction.sol\":1917:1931  highest_bidder */\n      0x07\n      0x00\n        /* \"smartAuction.sol\":1917:1953  highest_bidder = payable(msg.sender) */\n      0x0100\n      exp\n      dup2\n      sload\n      dup2\n      0xffffffffffffffffffffffffffffffffffffffff\n      mul\n      not\n      and\n      swap1\n      dup4\n      0xffffffffffffffffffffffffffffffffffffffff\n      and\n      mul\n      or\n      swap1\n      sstore\n      pop\n        /* \"smartAuction.sol\":1680:1964  if(currentBid < bids[highest_bidder]){... */\n    tag_93:\n        /* \"smartAuction.sol\":1428:1971  {... */\n      pop\n        /* \"smartAuction.sol\":1375:1971  function bid() payable public notOwner started ending{... */\n      jump\t// out\n        /* \"smartAuction.sol\":130:152  uint public startBlock */\n    tag_24:\n      sload(0x01)\n      dup2\n      jump\t// out\n        /* \"smartAuction.sol\":428:464  mapping(address => uint) public bids */\n    tag_30:\n      mstore(0x20, 0x08)\n      dup1\n      0x00\n      mstore\n      keccak256(0x00, 0x40)\n      0x00\n      swap2\n      pop\n      swap1\n      pop\n      sload\n      dup2\n      jump\t// out\n        /* \"smartAuction.sol\":321:352  uint public highest_payable_bid */\n    tag_34:\n      sload(0x05)\n      dup2\n      jump\t// out\n        /* \"smartAuction.sol\":252:285  Auction_state public auctionState */\n    tag_38:\n      0x03\n      0x00\n      swap1\n      sload\n      swap1\n      0x0100\n      exp\n      swap1\n      div\n      0xff\n      and\n      dup2\n      jump\t// out\n        /* \"smartAuction.sol\":1129:1223  function cancelAuction() public Owner{... */\n    tag_43:\n        /* \"smartAuction.sol\":835:844  autioneer */\n      0x00\n      dup1\n      sload\n      swap1\n      0x0100\n      exp\n      swap1\n      div\n      0xffffffffffffffffffffffffffffffffffffffff\n      and\n        /* \"smartAuction.sol\":821:844  msg.sender == autioneer */\n      0xffffffffffffffffffffffffffffffffffffffff\n      and\n        /* \"smartAuction.sol\":821:831  msg.sender */\n      caller\n        /* \"smartAuction.sol\":821:844  msg.sender == autioneer */\n      0xffffffffffffffffffffffffffffffffffffffff\n      and\n      eq\n        /* \"smartAuction.sol\":813:865  require(msg.sender == autioneer, \"Owner Cannot bid\") */\n      tag_97\n      jumpi\n      mload(0x40)\n      0x08c379a000000000000000000000000000000000000000000000000000000000\n      dup2\n      mstore\n      0x04\n      add\n      tag_98\n      swap1\n      tag_67\n      jump\t// in\n    tag_98:\n      mload(0x40)\n      dup1\n      swap2\n      sub\n      swap1\n      revert\n    tag_97:\n        /* \"smartAuction.sol\":1192:1215  Auction_state.Cancelled */\n      0x03\n        /* \"smartAuction.sol\":1177:1189  auctionState */\n      dup1\n      0x00\n        /* \"smartAuction.sol\":1177:1215  auctionState = Auction_state.Cancelled */\n      0x0100\n      exp\n      dup2\n      sload\n      dup2\n      0xff\n      mul\n      not\n      and\n      swap1\n      dup4\n      0x03\n      dup2\n      gt\n      iszero\n      tag_100\n      jumpi\n      tag_101\n      tag_79\n      jump\t// in\n    tag_101:\n    tag_100:\n      mul\n      or\n      swap1\n      sstore\n      pop\n        /* \"smartAuction.sol\":1129:1223  function cancelAuction() public Owner{... */\n      jump\t// out\n        /* \"smartAuction.sol\":91:124  address payable public  autioneer */\n    tag_46:\n      0x00\n      dup1\n      sload\n      swap1\n      0x0100\n      exp\n      swap1\n      div\n      0xffffffffffffffffffffffffffffffffffffffff\n      and\n      dup2\n      jump\t// out\n        /* \"smartAuction.sol\":384:421  address payable public highest_bidder */\n    tag_51:\n      0x07\n      0x00\n      swap1\n      sload\n      swap1\n      0x0100\n      exp\n      swap1\n      div\n      0xffffffffffffffffffffffffffffffffffffffff\n      and\n      dup2\n      jump\t// out\n        /* \"smartAuction.sol\":292:315  uint public highest_bid */\n    tag_55:\n      sload(0x04)\n      dup2\n      jump\t// out\n        /* \"smartAuction.sol\":358:377  uint public bid_inc */\n    tag_59:\n      sload(0x06)\n      dup2\n      jump\t// out\n        /* \"smartAuction.sol\":1977:2307  function finalizeAuction() public view {... */\n    tag_63:\n        /* \"smartAuction.sol\":2050:2073  Auction_state.Cancelled */\n      0x03\n        /* \"smartAuction.sol\":2034:2073  auctionState == Auction_state.Cancelled */\n      dup1\n      dup2\n      gt\n      iszero\n      tag_103\n      jumpi\n      tag_104\n      tag_79\n      jump\t// in\n    tag_104:\n    tag_103:\n        /* \"smartAuction.sol\":2034:2046  auctionState */\n      0x03\n      0x00\n      swap1\n      sload\n      swap1\n      0x0100\n      exp\n      swap1\n      div\n      0xff\n      and\n        /* \"smartAuction.sol\":2034:2073  auctionState == Auction_state.Cancelled */\n      0x03\n      dup2\n      gt\n      iszero\n      tag_105\n      jumpi\n      tag_106\n      tag_79\n      jump\t// in\n    tag_106:\n    tag_105:\n      eq\n        /* \"smartAuction.sol\":2034:2100  auctionState == Auction_state.Cancelled || block.number > endBlock */\n      dup1\n      tag_107\n      jumpi\n      pop\n        /* \"smartAuction.sol\":2092:2100  endBlock */\n      sload(0x02)\n        /* \"smartAuction.sol\":2077:2089  block.number */\n      number\n        /* \"smartAuction.sol\":2077:2100  block.number > endBlock */\n      gt\n        /* \"smartAuction.sol\":2034:2100  auctionState == Auction_state.Cancelled || block.number > endBlock */\n    tag_107:\n        /* \"smartAuction.sol\":2026:2101  require(auctionState == Auction_state.Cancelled || block.number > endBlock) */\n      tag_108\n      jumpi\n      0x00\n      dup1\n      revert\n    tag_108:\n        /* \"smartAuction.sol\":2133:2142  autioneer */\n      0x00\n      dup1\n      sload\n      swap1\n      0x0100\n      exp\n      swap1\n      div\n      0xffffffffffffffffffffffffffffffffffffffff\n      and\n        /* \"smartAuction.sol\":2119:2142  msg.sender == autioneer */\n      0xffffffffffffffffffffffffffffffffffffffff\n      and\n        /* \"smartAuction.sol\":2119:2129  msg.sender */\n      caller\n        /* \"smartAuction.sol\":2119:2142  msg.sender == autioneer */\n      0xffffffffffffffffffffffffffffffffffffffff\n      and\n      eq\n        /* \"smartAuction.sol\":2119:2166  msg.sender == autioneer || bids[msg.sender] > 0 */\n      dup1\n      tag_109\n      jumpi\n      pop\n        /* \"smartAuction.sol\":2165:2166  0 */\n      0x00\n        /* \"smartAuction.sol\":2146:2150  bids */\n      0x08\n        /* \"smartAuction.sol\":2146:2162  bids[msg.sender] */\n      0x00\n        /* \"smartAuction.sol\":2151:2161  msg.sender */\n      caller\n        /* \"smartAuction.sol\":2146:2162  bids[msg.sender] */\n      0xffffffffffffffffffffffffffffffffffffffff\n      and\n      0xffffffffffffffffffffffffffffffffffffffff\n      and\n      dup2\n      mstore\n      0x20\n      add\n      swap1\n      dup2\n      mstore\n      0x20\n      add\n      0x00\n      keccak256\n      sload\n        /* \"smartAuction.sol\":2146:2166  bids[msg.sender] > 0 */\n      gt\n        /* \"smartAuction.sol\":2119:2166  msg.sender == autioneer || bids[msg.sender] > 0 */\n    tag_109:\n        /* \"smartAuction.sol\":2111:2167  require(msg.sender == autioneer || bids[msg.sender] > 0) */\n      tag_110\n      jumpi\n      0x00\n      dup1\n      revert\n    tag_110:\n        /* \"smartAuction.sol\":2179:2201  address payable person */\n      0x00\n        /* \"smartAuction.sol\":2212:2222  uint value */\n      dup1\n        /* \"smartAuction.sol\":2252:2275  Auction_state.Cancelled */\n      0x03\n        /* \"smartAuction.sol\":2236:2275  auctionState == Auction_state.Cancelled */\n      dup1\n      dup2\n      gt\n      iszero\n      tag_111\n      jumpi\n      tag_112\n      tag_79\n      jump\t// in\n    tag_112:\n    tag_111:\n        /* \"smartAuction.sol\":2236:2248  auctionState */\n      0x03\n      0x00\n      swap1\n      sload\n      swap1\n      0x0100\n      exp\n      swap1\n      div\n      0xff\n      and\n        /* \"smartAuction.sol\":2236:2275  auctionState == Auction_state.Cancelled */\n      0x03\n      dup2\n      gt\n      iszero\n      tag_113\n      jumpi\n      tag_114\n      tag_79\n      jump\t// in\n    tag_114:\n    tag_113:\n      pop\n      pop\n        /* \"smartAuction.sol\":2016:2307  {... */\n      pop\n      pop\n        /* \"smartAuction.sol\":1977:2307  function finalizeAuction() public view {... */\n      jump\t// out\n        /* \"smartAuction.sol\":1229:1369  function min(uint _x , uint _y) private pure returns(uint){... */\n    tag_92:\n        /* \"smartAuction.sol\":1282:1286  uint */\n      0x00\n        /* \"smartAuction.sol\":1307:1309  _y */\n      dup2\n        /* \"smartAuction.sol\":1301:1303  _x */\n      dup4\n        /* \"smartAuction.sol\":1301:1309  _x <= _y */\n      gt\n        /* \"smartAuction.sol\":1298:1344  if(_x <= _y){... */\n      tag_117\n      jumpi\n        /* \"smartAuction.sol\":1331:1333  _x */\n      dup3\n        /* \"smartAuction.sol\":1324:1333  return _x */\n      swap1\n      pop\n      jump(tag_116)\n        /* \"smartAuction.sol\":1298:1344  if(_x <= _y){... */\n    tag_117:\n        /* \"smartAuction.sol\":1360:1362  _y */\n      dup2\n        /* \"smartAuction.sol\":1353:1362  return _y */\n      swap1\n      pop\n        /* \"smartAuction.sol\":1229:1369  function min(uint _x , uint _y) private pure returns(uint){... */\n    tag_116:\n      swap3\n      swap2\n      pop\n      pop\n      jump\t// out\n        /* \"#utility.yul\":7:146   */\n    tag_119:\n        /* \"#utility.yul\":53:58   */\n      0x00\n        /* \"#utility.yul\":91:97   */\n      dup2\n        /* \"#utility.yul\":78:98   */\n      calldataload\n        /* \"#utility.yul\":69:98   */\n      swap1\n      pop\n        /* \"#utility.yul\":107:140   */\n      tag_121\n        /* \"#utility.yul\":134:139   */\n      dup2\n        /* \"#utility.yul\":107:140   */\n      tag_122\n      jump\t// in\n    tag_121:\n        /* \"#utility.yul\":7:146   */\n      swap3\n      swap2\n      pop\n      pop\n      jump\t// out\n        /* \"#utility.yul\":152:481   */\n    tag_29:\n        /* \"#utility.yul\":211:217   */\n      0x00\n        /* \"#utility.yul\":260:262   */\n      0x20\n        /* \"#utility.yul\":248:257   */\n      dup3\n        /* \"#utility.yul\":239:246   */\n      dup5\n        /* \"#utility.yul\":235:258   */\n      sub\n        /* \"#utility.yul\":231:263   */\n      slt\n        /* \"#utility.yul\":228:347   */\n      iszero\n      tag_124\n      jumpi\n        /* \"#utility.yul\":266:345   */\n      tag_125\n      tag_126\n      jump\t// in\n    tag_125:\n        /* \"#utility.yul\":228:347   */\n    tag_124:\n        /* \"#utility.yul\":386:387   */\n      0x00\n        /* \"#utility.yul\":411:464   */\n      tag_127\n        /* \"#utility.yul\":456:463   */\n      dup5\n        /* \"#utility.yul\":447:453   */\n      dup3\n        /* \"#utility.yul\":436:445   */\n      dup6\n        /* \"#utility.yul\":432:454   */\n      add\n        /* \"#utility.yul\":411:464   */\n      tag_119\n      jump\t// in\n    tag_127:\n        /* \"#utility.yul\":401:464   */\n      swap2\n      pop\n        /* \"#utility.yul\":357:474   */\n      pop\n        /* \"#utility.yul\":152:481   */\n      swap3\n      swap2\n      pop\n      pop\n      jump\t// out\n        /* \"#utility.yul\":487:629   */\n    tag_128:\n        /* \"#utility.yul\":590:622   */\n      tag_130\n        /* \"#utility.yul\":616:621   */\n      dup2\n        /* \"#utility.yul\":590:622   */\n      tag_131\n      jump\t// in\n    tag_130:\n        /* \"#utility.yul\":585:588   */\n      dup3\n        /* \"#utility.yul\":578:623   */\n      mstore\n        /* \"#utility.yul\":487:629   */\n      pop\n      pop\n      jump\t// out\n        /* \"#utility.yul\":635:794   */\n    tag_132:\n        /* \"#utility.yul\":736:787   */\n      tag_134\n        /* \"#utility.yul\":781:786   */\n      dup2\n        /* \"#utility.yul\":736:787   */\n      tag_135\n      jump\t// in\n    tag_134:\n        /* \"#utility.yul\":731:734   */\n      dup3\n        /* \"#utility.yul\":724:788   */\n      mstore\n        /* \"#utility.yul\":635:794   */\n      pop\n      pop\n      jump\t// out\n        /* \"#utility.yul\":800:1166   */\n    tag_136:\n        /* \"#utility.yul\":942:945   */\n      0x00\n        /* \"#utility.yul\":963:1030   */\n      tag_138\n        /* \"#utility.yul\":1027:1029   */\n      0x10\n        /* \"#utility.yul\":1022:1025   */\n      dup4\n        /* \"#utility.yul\":963:1030   */\n      tag_139\n      jump\t// in\n    tag_138:\n        /* \"#utility.yul\":956:1030   */\n      swap2\n      pop\n        /* \"#utility.yul\":1039:1132   */\n      tag_140\n        /* \"#utility.yul\":1128:1131   */\n      dup3\n        /* \"#utility.yul\":1039:1132   */\n      tag_141\n      jump\t// in\n    tag_140:\n        /* \"#utility.yul\":1157:1159   */\n      0x20\n        /* \"#utility.yul\":1152:1155   */\n      dup3\n        /* \"#utility.yul\":1148:1160   */\n      add\n        /* \"#utility.yul\":1141:1160   */\n      swap1\n      pop\n        /* \"#utility.yul\":800:1166   */\n      swap2\n      swap1\n      pop\n      jump\t// out\n        /* \"#utility.yul\":1172:1538   */\n    tag_142:\n        /* \"#utility.yul\":1314:1317   */\n      0x00\n        /* \"#utility.yul\":1335:1402   */\n      tag_144\n        /* \"#utility.yul\":1399:1401   */\n      0x2c\n        /* \"#utility.yul\":1394:1397   */\n      dup4\n        /* \"#utility.yul\":1335:1402   */\n      tag_139\n      jump\t// in\n    tag_144:\n        /* \"#utility.yul\":1328:1402   */\n      swap2\n      pop\n        /* \"#utility.yul\":1411:1504   */\n      tag_145\n        /* \"#utility.yul\":1500:1503   */\n      dup3\n        /* \"#utility.yul\":1411:1504   */\n      tag_146\n      jump\t// in\n    tag_145:\n        /* \"#utility.yul\":1529:1531   */\n      0x40\n        /* \"#utility.yul\":1524:1527   */\n      dup3\n        /* \"#utility.yul\":1520:1532   */\n      add\n        /* \"#utility.yul\":1513:1532   */\n      swap1\n      pop\n        /* \"#utility.yul\":1172:1538   */\n      swap2\n      swap1\n      pop\n      jump\t// out\n        /* \"#utility.yul\":1544:1910   */\n    tag_147:\n        /* \"#utility.yul\":1686:1689   */\n      0x00\n        /* \"#utility.yul\":1707:1774   */\n      tag_149\n        /* \"#utility.yul\":1771:1773   */\n      0x18\n        /* \"#utility.yul\":1766:1769   */\n      dup4\n        /* \"#utility.yul\":1707:1774   */\n      tag_139\n      jump\t// in\n    tag_149:\n        /* \"#utility.yul\":1700:1774   */\n      swap2\n      pop\n        /* \"#utility.yul\":1783:1876   */\n      tag_150\n        /* \"#utility.yul\":1872:1875   */\n      dup3\n        /* \"#utility.yul\":1783:1876   */\n      tag_151\n      jump\t// in\n    tag_150:\n        /* \"#utility.yul\":1901:1903   */\n      0x20\n        /* \"#utility.yul\":1896:1899   */\n      dup3\n        /* \"#utility.yul\":1892:1904   */\n      add\n        /* \"#utility.yul\":1885:1904   */\n      swap1\n      pop\n        /* \"#utility.yul\":1544:1910   */\n      swap2\n      swap1\n      pop\n      jump\t// out\n        /* \"#utility.yul\":1916:2282   */\n    tag_152:\n        /* \"#utility.yul\":2058:2061   */\n      0x00\n        /* \"#utility.yul\":2079:2146   */\n      tag_154\n        /* \"#utility.yul\":2143:2145   */\n      0x1b\n        /* \"#utility.yul\":2138:2141   */\n      dup4\n        /* \"#utility.yul\":2079:2146   */\n      tag_139\n      jump\t// in\n    tag_154:\n        /* \"#utility.yul\":2072:2146   */\n      swap2\n      pop\n        /* \"#utility.yul\":2155:2248   */\n      tag_155\n        /* \"#utility.yul\":2244:2247   */\n      dup3\n        /* \"#utility.yul\":2155:2248   */\n      tag_156\n      jump\t// in\n    tag_155:\n        /* \"#utility.yul\":2273:2275   */\n      0x20\n        /* \"#utility.yul\":2268:2271   */\n      dup3\n        /* \"#utility.yul\":2264:2276   */\n      add\n        /* \"#utility.yul\":2257:2276   */\n      swap1\n      pop\n        /* \"#utility.yul\":1916:2282   */\n      swap2\n      swap1\n      pop\n      jump\t// out\n        /* \"#utility.yul\":2288:2406   */\n    tag_157:\n        /* \"#utility.yul\":2375:2399   */\n      tag_159\n        /* \"#utility.yul\":2393:2398   */\n      dup2\n        /* \"#utility.yul\":2375:2399   */\n      tag_160\n      jump\t// in\n    tag_159:\n        /* \"#utility.yul\":2370:2373   */\n      dup3\n        /* \"#utility.yul\":2363:2400   */\n      mstore\n        /* \"#utility.yul\":2288:2406   */\n      pop\n      pop\n      jump\t// out\n        /* \"#utility.yul\":2412:2666   */\n    tag_48:\n        /* \"#utility.yul\":2521:2525   */\n      0x00\n        /* \"#utility.yul\":2559:2561   */\n      0x20\n        /* \"#utility.yul\":2548:2557   */\n      dup3\n        /* \"#utility.yul\":2544:2562   */\n      add\n        /* \"#utility.yul\":2536:2562   */\n      swap1\n      pop\n        /* \"#utility.yul\":2572:2659   */\n      tag_162\n        /* \"#utility.yul\":2656:2657   */\n      0x00\n        /* \"#utility.yul\":2645:2654   */\n      dup4\n        /* \"#utility.yul\":2641:2658   */\n      add\n        /* \"#utility.yul\":2632:2638   */\n      dup5\n        /* \"#utility.yul\":2572:2659   */\n      tag_128\n      jump\t// in\n    tag_162:\n        /* \"#utility.yul\":2412:2666   */\n      swap3\n      swap2\n      pop\n      pop\n      jump\t// out\n        /* \"#utility.yul\":2672:2922   */\n    tag_40:\n        /* \"#utility.yul\":2779:2783   */\n      0x00\n        /* \"#utility.yul\":2817:2819   */\n      0x20\n        /* \"#utility.yul\":2806:2815   */\n      dup3\n        /* \"#utility.yul\":2802:2820   */\n      add\n        /* \"#utility.yul\":2794:2820   */\n      swap1\n      pop\n        /* \"#utility.yul\":2830:2915   */\n      tag_164\n        /* \"#utility.yul\":2912:2913   */\n      0x00\n        /* \"#utility.yul\":2901:2910   */\n      dup4\n        /* \"#utility.yul\":2897:2914   */\n      add\n        /* \"#utility.yul\":2888:2894   */\n      dup5\n        /* \"#utility.yul\":2830:2915   */\n      tag_132\n      jump\t// in\n    tag_164:\n        /* \"#utility.yul\":2672:2922   */\n      swap3\n      swap2\n      pop\n      pop\n      jump\t// out\n        /* \"#utility.yul\":2928:3347   */\n    tag_67:\n        /* \"#utility.yul\":3094:3098   */\n      0x00\n        /* \"#utility.yul\":3132:3134   */\n      0x20\n        /* \"#utility.yul\":3121:3130   */\n      dup3\n        /* \"#utility.yul\":3117:3135   */\n      add\n        /* \"#utility.yul\":3109:3135   */\n      swap1\n      pop\n        /* \"#utility.yul\":3181:3190   */\n      dup2\n        /* \"#utility.yul\":3175:3179   */\n      dup2\n        /* \"#utility.yul\":3171:3191   */\n      sub\n        /* \"#utility.yul\":3167:3168   */\n      0x00\n        /* \"#utility.yul\":3156:3165   */\n      dup4\n        /* \"#utility.yul\":3152:3169   */\n      add\n        /* \"#utility.yul\":3145:3192   */\n      mstore\n        /* \"#utility.yul\":3209:3340   */\n      tag_166\n        /* \"#utility.yul\":3335:3339   */\n      dup2\n        /* \"#utility.yul\":3209:3340   */\n      tag_136\n      jump\t// in\n    tag_166:\n        /* \"#utility.yul\":3201:3340   */\n      swap1\n      pop\n        /* \"#utility.yul\":2928:3347   */\n      swap2\n      swap1\n      pop\n      jump\t// out\n        /* \"#utility.yul\":3353:3772   */\n    tag_71:\n        /* \"#utility.yul\":3519:3523   */\n      0x00\n        /* \"#utility.yul\":3557:3559   */\n      0x20\n        /* \"#utility.yul\":3546:3555   */\n      dup3\n        /* \"#utility.yul\":3542:3560   */\n      add\n        /* \"#utility.yul\":3534:3560   */\n      swap1\n      pop\n        /* \"#utility.yul\":3606:3615   */\n      dup2\n        /* \"#utility.yul\":3600:3604   */\n      dup2\n        /* \"#utility.yul\":3596:3616   */\n      sub\n        /* \"#utility.yul\":3592:3593   */\n      0x00\n        /* \"#utility.yul\":3581:3590   */\n      dup4\n        /* \"#utility.yul\":3577:3594   */\n      add\n        /* \"#utility.yul\":3570:3617   */\n      mstore\n        /* \"#utility.yul\":3634:3765   */\n      tag_168\n        /* \"#utility.yul\":3760:3764   */\n      dup2\n        /* \"#utility.yul\":3634:3765   */\n      tag_142\n      jump\t// in\n    tag_168:\n        /* \"#utility.yul\":3626:3765   */\n      swap1\n      pop\n        /* \"#utility.yul\":3353:3772   */\n      swap2\n      swap1\n      pop\n      jump\t// out\n        /* \"#utility.yul\":3778:4197   */\n    tag_75:\n        /* \"#utility.yul\":3944:3948   */\n      0x00\n        /* \"#utility.yul\":3982:3984   */\n      0x20\n        /* \"#utility.yul\":3971:3980   */\n      dup3\n        /* \"#utility.yul\":3967:3985   */\n      add\n        /* \"#utility.yul\":3959:3985   */\n      swap1\n      pop\n        /* \"#utility.yul\":4031:4040   */\n      dup2\n        /* \"#utility.yul\":4025:4029   */\n      dup2\n        /* \"#utility.yul\":4021:4041   */\n      sub\n        /* \"#utility.yul\":4017:4018   */\n      0x00\n        /* \"#utility.yul\":4006:4015   */\n      dup4\n        /* \"#utility.yul\":4002:4019   */\n      add\n        /* \"#utility.yul\":3995:4042   */\n      mstore\n        /* \"#utility.yul\":4059:4190   */\n      tag_170\n        /* \"#utility.yul\":4185:4189   */\n      dup2\n        /* \"#utility.yul\":4059:4190   */\n      tag_147\n      jump\t// in\n    tag_170:\n        /* \"#utility.yul\":4051:4190   */\n      swap1\n      pop\n        /* \"#utility.yul\":3778:4197   */\n      swap2\n      swap1\n      pop\n      jump\t// out\n        /* \"#utility.yul\":4203:4622   */\n    tag_88:\n        /* \"#utility.yul\":4369:4373   */\n      0x00\n        /* \"#utility.yul\":4407:4409   */\n      0x20\n        /* \"#utility.yul\":4396:4405   */\n      dup3\n        /* \"#utility.yul\":4392:4410   */\n      add\n        /* \"#utility.yul\":4384:4410   */\n      swap1\n      pop\n        /* \"#utility.yul\":4456:4465   */\n      dup2\n        /* \"#utility.yul\":4450:4454   */\n      dup2\n        /* \"#utility.yul\":4446:4466   */\n      sub\n        /* \"#utility.yul\":4442:4443   */\n      0x00\n        /* \"#utility.yul\":4431:4440   */\n      dup4\n        /* \"#utility.yul\":4427:4444   */\n      add\n        /* \"#utility.yul\":4420:4467   */\n      mstore\n        /* \"#utility.yul\":4484:4615   */\n      tag_172\n        /* \"#utility.yul\":4610:4614   */\n      dup2\n        /* \"#utility.yul\":4484:4615   */\n      tag_152\n      jump\t// in\n    tag_172:\n        /* \"#utility.yul\":4476:4615   */\n      swap1\n      pop\n        /* \"#utility.yul\":4203:4622   */\n      swap2\n      swap1\n      pop\n      jump\t// out\n        /* \"#utility.yul\":4628:4850   */\n    tag_19:\n        /* \"#utility.yul\":4721:4725   */\n      0x00\n        /* \"#utility.yul\":4759:4761   */\n      0x20\n        /* \"#utility.yul\":4748:4757   */\n      dup3\n        /* \"#utility.yul\":4744:4762   */\n      add\n        /* \"#utility.yul\":4736:4762   */\n      swap1\n      pop\n        /* \"#utility.yul\":4772:4843   */\n      tag_174\n        /* \"#utility.yul\":4840:4841   */\n      0x00\n        /* \"#utility.yul\":4829:4838   */\n      dup4\n        /* \"#utility.yul\":4825:4842   */\n      add\n        /* \"#utility.yul\":4816:4822   */\n      dup5\n        /* \"#utility.yul\":4772:4843   */\n      tag_157\n      jump\t// in\n    tag_174:\n        /* \"#utility.yul\":4628:4850   */\n      swap3\n      swap2\n      pop\n      pop\n      jump\t// out\n        /* \"#utility.yul\":4937:5106   */\n    tag_139:\n        /* \"#utility.yul\":5021:5032   */\n      0x00\n        /* \"#utility.yul\":5055:5061   */\n      dup3\n        /* \"#utility.yul\":5050:5053   */\n      dup3\n        /* \"#utility.yul\":5043:5062   */\n      mstore\n        /* \"#utility.yul\":5095:5099   */\n      0x20\n        /* \"#utility.yul\":5090:5093   */\n      dup3\n        /* \"#utility.yul\":5086:5100   */\n      add\n        /* \"#utility.yul\":5071:5100   */\n      swap1\n      pop\n        /* \"#utility.yul\":4937:5106   */\n      swap3\n      swap2\n      pop\n      pop\n      jump\t// out\n        /* \"#utility.yul\":5112:5417   */\n    tag_85:\n        /* \"#utility.yul\":5152:5155   */\n      0x00\n        /* \"#utility.yul\":5171:5191   */\n      tag_179\n        /* \"#utility.yul\":5189:5190   */\n      dup3\n        /* \"#utility.yul\":5171:5191   */\n      tag_160\n      jump\t// in\n    tag_179:\n        /* \"#utility.yul\":5166:5191   */\n      swap2\n      pop\n        /* \"#utility.yul\":5205:5225   */\n      tag_180\n        /* \"#utility.yul\":5223:5224   */\n      dup4\n        /* \"#utility.yul\":5205:5225   */\n      tag_160\n      jump\t// in\n    tag_180:\n        /* \"#utility.yul\":5200:5225   */\n      swap3\n      pop\n        /* \"#utility.yul\":5359:5360   */\n      dup3\n        /* \"#utility.yul\":5291:5357   */\n      0xffffffffffffffffffffffffffffffffffffffffffffffffffffffffffffffff\n        /* \"#utility.yul\":5287:5361   */\n      sub\n        /* \"#utility.yul\":5284:5285   */\n      dup3\n        /* \"#utility.yul\":5281:5362   */\n      gt\n        /* \"#utility.yul\":5278:5385   */\n      iszero\n      tag_181\n      jumpi\n        /* \"#utility.yul\":5365:5383   */\n      tag_182\n      tag_183\n      jump\t// in\n    tag_182:\n        /* \"#utility.yul\":5278:5385   */\n    tag_181:\n        /* \"#utility.yul\":5409:5410   */\n      dup3\n        /* \"#utility.yul\":5406:5407   */\n      dup3\n        /* \"#utility.yul\":5402:5411   */\n      add\n        /* \"#utility.yul\":5395:5411   */\n      swap1\n      pop\n        /* \"#utility.yul\":5112:5417   */\n      swap3\n      swap2\n      pop\n      pop\n      jump\t// out\n        /* \"#utility.yul\":5423:5519   */\n    tag_184:\n        /* \"#utility.yul\":5460:5467   */\n      0x00\n        /* \"#utility.yul\":5489:5513   */\n      tag_186\n        /* \"#utility.yul\":5507:5512   */\n      dup3\n        /* \"#utility.yul\":5489:5513   */\n      tag_187\n      jump\t// in\n    tag_186:\n        /* \"#utility.yul\":5478:5513   */\n      swap1\n      pop\n        /* \"#utility.yul\":5423:5519   */\n      swap2\n      swap1\n      pop\n      jump\t// out\n        /* \"#utility.yul\":5525:5629   */\n    tag_131:\n        /* \"#utility.yul\":5570:5577   */\n      0x00\n        /* \"#utility.yul\":5599:5623   */\n      tag_189\n        /* \"#utility.yul\":5617:5622   */\n      dup3\n        /* \"#utility.yul\":5599:5623   */\n      tag_187\n      jump\t// in\n    tag_189:\n        /* \"#utility.yul\":5588:5623   */\n      swap1\n      pop\n        /* \"#utility.yul\":5525:5629   */\n      swap2\n      swap1\n      pop\n      jump\t// out\n        /* \"#utility.yul\":5635:5778   */\n    tag_190:\n        /* \"#utility.yul\":5688:5695   */\n      0x00\n        /* \"#utility.yul\":5717:5722   */\n      dup2\n        /* \"#utility.yul\":5706:5722   */\n      swap1\n      pop\n        /* \"#utility.yul\":5723:5772   */\n      tag_192\n        /* \"#utility.yul\":5766:5771   */\n      dup3\n        /* \"#utility.yul\":5723:5772   */\n      tag_193\n      jump\t// in\n    tag_192:\n        /* \"#utility.yul\":5635:5778   */\n      swap2\n      swap1\n      pop\n      jump\t// out\n        /* \"#utility.yul\":5784:5910   */\n    tag_187:\n        /* \"#utility.yul\":5821:5828   */\n      0x00\n        /* \"#utility.yul\":5861:5903   */\n      0xffffffffffffffffffffffffffffffffffffffff\n        /* \"#utility.yul\":5854:5859   */\n      dup3\n        /* \"#utility.yul\":5850:5904   */\n      and\n        /* \"#utility.yul\":5839:5904   */\n      swap1\n      pop\n        /* \"#utility.yul\":5784:5910   */\n      swap2\n      swap1\n      pop\n      jump\t// out\n        /* \"#utility.yul\":5916:5993   */\n    tag_160:\n        /* \"#utility.yul\":5953:5960   */\n      0x00\n        /* \"#utility.yul\":5982:5987   */\n      dup2\n        /* \"#utility.yul\":5971:5987   */\n      swap1\n      pop\n        /* \"#utility.yul\":5916:5993   */\n      swap2\n      swap1\n      pop\n      jump\t// out\n        /* \"#utility.yul\":5999:6142   */\n    tag_135:\n        /* \"#utility.yul\":6063:6072   */\n      0x00\n        /* \"#utility.yul\":6096:6136   */\n      tag_197\n        /* \"#utility.yul\":6130:6135   */\n      dup3\n        /* \"#utility.yul\":6096:6136   */\n      tag_190\n      jump\t// in\n    tag_197:\n        /* \"#utility.yul\":6083:6136   */\n      swap1\n      pop\n        /* \"#utility.yul\":5999:6142   */\n      swap2\n      swap1\n      pop\n      jump\t// out\n        /* \"#utility.yul\":6148:6328   */\n    tag_183:\n        /* \"#utility.yul\":6196:6273   */\n      0x4e487b7100000000000000000000000000000000000000000000000000000000\n        /* \"#utility.yul\":6193:6194   */\n      0x00\n        /* \"#utility.yul\":6186:6274   */\n      mstore\n        /* \"#utility.yul\":6293:6297   */\n      0x11\n        /* \"#utility.yul\":6290:6291   */\n      0x04\n        /* \"#utility.yul\":6283:6298   */\n      mstore\n        /* \"#utility.yul\":6317:6321   */\n      0x24\n        /* \"#utility.yul\":6314:6315   */\n      0x00\n        /* \"#utility.yul\":6307:6322   */\n      revert\n        /* \"#utility.yul\":6334:6514   */\n    tag_79:\n        /* \"#utility.yul\":6382:6459   */\n      0x4e487b7100000000000000000000000000000000000000000000000000000000\n        /* \"#utility.yul\":6379:6380   */\n      0x00\n        /* \"#utility.yul\":6372:6460   */\n      mstore\n        /* \"#utility.yul\":6479:6483   */\n      0x21\n        /* \"#utility.yul\":6476:6477   */\n      0x04\n        /* \"#utility.yul\":6469:6484   */\n      mstore\n        /* \"#utility.yul\":6503:6507   */\n      0x24\n        /* \"#utility.yul\":6500:6501   */\n      0x00\n        /* \"#utility.yul\":6493:6508   */\n      revert\n        /* \"#utility.yul\":6643:6760   */\n    tag_126:\n        /* \"#utility.yul\":6752:6753   */\n      0x00\n        /* \"#utility.yul\":6749:6750   */\n      dup1\n        /* \"#utility.yul\":6742:6754   */\n      revert\n        /* \"#utility.yul\":6766:6932   */\n    tag_141:\n        /* \"#utility.yul\":6906:6924   */\n      0x4f776e65722043616e6e6f742062696400000000000000000000000000000000\n        /* \"#utility.yul\":6902:6903   */\n      0x00\n        /* \"#utility.yul\":6894:6900   */\n      dup3\n        /* \"#utility.yul\":6890:6904   */\n      add\n        /* \"#utility.yul\":6883:6925   */\n      mstore\n        /* \"#utility.yul\":6766:6932   */\n      pop\n      jump\t// out\n        /* \"#utility.yul\":6938:7169   */\n    tag_146:\n        /* \"#utility.yul\":7078:7112   */\n      0x537461727420426c6f636b206d7573742062652067726561746572207468616e\n        /* \"#utility.yul\":7074:7075   */\n      0x00\n        /* \"#utility.yul\":7066:7072   */\n      dup3\n        /* \"#utility.yul\":7062:7076   */\n      add\n        /* \"#utility.yul\":7055:7113   */\n      mstore\n        /* \"#utility.yul\":7147:7161   */\n      0x20746f74616c20626c6f636b0000000000000000000000000000000000000000\n        /* \"#utility.yul\":7142:7144   */\n      0x20\n        /* \"#utility.yul\":7134:7140   */\n      dup3\n        /* \"#utility.yul\":7130:7145   */\n      add\n        /* \"#utility.yul\":7123:7162   */\n      mstore\n        /* \"#utility.yul\":6938:7169   */\n      pop\n      jump\t// out\n        /* \"#utility.yul\":7175:7349   */\n    tag_151:\n        /* \"#utility.yul\":7315:7341   */\n      0x41756374696f6e206973206e6f7420456e646564207965740000000000000000\n        /* \"#utility.yul\":7311:7312   */\n      0x00\n        /* \"#utility.yul\":7303:7309   */\n      dup3\n        /* \"#utility.yul\":7299:7313   */\n      add\n        /* \"#utility.yul\":7292:7342   */\n      mstore\n        /* \"#utility.yul\":7175:7349   */\n      pop\n      jump\t// out\n        /* \"#utility.yul\":7355:7532   */\n    tag_156:\n        /* \"#utility.yul\":7495:7524   */\n      0x496e63726561736520596f7520204269642056616c75207468616e0000000000\n        /* \"#utility.yul\":7491:7492   */\n      0x00\n        /* \"#utility.yul\":7483:7489   */\n      dup3\n        /* \"#utility.yul\":7479:7493   */\n      add\n        /* \"#utility.yul\":7472:7525   */\n      mstore\n        /* \"#utility.yul\":7355:7532   */\n      pop\n      jump\t// out\n        /* \"#utility.yul\":7538:7659   */\n    tag_193:\n        /* \"#utility.yul\":7627:7628   */\n      0x04\n        /* \"#utility.yul\":7620:7625   */\n      dup2\n        /* \"#utility.yul\":7617:7629   */\n      lt\n        /* \"#utility.yul\":7607:7653   */\n      tag_208\n      jumpi\n        /* \"#utility.yul\":7633:7651   */\n      tag_209\n      tag_79\n      jump\t// in\n    tag_209:\n        /* \"#utility.yul\":7607:7653   */\n    tag_208:\n        /* \"#utility.yul\":7538:7659   */\n      pop\n      jump\t// out\n        /* \"#utility.yul\":7665:7787   */\n    tag_122:\n        /* \"#utility.yul\":7738:7762   */\n      tag_211\n        /* \"#utility.yul\":7756:7761   */\n      dup2\n        /* \"#utility.yul\":7738:7762   */\n      tag_184\n      jump\t// in\n    tag_211:\n        /* \"#utility.yul\":7731:7736   */\n      dup2\n        /* \"#utility.yul\":7728:7763   */\n      eq\n        /* \"#utility.yul\":7718:7781   */\n      tag_212\n      jumpi\n        /* \"#utility.yul\":7777:7778   */\n      0x00\n        /* \"#utility.yul\":7774:7775   */\n      dup1\n        /* \"#utility.yul\":7767:7779   */\n      revert\n        /* \"#utility.yul\":7718:7781   */\n    tag_212:\n        /* \"#utility.yul\":7665:7787   */\n      pop\n      jump\t// out\n\n    auxdata: 0xa2646970667358221220879335d6aa8fff6497aa132de92ea0142ff20077c54327ec9b5d0919e3e6eb1564736f6c63430008070033\n}\n",
				"bytecode": {
					"linkReferences": {},
					"object": "608060405234801561001057600080fd5b50336000806101000a81548173ffffffffffffffffffffffffffffffffffffffff021916908373ffffffffffffffffffffffffffffffffffffffff160217905550436001819055506001600360006101000a81548160ff0219169083600381111561007e5761007d61013a565b5b02179055506001805461009191906100ab565b600281905550670de0b6b3a7640000600681905550610169565b60006100b682610101565b91506100c183610101565b9250827fffffffffffffffffffffffffffffffffffffffffffffffffffffffffffffffff038211156100f6576100f561010b565b5b828201905092915050565b6000819050919050565b7f4e487b7100000000000000000000000000000000000000000000000000000000600052601160045260246000fd5b7f4e487b7100000000000000000000000000000000000000000000000000000000600052602160045260246000fd5b610cef806101786000396000f3fe6080604052600436106100a75760003560e01c80638fa8b790116100645780638fa8b7901461019f578063b035bf60146101b6578063bd9215f4146101e1578063e5c600911461020c578063f3ef35f814610237578063f77282ab14610262576100a7565b8063083c6323146100ac5780631998aeef146100d757806348cd4cb1146100e157806362ea82db1461010c5780637eb695a1146101495780637fb4509914610174575b600080fd5b3480156100b857600080fd5b506100c1610279565b6040516100ce9190610a6c565b60405180910390f35b6100df61027f565b005b3480156100ed57600080fd5b506100f661062e565b6040516101039190610a6c565b60405180910390f35b34801561011857600080fd5b50610133600480360381019061012e91906108d0565b610634565b6040516101409190610a6c565b60405180910390f35b34801561015557600080fd5b5061015e61064c565b60405161016b9190610a6c565b60405180910390f35b34801561018057600080fd5b50610189610652565b60405161019691906109d1565b60405180910390f35b3480156101ab57600080fd5b506101b4610665565b005b3480156101c257600080fd5b506101cb61071f565b6040516101d891906109b6565b60405180910390f35b3480156101ed57600080fd5b506101f6610743565b60405161020391906109b6565b60405180910390f35b34801561021857600080fd5b50610221610769565b60405161022e9190610a6c565b60405180910390f35b34801561024357600080fd5b5061024c61076f565b6040516102599190610a6c565b60405180910390f35b34801561026e57600080fd5b50610277610775565b005b60025481565b60008054906101000a900473ffffffffffffffffffffffffffffffffffffffff1673ffffffffffffffffffffffffffffffffffffffff163373ffffffffffffffffffffffffffffffffffffffff16141561030e576040517f08c379a0000000000000000000000000000000000000000000000000000000008152600401610305906109ec565b60405180910390fd5b6001544311610352576040517f08c379a000000000000000000000000000000000000000000000000000000000815260040161034990610a0c565b60405180910390fd5b6002544310610396576040517f08c379a000000000000000000000000000000000000000000000000000000000815260040161038d90610a2c565b60405180910390fd5b600160038111156103aa576103a9610b90565b5b600360009054906101000a900460ff1660038111156103cc576103cb610b90565b5b146103d657600080fd5b671bc16d674ec8000034116103ea57600080fd5b6000600654600860003373ffffffffffffffffffffffffffffffffffffffff1673ffffffffffffffffffffffffffffffffffffffff168152602001908152602001600020546104399190610a98565b9050600554811161047f576040517f08c379a000000000000000000000000000000000000000000000000000000000815260040161047690610a4c565b60405180910390fd5b60086000600760009054906101000a900473ffffffffffffffffffffffffffffffffffffffff1673ffffffffffffffffffffffffffffffffffffffff1673ffffffffffffffffffffffffffffffffffffffff1681526020019081526020016000205481101561056b57610560600654826104f99190610a98565b60086000600760009054906101000a900473ffffffffffffffffffffffffffffffffffffffff1673ffffffffffffffffffffffffffffffffffffffff1673ffffffffffffffffffffffffffffffffffffffff168152602001908152602001600020546108a0565b60058190555061062b565b6105e38160065460086000600760009054906101000a900473ffffffffffffffffffffffffffffffffffffffff1673ffffffffffffffffffffffffffffffffffffffff1673ffffffffffffffffffffffffffffffffffffffff168152602001908152602001600020546105de9190610a98565b6108a0565b60058190555033600760006101000a81548173ffffffffffffffffffffffffffffffffffffffff021916908373ffffffffffffffffffffffffffffffffffffffff1602179055505b50565b60015481565b60086020528060005260406000206000915090505481565b60055481565b600360009054906101000a900460ff1681565b60008054906101000a900473ffffffffffffffffffffffffffffffffffffffff1673ffffffffffffffffffffffffffffffffffffffff163373ffffffffffffffffffffffffffffffffffffffff16146106f3576040517f08c379a00000000000000000000000000000000000000000000000000000000081526004016106ea906109ec565b60405180910390fd5b60038060006101000a81548160ff0219169083600381111561071857610717610b90565b5b0217905550565b60008054906101000a900473ffffffffffffffffffffffffffffffffffffffff1681565b600760009054906101000a900473ffffffffffffffffffffffffffffffffffffffff1681565b60045481565b60065481565b60038081111561078857610787610b90565b5b600360009054906101000a900460ff1660038111156107aa576107a9610b90565b5b14806107b7575060025443115b6107c057600080fd5b60008054906101000a900473ffffffffffffffffffffffffffffffffffffffff1673ffffffffffffffffffffffffffffffffffffffff163373ffffffffffffffffffffffffffffffffffffffff16148061085957506000600860003373ffffffffffffffffffffffffffffffffffffffff1673ffffffffffffffffffffffffffffffffffffffff16815260200190815260200160002054115b61086257600080fd5b60008060038081111561087857610877610b90565b5b600360009054906101000a900460ff16600381111561089a57610899610b90565b5b50505050565b60008183116108b1578290506108b5565b8190505b92915050565b6000813590506108ca81610ca2565b92915050565b6000602082840312156108e6576108e5610bbf565b5b60006108f4848285016108bb565b91505092915050565b61090681610b00565b82525050565b61091581610b4f565b82525050565b6000610928601083610a87565b915061093382610bc4565b602082019050919050565b600061094b602c83610a87565b915061095682610bed565b604082019050919050565b600061096e601883610a87565b915061097982610c3c565b602082019050919050565b6000610991601b83610a87565b915061099c82610c65565b602082019050919050565b6109b081610b45565b82525050565b60006020820190506109cb60008301846108fd565b92915050565b60006020820190506109e6600083018461090c565b92915050565b60006020820190508181036000830152610a058161091b565b9050919050565b60006020820190508181036000830152610a258161093e565b9050919050565b60006020820190508181036000830152610a4581610961565b9050919050565b60006020820190508181036000830152610a6581610984565b9050919050565b6000602082019050610a8160008301846109a7565b92915050565b600082825260208201905092915050565b6000610aa382610b45565b9150610aae83610b45565b9250827fffffffffffffffffffffffffffffffffffffffffffffffffffffffffffffffff03821115610ae357610ae2610b61565b5b828201905092915050565b6000610af982610b25565b9050919050565b6000610b0b82610b25565b9050919050565b6000819050610b2082610c8e565b919050565b600073ffffffffffffffffffffffffffffffffffffffff82169050919050565b6000819050919050565b6000610b5a82610b12565b9050919050565b7f4e487b7100000000000000000000000000000000000000000000000000000000600052601160045260246000fd5b7f4e487b7100000000000000000000000000000000000000000000000000000000600052602160045260246000fd5b600080fd5b7f4f776e65722043616e6e6f742062696400000000000000000000000000000000600082015250565b7f537461727420426c6f636b206d7573742062652067726561746572207468616e60008201527f20746f74616c20626c6f636b0000000000000000000000000000000000000000602082015250565b7f41756374696f6e206973206e6f7420456e646564207965740000000000000000600082015250565b7f496e63726561736520596f7520204269642056616c75207468616e0000000000600082015250565b60048110610c9f57610c9e610b90565b5b50565b610cab81610aee565b8114610cb657600080fd5b5056fea2646970667358221220879335d6aa8fff6497aa132de92ea0142ff20077c54327ec9b5d0919e3e6eb1564736f6c63430008070033",
					"opcodes": "PUSH1 0x80 PUSH1 0x40 MSTORE CALLVALUE DUP1 ISZERO PUSH2 0x10 JUMPI PUSH1 0x0 DUP1 REVERT JUMPDEST POP CALLER PUSH1 0x0 DUP1 PUSH2 0x100 EXP DUP2 SLOAD DUP2 PUSH20 0xFFFFFFFFFFFFFFFFFFFFFFFFFFFFFFFFFFFFFFFF MUL NOT AND SWAP1 DUP4 PUSH20 0xFFFFFFFFFFFFFFFFFFFFFFFFFFFFFFFFFFFFFFFF AND MUL OR SWAP1 SSTORE POP NUMBER PUSH1 0x1 DUP2 SWAP1 SSTORE POP PUSH1 0x1 PUSH1 0x3 PUSH1 0x0 PUSH2 0x100 EXP DUP2 SLOAD DUP2 PUSH1 0xFF MUL NOT AND SWAP1 DUP4 PUSH1 0x3 DUP2 GT ISZERO PUSH2 0x7E JUMPI PUSH2 0x7D PUSH2 0x13A JUMP JUMPDEST JUMPDEST MUL OR SWAP1 SSTORE POP PUSH1 0x1 DUP1 SLOAD PUSH2 0x91 SWAP2 SWAP1 PUSH2 0xAB JUMP JUMPDEST PUSH1 0x2 DUP2 SWAP1 SSTORE POP PUSH8 0xDE0B6B3A7640000 PUSH1 0x6 DUP2 SWAP1 SSTORE POP PUSH2 0x169 JUMP JUMPDEST PUSH1 0x0 PUSH2 0xB6 DUP3 PUSH2 0x101 JUMP JUMPDEST SWAP2 POP PUSH2 0xC1 DUP4 PUSH2 0x101 JUMP JUMPDEST SWAP3 POP DUP3 PUSH32 0xFFFFFFFFFFFFFFFFFFFFFFFFFFFFFFFFFFFFFFFFFFFFFFFFFFFFFFFFFFFFFFFF SUB DUP3 GT ISZERO PUSH2 0xF6 JUMPI PUSH2 0xF5 PUSH2 0x10B JUMP JUMPDEST JUMPDEST DUP3 DUP3 ADD SWAP1 POP SWAP3 SWAP2 POP POP JUMP JUMPDEST PUSH1 0x0 DUP2 SWAP1 POP SWAP2 SWAP1 POP JUMP JUMPDEST PUSH32 0x4E487B7100000000000000000000000000000000000000000000000000000000 PUSH1 0x0 MSTORE PUSH1 0x11 PUSH1 0x4 MSTORE PUSH1 0x24 PUSH1 0x0 REVERT JUMPDEST PUSH32 0x4E487B7100000000000000000000000000000000000000000000000000000000 PUSH1 0x0 MSTORE PUSH1 0x21 PUSH1 0x4 MSTORE PUSH1 0x24 PUSH1 0x0 REVERT JUMPDEST PUSH2 0xCEF DUP1 PUSH2 0x178 PUSH1 0x0 CODECOPY PUSH1 0x0 RETURN INVALID PUSH1 0x80 PUSH1 0x40 MSTORE PUSH1 0x4 CALLDATASIZE LT PUSH2 0xA7 JUMPI PUSH1 0x0 CALLDATALOAD PUSH1 0xE0 SHR DUP1 PUSH4 0x8FA8B790 GT PUSH2 0x64 JUMPI DUP1 PUSH4 0x8FA8B790 EQ PUSH2 0x19F JUMPI DUP1 PUSH4 0xB035BF60 EQ PUSH2 0x1B6 JUMPI DUP1 PUSH4 0xBD9215F4 EQ PUSH2 0x1E1 JUMPI DUP1 PUSH4 0xE5C60091 EQ PUSH2 0x20C JUMPI DUP1 PUSH4 0xF3EF35F8 EQ PUSH2 0x237 JUMPI DUP1 PUSH4 0xF77282AB EQ PUSH2 0x262 JUMPI PUSH2 0xA7 JUMP JUMPDEST DUP1 PUSH4 0x83C6323 EQ PUSH2 0xAC JUMPI DUP1 PUSH4 0x1998AEEF EQ PUSH2 0xD7 JUMPI DUP1 PUSH4 0x48CD4CB1 EQ PUSH2 0xE1 JUMPI DUP1 PUSH4 0x62EA82DB EQ PUSH2 0x10C JUMPI DUP1 PUSH4 0x7EB695A1 EQ PUSH2 0x149 JUMPI DUP1 PUSH4 0x7FB45099 EQ PUSH2 0x174 JUMPI JUMPDEST PUSH1 0x0 DUP1 REVERT JUMPDEST CALLVALUE DUP1 ISZERO PUSH2 0xB8 JUMPI PUSH1 0x0 DUP1 REVERT JUMPDEST POP PUSH2 0xC1 PUSH2 0x279 JUMP JUMPDEST PUSH1 0x40 MLOAD PUSH2 0xCE SWAP2 SWAP1 PUSH2 0xA6C JUMP JUMPDEST PUSH1 0x40 MLOAD DUP1 SWAP2 SUB SWAP1 RETURN JUMPDEST PUSH2 0xDF PUSH2 0x27F JUMP JUMPDEST STOP JUMPDEST CALLVALUE DUP1 ISZERO PUSH2 0xED JUMPI PUSH1 0x0 DUP1 REVERT JUMPDEST POP PUSH2 0xF6 PUSH2 0x62E JUMP JUMPDEST PUSH1 0x40 MLOAD PUSH2 0x103 SWAP2 SWAP1 PUSH2 0xA6C JUMP JUMPDEST PUSH1 0x40 MLOAD DUP1 SWAP2 SUB SWAP1 RETURN JUMPDEST CALLVALUE DUP1 ISZERO PUSH2 0x118 JUMPI PUSH1 0x0 DUP1 REVERT JUMPDEST POP PUSH2 0x133 PUSH1 0x4 DUP1 CALLDATASIZE SUB DUP2 ADD SWAP1 PUSH2 0x12E SWAP2 SWAP1 PUSH2 0x8D0 JUMP JUMPDEST PUSH2 0x634 JUMP JUMPDEST PUSH1 0x40 MLOAD PUSH2 0x140 SWAP2 SWAP1 PUSH2 0xA6C JUMP JUMPDEST PUSH1 0x40 MLOAD DUP1 SWAP2 SUB SWAP1 RETURN JUMPDEST CALLVALUE DUP1 ISZERO PUSH2 0x155 JUMPI PUSH1 0x0 DUP1 REVERT JUMPDEST POP PUSH2 0x15E PUSH2 0x64C JUMP JUMPDEST PUSH1 0x40 MLOAD PUSH2 0x16B SWAP2 SWAP1 PUSH2 0xA6C JUMP JUMPDEST PUSH1 0x40 MLOAD DUP1 SWAP2 SUB SWAP1 RETURN JUMPDEST CALLVALUE DUP1 ISZERO PUSH2 0x180 JUMPI PUSH1 0x0 DUP1 REVERT JUMPDEST POP PUSH2 0x189 PUSH2 0x652 JUMP JUMPDEST PUSH1 0x40 MLOAD PUSH2 0x196 SWAP2 SWAP1 PUSH2 0x9D1 JUMP JUMPDEST PUSH1 0x40 MLOAD DUP1 SWAP2 SUB SWAP1 RETURN JUMPDEST CALLVALUE DUP1 ISZERO PUSH2 0x1AB JUMPI PUSH1 0x0 DUP1 REVERT JUMPDEST POP PUSH2 0x1B4 PUSH2 0x665 JUMP JUMPDEST STOP JUMPDEST CALLVALUE DUP1 ISZERO PUSH2 0x1C2 JUMPI PUSH1 0x0 DUP1 REVERT JUMPDEST POP PUSH2 0x1CB PUSH2 0x71F JUMP JUMPDEST PUSH1 0x40 MLOAD PUSH2 0x1D8 SWAP2 SWAP1 PUSH2 0x9B6 JUMP JUMPDEST PUSH1 0x40 MLOAD DUP1 SWAP2 SUB SWAP1 RETURN JUMPDEST CALLVALUE DUP1 ISZERO PUSH2 0x1ED JUMPI PUSH1 0x0 DUP1 REVERT JUMPDEST POP PUSH2 0x1F6 PUSH2 0x743 JUMP JUMPDEST PUSH1 0x40 MLOAD PUSH2 0x203 SWAP2 SWAP1 PUSH2 0x9B6 JUMP JUMPDEST PUSH1 0x40 MLOAD DUP1 SWAP2 SUB SWAP1 RETURN JUMPDEST CALLVALUE DUP1 ISZERO PUSH2 0x218 JUMPI PUSH1 0x0 DUP1 REVERT JUMPDEST POP PUSH2 0x221 PUSH2 0x769 JUMP JUMPDEST PUSH1 0x40 MLOAD PUSH2 0x22E SWAP2 SWAP1 PUSH2 0xA6C JUMP JUMPDEST PUSH1 0x40 MLOAD DUP1 SWAP2 SUB SWAP1 RETURN JUMPDEST CALLVALUE DUP1 ISZERO PUSH2 0x243 JUMPI PUSH1 0x0 DUP1 REVERT JUMPDEST POP PUSH2 0x24C PUSH2 0x76F JUMP JUMPDEST PUSH1 0x40 MLOAD PUSH2 0x259 SWAP2 SWAP1 PUSH2 0xA6C JUMP JUMPDEST PUSH1 0x40 MLOAD DUP1 SWAP2 SUB SWAP1 RETURN JUMPDEST CALLVALUE DUP1 ISZERO PUSH2 0x26E JUMPI PUSH1 0x0 DUP1 REVERT JUMPDEST POP PUSH2 0x277 PUSH2 0x775 JUMP JUMPDEST STOP JUMPDEST PUSH1 0x2 SLOAD DUP2 JUMP JUMPDEST PUSH1 0x0 DUP1 SLOAD SWAP1 PUSH2 0x100 EXP SWAP1 DIV PUSH20 0xFFFFFFFFFFFFFFFFFFFFFFFFFFFFFFFFFFFFFFFF AND PUSH20 0xFFFFFFFFFFFFFFFFFFFFFFFFFFFFFFFFFFFFFFFF AND CALLER PUSH20 0xFFFFFFFFFFFFFFFFFFFFFFFFFFFFFFFFFFFFFFFF AND EQ ISZERO PUSH2 0x30E JUMPI PUSH1 0x40 MLOAD PUSH32 0x8C379A000000000000000000000000000000000000000000000000000000000 DUP2 MSTORE PUSH1 0x4 ADD PUSH2 0x305 SWAP1 PUSH2 0x9EC JUMP JUMPDEST PUSH1 0x40 MLOAD DUP1 SWAP2 SUB SWAP1 REVERT JUMPDEST PUSH1 0x1 SLOAD NUMBER GT PUSH2 0x352 JUMPI PUSH1 0x40 MLOAD PUSH32 0x8C379A000000000000000000000000000000000000000000000000000000000 DUP2 MSTORE PUSH1 0x4 ADD PUSH2 0x349 SWAP1 PUSH2 0xA0C JUMP JUMPDEST PUSH1 0x40 MLOAD DUP1 SWAP2 SUB SWAP1 REVERT JUMPDEST PUSH1 0x2 SLOAD NUMBER LT PUSH2 0x396 JUMPI PUSH1 0x40 MLOAD PUSH32 0x8C379A000000000000000000000000000000000000000000000000000000000 DUP2 MSTORE PUSH1 0x4 ADD PUSH2 0x38D SWAP1 PUSH2 0xA2C JUMP JUMPDEST PUSH1 0x40 MLOAD DUP1 SWAP2 SUB SWAP1 REVERT JUMPDEST PUSH1 0x1 PUSH1 0x3 DUP2 GT ISZERO PUSH2 0x3AA JUMPI PUSH2 0x3A9 PUSH2 0xB90 JUMP JUMPDEST JUMPDEST PUSH1 0x3 PUSH1 0x0 SWAP1 SLOAD SWAP1 PUSH2 0x100 EXP SWAP1 DIV PUSH1 0xFF AND PUSH1 0x3 DUP2 GT ISZERO PUSH2 0x3CC JUMPI PUSH2 0x3CB PUSH2 0xB90 JUMP JUMPDEST JUMPDEST EQ PUSH2 0x3D6 JUMPI PUSH1 0x0 DUP1 REVERT JUMPDEST PUSH8 0x1BC16D674EC80000 CALLVALUE GT PUSH2 0x3EA JUMPI PUSH1 0x0 DUP1 REVERT JUMPDEST PUSH1 0x0 PUSH1 0x6 SLOAD PUSH1 0x8 PUSH1 0x0 CALLER PUSH20 0xFFFFFFFFFFFFFFFFFFFFFFFFFFFFFFFFFFFFFFFF AND PUSH20 0xFFFFFFFFFFFFFFFFFFFFFFFFFFFFFFFFFFFFFFFF AND DUP2 MSTORE PUSH1 0x20 ADD SWAP1 DUP2 MSTORE PUSH1 0x20 ADD PUSH1 0x0 KECCAK256 SLOAD PUSH2 0x439 SWAP2 SWAP1 PUSH2 0xA98 JUMP JUMPDEST SWAP1 POP PUSH1 0x5 SLOAD DUP2 GT PUSH2 0x47F JUMPI PUSH1 0x40 MLOAD PUSH32 0x8C379A000000000000000000000000000000000000000000000000000000000 DUP2 MSTORE PUSH1 0x4 ADD PUSH2 0x476 SWAP1 PUSH2 0xA4C JUMP JUMPDEST PUSH1 0x40 MLOAD DUP1 SWAP2 SUB SWAP1 REVERT JUMPDEST PUSH1 0x8 PUSH1 0x0 PUSH1 0x7 PUSH1 0x0 SWAP1 SLOAD SWAP1 PUSH2 0x100 EXP SWAP1 DIV PUSH20 0xFFFFFFFFFFFFFFFFFFFFFFFFFFFFFFFFFFFFFFFF AND PUSH20 0xFFFFFFFFFFFFFFFFFFFFFFFFFFFFFFFFFFFFFFFF AND PUSH20 0xFFFFFFFFFFFFFFFFFFFFFFFFFFFFFFFFFFFFFFFF AND DUP2 MSTORE PUSH1 0x20 ADD SWAP1 DUP2 MSTORE PUSH1 0x20 ADD PUSH1 0x0 KECCAK256 SLOAD DUP2 LT ISZERO PUSH2 0x56B JUMPI PUSH2 0x560 PUSH1 0x6 SLOAD DUP3 PUSH2 0x4F9 SWAP2 SWAP1 PUSH2 0xA98 JUMP JUMPDEST PUSH1 0x8 PUSH1 0x0 PUSH1 0x7 PUSH1 0x0 SWAP1 SLOAD SWAP1 PUSH2 0x100 EXP SWAP1 DIV PUSH20 0xFFFFFFFFFFFFFFFFFFFFFFFFFFFFFFFFFFFFFFFF AND PUSH20 0xFFFFFFFFFFFFFFFFFFFFFFFFFFFFFFFFFFFFFFFF AND PUSH20 0xFFFFFFFFFFFFFFFFFFFFFFFFFFFFFFFFFFFFFFFF AND DUP2 MSTORE PUSH1 0x20 ADD SWAP1 DUP2 MSTORE PUSH1 0x20 ADD PUSH1 0x0 KECCAK256 SLOAD PUSH2 0x8A0 JUMP JUMPDEST PUSH1 0x5 DUP2 SWAP1 SSTORE POP PUSH2 0x62B JUMP JUMPDEST PUSH2 0x5E3 DUP2 PUSH1 0x6 SLOAD PUSH1 0x8 PUSH1 0x0 PUSH1 0x7 PUSH1 0x0 SWAP1 SLOAD SWAP1 PUSH2 0x100 EXP SWAP1 DIV PUSH20 0xFFFFFFFFFFFFFFFFFFFFFFFFFFFFFFFFFFFFFFFF AND PUSH20 0xFFFFFFFFFFFFFFFFFFFFFFFFFFFFFFFFFFFFFFFF AND PUSH20 0xFFFFFFFFFFFFFFFFFFFFFFFFFFFFFFFFFFFFFFFF AND DUP2 MSTORE PUSH1 0x20 ADD SWAP1 DUP2 MSTORE PUSH1 0x20 ADD PUSH1 0x0 KECCAK256 SLOAD PUSH2 0x5DE SWAP2 SWAP1 PUSH2 0xA98 JUMP JUMPDEST PUSH2 0x8A0 JUMP JUMPDEST PUSH1 0x5 DUP2 SWAP1 SSTORE POP CALLER PUSH1 0x7 PUSH1 0x0 PUSH2 0x100 EXP DUP2 SLOAD DUP2 PUSH20 0xFFFFFFFFFFFFFFFFFFFFFFFFFFFFFFFFFFFFFFFF MUL NOT AND SWAP1 DUP4 PUSH20 0xFFFFFFFFFFFFFFFFFFFFFFFFFFFFFFFFFFFFFFFF AND MUL OR SWAP1 SSTORE POP JUMPDEST POP JUMP JUMPDEST PUSH1 0x1 SLOAD DUP2 JUMP JUMPDEST PUSH1 0x8 PUSH1 0x20 MSTORE DUP1 PUSH1 0x0 MSTORE PUSH1 0x40 PUSH1 0x0 KECCAK256 PUSH1 0x0 SWAP2 POP SWAP1 POP SLOAD DUP2 JUMP JUMPDEST PUSH1 0x5 SLOAD DUP2 JUMP JUMPDEST PUSH1 0x3 PUSH1 0x0 SWAP1 SLOAD SWAP1 PUSH2 0x100 EXP SWAP1 DIV PUSH1 0xFF AND DUP2 JUMP JUMPDEST PUSH1 0x0 DUP1 SLOAD SWAP1 PUSH2 0x100 EXP SWAP1 DIV PUSH20 0xFFFFFFFFFFFFFFFFFFFFFFFFFFFFFFFFFFFFFFFF AND PUSH20 0xFFFFFFFFFFFFFFFFFFFFFFFFFFFFFFFFFFFFFFFF AND CALLER PUSH20 0xFFFFFFFFFFFFFFFFFFFFFFFFFFFFFFFFFFFFFFFF AND EQ PUSH2 0x6F3 JUMPI PUSH1 0x40 MLOAD PUSH32 0x8C379A000000000000000000000000000000000000000000000000000000000 DUP2 MSTORE PUSH1 0x4 ADD PUSH2 0x6EA SWAP1 PUSH2 0x9EC JUMP JUMPDEST PUSH1 0x40 MLOAD DUP1 SWAP2 SUB SWAP1 REVERT JUMPDEST PUSH1 0x3 DUP1 PUSH1 0x0 PUSH2 0x100 EXP DUP2 SLOAD DUP2 PUSH1 0xFF MUL NOT AND SWAP1 DUP4 PUSH1 0x3 DUP2 GT ISZERO PUSH2 0x718 JUMPI PUSH2 0x717 PUSH2 0xB90 JUMP JUMPDEST JUMPDEST MUL OR SWAP1 SSTORE POP JUMP JUMPDEST PUSH1 0x0 DUP1 SLOAD SWAP1 PUSH2 0x100 EXP SWAP1 DIV PUSH20 0xFFFFFFFFFFFFFFFFFFFFFFFFFFFFFFFFFFFFFFFF AND DUP2 JUMP JUMPDEST PUSH1 0x7 PUSH1 0x0 SWAP1 SLOAD SWAP1 PUSH2 0x100 EXP SWAP1 DIV PUSH20 0xFFFFFFFFFFFFFFFFFFFFFFFFFFFFFFFFFFFFFFFF AND DUP2 JUMP JUMPDEST PUSH1 0x4 SLOAD DUP2 JUMP JUMPDEST PUSH1 0x6 SLOAD DUP2 JUMP JUMPDEST PUSH1 0x3 DUP1 DUP2 GT ISZERO PUSH2 0x788 JUMPI PUSH2 0x787 PUSH2 0xB90 JUMP JUMPDEST JUMPDEST PUSH1 0x3 PUSH1 0x0 SWAP1 SLOAD SWAP1 PUSH2 0x100 EXP SWAP1 DIV PUSH1 0xFF AND PUSH1 0x3 DUP2 GT ISZERO PUSH2 0x7AA JUMPI PUSH2 0x7A9 PUSH2 0xB90 JUMP JUMPDEST JUMPDEST EQ DUP1 PUSH2 0x7B7 JUMPI POP PUSH1 0x2 SLOAD NUMBER GT JUMPDEST PUSH2 0x7C0 JUMPI PUSH1 0x0 DUP1 REVERT JUMPDEST PUSH1 0x0 DUP1 SLOAD SWAP1 PUSH2 0x100 EXP SWAP1 DIV PUSH20 0xFFFFFFFFFFFFFFFFFFFFFFFFFFFFFFFFFFFFFFFF AND PUSH20 0xFFFFFFFFFFFFFFFFFFFFFFFFFFFFFFFFFFFFFFFF AND CALLER PUSH20 0xFFFFFFFFFFFFFFFFFFFFFFFFFFFFFFFFFFFFFFFF AND EQ DUP1 PUSH2 0x859 JUMPI POP PUSH1 0x0 PUSH1 0x8 PUSH1 0x0 CALLER PUSH20 0xFFFFFFFFFFFFFFFFFFFFFFFFFFFFFFFFFFFFFFFF AND PUSH20 0xFFFFFFFFFFFFFFFFFFFFFFFFFFFFFFFFFFFFFFFF AND DUP2 MSTORE PUSH1 0x20 ADD SWAP1 DUP2 MSTORE PUSH1 0x20 ADD PUSH1 0x0 KECCAK256 SLOAD GT JUMPDEST PUSH2 0x862 JUMPI PUSH1 0x0 DUP1 REVERT JUMPDEST PUSH1 0x0 DUP1 PUSH1 0x3 DUP1 DUP2 GT ISZERO PUSH2 0x878 JUMPI PUSH2 0x877 PUSH2 0xB90 JUMP JUMPDEST JUMPDEST PUSH1 0x3 PUSH1 0x0 SWAP1 SLOAD SWAP1 PUSH2 0x100 EXP SWAP1 DIV PUSH1 0xFF AND PUSH1 0x3 DUP2 GT ISZERO PUSH2 0x89A JUMPI PUSH2 0x899 PUSH2 0xB90 JUMP JUMPDEST JUMPDEST POP POP POP POP JUMP JUMPDEST PUSH1 0x0 DUP2 DUP4 GT PUSH2 0x8B1 JUMPI DUP3 SWAP1 POP PUSH2 0x8B5 JUMP JUMPDEST DUP2 SWAP1 POP JUMPDEST SWAP3 SWAP2 POP POP JUMP JUMPDEST PUSH1 0x0 DUP2 CALLDATALOAD SWAP1 POP PUSH2 0x8CA DUP2 PUSH2 0xCA2 JUMP JUMPDEST SWAP3 SWAP2 POP POP JUMP JUMPDEST PUSH1 0x0 PUSH1 0x20 DUP3 DUP5 SUB SLT ISZERO PUSH2 0x8E6 JUMPI PUSH2 0x8E5 PUSH2 0xBBF JUMP JUMPDEST JUMPDEST PUSH1 0x0 PUSH2 0x8F4 DUP5 DUP3 DUP6 ADD PUSH2 0x8BB JUMP JUMPDEST SWAP2 POP POP SWAP3 SWAP2 POP POP JUMP JUMPDEST PUSH2 0x906 DUP2 PUSH2 0xB00 JUMP JUMPDEST DUP3 MSTORE POP POP JUMP JUMPDEST PUSH2 0x915 DUP2 PUSH2 0xB4F JUMP JUMPDEST DUP3 MSTORE POP POP JUMP JUMPDEST PUSH1 0x0 PUSH2 0x928 PUSH1 0x10 DUP4 PUSH2 0xA87 JUMP JUMPDEST SWAP2 POP PUSH2 0x933 DUP3 PUSH2 0xBC4 JUMP JUMPDEST PUSH1 0x20 DUP3 ADD SWAP1 POP SWAP2 SWAP1 POP JUMP JUMPDEST PUSH1 0x0 PUSH2 0x94B PUSH1 0x2C DUP4 PUSH2 0xA87 JUMP JUMPDEST SWAP2 POP PUSH2 0x956 DUP3 PUSH2 0xBED JUMP JUMPDEST PUSH1 0x40 DUP3 ADD SWAP1 POP SWAP2 SWAP1 POP JUMP JUMPDEST PUSH1 0x0 PUSH2 0x96E PUSH1 0x18 DUP4 PUSH2 0xA87 JUMP JUMPDEST SWAP2 POP PUSH2 0x979 DUP3 PUSH2 0xC3C JUMP JUMPDEST PUSH1 0x20 DUP3 ADD SWAP1 POP SWAP2 SWAP1 POP JUMP JUMPDEST PUSH1 0x0 PUSH2 0x991 PUSH1 0x1B DUP4 PUSH2 0xA87 JUMP JUMPDEST SWAP2 POP PUSH2 0x99C DUP3 PUSH2 0xC65 JUMP JUMPDEST PUSH1 0x20 DUP3 ADD SWAP1 POP SWAP2 SWAP1 POP JUMP JUMPDEST PUSH2 0x9B0 DUP2 PUSH2 0xB45 JUMP JUMPDEST DUP3 MSTORE POP POP JUMP JUMPDEST PUSH1 0x0 PUSH1 0x20 DUP3 ADD SWAP1 POP PUSH2 0x9CB PUSH1 0x0 DUP4 ADD DUP5 PUSH2 0x8FD JUMP JUMPDEST SWAP3 SWAP2 POP POP JUMP JUMPDEST PUSH1 0x0 PUSH1 0x20 DUP3 ADD SWAP1 POP PUSH2 0x9E6 PUSH1 0x0 DUP4 ADD DUP5 PUSH2 0x90C JUMP JUMPDEST SWAP3 SWAP2 POP POP JUMP JUMPDEST PUSH1 0x0 PUSH1 0x20 DUP3 ADD SWAP1 POP DUP2 DUP2 SUB PUSH1 0x0 DUP4 ADD MSTORE PUSH2 0xA05 DUP2 PUSH2 0x91B JUMP JUMPDEST SWAP1 POP SWAP2 SWAP1 POP JUMP JUMPDEST PUSH1 0x0 PUSH1 0x20 DUP3 ADD SWAP1 POP DUP2 DUP2 SUB PUSH1 0x0 DUP4 ADD MSTORE PUSH2 0xA25 DUP2 PUSH2 0x93E JUMP JUMPDEST SWAP1 POP SWAP2 SWAP1 POP JUMP JUMPDEST PUSH1 0x0 PUSH1 0x20 DUP3 ADD SWAP1 POP DUP2 DUP2 SUB PUSH1 0x0 DUP4 ADD MSTORE PUSH2 0xA45 DUP2 PUSH2 0x961 JUMP JUMPDEST SWAP1 POP SWAP2 SWAP1 POP JUMP JUMPDEST PUSH1 0x0 PUSH1 0x20 DUP3 ADD SWAP1 POP DUP2 DUP2 SUB PUSH1 0x0 DUP4 ADD MSTORE PUSH2 0xA65 DUP2 PUSH2 0x984 JUMP JUMPDEST SWAP1 POP SWAP2 SWAP1 POP JUMP JUMPDEST PUSH1 0x0 PUSH1 0x20 DUP3 ADD SWAP1 POP PUSH2 0xA81 PUSH1 0x0 DUP4 ADD DUP5 PUSH2 0x9A7 JUMP JUMPDEST SWAP3 SWAP2 POP POP JUMP JUMPDEST PUSH1 0x0 DUP3 DUP3 MSTORE PUSH1 0x20 DUP3 ADD SWAP1 POP SWAP3 SWAP2 POP POP JUMP JUMPDEST PUSH1 0x0 PUSH2 0xAA3 DUP3 PUSH2 0xB45 JUMP JUMPDEST SWAP2 POP PUSH2 0xAAE DUP4 PUSH2 0xB45 JUMP JUMPDEST SWAP3 POP DUP3 PUSH32 0xFFFFFFFFFFFFFFFFFFFFFFFFFFFFFFFFFFFFFFFFFFFFFFFFFFFFFFFFFFFFFFFF SUB DUP3 GT ISZERO PUSH2 0xAE3 JUMPI PUSH2 0xAE2 PUSH2 0xB61 JUMP JUMPDEST JUMPDEST DUP3 DUP3 ADD SWAP1 POP SWAP3 SWAP2 POP POP JUMP JUMPDEST PUSH1 0x0 PUSH2 0xAF9 DUP3 PUSH2 0xB25 JUMP JUMPDEST SWAP1 POP SWAP2 SWAP1 POP JUMP JUMPDEST PUSH1 0x0 PUSH2 0xB0B DUP3 PUSH2 0xB25 JUMP JUMPDEST SWAP1 POP SWAP2 SWAP1 POP JUMP JUMPDEST PUSH1 0x0 DUP2 SWAP1 POP PUSH2 0xB20 DUP3 PUSH2 0xC8E JUMP JUMPDEST SWAP2 SWAP1 POP JUMP JUMPDEST PUSH1 0x0 PUSH20 0xFFFFFFFFFFFFFFFFFFFFFFFFFFFFFFFFFFFFFFFF DUP3 AND SWAP1 POP SWAP2 SWAP1 POP JUMP JUMPDEST PUSH1 0x0 DUP2 SWAP1 POP SWAP2 SWAP1 POP JUMP JUMPDEST PUSH1 0x0 PUSH2 0xB5A DUP3 PUSH2 0xB12 JUMP JUMPDEST SWAP1 POP SWAP2 SWAP1 POP JUMP JUMPDEST PUSH32 0x4E487B7100000000000000000000000000000000000000000000000000000000 PUSH1 0x0 MSTORE PUSH1 0x11 PUSH1 0x4 MSTORE PUSH1 0x24 PUSH1 0x0 REVERT JUMPDEST PUSH32 0x4E487B7100000000000000000000000000000000000000000000000000000000 PUSH1 0x0 MSTORE PUSH1 0x21 PUSH1 0x4 MSTORE PUSH1 0x24 PUSH1 0x0 REVERT JUMPDEST PUSH1 0x0 DUP1 REVERT JUMPDEST PUSH32 0x4F776E65722043616E6E6F742062696400000000000000000000000000000000 PUSH1 0x0 DUP3 ADD MSTORE POP JUMP JUMPDEST PUSH32 0x537461727420426C6F636B206D7573742062652067726561746572207468616E PUSH1 0x0 DUP3 ADD MSTORE PUSH32 0x20746F74616C20626C6F636B0000000000000000000000000000000000000000 PUSH1 0x20 DUP3 ADD MSTORE POP JUMP JUMPDEST PUSH32 0x41756374696F6E206973206E6F7420456E646564207965740000000000000000 PUSH1 0x0 DUP3 ADD MSTORE POP JUMP JUMPDEST PUSH32 0x496E63726561736520596F7520204269642056616C75207468616E0000000000 PUSH1 0x0 DUP3 ADD MSTORE POP JUMP JUMPDEST PUSH1 0x4 DUP2 LT PUSH2 0xC9F JUMPI PUSH2 0xC9E PUSH2 0xB90 JUMP JUMPDEST JUMPDEST POP JUMP JUMPDEST PUSH2 0xCAB DUP2 PUSH2 0xAEE JUMP JUMPDEST DUP2 EQ PUSH2 0xCB6 JUMPI PUSH1 0x0 DUP1 REVERT JUMPDEST POP JUMP INVALID LOG2 PUSH5 0x6970667358 0x22 SLT KECCAK256 DUP8 SWAP4 CALLDATALOAD 0xD6 0xAA DUP16 SELFDESTRUCT PUSH5 0x97AA132DE9 0x2E LOG0 EQ 0x2F CALLCODE STOP PUSH24 0xC54327EC9B5D0919E3E6EB1564736F6C6343000807003300 "
				},
				"gasEstimates": {
					"creation": {
						"codeDepositCost": "662200",
						"executionCost": "infinite",
						"totalCost": "infinite"
					},
					"external": {
						"auctionState()": "2671",
						"autioneer()": "2533",
						"bid()": "infinite",
						"bid_inc()": "2517",
						"bids(address)": "2881",
						"cancelAuction()": "26598",
						"endBlock()": "2430",
						"finalizeAuction()": "11205",
						"highest_bid()": "2495",
						"highest_bidder()": "2558",
						"highest_payable_bid()": "2518",
						"startBlock()": "2474"
					},
					"internal": {
						"min(uint256,uint256)": "64"
					}
				},
				"methodIdentifiers": {
					"auctionState()": "7fb45099",
					"autioneer()": "b035bf60",
					"bid()": "1998aeef",
					"bid_inc()": "f3ef35f8",
					"bids(address)": "62ea82db",
					"cancelAuction()": "8fa8b790",
					"endBlock()": "083c6323",
					"finalizeAuction()": "f77282ab",
					"highest_bid()": "e5c60091",
					"highest_bidder()": "bd9215f4",
					"highest_payable_bid()": "7eb695a1",
					"startBlock()": "48cd4cb1"
				}
			},
			"storageLayout": {
				"storage": [
					{
						"astId": 3,
						"contract": "smartAuction.sol:smartAuction",
						"label": "autioneer",
						"offset": 0,
						"slot": "0",
						"type": "t_address_payable"
					},
					{
						"astId": 5,
						"contract": "smartAuction.sol:smartAuction",
						"label": "startBlock",
						"offset": 0,
						"slot": "1",
						"type": "t_uint256"
					},
					{
						"astId": 7,
						"contract": "smartAuction.sol:smartAuction",
						"label": "endBlock",
						"offset": 0,
						"slot": "2",
						"type": "t_uint256"
					},
					{
						"astId": 15,
						"contract": "smartAuction.sol:smartAuction",
						"label": "auctionState",
						"offset": 0,
						"slot": "3",
						"type": "t_enum(Auction_state)12"
					},
					{
						"astId": 17,
						"contract": "smartAuction.sol:smartAuction",
						"label": "highest_bid",
						"offset": 0,
						"slot": "4",
						"type": "t_uint256"
					},
					{
						"astId": 19,
						"contract": "smartAuction.sol:smartAuction",
						"label": "highest_payable_bid",
						"offset": 0,
						"slot": "5",
						"type": "t_uint256"
					},
					{
						"astId": 21,
						"contract": "smartAuction.sol:smartAuction",
						"label": "bid_inc",
						"offset": 0,
						"slot": "6",
						"type": "t_uint256"
					},
					{
						"astId": 23,
						"contract": "smartAuction.sol:smartAuction",
						"label": "highest_bidder",
						"offset": 0,
						"slot": "7",
						"type": "t_address_payable"
					},
					{
						"astId": 27,
						"contract": "smartAuction.sol:smartAuction",
						"label": "bids",
						"offset": 0,
						"slot": "8",
						"type": "t_mapping(t_address,t_uint256)"
					}
				],
				"types": {
					"t_address": {
						"encoding": "inplace",
						"label": "address",
						"numberOfBytes": "20"
					},
					"t_address_payable": {
						"encoding": "inplace",
						"label": "address payable",
						"numberOfBytes": "20"
					},
					"t_enum(Auction_state)12": {
						"encoding": "inplace",
						"label": "enum smartAuction.Auction_state",
						"numberOfBytes": "1"
					},
					"t_mapping(t_address,t_uint256)": {
						"encoding": "mapping",
						"key": "t_address",
						"label": "mapping(address => uint256)",
						"numberOfBytes": "32",
						"value": "t_uint256"
					},
					"t_uint256": {
						"encoding": "inplace",
						"label": "uint256",
						"numberOfBytes": "32"
					}
				}
			},
			"userdoc": {
				"kind": "user",
				"methods": {},
				"version": 1
			}
		}
	}
}