{
	"localvariable.sol": {
		"localvariable": {
			"abi": [
				{
					"inputs": [],
					"stateMutability": "nonpayable",
					"type": "constructor"
				},
				{
					"inputs": [],
					"name": "add",
					"outputs": [
						{
							"internalType": "address",
							"name": "",
							"type": "address"
						}
					],
					"stateMutability": "view",
					"type": "function"
				},
				{
					"inputs": [],
					"name": "boolvar",
					"outputs": [
						{
							"internalType": "bool",
							"name": "",
							"type": "bool"
						}
					],
					"stateMutability": "view",
					"type": "function"
				},
				{
					"inputs": [
						{
							"internalType": "uint256",
							"name": "_x",
							"type": "uint256"
						},
						{
							"internalType": "bool",
							"name": "_y",
							"type": "bool"
						},
						{
							"internalType": "address",
							"name": "_z",
							"type": "address"
						}
					],
					"name": "locvariable",
					"outputs": [
						{
							"internalType": "uint256",
							"name": "",
							"type": "uint256"
						},
						{
							"internalType": "bool",
							"name": "",
							"type": "bool"
						},
						{
							"internalType": "address",
							"name": "",
							"type": "address"
						}
					],
					"stateMutability": "nonpayable",
					"type": "function"
				},
				{
					"inputs": [],
					"name": "statevarable",
					"outputs": [
						{
							"internalType": "uint256",
							"name": "",
							"type": "uint256"
						}
					],
					"stateMutability": "view",
					"type": "function"
				}
			],
			"devdoc": {
				"kind": "dev",
				"methods": {},
				"version": 1
			},
			"evm": {
				"assembly": "    /* \"localvariable.sol\":63:506  contract localvariable{... */\n  mstore(0x40, 0x80)\n    /* \"localvariable.sol\":144:149  false */\n  0x00\n    /* \"localvariable.sol\":122:149  bool public boolvar = false */\n  0x01\n  exp(0x0100, 0x00)\n  dup2\n  sload\n  dup2\n  0xff\n  mul\n  not\n  and\n  swap1\n  dup4\n  iszero\n  iszero\n  mul\n  or\n  swap1\n  sstore\n  pop\n    /* \"localvariable.sol\":181:229  constructor(){... */\n  callvalue\n  dup1\n  iszero\n  tag_1\n  jumpi\n  0x00\n  dup1\n  revert\ntag_1:\n  pop\n    /* \"localvariable.sol\":219:222  100 */\n  0x64\n    /* \"localvariable.sol\":204:216  statevarable */\n  0x00\n    /* \"localvariable.sol\":204:222  statevarable = 100 */\n  dup2\n  swap1\n  sstore\n  pop\n    /* \"localvariable.sol\":63:506  contract localvariable{... */\n  dataSize(sub_0)\n  dup1\n  dataOffset(sub_0)\n  0x00\n  codecopy\n  0x00\n  return\nstop\n\nsub_0: assembly {\n        /* \"localvariable.sol\":63:506  contract localvariable{... */\n      mstore(0x40, 0x80)\n      callvalue\n      dup1\n      iszero\n      tag_1\n      jumpi\n      0x00\n      dup1\n      revert\n    tag_1:\n      pop\n      jumpi(tag_2, lt(calldatasize, 0x04))\n      shr(0xe0, calldataload(0x00))\n      dup1\n      0x1abd155f\n      eq\n      tag_3\n      jumpi\n      dup1\n      0x4f2be91f\n      eq\n      tag_4\n      jumpi\n      dup1\n      0x8a3b12ae\n      eq\n      tag_5\n      jumpi\n      dup1\n      0xb75f17c5\n      eq\n      tag_6\n      jumpi\n    tag_2:\n      0x00\n      dup1\n      revert\n        /* \"localvariable.sol\":239:502  function locvariable(uint _x, bool _y, address _z) public returns(uint, bool, address) {... */\n    tag_3:\n      tag_7\n      0x04\n      dup1\n      calldatasize\n      sub\n      dup2\n      add\n      swap1\n      tag_8\n      swap2\n      swap1\n      tag_9\n      jump\t// in\n    tag_8:\n      tag_10\n      jump\t// in\n    tag_7:\n      mload(0x40)\n      tag_11\n      swap4\n      swap3\n      swap2\n      swap1\n      tag_12\n      jump\t// in\n    tag_11:\n      mload(0x40)\n      dup1\n      swap2\n      sub\n      swap1\n      return\n        /* \"localvariable.sol\":155:173  address public add */\n    tag_4:\n      tag_13\n      tag_14\n      jump\t// in\n    tag_13:\n      mload(0x40)\n      tag_15\n      swap2\n      swap1\n      tag_16\n      jump\t// in\n    tag_15:\n      mload(0x40)\n      dup1\n      swap2\n      sub\n      swap1\n      return\n        /* \"localvariable.sol\":92:116  uint public statevarable */\n    tag_5:\n      tag_17\n      tag_18\n      jump\t// in\n    tag_17:\n      mload(0x40)\n      tag_19\n      swap2\n      swap1\n      tag_20\n      jump\t// in\n    tag_19:\n      mload(0x40)\n      dup1\n      swap2\n      sub\n      swap1\n      return\n        /* \"localvariable.sol\":122:149  bool public boolvar = false */\n    tag_6:\n      tag_21\n      tag_22\n      jump\t// in\n    tag_21:\n      mload(0x40)\n      tag_23\n      swap2\n      swap1\n      tag_24\n      jump\t// in\n    tag_23:\n      mload(0x40)\n      dup1\n      swap2\n      sub\n      swap1\n      return\n        /* \"localvariable.sol\":239:502  function locvariable(uint _x, bool _y, address _z) public returns(uint, bool, address) {... */\n    tag_10:\n        /* \"localvariable.sol\":305:309  uint */\n      0x00\n        /* \"localvariable.sol\":311:315  bool */\n      dup1\n        /* \"localvariable.sol\":317:324  address */\n      0x00\n        /* \"localvariable.sol\":337:343  uint a */\n      dup1\n        /* \"localvariable.sol\":351:353  _x */\n      dup7\n        /* \"localvariable.sol\":346:348  22 */\n      0x16\n        /* \"localvariable.sol\":346:353  22 + _x */\n      tag_26\n      swap2\n      swap1\n      tag_27\n      jump\t// in\n    tag_26:\n        /* \"localvariable.sol\":337:353  uint a = 22 + _x */\n      swap1\n      pop\n        /* \"localvariable.sol\":363:372  bool var1 */\n      0x00\n        /* \"localvariable.sol\":375:379  true */\n      0x01\n        /* \"localvariable.sol\":363:379  bool var1 = true */\n      swap1\n      pop\n        /* \"localvariable.sol\":389:409  address accesaddress */\n      0x00\n        /* \"localvariable.sol\":430:432  _y */\n      dup8\n        /* \"localvariable.sol\":420:427  boolvar */\n      0x01\n      0x00\n        /* \"localvariable.sol\":420:432  boolvar = _y */\n      0x0100\n      exp\n      dup2\n      sload\n      dup2\n      0xff\n      mul\n      not\n      and\n      swap1\n      dup4\n      iszero\n      iszero\n      mul\n      or\n      swap1\n      sstore\n      pop\n        /* \"localvariable.sol\":442:451  address z */\n      0x00\n        /* \"localvariable.sol\":454:456  _z */\n      dup8\n        /* \"localvariable.sol\":442:456  address z = _z */\n      swap1\n      pop\n        /* \"localvariable.sol\":473:474  a */\n      dup4\n        /* \"localvariable.sol\":476:480  var1 */\n      dup4\n        /* \"localvariable.sol\":482:494  accesaddress */\n      dup4\n        /* \"localvariable.sol\":466:495  return(a, var1, accesaddress) */\n      swap7\n      pop\n      swap7\n      pop\n      swap7\n      pop\n      pop\n      pop\n      pop\n      pop\n        /* \"localvariable.sol\":239:502  function locvariable(uint _x, bool _y, address _z) public returns(uint, bool, address) {... */\n      swap4\n      pop\n      swap4\n      pop\n      swap4\n      swap1\n      pop\n      jump\t// out\n        /* \"localvariable.sol\":155:173  address public add */\n    tag_14:\n      0x01\n      dup1\n      sload\n      swap1\n      0x0100\n      exp\n      swap1\n      div\n      0xffffffffffffffffffffffffffffffffffffffff\n      and\n      dup2\n      jump\t// out\n        /* \"localvariable.sol\":92:116  uint public statevarable */\n    tag_18:\n      sload(0x00)\n      dup2\n      jump\t// out\n        /* \"localvariable.sol\":122:149  bool public boolvar = false */\n    tag_22:\n      0x01\n      0x00\n      swap1\n      sload\n      swap1\n      0x0100\n      exp\n      swap1\n      div\n      0xff\n      and\n      dup2\n      jump\t// out\n        /* \"#utility.yul\":7:146   */\n    tag_29:\n        /* \"#utility.yul\":53:58   */\n      0x00\n        /* \"#utility.yul\":91:97   */\n      dup2\n        /* \"#utility.yul\":78:98   */\n      calldataload\n        /* \"#utility.yul\":69:98   */\n      swap1\n      pop\n        /* \"#utility.yul\":107:140   */\n      tag_31\n        /* \"#utility.yul\":134:139   */\n      dup2\n        /* \"#utility.yul\":107:140   */\n      tag_32\n      jump\t// in\n    tag_31:\n        /* \"#utility.yul\":7:146   */\n      swap3\n      swap2\n      pop\n      pop\n      jump\t// out\n        /* \"#utility.yul\":152:285   */\n    tag_33:\n        /* \"#utility.yul\":195:200   */\n      0x00\n        /* \"#utility.yul\":233:239   */\n      dup2\n        /* \"#utility.yul\":220:240   */\n      calldataload\n        /* \"#utility.yul\":211:240   */\n      swap1\n      pop\n        /* \"#utility.yul\":249:279   */\n      tag_35\n        /* \"#utility.yul\":273:278   */\n      dup2\n        /* \"#utility.yul\":249:279   */\n      tag_36\n      jump\t// in\n    tag_35:\n        /* \"#utility.yul\":152:285   */\n      swap3\n      swap2\n      pop\n      pop\n      jump\t// out\n        /* \"#utility.yul\":291:430   */\n    tag_37:\n        /* \"#utility.yul\":337:342   */\n      0x00\n        /* \"#utility.yul\":375:381   */\n      dup2\n        /* \"#utility.yul\":362:382   */\n      calldataload\n        /* \"#utility.yul\":353:382   */\n      swap1\n      pop\n        /* \"#utility.yul\":391:424   */\n      tag_39\n        /* \"#utility.yul\":418:423   */\n      dup2\n        /* \"#utility.yul\":391:424   */\n      tag_40\n      jump\t// in\n    tag_39:\n        /* \"#utility.yul\":291:430   */\n      swap3\n      swap2\n      pop\n      pop\n      jump\t// out\n        /* \"#utility.yul\":436:1049   */\n    tag_9:\n        /* \"#utility.yul\":510:516   */\n      0x00\n        /* \"#utility.yul\":518:524   */\n      dup1\n        /* \"#utility.yul\":526:532   */\n      0x00\n        /* \"#utility.yul\":575:577   */\n      0x60\n        /* \"#utility.yul\":563:572   */\n      dup5\n        /* \"#utility.yul\":554:561   */\n      dup7\n        /* \"#utility.yul\":550:573   */\n      sub\n        /* \"#utility.yul\":546:578   */\n      slt\n        /* \"#utility.yul\":543:662   */\n      iszero\n      tag_42\n      jumpi\n        /* \"#utility.yul\":581:660   */\n      tag_43\n      tag_44\n      jump\t// in\n    tag_43:\n        /* \"#utility.yul\":543:662   */\n    tag_42:\n        /* \"#utility.yul\":701:702   */\n      0x00\n        /* \"#utility.yul\":726:779   */\n      tag_45\n        /* \"#utility.yul\":771:778   */\n      dup7\n        /* \"#utility.yul\":762:768   */\n      dup3\n        /* \"#utility.yul\":751:760   */\n      dup8\n        /* \"#utility.yul\":747:769   */\n      add\n        /* \"#utility.yul\":726:779   */\n      tag_37\n      jump\t// in\n    tag_45:\n        /* \"#utility.yul\":716:779   */\n      swap4\n      pop\n        /* \"#utility.yul\":672:789   */\n      pop\n        /* \"#utility.yul\":828:830   */\n      0x20\n        /* \"#utility.yul\":854:904   */\n      tag_46\n        /* \"#utility.yul\":896:903   */\n      dup7\n        /* \"#utility.yul\":887:893   */\n      dup3\n        /* \"#utility.yul\":876:885   */\n      dup8\n        /* \"#utility.yul\":872:894   */\n      add\n        /* \"#utility.yul\":854:904   */\n      tag_33\n      jump\t// in\n    tag_46:\n        /* \"#utility.yul\":844:904   */\n      swap3\n      pop\n        /* \"#utility.yul\":799:914   */\n      pop\n        /* \"#utility.yul\":953:955   */\n      0x40\n        /* \"#utility.yul\":979:1032   */\n      tag_47\n        /* \"#utility.yul\":1024:1031   */\n      dup7\n        /* \"#utility.yul\":1015:1021   */\n      dup3\n        /* \"#utility.yul\":1004:1013   */\n      dup8\n        /* \"#utility.yul\":1000:1022   */\n      add\n        /* \"#utility.yul\":979:1032   */\n      tag_29\n      jump\t// in\n    tag_47:\n        /* \"#utility.yul\":969:1032   */\n      swap2\n      pop\n        /* \"#utility.yul\":924:1042   */\n      pop\n        /* \"#utility.yul\":436:1049   */\n      swap3\n      pop\n      swap3\n      pop\n      swap3\n      jump\t// out\n        /* \"#utility.yul\":1055:1173   */\n    tag_48:\n        /* \"#utility.yul\":1142:1166   */\n      tag_50\n        /* \"#utility.yul\":1160:1165   */\n      dup2\n        /* \"#utility.yul\":1142:1166   */\n      tag_51\n      jump\t// in\n    tag_50:\n        /* \"#utility.yul\":1137:1140   */\n      dup3\n        /* \"#utility.yul\":1130:1167   */\n      mstore\n        /* \"#utility.yul\":1055:1173   */\n      pop\n      pop\n      jump\t// out\n        /* \"#utility.yul\":1179:1288   */\n    tag_52:\n        /* \"#utility.yul\":1260:1281   */\n      tag_54\n        /* \"#utility.yul\":1275:1280   */\n      dup2\n        /* \"#utility.yul\":1260:1281   */\n      tag_55\n      jump\t// in\n    tag_54:\n        /* \"#utility.yul\":1255:1258   */\n      dup3\n        /* \"#utility.yul\":1248:1282   */\n      mstore\n        /* \"#utility.yul\":1179:1288   */\n      pop\n      pop\n      jump\t// out\n        /* \"#utility.yul\":1294:1412   */\n    tag_56:\n        /* \"#utility.yul\":1381:1405   */\n      tag_58\n        /* \"#utility.yul\":1399:1404   */\n      dup2\n        /* \"#utility.yul\":1381:1405   */\n      tag_59\n      jump\t// in\n    tag_58:\n        /* \"#utility.yul\":1376:1379   */\n      dup3\n        /* \"#utility.yul\":1369:1406   */\n      mstore\n        /* \"#utility.yul\":1294:1412   */\n      pop\n      pop\n      jump\t// out\n        /* \"#utility.yul\":1418:1640   */\n    tag_16:\n        /* \"#utility.yul\":1511:1515   */\n      0x00\n        /* \"#utility.yul\":1549:1551   */\n      0x20\n        /* \"#utility.yul\":1538:1547   */\n      dup3\n        /* \"#utility.yul\":1534:1552   */\n      add\n        /* \"#utility.yul\":1526:1552   */\n      swap1\n      pop\n        /* \"#utility.yul\":1562:1633   */\n      tag_61\n        /* \"#utility.yul\":1630:1631   */\n      0x00\n        /* \"#utility.yul\":1619:1628   */\n      dup4\n        /* \"#utility.yul\":1615:1632   */\n      add\n        /* \"#utility.yul\":1606:1612   */\n      dup5\n        /* \"#utility.yul\":1562:1633   */\n      tag_48\n      jump\t// in\n    tag_61:\n        /* \"#utility.yul\":1418:1640   */\n      swap3\n      swap2\n      pop\n      pop\n      jump\t// out\n        /* \"#utility.yul\":1646:1856   */\n    tag_24:\n        /* \"#utility.yul\":1733:1737   */\n      0x00\n        /* \"#utility.yul\":1771:1773   */\n      0x20\n        /* \"#utility.yul\":1760:1769   */\n      dup3\n        /* \"#utility.yul\":1756:1774   */\n      add\n        /* \"#utility.yul\":1748:1774   */\n      swap1\n      pop\n        /* \"#utility.yul\":1784:1849   */\n      tag_63\n        /* \"#utility.yul\":1846:1847   */\n      0x00\n        /* \"#utility.yul\":1835:1844   */\n      dup4\n        /* \"#utility.yul\":1831:1848   */\n      add\n        /* \"#utility.yul\":1822:1828   */\n      dup5\n        /* \"#utility.yul\":1784:1849   */\n      tag_52\n      jump\t// in\n    tag_63:\n        /* \"#utility.yul\":1646:1856   */\n      swap3\n      swap2\n      pop\n      pop\n      jump\t// out\n        /* \"#utility.yul\":1862:2084   */\n    tag_20:\n        /* \"#utility.yul\":1955:1959   */\n      0x00\n        /* \"#utility.yul\":1993:1995   */\n      0x20\n        /* \"#utility.yul\":1982:1991   */\n      dup3\n        /* \"#utility.yul\":1978:1996   */\n      add\n        /* \"#utility.yul\":1970:1996   */\n      swap1\n      pop\n        /* \"#utility.yul\":2006:2077   */\n      tag_65\n        /* \"#utility.yul\":2074:2075   */\n      0x00\n        /* \"#utility.yul\":2063:2072   */\n      dup4\n        /* \"#utility.yul\":2059:2076   */\n      add\n        /* \"#utility.yul\":2050:2056   */\n      dup5\n        /* \"#utility.yul\":2006:2077   */\n      tag_56\n      jump\t// in\n    tag_65:\n        /* \"#utility.yul\":1862:2084   */\n      swap3\n      swap2\n      pop\n      pop\n      jump\t// out\n        /* \"#utility.yul\":2090:2520   */\n    tag_12:\n        /* \"#utility.yul\":2233:2237   */\n      0x00\n        /* \"#utility.yul\":2271:2273   */\n      0x60\n        /* \"#utility.yul\":2260:2269   */\n      dup3\n        /* \"#utility.yul\":2256:2274   */\n      add\n        /* \"#utility.yul\":2248:2274   */\n      swap1\n      pop\n        /* \"#utility.yul\":2284:2355   */\n      tag_67\n        /* \"#utility.yul\":2352:2353   */\n      0x00\n        /* \"#utility.yul\":2341:2350   */\n      dup4\n        /* \"#utility.yul\":2337:2354   */\n      add\n        /* \"#utility.yul\":2328:2334   */\n      dup7\n        /* \"#utility.yul\":2284:2355   */\n      tag_56\n      jump\t// in\n    tag_67:\n        /* \"#utility.yul\":2365:2431   */\n      tag_68\n        /* \"#utility.yul\":2427:2429   */\n      0x20\n        /* \"#utility.yul\":2416:2425   */\n      dup4\n        /* \"#utility.yul\":2412:2430   */\n      add\n        /* \"#utility.yul\":2403:2409   */\n      dup6\n        /* \"#utility.yul\":2365:2431   */\n      tag_52\n      jump\t// in\n    tag_68:\n        /* \"#utility.yul\":2441:2513   */\n      tag_69\n        /* \"#utility.yul\":2509:2511   */\n      0x40\n        /* \"#utility.yul\":2498:2507   */\n      dup4\n        /* \"#utility.yul\":2494:2512   */\n      add\n        /* \"#utility.yul\":2485:2491   */\n      dup5\n        /* \"#utility.yul\":2441:2513   */\n      tag_48\n      jump\t// in\n    tag_69:\n        /* \"#utility.yul\":2090:2520   */\n      swap5\n      swap4\n      pop\n      pop\n      pop\n      pop\n      jump\t// out\n        /* \"#utility.yul\":2607:2912   */\n    tag_27:\n        /* \"#utility.yul\":2647:2650   */\n      0x00\n        /* \"#utility.yul\":2666:2686   */\n      tag_73\n        /* \"#utility.yul\":2684:2685   */\n      dup3\n        /* \"#utility.yul\":2666:2686   */\n      tag_59\n      jump\t// in\n    tag_73:\n        /* \"#utility.yul\":2661:2686   */\n      swap2\n      pop\n        /* \"#utility.yul\":2700:2720   */\n      tag_74\n        /* \"#utility.yul\":2718:2719   */\n      dup4\n        /* \"#utility.yul\":2700:2720   */\n      tag_59\n      jump\t// in\n    tag_74:\n        /* \"#utility.yul\":2695:2720   */\n      swap3\n      pop\n        /* \"#utility.yul\":2854:2855   */\n      dup3\n        /* \"#utility.yul\":2786:2852   */\n      0xffffffffffffffffffffffffffffffffffffffffffffffffffffffffffffffff\n        /* \"#utility.yul\":2782:2856   */\n      sub\n        /* \"#utility.yul\":2779:2780   */\n      dup3\n        /* \"#utility.yul\":2776:2857   */\n      gt\n        /* \"#utility.yul\":2773:2880   */\n      iszero\n      tag_75\n      jumpi\n        /* \"#utility.yul\":2860:2878   */\n      tag_76\n      tag_77\n      jump\t// in\n    tag_76:\n        /* \"#utility.yul\":2773:2880   */\n    tag_75:\n        /* \"#utility.yul\":2904:2905   */\n      dup3\n        /* \"#utility.yul\":2901:2902   */\n      dup3\n        /* \"#utility.yul\":2897:2906   */\n      add\n        /* \"#utility.yul\":2890:2906   */\n      swap1\n      pop\n        /* \"#utility.yul\":2607:2912   */\n      swap3\n      swap2\n      pop\n      pop\n      jump\t// out\n        /* \"#utility.yul\":2918:3014   */\n    tag_51:\n        /* \"#utility.yul\":2955:2962   */\n      0x00\n        /* \"#utility.yul\":2984:3008   */\n      tag_79\n        /* \"#utility.yul\":3002:3007   */\n      dup3\n        /* \"#utility.yul\":2984:3008   */\n      tag_80\n      jump\t// in\n    tag_79:\n        /* \"#utility.yul\":2973:3008   */\n      swap1\n      pop\n        /* \"#utility.yul\":2918:3014   */\n      swap2\n      swap1\n      pop\n      jump\t// out\n        /* \"#utility.yul\":3020:3110   */\n    tag_55:\n        /* \"#utility.yul\":3054:3061   */\n      0x00\n        /* \"#utility.yul\":3097:3102   */\n      dup2\n        /* \"#utility.yul\":3090:3103   */\n      iszero\n        /* \"#utility.yul\":3083:3104   */\n      iszero\n        /* \"#utility.yul\":3072:3104   */\n      swap1\n      pop\n        /* \"#utility.yul\":3020:3110   */\n      swap2\n      swap1\n      pop\n      jump\t// out\n        /* \"#utility.yul\":3116:3242   */\n    tag_80:\n        /* \"#utility.yul\":3153:3160   */\n      0x00\n        /* \"#utility.yul\":3193:3235   */\n      0xffffffffffffffffffffffffffffffffffffffff\n        /* \"#utility.yul\":3186:3191   */\n      dup3\n        /* \"#utility.yul\":3182:3236   */\n      and\n        /* \"#utility.yul\":3171:3236   */\n      swap1\n      pop\n        /* \"#utility.yul\":3116:3242   */\n      swap2\n      swap1\n      pop\n      jump\t// out\n        /* \"#utility.yul\":3248:3325   */\n    tag_59:\n        /* \"#utility.yul\":3285:3292   */\n      0x00\n        /* \"#utility.yul\":3314:3319   */\n      dup2\n        /* \"#utility.yul\":3303:3319   */\n      swap1\n      pop\n        /* \"#utility.yul\":3248:3325   */\n      swap2\n      swap1\n      pop\n      jump\t// out\n        /* \"#utility.yul\":3331:3511   */\n    tag_77:\n        /* \"#utility.yul\":3379:3456   */\n      0x4e487b7100000000000000000000000000000000000000000000000000000000\n        /* \"#utility.yul\":3376:3377   */\n      0x00\n        /* \"#utility.yul\":3369:3457   */\n      mstore\n        /* \"#utility.yul\":3476:3480   */\n      0x11\n        /* \"#utility.yul\":3473:3474   */\n      0x04\n        /* \"#utility.yul\":3466:3481   */\n      mstore\n        /* \"#utility.yul\":3500:3504   */\n      0x24\n        /* \"#utility.yul\":3497:3498   */\n      0x00\n        /* \"#utility.yul\":3490:3505   */\n      revert\n        /* \"#utility.yul\":3640:3757   */\n    tag_44:\n        /* \"#utility.yul\":3749:3750   */\n      0x00\n        /* \"#utility.yul\":3746:3747   */\n      dup1\n        /* \"#utility.yul\":3739:3751   */\n      revert\n        /* \"#utility.yul\":3763:3885   */\n    tag_32:\n        /* \"#utility.yul\":3836:3860   */\n      tag_89\n        /* \"#utility.yul\":3854:3859   */\n      dup2\n        /* \"#utility.yul\":3836:3860   */\n      tag_51\n      jump\t// in\n    tag_89:\n        /* \"#utility.yul\":3829:3834   */\n      dup2\n        /* \"#utility.yul\":3826:3861   */\n      eq\n        /* \"#utility.yul\":3816:3879   */\n      tag_90\n      jumpi\n        /* \"#utility.yul\":3875:3876   */\n      0x00\n        /* \"#utility.yul\":3872:3873   */\n      dup1\n        /* \"#utility.yul\":3865:3877   */\n      revert\n        /* \"#utility.yul\":3816:3879   */\n    tag_90:\n        /* \"#utility.yul\":3763:3885   */\n      pop\n      jump\t// out\n        /* \"#utility.yul\":3891:4007   */\n    tag_36:\n        /* \"#utility.yul\":3961:3982   */\n      tag_92\n        /* \"#utility.yul\":3976:3981   */\n      dup2\n        /* \"#utility.yul\":3961:3982   */\n      tag_55\n      jump\t// in\n    tag_92:\n        /* \"#utility.yul\":3954:3959   */\n      dup2\n        /* \"#utility.yul\":3951:3983   */\n      eq\n        /* \"#utility.yul\":3941:4001   */\n      tag_93\n      jumpi\n        /* \"#utility.yul\":3997:3998   */\n      0x00\n        /* \"#utility.yul\":3994:3995   */\n      dup1\n        /* \"#utility.yul\":3987:3999   */\n      revert\n        /* \"#utility.yul\":3941:4001   */\n    tag_93:\n        /* \"#utility.yul\":3891:4007   */\n      pop\n      jump\t// out\n        /* \"#utility.yul\":4013:4135   */\n    tag_40:\n        /* \"#utility.yul\":4086:4110   */\n      tag_95\n        /* \"#utility.yul\":4104:4109   */\n      dup2\n        /* \"#utility.yul\":4086:4110   */\n      tag_59\n      jump\t// in\n    tag_95:\n        /* \"#utility.yul\":4079:4084   */\n      dup2\n        /* \"#utility.yul\":4076:4111   */\n      eq\n        /* \"#utility.yul\":4066:4129   */\n      tag_96\n      jumpi\n        /* \"#utility.yul\":4125:4126   */\n      0x00\n        /* \"#utility.yul\":4122:4123   */\n      dup1\n        /* \"#utility.yul\":4115:4127   */\n      revert\n        /* \"#utility.yul\":4066:4129   */\n    tag_96:\n        /* \"#utility.yul\":4013:4135   */\n      pop\n      jump\t// out\n\n    auxdata: 0xa26469706673582212202ee920748ade1ab5c308008783fdf976255a5d5246ae801cfe2cab1f17d1538b64736f6c63430008070033\n}\n",
				"bytecode": {
					"linkReferences": {},
					"object": "60806040526000600160006101000a81548160ff02191690831515021790555034801561002b57600080fd5b506064600081905550610400806100436000396000f3fe608060405234801561001057600080fd5b506004361061004c5760003560e01c80631abd155f146100515780634f2be91f146100835780638a3b12ae146100a1578063b75f17c5146100bf575b600080fd5b61006b600480360381019061006691906101ab565b6100dd565b60405161007a9392919061027c565b60405180910390f35b61008b61012f565b604051610098919061022b565b60405180910390f35b6100a9610153565b6040516100b69190610261565b60405180910390f35b6100c7610159565b6040516100d49190610246565b60405180910390f35b6000806000808660166100f091906102b3565b9050600060019050600087600160006101000a81548160ff02191690831515021790555060008790508383839650965096505050505093509350939050565b60018054906101000a900473ffffffffffffffffffffffffffffffffffffffff1681565b60005481565b600160009054906101000a900460ff1681565b60008135905061017b81610385565b92915050565b6000813590506101908161039c565b92915050565b6000813590506101a5816103b3565b92915050565b6000806000606084860312156101c4576101c3610380565b5b60006101d286828701610196565b93505060206101e386828701610181565b92505060406101f48682870161016c565b9150509250925092565b61020781610309565b82525050565b6102168161031b565b82525050565b61022581610347565b82525050565b600060208201905061024060008301846101fe565b92915050565b600060208201905061025b600083018461020d565b92915050565b6000602082019050610276600083018461021c565b92915050565b6000606082019050610291600083018661021c565b61029e602083018561020d565b6102ab60408301846101fe565b949350505050565b60006102be82610347565b91506102c983610347565b9250827fffffffffffffffffffffffffffffffffffffffffffffffffffffffffffffffff038211156102fe576102fd610351565b5b828201905092915050565b600061031482610327565b9050919050565b60008115159050919050565b600073ffffffffffffffffffffffffffffffffffffffff82169050919050565b6000819050919050565b7f4e487b7100000000000000000000000000000000000000000000000000000000600052601160045260246000fd5b600080fd5b61038e81610309565b811461039957600080fd5b50565b6103a58161031b565b81146103b057600080fd5b50565b6103bc81610347565b81146103c757600080fd5b5056fea26469706673582212202ee920748ade1ab5c308008783fdf976255a5d5246ae801cfe2cab1f17d1538b64736f6c63430008070033",
					"opcodes": "PUSH1 0x80 PUSH1 0x40 MSTORE PUSH1 0x0 PUSH1 0x1 PUSH1 0x0 PUSH2 0x100 EXP DUP2 SLOAD DUP2 PUSH1 0xFF MUL NOT AND SWAP1 DUP4 ISZERO ISZERO MUL OR SWAP1 SSTORE POP CALLVALUE DUP1 ISZERO PUSH2 0x2B JUMPI PUSH1 0x0 DUP1 REVERT JUMPDEST POP PUSH1 0x64 PUSH1 0x0 DUP2 SWAP1 SSTORE POP PUSH2 0x400 DUP1 PUSH2 0x43 PUSH1 0x0 CODECOPY PUSH1 0x0 RETURN INVALID PUSH1 0x80 PUSH1 0x40 MSTORE CALLVALUE DUP1 ISZERO PUSH2 0x10 JUMPI PUSH1 0x0 DUP1 REVERT JUMPDEST POP PUSH1 0x4 CALLDATASIZE LT PUSH2 0x4C JUMPI PUSH1 0x0 CALLDATALOAD PUSH1 0xE0 SHR DUP1 PUSH4 0x1ABD155F EQ PUSH2 0x51 JUMPI DUP1 PUSH4 0x4F2BE91F EQ PUSH2 0x83 JUMPI DUP1 PUSH4 0x8A3B12AE EQ PUSH2 0xA1 JUMPI DUP1 PUSH4 0xB75F17C5 EQ PUSH2 0xBF JUMPI JUMPDEST PUSH1 0x0 DUP1 REVERT JUMPDEST PUSH2 0x6B PUSH1 0x4 DUP1 CALLDATASIZE SUB DUP2 ADD SWAP1 PUSH2 0x66 SWAP2 SWAP1 PUSH2 0x1AB JUMP JUMPDEST PUSH2 0xDD JUMP JUMPDEST PUSH1 0x40 MLOAD PUSH2 0x7A SWAP4 SWAP3 SWAP2 SWAP1 PUSH2 0x27C JUMP JUMPDEST PUSH1 0x40 MLOAD DUP1 SWAP2 SUB SWAP1 RETURN JUMPDEST PUSH2 0x8B PUSH2 0x12F JUMP JUMPDEST PUSH1 0x40 MLOAD PUSH2 0x98 SWAP2 SWAP1 PUSH2 0x22B JUMP JUMPDEST PUSH1 0x40 MLOAD DUP1 SWAP2 SUB SWAP1 RETURN JUMPDEST PUSH2 0xA9 PUSH2 0x153 JUMP JUMPDEST PUSH1 0x40 MLOAD PUSH2 0xB6 SWAP2 SWAP1 PUSH2 0x261 JUMP JUMPDEST PUSH1 0x40 MLOAD DUP1 SWAP2 SUB SWAP1 RETURN JUMPDEST PUSH2 0xC7 PUSH2 0x159 JUMP JUMPDEST PUSH1 0x40 MLOAD PUSH2 0xD4 SWAP2 SWAP1 PUSH2 0x246 JUMP JUMPDEST PUSH1 0x40 MLOAD DUP1 SWAP2 SUB SWAP1 RETURN JUMPDEST PUSH1 0x0 DUP1 PUSH1 0x0 DUP1 DUP7 PUSH1 0x16 PUSH2 0xF0 SWAP2 SWAP1 PUSH2 0x2B3 JUMP JUMPDEST SWAP1 POP PUSH1 0x0 PUSH1 0x1 SWAP1 POP PUSH1 0x0 DUP8 PUSH1 0x1 PUSH1 0x0 PUSH2 0x100 EXP DUP2 SLOAD DUP2 PUSH1 0xFF MUL NOT AND SWAP1 DUP4 ISZERO ISZERO MUL OR SWAP1 SSTORE POP PUSH1 0x0 DUP8 SWAP1 POP DUP4 DUP4 DUP4 SWAP7 POP SWAP7 POP SWAP7 POP POP POP POP POP SWAP4 POP SWAP4 POP SWAP4 SWAP1 POP JUMP JUMPDEST PUSH1 0x1 DUP1 SLOAD SWAP1 PUSH2 0x100 EXP SWAP1 DIV PUSH20 0xFFFFFFFFFFFFFFFFFFFFFFFFFFFFFFFFFFFFFFFF AND DUP2 JUMP JUMPDEST PUSH1 0x0 SLOAD DUP2 JUMP JUMPDEST PUSH1 0x1 PUSH1 0x0 SWAP1 SLOAD SWAP1 PUSH2 0x100 EXP SWAP1 DIV PUSH1 0xFF AND DUP2 JUMP JUMPDEST PUSH1 0x0 DUP2 CALLDATALOAD SWAP1 POP PUSH2 0x17B DUP2 PUSH2 0x385 JUMP JUMPDEST SWAP3 SWAP2 POP POP JUMP JUMPDEST PUSH1 0x0 DUP2 CALLDATALOAD SWAP1 POP PUSH2 0x190 DUP2 PUSH2 0x39C JUMP JUMPDEST SWAP3 SWAP2 POP POP JUMP JUMPDEST PUSH1 0x0 DUP2 CALLDATALOAD SWAP1 POP PUSH2 0x1A5 DUP2 PUSH2 0x3B3 JUMP JUMPDEST SWAP3 SWAP2 POP POP JUMP JUMPDEST PUSH1 0x0 DUP1 PUSH1 0x0 PUSH1 0x60 DUP5 DUP7 SUB SLT ISZERO PUSH2 0x1C4 JUMPI PUSH2 0x1C3 PUSH2 0x380 JUMP JUMPDEST JUMPDEST PUSH1 0x0 PUSH2 0x1D2 DUP7 DUP3 DUP8 ADD PUSH2 0x196 JUMP JUMPDEST SWAP4 POP POP PUSH1 0x20 PUSH2 0x1E3 DUP7 DUP3 DUP8 ADD PUSH2 0x181 JUMP JUMPDEST SWAP3 POP POP PUSH1 0x40 PUSH2 0x1F4 DUP7 DUP3 DUP8 ADD PUSH2 0x16C JUMP JUMPDEST SWAP2 POP POP SWAP3 POP SWAP3 POP SWAP3 JUMP JUMPDEST PUSH2 0x207 DUP2 PUSH2 0x309 JUMP JUMPDEST DUP3 MSTORE POP POP JUMP JUMPDEST PUSH2 0x216 DUP2 PUSH2 0x31B JUMP JUMPDEST DUP3 MSTORE POP POP JUMP JUMPDEST PUSH2 0x225 DUP2 PUSH2 0x347 JUMP JUMPDEST DUP3 MSTORE POP POP JUMP JUMPDEST PUSH1 0x0 PUSH1 0x20 DUP3 ADD SWAP1 POP PUSH2 0x240 PUSH1 0x0 DUP4 ADD DUP5 PUSH2 0x1FE JUMP JUMPDEST SWAP3 SWAP2 POP POP JUMP JUMPDEST PUSH1 0x0 PUSH1 0x20 DUP3 ADD SWAP1 POP PUSH2 0x25B PUSH1 0x0 DUP4 ADD DUP5 PUSH2 0x20D JUMP JUMPDEST SWAP3 SWAP2 POP POP JUMP JUMPDEST PUSH1 0x0 PUSH1 0x20 DUP3 ADD SWAP1 POP PUSH2 0x276 PUSH1 0x0 DUP4 ADD DUP5 PUSH2 0x21C JUMP JUMPDEST SWAP3 SWAP2 POP POP JUMP JUMPDEST PUSH1 0x0 PUSH1 0x60 DUP3 ADD SWAP1 POP PUSH2 0x291 PUSH1 0x0 DUP4 ADD DUP7 PUSH2 0x21C JUMP JUMPDEST PUSH2 0x29E PUSH1 0x20 DUP4 ADD DUP6 PUSH2 0x20D JUMP JUMPDEST PUSH2 0x2AB PUSH1 0x40 DUP4 ADD DUP5 PUSH2 0x1FE JUMP JUMPDEST SWAP5 SWAP4 POP POP POP POP JUMP JUMPDEST PUSH1 0x0 PUSH2 0x2BE DUP3 PUSH2 0x347 JUMP JUMPDEST SWAP2 POP PUSH2 0x2C9 DUP4 PUSH2 0x347 JUMP JUMPDEST SWAP3 POP DUP3 PUSH32 0xFFFFFFFFFFFFFFFFFFFFFFFFFFFFFFFFFFFFFFFFFFFFFFFFFFFFFFFFFFFFFFFF SUB DUP3 GT ISZERO PUSH2 0x2FE JUMPI PUSH2 0x2FD PUSH2 0x351 JUMP JUMPDEST JUMPDEST DUP3 DUP3 ADD SWAP1 POP SWAP3 SWAP2 POP POP JUMP JUMPDEST PUSH1 0x0 PUSH2 0x314 DUP3 PUSH2 0x327 JUMP JUMPDEST SWAP1 POP SWAP2 SWAP1 POP JUMP JUMPDEST PUSH1 0x0 DUP2 ISZERO ISZERO SWAP1 POP SWAP2 SWAP1 POP JUMP JUMPDEST PUSH1 0x0 PUSH20 0xFFFFFFFFFFFFFFFFFFFFFFFFFFFFFFFFFFFFFFFF DUP3 AND SWAP1 POP SWAP2 SWAP1 POP JUMP JUMPDEST PUSH1 0x0 DUP2 SWAP1 POP SWAP2 SWAP1 POP JUMP JUMPDEST PUSH32 0x4E487B7100000000000000000000000000000000000000000000000000000000 PUSH1 0x0 MSTORE PUSH1 0x11 PUSH1 0x4 MSTORE PUSH1 0x24 PUSH1 0x0 REVERT JUMPDEST PUSH1 0x0 DUP1 REVERT JUMPDEST PUSH2 0x38E DUP2 PUSH2 0x309 JUMP JUMPDEST DUP2 EQ PUSH2 0x399 JUMPI PUSH1 0x0 DUP1 REVERT JUMPDEST POP JUMP JUMPDEST PUSH2 0x3A5 DUP2 PUSH2 0x31B JUMP JUMPDEST DUP2 EQ PUSH2 0x3B0 JUMPI PUSH1 0x0 DUP1 REVERT JUMPDEST POP JUMP JUMPDEST PUSH2 0x3BC DUP2 PUSH2 0x347 JUMP JUMPDEST DUP2 EQ PUSH2 0x3C7 JUMPI PUSH1 0x0 DUP1 REVERT JUMPDEST POP JUMP INVALID LOG2 PUSH5 0x6970667358 0x22 SLT KECCAK256 0x2E 0xE9 KECCAK256 PUSH21 0x8ADE1AB5C308008783FDF976255A5D5246AE801CFE 0x2C 0xAB 0x1F OR 0xD1 MSTORE8 DUP12 PUSH5 0x736F6C6343 STOP ADDMOD SMOD STOP CALLER "
				},
				"gasEstimates": {
					"creation": {
						"codeDepositCost": "204800",
						"executionCost": "46626",
						"totalCost": "251426"
					},
					"external": {
						"add()": "2561",
						"boolvar()": "2515",
						"locvariable(uint256,bool,address)": "infinite",
						"statevarable()": "2451"
					}
				},
				"methodIdentifiers": {
					"add()": "4f2be91f",
					"boolvar()": "b75f17c5",
					"locvariable(uint256,bool,address)": "1abd155f",
					"statevarable()": "8a3b12ae"
				}
			},
			"storageLayout": {
				"storage": [
					{
						"astId": 3,
						"contract": "localvariable.sol:localvariable",
						"label": "statevarable",
						"offset": 0,
						"slot": "0",
						"type": "t_uint256"
					},
					{
						"astId": 6,
						"contract": "localvariable.sol:localvariable",
						"label": "boolvar",
						"offset": 0,
						"slot": "1",
						"type": "t_bool"
					},
					{
						"astId": 8,
						"contract": "localvariable.sol:localvariable",
						"label": "add",
						"offset": 1,
						"slot": "1",
						"type": "t_address"
					}
				],
				"types": {
					"t_address": {
						"encoding": "inplace",
						"label": "address",
						"numberOfBytes": "20"
					},
					"t_bool": {
						"encoding": "inplace",
						"label": "bool",
						"numberOfBytes": "1"
					},
					"t_uint256": {
						"encoding": "inplace",
						"label": "uint256",
						"numberOfBytes": "32"
					}
				}
			},
			"userdoc": {
				"kind": "user",
				"methods": {},
				"version": 1
			}
		}
	}
}