{
	"revert_assert.sol": {
		"assert_revert_implememtation": {
			"abi": [
				{
					"inputs": [
						{
							"internalType": "string",
							"name": "",
							"type": "string"
						},
						{
							"internalType": "address",
							"name": "",
							"type": "address"
						}
					],
					"name": "revertError",
					"type": "error"
				},
				{
					"inputs": [
						{
							"internalType": "uint256",
							"name": "_x",
							"type": "uint256"
						}
					],
					"name": "Checkrequire",
					"outputs": [],
					"stateMutability": "nonpayable",
					"type": "function"
				},
				{
					"inputs": [],
					"name": "age",
					"outputs": [
						{
							"internalType": "uint256",
							"name": "",
							"type": "uint256"
						}
					],
					"stateMutability": "view",
					"type": "function"
				},
				{
					"inputs": [],
					"name": "owner",
					"outputs": [
						{
							"internalType": "address",
							"name": "",
							"type": "address"
						}
					],
					"stateMutability": "view",
					"type": "function"
				},
				{
					"inputs": [],
					"name": "setAge",
					"outputs": [],
					"stateMutability": "nonpayable",
					"type": "function"
				}
			],
			"devdoc": {
				"kind": "dev",
				"methods": {},
				"version": 1
			},
			"evm": {
				"assembly": "    /* \"revert_assert.sol\":62:584  contract assert_revert_implememtation{... */\n  mstore(0x40, 0x80)\n    /* \"revert_assert.sol\":128:138  msg.sender */\n  caller\n    /* \"revert_assert.sol\":105:138  address public owner = msg.sender */\n  0x00\n  dup1\n  0x0100\n  exp\n  dup2\n  sload\n  dup2\n  0xffffffffffffffffffffffffffffffffffffffff\n  mul\n  not\n  and\n  swap1\n  dup4\n  0xffffffffffffffffffffffffffffffffffffffff\n  and\n  mul\n  or\n  swap1\n  sstore\n  pop\n    /* \"revert_assert.sol\":162:164  25 */\n  0x19\n    /* \"revert_assert.sol\":144:164  uint public age = 25 */\n  0x01\n  sstore\n    /* \"revert_assert.sol\":62:584  contract assert_revert_implememtation{... */\n  callvalue\n  dup1\n  iszero\n  tag_1\n  jumpi\n  0x00\n  dup1\n  revert\ntag_1:\n  pop\n  dataSize(sub_0)\n  dup1\n  dataOffset(sub_0)\n  0x00\n  codecopy\n  0x00\n  return\nstop\n\nsub_0: assembly {\n        /* \"revert_assert.sol\":62:584  contract assert_revert_implememtation{... */\n      mstore(0x40, 0x80)\n      callvalue\n      dup1\n      iszero\n      tag_1\n      jumpi\n      0x00\n      dup1\n      revert\n    tag_1:\n      pop\n      jumpi(tag_2, lt(calldatasize, 0x04))\n      shr(0xe0, calldataload(0x00))\n      dup1\n      0x17447dff\n      eq\n      tag_3\n      jumpi\n      dup1\n      0x262a9dff\n      eq\n      tag_4\n      jumpi\n      dup1\n      0x457676ee\n      eq\n      tag_5\n      jumpi\n      dup1\n      0x8da5cb5b\n      eq\n      tag_6\n      jumpi\n    tag_2:\n      0x00\n      dup1\n      revert\n        /* \"revert_assert.sol\":212:380  function Checkrequire(uint _x) public{... */\n    tag_3:\n      tag_7\n      0x04\n      dup1\n      calldatasize\n      sub\n      dup2\n      add\n      swap1\n      tag_8\n      swap2\n      swap1\n      tag_9\n      jump\t// in\n    tag_8:\n      tag_10\n      jump\t// in\n    tag_7:\n      stop\n        /* \"revert_assert.sol\":144:164  uint public age = 25 */\n    tag_4:\n      tag_11\n      tag_12\n      jump\t// in\n    tag_11:\n      mload(0x40)\n      tag_13\n      swap2\n      swap1\n      tag_14\n      jump\t// in\n    tag_13:\n      mload(0x40)\n      dup1\n      swap2\n      sub\n      swap1\n      return\n        /* \"revert_assert.sol\":386:582  function setAge() public{... */\n    tag_5:\n      tag_15\n      tag_16\n      jump\t// in\n    tag_15:\n      stop\n        /* \"revert_assert.sol\":105:138  address public owner = msg.sender */\n    tag_6:\n      tag_17\n      tag_18\n      jump\t// in\n    tag_17:\n      mload(0x40)\n      tag_19\n      swap2\n      swap1\n      tag_20\n      jump\t// in\n    tag_19:\n      mload(0x40)\n      dup1\n      swap2\n      sub\n      swap1\n      return\n        /* \"revert_assert.sol\":212:380  function Checkrequire(uint _x) public{... */\n    tag_10:\n        /* \"revert_assert.sol\":270:272  _x */\n      dup1\n        /* \"revert_assert.sol\":265:268  age */\n      sload(0x01)\n        /* \"revert_assert.sol\":265:272  age+ _x */\n      tag_22\n      swap2\n      swap1\n      tag_23\n      jump\t// in\n    tag_22:\n        /* \"revert_assert.sol\":259:262  age */\n      0x01\n        /* \"revert_assert.sol\":259:272  age = age+ _x */\n      dup2\n      swap1\n      sstore\n      pop\n        /* \"revert_assert.sol\":291:292  2 */\n      0x02\n        /* \"revert_assert.sol\":286:288  _x */\n      dup2\n        /* \"revert_assert.sol\":286:292  _x < 2 */\n      lt\n        /* \"revert_assert.sol\":283:372  if(_x < 2){... */\n      iszero\n      tag_24\n      jumpi\n        /* \"revert_assert.sol\":350:360  msg.sender */\n      caller\n        /* \"revert_assert.sol\":314:361  revertError(\"Value of Less Than 2\", msg.sender) */\n      mload(0x40)\n      0xfa7d794200000000000000000000000000000000000000000000000000000000\n      dup2\n      mstore\n      0x04\n      add\n      tag_25\n      swap2\n      swap1\n      tag_26\n      jump\t// in\n    tag_25:\n      mload(0x40)\n      dup1\n      swap2\n      sub\n      swap1\n      revert\n        /* \"revert_assert.sol\":283:372  if(_x < 2){... */\n    tag_24:\n        /* \"revert_assert.sol\":212:380  function Checkrequire(uint _x) public{... */\n      pop\n      jump\t// out\n        /* \"revert_assert.sol\":144:164  uint public age = 25 */\n    tag_12:\n      sload(0x01)\n      dup2\n      jump\t// out\n        /* \"revert_assert.sol\":386:582  function setAge() public{... */\n    tag_16:\n        /* \"revert_assert.sol\":572:575  age */\n      sload(0x01)\n        /* \"revert_assert.sol\":568:571  age */\n      sload(0x01)\n        /* \"revert_assert.sol\":568:575  age+age */\n      tag_28\n      swap2\n      swap1\n      tag_23\n      jump\t// in\n    tag_28:\n        /* \"revert_assert.sol\":562:565  age */\n      0x01\n        /* \"revert_assert.sol\":562:575  age = age+age */\n      dup2\n      swap1\n      sstore\n      pop\n        /* \"revert_assert.sol\":386:582  function setAge() public{... */\n      jump\t// out\n        /* \"revert_assert.sol\":105:138  address public owner = msg.sender */\n    tag_18:\n      0x00\n      dup1\n      sload\n      swap1\n      0x0100\n      exp\n      swap1\n      div\n      0xffffffffffffffffffffffffffffffffffffffff\n      and\n      dup2\n      jump\t// out\n        /* \"#utility.yul\":7:146   */\n    tag_30:\n        /* \"#utility.yul\":53:58   */\n      0x00\n        /* \"#utility.yul\":91:97   */\n      dup2\n        /* \"#utility.yul\":78:98   */\n      calldataload\n        /* \"#utility.yul\":69:98   */\n      swap1\n      pop\n        /* \"#utility.yul\":107:140   */\n      tag_32\n        /* \"#utility.yul\":134:139   */\n      dup2\n        /* \"#utility.yul\":107:140   */\n      tag_33\n      jump\t// in\n    tag_32:\n        /* \"#utility.yul\":7:146   */\n      swap3\n      swap2\n      pop\n      pop\n      jump\t// out\n        /* \"#utility.yul\":152:481   */\n    tag_9:\n        /* \"#utility.yul\":211:217   */\n      0x00\n        /* \"#utility.yul\":260:262   */\n      0x20\n        /* \"#utility.yul\":248:257   */\n      dup3\n        /* \"#utility.yul\":239:246   */\n      dup5\n        /* \"#utility.yul\":235:258   */\n      sub\n        /* \"#utility.yul\":231:263   */\n      slt\n        /* \"#utility.yul\":228:347   */\n      iszero\n      tag_35\n      jumpi\n        /* \"#utility.yul\":266:345   */\n      tag_36\n      tag_37\n      jump\t// in\n    tag_36:\n        /* \"#utility.yul\":228:347   */\n    tag_35:\n        /* \"#utility.yul\":386:387   */\n      0x00\n        /* \"#utility.yul\":411:464   */\n      tag_38\n        /* \"#utility.yul\":456:463   */\n      dup5\n        /* \"#utility.yul\":447:453   */\n      dup3\n        /* \"#utility.yul\":436:445   */\n      dup6\n        /* \"#utility.yul\":432:454   */\n      add\n        /* \"#utility.yul\":411:464   */\n      tag_30\n      jump\t// in\n    tag_38:\n        /* \"#utility.yul\":401:464   */\n      swap2\n      pop\n        /* \"#utility.yul\":357:474   */\n      pop\n        /* \"#utility.yul\":152:481   */\n      swap3\n      swap2\n      pop\n      pop\n      jump\t// out\n        /* \"#utility.yul\":487:605   */\n    tag_39:\n        /* \"#utility.yul\":574:598   */\n      tag_41\n        /* \"#utility.yul\":592:597   */\n      dup2\n        /* \"#utility.yul\":574:598   */\n      tag_42\n      jump\t// in\n    tag_41:\n        /* \"#utility.yul\":569:572   */\n      dup3\n        /* \"#utility.yul\":562:599   */\n      mstore\n        /* \"#utility.yul\":487:605   */\n      pop\n      pop\n      jump\t// out\n        /* \"#utility.yul\":611:977   */\n    tag_43:\n        /* \"#utility.yul\":753:756   */\n      0x00\n        /* \"#utility.yul\":774:841   */\n      tag_45\n        /* \"#utility.yul\":838:840   */\n      0x14\n        /* \"#utility.yul\":833:836   */\n      dup4\n        /* \"#utility.yul\":774:841   */\n      tag_46\n      jump\t// in\n    tag_45:\n        /* \"#utility.yul\":767:841   */\n      swap2\n      pop\n        /* \"#utility.yul\":850:943   */\n      tag_47\n        /* \"#utility.yul\":939:942   */\n      dup3\n        /* \"#utility.yul\":850:943   */\n      tag_48\n      jump\t// in\n    tag_47:\n        /* \"#utility.yul\":968:970   */\n      0x20\n        /* \"#utility.yul\":963:966   */\n      dup3\n        /* \"#utility.yul\":959:971   */\n      add\n        /* \"#utility.yul\":952:971   */\n      swap1\n      pop\n        /* \"#utility.yul\":611:977   */\n      swap2\n      swap1\n      pop\n      jump\t// out\n        /* \"#utility.yul\":983:1101   */\n    tag_49:\n        /* \"#utility.yul\":1070:1094   */\n      tag_51\n        /* \"#utility.yul\":1088:1093   */\n      dup2\n        /* \"#utility.yul\":1070:1094   */\n      tag_52\n      jump\t// in\n    tag_51:\n        /* \"#utility.yul\":1065:1068   */\n      dup3\n        /* \"#utility.yul\":1058:1095   */\n      mstore\n        /* \"#utility.yul\":983:1101   */\n      pop\n      pop\n      jump\t// out\n        /* \"#utility.yul\":1107:1329   */\n    tag_20:\n        /* \"#utility.yul\":1200:1204   */\n      0x00\n        /* \"#utility.yul\":1238:1240   */\n      0x20\n        /* \"#utility.yul\":1227:1236   */\n      dup3\n        /* \"#utility.yul\":1223:1241   */\n      add\n        /* \"#utility.yul\":1215:1241   */\n      swap1\n      pop\n        /* \"#utility.yul\":1251:1322   */\n      tag_54\n        /* \"#utility.yul\":1319:1320   */\n      0x00\n        /* \"#utility.yul\":1308:1317   */\n      dup4\n        /* \"#utility.yul\":1304:1321   */\n      add\n        /* \"#utility.yul\":1295:1301   */\n      dup5\n        /* \"#utility.yul\":1251:1322   */\n      tag_39\n      jump\t// in\n    tag_54:\n        /* \"#utility.yul\":1107:1329   */\n      swap3\n      swap2\n      pop\n      pop\n      jump\t// out\n        /* \"#utility.yul\":1335:1864   */\n    tag_26:\n        /* \"#utility.yul\":1529:1533   */\n      0x00\n        /* \"#utility.yul\":1567:1569   */\n      0x40\n        /* \"#utility.yul\":1556:1565   */\n      dup3\n        /* \"#utility.yul\":1552:1570   */\n      add\n        /* \"#utility.yul\":1544:1570   */\n      swap1\n      pop\n        /* \"#utility.yul\":1616:1625   */\n      dup2\n        /* \"#utility.yul\":1610:1614   */\n      dup2\n        /* \"#utility.yul\":1606:1626   */\n      sub\n        /* \"#utility.yul\":1602:1603   */\n      0x00\n        /* \"#utility.yul\":1591:1600   */\n      dup4\n        /* \"#utility.yul\":1587:1604   */\n      add\n        /* \"#utility.yul\":1580:1627   */\n      mstore\n        /* \"#utility.yul\":1644:1775   */\n      tag_56\n        /* \"#utility.yul\":1770:1774   */\n      dup2\n        /* \"#utility.yul\":1644:1775   */\n      tag_43\n      jump\t// in\n    tag_56:\n        /* \"#utility.yul\":1636:1775   */\n      swap1\n      pop\n        /* \"#utility.yul\":1785:1857   */\n      tag_57\n        /* \"#utility.yul\":1853:1855   */\n      0x20\n        /* \"#utility.yul\":1842:1851   */\n      dup4\n        /* \"#utility.yul\":1838:1856   */\n      add\n        /* \"#utility.yul\":1829:1835   */\n      dup5\n        /* \"#utility.yul\":1785:1857   */\n      tag_39\n      jump\t// in\n    tag_57:\n        /* \"#utility.yul\":1335:1864   */\n      swap3\n      swap2\n      pop\n      pop\n      jump\t// out\n        /* \"#utility.yul\":1870:2092   */\n    tag_14:\n        /* \"#utility.yul\":1963:1967   */\n      0x00\n        /* \"#utility.yul\":2001:2003   */\n      0x20\n        /* \"#utility.yul\":1990:1999   */\n      dup3\n        /* \"#utility.yul\":1986:2004   */\n      add\n        /* \"#utility.yul\":1978:2004   */\n      swap1\n      pop\n        /* \"#utility.yul\":2014:2085   */\n      tag_59\n        /* \"#utility.yul\":2082:2083   */\n      0x00\n        /* \"#utility.yul\":2071:2080   */\n      dup4\n        /* \"#utility.yul\":2067:2084   */\n      add\n        /* \"#utility.yul\":2058:2064   */\n      dup5\n        /* \"#utility.yul\":2014:2085   */\n      tag_49\n      jump\t// in\n    tag_59:\n        /* \"#utility.yul\":1870:2092   */\n      swap3\n      swap2\n      pop\n      pop\n      jump\t// out\n        /* \"#utility.yul\":2179:2348   */\n    tag_46:\n        /* \"#utility.yul\":2263:2274   */\n      0x00\n        /* \"#utility.yul\":2297:2303   */\n      dup3\n        /* \"#utility.yul\":2292:2295   */\n      dup3\n        /* \"#utility.yul\":2285:2304   */\n      mstore\n        /* \"#utility.yul\":2337:2341   */\n      0x20\n        /* \"#utility.yul\":2332:2335   */\n      dup3\n        /* \"#utility.yul\":2328:2342   */\n      add\n        /* \"#utility.yul\":2313:2342   */\n      swap1\n      pop\n        /* \"#utility.yul\":2179:2348   */\n      swap3\n      swap2\n      pop\n      pop\n      jump\t// out\n        /* \"#utility.yul\":2354:2659   */\n    tag_23:\n        /* \"#utility.yul\":2394:2397   */\n      0x00\n        /* \"#utility.yul\":2413:2433   */\n      tag_64\n        /* \"#utility.yul\":2431:2432   */\n      dup3\n        /* \"#utility.yul\":2413:2433   */\n      tag_52\n      jump\t// in\n    tag_64:\n        /* \"#utility.yul\":2408:2433   */\n      swap2\n      pop\n        /* \"#utility.yul\":2447:2467   */\n      tag_65\n        /* \"#utility.yul\":2465:2466   */\n      dup4\n        /* \"#utility.yul\":2447:2467   */\n      tag_52\n      jump\t// in\n    tag_65:\n        /* \"#utility.yul\":2442:2467   */\n      swap3\n      pop\n        /* \"#utility.yul\":2601:2602   */\n      dup3\n        /* \"#utility.yul\":2533:2599   */\n      0xffffffffffffffffffffffffffffffffffffffffffffffffffffffffffffffff\n        /* \"#utility.yul\":2529:2603   */\n      sub\n        /* \"#utility.yul\":2526:2527   */\n      dup3\n        /* \"#utility.yul\":2523:2604   */\n      gt\n        /* \"#utility.yul\":2520:2627   */\n      iszero\n      tag_66\n      jumpi\n        /* \"#utility.yul\":2607:2625   */\n      tag_67\n      tag_68\n      jump\t// in\n    tag_67:\n        /* \"#utility.yul\":2520:2627   */\n    tag_66:\n        /* \"#utility.yul\":2651:2652   */\n      dup3\n        /* \"#utility.yul\":2648:2649   */\n      dup3\n        /* \"#utility.yul\":2644:2653   */\n      add\n        /* \"#utility.yul\":2637:2653   */\n      swap1\n      pop\n        /* \"#utility.yul\":2354:2659   */\n      swap3\n      swap2\n      pop\n      pop\n      jump\t// out\n        /* \"#utility.yul\":2665:2761   */\n    tag_42:\n        /* \"#utility.yul\":2702:2709   */\n      0x00\n        /* \"#utility.yul\":2731:2755   */\n      tag_70\n        /* \"#utility.yul\":2749:2754   */\n      dup3\n        /* \"#utility.yul\":2731:2755   */\n      tag_71\n      jump\t// in\n    tag_70:\n        /* \"#utility.yul\":2720:2755   */\n      swap1\n      pop\n        /* \"#utility.yul\":2665:2761   */\n      swap2\n      swap1\n      pop\n      jump\t// out\n        /* \"#utility.yul\":2767:2893   */\n    tag_71:\n        /* \"#utility.yul\":2804:2811   */\n      0x00\n        /* \"#utility.yul\":2844:2886   */\n      0xffffffffffffffffffffffffffffffffffffffff\n        /* \"#utility.yul\":2837:2842   */\n      dup3\n        /* \"#utility.yul\":2833:2887   */\n      and\n        /* \"#utility.yul\":2822:2887   */\n      swap1\n      pop\n        /* \"#utility.yul\":2767:2893   */\n      swap2\n      swap1\n      pop\n      jump\t// out\n        /* \"#utility.yul\":2899:2976   */\n    tag_52:\n        /* \"#utility.yul\":2936:2943   */\n      0x00\n        /* \"#utility.yul\":2965:2970   */\n      dup2\n        /* \"#utility.yul\":2954:2970   */\n      swap1\n      pop\n        /* \"#utility.yul\":2899:2976   */\n      swap2\n      swap1\n      pop\n      jump\t// out\n        /* \"#utility.yul\":2982:3162   */\n    tag_68:\n        /* \"#utility.yul\":3030:3107   */\n      0x4e487b7100000000000000000000000000000000000000000000000000000000\n        /* \"#utility.yul\":3027:3028   */\n      0x00\n        /* \"#utility.yul\":3020:3108   */\n      mstore\n        /* \"#utility.yul\":3127:3131   */\n      0x11\n        /* \"#utility.yul\":3124:3125   */\n      0x04\n        /* \"#utility.yul\":3117:3132   */\n      mstore\n        /* \"#utility.yul\":3151:3155   */\n      0x24\n        /* \"#utility.yul\":3148:3149   */\n      0x00\n        /* \"#utility.yul\":3141:3156   */\n      revert\n        /* \"#utility.yul\":3291:3408   */\n    tag_37:\n        /* \"#utility.yul\":3400:3401   */\n      0x00\n        /* \"#utility.yul\":3397:3398   */\n      dup1\n        /* \"#utility.yul\":3390:3402   */\n      revert\n        /* \"#utility.yul\":3414:3584   */\n    tag_48:\n        /* \"#utility.yul\":3554:3576   */\n      0x56616c7565206f66204c657373205468616e2032000000000000000000000000\n        /* \"#utility.yul\":3550:3551   */\n      0x00\n        /* \"#utility.yul\":3542:3548   */\n      dup3\n        /* \"#utility.yul\":3538:3552   */\n      add\n        /* \"#utility.yul\":3531:3577   */\n      mstore\n        /* \"#utility.yul\":3414:3584   */\n      pop\n      jump\t// out\n        /* \"#utility.yul\":3590:3712   */\n    tag_33:\n        /* \"#utility.yul\":3663:3687   */\n      tag_80\n        /* \"#utility.yul\":3681:3686   */\n      dup2\n        /* \"#utility.yul\":3663:3687   */\n      tag_52\n      jump\t// in\n    tag_80:\n        /* \"#utility.yul\":3656:3661   */\n      dup2\n        /* \"#utility.yul\":3653:3688   */\n      eq\n        /* \"#utility.yul\":3643:3706   */\n      tag_81\n      jumpi\n        /* \"#utility.yul\":3702:3703   */\n      0x00\n        /* \"#utility.yul\":3699:3700   */\n      dup1\n        /* \"#utility.yul\":3692:3704   */\n      revert\n        /* \"#utility.yul\":3643:3706   */\n    tag_81:\n        /* \"#utility.yul\":3590:3712   */\n      pop\n      jump\t// out\n\n    auxdata: 0xa26469706673582212209c8c028d5be30d57732d3eec3f0bcfc91eb3e96b13c57a79a59834e3dd99eedb64736f6c63430008070033\n}\n",
				"bytecode": {
					"linkReferences": {},
					"object": "6080604052336000806101000a81548173ffffffffffffffffffffffffffffffffffffffff021916908373ffffffffffffffffffffffffffffffffffffffff160217905550601960015534801561005557600080fd5b50610386806100656000396000f3fe608060405234801561001057600080fd5b506004361061004c5760003560e01c806317447dff14610051578063262a9dff1461006d578063457676ee1461008b5780638da5cb5b14610095575b600080fd5b61006b60048036038101906100669190610167565b6100b3565b005b610075610110565b604051610082919061021e565b60405180910390f35b610093610116565b005b61009d61012e565b6040516100aa91906101d5565b60405180910390f35b806001546100c1919061024a565b600181905550600281101561010d57336040517ffa7d794200000000000000000000000000000000000000000000000000000000815260040161010491906101f0565b60405180910390fd5b50565b60015481565b600154600154610126919061024a565b600181905550565b60008054906101000a900473ffffffffffffffffffffffffffffffffffffffff1681565b60008135905061016181610339565b92915050565b60006020828403121561017d5761017c61030b565b5b600061018b84828501610152565b91505092915050565b61019d816102a0565b82525050565b60006101b0601483610239565b91506101bb82610310565b602082019050919050565b6101cf816102d2565b82525050565b60006020820190506101ea6000830184610194565b92915050565b60006040820190508181036000830152610209816101a3565b90506102186020830184610194565b92915050565b600060208201905061023360008301846101c6565b92915050565b600082825260208201905092915050565b6000610255826102d2565b9150610260836102d2565b9250827fffffffffffffffffffffffffffffffffffffffffffffffffffffffffffffffff03821115610295576102946102dc565b5b828201905092915050565b60006102ab826102b2565b9050919050565b600073ffffffffffffffffffffffffffffffffffffffff82169050919050565b6000819050919050565b7f4e487b7100000000000000000000000000000000000000000000000000000000600052601160045260246000fd5b600080fd5b7f56616c7565206f66204c657373205468616e2032000000000000000000000000600082015250565b610342816102d2565b811461034d57600080fd5b5056fea26469706673582212209c8c028d5be30d57732d3eec3f0bcfc91eb3e96b13c57a79a59834e3dd99eedb64736f6c63430008070033",
					"opcodes": "PUSH1 0x80 PUSH1 0x40 MSTORE CALLER PUSH1 0x0 DUP1 PUSH2 0x100 EXP DUP2 SLOAD DUP2 PUSH20 0xFFFFFFFFFFFFFFFFFFFFFFFFFFFFFFFFFFFFFFFF MUL NOT AND SWAP1 DUP4 PUSH20 0xFFFFFFFFFFFFFFFFFFFFFFFFFFFFFFFFFFFFFFFF AND MUL OR SWAP1 SSTORE POP PUSH1 0x19 PUSH1 0x1 SSTORE CALLVALUE DUP1 ISZERO PUSH2 0x55 JUMPI PUSH1 0x0 DUP1 REVERT JUMPDEST POP PUSH2 0x386 DUP1 PUSH2 0x65 PUSH1 0x0 CODECOPY PUSH1 0x0 RETURN INVALID PUSH1 0x80 PUSH1 0x40 MSTORE CALLVALUE DUP1 ISZERO PUSH2 0x10 JUMPI PUSH1 0x0 DUP1 REVERT JUMPDEST POP PUSH1 0x4 CALLDATASIZE LT PUSH2 0x4C JUMPI PUSH1 0x0 CALLDATALOAD PUSH1 0xE0 SHR DUP1 PUSH4 0x17447DFF EQ PUSH2 0x51 JUMPI DUP1 PUSH4 0x262A9DFF EQ PUSH2 0x6D JUMPI DUP1 PUSH4 0x457676EE EQ PUSH2 0x8B JUMPI DUP1 PUSH4 0x8DA5CB5B EQ PUSH2 0x95 JUMPI JUMPDEST PUSH1 0x0 DUP1 REVERT JUMPDEST PUSH2 0x6B PUSH1 0x4 DUP1 CALLDATASIZE SUB DUP2 ADD SWAP1 PUSH2 0x66 SWAP2 SWAP1 PUSH2 0x167 JUMP JUMPDEST PUSH2 0xB3 JUMP JUMPDEST STOP JUMPDEST PUSH2 0x75 PUSH2 0x110 JUMP JUMPDEST PUSH1 0x40 MLOAD PUSH2 0x82 SWAP2 SWAP1 PUSH2 0x21E JUMP JUMPDEST PUSH1 0x40 MLOAD DUP1 SWAP2 SUB SWAP1 RETURN JUMPDEST PUSH2 0x93 PUSH2 0x116 JUMP JUMPDEST STOP JUMPDEST PUSH2 0x9D PUSH2 0x12E JUMP JUMPDEST PUSH1 0x40 MLOAD PUSH2 0xAA SWAP2 SWAP1 PUSH2 0x1D5 JUMP JUMPDEST PUSH1 0x40 MLOAD DUP1 SWAP2 SUB SWAP1 RETURN JUMPDEST DUP1 PUSH1 0x1 SLOAD PUSH2 0xC1 SWAP2 SWAP1 PUSH2 0x24A JUMP JUMPDEST PUSH1 0x1 DUP2 SWAP1 SSTORE POP PUSH1 0x2 DUP2 LT ISZERO PUSH2 0x10D JUMPI CALLER PUSH1 0x40 MLOAD PUSH32 0xFA7D794200000000000000000000000000000000000000000000000000000000 DUP2 MSTORE PUSH1 0x4 ADD PUSH2 0x104 SWAP2 SWAP1 PUSH2 0x1F0 JUMP JUMPDEST PUSH1 0x40 MLOAD DUP1 SWAP2 SUB SWAP1 REVERT JUMPDEST POP JUMP JUMPDEST PUSH1 0x1 SLOAD DUP2 JUMP JUMPDEST PUSH1 0x1 SLOAD PUSH1 0x1 SLOAD PUSH2 0x126 SWAP2 SWAP1 PUSH2 0x24A JUMP JUMPDEST PUSH1 0x1 DUP2 SWAP1 SSTORE POP JUMP JUMPDEST PUSH1 0x0 DUP1 SLOAD SWAP1 PUSH2 0x100 EXP SWAP1 DIV PUSH20 0xFFFFFFFFFFFFFFFFFFFFFFFFFFFFFFFFFFFFFFFF AND DUP2 JUMP JUMPDEST PUSH1 0x0 DUP2 CALLDATALOAD SWAP1 POP PUSH2 0x161 DUP2 PUSH2 0x339 JUMP JUMPDEST SWAP3 SWAP2 POP POP JUMP JUMPDEST PUSH1 0x0 PUSH1 0x20 DUP3 DUP5 SUB SLT ISZERO PUSH2 0x17D JUMPI PUSH2 0x17C PUSH2 0x30B JUMP JUMPDEST JUMPDEST PUSH1 0x0 PUSH2 0x18B DUP5 DUP3 DUP6 ADD PUSH2 0x152 JUMP JUMPDEST SWAP2 POP POP SWAP3 SWAP2 POP POP JUMP JUMPDEST PUSH2 0x19D DUP2 PUSH2 0x2A0 JUMP JUMPDEST DUP3 MSTORE POP POP JUMP JUMPDEST PUSH1 0x0 PUSH2 0x1B0 PUSH1 0x14 DUP4 PUSH2 0x239 JUMP JUMPDEST SWAP2 POP PUSH2 0x1BB DUP3 PUSH2 0x310 JUMP JUMPDEST PUSH1 0x20 DUP3 ADD SWAP1 POP SWAP2 SWAP1 POP JUMP JUMPDEST PUSH2 0x1CF DUP2 PUSH2 0x2D2 JUMP JUMPDEST DUP3 MSTORE POP POP JUMP JUMPDEST PUSH1 0x0 PUSH1 0x20 DUP3 ADD SWAP1 POP PUSH2 0x1EA PUSH1 0x0 DUP4 ADD DUP5 PUSH2 0x194 JUMP JUMPDEST SWAP3 SWAP2 POP POP JUMP JUMPDEST PUSH1 0x0 PUSH1 0x40 DUP3 ADD SWAP1 POP DUP2 DUP2 SUB PUSH1 0x0 DUP4 ADD MSTORE PUSH2 0x209 DUP2 PUSH2 0x1A3 JUMP JUMPDEST SWAP1 POP PUSH2 0x218 PUSH1 0x20 DUP4 ADD DUP5 PUSH2 0x194 JUMP JUMPDEST SWAP3 SWAP2 POP POP JUMP JUMPDEST PUSH1 0x0 PUSH1 0x20 DUP3 ADD SWAP1 POP PUSH2 0x233 PUSH1 0x0 DUP4 ADD DUP5 PUSH2 0x1C6 JUMP JUMPDEST SWAP3 SWAP2 POP POP JUMP JUMPDEST PUSH1 0x0 DUP3 DUP3 MSTORE PUSH1 0x20 DUP3 ADD SWAP1 POP SWAP3 SWAP2 POP POP JUMP JUMPDEST PUSH1 0x0 PUSH2 0x255 DUP3 PUSH2 0x2D2 JUMP JUMPDEST SWAP2 POP PUSH2 0x260 DUP4 PUSH2 0x2D2 JUMP JUMPDEST SWAP3 POP DUP3 PUSH32 0xFFFFFFFFFFFFFFFFFFFFFFFFFFFFFFFFFFFFFFFFFFFFFFFFFFFFFFFFFFFFFFFF SUB DUP3 GT ISZERO PUSH2 0x295 JUMPI PUSH2 0x294 PUSH2 0x2DC JUMP JUMPDEST JUMPDEST DUP3 DUP3 ADD SWAP1 POP SWAP3 SWAP2 POP POP JUMP JUMPDEST PUSH1 0x0 PUSH2 0x2AB DUP3 PUSH2 0x2B2 JUMP JUMPDEST SWAP1 POP SWAP2 SWAP1 POP JUMP JUMPDEST PUSH1 0x0 PUSH20 0xFFFFFFFFFFFFFFFFFFFFFFFFFFFFFFFFFFFFFFFF DUP3 AND SWAP1 POP SWAP2 SWAP1 POP JUMP JUMPDEST PUSH1 0x0 DUP2 SWAP1 POP SWAP2 SWAP1 POP JUMP JUMPDEST PUSH32 0x4E487B7100000000000000000000000000000000000000000000000000000000 PUSH1 0x0 MSTORE PUSH1 0x11 PUSH1 0x4 MSTORE PUSH1 0x24 PUSH1 0x0 REVERT JUMPDEST PUSH1 0x0 DUP1 REVERT JUMPDEST PUSH32 0x56616C7565206F66204C657373205468616E2032000000000000000000000000 PUSH1 0x0 DUP3 ADD MSTORE POP JUMP JUMPDEST PUSH2 0x342 DUP2 PUSH2 0x2D2 JUMP JUMPDEST DUP2 EQ PUSH2 0x34D JUMPI PUSH1 0x0 DUP1 REVERT JUMPDEST POP JUMP INVALID LOG2 PUSH5 0x6970667358 0x22 SLT KECCAK256 SWAP13 DUP13 MUL DUP14 JUMPDEST 0xE3 0xD JUMPI PUSH20 0x2D3EEC3F0BCFC91EB3E96B13C57A79A59834E3DD SWAP10 0xEE 0xDB PUSH5 0x736F6C6343 STOP ADDMOD SMOD STOP CALLER "
				},
				"gasEstimates": {
					"creation": {
						"codeDepositCost": "180400",
						"executionCost": "46598",
						"totalCost": "226998"
					},
					"external": {
						"Checkrequire(uint256)": "infinite",
						"age()": "2429",
						"owner()": "2555",
						"setAge()": "infinite"
					}
				},
				"methodIdentifiers": {
					"Checkrequire(uint256)": "17447dff",
					"age()": "262a9dff",
					"owner()": "8da5cb5b",
					"setAge()": "457676ee"
				}
			},
			"storageLayout": {
				"storage": [
					{
						"astId": 5,
						"contract": "revert_assert.sol:assert_revert_implememtation",
						"label": "owner",
						"offset": 0,
						"slot": "0",
						"type": "t_address"
					},
					{
						"astId": 8,
						"contract": "revert_assert.sol:assert_revert_implememtation",
						"label": "age",
						"offset": 0,
						"slot": "1",
						"type": "t_uint256"
					}
				],
				"types": {
					"t_address": {
						"encoding": "inplace",
						"label": "address",
						"numberOfBytes": "20"
					},
					"t_uint256": {
						"encoding": "inplace",
						"label": "uint256",
						"numberOfBytes": "32"
					}
				}
			},
			"userdoc": {
				"kind": "user",
				"methods": {},
				"version": 1
			}
		}
	}
}