{
	"dynamicsizearr.sol": {
		"fixedsizearray": {
			"abi": [
				{
					"inputs": [],
					"name": "getarr",
					"outputs": [
						{
							"internalType": "uint256[]",
							"name": "",
							"type": "uint256[]"
						}
					],
					"stateMutability": "view",
					"type": "function"
				},
				{
					"inputs": [],
					"name": "pushnum",
					"outputs": [
						{
							"internalType": "uint256[]",
							"name": "",
							"type": "uint256[]"
						}
					],
					"stateMutability": "view",
					"type": "function"
				},
				{
					"inputs": [
						{
							"internalType": "uint256",
							"name": "_pos",
							"type": "uint256"
						},
						{
							"internalType": "uint256",
							"name": "_value",
							"type": "uint256"
						}
					],
					"name": "updatearr",
					"outputs": [],
					"stateMutability": "nonpayable",
					"type": "function"
				}
			],
			"devdoc": {
				"kind": "dev",
				"methods": {},
				"version": 1
			},
			"evm": {
				"assembly": "    /* \"dynamicsizearr.sol\":63:718  contract fixedsizearray{... */\n  mstore(0x40, 0x80)\n    /* \"dynamicsizearr.sol\":93:126  uint[] arr = [10, 20, 30, 40, 50] */\n  mload(0x40)\n  dup1\n  0xa0\n  add\n  0x40\n  mstore\n  dup1\n    /* \"dynamicsizearr.sol\":107:109  10 */\n  0x0a\n    /* \"dynamicsizearr.sol\":93:126  uint[] arr = [10, 20, 30, 40, 50] */\n  0xff\n  and\n  dup2\n  mstore\n  0x20\n  add\n    /* \"dynamicsizearr.sol\":111:113  20 */\n  0x14\n    /* \"dynamicsizearr.sol\":93:126  uint[] arr = [10, 20, 30, 40, 50] */\n  0xff\n  and\n  dup2\n  mstore\n  0x20\n  add\n    /* \"dynamicsizearr.sol\":115:117  30 */\n  0x1e\n    /* \"dynamicsizearr.sol\":93:126  uint[] arr = [10, 20, 30, 40, 50] */\n  0xff\n  and\n  dup2\n  mstore\n  0x20\n  add\n    /* \"dynamicsizearr.sol\":119:121  40 */\n  0x28\n    /* \"dynamicsizearr.sol\":93:126  uint[] arr = [10, 20, 30, 40, 50] */\n  0xff\n  and\n  dup2\n  mstore\n  0x20\n  add\n    /* \"dynamicsizearr.sol\":123:125  50 */\n  0x32\n    /* \"dynamicsizearr.sol\":93:126  uint[] arr = [10, 20, 30, 40, 50] */\n  0xff\n  and\n  dup2\n  mstore\n  pop\n  0x00\n  swap1\n  0x05\n  tag_1\n  swap3\n  swap2\n  swap1\n  tag_2\n  jump\t// in\ntag_1:\n  pop\n    /* \"dynamicsizearr.sol\":63:718  contract fixedsizearray{... */\n  callvalue\n  dup1\n  iszero\n  tag_3\n  jumpi\n  0x00\n  dup1\n  revert\ntag_3:\n  pop\n  jump(tag_4)\ntag_2:\n  dup3\n  dup1\n  sload\n  dup3\n  dup3\n  sstore\n  swap1\n  0x00\n  mstore\n  keccak256(0x00, 0x20)\n  swap1\n  dup2\n  add\n  swap3\n  dup3\n  iszero\n  tag_5\n  jumpi\n  swap2\n  0x20\n  mul\n  dup3\n  add\ntag_6:\n  dup3\n  dup2\n  gt\n  iszero\n  tag_7\n  jumpi\n  dup3\n  mload\n  dup3\n  swap1\n  0xff\n  and\n  swap1\n  sstore\n  swap2\n  0x20\n  add\n  swap2\n  swap1\n  0x01\n  add\n  swap1\n  jump(tag_6)\ntag_7:\ntag_5:\n  pop\n  swap1\n  pop\n  tag_8\n  swap2\n  swap1\n  tag_9\n  jump\t// in\ntag_8:\n  pop\n  swap1\n  jump\t// out\ntag_9:\ntag_10:\n  dup1\n  dup3\n  gt\n  iszero\n  tag_11\n  jumpi\n  0x00\n  dup2\n  0x00\n  swap1\n  sstore\n  pop\n  0x01\n  add\n  jump(tag_10)\ntag_11:\n  pop\n  swap1\n  jump\t// out\ntag_4:\n  dataSize(sub_0)\n  dup1\n  dataOffset(sub_0)\n  0x00\n  codecopy\n  0x00\n  return\nstop\n\nsub_0: assembly {\n        /* \"dynamicsizearr.sol\":63:718  contract fixedsizearray{... */\n      mstore(0x40, 0x80)\n      callvalue\n      dup1\n      iszero\n      tag_1\n      jumpi\n      0x00\n      dup1\n      revert\n    tag_1:\n      pop\n      jumpi(tag_2, lt(calldatasize, 0x04))\n      shr(0xe0, calldataload(0x00))\n      dup1\n      0x0469a5e2\n      eq\n      tag_3\n      jumpi\n      dup1\n      0x6bc7deae\n      eq\n      tag_4\n      jumpi\n      dup1\n      0x9fd44f5a\n      eq\n      tag_5\n      jumpi\n    tag_2:\n      0x00\n      dup1\n      revert\n        /* \"dynamicsizearr.sol\":636:716  function pushnum() public view returns(uint[] memory){... */\n    tag_3:\n      tag_6\n      tag_7\n      jump\t// in\n    tag_6:\n      mload(0x40)\n      tag_8\n      swap2\n      swap1\n      tag_9\n      jump\t// in\n    tag_8:\n      mload(0x40)\n      dup1\n      swap2\n      sub\n      swap1\n      return\n        /* \"dynamicsizearr.sol\":152:231  function getarr() public view returns(uint[] memory){... */\n    tag_4:\n      tag_10\n      tag_11\n      jump\t// in\n    tag_10:\n      mload(0x40)\n      tag_12\n      swap2\n      swap1\n      tag_9\n      jump\t// in\n    tag_12:\n      mload(0x40)\n      dup1\n      swap2\n      sub\n      swap1\n      return\n        /* \"dynamicsizearr.sol\":245:625  function updatearr(uint _pos, uint _value) public{... */\n    tag_5:\n      tag_13\n      0x04\n      dup1\n      calldatasize\n      sub\n      dup2\n      add\n      swap1\n      tag_14\n      swap2\n      swap1\n      tag_15\n      jump\t// in\n    tag_14:\n      tag_16\n      jump\t// in\n    tag_13:\n      stop\n        /* \"dynamicsizearr.sol\":636:716  function pushnum() public view returns(uint[] memory){... */\n    tag_7:\n        /* \"dynamicsizearr.sol\":675:688  uint[] memory */\n      0x60\n        /* \"dynamicsizearr.sol\":706:709  arr */\n      0x00\n        /* \"dynamicsizearr.sol\":699:709  return arr */\n      dup1\n      sload\n      dup1\n      0x20\n      mul\n      0x20\n      add\n      mload(0x40)\n      swap1\n      dup2\n      add\n      0x40\n      mstore\n      dup1\n      swap3\n      swap2\n      swap1\n      dup2\n      dup2\n      mstore\n      0x20\n      add\n      dup3\n      dup1\n      sload\n      dup1\n      iszero\n      tag_18\n      jumpi\n      0x20\n      mul\n      dup3\n      add\n      swap2\n      swap1\n      0x00\n      mstore\n      keccak256(0x00, 0x20)\n      swap1\n    tag_19:\n      dup2\n      sload\n      dup2\n      mstore\n      0x20\n      add\n      swap1\n      0x01\n      add\n      swap1\n      dup1\n      dup4\n      gt\n      tag_19\n      jumpi\n    tag_18:\n      pop\n      pop\n      pop\n      pop\n      pop\n      swap1\n      pop\n        /* \"dynamicsizearr.sol\":636:716  function pushnum() public view returns(uint[] memory){... */\n      swap1\n      jump\t// out\n        /* \"dynamicsizearr.sol\":152:231  function getarr() public view returns(uint[] memory){... */\n    tag_11:\n        /* \"dynamicsizearr.sol\":190:203  uint[] memory */\n      0x60\n        /* \"dynamicsizearr.sol\":221:224  arr */\n      0x00\n        /* \"dynamicsizearr.sol\":214:224  return arr */\n      dup1\n      sload\n      dup1\n      0x20\n      mul\n      0x20\n      add\n      mload(0x40)\n      swap1\n      dup2\n      add\n      0x40\n      mstore\n      dup1\n      swap3\n      swap2\n      swap1\n      dup2\n      dup2\n      mstore\n      0x20\n      add\n      dup3\n      dup1\n      sload\n      dup1\n      iszero\n      tag_21\n      jumpi\n      0x20\n      mul\n      dup3\n      add\n      swap2\n      swap1\n      0x00\n      mstore\n      keccak256(0x00, 0x20)\n      swap1\n    tag_22:\n      dup2\n      sload\n      dup2\n      mstore\n      0x20\n      add\n      swap1\n      0x01\n      add\n      swap1\n      dup1\n      dup4\n      gt\n      tag_22\n      jumpi\n    tag_21:\n      pop\n      pop\n      pop\n      pop\n      pop\n      swap1\n      pop\n        /* \"dynamicsizearr.sol\":152:231  function getarr() public view returns(uint[] memory){... */\n      swap1\n      jump\t// out\n        /* \"dynamicsizearr.sol\":245:625  function updatearr(uint _pos, uint _value) public{... */\n    tag_16:\n        /* \"dynamicsizearr.sol\":321:325  _pos */\n      dup2\n        /* \"dynamicsizearr.sol\":307:310  arr */\n      0x00\n        /* \"dynamicsizearr.sol\":307:317  arr.length */\n      dup1\n      sload\n      swap1\n      pop\n        /* \"dynamicsizearr.sol\":307:325  arr.length  > _pos */\n      gt\n        /* \"dynamicsizearr.sol\":304:618  if(arr.length  > _pos){... */\n      iszero\n      tag_24\n      jumpi\n        /* \"dynamicsizearr.sol\":352:358  _value */\n      dup1\n        /* \"dynamicsizearr.sol\":340:343  arr */\n      0x00\n        /* \"dynamicsizearr.sol\":344:348  _pos */\n      dup4\n        /* \"dynamicsizearr.sol\":340:349  arr[_pos] */\n      dup2\n      sload\n      dup2\n      lt\n      tag_25\n      jumpi\n      tag_26\n      tag_27\n      jump\t// in\n    tag_26:\n    tag_25:\n      swap1\n      0x00\n      mstore\n      keccak256(0x00, 0x20)\n      add\n        /* \"dynamicsizearr.sol\":340:358  arr[_pos] = _value */\n      dup2\n      swap1\n      sstore\n      pop\n        /* \"dynamicsizearr.sol\":304:618  if(arr.length  > _pos){... */\n      jump(tag_29)\n    tag_24:\n        /* \"dynamicsizearr.sol\":391:397  uint i */\n      0x00\n        /* \"dynamicsizearr.sol\":400:403  arr */\n      dup1\n        /* \"dynamicsizearr.sol\":400:410  arr.length */\n      dup1\n      sload\n      swap1\n      pop\n        /* \"dynamicsizearr.sol\":391:410  uint i = arr.length */\n      swap1\n      pop\n        /* \"dynamicsizearr.sol\":387:608  for(uint i = arr.length; i<=_pos; i++){... */\n    tag_30:\n        /* \"dynamicsizearr.sol\":415:419  _pos */\n      dup3\n        /* \"dynamicsizearr.sol\":412:413  i */\n      dup2\n        /* \"dynamicsizearr.sol\":412:419  i<=_pos */\n      gt\n        /* \"dynamicsizearr.sol\":387:608  for(uint i = arr.length; i<=_pos; i++){... */\n      tag_31\n      jumpi\n        /* \"dynamicsizearr.sol\":460:464  _pos */\n      dup3\n        /* \"dynamicsizearr.sol\":446:449  arr */\n      0x00\n        /* \"dynamicsizearr.sol\":446:456  arr.length */\n      dup1\n      sload\n      swap1\n      pop\n        /* \"dynamicsizearr.sol\":446:464  arr.length != _pos */\n      eq\n        /* \"dynamicsizearr.sol\":443:578  if(arr.length != _pos){... */\n      tag_33\n      jumpi\n        /* \"dynamicsizearr.sol\":487:490  arr */\n      0x00\n        /* \"dynamicsizearr.sol\":496:497  0 */\n      dup1\n        /* \"dynamicsizearr.sol\":487:498  arr.push(0) */\n      dup1\n      0x01\n      dup2\n      sload\n      add\n      dup1\n      dup3\n      sstore\n      dup1\n      swap2\n      pop\n      pop\n      0x01\n      swap1\n      sub\n      swap1\n      0x00\n      mstore\n      keccak256(0x00, 0x20)\n      add\n      0x00\n      swap1\n      swap2\n      swap1\n      swap2\n      swap1\n      swap2\n      pop\n      sstore\n        /* \"dynamicsizearr.sol\":443:578  if(arr.length != _pos){... */\n      jump(tag_35)\n    tag_33:\n        /* \"dynamicsizearr.sol\":540:543  arr */\n      0x00\n        /* \"dynamicsizearr.sol\":549:555  _value */\n      dup3\n        /* \"dynamicsizearr.sol\":540:556  arr.push(_value) */\n      swap1\n      dup1\n      0x01\n      dup2\n      sload\n      add\n      dup1\n      dup3\n      sstore\n      dup1\n      swap2\n      pop\n      pop\n      0x01\n      swap1\n      sub\n      swap1\n      0x00\n      mstore\n      keccak256(0x00, 0x20)\n      add\n      0x00\n      swap1\n      swap2\n      swap1\n      swap2\n      swap1\n      swap2\n      pop\n      sstore\n        /* \"dynamicsizearr.sol\":443:578  if(arr.length != _pos){... */\n    tag_35:\n        /* \"dynamicsizearr.sol\":421:424  i++ */\n      dup1\n      dup1\n      tag_37\n      swap1\n      tag_38\n      jump\t// in\n    tag_37:\n      swap2\n      pop\n      pop\n        /* \"dynamicsizearr.sol\":387:608  for(uint i = arr.length; i<=_pos; i++){... */\n      jump(tag_30)\n    tag_31:\n      pop\n        /* \"dynamicsizearr.sol\":304:618  if(arr.length  > _pos){... */\n    tag_29:\n        /* \"dynamicsizearr.sol\":245:625  function updatearr(uint _pos, uint _value) public{... */\n      pop\n      pop\n      jump\t// out\n        /* \"#utility.yul\":7:146   */\n    tag_40:\n        /* \"#utility.yul\":53:58   */\n      0x00\n        /* \"#utility.yul\":91:97   */\n      dup2\n        /* \"#utility.yul\":78:98   */\n      calldataload\n        /* \"#utility.yul\":69:98   */\n      swap1\n      pop\n        /* \"#utility.yul\":107:140   */\n      tag_42\n        /* \"#utility.yul\":134:139   */\n      dup2\n        /* \"#utility.yul\":107:140   */\n      tag_43\n      jump\t// in\n    tag_42:\n        /* \"#utility.yul\":7:146   */\n      swap3\n      swap2\n      pop\n      pop\n      jump\t// out\n        /* \"#utility.yul\":152:626   */\n    tag_15:\n        /* \"#utility.yul\":220:226   */\n      0x00\n        /* \"#utility.yul\":228:234   */\n      dup1\n        /* \"#utility.yul\":277:279   */\n      0x40\n        /* \"#utility.yul\":265:274   */\n      dup4\n        /* \"#utility.yul\":256:263   */\n      dup6\n        /* \"#utility.yul\":252:275   */\n      sub\n        /* \"#utility.yul\":248:280   */\n      slt\n        /* \"#utility.yul\":245:364   */\n      iszero\n      tag_45\n      jumpi\n        /* \"#utility.yul\":283:362   */\n      tag_46\n      tag_47\n      jump\t// in\n    tag_46:\n        /* \"#utility.yul\":245:364   */\n    tag_45:\n        /* \"#utility.yul\":403:404   */\n      0x00\n        /* \"#utility.yul\":428:481   */\n      tag_48\n        /* \"#utility.yul\":473:480   */\n      dup6\n        /* \"#utility.yul\":464:470   */\n      dup3\n        /* \"#utility.yul\":453:462   */\n      dup7\n        /* \"#utility.yul\":449:471   */\n      add\n        /* \"#utility.yul\":428:481   */\n      tag_40\n      jump\t// in\n    tag_48:\n        /* \"#utility.yul\":418:481   */\n      swap3\n      pop\n        /* \"#utility.yul\":374:491   */\n      pop\n        /* \"#utility.yul\":530:532   */\n      0x20\n        /* \"#utility.yul\":556:609   */\n      tag_49\n        /* \"#utility.yul\":601:608   */\n      dup6\n        /* \"#utility.yul\":592:598   */\n      dup3\n        /* \"#utility.yul\":581:590   */\n      dup7\n        /* \"#utility.yul\":577:599   */\n      add\n        /* \"#utility.yul\":556:609   */\n      tag_40\n      jump\t// in\n    tag_49:\n        /* \"#utility.yul\":546:609   */\n      swap2\n      pop\n        /* \"#utility.yul\":501:619   */\n      pop\n        /* \"#utility.yul\":152:626   */\n      swap3\n      pop\n      swap3\n      swap1\n      pop\n      jump\t// out\n        /* \"#utility.yul\":632:811   */\n    tag_50:\n        /* \"#utility.yul\":701:711   */\n      0x00\n        /* \"#utility.yul\":722:768   */\n      tag_52\n        /* \"#utility.yul\":764:767   */\n      dup4\n        /* \"#utility.yul\":756:762   */\n      dup4\n        /* \"#utility.yul\":722:768   */\n      tag_53\n      jump\t// in\n    tag_52:\n        /* \"#utility.yul\":800:804   */\n      0x20\n        /* \"#utility.yul\":795:798   */\n      dup4\n        /* \"#utility.yul\":791:805   */\n      add\n        /* \"#utility.yul\":777:805   */\n      swap1\n      pop\n        /* \"#utility.yul\":632:811   */\n      swap3\n      swap2\n      pop\n      pop\n      jump\t// out\n        /* \"#utility.yul\":847:1579   */\n    tag_54:\n        /* \"#utility.yul\":966:969   */\n      0x00\n        /* \"#utility.yul\":995:1049   */\n      tag_56\n        /* \"#utility.yul\":1043:1048   */\n      dup3\n        /* \"#utility.yul\":995:1049   */\n      tag_57\n      jump\t// in\n    tag_56:\n        /* \"#utility.yul\":1065:1151   */\n      tag_58\n        /* \"#utility.yul\":1144:1150   */\n      dup2\n        /* \"#utility.yul\":1139:1142   */\n      dup6\n        /* \"#utility.yul\":1065:1151   */\n      tag_59\n      jump\t// in\n    tag_58:\n        /* \"#utility.yul\":1058:1151   */\n      swap4\n      pop\n        /* \"#utility.yul\":1175:1231   */\n      tag_60\n        /* \"#utility.yul\":1225:1230   */\n      dup4\n        /* \"#utility.yul\":1175:1231   */\n      tag_61\n      jump\t// in\n    tag_60:\n        /* \"#utility.yul\":1254:1261   */\n      dup1\n        /* \"#utility.yul\":1285:1286   */\n      0x00\n        /* \"#utility.yul\":1270:1554   */\n    tag_62:\n        /* \"#utility.yul\":1295:1301   */\n      dup4\n        /* \"#utility.yul\":1292:1293   */\n      dup2\n        /* \"#utility.yul\":1289:1302   */\n      lt\n        /* \"#utility.yul\":1270:1554   */\n      iszero\n      tag_64\n      jumpi\n        /* \"#utility.yul\":1371:1377   */\n      dup2\n        /* \"#utility.yul\":1365:1378   */\n      mload\n        /* \"#utility.yul\":1398:1461   */\n      tag_65\n        /* \"#utility.yul\":1457:1460   */\n      dup9\n        /* \"#utility.yul\":1442:1455   */\n      dup3\n        /* \"#utility.yul\":1398:1461   */\n      tag_50\n      jump\t// in\n    tag_65:\n        /* \"#utility.yul\":1391:1461   */\n      swap8\n      pop\n        /* \"#utility.yul\":1484:1544   */\n      tag_66\n        /* \"#utility.yul\":1537:1543   */\n      dup4\n        /* \"#utility.yul\":1484:1544   */\n      tag_67\n      jump\t// in\n    tag_66:\n        /* \"#utility.yul\":1474:1544   */\n      swap3\n      pop\n        /* \"#utility.yul\":1330:1554   */\n      pop\n        /* \"#utility.yul\":1317:1318   */\n      0x01\n        /* \"#utility.yul\":1314:1315   */\n      dup2\n        /* \"#utility.yul\":1310:1319   */\n      add\n        /* \"#utility.yul\":1305:1319   */\n      swap1\n      pop\n        /* \"#utility.yul\":1270:1554   */\n      jump(tag_62)\n    tag_64:\n        /* \"#utility.yul\":1274:1288   */\n      pop\n        /* \"#utility.yul\":1570:1573   */\n      dup6\n        /* \"#utility.yul\":1563:1573   */\n      swap4\n      pop\n        /* \"#utility.yul\":971:1579   */\n      pop\n      pop\n      pop\n        /* \"#utility.yul\":847:1579   */\n      swap3\n      swap2\n      pop\n      pop\n      jump\t// out\n        /* \"#utility.yul\":1585:1693   */\n    tag_53:\n        /* \"#utility.yul\":1662:1686   */\n      tag_69\n        /* \"#utility.yul\":1680:1685   */\n      dup2\n        /* \"#utility.yul\":1662:1686   */\n      tag_70\n      jump\t// in\n    tag_69:\n        /* \"#utility.yul\":1657:1660   */\n      dup3\n        /* \"#utility.yul\":1650:1687   */\n      mstore\n        /* \"#utility.yul\":1585:1693   */\n      pop\n      pop\n      jump\t// out\n        /* \"#utility.yul\":1699:2072   */\n    tag_9:\n        /* \"#utility.yul\":1842:1846   */\n      0x00\n        /* \"#utility.yul\":1880:1882   */\n      0x20\n        /* \"#utility.yul\":1869:1878   */\n      dup3\n        /* \"#utility.yul\":1865:1883   */\n      add\n        /* \"#utility.yul\":1857:1883   */\n      swap1\n      pop\n        /* \"#utility.yul\":1929:1938   */\n      dup2\n        /* \"#utility.yul\":1923:1927   */\n      dup2\n        /* \"#utility.yul\":1919:1939   */\n      sub\n        /* \"#utility.yul\":1915:1916   */\n      0x00\n        /* \"#utility.yul\":1904:1913   */\n      dup4\n        /* \"#utility.yul\":1900:1917   */\n      add\n        /* \"#utility.yul\":1893:1940   */\n      mstore\n        /* \"#utility.yul\":1957:2065   */\n      tag_72\n        /* \"#utility.yul\":2060:2064   */\n      dup2\n        /* \"#utility.yul\":2051:2057   */\n      dup5\n        /* \"#utility.yul\":1957:2065   */\n      tag_54\n      jump\t// in\n    tag_72:\n        /* \"#utility.yul\":1949:2065   */\n      swap1\n      pop\n        /* \"#utility.yul\":1699:2072   */\n      swap3\n      swap2\n      pop\n      pop\n      jump\t// out\n        /* \"#utility.yul\":2159:2291   */\n    tag_61:\n        /* \"#utility.yul\":2226:2230   */\n      0x00\n        /* \"#utility.yul\":2249:2252   */\n      dup2\n        /* \"#utility.yul\":2241:2252   */\n      swap1\n      pop\n        /* \"#utility.yul\":2279:2283   */\n      0x20\n        /* \"#utility.yul\":2274:2277   */\n      dup3\n        /* \"#utility.yul\":2270:2284   */\n      add\n        /* \"#utility.yul\":2262:2284   */\n      swap1\n      pop\n        /* \"#utility.yul\":2159:2291   */\n      swap2\n      swap1\n      pop\n      jump\t// out\n        /* \"#utility.yul\":2297:2411   */\n    tag_57:\n        /* \"#utility.yul\":2364:2370   */\n      0x00\n        /* \"#utility.yul\":2398:2403   */\n      dup2\n        /* \"#utility.yul\":2392:2404   */\n      mload\n        /* \"#utility.yul\":2382:2404   */\n      swap1\n      pop\n        /* \"#utility.yul\":2297:2411   */\n      swap2\n      swap1\n      pop\n      jump\t// out\n        /* \"#utility.yul\":2417:2530   */\n    tag_67:\n        /* \"#utility.yul\":2487:2491   */\n      0x00\n        /* \"#utility.yul\":2519:2523   */\n      0x20\n        /* \"#utility.yul\":2514:2517   */\n      dup3\n        /* \"#utility.yul\":2510:2524   */\n      add\n        /* \"#utility.yul\":2502:2524   */\n      swap1\n      pop\n        /* \"#utility.yul\":2417:2530   */\n      swap2\n      swap1\n      pop\n      jump\t// out\n        /* \"#utility.yul\":2536:2720   */\n    tag_59:\n        /* \"#utility.yul\":2635:2646   */\n      0x00\n        /* \"#utility.yul\":2669:2675   */\n      dup3\n        /* \"#utility.yul\":2664:2667   */\n      dup3\n        /* \"#utility.yul\":2657:2676   */\n      mstore\n        /* \"#utility.yul\":2709:2713   */\n      0x20\n        /* \"#utility.yul\":2704:2707   */\n      dup3\n        /* \"#utility.yul\":2700:2714   */\n      add\n        /* \"#utility.yul\":2685:2714   */\n      swap1\n      pop\n        /* \"#utility.yul\":2536:2720   */\n      swap3\n      swap2\n      pop\n      pop\n      jump\t// out\n        /* \"#utility.yul\":2726:2803   */\n    tag_70:\n        /* \"#utility.yul\":2763:2770   */\n      0x00\n        /* \"#utility.yul\":2792:2797   */\n      dup2\n        /* \"#utility.yul\":2781:2797   */\n      swap1\n      pop\n        /* \"#utility.yul\":2726:2803   */\n      swap2\n      swap1\n      pop\n      jump\t// out\n        /* \"#utility.yul\":2809:3042   */\n    tag_38:\n        /* \"#utility.yul\":2848:2851   */\n      0x00\n        /* \"#utility.yul\":2871:2895   */\n      tag_81\n        /* \"#utility.yul\":2889:2894   */\n      dup3\n        /* \"#utility.yul\":2871:2895   */\n      tag_70\n      jump\t// in\n    tag_81:\n        /* \"#utility.yul\":2862:2895   */\n      swap2\n      pop\n        /* \"#utility.yul\":2917:2983   */\n      0xffffffffffffffffffffffffffffffffffffffffffffffffffffffffffffffff\n        /* \"#utility.yul\":2910:2915   */\n      dup3\n        /* \"#utility.yul\":2907:2984   */\n      eq\n        /* \"#utility.yul\":2904:3007   */\n      iszero\n      tag_82\n      jumpi\n        /* \"#utility.yul\":2987:3005   */\n      tag_83\n      tag_84\n      jump\t// in\n    tag_83:\n        /* \"#utility.yul\":2904:3007   */\n    tag_82:\n        /* \"#utility.yul\":3034:3035   */\n      0x01\n        /* \"#utility.yul\":3027:3032   */\n      dup3\n        /* \"#utility.yul\":3023:3036   */\n      add\n        /* \"#utility.yul\":3016:3036   */\n      swap1\n      pop\n        /* \"#utility.yul\":2809:3042   */\n      swap2\n      swap1\n      pop\n      jump\t// out\n        /* \"#utility.yul\":3048:3228   */\n    tag_84:\n        /* \"#utility.yul\":3096:3173   */\n      0x4e487b7100000000000000000000000000000000000000000000000000000000\n        /* \"#utility.yul\":3093:3094   */\n      0x00\n        /* \"#utility.yul\":3086:3174   */\n      mstore\n        /* \"#utility.yul\":3193:3197   */\n      0x11\n        /* \"#utility.yul\":3190:3191   */\n      0x04\n        /* \"#utility.yul\":3183:3198   */\n      mstore\n        /* \"#utility.yul\":3217:3221   */\n      0x24\n        /* \"#utility.yul\":3214:3215   */\n      0x00\n        /* \"#utility.yul\":3207:3222   */\n      revert\n        /* \"#utility.yul\":3234:3414   */\n    tag_27:\n        /* \"#utility.yul\":3282:3359   */\n      0x4e487b7100000000000000000000000000000000000000000000000000000000\n        /* \"#utility.yul\":3279:3280   */\n      0x00\n        /* \"#utility.yul\":3272:3360   */\n      mstore\n        /* \"#utility.yul\":3379:3383   */\n      0x32\n        /* \"#utility.yul\":3376:3377   */\n      0x04\n        /* \"#utility.yul\":3369:3384   */\n      mstore\n        /* \"#utility.yul\":3403:3407   */\n      0x24\n        /* \"#utility.yul\":3400:3401   */\n      0x00\n        /* \"#utility.yul\":3393:3408   */\n      revert\n        /* \"#utility.yul\":3543:3660   */\n    tag_47:\n        /* \"#utility.yul\":3652:3653   */\n      0x00\n        /* \"#utility.yul\":3649:3650   */\n      dup1\n        /* \"#utility.yul\":3642:3654   */\n      revert\n        /* \"#utility.yul\":3666:3788   */\n    tag_43:\n        /* \"#utility.yul\":3739:3763   */\n      tag_91\n        /* \"#utility.yul\":3757:3762   */\n      dup2\n        /* \"#utility.yul\":3739:3763   */\n      tag_70\n      jump\t// in\n    tag_91:\n        /* \"#utility.yul\":3732:3737   */\n      dup2\n        /* \"#utility.yul\":3729:3764   */\n      eq\n        /* \"#utility.yul\":3719:3782   */\n      tag_92\n      jumpi\n        /* \"#utility.yul\":3778:3779   */\n      0x00\n        /* \"#utility.yul\":3775:3776   */\n      dup1\n        /* \"#utility.yul\":3768:3780   */\n      revert\n        /* \"#utility.yul\":3719:3782   */\n    tag_92:\n        /* \"#utility.yul\":3666:3788   */\n      pop\n      jump\t// out\n\n    auxdata: 0xa2646970667358221220a38f793f199fdb57478fbefec71cb752a35d9fcf82d84664d01dbea916dbad4b64736f6c63430008070033\n}\n",
				"bytecode": {
					"linkReferences": {},
					"object": "60806040526040518060a00160405280600a60ff168152602001601460ff168152602001601e60ff168152602001602860ff168152602001603260ff16815250600090600561004f929190610062565b5034801561005c57600080fd5b506100d1565b8280548282559060005260206000209081019282156100a3579160200282015b828111156100a2578251829060ff16905591602001919060010190610082565b5b5090506100b091906100b4565b5090565b5b808211156100cd5760008160009055506001016100b5565b5090565b610448806100e06000396000f3fe608060405234801561001057600080fd5b50600436106100415760003560e01c80630469a5e2146100465780636bc7deae146100645780639fd44f5a14610082575b600080fd5b61004e61009e565b60405161005b91906102ea565b60405180910390f35b61006c6100f6565b60405161007991906102ea565b60405180910390f35b61009c60048036038101906100979190610225565b61014e565b005b606060008054806020026020016040519081016040528092919081815260200182805480156100ec57602002820191906000526020600020905b8154815260200190600101908083116100d8575b5050505050905090565b6060600080548060200260200160405190810160405280929190818152602001828054801561014457602002820191906000526020600020905b815481526020019060010190808311610130575b5050505050905090565b8160008054905011156101835780600083815481106101705761016f6103c7565b5b906000526020600020018190555061020c565b6000808054905090505b82811161020a5782600080549050146101cd57600080806001815401808255809150506001900390600052602060002001600090919091909150556101f7565b60008290806001815401808255809150506001900390600052602060002001600090919091909150555b80806102029061034f565b91505061018d565b505b5050565b60008135905061021f816103fb565b92915050565b6000806040838503121561023c5761023b6103f6565b5b600061024a85828601610210565b925050602061025b85828601610210565b9150509250929050565b600061027183836102db565b60208301905092915050565b60006102888261031c565b6102928185610334565b935061029d8361030c565b8060005b838110156102ce5781516102b58882610265565b97506102c083610327565b9250506001810190506102a1565b5085935050505092915050565b6102e481610345565b82525050565b60006020820190508181036000830152610304818461027d565b905092915050565b6000819050602082019050919050565b600081519050919050565b6000602082019050919050565b600082825260208201905092915050565b6000819050919050565b600061035a82610345565b91507fffffffffffffffffffffffffffffffffffffffffffffffffffffffffffffffff82141561038d5761038c610398565b5b600182019050919050565b7f4e487b7100000000000000000000000000000000000000000000000000000000600052601160045260246000fd5b7f4e487b7100000000000000000000000000000000000000000000000000000000600052603260045260246000fd5b600080fd5b61040481610345565b811461040f57600080fd5b5056fea2646970667358221220a38f793f199fdb57478fbefec71cb752a35d9fcf82d84664d01dbea916dbad4b64736f6c63430008070033",
					"opcodes": "PUSH1 0x80 PUSH1 0x40 MSTORE PUSH1 0x40 MLOAD DUP1 PUSH1 0xA0 ADD PUSH1 0x40 MSTORE DUP1 PUSH1 0xA PUSH1 0xFF AND DUP2 MSTORE PUSH1 0x20 ADD PUSH1 0x14 PUSH1 0xFF AND DUP2 MSTORE PUSH1 0x20 ADD PUSH1 0x1E PUSH1 0xFF AND DUP2 MSTORE PUSH1 0x20 ADD PUSH1 0x28 PUSH1 0xFF AND DUP2 MSTORE PUSH1 0x20 ADD PUSH1 0x32 PUSH1 0xFF AND DUP2 MSTORE POP PUSH1 0x0 SWAP1 PUSH1 0x5 PUSH2 0x4F SWAP3 SWAP2 SWAP1 PUSH2 0x62 JUMP JUMPDEST POP CALLVALUE DUP1 ISZERO PUSH2 0x5C JUMPI PUSH1 0x0 DUP1 REVERT JUMPDEST POP PUSH2 0xD1 JUMP JUMPDEST DUP3 DUP1 SLOAD DUP3 DUP3 SSTORE SWAP1 PUSH1 0x0 MSTORE PUSH1 0x20 PUSH1 0x0 KECCAK256 SWAP1 DUP2 ADD SWAP3 DUP3 ISZERO PUSH2 0xA3 JUMPI SWAP2 PUSH1 0x20 MUL DUP3 ADD JUMPDEST DUP3 DUP2 GT ISZERO PUSH2 0xA2 JUMPI DUP3 MLOAD DUP3 SWAP1 PUSH1 0xFF AND SWAP1 SSTORE SWAP2 PUSH1 0x20 ADD SWAP2 SWAP1 PUSH1 0x1 ADD SWAP1 PUSH2 0x82 JUMP JUMPDEST JUMPDEST POP SWAP1 POP PUSH2 0xB0 SWAP2 SWAP1 PUSH2 0xB4 JUMP JUMPDEST POP SWAP1 JUMP JUMPDEST JUMPDEST DUP1 DUP3 GT ISZERO PUSH2 0xCD JUMPI PUSH1 0x0 DUP2 PUSH1 0x0 SWAP1 SSTORE POP PUSH1 0x1 ADD PUSH2 0xB5 JUMP JUMPDEST POP SWAP1 JUMP JUMPDEST PUSH2 0x448 DUP1 PUSH2 0xE0 PUSH1 0x0 CODECOPY PUSH1 0x0 RETURN INVALID PUSH1 0x80 PUSH1 0x40 MSTORE CALLVALUE DUP1 ISZERO PUSH2 0x10 JUMPI PUSH1 0x0 DUP1 REVERT JUMPDEST POP PUSH1 0x4 CALLDATASIZE LT PUSH2 0x41 JUMPI PUSH1 0x0 CALLDATALOAD PUSH1 0xE0 SHR DUP1 PUSH4 0x469A5E2 EQ PUSH2 0x46 JUMPI DUP1 PUSH4 0x6BC7DEAE EQ PUSH2 0x64 JUMPI DUP1 PUSH4 0x9FD44F5A EQ PUSH2 0x82 JUMPI JUMPDEST PUSH1 0x0 DUP1 REVERT JUMPDEST PUSH2 0x4E PUSH2 0x9E JUMP JUMPDEST PUSH1 0x40 MLOAD PUSH2 0x5B SWAP2 SWAP1 PUSH2 0x2EA JUMP JUMPDEST PUSH1 0x40 MLOAD DUP1 SWAP2 SUB SWAP1 RETURN JUMPDEST PUSH2 0x6C PUSH2 0xF6 JUMP JUMPDEST PUSH1 0x40 MLOAD PUSH2 0x79 SWAP2 SWAP1 PUSH2 0x2EA JUMP JUMPDEST PUSH1 0x40 MLOAD DUP1 SWAP2 SUB SWAP1 RETURN JUMPDEST PUSH2 0x9C PUSH1 0x4 DUP1 CALLDATASIZE SUB DUP2 ADD SWAP1 PUSH2 0x97 SWAP2 SWAP1 PUSH2 0x225 JUMP JUMPDEST PUSH2 0x14E JUMP JUMPDEST STOP JUMPDEST PUSH1 0x60 PUSH1 0x0 DUP1 SLOAD DUP1 PUSH1 0x20 MUL PUSH1 0x20 ADD PUSH1 0x40 MLOAD SWAP1 DUP2 ADD PUSH1 0x40 MSTORE DUP1 SWAP3 SWAP2 SWAP1 DUP2 DUP2 MSTORE PUSH1 0x20 ADD DUP3 DUP1 SLOAD DUP1 ISZERO PUSH2 0xEC JUMPI PUSH1 0x20 MUL DUP3 ADD SWAP2 SWAP1 PUSH1 0x0 MSTORE PUSH1 0x20 PUSH1 0x0 KECCAK256 SWAP1 JUMPDEST DUP2 SLOAD DUP2 MSTORE PUSH1 0x20 ADD SWAP1 PUSH1 0x1 ADD SWAP1 DUP1 DUP4 GT PUSH2 0xD8 JUMPI JUMPDEST POP POP POP POP POP SWAP1 POP SWAP1 JUMP JUMPDEST PUSH1 0x60 PUSH1 0x0 DUP1 SLOAD DUP1 PUSH1 0x20 MUL PUSH1 0x20 ADD PUSH1 0x40 MLOAD SWAP1 DUP2 ADD PUSH1 0x40 MSTORE DUP1 SWAP3 SWAP2 SWAP1 DUP2 DUP2 MSTORE PUSH1 0x20 ADD DUP3 DUP1 SLOAD DUP1 ISZERO PUSH2 0x144 JUMPI PUSH1 0x20 MUL DUP3 ADD SWAP2 SWAP1 PUSH1 0x0 MSTORE PUSH1 0x20 PUSH1 0x0 KECCAK256 SWAP1 JUMPDEST DUP2 SLOAD DUP2 MSTORE PUSH1 0x20 ADD SWAP1 PUSH1 0x1 ADD SWAP1 DUP1 DUP4 GT PUSH2 0x130 JUMPI JUMPDEST POP POP POP POP POP SWAP1 POP SWAP1 JUMP JUMPDEST DUP2 PUSH1 0x0 DUP1 SLOAD SWAP1 POP GT ISZERO PUSH2 0x183 JUMPI DUP1 PUSH1 0x0 DUP4 DUP2 SLOAD DUP2 LT PUSH2 0x170 JUMPI PUSH2 0x16F PUSH2 0x3C7 JUMP JUMPDEST JUMPDEST SWAP1 PUSH1 0x0 MSTORE PUSH1 0x20 PUSH1 0x0 KECCAK256 ADD DUP2 SWAP1 SSTORE POP PUSH2 0x20C JUMP JUMPDEST PUSH1 0x0 DUP1 DUP1 SLOAD SWAP1 POP SWAP1 POP JUMPDEST DUP3 DUP2 GT PUSH2 0x20A JUMPI DUP3 PUSH1 0x0 DUP1 SLOAD SWAP1 POP EQ PUSH2 0x1CD JUMPI PUSH1 0x0 DUP1 DUP1 PUSH1 0x1 DUP2 SLOAD ADD DUP1 DUP3 SSTORE DUP1 SWAP2 POP POP PUSH1 0x1 SWAP1 SUB SWAP1 PUSH1 0x0 MSTORE PUSH1 0x20 PUSH1 0x0 KECCAK256 ADD PUSH1 0x0 SWAP1 SWAP2 SWAP1 SWAP2 SWAP1 SWAP2 POP SSTORE PUSH2 0x1F7 JUMP JUMPDEST PUSH1 0x0 DUP3 SWAP1 DUP1 PUSH1 0x1 DUP2 SLOAD ADD DUP1 DUP3 SSTORE DUP1 SWAP2 POP POP PUSH1 0x1 SWAP1 SUB SWAP1 PUSH1 0x0 MSTORE PUSH1 0x20 PUSH1 0x0 KECCAK256 ADD PUSH1 0x0 SWAP1 SWAP2 SWAP1 SWAP2 SWAP1 SWAP2 POP SSTORE JUMPDEST DUP1 DUP1 PUSH2 0x202 SWAP1 PUSH2 0x34F JUMP JUMPDEST SWAP2 POP POP PUSH2 0x18D JUMP JUMPDEST POP JUMPDEST POP POP JUMP JUMPDEST PUSH1 0x0 DUP2 CALLDATALOAD SWAP1 POP PUSH2 0x21F DUP2 PUSH2 0x3FB JUMP JUMPDEST SWAP3 SWAP2 POP POP JUMP JUMPDEST PUSH1 0x0 DUP1 PUSH1 0x40 DUP4 DUP6 SUB SLT ISZERO PUSH2 0x23C JUMPI PUSH2 0x23B PUSH2 0x3F6 JUMP JUMPDEST JUMPDEST PUSH1 0x0 PUSH2 0x24A DUP6 DUP3 DUP7 ADD PUSH2 0x210 JUMP JUMPDEST SWAP3 POP POP PUSH1 0x20 PUSH2 0x25B DUP6 DUP3 DUP7 ADD PUSH2 0x210 JUMP JUMPDEST SWAP2 POP POP SWAP3 POP SWAP3 SWAP1 POP JUMP JUMPDEST PUSH1 0x0 PUSH2 0x271 DUP4 DUP4 PUSH2 0x2DB JUMP JUMPDEST PUSH1 0x20 DUP4 ADD SWAP1 POP SWAP3 SWAP2 POP POP JUMP JUMPDEST PUSH1 0x0 PUSH2 0x288 DUP3 PUSH2 0x31C JUMP JUMPDEST PUSH2 0x292 DUP2 DUP6 PUSH2 0x334 JUMP JUMPDEST SWAP4 POP PUSH2 0x29D DUP4 PUSH2 0x30C JUMP JUMPDEST DUP1 PUSH1 0x0 JUMPDEST DUP4 DUP2 LT ISZERO PUSH2 0x2CE JUMPI DUP2 MLOAD PUSH2 0x2B5 DUP9 DUP3 PUSH2 0x265 JUMP JUMPDEST SWAP8 POP PUSH2 0x2C0 DUP4 PUSH2 0x327 JUMP JUMPDEST SWAP3 POP POP PUSH1 0x1 DUP2 ADD SWAP1 POP PUSH2 0x2A1 JUMP JUMPDEST POP DUP6 SWAP4 POP POP POP POP SWAP3 SWAP2 POP POP JUMP JUMPDEST PUSH2 0x2E4 DUP2 PUSH2 0x345 JUMP JUMPDEST DUP3 MSTORE POP POP JUMP JUMPDEST PUSH1 0x0 PUSH1 0x20 DUP3 ADD SWAP1 POP DUP2 DUP2 SUB PUSH1 0x0 DUP4 ADD MSTORE PUSH2 0x304 DUP2 DUP5 PUSH2 0x27D JUMP JUMPDEST SWAP1 POP SWAP3 SWAP2 POP POP JUMP JUMPDEST PUSH1 0x0 DUP2 SWAP1 POP PUSH1 0x20 DUP3 ADD SWAP1 POP SWAP2 SWAP1 POP JUMP JUMPDEST PUSH1 0x0 DUP2 MLOAD SWAP1 POP SWAP2 SWAP1 POP JUMP JUMPDEST PUSH1 0x0 PUSH1 0x20 DUP3 ADD SWAP1 POP SWAP2 SWAP1 POP JUMP JUMPDEST PUSH1 0x0 DUP3 DUP3 MSTORE PUSH1 0x20 DUP3 ADD SWAP1 POP SWAP3 SWAP2 POP POP JUMP JUMPDEST PUSH1 0x0 DUP2 SWAP1 POP SWAP2 SWAP1 POP JUMP JUMPDEST PUSH1 0x0 PUSH2 0x35A DUP3 PUSH2 0x345 JUMP JUMPDEST SWAP2 POP PUSH32 0xFFFFFFFFFFFFFFFFFFFFFFFFFFFFFFFFFFFFFFFFFFFFFFFFFFFFFFFFFFFFFFFF DUP3 EQ ISZERO PUSH2 0x38D JUMPI PUSH2 0x38C PUSH2 0x398 JUMP JUMPDEST JUMPDEST PUSH1 0x1 DUP3 ADD SWAP1 POP SWAP2 SWAP1 POP JUMP JUMPDEST PUSH32 0x4E487B7100000000000000000000000000000000000000000000000000000000 PUSH1 0x0 MSTORE PUSH1 0x11 PUSH1 0x4 MSTORE PUSH1 0x24 PUSH1 0x0 REVERT JUMPDEST PUSH32 0x4E487B7100000000000000000000000000000000000000000000000000000000 PUSH1 0x0 MSTORE PUSH1 0x32 PUSH1 0x4 MSTORE PUSH1 0x24 PUSH1 0x0 REVERT JUMPDEST PUSH1 0x0 DUP1 REVERT JUMPDEST PUSH2 0x404 DUP2 PUSH2 0x345 JUMP JUMPDEST DUP2 EQ PUSH2 0x40F JUMPI PUSH1 0x0 DUP1 REVERT JUMPDEST POP JUMP INVALID LOG2 PUSH5 0x6970667358 0x22 SLT KECCAK256 LOG3 DUP16 PUSH26 0x3F199FDB57478FBEFEC71CB752A35D9FCF82D84664D01DBEA916 0xDB 0xAD 0x4B PUSH5 0x736F6C6343 STOP ADDMOD SMOD STOP CALLER "
				},
				"gasEstimates": {
					"creation": {
						"codeDepositCost": "219200",
						"executionCost": "infinite",
						"totalCost": "infinite"
					},
					"external": {
						"getarr()": "infinite",
						"pushnum()": "infinite",
						"updatearr(uint256,uint256)": "infinite"
					}
				},
				"methodIdentifiers": {
					"getarr()": "6bc7deae",
					"pushnum()": "0469a5e2",
					"updatearr(uint256,uint256)": "9fd44f5a"
				}
			},
			"storageLayout": {
				"storage": [
					{
						"astId": 10,
						"contract": "dynamicsizearr.sol:fixedsizearray",
						"label": "arr",
						"offset": 0,
						"slot": "0",
						"type": "t_array(t_uint256)dyn_storage"
					}
				],
				"types": {
					"t_array(t_uint256)dyn_storage": {
						"base": "t_uint256",
						"encoding": "dynamic_array",
						"label": "uint256[]",
						"numberOfBytes": "32"
					},
					"t_uint256": {
						"encoding": "inplace",
						"label": "uint256",
						"numberOfBytes": "32"
					}
				}
			},
			"userdoc": {
				"kind": "user",
				"methods": {},
				"version": 1
			}
		}
	}
}