{
	"hashImplementation.sol": {
		"hashImplementation": {
			"abi": [
				{
					"inputs": [
						{
							"internalType": "uint256",
							"name": "_x",
							"type": "uint256"
						},
						{
							"internalType": "string",
							"name": "_str",
							"type": "string"
						},
						{
							"internalType": "address",
							"name": "_add",
							"type": "address"
						}
					],
					"name": "hashRipemd160",
					"outputs": [
						{
							"internalType": "bytes20",
							"name": "",
							"type": "bytes20"
						}
					],
					"stateMutability": "nonpayable",
					"type": "function"
				},
				{
					"inputs": [
						{
							"internalType": "uint256",
							"name": "_x",
							"type": "uint256"
						},
						{
							"internalType": "string",
							"name": "_str",
							"type": "string"
						},
						{
							"internalType": "address",
							"name": "_add",
							"type": "address"
						}
					],
					"name": "hashkeccak256",
					"outputs": [
						{
							"internalType": "bytes32",
							"name": "",
							"type": "bytes32"
						}
					],
					"stateMutability": "nonpayable",
					"type": "function"
				},
				{
					"inputs": [
						{
							"internalType": "uint256",
							"name": "_x",
							"type": "uint256"
						},
						{
							"internalType": "string",
							"name": "_str",
							"type": "string"
						},
						{
							"internalType": "address",
							"name": "_add",
							"type": "address"
						}
					],
					"name": "hashshar256",
					"outputs": [
						{
							"internalType": "bytes32",
							"name": "",
							"type": "bytes32"
						}
					],
					"stateMutability": "nonpayable",
					"type": "function"
				}
			],
			"devdoc": {
				"kind": "dev",
				"methods": {},
				"version": 1
			},
			"evm": {
				"assembly": "    /* \"hashImplementation.sol\":63:526  contract hashImplementation{... */\n  mstore(0x40, 0x80)\n  callvalue\n  dup1\n  iszero\n  tag_1\n  jumpi\n  0x00\n  dup1\n  revert\ntag_1:\n  pop\n  dataSize(sub_0)\n  dup1\n  dataOffset(sub_0)\n  0x00\n  codecopy\n  0x00\n  return\nstop\n\nsub_0: assembly {\n        /* \"hashImplementation.sol\":63:526  contract hashImplementation{... */\n      mstore(0x40, 0x80)\n      callvalue\n      dup1\n      iszero\n      tag_1\n      jumpi\n      0x00\n      dup1\n      revert\n    tag_1:\n      pop\n      jumpi(tag_2, lt(calldatasize, 0x04))\n      shr(0xe0, calldataload(0x00))\n      dup1\n      0x4364b114\n      eq\n      tag_3\n      jumpi\n      dup1\n      0x6558b805\n      eq\n      tag_4\n      jumpi\n      dup1\n      0xcf97b7ec\n      eq\n      tag_5\n      jumpi\n    tag_2:\n      0x00\n      dup1\n      revert\n        /* \"hashImplementation.sol\":419:524  function hashRipemd160(uint _x, string memory _str, address _add) public returns(bytes20){... */\n    tag_3:\n      tag_6\n      0x04\n      dup1\n      calldatasize\n      sub\n      dup2\n      add\n      swap1\n      tag_7\n      swap2\n      swap1\n      tag_8\n      jump\t// in\n    tag_7:\n      tag_9\n      jump\t// in\n    tag_6:\n      mload(0x40)\n      tag_10\n      swap2\n      swap1\n      tag_11\n      jump\t// in\n    tag_10:\n      mload(0x40)\n      dup1\n      swap2\n      sub\n      swap1\n      return\n        /* \"hashImplementation.sol\":97:255  function hashkeccak256(uint _x, string memory _str, address _add) public returns(bytes32){... */\n    tag_4:\n      tag_12\n      0x04\n      dup1\n      calldatasize\n      sub\n      dup2\n      add\n      swap1\n      tag_13\n      swap2\n      swap1\n      tag_8\n      jump\t// in\n    tag_13:\n      tag_14\n      jump\t// in\n    tag_12:\n      mload(0x40)\n      tag_15\n      swap2\n      swap1\n      tag_16\n      jump\t// in\n    tag_15:\n      mload(0x40)\n      dup1\n      swap2\n      sub\n      swap1\n      return\n        /* \"hashImplementation.sol\":260:414  function hashshar256(uint _x, string memory _str, address _add) public returns(bytes32){... */\n    tag_5:\n      tag_17\n      0x04\n      dup1\n      calldatasize\n      sub\n      dup2\n      add\n      swap1\n      tag_18\n      swap2\n      swap1\n      tag_8\n      jump\t// in\n    tag_18:\n      tag_19\n      jump\t// in\n    tag_17:\n      mload(0x40)\n      tag_20\n      swap2\n      swap1\n      tag_16\n      jump\t// in\n    tag_20:\n      mload(0x40)\n      dup1\n      swap2\n      sub\n      swap1\n      return\n        /* \"hashImplementation.sol\":419:524  function hashRipemd160(uint _x, string memory _str, address _add) public returns(bytes20){... */\n    tag_9:\n        /* \"hashImplementation.sol\":500:507  bytes20 */\n      0x00\n        /* \"hashImplementation.sol\":419:524  function hashRipemd160(uint _x, string memory _str, address _add) public returns(bytes20){... */\n      swap4\n      swap3\n      pop\n      pop\n      pop\n      jump\t// out\n        /* \"hashImplementation.sol\":97:255  function hashkeccak256(uint _x, string memory _str, address _add) public returns(bytes32){... */\n    tag_14:\n        /* \"hashImplementation.sol\":178:185  bytes32 */\n      0x00\n        /* \"hashImplementation.sol\":231:233  _x */\n      dup4\n        /* \"hashImplementation.sol\":235:239  _str */\n      dup4\n        /* \"hashImplementation.sol\":241:245  _add */\n      dup4\n        /* \"hashImplementation.sol\":214:246  abi.encodePacked(_x, _str, _add) */\n      add(0x20, mload(0x40))\n      tag_23\n      swap4\n      swap3\n      swap2\n      swap1\n      tag_24\n      jump\t// in\n    tag_23:\n      mload(0x40)\n      0x20\n      dup2\n      dup4\n      sub\n      sub\n      dup2\n      mstore\n      swap1\n      0x40\n      mstore\n        /* \"hashImplementation.sol\":204:247  keccak256(abi.encodePacked(_x, _str, _add)) */\n      dup1\n      mload\n      swap1\n      0x20\n      add\n      keccak256\n        /* \"hashImplementation.sol\":197:247  return keccak256(abi.encodePacked(_x, _str, _add)) */\n      swap1\n      pop\n        /* \"hashImplementation.sol\":97:255  function hashkeccak256(uint _x, string memory _str, address _add) public returns(bytes32){... */\n      swap4\n      swap3\n      pop\n      pop\n      pop\n      jump\t// out\n        /* \"hashImplementation.sol\":260:414  function hashshar256(uint _x, string memory _str, address _add) public returns(bytes32){... */\n    tag_19:\n        /* \"hashImplementation.sol\":339:346  bytes32 */\n      0x00\n        /* \"hashImplementation.sol\":391:393  _x */\n      dup4\n        /* \"hashImplementation.sol\":395:399  _str */\n      dup4\n        /* \"hashImplementation.sol\":401:405  _add */\n      dup4\n        /* \"hashImplementation.sol\":374:406  abi.encodePacked(_x, _str, _add) */\n      add(0x20, mload(0x40))\n      tag_26\n      swap4\n      swap3\n      swap2\n      swap1\n      tag_24\n      jump\t// in\n    tag_26:\n      mload(0x40)\n      0x20\n      dup2\n      dup4\n      sub\n      sub\n      dup2\n      mstore\n      swap1\n      0x40\n      mstore\n        /* \"hashImplementation.sol\":364:407  keccak256(abi.encodePacked(_x, _str, _add)) */\n      dup1\n      mload\n      swap1\n      0x20\n      add\n      keccak256\n        /* \"hashImplementation.sol\":357:407  return keccak256(abi.encodePacked(_x, _str, _add)) */\n      swap1\n      pop\n        /* \"hashImplementation.sol\":260:414  function hashshar256(uint _x, string memory _str, address _add) public returns(bytes32){... */\n      swap4\n      swap3\n      pop\n      pop\n      pop\n      jump\t// out\n        /* \"#utility.yul\":7:419   */\n    tag_28:\n        /* \"#utility.yul\":85:90   */\n      0x00\n        /* \"#utility.yul\":110:176   */\n      tag_30\n        /* \"#utility.yul\":126:175   */\n      tag_31\n        /* \"#utility.yul\":168:174   */\n      dup5\n        /* \"#utility.yul\":126:175   */\n      tag_32\n      jump\t// in\n    tag_31:\n        /* \"#utility.yul\":110:176   */\n      tag_33\n      jump\t// in\n    tag_30:\n        /* \"#utility.yul\":101:176   */\n      swap1\n      pop\n        /* \"#utility.yul\":199:205   */\n      dup3\n        /* \"#utility.yul\":192:197   */\n      dup2\n        /* \"#utility.yul\":185:206   */\n      mstore\n        /* \"#utility.yul\":237:241   */\n      0x20\n        /* \"#utility.yul\":230:235   */\n      dup2\n        /* \"#utility.yul\":226:242   */\n      add\n        /* \"#utility.yul\":275:278   */\n      dup5\n        /* \"#utility.yul\":266:272   */\n      dup5\n        /* \"#utility.yul\":261:264   */\n      dup5\n        /* \"#utility.yul\":257:273   */\n      add\n        /* \"#utility.yul\":254:279   */\n      gt\n        /* \"#utility.yul\":251:363   */\n      iszero\n      tag_34\n      jumpi\n        /* \"#utility.yul\":282:361   */\n      tag_35\n      tag_36\n      jump\t// in\n    tag_35:\n        /* \"#utility.yul\":251:363   */\n    tag_34:\n        /* \"#utility.yul\":372:413   */\n      tag_37\n        /* \"#utility.yul\":406:412   */\n      dup5\n        /* \"#utility.yul\":401:404   */\n      dup3\n        /* \"#utility.yul\":396:399   */\n      dup6\n        /* \"#utility.yul\":372:413   */\n      tag_38\n      jump\t// in\n    tag_37:\n        /* \"#utility.yul\":91:419   */\n      pop\n        /* \"#utility.yul\":7:419   */\n      swap4\n      swap3\n      pop\n      pop\n      pop\n      jump\t// out\n        /* \"#utility.yul\":425:564   */\n    tag_39:\n        /* \"#utility.yul\":471:476   */\n      0x00\n        /* \"#utility.yul\":509:515   */\n      dup2\n        /* \"#utility.yul\":496:516   */\n      calldataload\n        /* \"#utility.yul\":487:516   */\n      swap1\n      pop\n        /* \"#utility.yul\":525:558   */\n      tag_41\n        /* \"#utility.yul\":552:557   */\n      dup2\n        /* \"#utility.yul\":525:558   */\n      tag_42\n      jump\t// in\n    tag_41:\n        /* \"#utility.yul\":425:564   */\n      swap3\n      swap2\n      pop\n      pop\n      jump\t// out\n        /* \"#utility.yul\":584:924   */\n    tag_43:\n        /* \"#utility.yul\":640:645   */\n      0x00\n        /* \"#utility.yul\":689:692   */\n      dup3\n        /* \"#utility.yul\":682:686   */\n      0x1f\n        /* \"#utility.yul\":674:680   */\n      dup4\n        /* \"#utility.yul\":670:687   */\n      add\n        /* \"#utility.yul\":666:693   */\n      slt\n        /* \"#utility.yul\":656:778   */\n      tag_45\n      jumpi\n        /* \"#utility.yul\":697:776   */\n      tag_46\n      tag_47\n      jump\t// in\n    tag_46:\n        /* \"#utility.yul\":656:778   */\n    tag_45:\n        /* \"#utility.yul\":814:820   */\n      dup2\n        /* \"#utility.yul\":801:821   */\n      calldataload\n        /* \"#utility.yul\":839:918   */\n      tag_48\n        /* \"#utility.yul\":914:917   */\n      dup5\n        /* \"#utility.yul\":906:912   */\n      dup3\n        /* \"#utility.yul\":899:903   */\n      0x20\n        /* \"#utility.yul\":891:897   */\n      dup7\n        /* \"#utility.yul\":887:904   */\n      add\n        /* \"#utility.yul\":839:918   */\n      tag_28\n      jump\t// in\n    tag_48:\n        /* \"#utility.yul\":830:918   */\n      swap2\n      pop\n        /* \"#utility.yul\":646:924   */\n      pop\n        /* \"#utility.yul\":584:924   */\n      swap3\n      swap2\n      pop\n      pop\n      jump\t// out\n        /* \"#utility.yul\":930:1069   */\n    tag_49:\n        /* \"#utility.yul\":976:981   */\n      0x00\n        /* \"#utility.yul\":1014:1020   */\n      dup2\n        /* \"#utility.yul\":1001:1021   */\n      calldataload\n        /* \"#utility.yul\":992:1021   */\n      swap1\n      pop\n        /* \"#utility.yul\":1030:1063   */\n      tag_51\n        /* \"#utility.yul\":1057:1062   */\n      dup2\n        /* \"#utility.yul\":1030:1063   */\n      tag_52\n      jump\t// in\n    tag_51:\n        /* \"#utility.yul\":930:1069   */\n      swap3\n      swap2\n      pop\n      pop\n      jump\t// out\n        /* \"#utility.yul\":1075:1874   */\n    tag_8:\n        /* \"#utility.yul\":1162:1168   */\n      0x00\n        /* \"#utility.yul\":1170:1176   */\n      dup1\n        /* \"#utility.yul\":1178:1184   */\n      0x00\n        /* \"#utility.yul\":1227:1229   */\n      0x60\n        /* \"#utility.yul\":1215:1224   */\n      dup5\n        /* \"#utility.yul\":1206:1213   */\n      dup7\n        /* \"#utility.yul\":1202:1225   */\n      sub\n        /* \"#utility.yul\":1198:1230   */\n      slt\n        /* \"#utility.yul\":1195:1314   */\n      iszero\n      tag_54\n      jumpi\n        /* \"#utility.yul\":1233:1312   */\n      tag_55\n      tag_56\n      jump\t// in\n    tag_55:\n        /* \"#utility.yul\":1195:1314   */\n    tag_54:\n        /* \"#utility.yul\":1353:1354   */\n      0x00\n        /* \"#utility.yul\":1378:1431   */\n      tag_57\n        /* \"#utility.yul\":1423:1430   */\n      dup7\n        /* \"#utility.yul\":1414:1420   */\n      dup3\n        /* \"#utility.yul\":1403:1412   */\n      dup8\n        /* \"#utility.yul\":1399:1421   */\n      add\n        /* \"#utility.yul\":1378:1431   */\n      tag_49\n      jump\t// in\n    tag_57:\n        /* \"#utility.yul\":1368:1431   */\n      swap4\n      pop\n        /* \"#utility.yul\":1324:1441   */\n      pop\n        /* \"#utility.yul\":1508:1510   */\n      0x20\n        /* \"#utility.yul\":1497:1506   */\n      dup5\n        /* \"#utility.yul\":1493:1511   */\n      add\n        /* \"#utility.yul\":1480:1512   */\n      calldataload\n        /* \"#utility.yul\":1539:1557   */\n      0xffffffffffffffff\n        /* \"#utility.yul\":1531:1537   */\n      dup2\n        /* \"#utility.yul\":1528:1558   */\n      gt\n        /* \"#utility.yul\":1525:1642   */\n      iszero\n      tag_58\n      jumpi\n        /* \"#utility.yul\":1561:1640   */\n      tag_59\n      tag_60\n      jump\t// in\n    tag_59:\n        /* \"#utility.yul\":1525:1642   */\n    tag_58:\n        /* \"#utility.yul\":1666:1729   */\n      tag_61\n        /* \"#utility.yul\":1721:1728   */\n      dup7\n        /* \"#utility.yul\":1712:1718   */\n      dup3\n        /* \"#utility.yul\":1701:1710   */\n      dup8\n        /* \"#utility.yul\":1697:1719   */\n      add\n        /* \"#utility.yul\":1666:1729   */\n      tag_43\n      jump\t// in\n    tag_61:\n        /* \"#utility.yul\":1656:1729   */\n      swap3\n      pop\n        /* \"#utility.yul\":1451:1739   */\n      pop\n        /* \"#utility.yul\":1778:1780   */\n      0x40\n        /* \"#utility.yul\":1804:1857   */\n      tag_62\n        /* \"#utility.yul\":1849:1856   */\n      dup7\n        /* \"#utility.yul\":1840:1846   */\n      dup3\n        /* \"#utility.yul\":1829:1838   */\n      dup8\n        /* \"#utility.yul\":1825:1847   */\n      add\n        /* \"#utility.yul\":1804:1857   */\n      tag_39\n      jump\t// in\n    tag_62:\n        /* \"#utility.yul\":1794:1857   */\n      swap2\n      pop\n        /* \"#utility.yul\":1749:1867   */\n      pop\n        /* \"#utility.yul\":1075:1874   */\n      swap3\n      pop\n      swap3\n      pop\n      swap3\n      jump\t// out\n        /* \"#utility.yul\":1880:2037   */\n    tag_63:\n        /* \"#utility.yul\":1985:2030   */\n      tag_65\n        /* \"#utility.yul\":2005:2029   */\n      tag_66\n        /* \"#utility.yul\":2023:2028   */\n      dup3\n        /* \"#utility.yul\":2005:2029   */\n      tag_67\n      jump\t// in\n    tag_66:\n        /* \"#utility.yul\":1985:2030   */\n      tag_68\n      jump\t// in\n    tag_65:\n        /* \"#utility.yul\":1980:1983   */\n      dup3\n        /* \"#utility.yul\":1973:2031   */\n      mstore\n        /* \"#utility.yul\":1880:2037   */\n      pop\n      pop\n      jump\t// out\n        /* \"#utility.yul\":2043:2161   */\n    tag_69:\n        /* \"#utility.yul\":2130:2154   */\n      tag_71\n        /* \"#utility.yul\":2148:2153   */\n      dup2\n        /* \"#utility.yul\":2130:2154   */\n      tag_72\n      jump\t// in\n    tag_71:\n        /* \"#utility.yul\":2125:2128   */\n      dup3\n        /* \"#utility.yul\":2118:2155   */\n      mstore\n        /* \"#utility.yul\":2043:2161   */\n      pop\n      pop\n      jump\t// out\n        /* \"#utility.yul\":2167:2285   */\n    tag_73:\n        /* \"#utility.yul\":2254:2278   */\n      tag_75\n        /* \"#utility.yul\":2272:2277   */\n      dup2\n        /* \"#utility.yul\":2254:2278   */\n      tag_76\n      jump\t// in\n    tag_75:\n        /* \"#utility.yul\":2249:2252   */\n      dup3\n        /* \"#utility.yul\":2242:2279   */\n      mstore\n        /* \"#utility.yul\":2167:2285   */\n      pop\n      pop\n      jump\t// out\n        /* \"#utility.yul\":2291:2668   */\n    tag_77:\n        /* \"#utility.yul\":2397:2400   */\n      0x00\n        /* \"#utility.yul\":2425:2464   */\n      tag_79\n        /* \"#utility.yul\":2458:2463   */\n      dup3\n        /* \"#utility.yul\":2425:2464   */\n      tag_80\n      jump\t// in\n    tag_79:\n        /* \"#utility.yul\":2480:2569   */\n      tag_81\n        /* \"#utility.yul\":2562:2568   */\n      dup2\n        /* \"#utility.yul\":2557:2560   */\n      dup6\n        /* \"#utility.yul\":2480:2569   */\n      tag_82\n      jump\t// in\n    tag_81:\n        /* \"#utility.yul\":2473:2569   */\n      swap4\n      pop\n        /* \"#utility.yul\":2578:2630   */\n      tag_83\n        /* \"#utility.yul\":2623:2629   */\n      dup2\n        /* \"#utility.yul\":2618:2621   */\n      dup6\n        /* \"#utility.yul\":2611:2615   */\n      0x20\n        /* \"#utility.yul\":2604:2609   */\n      dup7\n        /* \"#utility.yul\":2600:2616   */\n      add\n        /* \"#utility.yul\":2578:2630   */\n      tag_84\n      jump\t// in\n    tag_83:\n        /* \"#utility.yul\":2655:2661   */\n      dup1\n        /* \"#utility.yul\":2650:2653   */\n      dup5\n        /* \"#utility.yul\":2646:2662   */\n      add\n        /* \"#utility.yul\":2639:2662   */\n      swap2\n      pop\n        /* \"#utility.yul\":2401:2668   */\n      pop\n        /* \"#utility.yul\":2291:2668   */\n      swap3\n      swap2\n      pop\n      pop\n      jump\t// out\n        /* \"#utility.yul\":2674:2831   */\n    tag_85:\n        /* \"#utility.yul\":2779:2824   */\n      tag_87\n        /* \"#utility.yul\":2799:2823   */\n      tag_88\n        /* \"#utility.yul\":2817:2822   */\n      dup3\n        /* \"#utility.yul\":2799:2823   */\n      tag_89\n      jump\t// in\n    tag_88:\n        /* \"#utility.yul\":2779:2824   */\n      tag_90\n      jump\t// in\n    tag_87:\n        /* \"#utility.yul\":2774:2777   */\n      dup3\n        /* \"#utility.yul\":2767:2825   */\n      mstore\n        /* \"#utility.yul\":2674:2831   */\n      pop\n      pop\n      jump\t// out\n        /* \"#utility.yul\":2837:3394   */\n    tag_24:\n        /* \"#utility.yul\":3025:3028   */\n      0x00\n        /* \"#utility.yul\":3040:3115   */\n      tag_92\n        /* \"#utility.yul\":3111:3114   */\n      dup3\n        /* \"#utility.yul\":3102:3108   */\n      dup7\n        /* \"#utility.yul\":3040:3115   */\n      tag_85\n      jump\t// in\n    tag_92:\n        /* \"#utility.yul\":3140:3142   */\n      0x20\n        /* \"#utility.yul\":3135:3138   */\n      dup3\n        /* \"#utility.yul\":3131:3143   */\n      add\n        /* \"#utility.yul\":3124:3143   */\n      swap2\n      pop\n        /* \"#utility.yul\":3160:3255   */\n      tag_93\n        /* \"#utility.yul\":3251:3254   */\n      dup3\n        /* \"#utility.yul\":3242:3248   */\n      dup6\n        /* \"#utility.yul\":3160:3255   */\n      tag_77\n      jump\t// in\n    tag_93:\n        /* \"#utility.yul\":3153:3255   */\n      swap2\n      pop\n        /* \"#utility.yul\":3265:3340   */\n      tag_94\n        /* \"#utility.yul\":3336:3339   */\n      dup3\n        /* \"#utility.yul\":3327:3333   */\n      dup5\n        /* \"#utility.yul\":3265:3340   */\n      tag_63\n      jump\t// in\n    tag_94:\n        /* \"#utility.yul\":3365:3367   */\n      0x14\n        /* \"#utility.yul\":3360:3363   */\n      dup3\n        /* \"#utility.yul\":3356:3368   */\n      add\n        /* \"#utility.yul\":3349:3368   */\n      swap2\n      pop\n        /* \"#utility.yul\":3385:3388   */\n      dup2\n        /* \"#utility.yul\":3378:3388   */\n      swap1\n      pop\n        /* \"#utility.yul\":2837:3394   */\n      swap5\n      swap4\n      pop\n      pop\n      pop\n      pop\n      jump\t// out\n        /* \"#utility.yul\":3400:3622   */\n    tag_11:\n        /* \"#utility.yul\":3493:3497   */\n      0x00\n        /* \"#utility.yul\":3531:3533   */\n      0x20\n        /* \"#utility.yul\":3520:3529   */\n      dup3\n        /* \"#utility.yul\":3516:3534   */\n      add\n        /* \"#utility.yul\":3508:3534   */\n      swap1\n      pop\n        /* \"#utility.yul\":3544:3615   */\n      tag_96\n        /* \"#utility.yul\":3612:3613   */\n      0x00\n        /* \"#utility.yul\":3601:3610   */\n      dup4\n        /* \"#utility.yul\":3597:3614   */\n      add\n        /* \"#utility.yul\":3588:3594   */\n      dup5\n        /* \"#utility.yul\":3544:3615   */\n      tag_69\n      jump\t// in\n    tag_96:\n        /* \"#utility.yul\":3400:3622   */\n      swap3\n      swap2\n      pop\n      pop\n      jump\t// out\n        /* \"#utility.yul\":3628:3850   */\n    tag_16:\n        /* \"#utility.yul\":3721:3725   */\n      0x00\n        /* \"#utility.yul\":3759:3761   */\n      0x20\n        /* \"#utility.yul\":3748:3757   */\n      dup3\n        /* \"#utility.yul\":3744:3762   */\n      add\n        /* \"#utility.yul\":3736:3762   */\n      swap1\n      pop\n        /* \"#utility.yul\":3772:3843   */\n      tag_98\n        /* \"#utility.yul\":3840:3841   */\n      0x00\n        /* \"#utility.yul\":3829:3838   */\n      dup4\n        /* \"#utility.yul\":3825:3842   */\n      add\n        /* \"#utility.yul\":3816:3822   */\n      dup5\n        /* \"#utility.yul\":3772:3843   */\n      tag_73\n      jump\t// in\n    tag_98:\n        /* \"#utility.yul\":3628:3850   */\n      swap3\n      swap2\n      pop\n      pop\n      jump\t// out\n        /* \"#utility.yul\":3856:3985   */\n    tag_33:\n        /* \"#utility.yul\":3890:3896   */\n      0x00\n        /* \"#utility.yul\":3917:3937   */\n      tag_100\n      tag_101\n      jump\t// in\n    tag_100:\n        /* \"#utility.yul\":3907:3937   */\n      swap1\n      pop\n        /* \"#utility.yul\":3946:3979   */\n      tag_102\n        /* \"#utility.yul\":3974:3978   */\n      dup3\n        /* \"#utility.yul\":3966:3972   */\n      dup3\n        /* \"#utility.yul\":3946:3979   */\n      tag_103\n      jump\t// in\n    tag_102:\n        /* \"#utility.yul\":3856:3985   */\n      swap2\n      swap1\n      pop\n      jump\t// out\n        /* \"#utility.yul\":3991:4066   */\n    tag_101:\n        /* \"#utility.yul\":4024:4030   */\n      0x00\n        /* \"#utility.yul\":4057:4059   */\n      0x40\n        /* \"#utility.yul\":4051:4060   */\n      mload\n        /* \"#utility.yul\":4041:4060   */\n      swap1\n      pop\n        /* \"#utility.yul\":3991:4066   */\n      swap1\n      jump\t// out\n        /* \"#utility.yul\":4072:4380   */\n    tag_32:\n        /* \"#utility.yul\":4134:4138   */\n      0x00\n        /* \"#utility.yul\":4224:4242   */\n      0xffffffffffffffff\n        /* \"#utility.yul\":4216:4222   */\n      dup3\n        /* \"#utility.yul\":4213:4243   */\n      gt\n        /* \"#utility.yul\":4210:4266   */\n      iszero\n      tag_106\n      jumpi\n        /* \"#utility.yul\":4246:4264   */\n      tag_107\n      tag_108\n      jump\t// in\n    tag_107:\n        /* \"#utility.yul\":4210:4266   */\n    tag_106:\n        /* \"#utility.yul\":4284:4313   */\n      tag_109\n        /* \"#utility.yul\":4306:4312   */\n      dup3\n        /* \"#utility.yul\":4284:4313   */\n      tag_110\n      jump\t// in\n    tag_109:\n        /* \"#utility.yul\":4276:4313   */\n      swap1\n      pop\n        /* \"#utility.yul\":4368:4372   */\n      0x20\n        /* \"#utility.yul\":4362:4366   */\n      dup2\n        /* \"#utility.yul\":4358:4373   */\n      add\n        /* \"#utility.yul\":4350:4373   */\n      swap1\n      pop\n        /* \"#utility.yul\":4072:4380   */\n      swap2\n      swap1\n      pop\n      jump\t// out\n        /* \"#utility.yul\":4386:4485   */\n    tag_80:\n        /* \"#utility.yul\":4438:4444   */\n      0x00\n        /* \"#utility.yul\":4472:4477   */\n      dup2\n        /* \"#utility.yul\":4466:4478   */\n      mload\n        /* \"#utility.yul\":4456:4478   */\n      swap1\n      pop\n        /* \"#utility.yul\":4386:4485   */\n      swap2\n      swap1\n      pop\n      jump\t// out\n        /* \"#utility.yul\":4491:4639   */\n    tag_82:\n        /* \"#utility.yul\":4593:4604   */\n      0x00\n        /* \"#utility.yul\":4630:4633   */\n      dup2\n        /* \"#utility.yul\":4615:4633   */\n      swap1\n      pop\n        /* \"#utility.yul\":4491:4639   */\n      swap3\n      swap2\n      pop\n      pop\n      jump\t// out\n        /* \"#utility.yul\":4645:4741   */\n    tag_67:\n        /* \"#utility.yul\":4682:4689   */\n      0x00\n        /* \"#utility.yul\":4711:4735   */\n      tag_114\n        /* \"#utility.yul\":4729:4734   */\n      dup3\n        /* \"#utility.yul\":4711:4735   */\n      tag_115\n      jump\t// in\n    tag_114:\n        /* \"#utility.yul\":4700:4735   */\n      swap1\n      pop\n        /* \"#utility.yul\":4645:4741   */\n      swap2\n      swap1\n      pop\n      jump\t// out\n        /* \"#utility.yul\":4747:4897   */\n    tag_72:\n        /* \"#utility.yul\":4784:4791   */\n      0x00\n        /* \"#utility.yul\":4824:4890   */\n      0xffffffffffffffffffffffffffffffffffffffff000000000000000000000000\n        /* \"#utility.yul\":4817:4822   */\n      dup3\n        /* \"#utility.yul\":4813:4891   */\n      and\n        /* \"#utility.yul\":4802:4891   */\n      swap1\n      pop\n        /* \"#utility.yul\":4747:4897   */\n      swap2\n      swap1\n      pop\n      jump\t// out\n        /* \"#utility.yul\":4903:4980   */\n    tag_76:\n        /* \"#utility.yul\":4940:4947   */\n      0x00\n        /* \"#utility.yul\":4969:4974   */\n      dup2\n        /* \"#utility.yul\":4958:4974   */\n      swap1\n      pop\n        /* \"#utility.yul\":4903:4980   */\n      swap2\n      swap1\n      pop\n      jump\t// out\n        /* \"#utility.yul\":4986:5112   */\n    tag_115:\n        /* \"#utility.yul\":5023:5030   */\n      0x00\n        /* \"#utility.yul\":5063:5105   */\n      0xffffffffffffffffffffffffffffffffffffffff\n        /* \"#utility.yul\":5056:5061   */\n      dup3\n        /* \"#utility.yul\":5052:5106   */\n      and\n        /* \"#utility.yul\":5041:5106   */\n      swap1\n      pop\n        /* \"#utility.yul\":4986:5112   */\n      swap2\n      swap1\n      pop\n      jump\t// out\n        /* \"#utility.yul\":5118:5195   */\n    tag_89:\n        /* \"#utility.yul\":5155:5162   */\n      0x00\n        /* \"#utility.yul\":5184:5189   */\n      dup2\n        /* \"#utility.yul\":5173:5189   */\n      swap1\n      pop\n        /* \"#utility.yul\":5118:5195   */\n      swap2\n      swap1\n      pop\n      jump\t// out\n        /* \"#utility.yul\":5201:5355   */\n    tag_38:\n        /* \"#utility.yul\":5285:5291   */\n      dup3\n        /* \"#utility.yul\":5280:5283   */\n      dup2\n        /* \"#utility.yul\":5275:5278   */\n      dup4\n        /* \"#utility.yul\":5262:5292   */\n      calldatacopy\n        /* \"#utility.yul\":5347:5348   */\n      0x00\n        /* \"#utility.yul\":5338:5344   */\n      dup4\n        /* \"#utility.yul\":5333:5336   */\n      dup4\n        /* \"#utility.yul\":5329:5345   */\n      add\n        /* \"#utility.yul\":5322:5349   */\n      mstore\n        /* \"#utility.yul\":5201:5355   */\n      pop\n      pop\n      pop\n      jump\t// out\n        /* \"#utility.yul\":5361:5668   */\n    tag_84:\n        /* \"#utility.yul\":5429:5430   */\n      0x00\n        /* \"#utility.yul\":5439:5552   */\n    tag_122:\n        /* \"#utility.yul\":5453:5459   */\n      dup4\n        /* \"#utility.yul\":5450:5451   */\n      dup2\n        /* \"#utility.yul\":5447:5460   */\n      lt\n        /* \"#utility.yul\":5439:5552   */\n      iszero\n      tag_124\n      jumpi\n        /* \"#utility.yul\":5538:5539   */\n      dup1\n        /* \"#utility.yul\":5533:5536   */\n      dup3\n        /* \"#utility.yul\":5529:5540   */\n      add\n        /* \"#utility.yul\":5523:5541   */\n      mload\n        /* \"#utility.yul\":5519:5520   */\n      dup2\n        /* \"#utility.yul\":5514:5517   */\n      dup5\n        /* \"#utility.yul\":5510:5521   */\n      add\n        /* \"#utility.yul\":5503:5542   */\n      mstore\n        /* \"#utility.yul\":5475:5477   */\n      0x20\n        /* \"#utility.yul\":5472:5473   */\n      dup2\n        /* \"#utility.yul\":5468:5478   */\n      add\n        /* \"#utility.yul\":5463:5478   */\n      swap1\n      pop\n        /* \"#utility.yul\":5439:5552   */\n      jump(tag_122)\n    tag_124:\n        /* \"#utility.yul\":5570:5576   */\n      dup4\n        /* \"#utility.yul\":5567:5568   */\n      dup2\n        /* \"#utility.yul\":5564:5577   */\n      gt\n        /* \"#utility.yul\":5561:5662   */\n      iszero\n      tag_125\n      jumpi\n        /* \"#utility.yul\":5650:5651   */\n      0x00\n        /* \"#utility.yul\":5641:5647   */\n      dup5\n        /* \"#utility.yul\":5636:5639   */\n      dup5\n        /* \"#utility.yul\":5632:5648   */\n      add\n        /* \"#utility.yul\":5625:5652   */\n      mstore\n        /* \"#utility.yul\":5561:5662   */\n    tag_125:\n        /* \"#utility.yul\":5410:5668   */\n      pop\n        /* \"#utility.yul\":5361:5668   */\n      pop\n      pop\n      pop\n      jump\t// out\n        /* \"#utility.yul\":5674:5955   */\n    tag_103:\n        /* \"#utility.yul\":5757:5784   */\n      tag_127\n        /* \"#utility.yul\":5779:5783   */\n      dup3\n        /* \"#utility.yul\":5757:5784   */\n      tag_110\n      jump\t// in\n    tag_127:\n        /* \"#utility.yul\":5749:5755   */\n      dup2\n        /* \"#utility.yul\":5745:5785   */\n      add\n        /* \"#utility.yul\":5887:5893   */\n      dup2\n        /* \"#utility.yul\":5875:5885   */\n      dup2\n        /* \"#utility.yul\":5872:5894   */\n      lt\n        /* \"#utility.yul\":5851:5869   */\n      0xffffffffffffffff\n        /* \"#utility.yul\":5839:5849   */\n      dup3\n        /* \"#utility.yul\":5836:5870   */\n      gt\n        /* \"#utility.yul\":5833:5895   */\n      or\n        /* \"#utility.yul\":5830:5918   */\n      iszero\n      tag_128\n      jumpi\n        /* \"#utility.yul\":5898:5916   */\n      tag_129\n      tag_108\n      jump\t// in\n    tag_129:\n        /* \"#utility.yul\":5830:5918   */\n    tag_128:\n        /* \"#utility.yul\":5938:5948   */\n      dup1\n        /* \"#utility.yul\":5934:5936   */\n      0x40\n        /* \"#utility.yul\":5927:5949   */\n      mstore\n        /* \"#utility.yul\":5717:5955   */\n      pop\n        /* \"#utility.yul\":5674:5955   */\n      pop\n      pop\n      jump\t// out\n        /* \"#utility.yul\":5961:6061   */\n    tag_68:\n        /* \"#utility.yul\":6000:6007   */\n      0x00\n        /* \"#utility.yul\":6029:6055   */\n      tag_131\n        /* \"#utility.yul\":6049:6054   */\n      dup3\n        /* \"#utility.yul\":6029:6055   */\n      tag_132\n      jump\t// in\n    tag_131:\n        /* \"#utility.yul\":6018:6055   */\n      swap1\n      pop\n        /* \"#utility.yul\":5961:6061   */\n      swap2\n      swap1\n      pop\n      jump\t// out\n        /* \"#utility.yul\":6067:6161   */\n    tag_132:\n        /* \"#utility.yul\":6106:6113   */\n      0x00\n        /* \"#utility.yul\":6135:6155   */\n      tag_134\n        /* \"#utility.yul\":6149:6154   */\n      dup3\n        /* \"#utility.yul\":6135:6155   */\n      tag_135\n      jump\t// in\n    tag_134:\n        /* \"#utility.yul\":6124:6155   */\n      swap1\n      pop\n        /* \"#utility.yul\":6067:6161   */\n      swap2\n      swap1\n      pop\n      jump\t// out\n        /* \"#utility.yul\":6167:6246   */\n    tag_90:\n        /* \"#utility.yul\":6206:6213   */\n      0x00\n        /* \"#utility.yul\":6235:6240   */\n      dup2\n        /* \"#utility.yul\":6224:6240   */\n      swap1\n      pop\n        /* \"#utility.yul\":6167:6246   */\n      swap2\n      swap1\n      pop\n      jump\t// out\n        /* \"#utility.yul\":6252:6432   */\n    tag_108:\n        /* \"#utility.yul\":6300:6377   */\n      0x4e487b7100000000000000000000000000000000000000000000000000000000\n        /* \"#utility.yul\":6297:6298   */\n      0x00\n        /* \"#utility.yul\":6290:6378   */\n      mstore\n        /* \"#utility.yul\":6397:6401   */\n      0x41\n        /* \"#utility.yul\":6394:6395   */\n      0x04\n        /* \"#utility.yul\":6387:6402   */\n      mstore\n        /* \"#utility.yul\":6421:6425   */\n      0x24\n        /* \"#utility.yul\":6418:6419   */\n      0x00\n        /* \"#utility.yul\":6411:6426   */\n      revert\n        /* \"#utility.yul\":6438:6555   */\n    tag_47:\n        /* \"#utility.yul\":6547:6548   */\n      0x00\n        /* \"#utility.yul\":6544:6545   */\n      dup1\n        /* \"#utility.yul\":6537:6549   */\n      revert\n        /* \"#utility.yul\":6561:6678   */\n    tag_36:\n        /* \"#utility.yul\":6670:6671   */\n      0x00\n        /* \"#utility.yul\":6667:6668   */\n      dup1\n        /* \"#utility.yul\":6660:6672   */\n      revert\n        /* \"#utility.yul\":6684:6801   */\n    tag_60:\n        /* \"#utility.yul\":6793:6794   */\n      0x00\n        /* \"#utility.yul\":6790:6791   */\n      dup1\n        /* \"#utility.yul\":6783:6795   */\n      revert\n        /* \"#utility.yul\":6807:6924   */\n    tag_56:\n        /* \"#utility.yul\":6916:6917   */\n      0x00\n        /* \"#utility.yul\":6913:6914   */\n      dup1\n        /* \"#utility.yul\":6906:6918   */\n      revert\n        /* \"#utility.yul\":6930:7032   */\n    tag_110:\n        /* \"#utility.yul\":6971:6977   */\n      0x00\n        /* \"#utility.yul\":7022:7024   */\n      0x1f\n        /* \"#utility.yul\":7018:7025   */\n      not\n        /* \"#utility.yul\":7013:7015   */\n      0x1f\n        /* \"#utility.yul\":7006:7011   */\n      dup4\n        /* \"#utility.yul\":7002:7016   */\n      add\n        /* \"#utility.yul\":6998:7026   */\n      and\n        /* \"#utility.yul\":6988:7026   */\n      swap1\n      pop\n        /* \"#utility.yul\":6930:7032   */\n      swap2\n      swap1\n      pop\n      jump\t// out\n        /* \"#utility.yul\":7038:7132   */\n    tag_135:\n        /* \"#utility.yul\":7071:7079   */\n      0x00\n        /* \"#utility.yul\":7119:7124   */\n      dup2\n        /* \"#utility.yul\":7115:7117   */\n      0x60\n        /* \"#utility.yul\":7111:7125   */\n      shl\n        /* \"#utility.yul\":7090:7125   */\n      swap1\n      pop\n        /* \"#utility.yul\":7038:7132   */\n      swap2\n      swap1\n      pop\n      jump\t// out\n        /* \"#utility.yul\":7138:7260   */\n    tag_42:\n        /* \"#utility.yul\":7211:7235   */\n      tag_145\n        /* \"#utility.yul\":7229:7234   */\n      dup2\n        /* \"#utility.yul\":7211:7235   */\n      tag_67\n      jump\t// in\n    tag_145:\n        /* \"#utility.yul\":7204:7209   */\n      dup2\n        /* \"#utility.yul\":7201:7236   */\n      eq\n        /* \"#utility.yul\":7191:7254   */\n      tag_146\n      jumpi\n        /* \"#utility.yul\":7250:7251   */\n      0x00\n        /* \"#utility.yul\":7247:7248   */\n      dup1\n        /* \"#utility.yul\":7240:7252   */\n      revert\n        /* \"#utility.yul\":7191:7254   */\n    tag_146:\n        /* \"#utility.yul\":7138:7260   */\n      pop\n      jump\t// out\n        /* \"#utility.yul\":7266:7388   */\n    tag_52:\n        /* \"#utility.yul\":7339:7363   */\n      tag_148\n        /* \"#utility.yul\":7357:7362   */\n      dup2\n        /* \"#utility.yul\":7339:7363   */\n      tag_89\n      jump\t// in\n    tag_148:\n        /* \"#utility.yul\":7332:7337   */\n      dup2\n        /* \"#utility.yul\":7329:7364   */\n      eq\n        /* \"#utility.yul\":7319:7382   */\n      tag_149\n      jumpi\n        /* \"#utility.yul\":7378:7379   */\n      0x00\n        /* \"#utility.yul\":7375:7376   */\n      dup1\n        /* \"#utility.yul\":7368:7380   */\n      revert\n        /* \"#utility.yul\":7319:7382   */\n    tag_149:\n        /* \"#utility.yul\":7266:7388   */\n      pop\n      jump\t// out\n\n    auxdata: 0xa26469706673582212206c303c5926523c3b59fea11a5c16a8d6f8deda8aeacd1abf5e5d60de3426e6fa64736f6c63430008070033\n}\n",
				"bytecode": {
					"linkReferences": {},
					"object": "608060405234801561001057600080fd5b50610584806100206000396000f3fe608060405234801561001057600080fd5b50600436106100415760003560e01c80634364b114146100465780636558b80514610076578063cf97b7ec146100a6575b600080fd5b610060600480360381019061005b91906101e5565b6100d6565b60405161006d919061030a565b60405180910390f35b610090600480360381019061008b91906101e5565b6100df565b60405161009d9190610325565b60405180910390f35b6100c060048036038101906100bb91906101e5565b610115565b6040516100cd9190610325565b60405180910390f35b60009392505050565b60008383836040516020016100f6939291906102d1565b6040516020818303038152906040528051906020012090509392505050565b600083838360405160200161012c939291906102d1565b6040516020818303038152906040528051906020012090509392505050565b600061015e61015984610365565b610340565b90508281526020810184848401111561017a576101796104f3565b5b61018584828561041e565b509392505050565b60008135905061019c81610520565b92915050565b600082601f8301126101b7576101b66104ee565b5b81356101c784826020860161014b565b91505092915050565b6000813590506101df81610537565b92915050565b6000806000606084860312156101fe576101fd6104fd565b5b600061020c868287016101d0565b935050602084013567ffffffffffffffff81111561022d5761022c6104f8565b5b610239868287016101a2565b925050604061024a8682870161018d565b9150509250925092565b610265610260826103ac565b610491565b82525050565b610274816103be565b82525050565b610283816103ea565b82525050565b600061029482610396565b61029e81856103a1565b93506102ae81856020860161042d565b80840191505092915050565b6102cb6102c682610414565b6104b5565b82525050565b60006102dd82866102ba565b6020820191506102ed8285610289565b91506102f98284610254565b601482019150819050949350505050565b600060208201905061031f600083018461026b565b92915050565b600060208201905061033a600083018461027a565b92915050565b600061034a61035b565b90506103568282610460565b919050565b6000604051905090565b600067ffffffffffffffff8211156103805761037f6104bf565b5b61038982610502565b9050602081019050919050565b600081519050919050565b600081905092915050565b60006103b7826103f4565b9050919050565b60007fffffffffffffffffffffffffffffffffffffffff00000000000000000000000082169050919050565b6000819050919050565b600073ffffffffffffffffffffffffffffffffffffffff82169050919050565b6000819050919050565b82818337600083830152505050565b60005b8381101561044b578082015181840152602081019050610430565b8381111561045a576000848401525b50505050565b61046982610502565b810181811067ffffffffffffffff82111715610488576104876104bf565b5b80604052505050565b600061049c826104a3565b9050919050565b60006104ae82610513565b9050919050565b6000819050919050565b7f4e487b7100000000000000000000000000000000000000000000000000000000600052604160045260246000fd5b600080fd5b600080fd5b600080fd5b600080fd5b6000601f19601f8301169050919050565b60008160601b9050919050565b610529816103ac565b811461053457600080fd5b50565b61054081610414565b811461054b57600080fd5b5056fea26469706673582212206c303c5926523c3b59fea11a5c16a8d6f8deda8aeacd1abf5e5d60de3426e6fa64736f6c63430008070033",
					"opcodes": "PUSH1 0x80 PUSH1 0x40 MSTORE CALLVALUE DUP1 ISZERO PUSH2 0x10 JUMPI PUSH1 0x0 DUP1 REVERT JUMPDEST POP PUSH2 0x584 DUP1 PUSH2 0x20 PUSH1 0x0 CODECOPY PUSH1 0x0 RETURN INVALID PUSH1 0x80 PUSH1 0x40 MSTORE CALLVALUE DUP1 ISZERO PUSH2 0x10 JUMPI PUSH1 0x0 DUP1 REVERT JUMPDEST POP PUSH1 0x4 CALLDATASIZE LT PUSH2 0x41 JUMPI PUSH1 0x0 CALLDATALOAD PUSH1 0xE0 SHR DUP1 PUSH4 0x4364B114 EQ PUSH2 0x46 JUMPI DUP1 PUSH4 0x6558B805 EQ PUSH2 0x76 JUMPI DUP1 PUSH4 0xCF97B7EC EQ PUSH2 0xA6 JUMPI JUMPDEST PUSH1 0x0 DUP1 REVERT JUMPDEST PUSH2 0x60 PUSH1 0x4 DUP1 CALLDATASIZE SUB DUP2 ADD SWAP1 PUSH2 0x5B SWAP2 SWAP1 PUSH2 0x1E5 JUMP JUMPDEST PUSH2 0xD6 JUMP JUMPDEST PUSH1 0x40 MLOAD PUSH2 0x6D SWAP2 SWAP1 PUSH2 0x30A JUMP JUMPDEST PUSH1 0x40 MLOAD DUP1 SWAP2 SUB SWAP1 RETURN JUMPDEST PUSH2 0x90 PUSH1 0x4 DUP1 CALLDATASIZE SUB DUP2 ADD SWAP1 PUSH2 0x8B SWAP2 SWAP1 PUSH2 0x1E5 JUMP JUMPDEST PUSH2 0xDF JUMP JUMPDEST PUSH1 0x40 MLOAD PUSH2 0x9D SWAP2 SWAP1 PUSH2 0x325 JUMP JUMPDEST PUSH1 0x40 MLOAD DUP1 SWAP2 SUB SWAP1 RETURN JUMPDEST PUSH2 0xC0 PUSH1 0x4 DUP1 CALLDATASIZE SUB DUP2 ADD SWAP1 PUSH2 0xBB SWAP2 SWAP1 PUSH2 0x1E5 JUMP JUMPDEST PUSH2 0x115 JUMP JUMPDEST PUSH1 0x40 MLOAD PUSH2 0xCD SWAP2 SWAP1 PUSH2 0x325 JUMP JUMPDEST PUSH1 0x40 MLOAD DUP1 SWAP2 SUB SWAP1 RETURN JUMPDEST PUSH1 0x0 SWAP4 SWAP3 POP POP POP JUMP JUMPDEST PUSH1 0x0 DUP4 DUP4 DUP4 PUSH1 0x40 MLOAD PUSH1 0x20 ADD PUSH2 0xF6 SWAP4 SWAP3 SWAP2 SWAP1 PUSH2 0x2D1 JUMP JUMPDEST PUSH1 0x40 MLOAD PUSH1 0x20 DUP2 DUP4 SUB SUB DUP2 MSTORE SWAP1 PUSH1 0x40 MSTORE DUP1 MLOAD SWAP1 PUSH1 0x20 ADD KECCAK256 SWAP1 POP SWAP4 SWAP3 POP POP POP JUMP JUMPDEST PUSH1 0x0 DUP4 DUP4 DUP4 PUSH1 0x40 MLOAD PUSH1 0x20 ADD PUSH2 0x12C SWAP4 SWAP3 SWAP2 SWAP1 PUSH2 0x2D1 JUMP JUMPDEST PUSH1 0x40 MLOAD PUSH1 0x20 DUP2 DUP4 SUB SUB DUP2 MSTORE SWAP1 PUSH1 0x40 MSTORE DUP1 MLOAD SWAP1 PUSH1 0x20 ADD KECCAK256 SWAP1 POP SWAP4 SWAP3 POP POP POP JUMP JUMPDEST PUSH1 0x0 PUSH2 0x15E PUSH2 0x159 DUP5 PUSH2 0x365 JUMP JUMPDEST PUSH2 0x340 JUMP JUMPDEST SWAP1 POP DUP3 DUP2 MSTORE PUSH1 0x20 DUP2 ADD DUP5 DUP5 DUP5 ADD GT ISZERO PUSH2 0x17A JUMPI PUSH2 0x179 PUSH2 0x4F3 JUMP JUMPDEST JUMPDEST PUSH2 0x185 DUP5 DUP3 DUP6 PUSH2 0x41E JUMP JUMPDEST POP SWAP4 SWAP3 POP POP POP JUMP JUMPDEST PUSH1 0x0 DUP2 CALLDATALOAD SWAP1 POP PUSH2 0x19C DUP2 PUSH2 0x520 JUMP JUMPDEST SWAP3 SWAP2 POP POP JUMP JUMPDEST PUSH1 0x0 DUP3 PUSH1 0x1F DUP4 ADD SLT PUSH2 0x1B7 JUMPI PUSH2 0x1B6 PUSH2 0x4EE JUMP JUMPDEST JUMPDEST DUP2 CALLDATALOAD PUSH2 0x1C7 DUP5 DUP3 PUSH1 0x20 DUP7 ADD PUSH2 0x14B JUMP JUMPDEST SWAP2 POP POP SWAP3 SWAP2 POP POP JUMP JUMPDEST PUSH1 0x0 DUP2 CALLDATALOAD SWAP1 POP PUSH2 0x1DF DUP2 PUSH2 0x537 JUMP JUMPDEST SWAP3 SWAP2 POP POP JUMP JUMPDEST PUSH1 0x0 DUP1 PUSH1 0x0 PUSH1 0x60 DUP5 DUP7 SUB SLT ISZERO PUSH2 0x1FE JUMPI PUSH2 0x1FD PUSH2 0x4FD JUMP JUMPDEST JUMPDEST PUSH1 0x0 PUSH2 0x20C DUP7 DUP3 DUP8 ADD PUSH2 0x1D0 JUMP JUMPDEST SWAP4 POP POP PUSH1 0x20 DUP5 ADD CALLDATALOAD PUSH8 0xFFFFFFFFFFFFFFFF DUP2 GT ISZERO PUSH2 0x22D JUMPI PUSH2 0x22C PUSH2 0x4F8 JUMP JUMPDEST JUMPDEST PUSH2 0x239 DUP7 DUP3 DUP8 ADD PUSH2 0x1A2 JUMP JUMPDEST SWAP3 POP POP PUSH1 0x40 PUSH2 0x24A DUP7 DUP3 DUP8 ADD PUSH2 0x18D JUMP JUMPDEST SWAP2 POP POP SWAP3 POP SWAP3 POP SWAP3 JUMP JUMPDEST PUSH2 0x265 PUSH2 0x260 DUP3 PUSH2 0x3AC JUMP JUMPDEST PUSH2 0x491 JUMP JUMPDEST DUP3 MSTORE POP POP JUMP JUMPDEST PUSH2 0x274 DUP2 PUSH2 0x3BE JUMP JUMPDEST DUP3 MSTORE POP POP JUMP JUMPDEST PUSH2 0x283 DUP2 PUSH2 0x3EA JUMP JUMPDEST DUP3 MSTORE POP POP JUMP JUMPDEST PUSH1 0x0 PUSH2 0x294 DUP3 PUSH2 0x396 JUMP JUMPDEST PUSH2 0x29E DUP2 DUP6 PUSH2 0x3A1 JUMP JUMPDEST SWAP4 POP PUSH2 0x2AE DUP2 DUP6 PUSH1 0x20 DUP7 ADD PUSH2 0x42D JUMP JUMPDEST DUP1 DUP5 ADD SWAP2 POP POP SWAP3 SWAP2 POP POP JUMP JUMPDEST PUSH2 0x2CB PUSH2 0x2C6 DUP3 PUSH2 0x414 JUMP JUMPDEST PUSH2 0x4B5 JUMP JUMPDEST DUP3 MSTORE POP POP JUMP JUMPDEST PUSH1 0x0 PUSH2 0x2DD DUP3 DUP7 PUSH2 0x2BA JUMP JUMPDEST PUSH1 0x20 DUP3 ADD SWAP2 POP PUSH2 0x2ED DUP3 DUP6 PUSH2 0x289 JUMP JUMPDEST SWAP2 POP PUSH2 0x2F9 DUP3 DUP5 PUSH2 0x254 JUMP JUMPDEST PUSH1 0x14 DUP3 ADD SWAP2 POP DUP2 SWAP1 POP SWAP5 SWAP4 POP POP POP POP JUMP JUMPDEST PUSH1 0x0 PUSH1 0x20 DUP3 ADD SWAP1 POP PUSH2 0x31F PUSH1 0x0 DUP4 ADD DUP5 PUSH2 0x26B JUMP JUMPDEST SWAP3 SWAP2 POP POP JUMP JUMPDEST PUSH1 0x0 PUSH1 0x20 DUP3 ADD SWAP1 POP PUSH2 0x33A PUSH1 0x0 DUP4 ADD DUP5 PUSH2 0x27A JUMP JUMPDEST SWAP3 SWAP2 POP POP JUMP JUMPDEST PUSH1 0x0 PUSH2 0x34A PUSH2 0x35B JUMP JUMPDEST SWAP1 POP PUSH2 0x356 DUP3 DUP3 PUSH2 0x460 JUMP JUMPDEST SWAP2 SWAP1 POP JUMP JUMPDEST PUSH1 0x0 PUSH1 0x40 MLOAD SWAP1 POP SWAP1 JUMP JUMPDEST PUSH1 0x0 PUSH8 0xFFFFFFFFFFFFFFFF DUP3 GT ISZERO PUSH2 0x380 JUMPI PUSH2 0x37F PUSH2 0x4BF JUMP JUMPDEST JUMPDEST PUSH2 0x389 DUP3 PUSH2 0x502 JUMP JUMPDEST SWAP1 POP PUSH1 0x20 DUP2 ADD SWAP1 POP SWAP2 SWAP1 POP JUMP JUMPDEST PUSH1 0x0 DUP2 MLOAD SWAP1 POP SWAP2 SWAP1 POP JUMP JUMPDEST PUSH1 0x0 DUP2 SWAP1 POP SWAP3 SWAP2 POP POP JUMP JUMPDEST PUSH1 0x0 PUSH2 0x3B7 DUP3 PUSH2 0x3F4 JUMP JUMPDEST SWAP1 POP SWAP2 SWAP1 POP JUMP JUMPDEST PUSH1 0x0 PUSH32 0xFFFFFFFFFFFFFFFFFFFFFFFFFFFFFFFFFFFFFFFF000000000000000000000000 DUP3 AND SWAP1 POP SWAP2 SWAP1 POP JUMP JUMPDEST PUSH1 0x0 DUP2 SWAP1 POP SWAP2 SWAP1 POP JUMP JUMPDEST PUSH1 0x0 PUSH20 0xFFFFFFFFFFFFFFFFFFFFFFFFFFFFFFFFFFFFFFFF DUP3 AND SWAP1 POP SWAP2 SWAP1 POP JUMP JUMPDEST PUSH1 0x0 DUP2 SWAP1 POP SWAP2 SWAP1 POP JUMP JUMPDEST DUP3 DUP2 DUP4 CALLDATACOPY PUSH1 0x0 DUP4 DUP4 ADD MSTORE POP POP POP JUMP JUMPDEST PUSH1 0x0 JUMPDEST DUP4 DUP2 LT ISZERO PUSH2 0x44B JUMPI DUP1 DUP3 ADD MLOAD DUP2 DUP5 ADD MSTORE PUSH1 0x20 DUP2 ADD SWAP1 POP PUSH2 0x430 JUMP JUMPDEST DUP4 DUP2 GT ISZERO PUSH2 0x45A JUMPI PUSH1 0x0 DUP5 DUP5 ADD MSTORE JUMPDEST POP POP POP POP JUMP JUMPDEST PUSH2 0x469 DUP3 PUSH2 0x502 JUMP JUMPDEST DUP2 ADD DUP2 DUP2 LT PUSH8 0xFFFFFFFFFFFFFFFF DUP3 GT OR ISZERO PUSH2 0x488 JUMPI PUSH2 0x487 PUSH2 0x4BF JUMP JUMPDEST JUMPDEST DUP1 PUSH1 0x40 MSTORE POP POP POP JUMP JUMPDEST PUSH1 0x0 PUSH2 0x49C DUP3 PUSH2 0x4A3 JUMP JUMPDEST SWAP1 POP SWAP2 SWAP1 POP JUMP JUMPDEST PUSH1 0x0 PUSH2 0x4AE DUP3 PUSH2 0x513 JUMP JUMPDEST SWAP1 POP SWAP2 SWAP1 POP JUMP JUMPDEST PUSH1 0x0 DUP2 SWAP1 POP SWAP2 SWAP1 POP JUMP JUMPDEST PUSH32 0x4E487B7100000000000000000000000000000000000000000000000000000000 PUSH1 0x0 MSTORE PUSH1 0x41 PUSH1 0x4 MSTORE PUSH1 0x24 PUSH1 0x0 REVERT JUMPDEST PUSH1 0x0 DUP1 REVERT JUMPDEST PUSH1 0x0 DUP1 REVERT JUMPDEST PUSH1 0x0 DUP1 REVERT JUMPDEST PUSH1 0x0 DUP1 REVERT JUMPDEST PUSH1 0x0 PUSH1 0x1F NOT PUSH1 0x1F DUP4 ADD AND SWAP1 POP SWAP2 SWAP1 POP JUMP JUMPDEST PUSH1 0x0 DUP2 PUSH1 0x60 SHL SWAP1 POP SWAP2 SWAP1 POP JUMP JUMPDEST PUSH2 0x529 DUP2 PUSH2 0x3AC JUMP JUMPDEST DUP2 EQ PUSH2 0x534 JUMPI PUSH1 0x0 DUP1 REVERT JUMPDEST POP JUMP JUMPDEST PUSH2 0x540 DUP2 PUSH2 0x414 JUMP JUMPDEST DUP2 EQ PUSH2 0x54B JUMPI PUSH1 0x0 DUP1 REVERT JUMPDEST POP JUMP INVALID LOG2 PUSH5 0x6970667358 0x22 SLT KECCAK256 PUSH13 0x303C5926523C3B59FEA11A5C16 0xA8 0xD6 0xF8 0xDE 0xDA DUP11 0xEA 0xCD BYTE 0xBF 0x5E 0x5D PUSH1 0xDE CALLVALUE 0x26 0xE6 STATICCALL PUSH5 0x736F6C6343 STOP ADDMOD SMOD STOP CALLER "
				},
				"gasEstimates": {
					"creation": {
						"codeDepositCost": "282400",
						"executionCost": "324",
						"totalCost": "282724"
					},
					"external": {
						"hashRipemd160(uint256,string,address)": "infinite",
						"hashkeccak256(uint256,string,address)": "infinite",
						"hashshar256(uint256,string,address)": "infinite"
					}
				},
				"methodIdentifiers": {
					"hashRipemd160(uint256,string,address)": "4364b114",
					"hashkeccak256(uint256,string,address)": "6558b805",
					"hashshar256(uint256,string,address)": "cf97b7ec"
				}
			},
			"storageLayout": {
				"storage": [],
				"types": null
			},
			"userdoc": {
				"kind": "user",
				"methods": {},
				"version": 1
			}
		}
	}
}