{
	"fixedsizearray.sol": {
		"fixedsizearray": {
			"abi": [
				{
					"inputs": [],
					"stateMutability": "nonpayable",
					"type": "constructor"
				},
				{
					"inputs": [],
					"name": "arrinfunction",
					"outputs": [
						{
							"internalType": "uint256",
							"name": "",
							"type": "uint256"
						}
					],
					"stateMutability": "pure",
					"type": "function"
				},
				{
					"inputs": [],
					"name": "getarr",
					"outputs": [
						{
							"internalType": "uint256[5]",
							"name": "",
							"type": "uint256[5]"
						}
					],
					"stateMutability": "view",
					"type": "function"
				}
			],
			"devdoc": {
				"kind": "dev",
				"methods": {},
				"version": 1
			},
			"evm": {
				"assembly": "    /* \"fixedsizearray.sol\":63:472  contract fixedsizearray{... */\n  mstore(0x40, 0x80)\n    /* \"fixedsizearray.sol\":93:127  uint[5] arr = [10, 20, 30, 40, 50] */\n  mload(0x40)\n  dup1\n  0xa0\n  add\n  0x40\n  mstore\n  dup1\n    /* \"fixedsizearray.sol\":108:110  10 */\n  0x0a\n    /* \"fixedsizearray.sol\":93:127  uint[5] arr = [10, 20, 30, 40, 50] */\n  0xff\n  and\n  dup2\n  mstore\n  0x20\n  add\n    /* \"fixedsizearray.sol\":112:114  20 */\n  0x14\n    /* \"fixedsizearray.sol\":93:127  uint[5] arr = [10, 20, 30, 40, 50] */\n  0xff\n  and\n  dup2\n  mstore\n  0x20\n  add\n    /* \"fixedsizearray.sol\":116:118  30 */\n  0x1e\n    /* \"fixedsizearray.sol\":93:127  uint[5] arr = [10, 20, 30, 40, 50] */\n  0xff\n  and\n  dup2\n  mstore\n  0x20\n  add\n    /* \"fixedsizearray.sol\":120:122  40 */\n  0x28\n    /* \"fixedsizearray.sol\":93:127  uint[5] arr = [10, 20, 30, 40, 50] */\n  0xff\n  and\n  dup2\n  mstore\n  0x20\n  add\n    /* \"fixedsizearray.sol\":124:126  50 */\n  0x32\n    /* \"fixedsizearray.sol\":93:127  uint[5] arr = [10, 20, 30, 40, 50] */\n  0xff\n  and\n  dup2\n  mstore\n  pop\n  0x00\n  swap1\n  0x05\n  tag_1\n  swap3\n  swap2\n  swap1\n  tag_2\n  jump\t// in\ntag_1:\n  pop\n    /* \"fixedsizearray.sol\":134:216  constructor(){... */\n  callvalue\n  dup1\n  iszero\n  tag_3\n  jumpi\n  0x00\n  dup1\n  revert\ntag_3:\n  pop\n    /* \"fixedsizearray.sol\":183:209  arr = [10, 20, 30, 40, 50] */\n  mload(0x40)\n  dup1\n  0xa0\n  add\n  0x40\n  mstore\n  dup1\n    /* \"fixedsizearray.sol\":190:192  10 */\n  0x0a\n    /* \"fixedsizearray.sol\":183:209  arr = [10, 20, 30, 40, 50] */\n  0xff\n  and\n  dup2\n  mstore\n  0x20\n  add\n    /* \"fixedsizearray.sol\":194:196  20 */\n  0x14\n    /* \"fixedsizearray.sol\":183:209  arr = [10, 20, 30, 40, 50] */\n  0xff\n  and\n  dup2\n  mstore\n  0x20\n  add\n    /* \"fixedsizearray.sol\":198:200  30 */\n  0x1e\n    /* \"fixedsizearray.sol\":183:209  arr = [10, 20, 30, 40, 50] */\n  0xff\n  and\n  dup2\n  mstore\n  0x20\n  add\n    /* \"fixedsizearray.sol\":202:204  40 */\n  0x28\n    /* \"fixedsizearray.sol\":183:209  arr = [10, 20, 30, 40, 50] */\n  0xff\n  and\n  dup2\n  mstore\n  0x20\n  add\n    /* \"fixedsizearray.sol\":206:208  50 */\n  0x32\n    /* \"fixedsizearray.sol\":183:209  arr = [10, 20, 30, 40, 50] */\n  0xff\n  and\n  dup2\n  mstore\n  pop\n    /* \"fixedsizearray.sol\":183:186  arr */\n  0x00\n    /* \"fixedsizearray.sol\":183:209  arr = [10, 20, 30, 40, 50] */\n  swap1\n  0x05\n  tag_6\n  swap3\n  swap2\n  swap1\n  tag_2\n  jump\t// in\ntag_6:\n  pop\n    /* \"fixedsizearray.sol\":63:472  contract fixedsizearray{... */\n  jump(tag_7)\ntag_2:\n  dup3\n  0x05\n  dup2\n  add\n  swap3\n  dup3\n  iszero\n  tag_8\n  jumpi\n  swap2\n  0x20\n  mul\n  dup3\n  add\ntag_9:\n  dup3\n  dup2\n  gt\n  iszero\n  tag_10\n  jumpi\n  dup3\n  mload\n  dup3\n  swap1\n  0xff\n  and\n  swap1\n  sstore\n  swap2\n  0x20\n  add\n  swap2\n  swap1\n  0x01\n  add\n  swap1\n  jump(tag_9)\ntag_10:\ntag_8:\n  pop\n  swap1\n  pop\n  tag_11\n  swap2\n  swap1\n  tag_12\n  jump\t// in\ntag_11:\n  pop\n  swap1\n  jump\t// out\ntag_12:\ntag_13:\n  dup1\n  dup3\n  gt\n  iszero\n  tag_14\n  jumpi\n  0x00\n  dup2\n  0x00\n  swap1\n  sstore\n  pop\n  0x01\n  add\n  jump(tag_13)\ntag_14:\n  pop\n  swap1\n  jump\t// out\ntag_7:\n  dataSize(sub_0)\n  dup1\n  dataOffset(sub_0)\n  0x00\n  codecopy\n  0x00\n  return\nstop\n\nsub_0: assembly {\n        /* \"fixedsizearray.sol\":63:472  contract fixedsizearray{... */\n      mstore(0x40, 0x80)\n      callvalue\n      dup1\n      iszero\n      tag_1\n      jumpi\n      0x00\n      dup1\n      revert\n    tag_1:\n      pop\n      jumpi(tag_2, lt(calldatasize, 0x04))\n      shr(0xe0, calldataload(0x00))\n      dup1\n      0x6bc7deae\n      eq\n      tag_3\n      jumpi\n      dup1\n      0xc72eb497\n      eq\n      tag_4\n      jumpi\n    tag_2:\n      0x00\n      dup1\n      revert\n        /* \"fixedsizearray.sol\":387:467  function getarr() public view returns(uint[5] memory){... */\n    tag_3:\n      tag_5\n      tag_6\n      jump\t// in\n    tag_5:\n      mload(0x40)\n      tag_7\n      swap2\n      swap1\n      tag_8\n      jump\t// in\n    tag_7:\n      mload(0x40)\n      dup1\n      swap2\n      sub\n      swap1\n      return\n        /* \"fixedsizearray.sol\":222:381  function arrinfunction() public pure returns(uint){... */\n    tag_4:\n      tag_9\n      tag_10\n      jump\t// in\n    tag_9:\n      mload(0x40)\n      tag_11\n      swap2\n      swap1\n      tag_12\n      jump\t// in\n    tag_11:\n      mload(0x40)\n      dup1\n      swap2\n      sub\n      swap1\n      return\n        /* \"fixedsizearray.sol\":387:467  function getarr() public view returns(uint[5] memory){... */\n    tag_6:\n        /* \"fixedsizearray.sol\":425:439  uint[5] memory */\n      tag_13\n      tag_14\n      jump\t// in\n    tag_13:\n        /* \"fixedsizearray.sol\":457:460  arr */\n      0x00\n        /* \"fixedsizearray.sol\":450:460  return arr */\n      0x05\n      dup1\n      0x20\n      mul\n      mload(0x40)\n      swap1\n      dup2\n      add\n      0x40\n      mstore\n      dup1\n      swap3\n      swap2\n      swap1\n      dup3\n      0x05\n      dup1\n      iszero\n      tag_16\n      jumpi\n      0x20\n      mul\n      dup3\n      add\n      swap2\n    tag_17:\n      dup2\n      sload\n      dup2\n      mstore\n      0x20\n      add\n      swap1\n      0x01\n      add\n      swap1\n      dup1\n      dup4\n      gt\n      tag_17\n      jumpi\n    tag_16:\n      pop\n      pop\n      pop\n      pop\n      pop\n      swap1\n      pop\n        /* \"fixedsizearray.sol\":387:467  function getarr() public view returns(uint[5] memory){... */\n      swap1\n      jump\t// out\n        /* \"fixedsizearray.sol\":222:381  function arrinfunction() public pure returns(uint){... */\n    tag_10:\n        /* \"fixedsizearray.sol\":267:271  uint */\n      0x00\n        /* \"fixedsizearray.sol\":283:305  uint[] memory arrinfun */\n      dup1\n        /* \"fixedsizearray.sol\":319:320  3 */\n      0x03\n        /* \"fixedsizearray.sol\":308:321  new uint[](3) */\n      0xffffffffffffffff\n      dup2\n      gt\n      iszero\n      tag_19\n      jumpi\n      tag_20\n      tag_21\n      jump\t// in\n    tag_20:\n    tag_19:\n      mload(0x40)\n      swap1\n      dup1\n      dup3\n      mstore\n      dup1\n      0x20\n      mul\n      0x20\n      add\n      dup3\n      add\n      0x40\n      mstore\n      dup1\n      iszero\n      tag_22\n      jumpi\n      dup2\n      0x20\n      add\n      0x20\n      dup3\n      mul\n      dup1\n      calldatasize\n      dup4\n      calldatacopy\n      dup1\n      dup3\n      add\n      swap2\n      pop\n      pop\n      swap1\n      pop\n    tag_22:\n      pop\n        /* \"fixedsizearray.sol\":283:321  uint[] memory arrinfun = new uint[](3) */\n      swap1\n      pop\n        /* \"fixedsizearray.sol\":344:346  30 */\n      0x1e\n        /* \"fixedsizearray.sol\":332:340  arrinfun */\n      dup2\n        /* \"fixedsizearray.sol\":341:342  1 */\n      0x01\n        /* \"fixedsizearray.sol\":332:343  arrinfun[1] */\n      dup2\n      mload\n      dup2\n      lt\n      tag_23\n      jumpi\n      tag_24\n      tag_25\n      jump\t// in\n    tag_24:\n    tag_23:\n      0x20\n      mul\n      0x20\n      add\n      add\n        /* \"fixedsizearray.sol\":332:346  arrinfun[1]=30 */\n      dup2\n      dup2\n      mstore\n      pop\n      pop\n        /* \"fixedsizearray.sol\":363:371  arrinfun */\n      dup1\n        /* \"fixedsizearray.sol\":372:373  1 */\n      0x01\n        /* \"fixedsizearray.sol\":363:374  arrinfun[1] */\n      dup2\n      mload\n      dup2\n      lt\n      tag_26\n      jumpi\n      tag_27\n      tag_25\n      jump\t// in\n    tag_27:\n    tag_26:\n      0x20\n      mul\n      0x20\n      add\n      add\n      mload\n        /* \"fixedsizearray.sol\":356:374  return arrinfun[1] */\n      swap2\n      pop\n      pop\n        /* \"fixedsizearray.sol\":222:381  function arrinfunction() public pure returns(uint){... */\n      swap1\n      jump\t// out\n    tag_14:\n      mload(0x40)\n      dup1\n      0xa0\n      add\n      0x40\n      mstore\n      dup1\n      0x05\n      swap1\n      0x20\n      dup3\n      mul\n      dup1\n      calldatasize\n      dup4\n      calldatacopy\n      dup1\n      dup3\n      add\n      swap2\n      pop\n      pop\n      swap1\n      pop\n      pop\n      swap1\n      jump\t// out\n        /* \"#utility.yul\":7:186   */\n    tag_29:\n        /* \"#utility.yul\":76:86   */\n      0x00\n        /* \"#utility.yul\":97:143   */\n      tag_31\n        /* \"#utility.yul\":139:142   */\n      dup4\n        /* \"#utility.yul\":131:137   */\n      dup4\n        /* \"#utility.yul\":97:143   */\n      tag_32\n      jump\t// in\n    tag_31:\n        /* \"#utility.yul\":175:179   */\n      0x20\n        /* \"#utility.yul\":170:173   */\n      dup4\n        /* \"#utility.yul\":166:180   */\n      add\n        /* \"#utility.yul\":152:180   */\n      swap1\n      pop\n        /* \"#utility.yul\":7:186   */\n      swap3\n      swap2\n      pop\n      pop\n      jump\t// out\n        /* \"#utility.yul\":224:918   */\n    tag_33:\n        /* \"#utility.yul\":360:412   */\n      tag_35\n        /* \"#utility.yul\":406:411   */\n      dup2\n        /* \"#utility.yul\":360:412   */\n      tag_36\n      jump\t// in\n    tag_35:\n        /* \"#utility.yul\":428:512   */\n      tag_37\n        /* \"#utility.yul\":505:511   */\n      dup2\n        /* \"#utility.yul\":500:503   */\n      dup5\n        /* \"#utility.yul\":428:512   */\n      tag_38\n      jump\t// in\n    tag_37:\n        /* \"#utility.yul\":421:512   */\n      swap3\n      pop\n        /* \"#utility.yul\":536:590   */\n      tag_39\n        /* \"#utility.yul\":584:589   */\n      dup3\n        /* \"#utility.yul\":536:590   */\n      tag_40\n      jump\t// in\n    tag_39:\n        /* \"#utility.yul\":613:620   */\n      dup1\n        /* \"#utility.yul\":644:645   */\n      0x00\n        /* \"#utility.yul\":629:911   */\n    tag_41:\n        /* \"#utility.yul\":654:660   */\n      dup4\n        /* \"#utility.yul\":651:652   */\n      dup2\n        /* \"#utility.yul\":648:661   */\n      lt\n        /* \"#utility.yul\":629:911   */\n      iszero\n      tag_43\n      jumpi\n        /* \"#utility.yul\":730:736   */\n      dup2\n        /* \"#utility.yul\":724:737   */\n      mload\n        /* \"#utility.yul\":757:820   */\n      tag_44\n        /* \"#utility.yul\":816:819   */\n      dup8\n        /* \"#utility.yul\":801:814   */\n      dup3\n        /* \"#utility.yul\":757:820   */\n      tag_29\n      jump\t// in\n    tag_44:\n        /* \"#utility.yul\":750:820   */\n      swap7\n      pop\n        /* \"#utility.yul\":843:901   */\n      tag_45\n        /* \"#utility.yul\":894:900   */\n      dup4\n        /* \"#utility.yul\":843:901   */\n      tag_46\n      jump\t// in\n    tag_45:\n        /* \"#utility.yul\":833:901   */\n      swap3\n      pop\n        /* \"#utility.yul\":689:911   */\n      pop\n        /* \"#utility.yul\":676:677   */\n      0x01\n        /* \"#utility.yul\":673:674   */\n      dup2\n        /* \"#utility.yul\":669:678   */\n      add\n        /* \"#utility.yul\":664:678   */\n      swap1\n      pop\n        /* \"#utility.yul\":629:911   */\n      jump(tag_41)\n    tag_43:\n        /* \"#utility.yul\":633:647   */\n      pop\n        /* \"#utility.yul\":336:918   */\n      pop\n      pop\n      pop\n        /* \"#utility.yul\":224:918   */\n      pop\n      pop\n      jump\t// out\n        /* \"#utility.yul\":924:1032   */\n    tag_32:\n        /* \"#utility.yul\":1001:1025   */\n      tag_48\n        /* \"#utility.yul\":1019:1024   */\n      dup2\n        /* \"#utility.yul\":1001:1025   */\n      tag_49\n      jump\t// in\n    tag_48:\n        /* \"#utility.yul\":996:999   */\n      dup3\n        /* \"#utility.yul\":989:1026   */\n      mstore\n        /* \"#utility.yul\":924:1032   */\n      pop\n      pop\n      jump\t// out\n        /* \"#utility.yul\":1038:1156   */\n    tag_50:\n        /* \"#utility.yul\":1125:1149   */\n      tag_52\n        /* \"#utility.yul\":1143:1148   */\n      dup2\n        /* \"#utility.yul\":1125:1149   */\n      tag_49\n      jump\t// in\n    tag_52:\n        /* \"#utility.yul\":1120:1123   */\n      dup3\n        /* \"#utility.yul\":1113:1150   */\n      mstore\n        /* \"#utility.yul\":1038:1156   */\n      pop\n      pop\n      jump\t// out\n        /* \"#utility.yul\":1162:1477   */\n    tag_8:\n        /* \"#utility.yul\":1301:1305   */\n      0x00\n        /* \"#utility.yul\":1339:1342   */\n      0xa0\n        /* \"#utility.yul\":1328:1337   */\n      dup3\n        /* \"#utility.yul\":1324:1343   */\n      add\n        /* \"#utility.yul\":1316:1343   */\n      swap1\n      pop\n        /* \"#utility.yul\":1353:1470   */\n      tag_54\n        /* \"#utility.yul\":1467:1468   */\n      0x00\n        /* \"#utility.yul\":1456:1465   */\n      dup4\n        /* \"#utility.yul\":1452:1469   */\n      add\n        /* \"#utility.yul\":1443:1449   */\n      dup5\n        /* \"#utility.yul\":1353:1470   */\n      tag_33\n      jump\t// in\n    tag_54:\n        /* \"#utility.yul\":1162:1477   */\n      swap3\n      swap2\n      pop\n      pop\n      jump\t// out\n        /* \"#utility.yul\":1483:1705   */\n    tag_12:\n        /* \"#utility.yul\":1576:1580   */\n      0x00\n        /* \"#utility.yul\":1614:1616   */\n      0x20\n        /* \"#utility.yul\":1603:1612   */\n      dup3\n        /* \"#utility.yul\":1599:1617   */\n      add\n        /* \"#utility.yul\":1591:1617   */\n      swap1\n      pop\n        /* \"#utility.yul\":1627:1698   */\n      tag_56\n        /* \"#utility.yul\":1695:1696   */\n      0x00\n        /* \"#utility.yul\":1684:1693   */\n      dup4\n        /* \"#utility.yul\":1680:1697   */\n      add\n        /* \"#utility.yul\":1671:1677   */\n      dup5\n        /* \"#utility.yul\":1627:1698   */\n      tag_50\n      jump\t// in\n    tag_56:\n        /* \"#utility.yul\":1483:1705   */\n      swap3\n      swap2\n      pop\n      pop\n      jump\t// out\n        /* \"#utility.yul\":1711:1809   */\n    tag_40:\n        /* \"#utility.yul\":1776:1780   */\n      0x00\n        /* \"#utility.yul\":1799:1802   */\n      dup2\n        /* \"#utility.yul\":1791:1802   */\n      swap1\n      pop\n        /* \"#utility.yul\":1711:1809   */\n      swap2\n      swap1\n      pop\n      jump\t// out\n        /* \"#utility.yul\":1815:1919   */\n    tag_36:\n        /* \"#utility.yul\":1880:1886   */\n      0x00\n        /* \"#utility.yul\":1908:1912   */\n      0x05\n        /* \"#utility.yul\":1898:1912   */\n      swap1\n      pop\n        /* \"#utility.yul\":1815:1919   */\n      swap2\n      swap1\n      pop\n      jump\t// out\n        /* \"#utility.yul\":1925:2036   */\n    tag_46:\n        /* \"#utility.yul\":1993:1997   */\n      0x00\n        /* \"#utility.yul\":2025:2029   */\n      0x20\n        /* \"#utility.yul\":2020:2023   */\n      dup3\n        /* \"#utility.yul\":2016:2030   */\n      add\n        /* \"#utility.yul\":2008:2030   */\n      swap1\n      pop\n        /* \"#utility.yul\":1925:2036   */\n      swap2\n      swap1\n      pop\n      jump\t// out\n        /* \"#utility.yul\":2042:2185   */\n    tag_38:\n        /* \"#utility.yul\":2139:2150   */\n      0x00\n        /* \"#utility.yul\":2176:2179   */\n      dup2\n        /* \"#utility.yul\":2161:2179   */\n      swap1\n      pop\n        /* \"#utility.yul\":2042:2185   */\n      swap3\n      swap2\n      pop\n      pop\n      jump\t// out\n        /* \"#utility.yul\":2191:2268   */\n    tag_49:\n        /* \"#utility.yul\":2228:2235   */\n      0x00\n        /* \"#utility.yul\":2257:2262   */\n      dup2\n        /* \"#utility.yul\":2246:2262   */\n      swap1\n      pop\n        /* \"#utility.yul\":2191:2268   */\n      swap2\n      swap1\n      pop\n      jump\t// out\n        /* \"#utility.yul\":2274:2454   */\n    tag_25:\n        /* \"#utility.yul\":2322:2399   */\n      0x4e487b7100000000000000000000000000000000000000000000000000000000\n        /* \"#utility.yul\":2319:2320   */\n      0x00\n        /* \"#utility.yul\":2312:2400   */\n      mstore\n        /* \"#utility.yul\":2419:2423   */\n      0x32\n        /* \"#utility.yul\":2416:2417   */\n      0x04\n        /* \"#utility.yul\":2409:2424   */\n      mstore\n        /* \"#utility.yul\":2443:2447   */\n      0x24\n        /* \"#utility.yul\":2440:2441   */\n      0x00\n        /* \"#utility.yul\":2433:2448   */\n      revert\n        /* \"#utility.yul\":2460:2640   */\n    tag_21:\n        /* \"#utility.yul\":2508:2585   */\n      0x4e487b7100000000000000000000000000000000000000000000000000000000\n        /* \"#utility.yul\":2505:2506   */\n      0x00\n        /* \"#utility.yul\":2498:2586   */\n      mstore\n        /* \"#utility.yul\":2605:2609   */\n      0x41\n        /* \"#utility.yul\":2602:2603   */\n      0x04\n        /* \"#utility.yul\":2595:2610   */\n      mstore\n        /* \"#utility.yul\":2629:2633   */\n      0x24\n        /* \"#utility.yul\":2626:2627   */\n      0x00\n        /* \"#utility.yul\":2619:2634   */\n      revert\n\n    auxdata: 0xa2646970667358221220ac4e9d40e572957895c1d777239e93502a903553ce2a48d687e39539f60d554364736f6c63430008070033\n}\n",
				"bytecode": {
					"linkReferences": {},
					"object": "60806040526040518060a00160405280600a60ff168152602001601460ff168152602001601e60ff168152602001602860ff168152602001603260ff16815250600090600561004f9291906100ae565b5034801561005c57600080fd5b506040518060a00160405280600a60ff168152602001601460ff168152602001601e60ff168152602001602860ff168152602001603260ff1681525060009060056100a89291906100ae565b50610110565b82600581019282156100e2579160200282015b828111156100e1578251829060ff169055916020019190600101906100c1565b5b5090506100ef91906100f3565b5090565b5b8082111561010c5760008160009055506001016100f4565b5090565b6103058061011f6000396000f3fe608060405234801561001057600080fd5b50600436106100365760003560e01c80636bc7deae1461003b578063c72eb49714610059575b600080fd5b610043610077565b6040516100509190610204565b60405180910390f35b6100616100c2565b60405161006e919061021f565b60405180910390f35b61007f610155565b60006005806020026040519081016040528092919082600580156100b8576020028201915b8154815260200190600101908083116100a4575b5050505050905090565b600080600367ffffffffffffffff8111156100e0576100df6102a0565b5b60405190808252806020026020018201604052801561010e5781602001602082028036833780820191505090505b509050601e8160018151811061012757610126610271565b5b6020026020010181815250508060018151811061014757610146610271565b5b602002602001015191505090565b6040518060a00160405280600590602082028036833780820191505090505090565b600061018383836101e6565b60208301905092915050565b61019881610244565b6101a2818461025c565b92506101ad8261023a565b8060005b838110156101de5781516101c58782610177565b96506101d08361024f565b9250506001810190506101b1565b505050505050565b6101ef81610267565b82525050565b6101fe81610267565b82525050565b600060a082019050610219600083018461018f565b92915050565b600060208201905061023460008301846101f5565b92915050565b6000819050919050565b600060059050919050565b6000602082019050919050565b600081905092915050565b6000819050919050565b7f4e487b7100000000000000000000000000000000000000000000000000000000600052603260045260246000fd5b7f4e487b7100000000000000000000000000000000000000000000000000000000600052604160045260246000fdfea2646970667358221220ac4e9d40e572957895c1d777239e93502a903553ce2a48d687e39539f60d554364736f6c63430008070033",
					"opcodes": "PUSH1 0x80 PUSH1 0x40 MSTORE PUSH1 0x40 MLOAD DUP1 PUSH1 0xA0 ADD PUSH1 0x40 MSTORE DUP1 PUSH1 0xA PUSH1 0xFF AND DUP2 MSTORE PUSH1 0x20 ADD PUSH1 0x14 PUSH1 0xFF AND DUP2 MSTORE PUSH1 0x20 ADD PUSH1 0x1E PUSH1 0xFF AND DUP2 MSTORE PUSH1 0x20 ADD PUSH1 0x28 PUSH1 0xFF AND DUP2 MSTORE PUSH1 0x20 ADD PUSH1 0x32 PUSH1 0xFF AND DUP2 MSTORE POP PUSH1 0x0 SWAP1 PUSH1 0x5 PUSH2 0x4F SWAP3 SWAP2 SWAP1 PUSH2 0xAE JUMP JUMPDEST POP CALLVALUE DUP1 ISZERO PUSH2 0x5C JUMPI PUSH1 0x0 DUP1 REVERT JUMPDEST POP PUSH1 0x40 MLOAD DUP1 PUSH1 0xA0 ADD PUSH1 0x40 MSTORE DUP1 PUSH1 0xA PUSH1 0xFF AND DUP2 MSTORE PUSH1 0x20 ADD PUSH1 0x14 PUSH1 0xFF AND DUP2 MSTORE PUSH1 0x20 ADD PUSH1 0x1E PUSH1 0xFF AND DUP2 MSTORE PUSH1 0x20 ADD PUSH1 0x28 PUSH1 0xFF AND DUP2 MSTORE PUSH1 0x20 ADD PUSH1 0x32 PUSH1 0xFF AND DUP2 MSTORE POP PUSH1 0x0 SWAP1 PUSH1 0x5 PUSH2 0xA8 SWAP3 SWAP2 SWAP1 PUSH2 0xAE JUMP JUMPDEST POP PUSH2 0x110 JUMP JUMPDEST DUP3 PUSH1 0x5 DUP2 ADD SWAP3 DUP3 ISZERO PUSH2 0xE2 JUMPI SWAP2 PUSH1 0x20 MUL DUP3 ADD JUMPDEST DUP3 DUP2 GT ISZERO PUSH2 0xE1 JUMPI DUP3 MLOAD DUP3 SWAP1 PUSH1 0xFF AND SWAP1 SSTORE SWAP2 PUSH1 0x20 ADD SWAP2 SWAP1 PUSH1 0x1 ADD SWAP1 PUSH2 0xC1 JUMP JUMPDEST JUMPDEST POP SWAP1 POP PUSH2 0xEF SWAP2 SWAP1 PUSH2 0xF3 JUMP JUMPDEST POP SWAP1 JUMP JUMPDEST JUMPDEST DUP1 DUP3 GT ISZERO PUSH2 0x10C JUMPI PUSH1 0x0 DUP2 PUSH1 0x0 SWAP1 SSTORE POP PUSH1 0x1 ADD PUSH2 0xF4 JUMP JUMPDEST POP SWAP1 JUMP JUMPDEST PUSH2 0x305 DUP1 PUSH2 0x11F PUSH1 0x0 CODECOPY PUSH1 0x0 RETURN INVALID PUSH1 0x80 PUSH1 0x40 MSTORE CALLVALUE DUP1 ISZERO PUSH2 0x10 JUMPI PUSH1 0x0 DUP1 REVERT JUMPDEST POP PUSH1 0x4 CALLDATASIZE LT PUSH2 0x36 JUMPI PUSH1 0x0 CALLDATALOAD PUSH1 0xE0 SHR DUP1 PUSH4 0x6BC7DEAE EQ PUSH2 0x3B JUMPI DUP1 PUSH4 0xC72EB497 EQ PUSH2 0x59 JUMPI JUMPDEST PUSH1 0x0 DUP1 REVERT JUMPDEST PUSH2 0x43 PUSH2 0x77 JUMP JUMPDEST PUSH1 0x40 MLOAD PUSH2 0x50 SWAP2 SWAP1 PUSH2 0x204 JUMP JUMPDEST PUSH1 0x40 MLOAD DUP1 SWAP2 SUB SWAP1 RETURN JUMPDEST PUSH2 0x61 PUSH2 0xC2 JUMP JUMPDEST PUSH1 0x40 MLOAD PUSH2 0x6E SWAP2 SWAP1 PUSH2 0x21F JUMP JUMPDEST PUSH1 0x40 MLOAD DUP1 SWAP2 SUB SWAP1 RETURN JUMPDEST PUSH2 0x7F PUSH2 0x155 JUMP JUMPDEST PUSH1 0x0 PUSH1 0x5 DUP1 PUSH1 0x20 MUL PUSH1 0x40 MLOAD SWAP1 DUP2 ADD PUSH1 0x40 MSTORE DUP1 SWAP3 SWAP2 SWAP1 DUP3 PUSH1 0x5 DUP1 ISZERO PUSH2 0xB8 JUMPI PUSH1 0x20 MUL DUP3 ADD SWAP2 JUMPDEST DUP2 SLOAD DUP2 MSTORE PUSH1 0x20 ADD SWAP1 PUSH1 0x1 ADD SWAP1 DUP1 DUP4 GT PUSH2 0xA4 JUMPI JUMPDEST POP POP POP POP POP SWAP1 POP SWAP1 JUMP JUMPDEST PUSH1 0x0 DUP1 PUSH1 0x3 PUSH8 0xFFFFFFFFFFFFFFFF DUP2 GT ISZERO PUSH2 0xE0 JUMPI PUSH2 0xDF PUSH2 0x2A0 JUMP JUMPDEST JUMPDEST PUSH1 0x40 MLOAD SWAP1 DUP1 DUP3 MSTORE DUP1 PUSH1 0x20 MUL PUSH1 0x20 ADD DUP3 ADD PUSH1 0x40 MSTORE DUP1 ISZERO PUSH2 0x10E JUMPI DUP2 PUSH1 0x20 ADD PUSH1 0x20 DUP3 MUL DUP1 CALLDATASIZE DUP4 CALLDATACOPY DUP1 DUP3 ADD SWAP2 POP POP SWAP1 POP JUMPDEST POP SWAP1 POP PUSH1 0x1E DUP2 PUSH1 0x1 DUP2 MLOAD DUP2 LT PUSH2 0x127 JUMPI PUSH2 0x126 PUSH2 0x271 JUMP JUMPDEST JUMPDEST PUSH1 0x20 MUL PUSH1 0x20 ADD ADD DUP2 DUP2 MSTORE POP POP DUP1 PUSH1 0x1 DUP2 MLOAD DUP2 LT PUSH2 0x147 JUMPI PUSH2 0x146 PUSH2 0x271 JUMP JUMPDEST JUMPDEST PUSH1 0x20 MUL PUSH1 0x20 ADD ADD MLOAD SWAP2 POP POP SWAP1 JUMP JUMPDEST PUSH1 0x40 MLOAD DUP1 PUSH1 0xA0 ADD PUSH1 0x40 MSTORE DUP1 PUSH1 0x5 SWAP1 PUSH1 0x20 DUP3 MUL DUP1 CALLDATASIZE DUP4 CALLDATACOPY DUP1 DUP3 ADD SWAP2 POP POP SWAP1 POP POP SWAP1 JUMP JUMPDEST PUSH1 0x0 PUSH2 0x183 DUP4 DUP4 PUSH2 0x1E6 JUMP JUMPDEST PUSH1 0x20 DUP4 ADD SWAP1 POP SWAP3 SWAP2 POP POP JUMP JUMPDEST PUSH2 0x198 DUP2 PUSH2 0x244 JUMP JUMPDEST PUSH2 0x1A2 DUP2 DUP5 PUSH2 0x25C JUMP JUMPDEST SWAP3 POP PUSH2 0x1AD DUP3 PUSH2 0x23A JUMP JUMPDEST DUP1 PUSH1 0x0 JUMPDEST DUP4 DUP2 LT ISZERO PUSH2 0x1DE JUMPI DUP2 MLOAD PUSH2 0x1C5 DUP8 DUP3 PUSH2 0x177 JUMP JUMPDEST SWAP7 POP PUSH2 0x1D0 DUP4 PUSH2 0x24F JUMP JUMPDEST SWAP3 POP POP PUSH1 0x1 DUP2 ADD SWAP1 POP PUSH2 0x1B1 JUMP JUMPDEST POP POP POP POP POP POP JUMP JUMPDEST PUSH2 0x1EF DUP2 PUSH2 0x267 JUMP JUMPDEST DUP3 MSTORE POP POP JUMP JUMPDEST PUSH2 0x1FE DUP2 PUSH2 0x267 JUMP JUMPDEST DUP3 MSTORE POP POP JUMP JUMPDEST PUSH1 0x0 PUSH1 0xA0 DUP3 ADD SWAP1 POP PUSH2 0x219 PUSH1 0x0 DUP4 ADD DUP5 PUSH2 0x18F JUMP JUMPDEST SWAP3 SWAP2 POP POP JUMP JUMPDEST PUSH1 0x0 PUSH1 0x20 DUP3 ADD SWAP1 POP PUSH2 0x234 PUSH1 0x0 DUP4 ADD DUP5 PUSH2 0x1F5 JUMP JUMPDEST SWAP3 SWAP2 POP POP JUMP JUMPDEST PUSH1 0x0 DUP2 SWAP1 POP SWAP2 SWAP1 POP JUMP JUMPDEST PUSH1 0x0 PUSH1 0x5 SWAP1 POP SWAP2 SWAP1 POP JUMP JUMPDEST PUSH1 0x0 PUSH1 0x20 DUP3 ADD SWAP1 POP SWAP2 SWAP1 POP JUMP JUMPDEST PUSH1 0x0 DUP2 SWAP1 POP SWAP3 SWAP2 POP POP JUMP JUMPDEST PUSH1 0x0 DUP2 SWAP1 POP SWAP2 SWAP1 POP JUMP JUMPDEST PUSH32 0x4E487B7100000000000000000000000000000000000000000000000000000000 PUSH1 0x0 MSTORE PUSH1 0x32 PUSH1 0x4 MSTORE PUSH1 0x24 PUSH1 0x0 REVERT JUMPDEST PUSH32 0x4E487B7100000000000000000000000000000000000000000000000000000000 PUSH1 0x0 MSTORE PUSH1 0x41 PUSH1 0x4 MSTORE PUSH1 0x24 PUSH1 0x0 REVERT INVALID LOG2 PUSH5 0x6970667358 0x22 SLT KECCAK256 0xAC 0x4E SWAP14 BLOCKHASH 0xE5 PUSH19 0x957895C1D777239E93502A903553CE2A48D687 0xE3 SWAP6 CODECOPY 0xF6 0xD SSTORE NUMBER PUSH5 0x736F6C6343 STOP ADDMOD SMOD STOP CALLER "
				},
				"gasEstimates": {
					"creation": {
						"codeDepositCost": "154600",
						"executionCost": "infinite",
						"totalCost": "infinite"
					},
					"external": {
						"arrinfunction()": "infinite",
						"getarr()": "infinite"
					}
				},
				"methodIdentifiers": {
					"arrinfunction()": "c72eb497",
					"getarr()": "6bc7deae"
				}
			},
			"storageLayout": {
				"storage": [
					{
						"astId": 11,
						"contract": "fixedsizearray.sol:fixedsizearray",
						"label": "arr",
						"offset": 0,
						"slot": "0",
						"type": "t_array(t_uint256)5_storage"
					}
				],
				"types": {
					"t_array(t_uint256)5_storage": {
						"base": "t_uint256",
						"encoding": "inplace",
						"label": "uint256[5]",
						"numberOfBytes": "160"
					},
					"t_uint256": {
						"encoding": "inplace",
						"label": "uint256",
						"numberOfBytes": "32"
					}
				}
			},
			"userdoc": {
				"kind": "user",
				"methods": {},
				"version": 1
			}
		}
	}
}