{
	"dynamicsizearr.sol": {
		"fixedsizearray": {
			"abi": [
				{
					"inputs": [],
					"name": "getarr",
					"outputs": [
						{
							"internalType": "uint256[]",
							"name": "",
							"type": "uint256[]"
						}
					],
					"stateMutability": "view",
					"type": "function"
				},
				{
					"inputs": [],
					"name": "getstatus",
					"outputs": [
						{
							"internalType": "string",
							"name": "",
							"type": "string"
						}
					],
					"stateMutability": "view",
					"type": "function"
				},
				{
					"inputs": [],
					"name": "getupdate",
					"outputs": [
						{
							"internalType": "string",
							"name": "",
							"type": "string"
						}
					],
					"stateMutability": "view",
					"type": "function"
				},
				{
					"inputs": [],
					"name": "pushnum",
					"outputs": [
						{
							"internalType": "uint256[]",
							"name": "",
							"type": "uint256[]"
						}
					],
					"stateMutability": "view",
					"type": "function"
				},
				{
					"inputs": [],
					"name": "simpleoushinarr",
					"outputs": [],
					"stateMutability": "nonpayable",
					"type": "function"
				},
				{
					"inputs": [
						{
							"internalType": "uint256",
							"name": "_pos",
							"type": "uint256"
						},
						{
							"internalType": "uint256",
							"name": "_value",
							"type": "uint256"
						}
					],
					"name": "updatearr",
					"outputs": [],
					"stateMutability": "nonpayable",
					"type": "function"
				}
			],
			"devdoc": {
				"kind": "dev",
				"methods": {},
				"version": 1
			},
			"evm": {
				"assembly": "    /* \"dynamicsizearr.sol\":63:1008  contract fixedsizearray{... */\n  mstore(0x40, 0x80)\n    /* \"dynamicsizearr.sol\":112:145  uint[] arr = [10, 20, 30, 40, 50] */\n  mload(0x40)\n  dup1\n  0xa0\n  add\n  0x40\n  mstore\n  dup1\n    /* \"dynamicsizearr.sol\":126:128  10 */\n  0x0a\n    /* \"dynamicsizearr.sol\":112:145  uint[] arr = [10, 20, 30, 40, 50] */\n  0xff\n  and\n  dup2\n  mstore\n  0x20\n  add\n    /* \"dynamicsizearr.sol\":130:132  20 */\n  0x14\n    /* \"dynamicsizearr.sol\":112:145  uint[] arr = [10, 20, 30, 40, 50] */\n  0xff\n  and\n  dup2\n  mstore\n  0x20\n  add\n    /* \"dynamicsizearr.sol\":134:136  30 */\n  0x1e\n    /* \"dynamicsizearr.sol\":112:145  uint[] arr = [10, 20, 30, 40, 50] */\n  0xff\n  and\n  dup2\n  mstore\n  0x20\n  add\n    /* \"dynamicsizearr.sol\":138:140  40 */\n  0x28\n    /* \"dynamicsizearr.sol\":112:145  uint[] arr = [10, 20, 30, 40, 50] */\n  0xff\n  and\n  dup2\n  mstore\n  0x20\n  add\n    /* \"dynamicsizearr.sol\":142:144  50 */\n  0x32\n    /* \"dynamicsizearr.sol\":112:145  uint[] arr = [10, 20, 30, 40, 50] */\n  0xff\n  and\n  dup2\n  mstore\n  pop\n  0x01\n  swap1\n  0x05\n  tag_1\n  swap3\n  swap2\n  swap1\n  tag_2\n  jump\t// in\ntag_1:\n  pop\n    /* \"dynamicsizearr.sol\":63:1008  contract fixedsizearray{... */\n  callvalue\n  dup1\n  iszero\n  tag_3\n  jumpi\n  0x00\n  dup1\n  revert\ntag_3:\n  pop\n  jump(tag_4)\ntag_2:\n  dup3\n  dup1\n  sload\n  dup3\n  dup3\n  sstore\n  swap1\n  0x00\n  mstore\n  keccak256(0x00, 0x20)\n  swap1\n  dup2\n  add\n  swap3\n  dup3\n  iszero\n  tag_5\n  jumpi\n  swap2\n  0x20\n  mul\n  dup3\n  add\ntag_6:\n  dup3\n  dup2\n  gt\n  iszero\n  tag_7\n  jumpi\n  dup3\n  mload\n  dup3\n  swap1\n  0xff\n  and\n  swap1\n  sstore\n  swap2\n  0x20\n  add\n  swap2\n  swap1\n  0x01\n  add\n  swap1\n  jump(tag_6)\ntag_7:\ntag_5:\n  pop\n  swap1\n  pop\n  tag_8\n  swap2\n  swap1\n  tag_9\n  jump\t// in\ntag_8:\n  pop\n  swap1\n  jump\t// out\ntag_9:\ntag_10:\n  dup1\n  dup3\n  gt\n  iszero\n  tag_11\n  jumpi\n  0x00\n  dup2\n  0x00\n  swap1\n  sstore\n  pop\n  0x01\n  add\n  jump(tag_10)\ntag_11:\n  pop\n  swap1\n  jump\t// out\ntag_4:\n  dataSize(sub_0)\n  dup1\n  dataOffset(sub_0)\n  0x00\n  codecopy\n  0x00\n  return\nstop\n\nsub_0: assembly {\n        /* \"dynamicsizearr.sol\":63:1008  contract fixedsizearray{... */\n      mstore(0x40, 0x80)\n      callvalue\n      dup1\n      iszero\n      tag_1\n      jumpi\n      0x00\n      dup1\n      revert\n    tag_1:\n      pop\n      jumpi(tag_2, lt(calldatasize, 0x04))\n      shr(0xe0, calldataload(0x00))\n      dup1\n      0x0469a5e2\n      eq\n      tag_3\n      jumpi\n      dup1\n      0x3b0b0290\n      eq\n      tag_4\n      jumpi\n      dup1\n      0x4678f832\n      eq\n      tag_5\n      jumpi\n      dup1\n      0x6bc7deae\n      eq\n      tag_6\n      jumpi\n      dup1\n      0x9fd44f5a\n      eq\n      tag_7\n      jumpi\n      dup1\n      0xa80c52e9\n      eq\n      tag_8\n      jumpi\n    tag_2:\n      0x00\n      dup1\n      revert\n        /* \"dynamicsizearr.sol\":900:1006  function pushnum() public view returns(uint[] memory){... */\n    tag_3:\n      tag_9\n      tag_10\n      jump\t// in\n    tag_9:\n      mload(0x40)\n      tag_11\n      swap2\n      swap1\n      tag_12\n      jump\t// in\n    tag_11:\n      mload(0x40)\n      dup1\n      swap2\n      sub\n      swap1\n      return\n        /* \"dynamicsizearr.sol\":256:341  function getstatus() public view returns(string memory){... */\n    tag_4:\n      tag_13\n      tag_14\n      jump\t// in\n    tag_13:\n      mload(0x40)\n      tag_15\n      swap2\n      swap1\n      tag_16\n      jump\t// in\n    tag_15:\n      mload(0x40)\n      dup1\n      swap2\n      sub\n      swap1\n      return\n        /* \"dynamicsizearr.sol\":740:825  function getupdate() public view returns(string memory){... */\n    tag_5:\n      tag_17\n      tag_18\n      jump\t// in\n    tag_17:\n      mload(0x40)\n      tag_19\n      swap2\n      swap1\n      tag_16\n      jump\t// in\n    tag_19:\n      mload(0x40)\n      dup1\n      swap2\n      sub\n      swap1\n      return\n        /* \"dynamicsizearr.sol\":171:250  function getarr() public view returns(uint[] memory){... */\n    tag_6:\n      tag_20\n      tag_21\n      jump\t// in\n    tag_20:\n      mload(0x40)\n      tag_22\n      swap2\n      swap1\n      tag_12\n      jump\t// in\n    tag_22:\n      mload(0x40)\n      dup1\n      swap2\n      sub\n      swap1\n      return\n        /* \"dynamicsizearr.sol\":354:734  function updatearr(uint _pos, uint _value) public{... */\n    tag_7:\n      tag_23\n      0x04\n      dup1\n      calldatasize\n      sub\n      dup2\n      add\n      swap1\n      tag_24\n      swap2\n      swap1\n      tag_25\n      jump\t// in\n    tag_24:\n      tag_26\n      jump\t// in\n    tag_23:\n      stop\n        /* \"dynamicsizearr.sol\":831:894  function simpleoushinarr() public{... */\n    tag_8:\n      tag_27\n      tag_28\n      jump\t// in\n    tag_27:\n      stop\n        /* \"dynamicsizearr.sol\":900:1006  function pushnum() public view returns(uint[] memory){... */\n    tag_10:\n        /* \"dynamicsizearr.sol\":939:952  uint[] memory */\n      0x60\n        /* \"dynamicsizearr.sol\":996:999  arr */\n      0x01\n        /* \"dynamicsizearr.sol\":989:999  return arr */\n      dup1\n      sload\n      dup1\n      0x20\n      mul\n      0x20\n      add\n      mload(0x40)\n      swap1\n      dup2\n      add\n      0x40\n      mstore\n      dup1\n      swap3\n      swap2\n      swap1\n      dup2\n      dup2\n      mstore\n      0x20\n      add\n      dup3\n      dup1\n      sload\n      dup1\n      iszero\n      tag_30\n      jumpi\n      0x20\n      mul\n      dup3\n      add\n      swap2\n      swap1\n      0x00\n      mstore\n      keccak256(0x00, 0x20)\n      swap1\n    tag_31:\n      dup2\n      sload\n      dup2\n      mstore\n      0x20\n      add\n      swap1\n      0x01\n      add\n      swap1\n      dup1\n      dup4\n      gt\n      tag_31\n      jumpi\n    tag_30:\n      pop\n      pop\n      pop\n      pop\n      pop\n      swap1\n      pop\n        /* \"dynamicsizearr.sol\":900:1006  function pushnum() public view returns(uint[] memory){... */\n      swap1\n      jump\t// out\n        /* \"dynamicsizearr.sol\":256:341  function getstatus() public view returns(string memory){... */\n    tag_14:\n        /* \"dynamicsizearr.sol\":297:310  string memory */\n      0x60\n        /* \"dynamicsizearr.sol\":328:334  status */\n      0x00\n        /* \"dynamicsizearr.sol\":321:334  return status */\n      dup1\n      sload\n      tag_33\n      swap1\n      tag_34\n      jump\t// in\n    tag_33:\n      dup1\n      0x1f\n      add\n      0x20\n      dup1\n      swap2\n      div\n      mul\n      0x20\n      add\n      mload(0x40)\n      swap1\n      dup2\n      add\n      0x40\n      mstore\n      dup1\n      swap3\n      swap2\n      swap1\n      dup2\n      dup2\n      mstore\n      0x20\n      add\n      dup3\n      dup1\n      sload\n      tag_35\n      swap1\n      tag_34\n      jump\t// in\n    tag_35:\n      dup1\n      iszero\n      tag_36\n      jumpi\n      dup1\n      0x1f\n      lt\n      tag_37\n      jumpi\n      0x0100\n      dup1\n      dup4\n      sload\n      div\n      mul\n      dup4\n      mstore\n      swap2\n      0x20\n      add\n      swap2\n      jump(tag_36)\n    tag_37:\n      dup3\n      add\n      swap2\n      swap1\n      0x00\n      mstore\n      keccak256(0x00, 0x20)\n      swap1\n    tag_38:\n      dup2\n      sload\n      dup2\n      mstore\n      swap1\n      0x01\n      add\n      swap1\n      0x20\n      add\n      dup1\n      dup4\n      gt\n      tag_38\n      jumpi\n      dup3\n      swap1\n      sub\n      0x1f\n      and\n      dup3\n      add\n      swap2\n    tag_36:\n      pop\n      pop\n      pop\n      pop\n      pop\n      swap1\n      pop\n        /* \"dynamicsizearr.sol\":256:341  function getstatus() public view returns(string memory){... */\n      swap1\n      jump\t// out\n        /* \"dynamicsizearr.sol\":740:825  function getupdate() public view returns(string memory){... */\n    tag_18:\n        /* \"dynamicsizearr.sol\":781:794  string memory */\n      0x60\n        /* \"dynamicsizearr.sol\":812:818  status */\n      0x00\n        /* \"dynamicsizearr.sol\":805:818  return status */\n      dup1\n      sload\n      tag_40\n      swap1\n      tag_34\n      jump\t// in\n    tag_40:\n      dup1\n      0x1f\n      add\n      0x20\n      dup1\n      swap2\n      div\n      mul\n      0x20\n      add\n      mload(0x40)\n      swap1\n      dup2\n      add\n      0x40\n      mstore\n      dup1\n      swap3\n      swap2\n      swap1\n      dup2\n      dup2\n      mstore\n      0x20\n      add\n      dup3\n      dup1\n      sload\n      tag_41\n      swap1\n      tag_34\n      jump\t// in\n    tag_41:\n      dup1\n      iszero\n      tag_42\n      jumpi\n      dup1\n      0x1f\n      lt\n      tag_43\n      jumpi\n      0x0100\n      dup1\n      dup4\n      sload\n      div\n      mul\n      dup4\n      mstore\n      swap2\n      0x20\n      add\n      swap2\n      jump(tag_42)\n    tag_43:\n      dup3\n      add\n      swap2\n      swap1\n      0x00\n      mstore\n      keccak256(0x00, 0x20)\n      swap1\n    tag_44:\n      dup2\n      sload\n      dup2\n      mstore\n      swap1\n      0x01\n      add\n      swap1\n      0x20\n      add\n      dup1\n      dup4\n      gt\n      tag_44\n      jumpi\n      dup3\n      swap1\n      sub\n      0x1f\n      and\n      dup3\n      add\n      swap2\n    tag_42:\n      pop\n      pop\n      pop\n      pop\n      pop\n      swap1\n      pop\n        /* \"dynamicsizearr.sol\":740:825  function getupdate() public view returns(string memory){... */\n      swap1\n      jump\t// out\n        /* \"dynamicsizearr.sol\":171:250  function getarr() public view returns(uint[] memory){... */\n    tag_21:\n        /* \"dynamicsizearr.sol\":209:222  uint[] memory */\n      0x60\n        /* \"dynamicsizearr.sol\":240:243  arr */\n      0x01\n        /* \"dynamicsizearr.sol\":233:243  return arr */\n      dup1\n      sload\n      dup1\n      0x20\n      mul\n      0x20\n      add\n      mload(0x40)\n      swap1\n      dup2\n      add\n      0x40\n      mstore\n      dup1\n      swap3\n      swap2\n      swap1\n      dup2\n      dup2\n      mstore\n      0x20\n      add\n      dup3\n      dup1\n      sload\n      dup1\n      iszero\n      tag_46\n      jumpi\n      0x20\n      mul\n      dup3\n      add\n      swap2\n      swap1\n      0x00\n      mstore\n      keccak256(0x00, 0x20)\n      swap1\n    tag_47:\n      dup2\n      sload\n      dup2\n      mstore\n      0x20\n      add\n      swap1\n      0x01\n      add\n      swap1\n      dup1\n      dup4\n      gt\n      tag_47\n      jumpi\n    tag_46:\n      pop\n      pop\n      pop\n      pop\n      pop\n      swap1\n      pop\n        /* \"dynamicsizearr.sol\":171:250  function getarr() public view returns(uint[] memory){... */\n      swap1\n      jump\t// out\n        /* \"dynamicsizearr.sol\":354:734  function updatearr(uint _pos, uint _value) public{... */\n    tag_26:\n        /* \"dynamicsizearr.sol\":430:434  _pos */\n      dup2\n        /* \"dynamicsizearr.sol\":416:419  arr */\n      0x01\n        /* \"dynamicsizearr.sol\":416:426  arr.length */\n      dup1\n      sload\n      swap1\n      pop\n        /* \"dynamicsizearr.sol\":416:434  arr.length  > _pos */\n      gt\n        /* \"dynamicsizearr.sol\":413:727  if(arr.length  > _pos){... */\n      iszero\n      tag_49\n      jumpi\n        /* \"dynamicsizearr.sol\":461:467  _value */\n      dup1\n        /* \"dynamicsizearr.sol\":449:452  arr */\n      0x01\n        /* \"dynamicsizearr.sol\":453:457  _pos */\n      dup4\n        /* \"dynamicsizearr.sol\":449:458  arr[_pos] */\n      dup2\n      sload\n      dup2\n      lt\n      tag_50\n      jumpi\n      tag_51\n      tag_52\n      jump\t// in\n    tag_51:\n    tag_50:\n      swap1\n      0x00\n      mstore\n      keccak256(0x00, 0x20)\n      add\n        /* \"dynamicsizearr.sol\":449:467  arr[_pos] = _value */\n      dup2\n      swap1\n      sstore\n      pop\n        /* \"dynamicsizearr.sol\":413:727  if(arr.length  > _pos){... */\n      jump(tag_54)\n    tag_49:\n        /* \"dynamicsizearr.sol\":500:506  uint i */\n      0x00\n        /* \"dynamicsizearr.sol\":509:512  arr */\n      0x01\n        /* \"dynamicsizearr.sol\":509:519  arr.length */\n      dup1\n      sload\n      swap1\n      pop\n        /* \"dynamicsizearr.sol\":500:519  uint i = arr.length */\n      swap1\n      pop\n        /* \"dynamicsizearr.sol\":496:717  for(uint i = arr.length; i<=_pos; i++){... */\n    tag_55:\n        /* \"dynamicsizearr.sol\":524:528  _pos */\n      dup3\n        /* \"dynamicsizearr.sol\":521:522  i */\n      dup2\n        /* \"dynamicsizearr.sol\":521:528  i<=_pos */\n      gt\n        /* \"dynamicsizearr.sol\":496:717  for(uint i = arr.length; i<=_pos; i++){... */\n      tag_56\n      jumpi\n        /* \"dynamicsizearr.sol\":569:573  _pos */\n      dup3\n        /* \"dynamicsizearr.sol\":555:558  arr */\n      0x01\n        /* \"dynamicsizearr.sol\":555:565  arr.length */\n      dup1\n      sload\n      swap1\n      pop\n        /* \"dynamicsizearr.sol\":555:573  arr.length != _pos */\n      eq\n        /* \"dynamicsizearr.sol\":552:687  if(arr.length != _pos){... */\n      tag_58\n      jumpi\n        /* \"dynamicsizearr.sol\":596:599  arr */\n      0x01\n        /* \"dynamicsizearr.sol\":605:606  0 */\n      0x00\n        /* \"dynamicsizearr.sol\":596:607  arr.push(0) */\n      swap1\n      dup1\n      0x01\n      dup2\n      sload\n      add\n      dup1\n      dup3\n      sstore\n      dup1\n      swap2\n      pop\n      pop\n      0x01\n      swap1\n      sub\n      swap1\n      0x00\n      mstore\n      keccak256(0x00, 0x20)\n      add\n      0x00\n      swap1\n      swap2\n      swap1\n      swap2\n      swap1\n      swap2\n      pop\n      sstore\n        /* \"dynamicsizearr.sol\":552:687  if(arr.length != _pos){... */\n      jump(tag_60)\n    tag_58:\n        /* \"dynamicsizearr.sol\":649:652  arr */\n      0x01\n        /* \"dynamicsizearr.sol\":658:664  _value */\n      dup3\n        /* \"dynamicsizearr.sol\":649:665  arr.push(_value) */\n      swap1\n      dup1\n      0x01\n      dup2\n      sload\n      add\n      dup1\n      dup3\n      sstore\n      dup1\n      swap2\n      pop\n      pop\n      0x01\n      swap1\n      sub\n      swap1\n      0x00\n      mstore\n      keccak256(0x00, 0x20)\n      add\n      0x00\n      swap1\n      swap2\n      swap1\n      swap2\n      swap1\n      swap2\n      pop\n      sstore\n        /* \"dynamicsizearr.sol\":552:687  if(arr.length != _pos){... */\n    tag_60:\n        /* \"dynamicsizearr.sol\":530:533  i++ */\n      dup1\n      dup1\n      tag_62\n      swap1\n      tag_63\n      jump\t// in\n    tag_62:\n      swap2\n      pop\n      pop\n        /* \"dynamicsizearr.sol\":496:717  for(uint i = arr.length; i<=_pos; i++){... */\n      jump(tag_55)\n    tag_56:\n      pop\n        /* \"dynamicsizearr.sol\":413:727  if(arr.length  > _pos){... */\n    tag_54:\n        /* \"dynamicsizearr.sol\":354:734  function updatearr(uint _pos, uint _value) public{... */\n      pop\n      pop\n      jump\t// out\n        /* \"dynamicsizearr.sol\":831:894  function simpleoushinarr() public{... */\n    tag_28:\n        /* \"dynamicsizearr.sol\":874:877  arr */\n      0x01\n        /* \"dynamicsizearr.sol\":883:886  123 */\n      0x7b\n        /* \"dynamicsizearr.sol\":874:887  arr.push(123) */\n      swap1\n      dup1\n      0x01\n      dup2\n      sload\n      add\n      dup1\n      dup3\n      sstore\n      dup1\n      swap2\n      pop\n      pop\n      0x01\n      swap1\n      sub\n      swap1\n      0x00\n      mstore\n      keccak256(0x00, 0x20)\n      add\n      0x00\n      swap1\n      swap2\n      swap1\n      swap2\n      swap1\n      swap2\n      pop\n      sstore\n        /* \"dynamicsizearr.sol\":831:894  function simpleoushinarr() public{... */\n      jump\t// out\n        /* \"#utility.yul\":7:146   */\n    tag_67:\n        /* \"#utility.yul\":53:58   */\n      0x00\n        /* \"#utility.yul\":91:97   */\n      dup2\n        /* \"#utility.yul\":78:98   */\n      calldataload\n        /* \"#utility.yul\":69:98   */\n      swap1\n      pop\n        /* \"#utility.yul\":107:140   */\n      tag_69\n        /* \"#utility.yul\":134:139   */\n      dup2\n        /* \"#utility.yul\":107:140   */\n      tag_70\n      jump\t// in\n    tag_69:\n        /* \"#utility.yul\":7:146   */\n      swap3\n      swap2\n      pop\n      pop\n      jump\t// out\n        /* \"#utility.yul\":152:626   */\n    tag_25:\n        /* \"#utility.yul\":220:226   */\n      0x00\n        /* \"#utility.yul\":228:234   */\n      dup1\n        /* \"#utility.yul\":277:279   */\n      0x40\n        /* \"#utility.yul\":265:274   */\n      dup4\n        /* \"#utility.yul\":256:263   */\n      dup6\n        /* \"#utility.yul\":252:275   */\n      sub\n        /* \"#utility.yul\":248:280   */\n      slt\n        /* \"#utility.yul\":245:364   */\n      iszero\n      tag_72\n      jumpi\n        /* \"#utility.yul\":283:362   */\n      tag_73\n      tag_74\n      jump\t// in\n    tag_73:\n        /* \"#utility.yul\":245:364   */\n    tag_72:\n        /* \"#utility.yul\":403:404   */\n      0x00\n        /* \"#utility.yul\":428:481   */\n      tag_75\n        /* \"#utility.yul\":473:480   */\n      dup6\n        /* \"#utility.yul\":464:470   */\n      dup3\n        /* \"#utility.yul\":453:462   */\n      dup7\n        /* \"#utility.yul\":449:471   */\n      add\n        /* \"#utility.yul\":428:481   */\n      tag_67\n      jump\t// in\n    tag_75:\n        /* \"#utility.yul\":418:481   */\n      swap3\n      pop\n        /* \"#utility.yul\":374:491   */\n      pop\n        /* \"#utility.yul\":530:532   */\n      0x20\n        /* \"#utility.yul\":556:609   */\n      tag_76\n        /* \"#utility.yul\":601:608   */\n      dup6\n        /* \"#utility.yul\":592:598   */\n      dup3\n        /* \"#utility.yul\":581:590   */\n      dup7\n        /* \"#utility.yul\":577:599   */\n      add\n        /* \"#utility.yul\":556:609   */\n      tag_67\n      jump\t// in\n    tag_76:\n        /* \"#utility.yul\":546:609   */\n      swap2\n      pop\n        /* \"#utility.yul\":501:619   */\n      pop\n        /* \"#utility.yul\":152:626   */\n      swap3\n      pop\n      swap3\n      swap1\n      pop\n      jump\t// out\n        /* \"#utility.yul\":632:811   */\n    tag_77:\n        /* \"#utility.yul\":701:711   */\n      0x00\n        /* \"#utility.yul\":722:768   */\n      tag_79\n        /* \"#utility.yul\":764:767   */\n      dup4\n        /* \"#utility.yul\":756:762   */\n      dup4\n        /* \"#utility.yul\":722:768   */\n      tag_80\n      jump\t// in\n    tag_79:\n        /* \"#utility.yul\":800:804   */\n      0x20\n        /* \"#utility.yul\":795:798   */\n      dup4\n        /* \"#utility.yul\":791:805   */\n      add\n        /* \"#utility.yul\":777:805   */\n      swap1\n      pop\n        /* \"#utility.yul\":632:811   */\n      swap3\n      swap2\n      pop\n      pop\n      jump\t// out\n        /* \"#utility.yul\":847:1579   */\n    tag_81:\n        /* \"#utility.yul\":966:969   */\n      0x00\n        /* \"#utility.yul\":995:1049   */\n      tag_83\n        /* \"#utility.yul\":1043:1048   */\n      dup3\n        /* \"#utility.yul\":995:1049   */\n      tag_84\n      jump\t// in\n    tag_83:\n        /* \"#utility.yul\":1065:1151   */\n      tag_85\n        /* \"#utility.yul\":1144:1150   */\n      dup2\n        /* \"#utility.yul\":1139:1142   */\n      dup6\n        /* \"#utility.yul\":1065:1151   */\n      tag_86\n      jump\t// in\n    tag_85:\n        /* \"#utility.yul\":1058:1151   */\n      swap4\n      pop\n        /* \"#utility.yul\":1175:1231   */\n      tag_87\n        /* \"#utility.yul\":1225:1230   */\n      dup4\n        /* \"#utility.yul\":1175:1231   */\n      tag_88\n      jump\t// in\n    tag_87:\n        /* \"#utility.yul\":1254:1261   */\n      dup1\n        /* \"#utility.yul\":1285:1286   */\n      0x00\n        /* \"#utility.yul\":1270:1554   */\n    tag_89:\n        /* \"#utility.yul\":1295:1301   */\n      dup4\n        /* \"#utility.yul\":1292:1293   */\n      dup2\n        /* \"#utility.yul\":1289:1302   */\n      lt\n        /* \"#utility.yul\":1270:1554   */\n      iszero\n      tag_91\n      jumpi\n        /* \"#utility.yul\":1371:1377   */\n      dup2\n        /* \"#utility.yul\":1365:1378   */\n      mload\n        /* \"#utility.yul\":1398:1461   */\n      tag_92\n        /* \"#utility.yul\":1457:1460   */\n      dup9\n        /* \"#utility.yul\":1442:1455   */\n      dup3\n        /* \"#utility.yul\":1398:1461   */\n      tag_77\n      jump\t// in\n    tag_92:\n        /* \"#utility.yul\":1391:1461   */\n      swap8\n      pop\n        /* \"#utility.yul\":1484:1544   */\n      tag_93\n        /* \"#utility.yul\":1537:1543   */\n      dup4\n        /* \"#utility.yul\":1484:1544   */\n      tag_94\n      jump\t// in\n    tag_93:\n        /* \"#utility.yul\":1474:1544   */\n      swap3\n      pop\n        /* \"#utility.yul\":1330:1554   */\n      pop\n        /* \"#utility.yul\":1317:1318   */\n      0x01\n        /* \"#utility.yul\":1314:1315   */\n      dup2\n        /* \"#utility.yul\":1310:1319   */\n      add\n        /* \"#utility.yul\":1305:1319   */\n      swap1\n      pop\n        /* \"#utility.yul\":1270:1554   */\n      jump(tag_89)\n    tag_91:\n        /* \"#utility.yul\":1274:1288   */\n      pop\n        /* \"#utility.yul\":1570:1573   */\n      dup6\n        /* \"#utility.yul\":1563:1573   */\n      swap4\n      pop\n        /* \"#utility.yul\":971:1579   */\n      pop\n      pop\n      pop\n        /* \"#utility.yul\":847:1579   */\n      swap3\n      swap2\n      pop\n      pop\n      jump\t// out\n        /* \"#utility.yul\":1585:1949   */\n    tag_95:\n        /* \"#utility.yul\":1673:1676   */\n      0x00\n        /* \"#utility.yul\":1701:1740   */\n      tag_97\n        /* \"#utility.yul\":1734:1739   */\n      dup3\n        /* \"#utility.yul\":1701:1740   */\n      tag_98\n      jump\t// in\n    tag_97:\n        /* \"#utility.yul\":1756:1827   */\n      tag_99\n        /* \"#utility.yul\":1820:1826   */\n      dup2\n        /* \"#utility.yul\":1815:1818   */\n      dup6\n        /* \"#utility.yul\":1756:1827   */\n      tag_100\n      jump\t// in\n    tag_99:\n        /* \"#utility.yul\":1749:1827   */\n      swap4\n      pop\n        /* \"#utility.yul\":1836:1888   */\n      tag_101\n        /* \"#utility.yul\":1881:1887   */\n      dup2\n        /* \"#utility.yul\":1876:1879   */\n      dup6\n        /* \"#utility.yul\":1869:1873   */\n      0x20\n        /* \"#utility.yul\":1862:1867   */\n      dup7\n        /* \"#utility.yul\":1858:1874   */\n      add\n        /* \"#utility.yul\":1836:1888   */\n      tag_102\n      jump\t// in\n    tag_101:\n        /* \"#utility.yul\":1913:1942   */\n      tag_103\n        /* \"#utility.yul\":1935:1941   */\n      dup2\n        /* \"#utility.yul\":1913:1942   */\n      tag_104\n      jump\t// in\n    tag_103:\n        /* \"#utility.yul\":1908:1911   */\n      dup5\n        /* \"#utility.yul\":1904:1943   */\n      add\n        /* \"#utility.yul\":1897:1943   */\n      swap2\n      pop\n        /* \"#utility.yul\":1677:1949   */\n      pop\n        /* \"#utility.yul\":1585:1949   */\n      swap3\n      swap2\n      pop\n      pop\n      jump\t// out\n        /* \"#utility.yul\":1955:2063   */\n    tag_80:\n        /* \"#utility.yul\":2032:2056   */\n      tag_106\n        /* \"#utility.yul\":2050:2055   */\n      dup2\n        /* \"#utility.yul\":2032:2056   */\n      tag_107\n      jump\t// in\n    tag_106:\n        /* \"#utility.yul\":2027:2030   */\n      dup3\n        /* \"#utility.yul\":2020:2057   */\n      mstore\n        /* \"#utility.yul\":1955:2063   */\n      pop\n      pop\n      jump\t// out\n        /* \"#utility.yul\":2069:2442   */\n    tag_12:\n        /* \"#utility.yul\":2212:2216   */\n      0x00\n        /* \"#utility.yul\":2250:2252   */\n      0x20\n        /* \"#utility.yul\":2239:2248   */\n      dup3\n        /* \"#utility.yul\":2235:2253   */\n      add\n        /* \"#utility.yul\":2227:2253   */\n      swap1\n      pop\n        /* \"#utility.yul\":2299:2308   */\n      dup2\n        /* \"#utility.yul\":2293:2297   */\n      dup2\n        /* \"#utility.yul\":2289:2309   */\n      sub\n        /* \"#utility.yul\":2285:2286   */\n      0x00\n        /* \"#utility.yul\":2274:2283   */\n      dup4\n        /* \"#utility.yul\":2270:2287   */\n      add\n        /* \"#utility.yul\":2263:2310   */\n      mstore\n        /* \"#utility.yul\":2327:2435   */\n      tag_109\n        /* \"#utility.yul\":2430:2434   */\n      dup2\n        /* \"#utility.yul\":2421:2427   */\n      dup5\n        /* \"#utility.yul\":2327:2435   */\n      tag_81\n      jump\t// in\n    tag_109:\n        /* \"#utility.yul\":2319:2435   */\n      swap1\n      pop\n        /* \"#utility.yul\":2069:2442   */\n      swap3\n      swap2\n      pop\n      pop\n      jump\t// out\n        /* \"#utility.yul\":2448:2761   */\n    tag_16:\n        /* \"#utility.yul\":2561:2565   */\n      0x00\n        /* \"#utility.yul\":2599:2601   */\n      0x20\n        /* \"#utility.yul\":2588:2597   */\n      dup3\n        /* \"#utility.yul\":2584:2602   */\n      add\n        /* \"#utility.yul\":2576:2602   */\n      swap1\n      pop\n        /* \"#utility.yul\":2648:2657   */\n      dup2\n        /* \"#utility.yul\":2642:2646   */\n      dup2\n        /* \"#utility.yul\":2638:2658   */\n      sub\n        /* \"#utility.yul\":2634:2635   */\n      0x00\n        /* \"#utility.yul\":2623:2632   */\n      dup4\n        /* \"#utility.yul\":2619:2636   */\n      add\n        /* \"#utility.yul\":2612:2659   */\n      mstore\n        /* \"#utility.yul\":2676:2754   */\n      tag_111\n        /* \"#utility.yul\":2749:2753   */\n      dup2\n        /* \"#utility.yul\":2740:2746   */\n      dup5\n        /* \"#utility.yul\":2676:2754   */\n      tag_95\n      jump\t// in\n    tag_111:\n        /* \"#utility.yul\":2668:2754   */\n      swap1\n      pop\n        /* \"#utility.yul\":2448:2761   */\n      swap3\n      swap2\n      pop\n      pop\n      jump\t// out\n        /* \"#utility.yul\":2848:2980   */\n    tag_88:\n        /* \"#utility.yul\":2915:2919   */\n      0x00\n        /* \"#utility.yul\":2938:2941   */\n      dup2\n        /* \"#utility.yul\":2930:2941   */\n      swap1\n      pop\n        /* \"#utility.yul\":2968:2972   */\n      0x20\n        /* \"#utility.yul\":2963:2966   */\n      dup3\n        /* \"#utility.yul\":2959:2973   */\n      add\n        /* \"#utility.yul\":2951:2973   */\n      swap1\n      pop\n        /* \"#utility.yul\":2848:2980   */\n      swap2\n      swap1\n      pop\n      jump\t// out\n        /* \"#utility.yul\":2986:3100   */\n    tag_84:\n        /* \"#utility.yul\":3053:3059   */\n      0x00\n        /* \"#utility.yul\":3087:3092   */\n      dup2\n        /* \"#utility.yul\":3081:3093   */\n      mload\n        /* \"#utility.yul\":3071:3093   */\n      swap1\n      pop\n        /* \"#utility.yul\":2986:3100   */\n      swap2\n      swap1\n      pop\n      jump\t// out\n        /* \"#utility.yul\":3106:3205   */\n    tag_98:\n        /* \"#utility.yul\":3158:3164   */\n      0x00\n        /* \"#utility.yul\":3192:3197   */\n      dup2\n        /* \"#utility.yul\":3186:3198   */\n      mload\n        /* \"#utility.yul\":3176:3198   */\n      swap1\n      pop\n        /* \"#utility.yul\":3106:3205   */\n      swap2\n      swap1\n      pop\n      jump\t// out\n        /* \"#utility.yul\":3211:3324   */\n    tag_94:\n        /* \"#utility.yul\":3281:3285   */\n      0x00\n        /* \"#utility.yul\":3313:3317   */\n      0x20\n        /* \"#utility.yul\":3308:3311   */\n      dup3\n        /* \"#utility.yul\":3304:3318   */\n      add\n        /* \"#utility.yul\":3296:3318   */\n      swap1\n      pop\n        /* \"#utility.yul\":3211:3324   */\n      swap2\n      swap1\n      pop\n      jump\t// out\n        /* \"#utility.yul\":3330:3514   */\n    tag_86:\n        /* \"#utility.yul\":3429:3440   */\n      0x00\n        /* \"#utility.yul\":3463:3469   */\n      dup3\n        /* \"#utility.yul\":3458:3461   */\n      dup3\n        /* \"#utility.yul\":3451:3470   */\n      mstore\n        /* \"#utility.yul\":3503:3507   */\n      0x20\n        /* \"#utility.yul\":3498:3501   */\n      dup3\n        /* \"#utility.yul\":3494:3508   */\n      add\n        /* \"#utility.yul\":3479:3508   */\n      swap1\n      pop\n        /* \"#utility.yul\":3330:3514   */\n      swap3\n      swap2\n      pop\n      pop\n      jump\t// out\n        /* \"#utility.yul\":3520:3689   */\n    tag_100:\n        /* \"#utility.yul\":3604:3615   */\n      0x00\n        /* \"#utility.yul\":3638:3644   */\n      dup3\n        /* \"#utility.yul\":3633:3636   */\n      dup3\n        /* \"#utility.yul\":3626:3645   */\n      mstore\n        /* \"#utility.yul\":3678:3682   */\n      0x20\n        /* \"#utility.yul\":3673:3676   */\n      dup3\n        /* \"#utility.yul\":3669:3683   */\n      add\n        /* \"#utility.yul\":3654:3683   */\n      swap1\n      pop\n        /* \"#utility.yul\":3520:3689   */\n      swap3\n      swap2\n      pop\n      pop\n      jump\t// out\n        /* \"#utility.yul\":3695:3772   */\n    tag_107:\n        /* \"#utility.yul\":3732:3739   */\n      0x00\n        /* \"#utility.yul\":3761:3766   */\n      dup2\n        /* \"#utility.yul\":3750:3766   */\n      swap1\n      pop\n        /* \"#utility.yul\":3695:3772   */\n      swap2\n      swap1\n      pop\n      jump\t// out\n        /* \"#utility.yul\":3778:4085   */\n    tag_102:\n        /* \"#utility.yul\":3846:3847   */\n      0x00\n        /* \"#utility.yul\":3856:3969   */\n    tag_122:\n        /* \"#utility.yul\":3870:3876   */\n      dup4\n        /* \"#utility.yul\":3867:3868   */\n      dup2\n        /* \"#utility.yul\":3864:3877   */\n      lt\n        /* \"#utility.yul\":3856:3969   */\n      iszero\n      tag_124\n      jumpi\n        /* \"#utility.yul\":3955:3956   */\n      dup1\n        /* \"#utility.yul\":3950:3953   */\n      dup3\n        /* \"#utility.yul\":3946:3957   */\n      add\n        /* \"#utility.yul\":3940:3958   */\n      mload\n        /* \"#utility.yul\":3936:3937   */\n      dup2\n        /* \"#utility.yul\":3931:3934   */\n      dup5\n        /* \"#utility.yul\":3927:3938   */\n      add\n        /* \"#utility.yul\":3920:3959   */\n      mstore\n        /* \"#utility.yul\":3892:3894   */\n      0x20\n        /* \"#utility.yul\":3889:3890   */\n      dup2\n        /* \"#utility.yul\":3885:3895   */\n      add\n        /* \"#utility.yul\":3880:3895   */\n      swap1\n      pop\n        /* \"#utility.yul\":3856:3969   */\n      jump(tag_122)\n    tag_124:\n        /* \"#utility.yul\":3987:3993   */\n      dup4\n        /* \"#utility.yul\":3984:3985   */\n      dup2\n        /* \"#utility.yul\":3981:3994   */\n      gt\n        /* \"#utility.yul\":3978:4079   */\n      iszero\n      tag_125\n      jumpi\n        /* \"#utility.yul\":4067:4068   */\n      0x00\n        /* \"#utility.yul\":4058:4064   */\n      dup5\n        /* \"#utility.yul\":4053:4056   */\n      dup5\n        /* \"#utility.yul\":4049:4065   */\n      add\n        /* \"#utility.yul\":4042:4069   */\n      mstore\n        /* \"#utility.yul\":3978:4079   */\n    tag_125:\n        /* \"#utility.yul\":3827:4085   */\n      pop\n        /* \"#utility.yul\":3778:4085   */\n      pop\n      pop\n      pop\n      jump\t// out\n        /* \"#utility.yul\":4091:4411   */\n    tag_34:\n        /* \"#utility.yul\":4135:4141   */\n      0x00\n        /* \"#utility.yul\":4172:4173   */\n      0x02\n        /* \"#utility.yul\":4166:4170   */\n      dup3\n        /* \"#utility.yul\":4162:4174   */\n      div\n        /* \"#utility.yul\":4152:4174   */\n      swap1\n      pop\n        /* \"#utility.yul\":4219:4220   */\n      0x01\n        /* \"#utility.yul\":4213:4217   */\n      dup3\n        /* \"#utility.yul\":4209:4221   */\n      and\n        /* \"#utility.yul\":4240:4258   */\n      dup1\n        /* \"#utility.yul\":4230:4311   */\n      tag_127\n      jumpi\n        /* \"#utility.yul\":4296:4300   */\n      0x7f\n        /* \"#utility.yul\":4288:4294   */\n      dup3\n        /* \"#utility.yul\":4284:4301   */\n      and\n        /* \"#utility.yul\":4274:4301   */\n      swap2\n      pop\n        /* \"#utility.yul\":4230:4311   */\n    tag_127:\n        /* \"#utility.yul\":4358:4360   */\n      0x20\n        /* \"#utility.yul\":4350:4356   */\n      dup3\n        /* \"#utility.yul\":4347:4361   */\n      lt\n        /* \"#utility.yul\":4327:4345   */\n      dup2\n        /* \"#utility.yul\":4324:4362   */\n      eq\n        /* \"#utility.yul\":4321:4405   */\n      iszero\n      tag_128\n      jumpi\n        /* \"#utility.yul\":4377:4395   */\n      tag_129\n      tag_130\n      jump\t// in\n    tag_129:\n        /* \"#utility.yul\":4321:4405   */\n    tag_128:\n        /* \"#utility.yul\":4142:4411   */\n      pop\n        /* \"#utility.yul\":4091:4411   */\n      swap2\n      swap1\n      pop\n      jump\t// out\n        /* \"#utility.yul\":4417:4650   */\n    tag_63:\n        /* \"#utility.yul\":4456:4459   */\n      0x00\n        /* \"#utility.yul\":4479:4503   */\n      tag_132\n        /* \"#utility.yul\":4497:4502   */\n      dup3\n        /* \"#utility.yul\":4479:4503   */\n      tag_107\n      jump\t// in\n    tag_132:\n        /* \"#utility.yul\":4470:4503   */\n      swap2\n      pop\n        /* \"#utility.yul\":4525:4591   */\n      0xffffffffffffffffffffffffffffffffffffffffffffffffffffffffffffffff\n        /* \"#utility.yul\":4518:4523   */\n      dup3\n        /* \"#utility.yul\":4515:4592   */\n      eq\n        /* \"#utility.yul\":4512:4615   */\n      iszero\n      tag_133\n      jumpi\n        /* \"#utility.yul\":4595:4613   */\n      tag_134\n      tag_135\n      jump\t// in\n    tag_134:\n        /* \"#utility.yul\":4512:4615   */\n    tag_133:\n        /* \"#utility.yul\":4642:4643   */\n      0x01\n        /* \"#utility.yul\":4635:4640   */\n      dup3\n        /* \"#utility.yul\":4631:4644   */\n      add\n        /* \"#utility.yul\":4624:4644   */\n      swap1\n      pop\n        /* \"#utility.yul\":4417:4650   */\n      swap2\n      swap1\n      pop\n      jump\t// out\n        /* \"#utility.yul\":4656:4836   */\n    tag_135:\n        /* \"#utility.yul\":4704:4781   */\n      0x4e487b7100000000000000000000000000000000000000000000000000000000\n        /* \"#utility.yul\":4701:4702   */\n      0x00\n        /* \"#utility.yul\":4694:4782   */\n      mstore\n        /* \"#utility.yul\":4801:4805   */\n      0x11\n        /* \"#utility.yul\":4798:4799   */\n      0x04\n        /* \"#utility.yul\":4791:4806   */\n      mstore\n        /* \"#utility.yul\":4825:4829   */\n      0x24\n        /* \"#utility.yul\":4822:4823   */\n      0x00\n        /* \"#utility.yul\":4815:4830   */\n      revert\n        /* \"#utility.yul\":4842:5022   */\n    tag_130:\n        /* \"#utility.yul\":4890:4967   */\n      0x4e487b7100000000000000000000000000000000000000000000000000000000\n        /* \"#utility.yul\":4887:4888   */\n      0x00\n        /* \"#utility.yul\":4880:4968   */\n      mstore\n        /* \"#utility.yul\":4987:4991   */\n      0x22\n        /* \"#utility.yul\":4984:4985   */\n      0x04\n        /* \"#utility.yul\":4977:4992   */\n      mstore\n        /* \"#utility.yul\":5011:5015   */\n      0x24\n        /* \"#utility.yul\":5008:5009   */\n      0x00\n        /* \"#utility.yul\":5001:5016   */\n      revert\n        /* \"#utility.yul\":5028:5208   */\n    tag_52:\n        /* \"#utility.yul\":5076:5153   */\n      0x4e487b7100000000000000000000000000000000000000000000000000000000\n        /* \"#utility.yul\":5073:5074   */\n      0x00\n        /* \"#utility.yul\":5066:5154   */\n      mstore\n        /* \"#utility.yul\":5173:5177   */\n      0x32\n        /* \"#utility.yul\":5170:5171   */\n      0x04\n        /* \"#utility.yul\":5163:5178   */\n      mstore\n        /* \"#utility.yul\":5197:5201   */\n      0x24\n        /* \"#utility.yul\":5194:5195   */\n      0x00\n        /* \"#utility.yul\":5187:5202   */\n      revert\n        /* \"#utility.yul\":5337:5454   */\n    tag_74:\n        /* \"#utility.yul\":5446:5447   */\n      0x00\n        /* \"#utility.yul\":5443:5444   */\n      dup1\n        /* \"#utility.yul\":5436:5448   */\n      revert\n        /* \"#utility.yul\":5460:5562   */\n    tag_104:\n        /* \"#utility.yul\":5501:5507   */\n      0x00\n        /* \"#utility.yul\":5552:5554   */\n      0x1f\n        /* \"#utility.yul\":5548:5555   */\n      not\n        /* \"#utility.yul\":5543:5545   */\n      0x1f\n        /* \"#utility.yul\":5536:5541   */\n      dup4\n        /* \"#utility.yul\":5532:5546   */\n      add\n        /* \"#utility.yul\":5528:5556   */\n      and\n        /* \"#utility.yul\":5518:5556   */\n      swap1\n      pop\n        /* \"#utility.yul\":5460:5562   */\n      swap2\n      swap1\n      pop\n      jump\t// out\n        /* \"#utility.yul\":5568:5690   */\n    tag_70:\n        /* \"#utility.yul\":5641:5665   */\n      tag_144\n        /* \"#utility.yul\":5659:5664   */\n      dup2\n        /* \"#utility.yul\":5641:5665   */\n      tag_107\n      jump\t// in\n    tag_144:\n        /* \"#utility.yul\":5634:5639   */\n      dup2\n        /* \"#utility.yul\":5631:5666   */\n      eq\n        /* \"#utility.yul\":5621:5684   */\n      tag_145\n      jumpi\n        /* \"#utility.yul\":5680:5681   */\n      0x00\n        /* \"#utility.yul\":5677:5678   */\n      dup1\n        /* \"#utility.yul\":5670:5682   */\n      revert\n        /* \"#utility.yul\":5621:5684   */\n    tag_145:\n        /* \"#utility.yul\":5568:5690   */\n      pop\n      jump\t// out\n\n    auxdata: 0xa2646970667358221220c9f3438eadef694aeee43698082af2d36db56d2283f7dc2a1af6bf670e35344464736f6c63430008070033\n}\n",
				"bytecode": {
					"linkReferences": {},
					"object": "60806040526040518060a00160405280600a60ff168152602001601460ff168152602001601e60ff168152602001602860ff168152602001603260ff16815250600190600561004f929190610062565b5034801561005c57600080fd5b506100d1565b8280548282559060005260206000209081019282156100a3579160200282015b828111156100a2578251829060ff16905591602001919060010190610082565b5b5090506100b091906100b4565b5090565b5b808211156100cd5760008160009055506001016100b5565b5090565b61071e806100e06000396000f3fe608060405234801561001057600080fd5b50600436106100625760003560e01c80630469a5e2146100675780633b0b0290146100855780634678f832146100a35780636bc7deae146100c15780639fd44f5a146100df578063a80c52e9146100fb575b600080fd5b61006f610105565b60405161007c91906104dd565b60405180910390f35b61008d61015d565b60405161009a91906104ff565b60405180910390f35b6100ab6101ef565b6040516100b891906104ff565b60405180910390f35b6100c9610281565b6040516100d691906104dd565b60405180910390f35b6100f960048036038101906100f491906103df565b6102d9565b005b61010361039e565b005b6060600180548060200260200160405190810160405280929190818152602001828054801561015357602002820191906000526020600020905b81548152602001906001019080831161013f575b5050505050905090565b60606000805461016c906105b3565b80601f0160208091040260200160405190810160405280929190818152602001828054610198906105b3565b80156101e55780601f106101ba576101008083540402835291602001916101e5565b820191906000526020600020905b8154815290600101906020018083116101c857829003601f168201915b5050505050905090565b6060600080546101fe906105b3565b80601f016020809104026020016040519081016040528092919081815260200182805461022a906105b3565b80156102775780601f1061024c57610100808354040283529160200191610277565b820191906000526020600020905b81548152906001019060200180831161025a57829003601f168201915b5050505050905090565b606060018054806020026020016040519081016040528092919081815260200182805480156102cf57602002820191906000526020600020905b8154815260200190600101908083116102bb575b5050505050905090565b81600180549050111561030e5780600183815481106102fb576102fa61068c565b5b906000526020600020018190555061039a565b600060018054905090505b82811161039857826001805490501461035b57600160009080600181540180825580915050600190039060005260206000200160009091909190915055610385565b60018290806001815401808255809150506001900390600052602060002001600090919091909150555b8080610390906105e5565b915050610319565b505b5050565b6001607b9080600181540180825580915050600190039060005260206000200160009091909190915055565b6000813590506103d9816106d1565b92915050565b600080604083850312156103f6576103f56106bb565b5b6000610404858286016103ca565b9250506020610415858286016103ca565b9150509250929050565b600061042b83836104ce565b60208301905092915050565b600061044282610531565b61044c8185610554565b935061045783610521565b8060005b8381101561048857815161046f888261041f565b975061047a83610547565b92505060018101905061045b565b5085935050505092915050565b60006104a08261053c565b6104aa8185610565565b93506104ba818560208601610580565b6104c3816106c0565b840191505092915050565b6104d781610576565b82525050565b600060208201905081810360008301526104f78184610437565b905092915050565b600060208201905081810360008301526105198184610495565b905092915050565b6000819050602082019050919050565b600081519050919050565b600081519050919050565b6000602082019050919050565b600082825260208201905092915050565b600082825260208201905092915050565b6000819050919050565b60005b8381101561059e578082015181840152602081019050610583565b838111156105ad576000848401525b50505050565b600060028204905060018216806105cb57607f821691505b602082108114156105df576105de61065d565b5b50919050565b60006105f082610576565b91507fffffffffffffffffffffffffffffffffffffffffffffffffffffffffffffffff8214156106235761062261062e565b5b600182019050919050565b7f4e487b7100000000000000000000000000000000000000000000000000000000600052601160045260246000fd5b7f4e487b7100000000000000000000000000000000000000000000000000000000600052602260045260246000fd5b7f4e487b7100000000000000000000000000000000000000000000000000000000600052603260045260246000fd5b600080fd5b6000601f19601f8301169050919050565b6106da81610576565b81146106e557600080fd5b5056fea2646970667358221220c9f3438eadef694aeee43698082af2d36db56d2283f7dc2a1af6bf670e35344464736f6c63430008070033",
					"opcodes": "PUSH1 0x80 PUSH1 0x40 MSTORE PUSH1 0x40 MLOAD DUP1 PUSH1 0xA0 ADD PUSH1 0x40 MSTORE DUP1 PUSH1 0xA PUSH1 0xFF AND DUP2 MSTORE PUSH1 0x20 ADD PUSH1 0x14 PUSH1 0xFF AND DUP2 MSTORE PUSH1 0x20 ADD PUSH1 0x1E PUSH1 0xFF AND DUP2 MSTORE PUSH1 0x20 ADD PUSH1 0x28 PUSH1 0xFF AND DUP2 MSTORE PUSH1 0x20 ADD PUSH1 0x32 PUSH1 0xFF AND DUP2 MSTORE POP PUSH1 0x1 SWAP1 PUSH1 0x5 PUSH2 0x4F SWAP3 SWAP2 SWAP1 PUSH2 0x62 JUMP JUMPDEST POP CALLVALUE DUP1 ISZERO PUSH2 0x5C JUMPI PUSH1 0x0 DUP1 REVERT JUMPDEST POP PUSH2 0xD1 JUMP JUMPDEST DUP3 DUP1 SLOAD DUP3 DUP3 SSTORE SWAP1 PUSH1 0x0 MSTORE PUSH1 0x20 PUSH1 0x0 KECCAK256 SWAP1 DUP2 ADD SWAP3 DUP3 ISZERO PUSH2 0xA3 JUMPI SWAP2 PUSH1 0x20 MUL DUP3 ADD JUMPDEST DUP3 DUP2 GT ISZERO PUSH2 0xA2 JUMPI DUP3 MLOAD DUP3 SWAP1 PUSH1 0xFF AND SWAP1 SSTORE SWAP2 PUSH1 0x20 ADD SWAP2 SWAP1 PUSH1 0x1 ADD SWAP1 PUSH2 0x82 JUMP JUMPDEST JUMPDEST POP SWAP1 POP PUSH2 0xB0 SWAP2 SWAP1 PUSH2 0xB4 JUMP JUMPDEST POP SWAP1 JUMP JUMPDEST JUMPDEST DUP1 DUP3 GT ISZERO PUSH2 0xCD JUMPI PUSH1 0x0 DUP2 PUSH1 0x0 SWAP1 SSTORE POP PUSH1 0x1 ADD PUSH2 0xB5 JUMP JUMPDEST POP SWAP1 JUMP JUMPDEST PUSH2 0x71E DUP1 PUSH2 0xE0 PUSH1 0x0 CODECOPY PUSH1 0x0 RETURN INVALID PUSH1 0x80 PUSH1 0x40 MSTORE CALLVALUE DUP1 ISZERO PUSH2 0x10 JUMPI PUSH1 0x0 DUP1 REVERT JUMPDEST POP PUSH1 0x4 CALLDATASIZE LT PUSH2 0x62 JUMPI PUSH1 0x0 CALLDATALOAD PUSH1 0xE0 SHR DUP1 PUSH4 0x469A5E2 EQ PUSH2 0x67 JUMPI DUP1 PUSH4 0x3B0B0290 EQ PUSH2 0x85 JUMPI DUP1 PUSH4 0x4678F832 EQ PUSH2 0xA3 JUMPI DUP1 PUSH4 0x6BC7DEAE EQ PUSH2 0xC1 JUMPI DUP1 PUSH4 0x9FD44F5A EQ PUSH2 0xDF JUMPI DUP1 PUSH4 0xA80C52E9 EQ PUSH2 0xFB JUMPI JUMPDEST PUSH1 0x0 DUP1 REVERT JUMPDEST PUSH2 0x6F PUSH2 0x105 JUMP JUMPDEST PUSH1 0x40 MLOAD PUSH2 0x7C SWAP2 SWAP1 PUSH2 0x4DD JUMP JUMPDEST PUSH1 0x40 MLOAD DUP1 SWAP2 SUB SWAP1 RETURN JUMPDEST PUSH2 0x8D PUSH2 0x15D JUMP JUMPDEST PUSH1 0x40 MLOAD PUSH2 0x9A SWAP2 SWAP1 PUSH2 0x4FF JUMP JUMPDEST PUSH1 0x40 MLOAD DUP1 SWAP2 SUB SWAP1 RETURN JUMPDEST PUSH2 0xAB PUSH2 0x1EF JUMP JUMPDEST PUSH1 0x40 MLOAD PUSH2 0xB8 SWAP2 SWAP1 PUSH2 0x4FF JUMP JUMPDEST PUSH1 0x40 MLOAD DUP1 SWAP2 SUB SWAP1 RETURN JUMPDEST PUSH2 0xC9 PUSH2 0x281 JUMP JUMPDEST PUSH1 0x40 MLOAD PUSH2 0xD6 SWAP2 SWAP1 PUSH2 0x4DD JUMP JUMPDEST PUSH1 0x40 MLOAD DUP1 SWAP2 SUB SWAP1 RETURN JUMPDEST PUSH2 0xF9 PUSH1 0x4 DUP1 CALLDATASIZE SUB DUP2 ADD SWAP1 PUSH2 0xF4 SWAP2 SWAP1 PUSH2 0x3DF JUMP JUMPDEST PUSH2 0x2D9 JUMP JUMPDEST STOP JUMPDEST PUSH2 0x103 PUSH2 0x39E JUMP JUMPDEST STOP JUMPDEST PUSH1 0x60 PUSH1 0x1 DUP1 SLOAD DUP1 PUSH1 0x20 MUL PUSH1 0x20 ADD PUSH1 0x40 MLOAD SWAP1 DUP2 ADD PUSH1 0x40 MSTORE DUP1 SWAP3 SWAP2 SWAP1 DUP2 DUP2 MSTORE PUSH1 0x20 ADD DUP3 DUP1 SLOAD DUP1 ISZERO PUSH2 0x153 JUMPI PUSH1 0x20 MUL DUP3 ADD SWAP2 SWAP1 PUSH1 0x0 MSTORE PUSH1 0x20 PUSH1 0x0 KECCAK256 SWAP1 JUMPDEST DUP2 SLOAD DUP2 MSTORE PUSH1 0x20 ADD SWAP1 PUSH1 0x1 ADD SWAP1 DUP1 DUP4 GT PUSH2 0x13F JUMPI JUMPDEST POP POP POP POP POP SWAP1 POP SWAP1 JUMP JUMPDEST PUSH1 0x60 PUSH1 0x0 DUP1 SLOAD PUSH2 0x16C SWAP1 PUSH2 0x5B3 JUMP JUMPDEST DUP1 PUSH1 0x1F ADD PUSH1 0x20 DUP1 SWAP2 DIV MUL PUSH1 0x20 ADD PUSH1 0x40 MLOAD SWAP1 DUP2 ADD PUSH1 0x40 MSTORE DUP1 SWAP3 SWAP2 SWAP1 DUP2 DUP2 MSTORE PUSH1 0x20 ADD DUP3 DUP1 SLOAD PUSH2 0x198 SWAP1 PUSH2 0x5B3 JUMP JUMPDEST DUP1 ISZERO PUSH2 0x1E5 JUMPI DUP1 PUSH1 0x1F LT PUSH2 0x1BA JUMPI PUSH2 0x100 DUP1 DUP4 SLOAD DIV MUL DUP4 MSTORE SWAP2 PUSH1 0x20 ADD SWAP2 PUSH2 0x1E5 JUMP JUMPDEST DUP3 ADD SWAP2 SWAP1 PUSH1 0x0 MSTORE PUSH1 0x20 PUSH1 0x0 KECCAK256 SWAP1 JUMPDEST DUP2 SLOAD DUP2 MSTORE SWAP1 PUSH1 0x1 ADD SWAP1 PUSH1 0x20 ADD DUP1 DUP4 GT PUSH2 0x1C8 JUMPI DUP3 SWAP1 SUB PUSH1 0x1F AND DUP3 ADD SWAP2 JUMPDEST POP POP POP POP POP SWAP1 POP SWAP1 JUMP JUMPDEST PUSH1 0x60 PUSH1 0x0 DUP1 SLOAD PUSH2 0x1FE SWAP1 PUSH2 0x5B3 JUMP JUMPDEST DUP1 PUSH1 0x1F ADD PUSH1 0x20 DUP1 SWAP2 DIV MUL PUSH1 0x20 ADD PUSH1 0x40 MLOAD SWAP1 DUP2 ADD PUSH1 0x40 MSTORE DUP1 SWAP3 SWAP2 SWAP1 DUP2 DUP2 MSTORE PUSH1 0x20 ADD DUP3 DUP1 SLOAD PUSH2 0x22A SWAP1 PUSH2 0x5B3 JUMP JUMPDEST DUP1 ISZERO PUSH2 0x277 JUMPI DUP1 PUSH1 0x1F LT PUSH2 0x24C JUMPI PUSH2 0x100 DUP1 DUP4 SLOAD DIV MUL DUP4 MSTORE SWAP2 PUSH1 0x20 ADD SWAP2 PUSH2 0x277 JUMP JUMPDEST DUP3 ADD SWAP2 SWAP1 PUSH1 0x0 MSTORE PUSH1 0x20 PUSH1 0x0 KECCAK256 SWAP1 JUMPDEST DUP2 SLOAD DUP2 MSTORE SWAP1 PUSH1 0x1 ADD SWAP1 PUSH1 0x20 ADD DUP1 DUP4 GT PUSH2 0x25A JUMPI DUP3 SWAP1 SUB PUSH1 0x1F AND DUP3 ADD SWAP2 JUMPDEST POP POP POP POP POP SWAP1 POP SWAP1 JUMP JUMPDEST PUSH1 0x60 PUSH1 0x1 DUP1 SLOAD DUP1 PUSH1 0x20 MUL PUSH1 0x20 ADD PUSH1 0x40 MLOAD SWAP1 DUP2 ADD PUSH1 0x40 MSTORE DUP1 SWAP3 SWAP2 SWAP1 DUP2 DUP2 MSTORE PUSH1 0x20 ADD DUP3 DUP1 SLOAD DUP1 ISZERO PUSH2 0x2CF JUMPI PUSH1 0x20 MUL DUP3 ADD SWAP2 SWAP1 PUSH1 0x0 MSTORE PUSH1 0x20 PUSH1 0x0 KECCAK256 SWAP1 JUMPDEST DUP2 SLOAD DUP2 MSTORE PUSH1 0x20 ADD SWAP1 PUSH1 0x1 ADD SWAP1 DUP1 DUP4 GT PUSH2 0x2BB JUMPI JUMPDEST POP POP POP POP POP SWAP1 POP SWAP1 JUMP JUMPDEST DUP2 PUSH1 0x1 DUP1 SLOAD SWAP1 POP GT ISZERO PUSH2 0x30E JUMPI DUP1 PUSH1 0x1 DUP4 DUP2 SLOAD DUP2 LT PUSH2 0x2FB JUMPI PUSH2 0x2FA PUSH2 0x68C JUMP JUMPDEST JUMPDEST SWAP1 PUSH1 0x0 MSTORE PUSH1 0x20 PUSH1 0x0 KECCAK256 ADD DUP2 SWAP1 SSTORE POP PUSH2 0x39A JUMP JUMPDEST PUSH1 0x0 PUSH1 0x1 DUP1 SLOAD SWAP1 POP SWAP1 POP JUMPDEST DUP3 DUP2 GT PUSH2 0x398 JUMPI DUP3 PUSH1 0x1 DUP1 SLOAD SWAP1 POP EQ PUSH2 0x35B JUMPI PUSH1 0x1 PUSH1 0x0 SWAP1 DUP1 PUSH1 0x1 DUP2 SLOAD ADD DUP1 DUP3 SSTORE DUP1 SWAP2 POP POP PUSH1 0x1 SWAP1 SUB SWAP1 PUSH1 0x0 MSTORE PUSH1 0x20 PUSH1 0x0 KECCAK256 ADD PUSH1 0x0 SWAP1 SWAP2 SWAP1 SWAP2 SWAP1 SWAP2 POP SSTORE PUSH2 0x385 JUMP JUMPDEST PUSH1 0x1 DUP3 SWAP1 DUP1 PUSH1 0x1 DUP2 SLOAD ADD DUP1 DUP3 SSTORE DUP1 SWAP2 POP POP PUSH1 0x1 SWAP1 SUB SWAP1 PUSH1 0x0 MSTORE PUSH1 0x20 PUSH1 0x0 KECCAK256 ADD PUSH1 0x0 SWAP1 SWAP2 SWAP1 SWAP2 SWAP1 SWAP2 POP SSTORE JUMPDEST DUP1 DUP1 PUSH2 0x390 SWAP1 PUSH2 0x5E5 JUMP JUMPDEST SWAP2 POP POP PUSH2 0x319 JUMP JUMPDEST POP JUMPDEST POP POP JUMP JUMPDEST PUSH1 0x1 PUSH1 0x7B SWAP1 DUP1 PUSH1 0x1 DUP2 SLOAD ADD DUP1 DUP3 SSTORE DUP1 SWAP2 POP POP PUSH1 0x1 SWAP1 SUB SWAP1 PUSH1 0x0 MSTORE PUSH1 0x20 PUSH1 0x0 KECCAK256 ADD PUSH1 0x0 SWAP1 SWAP2 SWAP1 SWAP2 SWAP1 SWAP2 POP SSTORE JUMP JUMPDEST PUSH1 0x0 DUP2 CALLDATALOAD SWAP1 POP PUSH2 0x3D9 DUP2 PUSH2 0x6D1 JUMP JUMPDEST SWAP3 SWAP2 POP POP JUMP JUMPDEST PUSH1 0x0 DUP1 PUSH1 0x40 DUP4 DUP6 SUB SLT ISZERO PUSH2 0x3F6 JUMPI PUSH2 0x3F5 PUSH2 0x6BB JUMP JUMPDEST JUMPDEST PUSH1 0x0 PUSH2 0x404 DUP6 DUP3 DUP7 ADD PUSH2 0x3CA JUMP JUMPDEST SWAP3 POP POP PUSH1 0x20 PUSH2 0x415 DUP6 DUP3 DUP7 ADD PUSH2 0x3CA JUMP JUMPDEST SWAP2 POP POP SWAP3 POP SWAP3 SWAP1 POP JUMP JUMPDEST PUSH1 0x0 PUSH2 0x42B DUP4 DUP4 PUSH2 0x4CE JUMP JUMPDEST PUSH1 0x20 DUP4 ADD SWAP1 POP SWAP3 SWAP2 POP POP JUMP JUMPDEST PUSH1 0x0 PUSH2 0x442 DUP3 PUSH2 0x531 JUMP JUMPDEST PUSH2 0x44C DUP2 DUP6 PUSH2 0x554 JUMP JUMPDEST SWAP4 POP PUSH2 0x457 DUP4 PUSH2 0x521 JUMP JUMPDEST DUP1 PUSH1 0x0 JUMPDEST DUP4 DUP2 LT ISZERO PUSH2 0x488 JUMPI DUP2 MLOAD PUSH2 0x46F DUP9 DUP3 PUSH2 0x41F JUMP JUMPDEST SWAP8 POP PUSH2 0x47A DUP4 PUSH2 0x547 JUMP JUMPDEST SWAP3 POP POP PUSH1 0x1 DUP2 ADD SWAP1 POP PUSH2 0x45B JUMP JUMPDEST POP DUP6 SWAP4 POP POP POP POP SWAP3 SWAP2 POP POP JUMP JUMPDEST PUSH1 0x0 PUSH2 0x4A0 DUP3 PUSH2 0x53C JUMP JUMPDEST PUSH2 0x4AA DUP2 DUP6 PUSH2 0x565 JUMP JUMPDEST SWAP4 POP PUSH2 0x4BA DUP2 DUP6 PUSH1 0x20 DUP7 ADD PUSH2 0x580 JUMP JUMPDEST PUSH2 0x4C3 DUP2 PUSH2 0x6C0 JUMP JUMPDEST DUP5 ADD SWAP2 POP POP SWAP3 SWAP2 POP POP JUMP JUMPDEST PUSH2 0x4D7 DUP2 PUSH2 0x576 JUMP JUMPDEST DUP3 MSTORE POP POP JUMP JUMPDEST PUSH1 0x0 PUSH1 0x20 DUP3 ADD SWAP1 POP DUP2 DUP2 SUB PUSH1 0x0 DUP4 ADD MSTORE PUSH2 0x4F7 DUP2 DUP5 PUSH2 0x437 JUMP JUMPDEST SWAP1 POP SWAP3 SWAP2 POP POP JUMP JUMPDEST PUSH1 0x0 PUSH1 0x20 DUP3 ADD SWAP1 POP DUP2 DUP2 SUB PUSH1 0x0 DUP4 ADD MSTORE PUSH2 0x519 DUP2 DUP5 PUSH2 0x495 JUMP JUMPDEST SWAP1 POP SWAP3 SWAP2 POP POP JUMP JUMPDEST PUSH1 0x0 DUP2 SWAP1 POP PUSH1 0x20 DUP3 ADD SWAP1 POP SWAP2 SWAP1 POP JUMP JUMPDEST PUSH1 0x0 DUP2 MLOAD SWAP1 POP SWAP2 SWAP1 POP JUMP JUMPDEST PUSH1 0x0 DUP2 MLOAD SWAP1 POP SWAP2 SWAP1 POP JUMP JUMPDEST PUSH1 0x0 PUSH1 0x20 DUP3 ADD SWAP1 POP SWAP2 SWAP1 POP JUMP JUMPDEST PUSH1 0x0 DUP3 DUP3 MSTORE PUSH1 0x20 DUP3 ADD SWAP1 POP SWAP3 SWAP2 POP POP JUMP JUMPDEST PUSH1 0x0 DUP3 DUP3 MSTORE PUSH1 0x20 DUP3 ADD SWAP1 POP SWAP3 SWAP2 POP POP JUMP JUMPDEST PUSH1 0x0 DUP2 SWAP1 POP SWAP2 SWAP1 POP JUMP JUMPDEST PUSH1 0x0 JUMPDEST DUP4 DUP2 LT ISZERO PUSH2 0x59E JUMPI DUP1 DUP3 ADD MLOAD DUP2 DUP5 ADD MSTORE PUSH1 0x20 DUP2 ADD SWAP1 POP PUSH2 0x583 JUMP JUMPDEST DUP4 DUP2 GT ISZERO PUSH2 0x5AD JUMPI PUSH1 0x0 DUP5 DUP5 ADD MSTORE JUMPDEST POP POP POP POP JUMP JUMPDEST PUSH1 0x0 PUSH1 0x2 DUP3 DIV SWAP1 POP PUSH1 0x1 DUP3 AND DUP1 PUSH2 0x5CB JUMPI PUSH1 0x7F DUP3 AND SWAP2 POP JUMPDEST PUSH1 0x20 DUP3 LT DUP2 EQ ISZERO PUSH2 0x5DF JUMPI PUSH2 0x5DE PUSH2 0x65D JUMP JUMPDEST JUMPDEST POP SWAP2 SWAP1 POP JUMP JUMPDEST PUSH1 0x0 PUSH2 0x5F0 DUP3 PUSH2 0x576 JUMP JUMPDEST SWAP2 POP PUSH32 0xFFFFFFFFFFFFFFFFFFFFFFFFFFFFFFFFFFFFFFFFFFFFFFFFFFFFFFFFFFFFFFFF DUP3 EQ ISZERO PUSH2 0x623 JUMPI PUSH2 0x622 PUSH2 0x62E JUMP JUMPDEST JUMPDEST PUSH1 0x1 DUP3 ADD SWAP1 POP SWAP2 SWAP1 POP JUMP JUMPDEST PUSH32 0x4E487B7100000000000000000000000000000000000000000000000000000000 PUSH1 0x0 MSTORE PUSH1 0x11 PUSH1 0x4 MSTORE PUSH1 0x24 PUSH1 0x0 REVERT JUMPDEST PUSH32 0x4E487B7100000000000000000000000000000000000000000000000000000000 PUSH1 0x0 MSTORE PUSH1 0x22 PUSH1 0x4 MSTORE PUSH1 0x24 PUSH1 0x0 REVERT JUMPDEST PUSH32 0x4E487B7100000000000000000000000000000000000000000000000000000000 PUSH1 0x0 MSTORE PUSH1 0x32 PUSH1 0x4 MSTORE PUSH1 0x24 PUSH1 0x0 REVERT JUMPDEST PUSH1 0x0 DUP1 REVERT JUMPDEST PUSH1 0x0 PUSH1 0x1F NOT PUSH1 0x1F DUP4 ADD AND SWAP1 POP SWAP2 SWAP1 POP JUMP JUMPDEST PUSH2 0x6DA DUP2 PUSH2 0x576 JUMP JUMPDEST DUP2 EQ PUSH2 0x6E5 JUMPI PUSH1 0x0 DUP1 REVERT JUMPDEST POP JUMP INVALID LOG2 PUSH5 0x6970667358 0x22 SLT KECCAK256 0xC9 RETURN NUMBER DUP15 0xAD 0xEF PUSH10 0x4AEEE43698082AF2D36D 0xB5 PUSH14 0x2283F7DC2A1AF6BF670E35344464 PUSH20 0x6F6C634300080700330000000000000000000000 "
				},
				"gasEstimates": {
					"creation": {
						"codeDepositCost": "364400",
						"executionCost": "infinite",
						"totalCost": "infinite"
					},
					"external": {
						"getarr()": "infinite",
						"getstatus()": "infinite",
						"getupdate()": "infinite",
						"pushnum()": "infinite",
						"simpleoushinarr()": "46655",
						"updatearr(uint256,uint256)": "infinite"
					}
				},
				"methodIdentifiers": {
					"getarr()": "6bc7deae",
					"getstatus()": "3b0b0290",
					"getupdate()": "4678f832",
					"pushnum()": "0469a5e2",
					"simpleoushinarr()": "a80c52e9",
					"updatearr(uint256,uint256)": "9fd44f5a"
				}
			},
			"storageLayout": {
				"storage": [
					{
						"astId": 3,
						"contract": "dynamicsizearr.sol:fixedsizearray",
						"label": "status",
						"offset": 0,
						"slot": "0",
						"type": "t_string_storage"
					},
					{
						"astId": 12,
						"contract": "dynamicsizearr.sol:fixedsizearray",
						"label": "arr",
						"offset": 0,
						"slot": "1",
						"type": "t_array(t_uint256)dyn_storage"
					}
				],
				"types": {
					"t_array(t_uint256)dyn_storage": {
						"base": "t_uint256",
						"encoding": "dynamic_array",
						"label": "uint256[]",
						"numberOfBytes": "32"
					},
					"t_string_storage": {
						"encoding": "bytes",
						"label": "string",
						"numberOfBytes": "32"
					},
					"t_uint256": {
						"encoding": "inplace",
						"label": "uint256",
						"numberOfBytes": "32"
					}
				}
			},
			"userdoc": {
				"kind": "user",
				"methods": {},
				"version": 1
			}
		}
	}
}