{
	"smartAuction2.0.sol": {
		"smartAuction": {
			"abi": [
				{
					"inputs": [],
					"stateMutability": "nonpayable",
					"type": "constructor"
				},
				{
					"inputs": [],
					"name": "auctionState",
					"outputs": [
						{
							"internalType": "enum smartAuction.Auction_state",
							"name": "",
							"type": "uint8"
						}
					],
					"stateMutability": "view",
					"type": "function"
				},
				{
					"inputs": [],
					"name": "auctioneer",
					"outputs": [
						{
							"internalType": "address payable",
							"name": "",
							"type": "address"
						}
					],
					"stateMutability": "view",
					"type": "function"
				},
				{
					"inputs": [],
					"name": "bid",
					"outputs": [],
					"stateMutability": "payable",
					"type": "function"
				},
				{
					"inputs": [],
					"name": "bid_inc",
					"outputs": [
						{
							"internalType": "uint256",
							"name": "",
							"type": "uint256"
						}
					],
					"stateMutability": "view",
					"type": "function"
				},
				{
					"inputs": [
						{
							"internalType": "address",
							"name": "",
							"type": "address"
						}
					],
					"name": "bids",
					"outputs": [
						{
							"internalType": "uint256",
							"name": "",
							"type": "uint256"
						}
					],
					"stateMutability": "view",
					"type": "function"
				},
				{
					"inputs": [],
					"name": "cancelAuction",
					"outputs": [],
					"stateMutability": "nonpayable",
					"type": "function"
				},
				{
					"inputs": [],
					"name": "endAuction",
					"outputs": [],
					"stateMutability": "nonpayable",
					"type": "function"
				},
				{
					"inputs": [],
					"name": "endBlock",
					"outputs": [
						{
							"internalType": "uint256",
							"name": "",
							"type": "uint256"
						}
					],
					"stateMutability": "view",
					"type": "function"
				},
				{
					"inputs": [],
					"name": "finalizeAuction",
					"outputs": [],
					"stateMutability": "nonpayable",
					"type": "function"
				},
				{
					"inputs": [],
					"name": "highest_bid",
					"outputs": [
						{
							"internalType": "uint256",
							"name": "",
							"type": "uint256"
						}
					],
					"stateMutability": "view",
					"type": "function"
				},
				{
					"inputs": [],
					"name": "highest_bidder",
					"outputs": [
						{
							"internalType": "address payable",
							"name": "",
							"type": "address"
						}
					],
					"stateMutability": "view",
					"type": "function"
				},
				{
					"inputs": [],
					"name": "highest_payable_bid",
					"outputs": [
						{
							"internalType": "uint256",
							"name": "",
							"type": "uint256"
						}
					],
					"stateMutability": "view",
					"type": "function"
				},
				{
					"inputs": [],
					"name": "startBlock",
					"outputs": [
						{
							"internalType": "uint256",
							"name": "",
							"type": "uint256"
						}
					],
					"stateMutability": "view",
					"type": "function"
				}
			],
			"devdoc": {
				"kind": "dev",
				"methods": {},
				"version": 1
			},
			"evm": {
				"assembly": "    /* \"smartAuction2.0.sol\":63:3143  contract smartAuction{... */\n  mstore(0x40, 0x80)\n    /* \"smartAuction2.0.sol\":472:692  constructor(){... */\n  callvalue\n  dup1\n  iszero\n  tag_1\n  jumpi\n  0x00\n  dup1\n  revert\ntag_1:\n  pop\n    /* \"smartAuction2.0.sol\":516:526  msg.sender */\n  caller\n    /* \"smartAuction2.0.sol\":495:505  auctioneer */\n  0x00\n  dup1\n    /* \"smartAuction2.0.sol\":495:527  auctioneer = payable(msg.sender) */\n  0x0100\n  exp\n  dup2\n  sload\n  dup2\n  0xffffffffffffffffffffffffffffffffffffffff\n  mul\n  not\n  and\n  swap1\n  dup4\n  0xffffffffffffffffffffffffffffffffffffffff\n  and\n  mul\n  or\n  swap1\n  sstore\n  pop\n    /* \"smartAuction2.0.sol\":550:562  block.number */\n  number\n    /* \"smartAuction2.0.sol\":537:547  startBlock */\n  0x01\n    /* \"smartAuction2.0.sol\":537:562  startBlock = block.number */\n  dup2\n  swap1\n  sstore\n  pop\n    /* \"smartAuction2.0.sol\":588:609  Auction_state.Running */\n  0x01\n    /* \"smartAuction2.0.sol\":572:584  auctionState */\n  0x03\n  0x00\n    /* \"smartAuction2.0.sol\":572:609  auctionState =  Auction_state.Running */\n  0x0100\n  exp\n  dup2\n  sload\n  dup2\n  0xff\n  mul\n  not\n  and\n  swap1\n  dup4\n  0x03\n  dup2\n  gt\n  iszero\n  tag_4\n  jumpi\n  tag_5\n  tag_6\n  jump\t// in\ntag_5:\ntag_4:\n  mul\n  or\n  swap1\n  sstore\n  pop\n    /* \"smartAuction2.0.sol\":643:645  10 */\n  0x0a\n    /* \"smartAuction2.0.sol\":630:640  startBlock */\n  sload(0x01)\n    /* \"smartAuction2.0.sol\":630:645  startBlock + 10 */\n  tag_7\n  swap2\n  swap1\n  tag_8\n  jump\t// in\ntag_7:\n    /* \"smartAuction2.0.sol\":619:627  endBlock */\n  0x02\n    /* \"smartAuction2.0.sol\":619:645  endBlock = startBlock + 10 */\n  dup2\n  swap1\n  sstore\n  pop\n    /* \"smartAuction2.0.sol\":678:685  1 ether */\n  0x0de0b6b3a7640000\n    /* \"smartAuction2.0.sol\":668:675  bid_inc */\n  0x06\n    /* \"smartAuction2.0.sol\":668:685  bid_inc = 1 ether */\n  dup2\n  swap1\n  sstore\n  pop\n    /* \"smartAuction2.0.sol\":63:3143  contract smartAuction{... */\n  jump(tag_9)\n    /* \"#utility.yul\":7:312   */\ntag_8:\n    /* \"#utility.yul\":47:50   */\n  0x00\n    /* \"#utility.yul\":66:86   */\n  tag_12\n    /* \"#utility.yul\":84:85   */\n  dup3\n    /* \"#utility.yul\":66:86   */\n  tag_13\n  jump\t// in\ntag_12:\n    /* \"#utility.yul\":61:86   */\n  swap2\n  pop\n    /* \"#utility.yul\":100:120   */\n  tag_14\n    /* \"#utility.yul\":118:119   */\n  dup4\n    /* \"#utility.yul\":100:120   */\n  tag_13\n  jump\t// in\ntag_14:\n    /* \"#utility.yul\":95:120   */\n  swap3\n  pop\n    /* \"#utility.yul\":254:255   */\n  dup3\n    /* \"#utility.yul\":186:252   */\n  0xffffffffffffffffffffffffffffffffffffffffffffffffffffffffffffffff\n    /* \"#utility.yul\":182:256   */\n  sub\n    /* \"#utility.yul\":179:180   */\n  dup3\n    /* \"#utility.yul\":176:257   */\n  gt\n    /* \"#utility.yul\":173:280   */\n  iszero\n  tag_15\n  jumpi\n    /* \"#utility.yul\":260:278   */\n  tag_16\n  tag_17\n  jump\t// in\ntag_16:\n    /* \"#utility.yul\":173:280   */\ntag_15:\n    /* \"#utility.yul\":304:305   */\n  dup3\n    /* \"#utility.yul\":301:302   */\n  dup3\n    /* \"#utility.yul\":297:306   */\n  add\n    /* \"#utility.yul\":290:306   */\n  swap1\n  pop\n    /* \"#utility.yul\":7:312   */\n  swap3\n  swap2\n  pop\n  pop\n  jump\t// out\n    /* \"#utility.yul\":318:395   */\ntag_13:\n    /* \"#utility.yul\":355:362   */\n  0x00\n    /* \"#utility.yul\":384:389   */\n  dup2\n    /* \"#utility.yul\":373:389   */\n  swap1\n  pop\n    /* \"#utility.yul\":318:395   */\n  swap2\n  swap1\n  pop\n  jump\t// out\n    /* \"#utility.yul\":401:581   */\ntag_17:\n    /* \"#utility.yul\":449:526   */\n  0x4e487b7100000000000000000000000000000000000000000000000000000000\n    /* \"#utility.yul\":446:447   */\n  0x00\n    /* \"#utility.yul\":439:527   */\n  mstore\n    /* \"#utility.yul\":546:550   */\n  0x11\n    /* \"#utility.yul\":543:544   */\n  0x04\n    /* \"#utility.yul\":536:551   */\n  mstore\n    /* \"#utility.yul\":570:574   */\n  0x24\n    /* \"#utility.yul\":567:568   */\n  0x00\n    /* \"#utility.yul\":560:575   */\n  revert\n    /* \"#utility.yul\":587:767   */\ntag_6:\n    /* \"#utility.yul\":635:712   */\n  0x4e487b7100000000000000000000000000000000000000000000000000000000\n    /* \"#utility.yul\":632:633   */\n  0x00\n    /* \"#utility.yul\":625:713   */\n  mstore\n    /* \"#utility.yul\":732:736   */\n  0x21\n    /* \"#utility.yul\":729:730   */\n  0x04\n    /* \"#utility.yul\":722:737   */\n  mstore\n    /* \"#utility.yul\":756:760   */\n  0x24\n    /* \"#utility.yul\":753:754   */\n  0x00\n    /* \"#utility.yul\":746:761   */\n  revert\n    /* \"smartAuction2.0.sol\":63:3143  contract smartAuction{... */\ntag_9:\n  dataSize(sub_0)\n  dup1\n  dataOffset(sub_0)\n  0x00\n  codecopy\n  0x00\n  return\nstop\n\nsub_0: assembly {\n        /* \"smartAuction2.0.sol\":63:3143  contract smartAuction{... */\n      mstore(0x40, 0x80)\n      jumpi(tag_1, lt(calldatasize, 0x04))\n      shr(0xe0, calldataload(0x00))\n      dup1\n      0x7fb45099\n      gt\n      tag_15\n      jumpi\n      dup1\n      0xe5c60091\n      gt\n      tag_16\n      jumpi\n      dup1\n      0xe5c60091\n      eq\n      tag_11\n      jumpi\n      dup1\n      0xf3ef35f8\n      eq\n      tag_12\n      jumpi\n      dup1\n      0xf77282ab\n      eq\n      tag_13\n      jumpi\n      dup1\n      0xfe67a54b\n      eq\n      tag_14\n      jumpi\n      jump(tag_1)\n    tag_16:\n      dup1\n      0x7fb45099\n      eq\n      tag_8\n      jumpi\n      dup1\n      0x8fa8b790\n      eq\n      tag_9\n      jumpi\n      dup1\n      0xbd9215f4\n      eq\n      tag_10\n      jumpi\n      jump(tag_1)\n    tag_15:\n      dup1\n      0x083c6323\n      eq\n      tag_2\n      jumpi\n      dup1\n      0x1998aeef\n      eq\n      tag_3\n      jumpi\n      dup1\n      0x48cd4cb1\n      eq\n      tag_4\n      jumpi\n      dup1\n      0x5ec2c7bf\n      eq\n      tag_5\n      jumpi\n      dup1\n      0x62ea82db\n      eq\n      tag_6\n      jumpi\n      dup1\n      0x7eb695a1\n      eq\n      tag_7\n      jumpi\n    tag_1:\n      0x00\n      dup1\n      revert\n        /* \"smartAuction2.0.sol\":159:179  uint public endBlock */\n    tag_2:\n      callvalue\n      dup1\n      iszero\n      tag_17\n      jumpi\n      0x00\n      dup1\n      revert\n    tag_17:\n      pop\n      tag_18\n      tag_19\n      jump\t// in\n    tag_18:\n      mload(0x40)\n      tag_20\n      swap2\n      swap1\n      tag_21\n      jump\t// in\n    tag_20:\n      mload(0x40)\n      dup1\n      swap2\n      sub\n      swap1\n      return\n        /* \"smartAuction2.0.sol\":1486:2125  function bid() payable public notOwner started ending{... */\n    tag_3:\n      tag_22\n      tag_23\n      jump\t// in\n    tag_22:\n      stop\n        /* \"smartAuction2.0.sol\":131:153  uint public startBlock */\n    tag_4:\n      callvalue\n      dup1\n      iszero\n      tag_24\n      jumpi\n      0x00\n      dup1\n      revert\n    tag_24:\n      pop\n      tag_25\n      tag_26\n      jump\t// in\n    tag_25:\n      mload(0x40)\n      tag_27\n      swap2\n      swap1\n      tag_21\n      jump\t// in\n    tag_27:\n      mload(0x40)\n      dup1\n      swap2\n      sub\n      swap1\n      return\n        /* \"smartAuction2.0.sol\":91:125  address payable public  auctioneer */\n    tag_5:\n      callvalue\n      dup1\n      iszero\n      tag_28\n      jumpi\n      0x00\n      dup1\n      revert\n    tag_28:\n      pop\n      tag_29\n      tag_30\n      jump\t// in\n    tag_29:\n      mload(0x40)\n      tag_31\n      swap2\n      swap1\n      tag_32\n      jump\t// in\n    tag_31:\n      mload(0x40)\n      dup1\n      swap2\n      sub\n      swap1\n      return\n        /* \"smartAuction2.0.sol\":429:465  mapping(address => uint) public bids */\n    tag_6:\n      callvalue\n      dup1\n      iszero\n      tag_33\n      jumpi\n      0x00\n      dup1\n      revert\n    tag_33:\n      pop\n      tag_34\n      0x04\n      dup1\n      calldatasize\n      sub\n      dup2\n      add\n      swap1\n      tag_35\n      swap2\n      swap1\n      tag_36\n      jump\t// in\n    tag_35:\n      tag_37\n      jump\t// in\n    tag_34:\n      mload(0x40)\n      tag_38\n      swap2\n      swap1\n      tag_21\n      jump\t// in\n    tag_38:\n      mload(0x40)\n      dup1\n      swap2\n      sub\n      swap1\n      return\n        /* \"smartAuction2.0.sol\":322:353  uint public highest_payable_bid */\n    tag_7:\n      callvalue\n      dup1\n      iszero\n      tag_39\n      jumpi\n      0x00\n      dup1\n      revert\n    tag_39:\n      pop\n      tag_40\n      tag_41\n      jump\t// in\n    tag_40:\n      mload(0x40)\n      tag_42\n      swap2\n      swap1\n      tag_21\n      jump\t// in\n    tag_42:\n      mload(0x40)\n      dup1\n      swap2\n      sub\n      swap1\n      return\n        /* \"smartAuction2.0.sol\":253:286  Auction_state public auctionState */\n    tag_8:\n      callvalue\n      dup1\n      iszero\n      tag_43\n      jumpi\n      0x00\n      dup1\n      revert\n    tag_43:\n      pop\n      tag_44\n      tag_45\n      jump\t// in\n    tag_44:\n      mload(0x40)\n      tag_46\n      swap2\n      swap1\n      tag_47\n      jump\t// in\n    tag_46:\n      mload(0x40)\n      dup1\n      swap2\n      sub\n      swap1\n      return\n        /* \"smartAuction2.0.sol\":1147:1241  function cancelAuction() public Owner{... */\n    tag_9:\n      callvalue\n      dup1\n      iszero\n      tag_48\n      jumpi\n      0x00\n      dup1\n      revert\n    tag_48:\n      pop\n      tag_49\n      tag_50\n      jump\t// in\n    tag_49:\n      stop\n        /* \"smartAuction2.0.sol\":385:422  address payable public highest_bidder */\n    tag_10:\n      callvalue\n      dup1\n      iszero\n      tag_51\n      jumpi\n      0x00\n      dup1\n      revert\n    tag_51:\n      pop\n      tag_52\n      tag_53\n      jump\t// in\n    tag_52:\n      mload(0x40)\n      tag_54\n      swap2\n      swap1\n      tag_32\n      jump\t// in\n    tag_54:\n      mload(0x40)\n      dup1\n      swap2\n      sub\n      swap1\n      return\n        /* \"smartAuction2.0.sol\":293:316  uint public highest_bid */\n    tag_11:\n      callvalue\n      dup1\n      iszero\n      tag_55\n      jumpi\n      0x00\n      dup1\n      revert\n    tag_55:\n      pop\n      tag_56\n      tag_57\n      jump\t// in\n    tag_56:\n      mload(0x40)\n      tag_58\n      swap2\n      swap1\n      tag_21\n      jump\t// in\n    tag_58:\n      mload(0x40)\n      dup1\n      swap2\n      sub\n      swap1\n      return\n        /* \"smartAuction2.0.sol\":359:378  uint public bid_inc */\n    tag_12:\n      callvalue\n      dup1\n      iszero\n      tag_59\n      jumpi\n      0x00\n      dup1\n      revert\n    tag_59:\n      pop\n      tag_60\n      tag_61\n      jump\t// in\n    tag_60:\n      mload(0x40)\n      tag_62\n      swap2\n      swap1\n      tag_21\n      jump\t// in\n    tag_62:\n      mload(0x40)\n      dup1\n      swap2\n      sub\n      swap1\n      return\n        /* \"smartAuction2.0.sol\":2131:3141  function finalizeAuction() public {... */\n    tag_13:\n      callvalue\n      dup1\n      iszero\n      tag_63\n      jumpi\n      0x00\n      dup1\n      revert\n    tag_63:\n      pop\n      tag_64\n      tag_65\n      jump\t// in\n    tag_64:\n      stop\n        /* \"smartAuction2.0.sol\":1247:1334  function endAuction() public Owner{... */\n    tag_14:\n      callvalue\n      dup1\n      iszero\n      tag_66\n      jumpi\n      0x00\n      dup1\n      revert\n    tag_66:\n      pop\n      tag_67\n      tag_68\n      jump\t// in\n    tag_67:\n      stop\n        /* \"smartAuction2.0.sol\":159:179  uint public endBlock */\n    tag_19:\n      sload(0x02)\n      dup2\n      jump\t// out\n        /* \"smartAuction2.0.sol\":1486:2125  function bid() payable public notOwner started ending{... */\n    tag_23:\n        /* \"smartAuction2.0.sol\":749:759  auctioneer */\n      0x00\n      dup1\n      sload\n      swap1\n      0x0100\n      exp\n      swap1\n      div\n      0xffffffffffffffffffffffffffffffffffffffff\n      and\n        /* \"smartAuction2.0.sol\":735:759  msg.sender != auctioneer */\n      0xffffffffffffffffffffffffffffffffffffffff\n      and\n        /* \"smartAuction2.0.sol\":735:745  msg.sender */\n      caller\n        /* \"smartAuction2.0.sol\":735:759  msg.sender != auctioneer */\n      0xffffffffffffffffffffffffffffffffffffffff\n      and\n      eq\n      iszero\n        /* \"smartAuction2.0.sol\":727:780  require(msg.sender != auctioneer, \"Owner Cannot bid\") */\n      tag_70\n      jumpi\n      mload(0x40)\n      0x08c379a000000000000000000000000000000000000000000000000000000000\n      dup2\n      mstore\n      0x04\n      add\n      tag_71\n      swap1\n      tag_72\n      jump\t// in\n    tag_71:\n      mload(0x40)\n      dup1\n      swap2\n      sub\n      swap1\n      revert\n    tag_70:\n        /* \"smartAuction2.0.sol\":956:966  startBlock */\n      sload(0x01)\n        /* \"smartAuction2.0.sol\":943:955  block.number */\n      number\n        /* \"smartAuction2.0.sol\":943:966  block.number>startBlock */\n      gt\n        /* \"smartAuction2.0.sol\":935:1015  require(block.number>startBlock, \"Start Block must be greater than total block\") */\n      tag_74\n      jumpi\n      mload(0x40)\n      0x08c379a000000000000000000000000000000000000000000000000000000000\n      dup2\n      mstore\n      0x04\n      add\n      tag_75\n      swap1\n      tag_76\n      jump\t// in\n    tag_75:\n      mload(0x40)\n      dup1\n      swap2\n      sub\n      swap1\n      revert\n    tag_74:\n        /* \"smartAuction2.0.sol\":1086:1094  endBlock */\n      sload(0x02)\n        /* \"smartAuction2.0.sol\":1073:1085  block.number */\n      number\n        /* \"smartAuction2.0.sol\":1073:1094  block.number<endBlock */\n      lt\n        /* \"smartAuction2.0.sol\":1065:1123  require(block.number<endBlock, \"Auction is not Ended yet\") */\n      tag_78\n      jumpi\n      mload(0x40)\n      0x08c379a000000000000000000000000000000000000000000000000000000000\n      dup2\n      mstore\n      0x04\n      add\n      tag_79\n      swap1\n      tag_80\n      jump\t// in\n    tag_79:\n      mload(0x40)\n      dup1\n      swap2\n      sub\n      swap1\n      revert\n    tag_78:\n        /* \"smartAuction2.0.sol\":1582:1603  Auction_state.Running */\n      0x01\n        /* \"smartAuction2.0.sol\":1566:1603  auctionState == Auction_state.Running */\n      0x03\n      dup2\n      gt\n      iszero\n      tag_82\n      jumpi\n      tag_83\n      tag_84\n      jump\t// in\n    tag_83:\n    tag_82:\n        /* \"smartAuction2.0.sol\":1566:1578  auctionState */\n      0x03\n      0x00\n      swap1\n      sload\n      swap1\n      0x0100\n      exp\n      swap1\n      div\n      0xff\n      and\n        /* \"smartAuction2.0.sol\":1566:1603  auctionState == Auction_state.Running */\n      0x03\n      dup2\n      gt\n      iszero\n      tag_85\n      jumpi\n      tag_86\n      tag_84\n      jump\t// in\n    tag_86:\n    tag_85:\n      eq\n        /* \"smartAuction2.0.sol\":1558:1604  require(auctionState == Auction_state.Running) */\n      tag_87\n      jumpi\n      0x00\n      dup1\n      revert\n    tag_87:\n        /* \"smartAuction2.0.sol\":1635:1642  1 ether */\n      0x0de0b6b3a7640000\n        /* \"smartAuction2.0.sol\":1622:1631  msg.value */\n      callvalue\n        /* \"smartAuction2.0.sol\":1622:1642  msg.value >= 1 ether */\n      lt\n      iszero\n        /* \"smartAuction2.0.sol\":1614:1643  require(msg.value >= 1 ether) */\n      tag_88\n      jumpi\n      0x00\n      dup1\n      revert\n    tag_88:\n        /* \"smartAuction2.0.sol\":1654:1669  uint currentBid */\n      0x00\n        /* \"smartAuction2.0.sol\":1691:1700  msg.value */\n      callvalue\n        /* \"smartAuction2.0.sol\":1672:1676  bids */\n      0x08\n        /* \"smartAuction2.0.sol\":1672:1688  bids[msg.sender] */\n      0x00\n        /* \"smartAuction2.0.sol\":1677:1687  msg.sender */\n      caller\n        /* \"smartAuction2.0.sol\":1672:1688  bids[msg.sender] */\n      0xffffffffffffffffffffffffffffffffffffffff\n      and\n      0xffffffffffffffffffffffffffffffffffffffff\n      and\n      dup2\n      mstore\n      0x20\n      add\n      swap1\n      dup2\n      mstore\n      0x20\n      add\n      0x00\n      keccak256\n      sload\n        /* \"smartAuction2.0.sol\":1672:1700  bids[msg.sender] + msg.value */\n      tag_89\n      swap2\n      swap1\n      tag_90\n      jump\t// in\n    tag_89:\n        /* \"smartAuction2.0.sol\":1654:1700  uint currentBid = bids[msg.sender] + msg.value */\n      swap1\n      pop\n        /* \"smartAuction2.0.sol\":1732:1751  highest_payable_bid */\n      sload(0x05)\n        /* \"smartAuction2.0.sol\":1719:1729  currentBid */\n      dup2\n        /* \"smartAuction2.0.sol\":1719:1751  currentBid > highest_payable_bid */\n      gt\n        /* \"smartAuction2.0.sol\":1711:1783  require(currentBid > highest_payable_bid, \"Increase You  Bid Valu than\") */\n      tag_91\n      jumpi\n      mload(0x40)\n      0x08c379a000000000000000000000000000000000000000000000000000000000\n      dup2\n      mstore\n      0x04\n      add\n      tag_92\n      swap1\n      tag_93\n      jump\t// in\n    tag_92:\n      mload(0x40)\n      dup1\n      swap2\n      sub\n      swap1\n      revert\n    tag_91:\n        /* \"smartAuction2.0.sol\":1813:1823  currentBid */\n      dup1\n        /* \"smartAuction2.0.sol\":1794:1798  bids */\n      0x08\n        /* \"smartAuction2.0.sol\":1794:1810  bids[msg.sender] */\n      0x00\n        /* \"smartAuction2.0.sol\":1799:1809  msg.sender */\n      caller\n        /* \"smartAuction2.0.sol\":1794:1810  bids[msg.sender] */\n      0xffffffffffffffffffffffffffffffffffffffff\n      and\n      0xffffffffffffffffffffffffffffffffffffffff\n      and\n      dup2\n      mstore\n      0x20\n      add\n      swap1\n      dup2\n      mstore\n      0x20\n      add\n      0x00\n      keccak256\n        /* \"smartAuction2.0.sol\":1794:1823  bids[msg.sender] = currentBid */\n      dup2\n      swap1\n      sstore\n      pop\n        /* \"smartAuction2.0.sol\":1850:1854  bids */\n      0x08\n        /* \"smartAuction2.0.sol\":1850:1870  bids[highest_bidder] */\n      0x00\n        /* \"smartAuction2.0.sol\":1855:1869  highest_bidder */\n      0x07\n      0x00\n      swap1\n      sload\n      swap1\n      0x0100\n      exp\n      swap1\n      div\n      0xffffffffffffffffffffffffffffffffffffffff\n      and\n        /* \"smartAuction2.0.sol\":1850:1870  bids[highest_bidder] */\n      0xffffffffffffffffffffffffffffffffffffffff\n      and\n      0xffffffffffffffffffffffffffffffffffffffff\n      and\n      dup2\n      mstore\n      0x20\n      add\n      swap1\n      dup2\n      mstore\n      0x20\n      add\n      0x00\n      keccak256\n      sload\n        /* \"smartAuction2.0.sol\":1837:1847  currentBid */\n      dup2\n        /* \"smartAuction2.0.sol\":1837:1870  currentBid < bids[highest_bidder] */\n      lt\n        /* \"smartAuction2.0.sol\":1834:2118  if(currentBid < bids[highest_bidder]){... */\n      iszero\n      tag_94\n      jumpi\n        /* \"smartAuction2.0.sol\":1907:1952  min(currentBid+bid_inc, bids[highest_bidder]) */\n      tag_95\n        /* \"smartAuction2.0.sol\":1922:1929  bid_inc */\n      sload(0x06)\n        /* \"smartAuction2.0.sol\":1911:1921  currentBid */\n      dup3\n        /* \"smartAuction2.0.sol\":1911:1929  currentBid+bid_inc */\n      tag_96\n      swap2\n      swap1\n      tag_90\n      jump\t// in\n    tag_96:\n        /* \"smartAuction2.0.sol\":1931:1935  bids */\n      0x08\n        /* \"smartAuction2.0.sol\":1931:1951  bids[highest_bidder] */\n      0x00\n        /* \"smartAuction2.0.sol\":1936:1950  highest_bidder */\n      0x07\n      0x00\n      swap1\n      sload\n      swap1\n      0x0100\n      exp\n      swap1\n      div\n      0xffffffffffffffffffffffffffffffffffffffff\n      and\n        /* \"smartAuction2.0.sol\":1931:1951  bids[highest_bidder] */\n      0xffffffffffffffffffffffffffffffffffffffff\n      and\n      0xffffffffffffffffffffffffffffffffffffffff\n      and\n      dup2\n      mstore\n      0x20\n      add\n      swap1\n      dup2\n      mstore\n      0x20\n      add\n      0x00\n      keccak256\n      sload\n        /* \"smartAuction2.0.sol\":1907:1910  min */\n      tag_97\n        /* \"smartAuction2.0.sol\":1907:1952  min(currentBid+bid_inc, bids[highest_bidder]) */\n      jump\t// in\n    tag_95:\n        /* \"smartAuction2.0.sol\":1885:1904  highest_payable_bid */\n      0x05\n        /* \"smartAuction2.0.sol\":1885:1952  highest_payable_bid = min(currentBid+bid_inc, bids[highest_bidder]) */\n      dup2\n      swap1\n      sstore\n      pop\n        /* \"smartAuction2.0.sol\":1834:2118  if(currentBid < bids[highest_bidder]){... */\n      jump(tag_98)\n    tag_94:\n        /* \"smartAuction2.0.sol\":2012:2057  min(currentBid, bids[highest_bidder]+bid_inc) */\n      tag_99\n        /* \"smartAuction2.0.sol\":2016:2026  currentBid */\n      dup2\n        /* \"smartAuction2.0.sol\":2049:2056  bid_inc */\n      sload(0x06)\n        /* \"smartAuction2.0.sol\":2028:2032  bids */\n      0x08\n        /* \"smartAuction2.0.sol\":2028:2048  bids[highest_bidder] */\n      0x00\n        /* \"smartAuction2.0.sol\":2033:2047  highest_bidder */\n      0x07\n      0x00\n      swap1\n      sload\n      swap1\n      0x0100\n      exp\n      swap1\n      div\n      0xffffffffffffffffffffffffffffffffffffffff\n      and\n        /* \"smartAuction2.0.sol\":2028:2048  bids[highest_bidder] */\n      0xffffffffffffffffffffffffffffffffffffffff\n      and\n      0xffffffffffffffffffffffffffffffffffffffff\n      and\n      dup2\n      mstore\n      0x20\n      add\n      swap1\n      dup2\n      mstore\n      0x20\n      add\n      0x00\n      keccak256\n      sload\n        /* \"smartAuction2.0.sol\":2028:2056  bids[highest_bidder]+bid_inc */\n      tag_100\n      swap2\n      swap1\n      tag_90\n      jump\t// in\n    tag_100:\n        /* \"smartAuction2.0.sol\":2012:2015  min */\n      tag_97\n        /* \"smartAuction2.0.sol\":2012:2057  min(currentBid, bids[highest_bidder]+bid_inc) */\n      jump\t// in\n    tag_99:\n        /* \"smartAuction2.0.sol\":1990:2009  highest_payable_bid */\n      0x05\n        /* \"smartAuction2.0.sol\":1990:2057  highest_payable_bid = min(currentBid, bids[highest_bidder]+bid_inc) */\n      dup2\n      swap1\n      sstore\n      pop\n        /* \"smartAuction2.0.sol\":2096:2106  msg.sender */\n      caller\n        /* \"smartAuction2.0.sol\":2071:2085  highest_bidder */\n      0x07\n      0x00\n        /* \"smartAuction2.0.sol\":2071:2107  highest_bidder = payable(msg.sender) */\n      0x0100\n      exp\n      dup2\n      sload\n      dup2\n      0xffffffffffffffffffffffffffffffffffffffff\n      mul\n      not\n      and\n      swap1\n      dup4\n      0xffffffffffffffffffffffffffffffffffffffff\n      and\n      mul\n      or\n      swap1\n      sstore\n      pop\n        /* \"smartAuction2.0.sol\":1834:2118  if(currentBid < bids[highest_bidder]){... */\n    tag_98:\n        /* \"smartAuction2.0.sol\":1539:2125  {... */\n      pop\n        /* \"smartAuction2.0.sol\":1486:2125  function bid() payable public notOwner started ending{... */\n      jump\t// out\n        /* \"smartAuction2.0.sol\":131:153  uint public startBlock */\n    tag_26:\n      sload(0x01)\n      dup2\n      jump\t// out\n        /* \"smartAuction2.0.sol\":91:125  address payable public  auctioneer */\n    tag_30:\n      0x00\n      dup1\n      sload\n      swap1\n      0x0100\n      exp\n      swap1\n      div\n      0xffffffffffffffffffffffffffffffffffffffff\n      and\n      dup2\n      jump\t// out\n        /* \"smartAuction2.0.sol\":429:465  mapping(address => uint) public bids */\n    tag_37:\n      mstore(0x20, 0x08)\n      dup1\n      0x00\n      mstore\n      keccak256(0x00, 0x40)\n      0x00\n      swap2\n      pop\n      swap1\n      pop\n      sload\n      dup2\n      jump\t// out\n        /* \"smartAuction2.0.sol\":322:353  uint public highest_payable_bid */\n    tag_41:\n      sload(0x05)\n      dup2\n      jump\t// out\n        /* \"smartAuction2.0.sol\":253:286  Auction_state public auctionState */\n    tag_45:\n      0x03\n      0x00\n      swap1\n      sload\n      swap1\n      0x0100\n      exp\n      swap1\n      div\n      0xff\n      and\n      dup2\n      jump\t// out\n        /* \"smartAuction2.0.sol\":1147:1241  function cancelAuction() public Owner{... */\n    tag_50:\n        /* \"smartAuction2.0.sol\":852:862  auctioneer */\n      0x00\n      dup1\n      sload\n      swap1\n      0x0100\n      exp\n      swap1\n      div\n      0xffffffffffffffffffffffffffffffffffffffff\n      and\n        /* \"smartAuction2.0.sol\":838:862  msg.sender == auctioneer */\n      0xffffffffffffffffffffffffffffffffffffffff\n      and\n        /* \"smartAuction2.0.sol\":838:848  msg.sender */\n      caller\n        /* \"smartAuction2.0.sol\":838:862  msg.sender == auctioneer */\n      0xffffffffffffffffffffffffffffffffffffffff\n      and\n      eq\n        /* \"smartAuction2.0.sol\":830:883  require(msg.sender == auctioneer, \"Owner Cannot bid\") */\n      tag_102\n      jumpi\n      mload(0x40)\n      0x08c379a000000000000000000000000000000000000000000000000000000000\n      dup2\n      mstore\n      0x04\n      add\n      tag_103\n      swap1\n      tag_72\n      jump\t// in\n    tag_103:\n      mload(0x40)\n      dup1\n      swap2\n      sub\n      swap1\n      revert\n    tag_102:\n        /* \"smartAuction2.0.sol\":1210:1233  Auction_state.Cancelled */\n      0x03\n        /* \"smartAuction2.0.sol\":1195:1207  auctionState */\n      dup1\n      0x00\n        /* \"smartAuction2.0.sol\":1195:1233  auctionState = Auction_state.Cancelled */\n      0x0100\n      exp\n      dup2\n      sload\n      dup2\n      0xff\n      mul\n      not\n      and\n      swap1\n      dup4\n      0x03\n      dup2\n      gt\n      iszero\n      tag_105\n      jumpi\n      tag_106\n      tag_84\n      jump\t// in\n    tag_106:\n    tag_105:\n      mul\n      or\n      swap1\n      sstore\n      pop\n        /* \"smartAuction2.0.sol\":1147:1241  function cancelAuction() public Owner{... */\n      jump\t// out\n        /* \"smartAuction2.0.sol\":385:422  address payable public highest_bidder */\n    tag_53:\n      0x07\n      0x00\n      swap1\n      sload\n      swap1\n      0x0100\n      exp\n      swap1\n      div\n      0xffffffffffffffffffffffffffffffffffffffff\n      and\n      dup2\n      jump\t// out\n        /* \"smartAuction2.0.sol\":293:316  uint public highest_bid */\n    tag_57:\n      sload(0x04)\n      dup2\n      jump\t// out\n        /* \"smartAuction2.0.sol\":359:378  uint public bid_inc */\n    tag_61:\n      sload(0x06)\n      dup2\n      jump\t// out\n        /* \"smartAuction2.0.sol\":2131:3141  function finalizeAuction() public {... */\n    tag_65:\n        /* \"smartAuction2.0.sol\":2199:2222  Auction_state.Cancelled */\n      0x03\n        /* \"smartAuction2.0.sol\":2183:2222  auctionState == Auction_state.Cancelled */\n      dup1\n      dup2\n      gt\n      iszero\n      tag_108\n      jumpi\n      tag_109\n      tag_84\n      jump\t// in\n    tag_109:\n    tag_108:\n        /* \"smartAuction2.0.sol\":2183:2195  auctionState */\n      0x03\n      0x00\n      swap1\n      sload\n      swap1\n      0x0100\n      exp\n      swap1\n      div\n      0xff\n      and\n        /* \"smartAuction2.0.sol\":2183:2222  auctionState == Auction_state.Cancelled */\n      0x03\n      dup2\n      gt\n      iszero\n      tag_110\n      jumpi\n      tag_111\n      tag_84\n      jump\t// in\n    tag_111:\n    tag_110:\n      eq\n        /* \"smartAuction2.0.sol\":2183:2261  auctionState == Auction_state.Cancelled || auctionState == Auction_state.Ended */\n      dup1\n      tag_112\n      jumpi\n      pop\n        /* \"smartAuction2.0.sol\":2242:2261  Auction_state.Ended */\n      0x02\n        /* \"smartAuction2.0.sol\":2226:2261  auctionState == Auction_state.Ended */\n      0x03\n      dup2\n      gt\n      iszero\n      tag_113\n      jumpi\n      tag_114\n      tag_84\n      jump\t// in\n    tag_114:\n    tag_113:\n        /* \"smartAuction2.0.sol\":2226:2238  auctionState */\n      0x03\n      0x00\n      swap1\n      sload\n      swap1\n      0x0100\n      exp\n      swap1\n      div\n      0xff\n      and\n        /* \"smartAuction2.0.sol\":2226:2261  auctionState == Auction_state.Ended */\n      0x03\n      dup2\n      gt\n      iszero\n      tag_115\n      jumpi\n      tag_116\n      tag_84\n      jump\t// in\n    tag_116:\n    tag_115:\n      eq\n        /* \"smartAuction2.0.sol\":2183:2261  auctionState == Auction_state.Cancelled || auctionState == Auction_state.Ended */\n    tag_112:\n        /* \"smartAuction2.0.sol\":2183:2288  auctionState == Auction_state.Cancelled || auctionState == Auction_state.Ended || block.number > endBlock */\n      dup1\n      tag_117\n      jumpi\n      pop\n        /* \"smartAuction2.0.sol\":2280:2288  endBlock */\n      sload(0x02)\n        /* \"smartAuction2.0.sol\":2265:2277  block.number */\n      number\n        /* \"smartAuction2.0.sol\":2265:2288  block.number > endBlock */\n      gt\n        /* \"smartAuction2.0.sol\":2183:2288  auctionState == Auction_state.Cancelled || auctionState == Auction_state.Ended || block.number > endBlock */\n    tag_117:\n        /* \"smartAuction2.0.sol\":2175:2289  require(auctionState == Auction_state.Cancelled || auctionState == Auction_state.Ended || block.number > endBlock) */\n      tag_118\n      jumpi\n      0x00\n      dup1\n      revert\n    tag_118:\n        /* \"smartAuction2.0.sol\":2321:2331  auctioneer */\n      0x00\n      dup1\n      sload\n      swap1\n      0x0100\n      exp\n      swap1\n      div\n      0xffffffffffffffffffffffffffffffffffffffff\n      and\n        /* \"smartAuction2.0.sol\":2307:2331  msg.sender == auctioneer */\n      0xffffffffffffffffffffffffffffffffffffffff\n      and\n        /* \"smartAuction2.0.sol\":2307:2317  msg.sender */\n      caller\n        /* \"smartAuction2.0.sol\":2307:2331  msg.sender == auctioneer */\n      0xffffffffffffffffffffffffffffffffffffffff\n      and\n      eq\n        /* \"smartAuction2.0.sol\":2307:2355  msg.sender == auctioneer || bids[msg.sender] > 0 */\n      dup1\n      tag_119\n      jumpi\n      pop\n        /* \"smartAuction2.0.sol\":2354:2355  0 */\n      0x00\n        /* \"smartAuction2.0.sol\":2335:2339  bids */\n      0x08\n        /* \"smartAuction2.0.sol\":2335:2351  bids[msg.sender] */\n      0x00\n        /* \"smartAuction2.0.sol\":2340:2350  msg.sender */\n      caller\n        /* \"smartAuction2.0.sol\":2335:2351  bids[msg.sender] */\n      0xffffffffffffffffffffffffffffffffffffffff\n      and\n      0xffffffffffffffffffffffffffffffffffffffff\n      and\n      dup2\n      mstore\n      0x20\n      add\n      swap1\n      dup2\n      mstore\n      0x20\n      add\n      0x00\n      keccak256\n      sload\n        /* \"smartAuction2.0.sol\":2335:2355  bids[msg.sender] > 0 */\n      gt\n        /* \"smartAuction2.0.sol\":2307:2355  msg.sender == auctioneer || bids[msg.sender] > 0 */\n    tag_119:\n        /* \"smartAuction2.0.sol\":2299:2356  require(msg.sender == auctioneer || bids[msg.sender] > 0) */\n      tag_120\n      jumpi\n      0x00\n      dup1\n      revert\n    tag_120:\n        /* \"smartAuction2.0.sol\":2368:2390  address payable person */\n      0x00\n        /* \"smartAuction2.0.sol\":2401:2411  uint value */\n      dup1\n        /* \"smartAuction2.0.sol\":2441:2464  Auction_state.Cancelled */\n      0x03\n        /* \"smartAuction2.0.sol\":2425:2464  auctionState == Auction_state.Cancelled */\n      dup1\n      dup2\n      gt\n      iszero\n      tag_121\n      jumpi\n      tag_122\n      tag_84\n      jump\t// in\n    tag_122:\n    tag_121:\n        /* \"smartAuction2.0.sol\":2425:2437  auctionState */\n      0x03\n      0x00\n      swap1\n      sload\n      swap1\n      0x0100\n      exp\n      swap1\n      div\n      0xff\n      and\n        /* \"smartAuction2.0.sol\":2425:2464  auctionState == Auction_state.Cancelled */\n      0x03\n      dup2\n      gt\n      iszero\n      tag_123\n      jumpi\n      tag_124\n      tag_84\n      jump\t// in\n    tag_124:\n    tag_123:\n      eq\n        /* \"smartAuction2.0.sol\":2422:3072  if(auctionState == Auction_state.Cancelled){... */\n      iszero\n      tag_125\n      jumpi\n        /* \"smartAuction2.0.sol\":2496:2506  msg.sender */\n      caller\n        /* \"smartAuction2.0.sol\":2479:2507  person = payable(msg.sender) */\n      swap2\n      pop\n        /* \"smartAuction2.0.sol\":2529:2533  bids */\n      0x08\n        /* \"smartAuction2.0.sol\":2529:2545  bids[msg.sender] */\n      0x00\n        /* \"smartAuction2.0.sol\":2534:2544  msg.sender */\n      caller\n        /* \"smartAuction2.0.sol\":2529:2545  bids[msg.sender] */\n      0xffffffffffffffffffffffffffffffffffffffff\n      and\n      0xffffffffffffffffffffffffffffffffffffffff\n      and\n      dup2\n      mstore\n      0x20\n      add\n      swap1\n      dup2\n      mstore\n      0x20\n      add\n      0x00\n      keccak256\n      sload\n        /* \"smartAuction2.0.sol\":2521:2545  value = bids[msg.sender] */\n      swap1\n      pop\n        /* \"smartAuction2.0.sol\":2422:3072  if(auctionState == Auction_state.Cancelled){... */\n      jump(tag_126)\n    tag_125:\n        /* \"smartAuction2.0.sol\":2601:2611  auctioneer */\n      0x00\n      dup1\n      sload\n      swap1\n      0x0100\n      exp\n      swap1\n      div\n      0xffffffffffffffffffffffffffffffffffffffff\n      and\n        /* \"smartAuction2.0.sol\":2587:2611  msg.sender == auctioneer */\n      0xffffffffffffffffffffffffffffffffffffffff\n      and\n        /* \"smartAuction2.0.sol\":2587:2597  msg.sender */\n      caller\n        /* \"smartAuction2.0.sol\":2587:2611  msg.sender == auctioneer */\n      0xffffffffffffffffffffffffffffffffffffffff\n      and\n      eq\n        /* \"smartAuction2.0.sol\":2584:3062  if(msg.sender == auctioneer){... */\n      iszero\n      tag_127\n      jumpi\n        /* \"smartAuction2.0.sol\":2639:2649  auctioneer */\n      0x00\n      dup1\n      sload\n      swap1\n      0x0100\n      exp\n      swap1\n      div\n      0xffffffffffffffffffffffffffffffffffffffff\n      and\n        /* \"smartAuction2.0.sol\":2630:2649  person = auctioneer */\n      swap2\n      pop\n        /* \"smartAuction2.0.sol\":2675:2694  highest_payable_bid */\n      sload(0x05)\n        /* \"smartAuction2.0.sol\":2667:2694  value = highest_payable_bid */\n      swap1\n      pop\n        /* \"smartAuction2.0.sol\":2584:3062  if(msg.sender == auctioneer){... */\n      jump(tag_128)\n    tag_127:\n        /* \"smartAuction2.0.sol\":2761:2775  highest_bidder */\n      0x07\n      0x00\n      swap1\n      sload\n      swap1\n      0x0100\n      exp\n      swap1\n      div\n      0xffffffffffffffffffffffffffffffffffffffff\n      and\n        /* \"smartAuction2.0.sol\":2747:2775  msg.sender == highest_bidder */\n      0xffffffffffffffffffffffffffffffffffffffff\n      and\n        /* \"smartAuction2.0.sol\":2747:2757  msg.sender */\n      caller\n        /* \"smartAuction2.0.sol\":2747:2775  msg.sender == highest_bidder */\n      0xffffffffffffffffffffffffffffffffffffffff\n      and\n      eq\n        /* \"smartAuction2.0.sol\":2744:3048  if(msg.sender == highest_bidder){... */\n      iszero\n      tag_129\n      jumpi\n        /* \"smartAuction2.0.sol\":2807:2821  highest_bidder */\n      0x07\n      0x00\n      swap1\n      sload\n      swap1\n      0x0100\n      exp\n      swap1\n      div\n      0xffffffffffffffffffffffffffffffffffffffff\n      and\n        /* \"smartAuction2.0.sol\":2798:2821  person = highest_bidder */\n      swap2\n      pop\n        /* \"smartAuction2.0.sol\":2874:2893  highest_payable_bid */\n      sload(0x05)\n        /* \"smartAuction2.0.sol\":2851:2855  bids */\n      0x08\n        /* \"smartAuction2.0.sol\":2851:2871  bids[highest_bidder] */\n      0x00\n        /* \"smartAuction2.0.sol\":2856:2870  highest_bidder */\n      0x07\n      0x00\n      swap1\n      sload\n      swap1\n      0x0100\n      exp\n      swap1\n      div\n      0xffffffffffffffffffffffffffffffffffffffff\n      and\n        /* \"smartAuction2.0.sol\":2851:2871  bids[highest_bidder] */\n      0xffffffffffffffffffffffffffffffffffffffff\n      and\n      0xffffffffffffffffffffffffffffffffffffffff\n      and\n      dup2\n      mstore\n      0x20\n      add\n      swap1\n      dup2\n      mstore\n      0x20\n      add\n      0x00\n      keccak256\n      sload\n        /* \"smartAuction2.0.sol\":2851:2893  bids[highest_bidder] - highest_payable_bid */\n      tag_130\n      swap2\n      swap1\n      tag_131\n      jump\t// in\n    tag_130:\n        /* \"smartAuction2.0.sol\":2843:2893  value = bids[highest_bidder] - highest_payable_bid */\n      swap1\n      pop\n        /* \"smartAuction2.0.sol\":2744:3048  if(msg.sender == highest_bidder){... */\n      jump(tag_132)\n    tag_129:\n        /* \"smartAuction2.0.sol\":2972:2982  msg.sender */\n      caller\n        /* \"smartAuction2.0.sol\":2955:2983  person = payable(msg.sender) */\n      swap2\n      pop\n        /* \"smartAuction2.0.sol\":3013:3017  bids */\n      0x08\n        /* \"smartAuction2.0.sol\":3013:3029  bids[msg.sender] */\n      0x00\n        /* \"smartAuction2.0.sol\":3018:3028  msg.sender */\n      caller\n        /* \"smartAuction2.0.sol\":3013:3029  bids[msg.sender] */\n      0xffffffffffffffffffffffffffffffffffffffff\n      and\n      0xffffffffffffffffffffffffffffffffffffffff\n      and\n      dup2\n      mstore\n      0x20\n      add\n      swap1\n      dup2\n      mstore\n      0x20\n      add\n      0x00\n      keccak256\n      sload\n        /* \"smartAuction2.0.sol\":3005:3029  value = bids[msg.sender] */\n      swap1\n      pop\n        /* \"smartAuction2.0.sol\":2744:3048  if(msg.sender == highest_bidder){... */\n    tag_132:\n        /* \"smartAuction2.0.sol\":2584:3062  if(msg.sender == auctioneer){... */\n    tag_128:\n        /* \"smartAuction2.0.sol\":2422:3072  if(auctionState == Auction_state.Cancelled){... */\n    tag_126:\n        /* \"smartAuction2.0.sol\":3100:3101  0 */\n      0x00\n        /* \"smartAuction2.0.sol\":3081:3085  bids */\n      0x08\n        /* \"smartAuction2.0.sol\":3081:3097  bids[msg.sender] */\n      0x00\n        /* \"smartAuction2.0.sol\":3086:3096  msg.sender */\n      caller\n        /* \"smartAuction2.0.sol\":3081:3097  bids[msg.sender] */\n      0xffffffffffffffffffffffffffffffffffffffff\n      and\n      0xffffffffffffffffffffffffffffffffffffffff\n      and\n      dup2\n      mstore\n      0x20\n      add\n      swap1\n      dup2\n      mstore\n      0x20\n      add\n      0x00\n      keccak256\n        /* \"smartAuction2.0.sol\":3081:3101  bids[msg.sender] = 0 */\n      dup2\n      swap1\n      sstore\n      pop\n        /* \"smartAuction2.0.sol\":3111:3117  person */\n      dup2\n        /* \"smartAuction2.0.sol\":3111:3126  person.transfer */\n      0xffffffffffffffffffffffffffffffffffffffff\n      and\n        /* \"smartAuction2.0.sol\":3111:3133  person.transfer(value) */\n      0x08fc\n        /* \"smartAuction2.0.sol\":3127:3132  value */\n      dup3\n        /* \"smartAuction2.0.sol\":3111:3133  person.transfer(value) */\n      swap1\n      dup2\n      iszero\n      mul\n      swap1\n      mload(0x40)\n      0x00\n      mload(0x40)\n      dup1\n      dup4\n      sub\n      dup2\n      dup6\n      dup9\n      dup9\n      call\n      swap4\n      pop\n      pop\n      pop\n      pop\n      iszero\n      dup1\n      iszero\n      tag_134\n      jumpi\n      returndatasize\n      0x00\n      dup1\n      returndatacopy\n      revert(0x00, returndatasize)\n    tag_134:\n      pop\n        /* \"smartAuction2.0.sol\":2165:3141  {... */\n      pop\n      pop\n        /* \"smartAuction2.0.sol\":2131:3141  function finalizeAuction() public {... */\n      jump\t// out\n        /* \"smartAuction2.0.sol\":1247:1334  function endAuction() public Owner{... */\n    tag_68:\n        /* \"smartAuction2.0.sol\":852:862  auctioneer */\n      0x00\n      dup1\n      sload\n      swap1\n      0x0100\n      exp\n      swap1\n      div\n      0xffffffffffffffffffffffffffffffffffffffff\n      and\n        /* \"smartAuction2.0.sol\":838:862  msg.sender == auctioneer */\n      0xffffffffffffffffffffffffffffffffffffffff\n      and\n        /* \"smartAuction2.0.sol\":838:848  msg.sender */\n      caller\n        /* \"smartAuction2.0.sol\":838:862  msg.sender == auctioneer */\n      0xffffffffffffffffffffffffffffffffffffffff\n      and\n      eq\n        /* \"smartAuction2.0.sol\":830:883  require(msg.sender == auctioneer, \"Owner Cannot bid\") */\n      tag_136\n      jumpi\n      mload(0x40)\n      0x08c379a000000000000000000000000000000000000000000000000000000000\n      dup2\n      mstore\n      0x04\n      add\n      tag_137\n      swap1\n      tag_72\n      jump\t// in\n    tag_137:\n      mload(0x40)\n      dup1\n      swap2\n      sub\n      swap1\n      revert\n    tag_136:\n        /* \"smartAuction2.0.sol\":1307:1326  Auction_state.Ended */\n      0x02\n        /* \"smartAuction2.0.sol\":1292:1304  auctionState */\n      0x03\n      0x00\n        /* \"smartAuction2.0.sol\":1292:1326  auctionState = Auction_state.Ended */\n      0x0100\n      exp\n      dup2\n      sload\n      dup2\n      0xff\n      mul\n      not\n      and\n      swap1\n      dup4\n      0x03\n      dup2\n      gt\n      iszero\n      tag_139\n      jumpi\n      tag_140\n      tag_84\n      jump\t// in\n    tag_140:\n    tag_139:\n      mul\n      or\n      swap1\n      sstore\n      pop\n        /* \"smartAuction2.0.sol\":1247:1334  function endAuction() public Owner{... */\n      jump\t// out\n        /* \"smartAuction2.0.sol\":1340:1480  function min(uint _x , uint _y) private pure returns(uint){... */\n    tag_97:\n        /* \"smartAuction2.0.sol\":1393:1397  uint */\n      0x00\n        /* \"smartAuction2.0.sol\":1418:1420  _y */\n      dup2\n        /* \"smartAuction2.0.sol\":1412:1414  _x */\n      dup4\n        /* \"smartAuction2.0.sol\":1412:1420  _x <= _y */\n      gt\n        /* \"smartAuction2.0.sol\":1409:1455  if(_x <= _y){... */\n      tag_142\n      jumpi\n        /* \"smartAuction2.0.sol\":1442:1444  _x */\n      dup3\n        /* \"smartAuction2.0.sol\":1435:1444  return _x */\n      swap1\n      pop\n      jump(tag_141)\n        /* \"smartAuction2.0.sol\":1409:1455  if(_x <= _y){... */\n    tag_142:\n        /* \"smartAuction2.0.sol\":1471:1473  _y */\n      dup2\n        /* \"smartAuction2.0.sol\":1464:1473  return _y */\n      swap1\n      pop\n        /* \"smartAuction2.0.sol\":1340:1480  function min(uint _x , uint _y) private pure returns(uint){... */\n    tag_141:\n      swap3\n      swap2\n      pop\n      pop\n      jump\t// out\n        /* \"#utility.yul\":7:146   */\n    tag_144:\n        /* \"#utility.yul\":53:58   */\n      0x00\n        /* \"#utility.yul\":91:97   */\n      dup2\n        /* \"#utility.yul\":78:98   */\n      calldataload\n        /* \"#utility.yul\":69:98   */\n      swap1\n      pop\n        /* \"#utility.yul\":107:140   */\n      tag_146\n        /* \"#utility.yul\":134:139   */\n      dup2\n        /* \"#utility.yul\":107:140   */\n      tag_147\n      jump\t// in\n    tag_146:\n        /* \"#utility.yul\":7:146   */\n      swap3\n      swap2\n      pop\n      pop\n      jump\t// out\n        /* \"#utility.yul\":152:481   */\n    tag_36:\n        /* \"#utility.yul\":211:217   */\n      0x00\n        /* \"#utility.yul\":260:262   */\n      0x20\n        /* \"#utility.yul\":248:257   */\n      dup3\n        /* \"#utility.yul\":239:246   */\n      dup5\n        /* \"#utility.yul\":235:258   */\n      sub\n        /* \"#utility.yul\":231:263   */\n      slt\n        /* \"#utility.yul\":228:347   */\n      iszero\n      tag_149\n      jumpi\n        /* \"#utility.yul\":266:345   */\n      tag_150\n      tag_151\n      jump\t// in\n    tag_150:\n        /* \"#utility.yul\":228:347   */\n    tag_149:\n        /* \"#utility.yul\":386:387   */\n      0x00\n        /* \"#utility.yul\":411:464   */\n      tag_152\n        /* \"#utility.yul\":456:463   */\n      dup5\n        /* \"#utility.yul\":447:453   */\n      dup3\n        /* \"#utility.yul\":436:445   */\n      dup6\n        /* \"#utility.yul\":432:454   */\n      add\n        /* \"#utility.yul\":411:464   */\n      tag_144\n      jump\t// in\n    tag_152:\n        /* \"#utility.yul\":401:464   */\n      swap2\n      pop\n        /* \"#utility.yul\":357:474   */\n      pop\n        /* \"#utility.yul\":152:481   */\n      swap3\n      swap2\n      pop\n      pop\n      jump\t// out\n        /* \"#utility.yul\":487:629   */\n    tag_153:\n        /* \"#utility.yul\":590:622   */\n      tag_155\n        /* \"#utility.yul\":616:621   */\n      dup2\n        /* \"#utility.yul\":590:622   */\n      tag_156\n      jump\t// in\n    tag_155:\n        /* \"#utility.yul\":585:588   */\n      dup3\n        /* \"#utility.yul\":578:623   */\n      mstore\n        /* \"#utility.yul\":487:629   */\n      pop\n      pop\n      jump\t// out\n        /* \"#utility.yul\":635:794   */\n    tag_157:\n        /* \"#utility.yul\":736:787   */\n      tag_159\n        /* \"#utility.yul\":781:786   */\n      dup2\n        /* \"#utility.yul\":736:787   */\n      tag_160\n      jump\t// in\n    tag_159:\n        /* \"#utility.yul\":731:734   */\n      dup3\n        /* \"#utility.yul\":724:788   */\n      mstore\n        /* \"#utility.yul\":635:794   */\n      pop\n      pop\n      jump\t// out\n        /* \"#utility.yul\":800:1166   */\n    tag_161:\n        /* \"#utility.yul\":942:945   */\n      0x00\n        /* \"#utility.yul\":963:1030   */\n      tag_163\n        /* \"#utility.yul\":1027:1029   */\n      0x10\n        /* \"#utility.yul\":1022:1025   */\n      dup4\n        /* \"#utility.yul\":963:1030   */\n      tag_164\n      jump\t// in\n    tag_163:\n        /* \"#utility.yul\":956:1030   */\n      swap2\n      pop\n        /* \"#utility.yul\":1039:1132   */\n      tag_165\n        /* \"#utility.yul\":1128:1131   */\n      dup3\n        /* \"#utility.yul\":1039:1132   */\n      tag_166\n      jump\t// in\n    tag_165:\n        /* \"#utility.yul\":1157:1159   */\n      0x20\n        /* \"#utility.yul\":1152:1155   */\n      dup3\n        /* \"#utility.yul\":1148:1160   */\n      add\n        /* \"#utility.yul\":1141:1160   */\n      swap1\n      pop\n        /* \"#utility.yul\":800:1166   */\n      swap2\n      swap1\n      pop\n      jump\t// out\n        /* \"#utility.yul\":1172:1538   */\n    tag_167:\n        /* \"#utility.yul\":1314:1317   */\n      0x00\n        /* \"#utility.yul\":1335:1402   */\n      tag_169\n        /* \"#utility.yul\":1399:1401   */\n      0x2c\n        /* \"#utility.yul\":1394:1397   */\n      dup4\n        /* \"#utility.yul\":1335:1402   */\n      tag_164\n      jump\t// in\n    tag_169:\n        /* \"#utility.yul\":1328:1402   */\n      swap2\n      pop\n        /* \"#utility.yul\":1411:1504   */\n      tag_170\n        /* \"#utility.yul\":1500:1503   */\n      dup3\n        /* \"#utility.yul\":1411:1504   */\n      tag_171\n      jump\t// in\n    tag_170:\n        /* \"#utility.yul\":1529:1531   */\n      0x40\n        /* \"#utility.yul\":1524:1527   */\n      dup3\n        /* \"#utility.yul\":1520:1532   */\n      add\n        /* \"#utility.yul\":1513:1532   */\n      swap1\n      pop\n        /* \"#utility.yul\":1172:1538   */\n      swap2\n      swap1\n      pop\n      jump\t// out\n        /* \"#utility.yul\":1544:1910   */\n    tag_172:\n        /* \"#utility.yul\":1686:1689   */\n      0x00\n        /* \"#utility.yul\":1707:1774   */\n      tag_174\n        /* \"#utility.yul\":1771:1773   */\n      0x18\n        /* \"#utility.yul\":1766:1769   */\n      dup4\n        /* \"#utility.yul\":1707:1774   */\n      tag_164\n      jump\t// in\n    tag_174:\n        /* \"#utility.yul\":1700:1774   */\n      swap2\n      pop\n        /* \"#utility.yul\":1783:1876   */\n      tag_175\n        /* \"#utility.yul\":1872:1875   */\n      dup3\n        /* \"#utility.yul\":1783:1876   */\n      tag_176\n      jump\t// in\n    tag_175:\n        /* \"#utility.yul\":1901:1903   */\n      0x20\n        /* \"#utility.yul\":1896:1899   */\n      dup3\n        /* \"#utility.yul\":1892:1904   */\n      add\n        /* \"#utility.yul\":1885:1904   */\n      swap1\n      pop\n        /* \"#utility.yul\":1544:1910   */\n      swap2\n      swap1\n      pop\n      jump\t// out\n        /* \"#utility.yul\":1916:2282   */\n    tag_177:\n        /* \"#utility.yul\":2058:2061   */\n      0x00\n        /* \"#utility.yul\":2079:2146   */\n      tag_179\n        /* \"#utility.yul\":2143:2145   */\n      0x1b\n        /* \"#utility.yul\":2138:2141   */\n      dup4\n        /* \"#utility.yul\":2079:2146   */\n      tag_164\n      jump\t// in\n    tag_179:\n        /* \"#utility.yul\":2072:2146   */\n      swap2\n      pop\n        /* \"#utility.yul\":2155:2248   */\n      tag_180\n        /* \"#utility.yul\":2244:2247   */\n      dup3\n        /* \"#utility.yul\":2155:2248   */\n      tag_181\n      jump\t// in\n    tag_180:\n        /* \"#utility.yul\":2273:2275   */\n      0x20\n        /* \"#utility.yul\":2268:2271   */\n      dup3\n        /* \"#utility.yul\":2264:2276   */\n      add\n        /* \"#utility.yul\":2257:2276   */\n      swap1\n      pop\n        /* \"#utility.yul\":1916:2282   */\n      swap2\n      swap1\n      pop\n      jump\t// out\n        /* \"#utility.yul\":2288:2406   */\n    tag_182:\n        /* \"#utility.yul\":2375:2399   */\n      tag_184\n        /* \"#utility.yul\":2393:2398   */\n      dup2\n        /* \"#utility.yul\":2375:2399   */\n      tag_185\n      jump\t// in\n    tag_184:\n        /* \"#utility.yul\":2370:2373   */\n      dup3\n        /* \"#utility.yul\":2363:2400   */\n      mstore\n        /* \"#utility.yul\":2288:2406   */\n      pop\n      pop\n      jump\t// out\n        /* \"#utility.yul\":2412:2666   */\n    tag_32:\n        /* \"#utility.yul\":2521:2525   */\n      0x00\n        /* \"#utility.yul\":2559:2561   */\n      0x20\n        /* \"#utility.yul\":2548:2557   */\n      dup3\n        /* \"#utility.yul\":2544:2562   */\n      add\n        /* \"#utility.yul\":2536:2562   */\n      swap1\n      pop\n        /* \"#utility.yul\":2572:2659   */\n      tag_187\n        /* \"#utility.yul\":2656:2657   */\n      0x00\n        /* \"#utility.yul\":2645:2654   */\n      dup4\n        /* \"#utility.yul\":2641:2658   */\n      add\n        /* \"#utility.yul\":2632:2638   */\n      dup5\n        /* \"#utility.yul\":2572:2659   */\n      tag_153\n      jump\t// in\n    tag_187:\n        /* \"#utility.yul\":2412:2666   */\n      swap3\n      swap2\n      pop\n      pop\n      jump\t// out\n        /* \"#utility.yul\":2672:2922   */\n    tag_47:\n        /* \"#utility.yul\":2779:2783   */\n      0x00\n        /* \"#utility.yul\":2817:2819   */\n      0x20\n        /* \"#utility.yul\":2806:2815   */\n      dup3\n        /* \"#utility.yul\":2802:2820   */\n      add\n        /* \"#utility.yul\":2794:2820   */\n      swap1\n      pop\n        /* \"#utility.yul\":2830:2915   */\n      tag_189\n        /* \"#utility.yul\":2912:2913   */\n      0x00\n        /* \"#utility.yul\":2901:2910   */\n      dup4\n        /* \"#utility.yul\":2897:2914   */\n      add\n        /* \"#utility.yul\":2888:2894   */\n      dup5\n        /* \"#utility.yul\":2830:2915   */\n      tag_157\n      jump\t// in\n    tag_189:\n        /* \"#utility.yul\":2672:2922   */\n      swap3\n      swap2\n      pop\n      pop\n      jump\t// out\n        /* \"#utility.yul\":2928:3347   */\n    tag_72:\n        /* \"#utility.yul\":3094:3098   */\n      0x00\n        /* \"#utility.yul\":3132:3134   */\n      0x20\n        /* \"#utility.yul\":3121:3130   */\n      dup3\n        /* \"#utility.yul\":3117:3135   */\n      add\n        /* \"#utility.yul\":3109:3135   */\n      swap1\n      pop\n        /* \"#utility.yul\":3181:3190   */\n      dup2\n        /* \"#utility.yul\":3175:3179   */\n      dup2\n        /* \"#utility.yul\":3171:3191   */\n      sub\n        /* \"#utility.yul\":3167:3168   */\n      0x00\n        /* \"#utility.yul\":3156:3165   */\n      dup4\n        /* \"#utility.yul\":3152:3169   */\n      add\n        /* \"#utility.yul\":3145:3192   */\n      mstore\n        /* \"#utility.yul\":3209:3340   */\n      tag_191\n        /* \"#utility.yul\":3335:3339   */\n      dup2\n        /* \"#utility.yul\":3209:3340   */\n      tag_161\n      jump\t// in\n    tag_191:\n        /* \"#utility.yul\":3201:3340   */\n      swap1\n      pop\n        /* \"#utility.yul\":2928:3347   */\n      swap2\n      swap1\n      pop\n      jump\t// out\n        /* \"#utility.yul\":3353:3772   */\n    tag_76:\n        /* \"#utility.yul\":3519:3523   */\n      0x00\n        /* \"#utility.yul\":3557:3559   */\n      0x20\n        /* \"#utility.yul\":3546:3555   */\n      dup3\n        /* \"#utility.yul\":3542:3560   */\n      add\n        /* \"#utility.yul\":3534:3560   */\n      swap1\n      pop\n        /* \"#utility.yul\":3606:3615   */\n      dup2\n        /* \"#utility.yul\":3600:3604   */\n      dup2\n        /* \"#utility.yul\":3596:3616   */\n      sub\n        /* \"#utility.yul\":3592:3593   */\n      0x00\n        /* \"#utility.yul\":3581:3590   */\n      dup4\n        /* \"#utility.yul\":3577:3594   */\n      add\n        /* \"#utility.yul\":3570:3617   */\n      mstore\n        /* \"#utility.yul\":3634:3765   */\n      tag_193\n        /* \"#utility.yul\":3760:3764   */\n      dup2\n        /* \"#utility.yul\":3634:3765   */\n      tag_167\n      jump\t// in\n    tag_193:\n        /* \"#utility.yul\":3626:3765   */\n      swap1\n      pop\n        /* \"#utility.yul\":3353:3772   */\n      swap2\n      swap1\n      pop\n      jump\t// out\n        /* \"#utility.yul\":3778:4197   */\n    tag_80:\n        /* \"#utility.yul\":3944:3948   */\n      0x00\n        /* \"#utility.yul\":3982:3984   */\n      0x20\n        /* \"#utility.yul\":3971:3980   */\n      dup3\n        /* \"#utility.yul\":3967:3985   */\n      add\n        /* \"#utility.yul\":3959:3985   */\n      swap1\n      pop\n        /* \"#utility.yul\":4031:4040   */\n      dup2\n        /* \"#utility.yul\":4025:4029   */\n      dup2\n        /* \"#utility.yul\":4021:4041   */\n      sub\n        /* \"#utility.yul\":4017:4018   */\n      0x00\n        /* \"#utility.yul\":4006:4015   */\n      dup4\n        /* \"#utility.yul\":4002:4019   */\n      add\n        /* \"#utility.yul\":3995:4042   */\n      mstore\n        /* \"#utility.yul\":4059:4190   */\n      tag_195\n        /* \"#utility.yul\":4185:4189   */\n      dup2\n        /* \"#utility.yul\":4059:4190   */\n      tag_172\n      jump\t// in\n    tag_195:\n        /* \"#utility.yul\":4051:4190   */\n      swap1\n      pop\n        /* \"#utility.yul\":3778:4197   */\n      swap2\n      swap1\n      pop\n      jump\t// out\n        /* \"#utility.yul\":4203:4622   */\n    tag_93:\n        /* \"#utility.yul\":4369:4373   */\n      0x00\n        /* \"#utility.yul\":4407:4409   */\n      0x20\n        /* \"#utility.yul\":4396:4405   */\n      dup3\n        /* \"#utility.yul\":4392:4410   */\n      add\n        /* \"#utility.yul\":4384:4410   */\n      swap1\n      pop\n        /* \"#utility.yul\":4456:4465   */\n      dup2\n        /* \"#utility.yul\":4450:4454   */\n      dup2\n        /* \"#utility.yul\":4446:4466   */\n      sub\n        /* \"#utility.yul\":4442:4443   */\n      0x00\n        /* \"#utility.yul\":4431:4440   */\n      dup4\n        /* \"#utility.yul\":4427:4444   */\n      add\n        /* \"#utility.yul\":4420:4467   */\n      mstore\n        /* \"#utility.yul\":4484:4615   */\n      tag_197\n        /* \"#utility.yul\":4610:4614   */\n      dup2\n        /* \"#utility.yul\":4484:4615   */\n      tag_177\n      jump\t// in\n    tag_197:\n        /* \"#utility.yul\":4476:4615   */\n      swap1\n      pop\n        /* \"#utility.yul\":4203:4622   */\n      swap2\n      swap1\n      pop\n      jump\t// out\n        /* \"#utility.yul\":4628:4850   */\n    tag_21:\n        /* \"#utility.yul\":4721:4725   */\n      0x00\n        /* \"#utility.yul\":4759:4761   */\n      0x20\n        /* \"#utility.yul\":4748:4757   */\n      dup3\n        /* \"#utility.yul\":4744:4762   */\n      add\n        /* \"#utility.yul\":4736:4762   */\n      swap1\n      pop\n        /* \"#utility.yul\":4772:4843   */\n      tag_199\n        /* \"#utility.yul\":4840:4841   */\n      0x00\n        /* \"#utility.yul\":4829:4838   */\n      dup4\n        /* \"#utility.yul\":4825:4842   */\n      add\n        /* \"#utility.yul\":4816:4822   */\n      dup5\n        /* \"#utility.yul\":4772:4843   */\n      tag_182\n      jump\t// in\n    tag_199:\n        /* \"#utility.yul\":4628:4850   */\n      swap3\n      swap2\n      pop\n      pop\n      jump\t// out\n        /* \"#utility.yul\":4937:5106   */\n    tag_164:\n        /* \"#utility.yul\":5021:5032   */\n      0x00\n        /* \"#utility.yul\":5055:5061   */\n      dup3\n        /* \"#utility.yul\":5050:5053   */\n      dup3\n        /* \"#utility.yul\":5043:5062   */\n      mstore\n        /* \"#utility.yul\":5095:5099   */\n      0x20\n        /* \"#utility.yul\":5090:5093   */\n      dup3\n        /* \"#utility.yul\":5086:5100   */\n      add\n        /* \"#utility.yul\":5071:5100   */\n      swap1\n      pop\n        /* \"#utility.yul\":4937:5106   */\n      swap3\n      swap2\n      pop\n      pop\n      jump\t// out\n        /* \"#utility.yul\":5112:5417   */\n    tag_90:\n        /* \"#utility.yul\":5152:5155   */\n      0x00\n        /* \"#utility.yul\":5171:5191   */\n      tag_204\n        /* \"#utility.yul\":5189:5190   */\n      dup3\n        /* \"#utility.yul\":5171:5191   */\n      tag_185\n      jump\t// in\n    tag_204:\n        /* \"#utility.yul\":5166:5191   */\n      swap2\n      pop\n        /* \"#utility.yul\":5205:5225   */\n      tag_205\n        /* \"#utility.yul\":5223:5224   */\n      dup4\n        /* \"#utility.yul\":5205:5225   */\n      tag_185\n      jump\t// in\n    tag_205:\n        /* \"#utility.yul\":5200:5225   */\n      swap3\n      pop\n        /* \"#utility.yul\":5359:5360   */\n      dup3\n        /* \"#utility.yul\":5291:5357   */\n      0xffffffffffffffffffffffffffffffffffffffffffffffffffffffffffffffff\n        /* \"#utility.yul\":5287:5361   */\n      sub\n        /* \"#utility.yul\":5284:5285   */\n      dup3\n        /* \"#utility.yul\":5281:5362   */\n      gt\n        /* \"#utility.yul\":5278:5385   */\n      iszero\n      tag_206\n      jumpi\n        /* \"#utility.yul\":5365:5383   */\n      tag_207\n      tag_208\n      jump\t// in\n    tag_207:\n        /* \"#utility.yul\":5278:5385   */\n    tag_206:\n        /* \"#utility.yul\":5409:5410   */\n      dup3\n        /* \"#utility.yul\":5406:5407   */\n      dup3\n        /* \"#utility.yul\":5402:5411   */\n      add\n        /* \"#utility.yul\":5395:5411   */\n      swap1\n      pop\n        /* \"#utility.yul\":5112:5417   */\n      swap3\n      swap2\n      pop\n      pop\n      jump\t// out\n        /* \"#utility.yul\":5423:5614   */\n    tag_131:\n        /* \"#utility.yul\":5463:5467   */\n      0x00\n        /* \"#utility.yul\":5483:5503   */\n      tag_210\n        /* \"#utility.yul\":5501:5502   */\n      dup3\n        /* \"#utility.yul\":5483:5503   */\n      tag_185\n      jump\t// in\n    tag_210:\n        /* \"#utility.yul\":5478:5503   */\n      swap2\n      pop\n        /* \"#utility.yul\":5517:5537   */\n      tag_211\n        /* \"#utility.yul\":5535:5536   */\n      dup4\n        /* \"#utility.yul\":5517:5537   */\n      tag_185\n      jump\t// in\n    tag_211:\n        /* \"#utility.yul\":5512:5537   */\n      swap3\n      pop\n        /* \"#utility.yul\":5556:5557   */\n      dup3\n        /* \"#utility.yul\":5553:5554   */\n      dup3\n        /* \"#utility.yul\":5550:5558   */\n      lt\n        /* \"#utility.yul\":5547:5581   */\n      iszero\n      tag_212\n      jumpi\n        /* \"#utility.yul\":5561:5579   */\n      tag_213\n      tag_208\n      jump\t// in\n    tag_213:\n        /* \"#utility.yul\":5547:5581   */\n    tag_212:\n        /* \"#utility.yul\":5606:5607   */\n      dup3\n        /* \"#utility.yul\":5603:5604   */\n      dup3\n        /* \"#utility.yul\":5599:5608   */\n      sub\n        /* \"#utility.yul\":5591:5608   */\n      swap1\n      pop\n        /* \"#utility.yul\":5423:5614   */\n      swap3\n      swap2\n      pop\n      pop\n      jump\t// out\n        /* \"#utility.yul\":5620:5716   */\n    tag_214:\n        /* \"#utility.yul\":5657:5664   */\n      0x00\n        /* \"#utility.yul\":5686:5710   */\n      tag_216\n        /* \"#utility.yul\":5704:5709   */\n      dup3\n        /* \"#utility.yul\":5686:5710   */\n      tag_217\n      jump\t// in\n    tag_216:\n        /* \"#utility.yul\":5675:5710   */\n      swap1\n      pop\n        /* \"#utility.yul\":5620:5716   */\n      swap2\n      swap1\n      pop\n      jump\t// out\n        /* \"#utility.yul\":5722:5826   */\n    tag_156:\n        /* \"#utility.yul\":5767:5774   */\n      0x00\n        /* \"#utility.yul\":5796:5820   */\n      tag_219\n        /* \"#utility.yul\":5814:5819   */\n      dup3\n        /* \"#utility.yul\":5796:5820   */\n      tag_217\n      jump\t// in\n    tag_219:\n        /* \"#utility.yul\":5785:5820   */\n      swap1\n      pop\n        /* \"#utility.yul\":5722:5826   */\n      swap2\n      swap1\n      pop\n      jump\t// out\n        /* \"#utility.yul\":5832:5975   */\n    tag_220:\n        /* \"#utility.yul\":5885:5892   */\n      0x00\n        /* \"#utility.yul\":5914:5919   */\n      dup2\n        /* \"#utility.yul\":5903:5919   */\n      swap1\n      pop\n        /* \"#utility.yul\":5920:5969   */\n      tag_222\n        /* \"#utility.yul\":5963:5968   */\n      dup3\n        /* \"#utility.yul\":5920:5969   */\n      tag_223\n      jump\t// in\n    tag_222:\n        /* \"#utility.yul\":5832:5975   */\n      swap2\n      swap1\n      pop\n      jump\t// out\n        /* \"#utility.yul\":5981:6107   */\n    tag_217:\n        /* \"#utility.yul\":6018:6025   */\n      0x00\n        /* \"#utility.yul\":6058:6100   */\n      0xffffffffffffffffffffffffffffffffffffffff\n        /* \"#utility.yul\":6051:6056   */\n      dup3\n        /* \"#utility.yul\":6047:6101   */\n      and\n        /* \"#utility.yul\":6036:6101   */\n      swap1\n      pop\n        /* \"#utility.yul\":5981:6107   */\n      swap2\n      swap1\n      pop\n      jump\t// out\n        /* \"#utility.yul\":6113:6190   */\n    tag_185:\n        /* \"#utility.yul\":6150:6157   */\n      0x00\n        /* \"#utility.yul\":6179:6184   */\n      dup2\n        /* \"#utility.yul\":6168:6184   */\n      swap1\n      pop\n        /* \"#utility.yul\":6113:6190   */\n      swap2\n      swap1\n      pop\n      jump\t// out\n        /* \"#utility.yul\":6196:6339   */\n    tag_160:\n        /* \"#utility.yul\":6260:6269   */\n      0x00\n        /* \"#utility.yul\":6293:6333   */\n      tag_227\n        /* \"#utility.yul\":6327:6332   */\n      dup3\n        /* \"#utility.yul\":6293:6333   */\n      tag_220\n      jump\t// in\n    tag_227:\n        /* \"#utility.yul\":6280:6333   */\n      swap1\n      pop\n        /* \"#utility.yul\":6196:6339   */\n      swap2\n      swap1\n      pop\n      jump\t// out\n        /* \"#utility.yul\":6345:6525   */\n    tag_208:\n        /* \"#utility.yul\":6393:6470   */\n      0x4e487b7100000000000000000000000000000000000000000000000000000000\n        /* \"#utility.yul\":6390:6391   */\n      0x00\n        /* \"#utility.yul\":6383:6471   */\n      mstore\n        /* \"#utility.yul\":6490:6494   */\n      0x11\n        /* \"#utility.yul\":6487:6488   */\n      0x04\n        /* \"#utility.yul\":6480:6495   */\n      mstore\n        /* \"#utility.yul\":6514:6518   */\n      0x24\n        /* \"#utility.yul\":6511:6512   */\n      0x00\n        /* \"#utility.yul\":6504:6519   */\n      revert\n        /* \"#utility.yul\":6531:6711   */\n    tag_84:\n        /* \"#utility.yul\":6579:6656   */\n      0x4e487b7100000000000000000000000000000000000000000000000000000000\n        /* \"#utility.yul\":6576:6577   */\n      0x00\n        /* \"#utility.yul\":6569:6657   */\n      mstore\n        /* \"#utility.yul\":6676:6680   */\n      0x21\n        /* \"#utility.yul\":6673:6674   */\n      0x04\n        /* \"#utility.yul\":6666:6681   */\n      mstore\n        /* \"#utility.yul\":6700:6704   */\n      0x24\n        /* \"#utility.yul\":6697:6698   */\n      0x00\n        /* \"#utility.yul\":6690:6705   */\n      revert\n        /* \"#utility.yul\":6840:6957   */\n    tag_151:\n        /* \"#utility.yul\":6949:6950   */\n      0x00\n        /* \"#utility.yul\":6946:6947   */\n      dup1\n        /* \"#utility.yul\":6939:6951   */\n      revert\n        /* \"#utility.yul\":6963:7129   */\n    tag_166:\n        /* \"#utility.yul\":7103:7121   */\n      0x4f776e65722043616e6e6f742062696400000000000000000000000000000000\n        /* \"#utility.yul\":7099:7100   */\n      0x00\n        /* \"#utility.yul\":7091:7097   */\n      dup3\n        /* \"#utility.yul\":7087:7101   */\n      add\n        /* \"#utility.yul\":7080:7122   */\n      mstore\n        /* \"#utility.yul\":6963:7129   */\n      pop\n      jump\t// out\n        /* \"#utility.yul\":7135:7366   */\n    tag_171:\n        /* \"#utility.yul\":7275:7309   */\n      0x537461727420426c6f636b206d7573742062652067726561746572207468616e\n        /* \"#utility.yul\":7271:7272   */\n      0x00\n        /* \"#utility.yul\":7263:7269   */\n      dup3\n        /* \"#utility.yul\":7259:7273   */\n      add\n        /* \"#utility.yul\":7252:7310   */\n      mstore\n        /* \"#utility.yul\":7344:7358   */\n      0x20746f74616c20626c6f636b0000000000000000000000000000000000000000\n        /* \"#utility.yul\":7339:7341   */\n      0x20\n        /* \"#utility.yul\":7331:7337   */\n      dup3\n        /* \"#utility.yul\":7327:7342   */\n      add\n        /* \"#utility.yul\":7320:7359   */\n      mstore\n        /* \"#utility.yul\":7135:7366   */\n      pop\n      jump\t// out\n        /* \"#utility.yul\":7372:7546   */\n    tag_176:\n        /* \"#utility.yul\":7512:7538   */\n      0x41756374696f6e206973206e6f7420456e646564207965740000000000000000\n        /* \"#utility.yul\":7508:7509   */\n      0x00\n        /* \"#utility.yul\":7500:7506   */\n      dup3\n        /* \"#utility.yul\":7496:7510   */\n      add\n        /* \"#utility.yul\":7489:7539   */\n      mstore\n        /* \"#utility.yul\":7372:7546   */\n      pop\n      jump\t// out\n        /* \"#utility.yul\":7552:7729   */\n    tag_181:\n        /* \"#utility.yul\":7692:7721   */\n      0x496e63726561736520596f7520204269642056616c75207468616e0000000000\n        /* \"#utility.yul\":7688:7689   */\n      0x00\n        /* \"#utility.yul\":7680:7686   */\n      dup3\n        /* \"#utility.yul\":7676:7690   */\n      add\n        /* \"#utility.yul\":7669:7722   */\n      mstore\n        /* \"#utility.yul\":7552:7729   */\n      pop\n      jump\t// out\n        /* \"#utility.yul\":7735:7856   */\n    tag_223:\n        /* \"#utility.yul\":7824:7825   */\n      0x04\n        /* \"#utility.yul\":7817:7822   */\n      dup2\n        /* \"#utility.yul\":7814:7826   */\n      lt\n        /* \"#utility.yul\":7804:7850   */\n      tag_238\n      jumpi\n        /* \"#utility.yul\":7830:7848   */\n      tag_239\n      tag_84\n      jump\t// in\n    tag_239:\n        /* \"#utility.yul\":7804:7850   */\n    tag_238:\n        /* \"#utility.yul\":7735:7856   */\n      pop\n      jump\t// out\n        /* \"#utility.yul\":7862:7984   */\n    tag_147:\n        /* \"#utility.yul\":7935:7959   */\n      tag_241\n        /* \"#utility.yul\":7953:7958   */\n      dup2\n        /* \"#utility.yul\":7935:7959   */\n      tag_214\n      jump\t// in\n    tag_241:\n        /* \"#utility.yul\":7928:7933   */\n      dup2\n        /* \"#utility.yul\":7925:7960   */\n      eq\n        /* \"#utility.yul\":7915:7978   */\n      tag_242\n      jumpi\n        /* \"#utility.yul\":7974:7975   */\n      0x00\n        /* \"#utility.yul\":7971:7972   */\n      dup1\n        /* \"#utility.yul\":7964:7976   */\n      revert\n        /* \"#utility.yul\":7915:7978   */\n    tag_242:\n        /* \"#utility.yul\":7862:7984   */\n      pop\n      jump\t// out\n\n    auxdata: 0xa2646970667358221220915cab1de0ab0df5c38141304ad01812b5d712db643e4674fde875f3f949e39464736f6c63430008070033\n}\n",
				"bytecode": {
					"linkReferences": {},
					"object": "608060405234801561001057600080fd5b50336000806101000a81548173ffffffffffffffffffffffffffffffffffffffff021916908373ffffffffffffffffffffffffffffffffffffffff160217905550436001819055506001600360006101000a81548160ff0219169083600381111561007e5761007d61013b565b5b0217905550600a60015461009291906100ac565b600281905550670de0b6b3a764000060068190555061016a565b60006100b782610102565b91506100c283610102565b9250827fffffffffffffffffffffffffffffffffffffffffffffffffffffffffffffffff038211156100f7576100f661010c565b5b828201905092915050565b6000819050919050565b7f4e487b7100000000000000000000000000000000000000000000000000000000600052601160045260246000fd5b7f4e487b7100000000000000000000000000000000000000000000000000000000600052602160045260246000fd5b611125806200017a6000396000f3fe6080604052600436106100c25760003560e01c80637fb450991161007f578063e5c6009111610059578063e5c6009114610227578063f3ef35f814610252578063f77282ab1461027d578063fe67a54b14610294576100c2565b80637fb45099146101ba5780638fa8b790146101e5578063bd9215f4146101fc576100c2565b8063083c6323146100c75780631998aeef146100f257806348cd4cb1146100fc5780635ec2c7bf1461012757806362ea82db146101525780637eb695a11461018f575b600080fd5b3480156100d357600080fd5b506100dc6102ab565b6040516100e99190610e6e565b60405180910390f35b6100fa6102b1565b005b34801561010857600080fd5b506101116106a3565b60405161011e9190610e6e565b60405180910390f35b34801561013357600080fd5b5061013c6106a9565b6040516101499190610db8565b60405180910390f35b34801561015e57600080fd5b5061017960048036038101906101749190610cd2565b6106cd565b6040516101869190610e6e565b60405180910390f35b34801561019b57600080fd5b506101a46106e5565b6040516101b19190610e6e565b60405180910390f35b3480156101c657600080fd5b506101cf6106eb565b6040516101dc9190610dd3565b60405180910390f35b3480156101f157600080fd5b506101fa6106fe565b005b34801561020857600080fd5b506102116107b8565b60405161021e9190610db8565b60405180910390f35b34801561023357600080fd5b5061023c6107de565b6040516102499190610e6e565b60405180910390f35b34801561025e57600080fd5b506102676107e4565b6040516102749190610e6e565b60405180910390f35b34801561028957600080fd5b506102926107ea565b005b3480156102a057600080fd5b506102a9610be7565b005b60025481565b60008054906101000a900473ffffffffffffffffffffffffffffffffffffffff1673ffffffffffffffffffffffffffffffffffffffff163373ffffffffffffffffffffffffffffffffffffffff161415610340576040517f08c379a000000000000000000000000000000000000000000000000000000000815260040161033790610dee565b60405180910390fd5b6001544311610384576040517f08c379a000000000000000000000000000000000000000000000000000000000815260040161037b90610e0e565b60405180910390fd5b60025443106103c8576040517f08c379a00000000000000000000000000000000000000000000000000000000081526004016103bf90610e2e565b60405180910390fd5b600160038111156103dc576103db610fc6565b5b600360009054906101000a900460ff1660038111156103fe576103fd610fc6565b5b1461040857600080fd5b670de0b6b3a764000034101561041d57600080fd5b600034600860003373ffffffffffffffffffffffffffffffffffffffff1673ffffffffffffffffffffffffffffffffffffffff1681526020019081526020016000205461046a9190610e9a565b905060055481116104b0576040517f08c379a00000000000000000000000000000000000000000000000000000000081526004016104a790610e4e565b60405180910390fd5b80600860003373ffffffffffffffffffffffffffffffffffffffff1673ffffffffffffffffffffffffffffffffffffffff1681526020019081526020016000208190555060086000600760009054906101000a900473ffffffffffffffffffffffffffffffffffffffff1673ffffffffffffffffffffffffffffffffffffffff1673ffffffffffffffffffffffffffffffffffffffff168152602001908152602001600020548110156105e0576105d56006548261056e9190610e9a565b60086000600760009054906101000a900473ffffffffffffffffffffffffffffffffffffffff1673ffffffffffffffffffffffffffffffffffffffff1673ffffffffffffffffffffffffffffffffffffffff16815260200190815260200160002054610ca2565b6005819055506106a0565b6106588160065460086000600760009054906101000a900473ffffffffffffffffffffffffffffffffffffffff1673ffffffffffffffffffffffffffffffffffffffff1673ffffffffffffffffffffffffffffffffffffffff168152602001908152602001600020546106539190610e9a565b610ca2565b60058190555033600760006101000a81548173ffffffffffffffffffffffffffffffffffffffff021916908373ffffffffffffffffffffffffffffffffffffffff1602179055505b50565b60015481565b60008054906101000a900473ffffffffffffffffffffffffffffffffffffffff1681565b60086020528060005260406000206000915090505481565b60055481565b600360009054906101000a900460ff1681565b60008054906101000a900473ffffffffffffffffffffffffffffffffffffffff1673ffffffffffffffffffffffffffffffffffffffff163373ffffffffffffffffffffffffffffffffffffffff161461078c576040517f08c379a000000000000000000000000000000000000000000000000000000000815260040161078390610dee565b60405180910390fd5b60038060006101000a81548160ff021916908360038111156107b1576107b0610fc6565b5b0217905550565b600760009054906101000a900473ffffffffffffffffffffffffffffffffffffffff1681565b60045481565b60065481565b6003808111156107fd576107fc610fc6565b5b600360009054906101000a900460ff16600381111561081f5761081e610fc6565b5b148061085e57506002600381111561083a57610839610fc6565b5b600360009054906101000a900460ff16600381111561085c5761085b610fc6565b5b145b8061086a575060025443115b61087357600080fd5b60008054906101000a900473ffffffffffffffffffffffffffffffffffffffff1673ffffffffffffffffffffffffffffffffffffffff163373ffffffffffffffffffffffffffffffffffffffff16148061090c57506000600860003373ffffffffffffffffffffffffffffffffffffffff1673ffffffffffffffffffffffffffffffffffffffff16815260200190815260200160002054115b61091557600080fd5b60008060038081111561092b5761092a610fc6565b5b600360009054906101000a900460ff16600381111561094d5761094c610fc6565b5b141561099d57339150600860003373ffffffffffffffffffffffffffffffffffffffff1673ffffffffffffffffffffffffffffffffffffffff168152602001908152602001600020549050610b57565b60008054906101000a900473ffffffffffffffffffffffffffffffffffffffff1673ffffffffffffffffffffffffffffffffffffffff163373ffffffffffffffffffffffffffffffffffffffff161415610a1e5760008054906101000a900473ffffffffffffffffffffffffffffffffffffffff1691506005549050610b56565b600760009054906101000a900473ffffffffffffffffffffffffffffffffffffffff1673ffffffffffffffffffffffffffffffffffffffff163373ffffffffffffffffffffffffffffffffffffffff161415610b0f57600760009054906101000a900473ffffffffffffffffffffffffffffffffffffffff16915060055460086000600760009054906101000a900473ffffffffffffffffffffffffffffffffffffffff1673ffffffffffffffffffffffffffffffffffffffff1673ffffffffffffffffffffffffffffffffffffffff16815260200190815260200160002054610b089190610ef0565b9050610b55565b339150600860003373ffffffffffffffffffffffffffffffffffffffff1673ffffffffffffffffffffffffffffffffffffffff1681526020019081526020016000205490505b5b5b6000600860003373ffffffffffffffffffffffffffffffffffffffff1673ffffffffffffffffffffffffffffffffffffffff168152602001908152602001600020819055508173ffffffffffffffffffffffffffffffffffffffff166108fc829081150290604051600060405180830381858888f19350505050158015610be2573d6000803e3d6000fd5b505050565b60008054906101000a900473ffffffffffffffffffffffffffffffffffffffff1673ffffffffffffffffffffffffffffffffffffffff163373ffffffffffffffffffffffffffffffffffffffff1614610c75576040517f08c379a0000000000000000000000000000000000000000000000000000000008152600401610c6c90610dee565b60405180910390fd5b6002600360006101000a81548160ff02191690836003811115610c9b57610c9a610fc6565b5b0217905550565b6000818311610cb357829050610cb7565b8190505b92915050565b600081359050610ccc816110d8565b92915050565b600060208284031215610ce857610ce7610ff5565b5b6000610cf684828501610cbd565b91505092915050565b610d0881610f36565b82525050565b610d1781610f85565b82525050565b6000610d2a601083610e89565b9150610d3582610ffa565b602082019050919050565b6000610d4d602c83610e89565b9150610d5882611023565b604082019050919050565b6000610d70601883610e89565b9150610d7b82611072565b602082019050919050565b6000610d93601b83610e89565b9150610d9e8261109b565b602082019050919050565b610db281610f7b565b82525050565b6000602082019050610dcd6000830184610cff565b92915050565b6000602082019050610de86000830184610d0e565b92915050565b60006020820190508181036000830152610e0781610d1d565b9050919050565b60006020820190508181036000830152610e2781610d40565b9050919050565b60006020820190508181036000830152610e4781610d63565b9050919050565b60006020820190508181036000830152610e6781610d86565b9050919050565b6000602082019050610e836000830184610da9565b92915050565b600082825260208201905092915050565b6000610ea582610f7b565b9150610eb083610f7b565b9250827fffffffffffffffffffffffffffffffffffffffffffffffffffffffffffffffff03821115610ee557610ee4610f97565b5b828201905092915050565b6000610efb82610f7b565b9150610f0683610f7b565b925082821015610f1957610f18610f97565b5b828203905092915050565b6000610f2f82610f5b565b9050919050565b6000610f4182610f5b565b9050919050565b6000819050610f56826110c4565b919050565b600073ffffffffffffffffffffffffffffffffffffffff82169050919050565b6000819050919050565b6000610f9082610f48565b9050919050565b7f4e487b7100000000000000000000000000000000000000000000000000000000600052601160045260246000fd5b7f4e487b7100000000000000000000000000000000000000000000000000000000600052602160045260246000fd5b600080fd5b7f4f776e65722043616e6e6f742062696400000000000000000000000000000000600082015250565b7f537461727420426c6f636b206d7573742062652067726561746572207468616e60008201527f20746f74616c20626c6f636b0000000000000000000000000000000000000000602082015250565b7f41756374696f6e206973206e6f7420456e646564207965740000000000000000600082015250565b7f496e63726561736520596f7520204269642056616c75207468616e0000000000600082015250565b600481106110d5576110d4610fc6565b5b50565b6110e181610f24565b81146110ec57600080fd5b5056fea2646970667358221220915cab1de0ab0df5c38141304ad01812b5d712db643e4674fde875f3f949e39464736f6c63430008070033",
					"opcodes": "PUSH1 0x80 PUSH1 0x40 MSTORE CALLVALUE DUP1 ISZERO PUSH2 0x10 JUMPI PUSH1 0x0 DUP1 REVERT JUMPDEST POP CALLER PUSH1 0x0 DUP1 PUSH2 0x100 EXP DUP2 SLOAD DUP2 PUSH20 0xFFFFFFFFFFFFFFFFFFFFFFFFFFFFFFFFFFFFFFFF MUL NOT AND SWAP1 DUP4 PUSH20 0xFFFFFFFFFFFFFFFFFFFFFFFFFFFFFFFFFFFFFFFF AND MUL OR SWAP1 SSTORE POP NUMBER PUSH1 0x1 DUP2 SWAP1 SSTORE POP PUSH1 0x1 PUSH1 0x3 PUSH1 0x0 PUSH2 0x100 EXP DUP2 SLOAD DUP2 PUSH1 0xFF MUL NOT AND SWAP1 DUP4 PUSH1 0x3 DUP2 GT ISZERO PUSH2 0x7E JUMPI PUSH2 0x7D PUSH2 0x13B JUMP JUMPDEST JUMPDEST MUL OR SWAP1 SSTORE POP PUSH1 0xA PUSH1 0x1 SLOAD PUSH2 0x92 SWAP2 SWAP1 PUSH2 0xAC JUMP JUMPDEST PUSH1 0x2 DUP2 SWAP1 SSTORE POP PUSH8 0xDE0B6B3A7640000 PUSH1 0x6 DUP2 SWAP1 SSTORE POP PUSH2 0x16A JUMP JUMPDEST PUSH1 0x0 PUSH2 0xB7 DUP3 PUSH2 0x102 JUMP JUMPDEST SWAP2 POP PUSH2 0xC2 DUP4 PUSH2 0x102 JUMP JUMPDEST SWAP3 POP DUP3 PUSH32 0xFFFFFFFFFFFFFFFFFFFFFFFFFFFFFFFFFFFFFFFFFFFFFFFFFFFFFFFFFFFFFFFF SUB DUP3 GT ISZERO PUSH2 0xF7 JUMPI PUSH2 0xF6 PUSH2 0x10C JUMP JUMPDEST JUMPDEST DUP3 DUP3 ADD SWAP1 POP SWAP3 SWAP2 POP POP JUMP JUMPDEST PUSH1 0x0 DUP2 SWAP1 POP SWAP2 SWAP1 POP JUMP JUMPDEST PUSH32 0x4E487B7100000000000000000000000000000000000000000000000000000000 PUSH1 0x0 MSTORE PUSH1 0x11 PUSH1 0x4 MSTORE PUSH1 0x24 PUSH1 0x0 REVERT JUMPDEST PUSH32 0x4E487B7100000000000000000000000000000000000000000000000000000000 PUSH1 0x0 MSTORE PUSH1 0x21 PUSH1 0x4 MSTORE PUSH1 0x24 PUSH1 0x0 REVERT JUMPDEST PUSH2 0x1125 DUP1 PUSH3 0x17A PUSH1 0x0 CODECOPY PUSH1 0x0 RETURN INVALID PUSH1 0x80 PUSH1 0x40 MSTORE PUSH1 0x4 CALLDATASIZE LT PUSH2 0xC2 JUMPI PUSH1 0x0 CALLDATALOAD PUSH1 0xE0 SHR DUP1 PUSH4 0x7FB45099 GT PUSH2 0x7F JUMPI DUP1 PUSH4 0xE5C60091 GT PUSH2 0x59 JUMPI DUP1 PUSH4 0xE5C60091 EQ PUSH2 0x227 JUMPI DUP1 PUSH4 0xF3EF35F8 EQ PUSH2 0x252 JUMPI DUP1 PUSH4 0xF77282AB EQ PUSH2 0x27D JUMPI DUP1 PUSH4 0xFE67A54B EQ PUSH2 0x294 JUMPI PUSH2 0xC2 JUMP JUMPDEST DUP1 PUSH4 0x7FB45099 EQ PUSH2 0x1BA JUMPI DUP1 PUSH4 0x8FA8B790 EQ PUSH2 0x1E5 JUMPI DUP1 PUSH4 0xBD9215F4 EQ PUSH2 0x1FC JUMPI PUSH2 0xC2 JUMP JUMPDEST DUP1 PUSH4 0x83C6323 EQ PUSH2 0xC7 JUMPI DUP1 PUSH4 0x1998AEEF EQ PUSH2 0xF2 JUMPI DUP1 PUSH4 0x48CD4CB1 EQ PUSH2 0xFC JUMPI DUP1 PUSH4 0x5EC2C7BF EQ PUSH2 0x127 JUMPI DUP1 PUSH4 0x62EA82DB EQ PUSH2 0x152 JUMPI DUP1 PUSH4 0x7EB695A1 EQ PUSH2 0x18F JUMPI JUMPDEST PUSH1 0x0 DUP1 REVERT JUMPDEST CALLVALUE DUP1 ISZERO PUSH2 0xD3 JUMPI PUSH1 0x0 DUP1 REVERT JUMPDEST POP PUSH2 0xDC PUSH2 0x2AB JUMP JUMPDEST PUSH1 0x40 MLOAD PUSH2 0xE9 SWAP2 SWAP1 PUSH2 0xE6E JUMP JUMPDEST PUSH1 0x40 MLOAD DUP1 SWAP2 SUB SWAP1 RETURN JUMPDEST PUSH2 0xFA PUSH2 0x2B1 JUMP JUMPDEST STOP JUMPDEST CALLVALUE DUP1 ISZERO PUSH2 0x108 JUMPI PUSH1 0x0 DUP1 REVERT JUMPDEST POP PUSH2 0x111 PUSH2 0x6A3 JUMP JUMPDEST PUSH1 0x40 MLOAD PUSH2 0x11E SWAP2 SWAP1 PUSH2 0xE6E JUMP JUMPDEST PUSH1 0x40 MLOAD DUP1 SWAP2 SUB SWAP1 RETURN JUMPDEST CALLVALUE DUP1 ISZERO PUSH2 0x133 JUMPI PUSH1 0x0 DUP1 REVERT JUMPDEST POP PUSH2 0x13C PUSH2 0x6A9 JUMP JUMPDEST PUSH1 0x40 MLOAD PUSH2 0x149 SWAP2 SWAP1 PUSH2 0xDB8 JUMP JUMPDEST PUSH1 0x40 MLOAD DUP1 SWAP2 SUB SWAP1 RETURN JUMPDEST CALLVALUE DUP1 ISZERO PUSH2 0x15E JUMPI PUSH1 0x0 DUP1 REVERT JUMPDEST POP PUSH2 0x179 PUSH1 0x4 DUP1 CALLDATASIZE SUB DUP2 ADD SWAP1 PUSH2 0x174 SWAP2 SWAP1 PUSH2 0xCD2 JUMP JUMPDEST PUSH2 0x6CD JUMP JUMPDEST PUSH1 0x40 MLOAD PUSH2 0x186 SWAP2 SWAP1 PUSH2 0xE6E JUMP JUMPDEST PUSH1 0x40 MLOAD DUP1 SWAP2 SUB SWAP1 RETURN JUMPDEST CALLVALUE DUP1 ISZERO PUSH2 0x19B JUMPI PUSH1 0x0 DUP1 REVERT JUMPDEST POP PUSH2 0x1A4 PUSH2 0x6E5 JUMP JUMPDEST PUSH1 0x40 MLOAD PUSH2 0x1B1 SWAP2 SWAP1 PUSH2 0xE6E JUMP JUMPDEST PUSH1 0x40 MLOAD DUP1 SWAP2 SUB SWAP1 RETURN JUMPDEST CALLVALUE DUP1 ISZERO PUSH2 0x1C6 JUMPI PUSH1 0x0 DUP1 REVERT JUMPDEST POP PUSH2 0x1CF PUSH2 0x6EB JUMP JUMPDEST PUSH1 0x40 MLOAD PUSH2 0x1DC SWAP2 SWAP1 PUSH2 0xDD3 JUMP JUMPDEST PUSH1 0x40 MLOAD DUP1 SWAP2 SUB SWAP1 RETURN JUMPDEST CALLVALUE DUP1 ISZERO PUSH2 0x1F1 JUMPI PUSH1 0x0 DUP1 REVERT JUMPDEST POP PUSH2 0x1FA PUSH2 0x6FE JUMP JUMPDEST STOP JUMPDEST CALLVALUE DUP1 ISZERO PUSH2 0x208 JUMPI PUSH1 0x0 DUP1 REVERT JUMPDEST POP PUSH2 0x211 PUSH2 0x7B8 JUMP JUMPDEST PUSH1 0x40 MLOAD PUSH2 0x21E SWAP2 SWAP1 PUSH2 0xDB8 JUMP JUMPDEST PUSH1 0x40 MLOAD DUP1 SWAP2 SUB SWAP1 RETURN JUMPDEST CALLVALUE DUP1 ISZERO PUSH2 0x233 JUMPI PUSH1 0x0 DUP1 REVERT JUMPDEST POP PUSH2 0x23C PUSH2 0x7DE JUMP JUMPDEST PUSH1 0x40 MLOAD PUSH2 0x249 SWAP2 SWAP1 PUSH2 0xE6E JUMP JUMPDEST PUSH1 0x40 MLOAD DUP1 SWAP2 SUB SWAP1 RETURN JUMPDEST CALLVALUE DUP1 ISZERO PUSH2 0x25E JUMPI PUSH1 0x0 DUP1 REVERT JUMPDEST POP PUSH2 0x267 PUSH2 0x7E4 JUMP JUMPDEST PUSH1 0x40 MLOAD PUSH2 0x274 SWAP2 SWAP1 PUSH2 0xE6E JUMP JUMPDEST PUSH1 0x40 MLOAD DUP1 SWAP2 SUB SWAP1 RETURN JUMPDEST CALLVALUE DUP1 ISZERO PUSH2 0x289 JUMPI PUSH1 0x0 DUP1 REVERT JUMPDEST POP PUSH2 0x292 PUSH2 0x7EA JUMP JUMPDEST STOP JUMPDEST CALLVALUE DUP1 ISZERO PUSH2 0x2A0 JUMPI PUSH1 0x0 DUP1 REVERT JUMPDEST POP PUSH2 0x2A9 PUSH2 0xBE7 JUMP JUMPDEST STOP JUMPDEST PUSH1 0x2 SLOAD DUP2 JUMP JUMPDEST PUSH1 0x0 DUP1 SLOAD SWAP1 PUSH2 0x100 EXP SWAP1 DIV PUSH20 0xFFFFFFFFFFFFFFFFFFFFFFFFFFFFFFFFFFFFFFFF AND PUSH20 0xFFFFFFFFFFFFFFFFFFFFFFFFFFFFFFFFFFFFFFFF AND CALLER PUSH20 0xFFFFFFFFFFFFFFFFFFFFFFFFFFFFFFFFFFFFFFFF AND EQ ISZERO PUSH2 0x340 JUMPI PUSH1 0x40 MLOAD PUSH32 0x8C379A000000000000000000000000000000000000000000000000000000000 DUP2 MSTORE PUSH1 0x4 ADD PUSH2 0x337 SWAP1 PUSH2 0xDEE JUMP JUMPDEST PUSH1 0x40 MLOAD DUP1 SWAP2 SUB SWAP1 REVERT JUMPDEST PUSH1 0x1 SLOAD NUMBER GT PUSH2 0x384 JUMPI PUSH1 0x40 MLOAD PUSH32 0x8C379A000000000000000000000000000000000000000000000000000000000 DUP2 MSTORE PUSH1 0x4 ADD PUSH2 0x37B SWAP1 PUSH2 0xE0E JUMP JUMPDEST PUSH1 0x40 MLOAD DUP1 SWAP2 SUB SWAP1 REVERT JUMPDEST PUSH1 0x2 SLOAD NUMBER LT PUSH2 0x3C8 JUMPI PUSH1 0x40 MLOAD PUSH32 0x8C379A000000000000000000000000000000000000000000000000000000000 DUP2 MSTORE PUSH1 0x4 ADD PUSH2 0x3BF SWAP1 PUSH2 0xE2E JUMP JUMPDEST PUSH1 0x40 MLOAD DUP1 SWAP2 SUB SWAP1 REVERT JUMPDEST PUSH1 0x1 PUSH1 0x3 DUP2 GT ISZERO PUSH2 0x3DC JUMPI PUSH2 0x3DB PUSH2 0xFC6 JUMP JUMPDEST JUMPDEST PUSH1 0x3 PUSH1 0x0 SWAP1 SLOAD SWAP1 PUSH2 0x100 EXP SWAP1 DIV PUSH1 0xFF AND PUSH1 0x3 DUP2 GT ISZERO PUSH2 0x3FE JUMPI PUSH2 0x3FD PUSH2 0xFC6 JUMP JUMPDEST JUMPDEST EQ PUSH2 0x408 JUMPI PUSH1 0x0 DUP1 REVERT JUMPDEST PUSH8 0xDE0B6B3A7640000 CALLVALUE LT ISZERO PUSH2 0x41D JUMPI PUSH1 0x0 DUP1 REVERT JUMPDEST PUSH1 0x0 CALLVALUE PUSH1 0x8 PUSH1 0x0 CALLER PUSH20 0xFFFFFFFFFFFFFFFFFFFFFFFFFFFFFFFFFFFFFFFF AND PUSH20 0xFFFFFFFFFFFFFFFFFFFFFFFFFFFFFFFFFFFFFFFF AND DUP2 MSTORE PUSH1 0x20 ADD SWAP1 DUP2 MSTORE PUSH1 0x20 ADD PUSH1 0x0 KECCAK256 SLOAD PUSH2 0x46A SWAP2 SWAP1 PUSH2 0xE9A JUMP JUMPDEST SWAP1 POP PUSH1 0x5 SLOAD DUP2 GT PUSH2 0x4B0 JUMPI PUSH1 0x40 MLOAD PUSH32 0x8C379A000000000000000000000000000000000000000000000000000000000 DUP2 MSTORE PUSH1 0x4 ADD PUSH2 0x4A7 SWAP1 PUSH2 0xE4E JUMP JUMPDEST PUSH1 0x40 MLOAD DUP1 SWAP2 SUB SWAP1 REVERT JUMPDEST DUP1 PUSH1 0x8 PUSH1 0x0 CALLER PUSH20 0xFFFFFFFFFFFFFFFFFFFFFFFFFFFFFFFFFFFFFFFF AND PUSH20 0xFFFFFFFFFFFFFFFFFFFFFFFFFFFFFFFFFFFFFFFF AND DUP2 MSTORE PUSH1 0x20 ADD SWAP1 DUP2 MSTORE PUSH1 0x20 ADD PUSH1 0x0 KECCAK256 DUP2 SWAP1 SSTORE POP PUSH1 0x8 PUSH1 0x0 PUSH1 0x7 PUSH1 0x0 SWAP1 SLOAD SWAP1 PUSH2 0x100 EXP SWAP1 DIV PUSH20 0xFFFFFFFFFFFFFFFFFFFFFFFFFFFFFFFFFFFFFFFF AND PUSH20 0xFFFFFFFFFFFFFFFFFFFFFFFFFFFFFFFFFFFFFFFF AND PUSH20 0xFFFFFFFFFFFFFFFFFFFFFFFFFFFFFFFFFFFFFFFF AND DUP2 MSTORE PUSH1 0x20 ADD SWAP1 DUP2 MSTORE PUSH1 0x20 ADD PUSH1 0x0 KECCAK256 SLOAD DUP2 LT ISZERO PUSH2 0x5E0 JUMPI PUSH2 0x5D5 PUSH1 0x6 SLOAD DUP3 PUSH2 0x56E SWAP2 SWAP1 PUSH2 0xE9A JUMP JUMPDEST PUSH1 0x8 PUSH1 0x0 PUSH1 0x7 PUSH1 0x0 SWAP1 SLOAD SWAP1 PUSH2 0x100 EXP SWAP1 DIV PUSH20 0xFFFFFFFFFFFFFFFFFFFFFFFFFFFFFFFFFFFFFFFF AND PUSH20 0xFFFFFFFFFFFFFFFFFFFFFFFFFFFFFFFFFFFFFFFF AND PUSH20 0xFFFFFFFFFFFFFFFFFFFFFFFFFFFFFFFFFFFFFFFF AND DUP2 MSTORE PUSH1 0x20 ADD SWAP1 DUP2 MSTORE PUSH1 0x20 ADD PUSH1 0x0 KECCAK256 SLOAD PUSH2 0xCA2 JUMP JUMPDEST PUSH1 0x5 DUP2 SWAP1 SSTORE POP PUSH2 0x6A0 JUMP JUMPDEST PUSH2 0x658 DUP2 PUSH1 0x6 SLOAD PUSH1 0x8 PUSH1 0x0 PUSH1 0x7 PUSH1 0x0 SWAP1 SLOAD SWAP1 PUSH2 0x100 EXP SWAP1 DIV PUSH20 0xFFFFFFFFFFFFFFFFFFFFFFFFFFFFFFFFFFFFFFFF AND PUSH20 0xFFFFFFFFFFFFFFFFFFFFFFFFFFFFFFFFFFFFFFFF AND PUSH20 0xFFFFFFFFFFFFFFFFFFFFFFFFFFFFFFFFFFFFFFFF AND DUP2 MSTORE PUSH1 0x20 ADD SWAP1 DUP2 MSTORE PUSH1 0x20 ADD PUSH1 0x0 KECCAK256 SLOAD PUSH2 0x653 SWAP2 SWAP1 PUSH2 0xE9A JUMP JUMPDEST PUSH2 0xCA2 JUMP JUMPDEST PUSH1 0x5 DUP2 SWAP1 SSTORE POP CALLER PUSH1 0x7 PUSH1 0x0 PUSH2 0x100 EXP DUP2 SLOAD DUP2 PUSH20 0xFFFFFFFFFFFFFFFFFFFFFFFFFFFFFFFFFFFFFFFF MUL NOT AND SWAP1 DUP4 PUSH20 0xFFFFFFFFFFFFFFFFFFFFFFFFFFFFFFFFFFFFFFFF AND MUL OR SWAP1 SSTORE POP JUMPDEST POP JUMP JUMPDEST PUSH1 0x1 SLOAD DUP2 JUMP JUMPDEST PUSH1 0x0 DUP1 SLOAD SWAP1 PUSH2 0x100 EXP SWAP1 DIV PUSH20 0xFFFFFFFFFFFFFFFFFFFFFFFFFFFFFFFFFFFFFFFF AND DUP2 JUMP JUMPDEST PUSH1 0x8 PUSH1 0x20 MSTORE DUP1 PUSH1 0x0 MSTORE PUSH1 0x40 PUSH1 0x0 KECCAK256 PUSH1 0x0 SWAP2 POP SWAP1 POP SLOAD DUP2 JUMP JUMPDEST PUSH1 0x5 SLOAD DUP2 JUMP JUMPDEST PUSH1 0x3 PUSH1 0x0 SWAP1 SLOAD SWAP1 PUSH2 0x100 EXP SWAP1 DIV PUSH1 0xFF AND DUP2 JUMP JUMPDEST PUSH1 0x0 DUP1 SLOAD SWAP1 PUSH2 0x100 EXP SWAP1 DIV PUSH20 0xFFFFFFFFFFFFFFFFFFFFFFFFFFFFFFFFFFFFFFFF AND PUSH20 0xFFFFFFFFFFFFFFFFFFFFFFFFFFFFFFFFFFFFFFFF AND CALLER PUSH20 0xFFFFFFFFFFFFFFFFFFFFFFFFFFFFFFFFFFFFFFFF AND EQ PUSH2 0x78C JUMPI PUSH1 0x40 MLOAD PUSH32 0x8C379A000000000000000000000000000000000000000000000000000000000 DUP2 MSTORE PUSH1 0x4 ADD PUSH2 0x783 SWAP1 PUSH2 0xDEE JUMP JUMPDEST PUSH1 0x40 MLOAD DUP1 SWAP2 SUB SWAP1 REVERT JUMPDEST PUSH1 0x3 DUP1 PUSH1 0x0 PUSH2 0x100 EXP DUP2 SLOAD DUP2 PUSH1 0xFF MUL NOT AND SWAP1 DUP4 PUSH1 0x3 DUP2 GT ISZERO PUSH2 0x7B1 JUMPI PUSH2 0x7B0 PUSH2 0xFC6 JUMP JUMPDEST JUMPDEST MUL OR SWAP1 SSTORE POP JUMP JUMPDEST PUSH1 0x7 PUSH1 0x0 SWAP1 SLOAD SWAP1 PUSH2 0x100 EXP SWAP1 DIV PUSH20 0xFFFFFFFFFFFFFFFFFFFFFFFFFFFFFFFFFFFFFFFF AND DUP2 JUMP JUMPDEST PUSH1 0x4 SLOAD DUP2 JUMP JUMPDEST PUSH1 0x6 SLOAD DUP2 JUMP JUMPDEST PUSH1 0x3 DUP1 DUP2 GT ISZERO PUSH2 0x7FD JUMPI PUSH2 0x7FC PUSH2 0xFC6 JUMP JUMPDEST JUMPDEST PUSH1 0x3 PUSH1 0x0 SWAP1 SLOAD SWAP1 PUSH2 0x100 EXP SWAP1 DIV PUSH1 0xFF AND PUSH1 0x3 DUP2 GT ISZERO PUSH2 0x81F JUMPI PUSH2 0x81E PUSH2 0xFC6 JUMP JUMPDEST JUMPDEST EQ DUP1 PUSH2 0x85E JUMPI POP PUSH1 0x2 PUSH1 0x3 DUP2 GT ISZERO PUSH2 0x83A JUMPI PUSH2 0x839 PUSH2 0xFC6 JUMP JUMPDEST JUMPDEST PUSH1 0x3 PUSH1 0x0 SWAP1 SLOAD SWAP1 PUSH2 0x100 EXP SWAP1 DIV PUSH1 0xFF AND PUSH1 0x3 DUP2 GT ISZERO PUSH2 0x85C JUMPI PUSH2 0x85B PUSH2 0xFC6 JUMP JUMPDEST JUMPDEST EQ JUMPDEST DUP1 PUSH2 0x86A JUMPI POP PUSH1 0x2 SLOAD NUMBER GT JUMPDEST PUSH2 0x873 JUMPI PUSH1 0x0 DUP1 REVERT JUMPDEST PUSH1 0x0 DUP1 SLOAD SWAP1 PUSH2 0x100 EXP SWAP1 DIV PUSH20 0xFFFFFFFFFFFFFFFFFFFFFFFFFFFFFFFFFFFFFFFF AND PUSH20 0xFFFFFFFFFFFFFFFFFFFFFFFFFFFFFFFFFFFFFFFF AND CALLER PUSH20 0xFFFFFFFFFFFFFFFFFFFFFFFFFFFFFFFFFFFFFFFF AND EQ DUP1 PUSH2 0x90C JUMPI POP PUSH1 0x0 PUSH1 0x8 PUSH1 0x0 CALLER PUSH20 0xFFFFFFFFFFFFFFFFFFFFFFFFFFFFFFFFFFFFFFFF AND PUSH20 0xFFFFFFFFFFFFFFFFFFFFFFFFFFFFFFFFFFFFFFFF AND DUP2 MSTORE PUSH1 0x20 ADD SWAP1 DUP2 MSTORE PUSH1 0x20 ADD PUSH1 0x0 KECCAK256 SLOAD GT JUMPDEST PUSH2 0x915 JUMPI PUSH1 0x0 DUP1 REVERT JUMPDEST PUSH1 0x0 DUP1 PUSH1 0x3 DUP1 DUP2 GT ISZERO PUSH2 0x92B JUMPI PUSH2 0x92A PUSH2 0xFC6 JUMP JUMPDEST JUMPDEST PUSH1 0x3 PUSH1 0x0 SWAP1 SLOAD SWAP1 PUSH2 0x100 EXP SWAP1 DIV PUSH1 0xFF AND PUSH1 0x3 DUP2 GT ISZERO PUSH2 0x94D JUMPI PUSH2 0x94C PUSH2 0xFC6 JUMP JUMPDEST JUMPDEST EQ ISZERO PUSH2 0x99D JUMPI CALLER SWAP2 POP PUSH1 0x8 PUSH1 0x0 CALLER PUSH20 0xFFFFFFFFFFFFFFFFFFFFFFFFFFFFFFFFFFFFFFFF AND PUSH20 0xFFFFFFFFFFFFFFFFFFFFFFFFFFFFFFFFFFFFFFFF AND DUP2 MSTORE PUSH1 0x20 ADD SWAP1 DUP2 MSTORE PUSH1 0x20 ADD PUSH1 0x0 KECCAK256 SLOAD SWAP1 POP PUSH2 0xB57 JUMP JUMPDEST PUSH1 0x0 DUP1 SLOAD SWAP1 PUSH2 0x100 EXP SWAP1 DIV PUSH20 0xFFFFFFFFFFFFFFFFFFFFFFFFFFFFFFFFFFFFFFFF AND PUSH20 0xFFFFFFFFFFFFFFFFFFFFFFFFFFFFFFFFFFFFFFFF AND CALLER PUSH20 0xFFFFFFFFFFFFFFFFFFFFFFFFFFFFFFFFFFFFFFFF AND EQ ISZERO PUSH2 0xA1E JUMPI PUSH1 0x0 DUP1 SLOAD SWAP1 PUSH2 0x100 EXP SWAP1 DIV PUSH20 0xFFFFFFFFFFFFFFFFFFFFFFFFFFFFFFFFFFFFFFFF AND SWAP2 POP PUSH1 0x5 SLOAD SWAP1 POP PUSH2 0xB56 JUMP JUMPDEST PUSH1 0x7 PUSH1 0x0 SWAP1 SLOAD SWAP1 PUSH2 0x100 EXP SWAP1 DIV PUSH20 0xFFFFFFFFFFFFFFFFFFFFFFFFFFFFFFFFFFFFFFFF AND PUSH20 0xFFFFFFFFFFFFFFFFFFFFFFFFFFFFFFFFFFFFFFFF AND CALLER PUSH20 0xFFFFFFFFFFFFFFFFFFFFFFFFFFFFFFFFFFFFFFFF AND EQ ISZERO PUSH2 0xB0F JUMPI PUSH1 0x7 PUSH1 0x0 SWAP1 SLOAD SWAP1 PUSH2 0x100 EXP SWAP1 DIV PUSH20 0xFFFFFFFFFFFFFFFFFFFFFFFFFFFFFFFFFFFFFFFF AND SWAP2 POP PUSH1 0x5 SLOAD PUSH1 0x8 PUSH1 0x0 PUSH1 0x7 PUSH1 0x0 SWAP1 SLOAD SWAP1 PUSH2 0x100 EXP SWAP1 DIV PUSH20 0xFFFFFFFFFFFFFFFFFFFFFFFFFFFFFFFFFFFFFFFF AND PUSH20 0xFFFFFFFFFFFFFFFFFFFFFFFFFFFFFFFFFFFFFFFF AND PUSH20 0xFFFFFFFFFFFFFFFFFFFFFFFFFFFFFFFFFFFFFFFF AND DUP2 MSTORE PUSH1 0x20 ADD SWAP1 DUP2 MSTORE PUSH1 0x20 ADD PUSH1 0x0 KECCAK256 SLOAD PUSH2 0xB08 SWAP2 SWAP1 PUSH2 0xEF0 JUMP JUMPDEST SWAP1 POP PUSH2 0xB55 JUMP JUMPDEST CALLER SWAP2 POP PUSH1 0x8 PUSH1 0x0 CALLER PUSH20 0xFFFFFFFFFFFFFFFFFFFFFFFFFFFFFFFFFFFFFFFF AND PUSH20 0xFFFFFFFFFFFFFFFFFFFFFFFFFFFFFFFFFFFFFFFF AND DUP2 MSTORE PUSH1 0x20 ADD SWAP1 DUP2 MSTORE PUSH1 0x20 ADD PUSH1 0x0 KECCAK256 SLOAD SWAP1 POP JUMPDEST JUMPDEST JUMPDEST PUSH1 0x0 PUSH1 0x8 PUSH1 0x0 CALLER PUSH20 0xFFFFFFFFFFFFFFFFFFFFFFFFFFFFFFFFFFFFFFFF AND PUSH20 0xFFFFFFFFFFFFFFFFFFFFFFFFFFFFFFFFFFFFFFFF AND DUP2 MSTORE PUSH1 0x20 ADD SWAP1 DUP2 MSTORE PUSH1 0x20 ADD PUSH1 0x0 KECCAK256 DUP2 SWAP1 SSTORE POP DUP2 PUSH20 0xFFFFFFFFFFFFFFFFFFFFFFFFFFFFFFFFFFFFFFFF AND PUSH2 0x8FC DUP3 SWAP1 DUP2 ISZERO MUL SWAP1 PUSH1 0x40 MLOAD PUSH1 0x0 PUSH1 0x40 MLOAD DUP1 DUP4 SUB DUP2 DUP6 DUP9 DUP9 CALL SWAP4 POP POP POP POP ISZERO DUP1 ISZERO PUSH2 0xBE2 JUMPI RETURNDATASIZE PUSH1 0x0 DUP1 RETURNDATACOPY RETURNDATASIZE PUSH1 0x0 REVERT JUMPDEST POP POP POP JUMP JUMPDEST PUSH1 0x0 DUP1 SLOAD SWAP1 PUSH2 0x100 EXP SWAP1 DIV PUSH20 0xFFFFFFFFFFFFFFFFFFFFFFFFFFFFFFFFFFFFFFFF AND PUSH20 0xFFFFFFFFFFFFFFFFFFFFFFFFFFFFFFFFFFFFFFFF AND CALLER PUSH20 0xFFFFFFFFFFFFFFFFFFFFFFFFFFFFFFFFFFFFFFFF AND EQ PUSH2 0xC75 JUMPI PUSH1 0x40 MLOAD PUSH32 0x8C379A000000000000000000000000000000000000000000000000000000000 DUP2 MSTORE PUSH1 0x4 ADD PUSH2 0xC6C SWAP1 PUSH2 0xDEE JUMP JUMPDEST PUSH1 0x40 MLOAD DUP1 SWAP2 SUB SWAP1 REVERT JUMPDEST PUSH1 0x2 PUSH1 0x3 PUSH1 0x0 PUSH2 0x100 EXP DUP2 SLOAD DUP2 PUSH1 0xFF MUL NOT AND SWAP1 DUP4 PUSH1 0x3 DUP2 GT ISZERO PUSH2 0xC9B JUMPI PUSH2 0xC9A PUSH2 0xFC6 JUMP JUMPDEST JUMPDEST MUL OR SWAP1 SSTORE POP JUMP JUMPDEST PUSH1 0x0 DUP2 DUP4 GT PUSH2 0xCB3 JUMPI DUP3 SWAP1 POP PUSH2 0xCB7 JUMP JUMPDEST DUP2 SWAP1 POP JUMPDEST SWAP3 SWAP2 POP POP JUMP JUMPDEST PUSH1 0x0 DUP2 CALLDATALOAD SWAP1 POP PUSH2 0xCCC DUP2 PUSH2 0x10D8 JUMP JUMPDEST SWAP3 SWAP2 POP POP JUMP JUMPDEST PUSH1 0x0 PUSH1 0x20 DUP3 DUP5 SUB SLT ISZERO PUSH2 0xCE8 JUMPI PUSH2 0xCE7 PUSH2 0xFF5 JUMP JUMPDEST JUMPDEST PUSH1 0x0 PUSH2 0xCF6 DUP5 DUP3 DUP6 ADD PUSH2 0xCBD JUMP JUMPDEST SWAP2 POP POP SWAP3 SWAP2 POP POP JUMP JUMPDEST PUSH2 0xD08 DUP2 PUSH2 0xF36 JUMP JUMPDEST DUP3 MSTORE POP POP JUMP JUMPDEST PUSH2 0xD17 DUP2 PUSH2 0xF85 JUMP JUMPDEST DUP3 MSTORE POP POP JUMP JUMPDEST PUSH1 0x0 PUSH2 0xD2A PUSH1 0x10 DUP4 PUSH2 0xE89 JUMP JUMPDEST SWAP2 POP PUSH2 0xD35 DUP3 PUSH2 0xFFA JUMP JUMPDEST PUSH1 0x20 DUP3 ADD SWAP1 POP SWAP2 SWAP1 POP JUMP JUMPDEST PUSH1 0x0 PUSH2 0xD4D PUSH1 0x2C DUP4 PUSH2 0xE89 JUMP JUMPDEST SWAP2 POP PUSH2 0xD58 DUP3 PUSH2 0x1023 JUMP JUMPDEST PUSH1 0x40 DUP3 ADD SWAP1 POP SWAP2 SWAP1 POP JUMP JUMPDEST PUSH1 0x0 PUSH2 0xD70 PUSH1 0x18 DUP4 PUSH2 0xE89 JUMP JUMPDEST SWAP2 POP PUSH2 0xD7B DUP3 PUSH2 0x1072 JUMP JUMPDEST PUSH1 0x20 DUP3 ADD SWAP1 POP SWAP2 SWAP1 POP JUMP JUMPDEST PUSH1 0x0 PUSH2 0xD93 PUSH1 0x1B DUP4 PUSH2 0xE89 JUMP JUMPDEST SWAP2 POP PUSH2 0xD9E DUP3 PUSH2 0x109B JUMP JUMPDEST PUSH1 0x20 DUP3 ADD SWAP1 POP SWAP2 SWAP1 POP JUMP JUMPDEST PUSH2 0xDB2 DUP2 PUSH2 0xF7B JUMP JUMPDEST DUP3 MSTORE POP POP JUMP JUMPDEST PUSH1 0x0 PUSH1 0x20 DUP3 ADD SWAP1 POP PUSH2 0xDCD PUSH1 0x0 DUP4 ADD DUP5 PUSH2 0xCFF JUMP JUMPDEST SWAP3 SWAP2 POP POP JUMP JUMPDEST PUSH1 0x0 PUSH1 0x20 DUP3 ADD SWAP1 POP PUSH2 0xDE8 PUSH1 0x0 DUP4 ADD DUP5 PUSH2 0xD0E JUMP JUMPDEST SWAP3 SWAP2 POP POP JUMP JUMPDEST PUSH1 0x0 PUSH1 0x20 DUP3 ADD SWAP1 POP DUP2 DUP2 SUB PUSH1 0x0 DUP4 ADD MSTORE PUSH2 0xE07 DUP2 PUSH2 0xD1D JUMP JUMPDEST SWAP1 POP SWAP2 SWAP1 POP JUMP JUMPDEST PUSH1 0x0 PUSH1 0x20 DUP3 ADD SWAP1 POP DUP2 DUP2 SUB PUSH1 0x0 DUP4 ADD MSTORE PUSH2 0xE27 DUP2 PUSH2 0xD40 JUMP JUMPDEST SWAP1 POP SWAP2 SWAP1 POP JUMP JUMPDEST PUSH1 0x0 PUSH1 0x20 DUP3 ADD SWAP1 POP DUP2 DUP2 SUB PUSH1 0x0 DUP4 ADD MSTORE PUSH2 0xE47 DUP2 PUSH2 0xD63 JUMP JUMPDEST SWAP1 POP SWAP2 SWAP1 POP JUMP JUMPDEST PUSH1 0x0 PUSH1 0x20 DUP3 ADD SWAP1 POP DUP2 DUP2 SUB PUSH1 0x0 DUP4 ADD MSTORE PUSH2 0xE67 DUP2 PUSH2 0xD86 JUMP JUMPDEST SWAP1 POP SWAP2 SWAP1 POP JUMP JUMPDEST PUSH1 0x0 PUSH1 0x20 DUP3 ADD SWAP1 POP PUSH2 0xE83 PUSH1 0x0 DUP4 ADD DUP5 PUSH2 0xDA9 JUMP JUMPDEST SWAP3 SWAP2 POP POP JUMP JUMPDEST PUSH1 0x0 DUP3 DUP3 MSTORE PUSH1 0x20 DUP3 ADD SWAP1 POP SWAP3 SWAP2 POP POP JUMP JUMPDEST PUSH1 0x0 PUSH2 0xEA5 DUP3 PUSH2 0xF7B JUMP JUMPDEST SWAP2 POP PUSH2 0xEB0 DUP4 PUSH2 0xF7B JUMP JUMPDEST SWAP3 POP DUP3 PUSH32 0xFFFFFFFFFFFFFFFFFFFFFFFFFFFFFFFFFFFFFFFFFFFFFFFFFFFFFFFFFFFFFFFF SUB DUP3 GT ISZERO PUSH2 0xEE5 JUMPI PUSH2 0xEE4 PUSH2 0xF97 JUMP JUMPDEST JUMPDEST DUP3 DUP3 ADD SWAP1 POP SWAP3 SWAP2 POP POP JUMP JUMPDEST PUSH1 0x0 PUSH2 0xEFB DUP3 PUSH2 0xF7B JUMP JUMPDEST SWAP2 POP PUSH2 0xF06 DUP4 PUSH2 0xF7B JUMP JUMPDEST SWAP3 POP DUP3 DUP3 LT ISZERO PUSH2 0xF19 JUMPI PUSH2 0xF18 PUSH2 0xF97 JUMP JUMPDEST JUMPDEST DUP3 DUP3 SUB SWAP1 POP SWAP3 SWAP2 POP POP JUMP JUMPDEST PUSH1 0x0 PUSH2 0xF2F DUP3 PUSH2 0xF5B JUMP JUMPDEST SWAP1 POP SWAP2 SWAP1 POP JUMP JUMPDEST PUSH1 0x0 PUSH2 0xF41 DUP3 PUSH2 0xF5B JUMP JUMPDEST SWAP1 POP SWAP2 SWAP1 POP JUMP JUMPDEST PUSH1 0x0 DUP2 SWAP1 POP PUSH2 0xF56 DUP3 PUSH2 0x10C4 JUMP JUMPDEST SWAP2 SWAP1 POP JUMP JUMPDEST PUSH1 0x0 PUSH20 0xFFFFFFFFFFFFFFFFFFFFFFFFFFFFFFFFFFFFFFFF DUP3 AND SWAP1 POP SWAP2 SWAP1 POP JUMP JUMPDEST PUSH1 0x0 DUP2 SWAP1 POP SWAP2 SWAP1 POP JUMP JUMPDEST PUSH1 0x0 PUSH2 0xF90 DUP3 PUSH2 0xF48 JUMP JUMPDEST SWAP1 POP SWAP2 SWAP1 POP JUMP JUMPDEST PUSH32 0x4E487B7100000000000000000000000000000000000000000000000000000000 PUSH1 0x0 MSTORE PUSH1 0x11 PUSH1 0x4 MSTORE PUSH1 0x24 PUSH1 0x0 REVERT JUMPDEST PUSH32 0x4E487B7100000000000000000000000000000000000000000000000000000000 PUSH1 0x0 MSTORE PUSH1 0x21 PUSH1 0x4 MSTORE PUSH1 0x24 PUSH1 0x0 REVERT JUMPDEST PUSH1 0x0 DUP1 REVERT JUMPDEST PUSH32 0x4F776E65722043616E6E6F742062696400000000000000000000000000000000 PUSH1 0x0 DUP3 ADD MSTORE POP JUMP JUMPDEST PUSH32 0x537461727420426C6F636B206D7573742062652067726561746572207468616E PUSH1 0x0 DUP3 ADD MSTORE PUSH32 0x20746F74616C20626C6F636B0000000000000000000000000000000000000000 PUSH1 0x20 DUP3 ADD MSTORE POP JUMP JUMPDEST PUSH32 0x41756374696F6E206973206E6F7420456E646564207965740000000000000000 PUSH1 0x0 DUP3 ADD MSTORE POP JUMP JUMPDEST PUSH32 0x496E63726561736520596F7520204269642056616C75207468616E0000000000 PUSH1 0x0 DUP3 ADD MSTORE POP JUMP JUMPDEST PUSH1 0x4 DUP2 LT PUSH2 0x10D5 JUMPI PUSH2 0x10D4 PUSH2 0xFC6 JUMP JUMPDEST JUMPDEST POP JUMP JUMPDEST PUSH2 0x10E1 DUP2 PUSH2 0xF24 JUMP JUMPDEST DUP2 EQ PUSH2 0x10EC JUMPI PUSH1 0x0 DUP1 REVERT JUMPDEST POP JUMP INVALID LOG2 PUSH5 0x6970667358 0x22 SLT KECCAK256 SWAP2 0x5C 0xAB SAR 0xE0 0xAB 0xD CREATE2 0xC3 DUP2 COINBASE ADDRESS 0x4A 0xD0 XOR SLT 0xB5 0xD7 SLT 0xDB PUSH5 0x3E4674FDE8 PUSH22 0xF3F949E39464736F6C63430008070033000000000000 "
				},
				"gasEstimates": {
					"creation": {
						"codeDepositCost": "877800",
						"executionCost": "infinite",
						"totalCost": "infinite"
					},
					"external": {
						"auctionState()": "2583",
						"auctioneer()": "2578",
						"bid()": "infinite",
						"bid_inc()": "2473",
						"bids(address)": "2903",
						"cancelAuction()": "26643",
						"endAuction()": "26686",
						"endBlock()": "2430",
						"finalizeAuction()": "infinite",
						"highest_bid()": "2451",
						"highest_bidder()": "2581",
						"highest_payable_bid()": "2540",
						"startBlock()": "2474"
					},
					"internal": {
						"min(uint256,uint256)": "64"
					}
				},
				"methodIdentifiers": {
					"auctionState()": "7fb45099",
					"auctioneer()": "5ec2c7bf",
					"bid()": "1998aeef",
					"bid_inc()": "f3ef35f8",
					"bids(address)": "62ea82db",
					"cancelAuction()": "8fa8b790",
					"endAuction()": "fe67a54b",
					"endBlock()": "083c6323",
					"finalizeAuction()": "f77282ab",
					"highest_bid()": "e5c60091",
					"highest_bidder()": "bd9215f4",
					"highest_payable_bid()": "7eb695a1",
					"startBlock()": "48cd4cb1"
				}
			},
			"storageLayout": {
				"storage": [
					{
						"astId": 3,
						"contract": "smartAuction2.0.sol:smartAuction",
						"label": "auctioneer",
						"offset": 0,
						"slot": "0",
						"type": "t_address_payable"
					},
					{
						"astId": 5,
						"contract": "smartAuction2.0.sol:smartAuction",
						"label": "startBlock",
						"offset": 0,
						"slot": "1",
						"type": "t_uint256"
					},
					{
						"astId": 7,
						"contract": "smartAuction2.0.sol:smartAuction",
						"label": "endBlock",
						"offset": 0,
						"slot": "2",
						"type": "t_uint256"
					},
					{
						"astId": 15,
						"contract": "smartAuction2.0.sol:smartAuction",
						"label": "auctionState",
						"offset": 0,
						"slot": "3",
						"type": "t_enum(Auction_state)12"
					},
					{
						"astId": 17,
						"contract": "smartAuction2.0.sol:smartAuction",
						"label": "highest_bid",
						"offset": 0,
						"slot": "4",
						"type": "t_uint256"
					},
					{
						"astId": 19,
						"contract": "smartAuction2.0.sol:smartAuction",
						"label": "highest_payable_bid",
						"offset": 0,
						"slot": "5",
						"type": "t_uint256"
					},
					{
						"astId": 21,
						"contract": "smartAuction2.0.sol:smartAuction",
						"label": "bid_inc",
						"offset": 0,
						"slot": "6",
						"type": "t_uint256"
					},
					{
						"astId": 23,
						"contract": "smartAuction2.0.sol:smartAuction",
						"label": "highest_bidder",
						"offset": 0,
						"slot": "7",
						"type": "t_address_payable"
					},
					{
						"astId": 27,
						"contract": "smartAuction2.0.sol:smartAuction",
						"label": "bids",
						"offset": 0,
						"slot": "8",
						"type": "t_mapping(t_address,t_uint256)"
					}
				],
				"types": {
					"t_address": {
						"encoding": "inplace",
						"label": "address",
						"numberOfBytes": "20"
					},
					"t_address_payable": {
						"encoding": "inplace",
						"label": "address payable",
						"numberOfBytes": "20"
					},
					"t_enum(Auction_state)12": {
						"encoding": "inplace",
						"label": "enum smartAuction.Auction_state",
						"numberOfBytes": "1"
					},
					"t_mapping(t_address,t_uint256)": {
						"encoding": "mapping",
						"key": "t_address",
						"label": "mapping(address => uint256)",
						"numberOfBytes": "32",
						"value": "t_uint256"
					},
					"t_uint256": {
						"encoding": "inplace",
						"label": "uint256",
						"numberOfBytes": "32"
					}
				}
			},
			"userdoc": {
				"kind": "user",
				"methods": {},
				"version": 1
			}
		}
	}
}