{
	"eventImplementation.sol": {
		"Eventimpl": {
			"abi": [
				{
					"anonymous": false,
					"inputs": [
						{
							"indexed": false,
							"internalType": "address",
							"name": "account",
							"type": "address"
						},
						{
							"indexed": false,
							"internalType": "string",
							"name": "name",
							"type": "string"
						},
						{
							"indexed": false,
							"internalType": "uint256",
							"name": "val",
							"type": "uint256"
						}
					],
					"name": "balance",
					"type": "event"
				},
				{
					"inputs": [
						{
							"internalType": "uint256",
							"name": "_val",
							"type": "uint256"
						}
					],
					"name": "setData",
					"outputs": [],
					"stateMutability": "nonpayable",
					"type": "function"
				}
			],
			"devdoc": {
				"kind": "dev",
				"methods": {},
				"version": 1
			},
			"evm": {
				"assembly": "    /* \"eventImplementation.sol\":63:246  contract Eventimpl{... */\n  mstore(0x40, 0x80)\n  callvalue\n  dup1\n  iszero\n  tag_1\n  jumpi\n  0x00\n  dup1\n  revert\ntag_1:\n  pop\n  dataSize(sub_0)\n  dup1\n  dataOffset(sub_0)\n  0x00\n  codecopy\n  0x00\n  return\nstop\n\nsub_0: assembly {\n        /* \"eventImplementation.sol\":63:246  contract Eventimpl{... */\n      mstore(0x40, 0x80)\n      callvalue\n      dup1\n      iszero\n      tag_1\n      jumpi\n      0x00\n      dup1\n      revert\n    tag_1:\n      pop\n      jumpi(tag_2, lt(calldatasize, 0x04))\n      shr(0xe0, calldataload(0x00))\n      dup1\n      0x5b4b73a9\n      eq\n      tag_3\n      jumpi\n    tag_2:\n      0x00\n      dup1\n      revert\n        /* \"eventImplementation.sol\":148:242  function setData(uint _val) public{... */\n    tag_3:\n      tag_4\n      0x04\n      dup1\n      calldatasize\n      sub\n      dup2\n      add\n      swap1\n      tag_5\n      swap2\n      swap1\n      tag_6\n      jump\t// in\n    tag_5:\n      tag_7\n      jump\t// in\n    tag_4:\n      stop\n    tag_7:\n        /* \"eventImplementation.sol\":197:235  balance(msg.sender, \"has Value\", _val) */\n      0x3028aee09e5f7149e98b3f7f8faa7e2cc5b353de720db250726b7c64d38b5f9c\n        /* \"eventImplementation.sol\":205:215  msg.sender */\n      caller\n        /* \"eventImplementation.sol\":230:234  _val */\n      dup3\n        /* \"eventImplementation.sol\":197:235  balance(msg.sender, \"has Value\", _val) */\n      mload(0x40)\n      tag_9\n      swap3\n      swap2\n      swap1\n      tag_10\n      jump\t// in\n    tag_9:\n      mload(0x40)\n      dup1\n      swap2\n      sub\n      swap1\n      log1\n        /* \"eventImplementation.sol\":148:242  function setData(uint _val) public{... */\n      pop\n      jump\t// out\n        /* \"#utility.yul\":7:146   */\n    tag_12:\n        /* \"#utility.yul\":53:58   */\n      0x00\n        /* \"#utility.yul\":91:97   */\n      dup2\n        /* \"#utility.yul\":78:98   */\n      calldataload\n        /* \"#utility.yul\":69:98   */\n      swap1\n      pop\n        /* \"#utility.yul\":107:140   */\n      tag_14\n        /* \"#utility.yul\":134:139   */\n      dup2\n        /* \"#utility.yul\":107:140   */\n      tag_15\n      jump\t// in\n    tag_14:\n        /* \"#utility.yul\":7:146   */\n      swap3\n      swap2\n      pop\n      pop\n      jump\t// out\n        /* \"#utility.yul\":152:481   */\n    tag_6:\n        /* \"#utility.yul\":211:217   */\n      0x00\n        /* \"#utility.yul\":260:262   */\n      0x20\n        /* \"#utility.yul\":248:257   */\n      dup3\n        /* \"#utility.yul\":239:246   */\n      dup5\n        /* \"#utility.yul\":235:258   */\n      sub\n        /* \"#utility.yul\":231:263   */\n      slt\n        /* \"#utility.yul\":228:347   */\n      iszero\n      tag_17\n      jumpi\n        /* \"#utility.yul\":266:345   */\n      tag_18\n      tag_19\n      jump\t// in\n    tag_18:\n        /* \"#utility.yul\":228:347   */\n    tag_17:\n        /* \"#utility.yul\":386:387   */\n      0x00\n        /* \"#utility.yul\":411:464   */\n      tag_20\n        /* \"#utility.yul\":456:463   */\n      dup5\n        /* \"#utility.yul\":447:453   */\n      dup3\n        /* \"#utility.yul\":436:445   */\n      dup6\n        /* \"#utility.yul\":432:454   */\n      add\n        /* \"#utility.yul\":411:464   */\n      tag_12\n      jump\t// in\n    tag_20:\n        /* \"#utility.yul\":401:464   */\n      swap2\n      pop\n        /* \"#utility.yul\":357:474   */\n      pop\n        /* \"#utility.yul\":152:481   */\n      swap3\n      swap2\n      pop\n      pop\n      jump\t// out\n        /* \"#utility.yul\":487:605   */\n    tag_21:\n        /* \"#utility.yul\":574:598   */\n      tag_23\n        /* \"#utility.yul\":592:597   */\n      dup2\n        /* \"#utility.yul\":574:598   */\n      tag_24\n      jump\t// in\n    tag_23:\n        /* \"#utility.yul\":569:572   */\n      dup3\n        /* \"#utility.yul\":562:599   */\n      mstore\n        /* \"#utility.yul\":487:605   */\n      pop\n      pop\n      jump\t// out\n        /* \"#utility.yul\":611:976   */\n    tag_25:\n        /* \"#utility.yul\":753:756   */\n      0x00\n        /* \"#utility.yul\":774:840   */\n      tag_27\n        /* \"#utility.yul\":838:839   */\n      0x09\n        /* \"#utility.yul\":833:836   */\n      dup4\n        /* \"#utility.yul\":774:840   */\n      tag_28\n      jump\t// in\n    tag_27:\n        /* \"#utility.yul\":767:840   */\n      swap2\n      pop\n        /* \"#utility.yul\":849:942   */\n      tag_29\n        /* \"#utility.yul\":938:941   */\n      dup3\n        /* \"#utility.yul\":849:942   */\n      tag_30\n      jump\t// in\n    tag_29:\n        /* \"#utility.yul\":967:969   */\n      0x20\n        /* \"#utility.yul\":962:965   */\n      dup3\n        /* \"#utility.yul\":958:970   */\n      add\n        /* \"#utility.yul\":951:970   */\n      swap1\n      pop\n        /* \"#utility.yul\":611:976   */\n      swap2\n      swap1\n      pop\n      jump\t// out\n        /* \"#utility.yul\":982:1100   */\n    tag_31:\n        /* \"#utility.yul\":1069:1093   */\n      tag_33\n        /* \"#utility.yul\":1087:1092   */\n      dup2\n        /* \"#utility.yul\":1069:1093   */\n      tag_34\n      jump\t// in\n    tag_33:\n        /* \"#utility.yul\":1064:1067   */\n      dup3\n        /* \"#utility.yul\":1057:1094   */\n      mstore\n        /* \"#utility.yul\":982:1100   */\n      pop\n      pop\n      jump\t// out\n        /* \"#utility.yul\":1106:1745   */\n    tag_10:\n        /* \"#utility.yul\":1328:1332   */\n      0x00\n        /* \"#utility.yul\":1366:1368   */\n      0x60\n        /* \"#utility.yul\":1355:1364   */\n      dup3\n        /* \"#utility.yul\":1351:1369   */\n      add\n        /* \"#utility.yul\":1343:1369   */\n      swap1\n      pop\n        /* \"#utility.yul\":1379:1450   */\n      tag_36\n        /* \"#utility.yul\":1447:1448   */\n      0x00\n        /* \"#utility.yul\":1436:1445   */\n      dup4\n        /* \"#utility.yul\":1432:1449   */\n      add\n        /* \"#utility.yul\":1423:1429   */\n      dup6\n        /* \"#utility.yul\":1379:1450   */\n      tag_21\n      jump\t// in\n    tag_36:\n        /* \"#utility.yul\":1497:1506   */\n      dup2\n        /* \"#utility.yul\":1491:1495   */\n      dup2\n        /* \"#utility.yul\":1487:1507   */\n      sub\n        /* \"#utility.yul\":1482:1484   */\n      0x20\n        /* \"#utility.yul\":1471:1480   */\n      dup4\n        /* \"#utility.yul\":1467:1485   */\n      add\n        /* \"#utility.yul\":1460:1508   */\n      mstore\n        /* \"#utility.yul\":1525:1656   */\n      tag_37\n        /* \"#utility.yul\":1651:1655   */\n      dup2\n        /* \"#utility.yul\":1525:1656   */\n      tag_25\n      jump\t// in\n    tag_37:\n        /* \"#utility.yul\":1517:1656   */\n      swap1\n      pop\n        /* \"#utility.yul\":1666:1738   */\n      tag_38\n        /* \"#utility.yul\":1734:1736   */\n      0x40\n        /* \"#utility.yul\":1723:1732   */\n      dup4\n        /* \"#utility.yul\":1719:1737   */\n      add\n        /* \"#utility.yul\":1710:1716   */\n      dup5\n        /* \"#utility.yul\":1666:1738   */\n      tag_31\n      jump\t// in\n    tag_38:\n        /* \"#utility.yul\":1106:1745   */\n      swap4\n      swap3\n      pop\n      pop\n      pop\n      jump\t// out\n        /* \"#utility.yul\":1832:2001   */\n    tag_28:\n        /* \"#utility.yul\":1916:1927   */\n      0x00\n        /* \"#utility.yul\":1950:1956   */\n      dup3\n        /* \"#utility.yul\":1945:1948   */\n      dup3\n        /* \"#utility.yul\":1938:1957   */\n      mstore\n        /* \"#utility.yul\":1990:1994   */\n      0x20\n        /* \"#utility.yul\":1985:1988   */\n      dup3\n        /* \"#utility.yul\":1981:1995   */\n      add\n        /* \"#utility.yul\":1966:1995   */\n      swap1\n      pop\n        /* \"#utility.yul\":1832:2001   */\n      swap3\n      swap2\n      pop\n      pop\n      jump\t// out\n        /* \"#utility.yul\":2007:2103   */\n    tag_24:\n        /* \"#utility.yul\":2044:2051   */\n      0x00\n        /* \"#utility.yul\":2073:2097   */\n      tag_43\n        /* \"#utility.yul\":2091:2096   */\n      dup3\n        /* \"#utility.yul\":2073:2097   */\n      tag_44\n      jump\t// in\n    tag_43:\n        /* \"#utility.yul\":2062:2097   */\n      swap1\n      pop\n        /* \"#utility.yul\":2007:2103   */\n      swap2\n      swap1\n      pop\n      jump\t// out\n        /* \"#utility.yul\":2109:2235   */\n    tag_44:\n        /* \"#utility.yul\":2146:2153   */\n      0x00\n        /* \"#utility.yul\":2186:2228   */\n      0xffffffffffffffffffffffffffffffffffffffff\n        /* \"#utility.yul\":2179:2184   */\n      dup3\n        /* \"#utility.yul\":2175:2229   */\n      and\n        /* \"#utility.yul\":2164:2229   */\n      swap1\n      pop\n        /* \"#utility.yul\":2109:2235   */\n      swap2\n      swap1\n      pop\n      jump\t// out\n        /* \"#utility.yul\":2241:2318   */\n    tag_34:\n        /* \"#utility.yul\":2278:2285   */\n      0x00\n        /* \"#utility.yul\":2307:2312   */\n      dup2\n        /* \"#utility.yul\":2296:2312   */\n      swap1\n      pop\n        /* \"#utility.yul\":2241:2318   */\n      swap2\n      swap1\n      pop\n      jump\t// out\n        /* \"#utility.yul\":2447:2564   */\n    tag_19:\n        /* \"#utility.yul\":2556:2557   */\n      0x00\n        /* \"#utility.yul\":2553:2554   */\n      dup1\n        /* \"#utility.yul\":2546:2558   */\n      revert\n        /* \"#utility.yul\":2570:2729   */\n    tag_30:\n        /* \"#utility.yul\":2710:2721   */\n      0x6861732056616c75650000000000000000000000000000000000000000000000\n        /* \"#utility.yul\":2706:2707   */\n      0x00\n        /* \"#utility.yul\":2698:2704   */\n      dup3\n        /* \"#utility.yul\":2694:2708   */\n      add\n        /* \"#utility.yul\":2687:2722   */\n      mstore\n        /* \"#utility.yul\":2570:2729   */\n      pop\n      jump\t// out\n        /* \"#utility.yul\":2735:2857   */\n    tag_15:\n        /* \"#utility.yul\":2808:2832   */\n      tag_52\n        /* \"#utility.yul\":2826:2831   */\n      dup2\n        /* \"#utility.yul\":2808:2832   */\n      tag_34\n      jump\t// in\n    tag_52:\n        /* \"#utility.yul\":2801:2806   */\n      dup2\n        /* \"#utility.yul\":2798:2833   */\n      eq\n        /* \"#utility.yul\":2788:2851   */\n      tag_53\n      jumpi\n        /* \"#utility.yul\":2847:2848   */\n      0x00\n        /* \"#utility.yul\":2844:2845   */\n      dup1\n        /* \"#utility.yul\":2837:2849   */\n      revert\n        /* \"#utility.yul\":2788:2851   */\n    tag_53:\n        /* \"#utility.yul\":2735:2857   */\n      pop\n      jump\t// out\n\n    auxdata: 0xa2646970667358221220b6e38cd3c7fec1690d0951037a58c2c3c56f09869212bb3857e4ccb1a68c5b6b64736f6c63430008070033\n}\n",
				"bytecode": {
					"linkReferences": {},
					"object": "608060405234801561001057600080fd5b5061020f806100206000396000f3fe608060405234801561001057600080fd5b506004361061002b5760003560e01c80635b4b73a914610030575b600080fd5b61004a6004803603810190610045919061009d565b61004c565b005b7f3028aee09e5f7149e98b3f7f8faa7e2cc5b353de720db250726b7c64d38b5f9c338260405161007d92919061010b565b60405180910390a150565b600081359050610097816101c2565b92915050565b6000602082840312156100b3576100b2610194565b5b60006100c184828501610088565b91505092915050565b6100d381610158565b82525050565b60006100e6600983610147565b91506100f182610199565b602082019050919050565b6101058161018a565b82525050565b600060608201905061012060008301856100ca565b8181036020830152610131816100d9565b905061014060408301846100fc565b9392505050565b600082825260208201905092915050565b60006101638261016a565b9050919050565b600073ffffffffffffffffffffffffffffffffffffffff82169050919050565b6000819050919050565b600080fd5b7f6861732056616c75650000000000000000000000000000000000000000000000600082015250565b6101cb8161018a565b81146101d657600080fd5b5056fea2646970667358221220b6e38cd3c7fec1690d0951037a58c2c3c56f09869212bb3857e4ccb1a68c5b6b64736f6c63430008070033",
					"opcodes": "PUSH1 0x80 PUSH1 0x40 MSTORE CALLVALUE DUP1 ISZERO PUSH2 0x10 JUMPI PUSH1 0x0 DUP1 REVERT JUMPDEST POP PUSH2 0x20F DUP1 PUSH2 0x20 PUSH1 0x0 CODECOPY PUSH1 0x0 RETURN INVALID PUSH1 0x80 PUSH1 0x40 MSTORE CALLVALUE DUP1 ISZERO PUSH2 0x10 JUMPI PUSH1 0x0 DUP1 REVERT JUMPDEST POP PUSH1 0x4 CALLDATASIZE LT PUSH2 0x2B JUMPI PUSH1 0x0 CALLDATALOAD PUSH1 0xE0 SHR DUP1 PUSH4 0x5B4B73A9 EQ PUSH2 0x30 JUMPI JUMPDEST PUSH1 0x0 DUP1 REVERT JUMPDEST PUSH2 0x4A PUSH1 0x4 DUP1 CALLDATASIZE SUB DUP2 ADD SWAP1 PUSH2 0x45 SWAP2 SWAP1 PUSH2 0x9D JUMP JUMPDEST PUSH2 0x4C JUMP JUMPDEST STOP JUMPDEST PUSH32 0x3028AEE09E5F7149E98B3F7F8FAA7E2CC5B353DE720DB250726B7C64D38B5F9C CALLER DUP3 PUSH1 0x40 MLOAD PUSH2 0x7D SWAP3 SWAP2 SWAP1 PUSH2 0x10B JUMP JUMPDEST PUSH1 0x40 MLOAD DUP1 SWAP2 SUB SWAP1 LOG1 POP JUMP JUMPDEST PUSH1 0x0 DUP2 CALLDATALOAD SWAP1 POP PUSH2 0x97 DUP2 PUSH2 0x1C2 JUMP JUMPDEST SWAP3 SWAP2 POP POP JUMP JUMPDEST PUSH1 0x0 PUSH1 0x20 DUP3 DUP5 SUB SLT ISZERO PUSH2 0xB3 JUMPI PUSH2 0xB2 PUSH2 0x194 JUMP JUMPDEST JUMPDEST PUSH1 0x0 PUSH2 0xC1 DUP5 DUP3 DUP6 ADD PUSH2 0x88 JUMP JUMPDEST SWAP2 POP POP SWAP3 SWAP2 POP POP JUMP JUMPDEST PUSH2 0xD3 DUP2 PUSH2 0x158 JUMP JUMPDEST DUP3 MSTORE POP POP JUMP JUMPDEST PUSH1 0x0 PUSH2 0xE6 PUSH1 0x9 DUP4 PUSH2 0x147 JUMP JUMPDEST SWAP2 POP PUSH2 0xF1 DUP3 PUSH2 0x199 JUMP JUMPDEST PUSH1 0x20 DUP3 ADD SWAP1 POP SWAP2 SWAP1 POP JUMP JUMPDEST PUSH2 0x105 DUP2 PUSH2 0x18A JUMP JUMPDEST DUP3 MSTORE POP POP JUMP JUMPDEST PUSH1 0x0 PUSH1 0x60 DUP3 ADD SWAP1 POP PUSH2 0x120 PUSH1 0x0 DUP4 ADD DUP6 PUSH2 0xCA JUMP JUMPDEST DUP2 DUP2 SUB PUSH1 0x20 DUP4 ADD MSTORE PUSH2 0x131 DUP2 PUSH2 0xD9 JUMP JUMPDEST SWAP1 POP PUSH2 0x140 PUSH1 0x40 DUP4 ADD DUP5 PUSH2 0xFC JUMP JUMPDEST SWAP4 SWAP3 POP POP POP JUMP JUMPDEST PUSH1 0x0 DUP3 DUP3 MSTORE PUSH1 0x20 DUP3 ADD SWAP1 POP SWAP3 SWAP2 POP POP JUMP JUMPDEST PUSH1 0x0 PUSH2 0x163 DUP3 PUSH2 0x16A JUMP JUMPDEST SWAP1 POP SWAP2 SWAP1 POP JUMP JUMPDEST PUSH1 0x0 PUSH20 0xFFFFFFFFFFFFFFFFFFFFFFFFFFFFFFFFFFFFFFFF DUP3 AND SWAP1 POP SWAP2 SWAP1 POP JUMP JUMPDEST PUSH1 0x0 DUP2 SWAP1 POP SWAP2 SWAP1 POP JUMP JUMPDEST PUSH1 0x0 DUP1 REVERT JUMPDEST PUSH32 0x6861732056616C75650000000000000000000000000000000000000000000000 PUSH1 0x0 DUP3 ADD MSTORE POP JUMP JUMPDEST PUSH2 0x1CB DUP2 PUSH2 0x18A JUMP JUMPDEST DUP2 EQ PUSH2 0x1D6 JUMPI PUSH1 0x0 DUP1 REVERT JUMPDEST POP JUMP INVALID LOG2 PUSH5 0x6970667358 0x22 SLT KECCAK256 0xB6 0xE3 DUP13 0xD3 0xC7 INVALID 0xC1 PUSH10 0xD0951037A58C2C3C56F MULMOD DUP7 SWAP3 SLT 0xBB CODESIZE JUMPI 0xE4 0xCC 0xB1 0xA6 DUP13 JUMPDEST PUSH12 0x64736F6C6343000807003300 "
				},
				"gasEstimates": {
					"creation": {
						"codeDepositCost": "105400",
						"executionCost": "153",
						"totalCost": "105553"
					},
					"external": {
						"setData(uint256)": "infinite"
					}
				},
				"methodIdentifiers": {
					"setData(uint256)": "5b4b73a9"
				}
			},
			"storageLayout": {
				"storage": [],
				"types": null
			},
			"userdoc": {
				"kind": "user",
				"methods": {},
				"version": 1
			}
		}
	}
}