{
	"callingFunctionParent.sol": {
		"B": {
			"abi": [
				{
					"anonymous": false,
					"inputs": [
						{
							"indexed": false,
							"internalType": "string",
							"name": "name",
							"type": "string"
						},
						{
							"indexed": false,
							"internalType": "uint256",
							"name": "age",
							"type": "uint256"
						}
					],
					"name": "log",
					"type": "event"
				},
				{
					"inputs": [],
					"name": "fun1",
					"outputs": [],
					"stateMutability": "nonpayable",
					"type": "function"
				},
				{
					"inputs": [],
					"name": "fun2",
					"outputs": [],
					"stateMutability": "nonpayable",
					"type": "function"
				}
			],
			"devdoc": {
				"kind": "dev",
				"methods": {},
				"version": 1
			},
			"evm": {
				"assembly": "    /* \"callingFunctionParent.sol\":332:585  contract B is A{... */\n  mstore(0x40, 0x80)\n  callvalue\n  dup1\n  iszero\n  tag_1\n  jumpi\n  0x00\n  dup1\n  revert\ntag_1:\n  pop\n  dataSize(sub_0)\n  dup1\n  dataOffset(sub_0)\n  0x00\n  codecopy\n  0x00\n  return\nstop\n\nsub_0: assembly {\n        /* \"callingFunctionParent.sol\":332:585  contract B is A{... */\n      mstore(0x40, 0x80)\n      callvalue\n      dup1\n      iszero\n      tag_1\n      jumpi\n      0x00\n      dup1\n      revert\n    tag_1:\n      pop\n      jumpi(tag_2, lt(calldatasize, 0x04))\n      shr(0xe0, calldataload(0x00))\n      dup1\n      0x157b5167\n      eq\n      tag_3\n      jumpi\n      dup1\n      0x446a45b7\n      eq\n      tag_4\n      jumpi\n    tag_2:\n      0x00\n      dup1\n      revert\n        /* \"callingFunctionParent.sol\":476:582  function fun2() public virtual override{... */\n    tag_3:\n      tag_5\n      tag_6\n      jump\t// in\n    tag_5:\n      stop\n        /* \"callingFunctionParent.sol\":353:470  function fun1() public virtual override {... */\n    tag_4:\n      tag_7\n      tag_8\n      jump\t// in\n    tag_7:\n      stop\n        /* \"callingFunctionParent.sol\":476:582  function fun2() public virtual override{... */\n    tag_6:\n        /* \"callingFunctionParent.sol\":530:548  log(\"B.func2\", 31) */\n      0xb60e72ccf6d57ab53eb84d7e94a9545806ed7f93c4d5673f11a64f03471e584e\n        /* \"callingFunctionParent.sol\":545:547  31 */\n      0x1f\n        /* \"callingFunctionParent.sol\":530:548  log(\"B.func2\", 31) */\n      mload(0x40)\n      tag_10\n      swap2\n      swap1\n      tag_11\n      jump\t// in\n    tag_10:\n      mload(0x40)\n      dup1\n      swap2\n      sub\n      swap1\n      log1\n        /* \"callingFunctionParent.sol\":559:571  super.fun2() */\n      tag_12\n        /* \"callingFunctionParent.sol\":559:569  super.fun2 */\n      tag_13\n        /* \"callingFunctionParent.sol\":559:571  super.fun2() */\n      jump\t// in\n    tag_12:\n        /* \"callingFunctionParent.sol\":476:582  function fun2() public virtual override{... */\n      jump\t// out\n        /* \"callingFunctionParent.sol\":353:470  function fun1() public virtual override {... */\n    tag_8:\n        /* \"callingFunctionParent.sol\":408:426  log(\"B.func1\", 31) */\n      0xb60e72ccf6d57ab53eb84d7e94a9545806ed7f93c4d5673f11a64f03471e584e\n        /* \"callingFunctionParent.sol\":423:425  31 */\n      0x1f\n        /* \"callingFunctionParent.sol\":408:426  log(\"B.func1\", 31) */\n      mload(0x40)\n      tag_15\n      swap2\n      swap1\n      tag_16\n      jump\t// in\n    tag_15:\n      mload(0x40)\n      dup1\n      swap2\n      sub\n      swap1\n      log1\n        /* \"callingFunctionParent.sol\":437:445  A.fun1() */\n      tag_17\n        /* \"callingFunctionParent.sol\":437:443  A.fun1 */\n      tag_18\n        /* \"callingFunctionParent.sol\":437:445  A.fun1() */\n      jump\t// in\n    tag_17:\n        /* \"callingFunctionParent.sol\":353:470  function fun1() public virtual override {... */\n      jump\t// out\n        /* \"callingFunctionParent.sol\":199:269  function fun2() public virtual{... */\n    tag_13:\n        /* \"callingFunctionParent.sol\":244:262  log(\"A.func2\", 21) */\n      0xb60e72ccf6d57ab53eb84d7e94a9545806ed7f93c4d5673f11a64f03471e584e\n        /* \"callingFunctionParent.sol\":259:261  21 */\n      0x15\n        /* \"callingFunctionParent.sol\":244:262  log(\"A.func2\", 21) */\n      mload(0x40)\n      tag_20\n      swap2\n      swap1\n      tag_21\n      jump\t// in\n    tag_20:\n      mload(0x40)\n      dup1\n      swap2\n      sub\n      swap1\n      log1\n        /* \"callingFunctionParent.sol\":199:269  function fun2() public virtual{... */\n      jump\t// out\n        /* \"callingFunctionParent.sol\":122:193  function fun1() public virtual {... */\n    tag_18:\n        /* \"callingFunctionParent.sol\":168:186  log(\"A.func1\", 21) */\n      0xb60e72ccf6d57ab53eb84d7e94a9545806ed7f93c4d5673f11a64f03471e584e\n        /* \"callingFunctionParent.sol\":183:185  21 */\n      0x15\n        /* \"callingFunctionParent.sol\":168:186  log(\"A.func1\", 21) */\n      mload(0x40)\n      tag_23\n      swap2\n      swap1\n      tag_24\n      jump\t// in\n    tag_23:\n      mload(0x40)\n      dup1\n      swap2\n      sub\n      swap1\n      log1\n        /* \"callingFunctionParent.sol\":122:193  function fun1() public virtual {... */\n      jump\t// out\n        /* \"#utility.yul\":7:156   */\n    tag_26:\n        /* \"#utility.yul\":103:149   */\n      tag_28\n        /* \"#utility.yul\":143:148   */\n      dup2\n        /* \"#utility.yul\":103:149   */\n      tag_29\n      jump\t// in\n    tag_28:\n        /* \"#utility.yul\":98:101   */\n      dup3\n        /* \"#utility.yul\":91:150   */\n      mstore\n        /* \"#utility.yul\":7:156   */\n      pop\n      pop\n      jump\t// out\n        /* \"#utility.yul\":162:311   */\n    tag_30:\n        /* \"#utility.yul\":258:304   */\n      tag_32\n        /* \"#utility.yul\":298:303   */\n      dup2\n        /* \"#utility.yul\":258:304   */\n      tag_33\n      jump\t// in\n    tag_32:\n        /* \"#utility.yul\":253:256   */\n      dup3\n        /* \"#utility.yul\":246:305   */\n      mstore\n        /* \"#utility.yul\":162:311   */\n      pop\n      pop\n      jump\t// out\n        /* \"#utility.yul\":317:682   */\n    tag_34:\n        /* \"#utility.yul\":459:462   */\n      0x00\n        /* \"#utility.yul\":480:546   */\n      tag_36\n        /* \"#utility.yul\":544:545   */\n      0x07\n        /* \"#utility.yul\":539:542   */\n      dup4\n        /* \"#utility.yul\":480:546   */\n      tag_37\n      jump\t// in\n    tag_36:\n        /* \"#utility.yul\":473:546   */\n      swap2\n      pop\n        /* \"#utility.yul\":555:648   */\n      tag_38\n        /* \"#utility.yul\":644:647   */\n      dup3\n        /* \"#utility.yul\":555:648   */\n      tag_39\n      jump\t// in\n    tag_38:\n        /* \"#utility.yul\":673:675   */\n      0x20\n        /* \"#utility.yul\":668:671   */\n      dup3\n        /* \"#utility.yul\":664:676   */\n      add\n        /* \"#utility.yul\":657:676   */\n      swap1\n      pop\n        /* \"#utility.yul\":317:682   */\n      swap2\n      swap1\n      pop\n      jump\t// out\n        /* \"#utility.yul\":688:1053   */\n    tag_40:\n        /* \"#utility.yul\":830:833   */\n      0x00\n        /* \"#utility.yul\":851:917   */\n      tag_42\n        /* \"#utility.yul\":915:916   */\n      0x07\n        /* \"#utility.yul\":910:913   */\n      dup4\n        /* \"#utility.yul\":851:917   */\n      tag_37\n      jump\t// in\n    tag_42:\n        /* \"#utility.yul\":844:917   */\n      swap2\n      pop\n        /* \"#utility.yul\":926:1019   */\n      tag_43\n        /* \"#utility.yul\":1015:1018   */\n      dup3\n        /* \"#utility.yul\":926:1019   */\n      tag_44\n      jump\t// in\n    tag_43:\n        /* \"#utility.yul\":1044:1046   */\n      0x20\n        /* \"#utility.yul\":1039:1042   */\n      dup3\n        /* \"#utility.yul\":1035:1047   */\n      add\n        /* \"#utility.yul\":1028:1047   */\n      swap1\n      pop\n        /* \"#utility.yul\":688:1053   */\n      swap2\n      swap1\n      pop\n      jump\t// out\n        /* \"#utility.yul\":1059:1424   */\n    tag_45:\n        /* \"#utility.yul\":1201:1204   */\n      0x00\n        /* \"#utility.yul\":1222:1288   */\n      tag_47\n        /* \"#utility.yul\":1286:1287   */\n      0x07\n        /* \"#utility.yul\":1281:1284   */\n      dup4\n        /* \"#utility.yul\":1222:1288   */\n      tag_37\n      jump\t// in\n    tag_47:\n        /* \"#utility.yul\":1215:1288   */\n      swap2\n      pop\n        /* \"#utility.yul\":1297:1390   */\n      tag_48\n        /* \"#utility.yul\":1386:1389   */\n      dup3\n        /* \"#utility.yul\":1297:1390   */\n      tag_49\n      jump\t// in\n    tag_48:\n        /* \"#utility.yul\":1415:1417   */\n      0x20\n        /* \"#utility.yul\":1410:1413   */\n      dup3\n        /* \"#utility.yul\":1406:1418   */\n      add\n        /* \"#utility.yul\":1399:1418   */\n      swap1\n      pop\n        /* \"#utility.yul\":1059:1424   */\n      swap2\n      swap1\n      pop\n      jump\t// out\n        /* \"#utility.yul\":1430:1795   */\n    tag_50:\n        /* \"#utility.yul\":1572:1575   */\n      0x00\n        /* \"#utility.yul\":1593:1659   */\n      tag_52\n        /* \"#utility.yul\":1657:1658   */\n      0x07\n        /* \"#utility.yul\":1652:1655   */\n      dup4\n        /* \"#utility.yul\":1593:1659   */\n      tag_37\n      jump\t// in\n    tag_52:\n        /* \"#utility.yul\":1586:1659   */\n      swap2\n      pop\n        /* \"#utility.yul\":1668:1761   */\n      tag_53\n        /* \"#utility.yul\":1757:1760   */\n      dup3\n        /* \"#utility.yul\":1668:1761   */\n      tag_54\n      jump\t// in\n    tag_53:\n        /* \"#utility.yul\":1786:1788   */\n      0x20\n        /* \"#utility.yul\":1781:1784   */\n      dup3\n        /* \"#utility.yul\":1777:1789   */\n      add\n        /* \"#utility.yul\":1770:1789   */\n      swap1\n      pop\n        /* \"#utility.yul\":1430:1795   */\n      swap2\n      swap1\n      pop\n      jump\t// out\n        /* \"#utility.yul\":1801:2348   */\n    tag_21:\n        /* \"#utility.yul\":2004:2008   */\n      0x00\n        /* \"#utility.yul\":2042:2044   */\n      0x40\n        /* \"#utility.yul\":2031:2040   */\n      dup3\n        /* \"#utility.yul\":2027:2045   */\n      add\n        /* \"#utility.yul\":2019:2045   */\n      swap1\n      pop\n        /* \"#utility.yul\":2091:2100   */\n      dup2\n        /* \"#utility.yul\":2085:2089   */\n      dup2\n        /* \"#utility.yul\":2081:2101   */\n      sub\n        /* \"#utility.yul\":2077:2078   */\n      0x00\n        /* \"#utility.yul\":2066:2075   */\n      dup4\n        /* \"#utility.yul\":2062:2079   */\n      add\n        /* \"#utility.yul\":2055:2102   */\n      mstore\n        /* \"#utility.yul\":2119:2250   */\n      tag_56\n        /* \"#utility.yul\":2245:2249   */\n      dup2\n        /* \"#utility.yul\":2119:2250   */\n      tag_34\n      jump\t// in\n    tag_56:\n        /* \"#utility.yul\":2111:2250   */\n      swap1\n      pop\n        /* \"#utility.yul\":2260:2341   */\n      tag_57\n        /* \"#utility.yul\":2337:2339   */\n      0x20\n        /* \"#utility.yul\":2326:2335   */\n      dup4\n        /* \"#utility.yul\":2322:2340   */\n      add\n        /* \"#utility.yul\":2313:2319   */\n      dup5\n        /* \"#utility.yul\":2260:2341   */\n      tag_26\n      jump\t// in\n    tag_57:\n        /* \"#utility.yul\":1801:2348   */\n      swap3\n      swap2\n      pop\n      pop\n      jump\t// out\n        /* \"#utility.yul\":2354:2901   */\n    tag_16:\n        /* \"#utility.yul\":2557:2561   */\n      0x00\n        /* \"#utility.yul\":2595:2597   */\n      0x40\n        /* \"#utility.yul\":2584:2593   */\n      dup3\n        /* \"#utility.yul\":2580:2598   */\n      add\n        /* \"#utility.yul\":2572:2598   */\n      swap1\n      pop\n        /* \"#utility.yul\":2644:2653   */\n      dup2\n        /* \"#utility.yul\":2638:2642   */\n      dup2\n        /* \"#utility.yul\":2634:2654   */\n      sub\n        /* \"#utility.yul\":2630:2631   */\n      0x00\n        /* \"#utility.yul\":2619:2628   */\n      dup4\n        /* \"#utility.yul\":2615:2632   */\n      add\n        /* \"#utility.yul\":2608:2655   */\n      mstore\n        /* \"#utility.yul\":2672:2803   */\n      tag_59\n        /* \"#utility.yul\":2798:2802   */\n      dup2\n        /* \"#utility.yul\":2672:2803   */\n      tag_40\n      jump\t// in\n    tag_59:\n        /* \"#utility.yul\":2664:2803   */\n      swap1\n      pop\n        /* \"#utility.yul\":2813:2894   */\n      tag_60\n        /* \"#utility.yul\":2890:2892   */\n      0x20\n        /* \"#utility.yul\":2879:2888   */\n      dup4\n        /* \"#utility.yul\":2875:2893   */\n      add\n        /* \"#utility.yul\":2866:2872   */\n      dup5\n        /* \"#utility.yul\":2813:2894   */\n      tag_30\n      jump\t// in\n    tag_60:\n        /* \"#utility.yul\":2354:2901   */\n      swap3\n      swap2\n      pop\n      pop\n      jump\t// out\n        /* \"#utility.yul\":2907:3454   */\n    tag_24:\n        /* \"#utility.yul\":3110:3114   */\n      0x00\n        /* \"#utility.yul\":3148:3150   */\n      0x40\n        /* \"#utility.yul\":3137:3146   */\n      dup3\n        /* \"#utility.yul\":3133:3151   */\n      add\n        /* \"#utility.yul\":3125:3151   */\n      swap1\n      pop\n        /* \"#utility.yul\":3197:3206   */\n      dup2\n        /* \"#utility.yul\":3191:3195   */\n      dup2\n        /* \"#utility.yul\":3187:3207   */\n      sub\n        /* \"#utility.yul\":3183:3184   */\n      0x00\n        /* \"#utility.yul\":3172:3181   */\n      dup4\n        /* \"#utility.yul\":3168:3185   */\n      add\n        /* \"#utility.yul\":3161:3208   */\n      mstore\n        /* \"#utility.yul\":3225:3356   */\n      tag_62\n        /* \"#utility.yul\":3351:3355   */\n      dup2\n        /* \"#utility.yul\":3225:3356   */\n      tag_45\n      jump\t// in\n    tag_62:\n        /* \"#utility.yul\":3217:3356   */\n      swap1\n      pop\n        /* \"#utility.yul\":3366:3447   */\n      tag_63\n        /* \"#utility.yul\":3443:3445   */\n      0x20\n        /* \"#utility.yul\":3432:3441   */\n      dup4\n        /* \"#utility.yul\":3428:3446   */\n      add\n        /* \"#utility.yul\":3419:3425   */\n      dup5\n        /* \"#utility.yul\":3366:3447   */\n      tag_26\n      jump\t// in\n    tag_63:\n        /* \"#utility.yul\":2907:3454   */\n      swap3\n      swap2\n      pop\n      pop\n      jump\t// out\n        /* \"#utility.yul\":3460:4007   */\n    tag_11:\n        /* \"#utility.yul\":3663:3667   */\n      0x00\n        /* \"#utility.yul\":3701:3703   */\n      0x40\n        /* \"#utility.yul\":3690:3699   */\n      dup3\n        /* \"#utility.yul\":3686:3704   */\n      add\n        /* \"#utility.yul\":3678:3704   */\n      swap1\n      pop\n        /* \"#utility.yul\":3750:3759   */\n      dup2\n        /* \"#utility.yul\":3744:3748   */\n      dup2\n        /* \"#utility.yul\":3740:3760   */\n      sub\n        /* \"#utility.yul\":3736:3737   */\n      0x00\n        /* \"#utility.yul\":3725:3734   */\n      dup4\n        /* \"#utility.yul\":3721:3738   */\n      add\n        /* \"#utility.yul\":3714:3761   */\n      mstore\n        /* \"#utility.yul\":3778:3909   */\n      tag_65\n        /* \"#utility.yul\":3904:3908   */\n      dup2\n        /* \"#utility.yul\":3778:3909   */\n      tag_50\n      jump\t// in\n    tag_65:\n        /* \"#utility.yul\":3770:3909   */\n      swap1\n      pop\n        /* \"#utility.yul\":3919:4000   */\n      tag_66\n        /* \"#utility.yul\":3996:3998   */\n      0x20\n        /* \"#utility.yul\":3985:3994   */\n      dup4\n        /* \"#utility.yul\":3981:3999   */\n      add\n        /* \"#utility.yul\":3972:3978   */\n      dup5\n        /* \"#utility.yul\":3919:4000   */\n      tag_30\n      jump\t// in\n    tag_66:\n        /* \"#utility.yul\":3460:4007   */\n      swap3\n      swap2\n      pop\n      pop\n      jump\t// out\n        /* \"#utility.yul\":4013:4182   */\n    tag_37:\n        /* \"#utility.yul\":4097:4108   */\n      0x00\n        /* \"#utility.yul\":4131:4137   */\n      dup3\n        /* \"#utility.yul\":4126:4129   */\n      dup3\n        /* \"#utility.yul\":4119:4138   */\n      mstore\n        /* \"#utility.yul\":4171:4175   */\n      0x20\n        /* \"#utility.yul\":4166:4169   */\n      dup3\n        /* \"#utility.yul\":4162:4176   */\n      add\n        /* \"#utility.yul\":4147:4176   */\n      swap1\n      pop\n        /* \"#utility.yul\":4013:4182   */\n      swap3\n      swap2\n      pop\n      pop\n      jump\t// out\n        /* \"#utility.yul\":4188:4265   */\n    tag_68:\n        /* \"#utility.yul\":4225:4232   */\n      0x00\n        /* \"#utility.yul\":4254:4259   */\n      dup2\n        /* \"#utility.yul\":4243:4259   */\n      swap1\n      pop\n        /* \"#utility.yul\":4188:4265   */\n      swap2\n      swap1\n      pop\n      jump\t// out\n        /* \"#utility.yul\":4271:4393   */\n    tag_29:\n        /* \"#utility.yul\":4330:4339   */\n      0x00\n        /* \"#utility.yul\":4363:4387   */\n      tag_71\n        /* \"#utility.yul\":4381:4386   */\n      dup3\n        /* \"#utility.yul\":4363:4387   */\n      tag_68\n      jump\t// in\n    tag_71:\n        /* \"#utility.yul\":4350:4387   */\n      swap1\n      pop\n        /* \"#utility.yul\":4271:4393   */\n      swap2\n      swap1\n      pop\n      jump\t// out\n        /* \"#utility.yul\":4399:4521   */\n    tag_33:\n        /* \"#utility.yul\":4458:4467   */\n      0x00\n        /* \"#utility.yul\":4491:4515   */\n      tag_73\n        /* \"#utility.yul\":4509:4514   */\n      dup3\n        /* \"#utility.yul\":4491:4515   */\n      tag_68\n      jump\t// in\n    tag_73:\n        /* \"#utility.yul\":4478:4515   */\n      swap1\n      pop\n        /* \"#utility.yul\":4399:4521   */\n      swap2\n      swap1\n      pop\n      jump\t// out\n        /* \"#utility.yul\":4527:4684   */\n    tag_39:\n        /* \"#utility.yul\":4667:4676   */\n      0x412e66756e633200000000000000000000000000000000000000000000000000\n        /* \"#utility.yul\":4663:4664   */\n      0x00\n        /* \"#utility.yul\":4655:4661   */\n      dup3\n        /* \"#utility.yul\":4651:4665   */\n      add\n        /* \"#utility.yul\":4644:4677   */\n      mstore\n        /* \"#utility.yul\":4527:4684   */\n      pop\n      jump\t// out\n        /* \"#utility.yul\":4690:4847   */\n    tag_44:\n        /* \"#utility.yul\":4830:4839   */\n      0x422e66756e633100000000000000000000000000000000000000000000000000\n        /* \"#utility.yul\":4826:4827   */\n      0x00\n        /* \"#utility.yul\":4818:4824   */\n      dup3\n        /* \"#utility.yul\":4814:4828   */\n      add\n        /* \"#utility.yul\":4807:4840   */\n      mstore\n        /* \"#utility.yul\":4690:4847   */\n      pop\n      jump\t// out\n        /* \"#utility.yul\":4853:5010   */\n    tag_49:\n        /* \"#utility.yul\":4993:5002   */\n      0x412e66756e633100000000000000000000000000000000000000000000000000\n        /* \"#utility.yul\":4989:4990   */\n      0x00\n        /* \"#utility.yul\":4981:4987   */\n      dup3\n        /* \"#utility.yul\":4977:4991   */\n      add\n        /* \"#utility.yul\":4970:5003   */\n      mstore\n        /* \"#utility.yul\":4853:5010   */\n      pop\n      jump\t// out\n        /* \"#utility.yul\":5016:5173   */\n    tag_54:\n        /* \"#utility.yul\":5156:5165   */\n      0x422e66756e633200000000000000000000000000000000000000000000000000\n        /* \"#utility.yul\":5152:5153   */\n      0x00\n        /* \"#utility.yul\":5144:5150   */\n      dup3\n        /* \"#utility.yul\":5140:5154   */\n      add\n        /* \"#utility.yul\":5133:5166   */\n      mstore\n        /* \"#utility.yul\":5016:5173   */\n      pop\n      jump\t// out\n\n    auxdata: 0xa264697066735822122085816770792e1ef1c0ed37730a59a09ae2b0529b9daf6b85e4b518e8c7e9701e64736f6c63430008070033\n}\n",
				"bytecode": {
					"linkReferences": {},
					"object": "608060405234801561001057600080fd5b506103c2806100206000396000f3fe608060405234801561001057600080fd5b50600436106100365760003560e01c8063157b51671461003b578063446a45b714610045575b600080fd5b61004361004f565b005b61004d610091565b005b7fb60e72ccf6d57ab53eb84d7e94a9545806ed7f93c4d5673f11a64f03471e584e601f60405161007f919061027b565b60405180910390a161008f6100d3565b565b7fb60e72ccf6d57ab53eb84d7e94a9545806ed7f93c4d5673f11a64f03471e584e601f6040516100c1919061021f565b60405180910390a16100d161010d565b565b7fb60e72ccf6d57ab53eb84d7e94a9545806ed7f93c4d5673f11a64f03471e584e601560405161010391906101f1565b60405180910390a1565b7fb60e72ccf6d57ab53eb84d7e94a9545806ed7f93c4d5673f11a64f03471e584e601560405161013d919061024d565b60405180910390a1565b610150816102c4565b82525050565b61015f816102d6565b82525050565b60006101726007836102a9565b915061017d826102e8565b602082019050919050565b60006101956007836102a9565b91506101a082610311565b602082019050919050565b60006101b86007836102a9565b91506101c38261033a565b602082019050919050565b60006101db6007836102a9565b91506101e682610363565b602082019050919050565b6000604082019050818103600083015261020a81610165565b90506102196020830184610147565b92915050565b6000604082019050818103600083015261023881610188565b90506102476020830184610156565b92915050565b60006040820190508181036000830152610266816101ab565b90506102756020830184610147565b92915050565b60006040820190508181036000830152610294816101ce565b90506102a36020830184610156565b92915050565b600082825260208201905092915050565b6000819050919050565b60006102cf826102ba565b9050919050565b60006102e1826102ba565b9050919050565b7f412e66756e633200000000000000000000000000000000000000000000000000600082015250565b7f422e66756e633100000000000000000000000000000000000000000000000000600082015250565b7f412e66756e633100000000000000000000000000000000000000000000000000600082015250565b7f422e66756e63320000000000000000000000000000000000000000000000000060008201525056fea264697066735822122085816770792e1ef1c0ed37730a59a09ae2b0529b9daf6b85e4b518e8c7e9701e64736f6c63430008070033",
					"opcodes": "PUSH1 0x80 PUSH1 0x40 MSTORE CALLVALUE DUP1 ISZERO PUSH2 0x10 JUMPI PUSH1 0x0 DUP1 REVERT JUMPDEST POP PUSH2 0x3C2 DUP1 PUSH2 0x20 PUSH1 0x0 CODECOPY PUSH1 0x0 RETURN INVALID PUSH1 0x80 PUSH1 0x40 MSTORE CALLVALUE DUP1 ISZERO PUSH2 0x10 JUMPI PUSH1 0x0 DUP1 REVERT JUMPDEST POP PUSH1 0x4 CALLDATASIZE LT PUSH2 0x36 JUMPI PUSH1 0x0 CALLDATALOAD PUSH1 0xE0 SHR DUP1 PUSH4 0x157B5167 EQ PUSH2 0x3B JUMPI DUP1 PUSH4 0x446A45B7 EQ PUSH2 0x45 JUMPI JUMPDEST PUSH1 0x0 DUP1 REVERT JUMPDEST PUSH2 0x43 PUSH2 0x4F JUMP JUMPDEST STOP JUMPDEST PUSH2 0x4D PUSH2 0x91 JUMP JUMPDEST STOP JUMPDEST PUSH32 0xB60E72CCF6D57AB53EB84D7E94A9545806ED7F93C4D5673F11A64F03471E584E PUSH1 0x1F PUSH1 0x40 MLOAD PUSH2 0x7F SWAP2 SWAP1 PUSH2 0x27B JUMP JUMPDEST PUSH1 0x40 MLOAD DUP1 SWAP2 SUB SWAP1 LOG1 PUSH2 0x8F PUSH2 0xD3 JUMP JUMPDEST JUMP JUMPDEST PUSH32 0xB60E72CCF6D57AB53EB84D7E94A9545806ED7F93C4D5673F11A64F03471E584E PUSH1 0x1F PUSH1 0x40 MLOAD PUSH2 0xC1 SWAP2 SWAP1 PUSH2 0x21F JUMP JUMPDEST PUSH1 0x40 MLOAD DUP1 SWAP2 SUB SWAP1 LOG1 PUSH2 0xD1 PUSH2 0x10D JUMP JUMPDEST JUMP JUMPDEST PUSH32 0xB60E72CCF6D57AB53EB84D7E94A9545806ED7F93C4D5673F11A64F03471E584E PUSH1 0x15 PUSH1 0x40 MLOAD PUSH2 0x103 SWAP2 SWAP1 PUSH2 0x1F1 JUMP JUMPDEST PUSH1 0x40 MLOAD DUP1 SWAP2 SUB SWAP1 LOG1 JUMP JUMPDEST PUSH32 0xB60E72CCF6D57AB53EB84D7E94A9545806ED7F93C4D5673F11A64F03471E584E PUSH1 0x15 PUSH1 0x40 MLOAD PUSH2 0x13D SWAP2 SWAP1 PUSH2 0x24D JUMP JUMPDEST PUSH1 0x40 MLOAD DUP1 SWAP2 SUB SWAP1 LOG1 JUMP JUMPDEST PUSH2 0x150 DUP2 PUSH2 0x2C4 JUMP JUMPDEST DUP3 MSTORE POP POP JUMP JUMPDEST PUSH2 0x15F DUP2 PUSH2 0x2D6 JUMP JUMPDEST DUP3 MSTORE POP POP JUMP JUMPDEST PUSH1 0x0 PUSH2 0x172 PUSH1 0x7 DUP4 PUSH2 0x2A9 JUMP JUMPDEST SWAP2 POP PUSH2 0x17D DUP3 PUSH2 0x2E8 JUMP JUMPDEST PUSH1 0x20 DUP3 ADD SWAP1 POP SWAP2 SWAP1 POP JUMP JUMPDEST PUSH1 0x0 PUSH2 0x195 PUSH1 0x7 DUP4 PUSH2 0x2A9 JUMP JUMPDEST SWAP2 POP PUSH2 0x1A0 DUP3 PUSH2 0x311 JUMP JUMPDEST PUSH1 0x20 DUP3 ADD SWAP1 POP SWAP2 SWAP1 POP JUMP JUMPDEST PUSH1 0x0 PUSH2 0x1B8 PUSH1 0x7 DUP4 PUSH2 0x2A9 JUMP JUMPDEST SWAP2 POP PUSH2 0x1C3 DUP3 PUSH2 0x33A JUMP JUMPDEST PUSH1 0x20 DUP3 ADD SWAP1 POP SWAP2 SWAP1 POP JUMP JUMPDEST PUSH1 0x0 PUSH2 0x1DB PUSH1 0x7 DUP4 PUSH2 0x2A9 JUMP JUMPDEST SWAP2 POP PUSH2 0x1E6 DUP3 PUSH2 0x363 JUMP JUMPDEST PUSH1 0x20 DUP3 ADD SWAP1 POP SWAP2 SWAP1 POP JUMP JUMPDEST PUSH1 0x0 PUSH1 0x40 DUP3 ADD SWAP1 POP DUP2 DUP2 SUB PUSH1 0x0 DUP4 ADD MSTORE PUSH2 0x20A DUP2 PUSH2 0x165 JUMP JUMPDEST SWAP1 POP PUSH2 0x219 PUSH1 0x20 DUP4 ADD DUP5 PUSH2 0x147 JUMP JUMPDEST SWAP3 SWAP2 POP POP JUMP JUMPDEST PUSH1 0x0 PUSH1 0x40 DUP3 ADD SWAP1 POP DUP2 DUP2 SUB PUSH1 0x0 DUP4 ADD MSTORE PUSH2 0x238 DUP2 PUSH2 0x188 JUMP JUMPDEST SWAP1 POP PUSH2 0x247 PUSH1 0x20 DUP4 ADD DUP5 PUSH2 0x156 JUMP JUMPDEST SWAP3 SWAP2 POP POP JUMP JUMPDEST PUSH1 0x0 PUSH1 0x40 DUP3 ADD SWAP1 POP DUP2 DUP2 SUB PUSH1 0x0 DUP4 ADD MSTORE PUSH2 0x266 DUP2 PUSH2 0x1AB JUMP JUMPDEST SWAP1 POP PUSH2 0x275 PUSH1 0x20 DUP4 ADD DUP5 PUSH2 0x147 JUMP JUMPDEST SWAP3 SWAP2 POP POP JUMP JUMPDEST PUSH1 0x0 PUSH1 0x40 DUP3 ADD SWAP1 POP DUP2 DUP2 SUB PUSH1 0x0 DUP4 ADD MSTORE PUSH2 0x294 DUP2 PUSH2 0x1CE JUMP JUMPDEST SWAP1 POP PUSH2 0x2A3 PUSH1 0x20 DUP4 ADD DUP5 PUSH2 0x156 JUMP JUMPDEST SWAP3 SWAP2 POP POP JUMP JUMPDEST PUSH1 0x0 DUP3 DUP3 MSTORE PUSH1 0x20 DUP3 ADD SWAP1 POP SWAP3 SWAP2 POP POP JUMP JUMPDEST PUSH1 0x0 DUP2 SWAP1 POP SWAP2 SWAP1 POP JUMP JUMPDEST PUSH1 0x0 PUSH2 0x2CF DUP3 PUSH2 0x2BA JUMP JUMPDEST SWAP1 POP SWAP2 SWAP1 POP JUMP JUMPDEST PUSH1 0x0 PUSH2 0x2E1 DUP3 PUSH2 0x2BA JUMP JUMPDEST SWAP1 POP SWAP2 SWAP1 POP JUMP JUMPDEST PUSH32 0x412E66756E633200000000000000000000000000000000000000000000000000 PUSH1 0x0 DUP3 ADD MSTORE POP JUMP JUMPDEST PUSH32 0x422E66756E633100000000000000000000000000000000000000000000000000 PUSH1 0x0 DUP3 ADD MSTORE POP JUMP JUMPDEST PUSH32 0x412E66756E633100000000000000000000000000000000000000000000000000 PUSH1 0x0 DUP3 ADD MSTORE POP JUMP JUMPDEST PUSH32 0x422E66756E633200000000000000000000000000000000000000000000000000 PUSH1 0x0 DUP3 ADD MSTORE POP JUMP INVALID LOG2 PUSH5 0x6970667358 0x22 SLT KECCAK256 DUP6 DUP2 PUSH8 0x70792E1EF1C0ED37 PUSH20 0xA59A09AE2B0529B9DAF6B85E4B518E8C7E9701E PUSH5 0x736F6C6343 STOP ADDMOD SMOD STOP CALLER "
				},
				"gasEstimates": {
					"creation": {
						"codeDepositCost": "192400",
						"executionCost": "238",
						"totalCost": "192638"
					},
					"external": {
						"fun1()": "infinite",
						"fun2()": "infinite"
					}
				},
				"methodIdentifiers": {
					"fun1()": "446a45b7",
					"fun2()": "157b5167"
				}
			},
			"storageLayout": {
				"storage": [],
				"types": null
			},
			"userdoc": {
				"kind": "user",
				"methods": {},
				"version": 1
			}
		}
	}
}