{
	"alltypesoffunction.sol": {
		"allTypesFunction": {
			"abi": [
				{
					"inputs": [],
					"name": "age",
					"outputs": [
						{
							"internalType": "uint256",
							"name": "",
							"type": "uint256"
						}
					],
					"stateMutability": "view",
					"type": "function"
				},
				{
					"inputs": [],
					"name": "pureFunctionImp",
					"outputs": [
						{
							"internalType": "uint256",
							"name": "",
							"type": "uint256"
						}
					],
					"stateMutability": "pure",
					"type": "function"
				},
				{
					"inputs": [],
					"name": "pureFunctionImp2",
					"outputs": [
						{
							"internalType": "uint256",
							"name": "",
							"type": "uint256"
						}
					],
					"stateMutability": "pure",
					"type": "function"
				},
				{
					"inputs": [],
					"name": "simpleFunctionImp",
					"outputs": [],
					"stateMutability": "nonpayable",
					"type": "function"
				},
				{
					"inputs": [],
					"name": "viewFuctionImpl",
					"outputs": [
						{
							"internalType": "uint256",
							"name": "",
							"type": "uint256"
						}
					],
					"stateMutability": "view",
					"type": "function"
				}
			],
			"devdoc": {
				"kind": "dev",
				"methods": {},
				"version": 1
			},
			"evm": {
				"assembly": "    /* \"alltypesoffunction.sol\":65:478  contract allTypesFunction{... */\n  mstore(0x40, 0x80)\n    /* \"alltypesoffunction.sol\":115:117  10 */\n  0x0a\n    /* \"alltypesoffunction.sol\":97:117  uint public age = 10 */\n  0x00\n  sstore\n    /* \"alltypesoffunction.sol\":65:478  contract allTypesFunction{... */\n  callvalue\n  dup1\n  iszero\n  tag_1\n  jumpi\n  0x00\n  dup1\n  revert\ntag_1:\n  pop\n  dataSize(sub_0)\n  dup1\n  dataOffset(sub_0)\n  0x00\n  codecopy\n  0x00\n  return\nstop\n\nsub_0: assembly {\n        /* \"alltypesoffunction.sol\":65:478  contract allTypesFunction{... */\n      mstore(0x40, 0x80)\n      callvalue\n      dup1\n      iszero\n      tag_1\n      jumpi\n      0x00\n      dup1\n      revert\n    tag_1:\n      pop\n      jumpi(tag_2, lt(calldatasize, 0x04))\n      shr(0xe0, calldataload(0x00))\n      dup1\n      0x262a9dff\n      eq\n      tag_3\n      jumpi\n      dup1\n      0x64d85fa5\n      eq\n      tag_4\n      jumpi\n      dup1\n      0x94a50cc8\n      eq\n      tag_5\n      jumpi\n      dup1\n      0xdf80da97\n      eq\n      tag_6\n      jumpi\n      dup1\n      0xfc262bfe\n      eq\n      tag_7\n      jumpi\n    tag_2:\n      0x00\n      dup1\n      revert\n        /* \"alltypesoffunction.sol\":97:117  uint public age = 10 */\n    tag_3:\n      tag_8\n      tag_9\n      jump\t// in\n    tag_8:\n      mload(0x40)\n      tag_10\n      swap2\n      swap1\n      tag_11\n      jump\t// in\n    tag_10:\n      mload(0x40)\n      dup1\n      swap2\n      sub\n      swap1\n      return\n        /* \"alltypesoffunction.sol\":301:409  function pureFunctionImp2() public pure returns(uint){... */\n    tag_4:\n      tag_12\n      tag_13\n      jump\t// in\n    tag_12:\n      mload(0x40)\n      tag_14\n      swap2\n      swap1\n      tag_11\n      jump\t// in\n    tag_14:\n      mload(0x40)\n      dup1\n      swap2\n      sub\n      swap1\n      return\n        /* \"alltypesoffunction.sol\":212:294  function pureFunctionImp() public pure returns(uint){... */\n    tag_5:\n      tag_15\n      tag_16\n      jump\t// in\n    tag_15:\n      mload(0x40)\n      tag_17\n      swap2\n      swap1\n      tag_11\n      jump\t// in\n    tag_17:\n      mload(0x40)\n      dup1\n      swap2\n      sub\n      swap1\n      return\n        /* \"alltypesoffunction.sol\":415:475  function simpleFunctionImp() public{... */\n    tag_6:\n      tag_18\n      tag_19\n      jump\t// in\n    tag_18:\n      stop\n        /* \"alltypesoffunction.sol\":124:206  function viewFuctionImpl() public view returns(uint){... */\n    tag_7:\n      tag_20\n      tag_21\n      jump\t// in\n    tag_20:\n      mload(0x40)\n      tag_22\n      swap2\n      swap1\n      tag_11\n      jump\t// in\n    tag_22:\n      mload(0x40)\n      dup1\n      swap2\n      sub\n      swap1\n      return\n        /* \"alltypesoffunction.sol\":97:117  uint public age = 10 */\n    tag_9:\n      sload(0x00)\n      dup2\n      jump\t// out\n        /* \"alltypesoffunction.sol\":301:409  function pureFunctionImp2() public pure returns(uint){... */\n    tag_13:\n        /* \"alltypesoffunction.sol\":349:353  uint */\n      0x00\n        /* \"alltypesoffunction.sol\":373:379  uint x */\n      dup1\n        /* \"alltypesoffunction.sol\":382:384  20 */\n      0x14\n        /* \"alltypesoffunction.sol\":373:384  uint x = 20 */\n      swap1\n      pop\n        /* \"alltypesoffunction.sol\":401:402  x */\n      dup1\n        /* \"alltypesoffunction.sol\":394:402  return x */\n      swap2\n      pop\n      pop\n        /* \"alltypesoffunction.sol\":301:409  function pureFunctionImp2() public pure returns(uint){... */\n      swap1\n      jump\t// out\n        /* \"alltypesoffunction.sol\":212:294  function pureFunctionImp() public pure returns(uint){... */\n    tag_16:\n        /* \"alltypesoffunction.sol\":259:263  uint */\n      0x00\n        /* \"alltypesoffunction.sol\":281:283  10 */\n      0x0a\n        /* \"alltypesoffunction.sol\":274:283  return 10 */\n      swap1\n      pop\n        /* \"alltypesoffunction.sol\":212:294  function pureFunctionImp() public pure returns(uint){... */\n      swap1\n      jump\t// out\n        /* \"alltypesoffunction.sol\":415:475  function simpleFunctionImp() public{... */\n    tag_19:\n        /* \"alltypesoffunction.sol\":466:468  10 */\n      0x0a\n        /* \"alltypesoffunction.sol\":461:464  age */\n      0x00\n      dup1\n        /* \"alltypesoffunction.sol\":461:468  age+=10 */\n      dup3\n      dup3\n      sload\n      tag_26\n      swap2\n      swap1\n      tag_27\n      jump\t// in\n    tag_26:\n      swap3\n      pop\n      pop\n      dup2\n      swap1\n      sstore\n      pop\n        /* \"alltypesoffunction.sol\":415:475  function simpleFunctionImp() public{... */\n      jump\t// out\n        /* \"alltypesoffunction.sol\":124:206  function viewFuctionImpl() public view returns(uint){... */\n    tag_21:\n        /* \"alltypesoffunction.sol\":171:175  uint */\n      0x00\n        /* \"alltypesoffunction.sol\":197:199  10 */\n      0x0a\n        /* \"alltypesoffunction.sol\":193:196  age */\n      sload(0x00)\n        /* \"alltypesoffunction.sol\":193:199  age+10 */\n      tag_29\n      swap2\n      swap1\n      tag_27\n      jump\t// in\n    tag_29:\n        /* \"alltypesoffunction.sol\":186:199  return age+10 */\n      swap1\n      pop\n        /* \"alltypesoffunction.sol\":124:206  function viewFuctionImpl() public view returns(uint){... */\n      swap1\n      jump\t// out\n        /* \"#utility.yul\":7:125   */\n    tag_31:\n        /* \"#utility.yul\":94:118   */\n      tag_33\n        /* \"#utility.yul\":112:117   */\n      dup2\n        /* \"#utility.yul\":94:118   */\n      tag_34\n      jump\t// in\n    tag_33:\n        /* \"#utility.yul\":89:92   */\n      dup3\n        /* \"#utility.yul\":82:119   */\n      mstore\n        /* \"#utility.yul\":7:125   */\n      pop\n      pop\n      jump\t// out\n        /* \"#utility.yul\":131:353   */\n    tag_11:\n        /* \"#utility.yul\":224:228   */\n      0x00\n        /* \"#utility.yul\":262:264   */\n      0x20\n        /* \"#utility.yul\":251:260   */\n      dup3\n        /* \"#utility.yul\":247:265   */\n      add\n        /* \"#utility.yul\":239:265   */\n      swap1\n      pop\n        /* \"#utility.yul\":275:346   */\n      tag_36\n        /* \"#utility.yul\":343:344   */\n      0x00\n        /* \"#utility.yul\":332:341   */\n      dup4\n        /* \"#utility.yul\":328:345   */\n      add\n        /* \"#utility.yul\":319:325   */\n      dup5\n        /* \"#utility.yul\":275:346   */\n      tag_31\n      jump\t// in\n    tag_36:\n        /* \"#utility.yul\":131:353   */\n      swap3\n      swap2\n      pop\n      pop\n      jump\t// out\n        /* \"#utility.yul\":359:664   */\n    tag_27:\n        /* \"#utility.yul\":399:402   */\n      0x00\n        /* \"#utility.yul\":418:438   */\n      tag_38\n        /* \"#utility.yul\":436:437   */\n      dup3\n        /* \"#utility.yul\":418:438   */\n      tag_34\n      jump\t// in\n    tag_38:\n        /* \"#utility.yul\":413:438   */\n      swap2\n      pop\n        /* \"#utility.yul\":452:472   */\n      tag_39\n        /* \"#utility.yul\":470:471   */\n      dup4\n        /* \"#utility.yul\":452:472   */\n      tag_34\n      jump\t// in\n    tag_39:\n        /* \"#utility.yul\":447:472   */\n      swap3\n      pop\n        /* \"#utility.yul\":606:607   */\n      dup3\n        /* \"#utility.yul\":538:604   */\n      0xffffffffffffffffffffffffffffffffffffffffffffffffffffffffffffffff\n        /* \"#utility.yul\":534:608   */\n      sub\n        /* \"#utility.yul\":531:532   */\n      dup3\n        /* \"#utility.yul\":528:609   */\n      gt\n        /* \"#utility.yul\":525:632   */\n      iszero\n      tag_40\n      jumpi\n        /* \"#utility.yul\":612:630   */\n      tag_41\n      tag_42\n      jump\t// in\n    tag_41:\n        /* \"#utility.yul\":525:632   */\n    tag_40:\n        /* \"#utility.yul\":656:657   */\n      dup3\n        /* \"#utility.yul\":653:654   */\n      dup3\n        /* \"#utility.yul\":649:658   */\n      add\n        /* \"#utility.yul\":642:658   */\n      swap1\n      pop\n        /* \"#utility.yul\":359:664   */\n      swap3\n      swap2\n      pop\n      pop\n      jump\t// out\n        /* \"#utility.yul\":670:747   */\n    tag_34:\n        /* \"#utility.yul\":707:714   */\n      0x00\n        /* \"#utility.yul\":736:741   */\n      dup2\n        /* \"#utility.yul\":725:741   */\n      swap1\n      pop\n        /* \"#utility.yul\":670:747   */\n      swap2\n      swap1\n      pop\n      jump\t// out\n        /* \"#utility.yul\":753:933   */\n    tag_42:\n        /* \"#utility.yul\":801:878   */\n      0x4e487b7100000000000000000000000000000000000000000000000000000000\n        /* \"#utility.yul\":798:799   */\n      0x00\n        /* \"#utility.yul\":791:879   */\n      mstore\n        /* \"#utility.yul\":898:902   */\n      0x11\n        /* \"#utility.yul\":895:896   */\n      0x04\n        /* \"#utility.yul\":888:903   */\n      mstore\n        /* \"#utility.yul\":922:926   */\n      0x24\n        /* \"#utility.yul\":919:920   */\n      0x00\n        /* \"#utility.yul\":912:927   */\n      revert\n\n    auxdata: 0xa264697066735822122065d8d21e24c088d5e3e5c488fe56a571a50d5fbe42f44fbd51f14b5ce03545e364736f6c63430008070033\n}\n",
				"bytecode": {
					"linkReferences": {},
					"object": "6080604052600a60005534801561001557600080fd5b5061021b806100256000396000f3fe608060405234801561001057600080fd5b50600436106100575760003560e01c8063262a9dff1461005c57806364d85fa51461007a57806394a50cc814610098578063df80da97146100b6578063fc262bfe146100c0575b600080fd5b6100646100de565b604051610071919061013b565b60405180910390f35b6100826100e4565b60405161008f919061013b565b60405180910390f35b6100a06100f2565b6040516100ad919061013b565b60405180910390f35b6100be6100fb565b005b6100c8610116565b6040516100d5919061013b565b60405180910390f35b60005481565b600080601490508091505090565b6000600a905090565b600a60008082825461010d9190610156565b92505081905550565b6000600a6000546101279190610156565b905090565b610135816101ac565b82525050565b6000602082019050610150600083018461012c565b92915050565b6000610161826101ac565b915061016c836101ac565b9250827fffffffffffffffffffffffffffffffffffffffffffffffffffffffffffffffff038211156101a1576101a06101b6565b5b828201905092915050565b6000819050919050565b7f4e487b7100000000000000000000000000000000000000000000000000000000600052601160045260246000fdfea264697066735822122065d8d21e24c088d5e3e5c488fe56a571a50d5fbe42f44fbd51f14b5ce03545e364736f6c63430008070033",
					"opcodes": "PUSH1 0x80 PUSH1 0x40 MSTORE PUSH1 0xA PUSH1 0x0 SSTORE CALLVALUE DUP1 ISZERO PUSH2 0x15 JUMPI PUSH1 0x0 DUP1 REVERT JUMPDEST POP PUSH2 0x21B DUP1 PUSH2 0x25 PUSH1 0x0 CODECOPY PUSH1 0x0 RETURN INVALID PUSH1 0x80 PUSH1 0x40 MSTORE CALLVALUE DUP1 ISZERO PUSH2 0x10 JUMPI PUSH1 0x0 DUP1 REVERT JUMPDEST POP PUSH1 0x4 CALLDATASIZE LT PUSH2 0x57 JUMPI PUSH1 0x0 CALLDATALOAD PUSH1 0xE0 SHR DUP1 PUSH4 0x262A9DFF EQ PUSH2 0x5C JUMPI DUP1 PUSH4 0x64D85FA5 EQ PUSH2 0x7A JUMPI DUP1 PUSH4 0x94A50CC8 EQ PUSH2 0x98 JUMPI DUP1 PUSH4 0xDF80DA97 EQ PUSH2 0xB6 JUMPI DUP1 PUSH4 0xFC262BFE EQ PUSH2 0xC0 JUMPI JUMPDEST PUSH1 0x0 DUP1 REVERT JUMPDEST PUSH2 0x64 PUSH2 0xDE JUMP JUMPDEST PUSH1 0x40 MLOAD PUSH2 0x71 SWAP2 SWAP1 PUSH2 0x13B JUMP JUMPDEST PUSH1 0x40 MLOAD DUP1 SWAP2 SUB SWAP1 RETURN JUMPDEST PUSH2 0x82 PUSH2 0xE4 JUMP JUMPDEST PUSH1 0x40 MLOAD PUSH2 0x8F SWAP2 SWAP1 PUSH2 0x13B JUMP JUMPDEST PUSH1 0x40 MLOAD DUP1 SWAP2 SUB SWAP1 RETURN JUMPDEST PUSH2 0xA0 PUSH2 0xF2 JUMP JUMPDEST PUSH1 0x40 MLOAD PUSH2 0xAD SWAP2 SWAP1 PUSH2 0x13B JUMP JUMPDEST PUSH1 0x40 MLOAD DUP1 SWAP2 SUB SWAP1 RETURN JUMPDEST PUSH2 0xBE PUSH2 0xFB JUMP JUMPDEST STOP JUMPDEST PUSH2 0xC8 PUSH2 0x116 JUMP JUMPDEST PUSH1 0x40 MLOAD PUSH2 0xD5 SWAP2 SWAP1 PUSH2 0x13B JUMP JUMPDEST PUSH1 0x40 MLOAD DUP1 SWAP2 SUB SWAP1 RETURN JUMPDEST PUSH1 0x0 SLOAD DUP2 JUMP JUMPDEST PUSH1 0x0 DUP1 PUSH1 0x14 SWAP1 POP DUP1 SWAP2 POP POP SWAP1 JUMP JUMPDEST PUSH1 0x0 PUSH1 0xA SWAP1 POP SWAP1 JUMP JUMPDEST PUSH1 0xA PUSH1 0x0 DUP1 DUP3 DUP3 SLOAD PUSH2 0x10D SWAP2 SWAP1 PUSH2 0x156 JUMP JUMPDEST SWAP3 POP POP DUP2 SWAP1 SSTORE POP JUMP JUMPDEST PUSH1 0x0 PUSH1 0xA PUSH1 0x0 SLOAD PUSH2 0x127 SWAP2 SWAP1 PUSH2 0x156 JUMP JUMPDEST SWAP1 POP SWAP1 JUMP JUMPDEST PUSH2 0x135 DUP2 PUSH2 0x1AC JUMP JUMPDEST DUP3 MSTORE POP POP JUMP JUMPDEST PUSH1 0x0 PUSH1 0x20 DUP3 ADD SWAP1 POP PUSH2 0x150 PUSH1 0x0 DUP4 ADD DUP5 PUSH2 0x12C JUMP JUMPDEST SWAP3 SWAP2 POP POP JUMP JUMPDEST PUSH1 0x0 PUSH2 0x161 DUP3 PUSH2 0x1AC JUMP JUMPDEST SWAP2 POP PUSH2 0x16C DUP4 PUSH2 0x1AC JUMP JUMPDEST SWAP3 POP DUP3 PUSH32 0xFFFFFFFFFFFFFFFFFFFFFFFFFFFFFFFFFFFFFFFFFFFFFFFFFFFFFFFFFFFFFFFF SUB DUP3 GT ISZERO PUSH2 0x1A1 JUMPI PUSH2 0x1A0 PUSH2 0x1B6 JUMP JUMPDEST JUMPDEST DUP3 DUP3 ADD SWAP1 POP SWAP3 SWAP2 POP POP JUMP JUMPDEST PUSH1 0x0 DUP2 SWAP1 POP SWAP2 SWAP1 POP JUMP JUMPDEST PUSH32 0x4E487B7100000000000000000000000000000000000000000000000000000000 PUSH1 0x0 MSTORE PUSH1 0x11 PUSH1 0x4 MSTORE PUSH1 0x24 PUSH1 0x0 REVERT INVALID LOG2 PUSH5 0x6970667358 0x22 SLT KECCAK256 PUSH6 0xD8D21E24C088 0xD5 0xE3 0xE5 0xC4 DUP9 INVALID JUMP 0xA5 PUSH18 0xA50D5FBE42F44FBD51F14B5CE03545E36473 PUSH16 0x6C634300080700330000000000000000 "
				},
				"gasEstimates": {
					"creation": {
						"codeDepositCost": "107800",
						"executionCost": "22259",
						"totalCost": "130059"
					},
					"external": {
						"age()": "2407",
						"pureFunctionImp()": "359",
						"pureFunctionImp2()": "350",
						"simpleFunctionImp()": "infinite",
						"viewFuctionImpl()": "infinite"
					}
				},
				"methodIdentifiers": {
					"age()": "262a9dff",
					"pureFunctionImp()": "94a50cc8",
					"pureFunctionImp2()": "64d85fa5",
					"simpleFunctionImp()": "df80da97",
					"viewFuctionImpl()": "fc262bfe"
				}
			},
			"storageLayout": {
				"storage": [
					{
						"astId": 4,
						"contract": "alltypesoffunction.sol:allTypesFunction",
						"label": "age",
						"offset": 0,
						"slot": "0",
						"type": "t_uint256"
					}
				],
				"types": {
					"t_uint256": {
						"encoding": "inplace",
						"label": "uint256",
						"numberOfBytes": "32"
					}
				}
			},
			"userdoc": {
				"kind": "user",
				"methods": {},
				"version": 1
			}
		}
	}
}