{
	"dynamicsizearr.sol": {
		"fixedsizearray": {
			"abi": [
				{
					"inputs": [],
					"name": "getarr",
					"outputs": [
						{
							"internalType": "uint256[]",
							"name": "",
							"type": "uint256[]"
						}
					],
					"stateMutability": "view",
					"type": "function"
				},
				{
					"inputs": [
						{
							"internalType": "uint256",
							"name": "_pos",
							"type": "uint256"
						},
						{
							"internalType": "uint256",
							"name": "_value",
							"type": "uint256"
						}
					],
					"name": "updatearr",
					"outputs": [],
					"stateMutability": "nonpayable",
					"type": "function"
				}
			],
			"devdoc": {
				"kind": "dev",
				"methods": {},
				"version": 1
			},
			"evm": {
				"assembly": "    /* \"dynamicsizearr.sol\":63:367  contract fixedsizearray{... */\n  mstore(0x40, 0x80)\n    /* \"dynamicsizearr.sol\":93:126  uint[] arr = [10, 20, 30, 40, 50] */\n  mload(0x40)\n  dup1\n  0xa0\n  add\n  0x40\n  mstore\n  dup1\n    /* \"dynamicsizearr.sol\":107:109  10 */\n  0x0a\n    /* \"dynamicsizearr.sol\":93:126  uint[] arr = [10, 20, 30, 40, 50] */\n  0xff\n  and\n  dup2\n  mstore\n  0x20\n  add\n    /* \"dynamicsizearr.sol\":111:113  20 */\n  0x14\n    /* \"dynamicsizearr.sol\":93:126  uint[] arr = [10, 20, 30, 40, 50] */\n  0xff\n  and\n  dup2\n  mstore\n  0x20\n  add\n    /* \"dynamicsizearr.sol\":115:117  30 */\n  0x1e\n    /* \"dynamicsizearr.sol\":93:126  uint[] arr = [10, 20, 30, 40, 50] */\n  0xff\n  and\n  dup2\n  mstore\n  0x20\n  add\n    /* \"dynamicsizearr.sol\":119:121  40 */\n  0x28\n    /* \"dynamicsizearr.sol\":93:126  uint[] arr = [10, 20, 30, 40, 50] */\n  0xff\n  and\n  dup2\n  mstore\n  0x20\n  add\n    /* \"dynamicsizearr.sol\":123:125  50 */\n  0x32\n    /* \"dynamicsizearr.sol\":93:126  uint[] arr = [10, 20, 30, 40, 50] */\n  0xff\n  and\n  dup2\n  mstore\n  pop\n  0x00\n  swap1\n  0x05\n  tag_1\n  swap3\n  swap2\n  swap1\n  tag_2\n  jump\t// in\ntag_1:\n  pop\n    /* \"dynamicsizearr.sol\":63:367  contract fixedsizearray{... */\n  callvalue\n  dup1\n  iszero\n  tag_3\n  jumpi\n  0x00\n  dup1\n  revert\ntag_3:\n  pop\n  jump(tag_4)\ntag_2:\n  dup3\n  dup1\n  sload\n  dup3\n  dup3\n  sstore\n  swap1\n  0x00\n  mstore\n  keccak256(0x00, 0x20)\n  swap1\n  dup2\n  add\n  swap3\n  dup3\n  iszero\n  tag_5\n  jumpi\n  swap2\n  0x20\n  mul\n  dup3\n  add\ntag_6:\n  dup3\n  dup2\n  gt\n  iszero\n  tag_7\n  jumpi\n  dup3\n  mload\n  dup3\n  swap1\n  0xff\n  and\n  swap1\n  sstore\n  swap2\n  0x20\n  add\n  swap2\n  swap1\n  0x01\n  add\n  swap1\n  jump(tag_6)\ntag_7:\ntag_5:\n  pop\n  swap1\n  pop\n  tag_8\n  swap2\n  swap1\n  tag_9\n  jump\t// in\ntag_8:\n  pop\n  swap1\n  jump\t// out\ntag_9:\ntag_10:\n  dup1\n  dup3\n  gt\n  iszero\n  tag_11\n  jumpi\n  0x00\n  dup2\n  0x00\n  swap1\n  sstore\n  pop\n  0x01\n  add\n  jump(tag_10)\ntag_11:\n  pop\n  swap1\n  jump\t// out\ntag_4:\n  dataSize(sub_0)\n  dup1\n  dataOffset(sub_0)\n  0x00\n  codecopy\n  0x00\n  return\nstop\n\nsub_0: assembly {\n        /* \"dynamicsizearr.sol\":63:367  contract fixedsizearray{... */\n      mstore(0x40, 0x80)\n      callvalue\n      dup1\n      iszero\n      tag_1\n      jumpi\n      0x00\n      dup1\n      revert\n    tag_1:\n      pop\n      jumpi(tag_2, lt(calldatasize, 0x04))\n      shr(0xe0, calldataload(0x00))\n      dup1\n      0x6bc7deae\n      eq\n      tag_3\n      jumpi\n      dup1\n      0x9fd44f5a\n      eq\n      tag_4\n      jumpi\n    tag_2:\n      0x00\n      dup1\n      revert\n        /* \"dynamicsizearr.sol\":133:212  function getarr() public view returns(uint[] memory){... */\n    tag_3:\n      tag_5\n      tag_6\n      jump\t// in\n    tag_5:\n      mload(0x40)\n      tag_7\n      swap2\n      swap1\n      tag_8\n      jump\t// in\n    tag_7:\n      mload(0x40)\n      dup1\n      swap2\n      sub\n      swap1\n      return\n        /* \"dynamicsizearr.sol\":218:365  function updatearr(uint _pos, uint _value) public{... */\n    tag_4:\n      tag_9\n      0x04\n      dup1\n      calldatasize\n      sub\n      dup2\n      add\n      swap1\n      tag_10\n      swap2\n      swap1\n      tag_11\n      jump\t// in\n    tag_10:\n      tag_12\n      jump\t// in\n    tag_9:\n      stop\n        /* \"dynamicsizearr.sol\":133:212  function getarr() public view returns(uint[] memory){... */\n    tag_6:\n        /* \"dynamicsizearr.sol\":171:184  uint[] memory */\n      0x60\n        /* \"dynamicsizearr.sol\":202:205  arr */\n      0x00\n        /* \"dynamicsizearr.sol\":195:205  return arr */\n      dup1\n      sload\n      dup1\n      0x20\n      mul\n      0x20\n      add\n      mload(0x40)\n      swap1\n      dup2\n      add\n      0x40\n      mstore\n      dup1\n      swap3\n      swap2\n      swap1\n      dup2\n      dup2\n      mstore\n      0x20\n      add\n      dup3\n      dup1\n      sload\n      dup1\n      iszero\n      tag_14\n      jumpi\n      0x20\n      mul\n      dup3\n      add\n      swap2\n      swap1\n      0x00\n      mstore\n      keccak256(0x00, 0x20)\n      swap1\n    tag_15:\n      dup2\n      sload\n      dup2\n      mstore\n      0x20\n      add\n      swap1\n      0x01\n      add\n      swap1\n      dup1\n      dup4\n      gt\n      tag_15\n      jumpi\n    tag_14:\n      pop\n      pop\n      pop\n      pop\n      pop\n      swap1\n      pop\n        /* \"dynamicsizearr.sol\":133:212  function getarr() public view returns(uint[] memory){... */\n      swap1\n      jump\t// out\n        /* \"dynamicsizearr.sol\":218:365  function updatearr(uint _pos, uint _value) public{... */\n    tag_12:\n        /* \"dynamicsizearr.sol\":296:300  _pos */\n      dup2\n        /* \"dynamicsizearr.sol\":292:293  1 */\n      0x01\n        /* \"dynamicsizearr.sol\":280:283  arr */\n      0x00\n        /* \"dynamicsizearr.sol\":280:290  arr.length */\n      dup1\n      sload\n      swap1\n      pop\n        /* \"dynamicsizearr.sol\":280:293  arr.length -1 */\n      tag_17\n      swap2\n      swap1\n      tag_18\n      jump\t// in\n    tag_17:\n        /* \"dynamicsizearr.sol\":280:300  arr.length -1 > _pos */\n      gt\n        /* \"dynamicsizearr.sol\":277:350  if(arr.length -1 > _pos){... */\n      iszero\n      tag_19\n      jumpi\n        /* \"dynamicsizearr.sol\":327:333  _value */\n      dup1\n        /* \"dynamicsizearr.sol\":315:318  arr */\n      0x00\n        /* \"dynamicsizearr.sol\":319:323  _pos */\n      dup4\n        /* \"dynamicsizearr.sol\":315:324  arr[_pos] */\n      dup2\n      sload\n      dup2\n      lt\n      tag_20\n      jumpi\n      tag_21\n      tag_22\n      jump\t// in\n    tag_21:\n    tag_20:\n      swap1\n      0x00\n      mstore\n      keccak256(0x00, 0x20)\n      add\n        /* \"dynamicsizearr.sol\":315:333  arr[_pos] = _value */\n      dup2\n      swap1\n      sstore\n      pop\n        /* \"dynamicsizearr.sol\":277:350  if(arr.length -1 > _pos){... */\n      jump(tag_24)\n    tag_19:\n    tag_24:\n        /* \"dynamicsizearr.sol\":218:365  function updatearr(uint _pos, uint _value) public{... */\n      pop\n      pop\n      jump\t// out\n        /* \"#utility.yul\":7:146   */\n    tag_26:\n        /* \"#utility.yul\":53:58   */\n      0x00\n        /* \"#utility.yul\":91:97   */\n      dup2\n        /* \"#utility.yul\":78:98   */\n      calldataload\n        /* \"#utility.yul\":69:98   */\n      swap1\n      pop\n        /* \"#utility.yul\":107:140   */\n      tag_28\n        /* \"#utility.yul\":134:139   */\n      dup2\n        /* \"#utility.yul\":107:140   */\n      tag_29\n      jump\t// in\n    tag_28:\n        /* \"#utility.yul\":7:146   */\n      swap3\n      swap2\n      pop\n      pop\n      jump\t// out\n        /* \"#utility.yul\":152:626   */\n    tag_11:\n        /* \"#utility.yul\":220:226   */\n      0x00\n        /* \"#utility.yul\":228:234   */\n      dup1\n        /* \"#utility.yul\":277:279   */\n      0x40\n        /* \"#utility.yul\":265:274   */\n      dup4\n        /* \"#utility.yul\":256:263   */\n      dup6\n        /* \"#utility.yul\":252:275   */\n      sub\n        /* \"#utility.yul\":248:280   */\n      slt\n        /* \"#utility.yul\":245:364   */\n      iszero\n      tag_31\n      jumpi\n        /* \"#utility.yul\":283:362   */\n      tag_32\n      tag_33\n      jump\t// in\n    tag_32:\n        /* \"#utility.yul\":245:364   */\n    tag_31:\n        /* \"#utility.yul\":403:404   */\n      0x00\n        /* \"#utility.yul\":428:481   */\n      tag_34\n        /* \"#utility.yul\":473:480   */\n      dup6\n        /* \"#utility.yul\":464:470   */\n      dup3\n        /* \"#utility.yul\":453:462   */\n      dup7\n        /* \"#utility.yul\":449:471   */\n      add\n        /* \"#utility.yul\":428:481   */\n      tag_26\n      jump\t// in\n    tag_34:\n        /* \"#utility.yul\":418:481   */\n      swap3\n      pop\n        /* \"#utility.yul\":374:491   */\n      pop\n        /* \"#utility.yul\":530:532   */\n      0x20\n        /* \"#utility.yul\":556:609   */\n      tag_35\n        /* \"#utility.yul\":601:608   */\n      dup6\n        /* \"#utility.yul\":592:598   */\n      dup3\n        /* \"#utility.yul\":581:590   */\n      dup7\n        /* \"#utility.yul\":577:599   */\n      add\n        /* \"#utility.yul\":556:609   */\n      tag_26\n      jump\t// in\n    tag_35:\n        /* \"#utility.yul\":546:609   */\n      swap2\n      pop\n        /* \"#utility.yul\":501:619   */\n      pop\n        /* \"#utility.yul\":152:626   */\n      swap3\n      pop\n      swap3\n      swap1\n      pop\n      jump\t// out\n        /* \"#utility.yul\":632:811   */\n    tag_36:\n        /* \"#utility.yul\":701:711   */\n      0x00\n        /* \"#utility.yul\":722:768   */\n      tag_38\n        /* \"#utility.yul\":764:767   */\n      dup4\n        /* \"#utility.yul\":756:762   */\n      dup4\n        /* \"#utility.yul\":722:768   */\n      tag_39\n      jump\t// in\n    tag_38:\n        /* \"#utility.yul\":800:804   */\n      0x20\n        /* \"#utility.yul\":795:798   */\n      dup4\n        /* \"#utility.yul\":791:805   */\n      add\n        /* \"#utility.yul\":777:805   */\n      swap1\n      pop\n        /* \"#utility.yul\":632:811   */\n      swap3\n      swap2\n      pop\n      pop\n      jump\t// out\n        /* \"#utility.yul\":847:1579   */\n    tag_40:\n        /* \"#utility.yul\":966:969   */\n      0x00\n        /* \"#utility.yul\":995:1049   */\n      tag_42\n        /* \"#utility.yul\":1043:1048   */\n      dup3\n        /* \"#utility.yul\":995:1049   */\n      tag_43\n      jump\t// in\n    tag_42:\n        /* \"#utility.yul\":1065:1151   */\n      tag_44\n        /* \"#utility.yul\":1144:1150   */\n      dup2\n        /* \"#utility.yul\":1139:1142   */\n      dup6\n        /* \"#utility.yul\":1065:1151   */\n      tag_45\n      jump\t// in\n    tag_44:\n        /* \"#utility.yul\":1058:1151   */\n      swap4\n      pop\n        /* \"#utility.yul\":1175:1231   */\n      tag_46\n        /* \"#utility.yul\":1225:1230   */\n      dup4\n        /* \"#utility.yul\":1175:1231   */\n      tag_47\n      jump\t// in\n    tag_46:\n        /* \"#utility.yul\":1254:1261   */\n      dup1\n        /* \"#utility.yul\":1285:1286   */\n      0x00\n        /* \"#utility.yul\":1270:1554   */\n    tag_48:\n        /* \"#utility.yul\":1295:1301   */\n      dup4\n        /* \"#utility.yul\":1292:1293   */\n      dup2\n        /* \"#utility.yul\":1289:1302   */\n      lt\n        /* \"#utility.yul\":1270:1554   */\n      iszero\n      tag_50\n      jumpi\n        /* \"#utility.yul\":1371:1377   */\n      dup2\n        /* \"#utility.yul\":1365:1378   */\n      mload\n        /* \"#utility.yul\":1398:1461   */\n      tag_51\n        /* \"#utility.yul\":1457:1460   */\n      dup9\n        /* \"#utility.yul\":1442:1455   */\n      dup3\n        /* \"#utility.yul\":1398:1461   */\n      tag_36\n      jump\t// in\n    tag_51:\n        /* \"#utility.yul\":1391:1461   */\n      swap8\n      pop\n        /* \"#utility.yul\":1484:1544   */\n      tag_52\n        /* \"#utility.yul\":1537:1543   */\n      dup4\n        /* \"#utility.yul\":1484:1544   */\n      tag_53\n      jump\t// in\n    tag_52:\n        /* \"#utility.yul\":1474:1544   */\n      swap3\n      pop\n        /* \"#utility.yul\":1330:1554   */\n      pop\n        /* \"#utility.yul\":1317:1318   */\n      0x01\n        /* \"#utility.yul\":1314:1315   */\n      dup2\n        /* \"#utility.yul\":1310:1319   */\n      add\n        /* \"#utility.yul\":1305:1319   */\n      swap1\n      pop\n        /* \"#utility.yul\":1270:1554   */\n      jump(tag_48)\n    tag_50:\n        /* \"#utility.yul\":1274:1288   */\n      pop\n        /* \"#utility.yul\":1570:1573   */\n      dup6\n        /* \"#utility.yul\":1563:1573   */\n      swap4\n      pop\n        /* \"#utility.yul\":971:1579   */\n      pop\n      pop\n      pop\n        /* \"#utility.yul\":847:1579   */\n      swap3\n      swap2\n      pop\n      pop\n      jump\t// out\n        /* \"#utility.yul\":1585:1693   */\n    tag_39:\n        /* \"#utility.yul\":1662:1686   */\n      tag_55\n        /* \"#utility.yul\":1680:1685   */\n      dup2\n        /* \"#utility.yul\":1662:1686   */\n      tag_56\n      jump\t// in\n    tag_55:\n        /* \"#utility.yul\":1657:1660   */\n      dup3\n        /* \"#utility.yul\":1650:1687   */\n      mstore\n        /* \"#utility.yul\":1585:1693   */\n      pop\n      pop\n      jump\t// out\n        /* \"#utility.yul\":1699:2072   */\n    tag_8:\n        /* \"#utility.yul\":1842:1846   */\n      0x00\n        /* \"#utility.yul\":1880:1882   */\n      0x20\n        /* \"#utility.yul\":1869:1878   */\n      dup3\n        /* \"#utility.yul\":1865:1883   */\n      add\n        /* \"#utility.yul\":1857:1883   */\n      swap1\n      pop\n        /* \"#utility.yul\":1929:1938   */\n      dup2\n        /* \"#utility.yul\":1923:1927   */\n      dup2\n        /* \"#utility.yul\":1919:1939   */\n      sub\n        /* \"#utility.yul\":1915:1916   */\n      0x00\n        /* \"#utility.yul\":1904:1913   */\n      dup4\n        /* \"#utility.yul\":1900:1917   */\n      add\n        /* \"#utility.yul\":1893:1940   */\n      mstore\n        /* \"#utility.yul\":1957:2065   */\n      tag_58\n        /* \"#utility.yul\":2060:2064   */\n      dup2\n        /* \"#utility.yul\":2051:2057   */\n      dup5\n        /* \"#utility.yul\":1957:2065   */\n      tag_40\n      jump\t// in\n    tag_58:\n        /* \"#utility.yul\":1949:2065   */\n      swap1\n      pop\n        /* \"#utility.yul\":1699:2072   */\n      swap3\n      swap2\n      pop\n      pop\n      jump\t// out\n        /* \"#utility.yul\":2159:2291   */\n    tag_47:\n        /* \"#utility.yul\":2226:2230   */\n      0x00\n        /* \"#utility.yul\":2249:2252   */\n      dup2\n        /* \"#utility.yul\":2241:2252   */\n      swap1\n      pop\n        /* \"#utility.yul\":2279:2283   */\n      0x20\n        /* \"#utility.yul\":2274:2277   */\n      dup3\n        /* \"#utility.yul\":2270:2284   */\n      add\n        /* \"#utility.yul\":2262:2284   */\n      swap1\n      pop\n        /* \"#utility.yul\":2159:2291   */\n      swap2\n      swap1\n      pop\n      jump\t// out\n        /* \"#utility.yul\":2297:2411   */\n    tag_43:\n        /* \"#utility.yul\":2364:2370   */\n      0x00\n        /* \"#utility.yul\":2398:2403   */\n      dup2\n        /* \"#utility.yul\":2392:2404   */\n      mload\n        /* \"#utility.yul\":2382:2404   */\n      swap1\n      pop\n        /* \"#utility.yul\":2297:2411   */\n      swap2\n      swap1\n      pop\n      jump\t// out\n        /* \"#utility.yul\":2417:2530   */\n    tag_53:\n        /* \"#utility.yul\":2487:2491   */\n      0x00\n        /* \"#utility.yul\":2519:2523   */\n      0x20\n        /* \"#utility.yul\":2514:2517   */\n      dup3\n        /* \"#utility.yul\":2510:2524   */\n      add\n        /* \"#utility.yul\":2502:2524   */\n      swap1\n      pop\n        /* \"#utility.yul\":2417:2530   */\n      swap2\n      swap1\n      pop\n      jump\t// out\n        /* \"#utility.yul\":2536:2720   */\n    tag_45:\n        /* \"#utility.yul\":2635:2646   */\n      0x00\n        /* \"#utility.yul\":2669:2675   */\n      dup3\n        /* \"#utility.yul\":2664:2667   */\n      dup3\n        /* \"#utility.yul\":2657:2676   */\n      mstore\n        /* \"#utility.yul\":2709:2713   */\n      0x20\n        /* \"#utility.yul\":2704:2707   */\n      dup3\n        /* \"#utility.yul\":2700:2714   */\n      add\n        /* \"#utility.yul\":2685:2714   */\n      swap1\n      pop\n        /* \"#utility.yul\":2536:2720   */\n      swap3\n      swap2\n      pop\n      pop\n      jump\t// out\n        /* \"#utility.yul\":2726:2917   */\n    tag_18:\n        /* \"#utility.yul\":2766:2770   */\n      0x00\n        /* \"#utility.yul\":2786:2806   */\n      tag_66\n        /* \"#utility.yul\":2804:2805   */\n      dup3\n        /* \"#utility.yul\":2786:2806   */\n      tag_56\n      jump\t// in\n    tag_66:\n        /* \"#utility.yul\":2781:2806   */\n      swap2\n      pop\n        /* \"#utility.yul\":2820:2840   */\n      tag_67\n        /* \"#utility.yul\":2838:2839   */\n      dup4\n        /* \"#utility.yul\":2820:2840   */\n      tag_56\n      jump\t// in\n    tag_67:\n        /* \"#utility.yul\":2815:2840   */\n      swap3\n      pop\n        /* \"#utility.yul\":2859:2860   */\n      dup3\n        /* \"#utility.yul\":2856:2857   */\n      dup3\n        /* \"#utility.yul\":2853:2861   */\n      lt\n        /* \"#utility.yul\":2850:2884   */\n      iszero\n      tag_68\n      jumpi\n        /* \"#utility.yul\":2864:2882   */\n      tag_69\n      tag_70\n      jump\t// in\n    tag_69:\n        /* \"#utility.yul\":2850:2884   */\n    tag_68:\n        /* \"#utility.yul\":2909:2910   */\n      dup3\n        /* \"#utility.yul\":2906:2907   */\n      dup3\n        /* \"#utility.yul\":2902:2911   */\n      sub\n        /* \"#utility.yul\":2894:2911   */\n      swap1\n      pop\n        /* \"#utility.yul\":2726:2917   */\n      swap3\n      swap2\n      pop\n      pop\n      jump\t// out\n        /* \"#utility.yul\":2923:3000   */\n    tag_56:\n        /* \"#utility.yul\":2960:2967   */\n      0x00\n        /* \"#utility.yul\":2989:2994   */\n      dup2\n        /* \"#utility.yul\":2978:2994   */\n      swap1\n      pop\n        /* \"#utility.yul\":2923:3000   */\n      swap2\n      swap1\n      pop\n      jump\t// out\n        /* \"#utility.yul\":3006:3186   */\n    tag_70:\n        /* \"#utility.yul\":3054:3131   */\n      0x4e487b7100000000000000000000000000000000000000000000000000000000\n        /* \"#utility.yul\":3051:3052   */\n      0x00\n        /* \"#utility.yul\":3044:3132   */\n      mstore\n        /* \"#utility.yul\":3151:3155   */\n      0x11\n        /* \"#utility.yul\":3148:3149   */\n      0x04\n        /* \"#utility.yul\":3141:3156   */\n      mstore\n        /* \"#utility.yul\":3175:3179   */\n      0x24\n        /* \"#utility.yul\":3172:3173   */\n      0x00\n        /* \"#utility.yul\":3165:3180   */\n      revert\n        /* \"#utility.yul\":3192:3372   */\n    tag_22:\n        /* \"#utility.yul\":3240:3317   */\n      0x4e487b7100000000000000000000000000000000000000000000000000000000\n        /* \"#utility.yul\":3237:3238   */\n      0x00\n        /* \"#utility.yul\":3230:3318   */\n      mstore\n        /* \"#utility.yul\":3337:3341   */\n      0x32\n        /* \"#utility.yul\":3334:3335   */\n      0x04\n        /* \"#utility.yul\":3327:3342   */\n      mstore\n        /* \"#utility.yul\":3361:3365   */\n      0x24\n        /* \"#utility.yul\":3358:3359   */\n      0x00\n        /* \"#utility.yul\":3351:3366   */\n      revert\n        /* \"#utility.yul\":3501:3618   */\n    tag_33:\n        /* \"#utility.yul\":3610:3611   */\n      0x00\n        /* \"#utility.yul\":3607:3608   */\n      dup1\n        /* \"#utility.yul\":3600:3612   */\n      revert\n        /* \"#utility.yul\":3624:3746   */\n    tag_29:\n        /* \"#utility.yul\":3697:3721   */\n      tag_78\n        /* \"#utility.yul\":3715:3720   */\n      dup2\n        /* \"#utility.yul\":3697:3721   */\n      tag_56\n      jump\t// in\n    tag_78:\n        /* \"#utility.yul\":3690:3695   */\n      dup2\n        /* \"#utility.yul\":3687:3722   */\n      eq\n        /* \"#utility.yul\":3677:3740   */\n      tag_79\n      jumpi\n        /* \"#utility.yul\":3736:3737   */\n      0x00\n        /* \"#utility.yul\":3733:3734   */\n      dup1\n        /* \"#utility.yul\":3726:3738   */\n      revert\n        /* \"#utility.yul\":3677:3740   */\n    tag_79:\n        /* \"#utility.yul\":3624:3746   */\n      pop\n      jump\t// out\n\n    auxdata: 0xa26469706673582212204b8b9bd9d7bc3cff8cf5c26e108b3d7d549e76371de081f0d91029d8ad23f54f64736f6c63430008070033\n}\n",
				"bytecode": {
					"linkReferences": {},
					"object": "60806040526040518060a00160405280600a60ff168152602001601460ff168152602001601e60ff168152602001602860ff168152602001603260ff16815250600090600561004f929190610062565b5034801561005c57600080fd5b506100d1565b8280548282559060005260206000209081019282156100a3579160200282015b828111156100a2578251829060ff16905591602001919060010190610082565b5b5090506100b091906100b4565b5090565b5b808211156100cd5760008160009055506001016100b5565b5090565b610336806100e06000396000f3fe608060405234801561001057600080fd5b50600436106100365760003560e01c80636bc7deae1461003b5780639fd44f5a14610059575b600080fd5b610043610075565b60405161005091906101ed565b60405180910390f35b610073600480360381019061006e9190610128565b6100cd565b005b606060008054806020026020016040519081016040528092919081815260200182805480156100c357602002820191906000526020600020905b8154815260200190600101908083116100af575b5050505050905090565b8160016000805490506100e09190610248565b111561010e5780600083815481106100fb576100fa6102b5565b5b906000526020600020018190555061010f565b5b5050565b600081359050610122816102e9565b92915050565b6000806040838503121561013f5761013e6102e4565b5b600061014d85828601610113565b925050602061015e85828601610113565b9150509250929050565b600061017483836101de565b60208301905092915050565b600061018b8261021f565b6101958185610237565b93506101a08361020f565b8060005b838110156101d15781516101b88882610168565b97506101c38361022a565b9250506001810190506101a4565b5085935050505092915050565b6101e78161027c565b82525050565b600060208201905081810360008301526102078184610180565b905092915050565b6000819050602082019050919050565b600081519050919050565b6000602082019050919050565b600082825260208201905092915050565b60006102538261027c565b915061025e8361027c565b92508282101561027157610270610286565b5b828203905092915050565b6000819050919050565b7f4e487b7100000000000000000000000000000000000000000000000000000000600052601160045260246000fd5b7f4e487b7100000000000000000000000000000000000000000000000000000000600052603260045260246000fd5b600080fd5b6102f28161027c565b81146102fd57600080fd5b5056fea26469706673582212204b8b9bd9d7bc3cff8cf5c26e108b3d7d549e76371de081f0d91029d8ad23f54f64736f6c63430008070033",
					"opcodes": "PUSH1 0x80 PUSH1 0x40 MSTORE PUSH1 0x40 MLOAD DUP1 PUSH1 0xA0 ADD PUSH1 0x40 MSTORE DUP1 PUSH1 0xA PUSH1 0xFF AND DUP2 MSTORE PUSH1 0x20 ADD PUSH1 0x14 PUSH1 0xFF AND DUP2 MSTORE PUSH1 0x20 ADD PUSH1 0x1E PUSH1 0xFF AND DUP2 MSTORE PUSH1 0x20 ADD PUSH1 0x28 PUSH1 0xFF AND DUP2 MSTORE PUSH1 0x20 ADD PUSH1 0x32 PUSH1 0xFF AND DUP2 MSTORE POP PUSH1 0x0 SWAP1 PUSH1 0x5 PUSH2 0x4F SWAP3 SWAP2 SWAP1 PUSH2 0x62 JUMP JUMPDEST POP CALLVALUE DUP1 ISZERO PUSH2 0x5C JUMPI PUSH1 0x0 DUP1 REVERT JUMPDEST POP PUSH2 0xD1 JUMP JUMPDEST DUP3 DUP1 SLOAD DUP3 DUP3 SSTORE SWAP1 PUSH1 0x0 MSTORE PUSH1 0x20 PUSH1 0x0 KECCAK256 SWAP1 DUP2 ADD SWAP3 DUP3 ISZERO PUSH2 0xA3 JUMPI SWAP2 PUSH1 0x20 MUL DUP3 ADD JUMPDEST DUP3 DUP2 GT ISZERO PUSH2 0xA2 JUMPI DUP3 MLOAD DUP3 SWAP1 PUSH1 0xFF AND SWAP1 SSTORE SWAP2 PUSH1 0x20 ADD SWAP2 SWAP1 PUSH1 0x1 ADD SWAP1 PUSH2 0x82 JUMP JUMPDEST JUMPDEST POP SWAP1 POP PUSH2 0xB0 SWAP2 SWAP1 PUSH2 0xB4 JUMP JUMPDEST POP SWAP1 JUMP JUMPDEST JUMPDEST DUP1 DUP3 GT ISZERO PUSH2 0xCD JUMPI PUSH1 0x0 DUP2 PUSH1 0x0 SWAP1 SSTORE POP PUSH1 0x1 ADD PUSH2 0xB5 JUMP JUMPDEST POP SWAP1 JUMP JUMPDEST PUSH2 0x336 DUP1 PUSH2 0xE0 PUSH1 0x0 CODECOPY PUSH1 0x0 RETURN INVALID PUSH1 0x80 PUSH1 0x40 MSTORE CALLVALUE DUP1 ISZERO PUSH2 0x10 JUMPI PUSH1 0x0 DUP1 REVERT JUMPDEST POP PUSH1 0x4 CALLDATASIZE LT PUSH2 0x36 JUMPI PUSH1 0x0 CALLDATALOAD PUSH1 0xE0 SHR DUP1 PUSH4 0x6BC7DEAE EQ PUSH2 0x3B JUMPI DUP1 PUSH4 0x9FD44F5A EQ PUSH2 0x59 JUMPI JUMPDEST PUSH1 0x0 DUP1 REVERT JUMPDEST PUSH2 0x43 PUSH2 0x75 JUMP JUMPDEST PUSH1 0x40 MLOAD PUSH2 0x50 SWAP2 SWAP1 PUSH2 0x1ED JUMP JUMPDEST PUSH1 0x40 MLOAD DUP1 SWAP2 SUB SWAP1 RETURN JUMPDEST PUSH2 0x73 PUSH1 0x4 DUP1 CALLDATASIZE SUB DUP2 ADD SWAP1 PUSH2 0x6E SWAP2 SWAP1 PUSH2 0x128 JUMP JUMPDEST PUSH2 0xCD JUMP JUMPDEST STOP JUMPDEST PUSH1 0x60 PUSH1 0x0 DUP1 SLOAD DUP1 PUSH1 0x20 MUL PUSH1 0x20 ADD PUSH1 0x40 MLOAD SWAP1 DUP2 ADD PUSH1 0x40 MSTORE DUP1 SWAP3 SWAP2 SWAP1 DUP2 DUP2 MSTORE PUSH1 0x20 ADD DUP3 DUP1 SLOAD DUP1 ISZERO PUSH2 0xC3 JUMPI PUSH1 0x20 MUL DUP3 ADD SWAP2 SWAP1 PUSH1 0x0 MSTORE PUSH1 0x20 PUSH1 0x0 KECCAK256 SWAP1 JUMPDEST DUP2 SLOAD DUP2 MSTORE PUSH1 0x20 ADD SWAP1 PUSH1 0x1 ADD SWAP1 DUP1 DUP4 GT PUSH2 0xAF JUMPI JUMPDEST POP POP POP POP POP SWAP1 POP SWAP1 JUMP JUMPDEST DUP2 PUSH1 0x1 PUSH1 0x0 DUP1 SLOAD SWAP1 POP PUSH2 0xE0 SWAP2 SWAP1 PUSH2 0x248 JUMP JUMPDEST GT ISZERO PUSH2 0x10E JUMPI DUP1 PUSH1 0x0 DUP4 DUP2 SLOAD DUP2 LT PUSH2 0xFB JUMPI PUSH2 0xFA PUSH2 0x2B5 JUMP JUMPDEST JUMPDEST SWAP1 PUSH1 0x0 MSTORE PUSH1 0x20 PUSH1 0x0 KECCAK256 ADD DUP2 SWAP1 SSTORE POP PUSH2 0x10F JUMP JUMPDEST JUMPDEST POP POP JUMP JUMPDEST PUSH1 0x0 DUP2 CALLDATALOAD SWAP1 POP PUSH2 0x122 DUP2 PUSH2 0x2E9 JUMP JUMPDEST SWAP3 SWAP2 POP POP JUMP JUMPDEST PUSH1 0x0 DUP1 PUSH1 0x40 DUP4 DUP6 SUB SLT ISZERO PUSH2 0x13F JUMPI PUSH2 0x13E PUSH2 0x2E4 JUMP JUMPDEST JUMPDEST PUSH1 0x0 PUSH2 0x14D DUP6 DUP3 DUP7 ADD PUSH2 0x113 JUMP JUMPDEST SWAP3 POP POP PUSH1 0x20 PUSH2 0x15E DUP6 DUP3 DUP7 ADD PUSH2 0x113 JUMP JUMPDEST SWAP2 POP POP SWAP3 POP SWAP3 SWAP1 POP JUMP JUMPDEST PUSH1 0x0 PUSH2 0x174 DUP4 DUP4 PUSH2 0x1DE JUMP JUMPDEST PUSH1 0x20 DUP4 ADD SWAP1 POP SWAP3 SWAP2 POP POP JUMP JUMPDEST PUSH1 0x0 PUSH2 0x18B DUP3 PUSH2 0x21F JUMP JUMPDEST PUSH2 0x195 DUP2 DUP6 PUSH2 0x237 JUMP JUMPDEST SWAP4 POP PUSH2 0x1A0 DUP4 PUSH2 0x20F JUMP JUMPDEST DUP1 PUSH1 0x0 JUMPDEST DUP4 DUP2 LT ISZERO PUSH2 0x1D1 JUMPI DUP2 MLOAD PUSH2 0x1B8 DUP9 DUP3 PUSH2 0x168 JUMP JUMPDEST SWAP8 POP PUSH2 0x1C3 DUP4 PUSH2 0x22A JUMP JUMPDEST SWAP3 POP POP PUSH1 0x1 DUP2 ADD SWAP1 POP PUSH2 0x1A4 JUMP JUMPDEST POP DUP6 SWAP4 POP POP POP POP SWAP3 SWAP2 POP POP JUMP JUMPDEST PUSH2 0x1E7 DUP2 PUSH2 0x27C JUMP JUMPDEST DUP3 MSTORE POP POP JUMP JUMPDEST PUSH1 0x0 PUSH1 0x20 DUP3 ADD SWAP1 POP DUP2 DUP2 SUB PUSH1 0x0 DUP4 ADD MSTORE PUSH2 0x207 DUP2 DUP5 PUSH2 0x180 JUMP JUMPDEST SWAP1 POP SWAP3 SWAP2 POP POP JUMP JUMPDEST PUSH1 0x0 DUP2 SWAP1 POP PUSH1 0x20 DUP3 ADD SWAP1 POP SWAP2 SWAP1 POP JUMP JUMPDEST PUSH1 0x0 DUP2 MLOAD SWAP1 POP SWAP2 SWAP1 POP JUMP JUMPDEST PUSH1 0x0 PUSH1 0x20 DUP3 ADD SWAP1 POP SWAP2 SWAP1 POP JUMP JUMPDEST PUSH1 0x0 DUP3 DUP3 MSTORE PUSH1 0x20 DUP3 ADD SWAP1 POP SWAP3 SWAP2 POP POP JUMP JUMPDEST PUSH1 0x0 PUSH2 0x253 DUP3 PUSH2 0x27C JUMP JUMPDEST SWAP2 POP PUSH2 0x25E DUP4 PUSH2 0x27C JUMP JUMPDEST SWAP3 POP DUP3 DUP3 LT ISZERO PUSH2 0x271 JUMPI PUSH2 0x270 PUSH2 0x286 JUMP JUMPDEST JUMPDEST DUP3 DUP3 SUB SWAP1 POP SWAP3 SWAP2 POP POP JUMP JUMPDEST PUSH1 0x0 DUP2 SWAP1 POP SWAP2 SWAP1 POP JUMP JUMPDEST PUSH32 0x4E487B7100000000000000000000000000000000000000000000000000000000 PUSH1 0x0 MSTORE PUSH1 0x11 PUSH1 0x4 MSTORE PUSH1 0x24 PUSH1 0x0 REVERT JUMPDEST PUSH32 0x4E487B7100000000000000000000000000000000000000000000000000000000 PUSH1 0x0 MSTORE PUSH1 0x32 PUSH1 0x4 MSTORE PUSH1 0x24 PUSH1 0x0 REVERT JUMPDEST PUSH1 0x0 DUP1 REVERT JUMPDEST PUSH2 0x2F2 DUP2 PUSH2 0x27C JUMP JUMPDEST DUP2 EQ PUSH2 0x2FD JUMPI PUSH1 0x0 DUP1 REVERT JUMPDEST POP JUMP INVALID LOG2 PUSH5 0x6970667358 0x22 SLT KECCAK256 0x4B DUP12 SWAP12 0xD9 0xD7 0xBC EXTCODECOPY SELFDESTRUCT DUP13 CREATE2 0xC2 PUSH15 0x108B3D7D549E76371DE081F0D91029 0xD8 0xAD 0x23 CREATE2 0x4F PUSH5 0x736F6C6343 STOP ADDMOD SMOD STOP CALLER "
				},
				"gasEstimates": {
					"creation": {
						"codeDepositCost": "164400",
						"executionCost": "infinite",
						"totalCost": "infinite"
					},
					"external": {
						"getarr()": "infinite",
						"updatearr(uint256,uint256)": "infinite"
					}
				},
				"methodIdentifiers": {
					"getarr()": "6bc7deae",
					"updatearr(uint256,uint256)": "9fd44f5a"
				}
			},
			"storageLayout": {
				"storage": [
					{
						"astId": 10,
						"contract": "dynamicsizearr.sol:fixedsizearray",
						"label": "arr",
						"offset": 0,
						"slot": "0",
						"type": "t_array(t_uint256)dyn_storage"
					}
				],
				"types": {
					"t_array(t_uint256)dyn_storage": {
						"base": "t_uint256",
						"encoding": "dynamic_array",
						"label": "uint256[]",
						"numberOfBytes": "32"
					},
					"t_uint256": {
						"encoding": "inplace",
						"label": "uint256",
						"numberOfBytes": "32"
					}
				}
			},
			"userdoc": {
				"kind": "user",
				"methods": {},
				"version": 1
			}
		}
	}
}