{
	"forloop_while_dowhile.sol": {
		"if_else": {
			"abi": [
				{
					"inputs": [],
					"name": "loop",
					"outputs": [
						{
							"internalType": "uint256",
							"name": "",
							"type": "uint256"
						}
					],
					"stateMutability": "pure",
					"type": "function"
				}
			],
			"devdoc": {
				"kind": "dev",
				"methods": {},
				"version": 1
			},
			"evm": {
				"assembly": "    /* \"forloop_while_dowhile.sol\":62:299  contract if_else{... */\n  mstore(0x40, 0x80)\n  callvalue\n  dup1\n  iszero\n  tag_1\n  jumpi\n  0x00\n  dup1\n  revert\ntag_1:\n  pop\n  dataSize(sub_0)\n  dup1\n  dataOffset(sub_0)\n  0x00\n  codecopy\n  0x00\n  return\nstop\n\nsub_0: assembly {\n        /* \"forloop_while_dowhile.sol\":62:299  contract if_else{... */\n      mstore(0x40, 0x80)\n      callvalue\n      dup1\n      iszero\n      tag_1\n      jumpi\n      0x00\n      dup1\n      revert\n    tag_1:\n      pop\n      jumpi(tag_2, lt(calldatasize, 0x04))\n      shr(0xe0, calldataload(0x00))\n      dup1\n      0xa92100cb\n      eq\n      tag_3\n      jumpi\n    tag_2:\n      0x00\n      dup1\n      revert\n        /* \"forloop_while_dowhile.sol\":85:297  function loop() public pure returns(uint){... */\n    tag_3:\n      tag_4\n      tag_5\n      jump\t// in\n    tag_4:\n      mload(0x40)\n      tag_6\n      swap2\n      swap1\n      tag_7\n      jump\t// in\n    tag_6:\n      mload(0x40)\n      dup1\n      swap2\n      sub\n      swap1\n      return\n    tag_5:\n        /* \"forloop_while_dowhile.sol\":121:125  uint */\n      0x00\n        /* \"forloop_while_dowhile.sol\":137:147  uint count */\n      dup1\n        /* \"forloop_while_dowhile.sol\":150:151  0 */\n      0x00\n        /* \"forloop_while_dowhile.sol\":137:151  uint count = 0 */\n      swap1\n      pop\n        /* \"forloop_while_dowhile.sol\":236:242  uint j */\n      0x00\n        /* \"forloop_while_dowhile.sol\":244:246  10 */\n      0x0a\n        /* \"forloop_while_dowhile.sol\":236:246  uint j =10 */\n      swap1\n      pop\n        /* \"forloop_while_dowhile.sol\":265:267  10 */\n      0x0a\n        /* \"forloop_while_dowhile.sol\":262:263  j */\n      dup2\n        /* \"forloop_while_dowhile.sol\":262:267  j==10 */\n      eq\n        /* \"forloop_while_dowhile.sol\":256:290  while(j==10)... */\n      iszero\n      tag_10\n      jumpi\n        /* \"forloop_while_dowhile.sol\":285:290  count */\n      dup2\n        /* \"forloop_while_dowhile.sol\":278:290  return count */\n      swap3\n      pop\n      pop\n      pop\n      jump(tag_8)\n        /* \"forloop_while_dowhile.sol\":256:290  while(j==10)... */\n    tag_10:\n        /* \"forloop_while_dowhile.sol\":126:297  {... */\n      pop\n      pop\n        /* \"forloop_while_dowhile.sol\":85:297  function loop() public pure returns(uint){... */\n    tag_8:\n      swap1\n      jump\t// out\n        /* \"#utility.yul\":7:125   */\n    tag_12:\n        /* \"#utility.yul\":94:118   */\n      tag_14\n        /* \"#utility.yul\":112:117   */\n      dup2\n        /* \"#utility.yul\":94:118   */\n      tag_15\n      jump\t// in\n    tag_14:\n        /* \"#utility.yul\":89:92   */\n      dup3\n        /* \"#utility.yul\":82:119   */\n      mstore\n        /* \"#utility.yul\":7:125   */\n      pop\n      pop\n      jump\t// out\n        /* \"#utility.yul\":131:353   */\n    tag_7:\n        /* \"#utility.yul\":224:228   */\n      0x00\n        /* \"#utility.yul\":262:264   */\n      0x20\n        /* \"#utility.yul\":251:260   */\n      dup3\n        /* \"#utility.yul\":247:265   */\n      add\n        /* \"#utility.yul\":239:265   */\n      swap1\n      pop\n        /* \"#utility.yul\":275:346   */\n      tag_17\n        /* \"#utility.yul\":343:344   */\n      0x00\n        /* \"#utility.yul\":332:341   */\n      dup4\n        /* \"#utility.yul\":328:345   */\n      add\n        /* \"#utility.yul\":319:325   */\n      dup5\n        /* \"#utility.yul\":275:346   */\n      tag_12\n      jump\t// in\n    tag_17:\n        /* \"#utility.yul\":131:353   */\n      swap3\n      swap2\n      pop\n      pop\n      jump\t// out\n        /* \"#utility.yul\":359:436   */\n    tag_15:\n        /* \"#utility.yul\":396:403   */\n      0x00\n        /* \"#utility.yul\":425:430   */\n      dup2\n        /* \"#utility.yul\":414:430   */\n      swap1\n      pop\n        /* \"#utility.yul\":359:436   */\n      swap2\n      swap1\n      pop\n      jump\t// out\n\n    auxdata: 0xa2646970667358221220efc533e03fdd57f724084f21935a282ef4f087a623aeae7b9c3bc7792d784d9e64736f6c63430008070033\n}\n",
				"bytecode": {
					"linkReferences": {},
					"object": "608060405234801561001057600080fd5b5060d18061001f6000396000f3fe6080604052348015600f57600080fd5b506004361060285760003560e01c8063a92100cb14602d575b600080fd5b60336047565b604051603e91906078565b60405180910390f35b600080600090506000600a9050600a81141560655781925050506068565b50505b90565b6072816091565b82525050565b6000602082019050608b6000830184606b565b92915050565b600081905091905056fea2646970667358221220efc533e03fdd57f724084f21935a282ef4f087a623aeae7b9c3bc7792d784d9e64736f6c63430008070033",
					"opcodes": "PUSH1 0x80 PUSH1 0x40 MSTORE CALLVALUE DUP1 ISZERO PUSH2 0x10 JUMPI PUSH1 0x0 DUP1 REVERT JUMPDEST POP PUSH1 0xD1 DUP1 PUSH2 0x1F PUSH1 0x0 CODECOPY PUSH1 0x0 RETURN INVALID PUSH1 0x80 PUSH1 0x40 MSTORE CALLVALUE DUP1 ISZERO PUSH1 0xF JUMPI PUSH1 0x0 DUP1 REVERT JUMPDEST POP PUSH1 0x4 CALLDATASIZE LT PUSH1 0x28 JUMPI PUSH1 0x0 CALLDATALOAD PUSH1 0xE0 SHR DUP1 PUSH4 0xA92100CB EQ PUSH1 0x2D JUMPI JUMPDEST PUSH1 0x0 DUP1 REVERT JUMPDEST PUSH1 0x33 PUSH1 0x47 JUMP JUMPDEST PUSH1 0x40 MLOAD PUSH1 0x3E SWAP2 SWAP1 PUSH1 0x78 JUMP JUMPDEST PUSH1 0x40 MLOAD DUP1 SWAP2 SUB SWAP1 RETURN JUMPDEST PUSH1 0x0 DUP1 PUSH1 0x0 SWAP1 POP PUSH1 0x0 PUSH1 0xA SWAP1 POP PUSH1 0xA DUP2 EQ ISZERO PUSH1 0x65 JUMPI DUP2 SWAP3 POP POP POP PUSH1 0x68 JUMP JUMPDEST POP POP JUMPDEST SWAP1 JUMP JUMPDEST PUSH1 0x72 DUP2 PUSH1 0x91 JUMP JUMPDEST DUP3 MSTORE POP POP JUMP JUMPDEST PUSH1 0x0 PUSH1 0x20 DUP3 ADD SWAP1 POP PUSH1 0x8B PUSH1 0x0 DUP4 ADD DUP5 PUSH1 0x6B JUMP JUMPDEST SWAP3 SWAP2 POP POP JUMP JUMPDEST PUSH1 0x0 DUP2 SWAP1 POP SWAP2 SWAP1 POP JUMP INVALID LOG2 PUSH5 0x6970667358 0x22 SLT KECCAK256 0xEF 0xC5 CALLER 0xE0 EXTCODEHASH 0xDD JUMPI 0xF7 0x24 ADDMOD 0x4F 0x21 SWAP4 GAS 0x28 0x2E DELEGATECALL CREATE DUP8 0xA6 0x23 0xAE 0xAE PUSH28 0x9C3BC7792D784D9E64736F6C63430008070033000000000000000000 "
				},
				"gasEstimates": {
					"creation": {
						"codeDepositCost": "41800",
						"executionCost": "93",
						"totalCost": "41893"
					},
					"external": {
						"loop()": "378"
					}
				},
				"methodIdentifiers": {
					"loop()": "a92100cb"
				}
			},
			"storageLayout": {
				"storage": [],
				"types": null
			},
			"userdoc": {
				"kind": "user",
				"methods": {},
				"version": 1
			}
		}
	}
}