{
	"smartAuction.sol": {
		"smartAuction": {
			"abi": [
				{
					"inputs": [],
					"stateMutability": "nonpayable",
					"type": "constructor"
				},
				{
					"inputs": [],
					"name": "autioneer",
					"outputs": [
						{
							"internalType": "address payable",
							"name": "",
							"type": "address"
						}
					],
					"stateMutability": "view",
					"type": "function"
				},
				{
					"inputs": [],
					"name": "bid_inc",
					"outputs": [
						{
							"internalType": "uint256",
							"name": "",
							"type": "uint256"
						}
					],
					"stateMutability": "view",
					"type": "function"
				},
				{
					"inputs": [],
					"name": "endBlock",
					"outputs": [
						{
							"internalType": "uint256",
							"name": "",
							"type": "uint256"
						}
					],
					"stateMutability": "view",
					"type": "function"
				},
				{
					"inputs": [],
					"name": "highest_bid",
					"outputs": [
						{
							"internalType": "uint256",
							"name": "",
							"type": "uint256"
						}
					],
					"stateMutability": "view",
					"type": "function"
				},
				{
					"inputs": [],
					"name": "highest_bidder",
					"outputs": [
						{
							"internalType": "address",
							"name": "",
							"type": "address"
						}
					],
					"stateMutability": "view",
					"type": "function"
				},
				{
					"inputs": [],
					"name": "highest_payable_bid",
					"outputs": [
						{
							"internalType": "uint256",
							"name": "",
							"type": "uint256"
						}
					],
					"stateMutability": "view",
					"type": "function"
				},
				{
					"inputs": [],
					"name": "startBlock",
					"outputs": [
						{
							"internalType": "uint256",
							"name": "",
							"type": "uint256"
						}
					],
					"stateMutability": "view",
					"type": "function"
				},
				{
					"inputs": [],
					"name": "state",
					"outputs": [
						{
							"internalType": "enum smartAuction.Auction_state",
							"name": "",
							"type": "uint8"
						}
					],
					"stateMutability": "view",
					"type": "function"
				}
			],
			"devdoc": {
				"kind": "dev",
				"methods": {},
				"version": 1
			},
			"evm": {
				"assembly": "    /* \"smartAuction.sol\":63:543  contract smartAuction{... */\n  mstore(0x40, 0x80)\n    /* \"smartAuction.sol\":185:281  constructor(){... */\n  callvalue\n  dup1\n  iszero\n  tag_1\n  jumpi\n  0x00\n  dup1\n  revert\ntag_1:\n  pop\n    /* \"smartAuction.sol\":228:238  msg.sender */\n  caller\n    /* \"smartAuction.sol\":208:217  autioneer */\n  0x00\n  dup1\n    /* \"smartAuction.sol\":208:239  autioneer = payable(msg.sender) */\n  0x0100\n  exp\n  dup2\n  sload\n  dup2\n  0xffffffffffffffffffffffffffffffffffffffff\n  mul\n  not\n  and\n  swap1\n  dup4\n  0xffffffffffffffffffffffffffffffffffffffff\n  and\n  mul\n  or\n  swap1\n  sstore\n  pop\n    /* \"smartAuction.sol\":262:274  block.number */\n  number\n    /* \"smartAuction.sol\":249:259  startBlock */\n  0x01\n    /* \"smartAuction.sol\":249:274  startBlock = block.number */\n  dup2\n  swap1\n  sstore\n  pop\n    /* \"smartAuction.sol\":63:543  contract smartAuction{... */\n  dataSize(sub_0)\n  dup1\n  dataOffset(sub_0)\n  0x00\n  codecopy\n  0x00\n  return\nstop\n\nsub_0: assembly {\n        /* \"smartAuction.sol\":63:543  contract smartAuction{... */\n      mstore(0x40, 0x80)\n      callvalue\n      dup1\n      iszero\n      tag_1\n      jumpi\n      0x00\n      dup1\n      revert\n    tag_1:\n      pop\n      jumpi(tag_2, lt(calldatasize, 0x04))\n      shr(0xe0, calldataload(0x00))\n      dup1\n      0xbd9215f4\n      gt\n      tag_11\n      jumpi\n      dup1\n      0xbd9215f4\n      eq\n      tag_7\n      jumpi\n      dup1\n      0xc19d93fb\n      eq\n      tag_8\n      jumpi\n      dup1\n      0xe5c60091\n      eq\n      tag_9\n      jumpi\n      dup1\n      0xf3ef35f8\n      eq\n      tag_10\n      jumpi\n      jump(tag_2)\n    tag_11:\n      dup1\n      0x083c6323\n      eq\n      tag_3\n      jumpi\n      dup1\n      0x48cd4cb1\n      eq\n      tag_4\n      jumpi\n      dup1\n      0x7eb695a1\n      eq\n      tag_5\n      jumpi\n      dup1\n      0xb035bf60\n      eq\n      tag_6\n      jumpi\n    tag_2:\n      0x00\n      dup1\n      revert\n        /* \"smartAuction.sol\":158:178  uint public endBlock */\n    tag_3:\n      tag_12\n      tag_13\n      jump\t// in\n    tag_12:\n      mload(0x40)\n      tag_14\n      swap2\n      swap1\n      tag_15\n      jump\t// in\n    tag_14:\n      mload(0x40)\n      dup1\n      swap2\n      sub\n      swap1\n      return\n        /* \"smartAuction.sol\":130:152  uint public startBlock */\n    tag_4:\n      tag_16\n      tag_17\n      jump\t// in\n    tag_16:\n      mload(0x40)\n      tag_18\n      swap2\n      swap1\n      tag_15\n      jump\t// in\n    tag_18:\n      mload(0x40)\n      dup1\n      swap2\n      sub\n      swap1\n      return\n        /* \"smartAuction.sol\":447:478  uint public highest_payable_bid */\n    tag_5:\n      tag_19\n      tag_20\n      jump\t// in\n    tag_19:\n      mload(0x40)\n      tag_21\n      swap2\n      swap1\n      tag_15\n      jump\t// in\n    tag_21:\n      mload(0x40)\n      dup1\n      swap2\n      sub\n      swap1\n      return\n        /* \"smartAuction.sol\":91:124  address payable public  autioneer */\n    tag_6:\n      tag_22\n      tag_23\n      jump\t// in\n    tag_22:\n      mload(0x40)\n      tag_24\n      swap2\n      swap1\n      tag_25\n      jump\t// in\n    tag_24:\n      mload(0x40)\n      dup1\n      swap2\n      sub\n      swap1\n      return\n        /* \"smartAuction.sol\":510:540  address public  highest_bidder */\n    tag_7:\n      tag_26\n      tag_27\n      jump\t// in\n    tag_26:\n      mload(0x40)\n      tag_28\n      swap2\n      swap1\n      tag_29\n      jump\t// in\n    tag_28:\n      mload(0x40)\n      dup1\n      swap2\n      sub\n      swap1\n      return\n        /* \"smartAuction.sol\":385:411  Auction_state public state */\n    tag_8:\n      tag_30\n      tag_31\n      jump\t// in\n    tag_30:\n      mload(0x40)\n      tag_32\n      swap2\n      swap1\n      tag_33\n      jump\t// in\n    tag_32:\n      mload(0x40)\n      dup1\n      swap2\n      sub\n      swap1\n      return\n        /* \"smartAuction.sol\":418:441  uint public highest_bid */\n    tag_9:\n      tag_34\n      tag_35\n      jump\t// in\n    tag_34:\n      mload(0x40)\n      tag_36\n      swap2\n      swap1\n      tag_15\n      jump\t// in\n    tag_36:\n      mload(0x40)\n      dup1\n      swap2\n      sub\n      swap1\n      return\n        /* \"smartAuction.sol\":484:503  uint public bid_inc */\n    tag_10:\n      tag_37\n      tag_38\n      jump\t// in\n    tag_37:\n      mload(0x40)\n      tag_39\n      swap2\n      swap1\n      tag_15\n      jump\t// in\n    tag_39:\n      mload(0x40)\n      dup1\n      swap2\n      sub\n      swap1\n      return\n        /* \"smartAuction.sol\":158:178  uint public endBlock */\n    tag_13:\n      sload(0x02)\n      dup2\n      jump\t// out\n        /* \"smartAuction.sol\":130:152  uint public startBlock */\n    tag_17:\n      sload(0x01)\n      dup2\n      jump\t// out\n        /* \"smartAuction.sol\":447:478  uint public highest_payable_bid */\n    tag_20:\n      sload(0x05)\n      dup2\n      jump\t// out\n        /* \"smartAuction.sol\":91:124  address payable public  autioneer */\n    tag_23:\n      0x00\n      dup1\n      sload\n      swap1\n      0x0100\n      exp\n      swap1\n      div\n      0xffffffffffffffffffffffffffffffffffffffff\n      and\n      dup2\n      jump\t// out\n        /* \"smartAuction.sol\":510:540  address public  highest_bidder */\n    tag_27:\n      0x07\n      0x00\n      swap1\n      sload\n      swap1\n      0x0100\n      exp\n      swap1\n      div\n      0xffffffffffffffffffffffffffffffffffffffff\n      and\n      dup2\n      jump\t// out\n        /* \"smartAuction.sol\":385:411  Auction_state public state */\n    tag_31:\n      0x03\n      0x00\n      swap1\n      sload\n      swap1\n      0x0100\n      exp\n      swap1\n      div\n      0xff\n      and\n      dup2\n      jump\t// out\n        /* \"smartAuction.sol\":418:441  uint public highest_bid */\n    tag_35:\n      sload(0x04)\n      dup2\n      jump\t// out\n        /* \"smartAuction.sol\":484:503  uint public bid_inc */\n    tag_38:\n      sload(0x06)\n      dup2\n      jump\t// out\n        /* \"#utility.yul\":7:149   */\n    tag_41:\n        /* \"#utility.yul\":110:142   */\n      tag_43\n        /* \"#utility.yul\":136:141   */\n      dup2\n        /* \"#utility.yul\":110:142   */\n      tag_44\n      jump\t// in\n    tag_43:\n        /* \"#utility.yul\":105:108   */\n      dup3\n        /* \"#utility.yul\":98:143   */\n      mstore\n        /* \"#utility.yul\":7:149   */\n      pop\n      pop\n      jump\t// out\n        /* \"#utility.yul\":155:273   */\n    tag_45:\n        /* \"#utility.yul\":242:266   */\n      tag_47\n        /* \"#utility.yul\":260:265   */\n      dup2\n        /* \"#utility.yul\":242:266   */\n      tag_48\n      jump\t// in\n    tag_47:\n        /* \"#utility.yul\":237:240   */\n      dup3\n        /* \"#utility.yul\":230:267   */\n      mstore\n        /* \"#utility.yul\":155:273   */\n      pop\n      pop\n      jump\t// out\n        /* \"#utility.yul\":279:438   */\n    tag_49:\n        /* \"#utility.yul\":380:431   */\n      tag_51\n        /* \"#utility.yul\":425:430   */\n      dup2\n        /* \"#utility.yul\":380:431   */\n      tag_52\n      jump\t// in\n    tag_51:\n        /* \"#utility.yul\":375:378   */\n      dup3\n        /* \"#utility.yul\":368:432   */\n      mstore\n        /* \"#utility.yul\":279:438   */\n      pop\n      pop\n      jump\t// out\n        /* \"#utility.yul\":444:562   */\n    tag_53:\n        /* \"#utility.yul\":531:555   */\n      tag_55\n        /* \"#utility.yul\":549:554   */\n      dup2\n        /* \"#utility.yul\":531:555   */\n      tag_56\n      jump\t// in\n    tag_55:\n        /* \"#utility.yul\":526:529   */\n      dup3\n        /* \"#utility.yul\":519:556   */\n      mstore\n        /* \"#utility.yul\":444:562   */\n      pop\n      pop\n      jump\t// out\n        /* \"#utility.yul\":568:790   */\n    tag_29:\n        /* \"#utility.yul\":661:665   */\n      0x00\n        /* \"#utility.yul\":699:701   */\n      0x20\n        /* \"#utility.yul\":688:697   */\n      dup3\n        /* \"#utility.yul\":684:702   */\n      add\n        /* \"#utility.yul\":676:702   */\n      swap1\n      pop\n        /* \"#utility.yul\":712:783   */\n      tag_58\n        /* \"#utility.yul\":780:781   */\n      0x00\n        /* \"#utility.yul\":769:778   */\n      dup4\n        /* \"#utility.yul\":765:782   */\n      add\n        /* \"#utility.yul\":756:762   */\n      dup5\n        /* \"#utility.yul\":712:783   */\n      tag_45\n      jump\t// in\n    tag_58:\n        /* \"#utility.yul\":568:790   */\n      swap3\n      swap2\n      pop\n      pop\n      jump\t// out\n        /* \"#utility.yul\":796:1050   */\n    tag_25:\n        /* \"#utility.yul\":905:909   */\n      0x00\n        /* \"#utility.yul\":943:945   */\n      0x20\n        /* \"#utility.yul\":932:941   */\n      dup3\n        /* \"#utility.yul\":928:946   */\n      add\n        /* \"#utility.yul\":920:946   */\n      swap1\n      pop\n        /* \"#utility.yul\":956:1043   */\n      tag_60\n        /* \"#utility.yul\":1040:1041   */\n      0x00\n        /* \"#utility.yul\":1029:1038   */\n      dup4\n        /* \"#utility.yul\":1025:1042   */\n      add\n        /* \"#utility.yul\":1016:1022   */\n      dup5\n        /* \"#utility.yul\":956:1043   */\n      tag_41\n      jump\t// in\n    tag_60:\n        /* \"#utility.yul\":796:1050   */\n      swap3\n      swap2\n      pop\n      pop\n      jump\t// out\n        /* \"#utility.yul\":1056:1306   */\n    tag_33:\n        /* \"#utility.yul\":1163:1167   */\n      0x00\n        /* \"#utility.yul\":1201:1203   */\n      0x20\n        /* \"#utility.yul\":1190:1199   */\n      dup3\n        /* \"#utility.yul\":1186:1204   */\n      add\n        /* \"#utility.yul\":1178:1204   */\n      swap1\n      pop\n        /* \"#utility.yul\":1214:1299   */\n      tag_62\n        /* \"#utility.yul\":1296:1297   */\n      0x00\n        /* \"#utility.yul\":1285:1294   */\n      dup4\n        /* \"#utility.yul\":1281:1298   */\n      add\n        /* \"#utility.yul\":1272:1278   */\n      dup5\n        /* \"#utility.yul\":1214:1299   */\n      tag_49\n      jump\t// in\n    tag_62:\n        /* \"#utility.yul\":1056:1306   */\n      swap3\n      swap2\n      pop\n      pop\n      jump\t// out\n        /* \"#utility.yul\":1312:1534   */\n    tag_15:\n        /* \"#utility.yul\":1405:1409   */\n      0x00\n        /* \"#utility.yul\":1443:1445   */\n      0x20\n        /* \"#utility.yul\":1432:1441   */\n      dup3\n        /* \"#utility.yul\":1428:1446   */\n      add\n        /* \"#utility.yul\":1420:1446   */\n      swap1\n      pop\n        /* \"#utility.yul\":1456:1527   */\n      tag_64\n        /* \"#utility.yul\":1524:1525   */\n      0x00\n        /* \"#utility.yul\":1513:1522   */\n      dup4\n        /* \"#utility.yul\":1509:1526   */\n      add\n        /* \"#utility.yul\":1500:1506   */\n      dup5\n        /* \"#utility.yul\":1456:1527   */\n      tag_53\n      jump\t// in\n    tag_64:\n        /* \"#utility.yul\":1312:1534   */\n      swap3\n      swap2\n      pop\n      pop\n      jump\t// out\n        /* \"#utility.yul\":1540:1636   */\n    tag_48:\n        /* \"#utility.yul\":1577:1584   */\n      0x00\n        /* \"#utility.yul\":1606:1630   */\n      tag_66\n        /* \"#utility.yul\":1624:1629   */\n      dup3\n        /* \"#utility.yul\":1606:1630   */\n      tag_67\n      jump\t// in\n    tag_66:\n        /* \"#utility.yul\":1595:1630   */\n      swap1\n      pop\n        /* \"#utility.yul\":1540:1636   */\n      swap2\n      swap1\n      pop\n      jump\t// out\n        /* \"#utility.yul\":1642:1746   */\n    tag_44:\n        /* \"#utility.yul\":1687:1694   */\n      0x00\n        /* \"#utility.yul\":1716:1740   */\n      tag_69\n        /* \"#utility.yul\":1734:1739   */\n      dup3\n        /* \"#utility.yul\":1716:1740   */\n      tag_67\n      jump\t// in\n    tag_69:\n        /* \"#utility.yul\":1705:1740   */\n      swap1\n      pop\n        /* \"#utility.yul\":1642:1746   */\n      swap2\n      swap1\n      pop\n      jump\t// out\n        /* \"#utility.yul\":1752:1895   */\n    tag_70:\n        /* \"#utility.yul\":1805:1812   */\n      0x00\n        /* \"#utility.yul\":1834:1839   */\n      dup2\n        /* \"#utility.yul\":1823:1839   */\n      swap1\n      pop\n        /* \"#utility.yul\":1840:1889   */\n      tag_72\n        /* \"#utility.yul\":1883:1888   */\n      dup3\n        /* \"#utility.yul\":1840:1889   */\n      tag_73\n      jump\t// in\n    tag_72:\n        /* \"#utility.yul\":1752:1895   */\n      swap2\n      swap1\n      pop\n      jump\t// out\n        /* \"#utility.yul\":1901:2027   */\n    tag_67:\n        /* \"#utility.yul\":1938:1945   */\n      0x00\n        /* \"#utility.yul\":1978:2020   */\n      0xffffffffffffffffffffffffffffffffffffffff\n        /* \"#utility.yul\":1971:1976   */\n      dup3\n        /* \"#utility.yul\":1967:2021   */\n      and\n        /* \"#utility.yul\":1956:2021   */\n      swap1\n      pop\n        /* \"#utility.yul\":1901:2027   */\n      swap2\n      swap1\n      pop\n      jump\t// out\n        /* \"#utility.yul\":2033:2110   */\n    tag_56:\n        /* \"#utility.yul\":2070:2077   */\n      0x00\n        /* \"#utility.yul\":2099:2104   */\n      dup2\n        /* \"#utility.yul\":2088:2104   */\n      swap1\n      pop\n        /* \"#utility.yul\":2033:2110   */\n      swap2\n      swap1\n      pop\n      jump\t// out\n        /* \"#utility.yul\":2116:2259   */\n    tag_52:\n        /* \"#utility.yul\":2180:2189   */\n      0x00\n        /* \"#utility.yul\":2213:2253   */\n      tag_77\n        /* \"#utility.yul\":2247:2252   */\n      dup3\n        /* \"#utility.yul\":2213:2253   */\n      tag_70\n      jump\t// in\n    tag_77:\n        /* \"#utility.yul\":2200:2253   */\n      swap1\n      pop\n        /* \"#utility.yul\":2116:2259   */\n      swap2\n      swap1\n      pop\n      jump\t// out\n        /* \"#utility.yul\":2265:2445   */\n    tag_78:\n        /* \"#utility.yul\":2313:2390   */\n      0x4e487b7100000000000000000000000000000000000000000000000000000000\n        /* \"#utility.yul\":2310:2311   */\n      0x00\n        /* \"#utility.yul\":2303:2391   */\n      mstore\n        /* \"#utility.yul\":2410:2414   */\n      0x21\n        /* \"#utility.yul\":2407:2408   */\n      0x04\n        /* \"#utility.yul\":2400:2415   */\n      mstore\n        /* \"#utility.yul\":2434:2438   */\n      0x24\n        /* \"#utility.yul\":2431:2432   */\n      0x00\n        /* \"#utility.yul\":2424:2439   */\n      revert\n        /* \"#utility.yul\":2451:2572   */\n    tag_73:\n        /* \"#utility.yul\":2540:2541   */\n      0x04\n        /* \"#utility.yul\":2533:2538   */\n      dup2\n        /* \"#utility.yul\":2530:2542   */\n      lt\n        /* \"#utility.yul\":2520:2566   */\n      tag_81\n      jumpi\n        /* \"#utility.yul\":2546:2564   */\n      tag_82\n      tag_78\n      jump\t// in\n    tag_82:\n        /* \"#utility.yul\":2520:2566   */\n    tag_81:\n        /* \"#utility.yul\":2451:2572   */\n      pop\n      jump\t// out\n\n    auxdata: 0xa2646970667358221220d4b8b3b37ec2a976504076721e298df0491f76a8848ce3c92c49191e827fd56c64736f6c63430008070033\n}\n",
				"bytecode": {
					"linkReferences": {},
					"object": "608060405234801561001057600080fd5b50336000806101000a81548173ffffffffffffffffffffffffffffffffffffffff021916908373ffffffffffffffffffffffffffffffffffffffff1602179055504360018190555061038c806100676000396000f3fe608060405234801561001057600080fd5b50600436106100885760003560e01c8063bd9215f41161005b578063bd9215f414610105578063c19d93fb14610123578063e5c6009114610141578063f3ef35f81461015f57610088565b8063083c63231461008d57806348cd4cb1146100ab5780637eb695a1146100c9578063b035bf60146100e7575b600080fd5b61009561017d565b6040516100a29190610285565b60405180910390f35b6100b3610183565b6040516100c09190610285565b60405180910390f35b6100d1610189565b6040516100de9190610285565b60405180910390f35b6100ef61018f565b6040516100fc919061024f565b60405180910390f35b61010d6101b3565b60405161011a9190610234565b60405180910390f35b61012b6101d9565b604051610138919061026a565b60405180910390f35b6101496101ec565b6040516101569190610285565b60405180910390f35b6101676101f2565b6040516101749190610285565b60405180910390f35b60025481565b60015481565b60055481565b60008054906101000a900473ffffffffffffffffffffffffffffffffffffffff1681565b600760009054906101000a900473ffffffffffffffffffffffffffffffffffffffff1681565b600360009054906101000a900460ff1681565b60045481565b60065481565b610201816102b2565b82525050565b610210816102a0565b82525050565b61021f81610301565b82525050565b61022e816102f7565b82525050565b60006020820190506102496000830184610207565b92915050565b600060208201905061026460008301846101f8565b92915050565b600060208201905061027f6000830184610216565b92915050565b600060208201905061029a6000830184610225565b92915050565b60006102ab826102d7565b9050919050565b60006102bd826102d7565b9050919050565b60008190506102d282610342565b919050565b600073ffffffffffffffffffffffffffffffffffffffff82169050919050565b6000819050919050565b600061030c826102c4565b9050919050565b7f4e487b7100000000000000000000000000000000000000000000000000000000600052602160045260246000fd5b6004811061035357610352610313565b5b5056fea2646970667358221220d4b8b3b37ec2a976504076721e298df0491f76a8848ce3c92c49191e827fd56c64736f6c63430008070033",
					"opcodes": "PUSH1 0x80 PUSH1 0x40 MSTORE CALLVALUE DUP1 ISZERO PUSH2 0x10 JUMPI PUSH1 0x0 DUP1 REVERT JUMPDEST POP CALLER PUSH1 0x0 DUP1 PUSH2 0x100 EXP DUP2 SLOAD DUP2 PUSH20 0xFFFFFFFFFFFFFFFFFFFFFFFFFFFFFFFFFFFFFFFF MUL NOT AND SWAP1 DUP4 PUSH20 0xFFFFFFFFFFFFFFFFFFFFFFFFFFFFFFFFFFFFFFFF AND MUL OR SWAP1 SSTORE POP NUMBER PUSH1 0x1 DUP2 SWAP1 SSTORE POP PUSH2 0x38C DUP1 PUSH2 0x67 PUSH1 0x0 CODECOPY PUSH1 0x0 RETURN INVALID PUSH1 0x80 PUSH1 0x40 MSTORE CALLVALUE DUP1 ISZERO PUSH2 0x10 JUMPI PUSH1 0x0 DUP1 REVERT JUMPDEST POP PUSH1 0x4 CALLDATASIZE LT PUSH2 0x88 JUMPI PUSH1 0x0 CALLDATALOAD PUSH1 0xE0 SHR DUP1 PUSH4 0xBD9215F4 GT PUSH2 0x5B JUMPI DUP1 PUSH4 0xBD9215F4 EQ PUSH2 0x105 JUMPI DUP1 PUSH4 0xC19D93FB EQ PUSH2 0x123 JUMPI DUP1 PUSH4 0xE5C60091 EQ PUSH2 0x141 JUMPI DUP1 PUSH4 0xF3EF35F8 EQ PUSH2 0x15F JUMPI PUSH2 0x88 JUMP JUMPDEST DUP1 PUSH4 0x83C6323 EQ PUSH2 0x8D JUMPI DUP1 PUSH4 0x48CD4CB1 EQ PUSH2 0xAB JUMPI DUP1 PUSH4 0x7EB695A1 EQ PUSH2 0xC9 JUMPI DUP1 PUSH4 0xB035BF60 EQ PUSH2 0xE7 JUMPI JUMPDEST PUSH1 0x0 DUP1 REVERT JUMPDEST PUSH2 0x95 PUSH2 0x17D JUMP JUMPDEST PUSH1 0x40 MLOAD PUSH2 0xA2 SWAP2 SWAP1 PUSH2 0x285 JUMP JUMPDEST PUSH1 0x40 MLOAD DUP1 SWAP2 SUB SWAP1 RETURN JUMPDEST PUSH2 0xB3 PUSH2 0x183 JUMP JUMPDEST PUSH1 0x40 MLOAD PUSH2 0xC0 SWAP2 SWAP1 PUSH2 0x285 JUMP JUMPDEST PUSH1 0x40 MLOAD DUP1 SWAP2 SUB SWAP1 RETURN JUMPDEST PUSH2 0xD1 PUSH2 0x189 JUMP JUMPDEST PUSH1 0x40 MLOAD PUSH2 0xDE SWAP2 SWAP1 PUSH2 0x285 JUMP JUMPDEST PUSH1 0x40 MLOAD DUP1 SWAP2 SUB SWAP1 RETURN JUMPDEST PUSH2 0xEF PUSH2 0x18F JUMP JUMPDEST PUSH1 0x40 MLOAD PUSH2 0xFC SWAP2 SWAP1 PUSH2 0x24F JUMP JUMPDEST PUSH1 0x40 MLOAD DUP1 SWAP2 SUB SWAP1 RETURN JUMPDEST PUSH2 0x10D PUSH2 0x1B3 JUMP JUMPDEST PUSH1 0x40 MLOAD PUSH2 0x11A SWAP2 SWAP1 PUSH2 0x234 JUMP JUMPDEST PUSH1 0x40 MLOAD DUP1 SWAP2 SUB SWAP1 RETURN JUMPDEST PUSH2 0x12B PUSH2 0x1D9 JUMP JUMPDEST PUSH1 0x40 MLOAD PUSH2 0x138 SWAP2 SWAP1 PUSH2 0x26A JUMP JUMPDEST PUSH1 0x40 MLOAD DUP1 SWAP2 SUB SWAP1 RETURN JUMPDEST PUSH2 0x149 PUSH2 0x1EC JUMP JUMPDEST PUSH1 0x40 MLOAD PUSH2 0x156 SWAP2 SWAP1 PUSH2 0x285 JUMP JUMPDEST PUSH1 0x40 MLOAD DUP1 SWAP2 SUB SWAP1 RETURN JUMPDEST PUSH2 0x167 PUSH2 0x1F2 JUMP JUMPDEST PUSH1 0x40 MLOAD PUSH2 0x174 SWAP2 SWAP1 PUSH2 0x285 JUMP JUMPDEST PUSH1 0x40 MLOAD DUP1 SWAP2 SUB SWAP1 RETURN JUMPDEST PUSH1 0x2 SLOAD DUP2 JUMP JUMPDEST PUSH1 0x1 SLOAD DUP2 JUMP JUMPDEST PUSH1 0x5 SLOAD DUP2 JUMP JUMPDEST PUSH1 0x0 DUP1 SLOAD SWAP1 PUSH2 0x100 EXP SWAP1 DIV PUSH20 0xFFFFFFFFFFFFFFFFFFFFFFFFFFFFFFFFFFFFFFFF AND DUP2 JUMP JUMPDEST PUSH1 0x7 PUSH1 0x0 SWAP1 SLOAD SWAP1 PUSH2 0x100 EXP SWAP1 DIV PUSH20 0xFFFFFFFFFFFFFFFFFFFFFFFFFFFFFFFFFFFFFFFF AND DUP2 JUMP JUMPDEST PUSH1 0x3 PUSH1 0x0 SWAP1 SLOAD SWAP1 PUSH2 0x100 EXP SWAP1 DIV PUSH1 0xFF AND DUP2 JUMP JUMPDEST PUSH1 0x4 SLOAD DUP2 JUMP JUMPDEST PUSH1 0x6 SLOAD DUP2 JUMP JUMPDEST PUSH2 0x201 DUP2 PUSH2 0x2B2 JUMP JUMPDEST DUP3 MSTORE POP POP JUMP JUMPDEST PUSH2 0x210 DUP2 PUSH2 0x2A0 JUMP JUMPDEST DUP3 MSTORE POP POP JUMP JUMPDEST PUSH2 0x21F DUP2 PUSH2 0x301 JUMP JUMPDEST DUP3 MSTORE POP POP JUMP JUMPDEST PUSH2 0x22E DUP2 PUSH2 0x2F7 JUMP JUMPDEST DUP3 MSTORE POP POP JUMP JUMPDEST PUSH1 0x0 PUSH1 0x20 DUP3 ADD SWAP1 POP PUSH2 0x249 PUSH1 0x0 DUP4 ADD DUP5 PUSH2 0x207 JUMP JUMPDEST SWAP3 SWAP2 POP POP JUMP JUMPDEST PUSH1 0x0 PUSH1 0x20 DUP3 ADD SWAP1 POP PUSH2 0x264 PUSH1 0x0 DUP4 ADD DUP5 PUSH2 0x1F8 JUMP JUMPDEST SWAP3 SWAP2 POP POP JUMP JUMPDEST PUSH1 0x0 PUSH1 0x20 DUP3 ADD SWAP1 POP PUSH2 0x27F PUSH1 0x0 DUP4 ADD DUP5 PUSH2 0x216 JUMP JUMPDEST SWAP3 SWAP2 POP POP JUMP JUMPDEST PUSH1 0x0 PUSH1 0x20 DUP3 ADD SWAP1 POP PUSH2 0x29A PUSH1 0x0 DUP4 ADD DUP5 PUSH2 0x225 JUMP JUMPDEST SWAP3 SWAP2 POP POP JUMP JUMPDEST PUSH1 0x0 PUSH2 0x2AB DUP3 PUSH2 0x2D7 JUMP JUMPDEST SWAP1 POP SWAP2 SWAP1 POP JUMP JUMPDEST PUSH1 0x0 PUSH2 0x2BD DUP3 PUSH2 0x2D7 JUMP JUMPDEST SWAP1 POP SWAP2 SWAP1 POP JUMP JUMPDEST PUSH1 0x0 DUP2 SWAP1 POP PUSH2 0x2D2 DUP3 PUSH2 0x342 JUMP JUMPDEST SWAP2 SWAP1 POP JUMP JUMPDEST PUSH1 0x0 PUSH20 0xFFFFFFFFFFFFFFFFFFFFFFFFFFFFFFFFFFFFFFFF DUP3 AND SWAP1 POP SWAP2 SWAP1 POP JUMP JUMPDEST PUSH1 0x0 DUP2 SWAP1 POP SWAP2 SWAP1 POP JUMP JUMPDEST PUSH1 0x0 PUSH2 0x30C DUP3 PUSH2 0x2C4 JUMP JUMPDEST SWAP1 POP SWAP2 SWAP1 POP JUMP JUMPDEST PUSH32 0x4E487B7100000000000000000000000000000000000000000000000000000000 PUSH1 0x0 MSTORE PUSH1 0x21 PUSH1 0x4 MSTORE PUSH1 0x24 PUSH1 0x0 REVERT JUMPDEST PUSH1 0x4 DUP2 LT PUSH2 0x353 JUMPI PUSH2 0x352 PUSH2 0x313 JUMP JUMPDEST JUMPDEST POP JUMP INVALID LOG2 PUSH5 0x6970667358 0x22 SLT KECCAK256 0xD4 0xB8 0xB3 0xB3 PUSH31 0xC2A976504076721E298DF0491F76A8848CE3C92C49191E827FD56C64736F6C PUSH4 0x43000807 STOP CALLER "
				},
				"gasEstimates": {
					"creation": {
						"codeDepositCost": "181600",
						"executionCost": "46605",
						"totalCost": "228205"
					},
					"external": {
						"autioneer()": "2578",
						"bid_inc()": "2495",
						"endBlock()": "2430",
						"highest_bid()": "2473",
						"highest_bidder()": "2514",
						"highest_payable_bid()": "2474",
						"startBlock()": "2452",
						"state()": "2582"
					}
				},
				"methodIdentifiers": {
					"autioneer()": "b035bf60",
					"bid_inc()": "f3ef35f8",
					"endBlock()": "083c6323",
					"highest_bid()": "e5c60091",
					"highest_bidder()": "bd9215f4",
					"highest_payable_bid()": "7eb695a1",
					"startBlock()": "48cd4cb1",
					"state()": "c19d93fb"
				}
			},
			"storageLayout": {
				"storage": [
					{
						"astId": 3,
						"contract": "smartAuction.sol:smartAuction",
						"label": "autioneer",
						"offset": 0,
						"slot": "0",
						"type": "t_address_payable"
					},
					{
						"astId": 5,
						"contract": "smartAuction.sol:smartAuction",
						"label": "startBlock",
						"offset": 0,
						"slot": "1",
						"type": "t_uint256"
					},
					{
						"astId": 7,
						"contract": "smartAuction.sol:smartAuction",
						"label": "endBlock",
						"offset": 0,
						"slot": "2",
						"type": "t_uint256"
					},
					{
						"astId": 32,
						"contract": "smartAuction.sol:smartAuction",
						"label": "state",
						"offset": 0,
						"slot": "3",
						"type": "t_enum(Auction_state)29"
					},
					{
						"astId": 34,
						"contract": "smartAuction.sol:smartAuction",
						"label": "highest_bid",
						"offset": 0,
						"slot": "4",
						"type": "t_uint256"
					},
					{
						"astId": 36,
						"contract": "smartAuction.sol:smartAuction",
						"label": "highest_payable_bid",
						"offset": 0,
						"slot": "5",
						"type": "t_uint256"
					},
					{
						"astId": 38,
						"contract": "smartAuction.sol:smartAuction",
						"label": "bid_inc",
						"offset": 0,
						"slot": "6",
						"type": "t_uint256"
					},
					{
						"astId": 40,
						"contract": "smartAuction.sol:smartAuction",
						"label": "highest_bidder",
						"offset": 0,
						"slot": "7",
						"type": "t_address"
					}
				],
				"types": {
					"t_address": {
						"encoding": "inplace",
						"label": "address",
						"numberOfBytes": "20"
					},
					"t_address_payable": {
						"encoding": "inplace",
						"label": "address payable",
						"numberOfBytes": "20"
					},
					"t_enum(Auction_state)29": {
						"encoding": "inplace",
						"label": "enum smartAuction.Auction_state",
						"numberOfBytes": "1"
					},
					"t_uint256": {
						"encoding": "inplace",
						"label": "uint256",
						"numberOfBytes": "32"
					}
				}
			},
			"userdoc": {
				"kind": "user",
				"methods": {},
				"version": 1
			}
		}
	}
}