{
	"mappingImplementation_2.sol": {
		"advmapping": {
			"abi": [
				{
					"inputs": [
						{
							"internalType": "address",
							"name": "",
							"type": "address"
						}
					],
					"name": "acc_info",
					"outputs": [
						{
							"internalType": "string",
							"name": "name",
							"type": "string"
						},
						{
							"internalType": "uint256",
							"name": "age",
							"type": "uint256"
						},
						{
							"internalType": "string",
							"name": "add",
							"type": "string"
						},
						{
							"internalType": "uint256",
							"name": "don",
							"type": "uint256"
						}
					],
					"stateMutability": "view",
					"type": "function"
				},
				{
					"inputs": [
						{
							"internalType": "string",
							"name": "_name",
							"type": "string"
						},
						{
							"internalType": "uint256",
							"name": "_age",
							"type": "uint256"
						},
						{
							"internalType": "string",
							"name": "_add",
							"type": "string"
						},
						{
							"internalType": "uint256",
							"name": "_don",
							"type": "uint256"
						}
					],
					"name": "set",
					"outputs": [],
					"stateMutability": "nonpayable",
					"type": "function"
				}
			],
			"devdoc": {
				"kind": "dev",
				"methods": {},
				"version": 1
			},
			"evm": {
				"assembly": "    /* \"mappingImplementation_2.sol\":145:405  contract advmapping{... */\n  mstore(0x40, 0x80)\n  callvalue\n  dup1\n  iszero\n  tag_1\n  jumpi\n  0x00\n  dup1\n  revert\ntag_1:\n  pop\n  dataSize(sub_0)\n  dup1\n  dataOffset(sub_0)\n  0x00\n  codecopy\n  0x00\n  return\nstop\n\nsub_0: assembly {\n        /* \"mappingImplementation_2.sol\":145:405  contract advmapping{... */\n      mstore(0x40, 0x80)\n      callvalue\n      dup1\n      iszero\n      tag_1\n      jumpi\n      0x00\n      dup1\n      revert\n    tag_1:\n      pop\n      jumpi(tag_2, lt(calldatasize, 0x04))\n      shr(0xe0, calldataload(0x00))\n      dup1\n      0x0d0d1e2b\n      eq\n      tag_3\n      jumpi\n      dup1\n      0x628e48f9\n      eq\n      tag_4\n      jumpi\n    tag_2:\n      0x00\n      dup1\n      revert\n        /* \"mappingImplementation_2.sol\":170:213  mapping(address=>donor_dts) public acc_info */\n    tag_3:\n      tag_5\n      0x04\n      dup1\n      calldatasize\n      sub\n      dup2\n      add\n      swap1\n      tag_6\n      swap2\n      swap1\n      tag_7\n      jump\t// in\n    tag_6:\n      tag_8\n      jump\t// in\n    tag_5:\n      mload(0x40)\n      tag_9\n      swap5\n      swap4\n      swap3\n      swap2\n      swap1\n      tag_10\n      jump\t// in\n    tag_9:\n      mload(0x40)\n      dup1\n      swap2\n      sub\n      swap1\n      return\n        /* \"mappingImplementation_2.sol\":220:403  function set(string memory _name, uint _age, string memory _add, uint _don) public{... */\n    tag_4:\n      tag_11\n      0x04\n      dup1\n      calldatasize\n      sub\n      dup2\n      add\n      swap1\n      tag_12\n      swap2\n      swap1\n      tag_13\n      jump\t// in\n    tag_12:\n      tag_14\n      jump\t// in\n    tag_11:\n      stop\n        /* \"mappingImplementation_2.sol\":170:213  mapping(address=>donor_dts) public acc_info */\n    tag_8:\n      mstore(0x20, 0x00)\n      dup1\n      0x00\n      mstore\n      keccak256(0x00, 0x40)\n      0x00\n      swap2\n      pop\n      swap1\n      pop\n      dup1\n      0x00\n      add\n      dup1\n      sload\n      tag_15\n      swap1\n      tag_16\n      jump\t// in\n    tag_15:\n      dup1\n      0x1f\n      add\n      0x20\n      dup1\n      swap2\n      div\n      mul\n      0x20\n      add\n      mload(0x40)\n      swap1\n      dup2\n      add\n      0x40\n      mstore\n      dup1\n      swap3\n      swap2\n      swap1\n      dup2\n      dup2\n      mstore\n      0x20\n      add\n      dup3\n      dup1\n      sload\n      tag_17\n      swap1\n      tag_16\n      jump\t// in\n    tag_17:\n      dup1\n      iszero\n      tag_18\n      jumpi\n      dup1\n      0x1f\n      lt\n      tag_19\n      jumpi\n      0x0100\n      dup1\n      dup4\n      sload\n      div\n      mul\n      dup4\n      mstore\n      swap2\n      0x20\n      add\n      swap2\n      jump(tag_18)\n    tag_19:\n      dup3\n      add\n      swap2\n      swap1\n      0x00\n      mstore\n      keccak256(0x00, 0x20)\n      swap1\n    tag_20:\n      dup2\n      sload\n      dup2\n      mstore\n      swap1\n      0x01\n      add\n      swap1\n      0x20\n      add\n      dup1\n      dup4\n      gt\n      tag_20\n      jumpi\n      dup3\n      swap1\n      sub\n      0x1f\n      and\n      dup3\n      add\n      swap2\n    tag_18:\n      pop\n      pop\n      pop\n      pop\n      pop\n      swap1\n      dup1\n      0x01\n      add\n      sload\n      swap1\n      dup1\n      0x02\n      add\n      dup1\n      sload\n      tag_21\n      swap1\n      tag_16\n      jump\t// in\n    tag_21:\n      dup1\n      0x1f\n      add\n      0x20\n      dup1\n      swap2\n      div\n      mul\n      0x20\n      add\n      mload(0x40)\n      swap1\n      dup2\n      add\n      0x40\n      mstore\n      dup1\n      swap3\n      swap2\n      swap1\n      dup2\n      dup2\n      mstore\n      0x20\n      add\n      dup3\n      dup1\n      sload\n      tag_22\n      swap1\n      tag_16\n      jump\t// in\n    tag_22:\n      dup1\n      iszero\n      tag_23\n      jumpi\n      dup1\n      0x1f\n      lt\n      tag_24\n      jumpi\n      0x0100\n      dup1\n      dup4\n      sload\n      div\n      mul\n      dup4\n      mstore\n      swap2\n      0x20\n      add\n      swap2\n      jump(tag_23)\n    tag_24:\n      dup3\n      add\n      swap2\n      swap1\n      0x00\n      mstore\n      keccak256(0x00, 0x20)\n      swap1\n    tag_25:\n      dup2\n      sload\n      dup2\n      mstore\n      swap1\n      0x01\n      add\n      swap1\n      0x20\n      add\n      dup1\n      dup4\n      gt\n      tag_25\n      jumpi\n      dup3\n      swap1\n      sub\n      0x1f\n      and\n      dup3\n      add\n      swap2\n    tag_23:\n      pop\n      pop\n      pop\n      pop\n      pop\n      swap1\n      dup1\n      0x03\n      add\n      sload\n      swap1\n      pop\n      dup5\n      jump\t// out\n        /* \"mappingImplementation_2.sol\":220:403  function set(string memory _name, uint _age, string memory _add, uint _don) public{... */\n    tag_14:\n        /* \"mappingImplementation_2.sol\":336:395  donor_dts(_name, _age, _add, acc_info[msg.sender].don+_don) */\n      mload(0x40)\n      dup1\n      0x80\n      add\n      0x40\n      mstore\n      dup1\n        /* \"mappingImplementation_2.sol\":346:351  _name */\n      dup6\n        /* \"mappingImplementation_2.sol\":336:395  donor_dts(_name, _age, _add, acc_info[msg.sender].don+_don) */\n      dup2\n      mstore\n      0x20\n      add\n        /* \"mappingImplementation_2.sol\":353:357  _age */\n      dup5\n        /* \"mappingImplementation_2.sol\":336:395  donor_dts(_name, _age, _add, acc_info[msg.sender].don+_don) */\n      dup2\n      mstore\n      0x20\n      add\n        /* \"mappingImplementation_2.sol\":359:363  _add */\n      dup4\n        /* \"mappingImplementation_2.sol\":336:395  donor_dts(_name, _age, _add, acc_info[msg.sender].don+_don) */\n      dup2\n      mstore\n      0x20\n      add\n        /* \"mappingImplementation_2.sol\":390:394  _don */\n      dup3\n        /* \"mappingImplementation_2.sol\":365:373  acc_info */\n      0x00\n        /* \"mappingImplementation_2.sol\":365:385  acc_info[msg.sender] */\n      dup1\n        /* \"mappingImplementation_2.sol\":374:384  msg.sender */\n      caller\n        /* \"mappingImplementation_2.sol\":365:385  acc_info[msg.sender] */\n      0xffffffffffffffffffffffffffffffffffffffff\n      and\n      0xffffffffffffffffffffffffffffffffffffffff\n      and\n      dup2\n      mstore\n      0x20\n      add\n      swap1\n      dup2\n      mstore\n      0x20\n      add\n      0x00\n      keccak256\n        /* \"mappingImplementation_2.sol\":365:389  acc_info[msg.sender].don */\n      0x03\n      add\n      sload\n        /* \"mappingImplementation_2.sol\":365:394  acc_info[msg.sender].don+_don */\n      tag_27\n      swap2\n      swap1\n      tag_28\n      jump\t// in\n    tag_27:\n        /* \"mappingImplementation_2.sol\":336:395  donor_dts(_name, _age, _add, acc_info[msg.sender].don+_don) */\n      dup2\n      mstore\n      pop\n        /* \"mappingImplementation_2.sol\":313:321  acc_info */\n      0x00\n        /* \"mappingImplementation_2.sol\":313:333  acc_info[msg.sender] */\n      dup1\n        /* \"mappingImplementation_2.sol\":322:332  msg.sender */\n      caller\n        /* \"mappingImplementation_2.sol\":313:333  acc_info[msg.sender] */\n      0xffffffffffffffffffffffffffffffffffffffff\n      and\n      0xffffffffffffffffffffffffffffffffffffffff\n      and\n      dup2\n      mstore\n      0x20\n      add\n      swap1\n      dup2\n      mstore\n      0x20\n      add\n      0x00\n      keccak256\n        /* \"mappingImplementation_2.sol\":313:395  acc_info[msg.sender] = donor_dts(_name, _age, _add, acc_info[msg.sender].don+_don) */\n      0x00\n      dup3\n      add\n      mload\n      dup2\n      0x00\n      add\n      swap1\n      dup1\n      mload\n      swap1\n      0x20\n      add\n      swap1\n      tag_29\n      swap3\n      swap2\n      swap1\n      tag_30\n      jump\t// in\n    tag_29:\n      pop\n      0x20\n      dup3\n      add\n      mload\n      dup2\n      0x01\n      add\n      sstore\n      0x40\n      dup3\n      add\n      mload\n      dup2\n      0x02\n      add\n      swap1\n      dup1\n      mload\n      swap1\n      0x20\n      add\n      swap1\n      tag_31\n      swap3\n      swap2\n      swap1\n      tag_30\n      jump\t// in\n    tag_31:\n      pop\n      0x60\n      dup3\n      add\n      mload\n      dup2\n      0x03\n      add\n      sstore\n      swap1\n      pop\n      pop\n        /* \"mappingImplementation_2.sol\":220:403  function set(string memory _name, uint _age, string memory _add, uint _don) public{... */\n      pop\n      pop\n      pop\n      pop\n      jump\t// out\n    tag_30:\n      dup3\n      dup1\n      sload\n      tag_32\n      swap1\n      tag_16\n      jump\t// in\n    tag_32:\n      swap1\n      0x00\n      mstore\n      keccak256(0x00, 0x20)\n      swap1\n      0x1f\n      add\n      0x20\n      swap1\n      div\n      dup2\n      add\n      swap3\n      dup3\n      tag_34\n      jumpi\n      0x00\n      dup6\n      sstore\n      jump(tag_33)\n    tag_34:\n      dup3\n      0x1f\n      lt\n      tag_35\n      jumpi\n      dup1\n      mload\n      not(0xff)\n      and\n      dup4\n      dup1\n      add\n      or\n      dup6\n      sstore\n      jump(tag_33)\n    tag_35:\n      dup3\n      dup1\n      add\n      0x01\n      add\n      dup6\n      sstore\n      dup3\n      iszero\n      tag_33\n      jumpi\n      swap2\n      dup3\n      add\n    tag_36:\n      dup3\n      dup2\n      gt\n      iszero\n      tag_37\n      jumpi\n      dup3\n      mload\n      dup3\n      sstore\n      swap2\n      0x20\n      add\n      swap2\n      swap1\n      0x01\n      add\n      swap1\n      jump(tag_36)\n    tag_37:\n    tag_33:\n      pop\n      swap1\n      pop\n      tag_38\n      swap2\n      swap1\n      tag_39\n      jump\t// in\n    tag_38:\n      pop\n      swap1\n      jump\t// out\n    tag_39:\n    tag_40:\n      dup1\n      dup3\n      gt\n      iszero\n      tag_41\n      jumpi\n      0x00\n      dup2\n      0x00\n      swap1\n      sstore\n      pop\n      0x01\n      add\n      jump(tag_40)\n    tag_41:\n      pop\n      swap1\n      jump\t// out\n        /* \"#utility.yul\":7:419   */\n    tag_43:\n        /* \"#utility.yul\":85:90   */\n      0x00\n        /* \"#utility.yul\":110:176   */\n      tag_45\n        /* \"#utility.yul\":126:175   */\n      tag_46\n        /* \"#utility.yul\":168:174   */\n      dup5\n        /* \"#utility.yul\":126:175   */\n      tag_47\n      jump\t// in\n    tag_46:\n        /* \"#utility.yul\":110:176   */\n      tag_48\n      jump\t// in\n    tag_45:\n        /* \"#utility.yul\":101:176   */\n      swap1\n      pop\n        /* \"#utility.yul\":199:205   */\n      dup3\n        /* \"#utility.yul\":192:197   */\n      dup2\n        /* \"#utility.yul\":185:206   */\n      mstore\n        /* \"#utility.yul\":237:241   */\n      0x20\n        /* \"#utility.yul\":230:235   */\n      dup2\n        /* \"#utility.yul\":226:242   */\n      add\n        /* \"#utility.yul\":275:278   */\n      dup5\n        /* \"#utility.yul\":266:272   */\n      dup5\n        /* \"#utility.yul\":261:264   */\n      dup5\n        /* \"#utility.yul\":257:273   */\n      add\n        /* \"#utility.yul\":254:279   */\n      gt\n        /* \"#utility.yul\":251:363   */\n      iszero\n      tag_49\n      jumpi\n        /* \"#utility.yul\":282:361   */\n      tag_50\n      tag_51\n      jump\t// in\n    tag_50:\n        /* \"#utility.yul\":251:363   */\n    tag_49:\n        /* \"#utility.yul\":372:413   */\n      tag_52\n        /* \"#utility.yul\":406:412   */\n      dup5\n        /* \"#utility.yul\":401:404   */\n      dup3\n        /* \"#utility.yul\":396:399   */\n      dup6\n        /* \"#utility.yul\":372:413   */\n      tag_53\n      jump\t// in\n    tag_52:\n        /* \"#utility.yul\":91:419   */\n      pop\n        /* \"#utility.yul\":7:419   */\n      swap4\n      swap3\n      pop\n      pop\n      pop\n      jump\t// out\n        /* \"#utility.yul\":425:564   */\n    tag_54:\n        /* \"#utility.yul\":471:476   */\n      0x00\n        /* \"#utility.yul\":509:515   */\n      dup2\n        /* \"#utility.yul\":496:516   */\n      calldataload\n        /* \"#utility.yul\":487:516   */\n      swap1\n      pop\n        /* \"#utility.yul\":525:558   */\n      tag_56\n        /* \"#utility.yul\":552:557   */\n      dup2\n        /* \"#utility.yul\":525:558   */\n      tag_57\n      jump\t// in\n    tag_56:\n        /* \"#utility.yul\":425:564   */\n      swap3\n      swap2\n      pop\n      pop\n      jump\t// out\n        /* \"#utility.yul\":584:924   */\n    tag_58:\n        /* \"#utility.yul\":640:645   */\n      0x00\n        /* \"#utility.yul\":689:692   */\n      dup3\n        /* \"#utility.yul\":682:686   */\n      0x1f\n        /* \"#utility.yul\":674:680   */\n      dup4\n        /* \"#utility.yul\":670:687   */\n      add\n        /* \"#utility.yul\":666:693   */\n      slt\n        /* \"#utility.yul\":656:778   */\n      tag_60\n      jumpi\n        /* \"#utility.yul\":697:776   */\n      tag_61\n      tag_62\n      jump\t// in\n    tag_61:\n        /* \"#utility.yul\":656:778   */\n    tag_60:\n        /* \"#utility.yul\":814:820   */\n      dup2\n        /* \"#utility.yul\":801:821   */\n      calldataload\n        /* \"#utility.yul\":839:918   */\n      tag_63\n        /* \"#utility.yul\":914:917   */\n      dup5\n        /* \"#utility.yul\":906:912   */\n      dup3\n        /* \"#utility.yul\":899:903   */\n      0x20\n        /* \"#utility.yul\":891:897   */\n      dup7\n        /* \"#utility.yul\":887:904   */\n      add\n        /* \"#utility.yul\":839:918   */\n      tag_43\n      jump\t// in\n    tag_63:\n        /* \"#utility.yul\":830:918   */\n      swap2\n      pop\n        /* \"#utility.yul\":646:924   */\n      pop\n        /* \"#utility.yul\":584:924   */\n      swap3\n      swap2\n      pop\n      pop\n      jump\t// out\n        /* \"#utility.yul\":930:1069   */\n    tag_64:\n        /* \"#utility.yul\":976:981   */\n      0x00\n        /* \"#utility.yul\":1014:1020   */\n      dup2\n        /* \"#utility.yul\":1001:1021   */\n      calldataload\n        /* \"#utility.yul\":992:1021   */\n      swap1\n      pop\n        /* \"#utility.yul\":1030:1063   */\n      tag_66\n        /* \"#utility.yul\":1057:1062   */\n      dup2\n        /* \"#utility.yul\":1030:1063   */\n      tag_67\n      jump\t// in\n    tag_66:\n        /* \"#utility.yul\":930:1069   */\n      swap3\n      swap2\n      pop\n      pop\n      jump\t// out\n        /* \"#utility.yul\":1075:1404   */\n    tag_7:\n        /* \"#utility.yul\":1134:1140   */\n      0x00\n        /* \"#utility.yul\":1183:1185   */\n      0x20\n        /* \"#utility.yul\":1171:1180   */\n      dup3\n        /* \"#utility.yul\":1162:1169   */\n      dup5\n        /* \"#utility.yul\":1158:1181   */\n      sub\n        /* \"#utility.yul\":1154:1186   */\n      slt\n        /* \"#utility.yul\":1151:1270   */\n      iszero\n      tag_69\n      jumpi\n        /* \"#utility.yul\":1189:1268   */\n      tag_70\n      tag_71\n      jump\t// in\n    tag_70:\n        /* \"#utility.yul\":1151:1270   */\n    tag_69:\n        /* \"#utility.yul\":1309:1310   */\n      0x00\n        /* \"#utility.yul\":1334:1387   */\n      tag_72\n        /* \"#utility.yul\":1379:1386   */\n      dup5\n        /* \"#utility.yul\":1370:1376   */\n      dup3\n        /* \"#utility.yul\":1359:1368   */\n      dup6\n        /* \"#utility.yul\":1355:1377   */\n      add\n        /* \"#utility.yul\":1334:1387   */\n      tag_54\n      jump\t// in\n    tag_72:\n        /* \"#utility.yul\":1324:1387   */\n      swap2\n      pop\n        /* \"#utility.yul\":1280:1397   */\n      pop\n        /* \"#utility.yul\":1075:1404   */\n      swap3\n      swap2\n      pop\n      pop\n      jump\t// out\n        /* \"#utility.yul\":1410:2535   */\n    tag_13:\n        /* \"#utility.yul\":1516:1522   */\n      0x00\n        /* \"#utility.yul\":1524:1530   */\n      dup1\n        /* \"#utility.yul\":1532:1538   */\n      0x00\n        /* \"#utility.yul\":1540:1546   */\n      dup1\n        /* \"#utility.yul\":1589:1592   */\n      0x80\n        /* \"#utility.yul\":1577:1586   */\n      dup6\n        /* \"#utility.yul\":1568:1575   */\n      dup8\n        /* \"#utility.yul\":1564:1587   */\n      sub\n        /* \"#utility.yul\":1560:1593   */\n      slt\n        /* \"#utility.yul\":1557:1677   */\n      iszero\n      tag_74\n      jumpi\n        /* \"#utility.yul\":1596:1675   */\n      tag_75\n      tag_71\n      jump\t// in\n    tag_75:\n        /* \"#utility.yul\":1557:1677   */\n    tag_74:\n        /* \"#utility.yul\":1744:1745   */\n      0x00\n        /* \"#utility.yul\":1733:1742   */\n      dup6\n        /* \"#utility.yul\":1729:1746   */\n      add\n        /* \"#utility.yul\":1716:1747   */\n      calldataload\n        /* \"#utility.yul\":1774:1792   */\n      0xffffffffffffffff\n        /* \"#utility.yul\":1766:1772   */\n      dup2\n        /* \"#utility.yul\":1763:1793   */\n      gt\n        /* \"#utility.yul\":1760:1877   */\n      iszero\n      tag_76\n      jumpi\n        /* \"#utility.yul\":1796:1875   */\n      tag_77\n      tag_78\n      jump\t// in\n    tag_77:\n        /* \"#utility.yul\":1760:1877   */\n    tag_76:\n        /* \"#utility.yul\":1901:1964   */\n      tag_79\n        /* \"#utility.yul\":1956:1963   */\n      dup8\n        /* \"#utility.yul\":1947:1953   */\n      dup3\n        /* \"#utility.yul\":1936:1945   */\n      dup9\n        /* \"#utility.yul\":1932:1954   */\n      add\n        /* \"#utility.yul\":1901:1964   */\n      tag_58\n      jump\t// in\n    tag_79:\n        /* \"#utility.yul\":1891:1964   */\n      swap5\n      pop\n        /* \"#utility.yul\":1687:1974   */\n      pop\n        /* \"#utility.yul\":2013:2015   */\n      0x20\n        /* \"#utility.yul\":2039:2092   */\n      tag_80\n        /* \"#utility.yul\":2084:2091   */\n      dup8\n        /* \"#utility.yul\":2075:2081   */\n      dup3\n        /* \"#utility.yul\":2064:2073   */\n      dup9\n        /* \"#utility.yul\":2060:2082   */\n      add\n        /* \"#utility.yul\":2039:2092   */\n      tag_64\n      jump\t// in\n    tag_80:\n        /* \"#utility.yul\":2029:2092   */\n      swap4\n      pop\n        /* \"#utility.yul\":1984:2102   */\n      pop\n        /* \"#utility.yul\":2169:2171   */\n      0x40\n        /* \"#utility.yul\":2158:2167   */\n      dup6\n        /* \"#utility.yul\":2154:2172   */\n      add\n        /* \"#utility.yul\":2141:2173   */\n      calldataload\n        /* \"#utility.yul\":2200:2218   */\n      0xffffffffffffffff\n        /* \"#utility.yul\":2192:2198   */\n      dup2\n        /* \"#utility.yul\":2189:2219   */\n      gt\n        /* \"#utility.yul\":2186:2303   */\n      iszero\n      tag_81\n      jumpi\n        /* \"#utility.yul\":2222:2301   */\n      tag_82\n      tag_78\n      jump\t// in\n    tag_82:\n        /* \"#utility.yul\":2186:2303   */\n    tag_81:\n        /* \"#utility.yul\":2327:2390   */\n      tag_83\n        /* \"#utility.yul\":2382:2389   */\n      dup8\n        /* \"#utility.yul\":2373:2379   */\n      dup3\n        /* \"#utility.yul\":2362:2371   */\n      dup9\n        /* \"#utility.yul\":2358:2380   */\n      add\n        /* \"#utility.yul\":2327:2390   */\n      tag_58\n      jump\t// in\n    tag_83:\n        /* \"#utility.yul\":2317:2390   */\n      swap3\n      pop\n        /* \"#utility.yul\":2112:2400   */\n      pop\n        /* \"#utility.yul\":2439:2441   */\n      0x60\n        /* \"#utility.yul\":2465:2518   */\n      tag_84\n        /* \"#utility.yul\":2510:2517   */\n      dup8\n        /* \"#utility.yul\":2501:2507   */\n      dup3\n        /* \"#utility.yul\":2490:2499   */\n      dup9\n        /* \"#utility.yul\":2486:2508   */\n      add\n        /* \"#utility.yul\":2465:2518   */\n      tag_64\n      jump\t// in\n    tag_84:\n        /* \"#utility.yul\":2455:2518   */\n      swap2\n      pop\n        /* \"#utility.yul\":2410:2528   */\n      pop\n        /* \"#utility.yul\":1410:2535   */\n      swap3\n      swap6\n      swap2\n      swap5\n      pop\n      swap3\n      pop\n      jump\t// out\n        /* \"#utility.yul\":2541:2905   */\n    tag_85:\n        /* \"#utility.yul\":2629:2632   */\n      0x00\n        /* \"#utility.yul\":2657:2696   */\n      tag_87\n        /* \"#utility.yul\":2690:2695   */\n      dup3\n        /* \"#utility.yul\":2657:2696   */\n      tag_88\n      jump\t// in\n    tag_87:\n        /* \"#utility.yul\":2712:2783   */\n      tag_89\n        /* \"#utility.yul\":2776:2782   */\n      dup2\n        /* \"#utility.yul\":2771:2774   */\n      dup6\n        /* \"#utility.yul\":2712:2783   */\n      tag_90\n      jump\t// in\n    tag_89:\n        /* \"#utility.yul\":2705:2783   */\n      swap4\n      pop\n        /* \"#utility.yul\":2792:2844   */\n      tag_91\n        /* \"#utility.yul\":2837:2843   */\n      dup2\n        /* \"#utility.yul\":2832:2835   */\n      dup6\n        /* \"#utility.yul\":2825:2829   */\n      0x20\n        /* \"#utility.yul\":2818:2823   */\n      dup7\n        /* \"#utility.yul\":2814:2830   */\n      add\n        /* \"#utility.yul\":2792:2844   */\n      tag_92\n      jump\t// in\n    tag_91:\n        /* \"#utility.yul\":2869:2898   */\n      tag_93\n        /* \"#utility.yul\":2891:2897   */\n      dup2\n        /* \"#utility.yul\":2869:2898   */\n      tag_94\n      jump\t// in\n    tag_93:\n        /* \"#utility.yul\":2864:2867   */\n      dup5\n        /* \"#utility.yul\":2860:2899   */\n      add\n        /* \"#utility.yul\":2853:2899   */\n      swap2\n      pop\n        /* \"#utility.yul\":2633:2905   */\n      pop\n        /* \"#utility.yul\":2541:2905   */\n      swap3\n      swap2\n      pop\n      pop\n      jump\t// out\n        /* \"#utility.yul\":2911:3029   */\n    tag_95:\n        /* \"#utility.yul\":2998:3022   */\n      tag_97\n        /* \"#utility.yul\":3016:3021   */\n      dup2\n        /* \"#utility.yul\":2998:3022   */\n      tag_98\n      jump\t// in\n    tag_97:\n        /* \"#utility.yul\":2993:2996   */\n      dup3\n        /* \"#utility.yul\":2986:3023   */\n      mstore\n        /* \"#utility.yul\":2911:3029   */\n      pop\n      pop\n      jump\t// out\n        /* \"#utility.yul\":3035:3770   */\n    tag_10:\n        /* \"#utility.yul\":3252:3256   */\n      0x00\n        /* \"#utility.yul\":3290:3293   */\n      0x80\n        /* \"#utility.yul\":3279:3288   */\n      dup3\n        /* \"#utility.yul\":3275:3294   */\n      add\n        /* \"#utility.yul\":3267:3294   */\n      swap1\n      pop\n        /* \"#utility.yul\":3340:3349   */\n      dup2\n        /* \"#utility.yul\":3334:3338   */\n      dup2\n        /* \"#utility.yul\":3330:3350   */\n      sub\n        /* \"#utility.yul\":3326:3327   */\n      0x00\n        /* \"#utility.yul\":3315:3324   */\n      dup4\n        /* \"#utility.yul\":3311:3328   */\n      add\n        /* \"#utility.yul\":3304:3351   */\n      mstore\n        /* \"#utility.yul\":3368:3446   */\n      tag_100\n        /* \"#utility.yul\":3441:3445   */\n      dup2\n        /* \"#utility.yul\":3432:3438   */\n      dup8\n        /* \"#utility.yul\":3368:3446   */\n      tag_85\n      jump\t// in\n    tag_100:\n        /* \"#utility.yul\":3360:3446   */\n      swap1\n      pop\n        /* \"#utility.yul\":3456:3528   */\n      tag_101\n        /* \"#utility.yul\":3524:3526   */\n      0x20\n        /* \"#utility.yul\":3513:3522   */\n      dup4\n        /* \"#utility.yul\":3509:3527   */\n      add\n        /* \"#utility.yul\":3500:3506   */\n      dup7\n        /* \"#utility.yul\":3456:3528   */\n      tag_95\n      jump\t// in\n    tag_101:\n        /* \"#utility.yul\":3575:3584   */\n      dup2\n        /* \"#utility.yul\":3569:3573   */\n      dup2\n        /* \"#utility.yul\":3565:3585   */\n      sub\n        /* \"#utility.yul\":3560:3562   */\n      0x40\n        /* \"#utility.yul\":3549:3558   */\n      dup4\n        /* \"#utility.yul\":3545:3563   */\n      add\n        /* \"#utility.yul\":3538:3586   */\n      mstore\n        /* \"#utility.yul\":3603:3681   */\n      tag_102\n        /* \"#utility.yul\":3676:3680   */\n      dup2\n        /* \"#utility.yul\":3667:3673   */\n      dup6\n        /* \"#utility.yul\":3603:3681   */\n      tag_85\n      jump\t// in\n    tag_102:\n        /* \"#utility.yul\":3595:3681   */\n      swap1\n      pop\n        /* \"#utility.yul\":3691:3763   */\n      tag_103\n        /* \"#utility.yul\":3759:3761   */\n      0x60\n        /* \"#utility.yul\":3748:3757   */\n      dup4\n        /* \"#utility.yul\":3744:3762   */\n      add\n        /* \"#utility.yul\":3735:3741   */\n      dup5\n        /* \"#utility.yul\":3691:3763   */\n      tag_95\n      jump\t// in\n    tag_103:\n        /* \"#utility.yul\":3035:3770   */\n      swap6\n      swap5\n      pop\n      pop\n      pop\n      pop\n      pop\n      jump\t// out\n        /* \"#utility.yul\":3776:3905   */\n    tag_48:\n        /* \"#utility.yul\":3810:3816   */\n      0x00\n        /* \"#utility.yul\":3837:3857   */\n      tag_105\n      tag_106\n      jump\t// in\n    tag_105:\n        /* \"#utility.yul\":3827:3857   */\n      swap1\n      pop\n        /* \"#utility.yul\":3866:3899   */\n      tag_107\n        /* \"#utility.yul\":3894:3898   */\n      dup3\n        /* \"#utility.yul\":3886:3892   */\n      dup3\n        /* \"#utility.yul\":3866:3899   */\n      tag_108\n      jump\t// in\n    tag_107:\n        /* \"#utility.yul\":3776:3905   */\n      swap2\n      swap1\n      pop\n      jump\t// out\n        /* \"#utility.yul\":3911:3986   */\n    tag_106:\n        /* \"#utility.yul\":3944:3950   */\n      0x00\n        /* \"#utility.yul\":3977:3979   */\n      0x40\n        /* \"#utility.yul\":3971:3980   */\n      mload\n        /* \"#utility.yul\":3961:3980   */\n      swap1\n      pop\n        /* \"#utility.yul\":3911:3986   */\n      swap1\n      jump\t// out\n        /* \"#utility.yul\":3992:4300   */\n    tag_47:\n        /* \"#utility.yul\":4054:4058   */\n      0x00\n        /* \"#utility.yul\":4144:4162   */\n      0xffffffffffffffff\n        /* \"#utility.yul\":4136:4142   */\n      dup3\n        /* \"#utility.yul\":4133:4163   */\n      gt\n        /* \"#utility.yul\":4130:4186   */\n      iszero\n      tag_111\n      jumpi\n        /* \"#utility.yul\":4166:4184   */\n      tag_112\n      tag_113\n      jump\t// in\n    tag_112:\n        /* \"#utility.yul\":4130:4186   */\n    tag_111:\n        /* \"#utility.yul\":4204:4233   */\n      tag_114\n        /* \"#utility.yul\":4226:4232   */\n      dup3\n        /* \"#utility.yul\":4204:4233   */\n      tag_94\n      jump\t// in\n    tag_114:\n        /* \"#utility.yul\":4196:4233   */\n      swap1\n      pop\n        /* \"#utility.yul\":4288:4292   */\n      0x20\n        /* \"#utility.yul\":4282:4286   */\n      dup2\n        /* \"#utility.yul\":4278:4293   */\n      add\n        /* \"#utility.yul\":4270:4293   */\n      swap1\n      pop\n        /* \"#utility.yul\":3992:4300   */\n      swap2\n      swap1\n      pop\n      jump\t// out\n        /* \"#utility.yul\":4306:4405   */\n    tag_88:\n        /* \"#utility.yul\":4358:4364   */\n      0x00\n        /* \"#utility.yul\":4392:4397   */\n      dup2\n        /* \"#utility.yul\":4386:4398   */\n      mload\n        /* \"#utility.yul\":4376:4398   */\n      swap1\n      pop\n        /* \"#utility.yul\":4306:4405   */\n      swap2\n      swap1\n      pop\n      jump\t// out\n        /* \"#utility.yul\":4411:4580   */\n    tag_90:\n        /* \"#utility.yul\":4495:4506   */\n      0x00\n        /* \"#utility.yul\":4529:4535   */\n      dup3\n        /* \"#utility.yul\":4524:4527   */\n      dup3\n        /* \"#utility.yul\":4517:4536   */\n      mstore\n        /* \"#utility.yul\":4569:4573   */\n      0x20\n        /* \"#utility.yul\":4564:4567   */\n      dup3\n        /* \"#utility.yul\":4560:4574   */\n      add\n        /* \"#utility.yul\":4545:4574   */\n      swap1\n      pop\n        /* \"#utility.yul\":4411:4580   */\n      swap3\n      swap2\n      pop\n      pop\n      jump\t// out\n        /* \"#utility.yul\":4586:4891   */\n    tag_28:\n        /* \"#utility.yul\":4626:4629   */\n      0x00\n        /* \"#utility.yul\":4645:4665   */\n      tag_118\n        /* \"#utility.yul\":4663:4664   */\n      dup3\n        /* \"#utility.yul\":4645:4665   */\n      tag_98\n      jump\t// in\n    tag_118:\n        /* \"#utility.yul\":4640:4665   */\n      swap2\n      pop\n        /* \"#utility.yul\":4679:4699   */\n      tag_119\n        /* \"#utility.yul\":4697:4698   */\n      dup4\n        /* \"#utility.yul\":4679:4699   */\n      tag_98\n      jump\t// in\n    tag_119:\n        /* \"#utility.yul\":4674:4699   */\n      swap3\n      pop\n        /* \"#utility.yul\":4833:4834   */\n      dup3\n        /* \"#utility.yul\":4765:4831   */\n      0xffffffffffffffffffffffffffffffffffffffffffffffffffffffffffffffff\n        /* \"#utility.yul\":4761:4835   */\n      sub\n        /* \"#utility.yul\":4758:4759   */\n      dup3\n        /* \"#utility.yul\":4755:4836   */\n      gt\n        /* \"#utility.yul\":4752:4859   */\n      iszero\n      tag_120\n      jumpi\n        /* \"#utility.yul\":4839:4857   */\n      tag_121\n      tag_122\n      jump\t// in\n    tag_121:\n        /* \"#utility.yul\":4752:4859   */\n    tag_120:\n        /* \"#utility.yul\":4883:4884   */\n      dup3\n        /* \"#utility.yul\":4880:4881   */\n      dup3\n        /* \"#utility.yul\":4876:4885   */\n      add\n        /* \"#utility.yul\":4869:4885   */\n      swap1\n      pop\n        /* \"#utility.yul\":4586:4891   */\n      swap3\n      swap2\n      pop\n      pop\n      jump\t// out\n        /* \"#utility.yul\":4897:4993   */\n    tag_123:\n        /* \"#utility.yul\":4934:4941   */\n      0x00\n        /* \"#utility.yul\":4963:4987   */\n      tag_125\n        /* \"#utility.yul\":4981:4986   */\n      dup3\n        /* \"#utility.yul\":4963:4987   */\n      tag_126\n      jump\t// in\n    tag_125:\n        /* \"#utility.yul\":4952:4987   */\n      swap1\n      pop\n        /* \"#utility.yul\":4897:4993   */\n      swap2\n      swap1\n      pop\n      jump\t// out\n        /* \"#utility.yul\":4999:5125   */\n    tag_126:\n        /* \"#utility.yul\":5036:5043   */\n      0x00\n        /* \"#utility.yul\":5076:5118   */\n      0xffffffffffffffffffffffffffffffffffffffff\n        /* \"#utility.yul\":5069:5074   */\n      dup3\n        /* \"#utility.yul\":5065:5119   */\n      and\n        /* \"#utility.yul\":5054:5119   */\n      swap1\n      pop\n        /* \"#utility.yul\":4999:5125   */\n      swap2\n      swap1\n      pop\n      jump\t// out\n        /* \"#utility.yul\":5131:5208   */\n    tag_98:\n        /* \"#utility.yul\":5168:5175   */\n      0x00\n        /* \"#utility.yul\":5197:5202   */\n      dup2\n        /* \"#utility.yul\":5186:5202   */\n      swap1\n      pop\n        /* \"#utility.yul\":5131:5208   */\n      swap2\n      swap1\n      pop\n      jump\t// out\n        /* \"#utility.yul\":5214:5368   */\n    tag_53:\n        /* \"#utility.yul\":5298:5304   */\n      dup3\n        /* \"#utility.yul\":5293:5296   */\n      dup2\n        /* \"#utility.yul\":5288:5291   */\n      dup4\n        /* \"#utility.yul\":5275:5305   */\n      calldatacopy\n        /* \"#utility.yul\":5360:5361   */\n      0x00\n        /* \"#utility.yul\":5351:5357   */\n      dup4\n        /* \"#utility.yul\":5346:5349   */\n      dup4\n        /* \"#utility.yul\":5342:5358   */\n      add\n        /* \"#utility.yul\":5335:5362   */\n      mstore\n        /* \"#utility.yul\":5214:5368   */\n      pop\n      pop\n      pop\n      jump\t// out\n        /* \"#utility.yul\":5374:5681   */\n    tag_92:\n        /* \"#utility.yul\":5442:5443   */\n      0x00\n        /* \"#utility.yul\":5452:5565   */\n    tag_131:\n        /* \"#utility.yul\":5466:5472   */\n      dup4\n        /* \"#utility.yul\":5463:5464   */\n      dup2\n        /* \"#utility.yul\":5460:5473   */\n      lt\n        /* \"#utility.yul\":5452:5565   */\n      iszero\n      tag_133\n      jumpi\n        /* \"#utility.yul\":5551:5552   */\n      dup1\n        /* \"#utility.yul\":5546:5549   */\n      dup3\n        /* \"#utility.yul\":5542:5553   */\n      add\n        /* \"#utility.yul\":5536:5554   */\n      mload\n        /* \"#utility.yul\":5532:5533   */\n      dup2\n        /* \"#utility.yul\":5527:5530   */\n      dup5\n        /* \"#utility.yul\":5523:5534   */\n      add\n        /* \"#utility.yul\":5516:5555   */\n      mstore\n        /* \"#utility.yul\":5488:5490   */\n      0x20\n        /* \"#utility.yul\":5485:5486   */\n      dup2\n        /* \"#utility.yul\":5481:5491   */\n      add\n        /* \"#utility.yul\":5476:5491   */\n      swap1\n      pop\n        /* \"#utility.yul\":5452:5565   */\n      jump(tag_131)\n    tag_133:\n        /* \"#utility.yul\":5583:5589   */\n      dup4\n        /* \"#utility.yul\":5580:5581   */\n      dup2\n        /* \"#utility.yul\":5577:5590   */\n      gt\n        /* \"#utility.yul\":5574:5675   */\n      iszero\n      tag_134\n      jumpi\n        /* \"#utility.yul\":5663:5664   */\n      0x00\n        /* \"#utility.yul\":5654:5660   */\n      dup5\n        /* \"#utility.yul\":5649:5652   */\n      dup5\n        /* \"#utility.yul\":5645:5661   */\n      add\n        /* \"#utility.yul\":5638:5665   */\n      mstore\n        /* \"#utility.yul\":5574:5675   */\n    tag_134:\n        /* \"#utility.yul\":5423:5681   */\n      pop\n        /* \"#utility.yul\":5374:5681   */\n      pop\n      pop\n      pop\n      jump\t// out\n        /* \"#utility.yul\":5687:6007   */\n    tag_16:\n        /* \"#utility.yul\":5731:5737   */\n      0x00\n        /* \"#utility.yul\":5768:5769   */\n      0x02\n        /* \"#utility.yul\":5762:5766   */\n      dup3\n        /* \"#utility.yul\":5758:5770   */\n      div\n        /* \"#utility.yul\":5748:5770   */\n      swap1\n      pop\n        /* \"#utility.yul\":5815:5816   */\n      0x01\n        /* \"#utility.yul\":5809:5813   */\n      dup3\n        /* \"#utility.yul\":5805:5817   */\n      and\n        /* \"#utility.yul\":5836:5854   */\n      dup1\n        /* \"#utility.yul\":5826:5907   */\n      tag_136\n      jumpi\n        /* \"#utility.yul\":5892:5896   */\n      0x7f\n        /* \"#utility.yul\":5884:5890   */\n      dup3\n        /* \"#utility.yul\":5880:5897   */\n      and\n        /* \"#utility.yul\":5870:5897   */\n      swap2\n      pop\n        /* \"#utility.yul\":5826:5907   */\n    tag_136:\n        /* \"#utility.yul\":5954:5956   */\n      0x20\n        /* \"#utility.yul\":5946:5952   */\n      dup3\n        /* \"#utility.yul\":5943:5957   */\n      lt\n        /* \"#utility.yul\":5923:5941   */\n      dup2\n        /* \"#utility.yul\":5920:5958   */\n      eq\n        /* \"#utility.yul\":5917:6001   */\n      iszero\n      tag_137\n      jumpi\n        /* \"#utility.yul\":5973:5991   */\n      tag_138\n      tag_139\n      jump\t// in\n    tag_138:\n        /* \"#utility.yul\":5917:6001   */\n    tag_137:\n        /* \"#utility.yul\":5738:6007   */\n      pop\n        /* \"#utility.yul\":5687:6007   */\n      swap2\n      swap1\n      pop\n      jump\t// out\n        /* \"#utility.yul\":6013:6294   */\n    tag_108:\n        /* \"#utility.yul\":6096:6123   */\n      tag_141\n        /* \"#utility.yul\":6118:6122   */\n      dup3\n        /* \"#utility.yul\":6096:6123   */\n      tag_94\n      jump\t// in\n    tag_141:\n        /* \"#utility.yul\":6088:6094   */\n      dup2\n        /* \"#utility.yul\":6084:6124   */\n      add\n        /* \"#utility.yul\":6226:6232   */\n      dup2\n        /* \"#utility.yul\":6214:6224   */\n      dup2\n        /* \"#utility.yul\":6211:6233   */\n      lt\n        /* \"#utility.yul\":6190:6208   */\n      0xffffffffffffffff\n        /* \"#utility.yul\":6178:6188   */\n      dup3\n        /* \"#utility.yul\":6175:6209   */\n      gt\n        /* \"#utility.yul\":6172:6234   */\n      or\n        /* \"#utility.yul\":6169:6257   */\n      iszero\n      tag_142\n      jumpi\n        /* \"#utility.yul\":6237:6255   */\n      tag_143\n      tag_113\n      jump\t// in\n    tag_143:\n        /* \"#utility.yul\":6169:6257   */\n    tag_142:\n        /* \"#utility.yul\":6277:6287   */\n      dup1\n        /* \"#utility.yul\":6273:6275   */\n      0x40\n        /* \"#utility.yul\":6266:6288   */\n      mstore\n        /* \"#utility.yul\":6056:6294   */\n      pop\n        /* \"#utility.yul\":6013:6294   */\n      pop\n      pop\n      jump\t// out\n        /* \"#utility.yul\":6300:6480   */\n    tag_122:\n        /* \"#utility.yul\":6348:6425   */\n      0x4e487b7100000000000000000000000000000000000000000000000000000000\n        /* \"#utility.yul\":6345:6346   */\n      0x00\n        /* \"#utility.yul\":6338:6426   */\n      mstore\n        /* \"#utility.yul\":6445:6449   */\n      0x11\n        /* \"#utility.yul\":6442:6443   */\n      0x04\n        /* \"#utility.yul\":6435:6450   */\n      mstore\n        /* \"#utility.yul\":6469:6473   */\n      0x24\n        /* \"#utility.yul\":6466:6467   */\n      0x00\n        /* \"#utility.yul\":6459:6474   */\n      revert\n        /* \"#utility.yul\":6486:6666   */\n    tag_139:\n        /* \"#utility.yul\":6534:6611   */\n      0x4e487b7100000000000000000000000000000000000000000000000000000000\n        /* \"#utility.yul\":6531:6532   */\n      0x00\n        /* \"#utility.yul\":6524:6612   */\n      mstore\n        /* \"#utility.yul\":6631:6635   */\n      0x22\n        /* \"#utility.yul\":6628:6629   */\n      0x04\n        /* \"#utility.yul\":6621:6636   */\n      mstore\n        /* \"#utility.yul\":6655:6659   */\n      0x24\n        /* \"#utility.yul\":6652:6653   */\n      0x00\n        /* \"#utility.yul\":6645:6660   */\n      revert\n        /* \"#utility.yul\":6672:6852   */\n    tag_113:\n        /* \"#utility.yul\":6720:6797   */\n      0x4e487b7100000000000000000000000000000000000000000000000000000000\n        /* \"#utility.yul\":6717:6718   */\n      0x00\n        /* \"#utility.yul\":6710:6798   */\n      mstore\n        /* \"#utility.yul\":6817:6821   */\n      0x41\n        /* \"#utility.yul\":6814:6815   */\n      0x04\n        /* \"#utility.yul\":6807:6822   */\n      mstore\n        /* \"#utility.yul\":6841:6845   */\n      0x24\n        /* \"#utility.yul\":6838:6839   */\n      0x00\n        /* \"#utility.yul\":6831:6846   */\n      revert\n        /* \"#utility.yul\":6858:6975   */\n    tag_62:\n        /* \"#utility.yul\":6967:6968   */\n      0x00\n        /* \"#utility.yul\":6964:6965   */\n      dup1\n        /* \"#utility.yul\":6957:6969   */\n      revert\n        /* \"#utility.yul\":6981:7098   */\n    tag_51:\n        /* \"#utility.yul\":7090:7091   */\n      0x00\n        /* \"#utility.yul\":7087:7088   */\n      dup1\n        /* \"#utility.yul\":7080:7092   */\n      revert\n        /* \"#utility.yul\":7104:7221   */\n    tag_78:\n        /* \"#utility.yul\":7213:7214   */\n      0x00\n        /* \"#utility.yul\":7210:7211   */\n      dup1\n        /* \"#utility.yul\":7203:7215   */\n      revert\n        /* \"#utility.yul\":7227:7344   */\n    tag_71:\n        /* \"#utility.yul\":7336:7337   */\n      0x00\n        /* \"#utility.yul\":7333:7334   */\n      dup1\n        /* \"#utility.yul\":7326:7338   */\n      revert\n        /* \"#utility.yul\":7350:7452   */\n    tag_94:\n        /* \"#utility.yul\":7391:7397   */\n      0x00\n        /* \"#utility.yul\":7442:7444   */\n      0x1f\n        /* \"#utility.yul\":7438:7445   */\n      not\n        /* \"#utility.yul\":7433:7435   */\n      0x1f\n        /* \"#utility.yul\":7426:7431   */\n      dup4\n        /* \"#utility.yul\":7422:7436   */\n      add\n        /* \"#utility.yul\":7418:7446   */\n      and\n        /* \"#utility.yul\":7408:7446   */\n      swap1\n      pop\n        /* \"#utility.yul\":7350:7452   */\n      swap2\n      swap1\n      pop\n      jump\t// out\n        /* \"#utility.yul\":7458:7580   */\n    tag_57:\n        /* \"#utility.yul\":7531:7555   */\n      tag_153\n        /* \"#utility.yul\":7549:7554   */\n      dup2\n        /* \"#utility.yul\":7531:7555   */\n      tag_123\n      jump\t// in\n    tag_153:\n        /* \"#utility.yul\":7524:7529   */\n      dup2\n        /* \"#utility.yul\":7521:7556   */\n      eq\n        /* \"#utility.yul\":7511:7574   */\n      tag_154\n      jumpi\n        /* \"#utility.yul\":7570:7571   */\n      0x00\n        /* \"#utility.yul\":7567:7568   */\n      dup1\n        /* \"#utility.yul\":7560:7572   */\n      revert\n        /* \"#utility.yul\":7511:7574   */\n    tag_154:\n        /* \"#utility.yul\":7458:7580   */\n      pop\n      jump\t// out\n        /* \"#utility.yul\":7586:7708   */\n    tag_67:\n        /* \"#utility.yul\":7659:7683   */\n      tag_156\n        /* \"#utility.yul\":7677:7682   */\n      dup2\n        /* \"#utility.yul\":7659:7683   */\n      tag_98\n      jump\t// in\n    tag_156:\n        /* \"#utility.yul\":7652:7657   */\n      dup2\n        /* \"#utility.yul\":7649:7684   */\n      eq\n        /* \"#utility.yul\":7639:7702   */\n      tag_157\n      jumpi\n        /* \"#utility.yul\":7698:7699   */\n      0x00\n        /* \"#utility.yul\":7695:7696   */\n      dup1\n        /* \"#utility.yul\":7688:7700   */\n      revert\n        /* \"#utility.yul\":7639:7702   */\n    tag_157:\n        /* \"#utility.yul\":7586:7708   */\n      pop\n      jump\t// out\n\n    auxdata: 0xa264697066735822122017cc30aa85d1fae72aed6e8b4eb511fdab14ddd42f9c850d9ae32749dd70c17f64736f6c63430008070033\n}\n",
				"bytecode": {
					"linkReferences": {},
					"object": "608060405234801561001057600080fd5b5061082f806100206000396000f3fe608060405234801561001057600080fd5b50600436106100365760003560e01c80630d0d1e2b1461003b578063628e48f91461006e575b600080fd5b61005560048036038101906100509190610409565b61008a565b604051610065949392919061051d565b60405180910390f35b61008860048036038101906100839190610436565b6101ca565b005b60006020528060005260406000206000915090508060000180546100ad906106b6565b80601f01602080910402602001604051908101604052809291908181526020018280546100d9906106b6565b80156101265780601f106100fb57610100808354040283529160200191610126565b820191906000526020600020905b81548152906001019060200180831161010957829003601f168201915b505050505090806001015490806002018054610141906106b6565b80601f016020809104026020016040519081016040528092919081815260200182805461016d906106b6565b80156101ba5780601f1061018f576101008083540402835291602001916101ba565b820191906000526020600020905b81548152906001019060200180831161019d57829003601f168201915b5050505050908060030154905084565b6040518060800160405280858152602001848152602001838152602001826000803373ffffffffffffffffffffffffffffffffffffffff1673ffffffffffffffffffffffffffffffffffffffff1681526020019081526020016000206003015461023491906105e2565b8152506000803373ffffffffffffffffffffffffffffffffffffffff1673ffffffffffffffffffffffffffffffffffffffff16815260200190815260200160002060008201518160000190805190602001906102919291906102cc565b506020820151816001015560408201518160020190805190602001906102b89291906102cc565b506060820151816003015590505050505050565b8280546102d8906106b6565b90600052602060002090601f0160209004810192826102fa5760008555610341565b82601f1061031357805160ff1916838001178555610341565b82800160010185558215610341579182015b82811115610340578251825591602001919060010190610325565b5b50905061034e9190610352565b5090565b5b8082111561036b576000816000905550600101610353565b5090565b600061038261037d84610595565b610570565b90508281526020810184848401111561039e5761039d6107ab565b5b6103a9848285610674565b509392505050565b6000813590506103c0816107cb565b92915050565b600082601f8301126103db576103da6107a6565b5b81356103eb84826020860161036f565b91505092915050565b600081359050610403816107e2565b92915050565b60006020828403121561041f5761041e6107b5565b5b600061042d848285016103b1565b91505092915050565b600080600080608085870312156104505761044f6107b5565b5b600085013567ffffffffffffffff81111561046e5761046d6107b0565b5b61047a878288016103c6565b945050602061048b878288016103f4565b935050604085013567ffffffffffffffff8111156104ac576104ab6107b0565b5b6104b8878288016103c6565b92505060606104c9878288016103f4565b91505092959194509250565b60006104e0826105c6565b6104ea81856105d1565b93506104fa818560208601610683565b610503816107ba565b840191505092915050565b6105178161066a565b82525050565b6000608082019050818103600083015261053781876104d5565b9050610546602083018661050e565b818103604083015261055881856104d5565b9050610567606083018461050e565b95945050505050565b600061057a61058b565b905061058682826106e8565b919050565b6000604051905090565b600067ffffffffffffffff8211156105b0576105af610777565b5b6105b9826107ba565b9050602081019050919050565b600081519050919050565b600082825260208201905092915050565b60006105ed8261066a565b91506105f88361066a565b9250827fffffffffffffffffffffffffffffffffffffffffffffffffffffffffffffffff0382111561062d5761062c610719565b5b828201905092915050565b60006106438261064a565b9050919050565b600073ffffffffffffffffffffffffffffffffffffffff82169050919050565b6000819050919050565b82818337600083830152505050565b60005b838110156106a1578082015181840152602081019050610686565b838111156106b0576000848401525b50505050565b600060028204905060018216806106ce57607f821691505b602082108114156106e2576106e1610748565b5b50919050565b6106f1826107ba565b810181811067ffffffffffffffff821117156107105761070f610777565b5b80604052505050565b7f4e487b7100000000000000000000000000000000000000000000000000000000600052601160045260246000fd5b7f4e487b7100000000000000000000000000000000000000000000000000000000600052602260045260246000fd5b7f4e487b7100000000000000000000000000000000000000000000000000000000600052604160045260246000fd5b600080fd5b600080fd5b600080fd5b600080fd5b6000601f19601f8301169050919050565b6107d481610638565b81146107df57600080fd5b50565b6107eb8161066a565b81146107f657600080fd5b5056fea264697066735822122017cc30aa85d1fae72aed6e8b4eb511fdab14ddd42f9c850d9ae32749dd70c17f64736f6c63430008070033",
					"opcodes": "PUSH1 0x80 PUSH1 0x40 MSTORE CALLVALUE DUP1 ISZERO PUSH2 0x10 JUMPI PUSH1 0x0 DUP1 REVERT JUMPDEST POP PUSH2 0x82F DUP1 PUSH2 0x20 PUSH1 0x0 CODECOPY PUSH1 0x0 RETURN INVALID PUSH1 0x80 PUSH1 0x40 MSTORE CALLVALUE DUP1 ISZERO PUSH2 0x10 JUMPI PUSH1 0x0 DUP1 REVERT JUMPDEST POP PUSH1 0x4 CALLDATASIZE LT PUSH2 0x36 JUMPI PUSH1 0x0 CALLDATALOAD PUSH1 0xE0 SHR DUP1 PUSH4 0xD0D1E2B EQ PUSH2 0x3B JUMPI DUP1 PUSH4 0x628E48F9 EQ PUSH2 0x6E JUMPI JUMPDEST PUSH1 0x0 DUP1 REVERT JUMPDEST PUSH2 0x55 PUSH1 0x4 DUP1 CALLDATASIZE SUB DUP2 ADD SWAP1 PUSH2 0x50 SWAP2 SWAP1 PUSH2 0x409 JUMP JUMPDEST PUSH2 0x8A JUMP JUMPDEST PUSH1 0x40 MLOAD PUSH2 0x65 SWAP5 SWAP4 SWAP3 SWAP2 SWAP1 PUSH2 0x51D JUMP JUMPDEST PUSH1 0x40 MLOAD DUP1 SWAP2 SUB SWAP1 RETURN JUMPDEST PUSH2 0x88 PUSH1 0x4 DUP1 CALLDATASIZE SUB DUP2 ADD SWAP1 PUSH2 0x83 SWAP2 SWAP1 PUSH2 0x436 JUMP JUMPDEST PUSH2 0x1CA JUMP JUMPDEST STOP JUMPDEST PUSH1 0x0 PUSH1 0x20 MSTORE DUP1 PUSH1 0x0 MSTORE PUSH1 0x40 PUSH1 0x0 KECCAK256 PUSH1 0x0 SWAP2 POP SWAP1 POP DUP1 PUSH1 0x0 ADD DUP1 SLOAD PUSH2 0xAD SWAP1 PUSH2 0x6B6 JUMP JUMPDEST DUP1 PUSH1 0x1F ADD PUSH1 0x20 DUP1 SWAP2 DIV MUL PUSH1 0x20 ADD PUSH1 0x40 MLOAD SWAP1 DUP2 ADD PUSH1 0x40 MSTORE DUP1 SWAP3 SWAP2 SWAP1 DUP2 DUP2 MSTORE PUSH1 0x20 ADD DUP3 DUP1 SLOAD PUSH2 0xD9 SWAP1 PUSH2 0x6B6 JUMP JUMPDEST DUP1 ISZERO PUSH2 0x126 JUMPI DUP1 PUSH1 0x1F LT PUSH2 0xFB JUMPI PUSH2 0x100 DUP1 DUP4 SLOAD DIV MUL DUP4 MSTORE SWAP2 PUSH1 0x20 ADD SWAP2 PUSH2 0x126 JUMP JUMPDEST DUP3 ADD SWAP2 SWAP1 PUSH1 0x0 MSTORE PUSH1 0x20 PUSH1 0x0 KECCAK256 SWAP1 JUMPDEST DUP2 SLOAD DUP2 MSTORE SWAP1 PUSH1 0x1 ADD SWAP1 PUSH1 0x20 ADD DUP1 DUP4 GT PUSH2 0x109 JUMPI DUP3 SWAP1 SUB PUSH1 0x1F AND DUP3 ADD SWAP2 JUMPDEST POP POP POP POP POP SWAP1 DUP1 PUSH1 0x1 ADD SLOAD SWAP1 DUP1 PUSH1 0x2 ADD DUP1 SLOAD PUSH2 0x141 SWAP1 PUSH2 0x6B6 JUMP JUMPDEST DUP1 PUSH1 0x1F ADD PUSH1 0x20 DUP1 SWAP2 DIV MUL PUSH1 0x20 ADD PUSH1 0x40 MLOAD SWAP1 DUP2 ADD PUSH1 0x40 MSTORE DUP1 SWAP3 SWAP2 SWAP1 DUP2 DUP2 MSTORE PUSH1 0x20 ADD DUP3 DUP1 SLOAD PUSH2 0x16D SWAP1 PUSH2 0x6B6 JUMP JUMPDEST DUP1 ISZERO PUSH2 0x1BA JUMPI DUP1 PUSH1 0x1F LT PUSH2 0x18F JUMPI PUSH2 0x100 DUP1 DUP4 SLOAD DIV MUL DUP4 MSTORE SWAP2 PUSH1 0x20 ADD SWAP2 PUSH2 0x1BA JUMP JUMPDEST DUP3 ADD SWAP2 SWAP1 PUSH1 0x0 MSTORE PUSH1 0x20 PUSH1 0x0 KECCAK256 SWAP1 JUMPDEST DUP2 SLOAD DUP2 MSTORE SWAP1 PUSH1 0x1 ADD SWAP1 PUSH1 0x20 ADD DUP1 DUP4 GT PUSH2 0x19D JUMPI DUP3 SWAP1 SUB PUSH1 0x1F AND DUP3 ADD SWAP2 JUMPDEST POP POP POP POP POP SWAP1 DUP1 PUSH1 0x3 ADD SLOAD SWAP1 POP DUP5 JUMP JUMPDEST PUSH1 0x40 MLOAD DUP1 PUSH1 0x80 ADD PUSH1 0x40 MSTORE DUP1 DUP6 DUP2 MSTORE PUSH1 0x20 ADD DUP5 DUP2 MSTORE PUSH1 0x20 ADD DUP4 DUP2 MSTORE PUSH1 0x20 ADD DUP3 PUSH1 0x0 DUP1 CALLER PUSH20 0xFFFFFFFFFFFFFFFFFFFFFFFFFFFFFFFFFFFFFFFF AND PUSH20 0xFFFFFFFFFFFFFFFFFFFFFFFFFFFFFFFFFFFFFFFF AND DUP2 MSTORE PUSH1 0x20 ADD SWAP1 DUP2 MSTORE PUSH1 0x20 ADD PUSH1 0x0 KECCAK256 PUSH1 0x3 ADD SLOAD PUSH2 0x234 SWAP2 SWAP1 PUSH2 0x5E2 JUMP JUMPDEST DUP2 MSTORE POP PUSH1 0x0 DUP1 CALLER PUSH20 0xFFFFFFFFFFFFFFFFFFFFFFFFFFFFFFFFFFFFFFFF AND PUSH20 0xFFFFFFFFFFFFFFFFFFFFFFFFFFFFFFFFFFFFFFFF AND DUP2 MSTORE PUSH1 0x20 ADD SWAP1 DUP2 MSTORE PUSH1 0x20 ADD PUSH1 0x0 KECCAK256 PUSH1 0x0 DUP3 ADD MLOAD DUP2 PUSH1 0x0 ADD SWAP1 DUP1 MLOAD SWAP1 PUSH1 0x20 ADD SWAP1 PUSH2 0x291 SWAP3 SWAP2 SWAP1 PUSH2 0x2CC JUMP JUMPDEST POP PUSH1 0x20 DUP3 ADD MLOAD DUP2 PUSH1 0x1 ADD SSTORE PUSH1 0x40 DUP3 ADD MLOAD DUP2 PUSH1 0x2 ADD SWAP1 DUP1 MLOAD SWAP1 PUSH1 0x20 ADD SWAP1 PUSH2 0x2B8 SWAP3 SWAP2 SWAP1 PUSH2 0x2CC JUMP JUMPDEST POP PUSH1 0x60 DUP3 ADD MLOAD DUP2 PUSH1 0x3 ADD SSTORE SWAP1 POP POP POP POP POP POP JUMP JUMPDEST DUP3 DUP1 SLOAD PUSH2 0x2D8 SWAP1 PUSH2 0x6B6 JUMP JUMPDEST SWAP1 PUSH1 0x0 MSTORE PUSH1 0x20 PUSH1 0x0 KECCAK256 SWAP1 PUSH1 0x1F ADD PUSH1 0x20 SWAP1 DIV DUP2 ADD SWAP3 DUP3 PUSH2 0x2FA JUMPI PUSH1 0x0 DUP6 SSTORE PUSH2 0x341 JUMP JUMPDEST DUP3 PUSH1 0x1F LT PUSH2 0x313 JUMPI DUP1 MLOAD PUSH1 0xFF NOT AND DUP4 DUP1 ADD OR DUP6 SSTORE PUSH2 0x341 JUMP JUMPDEST DUP3 DUP1 ADD PUSH1 0x1 ADD DUP6 SSTORE DUP3 ISZERO PUSH2 0x341 JUMPI SWAP2 DUP3 ADD JUMPDEST DUP3 DUP2 GT ISZERO PUSH2 0x340 JUMPI DUP3 MLOAD DUP3 SSTORE SWAP2 PUSH1 0x20 ADD SWAP2 SWAP1 PUSH1 0x1 ADD SWAP1 PUSH2 0x325 JUMP JUMPDEST JUMPDEST POP SWAP1 POP PUSH2 0x34E SWAP2 SWAP1 PUSH2 0x352 JUMP JUMPDEST POP SWAP1 JUMP JUMPDEST JUMPDEST DUP1 DUP3 GT ISZERO PUSH2 0x36B JUMPI PUSH1 0x0 DUP2 PUSH1 0x0 SWAP1 SSTORE POP PUSH1 0x1 ADD PUSH2 0x353 JUMP JUMPDEST POP SWAP1 JUMP JUMPDEST PUSH1 0x0 PUSH2 0x382 PUSH2 0x37D DUP5 PUSH2 0x595 JUMP JUMPDEST PUSH2 0x570 JUMP JUMPDEST SWAP1 POP DUP3 DUP2 MSTORE PUSH1 0x20 DUP2 ADD DUP5 DUP5 DUP5 ADD GT ISZERO PUSH2 0x39E JUMPI PUSH2 0x39D PUSH2 0x7AB JUMP JUMPDEST JUMPDEST PUSH2 0x3A9 DUP5 DUP3 DUP6 PUSH2 0x674 JUMP JUMPDEST POP SWAP4 SWAP3 POP POP POP JUMP JUMPDEST PUSH1 0x0 DUP2 CALLDATALOAD SWAP1 POP PUSH2 0x3C0 DUP2 PUSH2 0x7CB JUMP JUMPDEST SWAP3 SWAP2 POP POP JUMP JUMPDEST PUSH1 0x0 DUP3 PUSH1 0x1F DUP4 ADD SLT PUSH2 0x3DB JUMPI PUSH2 0x3DA PUSH2 0x7A6 JUMP JUMPDEST JUMPDEST DUP2 CALLDATALOAD PUSH2 0x3EB DUP5 DUP3 PUSH1 0x20 DUP7 ADD PUSH2 0x36F JUMP JUMPDEST SWAP2 POP POP SWAP3 SWAP2 POP POP JUMP JUMPDEST PUSH1 0x0 DUP2 CALLDATALOAD SWAP1 POP PUSH2 0x403 DUP2 PUSH2 0x7E2 JUMP JUMPDEST SWAP3 SWAP2 POP POP JUMP JUMPDEST PUSH1 0x0 PUSH1 0x20 DUP3 DUP5 SUB SLT ISZERO PUSH2 0x41F JUMPI PUSH2 0x41E PUSH2 0x7B5 JUMP JUMPDEST JUMPDEST PUSH1 0x0 PUSH2 0x42D DUP5 DUP3 DUP6 ADD PUSH2 0x3B1 JUMP JUMPDEST SWAP2 POP POP SWAP3 SWAP2 POP POP JUMP JUMPDEST PUSH1 0x0 DUP1 PUSH1 0x0 DUP1 PUSH1 0x80 DUP6 DUP8 SUB SLT ISZERO PUSH2 0x450 JUMPI PUSH2 0x44F PUSH2 0x7B5 JUMP JUMPDEST JUMPDEST PUSH1 0x0 DUP6 ADD CALLDATALOAD PUSH8 0xFFFFFFFFFFFFFFFF DUP2 GT ISZERO PUSH2 0x46E JUMPI PUSH2 0x46D PUSH2 0x7B0 JUMP JUMPDEST JUMPDEST PUSH2 0x47A DUP8 DUP3 DUP9 ADD PUSH2 0x3C6 JUMP JUMPDEST SWAP5 POP POP PUSH1 0x20 PUSH2 0x48B DUP8 DUP3 DUP9 ADD PUSH2 0x3F4 JUMP JUMPDEST SWAP4 POP POP PUSH1 0x40 DUP6 ADD CALLDATALOAD PUSH8 0xFFFFFFFFFFFFFFFF DUP2 GT ISZERO PUSH2 0x4AC JUMPI PUSH2 0x4AB PUSH2 0x7B0 JUMP JUMPDEST JUMPDEST PUSH2 0x4B8 DUP8 DUP3 DUP9 ADD PUSH2 0x3C6 JUMP JUMPDEST SWAP3 POP POP PUSH1 0x60 PUSH2 0x4C9 DUP8 DUP3 DUP9 ADD PUSH2 0x3F4 JUMP JUMPDEST SWAP2 POP POP SWAP3 SWAP6 SWAP2 SWAP5 POP SWAP3 POP JUMP JUMPDEST PUSH1 0x0 PUSH2 0x4E0 DUP3 PUSH2 0x5C6 JUMP JUMPDEST PUSH2 0x4EA DUP2 DUP6 PUSH2 0x5D1 JUMP JUMPDEST SWAP4 POP PUSH2 0x4FA DUP2 DUP6 PUSH1 0x20 DUP7 ADD PUSH2 0x683 JUMP JUMPDEST PUSH2 0x503 DUP2 PUSH2 0x7BA JUMP JUMPDEST DUP5 ADD SWAP2 POP POP SWAP3 SWAP2 POP POP JUMP JUMPDEST PUSH2 0x517 DUP2 PUSH2 0x66A JUMP JUMPDEST DUP3 MSTORE POP POP JUMP JUMPDEST PUSH1 0x0 PUSH1 0x80 DUP3 ADD SWAP1 POP DUP2 DUP2 SUB PUSH1 0x0 DUP4 ADD MSTORE PUSH2 0x537 DUP2 DUP8 PUSH2 0x4D5 JUMP JUMPDEST SWAP1 POP PUSH2 0x546 PUSH1 0x20 DUP4 ADD DUP7 PUSH2 0x50E JUMP JUMPDEST DUP2 DUP2 SUB PUSH1 0x40 DUP4 ADD MSTORE PUSH2 0x558 DUP2 DUP6 PUSH2 0x4D5 JUMP JUMPDEST SWAP1 POP PUSH2 0x567 PUSH1 0x60 DUP4 ADD DUP5 PUSH2 0x50E JUMP JUMPDEST SWAP6 SWAP5 POP POP POP POP POP JUMP JUMPDEST PUSH1 0x0 PUSH2 0x57A PUSH2 0x58B JUMP JUMPDEST SWAP1 POP PUSH2 0x586 DUP3 DUP3 PUSH2 0x6E8 JUMP JUMPDEST SWAP2 SWAP1 POP JUMP JUMPDEST PUSH1 0x0 PUSH1 0x40 MLOAD SWAP1 POP SWAP1 JUMP JUMPDEST PUSH1 0x0 PUSH8 0xFFFFFFFFFFFFFFFF DUP3 GT ISZERO PUSH2 0x5B0 JUMPI PUSH2 0x5AF PUSH2 0x777 JUMP JUMPDEST JUMPDEST PUSH2 0x5B9 DUP3 PUSH2 0x7BA JUMP JUMPDEST SWAP1 POP PUSH1 0x20 DUP2 ADD SWAP1 POP SWAP2 SWAP1 POP JUMP JUMPDEST PUSH1 0x0 DUP2 MLOAD SWAP1 POP SWAP2 SWAP1 POP JUMP JUMPDEST PUSH1 0x0 DUP3 DUP3 MSTORE PUSH1 0x20 DUP3 ADD SWAP1 POP SWAP3 SWAP2 POP POP JUMP JUMPDEST PUSH1 0x0 PUSH2 0x5ED DUP3 PUSH2 0x66A JUMP JUMPDEST SWAP2 POP PUSH2 0x5F8 DUP4 PUSH2 0x66A JUMP JUMPDEST SWAP3 POP DUP3 PUSH32 0xFFFFFFFFFFFFFFFFFFFFFFFFFFFFFFFFFFFFFFFFFFFFFFFFFFFFFFFFFFFFFFFF SUB DUP3 GT ISZERO PUSH2 0x62D JUMPI PUSH2 0x62C PUSH2 0x719 JUMP JUMPDEST JUMPDEST DUP3 DUP3 ADD SWAP1 POP SWAP3 SWAP2 POP POP JUMP JUMPDEST PUSH1 0x0 PUSH2 0x643 DUP3 PUSH2 0x64A JUMP JUMPDEST SWAP1 POP SWAP2 SWAP1 POP JUMP JUMPDEST PUSH1 0x0 PUSH20 0xFFFFFFFFFFFFFFFFFFFFFFFFFFFFFFFFFFFFFFFF DUP3 AND SWAP1 POP SWAP2 SWAP1 POP JUMP JUMPDEST PUSH1 0x0 DUP2 SWAP1 POP SWAP2 SWAP1 POP JUMP JUMPDEST DUP3 DUP2 DUP4 CALLDATACOPY PUSH1 0x0 DUP4 DUP4 ADD MSTORE POP POP POP JUMP JUMPDEST PUSH1 0x0 JUMPDEST DUP4 DUP2 LT ISZERO PUSH2 0x6A1 JUMPI DUP1 DUP3 ADD MLOAD DUP2 DUP5 ADD MSTORE PUSH1 0x20 DUP2 ADD SWAP1 POP PUSH2 0x686 JUMP JUMPDEST DUP4 DUP2 GT ISZERO PUSH2 0x6B0 JUMPI PUSH1 0x0 DUP5 DUP5 ADD MSTORE JUMPDEST POP POP POP POP JUMP JUMPDEST PUSH1 0x0 PUSH1 0x2 DUP3 DIV SWAP1 POP PUSH1 0x1 DUP3 AND DUP1 PUSH2 0x6CE JUMPI PUSH1 0x7F DUP3 AND SWAP2 POP JUMPDEST PUSH1 0x20 DUP3 LT DUP2 EQ ISZERO PUSH2 0x6E2 JUMPI PUSH2 0x6E1 PUSH2 0x748 JUMP JUMPDEST JUMPDEST POP SWAP2 SWAP1 POP JUMP JUMPDEST PUSH2 0x6F1 DUP3 PUSH2 0x7BA JUMP JUMPDEST DUP2 ADD DUP2 DUP2 LT PUSH8 0xFFFFFFFFFFFFFFFF DUP3 GT OR ISZERO PUSH2 0x710 JUMPI PUSH2 0x70F PUSH2 0x777 JUMP JUMPDEST JUMPDEST DUP1 PUSH1 0x40 MSTORE POP POP POP JUMP JUMPDEST PUSH32 0x4E487B7100000000000000000000000000000000000000000000000000000000 PUSH1 0x0 MSTORE PUSH1 0x11 PUSH1 0x4 MSTORE PUSH1 0x24 PUSH1 0x0 REVERT JUMPDEST PUSH32 0x4E487B7100000000000000000000000000000000000000000000000000000000 PUSH1 0x0 MSTORE PUSH1 0x22 PUSH1 0x4 MSTORE PUSH1 0x24 PUSH1 0x0 REVERT JUMPDEST PUSH32 0x4E487B7100000000000000000000000000000000000000000000000000000000 PUSH1 0x0 MSTORE PUSH1 0x41 PUSH1 0x4 MSTORE PUSH1 0x24 PUSH1 0x0 REVERT JUMPDEST PUSH1 0x0 DUP1 REVERT JUMPDEST PUSH1 0x0 DUP1 REVERT JUMPDEST PUSH1 0x0 DUP1 REVERT JUMPDEST PUSH1 0x0 DUP1 REVERT JUMPDEST PUSH1 0x0 PUSH1 0x1F NOT PUSH1 0x1F DUP4 ADD AND SWAP1 POP SWAP2 SWAP1 POP JUMP JUMPDEST PUSH2 0x7D4 DUP2 PUSH2 0x638 JUMP JUMPDEST DUP2 EQ PUSH2 0x7DF JUMPI PUSH1 0x0 DUP1 REVERT JUMPDEST POP JUMP JUMPDEST PUSH2 0x7EB DUP2 PUSH2 0x66A JUMP JUMPDEST DUP2 EQ PUSH2 0x7F6 JUMPI PUSH1 0x0 DUP1 REVERT JUMPDEST POP JUMP INVALID LOG2 PUSH5 0x6970667358 0x22 SLT KECCAK256 OR 0xCC ADDRESS 0xAA DUP6 0xD1 STATICCALL 0xE7 0x2A 0xED PUSH15 0x8B4EB511FDAB14DDD42F9C850D9AE3 0x27 0x49 0xDD PUSH17 0xC17F64736F6C6343000807003300000000 "
				},
				"gasEstimates": {
					"creation": {
						"codeDepositCost": "419000",
						"executionCost": "455",
						"totalCost": "419455"
					},
					"external": {
						"acc_info(address)": "infinite",
						"set(string,uint256,string,uint256)": "infinite"
					}
				},
				"methodIdentifiers": {
					"acc_info(address)": "0d0d1e2b",
					"set(string,uint256,string,uint256)": "628e48f9"
				}
			},
			"storageLayout": {
				"storage": [
					{
						"astId": 15,
						"contract": "mappingImplementation_2.sol:advmapping",
						"label": "acc_info",
						"offset": 0,
						"slot": "0",
						"type": "t_mapping(t_address,t_struct(donor_dts)10_storage)"
					}
				],
				"types": {
					"t_address": {
						"encoding": "inplace",
						"label": "address",
						"numberOfBytes": "20"
					},
					"t_mapping(t_address,t_struct(donor_dts)10_storage)": {
						"encoding": "mapping",
						"key": "t_address",
						"label": "mapping(address => struct donor_dts)",
						"numberOfBytes": "32",
						"value": "t_struct(donor_dts)10_storage"
					},
					"t_string_storage": {
						"encoding": "bytes",
						"label": "string",
						"numberOfBytes": "32"
					},
					"t_struct(donor_dts)10_storage": {
						"encoding": "inplace",
						"label": "struct donor_dts",
						"members": [
							{
								"astId": 3,
								"contract": "mappingImplementation_2.sol:advmapping",
								"label": "name",
								"offset": 0,
								"slot": "0",
								"type": "t_string_storage"
							},
							{
								"astId": 5,
								"contract": "mappingImplementation_2.sol:advmapping",
								"label": "age",
								"offset": 0,
								"slot": "1",
								"type": "t_uint256"
							},
							{
								"astId": 7,
								"contract": "mappingImplementation_2.sol:advmapping",
								"label": "add",
								"offset": 0,
								"slot": "2",
								"type": "t_string_storage"
							},
							{
								"astId": 9,
								"contract": "mappingImplementation_2.sol:advmapping",
								"label": "don",
								"offset": 0,
								"slot": "3",
								"type": "t_uint256"
							}
						],
						"numberOfBytes": "128"
					},
					"t_uint256": {
						"encoding": "inplace",
						"label": "uint256",
						"numberOfBytes": "32"
					}
				}
			},
			"userdoc": {
				"kind": "user",
				"methods": {},
				"version": 1
			}
		}
	}
}