{
	"callingFunctionParent.sol": {
		"A": {
			"abi": [
				{
					"anonymous": false,
					"inputs": [
						{
							"indexed": false,
							"internalType": "string",
							"name": "name",
							"type": "string"
						},
						{
							"indexed": false,
							"internalType": "uint256",
							"name": "age",
							"type": "uint256"
						}
					],
					"name": "log",
					"type": "event"
				},
				{
					"inputs": [],
					"name": "fun1",
					"outputs": [],
					"stateMutability": "nonpayable",
					"type": "function"
				},
				{
					"inputs": [],
					"name": "fun2",
					"outputs": [],
					"stateMutability": "nonpayable",
					"type": "function"
				}
			],
			"devdoc": {
				"kind": "dev",
				"methods": {},
				"version": 1
			},
			"evm": {
				"assembly": "    /* \"callingFunctionParent.sol\":62:271  contract A{... */\n  mstore(0x40, 0x80)\n  callvalue\n  dup1\n  iszero\n  tag_1\n  jumpi\n  0x00\n  dup1\n  revert\ntag_1:\n  pop\n  dataSize(sub_0)\n  dup1\n  dataOffset(sub_0)\n  0x00\n  codecopy\n  0x00\n  return\nstop\n\nsub_0: assembly {\n        /* \"callingFunctionParent.sol\":62:271  contract A{... */\n      mstore(0x40, 0x80)\n      callvalue\n      dup1\n      iszero\n      tag_1\n      jumpi\n      0x00\n      dup1\n      revert\n    tag_1:\n      pop\n      jumpi(tag_2, lt(calldatasize, 0x04))\n      shr(0xe0, calldataload(0x00))\n      dup1\n      0x157b5167\n      eq\n      tag_3\n      jumpi\n      dup1\n      0x446a45b7\n      eq\n      tag_4\n      jumpi\n    tag_2:\n      0x00\n      dup1\n      revert\n        /* \"callingFunctionParent.sol\":199:269  function fun2() public virtual{... */\n    tag_3:\n      tag_5\n      tag_6\n      jump\t// in\n    tag_5:\n      stop\n        /* \"callingFunctionParent.sol\":122:193  function fun1() public virtual {... */\n    tag_4:\n      tag_7\n      tag_8\n      jump\t// in\n    tag_7:\n      stop\n        /* \"callingFunctionParent.sol\":199:269  function fun2() public virtual{... */\n    tag_6:\n        /* \"callingFunctionParent.sol\":244:262  log(\"A.func2\", 21) */\n      0xb60e72ccf6d57ab53eb84d7e94a9545806ed7f93c4d5673f11a64f03471e584e\n        /* \"callingFunctionParent.sol\":259:261  21 */\n      0x15\n        /* \"callingFunctionParent.sol\":244:262  log(\"A.func2\", 21) */\n      mload(0x40)\n      tag_10\n      swap2\n      swap1\n      tag_11\n      jump\t// in\n    tag_10:\n      mload(0x40)\n      dup1\n      swap2\n      sub\n      swap1\n      log1\n        /* \"callingFunctionParent.sol\":199:269  function fun2() public virtual{... */\n      jump\t// out\n        /* \"callingFunctionParent.sol\":122:193  function fun1() public virtual {... */\n    tag_8:\n        /* \"callingFunctionParent.sol\":168:186  log(\"A.func1\", 21) */\n      0xb60e72ccf6d57ab53eb84d7e94a9545806ed7f93c4d5673f11a64f03471e584e\n        /* \"callingFunctionParent.sol\":183:185  21 */\n      0x15\n        /* \"callingFunctionParent.sol\":168:186  log(\"A.func1\", 21) */\n      mload(0x40)\n      tag_13\n      swap2\n      swap1\n      tag_14\n      jump\t// in\n    tag_13:\n      mload(0x40)\n      dup1\n      swap2\n      sub\n      swap1\n      log1\n        /* \"callingFunctionParent.sol\":122:193  function fun1() public virtual {... */\n      jump\t// out\n        /* \"#utility.yul\":7:156   */\n    tag_16:\n        /* \"#utility.yul\":103:149   */\n      tag_18\n        /* \"#utility.yul\":143:148   */\n      dup2\n        /* \"#utility.yul\":103:149   */\n      tag_19\n      jump\t// in\n    tag_18:\n        /* \"#utility.yul\":98:101   */\n      dup3\n        /* \"#utility.yul\":91:150   */\n      mstore\n        /* \"#utility.yul\":7:156   */\n      pop\n      pop\n      jump\t// out\n        /* \"#utility.yul\":162:527   */\n    tag_20:\n        /* \"#utility.yul\":304:307   */\n      0x00\n        /* \"#utility.yul\":325:391   */\n      tag_22\n        /* \"#utility.yul\":389:390   */\n      0x07\n        /* \"#utility.yul\":384:387   */\n      dup4\n        /* \"#utility.yul\":325:391   */\n      tag_23\n      jump\t// in\n    tag_22:\n        /* \"#utility.yul\":318:391   */\n      swap2\n      pop\n        /* \"#utility.yul\":400:493   */\n      tag_24\n        /* \"#utility.yul\":489:492   */\n      dup3\n        /* \"#utility.yul\":400:493   */\n      tag_25\n      jump\t// in\n    tag_24:\n        /* \"#utility.yul\":518:520   */\n      0x20\n        /* \"#utility.yul\":513:516   */\n      dup3\n        /* \"#utility.yul\":509:521   */\n      add\n        /* \"#utility.yul\":502:521   */\n      swap1\n      pop\n        /* \"#utility.yul\":162:527   */\n      swap2\n      swap1\n      pop\n      jump\t// out\n        /* \"#utility.yul\":533:898   */\n    tag_26:\n        /* \"#utility.yul\":675:678   */\n      0x00\n        /* \"#utility.yul\":696:762   */\n      tag_28\n        /* \"#utility.yul\":760:761   */\n      0x07\n        /* \"#utility.yul\":755:758   */\n      dup4\n        /* \"#utility.yul\":696:762   */\n      tag_23\n      jump\t// in\n    tag_28:\n        /* \"#utility.yul\":689:762   */\n      swap2\n      pop\n        /* \"#utility.yul\":771:864   */\n      tag_29\n        /* \"#utility.yul\":860:863   */\n      dup3\n        /* \"#utility.yul\":771:864   */\n      tag_30\n      jump\t// in\n    tag_29:\n        /* \"#utility.yul\":889:891   */\n      0x20\n        /* \"#utility.yul\":884:887   */\n      dup3\n        /* \"#utility.yul\":880:892   */\n      add\n        /* \"#utility.yul\":873:892   */\n      swap1\n      pop\n        /* \"#utility.yul\":533:898   */\n      swap2\n      swap1\n      pop\n      jump\t// out\n        /* \"#utility.yul\":904:1451   */\n    tag_11:\n        /* \"#utility.yul\":1107:1111   */\n      0x00\n        /* \"#utility.yul\":1145:1147   */\n      0x40\n        /* \"#utility.yul\":1134:1143   */\n      dup3\n        /* \"#utility.yul\":1130:1148   */\n      add\n        /* \"#utility.yul\":1122:1148   */\n      swap1\n      pop\n        /* \"#utility.yul\":1194:1203   */\n      dup2\n        /* \"#utility.yul\":1188:1192   */\n      dup2\n        /* \"#utility.yul\":1184:1204   */\n      sub\n        /* \"#utility.yul\":1180:1181   */\n      0x00\n        /* \"#utility.yul\":1169:1178   */\n      dup4\n        /* \"#utility.yul\":1165:1182   */\n      add\n        /* \"#utility.yul\":1158:1205   */\n      mstore\n        /* \"#utility.yul\":1222:1353   */\n      tag_32\n        /* \"#utility.yul\":1348:1352   */\n      dup2\n        /* \"#utility.yul\":1222:1353   */\n      tag_20\n      jump\t// in\n    tag_32:\n        /* \"#utility.yul\":1214:1353   */\n      swap1\n      pop\n        /* \"#utility.yul\":1363:1444   */\n      tag_33\n        /* \"#utility.yul\":1440:1442   */\n      0x20\n        /* \"#utility.yul\":1429:1438   */\n      dup4\n        /* \"#utility.yul\":1425:1443   */\n      add\n        /* \"#utility.yul\":1416:1422   */\n      dup5\n        /* \"#utility.yul\":1363:1444   */\n      tag_16\n      jump\t// in\n    tag_33:\n        /* \"#utility.yul\":904:1451   */\n      swap3\n      swap2\n      pop\n      pop\n      jump\t// out\n        /* \"#utility.yul\":1457:2004   */\n    tag_14:\n        /* \"#utility.yul\":1660:1664   */\n      0x00\n        /* \"#utility.yul\":1698:1700   */\n      0x40\n        /* \"#utility.yul\":1687:1696   */\n      dup3\n        /* \"#utility.yul\":1683:1701   */\n      add\n        /* \"#utility.yul\":1675:1701   */\n      swap1\n      pop\n        /* \"#utility.yul\":1747:1756   */\n      dup2\n        /* \"#utility.yul\":1741:1745   */\n      dup2\n        /* \"#utility.yul\":1737:1757   */\n      sub\n        /* \"#utility.yul\":1733:1734   */\n      0x00\n        /* \"#utility.yul\":1722:1731   */\n      dup4\n        /* \"#utility.yul\":1718:1735   */\n      add\n        /* \"#utility.yul\":1711:1758   */\n      mstore\n        /* \"#utility.yul\":1775:1906   */\n      tag_35\n        /* \"#utility.yul\":1901:1905   */\n      dup2\n        /* \"#utility.yul\":1775:1906   */\n      tag_26\n      jump\t// in\n    tag_35:\n        /* \"#utility.yul\":1767:1906   */\n      swap1\n      pop\n        /* \"#utility.yul\":1916:1997   */\n      tag_36\n        /* \"#utility.yul\":1993:1995   */\n      0x20\n        /* \"#utility.yul\":1982:1991   */\n      dup4\n        /* \"#utility.yul\":1978:1996   */\n      add\n        /* \"#utility.yul\":1969:1975   */\n      dup5\n        /* \"#utility.yul\":1916:1997   */\n      tag_16\n      jump\t// in\n    tag_36:\n        /* \"#utility.yul\":1457:2004   */\n      swap3\n      swap2\n      pop\n      pop\n      jump\t// out\n        /* \"#utility.yul\":2010:2179   */\n    tag_23:\n        /* \"#utility.yul\":2094:2105   */\n      0x00\n        /* \"#utility.yul\":2128:2134   */\n      dup3\n        /* \"#utility.yul\":2123:2126   */\n      dup3\n        /* \"#utility.yul\":2116:2135   */\n      mstore\n        /* \"#utility.yul\":2168:2172   */\n      0x20\n        /* \"#utility.yul\":2163:2166   */\n      dup3\n        /* \"#utility.yul\":2159:2173   */\n      add\n        /* \"#utility.yul\":2144:2173   */\n      swap1\n      pop\n        /* \"#utility.yul\":2010:2179   */\n      swap3\n      swap2\n      pop\n      pop\n      jump\t// out\n        /* \"#utility.yul\":2185:2262   */\n    tag_38:\n        /* \"#utility.yul\":2222:2229   */\n      0x00\n        /* \"#utility.yul\":2251:2256   */\n      dup2\n        /* \"#utility.yul\":2240:2256   */\n      swap1\n      pop\n        /* \"#utility.yul\":2185:2262   */\n      swap2\n      swap1\n      pop\n      jump\t// out\n        /* \"#utility.yul\":2268:2390   */\n    tag_19:\n        /* \"#utility.yul\":2327:2336   */\n      0x00\n        /* \"#utility.yul\":2360:2384   */\n      tag_41\n        /* \"#utility.yul\":2378:2383   */\n      dup3\n        /* \"#utility.yul\":2360:2384   */\n      tag_38\n      jump\t// in\n    tag_41:\n        /* \"#utility.yul\":2347:2384   */\n      swap1\n      pop\n        /* \"#utility.yul\":2268:2390   */\n      swap2\n      swap1\n      pop\n      jump\t// out\n        /* \"#utility.yul\":2396:2553   */\n    tag_25:\n        /* \"#utility.yul\":2536:2545   */\n      0x412e66756e633200000000000000000000000000000000000000000000000000\n        /* \"#utility.yul\":2532:2533   */\n      0x00\n        /* \"#utility.yul\":2524:2530   */\n      dup3\n        /* \"#utility.yul\":2520:2534   */\n      add\n        /* \"#utility.yul\":2513:2546   */\n      mstore\n        /* \"#utility.yul\":2396:2553   */\n      pop\n      jump\t// out\n        /* \"#utility.yul\":2559:2716   */\n    tag_30:\n        /* \"#utility.yul\":2699:2708   */\n      0x412e66756e633100000000000000000000000000000000000000000000000000\n        /* \"#utility.yul\":2695:2696   */\n      0x00\n        /* \"#utility.yul\":2687:2693   */\n      dup3\n        /* \"#utility.yul\":2683:2697   */\n      add\n        /* \"#utility.yul\":2676:2709   */\n      mstore\n        /* \"#utility.yul\":2559:2716   */\n      pop\n      jump\t// out\n\n    auxdata: 0xa26469706673582212207b398cc2907938ef5532548f6d0c9678d6052026dfd119d3f08a7abdd47c0cab64736f6c63430008070033\n}\n",
				"bytecode": {
					"linkReferences": {},
					"object": "608060405234801561001057600080fd5b50610229806100206000396000f3fe608060405234801561001057600080fd5b50600436106100365760003560e01c8063157b51671461003b578063446a45b714610045575b600080fd5b61004361004f565b005b61004d610089565b005b7fb60e72ccf6d57ab53eb84d7e94a9545806ed7f93c4d5673f11a64f03471e584e601560405161007f9190610118565b60405180910390a1565b7fb60e72ccf6d57ab53eb84d7e94a9545806ed7f93c4d5673f11a64f03471e584e60156040516100b99190610146565b60405180910390a1565b6100cc8161018f565b82525050565b60006100df600783610174565b91506100ea826101a1565b602082019050919050565b6000610102600783610174565b915061010d826101ca565b602082019050919050565b60006040820190508181036000830152610131816100d2565b905061014060208301846100c3565b92915050565b6000604082019050818103600083015261015f816100f5565b905061016e60208301846100c3565b92915050565b600082825260208201905092915050565b6000819050919050565b600061019a82610185565b9050919050565b7f412e66756e633200000000000000000000000000000000000000000000000000600082015250565b7f412e66756e63310000000000000000000000000000000000000000000000000060008201525056fea26469706673582212207b398cc2907938ef5532548f6d0c9678d6052026dfd119d3f08a7abdd47c0cab64736f6c63430008070033",
					"opcodes": "PUSH1 0x80 PUSH1 0x40 MSTORE CALLVALUE DUP1 ISZERO PUSH2 0x10 JUMPI PUSH1 0x0 DUP1 REVERT JUMPDEST POP PUSH2 0x229 DUP1 PUSH2 0x20 PUSH1 0x0 CODECOPY PUSH1 0x0 RETURN INVALID PUSH1 0x80 PUSH1 0x40 MSTORE CALLVALUE DUP1 ISZERO PUSH2 0x10 JUMPI PUSH1 0x0 DUP1 REVERT JUMPDEST POP PUSH1 0x4 CALLDATASIZE LT PUSH2 0x36 JUMPI PUSH1 0x0 CALLDATALOAD PUSH1 0xE0 SHR DUP1 PUSH4 0x157B5167 EQ PUSH2 0x3B JUMPI DUP1 PUSH4 0x446A45B7 EQ PUSH2 0x45 JUMPI JUMPDEST PUSH1 0x0 DUP1 REVERT JUMPDEST PUSH2 0x43 PUSH2 0x4F JUMP JUMPDEST STOP JUMPDEST PUSH2 0x4D PUSH2 0x89 JUMP JUMPDEST STOP JUMPDEST PUSH32 0xB60E72CCF6D57AB53EB84D7E94A9545806ED7F93C4D5673F11A64F03471E584E PUSH1 0x15 PUSH1 0x40 MLOAD PUSH2 0x7F SWAP2 SWAP1 PUSH2 0x118 JUMP JUMPDEST PUSH1 0x40 MLOAD DUP1 SWAP2 SUB SWAP1 LOG1 JUMP JUMPDEST PUSH32 0xB60E72CCF6D57AB53EB84D7E94A9545806ED7F93C4D5673F11A64F03471E584E PUSH1 0x15 PUSH1 0x40 MLOAD PUSH2 0xB9 SWAP2 SWAP1 PUSH2 0x146 JUMP JUMPDEST PUSH1 0x40 MLOAD DUP1 SWAP2 SUB SWAP1 LOG1 JUMP JUMPDEST PUSH2 0xCC DUP2 PUSH2 0x18F JUMP JUMPDEST DUP3 MSTORE POP POP JUMP JUMPDEST PUSH1 0x0 PUSH2 0xDF PUSH1 0x7 DUP4 PUSH2 0x174 JUMP JUMPDEST SWAP2 POP PUSH2 0xEA DUP3 PUSH2 0x1A1 JUMP JUMPDEST PUSH1 0x20 DUP3 ADD SWAP1 POP SWAP2 SWAP1 POP JUMP JUMPDEST PUSH1 0x0 PUSH2 0x102 PUSH1 0x7 DUP4 PUSH2 0x174 JUMP JUMPDEST SWAP2 POP PUSH2 0x10D DUP3 PUSH2 0x1CA JUMP JUMPDEST PUSH1 0x20 DUP3 ADD SWAP1 POP SWAP2 SWAP1 POP JUMP JUMPDEST PUSH1 0x0 PUSH1 0x40 DUP3 ADD SWAP1 POP DUP2 DUP2 SUB PUSH1 0x0 DUP4 ADD MSTORE PUSH2 0x131 DUP2 PUSH2 0xD2 JUMP JUMPDEST SWAP1 POP PUSH2 0x140 PUSH1 0x20 DUP4 ADD DUP5 PUSH2 0xC3 JUMP JUMPDEST SWAP3 SWAP2 POP POP JUMP JUMPDEST PUSH1 0x0 PUSH1 0x40 DUP3 ADD SWAP1 POP DUP2 DUP2 SUB PUSH1 0x0 DUP4 ADD MSTORE PUSH2 0x15F DUP2 PUSH2 0xF5 JUMP JUMPDEST SWAP1 POP PUSH2 0x16E PUSH1 0x20 DUP4 ADD DUP5 PUSH2 0xC3 JUMP JUMPDEST SWAP3 SWAP2 POP POP JUMP JUMPDEST PUSH1 0x0 DUP3 DUP3 MSTORE PUSH1 0x20 DUP3 ADD SWAP1 POP SWAP3 SWAP2 POP POP JUMP JUMPDEST PUSH1 0x0 DUP2 SWAP1 POP SWAP2 SWAP1 POP JUMP JUMPDEST PUSH1 0x0 PUSH2 0x19A DUP3 PUSH2 0x185 JUMP JUMPDEST SWAP1 POP SWAP2 SWAP1 POP JUMP JUMPDEST PUSH32 0x412E66756E633200000000000000000000000000000000000000000000000000 PUSH1 0x0 DUP3 ADD MSTORE POP JUMP JUMPDEST PUSH32 0x412E66756E633100000000000000000000000000000000000000000000000000 PUSH1 0x0 DUP3 ADD MSTORE POP JUMP INVALID LOG2 PUSH5 0x6970667358 0x22 SLT KECCAK256 PUSH28 0x398CC2907938EF5532548F6D0C9678D6052026DFD119D3F08A7ABDD4 PUSH29 0xCAB64736F6C6343000807003300000000000000000000000000000000 "
				},
				"gasEstimates": {
					"creation": {
						"codeDepositCost": "110600",
						"executionCost": "159",
						"totalCost": "110759"
					},
					"external": {
						"fun1()": "2348",
						"fun2()": "2326"
					}
				},
				"methodIdentifiers": {
					"fun1()": "446a45b7",
					"fun2()": "157b5167"
				}
			},
			"storageLayout": {
				"storage": [],
				"types": null
			},
			"userdoc": {
				"kind": "user",
				"methods": {},
				"version": 1
			}
		}
	}
}