{
	"mappingImplementation_2.sol": {
		"advmapping": {
			"abi": [
				{
					"inputs": [
						{
							"internalType": "address",
							"name": "",
							"type": "address"
						}
					],
					"name": "acc_info",
					"outputs": [
						{
							"internalType": "string",
							"name": "name",
							"type": "string"
						},
						{
							"internalType": "uint256",
							"name": "age",
							"type": "uint256"
						},
						{
							"internalType": "string",
							"name": "add",
							"type": "string"
						},
						{
							"internalType": "uint256",
							"name": "don",
							"type": "uint256"
						}
					],
					"stateMutability": "view",
					"type": "function"
				},
				{
					"inputs": [
						{
							"internalType": "string",
							"name": "_name",
							"type": "string"
						},
						{
							"internalType": "uint256",
							"name": "age",
							"type": "uint256"
						},
						{
							"internalType": "string",
							"name": "_add",
							"type": "string"
						},
						{
							"internalType": "uint256",
							"name": "_don",
							"type": "uint256"
						}
					],
					"name": "set",
					"outputs": [],
					"stateMutability": "nonpayable",
					"type": "function"
				}
			],
			"devdoc": {
				"kind": "dev",
				"methods": {},
				"version": 1
			},
			"evm": {
				"assembly": "    /* \"mappingImplementation_2.sol\":145:311  contract advmapping{... */\n  mstore(0x40, 0x80)\n  callvalue\n  dup1\n  iszero\n  tag_1\n  jumpi\n  0x00\n  dup1\n  revert\ntag_1:\n  pop\n  dataSize(sub_0)\n  dup1\n  dataOffset(sub_0)\n  0x00\n  codecopy\n  0x00\n  return\nstop\n\nsub_0: assembly {\n        /* \"mappingImplementation_2.sol\":145:311  contract advmapping{... */\n      mstore(0x40, 0x80)\n      callvalue\n      dup1\n      iszero\n      tag_1\n      jumpi\n      0x00\n      dup1\n      revert\n    tag_1:\n      pop\n      jumpi(tag_2, lt(calldatasize, 0x04))\n      shr(0xe0, calldataload(0x00))\n      dup1\n      0x0d0d1e2b\n      eq\n      tag_3\n      jumpi\n      dup1\n      0x628e48f9\n      eq\n      tag_4\n      jumpi\n    tag_2:\n      0x00\n      dup1\n      revert\n        /* \"mappingImplementation_2.sol\":170:213  mapping(address=>donor_dts) public acc_info */\n    tag_3:\n      tag_5\n      0x04\n      dup1\n      calldatasize\n      sub\n      dup2\n      add\n      swap1\n      tag_6\n      swap2\n      swap1\n      tag_7\n      jump\t// in\n    tag_6:\n      tag_8\n      jump\t// in\n    tag_5:\n      mload(0x40)\n      tag_9\n      swap5\n      swap4\n      swap3\n      swap2\n      swap1\n      tag_10\n      jump\t// in\n    tag_9:\n      mload(0x40)\n      dup1\n      swap2\n      sub\n      swap1\n      return\n        /* \"mappingImplementation_2.sol\":220:309  function set(string memory _name, uint age, string memory _add, uint _don) public{... */\n    tag_4:\n      tag_11\n      0x04\n      dup1\n      calldatasize\n      sub\n      dup2\n      add\n      swap1\n      tag_12\n      swap2\n      swap1\n      tag_13\n      jump\t// in\n    tag_12:\n      tag_14\n      jump\t// in\n    tag_11:\n      stop\n        /* \"mappingImplementation_2.sol\":170:213  mapping(address=>donor_dts) public acc_info */\n    tag_8:\n      mstore(0x20, 0x00)\n      dup1\n      0x00\n      mstore\n      keccak256(0x00, 0x40)\n      0x00\n      swap2\n      pop\n      swap1\n      pop\n      dup1\n      0x00\n      add\n      dup1\n      sload\n      tag_15\n      swap1\n      tag_16\n      jump\t// in\n    tag_15:\n      dup1\n      0x1f\n      add\n      0x20\n      dup1\n      swap2\n      div\n      mul\n      0x20\n      add\n      mload(0x40)\n      swap1\n      dup2\n      add\n      0x40\n      mstore\n      dup1\n      swap3\n      swap2\n      swap1\n      dup2\n      dup2\n      mstore\n      0x20\n      add\n      dup3\n      dup1\n      sload\n      tag_17\n      swap1\n      tag_16\n      jump\t// in\n    tag_17:\n      dup1\n      iszero\n      tag_18\n      jumpi\n      dup1\n      0x1f\n      lt\n      tag_19\n      jumpi\n      0x0100\n      dup1\n      dup4\n      sload\n      div\n      mul\n      dup4\n      mstore\n      swap2\n      0x20\n      add\n      swap2\n      jump(tag_18)\n    tag_19:\n      dup3\n      add\n      swap2\n      swap1\n      0x00\n      mstore\n      keccak256(0x00, 0x20)\n      swap1\n    tag_20:\n      dup2\n      sload\n      dup2\n      mstore\n      swap1\n      0x01\n      add\n      swap1\n      0x20\n      add\n      dup1\n      dup4\n      gt\n      tag_20\n      jumpi\n      dup3\n      swap1\n      sub\n      0x1f\n      and\n      dup3\n      add\n      swap2\n    tag_18:\n      pop\n      pop\n      pop\n      pop\n      pop\n      swap1\n      dup1\n      0x01\n      add\n      sload\n      swap1\n      dup1\n      0x02\n      add\n      dup1\n      sload\n      tag_21\n      swap1\n      tag_16\n      jump\t// in\n    tag_21:\n      dup1\n      0x1f\n      add\n      0x20\n      dup1\n      swap2\n      div\n      mul\n      0x20\n      add\n      mload(0x40)\n      swap1\n      dup2\n      add\n      0x40\n      mstore\n      dup1\n      swap3\n      swap2\n      swap1\n      dup2\n      dup2\n      mstore\n      0x20\n      add\n      dup3\n      dup1\n      sload\n      tag_22\n      swap1\n      tag_16\n      jump\t// in\n    tag_22:\n      dup1\n      iszero\n      tag_23\n      jumpi\n      dup1\n      0x1f\n      lt\n      tag_24\n      jumpi\n      0x0100\n      dup1\n      dup4\n      sload\n      div\n      mul\n      dup4\n      mstore\n      swap2\n      0x20\n      add\n      swap2\n      jump(tag_23)\n    tag_24:\n      dup3\n      add\n      swap2\n      swap1\n      0x00\n      mstore\n      keccak256(0x00, 0x20)\n      swap1\n    tag_25:\n      dup2\n      sload\n      dup2\n      mstore\n      swap1\n      0x01\n      add\n      swap1\n      0x20\n      add\n      dup1\n      dup4\n      gt\n      tag_25\n      jumpi\n      dup3\n      swap1\n      sub\n      0x1f\n      and\n      dup3\n      add\n      swap2\n    tag_23:\n      pop\n      pop\n      pop\n      pop\n      pop\n      swap1\n      dup1\n      0x03\n      add\n      sload\n      swap1\n      pop\n      dup5\n      jump\t// out\n        /* \"mappingImplementation_2.sol\":220:309  function set(string memory _name, uint age, string memory _add, uint _don) public{... */\n    tag_14:\n      pop\n      pop\n      pop\n      pop\n      jump\t// out\n        /* \"#utility.yul\":7:419   */\n    tag_28:\n        /* \"#utility.yul\":85:90   */\n      0x00\n        /* \"#utility.yul\":110:176   */\n      tag_30\n        /* \"#utility.yul\":126:175   */\n      tag_31\n        /* \"#utility.yul\":168:174   */\n      dup5\n        /* \"#utility.yul\":126:175   */\n      tag_32\n      jump\t// in\n    tag_31:\n        /* \"#utility.yul\":110:176   */\n      tag_33\n      jump\t// in\n    tag_30:\n        /* \"#utility.yul\":101:176   */\n      swap1\n      pop\n        /* \"#utility.yul\":199:205   */\n      dup3\n        /* \"#utility.yul\":192:197   */\n      dup2\n        /* \"#utility.yul\":185:206   */\n      mstore\n        /* \"#utility.yul\":237:241   */\n      0x20\n        /* \"#utility.yul\":230:235   */\n      dup2\n        /* \"#utility.yul\":226:242   */\n      add\n        /* \"#utility.yul\":275:278   */\n      dup5\n        /* \"#utility.yul\":266:272   */\n      dup5\n        /* \"#utility.yul\":261:264   */\n      dup5\n        /* \"#utility.yul\":257:273   */\n      add\n        /* \"#utility.yul\":254:279   */\n      gt\n        /* \"#utility.yul\":251:363   */\n      iszero\n      tag_34\n      jumpi\n        /* \"#utility.yul\":282:361   */\n      tag_35\n      tag_36\n      jump\t// in\n    tag_35:\n        /* \"#utility.yul\":251:363   */\n    tag_34:\n        /* \"#utility.yul\":372:413   */\n      tag_37\n        /* \"#utility.yul\":406:412   */\n      dup5\n        /* \"#utility.yul\":401:404   */\n      dup3\n        /* \"#utility.yul\":396:399   */\n      dup6\n        /* \"#utility.yul\":372:413   */\n      tag_38\n      jump\t// in\n    tag_37:\n        /* \"#utility.yul\":91:419   */\n      pop\n        /* \"#utility.yul\":7:419   */\n      swap4\n      swap3\n      pop\n      pop\n      pop\n      jump\t// out\n        /* \"#utility.yul\":425:564   */\n    tag_39:\n        /* \"#utility.yul\":471:476   */\n      0x00\n        /* \"#utility.yul\":509:515   */\n      dup2\n        /* \"#utility.yul\":496:516   */\n      calldataload\n        /* \"#utility.yul\":487:516   */\n      swap1\n      pop\n        /* \"#utility.yul\":525:558   */\n      tag_41\n        /* \"#utility.yul\":552:557   */\n      dup2\n        /* \"#utility.yul\":525:558   */\n      tag_42\n      jump\t// in\n    tag_41:\n        /* \"#utility.yul\":425:564   */\n      swap3\n      swap2\n      pop\n      pop\n      jump\t// out\n        /* \"#utility.yul\":584:924   */\n    tag_43:\n        /* \"#utility.yul\":640:645   */\n      0x00\n        /* \"#utility.yul\":689:692   */\n      dup3\n        /* \"#utility.yul\":682:686   */\n      0x1f\n        /* \"#utility.yul\":674:680   */\n      dup4\n        /* \"#utility.yul\":670:687   */\n      add\n        /* \"#utility.yul\":666:693   */\n      slt\n        /* \"#utility.yul\":656:778   */\n      tag_45\n      jumpi\n        /* \"#utility.yul\":697:776   */\n      tag_46\n      tag_47\n      jump\t// in\n    tag_46:\n        /* \"#utility.yul\":656:778   */\n    tag_45:\n        /* \"#utility.yul\":814:820   */\n      dup2\n        /* \"#utility.yul\":801:821   */\n      calldataload\n        /* \"#utility.yul\":839:918   */\n      tag_48\n        /* \"#utility.yul\":914:917   */\n      dup5\n        /* \"#utility.yul\":906:912   */\n      dup3\n        /* \"#utility.yul\":899:903   */\n      0x20\n        /* \"#utility.yul\":891:897   */\n      dup7\n        /* \"#utility.yul\":887:904   */\n      add\n        /* \"#utility.yul\":839:918   */\n      tag_28\n      jump\t// in\n    tag_48:\n        /* \"#utility.yul\":830:918   */\n      swap2\n      pop\n        /* \"#utility.yul\":646:924   */\n      pop\n        /* \"#utility.yul\":584:924   */\n      swap3\n      swap2\n      pop\n      pop\n      jump\t// out\n        /* \"#utility.yul\":930:1069   */\n    tag_49:\n        /* \"#utility.yul\":976:981   */\n      0x00\n        /* \"#utility.yul\":1014:1020   */\n      dup2\n        /* \"#utility.yul\":1001:1021   */\n      calldataload\n        /* \"#utility.yul\":992:1021   */\n      swap1\n      pop\n        /* \"#utility.yul\":1030:1063   */\n      tag_51\n        /* \"#utility.yul\":1057:1062   */\n      dup2\n        /* \"#utility.yul\":1030:1063   */\n      tag_52\n      jump\t// in\n    tag_51:\n        /* \"#utility.yul\":930:1069   */\n      swap3\n      swap2\n      pop\n      pop\n      jump\t// out\n        /* \"#utility.yul\":1075:1404   */\n    tag_7:\n        /* \"#utility.yul\":1134:1140   */\n      0x00\n        /* \"#utility.yul\":1183:1185   */\n      0x20\n        /* \"#utility.yul\":1171:1180   */\n      dup3\n        /* \"#utility.yul\":1162:1169   */\n      dup5\n        /* \"#utility.yul\":1158:1181   */\n      sub\n        /* \"#utility.yul\":1154:1186   */\n      slt\n        /* \"#utility.yul\":1151:1270   */\n      iszero\n      tag_54\n      jumpi\n        /* \"#utility.yul\":1189:1268   */\n      tag_55\n      tag_56\n      jump\t// in\n    tag_55:\n        /* \"#utility.yul\":1151:1270   */\n    tag_54:\n        /* \"#utility.yul\":1309:1310   */\n      0x00\n        /* \"#utility.yul\":1334:1387   */\n      tag_57\n        /* \"#utility.yul\":1379:1386   */\n      dup5\n        /* \"#utility.yul\":1370:1376   */\n      dup3\n        /* \"#utility.yul\":1359:1368   */\n      dup6\n        /* \"#utility.yul\":1355:1377   */\n      add\n        /* \"#utility.yul\":1334:1387   */\n      tag_39\n      jump\t// in\n    tag_57:\n        /* \"#utility.yul\":1324:1387   */\n      swap2\n      pop\n        /* \"#utility.yul\":1280:1397   */\n      pop\n        /* \"#utility.yul\":1075:1404   */\n      swap3\n      swap2\n      pop\n      pop\n      jump\t// out\n        /* \"#utility.yul\":1410:2535   */\n    tag_13:\n        /* \"#utility.yul\":1516:1522   */\n      0x00\n        /* \"#utility.yul\":1524:1530   */\n      dup1\n        /* \"#utility.yul\":1532:1538   */\n      0x00\n        /* \"#utility.yul\":1540:1546   */\n      dup1\n        /* \"#utility.yul\":1589:1592   */\n      0x80\n        /* \"#utility.yul\":1577:1586   */\n      dup6\n        /* \"#utility.yul\":1568:1575   */\n      dup8\n        /* \"#utility.yul\":1564:1587   */\n      sub\n        /* \"#utility.yul\":1560:1593   */\n      slt\n        /* \"#utility.yul\":1557:1677   */\n      iszero\n      tag_59\n      jumpi\n        /* \"#utility.yul\":1596:1675   */\n      tag_60\n      tag_56\n      jump\t// in\n    tag_60:\n        /* \"#utility.yul\":1557:1677   */\n    tag_59:\n        /* \"#utility.yul\":1744:1745   */\n      0x00\n        /* \"#utility.yul\":1733:1742   */\n      dup6\n        /* \"#utility.yul\":1729:1746   */\n      add\n        /* \"#utility.yul\":1716:1747   */\n      calldataload\n        /* \"#utility.yul\":1774:1792   */\n      0xffffffffffffffff\n        /* \"#utility.yul\":1766:1772   */\n      dup2\n        /* \"#utility.yul\":1763:1793   */\n      gt\n        /* \"#utility.yul\":1760:1877   */\n      iszero\n      tag_61\n      jumpi\n        /* \"#utility.yul\":1796:1875   */\n      tag_62\n      tag_63\n      jump\t// in\n    tag_62:\n        /* \"#utility.yul\":1760:1877   */\n    tag_61:\n        /* \"#utility.yul\":1901:1964   */\n      tag_64\n        /* \"#utility.yul\":1956:1963   */\n      dup8\n        /* \"#utility.yul\":1947:1953   */\n      dup3\n        /* \"#utility.yul\":1936:1945   */\n      dup9\n        /* \"#utility.yul\":1932:1954   */\n      add\n        /* \"#utility.yul\":1901:1964   */\n      tag_43\n      jump\t// in\n    tag_64:\n        /* \"#utility.yul\":1891:1964   */\n      swap5\n      pop\n        /* \"#utility.yul\":1687:1974   */\n      pop\n        /* \"#utility.yul\":2013:2015   */\n      0x20\n        /* \"#utility.yul\":2039:2092   */\n      tag_65\n        /* \"#utility.yul\":2084:2091   */\n      dup8\n        /* \"#utility.yul\":2075:2081   */\n      dup3\n        /* \"#utility.yul\":2064:2073   */\n      dup9\n        /* \"#utility.yul\":2060:2082   */\n      add\n        /* \"#utility.yul\":2039:2092   */\n      tag_49\n      jump\t// in\n    tag_65:\n        /* \"#utility.yul\":2029:2092   */\n      swap4\n      pop\n        /* \"#utility.yul\":1984:2102   */\n      pop\n        /* \"#utility.yul\":2169:2171   */\n      0x40\n        /* \"#utility.yul\":2158:2167   */\n      dup6\n        /* \"#utility.yul\":2154:2172   */\n      add\n        /* \"#utility.yul\":2141:2173   */\n      calldataload\n        /* \"#utility.yul\":2200:2218   */\n      0xffffffffffffffff\n        /* \"#utility.yul\":2192:2198   */\n      dup2\n        /* \"#utility.yul\":2189:2219   */\n      gt\n        /* \"#utility.yul\":2186:2303   */\n      iszero\n      tag_66\n      jumpi\n        /* \"#utility.yul\":2222:2301   */\n      tag_67\n      tag_63\n      jump\t// in\n    tag_67:\n        /* \"#utility.yul\":2186:2303   */\n    tag_66:\n        /* \"#utility.yul\":2327:2390   */\n      tag_68\n        /* \"#utility.yul\":2382:2389   */\n      dup8\n        /* \"#utility.yul\":2373:2379   */\n      dup3\n        /* \"#utility.yul\":2362:2371   */\n      dup9\n        /* \"#utility.yul\":2358:2380   */\n      add\n        /* \"#utility.yul\":2327:2390   */\n      tag_43\n      jump\t// in\n    tag_68:\n        /* \"#utility.yul\":2317:2390   */\n      swap3\n      pop\n        /* \"#utility.yul\":2112:2400   */\n      pop\n        /* \"#utility.yul\":2439:2441   */\n      0x60\n        /* \"#utility.yul\":2465:2518   */\n      tag_69\n        /* \"#utility.yul\":2510:2517   */\n      dup8\n        /* \"#utility.yul\":2501:2507   */\n      dup3\n        /* \"#utility.yul\":2490:2499   */\n      dup9\n        /* \"#utility.yul\":2486:2508   */\n      add\n        /* \"#utility.yul\":2465:2518   */\n      tag_49\n      jump\t// in\n    tag_69:\n        /* \"#utility.yul\":2455:2518   */\n      swap2\n      pop\n        /* \"#utility.yul\":2410:2528   */\n      pop\n        /* \"#utility.yul\":1410:2535   */\n      swap3\n      swap6\n      swap2\n      swap5\n      pop\n      swap3\n      pop\n      jump\t// out\n        /* \"#utility.yul\":2541:2905   */\n    tag_70:\n        /* \"#utility.yul\":2629:2632   */\n      0x00\n        /* \"#utility.yul\":2657:2696   */\n      tag_72\n        /* \"#utility.yul\":2690:2695   */\n      dup3\n        /* \"#utility.yul\":2657:2696   */\n      tag_73\n      jump\t// in\n    tag_72:\n        /* \"#utility.yul\":2712:2783   */\n      tag_74\n        /* \"#utility.yul\":2776:2782   */\n      dup2\n        /* \"#utility.yul\":2771:2774   */\n      dup6\n        /* \"#utility.yul\":2712:2783   */\n      tag_75\n      jump\t// in\n    tag_74:\n        /* \"#utility.yul\":2705:2783   */\n      swap4\n      pop\n        /* \"#utility.yul\":2792:2844   */\n      tag_76\n        /* \"#utility.yul\":2837:2843   */\n      dup2\n        /* \"#utility.yul\":2832:2835   */\n      dup6\n        /* \"#utility.yul\":2825:2829   */\n      0x20\n        /* \"#utility.yul\":2818:2823   */\n      dup7\n        /* \"#utility.yul\":2814:2830   */\n      add\n        /* \"#utility.yul\":2792:2844   */\n      tag_77\n      jump\t// in\n    tag_76:\n        /* \"#utility.yul\":2869:2898   */\n      tag_78\n        /* \"#utility.yul\":2891:2897   */\n      dup2\n        /* \"#utility.yul\":2869:2898   */\n      tag_79\n      jump\t// in\n    tag_78:\n        /* \"#utility.yul\":2864:2867   */\n      dup5\n        /* \"#utility.yul\":2860:2899   */\n      add\n        /* \"#utility.yul\":2853:2899   */\n      swap2\n      pop\n        /* \"#utility.yul\":2633:2905   */\n      pop\n        /* \"#utility.yul\":2541:2905   */\n      swap3\n      swap2\n      pop\n      pop\n      jump\t// out\n        /* \"#utility.yul\":2911:3029   */\n    tag_80:\n        /* \"#utility.yul\":2998:3022   */\n      tag_82\n        /* \"#utility.yul\":3016:3021   */\n      dup2\n        /* \"#utility.yul\":2998:3022   */\n      tag_83\n      jump\t// in\n    tag_82:\n        /* \"#utility.yul\":2993:2996   */\n      dup3\n        /* \"#utility.yul\":2986:3023   */\n      mstore\n        /* \"#utility.yul\":2911:3029   */\n      pop\n      pop\n      jump\t// out\n        /* \"#utility.yul\":3035:3770   */\n    tag_10:\n        /* \"#utility.yul\":3252:3256   */\n      0x00\n        /* \"#utility.yul\":3290:3293   */\n      0x80\n        /* \"#utility.yul\":3279:3288   */\n      dup3\n        /* \"#utility.yul\":3275:3294   */\n      add\n        /* \"#utility.yul\":3267:3294   */\n      swap1\n      pop\n        /* \"#utility.yul\":3340:3349   */\n      dup2\n        /* \"#utility.yul\":3334:3338   */\n      dup2\n        /* \"#utility.yul\":3330:3350   */\n      sub\n        /* \"#utility.yul\":3326:3327   */\n      0x00\n        /* \"#utility.yul\":3315:3324   */\n      dup4\n        /* \"#utility.yul\":3311:3328   */\n      add\n        /* \"#utility.yul\":3304:3351   */\n      mstore\n        /* \"#utility.yul\":3368:3446   */\n      tag_85\n        /* \"#utility.yul\":3441:3445   */\n      dup2\n        /* \"#utility.yul\":3432:3438   */\n      dup8\n        /* \"#utility.yul\":3368:3446   */\n      tag_70\n      jump\t// in\n    tag_85:\n        /* \"#utility.yul\":3360:3446   */\n      swap1\n      pop\n        /* \"#utility.yul\":3456:3528   */\n      tag_86\n        /* \"#utility.yul\":3524:3526   */\n      0x20\n        /* \"#utility.yul\":3513:3522   */\n      dup4\n        /* \"#utility.yul\":3509:3527   */\n      add\n        /* \"#utility.yul\":3500:3506   */\n      dup7\n        /* \"#utility.yul\":3456:3528   */\n      tag_80\n      jump\t// in\n    tag_86:\n        /* \"#utility.yul\":3575:3584   */\n      dup2\n        /* \"#utility.yul\":3569:3573   */\n      dup2\n        /* \"#utility.yul\":3565:3585   */\n      sub\n        /* \"#utility.yul\":3560:3562   */\n      0x40\n        /* \"#utility.yul\":3549:3558   */\n      dup4\n        /* \"#utility.yul\":3545:3563   */\n      add\n        /* \"#utility.yul\":3538:3586   */\n      mstore\n        /* \"#utility.yul\":3603:3681   */\n      tag_87\n        /* \"#utility.yul\":3676:3680   */\n      dup2\n        /* \"#utility.yul\":3667:3673   */\n      dup6\n        /* \"#utility.yul\":3603:3681   */\n      tag_70\n      jump\t// in\n    tag_87:\n        /* \"#utility.yul\":3595:3681   */\n      swap1\n      pop\n        /* \"#utility.yul\":3691:3763   */\n      tag_88\n        /* \"#utility.yul\":3759:3761   */\n      0x60\n        /* \"#utility.yul\":3748:3757   */\n      dup4\n        /* \"#utility.yul\":3744:3762   */\n      add\n        /* \"#utility.yul\":3735:3741   */\n      dup5\n        /* \"#utility.yul\":3691:3763   */\n      tag_80\n      jump\t// in\n    tag_88:\n        /* \"#utility.yul\":3035:3770   */\n      swap6\n      swap5\n      pop\n      pop\n      pop\n      pop\n      pop\n      jump\t// out\n        /* \"#utility.yul\":3776:3905   */\n    tag_33:\n        /* \"#utility.yul\":3810:3816   */\n      0x00\n        /* \"#utility.yul\":3837:3857   */\n      tag_90\n      tag_91\n      jump\t// in\n    tag_90:\n        /* \"#utility.yul\":3827:3857   */\n      swap1\n      pop\n        /* \"#utility.yul\":3866:3899   */\n      tag_92\n        /* \"#utility.yul\":3894:3898   */\n      dup3\n        /* \"#utility.yul\":3886:3892   */\n      dup3\n        /* \"#utility.yul\":3866:3899   */\n      tag_93\n      jump\t// in\n    tag_92:\n        /* \"#utility.yul\":3776:3905   */\n      swap2\n      swap1\n      pop\n      jump\t// out\n        /* \"#utility.yul\":3911:3986   */\n    tag_91:\n        /* \"#utility.yul\":3944:3950   */\n      0x00\n        /* \"#utility.yul\":3977:3979   */\n      0x40\n        /* \"#utility.yul\":3971:3980   */\n      mload\n        /* \"#utility.yul\":3961:3980   */\n      swap1\n      pop\n        /* \"#utility.yul\":3911:3986   */\n      swap1\n      jump\t// out\n        /* \"#utility.yul\":3992:4300   */\n    tag_32:\n        /* \"#utility.yul\":4054:4058   */\n      0x00\n        /* \"#utility.yul\":4144:4162   */\n      0xffffffffffffffff\n        /* \"#utility.yul\":4136:4142   */\n      dup3\n        /* \"#utility.yul\":4133:4163   */\n      gt\n        /* \"#utility.yul\":4130:4186   */\n      iszero\n      tag_96\n      jumpi\n        /* \"#utility.yul\":4166:4184   */\n      tag_97\n      tag_98\n      jump\t// in\n    tag_97:\n        /* \"#utility.yul\":4130:4186   */\n    tag_96:\n        /* \"#utility.yul\":4204:4233   */\n      tag_99\n        /* \"#utility.yul\":4226:4232   */\n      dup3\n        /* \"#utility.yul\":4204:4233   */\n      tag_79\n      jump\t// in\n    tag_99:\n        /* \"#utility.yul\":4196:4233   */\n      swap1\n      pop\n        /* \"#utility.yul\":4288:4292   */\n      0x20\n        /* \"#utility.yul\":4282:4286   */\n      dup2\n        /* \"#utility.yul\":4278:4293   */\n      add\n        /* \"#utility.yul\":4270:4293   */\n      swap1\n      pop\n        /* \"#utility.yul\":3992:4300   */\n      swap2\n      swap1\n      pop\n      jump\t// out\n        /* \"#utility.yul\":4306:4405   */\n    tag_73:\n        /* \"#utility.yul\":4358:4364   */\n      0x00\n        /* \"#utility.yul\":4392:4397   */\n      dup2\n        /* \"#utility.yul\":4386:4398   */\n      mload\n        /* \"#utility.yul\":4376:4398   */\n      swap1\n      pop\n        /* \"#utility.yul\":4306:4405   */\n      swap2\n      swap1\n      pop\n      jump\t// out\n        /* \"#utility.yul\":4411:4580   */\n    tag_75:\n        /* \"#utility.yul\":4495:4506   */\n      0x00\n        /* \"#utility.yul\":4529:4535   */\n      dup3\n        /* \"#utility.yul\":4524:4527   */\n      dup3\n        /* \"#utility.yul\":4517:4536   */\n      mstore\n        /* \"#utility.yul\":4569:4573   */\n      0x20\n        /* \"#utility.yul\":4564:4567   */\n      dup3\n        /* \"#utility.yul\":4560:4574   */\n      add\n        /* \"#utility.yul\":4545:4574   */\n      swap1\n      pop\n        /* \"#utility.yul\":4411:4580   */\n      swap3\n      swap2\n      pop\n      pop\n      jump\t// out\n        /* \"#utility.yul\":4586:4682   */\n    tag_102:\n        /* \"#utility.yul\":4623:4630   */\n      0x00\n        /* \"#utility.yul\":4652:4676   */\n      tag_104\n        /* \"#utility.yul\":4670:4675   */\n      dup3\n        /* \"#utility.yul\":4652:4676   */\n      tag_105\n      jump\t// in\n    tag_104:\n        /* \"#utility.yul\":4641:4676   */\n      swap1\n      pop\n        /* \"#utility.yul\":4586:4682   */\n      swap2\n      swap1\n      pop\n      jump\t// out\n        /* \"#utility.yul\":4688:4814   */\n    tag_105:\n        /* \"#utility.yul\":4725:4732   */\n      0x00\n        /* \"#utility.yul\":4765:4807   */\n      0xffffffffffffffffffffffffffffffffffffffff\n        /* \"#utility.yul\":4758:4763   */\n      dup3\n        /* \"#utility.yul\":4754:4808   */\n      and\n        /* \"#utility.yul\":4743:4808   */\n      swap1\n      pop\n        /* \"#utility.yul\":4688:4814   */\n      swap2\n      swap1\n      pop\n      jump\t// out\n        /* \"#utility.yul\":4820:4897   */\n    tag_83:\n        /* \"#utility.yul\":4857:4864   */\n      0x00\n        /* \"#utility.yul\":4886:4891   */\n      dup2\n        /* \"#utility.yul\":4875:4891   */\n      swap1\n      pop\n        /* \"#utility.yul\":4820:4897   */\n      swap2\n      swap1\n      pop\n      jump\t// out\n        /* \"#utility.yul\":4903:5057   */\n    tag_38:\n        /* \"#utility.yul\":4987:4993   */\n      dup3\n        /* \"#utility.yul\":4982:4985   */\n      dup2\n        /* \"#utility.yul\":4977:4980   */\n      dup4\n        /* \"#utility.yul\":4964:4994   */\n      calldatacopy\n        /* \"#utility.yul\":5049:5050   */\n      0x00\n        /* \"#utility.yul\":5040:5046   */\n      dup4\n        /* \"#utility.yul\":5035:5038   */\n      dup4\n        /* \"#utility.yul\":5031:5047   */\n      add\n        /* \"#utility.yul\":5024:5051   */\n      mstore\n        /* \"#utility.yul\":4903:5057   */\n      pop\n      pop\n      pop\n      jump\t// out\n        /* \"#utility.yul\":5063:5370   */\n    tag_77:\n        /* \"#utility.yul\":5131:5132   */\n      0x00\n        /* \"#utility.yul\":5141:5254   */\n    tag_110:\n        /* \"#utility.yul\":5155:5161   */\n      dup4\n        /* \"#utility.yul\":5152:5153   */\n      dup2\n        /* \"#utility.yul\":5149:5162   */\n      lt\n        /* \"#utility.yul\":5141:5254   */\n      iszero\n      tag_112\n      jumpi\n        /* \"#utility.yul\":5240:5241   */\n      dup1\n        /* \"#utility.yul\":5235:5238   */\n      dup3\n        /* \"#utility.yul\":5231:5242   */\n      add\n        /* \"#utility.yul\":5225:5243   */\n      mload\n        /* \"#utility.yul\":5221:5222   */\n      dup2\n        /* \"#utility.yul\":5216:5219   */\n      dup5\n        /* \"#utility.yul\":5212:5223   */\n      add\n        /* \"#utility.yul\":5205:5244   */\n      mstore\n        /* \"#utility.yul\":5177:5179   */\n      0x20\n        /* \"#utility.yul\":5174:5175   */\n      dup2\n        /* \"#utility.yul\":5170:5180   */\n      add\n        /* \"#utility.yul\":5165:5180   */\n      swap1\n      pop\n        /* \"#utility.yul\":5141:5254   */\n      jump(tag_110)\n    tag_112:\n        /* \"#utility.yul\":5272:5278   */\n      dup4\n        /* \"#utility.yul\":5269:5270   */\n      dup2\n        /* \"#utility.yul\":5266:5279   */\n      gt\n        /* \"#utility.yul\":5263:5364   */\n      iszero\n      tag_113\n      jumpi\n        /* \"#utility.yul\":5352:5353   */\n      0x00\n        /* \"#utility.yul\":5343:5349   */\n      dup5\n        /* \"#utility.yul\":5338:5341   */\n      dup5\n        /* \"#utility.yul\":5334:5350   */\n      add\n        /* \"#utility.yul\":5327:5354   */\n      mstore\n        /* \"#utility.yul\":5263:5364   */\n    tag_113:\n        /* \"#utility.yul\":5112:5370   */\n      pop\n        /* \"#utility.yul\":5063:5370   */\n      pop\n      pop\n      pop\n      jump\t// out\n        /* \"#utility.yul\":5376:5696   */\n    tag_16:\n        /* \"#utility.yul\":5420:5426   */\n      0x00\n        /* \"#utility.yul\":5457:5458   */\n      0x02\n        /* \"#utility.yul\":5451:5455   */\n      dup3\n        /* \"#utility.yul\":5447:5459   */\n      div\n        /* \"#utility.yul\":5437:5459   */\n      swap1\n      pop\n        /* \"#utility.yul\":5504:5505   */\n      0x01\n        /* \"#utility.yul\":5498:5502   */\n      dup3\n        /* \"#utility.yul\":5494:5506   */\n      and\n        /* \"#utility.yul\":5525:5543   */\n      dup1\n        /* \"#utility.yul\":5515:5596   */\n      tag_115\n      jumpi\n        /* \"#utility.yul\":5581:5585   */\n      0x7f\n        /* \"#utility.yul\":5573:5579   */\n      dup3\n        /* \"#utility.yul\":5569:5586   */\n      and\n        /* \"#utility.yul\":5559:5586   */\n      swap2\n      pop\n        /* \"#utility.yul\":5515:5596   */\n    tag_115:\n        /* \"#utility.yul\":5643:5645   */\n      0x20\n        /* \"#utility.yul\":5635:5641   */\n      dup3\n        /* \"#utility.yul\":5632:5646   */\n      lt\n        /* \"#utility.yul\":5612:5630   */\n      dup2\n        /* \"#utility.yul\":5609:5647   */\n      eq\n        /* \"#utility.yul\":5606:5690   */\n      iszero\n      tag_116\n      jumpi\n        /* \"#utility.yul\":5662:5680   */\n      tag_117\n      tag_118\n      jump\t// in\n    tag_117:\n        /* \"#utility.yul\":5606:5690   */\n    tag_116:\n        /* \"#utility.yul\":5427:5696   */\n      pop\n        /* \"#utility.yul\":5376:5696   */\n      swap2\n      swap1\n      pop\n      jump\t// out\n        /* \"#utility.yul\":5702:5983   */\n    tag_93:\n        /* \"#utility.yul\":5785:5812   */\n      tag_120\n        /* \"#utility.yul\":5807:5811   */\n      dup3\n        /* \"#utility.yul\":5785:5812   */\n      tag_79\n      jump\t// in\n    tag_120:\n        /* \"#utility.yul\":5777:5783   */\n      dup2\n        /* \"#utility.yul\":5773:5813   */\n      add\n        /* \"#utility.yul\":5915:5921   */\n      dup2\n        /* \"#utility.yul\":5903:5913   */\n      dup2\n        /* \"#utility.yul\":5900:5922   */\n      lt\n        /* \"#utility.yul\":5879:5897   */\n      0xffffffffffffffff\n        /* \"#utility.yul\":5867:5877   */\n      dup3\n        /* \"#utility.yul\":5864:5898   */\n      gt\n        /* \"#utility.yul\":5861:5923   */\n      or\n        /* \"#utility.yul\":5858:5946   */\n      iszero\n      tag_121\n      jumpi\n        /* \"#utility.yul\":5926:5944   */\n      tag_122\n      tag_98\n      jump\t// in\n    tag_122:\n        /* \"#utility.yul\":5858:5946   */\n    tag_121:\n        /* \"#utility.yul\":5966:5976   */\n      dup1\n        /* \"#utility.yul\":5962:5964   */\n      0x40\n        /* \"#utility.yul\":5955:5977   */\n      mstore\n        /* \"#utility.yul\":5745:5983   */\n      pop\n        /* \"#utility.yul\":5702:5983   */\n      pop\n      pop\n      jump\t// out\n        /* \"#utility.yul\":5989:6169   */\n    tag_118:\n        /* \"#utility.yul\":6037:6114   */\n      0x4e487b7100000000000000000000000000000000000000000000000000000000\n        /* \"#utility.yul\":6034:6035   */\n      0x00\n        /* \"#utility.yul\":6027:6115   */\n      mstore\n        /* \"#utility.yul\":6134:6138   */\n      0x22\n        /* \"#utility.yul\":6131:6132   */\n      0x04\n        /* \"#utility.yul\":6124:6139   */\n      mstore\n        /* \"#utility.yul\":6158:6162   */\n      0x24\n        /* \"#utility.yul\":6155:6156   */\n      0x00\n        /* \"#utility.yul\":6148:6163   */\n      revert\n        /* \"#utility.yul\":6175:6355   */\n    tag_98:\n        /* \"#utility.yul\":6223:6300   */\n      0x4e487b7100000000000000000000000000000000000000000000000000000000\n        /* \"#utility.yul\":6220:6221   */\n      0x00\n        /* \"#utility.yul\":6213:6301   */\n      mstore\n        /* \"#utility.yul\":6320:6324   */\n      0x41\n        /* \"#utility.yul\":6317:6318   */\n      0x04\n        /* \"#utility.yul\":6310:6325   */\n      mstore\n        /* \"#utility.yul\":6344:6348   */\n      0x24\n        /* \"#utility.yul\":6341:6342   */\n      0x00\n        /* \"#utility.yul\":6334:6349   */\n      revert\n        /* \"#utility.yul\":6361:6478   */\n    tag_47:\n        /* \"#utility.yul\":6470:6471   */\n      0x00\n        /* \"#utility.yul\":6467:6468   */\n      dup1\n        /* \"#utility.yul\":6460:6472   */\n      revert\n        /* \"#utility.yul\":6484:6601   */\n    tag_36:\n        /* \"#utility.yul\":6593:6594   */\n      0x00\n        /* \"#utility.yul\":6590:6591   */\n      dup1\n        /* \"#utility.yul\":6583:6595   */\n      revert\n        /* \"#utility.yul\":6607:6724   */\n    tag_63:\n        /* \"#utility.yul\":6716:6717   */\n      0x00\n        /* \"#utility.yul\":6713:6714   */\n      dup1\n        /* \"#utility.yul\":6706:6718   */\n      revert\n        /* \"#utility.yul\":6730:6847   */\n    tag_56:\n        /* \"#utility.yul\":6839:6840   */\n      0x00\n        /* \"#utility.yul\":6836:6837   */\n      dup1\n        /* \"#utility.yul\":6829:6841   */\n      revert\n        /* \"#utility.yul\":6853:6955   */\n    tag_79:\n        /* \"#utility.yul\":6894:6900   */\n      0x00\n        /* \"#utility.yul\":6945:6947   */\n      0x1f\n        /* \"#utility.yul\":6941:6948   */\n      not\n        /* \"#utility.yul\":6936:6938   */\n      0x1f\n        /* \"#utility.yul\":6929:6934   */\n      dup4\n        /* \"#utility.yul\":6925:6939   */\n      add\n        /* \"#utility.yul\":6921:6949   */\n      and\n        /* \"#utility.yul\":6911:6949   */\n      swap1\n      pop\n        /* \"#utility.yul\":6853:6955   */\n      swap2\n      swap1\n      pop\n      jump\t// out\n        /* \"#utility.yul\":6961:7083   */\n    tag_42:\n        /* \"#utility.yul\":7034:7058   */\n      tag_131\n        /* \"#utility.yul\":7052:7057   */\n      dup2\n        /* \"#utility.yul\":7034:7058   */\n      tag_102\n      jump\t// in\n    tag_131:\n        /* \"#utility.yul\":7027:7032   */\n      dup2\n        /* \"#utility.yul\":7024:7059   */\n      eq\n        /* \"#utility.yul\":7014:7077   */\n      tag_132\n      jumpi\n        /* \"#utility.yul\":7073:7074   */\n      0x00\n        /* \"#utility.yul\":7070:7071   */\n      dup1\n        /* \"#utility.yul\":7063:7075   */\n      revert\n        /* \"#utility.yul\":7014:7077   */\n    tag_132:\n        /* \"#utility.yul\":6961:7083   */\n      pop\n      jump\t// out\n        /* \"#utility.yul\":7089:7211   */\n    tag_52:\n        /* \"#utility.yul\":7162:7186   */\n      tag_134\n        /* \"#utility.yul\":7180:7185   */\n      dup2\n        /* \"#utility.yul\":7162:7186   */\n      tag_83\n      jump\t// in\n    tag_134:\n        /* \"#utility.yul\":7155:7160   */\n      dup2\n        /* \"#utility.yul\":7152:7187   */\n      eq\n        /* \"#utility.yul\":7142:7205   */\n      tag_135\n      jumpi\n        /* \"#utility.yul\":7201:7202   */\n      0x00\n        /* \"#utility.yul\":7198:7199   */\n      dup1\n        /* \"#utility.yul\":7191:7203   */\n      revert\n        /* \"#utility.yul\":7142:7205   */\n    tag_135:\n        /* \"#utility.yul\":7089:7211   */\n      pop\n      jump\t// out\n\n    auxdata: 0xa2646970667358221220fca33201ae6337c5663902d315b0d77435f62cb50e29d922c8031774d473a5aa64736f6c63430008070033\n}\n",
				"bytecode": {
					"linkReferences": {},
					"object": "608060405234801561001057600080fd5b5061060b806100206000396000f3fe608060405234801561001057600080fd5b50600436106100365760003560e01c80630d0d1e2b1461003b578063628e48f91461006e575b600080fd5b6100556004803603810190610050919061026a565b61008a565b604051610065949392919061037e565b60405180910390f35b61008860048036038101906100839190610297565b6101ca565b005b60006020528060005260406000206000915090508060000180546100ad906104c1565b80601f01602080910402602001604051908101604052809291908181526020018280546100d9906104c1565b80156101265780601f106100fb57610100808354040283529160200191610126565b820191906000526020600020905b81548152906001019060200180831161010957829003601f168201915b505050505090806001015490806002018054610141906104c1565b80601f016020809104026020016040519081016040528092919081815260200182805461016d906104c1565b80156101ba5780601f1061018f576101008083540402835291602001916101ba565b820191906000526020600020905b81548152906001019060200180831161019d57829003601f168201915b5050505050908060030154905084565b50505050565b60006101e36101de846103f6565b6103d1565b9050828152602081018484840111156101ff576101fe610587565b5b61020a84828561047f565b509392505050565b600081359050610221816105a7565b92915050565b600082601f83011261023c5761023b610582565b5b813561024c8482602086016101d0565b91505092915050565b600081359050610264816105be565b92915050565b6000602082840312156102805761027f610591565b5b600061028e84828501610212565b91505092915050565b600080600080608085870312156102b1576102b0610591565b5b600085013567ffffffffffffffff8111156102cf576102ce61058c565b5b6102db87828801610227565b94505060206102ec87828801610255565b935050604085013567ffffffffffffffff81111561030d5761030c61058c565b5b61031987828801610227565b925050606061032a87828801610255565b91505092959194509250565b600061034182610427565b61034b8185610432565b935061035b81856020860161048e565b61036481610596565b840191505092915050565b61037881610475565b82525050565b600060808201905081810360008301526103988187610336565b90506103a7602083018661036f565b81810360408301526103b98185610336565b90506103c8606083018461036f565b95945050505050565b60006103db6103ec565b90506103e782826104f3565b919050565b6000604051905090565b600067ffffffffffffffff82111561041157610410610553565b5b61041a82610596565b9050602081019050919050565b600081519050919050565b600082825260208201905092915050565b600061044e82610455565b9050919050565b600073ffffffffffffffffffffffffffffffffffffffff82169050919050565b6000819050919050565b82818337600083830152505050565b60005b838110156104ac578082015181840152602081019050610491565b838111156104bb576000848401525b50505050565b600060028204905060018216806104d957607f821691505b602082108114156104ed576104ec610524565b5b50919050565b6104fc82610596565b810181811067ffffffffffffffff8211171561051b5761051a610553565b5b80604052505050565b7f4e487b7100000000000000000000000000000000000000000000000000000000600052602260045260246000fd5b7f4e487b7100000000000000000000000000000000000000000000000000000000600052604160045260246000fd5b600080fd5b600080fd5b600080fd5b600080fd5b6000601f19601f8301169050919050565b6105b081610443565b81146105bb57600080fd5b50565b6105c781610475565b81146105d257600080fd5b5056fea2646970667358221220fca33201ae6337c5663902d315b0d77435f62cb50e29d922c8031774d473a5aa64736f6c63430008070033",
					"opcodes": "PUSH1 0x80 PUSH1 0x40 MSTORE CALLVALUE DUP1 ISZERO PUSH2 0x10 JUMPI PUSH1 0x0 DUP1 REVERT JUMPDEST POP PUSH2 0x60B DUP1 PUSH2 0x20 PUSH1 0x0 CODECOPY PUSH1 0x0 RETURN INVALID PUSH1 0x80 PUSH1 0x40 MSTORE CALLVALUE DUP1 ISZERO PUSH2 0x10 JUMPI PUSH1 0x0 DUP1 REVERT JUMPDEST POP PUSH1 0x4 CALLDATASIZE LT PUSH2 0x36 JUMPI PUSH1 0x0 CALLDATALOAD PUSH1 0xE0 SHR DUP1 PUSH4 0xD0D1E2B EQ PUSH2 0x3B JUMPI DUP1 PUSH4 0x628E48F9 EQ PUSH2 0x6E JUMPI JUMPDEST PUSH1 0x0 DUP1 REVERT JUMPDEST PUSH2 0x55 PUSH1 0x4 DUP1 CALLDATASIZE SUB DUP2 ADD SWAP1 PUSH2 0x50 SWAP2 SWAP1 PUSH2 0x26A JUMP JUMPDEST PUSH2 0x8A JUMP JUMPDEST PUSH1 0x40 MLOAD PUSH2 0x65 SWAP5 SWAP4 SWAP3 SWAP2 SWAP1 PUSH2 0x37E JUMP JUMPDEST PUSH1 0x40 MLOAD DUP1 SWAP2 SUB SWAP1 RETURN JUMPDEST PUSH2 0x88 PUSH1 0x4 DUP1 CALLDATASIZE SUB DUP2 ADD SWAP1 PUSH2 0x83 SWAP2 SWAP1 PUSH2 0x297 JUMP JUMPDEST PUSH2 0x1CA JUMP JUMPDEST STOP JUMPDEST PUSH1 0x0 PUSH1 0x20 MSTORE DUP1 PUSH1 0x0 MSTORE PUSH1 0x40 PUSH1 0x0 KECCAK256 PUSH1 0x0 SWAP2 POP SWAP1 POP DUP1 PUSH1 0x0 ADD DUP1 SLOAD PUSH2 0xAD SWAP1 PUSH2 0x4C1 JUMP JUMPDEST DUP1 PUSH1 0x1F ADD PUSH1 0x20 DUP1 SWAP2 DIV MUL PUSH1 0x20 ADD PUSH1 0x40 MLOAD SWAP1 DUP2 ADD PUSH1 0x40 MSTORE DUP1 SWAP3 SWAP2 SWAP1 DUP2 DUP2 MSTORE PUSH1 0x20 ADD DUP3 DUP1 SLOAD PUSH2 0xD9 SWAP1 PUSH2 0x4C1 JUMP JUMPDEST DUP1 ISZERO PUSH2 0x126 JUMPI DUP1 PUSH1 0x1F LT PUSH2 0xFB JUMPI PUSH2 0x100 DUP1 DUP4 SLOAD DIV MUL DUP4 MSTORE SWAP2 PUSH1 0x20 ADD SWAP2 PUSH2 0x126 JUMP JUMPDEST DUP3 ADD SWAP2 SWAP1 PUSH1 0x0 MSTORE PUSH1 0x20 PUSH1 0x0 KECCAK256 SWAP1 JUMPDEST DUP2 SLOAD DUP2 MSTORE SWAP1 PUSH1 0x1 ADD SWAP1 PUSH1 0x20 ADD DUP1 DUP4 GT PUSH2 0x109 JUMPI DUP3 SWAP1 SUB PUSH1 0x1F AND DUP3 ADD SWAP2 JUMPDEST POP POP POP POP POP SWAP1 DUP1 PUSH1 0x1 ADD SLOAD SWAP1 DUP1 PUSH1 0x2 ADD DUP1 SLOAD PUSH2 0x141 SWAP1 PUSH2 0x4C1 JUMP JUMPDEST DUP1 PUSH1 0x1F ADD PUSH1 0x20 DUP1 SWAP2 DIV MUL PUSH1 0x20 ADD PUSH1 0x40 MLOAD SWAP1 DUP2 ADD PUSH1 0x40 MSTORE DUP1 SWAP3 SWAP2 SWAP1 DUP2 DUP2 MSTORE PUSH1 0x20 ADD DUP3 DUP1 SLOAD PUSH2 0x16D SWAP1 PUSH2 0x4C1 JUMP JUMPDEST DUP1 ISZERO PUSH2 0x1BA JUMPI DUP1 PUSH1 0x1F LT PUSH2 0x18F JUMPI PUSH2 0x100 DUP1 DUP4 SLOAD DIV MUL DUP4 MSTORE SWAP2 PUSH1 0x20 ADD SWAP2 PUSH2 0x1BA JUMP JUMPDEST DUP3 ADD SWAP2 SWAP1 PUSH1 0x0 MSTORE PUSH1 0x20 PUSH1 0x0 KECCAK256 SWAP1 JUMPDEST DUP2 SLOAD DUP2 MSTORE SWAP1 PUSH1 0x1 ADD SWAP1 PUSH1 0x20 ADD DUP1 DUP4 GT PUSH2 0x19D JUMPI DUP3 SWAP1 SUB PUSH1 0x1F AND DUP3 ADD SWAP2 JUMPDEST POP POP POP POP POP SWAP1 DUP1 PUSH1 0x3 ADD SLOAD SWAP1 POP DUP5 JUMP JUMPDEST POP POP POP POP JUMP JUMPDEST PUSH1 0x0 PUSH2 0x1E3 PUSH2 0x1DE DUP5 PUSH2 0x3F6 JUMP JUMPDEST PUSH2 0x3D1 JUMP JUMPDEST SWAP1 POP DUP3 DUP2 MSTORE PUSH1 0x20 DUP2 ADD DUP5 DUP5 DUP5 ADD GT ISZERO PUSH2 0x1FF JUMPI PUSH2 0x1FE PUSH2 0x587 JUMP JUMPDEST JUMPDEST PUSH2 0x20A DUP5 DUP3 DUP6 PUSH2 0x47F JUMP JUMPDEST POP SWAP4 SWAP3 POP POP POP JUMP JUMPDEST PUSH1 0x0 DUP2 CALLDATALOAD SWAP1 POP PUSH2 0x221 DUP2 PUSH2 0x5A7 JUMP JUMPDEST SWAP3 SWAP2 POP POP JUMP JUMPDEST PUSH1 0x0 DUP3 PUSH1 0x1F DUP4 ADD SLT PUSH2 0x23C JUMPI PUSH2 0x23B PUSH2 0x582 JUMP JUMPDEST JUMPDEST DUP2 CALLDATALOAD PUSH2 0x24C DUP5 DUP3 PUSH1 0x20 DUP7 ADD PUSH2 0x1D0 JUMP JUMPDEST SWAP2 POP POP SWAP3 SWAP2 POP POP JUMP JUMPDEST PUSH1 0x0 DUP2 CALLDATALOAD SWAP1 POP PUSH2 0x264 DUP2 PUSH2 0x5BE JUMP JUMPDEST SWAP3 SWAP2 POP POP JUMP JUMPDEST PUSH1 0x0 PUSH1 0x20 DUP3 DUP5 SUB SLT ISZERO PUSH2 0x280 JUMPI PUSH2 0x27F PUSH2 0x591 JUMP JUMPDEST JUMPDEST PUSH1 0x0 PUSH2 0x28E DUP5 DUP3 DUP6 ADD PUSH2 0x212 JUMP JUMPDEST SWAP2 POP POP SWAP3 SWAP2 POP POP JUMP JUMPDEST PUSH1 0x0 DUP1 PUSH1 0x0 DUP1 PUSH1 0x80 DUP6 DUP8 SUB SLT ISZERO PUSH2 0x2B1 JUMPI PUSH2 0x2B0 PUSH2 0x591 JUMP JUMPDEST JUMPDEST PUSH1 0x0 DUP6 ADD CALLDATALOAD PUSH8 0xFFFFFFFFFFFFFFFF DUP2 GT ISZERO PUSH2 0x2CF JUMPI PUSH2 0x2CE PUSH2 0x58C JUMP JUMPDEST JUMPDEST PUSH2 0x2DB DUP8 DUP3 DUP9 ADD PUSH2 0x227 JUMP JUMPDEST SWAP5 POP POP PUSH1 0x20 PUSH2 0x2EC DUP8 DUP3 DUP9 ADD PUSH2 0x255 JUMP JUMPDEST SWAP4 POP POP PUSH1 0x40 DUP6 ADD CALLDATALOAD PUSH8 0xFFFFFFFFFFFFFFFF DUP2 GT ISZERO PUSH2 0x30D JUMPI PUSH2 0x30C PUSH2 0x58C JUMP JUMPDEST JUMPDEST PUSH2 0x319 DUP8 DUP3 DUP9 ADD PUSH2 0x227 JUMP JUMPDEST SWAP3 POP POP PUSH1 0x60 PUSH2 0x32A DUP8 DUP3 DUP9 ADD PUSH2 0x255 JUMP JUMPDEST SWAP2 POP POP SWAP3 SWAP6 SWAP2 SWAP5 POP SWAP3 POP JUMP JUMPDEST PUSH1 0x0 PUSH2 0x341 DUP3 PUSH2 0x427 JUMP JUMPDEST PUSH2 0x34B DUP2 DUP6 PUSH2 0x432 JUMP JUMPDEST SWAP4 POP PUSH2 0x35B DUP2 DUP6 PUSH1 0x20 DUP7 ADD PUSH2 0x48E JUMP JUMPDEST PUSH2 0x364 DUP2 PUSH2 0x596 JUMP JUMPDEST DUP5 ADD SWAP2 POP POP SWAP3 SWAP2 POP POP JUMP JUMPDEST PUSH2 0x378 DUP2 PUSH2 0x475 JUMP JUMPDEST DUP3 MSTORE POP POP JUMP JUMPDEST PUSH1 0x0 PUSH1 0x80 DUP3 ADD SWAP1 POP DUP2 DUP2 SUB PUSH1 0x0 DUP4 ADD MSTORE PUSH2 0x398 DUP2 DUP8 PUSH2 0x336 JUMP JUMPDEST SWAP1 POP PUSH2 0x3A7 PUSH1 0x20 DUP4 ADD DUP7 PUSH2 0x36F JUMP JUMPDEST DUP2 DUP2 SUB PUSH1 0x40 DUP4 ADD MSTORE PUSH2 0x3B9 DUP2 DUP6 PUSH2 0x336 JUMP JUMPDEST SWAP1 POP PUSH2 0x3C8 PUSH1 0x60 DUP4 ADD DUP5 PUSH2 0x36F JUMP JUMPDEST SWAP6 SWAP5 POP POP POP POP POP JUMP JUMPDEST PUSH1 0x0 PUSH2 0x3DB PUSH2 0x3EC JUMP JUMPDEST SWAP1 POP PUSH2 0x3E7 DUP3 DUP3 PUSH2 0x4F3 JUMP JUMPDEST SWAP2 SWAP1 POP JUMP JUMPDEST PUSH1 0x0 PUSH1 0x40 MLOAD SWAP1 POP SWAP1 JUMP JUMPDEST PUSH1 0x0 PUSH8 0xFFFFFFFFFFFFFFFF DUP3 GT ISZERO PUSH2 0x411 JUMPI PUSH2 0x410 PUSH2 0x553 JUMP JUMPDEST JUMPDEST PUSH2 0x41A DUP3 PUSH2 0x596 JUMP JUMPDEST SWAP1 POP PUSH1 0x20 DUP2 ADD SWAP1 POP SWAP2 SWAP1 POP JUMP JUMPDEST PUSH1 0x0 DUP2 MLOAD SWAP1 POP SWAP2 SWAP1 POP JUMP JUMPDEST PUSH1 0x0 DUP3 DUP3 MSTORE PUSH1 0x20 DUP3 ADD SWAP1 POP SWAP3 SWAP2 POP POP JUMP JUMPDEST PUSH1 0x0 PUSH2 0x44E DUP3 PUSH2 0x455 JUMP JUMPDEST SWAP1 POP SWAP2 SWAP1 POP JUMP JUMPDEST PUSH1 0x0 PUSH20 0xFFFFFFFFFFFFFFFFFFFFFFFFFFFFFFFFFFFFFFFF DUP3 AND SWAP1 POP SWAP2 SWAP1 POP JUMP JUMPDEST PUSH1 0x0 DUP2 SWAP1 POP SWAP2 SWAP1 POP JUMP JUMPDEST DUP3 DUP2 DUP4 CALLDATACOPY PUSH1 0x0 DUP4 DUP4 ADD MSTORE POP POP POP JUMP JUMPDEST PUSH1 0x0 JUMPDEST DUP4 DUP2 LT ISZERO PUSH2 0x4AC JUMPI DUP1 DUP3 ADD MLOAD DUP2 DUP5 ADD MSTORE PUSH1 0x20 DUP2 ADD SWAP1 POP PUSH2 0x491 JUMP JUMPDEST DUP4 DUP2 GT ISZERO PUSH2 0x4BB JUMPI PUSH1 0x0 DUP5 DUP5 ADD MSTORE JUMPDEST POP POP POP POP JUMP JUMPDEST PUSH1 0x0 PUSH1 0x2 DUP3 DIV SWAP1 POP PUSH1 0x1 DUP3 AND DUP1 PUSH2 0x4D9 JUMPI PUSH1 0x7F DUP3 AND SWAP2 POP JUMPDEST PUSH1 0x20 DUP3 LT DUP2 EQ ISZERO PUSH2 0x4ED JUMPI PUSH2 0x4EC PUSH2 0x524 JUMP JUMPDEST JUMPDEST POP SWAP2 SWAP1 POP JUMP JUMPDEST PUSH2 0x4FC DUP3 PUSH2 0x596 JUMP JUMPDEST DUP2 ADD DUP2 DUP2 LT PUSH8 0xFFFFFFFFFFFFFFFF DUP3 GT OR ISZERO PUSH2 0x51B JUMPI PUSH2 0x51A PUSH2 0x553 JUMP JUMPDEST JUMPDEST DUP1 PUSH1 0x40 MSTORE POP POP POP JUMP JUMPDEST PUSH32 0x4E487B7100000000000000000000000000000000000000000000000000000000 PUSH1 0x0 MSTORE PUSH1 0x22 PUSH1 0x4 MSTORE PUSH1 0x24 PUSH1 0x0 REVERT JUMPDEST PUSH32 0x4E487B7100000000000000000000000000000000000000000000000000000000 PUSH1 0x0 MSTORE PUSH1 0x41 PUSH1 0x4 MSTORE PUSH1 0x24 PUSH1 0x0 REVERT JUMPDEST PUSH1 0x0 DUP1 REVERT JUMPDEST PUSH1 0x0 DUP1 REVERT JUMPDEST PUSH1 0x0 DUP1 REVERT JUMPDEST PUSH1 0x0 DUP1 REVERT JUMPDEST PUSH1 0x0 PUSH1 0x1F NOT PUSH1 0x1F DUP4 ADD AND SWAP1 POP SWAP2 SWAP1 POP JUMP JUMPDEST PUSH2 0x5B0 DUP2 PUSH2 0x443 JUMP JUMPDEST DUP2 EQ PUSH2 0x5BB JUMPI PUSH1 0x0 DUP1 REVERT JUMPDEST POP JUMP JUMPDEST PUSH2 0x5C7 DUP2 PUSH2 0x475 JUMP JUMPDEST DUP2 EQ PUSH2 0x5D2 JUMPI PUSH1 0x0 DUP1 REVERT JUMPDEST POP JUMP INVALID LOG2 PUSH5 0x6970667358 0x22 SLT KECCAK256 0xFC LOG3 ORIGIN ADD 0xAE PUSH4 0x37C56639 MUL 0xD3 ISZERO 0xB0 0xD7 PUSH21 0x35F62CB50E29D922C8031774D473A5AA64736F6C63 NUMBER STOP ADDMOD SMOD STOP CALLER "
				},
				"gasEstimates": {
					"creation": {
						"codeDepositCost": "309400",
						"executionCost": "349",
						"totalCost": "309749"
					},
					"external": {
						"acc_info(address)": "infinite",
						"set(string,uint256,string,uint256)": "infinite"
					}
				},
				"methodIdentifiers": {
					"acc_info(address)": "0d0d1e2b",
					"set(string,uint256,string,uint256)": "628e48f9"
				}
			},
			"storageLayout": {
				"storage": [
					{
						"astId": 15,
						"contract": "mappingImplementation_2.sol:advmapping",
						"label": "acc_info",
						"offset": 0,
						"slot": "0",
						"type": "t_mapping(t_address,t_struct(donor_dts)10_storage)"
					}
				],
				"types": {
					"t_address": {
						"encoding": "inplace",
						"label": "address",
						"numberOfBytes": "20"
					},
					"t_mapping(t_address,t_struct(donor_dts)10_storage)": {
						"encoding": "mapping",
						"key": "t_address",
						"label": "mapping(address => struct donor_dts)",
						"numberOfBytes": "32",
						"value": "t_struct(donor_dts)10_storage"
					},
					"t_string_storage": {
						"encoding": "bytes",
						"label": "string",
						"numberOfBytes": "32"
					},
					"t_struct(donor_dts)10_storage": {
						"encoding": "inplace",
						"label": "struct donor_dts",
						"members": [
							{
								"astId": 3,
								"contract": "mappingImplementation_2.sol:advmapping",
								"label": "name",
								"offset": 0,
								"slot": "0",
								"type": "t_string_storage"
							},
							{
								"astId": 5,
								"contract": "mappingImplementation_2.sol:advmapping",
								"label": "age",
								"offset": 0,
								"slot": "1",
								"type": "t_uint256"
							},
							{
								"astId": 7,
								"contract": "mappingImplementation_2.sol:advmapping",
								"label": "add",
								"offset": 0,
								"slot": "2",
								"type": "t_string_storage"
							},
							{
								"astId": 9,
								"contract": "mappingImplementation_2.sol:advmapping",
								"label": "don",
								"offset": 0,
								"slot": "3",
								"type": "t_uint256"
							}
						],
						"numberOfBytes": "128"
					},
					"t_uint256": {
						"encoding": "inplace",
						"label": "uint256",
						"numberOfBytes": "32"
					}
				}
			},
			"userdoc": {
				"kind": "user",
				"methods": {},
				"version": 1
			}
		}
	}
}