{
	"smartAuction.sol": {
		"smartAuction": {
			"abi": [
				{
					"inputs": [],
					"stateMutability": "nonpayable",
					"type": "constructor"
				},
				{
					"inputs": [],
					"name": "auctionState",
					"outputs": [
						{
							"internalType": "enum smartAuction.Auction_state",
							"name": "",
							"type": "uint8"
						}
					],
					"stateMutability": "view",
					"type": "function"
				},
				{
					"inputs": [],
					"name": "autioneer",
					"outputs": [
						{
							"internalType": "address payable",
							"name": "",
							"type": "address"
						}
					],
					"stateMutability": "view",
					"type": "function"
				},
				{
					"inputs": [],
					"name": "bid",
					"outputs": [],
					"stateMutability": "payable",
					"type": "function"
				},
				{
					"inputs": [],
					"name": "bid_inc",
					"outputs": [
						{
							"internalType": "uint256",
							"name": "",
							"type": "uint256"
						}
					],
					"stateMutability": "view",
					"type": "function"
				},
				{
					"inputs": [
						{
							"internalType": "address",
							"name": "",
							"type": "address"
						}
					],
					"name": "bids",
					"outputs": [
						{
							"internalType": "uint256",
							"name": "",
							"type": "uint256"
						}
					],
					"stateMutability": "view",
					"type": "function"
				},
				{
					"inputs": [],
					"name": "endBlock",
					"outputs": [
						{
							"internalType": "uint256",
							"name": "",
							"type": "uint256"
						}
					],
					"stateMutability": "view",
					"type": "function"
				},
				{
					"inputs": [],
					"name": "highest_bid",
					"outputs": [
						{
							"internalType": "uint256",
							"name": "",
							"type": "uint256"
						}
					],
					"stateMutability": "view",
					"type": "function"
				},
				{
					"inputs": [],
					"name": "highest_bidder",
					"outputs": [
						{
							"internalType": "address payable",
							"name": "",
							"type": "address"
						}
					],
					"stateMutability": "view",
					"type": "function"
				},
				{
					"inputs": [],
					"name": "highest_payable_bid",
					"outputs": [
						{
							"internalType": "uint256",
							"name": "",
							"type": "uint256"
						}
					],
					"stateMutability": "view",
					"type": "function"
				},
				{
					"inputs": [],
					"name": "startBlock",
					"outputs": [
						{
							"internalType": "uint256",
							"name": "",
							"type": "uint256"
						}
					],
					"stateMutability": "view",
					"type": "function"
				}
			],
			"devdoc": {
				"kind": "dev",
				"methods": {},
				"version": 1
			},
			"evm": {
				"assembly": "    /* \"smartAuction.sol\":63:1051  contract smartAuction{... */\n  mstore(0x40, 0x80)\n    /* \"smartAuction.sol\":471:649  constructor(){... */\n  callvalue\n  dup1\n  iszero\n  tag_1\n  jumpi\n  0x00\n  dup1\n  revert\ntag_1:\n  pop\n    /* \"smartAuction.sol\":514:524  msg.sender */\n  caller\n    /* \"smartAuction.sol\":494:503  autioneer */\n  0x00\n  dup1\n    /* \"smartAuction.sol\":494:525  autioneer = payable(msg.sender) */\n  0x0100\n  exp\n  dup2\n  sload\n  dup2\n  0xffffffffffffffffffffffffffffffffffffffff\n  mul\n  not\n  and\n  swap1\n  dup4\n  0xffffffffffffffffffffffffffffffffffffffff\n  and\n  mul\n  or\n  swap1\n  sstore\n  pop\n    /* \"smartAuction.sol\":548:560  block.number */\n  number\n    /* \"smartAuction.sol\":535:545  startBlock */\n  0x01\n    /* \"smartAuction.sol\":535:560  startBlock = block.number */\n  dup2\n  swap1\n  sstore\n  pop\n    /* \"smartAuction.sol\":586:607  Auction_state.Running */\n  0x01\n    /* \"smartAuction.sol\":570:582  auctionState */\n  0x03\n  0x00\n    /* \"smartAuction.sol\":570:607  auctionState =  Auction_state.Running */\n  0x0100\n  exp\n  dup2\n  sload\n  dup2\n  0xff\n  mul\n  not\n  and\n  swap1\n  dup4\n  0x03\n  dup2\n  gt\n  iszero\n  tag_4\n  jumpi\n  tag_5\n  tag_6\n  jump\t// in\ntag_5:\ntag_4:\n  mul\n  or\n  swap1\n  sstore\n  pop\n    /* \"smartAuction.sol\":641:642  1 */\n  0x01\n    /* \"smartAuction.sol\":628:638  startBlock */\n  dup1\n  sload\n    /* \"smartAuction.sol\":628:642  startBlock + 1 */\n  tag_7\n  swap2\n  swap1\n  tag_8\n  jump\t// in\ntag_7:\n    /* \"smartAuction.sol\":617:625  endBlock */\n  0x02\n    /* \"smartAuction.sol\":617:642  endBlock = startBlock + 1 */\n  dup2\n  swap1\n  sstore\n  pop\n    /* \"smartAuction.sol\":63:1051  contract smartAuction{... */\n  jump(tag_9)\n    /* \"#utility.yul\":7:312   */\ntag_8:\n    /* \"#utility.yul\":47:50   */\n  0x00\n    /* \"#utility.yul\":66:86   */\n  tag_12\n    /* \"#utility.yul\":84:85   */\n  dup3\n    /* \"#utility.yul\":66:86   */\n  tag_13\n  jump\t// in\ntag_12:\n    /* \"#utility.yul\":61:86   */\n  swap2\n  pop\n    /* \"#utility.yul\":100:120   */\n  tag_14\n    /* \"#utility.yul\":118:119   */\n  dup4\n    /* \"#utility.yul\":100:120   */\n  tag_13\n  jump\t// in\ntag_14:\n    /* \"#utility.yul\":95:120   */\n  swap3\n  pop\n    /* \"#utility.yul\":254:255   */\n  dup3\n    /* \"#utility.yul\":186:252   */\n  0xffffffffffffffffffffffffffffffffffffffffffffffffffffffffffffffff\n    /* \"#utility.yul\":182:256   */\n  sub\n    /* \"#utility.yul\":179:180   */\n  dup3\n    /* \"#utility.yul\":176:257   */\n  gt\n    /* \"#utility.yul\":173:280   */\n  iszero\n  tag_15\n  jumpi\n    /* \"#utility.yul\":260:278   */\n  tag_16\n  tag_17\n  jump\t// in\ntag_16:\n    /* \"#utility.yul\":173:280   */\ntag_15:\n    /* \"#utility.yul\":304:305   */\n  dup3\n    /* \"#utility.yul\":301:302   */\n  dup3\n    /* \"#utility.yul\":297:306   */\n  add\n    /* \"#utility.yul\":290:306   */\n  swap1\n  pop\n    /* \"#utility.yul\":7:312   */\n  swap3\n  swap2\n  pop\n  pop\n  jump\t// out\n    /* \"#utility.yul\":318:395   */\ntag_13:\n    /* \"#utility.yul\":355:362   */\n  0x00\n    /* \"#utility.yul\":384:389   */\n  dup2\n    /* \"#utility.yul\":373:389   */\n  swap1\n  pop\n    /* \"#utility.yul\":318:395   */\n  swap2\n  swap1\n  pop\n  jump\t// out\n    /* \"#utility.yul\":401:581   */\ntag_17:\n    /* \"#utility.yul\":449:526   */\n  0x4e487b7100000000000000000000000000000000000000000000000000000000\n    /* \"#utility.yul\":446:447   */\n  0x00\n    /* \"#utility.yul\":439:527   */\n  mstore\n    /* \"#utility.yul\":546:550   */\n  0x11\n    /* \"#utility.yul\":543:544   */\n  0x04\n    /* \"#utility.yul\":536:551   */\n  mstore\n    /* \"#utility.yul\":570:574   */\n  0x24\n    /* \"#utility.yul\":567:568   */\n  0x00\n    /* \"#utility.yul\":560:575   */\n  revert\n    /* \"#utility.yul\":587:767   */\ntag_6:\n    /* \"#utility.yul\":635:712   */\n  0x4e487b7100000000000000000000000000000000000000000000000000000000\n    /* \"#utility.yul\":632:633   */\n  0x00\n    /* \"#utility.yul\":625:713   */\n  mstore\n    /* \"#utility.yul\":732:736   */\n  0x21\n    /* \"#utility.yul\":729:730   */\n  0x04\n    /* \"#utility.yul\":722:737   */\n  mstore\n    /* \"#utility.yul\":756:760   */\n  0x24\n    /* \"#utility.yul\":753:754   */\n  0x00\n    /* \"#utility.yul\":746:761   */\n  revert\n    /* \"smartAuction.sol\":63:1051  contract smartAuction{... */\ntag_9:\n  dataSize(sub_0)\n  dup1\n  dataOffset(sub_0)\n  0x00\n  codecopy\n  0x00\n  return\nstop\n\nsub_0: assembly {\n        /* \"smartAuction.sol\":63:1051  contract smartAuction{... */\n      mstore(0x40, 0x80)\n      jumpi(tag_1, lt(calldatasize, 0x04))\n      shr(0xe0, calldataload(0x00))\n      dup1\n      0x7fb45099\n      gt\n      tag_12\n      jumpi\n      dup1\n      0x7fb45099\n      eq\n      tag_7\n      jumpi\n      dup1\n      0xb035bf60\n      eq\n      tag_8\n      jumpi\n      dup1\n      0xbd9215f4\n      eq\n      tag_9\n      jumpi\n      dup1\n      0xe5c60091\n      eq\n      tag_10\n      jumpi\n      dup1\n      0xf3ef35f8\n      eq\n      tag_11\n      jumpi\n      jump(tag_1)\n    tag_12:\n      dup1\n      0x083c6323\n      eq\n      tag_2\n      jumpi\n      dup1\n      0x1998aeef\n      eq\n      tag_3\n      jumpi\n      dup1\n      0x48cd4cb1\n      eq\n      tag_4\n      jumpi\n      dup1\n      0x62ea82db\n      eq\n      tag_5\n      jumpi\n      dup1\n      0x7eb695a1\n      eq\n      tag_6\n      jumpi\n    tag_1:\n      0x00\n      dup1\n      revert\n        /* \"smartAuction.sol\":158:178  uint public endBlock */\n    tag_2:\n      callvalue\n      dup1\n      iszero\n      tag_13\n      jumpi\n      0x00\n      dup1\n      revert\n    tag_13:\n      pop\n      tag_14\n      tag_15\n      jump\t// in\n    tag_14:\n      mload(0x40)\n      tag_16\n      swap2\n      swap1\n      tag_17\n      jump\t// in\n    tag_16:\n      mload(0x40)\n      dup1\n      swap2\n      sub\n      swap1\n      return\n        /* \"smartAuction.sol\":994:1049  function bid() payable public notOwner{... */\n    tag_3:\n      tag_18\n      tag_19\n      jump\t// in\n    tag_18:\n      stop\n        /* \"smartAuction.sol\":130:152  uint public startBlock */\n    tag_4:\n      callvalue\n      dup1\n      iszero\n      tag_20\n      jumpi\n      0x00\n      dup1\n      revert\n    tag_20:\n      pop\n      tag_21\n      tag_22\n      jump\t// in\n    tag_21:\n      mload(0x40)\n      tag_23\n      swap2\n      swap1\n      tag_17\n      jump\t// in\n    tag_23:\n      mload(0x40)\n      dup1\n      swap2\n      sub\n      swap1\n      return\n        /* \"smartAuction.sol\":428:464  mapping(address => uint) public bids */\n    tag_5:\n      callvalue\n      dup1\n      iszero\n      tag_24\n      jumpi\n      0x00\n      dup1\n      revert\n    tag_24:\n      pop\n      tag_25\n      0x04\n      dup1\n      calldatasize\n      sub\n      dup2\n      add\n      swap1\n      tag_26\n      swap2\n      swap1\n      tag_27\n      jump\t// in\n    tag_26:\n      tag_28\n      jump\t// in\n    tag_25:\n      mload(0x40)\n      tag_29\n      swap2\n      swap1\n      tag_17\n      jump\t// in\n    tag_29:\n      mload(0x40)\n      dup1\n      swap2\n      sub\n      swap1\n      return\n        /* \"smartAuction.sol\":321:352  uint public highest_payable_bid */\n    tag_6:\n      callvalue\n      dup1\n      iszero\n      tag_30\n      jumpi\n      0x00\n      dup1\n      revert\n    tag_30:\n      pop\n      tag_31\n      tag_32\n      jump\t// in\n    tag_31:\n      mload(0x40)\n      tag_33\n      swap2\n      swap1\n      tag_17\n      jump\t// in\n    tag_33:\n      mload(0x40)\n      dup1\n      swap2\n      sub\n      swap1\n      return\n        /* \"smartAuction.sol\":252:285  Auction_state public auctionState */\n    tag_7:\n      callvalue\n      dup1\n      iszero\n      tag_34\n      jumpi\n      0x00\n      dup1\n      revert\n    tag_34:\n      pop\n      tag_35\n      tag_36\n      jump\t// in\n    tag_35:\n      mload(0x40)\n      tag_37\n      swap2\n      swap1\n      tag_38\n      jump\t// in\n    tag_37:\n      mload(0x40)\n      dup1\n      swap2\n      sub\n      swap1\n      return\n        /* \"smartAuction.sol\":91:124  address payable public  autioneer */\n    tag_8:\n      callvalue\n      dup1\n      iszero\n      tag_39\n      jumpi\n      0x00\n      dup1\n      revert\n    tag_39:\n      pop\n      tag_40\n      tag_41\n      jump\t// in\n    tag_40:\n      mload(0x40)\n      tag_42\n      swap2\n      swap1\n      tag_43\n      jump\t// in\n    tag_42:\n      mload(0x40)\n      dup1\n      swap2\n      sub\n      swap1\n      return\n        /* \"smartAuction.sol\":384:421  address payable public highest_bidder */\n    tag_9:\n      callvalue\n      dup1\n      iszero\n      tag_44\n      jumpi\n      0x00\n      dup1\n      revert\n    tag_44:\n      pop\n      tag_45\n      tag_46\n      jump\t// in\n    tag_45:\n      mload(0x40)\n      tag_47\n      swap2\n      swap1\n      tag_43\n      jump\t// in\n    tag_47:\n      mload(0x40)\n      dup1\n      swap2\n      sub\n      swap1\n      return\n        /* \"smartAuction.sol\":292:315  uint public highest_bid */\n    tag_10:\n      callvalue\n      dup1\n      iszero\n      tag_48\n      jumpi\n      0x00\n      dup1\n      revert\n    tag_48:\n      pop\n      tag_49\n      tag_50\n      jump\t// in\n    tag_49:\n      mload(0x40)\n      tag_51\n      swap2\n      swap1\n      tag_17\n      jump\t// in\n    tag_51:\n      mload(0x40)\n      dup1\n      swap2\n      sub\n      swap1\n      return\n        /* \"smartAuction.sol\":358:377  uint public bid_inc */\n    tag_11:\n      callvalue\n      dup1\n      iszero\n      tag_52\n      jumpi\n      0x00\n      dup1\n      revert\n    tag_52:\n      pop\n      tag_53\n      tag_54\n      jump\t// in\n    tag_53:\n      mload(0x40)\n      tag_55\n      swap2\n      swap1\n      tag_17\n      jump\t// in\n    tag_55:\n      mload(0x40)\n      dup1\n      swap2\n      sub\n      swap1\n      return\n        /* \"smartAuction.sol\":158:178  uint public endBlock */\n    tag_15:\n      sload(0x02)\n      dup2\n      jump\t// out\n        /* \"smartAuction.sol\":994:1049  function bid() payable public notOwner{... */\n    tag_19:\n        /* \"smartAuction.sol\":706:715  autioneer */\n      0x00\n      dup1\n      sload\n      swap1\n      0x0100\n      exp\n      swap1\n      div\n      0xffffffffffffffffffffffffffffffffffffffff\n      and\n        /* \"smartAuction.sol\":692:715  msg.sender != autioneer */\n      0xffffffffffffffffffffffffffffffffffffffff\n      and\n        /* \"smartAuction.sol\":692:702  msg.sender */\n      caller\n        /* \"smartAuction.sol\":692:715  msg.sender != autioneer */\n      0xffffffffffffffffffffffffffffffffffffffff\n      and\n      eq\n      iszero\n        /* \"smartAuction.sol\":684:736  require(msg.sender != autioneer, \"Owner Cannot bid\") */\n      tag_57\n      jumpi\n      mload(0x40)\n      0x08c379a000000000000000000000000000000000000000000000000000000000\n      dup2\n      mstore\n      0x04\n      add\n      tag_58\n      swap1\n      tag_59\n      jump\t// in\n    tag_58:\n      mload(0x40)\n      dup1\n      swap2\n      sub\n      swap1\n      revert\n    tag_57:\n        /* \"smartAuction.sol\":994:1049  function bid() payable public notOwner{... */\n      jump\t// out\n        /* \"smartAuction.sol\":130:152  uint public startBlock */\n    tag_22:\n      sload(0x01)\n      dup2\n      jump\t// out\n        /* \"smartAuction.sol\":428:464  mapping(address => uint) public bids */\n    tag_28:\n      mstore(0x20, 0x08)\n      dup1\n      0x00\n      mstore\n      keccak256(0x00, 0x40)\n      0x00\n      swap2\n      pop\n      swap1\n      pop\n      sload\n      dup2\n      jump\t// out\n        /* \"smartAuction.sol\":321:352  uint public highest_payable_bid */\n    tag_32:\n      sload(0x05)\n      dup2\n      jump\t// out\n        /* \"smartAuction.sol\":252:285  Auction_state public auctionState */\n    tag_36:\n      0x03\n      0x00\n      swap1\n      sload\n      swap1\n      0x0100\n      exp\n      swap1\n      div\n      0xff\n      and\n      dup2\n      jump\t// out\n        /* \"smartAuction.sol\":91:124  address payable public  autioneer */\n    tag_41:\n      0x00\n      dup1\n      sload\n      swap1\n      0x0100\n      exp\n      swap1\n      div\n      0xffffffffffffffffffffffffffffffffffffffff\n      and\n      dup2\n      jump\t// out\n        /* \"smartAuction.sol\":384:421  address payable public highest_bidder */\n    tag_46:\n      0x07\n      0x00\n      swap1\n      sload\n      swap1\n      0x0100\n      exp\n      swap1\n      div\n      0xffffffffffffffffffffffffffffffffffffffff\n      and\n      dup2\n      jump\t// out\n        /* \"smartAuction.sol\":292:315  uint public highest_bid */\n    tag_50:\n      sload(0x04)\n      dup2\n      jump\t// out\n        /* \"smartAuction.sol\":358:377  uint public bid_inc */\n    tag_54:\n      sload(0x06)\n      dup2\n      jump\t// out\n        /* \"#utility.yul\":7:146   */\n    tag_62:\n        /* \"#utility.yul\":53:58   */\n      0x00\n        /* \"#utility.yul\":91:97   */\n      dup2\n        /* \"#utility.yul\":78:98   */\n      calldataload\n        /* \"#utility.yul\":69:98   */\n      swap1\n      pop\n        /* \"#utility.yul\":107:140   */\n      tag_64\n        /* \"#utility.yul\":134:139   */\n      dup2\n        /* \"#utility.yul\":107:140   */\n      tag_65\n      jump\t// in\n    tag_64:\n        /* \"#utility.yul\":7:146   */\n      swap3\n      swap2\n      pop\n      pop\n      jump\t// out\n        /* \"#utility.yul\":152:481   */\n    tag_27:\n        /* \"#utility.yul\":211:217   */\n      0x00\n        /* \"#utility.yul\":260:262   */\n      0x20\n        /* \"#utility.yul\":248:257   */\n      dup3\n        /* \"#utility.yul\":239:246   */\n      dup5\n        /* \"#utility.yul\":235:258   */\n      sub\n        /* \"#utility.yul\":231:263   */\n      slt\n        /* \"#utility.yul\":228:347   */\n      iszero\n      tag_67\n      jumpi\n        /* \"#utility.yul\":266:345   */\n      tag_68\n      tag_69\n      jump\t// in\n    tag_68:\n        /* \"#utility.yul\":228:347   */\n    tag_67:\n        /* \"#utility.yul\":386:387   */\n      0x00\n        /* \"#utility.yul\":411:464   */\n      tag_70\n        /* \"#utility.yul\":456:463   */\n      dup5\n        /* \"#utility.yul\":447:453   */\n      dup3\n        /* \"#utility.yul\":436:445   */\n      dup6\n        /* \"#utility.yul\":432:454   */\n      add\n        /* \"#utility.yul\":411:464   */\n      tag_62\n      jump\t// in\n    tag_70:\n        /* \"#utility.yul\":401:464   */\n      swap2\n      pop\n        /* \"#utility.yul\":357:474   */\n      pop\n        /* \"#utility.yul\":152:481   */\n      swap3\n      swap2\n      pop\n      pop\n      jump\t// out\n        /* \"#utility.yul\":487:629   */\n    tag_71:\n        /* \"#utility.yul\":590:622   */\n      tag_73\n        /* \"#utility.yul\":616:621   */\n      dup2\n        /* \"#utility.yul\":590:622   */\n      tag_74\n      jump\t// in\n    tag_73:\n        /* \"#utility.yul\":585:588   */\n      dup3\n        /* \"#utility.yul\":578:623   */\n      mstore\n        /* \"#utility.yul\":487:629   */\n      pop\n      pop\n      jump\t// out\n        /* \"#utility.yul\":635:794   */\n    tag_75:\n        /* \"#utility.yul\":736:787   */\n      tag_77\n        /* \"#utility.yul\":781:786   */\n      dup2\n        /* \"#utility.yul\":736:787   */\n      tag_78\n      jump\t// in\n    tag_77:\n        /* \"#utility.yul\":731:734   */\n      dup3\n        /* \"#utility.yul\":724:788   */\n      mstore\n        /* \"#utility.yul\":635:794   */\n      pop\n      pop\n      jump\t// out\n        /* \"#utility.yul\":800:1166   */\n    tag_79:\n        /* \"#utility.yul\":942:945   */\n      0x00\n        /* \"#utility.yul\":963:1030   */\n      tag_81\n        /* \"#utility.yul\":1027:1029   */\n      0x10\n        /* \"#utility.yul\":1022:1025   */\n      dup4\n        /* \"#utility.yul\":963:1030   */\n      tag_82\n      jump\t// in\n    tag_81:\n        /* \"#utility.yul\":956:1030   */\n      swap2\n      pop\n        /* \"#utility.yul\":1039:1132   */\n      tag_83\n        /* \"#utility.yul\":1128:1131   */\n      dup3\n        /* \"#utility.yul\":1039:1132   */\n      tag_84\n      jump\t// in\n    tag_83:\n        /* \"#utility.yul\":1157:1159   */\n      0x20\n        /* \"#utility.yul\":1152:1155   */\n      dup3\n        /* \"#utility.yul\":1148:1160   */\n      add\n        /* \"#utility.yul\":1141:1160   */\n      swap1\n      pop\n        /* \"#utility.yul\":800:1166   */\n      swap2\n      swap1\n      pop\n      jump\t// out\n        /* \"#utility.yul\":1172:1290   */\n    tag_85:\n        /* \"#utility.yul\":1259:1283   */\n      tag_87\n        /* \"#utility.yul\":1277:1282   */\n      dup2\n        /* \"#utility.yul\":1259:1283   */\n      tag_88\n      jump\t// in\n    tag_87:\n        /* \"#utility.yul\":1254:1257   */\n      dup3\n        /* \"#utility.yul\":1247:1284   */\n      mstore\n        /* \"#utility.yul\":1172:1290   */\n      pop\n      pop\n      jump\t// out\n        /* \"#utility.yul\":1296:1550   */\n    tag_43:\n        /* \"#utility.yul\":1405:1409   */\n      0x00\n        /* \"#utility.yul\":1443:1445   */\n      0x20\n        /* \"#utility.yul\":1432:1441   */\n      dup3\n        /* \"#utility.yul\":1428:1446   */\n      add\n        /* \"#utility.yul\":1420:1446   */\n      swap1\n      pop\n        /* \"#utility.yul\":1456:1543   */\n      tag_90\n        /* \"#utility.yul\":1540:1541   */\n      0x00\n        /* \"#utility.yul\":1529:1538   */\n      dup4\n        /* \"#utility.yul\":1525:1542   */\n      add\n        /* \"#utility.yul\":1516:1522   */\n      dup5\n        /* \"#utility.yul\":1456:1543   */\n      tag_71\n      jump\t// in\n    tag_90:\n        /* \"#utility.yul\":1296:1550   */\n      swap3\n      swap2\n      pop\n      pop\n      jump\t// out\n        /* \"#utility.yul\":1556:1806   */\n    tag_38:\n        /* \"#utility.yul\":1663:1667   */\n      0x00\n        /* \"#utility.yul\":1701:1703   */\n      0x20\n        /* \"#utility.yul\":1690:1699   */\n      dup3\n        /* \"#utility.yul\":1686:1704   */\n      add\n        /* \"#utility.yul\":1678:1704   */\n      swap1\n      pop\n        /* \"#utility.yul\":1714:1799   */\n      tag_92\n        /* \"#utility.yul\":1796:1797   */\n      0x00\n        /* \"#utility.yul\":1785:1794   */\n      dup4\n        /* \"#utility.yul\":1781:1798   */\n      add\n        /* \"#utility.yul\":1772:1778   */\n      dup5\n        /* \"#utility.yul\":1714:1799   */\n      tag_75\n      jump\t// in\n    tag_92:\n        /* \"#utility.yul\":1556:1806   */\n      swap3\n      swap2\n      pop\n      pop\n      jump\t// out\n        /* \"#utility.yul\":1812:2231   */\n    tag_59:\n        /* \"#utility.yul\":1978:1982   */\n      0x00\n        /* \"#utility.yul\":2016:2018   */\n      0x20\n        /* \"#utility.yul\":2005:2014   */\n      dup3\n        /* \"#utility.yul\":2001:2019   */\n      add\n        /* \"#utility.yul\":1993:2019   */\n      swap1\n      pop\n        /* \"#utility.yul\":2065:2074   */\n      dup2\n        /* \"#utility.yul\":2059:2063   */\n      dup2\n        /* \"#utility.yul\":2055:2075   */\n      sub\n        /* \"#utility.yul\":2051:2052   */\n      0x00\n        /* \"#utility.yul\":2040:2049   */\n      dup4\n        /* \"#utility.yul\":2036:2053   */\n      add\n        /* \"#utility.yul\":2029:2076   */\n      mstore\n        /* \"#utility.yul\":2093:2224   */\n      tag_94\n        /* \"#utility.yul\":2219:2223   */\n      dup2\n        /* \"#utility.yul\":2093:2224   */\n      tag_79\n      jump\t// in\n    tag_94:\n        /* \"#utility.yul\":2085:2224   */\n      swap1\n      pop\n        /* \"#utility.yul\":1812:2231   */\n      swap2\n      swap1\n      pop\n      jump\t// out\n        /* \"#utility.yul\":2237:2459   */\n    tag_17:\n        /* \"#utility.yul\":2330:2334   */\n      0x00\n        /* \"#utility.yul\":2368:2370   */\n      0x20\n        /* \"#utility.yul\":2357:2366   */\n      dup3\n        /* \"#utility.yul\":2353:2371   */\n      add\n        /* \"#utility.yul\":2345:2371   */\n      swap1\n      pop\n        /* \"#utility.yul\":2381:2452   */\n      tag_96\n        /* \"#utility.yul\":2449:2450   */\n      0x00\n        /* \"#utility.yul\":2438:2447   */\n      dup4\n        /* \"#utility.yul\":2434:2451   */\n      add\n        /* \"#utility.yul\":2425:2431   */\n      dup5\n        /* \"#utility.yul\":2381:2452   */\n      tag_85\n      jump\t// in\n    tag_96:\n        /* \"#utility.yul\":2237:2459   */\n      swap3\n      swap2\n      pop\n      pop\n      jump\t// out\n        /* \"#utility.yul\":2546:2715   */\n    tag_82:\n        /* \"#utility.yul\":2630:2641   */\n      0x00\n        /* \"#utility.yul\":2664:2670   */\n      dup3\n        /* \"#utility.yul\":2659:2662   */\n      dup3\n        /* \"#utility.yul\":2652:2671   */\n      mstore\n        /* \"#utility.yul\":2704:2708   */\n      0x20\n        /* \"#utility.yul\":2699:2702   */\n      dup3\n        /* \"#utility.yul\":2695:2709   */\n      add\n        /* \"#utility.yul\":2680:2709   */\n      swap1\n      pop\n        /* \"#utility.yul\":2546:2715   */\n      swap3\n      swap2\n      pop\n      pop\n      jump\t// out\n        /* \"#utility.yul\":2721:2817   */\n    tag_100:\n        /* \"#utility.yul\":2758:2765   */\n      0x00\n        /* \"#utility.yul\":2787:2811   */\n      tag_102\n        /* \"#utility.yul\":2805:2810   */\n      dup3\n        /* \"#utility.yul\":2787:2811   */\n      tag_103\n      jump\t// in\n    tag_102:\n        /* \"#utility.yul\":2776:2811   */\n      swap1\n      pop\n        /* \"#utility.yul\":2721:2817   */\n      swap2\n      swap1\n      pop\n      jump\t// out\n        /* \"#utility.yul\":2823:2927   */\n    tag_74:\n        /* \"#utility.yul\":2868:2875   */\n      0x00\n        /* \"#utility.yul\":2897:2921   */\n      tag_105\n        /* \"#utility.yul\":2915:2920   */\n      dup3\n        /* \"#utility.yul\":2897:2921   */\n      tag_103\n      jump\t// in\n    tag_105:\n        /* \"#utility.yul\":2886:2921   */\n      swap1\n      pop\n        /* \"#utility.yul\":2823:2927   */\n      swap2\n      swap1\n      pop\n      jump\t// out\n        /* \"#utility.yul\":2933:3076   */\n    tag_106:\n        /* \"#utility.yul\":2986:2993   */\n      0x00\n        /* \"#utility.yul\":3015:3020   */\n      dup2\n        /* \"#utility.yul\":3004:3020   */\n      swap1\n      pop\n        /* \"#utility.yul\":3021:3070   */\n      tag_108\n        /* \"#utility.yul\":3064:3069   */\n      dup3\n        /* \"#utility.yul\":3021:3070   */\n      tag_109\n      jump\t// in\n    tag_108:\n        /* \"#utility.yul\":2933:3076   */\n      swap2\n      swap1\n      pop\n      jump\t// out\n        /* \"#utility.yul\":3082:3208   */\n    tag_103:\n        /* \"#utility.yul\":3119:3126   */\n      0x00\n        /* \"#utility.yul\":3159:3201   */\n      0xffffffffffffffffffffffffffffffffffffffff\n        /* \"#utility.yul\":3152:3157   */\n      dup3\n        /* \"#utility.yul\":3148:3202   */\n      and\n        /* \"#utility.yul\":3137:3202   */\n      swap1\n      pop\n        /* \"#utility.yul\":3082:3208   */\n      swap2\n      swap1\n      pop\n      jump\t// out\n        /* \"#utility.yul\":3214:3291   */\n    tag_88:\n        /* \"#utility.yul\":3251:3258   */\n      0x00\n        /* \"#utility.yul\":3280:3285   */\n      dup2\n        /* \"#utility.yul\":3269:3285   */\n      swap1\n      pop\n        /* \"#utility.yul\":3214:3291   */\n      swap2\n      swap1\n      pop\n      jump\t// out\n        /* \"#utility.yul\":3297:3440   */\n    tag_78:\n        /* \"#utility.yul\":3361:3370   */\n      0x00\n        /* \"#utility.yul\":3394:3434   */\n      tag_113\n        /* \"#utility.yul\":3428:3433   */\n      dup3\n        /* \"#utility.yul\":3394:3434   */\n      tag_106\n      jump\t// in\n    tag_113:\n        /* \"#utility.yul\":3381:3434   */\n      swap1\n      pop\n        /* \"#utility.yul\":3297:3440   */\n      swap2\n      swap1\n      pop\n      jump\t// out\n        /* \"#utility.yul\":3446:3626   */\n    tag_114:\n        /* \"#utility.yul\":3494:3571   */\n      0x4e487b7100000000000000000000000000000000000000000000000000000000\n        /* \"#utility.yul\":3491:3492   */\n      0x00\n        /* \"#utility.yul\":3484:3572   */\n      mstore\n        /* \"#utility.yul\":3591:3595   */\n      0x21\n        /* \"#utility.yul\":3588:3589   */\n      0x04\n        /* \"#utility.yul\":3581:3596   */\n      mstore\n        /* \"#utility.yul\":3615:3619   */\n      0x24\n        /* \"#utility.yul\":3612:3613   */\n      0x00\n        /* \"#utility.yul\":3605:3620   */\n      revert\n        /* \"#utility.yul\":3755:3872   */\n    tag_69:\n        /* \"#utility.yul\":3864:3865   */\n      0x00\n        /* \"#utility.yul\":3861:3862   */\n      dup1\n        /* \"#utility.yul\":3854:3866   */\n      revert\n        /* \"#utility.yul\":3878:4044   */\n    tag_84:\n        /* \"#utility.yul\":4018:4036   */\n      0x4f776e65722043616e6e6f742062696400000000000000000000000000000000\n        /* \"#utility.yul\":4014:4015   */\n      0x00\n        /* \"#utility.yul\":4006:4012   */\n      dup3\n        /* \"#utility.yul\":4002:4016   */\n      add\n        /* \"#utility.yul\":3995:4037   */\n      mstore\n        /* \"#utility.yul\":3878:4044   */\n      pop\n      jump\t// out\n        /* \"#utility.yul\":4050:4171   */\n    tag_109:\n        /* \"#utility.yul\":4139:4140   */\n      0x04\n        /* \"#utility.yul\":4132:4137   */\n      dup2\n        /* \"#utility.yul\":4129:4141   */\n      lt\n        /* \"#utility.yul\":4119:4165   */\n      tag_121\n      jumpi\n        /* \"#utility.yul\":4145:4163   */\n      tag_122\n      tag_114\n      jump\t// in\n    tag_122:\n        /* \"#utility.yul\":4119:4165   */\n    tag_121:\n        /* \"#utility.yul\":4050:4171   */\n      pop\n      jump\t// out\n        /* \"#utility.yul\":4177:4299   */\n    tag_65:\n        /* \"#utility.yul\":4250:4274   */\n      tag_124\n        /* \"#utility.yul\":4268:4273   */\n      dup2\n        /* \"#utility.yul\":4250:4274   */\n      tag_100\n      jump\t// in\n    tag_124:\n        /* \"#utility.yul\":4243:4248   */\n      dup2\n        /* \"#utility.yul\":4240:4275   */\n      eq\n        /* \"#utility.yul\":4230:4293   */\n      tag_125\n      jumpi\n        /* \"#utility.yul\":4289:4290   */\n      0x00\n        /* \"#utility.yul\":4286:4287   */\n      dup1\n        /* \"#utility.yul\":4279:4291   */\n      revert\n        /* \"#utility.yul\":4230:4293   */\n    tag_125:\n        /* \"#utility.yul\":4177:4299   */\n      pop\n      jump\t// out\n\n    auxdata: 0xa2646970667358221220e2e2c2429532b040a0b142714aafe124d9ce0106ea42f1395983084ed5c0bd1264736f6c63430008070033\n}\n",
				"bytecode": {
					"linkReferences": {},
					"object": "608060405234801561001057600080fd5b50336000806101000a81548173ffffffffffffffffffffffffffffffffffffffff021916908373ffffffffffffffffffffffffffffffffffffffff160217905550436001819055506001600360006101000a81548160ff0219169083600381111561007e5761007d61012b565b5b021790555060018054610091919061009c565b60028190555061015a565b60006100a7826100f2565b91506100b2836100f2565b9250827fffffffffffffffffffffffffffffffffffffffffffffffffffffffffffffffff038211156100e7576100e66100fc565b5b828201905092915050565b6000819050919050565b7f4e487b7100000000000000000000000000000000000000000000000000000000600052601160045260246000fd5b7f4e487b7100000000000000000000000000000000000000000000000000000000600052602160045260246000fd5b61059e806101696000396000f3fe6080604052600436106100915760003560e01c80637fb45099116100595780637fb450991461015e578063b035bf6014610189578063bd9215f4146101b4578063e5c60091146101df578063f3ef35f81461020a57610091565b8063083c6323146100965780631998aeef146100c157806348cd4cb1146100cb57806362ea82db146100f65780637eb695a114610133575b600080fd5b3480156100a257600080fd5b506100ab610235565b6040516100b89190610441565b60405180910390f35b6100c961023b565b005b3480156100d757600080fd5b506100e06102cc565b6040516100ed9190610441565b60405180910390f35b34801561010257600080fd5b5061011d6004803603810190610118919061036e565b6102d2565b60405161012a9190610441565b60405180910390f35b34801561013f57600080fd5b506101486102ea565b6040516101559190610441565b60405180910390f35b34801561016a57600080fd5b506101736102f0565b6040516101809190610406565b60405180910390f35b34801561019557600080fd5b5061019e610303565b6040516101ab91906103eb565b60405180910390f35b3480156101c057600080fd5b506101c9610327565b6040516101d691906103eb565b60405180910390f35b3480156101eb57600080fd5b506101f461034d565b6040516102019190610441565b60405180910390f35b34801561021657600080fd5b5061021f610353565b60405161022c9190610441565b60405180910390f35b60025481565b60008054906101000a900473ffffffffffffffffffffffffffffffffffffffff1673ffffffffffffffffffffffffffffffffffffffff163373ffffffffffffffffffffffffffffffffffffffff1614156102ca576040517f08c379a00000000000000000000000000000000000000000000000000000000081526004016102c190610421565b60405180910390fd5b565b60015481565b60086020528060005260406000206000915090505481565b60055481565b600360009054906101000a900460ff1681565b60008054906101000a900473ffffffffffffffffffffffffffffffffffffffff1681565b600760009054906101000a900473ffffffffffffffffffffffffffffffffffffffff1681565b60045481565b60065481565b60008135905061036881610551565b92915050565b6000602082840312156103845761038361050f565b5b600061039284828501610359565b91505092915050565b6103a48161047f565b82525050565b6103b3816104ce565b82525050565b60006103c660108361045c565b91506103d182610514565b602082019050919050565b6103e5816104c4565b82525050565b6000602082019050610400600083018461039b565b92915050565b600060208201905061041b60008301846103aa565b92915050565b6000602082019050818103600083015261043a816103b9565b9050919050565b600060208201905061045660008301846103dc565b92915050565b600082825260208201905092915050565b6000610478826104a4565b9050919050565b600061048a826104a4565b9050919050565b600081905061049f8261053d565b919050565b600073ffffffffffffffffffffffffffffffffffffffff82169050919050565b6000819050919050565b60006104d982610491565b9050919050565b7f4e487b7100000000000000000000000000000000000000000000000000000000600052602160045260246000fd5b600080fd5b7f4f776e65722043616e6e6f742062696400000000000000000000000000000000600082015250565b6004811061054e5761054d6104e0565b5b50565b61055a8161046d565b811461056557600080fd5b5056fea2646970667358221220e2e2c2429532b040a0b142714aafe124d9ce0106ea42f1395983084ed5c0bd1264736f6c63430008070033",
					"opcodes": "PUSH1 0x80 PUSH1 0x40 MSTORE CALLVALUE DUP1 ISZERO PUSH2 0x10 JUMPI PUSH1 0x0 DUP1 REVERT JUMPDEST POP CALLER PUSH1 0x0 DUP1 PUSH2 0x100 EXP DUP2 SLOAD DUP2 PUSH20 0xFFFFFFFFFFFFFFFFFFFFFFFFFFFFFFFFFFFFFFFF MUL NOT AND SWAP1 DUP4 PUSH20 0xFFFFFFFFFFFFFFFFFFFFFFFFFFFFFFFFFFFFFFFF AND MUL OR SWAP1 SSTORE POP NUMBER PUSH1 0x1 DUP2 SWAP1 SSTORE POP PUSH1 0x1 PUSH1 0x3 PUSH1 0x0 PUSH2 0x100 EXP DUP2 SLOAD DUP2 PUSH1 0xFF MUL NOT AND SWAP1 DUP4 PUSH1 0x3 DUP2 GT ISZERO PUSH2 0x7E JUMPI PUSH2 0x7D PUSH2 0x12B JUMP JUMPDEST JUMPDEST MUL OR SWAP1 SSTORE POP PUSH1 0x1 DUP1 SLOAD PUSH2 0x91 SWAP2 SWAP1 PUSH2 0x9C JUMP JUMPDEST PUSH1 0x2 DUP2 SWAP1 SSTORE POP PUSH2 0x15A JUMP JUMPDEST PUSH1 0x0 PUSH2 0xA7 DUP3 PUSH2 0xF2 JUMP JUMPDEST SWAP2 POP PUSH2 0xB2 DUP4 PUSH2 0xF2 JUMP JUMPDEST SWAP3 POP DUP3 PUSH32 0xFFFFFFFFFFFFFFFFFFFFFFFFFFFFFFFFFFFFFFFFFFFFFFFFFFFFFFFFFFFFFFFF SUB DUP3 GT ISZERO PUSH2 0xE7 JUMPI PUSH2 0xE6 PUSH2 0xFC JUMP JUMPDEST JUMPDEST DUP3 DUP3 ADD SWAP1 POP SWAP3 SWAP2 POP POP JUMP JUMPDEST PUSH1 0x0 DUP2 SWAP1 POP SWAP2 SWAP1 POP JUMP JUMPDEST PUSH32 0x4E487B7100000000000000000000000000000000000000000000000000000000 PUSH1 0x0 MSTORE PUSH1 0x11 PUSH1 0x4 MSTORE PUSH1 0x24 PUSH1 0x0 REVERT JUMPDEST PUSH32 0x4E487B7100000000000000000000000000000000000000000000000000000000 PUSH1 0x0 MSTORE PUSH1 0x21 PUSH1 0x4 MSTORE PUSH1 0x24 PUSH1 0x0 REVERT JUMPDEST PUSH2 0x59E DUP1 PUSH2 0x169 PUSH1 0x0 CODECOPY PUSH1 0x0 RETURN INVALID PUSH1 0x80 PUSH1 0x40 MSTORE PUSH1 0x4 CALLDATASIZE LT PUSH2 0x91 JUMPI PUSH1 0x0 CALLDATALOAD PUSH1 0xE0 SHR DUP1 PUSH4 0x7FB45099 GT PUSH2 0x59 JUMPI DUP1 PUSH4 0x7FB45099 EQ PUSH2 0x15E JUMPI DUP1 PUSH4 0xB035BF60 EQ PUSH2 0x189 JUMPI DUP1 PUSH4 0xBD9215F4 EQ PUSH2 0x1B4 JUMPI DUP1 PUSH4 0xE5C60091 EQ PUSH2 0x1DF JUMPI DUP1 PUSH4 0xF3EF35F8 EQ PUSH2 0x20A JUMPI PUSH2 0x91 JUMP JUMPDEST DUP1 PUSH4 0x83C6323 EQ PUSH2 0x96 JUMPI DUP1 PUSH4 0x1998AEEF EQ PUSH2 0xC1 JUMPI DUP1 PUSH4 0x48CD4CB1 EQ PUSH2 0xCB JUMPI DUP1 PUSH4 0x62EA82DB EQ PUSH2 0xF6 JUMPI DUP1 PUSH4 0x7EB695A1 EQ PUSH2 0x133 JUMPI JUMPDEST PUSH1 0x0 DUP1 REVERT JUMPDEST CALLVALUE DUP1 ISZERO PUSH2 0xA2 JUMPI PUSH1 0x0 DUP1 REVERT JUMPDEST POP PUSH2 0xAB PUSH2 0x235 JUMP JUMPDEST PUSH1 0x40 MLOAD PUSH2 0xB8 SWAP2 SWAP1 PUSH2 0x441 JUMP JUMPDEST PUSH1 0x40 MLOAD DUP1 SWAP2 SUB SWAP1 RETURN JUMPDEST PUSH2 0xC9 PUSH2 0x23B JUMP JUMPDEST STOP JUMPDEST CALLVALUE DUP1 ISZERO PUSH2 0xD7 JUMPI PUSH1 0x0 DUP1 REVERT JUMPDEST POP PUSH2 0xE0 PUSH2 0x2CC JUMP JUMPDEST PUSH1 0x40 MLOAD PUSH2 0xED SWAP2 SWAP1 PUSH2 0x441 JUMP JUMPDEST PUSH1 0x40 MLOAD DUP1 SWAP2 SUB SWAP1 RETURN JUMPDEST CALLVALUE DUP1 ISZERO PUSH2 0x102 JUMPI PUSH1 0x0 DUP1 REVERT JUMPDEST POP PUSH2 0x11D PUSH1 0x4 DUP1 CALLDATASIZE SUB DUP2 ADD SWAP1 PUSH2 0x118 SWAP2 SWAP1 PUSH2 0x36E JUMP JUMPDEST PUSH2 0x2D2 JUMP JUMPDEST PUSH1 0x40 MLOAD PUSH2 0x12A SWAP2 SWAP1 PUSH2 0x441 JUMP JUMPDEST PUSH1 0x40 MLOAD DUP1 SWAP2 SUB SWAP1 RETURN JUMPDEST CALLVALUE DUP1 ISZERO PUSH2 0x13F JUMPI PUSH1 0x0 DUP1 REVERT JUMPDEST POP PUSH2 0x148 PUSH2 0x2EA JUMP JUMPDEST PUSH1 0x40 MLOAD PUSH2 0x155 SWAP2 SWAP1 PUSH2 0x441 JUMP JUMPDEST PUSH1 0x40 MLOAD DUP1 SWAP2 SUB SWAP1 RETURN JUMPDEST CALLVALUE DUP1 ISZERO PUSH2 0x16A JUMPI PUSH1 0x0 DUP1 REVERT JUMPDEST POP PUSH2 0x173 PUSH2 0x2F0 JUMP JUMPDEST PUSH1 0x40 MLOAD PUSH2 0x180 SWAP2 SWAP1 PUSH2 0x406 JUMP JUMPDEST PUSH1 0x40 MLOAD DUP1 SWAP2 SUB SWAP1 RETURN JUMPDEST CALLVALUE DUP1 ISZERO PUSH2 0x195 JUMPI PUSH1 0x0 DUP1 REVERT JUMPDEST POP PUSH2 0x19E PUSH2 0x303 JUMP JUMPDEST PUSH1 0x40 MLOAD PUSH2 0x1AB SWAP2 SWAP1 PUSH2 0x3EB JUMP JUMPDEST PUSH1 0x40 MLOAD DUP1 SWAP2 SUB SWAP1 RETURN JUMPDEST CALLVALUE DUP1 ISZERO PUSH2 0x1C0 JUMPI PUSH1 0x0 DUP1 REVERT JUMPDEST POP PUSH2 0x1C9 PUSH2 0x327 JUMP JUMPDEST PUSH1 0x40 MLOAD PUSH2 0x1D6 SWAP2 SWAP1 PUSH2 0x3EB JUMP JUMPDEST PUSH1 0x40 MLOAD DUP1 SWAP2 SUB SWAP1 RETURN JUMPDEST CALLVALUE DUP1 ISZERO PUSH2 0x1EB JUMPI PUSH1 0x0 DUP1 REVERT JUMPDEST POP PUSH2 0x1F4 PUSH2 0x34D JUMP JUMPDEST PUSH1 0x40 MLOAD PUSH2 0x201 SWAP2 SWAP1 PUSH2 0x441 JUMP JUMPDEST PUSH1 0x40 MLOAD DUP1 SWAP2 SUB SWAP1 RETURN JUMPDEST CALLVALUE DUP1 ISZERO PUSH2 0x216 JUMPI PUSH1 0x0 DUP1 REVERT JUMPDEST POP PUSH2 0x21F PUSH2 0x353 JUMP JUMPDEST PUSH1 0x40 MLOAD PUSH2 0x22C SWAP2 SWAP1 PUSH2 0x441 JUMP JUMPDEST PUSH1 0x40 MLOAD DUP1 SWAP2 SUB SWAP1 RETURN JUMPDEST PUSH1 0x2 SLOAD DUP2 JUMP JUMPDEST PUSH1 0x0 DUP1 SLOAD SWAP1 PUSH2 0x100 EXP SWAP1 DIV PUSH20 0xFFFFFFFFFFFFFFFFFFFFFFFFFFFFFFFFFFFFFFFF AND PUSH20 0xFFFFFFFFFFFFFFFFFFFFFFFFFFFFFFFFFFFFFFFF AND CALLER PUSH20 0xFFFFFFFFFFFFFFFFFFFFFFFFFFFFFFFFFFFFFFFF AND EQ ISZERO PUSH2 0x2CA JUMPI PUSH1 0x40 MLOAD PUSH32 0x8C379A000000000000000000000000000000000000000000000000000000000 DUP2 MSTORE PUSH1 0x4 ADD PUSH2 0x2C1 SWAP1 PUSH2 0x421 JUMP JUMPDEST PUSH1 0x40 MLOAD DUP1 SWAP2 SUB SWAP1 REVERT JUMPDEST JUMP JUMPDEST PUSH1 0x1 SLOAD DUP2 JUMP JUMPDEST PUSH1 0x8 PUSH1 0x20 MSTORE DUP1 PUSH1 0x0 MSTORE PUSH1 0x40 PUSH1 0x0 KECCAK256 PUSH1 0x0 SWAP2 POP SWAP1 POP SLOAD DUP2 JUMP JUMPDEST PUSH1 0x5 SLOAD DUP2 JUMP JUMPDEST PUSH1 0x3 PUSH1 0x0 SWAP1 SLOAD SWAP1 PUSH2 0x100 EXP SWAP1 DIV PUSH1 0xFF AND DUP2 JUMP JUMPDEST PUSH1 0x0 DUP1 SLOAD SWAP1 PUSH2 0x100 EXP SWAP1 DIV PUSH20 0xFFFFFFFFFFFFFFFFFFFFFFFFFFFFFFFFFFFFFFFF AND DUP2 JUMP JUMPDEST PUSH1 0x7 PUSH1 0x0 SWAP1 SLOAD SWAP1 PUSH2 0x100 EXP SWAP1 DIV PUSH20 0xFFFFFFFFFFFFFFFFFFFFFFFFFFFFFFFFFFFFFFFF AND DUP2 JUMP JUMPDEST PUSH1 0x4 SLOAD DUP2 JUMP JUMPDEST PUSH1 0x6 SLOAD DUP2 JUMP JUMPDEST PUSH1 0x0 DUP2 CALLDATALOAD SWAP1 POP PUSH2 0x368 DUP2 PUSH2 0x551 JUMP JUMPDEST SWAP3 SWAP2 POP POP JUMP JUMPDEST PUSH1 0x0 PUSH1 0x20 DUP3 DUP5 SUB SLT ISZERO PUSH2 0x384 JUMPI PUSH2 0x383 PUSH2 0x50F JUMP JUMPDEST JUMPDEST PUSH1 0x0 PUSH2 0x392 DUP5 DUP3 DUP6 ADD PUSH2 0x359 JUMP JUMPDEST SWAP2 POP POP SWAP3 SWAP2 POP POP JUMP JUMPDEST PUSH2 0x3A4 DUP2 PUSH2 0x47F JUMP JUMPDEST DUP3 MSTORE POP POP JUMP JUMPDEST PUSH2 0x3B3 DUP2 PUSH2 0x4CE JUMP JUMPDEST DUP3 MSTORE POP POP JUMP JUMPDEST PUSH1 0x0 PUSH2 0x3C6 PUSH1 0x10 DUP4 PUSH2 0x45C JUMP JUMPDEST SWAP2 POP PUSH2 0x3D1 DUP3 PUSH2 0x514 JUMP JUMPDEST PUSH1 0x20 DUP3 ADD SWAP1 POP SWAP2 SWAP1 POP JUMP JUMPDEST PUSH2 0x3E5 DUP2 PUSH2 0x4C4 JUMP JUMPDEST DUP3 MSTORE POP POP JUMP JUMPDEST PUSH1 0x0 PUSH1 0x20 DUP3 ADD SWAP1 POP PUSH2 0x400 PUSH1 0x0 DUP4 ADD DUP5 PUSH2 0x39B JUMP JUMPDEST SWAP3 SWAP2 POP POP JUMP JUMPDEST PUSH1 0x0 PUSH1 0x20 DUP3 ADD SWAP1 POP PUSH2 0x41B PUSH1 0x0 DUP4 ADD DUP5 PUSH2 0x3AA JUMP JUMPDEST SWAP3 SWAP2 POP POP JUMP JUMPDEST PUSH1 0x0 PUSH1 0x20 DUP3 ADD SWAP1 POP DUP2 DUP2 SUB PUSH1 0x0 DUP4 ADD MSTORE PUSH2 0x43A DUP2 PUSH2 0x3B9 JUMP JUMPDEST SWAP1 POP SWAP2 SWAP1 POP JUMP JUMPDEST PUSH1 0x0 PUSH1 0x20 DUP3 ADD SWAP1 POP PUSH2 0x456 PUSH1 0x0 DUP4 ADD DUP5 PUSH2 0x3DC JUMP JUMPDEST SWAP3 SWAP2 POP POP JUMP JUMPDEST PUSH1 0x0 DUP3 DUP3 MSTORE PUSH1 0x20 DUP3 ADD SWAP1 POP SWAP3 SWAP2 POP POP JUMP JUMPDEST PUSH1 0x0 PUSH2 0x478 DUP3 PUSH2 0x4A4 JUMP JUMPDEST SWAP1 POP SWAP2 SWAP1 POP JUMP JUMPDEST PUSH1 0x0 PUSH2 0x48A DUP3 PUSH2 0x4A4 JUMP JUMPDEST SWAP1 POP SWAP2 SWAP1 POP JUMP JUMPDEST PUSH1 0x0 DUP2 SWAP1 POP PUSH2 0x49F DUP3 PUSH2 0x53D JUMP JUMPDEST SWAP2 SWAP1 POP JUMP JUMPDEST PUSH1 0x0 PUSH20 0xFFFFFFFFFFFFFFFFFFFFFFFFFFFFFFFFFFFFFFFF DUP3 AND SWAP1 POP SWAP2 SWAP1 POP JUMP JUMPDEST PUSH1 0x0 DUP2 SWAP1 POP SWAP2 SWAP1 POP JUMP JUMPDEST PUSH1 0x0 PUSH2 0x4D9 DUP3 PUSH2 0x491 JUMP JUMPDEST SWAP1 POP SWAP2 SWAP1 POP JUMP JUMPDEST PUSH32 0x4E487B7100000000000000000000000000000000000000000000000000000000 PUSH1 0x0 MSTORE PUSH1 0x21 PUSH1 0x4 MSTORE PUSH1 0x24 PUSH1 0x0 REVERT JUMPDEST PUSH1 0x0 DUP1 REVERT JUMPDEST PUSH32 0x4F776E65722043616E6E6F742062696400000000000000000000000000000000 PUSH1 0x0 DUP3 ADD MSTORE POP JUMP JUMPDEST PUSH1 0x4 DUP2 LT PUSH2 0x54E JUMPI PUSH2 0x54D PUSH2 0x4E0 JUMP JUMPDEST JUMPDEST POP JUMP JUMPDEST PUSH2 0x55A DUP2 PUSH2 0x46D JUMP JUMPDEST DUP2 EQ PUSH2 0x565 JUMPI PUSH1 0x0 DUP1 REVERT JUMPDEST POP JUMP INVALID LOG2 PUSH5 0x6970667358 0x22 SLT KECCAK256 0xE2 0xE2 0xC2 TIMESTAMP SWAP6 ORIGIN 0xB0 BLOCKHASH LOG0 0xB1 TIMESTAMP PUSH18 0x4AAFE124D9CE0106EA42F1395983084ED5C0 0xBD SLT PUSH5 0x736F6C6343 STOP ADDMOD SMOD STOP CALLER "
				},
				"gasEstimates": {
					"creation": {
						"codeDepositCost": "287600",
						"executionCost": "infinite",
						"totalCost": "infinite"
					},
					"external": {
						"auctionState()": "2560",
						"autioneer()": "2533",
						"bid()": "2602",
						"bid_inc()": "2517",
						"bids(address)": "2881",
						"endBlock()": "2430",
						"highest_bid()": "2495",
						"highest_bidder()": "2558",
						"highest_payable_bid()": "2518",
						"startBlock()": "2474"
					}
				},
				"methodIdentifiers": {
					"auctionState()": "7fb45099",
					"autioneer()": "b035bf60",
					"bid()": "1998aeef",
					"bid_inc()": "f3ef35f8",
					"bids(address)": "62ea82db",
					"endBlock()": "083c6323",
					"highest_bid()": "e5c60091",
					"highest_bidder()": "bd9215f4",
					"highest_payable_bid()": "7eb695a1",
					"startBlock()": "48cd4cb1"
				}
			},
			"storageLayout": {
				"storage": [
					{
						"astId": 3,
						"contract": "smartAuction.sol:smartAuction",
						"label": "autioneer",
						"offset": 0,
						"slot": "0",
						"type": "t_address_payable"
					},
					{
						"astId": 5,
						"contract": "smartAuction.sol:smartAuction",
						"label": "startBlock",
						"offset": 0,
						"slot": "1",
						"type": "t_uint256"
					},
					{
						"astId": 7,
						"contract": "smartAuction.sol:smartAuction",
						"label": "endBlock",
						"offset": 0,
						"slot": "2",
						"type": "t_uint256"
					},
					{
						"astId": 15,
						"contract": "smartAuction.sol:smartAuction",
						"label": "auctionState",
						"offset": 0,
						"slot": "3",
						"type": "t_enum(Auction_state)12"
					},
					{
						"astId": 17,
						"contract": "smartAuction.sol:smartAuction",
						"label": "highest_bid",
						"offset": 0,
						"slot": "4",
						"type": "t_uint256"
					},
					{
						"astId": 19,
						"contract": "smartAuction.sol:smartAuction",
						"label": "highest_payable_bid",
						"offset": 0,
						"slot": "5",
						"type": "t_uint256"
					},
					{
						"astId": 21,
						"contract": "smartAuction.sol:smartAuction",
						"label": "bid_inc",
						"offset": 0,
						"slot": "6",
						"type": "t_uint256"
					},
					{
						"astId": 23,
						"contract": "smartAuction.sol:smartAuction",
						"label": "highest_bidder",
						"offset": 0,
						"slot": "7",
						"type": "t_address_payable"
					},
					{
						"astId": 27,
						"contract": "smartAuction.sol:smartAuction",
						"label": "bids",
						"offset": 0,
						"slot": "8",
						"type": "t_mapping(t_address,t_uint256)"
					}
				],
				"types": {
					"t_address": {
						"encoding": "inplace",
						"label": "address",
						"numberOfBytes": "20"
					},
					"t_address_payable": {
						"encoding": "inplace",
						"label": "address payable",
						"numberOfBytes": "20"
					},
					"t_enum(Auction_state)12": {
						"encoding": "inplace",
						"label": "enum smartAuction.Auction_state",
						"numberOfBytes": "1"
					},
					"t_mapping(t_address,t_uint256)": {
						"encoding": "mapping",
						"key": "t_address",
						"label": "mapping(address => uint256)",
						"numberOfBytes": "32",
						"value": "t_uint256"
					},
					"t_uint256": {
						"encoding": "inplace",
						"label": "uint256",
						"numberOfBytes": "32"
					}
				}
			},
			"userdoc": {
				"kind": "user",
				"methods": {},
				"version": 1
			}
		}
	}
}