{
	"bytes_dataStructure,sol.sol": {
		"bytesDataStructureDene": {
			"abi": [
				{
					"inputs": [],
					"name": "setvalue",
					"outputs": [],
					"stateMutability": "nonpayable",
					"type": "function"
				},
				{
					"inputs": [],
					"name": "tem1",
					"outputs": [
						{
							"internalType": "bytes3",
							"name": "",
							"type": "bytes3"
						}
					],
					"stateMutability": "view",
					"type": "function"
				},
				{
					"inputs": [],
					"name": "tem2",
					"outputs": [
						{
							"internalType": "bytes5",
							"name": "",
							"type": "bytes5"
						}
					],
					"stateMutability": "view",
					"type": "function"
				},
				{
					"inputs": [],
					"name": "tem3",
					"outputs": [
						{
							"internalType": "bytes",
							"name": "",
							"type": "bytes"
						}
					],
					"stateMutability": "view",
					"type": "function"
				}
			],
			"devdoc": {
				"kind": "dev",
				"methods": {},
				"version": 1
			},
			"evm": {
				"assembly": "    /* \"bytes_dataStructure,sol.sol\":62:285  contract bytesDataStructureDene{... */\n  mstore(0x40, 0x80)\n  callvalue\n  dup1\n  iszero\n  tag_1\n  jumpi\n  0x00\n  dup1\n  revert\ntag_1:\n  pop\n  dataSize(sub_0)\n  dup1\n  dataOffset(sub_0)\n  0x00\n  codecopy\n  0x00\n  return\nstop\n\nsub_0: assembly {\n        /* \"bytes_dataStructure,sol.sol\":62:285  contract bytesDataStructureDene{... */\n      mstore(0x40, 0x80)\n      callvalue\n      dup1\n      iszero\n      tag_1\n      jumpi\n      0x00\n      dup1\n      revert\n    tag_1:\n      pop\n      jumpi(tag_2, lt(calldatasize, 0x04))\n      shr(0xe0, calldataload(0x00))\n      dup1\n      0x074691cc\n      eq\n      tag_3\n      jumpi\n      dup1\n      0x0f435327\n      eq\n      tag_4\n      jumpi\n      dup1\n      0x8c62d39f\n      eq\n      tag_5\n      jumpi\n      dup1\n      0xda9bbbe6\n      eq\n      tag_6\n      jumpi\n    tag_2:\n      0x00\n      dup1\n      revert\n        /* \"bytes_dataStructure,sol.sol\":174:277  function setvalue() public {... */\n    tag_3:\n      tag_7\n      tag_8\n      jump\t// in\n    tag_7:\n      stop\n        /* \"bytes_dataStructure,sol.sol\":150:167  bytes public tem3 */\n    tag_4:\n      tag_9\n      tag_10\n      jump\t// in\n    tag_9:\n      mload(0x40)\n      tag_11\n      swap2\n      swap1\n      tag_12\n      jump\t// in\n    tag_11:\n      mload(0x40)\n      dup1\n      swap2\n      sub\n      swap1\n      return\n        /* \"bytes_dataStructure,sol.sol\":125:143  bytes5 public tem2 */\n    tag_5:\n      tag_13\n      tag_14\n      jump\t// in\n    tag_13:\n      mload(0x40)\n      tag_15\n      swap2\n      swap1\n      tag_16\n      jump\t// in\n    tag_15:\n      mload(0x40)\n      dup1\n      swap2\n      sub\n      swap1\n      return\n        /* \"bytes_dataStructure,sol.sol\":100:118  bytes3 public tem1 */\n    tag_6:\n      tag_17\n      tag_18\n      jump\t// in\n    tag_17:\n      mload(0x40)\n      tag_19\n      swap2\n      swap1\n      tag_20\n      jump\t// in\n    tag_19:\n      mload(0x40)\n      dup1\n      swap2\n      sub\n      swap1\n      return\n        /* \"bytes_dataStructure,sol.sol\":174:277  function setvalue() public {... */\n    tag_8:\n        /* \"bytes_dataStructure,sol.sol\":211:223  tem1 = \"abc\" */\n      0x6162630000000000000000000000000000000000000000000000000000000000\n        /* \"bytes_dataStructure,sol.sol\":211:215  tem1 */\n      0x00\n      dup1\n        /* \"bytes_dataStructure,sol.sol\":211:223  tem1 = \"abc\" */\n      0x0100\n      exp\n      dup2\n      sload\n      dup2\n      0xffffff\n      mul\n      not\n      and\n      swap1\n      dup4\n      0xe8\n      shr\n      mul\n      or\n      swap1\n      sstore\n      pop\n        /* \"bytes_dataStructure,sol.sol\":233:247  tem2 = \"aabbc\" */\n      0x6161626263000000000000000000000000000000000000000000000000000000\n        /* \"bytes_dataStructure,sol.sol\":233:237  tem2 */\n      0x00\n      0x03\n        /* \"bytes_dataStructure,sol.sol\":233:247  tem2 = \"aabbc\" */\n      0x0100\n      exp\n      dup2\n      sload\n      dup2\n      0xffffffffff\n      mul\n      not\n      and\n      swap1\n      dup4\n      0xd8\n      shr\n      mul\n      or\n      swap1\n      sstore\n      pop\n        /* \"bytes_dataStructure,sol.sol\":257:270  tem3 = \"aaaa\" */\n      mload(0x40)\n      dup1\n      0x40\n      add\n      0x40\n      mstore\n      dup1\n      0x04\n      dup2\n      mstore\n      0x20\n      add\n      0x6161616100000000000000000000000000000000000000000000000000000000\n      dup2\n      mstore\n      pop\n        /* \"bytes_dataStructure,sol.sol\":257:261  tem3 */\n      0x01\n        /* \"bytes_dataStructure,sol.sol\":257:270  tem3 = \"aaaa\" */\n      swap1\n      dup1\n      mload\n      swap1\n      0x20\n      add\n      swap1\n      tag_22\n      swap3\n      swap2\n      swap1\n      tag_23\n      jump\t// in\n    tag_22:\n      pop\n        /* \"bytes_dataStructure,sol.sol\":174:277  function setvalue() public {... */\n      jump\t// out\n        /* \"bytes_dataStructure,sol.sol\":150:167  bytes public tem3 */\n    tag_10:\n      0x01\n      dup1\n      sload\n      tag_24\n      swap1\n      tag_25\n      jump\t// in\n    tag_24:\n      dup1\n      0x1f\n      add\n      0x20\n      dup1\n      swap2\n      div\n      mul\n      0x20\n      add\n      mload(0x40)\n      swap1\n      dup2\n      add\n      0x40\n      mstore\n      dup1\n      swap3\n      swap2\n      swap1\n      dup2\n      dup2\n      mstore\n      0x20\n      add\n      dup3\n      dup1\n      sload\n      tag_26\n      swap1\n      tag_25\n      jump\t// in\n    tag_26:\n      dup1\n      iszero\n      tag_27\n      jumpi\n      dup1\n      0x1f\n      lt\n      tag_28\n      jumpi\n      0x0100\n      dup1\n      dup4\n      sload\n      div\n      mul\n      dup4\n      mstore\n      swap2\n      0x20\n      add\n      swap2\n      jump(tag_27)\n    tag_28:\n      dup3\n      add\n      swap2\n      swap1\n      0x00\n      mstore\n      keccak256(0x00, 0x20)\n      swap1\n    tag_29:\n      dup2\n      sload\n      dup2\n      mstore\n      swap1\n      0x01\n      add\n      swap1\n      0x20\n      add\n      dup1\n      dup4\n      gt\n      tag_29\n      jumpi\n      dup3\n      swap1\n      sub\n      0x1f\n      and\n      dup3\n      add\n      swap2\n    tag_27:\n      pop\n      pop\n      pop\n      pop\n      pop\n      dup2\n      jump\t// out\n        /* \"bytes_dataStructure,sol.sol\":125:143  bytes5 public tem2 */\n    tag_14:\n      0x00\n      0x03\n      swap1\n      sload\n      swap1\n      0x0100\n      exp\n      swap1\n      div\n      0xd8\n      shl\n      dup2\n      jump\t// out\n        /* \"bytes_dataStructure,sol.sol\":100:118  bytes3 public tem1 */\n    tag_18:\n      0x00\n      dup1\n      sload\n      swap1\n      0x0100\n      exp\n      swap1\n      div\n      0xe8\n      shl\n      dup2\n      jump\t// out\n    tag_23:\n      dup3\n      dup1\n      sload\n      tag_30\n      swap1\n      tag_25\n      jump\t// in\n    tag_30:\n      swap1\n      0x00\n      mstore\n      keccak256(0x00, 0x20)\n      swap1\n      0x1f\n      add\n      0x20\n      swap1\n      div\n      dup2\n      add\n      swap3\n      dup3\n      tag_32\n      jumpi\n      0x00\n      dup6\n      sstore\n      jump(tag_31)\n    tag_32:\n      dup3\n      0x1f\n      lt\n      tag_33\n      jumpi\n      dup1\n      mload\n      not(0xff)\n      and\n      dup4\n      dup1\n      add\n      or\n      dup6\n      sstore\n      jump(tag_31)\n    tag_33:\n      dup3\n      dup1\n      add\n      0x01\n      add\n      dup6\n      sstore\n      dup3\n      iszero\n      tag_31\n      jumpi\n      swap2\n      dup3\n      add\n    tag_34:\n      dup3\n      dup2\n      gt\n      iszero\n      tag_35\n      jumpi\n      dup3\n      mload\n      dup3\n      sstore\n      swap2\n      0x20\n      add\n      swap2\n      swap1\n      0x01\n      add\n      swap1\n      jump(tag_34)\n    tag_35:\n    tag_31:\n      pop\n      swap1\n      pop\n      tag_36\n      swap2\n      swap1\n      tag_37\n      jump\t// in\n    tag_36:\n      pop\n      swap1\n      jump\t// out\n    tag_37:\n    tag_38:\n      dup1\n      dup3\n      gt\n      iszero\n      tag_39\n      jumpi\n      0x00\n      dup2\n      0x00\n      swap1\n      sstore\n      pop\n      0x01\n      add\n      jump(tag_38)\n    tag_39:\n      pop\n      swap1\n      jump\t// out\n        /* \"#utility.yul\":7:122   */\n    tag_41:\n        /* \"#utility.yul\":92:115   */\n      tag_43\n        /* \"#utility.yul\":109:114   */\n      dup2\n        /* \"#utility.yul\":92:115   */\n      tag_44\n      jump\t// in\n    tag_43:\n        /* \"#utility.yul\":87:90   */\n      dup3\n        /* \"#utility.yul\":80:116   */\n      mstore\n        /* \"#utility.yul\":7:122   */\n      pop\n      pop\n      jump\t// out\n        /* \"#utility.yul\":128:243   */\n    tag_45:\n        /* \"#utility.yul\":213:236   */\n      tag_47\n        /* \"#utility.yul\":230:235   */\n      dup2\n        /* \"#utility.yul\":213:236   */\n      tag_48\n      jump\t// in\n    tag_47:\n        /* \"#utility.yul\":208:211   */\n      dup3\n        /* \"#utility.yul\":201:237   */\n      mstore\n        /* \"#utility.yul\":128:243   */\n      pop\n      pop\n      jump\t// out\n        /* \"#utility.yul\":249:609   */\n    tag_49:\n        /* \"#utility.yul\":335:338   */\n      0x00\n        /* \"#utility.yul\":363:401   */\n      tag_51\n        /* \"#utility.yul\":395:400   */\n      dup3\n        /* \"#utility.yul\":363:401   */\n      tag_52\n      jump\t// in\n    tag_51:\n        /* \"#utility.yul\":417:487   */\n      tag_53\n        /* \"#utility.yul\":480:486   */\n      dup2\n        /* \"#utility.yul\":475:478   */\n      dup6\n        /* \"#utility.yul\":417:487   */\n      tag_54\n      jump\t// in\n    tag_53:\n        /* \"#utility.yul\":410:487   */\n      swap4\n      pop\n        /* \"#utility.yul\":496:548   */\n      tag_55\n        /* \"#utility.yul\":541:547   */\n      dup2\n        /* \"#utility.yul\":536:539   */\n      dup6\n        /* \"#utility.yul\":529:533   */\n      0x20\n        /* \"#utility.yul\":522:527   */\n      dup7\n        /* \"#utility.yul\":518:534   */\n      add\n        /* \"#utility.yul\":496:548   */\n      tag_56\n      jump\t// in\n    tag_55:\n        /* \"#utility.yul\":573:602   */\n      tag_57\n        /* \"#utility.yul\":595:601   */\n      dup2\n        /* \"#utility.yul\":573:602   */\n      tag_58\n      jump\t// in\n    tag_57:\n        /* \"#utility.yul\":568:571   */\n      dup5\n        /* \"#utility.yul\":564:603   */\n      add\n        /* \"#utility.yul\":557:603   */\n      swap2\n      pop\n        /* \"#utility.yul\":339:609   */\n      pop\n        /* \"#utility.yul\":249:609   */\n      swap3\n      swap2\n      pop\n      pop\n      jump\t// out\n        /* \"#utility.yul\":615:833   */\n    tag_20:\n        /* \"#utility.yul\":706:710   */\n      0x00\n        /* \"#utility.yul\":744:746   */\n      0x20\n        /* \"#utility.yul\":733:742   */\n      dup3\n        /* \"#utility.yul\":729:747   */\n      add\n        /* \"#utility.yul\":721:747   */\n      swap1\n      pop\n        /* \"#utility.yul\":757:826   */\n      tag_60\n        /* \"#utility.yul\":823:824   */\n      0x00\n        /* \"#utility.yul\":812:821   */\n      dup4\n        /* \"#utility.yul\":808:825   */\n      add\n        /* \"#utility.yul\":799:805   */\n      dup5\n        /* \"#utility.yul\":757:826   */\n      tag_41\n      jump\t// in\n    tag_60:\n        /* \"#utility.yul\":615:833   */\n      swap3\n      swap2\n      pop\n      pop\n      jump\t// out\n        /* \"#utility.yul\":839:1057   */\n    tag_16:\n        /* \"#utility.yul\":930:934   */\n      0x00\n        /* \"#utility.yul\":968:970   */\n      0x20\n        /* \"#utility.yul\":957:966   */\n      dup3\n        /* \"#utility.yul\":953:971   */\n      add\n        /* \"#utility.yul\":945:971   */\n      swap1\n      pop\n        /* \"#utility.yul\":981:1050   */\n      tag_62\n        /* \"#utility.yul\":1047:1048   */\n      0x00\n        /* \"#utility.yul\":1036:1045   */\n      dup4\n        /* \"#utility.yul\":1032:1049   */\n      add\n        /* \"#utility.yul\":1023:1029   */\n      dup5\n        /* \"#utility.yul\":981:1050   */\n      tag_45\n      jump\t// in\n    tag_62:\n        /* \"#utility.yul\":839:1057   */\n      swap3\n      swap2\n      pop\n      pop\n      jump\t// out\n        /* \"#utility.yul\":1063:1372   */\n    tag_12:\n        /* \"#utility.yul\":1174:1178   */\n      0x00\n        /* \"#utility.yul\":1212:1214   */\n      0x20\n        /* \"#utility.yul\":1201:1210   */\n      dup3\n        /* \"#utility.yul\":1197:1215   */\n      add\n        /* \"#utility.yul\":1189:1215   */\n      swap1\n      pop\n        /* \"#utility.yul\":1261:1270   */\n      dup2\n        /* \"#utility.yul\":1255:1259   */\n      dup2\n        /* \"#utility.yul\":1251:1271   */\n      sub\n        /* \"#utility.yul\":1247:1248   */\n      0x00\n        /* \"#utility.yul\":1236:1245   */\n      dup4\n        /* \"#utility.yul\":1232:1249   */\n      add\n        /* \"#utility.yul\":1225:1272   */\n      mstore\n        /* \"#utility.yul\":1289:1365   */\n      tag_64\n        /* \"#utility.yul\":1360:1364   */\n      dup2\n        /* \"#utility.yul\":1351:1357   */\n      dup5\n        /* \"#utility.yul\":1289:1365   */\n      tag_49\n      jump\t// in\n    tag_64:\n        /* \"#utility.yul\":1281:1365   */\n      swap1\n      pop\n        /* \"#utility.yul\":1063:1372   */\n      swap3\n      swap2\n      pop\n      pop\n      jump\t// out\n        /* \"#utility.yul\":1378:1476   */\n    tag_52:\n        /* \"#utility.yul\":1429:1435   */\n      0x00\n        /* \"#utility.yul\":1463:1468   */\n      dup2\n        /* \"#utility.yul\":1457:1469   */\n      mload\n        /* \"#utility.yul\":1447:1469   */\n      swap1\n      pop\n        /* \"#utility.yul\":1378:1476   */\n      swap2\n      swap1\n      pop\n      jump\t// out\n        /* \"#utility.yul\":1482:1650   */\n    tag_54:\n        /* \"#utility.yul\":1565:1576   */\n      0x00\n        /* \"#utility.yul\":1599:1605   */\n      dup3\n        /* \"#utility.yul\":1594:1597   */\n      dup3\n        /* \"#utility.yul\":1587:1606   */\n      mstore\n        /* \"#utility.yul\":1639:1643   */\n      0x20\n        /* \"#utility.yul\":1634:1637   */\n      dup3\n        /* \"#utility.yul\":1630:1644   */\n      add\n        /* \"#utility.yul\":1615:1644   */\n      swap1\n      pop\n        /* \"#utility.yul\":1482:1650   */\n      swap3\n      swap2\n      pop\n      pop\n      jump\t// out\n        /* \"#utility.yul\":1656:1805   */\n    tag_44:\n        /* \"#utility.yul\":1692:1699   */\n      0x00\n        /* \"#utility.yul\":1732:1798   */\n      0xffffff0000000000000000000000000000000000000000000000000000000000\n        /* \"#utility.yul\":1725:1730   */\n      dup3\n        /* \"#utility.yul\":1721:1799   */\n      and\n        /* \"#utility.yul\":1710:1799   */\n      swap1\n      pop\n        /* \"#utility.yul\":1656:1805   */\n      swap2\n      swap1\n      pop\n      jump\t// out\n        /* \"#utility.yul\":1811:1960   */\n    tag_48:\n        /* \"#utility.yul\":1847:1854   */\n      0x00\n        /* \"#utility.yul\":1887:1953   */\n      0xffffffffff000000000000000000000000000000000000000000000000000000\n        /* \"#utility.yul\":1880:1885   */\n      dup3\n        /* \"#utility.yul\":1876:1954   */\n      and\n        /* \"#utility.yul\":1865:1954   */\n      swap1\n      pop\n        /* \"#utility.yul\":1811:1960   */\n      swap2\n      swap1\n      pop\n      jump\t// out\n        /* \"#utility.yul\":1966:2273   */\n    tag_56:\n        /* \"#utility.yul\":2034:2035   */\n      0x00\n        /* \"#utility.yul\":2044:2157   */\n    tag_70:\n        /* \"#utility.yul\":2058:2064   */\n      dup4\n        /* \"#utility.yul\":2055:2056   */\n      dup2\n        /* \"#utility.yul\":2052:2065   */\n      lt\n        /* \"#utility.yul\":2044:2157   */\n      iszero\n      tag_72\n      jumpi\n        /* \"#utility.yul\":2143:2144   */\n      dup1\n        /* \"#utility.yul\":2138:2141   */\n      dup3\n        /* \"#utility.yul\":2134:2145   */\n      add\n        /* \"#utility.yul\":2128:2146   */\n      mload\n        /* \"#utility.yul\":2124:2125   */\n      dup2\n        /* \"#utility.yul\":2119:2122   */\n      dup5\n        /* \"#utility.yul\":2115:2126   */\n      add\n        /* \"#utility.yul\":2108:2147   */\n      mstore\n        /* \"#utility.yul\":2080:2082   */\n      0x20\n        /* \"#utility.yul\":2077:2078   */\n      dup2\n        /* \"#utility.yul\":2073:2083   */\n      add\n        /* \"#utility.yul\":2068:2083   */\n      swap1\n      pop\n        /* \"#utility.yul\":2044:2157   */\n      jump(tag_70)\n    tag_72:\n        /* \"#utility.yul\":2175:2181   */\n      dup4\n        /* \"#utility.yul\":2172:2173   */\n      dup2\n        /* \"#utility.yul\":2169:2182   */\n      gt\n        /* \"#utility.yul\":2166:2267   */\n      iszero\n      tag_73\n      jumpi\n        /* \"#utility.yul\":2255:2256   */\n      0x00\n        /* \"#utility.yul\":2246:2252   */\n      dup5\n        /* \"#utility.yul\":2241:2244   */\n      dup5\n        /* \"#utility.yul\":2237:2253   */\n      add\n        /* \"#utility.yul\":2230:2257   */\n      mstore\n        /* \"#utility.yul\":2166:2267   */\n    tag_73:\n        /* \"#utility.yul\":2015:2273   */\n      pop\n        /* \"#utility.yul\":1966:2273   */\n      pop\n      pop\n      pop\n      jump\t// out\n        /* \"#utility.yul\":2279:2599   */\n    tag_25:\n        /* \"#utility.yul\":2323:2329   */\n      0x00\n        /* \"#utility.yul\":2360:2361   */\n      0x02\n        /* \"#utility.yul\":2354:2358   */\n      dup3\n        /* \"#utility.yul\":2350:2362   */\n      div\n        /* \"#utility.yul\":2340:2362   */\n      swap1\n      pop\n        /* \"#utility.yul\":2407:2408   */\n      0x01\n        /* \"#utility.yul\":2401:2405   */\n      dup3\n        /* \"#utility.yul\":2397:2409   */\n      and\n        /* \"#utility.yul\":2428:2446   */\n      dup1\n        /* \"#utility.yul\":2418:2499   */\n      tag_75\n      jumpi\n        /* \"#utility.yul\":2484:2488   */\n      0x7f\n        /* \"#utility.yul\":2476:2482   */\n      dup3\n        /* \"#utility.yul\":2472:2489   */\n      and\n        /* \"#utility.yul\":2462:2489   */\n      swap2\n      pop\n        /* \"#utility.yul\":2418:2499   */\n    tag_75:\n        /* \"#utility.yul\":2546:2548   */\n      0x20\n        /* \"#utility.yul\":2538:2544   */\n      dup3\n        /* \"#utility.yul\":2535:2549   */\n      lt\n        /* \"#utility.yul\":2515:2533   */\n      dup2\n        /* \"#utility.yul\":2512:2550   */\n      eq\n        /* \"#utility.yul\":2509:2593   */\n      iszero\n      tag_76\n      jumpi\n        /* \"#utility.yul\":2565:2583   */\n      tag_77\n      tag_78\n      jump\t// in\n    tag_77:\n        /* \"#utility.yul\":2509:2593   */\n    tag_76:\n        /* \"#utility.yul\":2330:2599   */\n      pop\n        /* \"#utility.yul\":2279:2599   */\n      swap2\n      swap1\n      pop\n      jump\t// out\n        /* \"#utility.yul\":2605:2785   */\n    tag_78:\n        /* \"#utility.yul\":2653:2730   */\n      0x4e487b7100000000000000000000000000000000000000000000000000000000\n        /* \"#utility.yul\":2650:2651   */\n      0x00\n        /* \"#utility.yul\":2643:2731   */\n      mstore\n        /* \"#utility.yul\":2750:2754   */\n      0x22\n        /* \"#utility.yul\":2747:2748   */\n      0x04\n        /* \"#utility.yul\":2740:2755   */\n      mstore\n        /* \"#utility.yul\":2774:2778   */\n      0x24\n        /* \"#utility.yul\":2771:2772   */\n      0x00\n        /* \"#utility.yul\":2764:2779   */\n      revert\n        /* \"#utility.yul\":2791:2893   */\n    tag_58:\n        /* \"#utility.yul\":2832:2838   */\n      0x00\n        /* \"#utility.yul\":2883:2885   */\n      0x1f\n        /* \"#utility.yul\":2879:2886   */\n      not\n        /* \"#utility.yul\":2874:2876   */\n      0x1f\n        /* \"#utility.yul\":2867:2872   */\n      dup4\n        /* \"#utility.yul\":2863:2877   */\n      add\n        /* \"#utility.yul\":2859:2887   */\n      and\n        /* \"#utility.yul\":2849:2887   */\n      swap1\n      pop\n        /* \"#utility.yul\":2791:2893   */\n      swap2\n      swap1\n      pop\n      jump\t// out\n\n    auxdata: 0xa2646970667358221220da3f74b43248ee8e242e5f42ddcc5f2293868a3fe210f4fadc43c318e97d0d2c64736f6c63430008070033\n}\n",
				"bytecode": {
					"linkReferences": {},
					"object": "608060405234801561001057600080fd5b506104d1806100206000396000f3fe608060405234801561001057600080fd5b506004361061004c5760003560e01c8063074691cc146100515780630f4353271461005b5780638c62d39f14610079578063da9bbbe614610097575b600080fd5b6100596100b5565b005b61006361017e565b6040516100709190610360565b60405180910390f35b61008161020c565b60405161008e9190610345565b60405180910390f35b61009f61021f565b6040516100ac919061032a565b60405180910390f35b7f61626300000000000000000000000000000000000000000000000000000000006000806101000a81548162ffffff021916908360e81c02179055507f6161626263000000000000000000000000000000000000000000000000000000600060036101000a81548164ffffffffff021916908360d81c02179055506040518060400160405280600481526020017f61616161000000000000000000000000000000000000000000000000000000008152506001908051906020019061017b929190610230565b50565b6001805461018b90610429565b80601f01602080910402602001604051908101604052809291908181526020018280546101b790610429565b80156102045780601f106101d957610100808354040283529160200191610204565b820191906000526020600020905b8154815290600101906020018083116101e757829003601f168201915b505050505081565b600060039054906101000a900460d81b81565b60008054906101000a900460e81b81565b82805461023c90610429565b90600052602060002090601f01602090048101928261025e57600085556102a5565b82601f1061027757805160ff19168380011785556102a5565b828001600101855582156102a5579182015b828111156102a4578251825591602001919060010190610289565b5b5090506102b291906102b6565b5090565b5b808211156102cf5760008160009055506001016102b7565b5090565b6102dc8161039e565b82525050565b6102eb816103ca565b82525050565b60006102fc82610382565b610306818561038d565b93506103168185602086016103f6565b61031f8161048a565b840191505092915050565b600060208201905061033f60008301846102d3565b92915050565b600060208201905061035a60008301846102e2565b92915050565b6000602082019050818103600083015261037a81846102f1565b905092915050565b600081519050919050565b600082825260208201905092915050565b60007fffffff000000000000000000000000000000000000000000000000000000000082169050919050565b60007fffffffffff00000000000000000000000000000000000000000000000000000082169050919050565b60005b838110156104145780820151818401526020810190506103f9565b83811115610423576000848401525b50505050565b6000600282049050600182168061044157607f821691505b602082108114156104555761045461045b565b5b50919050565b7f4e487b7100000000000000000000000000000000000000000000000000000000600052602260045260246000fd5b6000601f19601f830116905091905056fea2646970667358221220da3f74b43248ee8e242e5f42ddcc5f2293868a3fe210f4fadc43c318e97d0d2c64736f6c63430008070033",
					"opcodes": "PUSH1 0x80 PUSH1 0x40 MSTORE CALLVALUE DUP1 ISZERO PUSH2 0x10 JUMPI PUSH1 0x0 DUP1 REVERT JUMPDEST POP PUSH2 0x4D1 DUP1 PUSH2 0x20 PUSH1 0x0 CODECOPY PUSH1 0x0 RETURN INVALID PUSH1 0x80 PUSH1 0x40 MSTORE CALLVALUE DUP1 ISZERO PUSH2 0x10 JUMPI PUSH1 0x0 DUP1 REVERT JUMPDEST POP PUSH1 0x4 CALLDATASIZE LT PUSH2 0x4C JUMPI PUSH1 0x0 CALLDATALOAD PUSH1 0xE0 SHR DUP1 PUSH4 0x74691CC EQ PUSH2 0x51 JUMPI DUP1 PUSH4 0xF435327 EQ PUSH2 0x5B JUMPI DUP1 PUSH4 0x8C62D39F EQ PUSH2 0x79 JUMPI DUP1 PUSH4 0xDA9BBBE6 EQ PUSH2 0x97 JUMPI JUMPDEST PUSH1 0x0 DUP1 REVERT JUMPDEST PUSH2 0x59 PUSH2 0xB5 JUMP JUMPDEST STOP JUMPDEST PUSH2 0x63 PUSH2 0x17E JUMP JUMPDEST PUSH1 0x40 MLOAD PUSH2 0x70 SWAP2 SWAP1 PUSH2 0x360 JUMP JUMPDEST PUSH1 0x40 MLOAD DUP1 SWAP2 SUB SWAP1 RETURN JUMPDEST PUSH2 0x81 PUSH2 0x20C JUMP JUMPDEST PUSH1 0x40 MLOAD PUSH2 0x8E SWAP2 SWAP1 PUSH2 0x345 JUMP JUMPDEST PUSH1 0x40 MLOAD DUP1 SWAP2 SUB SWAP1 RETURN JUMPDEST PUSH2 0x9F PUSH2 0x21F JUMP JUMPDEST PUSH1 0x40 MLOAD PUSH2 0xAC SWAP2 SWAP1 PUSH2 0x32A JUMP JUMPDEST PUSH1 0x40 MLOAD DUP1 SWAP2 SUB SWAP1 RETURN JUMPDEST PUSH32 0x6162630000000000000000000000000000000000000000000000000000000000 PUSH1 0x0 DUP1 PUSH2 0x100 EXP DUP2 SLOAD DUP2 PUSH3 0xFFFFFF MUL NOT AND SWAP1 DUP4 PUSH1 0xE8 SHR MUL OR SWAP1 SSTORE POP PUSH32 0x6161626263000000000000000000000000000000000000000000000000000000 PUSH1 0x0 PUSH1 0x3 PUSH2 0x100 EXP DUP2 SLOAD DUP2 PUSH5 0xFFFFFFFFFF MUL NOT AND SWAP1 DUP4 PUSH1 0xD8 SHR MUL OR SWAP1 SSTORE POP PUSH1 0x40 MLOAD DUP1 PUSH1 0x40 ADD PUSH1 0x40 MSTORE DUP1 PUSH1 0x4 DUP2 MSTORE PUSH1 0x20 ADD PUSH32 0x6161616100000000000000000000000000000000000000000000000000000000 DUP2 MSTORE POP PUSH1 0x1 SWAP1 DUP1 MLOAD SWAP1 PUSH1 0x20 ADD SWAP1 PUSH2 0x17B SWAP3 SWAP2 SWAP1 PUSH2 0x230 JUMP JUMPDEST POP JUMP JUMPDEST PUSH1 0x1 DUP1 SLOAD PUSH2 0x18B SWAP1 PUSH2 0x429 JUMP JUMPDEST DUP1 PUSH1 0x1F ADD PUSH1 0x20 DUP1 SWAP2 DIV MUL PUSH1 0x20 ADD PUSH1 0x40 MLOAD SWAP1 DUP2 ADD PUSH1 0x40 MSTORE DUP1 SWAP3 SWAP2 SWAP1 DUP2 DUP2 MSTORE PUSH1 0x20 ADD DUP3 DUP1 SLOAD PUSH2 0x1B7 SWAP1 PUSH2 0x429 JUMP JUMPDEST DUP1 ISZERO PUSH2 0x204 JUMPI DUP1 PUSH1 0x1F LT PUSH2 0x1D9 JUMPI PUSH2 0x100 DUP1 DUP4 SLOAD DIV MUL DUP4 MSTORE SWAP2 PUSH1 0x20 ADD SWAP2 PUSH2 0x204 JUMP JUMPDEST DUP3 ADD SWAP2 SWAP1 PUSH1 0x0 MSTORE PUSH1 0x20 PUSH1 0x0 KECCAK256 SWAP1 JUMPDEST DUP2 SLOAD DUP2 MSTORE SWAP1 PUSH1 0x1 ADD SWAP1 PUSH1 0x20 ADD DUP1 DUP4 GT PUSH2 0x1E7 JUMPI DUP3 SWAP1 SUB PUSH1 0x1F AND DUP3 ADD SWAP2 JUMPDEST POP POP POP POP POP DUP2 JUMP JUMPDEST PUSH1 0x0 PUSH1 0x3 SWAP1 SLOAD SWAP1 PUSH2 0x100 EXP SWAP1 DIV PUSH1 0xD8 SHL DUP2 JUMP JUMPDEST PUSH1 0x0 DUP1 SLOAD SWAP1 PUSH2 0x100 EXP SWAP1 DIV PUSH1 0xE8 SHL DUP2 JUMP JUMPDEST DUP3 DUP1 SLOAD PUSH2 0x23C SWAP1 PUSH2 0x429 JUMP JUMPDEST SWAP1 PUSH1 0x0 MSTORE PUSH1 0x20 PUSH1 0x0 KECCAK256 SWAP1 PUSH1 0x1F ADD PUSH1 0x20 SWAP1 DIV DUP2 ADD SWAP3 DUP3 PUSH2 0x25E JUMPI PUSH1 0x0 DUP6 SSTORE PUSH2 0x2A5 JUMP JUMPDEST DUP3 PUSH1 0x1F LT PUSH2 0x277 JUMPI DUP1 MLOAD PUSH1 0xFF NOT AND DUP4 DUP1 ADD OR DUP6 SSTORE PUSH2 0x2A5 JUMP JUMPDEST DUP3 DUP1 ADD PUSH1 0x1 ADD DUP6 SSTORE DUP3 ISZERO PUSH2 0x2A5 JUMPI SWAP2 DUP3 ADD JUMPDEST DUP3 DUP2 GT ISZERO PUSH2 0x2A4 JUMPI DUP3 MLOAD DUP3 SSTORE SWAP2 PUSH1 0x20 ADD SWAP2 SWAP1 PUSH1 0x1 ADD SWAP1 PUSH2 0x289 JUMP JUMPDEST JUMPDEST POP SWAP1 POP PUSH2 0x2B2 SWAP2 SWAP1 PUSH2 0x2B6 JUMP JUMPDEST POP SWAP1 JUMP JUMPDEST JUMPDEST DUP1 DUP3 GT ISZERO PUSH2 0x2CF JUMPI PUSH1 0x0 DUP2 PUSH1 0x0 SWAP1 SSTORE POP PUSH1 0x1 ADD PUSH2 0x2B7 JUMP JUMPDEST POP SWAP1 JUMP JUMPDEST PUSH2 0x2DC DUP2 PUSH2 0x39E JUMP JUMPDEST DUP3 MSTORE POP POP JUMP JUMPDEST PUSH2 0x2EB DUP2 PUSH2 0x3CA JUMP JUMPDEST DUP3 MSTORE POP POP JUMP JUMPDEST PUSH1 0x0 PUSH2 0x2FC DUP3 PUSH2 0x382 JUMP JUMPDEST PUSH2 0x306 DUP2 DUP6 PUSH2 0x38D JUMP JUMPDEST SWAP4 POP PUSH2 0x316 DUP2 DUP6 PUSH1 0x20 DUP7 ADD PUSH2 0x3F6 JUMP JUMPDEST PUSH2 0x31F DUP2 PUSH2 0x48A JUMP JUMPDEST DUP5 ADD SWAP2 POP POP SWAP3 SWAP2 POP POP JUMP JUMPDEST PUSH1 0x0 PUSH1 0x20 DUP3 ADD SWAP1 POP PUSH2 0x33F PUSH1 0x0 DUP4 ADD DUP5 PUSH2 0x2D3 JUMP JUMPDEST SWAP3 SWAP2 POP POP JUMP JUMPDEST PUSH1 0x0 PUSH1 0x20 DUP3 ADD SWAP1 POP PUSH2 0x35A PUSH1 0x0 DUP4 ADD DUP5 PUSH2 0x2E2 JUMP JUMPDEST SWAP3 SWAP2 POP POP JUMP JUMPDEST PUSH1 0x0 PUSH1 0x20 DUP3 ADD SWAP1 POP DUP2 DUP2 SUB PUSH1 0x0 DUP4 ADD MSTORE PUSH2 0x37A DUP2 DUP5 PUSH2 0x2F1 JUMP JUMPDEST SWAP1 POP SWAP3 SWAP2 POP POP JUMP JUMPDEST PUSH1 0x0 DUP2 MLOAD SWAP1 POP SWAP2 SWAP1 POP JUMP JUMPDEST PUSH1 0x0 DUP3 DUP3 MSTORE PUSH1 0x20 DUP3 ADD SWAP1 POP SWAP3 SWAP2 POP POP JUMP JUMPDEST PUSH1 0x0 PUSH32 0xFFFFFF0000000000000000000000000000000000000000000000000000000000 DUP3 AND SWAP1 POP SWAP2 SWAP1 POP JUMP JUMPDEST PUSH1 0x0 PUSH32 0xFFFFFFFFFF000000000000000000000000000000000000000000000000000000 DUP3 AND SWAP1 POP SWAP2 SWAP1 POP JUMP JUMPDEST PUSH1 0x0 JUMPDEST DUP4 DUP2 LT ISZERO PUSH2 0x414 JUMPI DUP1 DUP3 ADD MLOAD DUP2 DUP5 ADD MSTORE PUSH1 0x20 DUP2 ADD SWAP1 POP PUSH2 0x3F9 JUMP JUMPDEST DUP4 DUP2 GT ISZERO PUSH2 0x423 JUMPI PUSH1 0x0 DUP5 DUP5 ADD MSTORE JUMPDEST POP POP POP POP JUMP JUMPDEST PUSH1 0x0 PUSH1 0x2 DUP3 DIV SWAP1 POP PUSH1 0x1 DUP3 AND DUP1 PUSH2 0x441 JUMPI PUSH1 0x7F DUP3 AND SWAP2 POP JUMPDEST PUSH1 0x20 DUP3 LT DUP2 EQ ISZERO PUSH2 0x455 JUMPI PUSH2 0x454 PUSH2 0x45B JUMP JUMPDEST JUMPDEST POP SWAP2 SWAP1 POP JUMP JUMPDEST PUSH32 0x4E487B7100000000000000000000000000000000000000000000000000000000 PUSH1 0x0 MSTORE PUSH1 0x22 PUSH1 0x4 MSTORE PUSH1 0x24 PUSH1 0x0 REVERT JUMPDEST PUSH1 0x0 PUSH1 0x1F NOT PUSH1 0x1F DUP4 ADD AND SWAP1 POP SWAP2 SWAP1 POP JUMP INVALID LOG2 PUSH5 0x6970667358 0x22 SLT KECCAK256 0xDA EXTCODEHASH PUSH21 0xB43248EE8E242E5F42DDCC5F2293868A3FE210F4FA 0xDC NUMBER 0xC3 XOR 0xE9 PUSH30 0xD2C64736F6C634300080700330000000000000000000000000000000000 "
				},
				"gasEstimates": {
					"creation": {
						"codeDepositCost": "246600",
						"executionCost": "287",
						"totalCost": "246887"
					},
					"external": {
						"setvalue()": "infinite",
						"tem1()": "2512",
						"tem2()": "2543",
						"tem3()": "infinite"
					}
				},
				"methodIdentifiers": {
					"setvalue()": "074691cc",
					"tem1()": "da9bbbe6",
					"tem2()": "8c62d39f",
					"tem3()": "0f435327"
				}
			},
			"storageLayout": {
				"storage": [
					{
						"astId": 3,
						"contract": "bytes_dataStructure,sol.sol:bytesDataStructureDene",
						"label": "tem1",
						"offset": 0,
						"slot": "0",
						"type": "t_bytes3"
					},
					{
						"astId": 5,
						"contract": "bytes_dataStructure,sol.sol:bytesDataStructureDene",
						"label": "tem2",
						"offset": 3,
						"slot": "0",
						"type": "t_bytes5"
					},
					{
						"astId": 7,
						"contract": "bytes_dataStructure,sol.sol:bytesDataStructureDene",
						"label": "tem3",
						"offset": 0,
						"slot": "1",
						"type": "t_bytes_storage"
					}
				],
				"types": {
					"t_bytes3": {
						"encoding": "inplace",
						"label": "bytes3",
						"numberOfBytes": "3"
					},
					"t_bytes5": {
						"encoding": "inplace",
						"label": "bytes5",
						"numberOfBytes": "5"
					},
					"t_bytes_storage": {
						"encoding": "bytes",
						"label": "bytes",
						"numberOfBytes": "32"
					}
				}
			},
			"userdoc": {
				"kind": "user",
				"methods": {},
				"version": 1
			}
		}
	}
}