{
	"send_eth.sol": {
		"sendETH": {
			"abi": [
				{
					"inputs": [
						{
							"internalType": "address payable",
							"name": "getter",
							"type": "address"
						}
					],
					"name": "CALL",
					"outputs": [],
					"stateMutability": "nonpayable",
					"type": "function"
				},
				{
					"inputs": [
						{
							"internalType": "address payable",
							"name": "getter",
							"type": "address"
						}
					],
					"name": "SEND",
					"outputs": [],
					"stateMutability": "payable",
					"type": "function"
				},
				{
					"inputs": [
						{
							"internalType": "address payable",
							"name": "getter",
							"type": "address"
						}
					],
					"name": "TRANSFER",
					"outputs": [],
					"stateMutability": "nonpayable",
					"type": "function"
				},
				{
					"inputs": [],
					"name": "checkBalance",
					"outputs": [
						{
							"internalType": "uint256",
							"name": "",
							"type": "uint256"
						}
					],
					"stateMutability": "view",
					"type": "function"
				},
				{
					"stateMutability": "payable",
					"type": "receive"
				}
			],
			"devdoc": {
				"kind": "dev",
				"methods": {},
				"version": 1
			},
			"evm": {
				"assembly": "    /* \"send_eth.sol\":411:1342  contract sendETH{... */\n  mstore(0x40, 0x80)\n  callvalue\n  dup1\n  iszero\n  tag_1\n  jumpi\n  0x00\n  dup1\n  revert\ntag_1:\n  pop\n  dataSize(sub_0)\n  dup1\n  dataOffset(sub_0)\n  0x00\n  codecopy\n  0x00\n  return\nstop\n\nsub_0: assembly {\n        /* \"send_eth.sol\":411:1342  contract sendETH{... */\n      mstore(0x40, 0x80)\n      jumpi(tag_1, lt(calldatasize, 0x04))\n      shr(0xe0, calldataload(0x00))\n      dup1\n      0x9cb4ddd0\n      eq\n      tag_3\n      jumpi\n      dup1\n      0xaf075e0c\n      eq\n      tag_4\n      jumpi\n      dup1\n      0xb206494b\n      eq\n      tag_5\n      jumpi\n      dup1\n      0xc71daccb\n      eq\n      tag_6\n      jumpi\n      jump(tag_2)\n    tag_1:\n      jumpi(tag_2, calldatasize)\n      stop\n    tag_2:\n      0x00\n      dup1\n      revert\n        /* \"send_eth.sol\":880:981  function TRANSFER(address payable getter) public{... */\n    tag_3:\n      callvalue\n      dup1\n      iszero\n      tag_9\n      jumpi\n      0x00\n      dup1\n      revert\n    tag_9:\n      pop\n      tag_10\n      0x04\n      dup1\n      calldatasize\n      sub\n      dup2\n      add\n      swap1\n      tag_11\n      swap2\n      swap1\n      tag_12\n      jump\t// in\n    tag_11:\n      tag_13\n      jump\t// in\n    tag_10:\n      stop\n        /* \"send_eth.sol\":669:874  function SEND(address payable getter) public payable{... */\n    tag_4:\n      tag_14\n      0x04\n      dup1\n      calldatasize\n      sub\n      dup2\n      add\n      swap1\n      tag_15\n      swap2\n      swap1\n      tag_12\n      jump\t// in\n    tag_15:\n      tag_16\n      jump\t// in\n    tag_14:\n      stop\n        /* \"send_eth.sol\":1176:1340  function CALL(address payable getter) public{... */\n    tag_5:\n      callvalue\n      dup1\n      iszero\n      tag_17\n      jumpi\n      0x00\n      dup1\n      revert\n    tag_17:\n      pop\n      tag_18\n      0x04\n      dup1\n      calldatasize\n      sub\n      dup2\n      add\n      swap1\n      tag_19\n      swap2\n      swap1\n      tag_12\n      jump\t// in\n    tag_19:\n      tag_20\n      jump\t// in\n    tag_18:\n      stop\n        /* \"send_eth.sol\":567:662  function checkBalance() public view returns(uint) {... */\n    tag_6:\n      callvalue\n      dup1\n      iszero\n      tag_21\n      jumpi\n      0x00\n      dup1\n      revert\n    tag_21:\n      pop\n      tag_22\n      tag_23\n      jump\t// in\n    tag_22:\n      mload(0x40)\n      tag_24\n      swap2\n      swap1\n      tag_25\n      jump\t// in\n    tag_24:\n      mload(0x40)\n      dup1\n      swap2\n      sub\n      swap1\n      return\n        /* \"send_eth.sol\":880:981  function TRANSFER(address payable getter) public{... */\n    tag_13:\n        /* \"send_eth.sol\":938:944  getter */\n      dup1\n        /* \"send_eth.sol\":938:953  getter.transfer */\n      0xffffffffffffffffffffffffffffffffffffffff\n      and\n        /* \"send_eth.sol\":938:974  getter.transfer(1000000000000000000) */\n      0x08fc\n        /* \"send_eth.sol\":954:973  1000000000000000000 */\n      0x0de0b6b3a7640000\n        /* \"send_eth.sol\":938:974  getter.transfer(1000000000000000000) */\n      swap1\n      dup2\n      iszero\n      mul\n      swap1\n      mload(0x40)\n      0x00\n      mload(0x40)\n      dup1\n      dup4\n      sub\n      dup2\n      dup6\n      dup9\n      dup9\n      call\n      swap4\n      pop\n      pop\n      pop\n      pop\n      iszero\n      dup1\n      iszero\n      tag_28\n      jumpi\n      returndatasize\n      0x00\n      dup1\n      returndatacopy\n      revert(0x00, returndatasize)\n    tag_28:\n      pop\n        /* \"send_eth.sol\":880:981  function TRANSFER(address payable getter) public{... */\n      pop\n      jump\t// out\n        /* \"send_eth.sol\":669:874  function SEND(address payable getter) public payable{... */\n    tag_16:\n        /* \"send_eth.sol\":731:742  bool isSend */\n      0x00\n        /* \"send_eth.sol\":745:751  getter */\n      dup2\n        /* \"send_eth.sol\":745:756  getter.send */\n      0xffffffffffffffffffffffffffffffffffffffff\n      and\n        /* \"send_eth.sol\":745:767  getter.send(msg.value) */\n      0x08fc\n        /* \"send_eth.sol\":757:766  msg.value */\n      callvalue\n        /* \"send_eth.sol\":745:767  getter.send(msg.value) */\n      swap1\n      dup2\n      iszero\n      mul\n      swap1\n      mload(0x40)\n      0x00\n      mload(0x40)\n      dup1\n      dup4\n      sub\n      dup2\n      dup6\n      dup9\n      dup9\n      call\n      swap4\n      pop\n      pop\n      pop\n      pop\n        /* \"send_eth.sol\":731:767  bool isSend = getter.send(msg.value) */\n      swap1\n      pop\n        /* \"send_eth.sol\":835:841  isSend */\n      dup1\n        /* \"send_eth.sol\":827:867  require(isSend, \"Transcation is Failed\") */\n      tag_31\n      jumpi\n      mload(0x40)\n      0x08c379a000000000000000000000000000000000000000000000000000000000\n      dup2\n      mstore\n      0x04\n      add\n      tag_32\n      swap1\n      tag_33\n      jump\t// in\n    tag_32:\n      mload(0x40)\n      dup1\n      swap2\n      sub\n      swap1\n      revert\n    tag_31:\n        /* \"send_eth.sol\":721:874  {... */\n      pop\n        /* \"send_eth.sol\":669:874  function SEND(address payable getter) public payable{... */\n      pop\n      jump\t// out\n        /* \"send_eth.sol\":1176:1340  function CALL(address payable getter) public{... */\n    tag_20:\n        /* \"send_eth.sol\":1231:1240  bool sent */\n      0x00\n        /* \"send_eth.sol\":1243:1249  getter */\n      dup2\n        /* \"send_eth.sol\":1243:1254  getter.call */\n      0xffffffffffffffffffffffffffffffffffffffff\n      and\n        /* \"send_eth.sol\":1261:1280  1000000000000000000 */\n      0x0de0b6b3a7640000\n        /* \"send_eth.sol\":1243:1285  getter.call{value:1000000000000000000}(\"\") */\n      mload(0x40)\n      tag_35\n      swap1\n      tag_36\n      jump\t// in\n    tag_35:\n      0x00\n      mload(0x40)\n      dup1\n      dup4\n      sub\n      dup2\n      dup6\n      dup8\n      gas\n      call\n      swap3\n      pop\n      pop\n      pop\n      returndatasize\n      dup1\n      0x00\n      dup2\n      eq\n      tag_39\n      jumpi\n      mload(0x40)\n      swap2\n      pop\n      and(add(returndatasize, 0x3f), not(0x1f))\n      dup3\n      add\n      0x40\n      mstore\n      returndatasize\n      dup3\n      mstore\n      returndatasize\n      0x00\n      0x20\n      dup5\n      add\n      returndatacopy\n      jump(tag_38)\n    tag_39:\n      0x60\n      swap2\n      pop\n    tag_38:\n      pop\n        /* \"send_eth.sol\":1230:1285  (bool sent,)=getter.call{value:1000000000000000000}(\"\") */\n      pop\n      swap1\n      pop\n        /* \"send_eth.sol\":1303:1307  sent */\n      dup1\n        /* \"send_eth.sol\":1295:1333  require(sent, \"Transcation is Failed\") */\n      tag_40\n      jumpi\n      mload(0x40)\n      0x08c379a000000000000000000000000000000000000000000000000000000000\n      dup2\n      mstore\n      0x04\n      add\n      tag_41\n      swap1\n      tag_33\n      jump\t// in\n    tag_41:\n      mload(0x40)\n      dup1\n      swap2\n      sub\n      swap1\n      revert\n    tag_40:\n        /* \"send_eth.sol\":1220:1340  {... */\n      pop\n        /* \"send_eth.sol\":1176:1340  function CALL(address payable getter) public{... */\n      pop\n      jump\t// out\n        /* \"send_eth.sol\":567:662  function checkBalance() public view returns(uint) {... */\n    tag_23:\n        /* \"send_eth.sol\":611:615  uint */\n      0x00\n        /* \"send_eth.sol\":634:655  address(this).balance */\n      selfbalance\n        /* \"send_eth.sol\":627:655  return address(this).balance */\n      swap1\n      pop\n        /* \"send_eth.sol\":567:662  function checkBalance() public view returns(uint) {... */\n      swap1\n      jump\t// out\n        /* \"#utility.yul\":7:162   */\n    tag_44:\n        /* \"#utility.yul\":61:66   */\n      0x00\n        /* \"#utility.yul\":99:105   */\n      dup2\n        /* \"#utility.yul\":86:106   */\n      calldataload\n        /* \"#utility.yul\":77:106   */\n      swap1\n      pop\n        /* \"#utility.yul\":115:156   */\n      tag_46\n        /* \"#utility.yul\":150:155   */\n      dup2\n        /* \"#utility.yul\":115:156   */\n      tag_47\n      jump\t// in\n    tag_46:\n        /* \"#utility.yul\":7:162   */\n      swap3\n      swap2\n      pop\n      pop\n      jump\t// out\n        /* \"#utility.yul\":168:513   */\n    tag_12:\n        /* \"#utility.yul\":235:241   */\n      0x00\n        /* \"#utility.yul\":284:286   */\n      0x20\n        /* \"#utility.yul\":272:281   */\n      dup3\n        /* \"#utility.yul\":263:270   */\n      dup5\n        /* \"#utility.yul\":259:282   */\n      sub\n        /* \"#utility.yul\":255:287   */\n      slt\n        /* \"#utility.yul\":252:371   */\n      iszero\n      tag_49\n      jumpi\n        /* \"#utility.yul\":290:369   */\n      tag_50\n      tag_51\n      jump\t// in\n    tag_50:\n        /* \"#utility.yul\":252:371   */\n    tag_49:\n        /* \"#utility.yul\":410:411   */\n      0x00\n        /* \"#utility.yul\":435:496   */\n      tag_52\n        /* \"#utility.yul\":488:495   */\n      dup5\n        /* \"#utility.yul\":479:485   */\n      dup3\n        /* \"#utility.yul\":468:477   */\n      dup6\n        /* \"#utility.yul\":464:486   */\n      add\n        /* \"#utility.yul\":435:496   */\n      tag_44\n      jump\t// in\n    tag_52:\n        /* \"#utility.yul\":425:496   */\n      swap2\n      pop\n        /* \"#utility.yul\":381:506   */\n      pop\n        /* \"#utility.yul\":168:513   */\n      swap3\n      swap2\n      pop\n      pop\n      jump\t// out\n        /* \"#utility.yul\":519:885   */\n    tag_53:\n        /* \"#utility.yul\":661:664   */\n      0x00\n        /* \"#utility.yul\":682:749   */\n      tag_55\n        /* \"#utility.yul\":746:748   */\n      0x15\n        /* \"#utility.yul\":741:744   */\n      dup4\n        /* \"#utility.yul\":682:749   */\n      tag_56\n      jump\t// in\n    tag_55:\n        /* \"#utility.yul\":675:749   */\n      swap2\n      pop\n        /* \"#utility.yul\":758:851   */\n      tag_57\n        /* \"#utility.yul\":847:850   */\n      dup3\n        /* \"#utility.yul\":758:851   */\n      tag_58\n      jump\t// in\n    tag_57:\n        /* \"#utility.yul\":876:878   */\n      0x20\n        /* \"#utility.yul\":871:874   */\n      dup3\n        /* \"#utility.yul\":867:879   */\n      add\n        /* \"#utility.yul\":860:879   */\n      swap1\n      pop\n        /* \"#utility.yul\":519:885   */\n      swap2\n      swap1\n      pop\n      jump\t// out\n        /* \"#utility.yul\":891:1289   */\n    tag_59:\n        /* \"#utility.yul\":1050:1053   */\n      0x00\n        /* \"#utility.yul\":1071:1154   */\n      tag_61\n        /* \"#utility.yul\":1152:1153   */\n      0x00\n        /* \"#utility.yul\":1147:1150   */\n      dup4\n        /* \"#utility.yul\":1071:1154   */\n      tag_62\n      jump\t// in\n    tag_61:\n        /* \"#utility.yul\":1064:1154   */\n      swap2\n      pop\n        /* \"#utility.yul\":1163:1256   */\n      tag_63\n        /* \"#utility.yul\":1252:1255   */\n      dup3\n        /* \"#utility.yul\":1163:1256   */\n      tag_64\n      jump\t// in\n    tag_63:\n        /* \"#utility.yul\":1281:1282   */\n      0x00\n        /* \"#utility.yul\":1276:1279   */\n      dup3\n        /* \"#utility.yul\":1272:1283   */\n      add\n        /* \"#utility.yul\":1265:1283   */\n      swap1\n      pop\n        /* \"#utility.yul\":891:1289   */\n      swap2\n      swap1\n      pop\n      jump\t// out\n        /* \"#utility.yul\":1295:1413   */\n    tag_65:\n        /* \"#utility.yul\":1382:1406   */\n      tag_67\n        /* \"#utility.yul\":1400:1405   */\n      dup2\n        /* \"#utility.yul\":1382:1406   */\n      tag_68\n      jump\t// in\n    tag_67:\n        /* \"#utility.yul\":1377:1380   */\n      dup3\n        /* \"#utility.yul\":1370:1407   */\n      mstore\n        /* \"#utility.yul\":1295:1413   */\n      pop\n      pop\n      jump\t// out\n        /* \"#utility.yul\":1419:1798   */\n    tag_36:\n        /* \"#utility.yul\":1603:1606   */\n      0x00\n        /* \"#utility.yul\":1625:1772   */\n      tag_70\n        /* \"#utility.yul\":1768:1771   */\n      dup3\n        /* \"#utility.yul\":1625:1772   */\n      tag_59\n      jump\t// in\n    tag_70:\n        /* \"#utility.yul\":1618:1772   */\n      swap2\n      pop\n        /* \"#utility.yul\":1789:1792   */\n      dup2\n        /* \"#utility.yul\":1782:1792   */\n      swap1\n      pop\n        /* \"#utility.yul\":1419:1798   */\n      swap2\n      swap1\n      pop\n      jump\t// out\n        /* \"#utility.yul\":1804:2223   */\n    tag_33:\n        /* \"#utility.yul\":1970:1974   */\n      0x00\n        /* \"#utility.yul\":2008:2010   */\n      0x20\n        /* \"#utility.yul\":1997:2006   */\n      dup3\n        /* \"#utility.yul\":1993:2011   */\n      add\n        /* \"#utility.yul\":1985:2011   */\n      swap1\n      pop\n        /* \"#utility.yul\":2057:2066   */\n      dup2\n        /* \"#utility.yul\":2051:2055   */\n      dup2\n        /* \"#utility.yul\":2047:2067   */\n      sub\n        /* \"#utility.yul\":2043:2044   */\n      0x00\n        /* \"#utility.yul\":2032:2041   */\n      dup4\n        /* \"#utility.yul\":2028:2045   */\n      add\n        /* \"#utility.yul\":2021:2068   */\n      mstore\n        /* \"#utility.yul\":2085:2216   */\n      tag_72\n        /* \"#utility.yul\":2211:2215   */\n      dup2\n        /* \"#utility.yul\":2085:2216   */\n      tag_53\n      jump\t// in\n    tag_72:\n        /* \"#utility.yul\":2077:2216   */\n      swap1\n      pop\n        /* \"#utility.yul\":1804:2223   */\n      swap2\n      swap1\n      pop\n      jump\t// out\n        /* \"#utility.yul\":2229:2451   */\n    tag_25:\n        /* \"#utility.yul\":2322:2326   */\n      0x00\n        /* \"#utility.yul\":2360:2362   */\n      0x20\n        /* \"#utility.yul\":2349:2358   */\n      dup3\n        /* \"#utility.yul\":2345:2363   */\n      add\n        /* \"#utility.yul\":2337:2363   */\n      swap1\n      pop\n        /* \"#utility.yul\":2373:2444   */\n      tag_74\n        /* \"#utility.yul\":2441:2442   */\n      0x00\n        /* \"#utility.yul\":2430:2439   */\n      dup4\n        /* \"#utility.yul\":2426:2443   */\n      add\n        /* \"#utility.yul\":2417:2423   */\n      dup5\n        /* \"#utility.yul\":2373:2444   */\n      tag_65\n      jump\t// in\n    tag_74:\n        /* \"#utility.yul\":2229:2451   */\n      swap3\n      swap2\n      pop\n      pop\n      jump\t// out\n        /* \"#utility.yul\":2538:2685   */\n    tag_62:\n        /* \"#utility.yul\":2639:2650   */\n      0x00\n        /* \"#utility.yul\":2676:2679   */\n      dup2\n        /* \"#utility.yul\":2661:2679   */\n      swap1\n      pop\n        /* \"#utility.yul\":2538:2685   */\n      swap3\n      swap2\n      pop\n      pop\n      jump\t// out\n        /* \"#utility.yul\":2691:2860   */\n    tag_56:\n        /* \"#utility.yul\":2775:2786   */\n      0x00\n        /* \"#utility.yul\":2809:2815   */\n      dup3\n        /* \"#utility.yul\":2804:2807   */\n      dup3\n        /* \"#utility.yul\":2797:2816   */\n      mstore\n        /* \"#utility.yul\":2849:2853   */\n      0x20\n        /* \"#utility.yul\":2844:2847   */\n      dup3\n        /* \"#utility.yul\":2840:2854   */\n      add\n        /* \"#utility.yul\":2825:2854   */\n      swap1\n      pop\n        /* \"#utility.yul\":2691:2860   */\n      swap3\n      swap2\n      pop\n      pop\n      jump\t// out\n        /* \"#utility.yul\":2866:2970   */\n    tag_79:\n        /* \"#utility.yul\":2911:2918   */\n      0x00\n        /* \"#utility.yul\":2940:2964   */\n      tag_81\n        /* \"#utility.yul\":2958:2963   */\n      dup3\n        /* \"#utility.yul\":2940:2964   */\n      tag_82\n      jump\t// in\n    tag_81:\n        /* \"#utility.yul\":2929:2964   */\n      swap1\n      pop\n        /* \"#utility.yul\":2866:2970   */\n      swap2\n      swap1\n      pop\n      jump\t// out\n        /* \"#utility.yul\":2976:3102   */\n    tag_82:\n        /* \"#utility.yul\":3013:3020   */\n      0x00\n        /* \"#utility.yul\":3053:3095   */\n      0xffffffffffffffffffffffffffffffffffffffff\n        /* \"#utility.yul\":3046:3051   */\n      dup3\n        /* \"#utility.yul\":3042:3096   */\n      and\n        /* \"#utility.yul\":3031:3096   */\n      swap1\n      pop\n        /* \"#utility.yul\":2976:3102   */\n      swap2\n      swap1\n      pop\n      jump\t// out\n        /* \"#utility.yul\":3108:3185   */\n    tag_68:\n        /* \"#utility.yul\":3145:3152   */\n      0x00\n        /* \"#utility.yul\":3174:3179   */\n      dup2\n        /* \"#utility.yul\":3163:3179   */\n      swap1\n      pop\n        /* \"#utility.yul\":3108:3185   */\n      swap2\n      swap1\n      pop\n      jump\t// out\n        /* \"#utility.yul\":3314:3431   */\n    tag_51:\n        /* \"#utility.yul\":3423:3424   */\n      0x00\n        /* \"#utility.yul\":3420:3421   */\n      dup1\n        /* \"#utility.yul\":3413:3425   */\n      revert\n        /* \"#utility.yul\":3437:3608   */\n    tag_58:\n        /* \"#utility.yul\":3577:3600   */\n      0x5472616e73636174696f6e206973204661696c65640000000000000000000000\n        /* \"#utility.yul\":3573:3574   */\n      0x00\n        /* \"#utility.yul\":3565:3571   */\n      dup3\n        /* \"#utility.yul\":3561:3575   */\n      add\n        /* \"#utility.yul\":3554:3601   */\n      mstore\n        /* \"#utility.yul\":3437:3608   */\n      pop\n      jump\t// out\n        /* \"#utility.yul\":3614:3728   */\n    tag_64:\n      pop\n      jump\t// out\n        /* \"#utility.yul\":3734:3872   */\n    tag_47:\n        /* \"#utility.yul\":3815:3847   */\n      tag_91\n        /* \"#utility.yul\":3841:3846   */\n      dup2\n        /* \"#utility.yul\":3815:3847   */\n      tag_79\n      jump\t// in\n    tag_91:\n        /* \"#utility.yul\":3808:3813   */\n      dup2\n        /* \"#utility.yul\":3805:3848   */\n      eq\n        /* \"#utility.yul\":3795:3866   */\n      tag_92\n      jumpi\n        /* \"#utility.yul\":3862:3863   */\n      0x00\n        /* \"#utility.yul\":3859:3860   */\n      dup1\n        /* \"#utility.yul\":3852:3864   */\n      revert\n        /* \"#utility.yul\":3795:3866   */\n    tag_92:\n        /* \"#utility.yul\":3734:3872   */\n      pop\n      jump\t// out\n\n    auxdata: 0xa2646970667358221220611e685ddde5e21aa5eddb584eea5e3d709af7fcee36b5e4b89133b04e19a39664736f6c63430008070033\n}\n",
				"bytecode": {
					"linkReferences": {},
					"object": "608060405234801561001057600080fd5b50610434806100206000396000f3fe6080604052600436106100435760003560e01c80639cb4ddd01461004f578063af075e0c14610078578063b206494b14610094578063c71daccb146100bd5761004a565b3661004a57005b600080fd5b34801561005b57600080fd5b506100766004803603810190610071919061028c565b6100e8565b005b610092600480360381019061008d919061028c565b61013a565b005b3480156100a057600080fd5b506100bb60048036038101906100b6919061028c565b6101b7565b005b3480156100c957600080fd5b506100d261026f565b6040516100df9190610343565b60405180910390f35b8073ffffffffffffffffffffffffffffffffffffffff166108fc670de0b6b3a76400009081150290604051600060405180830381858888f19350505050158015610136573d6000803e3d6000fd5b5050565b60008173ffffffffffffffffffffffffffffffffffffffff166108fc349081150290604051600060405180830381858888f193505050509050806101b3576040517f08c379a00000000000000000000000000000000000000000000000000000000081526004016101aa90610323565b60405180910390fd5b5050565b60008173ffffffffffffffffffffffffffffffffffffffff16670de0b6b3a76400006040516101e59061030e565b60006040518083038185875af1925050503d8060008114610222576040519150601f19603f3d011682016040523d82523d6000602084013e610227565b606091505b505090508061026b576040517f08c379a000000000000000000000000000000000000000000000000000000000815260040161026290610323565b60405180910390fd5b5050565b600047905090565b600081359050610286816103e7565b92915050565b6000602082840312156102a2576102a16103b6565b5b60006102b084828501610277565b91505092915050565b60006102c6601583610369565b91506102d1826103bb565b602082019050919050565b60006102e960008361035e565b91506102f4826103e4565b600082019050919050565b610308816103ac565b82525050565b6000610319826102dc565b9150819050919050565b6000602082019050818103600083015261033c816102b9565b9050919050565b600060208201905061035860008301846102ff565b92915050565b600081905092915050565b600082825260208201905092915050565b60006103858261038c565b9050919050565b600073ffffffffffffffffffffffffffffffffffffffff82169050919050565b6000819050919050565b600080fd5b7f5472616e73636174696f6e206973204661696c65640000000000000000000000600082015250565b50565b6103f08161037a565b81146103fb57600080fd5b5056fea2646970667358221220611e685ddde5e21aa5eddb584eea5e3d709af7fcee36b5e4b89133b04e19a39664736f6c63430008070033",
					"opcodes": "PUSH1 0x80 PUSH1 0x40 MSTORE CALLVALUE DUP1 ISZERO PUSH2 0x10 JUMPI PUSH1 0x0 DUP1 REVERT JUMPDEST POP PUSH2 0x434 DUP1 PUSH2 0x20 PUSH1 0x0 CODECOPY PUSH1 0x0 RETURN INVALID PUSH1 0x80 PUSH1 0x40 MSTORE PUSH1 0x4 CALLDATASIZE LT PUSH2 0x43 JUMPI PUSH1 0x0 CALLDATALOAD PUSH1 0xE0 SHR DUP1 PUSH4 0x9CB4DDD0 EQ PUSH2 0x4F JUMPI DUP1 PUSH4 0xAF075E0C EQ PUSH2 0x78 JUMPI DUP1 PUSH4 0xB206494B EQ PUSH2 0x94 JUMPI DUP1 PUSH4 0xC71DACCB EQ PUSH2 0xBD JUMPI PUSH2 0x4A JUMP JUMPDEST CALLDATASIZE PUSH2 0x4A JUMPI STOP JUMPDEST PUSH1 0x0 DUP1 REVERT JUMPDEST CALLVALUE DUP1 ISZERO PUSH2 0x5B JUMPI PUSH1 0x0 DUP1 REVERT JUMPDEST POP PUSH2 0x76 PUSH1 0x4 DUP1 CALLDATASIZE SUB DUP2 ADD SWAP1 PUSH2 0x71 SWAP2 SWAP1 PUSH2 0x28C JUMP JUMPDEST PUSH2 0xE8 JUMP JUMPDEST STOP JUMPDEST PUSH2 0x92 PUSH1 0x4 DUP1 CALLDATASIZE SUB DUP2 ADD SWAP1 PUSH2 0x8D SWAP2 SWAP1 PUSH2 0x28C JUMP JUMPDEST PUSH2 0x13A JUMP JUMPDEST STOP JUMPDEST CALLVALUE DUP1 ISZERO PUSH2 0xA0 JUMPI PUSH1 0x0 DUP1 REVERT JUMPDEST POP PUSH2 0xBB PUSH1 0x4 DUP1 CALLDATASIZE SUB DUP2 ADD SWAP1 PUSH2 0xB6 SWAP2 SWAP1 PUSH2 0x28C JUMP JUMPDEST PUSH2 0x1B7 JUMP JUMPDEST STOP JUMPDEST CALLVALUE DUP1 ISZERO PUSH2 0xC9 JUMPI PUSH1 0x0 DUP1 REVERT JUMPDEST POP PUSH2 0xD2 PUSH2 0x26F JUMP JUMPDEST PUSH1 0x40 MLOAD PUSH2 0xDF SWAP2 SWAP1 PUSH2 0x343 JUMP JUMPDEST PUSH1 0x40 MLOAD DUP1 SWAP2 SUB SWAP1 RETURN JUMPDEST DUP1 PUSH20 0xFFFFFFFFFFFFFFFFFFFFFFFFFFFFFFFFFFFFFFFF AND PUSH2 0x8FC PUSH8 0xDE0B6B3A7640000 SWAP1 DUP2 ISZERO MUL SWAP1 PUSH1 0x40 MLOAD PUSH1 0x0 PUSH1 0x40 MLOAD DUP1 DUP4 SUB DUP2 DUP6 DUP9 DUP9 CALL SWAP4 POP POP POP POP ISZERO DUP1 ISZERO PUSH2 0x136 JUMPI RETURNDATASIZE PUSH1 0x0 DUP1 RETURNDATACOPY RETURNDATASIZE PUSH1 0x0 REVERT JUMPDEST POP POP JUMP JUMPDEST PUSH1 0x0 DUP2 PUSH20 0xFFFFFFFFFFFFFFFFFFFFFFFFFFFFFFFFFFFFFFFF AND PUSH2 0x8FC CALLVALUE SWAP1 DUP2 ISZERO MUL SWAP1 PUSH1 0x40 MLOAD PUSH1 0x0 PUSH1 0x40 MLOAD DUP1 DUP4 SUB DUP2 DUP6 DUP9 DUP9 CALL SWAP4 POP POP POP POP SWAP1 POP DUP1 PUSH2 0x1B3 JUMPI PUSH1 0x40 MLOAD PUSH32 0x8C379A000000000000000000000000000000000000000000000000000000000 DUP2 MSTORE PUSH1 0x4 ADD PUSH2 0x1AA SWAP1 PUSH2 0x323 JUMP JUMPDEST PUSH1 0x40 MLOAD DUP1 SWAP2 SUB SWAP1 REVERT JUMPDEST POP POP JUMP JUMPDEST PUSH1 0x0 DUP2 PUSH20 0xFFFFFFFFFFFFFFFFFFFFFFFFFFFFFFFFFFFFFFFF AND PUSH8 0xDE0B6B3A7640000 PUSH1 0x40 MLOAD PUSH2 0x1E5 SWAP1 PUSH2 0x30E JUMP JUMPDEST PUSH1 0x0 PUSH1 0x40 MLOAD DUP1 DUP4 SUB DUP2 DUP6 DUP8 GAS CALL SWAP3 POP POP POP RETURNDATASIZE DUP1 PUSH1 0x0 DUP2 EQ PUSH2 0x222 JUMPI PUSH1 0x40 MLOAD SWAP2 POP PUSH1 0x1F NOT PUSH1 0x3F RETURNDATASIZE ADD AND DUP3 ADD PUSH1 0x40 MSTORE RETURNDATASIZE DUP3 MSTORE RETURNDATASIZE PUSH1 0x0 PUSH1 0x20 DUP5 ADD RETURNDATACOPY PUSH2 0x227 JUMP JUMPDEST PUSH1 0x60 SWAP2 POP JUMPDEST POP POP SWAP1 POP DUP1 PUSH2 0x26B JUMPI PUSH1 0x40 MLOAD PUSH32 0x8C379A000000000000000000000000000000000000000000000000000000000 DUP2 MSTORE PUSH1 0x4 ADD PUSH2 0x262 SWAP1 PUSH2 0x323 JUMP JUMPDEST PUSH1 0x40 MLOAD DUP1 SWAP2 SUB SWAP1 REVERT JUMPDEST POP POP JUMP JUMPDEST PUSH1 0x0 SELFBALANCE SWAP1 POP SWAP1 JUMP JUMPDEST PUSH1 0x0 DUP2 CALLDATALOAD SWAP1 POP PUSH2 0x286 DUP2 PUSH2 0x3E7 JUMP JUMPDEST SWAP3 SWAP2 POP POP JUMP JUMPDEST PUSH1 0x0 PUSH1 0x20 DUP3 DUP5 SUB SLT ISZERO PUSH2 0x2A2 JUMPI PUSH2 0x2A1 PUSH2 0x3B6 JUMP JUMPDEST JUMPDEST PUSH1 0x0 PUSH2 0x2B0 DUP5 DUP3 DUP6 ADD PUSH2 0x277 JUMP JUMPDEST SWAP2 POP POP SWAP3 SWAP2 POP POP JUMP JUMPDEST PUSH1 0x0 PUSH2 0x2C6 PUSH1 0x15 DUP4 PUSH2 0x369 JUMP JUMPDEST SWAP2 POP PUSH2 0x2D1 DUP3 PUSH2 0x3BB JUMP JUMPDEST PUSH1 0x20 DUP3 ADD SWAP1 POP SWAP2 SWAP1 POP JUMP JUMPDEST PUSH1 0x0 PUSH2 0x2E9 PUSH1 0x0 DUP4 PUSH2 0x35E JUMP JUMPDEST SWAP2 POP PUSH2 0x2F4 DUP3 PUSH2 0x3E4 JUMP JUMPDEST PUSH1 0x0 DUP3 ADD SWAP1 POP SWAP2 SWAP1 POP JUMP JUMPDEST PUSH2 0x308 DUP2 PUSH2 0x3AC JUMP JUMPDEST DUP3 MSTORE POP POP JUMP JUMPDEST PUSH1 0x0 PUSH2 0x319 DUP3 PUSH2 0x2DC JUMP JUMPDEST SWAP2 POP DUP2 SWAP1 POP SWAP2 SWAP1 POP JUMP JUMPDEST PUSH1 0x0 PUSH1 0x20 DUP3 ADD SWAP1 POP DUP2 DUP2 SUB PUSH1 0x0 DUP4 ADD MSTORE PUSH2 0x33C DUP2 PUSH2 0x2B9 JUMP JUMPDEST SWAP1 POP SWAP2 SWAP1 POP JUMP JUMPDEST PUSH1 0x0 PUSH1 0x20 DUP3 ADD SWAP1 POP PUSH2 0x358 PUSH1 0x0 DUP4 ADD DUP5 PUSH2 0x2FF JUMP JUMPDEST SWAP3 SWAP2 POP POP JUMP JUMPDEST PUSH1 0x0 DUP2 SWAP1 POP SWAP3 SWAP2 POP POP JUMP JUMPDEST PUSH1 0x0 DUP3 DUP3 MSTORE PUSH1 0x20 DUP3 ADD SWAP1 POP SWAP3 SWAP2 POP POP JUMP JUMPDEST PUSH1 0x0 PUSH2 0x385 DUP3 PUSH2 0x38C JUMP JUMPDEST SWAP1 POP SWAP2 SWAP1 POP JUMP JUMPDEST PUSH1 0x0 PUSH20 0xFFFFFFFFFFFFFFFFFFFFFFFFFFFFFFFFFFFFFFFF DUP3 AND SWAP1 POP SWAP2 SWAP1 POP JUMP JUMPDEST PUSH1 0x0 DUP2 SWAP1 POP SWAP2 SWAP1 POP JUMP JUMPDEST PUSH1 0x0 DUP1 REVERT JUMPDEST PUSH32 0x5472616E73636174696F6E206973204661696C65640000000000000000000000 PUSH1 0x0 DUP3 ADD MSTORE POP JUMP JUMPDEST POP JUMP JUMPDEST PUSH2 0x3F0 DUP2 PUSH2 0x37A JUMP JUMPDEST DUP2 EQ PUSH2 0x3FB JUMPI PUSH1 0x0 DUP1 REVERT JUMPDEST POP JUMP INVALID LOG2 PUSH5 0x6970667358 0x22 SLT KECCAK256 PUSH2 0x1E68 0x5D 0xDD 0xE5 0xE2 BYTE 0xA5 0xED 0xDB PC 0x4E 0xEA 0x5E RETURNDATASIZE PUSH17 0x9AF7FCEE36B5E4B89133B04E19A3966473 PUSH16 0x6C634300080700330000000000000000 "
				},
				"gasEstimates": {
					"creation": {
						"codeDepositCost": "215200",
						"executionCost": "257",
						"totalCost": "215457"
					},
					"external": {
						"CALL(address)": "infinite",
						"SEND(address)": "infinite",
						"TRANSFER(address)": "infinite",
						"checkBalance()": "383"
					}
				},
				"methodIdentifiers": {
					"CALL(address)": "b206494b",
					"SEND(address)": "af075e0c",
					"TRANSFER(address)": "9cb4ddd0",
					"checkBalance()": "c71daccb"
				}
			},
			"storageLayout": {
				"storage": [],
				"types": null
			},
			"userdoc": {
				"kind": "user",
				"methods": {},
				"version": 1
			}
		}
	}
}