{
	"eventImplementation.sol": {
		"chatApp": {
			"abi": [
				{
					"anonymous": false,
					"inputs": [
						{
							"indexed": false,
							"internalType": "address",
							"name": "_from",
							"type": "address"
						},
						{
							"indexed": false,
							"internalType": "address",
							"name": "_to",
							"type": "address"
						},
						{
							"indexed": false,
							"internalType": "string",
							"name": "message",
							"type": "string"
						}
					],
					"name": "chat",
					"type": "event"
				},
				{
					"inputs": [
						{
							"internalType": "address",
							"name": "_to",
							"type": "address"
						},
						{
							"internalType": "string",
							"name": "_message",
							"type": "string"
						}
					],
					"name": "sendMessage",
					"outputs": [],
					"stateMutability": "nonpayable",
					"type": "function"
				}
			],
			"devdoc": {
				"kind": "dev",
				"methods": {},
				"version": 1
			},
			"evm": {
				"assembly": "    /* \"eventImplementation.sol\":248:452  contract chatApp{... */\n  mstore(0x40, 0x80)\n  callvalue\n  dup1\n  iszero\n  tag_1\n  jumpi\n  0x00\n  dup1\n  revert\ntag_1:\n  pop\n  dataSize(sub_0)\n  dup1\n  dataOffset(sub_0)\n  0x00\n  codecopy\n  0x00\n  return\nstop\n\nsub_0: assembly {\n        /* \"eventImplementation.sol\":248:452  contract chatApp{... */\n      mstore(0x40, 0x80)\n      callvalue\n      dup1\n      iszero\n      tag_1\n      jumpi\n      0x00\n      dup1\n      revert\n    tag_1:\n      pop\n      jumpi(tag_2, lt(calldatasize, 0x04))\n      shr(0xe0, calldataload(0x00))\n      dup1\n      0xde6f24bb\n      eq\n      tag_3\n      jumpi\n    tag_2:\n      0x00\n      dup1\n      revert\n        /* \"eventImplementation.sol\":332:450  function sendMessage(address _to ,string memory _message) public{... */\n    tag_3:\n      tag_4\n      0x04\n      dup1\n      calldatasize\n      sub\n      dup2\n      add\n      swap1\n      tag_5\n      swap2\n      swap1\n      tag_6\n      jump\t// in\n    tag_5:\n      tag_7\n      jump\t// in\n    tag_4:\n      stop\n    tag_7:\n        /* \"eventImplementation.sol\":411:442  chat(msg.sender, _to, _message) */\n      0x2f6ff1dea5e6d5466e44de328c6f4518b6da78f98b2b55273306901a3f0b346c\n        /* \"eventImplementation.sol\":416:426  msg.sender */\n      caller\n        /* \"eventImplementation.sol\":428:431  _to */\n      dup4\n        /* \"eventImplementation.sol\":433:441  _message */\n      dup4\n        /* \"eventImplementation.sol\":411:442  chat(msg.sender, _to, _message) */\n      mload(0x40)\n      tag_9\n      swap4\n      swap3\n      swap2\n      swap1\n      tag_10\n      jump\t// in\n    tag_9:\n      mload(0x40)\n      dup1\n      swap2\n      sub\n      swap1\n      log1\n        /* \"eventImplementation.sol\":332:450  function sendMessage(address _to ,string memory _message) public{... */\n      pop\n      pop\n      jump\t// out\n        /* \"#utility.yul\":7:419   */\n    tag_12:\n        /* \"#utility.yul\":85:90   */\n      0x00\n        /* \"#utility.yul\":110:176   */\n      tag_14\n        /* \"#utility.yul\":126:175   */\n      tag_15\n        /* \"#utility.yul\":168:174   */\n      dup5\n        /* \"#utility.yul\":126:175   */\n      tag_16\n      jump\t// in\n    tag_15:\n        /* \"#utility.yul\":110:176   */\n      tag_17\n      jump\t// in\n    tag_14:\n        /* \"#utility.yul\":101:176   */\n      swap1\n      pop\n        /* \"#utility.yul\":199:205   */\n      dup3\n        /* \"#utility.yul\":192:197   */\n      dup2\n        /* \"#utility.yul\":185:206   */\n      mstore\n        /* \"#utility.yul\":237:241   */\n      0x20\n        /* \"#utility.yul\":230:235   */\n      dup2\n        /* \"#utility.yul\":226:242   */\n      add\n        /* \"#utility.yul\":275:278   */\n      dup5\n        /* \"#utility.yul\":266:272   */\n      dup5\n        /* \"#utility.yul\":261:264   */\n      dup5\n        /* \"#utility.yul\":257:273   */\n      add\n        /* \"#utility.yul\":254:279   */\n      gt\n        /* \"#utility.yul\":251:363   */\n      iszero\n      tag_18\n      jumpi\n        /* \"#utility.yul\":282:361   */\n      tag_19\n      tag_20\n      jump\t// in\n    tag_19:\n        /* \"#utility.yul\":251:363   */\n    tag_18:\n        /* \"#utility.yul\":372:413   */\n      tag_21\n        /* \"#utility.yul\":406:412   */\n      dup5\n        /* \"#utility.yul\":401:404   */\n      dup3\n        /* \"#utility.yul\":396:399   */\n      dup6\n        /* \"#utility.yul\":372:413   */\n      tag_22\n      jump\t// in\n    tag_21:\n        /* \"#utility.yul\":91:419   */\n      pop\n        /* \"#utility.yul\":7:419   */\n      swap4\n      swap3\n      pop\n      pop\n      pop\n      jump\t// out\n        /* \"#utility.yul\":425:564   */\n    tag_23:\n        /* \"#utility.yul\":471:476   */\n      0x00\n        /* \"#utility.yul\":509:515   */\n      dup2\n        /* \"#utility.yul\":496:516   */\n      calldataload\n        /* \"#utility.yul\":487:516   */\n      swap1\n      pop\n        /* \"#utility.yul\":525:558   */\n      tag_25\n        /* \"#utility.yul\":552:557   */\n      dup2\n        /* \"#utility.yul\":525:558   */\n      tag_26\n      jump\t// in\n    tag_25:\n        /* \"#utility.yul\":425:564   */\n      swap3\n      swap2\n      pop\n      pop\n      jump\t// out\n        /* \"#utility.yul\":584:924   */\n    tag_27:\n        /* \"#utility.yul\":640:645   */\n      0x00\n        /* \"#utility.yul\":689:692   */\n      dup3\n        /* \"#utility.yul\":682:686   */\n      0x1f\n        /* \"#utility.yul\":674:680   */\n      dup4\n        /* \"#utility.yul\":670:687   */\n      add\n        /* \"#utility.yul\":666:693   */\n      slt\n        /* \"#utility.yul\":656:778   */\n      tag_29\n      jumpi\n        /* \"#utility.yul\":697:776   */\n      tag_30\n      tag_31\n      jump\t// in\n    tag_30:\n        /* \"#utility.yul\":656:778   */\n    tag_29:\n        /* \"#utility.yul\":814:820   */\n      dup2\n        /* \"#utility.yul\":801:821   */\n      calldataload\n        /* \"#utility.yul\":839:918   */\n      tag_32\n        /* \"#utility.yul\":914:917   */\n      dup5\n        /* \"#utility.yul\":906:912   */\n      dup3\n        /* \"#utility.yul\":899:903   */\n      0x20\n        /* \"#utility.yul\":891:897   */\n      dup7\n        /* \"#utility.yul\":887:904   */\n      add\n        /* \"#utility.yul\":839:918   */\n      tag_12\n      jump\t// in\n    tag_32:\n        /* \"#utility.yul\":830:918   */\n      swap2\n      pop\n        /* \"#utility.yul\":646:924   */\n      pop\n        /* \"#utility.yul\":584:924   */\n      swap3\n      swap2\n      pop\n      pop\n      jump\t// out\n        /* \"#utility.yul\":930:1584   */\n    tag_6:\n        /* \"#utility.yul\":1008:1014   */\n      0x00\n        /* \"#utility.yul\":1016:1022   */\n      dup1\n        /* \"#utility.yul\":1065:1067   */\n      0x40\n        /* \"#utility.yul\":1053:1062   */\n      dup4\n        /* \"#utility.yul\":1044:1051   */\n      dup6\n        /* \"#utility.yul\":1040:1063   */\n      sub\n        /* \"#utility.yul\":1036:1068   */\n      slt\n        /* \"#utility.yul\":1033:1152   */\n      iszero\n      tag_34\n      jumpi\n        /* \"#utility.yul\":1071:1150   */\n      tag_35\n      tag_36\n      jump\t// in\n    tag_35:\n        /* \"#utility.yul\":1033:1152   */\n    tag_34:\n        /* \"#utility.yul\":1191:1192   */\n      0x00\n        /* \"#utility.yul\":1216:1269   */\n      tag_37\n        /* \"#utility.yul\":1261:1268   */\n      dup6\n        /* \"#utility.yul\":1252:1258   */\n      dup3\n        /* \"#utility.yul\":1241:1250   */\n      dup7\n        /* \"#utility.yul\":1237:1259   */\n      add\n        /* \"#utility.yul\":1216:1269   */\n      tag_23\n      jump\t// in\n    tag_37:\n        /* \"#utility.yul\":1206:1269   */\n      swap3\n      pop\n        /* \"#utility.yul\":1162:1279   */\n      pop\n        /* \"#utility.yul\":1346:1348   */\n      0x20\n        /* \"#utility.yul\":1335:1344   */\n      dup4\n        /* \"#utility.yul\":1331:1349   */\n      add\n        /* \"#utility.yul\":1318:1350   */\n      calldataload\n        /* \"#utility.yul\":1377:1395   */\n      0xffffffffffffffff\n        /* \"#utility.yul\":1369:1375   */\n      dup2\n        /* \"#utility.yul\":1366:1396   */\n      gt\n        /* \"#utility.yul\":1363:1480   */\n      iszero\n      tag_38\n      jumpi\n        /* \"#utility.yul\":1399:1478   */\n      tag_39\n      tag_40\n      jump\t// in\n    tag_39:\n        /* \"#utility.yul\":1363:1480   */\n    tag_38:\n        /* \"#utility.yul\":1504:1567   */\n      tag_41\n        /* \"#utility.yul\":1559:1566   */\n      dup6\n        /* \"#utility.yul\":1550:1556   */\n      dup3\n        /* \"#utility.yul\":1539:1548   */\n      dup7\n        /* \"#utility.yul\":1535:1557   */\n      add\n        /* \"#utility.yul\":1504:1567   */\n      tag_27\n      jump\t// in\n    tag_41:\n        /* \"#utility.yul\":1494:1567   */\n      swap2\n      pop\n        /* \"#utility.yul\":1289:1577   */\n      pop\n        /* \"#utility.yul\":930:1584   */\n      swap3\n      pop\n      swap3\n      swap1\n      pop\n      jump\t// out\n        /* \"#utility.yul\":1590:1708   */\n    tag_42:\n        /* \"#utility.yul\":1677:1701   */\n      tag_44\n        /* \"#utility.yul\":1695:1700   */\n      dup2\n        /* \"#utility.yul\":1677:1701   */\n      tag_45\n      jump\t// in\n    tag_44:\n        /* \"#utility.yul\":1672:1675   */\n      dup3\n        /* \"#utility.yul\":1665:1702   */\n      mstore\n        /* \"#utility.yul\":1590:1708   */\n      pop\n      pop\n      jump\t// out\n        /* \"#utility.yul\":1714:2078   */\n    tag_46:\n        /* \"#utility.yul\":1802:1805   */\n      0x00\n        /* \"#utility.yul\":1830:1869   */\n      tag_48\n        /* \"#utility.yul\":1863:1868   */\n      dup3\n        /* \"#utility.yul\":1830:1869   */\n      tag_49\n      jump\t// in\n    tag_48:\n        /* \"#utility.yul\":1885:1956   */\n      tag_50\n        /* \"#utility.yul\":1949:1955   */\n      dup2\n        /* \"#utility.yul\":1944:1947   */\n      dup6\n        /* \"#utility.yul\":1885:1956   */\n      tag_51\n      jump\t// in\n    tag_50:\n        /* \"#utility.yul\":1878:1956   */\n      swap4\n      pop\n        /* \"#utility.yul\":1965:2017   */\n      tag_52\n        /* \"#utility.yul\":2010:2016   */\n      dup2\n        /* \"#utility.yul\":2005:2008   */\n      dup6\n        /* \"#utility.yul\":1998:2002   */\n      0x20\n        /* \"#utility.yul\":1991:1996   */\n      dup7\n        /* \"#utility.yul\":1987:2003   */\n      add\n        /* \"#utility.yul\":1965:2017   */\n      tag_53\n      jump\t// in\n    tag_52:\n        /* \"#utility.yul\":2042:2071   */\n      tag_54\n        /* \"#utility.yul\":2064:2070   */\n      dup2\n        /* \"#utility.yul\":2042:2071   */\n      tag_55\n      jump\t// in\n    tag_54:\n        /* \"#utility.yul\":2037:2040   */\n      dup5\n        /* \"#utility.yul\":2033:2072   */\n      add\n        /* \"#utility.yul\":2026:2072   */\n      swap2\n      pop\n        /* \"#utility.yul\":1806:2078   */\n      pop\n        /* \"#utility.yul\":1714:2078   */\n      swap3\n      swap2\n      pop\n      pop\n      jump\t// out\n        /* \"#utility.yul\":2084:2617   */\n    tag_10:\n        /* \"#utility.yul\":2253:2257   */\n      0x00\n        /* \"#utility.yul\":2291:2293   */\n      0x60\n        /* \"#utility.yul\":2280:2289   */\n      dup3\n        /* \"#utility.yul\":2276:2294   */\n      add\n        /* \"#utility.yul\":2268:2294   */\n      swap1\n      pop\n        /* \"#utility.yul\":2304:2375   */\n      tag_57\n        /* \"#utility.yul\":2372:2373   */\n      0x00\n        /* \"#utility.yul\":2361:2370   */\n      dup4\n        /* \"#utility.yul\":2357:2374   */\n      add\n        /* \"#utility.yul\":2348:2354   */\n      dup7\n        /* \"#utility.yul\":2304:2375   */\n      tag_42\n      jump\t// in\n    tag_57:\n        /* \"#utility.yul\":2385:2457   */\n      tag_58\n        /* \"#utility.yul\":2453:2455   */\n      0x20\n        /* \"#utility.yul\":2442:2451   */\n      dup4\n        /* \"#utility.yul\":2438:2456   */\n      add\n        /* \"#utility.yul\":2429:2435   */\n      dup6\n        /* \"#utility.yul\":2385:2457   */\n      tag_42\n      jump\t// in\n    tag_58:\n        /* \"#utility.yul\":2504:2513   */\n      dup2\n        /* \"#utility.yul\":2498:2502   */\n      dup2\n        /* \"#utility.yul\":2494:2514   */\n      sub\n        /* \"#utility.yul\":2489:2491   */\n      0x40\n        /* \"#utility.yul\":2478:2487   */\n      dup4\n        /* \"#utility.yul\":2474:2492   */\n      add\n        /* \"#utility.yul\":2467:2515   */\n      mstore\n        /* \"#utility.yul\":2532:2610   */\n      tag_59\n        /* \"#utility.yul\":2605:2609   */\n      dup2\n        /* \"#utility.yul\":2596:2602   */\n      dup5\n        /* \"#utility.yul\":2532:2610   */\n      tag_46\n      jump\t// in\n    tag_59:\n        /* \"#utility.yul\":2524:2610   */\n      swap1\n      pop\n        /* \"#utility.yul\":2084:2617   */\n      swap5\n      swap4\n      pop\n      pop\n      pop\n      pop\n      jump\t// out\n        /* \"#utility.yul\":2623:2752   */\n    tag_17:\n        /* \"#utility.yul\":2657:2663   */\n      0x00\n        /* \"#utility.yul\":2684:2704   */\n      tag_61\n      tag_62\n      jump\t// in\n    tag_61:\n        /* \"#utility.yul\":2674:2704   */\n      swap1\n      pop\n        /* \"#utility.yul\":2713:2746   */\n      tag_63\n        /* \"#utility.yul\":2741:2745   */\n      dup3\n        /* \"#utility.yul\":2733:2739   */\n      dup3\n        /* \"#utility.yul\":2713:2746   */\n      tag_64\n      jump\t// in\n    tag_63:\n        /* \"#utility.yul\":2623:2752   */\n      swap2\n      swap1\n      pop\n      jump\t// out\n        /* \"#utility.yul\":2758:2833   */\n    tag_62:\n        /* \"#utility.yul\":2791:2797   */\n      0x00\n        /* \"#utility.yul\":2824:2826   */\n      0x40\n        /* \"#utility.yul\":2818:2827   */\n      mload\n        /* \"#utility.yul\":2808:2827   */\n      swap1\n      pop\n        /* \"#utility.yul\":2758:2833   */\n      swap1\n      jump\t// out\n        /* \"#utility.yul\":2839:3147   */\n    tag_16:\n        /* \"#utility.yul\":2901:2905   */\n      0x00\n        /* \"#utility.yul\":2991:3009   */\n      0xffffffffffffffff\n        /* \"#utility.yul\":2983:2989   */\n      dup3\n        /* \"#utility.yul\":2980:3010   */\n      gt\n        /* \"#utility.yul\":2977:3033   */\n      iszero\n      tag_67\n      jumpi\n        /* \"#utility.yul\":3013:3031   */\n      tag_68\n      tag_69\n      jump\t// in\n    tag_68:\n        /* \"#utility.yul\":2977:3033   */\n    tag_67:\n        /* \"#utility.yul\":3051:3080   */\n      tag_70\n        /* \"#utility.yul\":3073:3079   */\n      dup3\n        /* \"#utility.yul\":3051:3080   */\n      tag_55\n      jump\t// in\n    tag_70:\n        /* \"#utility.yul\":3043:3080   */\n      swap1\n      pop\n        /* \"#utility.yul\":3135:3139   */\n      0x20\n        /* \"#utility.yul\":3129:3133   */\n      dup2\n        /* \"#utility.yul\":3125:3140   */\n      add\n        /* \"#utility.yul\":3117:3140   */\n      swap1\n      pop\n        /* \"#utility.yul\":2839:3147   */\n      swap2\n      swap1\n      pop\n      jump\t// out\n        /* \"#utility.yul\":3153:3252   */\n    tag_49:\n        /* \"#utility.yul\":3205:3211   */\n      0x00\n        /* \"#utility.yul\":3239:3244   */\n      dup2\n        /* \"#utility.yul\":3233:3245   */\n      mload\n        /* \"#utility.yul\":3223:3245   */\n      swap1\n      pop\n        /* \"#utility.yul\":3153:3252   */\n      swap2\n      swap1\n      pop\n      jump\t// out\n        /* \"#utility.yul\":3258:3427   */\n    tag_51:\n        /* \"#utility.yul\":3342:3353   */\n      0x00\n        /* \"#utility.yul\":3376:3382   */\n      dup3\n        /* \"#utility.yul\":3371:3374   */\n      dup3\n        /* \"#utility.yul\":3364:3383   */\n      mstore\n        /* \"#utility.yul\":3416:3420   */\n      0x20\n        /* \"#utility.yul\":3411:3414   */\n      dup3\n        /* \"#utility.yul\":3407:3421   */\n      add\n        /* \"#utility.yul\":3392:3421   */\n      swap1\n      pop\n        /* \"#utility.yul\":3258:3427   */\n      swap3\n      swap2\n      pop\n      pop\n      jump\t// out\n        /* \"#utility.yul\":3433:3529   */\n    tag_45:\n        /* \"#utility.yul\":3470:3477   */\n      0x00\n        /* \"#utility.yul\":3499:3523   */\n      tag_74\n        /* \"#utility.yul\":3517:3522   */\n      dup3\n        /* \"#utility.yul\":3499:3523   */\n      tag_75\n      jump\t// in\n    tag_74:\n        /* \"#utility.yul\":3488:3523   */\n      swap1\n      pop\n        /* \"#utility.yul\":3433:3529   */\n      swap2\n      swap1\n      pop\n      jump\t// out\n        /* \"#utility.yul\":3535:3661   */\n    tag_75:\n        /* \"#utility.yul\":3572:3579   */\n      0x00\n        /* \"#utility.yul\":3612:3654   */\n      0xffffffffffffffffffffffffffffffffffffffff\n        /* \"#utility.yul\":3605:3610   */\n      dup3\n        /* \"#utility.yul\":3601:3655   */\n      and\n        /* \"#utility.yul\":3590:3655   */\n      swap1\n      pop\n        /* \"#utility.yul\":3535:3661   */\n      swap2\n      swap1\n      pop\n      jump\t// out\n        /* \"#utility.yul\":3667:3821   */\n    tag_22:\n        /* \"#utility.yul\":3751:3757   */\n      dup3\n        /* \"#utility.yul\":3746:3749   */\n      dup2\n        /* \"#utility.yul\":3741:3744   */\n      dup4\n        /* \"#utility.yul\":3728:3758   */\n      calldatacopy\n        /* \"#utility.yul\":3813:3814   */\n      0x00\n        /* \"#utility.yul\":3804:3810   */\n      dup4\n        /* \"#utility.yul\":3799:3802   */\n      dup4\n        /* \"#utility.yul\":3795:3811   */\n      add\n        /* \"#utility.yul\":3788:3815   */\n      mstore\n        /* \"#utility.yul\":3667:3821   */\n      pop\n      pop\n      pop\n      jump\t// out\n        /* \"#utility.yul\":3827:4134   */\n    tag_53:\n        /* \"#utility.yul\":3895:3896   */\n      0x00\n        /* \"#utility.yul\":3905:4018   */\n    tag_79:\n        /* \"#utility.yul\":3919:3925   */\n      dup4\n        /* \"#utility.yul\":3916:3917   */\n      dup2\n        /* \"#utility.yul\":3913:3926   */\n      lt\n        /* \"#utility.yul\":3905:4018   */\n      iszero\n      tag_81\n      jumpi\n        /* \"#utility.yul\":4004:4005   */\n      dup1\n        /* \"#utility.yul\":3999:4002   */\n      dup3\n        /* \"#utility.yul\":3995:4006   */\n      add\n        /* \"#utility.yul\":3989:4007   */\n      mload\n        /* \"#utility.yul\":3985:3986   */\n      dup2\n        /* \"#utility.yul\":3980:3983   */\n      dup5\n        /* \"#utility.yul\":3976:3987   */\n      add\n        /* \"#utility.yul\":3969:4008   */\n      mstore\n        /* \"#utility.yul\":3941:3943   */\n      0x20\n        /* \"#utility.yul\":3938:3939   */\n      dup2\n        /* \"#utility.yul\":3934:3944   */\n      add\n        /* \"#utility.yul\":3929:3944   */\n      swap1\n      pop\n        /* \"#utility.yul\":3905:4018   */\n      jump(tag_79)\n    tag_81:\n        /* \"#utility.yul\":4036:4042   */\n      dup4\n        /* \"#utility.yul\":4033:4034   */\n      dup2\n        /* \"#utility.yul\":4030:4043   */\n      gt\n        /* \"#utility.yul\":4027:4128   */\n      iszero\n      tag_82\n      jumpi\n        /* \"#utility.yul\":4116:4117   */\n      0x00\n        /* \"#utility.yul\":4107:4113   */\n      dup5\n        /* \"#utility.yul\":4102:4105   */\n      dup5\n        /* \"#utility.yul\":4098:4114   */\n      add\n        /* \"#utility.yul\":4091:4118   */\n      mstore\n        /* \"#utility.yul\":4027:4128   */\n    tag_82:\n        /* \"#utility.yul\":3876:4134   */\n      pop\n        /* \"#utility.yul\":3827:4134   */\n      pop\n      pop\n      pop\n      jump\t// out\n        /* \"#utility.yul\":4140:4421   */\n    tag_64:\n        /* \"#utility.yul\":4223:4250   */\n      tag_84\n        /* \"#utility.yul\":4245:4249   */\n      dup3\n        /* \"#utility.yul\":4223:4250   */\n      tag_55\n      jump\t// in\n    tag_84:\n        /* \"#utility.yul\":4215:4221   */\n      dup2\n        /* \"#utility.yul\":4211:4251   */\n      add\n        /* \"#utility.yul\":4353:4359   */\n      dup2\n        /* \"#utility.yul\":4341:4351   */\n      dup2\n        /* \"#utility.yul\":4338:4360   */\n      lt\n        /* \"#utility.yul\":4317:4335   */\n      0xffffffffffffffff\n        /* \"#utility.yul\":4305:4315   */\n      dup3\n        /* \"#utility.yul\":4302:4336   */\n      gt\n        /* \"#utility.yul\":4299:4361   */\n      or\n        /* \"#utility.yul\":4296:4384   */\n      iszero\n      tag_85\n      jumpi\n        /* \"#utility.yul\":4364:4382   */\n      tag_86\n      tag_69\n      jump\t// in\n    tag_86:\n        /* \"#utility.yul\":4296:4384   */\n    tag_85:\n        /* \"#utility.yul\":4404:4414   */\n      dup1\n        /* \"#utility.yul\":4400:4402   */\n      0x40\n        /* \"#utility.yul\":4393:4415   */\n      mstore\n        /* \"#utility.yul\":4183:4421   */\n      pop\n        /* \"#utility.yul\":4140:4421   */\n      pop\n      pop\n      jump\t// out\n        /* \"#utility.yul\":4427:4607   */\n    tag_69:\n        /* \"#utility.yul\":4475:4552   */\n      0x4e487b7100000000000000000000000000000000000000000000000000000000\n        /* \"#utility.yul\":4472:4473   */\n      0x00\n        /* \"#utility.yul\":4465:4553   */\n      mstore\n        /* \"#utility.yul\":4572:4576   */\n      0x41\n        /* \"#utility.yul\":4569:4570   */\n      0x04\n        /* \"#utility.yul\":4562:4577   */\n      mstore\n        /* \"#utility.yul\":4596:4600   */\n      0x24\n        /* \"#utility.yul\":4593:4594   */\n      0x00\n        /* \"#utility.yul\":4586:4601   */\n      revert\n        /* \"#utility.yul\":4613:4730   */\n    tag_31:\n        /* \"#utility.yul\":4722:4723   */\n      0x00\n        /* \"#utility.yul\":4719:4720   */\n      dup1\n        /* \"#utility.yul\":4712:4724   */\n      revert\n        /* \"#utility.yul\":4736:4853   */\n    tag_20:\n        /* \"#utility.yul\":4845:4846   */\n      0x00\n        /* \"#utility.yul\":4842:4843   */\n      dup1\n        /* \"#utility.yul\":4835:4847   */\n      revert\n        /* \"#utility.yul\":4859:4976   */\n    tag_40:\n        /* \"#utility.yul\":4968:4969   */\n      0x00\n        /* \"#utility.yul\":4965:4966   */\n      dup1\n        /* \"#utility.yul\":4958:4970   */\n      revert\n        /* \"#utility.yul\":4982:5099   */\n    tag_36:\n        /* \"#utility.yul\":5091:5092   */\n      0x00\n        /* \"#utility.yul\":5088:5089   */\n      dup1\n        /* \"#utility.yul\":5081:5093   */\n      revert\n        /* \"#utility.yul\":5105:5207   */\n    tag_55:\n        /* \"#utility.yul\":5146:5152   */\n      0x00\n        /* \"#utility.yul\":5197:5199   */\n      0x1f\n        /* \"#utility.yul\":5193:5200   */\n      not\n        /* \"#utility.yul\":5188:5190   */\n      0x1f\n        /* \"#utility.yul\":5181:5186   */\n      dup4\n        /* \"#utility.yul\":5177:5191   */\n      add\n        /* \"#utility.yul\":5173:5201   */\n      and\n        /* \"#utility.yul\":5163:5201   */\n      swap1\n      pop\n        /* \"#utility.yul\":5105:5207   */\n      swap2\n      swap1\n      pop\n      jump\t// out\n        /* \"#utility.yul\":5213:5335   */\n    tag_26:\n        /* \"#utility.yul\":5286:5310   */\n      tag_94\n        /* \"#utility.yul\":5304:5309   */\n      dup2\n        /* \"#utility.yul\":5286:5310   */\n      tag_45\n      jump\t// in\n    tag_94:\n        /* \"#utility.yul\":5279:5284   */\n      dup2\n        /* \"#utility.yul\":5276:5311   */\n      eq\n        /* \"#utility.yul\":5266:5329   */\n      tag_95\n      jumpi\n        /* \"#utility.yul\":5325:5326   */\n      0x00\n        /* \"#utility.yul\":5322:5323   */\n      dup1\n        /* \"#utility.yul\":5315:5327   */\n      revert\n        /* \"#utility.yul\":5266:5329   */\n    tag_95:\n        /* \"#utility.yul\":5213:5335   */\n      pop\n      jump\t// out\n\n    auxdata: 0xa2646970667358221220c8dcc4ef71fcd28f1135313080732781cf7a61cb0cf0e602ffbf28681b8be30364736f6c63430008070033\n}\n",
				"bytecode": {
					"linkReferences": {},
					"object": "608060405234801561001057600080fd5b506103aa806100206000396000f3fe608060405234801561001057600080fd5b506004361061002b5760003560e01c8063de6f24bb14610030575b600080fd5b61004a60048036038101906100459190610110565b61004c565b005b7f2f6ff1dea5e6d5466e44de328c6f4518b6da78f98b2b55273306901a3f0b346c33838360405161007f939291906101b4565b60405180910390a15050565b600061009e61009984610217565b6101f2565b9050828152602081018484840111156100ba576100b961033d565b5b6100c5848285610296565b509392505050565b6000813590506100dc8161035d565b92915050565b600082601f8301126100f7576100f6610338565b5b813561010784826020860161008b565b91505092915050565b6000806040838503121561012757610126610347565b5b6000610135858286016100cd565b925050602083013567ffffffffffffffff81111561015657610155610342565b5b610162858286016100e2565b9150509250929050565b61017581610264565b82525050565b600061018682610248565b6101908185610253565b93506101a08185602086016102a5565b6101a98161034c565b840191505092915050565b60006060820190506101c9600083018661016c565b6101d6602083018561016c565b81810360408301526101e8818461017b565b9050949350505050565b60006101fc61020d565b905061020882826102d8565b919050565b6000604051905090565b600067ffffffffffffffff82111561023257610231610309565b5b61023b8261034c565b9050602081019050919050565b600081519050919050565b600082825260208201905092915050565b600061026f82610276565b9050919050565b600073ffffffffffffffffffffffffffffffffffffffff82169050919050565b82818337600083830152505050565b60005b838110156102c35780820151818401526020810190506102a8565b838111156102d2576000848401525b50505050565b6102e18261034c565b810181811067ffffffffffffffff82111715610300576102ff610309565b5b80604052505050565b7f4e487b7100000000000000000000000000000000000000000000000000000000600052604160045260246000fd5b600080fd5b600080fd5b600080fd5b600080fd5b6000601f19601f8301169050919050565b61036681610264565b811461037157600080fd5b5056fea2646970667358221220c8dcc4ef71fcd28f1135313080732781cf7a61cb0cf0e602ffbf28681b8be30364736f6c63430008070033",
					"opcodes": "PUSH1 0x80 PUSH1 0x40 MSTORE CALLVALUE DUP1 ISZERO PUSH2 0x10 JUMPI PUSH1 0x0 DUP1 REVERT JUMPDEST POP PUSH2 0x3AA DUP1 PUSH2 0x20 PUSH1 0x0 CODECOPY PUSH1 0x0 RETURN INVALID PUSH1 0x80 PUSH1 0x40 MSTORE CALLVALUE DUP1 ISZERO PUSH2 0x10 JUMPI PUSH1 0x0 DUP1 REVERT JUMPDEST POP PUSH1 0x4 CALLDATASIZE LT PUSH2 0x2B JUMPI PUSH1 0x0 CALLDATALOAD PUSH1 0xE0 SHR DUP1 PUSH4 0xDE6F24BB EQ PUSH2 0x30 JUMPI JUMPDEST PUSH1 0x0 DUP1 REVERT JUMPDEST PUSH2 0x4A PUSH1 0x4 DUP1 CALLDATASIZE SUB DUP2 ADD SWAP1 PUSH2 0x45 SWAP2 SWAP1 PUSH2 0x110 JUMP JUMPDEST PUSH2 0x4C JUMP JUMPDEST STOP JUMPDEST PUSH32 0x2F6FF1DEA5E6D5466E44DE328C6F4518B6DA78F98B2B55273306901A3F0B346C CALLER DUP4 DUP4 PUSH1 0x40 MLOAD PUSH2 0x7F SWAP4 SWAP3 SWAP2 SWAP1 PUSH2 0x1B4 JUMP JUMPDEST PUSH1 0x40 MLOAD DUP1 SWAP2 SUB SWAP1 LOG1 POP POP JUMP JUMPDEST PUSH1 0x0 PUSH2 0x9E PUSH2 0x99 DUP5 PUSH2 0x217 JUMP JUMPDEST PUSH2 0x1F2 JUMP JUMPDEST SWAP1 POP DUP3 DUP2 MSTORE PUSH1 0x20 DUP2 ADD DUP5 DUP5 DUP5 ADD GT ISZERO PUSH2 0xBA JUMPI PUSH2 0xB9 PUSH2 0x33D JUMP JUMPDEST JUMPDEST PUSH2 0xC5 DUP5 DUP3 DUP6 PUSH2 0x296 JUMP JUMPDEST POP SWAP4 SWAP3 POP POP POP JUMP JUMPDEST PUSH1 0x0 DUP2 CALLDATALOAD SWAP1 POP PUSH2 0xDC DUP2 PUSH2 0x35D JUMP JUMPDEST SWAP3 SWAP2 POP POP JUMP JUMPDEST PUSH1 0x0 DUP3 PUSH1 0x1F DUP4 ADD SLT PUSH2 0xF7 JUMPI PUSH2 0xF6 PUSH2 0x338 JUMP JUMPDEST JUMPDEST DUP2 CALLDATALOAD PUSH2 0x107 DUP5 DUP3 PUSH1 0x20 DUP7 ADD PUSH2 0x8B JUMP JUMPDEST SWAP2 POP POP SWAP3 SWAP2 POP POP JUMP JUMPDEST PUSH1 0x0 DUP1 PUSH1 0x40 DUP4 DUP6 SUB SLT ISZERO PUSH2 0x127 JUMPI PUSH2 0x126 PUSH2 0x347 JUMP JUMPDEST JUMPDEST PUSH1 0x0 PUSH2 0x135 DUP6 DUP3 DUP7 ADD PUSH2 0xCD JUMP JUMPDEST SWAP3 POP POP PUSH1 0x20 DUP4 ADD CALLDATALOAD PUSH8 0xFFFFFFFFFFFFFFFF DUP2 GT ISZERO PUSH2 0x156 JUMPI PUSH2 0x155 PUSH2 0x342 JUMP JUMPDEST JUMPDEST PUSH2 0x162 DUP6 DUP3 DUP7 ADD PUSH2 0xE2 JUMP JUMPDEST SWAP2 POP POP SWAP3 POP SWAP3 SWAP1 POP JUMP JUMPDEST PUSH2 0x175 DUP2 PUSH2 0x264 JUMP JUMPDEST DUP3 MSTORE POP POP JUMP JUMPDEST PUSH1 0x0 PUSH2 0x186 DUP3 PUSH2 0x248 JUMP JUMPDEST PUSH2 0x190 DUP2 DUP6 PUSH2 0x253 JUMP JUMPDEST SWAP4 POP PUSH2 0x1A0 DUP2 DUP6 PUSH1 0x20 DUP7 ADD PUSH2 0x2A5 JUMP JUMPDEST PUSH2 0x1A9 DUP2 PUSH2 0x34C JUMP JUMPDEST DUP5 ADD SWAP2 POP POP SWAP3 SWAP2 POP POP JUMP JUMPDEST PUSH1 0x0 PUSH1 0x60 DUP3 ADD SWAP1 POP PUSH2 0x1C9 PUSH1 0x0 DUP4 ADD DUP7 PUSH2 0x16C JUMP JUMPDEST PUSH2 0x1D6 PUSH1 0x20 DUP4 ADD DUP6 PUSH2 0x16C JUMP JUMPDEST DUP2 DUP2 SUB PUSH1 0x40 DUP4 ADD MSTORE PUSH2 0x1E8 DUP2 DUP5 PUSH2 0x17B JUMP JUMPDEST SWAP1 POP SWAP5 SWAP4 POP POP POP POP JUMP JUMPDEST PUSH1 0x0 PUSH2 0x1FC PUSH2 0x20D JUMP JUMPDEST SWAP1 POP PUSH2 0x208 DUP3 DUP3 PUSH2 0x2D8 JUMP JUMPDEST SWAP2 SWAP1 POP JUMP JUMPDEST PUSH1 0x0 PUSH1 0x40 MLOAD SWAP1 POP SWAP1 JUMP JUMPDEST PUSH1 0x0 PUSH8 0xFFFFFFFFFFFFFFFF DUP3 GT ISZERO PUSH2 0x232 JUMPI PUSH2 0x231 PUSH2 0x309 JUMP JUMPDEST JUMPDEST PUSH2 0x23B DUP3 PUSH2 0x34C JUMP JUMPDEST SWAP1 POP PUSH1 0x20 DUP2 ADD SWAP1 POP SWAP2 SWAP1 POP JUMP JUMPDEST PUSH1 0x0 DUP2 MLOAD SWAP1 POP SWAP2 SWAP1 POP JUMP JUMPDEST PUSH1 0x0 DUP3 DUP3 MSTORE PUSH1 0x20 DUP3 ADD SWAP1 POP SWAP3 SWAP2 POP POP JUMP JUMPDEST PUSH1 0x0 PUSH2 0x26F DUP3 PUSH2 0x276 JUMP JUMPDEST SWAP1 POP SWAP2 SWAP1 POP JUMP JUMPDEST PUSH1 0x0 PUSH20 0xFFFFFFFFFFFFFFFFFFFFFFFFFFFFFFFFFFFFFFFF DUP3 AND SWAP1 POP SWAP2 SWAP1 POP JUMP JUMPDEST DUP3 DUP2 DUP4 CALLDATACOPY PUSH1 0x0 DUP4 DUP4 ADD MSTORE POP POP POP JUMP JUMPDEST PUSH1 0x0 JUMPDEST DUP4 DUP2 LT ISZERO PUSH2 0x2C3 JUMPI DUP1 DUP3 ADD MLOAD DUP2 DUP5 ADD MSTORE PUSH1 0x20 DUP2 ADD SWAP1 POP PUSH2 0x2A8 JUMP JUMPDEST DUP4 DUP2 GT ISZERO PUSH2 0x2D2 JUMPI PUSH1 0x0 DUP5 DUP5 ADD MSTORE JUMPDEST POP POP POP POP JUMP JUMPDEST PUSH2 0x2E1 DUP3 PUSH2 0x34C JUMP JUMPDEST DUP2 ADD DUP2 DUP2 LT PUSH8 0xFFFFFFFFFFFFFFFF DUP3 GT OR ISZERO PUSH2 0x300 JUMPI PUSH2 0x2FF PUSH2 0x309 JUMP JUMPDEST JUMPDEST DUP1 PUSH1 0x40 MSTORE POP POP POP JUMP JUMPDEST PUSH32 0x4E487B7100000000000000000000000000000000000000000000000000000000 PUSH1 0x0 MSTORE PUSH1 0x41 PUSH1 0x4 MSTORE PUSH1 0x24 PUSH1 0x0 REVERT JUMPDEST PUSH1 0x0 DUP1 REVERT JUMPDEST PUSH1 0x0 DUP1 REVERT JUMPDEST PUSH1 0x0 DUP1 REVERT JUMPDEST PUSH1 0x0 DUP1 REVERT JUMPDEST PUSH1 0x0 PUSH1 0x1F NOT PUSH1 0x1F DUP4 ADD AND SWAP1 POP SWAP2 SWAP1 POP JUMP JUMPDEST PUSH2 0x366 DUP2 PUSH2 0x264 JUMP JUMPDEST DUP2 EQ PUSH2 0x371 JUMPI PUSH1 0x0 DUP1 REVERT JUMPDEST POP JUMP INVALID LOG2 PUSH5 0x6970667358 0x22 SLT KECCAK256 0xC8 0xDC 0xC4 0xEF PUSH18 0xFCD28F1135313080732781CF7A61CB0CF0E6 MUL SELFDESTRUCT 0xBF 0x28 PUSH9 0x1B8BE30364736F6C63 NUMBER STOP ADDMOD SMOD STOP CALLER "
				},
				"gasEstimates": {
					"creation": {
						"codeDepositCost": "187600",
						"executionCost": "232",
						"totalCost": "187832"
					},
					"external": {
						"sendMessage(address,string)": "infinite"
					}
				},
				"methodIdentifiers": {
					"sendMessage(address,string)": "de6f24bb"
				}
			},
			"storageLayout": {
				"storage": [],
				"types": null
			},
			"userdoc": {
				"kind": "user",
				"methods": {},
				"version": 1
			}
		}
	}
}