{
	"lotterySmartContract.sol": {
		"Lottery": {
			"abi": [
				{
					"inputs": [],
					"stateMutability": "nonpayable",
					"type": "constructor"
				},
				{
					"inputs": [],
					"name": "enter",
					"outputs": [],
					"stateMutability": "payable",
					"type": "function"
				},
				{
					"inputs": [],
					"name": "manager",
					"outputs": [
						{
							"internalType": "address",
							"name": "",
							"type": "address"
						}
					],
					"stateMutability": "view",
					"type": "function"
				},
				{
					"inputs": [],
					"name": "pickWinner",
					"outputs": [],
					"stateMutability": "nonpayable",
					"type": "function"
				},
				{
					"inputs": [
						{
							"internalType": "uint256",
							"name": "",
							"type": "uint256"
						}
					],
					"name": "players",
					"outputs": [
						{
							"internalType": "address payable",
							"name": "",
							"type": "address"
						}
					],
					"stateMutability": "view",
					"type": "function"
				}
			],
			"devdoc": {
				"kind": "dev",
				"methods": {},
				"version": 1
			},
			"evm": {
				"assembly": "    /* \"lotterySmartContract.sol\":62:1201  contract Lottery{... */\n  mstore(0x40, 0x80)\n    /* \"lotterySmartContract.sol\":153:203  constructor(){... */\n  callvalue\n  dup1\n  iszero\n  tag_1\n  jumpi\n  0x00\n  dup1\n  revert\ntag_1:\n  pop\n    /* \"lotterySmartContract.sol\":186:196  msg.sender */\n  caller\n    /* \"lotterySmartContract.sol\":176:183  manager */\n  0x00\n  dup1\n    /* \"lotterySmartContract.sol\":176:196  manager = msg.sender */\n  0x0100\n  exp\n  dup2\n  sload\n  dup2\n  0xffffffffffffffffffffffffffffffffffffffff\n  mul\n  not\n  and\n  swap1\n  dup4\n  0xffffffffffffffffffffffffffffffffffffffff\n  and\n  mul\n  or\n  swap1\n  sstore\n  pop\n    /* \"lotterySmartContract.sol\":62:1201  contract Lottery{... */\n  dataSize(sub_0)\n  dup1\n  dataOffset(sub_0)\n  0x00\n  codecopy\n  0x00\n  return\nstop\n\nsub_0: assembly {\n        /* \"lotterySmartContract.sol\":62:1201  contract Lottery{... */\n      mstore(0x40, 0x80)\n      jumpi(tag_1, lt(calldatasize, 0x04))\n      shr(0xe0, calldataload(0x00))\n      dup1\n      0x481c6a75\n      eq\n      tag_2\n      jumpi\n      dup1\n      0x5d495aea\n      eq\n      tag_3\n      jumpi\n      dup1\n      0xe97dcb62\n      eq\n      tag_4\n      jumpi\n      dup1\n      0xf71d96cb\n      eq\n      tag_5\n      jumpi\n    tag_1:\n      0x00\n      dup1\n      revert\n        /* \"lotterySmartContract.sol\":85:107  address public manager */\n    tag_2:\n      callvalue\n      dup1\n      iszero\n      tag_6\n      jumpi\n      0x00\n      dup1\n      revert\n    tag_6:\n      pop\n      tag_7\n      tag_8\n      jump\t// in\n    tag_7:\n      mload(0x40)\n      tag_9\n      swap2\n      swap1\n      tag_10\n      jump\t// in\n    tag_9:\n      mload(0x40)\n      dup1\n      swap2\n      sub\n      swap1\n      return\n        /* \"lotterySmartContract.sol\":893:1197  function pickWinner() public{... */\n    tag_3:\n      callvalue\n      dup1\n      iszero\n      tag_11\n      jumpi\n      0x00\n      dup1\n      revert\n    tag_11:\n      pop\n      tag_12\n      tag_13\n      jump\t// in\n    tag_12:\n      stop\n        /* \"lotterySmartContract.sol\":437:741  function enter() payable public{... */\n    tag_4:\n      tag_14\n      tag_15\n      jump\t// in\n    tag_14:\n      stop\n        /* \"lotterySmartContract.sol\":113:145  address payable[] public players */\n    tag_5:\n      callvalue\n      dup1\n      iszero\n      tag_16\n      jumpi\n      0x00\n      dup1\n      revert\n    tag_16:\n      pop\n      tag_17\n      0x04\n      dup1\n      calldatasize\n      sub\n      dup2\n      add\n      swap1\n      tag_18\n      swap2\n      swap1\n      tag_19\n      jump\t// in\n    tag_18:\n      tag_20\n      jump\t// in\n    tag_17:\n      mload(0x40)\n      tag_21\n      swap2\n      swap1\n      tag_22\n      jump\t// in\n    tag_21:\n      mload(0x40)\n      dup1\n      swap2\n      sub\n      swap1\n      return\n        /* \"lotterySmartContract.sol\":85:107  address public manager */\n    tag_8:\n      0x00\n      dup1\n      sload\n      swap1\n      0x0100\n      exp\n      swap1\n      div\n      0xffffffffffffffffffffffffffffffffffffffff\n      and\n      dup2\n      jump\t// out\n        /* \"lotterySmartContract.sol\":893:1197  function pickWinner() public{... */\n    tag_13:\n        /* \"lotterySmartContract.sol\":953:960  manager */\n      0x00\n      dup1\n      sload\n      swap1\n      0x0100\n      exp\n      swap1\n      div\n      0xffffffffffffffffffffffffffffffffffffffff\n      and\n        /* \"lotterySmartContract.sol\":939:960  msg.sender == manager */\n      0xffffffffffffffffffffffffffffffffffffffff\n      and\n        /* \"lotterySmartContract.sol\":939:949  msg.sender */\n      caller\n        /* \"lotterySmartContract.sol\":939:960  msg.sender == manager */\n      0xffffffffffffffffffffffffffffffffffffffff\n      and\n      eq\n        /* \"lotterySmartContract.sol\":931:993  require(msg.sender == manager, \"Manager only pick the winner\") */\n      tag_24\n      jumpi\n      mload(0x40)\n      0x08c379a000000000000000000000000000000000000000000000000000000000\n      dup2\n      mstore\n      0x04\n      add\n      tag_25\n      swap1\n      tag_26\n      jump\t// in\n    tag_25:\n      mload(0x40)\n      dup1\n      swap2\n      sub\n      swap1\n      revert\n    tag_24:\n        /* \"lotterySmartContract.sol\":1003:1013  uint index */\n      0x00\n        /* \"lotterySmartContract.sol\":1025:1032  players */\n      0x01\n        /* \"lotterySmartContract.sol\":1025:1039  players.length */\n      dup1\n      sload\n      swap1\n      pop\n        /* \"lotterySmartContract.sol\":1016:1024  random() */\n      tag_27\n        /* \"lotterySmartContract.sol\":1016:1022  random */\n      tag_28\n        /* \"lotterySmartContract.sol\":1016:1024  random() */\n      jump\t// in\n    tag_27:\n        /* \"lotterySmartContract.sol\":1016:1039  random()%players.length */\n      tag_29\n      swap2\n      swap1\n      tag_30\n      jump\t// in\n    tag_29:\n        /* \"lotterySmartContract.sol\":1003:1039  uint index = random()%players.length */\n      swap1\n      pop\n        /* \"lotterySmartContract.sol\":1049:1072  address contractAddress */\n      0x00\n        /* \"lotterySmartContract.sol\":1083:1087  this */\n      address\n        /* \"lotterySmartContract.sol\":1049:1088  address contractAddress = address(this) */\n      swap1\n      pop\n        /* \"lotterySmartContract.sol\":1098:1105  players */\n      0x01\n        /* \"lotterySmartContract.sol\":1106:1111  index */\n      dup3\n        /* \"lotterySmartContract.sol\":1098:1112  players[index] */\n      dup2\n      sload\n      dup2\n      lt\n      tag_31\n      jumpi\n      tag_32\n      tag_33\n      jump\t// in\n    tag_32:\n    tag_31:\n      swap1\n      0x00\n      mstore\n      keccak256(0x00, 0x20)\n      add\n      0x00\n      swap1\n      sload\n      swap1\n      0x0100\n      exp\n      swap1\n      div\n      0xffffffffffffffffffffffffffffffffffffffff\n      and\n        /* \"lotterySmartContract.sol\":1098:1121  players[index].transfer */\n      0xffffffffffffffffffffffffffffffffffffffff\n      and\n        /* \"lotterySmartContract.sol\":1098:1146  players[index].transfer(contractAddress.balance) */\n      0x08fc\n        /* \"lotterySmartContract.sol\":1122:1137  contractAddress */\n      dup3\n        /* \"lotterySmartContract.sol\":1122:1145  contractAddress.balance */\n      0xffffffffffffffffffffffffffffffffffffffff\n      and\n      balance\n        /* \"lotterySmartContract.sol\":1098:1146  players[index].transfer(contractAddress.balance) */\n      swap1\n      dup2\n      iszero\n      mul\n      swap1\n      mload(0x40)\n      0x00\n      mload(0x40)\n      dup1\n      dup4\n      sub\n      dup2\n      dup6\n      dup9\n      dup9\n      call\n      swap4\n      pop\n      pop\n      pop\n      pop\n      iszero\n      dup1\n      iszero\n      tag_36\n      jumpi\n      returndatasize\n      0x00\n      dup1\n      returndatacopy\n      revert(0x00, returndatasize)\n    tag_36:\n      pop\n        /* \"lotterySmartContract.sol\":1188:1189  0 */\n      0x00\n        /* \"lotterySmartContract.sol\":1166:1190  new address payable[](0) */\n      0xffffffffffffffff\n      dup2\n      gt\n      iszero\n      tag_37\n      jumpi\n      tag_38\n      tag_39\n      jump\t// in\n    tag_38:\n    tag_37:\n      mload(0x40)\n      swap1\n      dup1\n      dup3\n      mstore\n      dup1\n      0x20\n      mul\n      0x20\n      add\n      dup3\n      add\n      0x40\n      mstore\n      dup1\n      iszero\n      tag_40\n      jumpi\n      dup2\n      0x20\n      add\n      0x20\n      dup3\n      mul\n      dup1\n      calldatasize\n      dup4\n      calldatacopy\n      dup1\n      dup3\n      add\n      swap2\n      pop\n      pop\n      swap1\n      pop\n    tag_40:\n      pop\n        /* \"lotterySmartContract.sol\":1156:1163  players */\n      0x01\n        /* \"lotterySmartContract.sol\":1156:1190  players = new address payable[](0) */\n      swap1\n      dup1\n      mload\n      swap1\n      0x20\n      add\n      swap1\n      tag_41\n      swap3\n      swap2\n      swap1\n      tag_42\n      jump\t// in\n    tag_41:\n      pop\n        /* \"lotterySmartContract.sol\":921:1197  {... */\n      pop\n      pop\n        /* \"lotterySmartContract.sol\":893:1197  function pickWinner() public{... */\n      jump\t// out\n        /* \"lotterySmartContract.sol\":437:741  function enter() payable public{... */\n    tag_15:\n        /* \"lotterySmartContract.sol\":500:507  manager */\n      0x00\n      dup1\n      sload\n      swap1\n      0x0100\n      exp\n      swap1\n      div\n      0xffffffffffffffffffffffffffffffffffffffff\n      and\n        /* \"lotterySmartContract.sol\":486:507  msg.sender != manager */\n      0xffffffffffffffffffffffffffffffffffffffff\n      and\n        /* \"lotterySmartContract.sol\":486:496  msg.sender */\n      caller\n        /* \"lotterySmartContract.sol\":486:507  msg.sender != manager */\n      0xffffffffffffffffffffffffffffffffffffffff\n      and\n      eq\n      iszero\n        /* \"lotterySmartContract.sol\":478:547  require(msg.sender != manager, \"Manager cannot enter in Competition\") */\n      tag_44\n      jumpi\n      mload(0x40)\n      0x08c379a000000000000000000000000000000000000000000000000000000000\n      dup2\n      mstore\n      0x04\n      add\n      tag_45\n      swap1\n      tag_46\n      jump\t// in\n    tag_45:\n      mload(0x40)\n      dup1\n      swap2\n      sub\n      swap1\n      revert\n    tag_44:\n        /* \"lotterySmartContract.sol\":585:590  false */\n      0x00\n        /* \"lotterySmartContract.sol\":565:590  alreadyEnteres() == false */\n      iszero\n      iszero\n        /* \"lotterySmartContract.sol\":565:581  alreadyEnteres() */\n      tag_47\n        /* \"lotterySmartContract.sol\":565:579  alreadyEnteres */\n      tag_48\n        /* \"lotterySmartContract.sol\":565:581  alreadyEnteres() */\n      jump\t// in\n    tag_47:\n        /* \"lotterySmartContract.sol\":565:590  alreadyEnteres() == false */\n      iszero\n      iszero\n      eq\n        /* \"lotterySmartContract.sol\":557:622  require(alreadyEnteres() == false, \"Player already Participated\") */\n      tag_49\n      jumpi\n      mload(0x40)\n      0x08c379a000000000000000000000000000000000000000000000000000000000\n      dup2\n      mstore\n      0x04\n      add\n      tag_50\n      swap1\n      tag_51\n      jump\t// in\n    tag_50:\n      mload(0x40)\n      dup1\n      swap2\n      sub\n      swap1\n      revert\n    tag_49:\n        /* \"lotterySmartContract.sol\":653:660  1 ether */\n      0x0de0b6b3a7640000\n        /* \"lotterySmartContract.sol\":640:649  msg.value */\n      callvalue\n        /* \"lotterySmartContract.sol\":640:660  msg.value >= 1 ether */\n      lt\n      iszero\n        /* \"lotterySmartContract.sol\":632:691  require(msg.value >= 1 ether, \"Mininmun amount is ! ether\") */\n      tag_52\n      jumpi\n      mload(0x40)\n      0x08c379a000000000000000000000000000000000000000000000000000000000\n      dup2\n      mstore\n      0x04\n      add\n      tag_53\n      swap1\n      tag_54\n      jump\t// in\n    tag_53:\n      mload(0x40)\n      dup1\n      swap2\n      sub\n      swap1\n      revert\n    tag_52:\n        /* \"lotterySmartContract.sol\":701:708  players */\n      0x01\n        /* \"lotterySmartContract.sol\":722:732  msg.sender */\n      caller\n        /* \"lotterySmartContract.sol\":701:734  players.push(payable(msg.sender)) */\n      swap1\n      dup1\n      0x01\n      dup2\n      sload\n      add\n      dup1\n      dup3\n      sstore\n      dup1\n      swap2\n      pop\n      pop\n      0x01\n      swap1\n      sub\n      swap1\n      0x00\n      mstore\n      keccak256(0x00, 0x20)\n      add\n      0x00\n      swap1\n      swap2\n      swap1\n      swap2\n      swap1\n      swap2\n      0x0100\n      exp\n      dup2\n      sload\n      dup2\n      0xffffffffffffffffffffffffffffffffffffffff\n      mul\n      not\n      and\n      swap1\n      dup4\n      0xffffffffffffffffffffffffffffffffffffffff\n      and\n      mul\n      or\n      swap1\n      sstore\n      pop\n        /* \"lotterySmartContract.sol\":437:741  function enter() payable public{... */\n      jump\t// out\n        /* \"lotterySmartContract.sol\":113:145  address payable[] public players */\n    tag_20:\n      0x01\n      dup2\n      dup2\n      sload\n      dup2\n      lt\n      tag_56\n      jumpi\n      0x00\n      dup1\n      revert\n    tag_56:\n      swap1\n      0x00\n      mstore\n      keccak256(0x00, 0x20)\n      add\n      0x00\n      swap2\n      pop\n      sload\n      swap1\n      0x0100\n      exp\n      swap1\n      div\n      0xffffffffffffffffffffffffffffffffffffffff\n      and\n      dup2\n      jump\t// out\n        /* \"lotterySmartContract.sol\":748:887  function random() view private returns(uint){... */\n    tag_28:\n        /* \"lotterySmartContract.sol\":787:791  uint */\n      0x00\n        /* \"lotterySmartContract.sol\":814:879  sha256(abi.encodePacked(block.difficulty, block.number, players)) */\n      0x02\n        /* \"lotterySmartContract.sol\":838:854  block.difficulty */\n      difficulty\n        /* \"lotterySmartContract.sol\":856:868  block.number */\n      number\n        /* \"lotterySmartContract.sol\":870:877  players */\n      0x01\n        /* \"lotterySmartContract.sol\":821:878  abi.encodePacked(block.difficulty, block.number, players) */\n      add(0x20, mload(0x40))\n      tag_59\n      swap4\n      swap3\n      swap2\n      swap1\n      tag_60\n      jump\t// in\n    tag_59:\n      mload(0x40)\n      0x20\n      dup2\n      dup4\n      sub\n      sub\n      dup2\n      mstore\n      swap1\n      0x40\n      mstore\n        /* \"lotterySmartContract.sol\":814:879  sha256(abi.encodePacked(block.difficulty, block.number, players)) */\n      mload(0x40)\n      tag_61\n      swap2\n      swap1\n      tag_62\n      jump\t// in\n    tag_61:\n      0x20\n      mload(0x40)\n      dup1\n      dup4\n      sub\n      dup2\n      dup6\n      gas\n      staticcall\n      iszero\n      dup1\n      iszero\n      tag_64\n      jumpi\n      returndatasize\n      0x00\n      dup1\n      returndatacopy\n      revert(0x00, returndatasize)\n    tag_64:\n      pop\n      pop\n      pop\n      mload(0x40)\n      returndatasize\n      not(0x1f)\n      0x1f\n      dup3\n      add\n      and\n      dup3\n      add\n      dup1\n      0x40\n      mstore\n      pop\n      dup2\n      add\n      swap1\n      tag_65\n      swap2\n      swap1\n      tag_66\n      jump\t// in\n    tag_65:\n        /* \"lotterySmartContract.sol\":809:880  uint(sha256(abi.encodePacked(block.difficulty, block.number, players))) */\n      0x00\n      shr\n        /* \"lotterySmartContract.sol\":802:880  return uint(sha256(abi.encodePacked(block.difficulty, block.number, players))) */\n      swap1\n      pop\n        /* \"lotterySmartContract.sol\":748:887  function random() view private returns(uint){... */\n      swap1\n      jump\t// out\n        /* \"lotterySmartContract.sol\":209:431  function alreadyEnteres() view private returns(bool){... */\n    tag_48:\n        /* \"lotterySmartContract.sol\":256:260  bool */\n      0x00\n        /* \"lotterySmartContract.sol\":275:281  uint i */\n      dup1\n        /* \"lotterySmartContract.sol\":282:283  0 */\n      0x00\n        /* \"lotterySmartContract.sol\":275:283  uint i=0 */\n      swap1\n      pop\n        /* \"lotterySmartContract.sol\":271:403  for(uint i=0; i<players.length;i++ ){... */\n    tag_68:\n        /* \"lotterySmartContract.sol\":287:294  players */\n      0x01\n        /* \"lotterySmartContract.sol\":287:301  players.length */\n      dup1\n      sload\n      swap1\n      pop\n        /* \"lotterySmartContract.sol\":285:286  i */\n      dup2\n        /* \"lotterySmartContract.sol\":285:301  i<players.length */\n      lt\n        /* \"lotterySmartContract.sol\":271:403  for(uint i=0; i<players.length;i++ ){... */\n      iszero\n      tag_69\n      jumpi\n        /* \"lotterySmartContract.sol\":338:345  players */\n      0x01\n        /* \"lotterySmartContract.sol\":346:347  i */\n      dup2\n        /* \"lotterySmartContract.sol\":338:348  players[i] */\n      dup2\n      sload\n      dup2\n      lt\n      tag_71\n      jumpi\n      tag_72\n      tag_33\n      jump\t// in\n    tag_72:\n    tag_71:\n      swap1\n      0x00\n      mstore\n      keccak256(0x00, 0x20)\n      add\n      0x00\n      swap1\n      sload\n      swap1\n      0x0100\n      exp\n      swap1\n      div\n      0xffffffffffffffffffffffffffffffffffffffff\n      and\n        /* \"lotterySmartContract.sol\":324:348  msg.sender == players[i] */\n      0xffffffffffffffffffffffffffffffffffffffff\n      and\n        /* \"lotterySmartContract.sol\":324:334  msg.sender */\n      caller\n        /* \"lotterySmartContract.sol\":324:348  msg.sender == players[i] */\n      0xffffffffffffffffffffffffffffffffffffffff\n      and\n      eq\n        /* \"lotterySmartContract.sol\":321:393  if(msg.sender == players[i]){... */\n      iszero\n      tag_74\n      jumpi\n        /* \"lotterySmartContract.sol\":374:378  true */\n      0x01\n        /* \"lotterySmartContract.sol\":367:378  return true */\n      swap2\n      pop\n      pop\n      jump(tag_67)\n        /* \"lotterySmartContract.sol\":321:393  if(msg.sender == players[i]){... */\n    tag_74:\n        /* \"lotterySmartContract.sol\":302:305  i++ */\n      dup1\n      dup1\n      tag_75\n      swap1\n      tag_76\n      jump\t// in\n    tag_75:\n      swap2\n      pop\n      pop\n        /* \"lotterySmartContract.sol\":271:403  for(uint i=0; i<players.length;i++ ){... */\n      jump(tag_68)\n    tag_69:\n      pop\n        /* \"lotterySmartContract.sol\":419:424  false */\n      0x00\n        /* \"lotterySmartContract.sol\":412:424  return false */\n      swap1\n      pop\n        /* \"lotterySmartContract.sol\":209:431  function alreadyEnteres() view private returns(bool){... */\n    tag_67:\n      swap1\n      jump\t// out\n    tag_42:\n      dup3\n      dup1\n      sload\n      dup3\n      dup3\n      sstore\n      swap1\n      0x00\n      mstore\n      keccak256(0x00, 0x20)\n      swap1\n      dup2\n      add\n      swap3\n      dup3\n      iszero\n      tag_77\n      jumpi\n      swap2\n      0x20\n      mul\n      dup3\n      add\n    tag_78:\n      dup3\n      dup2\n      gt\n      iszero\n      tag_79\n      jumpi\n      dup3\n      mload\n      dup3\n      exp(0x0100, 0x00)\n      dup2\n      sload\n      dup2\n      0xffffffffffffffffffffffffffffffffffffffff\n      mul\n      not\n      and\n      swap1\n      dup4\n      0xffffffffffffffffffffffffffffffffffffffff\n      and\n      mul\n      or\n      swap1\n      sstore\n      pop\n      swap2\n      0x20\n      add\n      swap2\n      swap1\n      0x01\n      add\n      swap1\n      jump(tag_78)\n    tag_79:\n    tag_77:\n      pop\n      swap1\n      pop\n      tag_80\n      swap2\n      swap1\n      tag_81\n      jump\t// in\n    tag_80:\n      pop\n      swap1\n      jump\t// out\n    tag_81:\n    tag_82:\n      dup1\n      dup3\n      gt\n      iszero\n      tag_83\n      jumpi\n      0x00\n      dup2\n      0x00\n      swap1\n      sstore\n      pop\n      0x01\n      add\n      jump(tag_82)\n    tag_83:\n      pop\n      swap1\n      jump\t// out\n        /* \"#utility.yul\":7:150   */\n    tag_85:\n        /* \"#utility.yul\":64:69   */\n      0x00\n        /* \"#utility.yul\":95:101   */\n      dup2\n        /* \"#utility.yul\":89:102   */\n      mload\n        /* \"#utility.yul\":80:102   */\n      swap1\n      pop\n        /* \"#utility.yul\":111:144   */\n      tag_87\n        /* \"#utility.yul\":138:143   */\n      dup2\n        /* \"#utility.yul\":111:144   */\n      tag_88\n      jump\t// in\n    tag_87:\n        /* \"#utility.yul\":7:150   */\n      swap3\n      swap2\n      pop\n      pop\n      jump\t// out\n        /* \"#utility.yul\":156:295   */\n    tag_89:\n        /* \"#utility.yul\":202:207   */\n      0x00\n        /* \"#utility.yul\":240:246   */\n      dup2\n        /* \"#utility.yul\":227:247   */\n      calldataload\n        /* \"#utility.yul\":218:247   */\n      swap1\n      pop\n        /* \"#utility.yul\":256:289   */\n      tag_91\n        /* \"#utility.yul\":283:288   */\n      dup2\n        /* \"#utility.yul\":256:289   */\n      tag_92\n      jump\t// in\n    tag_91:\n        /* \"#utility.yul\":156:295   */\n      swap3\n      swap2\n      pop\n      pop\n      jump\t// out\n        /* \"#utility.yul\":301:652   */\n    tag_66:\n        /* \"#utility.yul\":371:377   */\n      0x00\n        /* \"#utility.yul\":420:422   */\n      0x20\n        /* \"#utility.yul\":408:417   */\n      dup3\n        /* \"#utility.yul\":399:406   */\n      dup5\n        /* \"#utility.yul\":395:418   */\n      sub\n        /* \"#utility.yul\":391:423   */\n      slt\n        /* \"#utility.yul\":388:507   */\n      iszero\n      tag_94\n      jumpi\n        /* \"#utility.yul\":426:505   */\n      tag_95\n      tag_96\n      jump\t// in\n    tag_95:\n        /* \"#utility.yul\":388:507   */\n    tag_94:\n        /* \"#utility.yul\":546:547   */\n      0x00\n        /* \"#utility.yul\":571:635   */\n      tag_97\n        /* \"#utility.yul\":627:634   */\n      dup5\n        /* \"#utility.yul\":618:624   */\n      dup3\n        /* \"#utility.yul\":607:616   */\n      dup6\n        /* \"#utility.yul\":603:625   */\n      add\n        /* \"#utility.yul\":571:635   */\n      tag_85\n      jump\t// in\n    tag_97:\n        /* \"#utility.yul\":561:635   */\n      swap2\n      pop\n        /* \"#utility.yul\":517:645   */\n      pop\n        /* \"#utility.yul\":301:652   */\n      swap3\n      swap2\n      pop\n      pop\n      jump\t// out\n        /* \"#utility.yul\":658:987   */\n    tag_19:\n        /* \"#utility.yul\":717:723   */\n      0x00\n        /* \"#utility.yul\":766:768   */\n      0x20\n        /* \"#utility.yul\":754:763   */\n      dup3\n        /* \"#utility.yul\":745:752   */\n      dup5\n        /* \"#utility.yul\":741:764   */\n      sub\n        /* \"#utility.yul\":737:769   */\n      slt\n        /* \"#utility.yul\":734:853   */\n      iszero\n      tag_99\n      jumpi\n        /* \"#utility.yul\":772:851   */\n      tag_100\n      tag_96\n      jump\t// in\n    tag_100:\n        /* \"#utility.yul\":734:853   */\n    tag_99:\n        /* \"#utility.yul\":892:893   */\n      0x00\n        /* \"#utility.yul\":917:970   */\n      tag_101\n        /* \"#utility.yul\":962:969   */\n      dup5\n        /* \"#utility.yul\":953:959   */\n      dup3\n        /* \"#utility.yul\":942:951   */\n      dup6\n        /* \"#utility.yul\":938:960   */\n      add\n        /* \"#utility.yul\":917:970   */\n      tag_89\n      jump\t// in\n    tag_101:\n        /* \"#utility.yul\":907:970   */\n      swap2\n      pop\n        /* \"#utility.yul\":863:980   */\n      pop\n        /* \"#utility.yul\":658:987   */\n      swap3\n      swap2\n      pop\n      pop\n      jump\t// out\n        /* \"#utility.yul\":993:1220   */\n    tag_102:\n        /* \"#utility.yul\":1086:1096   */\n      0x00\n        /* \"#utility.yul\":1107:1177   */\n      tag_104\n        /* \"#utility.yul\":1173:1176   */\n      dup4\n        /* \"#utility.yul\":1165:1171   */\n      dup4\n        /* \"#utility.yul\":1107:1177   */\n      tag_105\n      jump\t// in\n    tag_104:\n        /* \"#utility.yul\":1209:1213   */\n      0x20\n        /* \"#utility.yul\":1204:1207   */\n      dup4\n        /* \"#utility.yul\":1200:1214   */\n      add\n        /* \"#utility.yul\":1186:1214   */\n      swap1\n      pop\n        /* \"#utility.yul\":993:1220   */\n      swap3\n      swap2\n      pop\n      pop\n      jump\t// out\n        /* \"#utility.yul\":1226:1368   */\n    tag_106:\n        /* \"#utility.yul\":1329:1361   */\n      tag_108\n        /* \"#utility.yul\":1355:1360   */\n      dup2\n        /* \"#utility.yul\":1329:1361   */\n      tag_109\n      jump\t// in\n    tag_108:\n        /* \"#utility.yul\":1324:1327   */\n      dup3\n        /* \"#utility.yul\":1317:1362   */\n      mstore\n        /* \"#utility.yul\":1226:1368   */\n      pop\n      pop\n      jump\t// out\n        /* \"#utility.yul\":1374:1514   */\n    tag_105:\n        /* \"#utility.yul\":1475:1507   */\n      tag_111\n        /* \"#utility.yul\":1501:1506   */\n      dup2\n        /* \"#utility.yul\":1475:1507   */\n      tag_109\n      jump\t// in\n    tag_111:\n        /* \"#utility.yul\":1470:1473   */\n      dup3\n        /* \"#utility.yul\":1463:1508   */\n      mstore\n        /* \"#utility.yul\":1374:1514   */\n      pop\n      pop\n      jump\t// out\n        /* \"#utility.yul\":1520:1638   */\n    tag_112:\n        /* \"#utility.yul\":1607:1631   */\n      tag_114\n        /* \"#utility.yul\":1625:1630   */\n      dup2\n        /* \"#utility.yul\":1607:1631   */\n      tag_115\n      jump\t// in\n    tag_114:\n        /* \"#utility.yul\":1602:1605   */\n      dup3\n        /* \"#utility.yul\":1595:1632   */\n      mstore\n        /* \"#utility.yul\":1520:1638   */\n      pop\n      pop\n      jump\t// out\n        /* \"#utility.yul\":1690:2557   */\n    tag_116:\n        /* \"#utility.yul\":1840:1843   */\n      0x00\n        /* \"#utility.yul\":1869:1928   */\n      tag_118\n        /* \"#utility.yul\":1922:1927   */\n      dup3\n        /* \"#utility.yul\":1869:1928   */\n      tag_119\n      jump\t// in\n    tag_118:\n        /* \"#utility.yul\":1944:2056   */\n      tag_120\n        /* \"#utility.yul\":2049:2055   */\n      dup2\n        /* \"#utility.yul\":2044:2047   */\n      dup6\n        /* \"#utility.yul\":1944:2056   */\n      tag_121\n      jump\t// in\n    tag_120:\n        /* \"#utility.yul\":1937:2056   */\n      swap4\n      pop\n        /* \"#utility.yul\":2080:2141   */\n      tag_122\n        /* \"#utility.yul\":2135:2140   */\n      dup4\n        /* \"#utility.yul\":2080:2141   */\n      tag_123\n      jump\t// in\n    tag_122:\n        /* \"#utility.yul\":2164:2171   */\n      dup1\n        /* \"#utility.yul\":2195:2196   */\n      0x00\n        /* \"#utility.yul\":2180:2532   */\n    tag_124:\n        /* \"#utility.yul\":2205:2211   */\n      dup4\n        /* \"#utility.yul\":2202:2203   */\n      dup2\n        /* \"#utility.yul\":2199:2212   */\n      lt\n        /* \"#utility.yul\":2180:2532   */\n      iszero\n      tag_126\n      jumpi\n        /* \"#utility.yul\":2275:2327   */\n      tag_127\n        /* \"#utility.yul\":2320:2326   */\n      dup3\n        /* \"#utility.yul\":2275:2327   */\n      tag_128\n      jump\t// in\n    tag_127:\n        /* \"#utility.yul\":2347:2434   */\n      tag_129\n        /* \"#utility.yul\":2430:2433   */\n      dup9\n        /* \"#utility.yul\":2415:2428   */\n      dup3\n        /* \"#utility.yul\":2347:2434   */\n      tag_102\n      jump\t// in\n    tag_129:\n        /* \"#utility.yul\":2340:2434   */\n      swap8\n      pop\n        /* \"#utility.yul\":2457:2522   */\n      tag_130\n        /* \"#utility.yul\":2515:2521   */\n      dup4\n        /* \"#utility.yul\":2457:2522   */\n      tag_131\n      jump\t// in\n    tag_130:\n        /* \"#utility.yul\":2447:2522   */\n      swap3\n      pop\n        /* \"#utility.yul\":2240:2532   */\n      pop\n        /* \"#utility.yul\":2227:2228   */\n      0x01\n        /* \"#utility.yul\":2224:2225   */\n      dup2\n        /* \"#utility.yul\":2220:2229   */\n      add\n        /* \"#utility.yul\":2215:2229   */\n      swap1\n      pop\n        /* \"#utility.yul\":2180:2532   */\n      jump(tag_124)\n    tag_126:\n        /* \"#utility.yul\":2184:2198   */\n      pop\n        /* \"#utility.yul\":2548:2551   */\n      dup6\n        /* \"#utility.yul\":2541:2551   */\n      swap4\n      pop\n        /* \"#utility.yul\":1845:2557   */\n      pop\n      pop\n      pop\n        /* \"#utility.yul\":1690:2557   */\n      swap3\n      swap2\n      pop\n      pop\n      jump\t// out\n        /* \"#utility.yul\":2563:2936   */\n    tag_132:\n        /* \"#utility.yul\":2667:2670   */\n      0x00\n        /* \"#utility.yul\":2695:2733   */\n      tag_134\n        /* \"#utility.yul\":2727:2732   */\n      dup3\n        /* \"#utility.yul\":2695:2733   */\n      tag_135\n      jump\t// in\n    tag_134:\n        /* \"#utility.yul\":2749:2837   */\n      tag_136\n        /* \"#utility.yul\":2830:2836   */\n      dup2\n        /* \"#utility.yul\":2825:2828   */\n      dup6\n        /* \"#utility.yul\":2749:2837   */\n      tag_137\n      jump\t// in\n    tag_136:\n        /* \"#utility.yul\":2742:2837   */\n      swap4\n      pop\n        /* \"#utility.yul\":2846:2898   */\n      tag_138\n        /* \"#utility.yul\":2891:2897   */\n      dup2\n        /* \"#utility.yul\":2886:2889   */\n      dup6\n        /* \"#utility.yul\":2879:2883   */\n      0x20\n        /* \"#utility.yul\":2872:2877   */\n      dup7\n        /* \"#utility.yul\":2868:2884   */\n      add\n        /* \"#utility.yul\":2846:2898   */\n      tag_139\n      jump\t// in\n    tag_138:\n        /* \"#utility.yul\":2923:2929   */\n      dup1\n        /* \"#utility.yul\":2918:2921   */\n      dup5\n        /* \"#utility.yul\":2914:2930   */\n      add\n        /* \"#utility.yul\":2907:2930   */\n      swap2\n      pop\n        /* \"#utility.yul\":2671:2936   */\n      pop\n        /* \"#utility.yul\":2563:2936   */\n      swap3\n      swap2\n      pop\n      pop\n      jump\t// out\n        /* \"#utility.yul\":2942:3308   */\n    tag_140:\n        /* \"#utility.yul\":3084:3087   */\n      0x00\n        /* \"#utility.yul\":3105:3172   */\n      tag_142\n        /* \"#utility.yul\":3169:3171   */\n      0x1a\n        /* \"#utility.yul\":3164:3167   */\n      dup4\n        /* \"#utility.yul\":3105:3172   */\n      tag_143\n      jump\t// in\n    tag_142:\n        /* \"#utility.yul\":3098:3172   */\n      swap2\n      pop\n        /* \"#utility.yul\":3181:3274   */\n      tag_144\n        /* \"#utility.yul\":3270:3273   */\n      dup3\n        /* \"#utility.yul\":3181:3274   */\n      tag_145\n      jump\t// in\n    tag_144:\n        /* \"#utility.yul\":3299:3301   */\n      0x20\n        /* \"#utility.yul\":3294:3297   */\n      dup3\n        /* \"#utility.yul\":3290:3302   */\n      add\n        /* \"#utility.yul\":3283:3302   */\n      swap1\n      pop\n        /* \"#utility.yul\":2942:3308   */\n      swap2\n      swap1\n      pop\n      jump\t// out\n        /* \"#utility.yul\":3314:3680   */\n    tag_146:\n        /* \"#utility.yul\":3456:3459   */\n      0x00\n        /* \"#utility.yul\":3477:3544   */\n      tag_148\n        /* \"#utility.yul\":3541:3543   */\n      0x23\n        /* \"#utility.yul\":3536:3539   */\n      dup4\n        /* \"#utility.yul\":3477:3544   */\n      tag_143\n      jump\t// in\n    tag_148:\n        /* \"#utility.yul\":3470:3544   */\n      swap2\n      pop\n        /* \"#utility.yul\":3553:3646   */\n      tag_149\n        /* \"#utility.yul\":3642:3645   */\n      dup3\n        /* \"#utility.yul\":3553:3646   */\n      tag_150\n      jump\t// in\n    tag_149:\n        /* \"#utility.yul\":3671:3673   */\n      0x40\n        /* \"#utility.yul\":3666:3669   */\n      dup3\n        /* \"#utility.yul\":3662:3674   */\n      add\n        /* \"#utility.yul\":3655:3674   */\n      swap1\n      pop\n        /* \"#utility.yul\":3314:3680   */\n      swap2\n      swap1\n      pop\n      jump\t// out\n        /* \"#utility.yul\":3686:4052   */\n    tag_151:\n        /* \"#utility.yul\":3828:3831   */\n      0x00\n        /* \"#utility.yul\":3849:3916   */\n      tag_153\n        /* \"#utility.yul\":3913:3915   */\n      0x1c\n        /* \"#utility.yul\":3908:3911   */\n      dup4\n        /* \"#utility.yul\":3849:3916   */\n      tag_143\n      jump\t// in\n    tag_153:\n        /* \"#utility.yul\":3842:3916   */\n      swap2\n      pop\n        /* \"#utility.yul\":3925:4018   */\n      tag_154\n        /* \"#utility.yul\":4014:4017   */\n      dup3\n        /* \"#utility.yul\":3925:4018   */\n      tag_155\n      jump\t// in\n    tag_154:\n        /* \"#utility.yul\":4043:4045   */\n      0x20\n        /* \"#utility.yul\":4038:4041   */\n      dup3\n        /* \"#utility.yul\":4034:4046   */\n      add\n        /* \"#utility.yul\":4027:4046   */\n      swap1\n      pop\n        /* \"#utility.yul\":3686:4052   */\n      swap2\n      swap1\n      pop\n      jump\t// out\n        /* \"#utility.yul\":4058:4424   */\n    tag_156:\n        /* \"#utility.yul\":4200:4203   */\n      0x00\n        /* \"#utility.yul\":4221:4288   */\n      tag_158\n        /* \"#utility.yul\":4285:4287   */\n      0x1b\n        /* \"#utility.yul\":4280:4283   */\n      dup4\n        /* \"#utility.yul\":4221:4288   */\n      tag_143\n      jump\t// in\n    tag_158:\n        /* \"#utility.yul\":4214:4288   */\n      swap2\n      pop\n        /* \"#utility.yul\":4297:4390   */\n      tag_159\n        /* \"#utility.yul\":4386:4389   */\n      dup3\n        /* \"#utility.yul\":4297:4390   */\n      tag_160\n      jump\t// in\n    tag_159:\n        /* \"#utility.yul\":4415:4417   */\n      0x20\n        /* \"#utility.yul\":4410:4413   */\n      dup3\n        /* \"#utility.yul\":4406:4418   */\n      add\n        /* \"#utility.yul\":4399:4418   */\n      swap1\n      pop\n        /* \"#utility.yul\":4058:4424   */\n      swap2\n      swap1\n      pop\n      jump\t// out\n        /* \"#utility.yul\":4430:4587   */\n    tag_161:\n        /* \"#utility.yul\":4535:4580   */\n      tag_163\n        /* \"#utility.yul\":4555:4579   */\n      tag_164\n        /* \"#utility.yul\":4573:4578   */\n      dup3\n        /* \"#utility.yul\":4555:4579   */\n      tag_165\n      jump\t// in\n    tag_164:\n        /* \"#utility.yul\":4535:4580   */\n      tag_166\n      jump\t// in\n    tag_163:\n        /* \"#utility.yul\":4530:4533   */\n      dup3\n        /* \"#utility.yul\":4523:4581   */\n      mstore\n        /* \"#utility.yul\":4430:4587   */\n      pop\n      pop\n      jump\t// out\n        /* \"#utility.yul\":4593:4864   */\n    tag_62:\n        /* \"#utility.yul\":4723:4726   */\n      0x00\n        /* \"#utility.yul\":4745:4838   */\n      tag_168\n        /* \"#utility.yul\":4834:4837   */\n      dup3\n        /* \"#utility.yul\":4825:4831   */\n      dup5\n        /* \"#utility.yul\":4745:4838   */\n      tag_132\n      jump\t// in\n    tag_168:\n        /* \"#utility.yul\":4738:4838   */\n      swap2\n      pop\n        /* \"#utility.yul\":4855:4858   */\n      dup2\n        /* \"#utility.yul\":4848:4858   */\n      swap1\n      pop\n        /* \"#utility.yul\":4593:4864   */\n      swap3\n      swap2\n      pop\n      pop\n      jump\t// out\n        /* \"#utility.yul\":4870:5513   */\n    tag_60:\n        /* \"#utility.yul\":5101:5104   */\n      0x00\n        /* \"#utility.yul\":5116:5191   */\n      tag_170\n        /* \"#utility.yul\":5187:5190   */\n      dup3\n        /* \"#utility.yul\":5178:5184   */\n      dup7\n        /* \"#utility.yul\":5116:5191   */\n      tag_161\n      jump\t// in\n    tag_170:\n        /* \"#utility.yul\":5216:5218   */\n      0x20\n        /* \"#utility.yul\":5211:5214   */\n      dup3\n        /* \"#utility.yul\":5207:5219   */\n      add\n        /* \"#utility.yul\":5200:5219   */\n      swap2\n      pop\n        /* \"#utility.yul\":5229:5304   */\n      tag_171\n        /* \"#utility.yul\":5300:5303   */\n      dup3\n        /* \"#utility.yul\":5291:5297   */\n      dup6\n        /* \"#utility.yul\":5229:5304   */\n      tag_161\n      jump\t// in\n    tag_171:\n        /* \"#utility.yul\":5329:5331   */\n      0x20\n        /* \"#utility.yul\":5324:5327   */\n      dup3\n        /* \"#utility.yul\":5320:5332   */\n      add\n        /* \"#utility.yul\":5313:5332   */\n      swap2\n      pop\n        /* \"#utility.yul\":5349:5487   */\n      tag_172\n        /* \"#utility.yul\":5483:5486   */\n      dup3\n        /* \"#utility.yul\":5474:5480   */\n      dup5\n        /* \"#utility.yul\":5349:5487   */\n      tag_116\n      jump\t// in\n    tag_172:\n        /* \"#utility.yul\":5342:5487   */\n      swap2\n      pop\n        /* \"#utility.yul\":5504:5507   */\n      dup2\n        /* \"#utility.yul\":5497:5507   */\n      swap1\n      pop\n        /* \"#utility.yul\":4870:5513   */\n      swap5\n      swap4\n      pop\n      pop\n      pop\n      pop\n      jump\t// out\n        /* \"#utility.yul\":5519:5741   */\n    tag_10:\n        /* \"#utility.yul\":5612:5616   */\n      0x00\n        /* \"#utility.yul\":5650:5652   */\n      0x20\n        /* \"#utility.yul\":5639:5648   */\n      dup3\n        /* \"#utility.yul\":5635:5653   */\n      add\n        /* \"#utility.yul\":5627:5653   */\n      swap1\n      pop\n        /* \"#utility.yul\":5663:5734   */\n      tag_174\n        /* \"#utility.yul\":5731:5732   */\n      0x00\n        /* \"#utility.yul\":5720:5729   */\n      dup4\n        /* \"#utility.yul\":5716:5733   */\n      add\n        /* \"#utility.yul\":5707:5713   */\n      dup5\n        /* \"#utility.yul\":5663:5734   */\n      tag_112\n      jump\t// in\n    tag_174:\n        /* \"#utility.yul\":5519:5741   */\n      swap3\n      swap2\n      pop\n      pop\n      jump\t// out\n        /* \"#utility.yul\":5747:6001   */\n    tag_22:\n        /* \"#utility.yul\":5856:5860   */\n      0x00\n        /* \"#utility.yul\":5894:5896   */\n      0x20\n        /* \"#utility.yul\":5883:5892   */\n      dup3\n        /* \"#utility.yul\":5879:5897   */\n      add\n        /* \"#utility.yul\":5871:5897   */\n      swap1\n      pop\n        /* \"#utility.yul\":5907:5994   */\n      tag_176\n        /* \"#utility.yul\":5991:5992   */\n      0x00\n        /* \"#utility.yul\":5980:5989   */\n      dup4\n        /* \"#utility.yul\":5976:5993   */\n      add\n        /* \"#utility.yul\":5967:5973   */\n      dup5\n        /* \"#utility.yul\":5907:5994   */\n      tag_106\n      jump\t// in\n    tag_176:\n        /* \"#utility.yul\":5747:6001   */\n      swap3\n      swap2\n      pop\n      pop\n      jump\t// out\n        /* \"#utility.yul\":6007:6426   */\n    tag_54:\n        /* \"#utility.yul\":6173:6177   */\n      0x00\n        /* \"#utility.yul\":6211:6213   */\n      0x20\n        /* \"#utility.yul\":6200:6209   */\n      dup3\n        /* \"#utility.yul\":6196:6214   */\n      add\n        /* \"#utility.yul\":6188:6214   */\n      swap1\n      pop\n        /* \"#utility.yul\":6260:6269   */\n      dup2\n        /* \"#utility.yul\":6254:6258   */\n      dup2\n        /* \"#utility.yul\":6250:6270   */\n      sub\n        /* \"#utility.yul\":6246:6247   */\n      0x00\n        /* \"#utility.yul\":6235:6244   */\n      dup4\n        /* \"#utility.yul\":6231:6248   */\n      add\n        /* \"#utility.yul\":6224:6271   */\n      mstore\n        /* \"#utility.yul\":6288:6419   */\n      tag_178\n        /* \"#utility.yul\":6414:6418   */\n      dup2\n        /* \"#utility.yul\":6288:6419   */\n      tag_140\n      jump\t// in\n    tag_178:\n        /* \"#utility.yul\":6280:6419   */\n      swap1\n      pop\n        /* \"#utility.yul\":6007:6426   */\n      swap2\n      swap1\n      pop\n      jump\t// out\n        /* \"#utility.yul\":6432:6851   */\n    tag_46:\n        /* \"#utility.yul\":6598:6602   */\n      0x00\n        /* \"#utility.yul\":6636:6638   */\n      0x20\n        /* \"#utility.yul\":6625:6634   */\n      dup3\n        /* \"#utility.yul\":6621:6639   */\n      add\n        /* \"#utility.yul\":6613:6639   */\n      swap1\n      pop\n        /* \"#utility.yul\":6685:6694   */\n      dup2\n        /* \"#utility.yul\":6679:6683   */\n      dup2\n        /* \"#utility.yul\":6675:6695   */\n      sub\n        /* \"#utility.yul\":6671:6672   */\n      0x00\n        /* \"#utility.yul\":6660:6669   */\n      dup4\n        /* \"#utility.yul\":6656:6673   */\n      add\n        /* \"#utility.yul\":6649:6696   */\n      mstore\n        /* \"#utility.yul\":6713:6844   */\n      tag_180\n        /* \"#utility.yul\":6839:6843   */\n      dup2\n        /* \"#utility.yul\":6713:6844   */\n      tag_146\n      jump\t// in\n    tag_180:\n        /* \"#utility.yul\":6705:6844   */\n      swap1\n      pop\n        /* \"#utility.yul\":6432:6851   */\n      swap2\n      swap1\n      pop\n      jump\t// out\n        /* \"#utility.yul\":6857:7276   */\n    tag_26:\n        /* \"#utility.yul\":7023:7027   */\n      0x00\n        /* \"#utility.yul\":7061:7063   */\n      0x20\n        /* \"#utility.yul\":7050:7059   */\n      dup3\n        /* \"#utility.yul\":7046:7064   */\n      add\n        /* \"#utility.yul\":7038:7064   */\n      swap1\n      pop\n        /* \"#utility.yul\":7110:7119   */\n      dup2\n        /* \"#utility.yul\":7104:7108   */\n      dup2\n        /* \"#utility.yul\":7100:7120   */\n      sub\n        /* \"#utility.yul\":7096:7097   */\n      0x00\n        /* \"#utility.yul\":7085:7094   */\n      dup4\n        /* \"#utility.yul\":7081:7098   */\n      add\n        /* \"#utility.yul\":7074:7121   */\n      mstore\n        /* \"#utility.yul\":7138:7269   */\n      tag_182\n        /* \"#utility.yul\":7264:7268   */\n      dup2\n        /* \"#utility.yul\":7138:7269   */\n      tag_151\n      jump\t// in\n    tag_182:\n        /* \"#utility.yul\":7130:7269   */\n      swap1\n      pop\n        /* \"#utility.yul\":6857:7276   */\n      swap2\n      swap1\n      pop\n      jump\t// out\n        /* \"#utility.yul\":7282:7701   */\n    tag_51:\n        /* \"#utility.yul\":7448:7452   */\n      0x00\n        /* \"#utility.yul\":7486:7488   */\n      0x20\n        /* \"#utility.yul\":7475:7484   */\n      dup3\n        /* \"#utility.yul\":7471:7489   */\n      add\n        /* \"#utility.yul\":7463:7489   */\n      swap1\n      pop\n        /* \"#utility.yul\":7535:7544   */\n      dup2\n        /* \"#utility.yul\":7529:7533   */\n      dup2\n        /* \"#utility.yul\":7525:7545   */\n      sub\n        /* \"#utility.yul\":7521:7522   */\n      0x00\n        /* \"#utility.yul\":7510:7519   */\n      dup4\n        /* \"#utility.yul\":7506:7523   */\n      add\n        /* \"#utility.yul\":7499:7546   */\n      mstore\n        /* \"#utility.yul\":7563:7694   */\n      tag_184\n        /* \"#utility.yul\":7689:7693   */\n      dup2\n        /* \"#utility.yul\":7563:7694   */\n      tag_156\n      jump\t// in\n    tag_184:\n        /* \"#utility.yul\":7555:7694   */\n      swap1\n      pop\n        /* \"#utility.yul\":7282:7701   */\n      swap2\n      swap1\n      pop\n      jump\t// out\n        /* \"#utility.yul\":7788:7952   */\n    tag_123:\n        /* \"#utility.yul\":7860:7864   */\n      0x00\n        /* \"#utility.yul\":7883:7886   */\n      dup2\n        /* \"#utility.yul\":7875:7886   */\n      swap1\n      pop\n        /* \"#utility.yul\":7906:7909   */\n      dup2\n        /* \"#utility.yul\":7903:7904   */\n      0x00\n        /* \"#utility.yul\":7896:7910   */\n      mstore\n        /* \"#utility.yul\":7940:7944   */\n      0x20\n        /* \"#utility.yul\":7937:7938   */\n      0x00\n        /* \"#utility.yul\":7927:7945   */\n      keccak256\n        /* \"#utility.yul\":7919:7945   */\n      swap1\n      pop\n        /* \"#utility.yul\":7788:7952   */\n      swap2\n      swap1\n      pop\n      jump\t// out\n        /* \"#utility.yul\":7958:8077   */\n    tag_119:\n        /* \"#utility.yul\":8030:8036   */\n      0x00\n        /* \"#utility.yul\":8064:8069   */\n      dup2\n        /* \"#utility.yul\":8058:8070   */\n      sload\n        /* \"#utility.yul\":8048:8070   */\n      swap1\n      pop\n        /* \"#utility.yul\":7958:8077   */\n      swap2\n      swap1\n      pop\n      jump\t// out\n        /* \"#utility.yul\":8083:8181   */\n    tag_135:\n        /* \"#utility.yul\":8134:8140   */\n      0x00\n        /* \"#utility.yul\":8168:8173   */\n      dup2\n        /* \"#utility.yul\":8162:8174   */\n      mload\n        /* \"#utility.yul\":8152:8174   */\n      swap1\n      pop\n        /* \"#utility.yul\":8083:8181   */\n      swap2\n      swap1\n      pop\n      jump\t// out\n        /* \"#utility.yul\":8187:8305   */\n    tag_131:\n        /* \"#utility.yul\":8262:8266   */\n      0x00\n        /* \"#utility.yul\":8294:8298   */\n      0x01\n        /* \"#utility.yul\":8289:8292   */\n      dup3\n        /* \"#utility.yul\":8285:8299   */\n      add\n        /* \"#utility.yul\":8277:8299   */\n      swap1\n      pop\n        /* \"#utility.yul\":8187:8305   */\n      swap2\n      swap1\n      pop\n      jump\t// out\n        /* \"#utility.yul\":8311:8482   */\n    tag_121:\n        /* \"#utility.yul\":8436:8447   */\n      0x00\n        /* \"#utility.yul\":8473:8476   */\n      dup2\n        /* \"#utility.yul\":8458:8476   */\n      swap1\n      pop\n        /* \"#utility.yul\":8311:8482   */\n      swap3\n      swap2\n      pop\n      pop\n      jump\t// out\n        /* \"#utility.yul\":8488:8635   */\n    tag_137:\n        /* \"#utility.yul\":8589:8600   */\n      0x00\n        /* \"#utility.yul\":8626:8629   */\n      dup2\n        /* \"#utility.yul\":8611:8629   */\n      swap1\n      pop\n        /* \"#utility.yul\":8488:8635   */\n      swap3\n      swap2\n      pop\n      pop\n      jump\t// out\n        /* \"#utility.yul\":8641:8810   */\n    tag_143:\n        /* \"#utility.yul\":8725:8736   */\n      0x00\n        /* \"#utility.yul\":8759:8765   */\n      dup3\n        /* \"#utility.yul\":8754:8757   */\n      dup3\n        /* \"#utility.yul\":8747:8766   */\n      mstore\n        /* \"#utility.yul\":8799:8803   */\n      0x20\n        /* \"#utility.yul\":8794:8797   */\n      dup3\n        /* \"#utility.yul\":8790:8804   */\n      add\n        /* \"#utility.yul\":8775:8804   */\n      swap1\n      pop\n        /* \"#utility.yul\":8641:8810   */\n      swap3\n      swap2\n      pop\n      pop\n      jump\t// out\n        /* \"#utility.yul\":8816:8963   */\n    tag_194:\n        /* \"#utility.yul\":8874:8881   */\n      0x00\n        /* \"#utility.yul\":8914:8956   */\n      0xffffffffffffffffffffffffffffffffffffffff\n        /* \"#utility.yul\":8907:8912   */\n      dup3\n        /* \"#utility.yul\":8903:8957   */\n      and\n        /* \"#utility.yul\":8892:8957   */\n      swap1\n      pop\n        /* \"#utility.yul\":8816:8963   */\n      swap2\n      swap1\n      pop\n      jump\t// out\n        /* \"#utility.yul\":8969:9065   */\n    tag_115:\n        /* \"#utility.yul\":9006:9013   */\n      0x00\n        /* \"#utility.yul\":9035:9059   */\n      tag_197\n        /* \"#utility.yul\":9053:9058   */\n      dup3\n        /* \"#utility.yul\":9035:9059   */\n      tag_198\n      jump\t// in\n    tag_197:\n        /* \"#utility.yul\":9024:9059   */\n      swap1\n      pop\n        /* \"#utility.yul\":8969:9065   */\n      swap2\n      swap1\n      pop\n      jump\t// out\n        /* \"#utility.yul\":9071:9175   */\n    tag_109:\n        /* \"#utility.yul\":9116:9123   */\n      0x00\n        /* \"#utility.yul\":9145:9169   */\n      tag_200\n        /* \"#utility.yul\":9163:9168   */\n      dup3\n        /* \"#utility.yul\":9145:9169   */\n      tag_198\n      jump\t// in\n    tag_200:\n        /* \"#utility.yul\":9134:9169   */\n      swap1\n      pop\n        /* \"#utility.yul\":9071:9175   */\n      swap2\n      swap1\n      pop\n      jump\t// out\n        /* \"#utility.yul\":9181:9258   */\n    tag_201:\n        /* \"#utility.yul\":9218:9225   */\n      0x00\n        /* \"#utility.yul\":9247:9252   */\n      dup2\n        /* \"#utility.yul\":9236:9252   */\n      swap1\n      pop\n        /* \"#utility.yul\":9181:9258   */\n      swap2\n      swap1\n      pop\n      jump\t// out\n        /* \"#utility.yul\":9264:9390   */\n    tag_198:\n        /* \"#utility.yul\":9301:9308   */\n      0x00\n        /* \"#utility.yul\":9341:9383   */\n      0xffffffffffffffffffffffffffffffffffffffff\n        /* \"#utility.yul\":9334:9339   */\n      dup3\n        /* \"#utility.yul\":9330:9384   */\n      and\n        /* \"#utility.yul\":9319:9384   */\n      swap1\n      pop\n        /* \"#utility.yul\":9264:9390   */\n      swap2\n      swap1\n      pop\n      jump\t// out\n        /* \"#utility.yul\":9396:9473   */\n    tag_165:\n        /* \"#utility.yul\":9433:9440   */\n      0x00\n        /* \"#utility.yul\":9462:9467   */\n      dup2\n        /* \"#utility.yul\":9451:9467   */\n      swap1\n      pop\n        /* \"#utility.yul\":9396:9473   */\n      swap2\n      swap1\n      pop\n      jump\t// out\n        /* \"#utility.yul\":9479:9786   */\n    tag_139:\n        /* \"#utility.yul\":9547:9548   */\n      0x00\n        /* \"#utility.yul\":9557:9670   */\n    tag_206:\n        /* \"#utility.yul\":9571:9577   */\n      dup4\n        /* \"#utility.yul\":9568:9569   */\n      dup2\n        /* \"#utility.yul\":9565:9578   */\n      lt\n        /* \"#utility.yul\":9557:9670   */\n      iszero\n      tag_208\n      jumpi\n        /* \"#utility.yul\":9656:9657   */\n      dup1\n        /* \"#utility.yul\":9651:9654   */\n      dup3\n        /* \"#utility.yul\":9647:9658   */\n      add\n        /* \"#utility.yul\":9641:9659   */\n      mload\n        /* \"#utility.yul\":9637:9638   */\n      dup2\n        /* \"#utility.yul\":9632:9635   */\n      dup5\n        /* \"#utility.yul\":9628:9639   */\n      add\n        /* \"#utility.yul\":9621:9660   */\n      mstore\n        /* \"#utility.yul\":9593:9595   */\n      0x20\n        /* \"#utility.yul\":9590:9591   */\n      dup2\n        /* \"#utility.yul\":9586:9596   */\n      add\n        /* \"#utility.yul\":9581:9596   */\n      swap1\n      pop\n        /* \"#utility.yul\":9557:9670   */\n      jump(tag_206)\n    tag_208:\n        /* \"#utility.yul\":9688:9694   */\n      dup4\n        /* \"#utility.yul\":9685:9686   */\n      dup2\n        /* \"#utility.yul\":9682:9695   */\n      gt\n        /* \"#utility.yul\":9679:9780   */\n      iszero\n      tag_209\n      jumpi\n        /* \"#utility.yul\":9768:9769   */\n      0x00\n        /* \"#utility.yul\":9759:9765   */\n      dup5\n        /* \"#utility.yul\":9754:9757   */\n      dup5\n        /* \"#utility.yul\":9750:9766   */\n      add\n        /* \"#utility.yul\":9743:9770   */\n      mstore\n        /* \"#utility.yul\":9679:9780   */\n    tag_209:\n        /* \"#utility.yul\":9528:9786   */\n      pop\n        /* \"#utility.yul\":9479:9786   */\n      pop\n      pop\n      pop\n      jump\t// out\n        /* \"#utility.yul\":9792:9974   */\n    tag_210:\n        /* \"#utility.yul\":9869:9874   */\n      0x00\n        /* \"#utility.yul\":9894:9968   */\n      tag_212\n        /* \"#utility.yul\":9933:9967   */\n      tag_213\n        /* \"#utility.yul\":9956:9966   */\n      dup4\n        /* \"#utility.yul\":9933:9967   */\n      tag_214\n      jump\t// in\n    tag_213:\n        /* \"#utility.yul\":9894:9968   */\n      tag_194\n      jump\t// in\n    tag_212:\n        /* \"#utility.yul\":9885:9968   */\n      swap1\n      pop\n        /* \"#utility.yul\":9792:9974   */\n      swap2\n      swap1\n      pop\n      jump\t// out\n        /* \"#utility.yul\":9980:10213   */\n    tag_76:\n        /* \"#utility.yul\":10019:10022   */\n      0x00\n        /* \"#utility.yul\":10042:10066   */\n      tag_216\n        /* \"#utility.yul\":10060:10065   */\n      dup3\n        /* \"#utility.yul\":10042:10066   */\n      tag_165\n      jump\t// in\n    tag_216:\n        /* \"#utility.yul\":10033:10066   */\n      swap2\n      pop\n        /* \"#utility.yul\":10088:10154   */\n      0xffffffffffffffffffffffffffffffffffffffffffffffffffffffffffffffff\n        /* \"#utility.yul\":10081:10086   */\n      dup3\n        /* \"#utility.yul\":10078:10155   */\n      eq\n        /* \"#utility.yul\":10075:10178   */\n      iszero\n      tag_217\n      jumpi\n        /* \"#utility.yul\":10158:10176   */\n      tag_218\n      tag_219\n      jump\t// in\n    tag_218:\n        /* \"#utility.yul\":10075:10178   */\n    tag_217:\n        /* \"#utility.yul\":10205:10206   */\n      0x01\n        /* \"#utility.yul\":10198:10203   */\n      dup3\n        /* \"#utility.yul\":10194:10207   */\n      add\n        /* \"#utility.yul\":10187:10207   */\n      swap1\n      pop\n        /* \"#utility.yul\":9980:10213   */\n      swap2\n      swap1\n      pop\n      jump\t// out\n        /* \"#utility.yul\":10219:10298   */\n    tag_166:\n        /* \"#utility.yul\":10258:10265   */\n      0x00\n        /* \"#utility.yul\":10287:10292   */\n      dup2\n        /* \"#utility.yul\":10276:10292   */\n      swap1\n      pop\n        /* \"#utility.yul\":10219:10298   */\n      swap2\n      swap1\n      pop\n      jump\t// out\n        /* \"#utility.yul\":10304:10480   */\n    tag_30:\n        /* \"#utility.yul\":10336:10337   */\n      0x00\n        /* \"#utility.yul\":10353:10373   */\n      tag_222\n        /* \"#utility.yul\":10371:10372   */\n      dup3\n        /* \"#utility.yul\":10353:10373   */\n      tag_165\n      jump\t// in\n    tag_222:\n        /* \"#utility.yul\":10348:10373   */\n      swap2\n      pop\n        /* \"#utility.yul\":10387:10407   */\n      tag_223\n        /* \"#utility.yul\":10405:10406   */\n      dup4\n        /* \"#utility.yul\":10387:10407   */\n      tag_165\n      jump\t// in\n    tag_223:\n        /* \"#utility.yul\":10382:10407   */\n      swap3\n      pop\n        /* \"#utility.yul\":10426:10427   */\n      dup3\n        /* \"#utility.yul\":10416:10451   */\n      tag_224\n      jumpi\n        /* \"#utility.yul\":10431:10449   */\n      tag_225\n      tag_226\n      jump\t// in\n    tag_225:\n        /* \"#utility.yul\":10416:10451   */\n    tag_224:\n        /* \"#utility.yul\":10472:10473   */\n      dup3\n        /* \"#utility.yul\":10469:10470   */\n      dup3\n        /* \"#utility.yul\":10465:10474   */\n      mod\n        /* \"#utility.yul\":10460:10474   */\n      swap1\n      pop\n        /* \"#utility.yul\":10304:10480   */\n      swap3\n      swap2\n      pop\n      pop\n      jump\t// out\n        /* \"#utility.yul\":10486:10666   */\n    tag_219:\n        /* \"#utility.yul\":10534:10611   */\n      0x4e487b7100000000000000000000000000000000000000000000000000000000\n        /* \"#utility.yul\":10531:10532   */\n      0x00\n        /* \"#utility.yul\":10524:10612   */\n      mstore\n        /* \"#utility.yul\":10631:10635   */\n      0x11\n        /* \"#utility.yul\":10628:10629   */\n      0x04\n        /* \"#utility.yul\":10621:10636   */\n      mstore\n        /* \"#utility.yul\":10655:10659   */\n      0x24\n        /* \"#utility.yul\":10652:10653   */\n      0x00\n        /* \"#utility.yul\":10645:10660   */\n      revert\n        /* \"#utility.yul\":10672:10852   */\n    tag_226:\n        /* \"#utility.yul\":10720:10797   */\n      0x4e487b7100000000000000000000000000000000000000000000000000000000\n        /* \"#utility.yul\":10717:10718   */\n      0x00\n        /* \"#utility.yul\":10710:10798   */\n      mstore\n        /* \"#utility.yul\":10817:10821   */\n      0x12\n        /* \"#utility.yul\":10814:10815   */\n      0x04\n        /* \"#utility.yul\":10807:10822   */\n      mstore\n        /* \"#utility.yul\":10841:10845   */\n      0x24\n        /* \"#utility.yul\":10838:10839   */\n      0x00\n        /* \"#utility.yul\":10831:10846   */\n      revert\n        /* \"#utility.yul\":10858:11038   */\n    tag_33:\n        /* \"#utility.yul\":10906:10983   */\n      0x4e487b7100000000000000000000000000000000000000000000000000000000\n        /* \"#utility.yul\":10903:10904   */\n      0x00\n        /* \"#utility.yul\":10896:10984   */\n      mstore\n        /* \"#utility.yul\":11003:11007   */\n      0x32\n        /* \"#utility.yul\":11000:11001   */\n      0x04\n        /* \"#utility.yul\":10993:11008   */\n      mstore\n        /* \"#utility.yul\":11027:11031   */\n      0x24\n        /* \"#utility.yul\":11024:11025   */\n      0x00\n        /* \"#utility.yul\":11017:11032   */\n      revert\n        /* \"#utility.yul\":11044:11224   */\n    tag_39:\n        /* \"#utility.yul\":11092:11169   */\n      0x4e487b7100000000000000000000000000000000000000000000000000000000\n        /* \"#utility.yul\":11089:11090   */\n      0x00\n        /* \"#utility.yul\":11082:11170   */\n      mstore\n        /* \"#utility.yul\":11189:11193   */\n      0x41\n        /* \"#utility.yul\":11186:11187   */\n      0x04\n        /* \"#utility.yul\":11179:11194   */\n      mstore\n        /* \"#utility.yul\":11213:11217   */\n      0x24\n        /* \"#utility.yul\":11210:11211   */\n      0x00\n        /* \"#utility.yul\":11203:11218   */\n      revert\n        /* \"#utility.yul\":11230:11390   */\n    tag_128:\n        /* \"#utility.yul\":11293:11298   */\n      0x00\n        /* \"#utility.yul\":11318:11383   */\n      tag_232\n        /* \"#utility.yul\":11377:11381   */\n      dup3\n        /* \"#utility.yul\":11371:11382   */\n      sload\n        /* \"#utility.yul\":11318:11383   */\n      tag_210\n      jump\t// in\n    tag_232:\n        /* \"#utility.yul\":11309:11383   */\n      swap1\n      pop\n        /* \"#utility.yul\":11230:11390   */\n      swap2\n      swap1\n      pop\n      jump\t// out\n        /* \"#utility.yul\":11519:11636   */\n    tag_96:\n        /* \"#utility.yul\":11628:11629   */\n      0x00\n        /* \"#utility.yul\":11625:11626   */\n      dup1\n        /* \"#utility.yul\":11618:11630   */\n      revert\n        /* \"#utility.yul\":11642:11744   */\n    tag_214:\n        /* \"#utility.yul\":11684:11692   */\n      0x00\n        /* \"#utility.yul\":11731:11736   */\n      dup2\n        /* \"#utility.yul\":11728:11729   */\n      0x00\n        /* \"#utility.yul\":11724:11737   */\n      shr\n        /* \"#utility.yul\":11703:11737   */\n      swap1\n      pop\n        /* \"#utility.yul\":11642:11744   */\n      swap2\n      swap1\n      pop\n      jump\t// out\n        /* \"#utility.yul\":11750:11926   */\n    tag_145:\n        /* \"#utility.yul\":11890:11918   */\n      0x4d696e696e6d756e20616d6f756e742069732021206574686572000000000000\n        /* \"#utility.yul\":11886:11887   */\n      0x00\n        /* \"#utility.yul\":11878:11884   */\n      dup3\n        /* \"#utility.yul\":11874:11888   */\n      add\n        /* \"#utility.yul\":11867:11919   */\n      mstore\n        /* \"#utility.yul\":11750:11926   */\n      pop\n      jump\t// out\n        /* \"#utility.yul\":11932:12154   */\n    tag_150:\n        /* \"#utility.yul\":12072:12106   */\n      0x4d616e616765722063616e6e6f7420656e74657220696e20436f6d7065746974\n        /* \"#utility.yul\":12068:12069   */\n      0x00\n        /* \"#utility.yul\":12060:12066   */\n      dup3\n        /* \"#utility.yul\":12056:12070   */\n      add\n        /* \"#utility.yul\":12049:12107   */\n      mstore\n        /* \"#utility.yul\":12141:12146   */\n      0x696f6e0000000000000000000000000000000000000000000000000000000000\n        /* \"#utility.yul\":12136:12138   */\n      0x20\n        /* \"#utility.yul\":12128:12134   */\n      dup3\n        /* \"#utility.yul\":12124:12139   */\n      add\n        /* \"#utility.yul\":12117:12147   */\n      mstore\n        /* \"#utility.yul\":11932:12154   */\n      pop\n      jump\t// out\n        /* \"#utility.yul\":12160:12338   */\n    tag_155:\n        /* \"#utility.yul\":12300:12330   */\n      0x4d616e61676572206f6e6c79207069636b207468652077696e6e657200000000\n        /* \"#utility.yul\":12296:12297   */\n      0x00\n        /* \"#utility.yul\":12288:12294   */\n      dup3\n        /* \"#utility.yul\":12284:12298   */\n      add\n        /* \"#utility.yul\":12277:12331   */\n      mstore\n        /* \"#utility.yul\":12160:12338   */\n      pop\n      jump\t// out\n        /* \"#utility.yul\":12344:12521   */\n    tag_160:\n        /* \"#utility.yul\":12484:12513   */\n      0x506c6179657220616c7265616479205061727469636970617465640000000000\n        /* \"#utility.yul\":12480:12481   */\n      0x00\n        /* \"#utility.yul\":12472:12478   */\n      dup3\n        /* \"#utility.yul\":12468:12482   */\n      add\n        /* \"#utility.yul\":12461:12514   */\n      mstore\n        /* \"#utility.yul\":12344:12521   */\n      pop\n      jump\t// out\n        /* \"#utility.yul\":12527:12649   */\n    tag_88:\n        /* \"#utility.yul\":12600:12624   */\n      tag_242\n        /* \"#utility.yul\":12618:12623   */\n      dup2\n        /* \"#utility.yul\":12600:12624   */\n      tag_201\n      jump\t// in\n    tag_242:\n        /* \"#utility.yul\":12593:12598   */\n      dup2\n        /* \"#utility.yul\":12590:12625   */\n      eq\n        /* \"#utility.yul\":12580:12643   */\n      tag_243\n      jumpi\n        /* \"#utility.yul\":12639:12640   */\n      0x00\n        /* \"#utility.yul\":12636:12637   */\n      dup1\n        /* \"#utility.yul\":12629:12641   */\n      revert\n        /* \"#utility.yul\":12580:12643   */\n    tag_243:\n        /* \"#utility.yul\":12527:12649   */\n      pop\n      jump\t// out\n        /* \"#utility.yul\":12655:12777   */\n    tag_92:\n        /* \"#utility.yul\":12728:12752   */\n      tag_245\n        /* \"#utility.yul\":12746:12751   */\n      dup2\n        /* \"#utility.yul\":12728:12752   */\n      tag_165\n      jump\t// in\n    tag_245:\n        /* \"#utility.yul\":12721:12726   */\n      dup2\n        /* \"#utility.yul\":12718:12753   */\n      eq\n        /* \"#utility.yul\":12708:12771   */\n      tag_246\n      jumpi\n        /* \"#utility.yul\":12767:12768   */\n      0x00\n        /* \"#utility.yul\":12764:12765   */\n      dup1\n        /* \"#utility.yul\":12757:12769   */\n      revert\n        /* \"#utility.yul\":12708:12771   */\n    tag_246:\n        /* \"#utility.yul\":12655:12777   */\n      pop\n      jump\t// out\n\n    auxdata: 0xa264697066735822122090f36934bf689a0c601470978881da0372f4baa67eab300330d294387560e9fb64736f6c63430008070033\n}\n",
				"bytecode": {
					"linkReferences": {},
					"object": "608060405234801561001057600080fd5b50336000806101000a81548173ffffffffffffffffffffffffffffffffffffffff021916908373ffffffffffffffffffffffffffffffffffffffff160217905550610cfd806100606000396000f3fe60806040526004361061003f5760003560e01c8063481c6a75146100445780635d495aea1461006f578063e97dcb6214610086578063f71d96cb14610090575b600080fd5b34801561005057600080fd5b506100596100cd565b6040516100669190610890565b60405180910390f35b34801561007b57600080fd5b506100846100f1565b005b61008e6102a0565b005b34801561009c57600080fd5b506100b760048036038101906100b29190610695565b61042d565b6040516100c491906108ab565b60405180910390f35b60008054906101000a900473ffffffffffffffffffffffffffffffffffffffff1681565b60008054906101000a900473ffffffffffffffffffffffffffffffffffffffff1673ffffffffffffffffffffffffffffffffffffffff163373ffffffffffffffffffffffffffffffffffffffff161461017f576040517f08c379a000000000000000000000000000000000000000000000000000000000815260040161017690610906565b60405180910390fd5b600060018054905061018f61046c565b6101999190610abd565b90506000309050600182815481106101b4576101b3610b4c565b5b9060005260206000200160009054906101000a900473ffffffffffffffffffffffffffffffffffffffff1673ffffffffffffffffffffffffffffffffffffffff166108fc8273ffffffffffffffffffffffffffffffffffffffff16319081150290604051600060405180830381858888f1935050505015801561023b573d6000803e3d6000fd5b50600067ffffffffffffffff81111561025757610256610b7b565b5b6040519080825280602002602001820160405280156102855781602001602082028036833780820191505090505b506001908051906020019061029b929190610597565b505050565b60008054906101000a900473ffffffffffffffffffffffffffffffffffffffff1673ffffffffffffffffffffffffffffffffffffffff163373ffffffffffffffffffffffffffffffffffffffff16141561032f576040517f08c379a0000000000000000000000000000000000000000000000000000000008152600401610326906108e6565b60405180910390fd5b6000151561033b6104ea565b15151461037d576040517f08c379a000000000000000000000000000000000000000000000000000000000815260040161037490610926565b60405180910390fd5b670de0b6b3a76400003410156103c8576040517f08c379a00000000000000000000000000000000000000000000000000000000081526004016103bf906108c6565b60405180910390fd5b6001339080600181540180825580915050600190039060005260206000200160009091909190916101000a81548173ffffffffffffffffffffffffffffffffffffffff021916908373ffffffffffffffffffffffffffffffffffffffff160217905550565b6001818154811061043d57600080fd5b906000526020600020016000915054906101000a900473ffffffffffffffffffffffffffffffffffffffff1681565b600060024443600160405160200161048693929190610857565b6040516020818303038152906040526040516104a29190610840565b602060405180830381855afa1580156104bf573d6000803e3d6000fd5b5050506040513d601f19601f820116820180604052508101906104e29190610668565b60001c905090565b600080600090505b60018054905081101561058e576001818154811061051357610512610b4c565b5b9060005260206000200160009054906101000a900473ffffffffffffffffffffffffffffffffffffffff1673ffffffffffffffffffffffffffffffffffffffff163373ffffffffffffffffffffffffffffffffffffffff16141561057b576001915050610594565b808061058690610a6a565b9150506104f2565b50600090505b90565b828054828255906000526020600020908101928215610610579160200282015b8281111561060f5782518260006101000a81548173ffffffffffffffffffffffffffffffffffffffff021916908373ffffffffffffffffffffffffffffffffffffffff160217905550916020019190600101906105b7565b5b50905061061d9190610621565b5090565b5b8082111561063a576000816000905550600101610622565b5090565b60008151905061064d81610c99565b92915050565b60008135905061066281610cb0565b92915050565b60006020828403121561067e5761067d610bbd565b5b600061068c8482850161063e565b91505092915050565b6000602082840312156106ab576106aa610bbd565b5b60006106b984828501610653565b91505092915050565b60006106ce83836106e9565b60208301905092915050565b6106e3816109d7565b82525050565b6106f2816109d7565b82525050565b610701816109c5565b82525050565b60006107128261095b565b61071c818561097e565b935061072783610946565b8060005b8381101561075f5761073c82610baa565b61074688826106c2565b975061075183610971565b92505060018101905061072b565b5085935050505092915050565b600061077782610966565b6107818185610989565b9350610791818560208601610a1d565b80840191505092915050565b60006107aa601a83610994565b91506107b582610bcf565b602082019050919050565b60006107cd602383610994565b91506107d882610bf8565b604082019050919050565b60006107f0601c83610994565b91506107fb82610c47565b602082019050919050565b6000610813601b83610994565b915061081e82610c70565b602082019050919050565b61083a61083582610a13565b610ab3565b82525050565b600061084c828461076c565b915081905092915050565b60006108638286610829565b6020820191506108738285610829565b6020820191506108838284610707565b9150819050949350505050565b60006020820190506108a560008301846106f8565b92915050565b60006020820190506108c060008301846106da565b92915050565b600060208201905081810360008301526108df8161079d565b9050919050565b600060208201905081810360008301526108ff816107c0565b9050919050565b6000602082019050818103600083015261091f816107e3565b9050919050565b6000602082019050818103600083015261093f81610806565b9050919050565b60008190508160005260206000209050919050565b600081549050919050565b600081519050919050565b6000600182019050919050565b600081905092915050565b600081905092915050565b600082825260208201905092915050565b600073ffffffffffffffffffffffffffffffffffffffff82169050919050565b60006109d0826109f3565b9050919050565b60006109e2826109f3565b9050919050565b6000819050919050565b600073ffffffffffffffffffffffffffffffffffffffff82169050919050565b6000819050919050565b60005b83811015610a3b578082015181840152602081019050610a20565b83811115610a4a576000848401525b50505050565b6000610a63610a5e83610bc2565b6109a5565b9050919050565b6000610a7582610a13565b91507fffffffffffffffffffffffffffffffffffffffffffffffffffffffffffffffff821415610aa857610aa7610aee565b5b600182019050919050565b6000819050919050565b6000610ac882610a13565b9150610ad383610a13565b925082610ae357610ae2610b1d565b5b828206905092915050565b7f4e487b7100000000000000000000000000000000000000000000000000000000600052601160045260246000fd5b7f4e487b7100000000000000000000000000000000000000000000000000000000600052601260045260246000fd5b7f4e487b7100000000000000000000000000000000000000000000000000000000600052603260045260246000fd5b7f4e487b7100000000000000000000000000000000000000000000000000000000600052604160045260246000fd5b6000610bb68254610a50565b9050919050565b600080fd5b60008160001c9050919050565b7f4d696e696e6d756e20616d6f756e742069732021206574686572000000000000600082015250565b7f4d616e616765722063616e6e6f7420656e74657220696e20436f6d706574697460008201527f696f6e0000000000000000000000000000000000000000000000000000000000602082015250565b7f4d616e61676572206f6e6c79207069636b207468652077696e6e657200000000600082015250565b7f506c6179657220616c7265616479205061727469636970617465640000000000600082015250565b610ca2816109e9565b8114610cad57600080fd5b50565b610cb981610a13565b8114610cc457600080fd5b5056fea264697066735822122090f36934bf689a0c601470978881da0372f4baa67eab300330d294387560e9fb64736f6c63430008070033",
					"opcodes": "PUSH1 0x80 PUSH1 0x40 MSTORE CALLVALUE DUP1 ISZERO PUSH2 0x10 JUMPI PUSH1 0x0 DUP1 REVERT JUMPDEST POP CALLER PUSH1 0x0 DUP1 PUSH2 0x100 EXP DUP2 SLOAD DUP2 PUSH20 0xFFFFFFFFFFFFFFFFFFFFFFFFFFFFFFFFFFFFFFFF MUL NOT AND SWAP1 DUP4 PUSH20 0xFFFFFFFFFFFFFFFFFFFFFFFFFFFFFFFFFFFFFFFF AND MUL OR SWAP1 SSTORE POP PUSH2 0xCFD DUP1 PUSH2 0x60 PUSH1 0x0 CODECOPY PUSH1 0x0 RETURN INVALID PUSH1 0x80 PUSH1 0x40 MSTORE PUSH1 0x4 CALLDATASIZE LT PUSH2 0x3F JUMPI PUSH1 0x0 CALLDATALOAD PUSH1 0xE0 SHR DUP1 PUSH4 0x481C6A75 EQ PUSH2 0x44 JUMPI DUP1 PUSH4 0x5D495AEA EQ PUSH2 0x6F JUMPI DUP1 PUSH4 0xE97DCB62 EQ PUSH2 0x86 JUMPI DUP1 PUSH4 0xF71D96CB EQ PUSH2 0x90 JUMPI JUMPDEST PUSH1 0x0 DUP1 REVERT JUMPDEST CALLVALUE DUP1 ISZERO PUSH2 0x50 JUMPI PUSH1 0x0 DUP1 REVERT JUMPDEST POP PUSH2 0x59 PUSH2 0xCD JUMP JUMPDEST PUSH1 0x40 MLOAD PUSH2 0x66 SWAP2 SWAP1 PUSH2 0x890 JUMP JUMPDEST PUSH1 0x40 MLOAD DUP1 SWAP2 SUB SWAP1 RETURN JUMPDEST CALLVALUE DUP1 ISZERO PUSH2 0x7B JUMPI PUSH1 0x0 DUP1 REVERT JUMPDEST POP PUSH2 0x84 PUSH2 0xF1 JUMP JUMPDEST STOP JUMPDEST PUSH2 0x8E PUSH2 0x2A0 JUMP JUMPDEST STOP JUMPDEST CALLVALUE DUP1 ISZERO PUSH2 0x9C JUMPI PUSH1 0x0 DUP1 REVERT JUMPDEST POP PUSH2 0xB7 PUSH1 0x4 DUP1 CALLDATASIZE SUB DUP2 ADD SWAP1 PUSH2 0xB2 SWAP2 SWAP1 PUSH2 0x695 JUMP JUMPDEST PUSH2 0x42D JUMP JUMPDEST PUSH1 0x40 MLOAD PUSH2 0xC4 SWAP2 SWAP1 PUSH2 0x8AB JUMP JUMPDEST PUSH1 0x40 MLOAD DUP1 SWAP2 SUB SWAP1 RETURN JUMPDEST PUSH1 0x0 DUP1 SLOAD SWAP1 PUSH2 0x100 EXP SWAP1 DIV PUSH20 0xFFFFFFFFFFFFFFFFFFFFFFFFFFFFFFFFFFFFFFFF AND DUP2 JUMP JUMPDEST PUSH1 0x0 DUP1 SLOAD SWAP1 PUSH2 0x100 EXP SWAP1 DIV PUSH20 0xFFFFFFFFFFFFFFFFFFFFFFFFFFFFFFFFFFFFFFFF AND PUSH20 0xFFFFFFFFFFFFFFFFFFFFFFFFFFFFFFFFFFFFFFFF AND CALLER PUSH20 0xFFFFFFFFFFFFFFFFFFFFFFFFFFFFFFFFFFFFFFFF AND EQ PUSH2 0x17F JUMPI PUSH1 0x40 MLOAD PUSH32 0x8C379A000000000000000000000000000000000000000000000000000000000 DUP2 MSTORE PUSH1 0x4 ADD PUSH2 0x176 SWAP1 PUSH2 0x906 JUMP JUMPDEST PUSH1 0x40 MLOAD DUP1 SWAP2 SUB SWAP1 REVERT JUMPDEST PUSH1 0x0 PUSH1 0x1 DUP1 SLOAD SWAP1 POP PUSH2 0x18F PUSH2 0x46C JUMP JUMPDEST PUSH2 0x199 SWAP2 SWAP1 PUSH2 0xABD JUMP JUMPDEST SWAP1 POP PUSH1 0x0 ADDRESS SWAP1 POP PUSH1 0x1 DUP3 DUP2 SLOAD DUP2 LT PUSH2 0x1B4 JUMPI PUSH2 0x1B3 PUSH2 0xB4C JUMP JUMPDEST JUMPDEST SWAP1 PUSH1 0x0 MSTORE PUSH1 0x20 PUSH1 0x0 KECCAK256 ADD PUSH1 0x0 SWAP1 SLOAD SWAP1 PUSH2 0x100 EXP SWAP1 DIV PUSH20 0xFFFFFFFFFFFFFFFFFFFFFFFFFFFFFFFFFFFFFFFF AND PUSH20 0xFFFFFFFFFFFFFFFFFFFFFFFFFFFFFFFFFFFFFFFF AND PUSH2 0x8FC DUP3 PUSH20 0xFFFFFFFFFFFFFFFFFFFFFFFFFFFFFFFFFFFFFFFF AND BALANCE SWAP1 DUP2 ISZERO MUL SWAP1 PUSH1 0x40 MLOAD PUSH1 0x0 PUSH1 0x40 MLOAD DUP1 DUP4 SUB DUP2 DUP6 DUP9 DUP9 CALL SWAP4 POP POP POP POP ISZERO DUP1 ISZERO PUSH2 0x23B JUMPI RETURNDATASIZE PUSH1 0x0 DUP1 RETURNDATACOPY RETURNDATASIZE PUSH1 0x0 REVERT JUMPDEST POP PUSH1 0x0 PUSH8 0xFFFFFFFFFFFFFFFF DUP2 GT ISZERO PUSH2 0x257 JUMPI PUSH2 0x256 PUSH2 0xB7B JUMP JUMPDEST JUMPDEST PUSH1 0x40 MLOAD SWAP1 DUP1 DUP3 MSTORE DUP1 PUSH1 0x20 MUL PUSH1 0x20 ADD DUP3 ADD PUSH1 0x40 MSTORE DUP1 ISZERO PUSH2 0x285 JUMPI DUP2 PUSH1 0x20 ADD PUSH1 0x20 DUP3 MUL DUP1 CALLDATASIZE DUP4 CALLDATACOPY DUP1 DUP3 ADD SWAP2 POP POP SWAP1 POP JUMPDEST POP PUSH1 0x1 SWAP1 DUP1 MLOAD SWAP1 PUSH1 0x20 ADD SWAP1 PUSH2 0x29B SWAP3 SWAP2 SWAP1 PUSH2 0x597 JUMP JUMPDEST POP POP POP JUMP JUMPDEST PUSH1 0x0 DUP1 SLOAD SWAP1 PUSH2 0x100 EXP SWAP1 DIV PUSH20 0xFFFFFFFFFFFFFFFFFFFFFFFFFFFFFFFFFFFFFFFF AND PUSH20 0xFFFFFFFFFFFFFFFFFFFFFFFFFFFFFFFFFFFFFFFF AND CALLER PUSH20 0xFFFFFFFFFFFFFFFFFFFFFFFFFFFFFFFFFFFFFFFF AND EQ ISZERO PUSH2 0x32F JUMPI PUSH1 0x40 MLOAD PUSH32 0x8C379A000000000000000000000000000000000000000000000000000000000 DUP2 MSTORE PUSH1 0x4 ADD PUSH2 0x326 SWAP1 PUSH2 0x8E6 JUMP JUMPDEST PUSH1 0x40 MLOAD DUP1 SWAP2 SUB SWAP1 REVERT JUMPDEST PUSH1 0x0 ISZERO ISZERO PUSH2 0x33B PUSH2 0x4EA JUMP JUMPDEST ISZERO ISZERO EQ PUSH2 0x37D JUMPI PUSH1 0x40 MLOAD PUSH32 0x8C379A000000000000000000000000000000000000000000000000000000000 DUP2 MSTORE PUSH1 0x4 ADD PUSH2 0x374 SWAP1 PUSH2 0x926 JUMP JUMPDEST PUSH1 0x40 MLOAD DUP1 SWAP2 SUB SWAP1 REVERT JUMPDEST PUSH8 0xDE0B6B3A7640000 CALLVALUE LT ISZERO PUSH2 0x3C8 JUMPI PUSH1 0x40 MLOAD PUSH32 0x8C379A000000000000000000000000000000000000000000000000000000000 DUP2 MSTORE PUSH1 0x4 ADD PUSH2 0x3BF SWAP1 PUSH2 0x8C6 JUMP JUMPDEST PUSH1 0x40 MLOAD DUP1 SWAP2 SUB SWAP1 REVERT JUMPDEST PUSH1 0x1 CALLER SWAP1 DUP1 PUSH1 0x1 DUP2 SLOAD ADD DUP1 DUP3 SSTORE DUP1 SWAP2 POP POP PUSH1 0x1 SWAP1 SUB SWAP1 PUSH1 0x0 MSTORE PUSH1 0x20 PUSH1 0x0 KECCAK256 ADD PUSH1 0x0 SWAP1 SWAP2 SWAP1 SWAP2 SWAP1 SWAP2 PUSH2 0x100 EXP DUP2 SLOAD DUP2 PUSH20 0xFFFFFFFFFFFFFFFFFFFFFFFFFFFFFFFFFFFFFFFF MUL NOT AND SWAP1 DUP4 PUSH20 0xFFFFFFFFFFFFFFFFFFFFFFFFFFFFFFFFFFFFFFFF AND MUL OR SWAP1 SSTORE POP JUMP JUMPDEST PUSH1 0x1 DUP2 DUP2 SLOAD DUP2 LT PUSH2 0x43D JUMPI PUSH1 0x0 DUP1 REVERT JUMPDEST SWAP1 PUSH1 0x0 MSTORE PUSH1 0x20 PUSH1 0x0 KECCAK256 ADD PUSH1 0x0 SWAP2 POP SLOAD SWAP1 PUSH2 0x100 EXP SWAP1 DIV PUSH20 0xFFFFFFFFFFFFFFFFFFFFFFFFFFFFFFFFFFFFFFFF AND DUP2 JUMP JUMPDEST PUSH1 0x0 PUSH1 0x2 DIFFICULTY NUMBER PUSH1 0x1 PUSH1 0x40 MLOAD PUSH1 0x20 ADD PUSH2 0x486 SWAP4 SWAP3 SWAP2 SWAP1 PUSH2 0x857 JUMP JUMPDEST PUSH1 0x40 MLOAD PUSH1 0x20 DUP2 DUP4 SUB SUB DUP2 MSTORE SWAP1 PUSH1 0x40 MSTORE PUSH1 0x40 MLOAD PUSH2 0x4A2 SWAP2 SWAP1 PUSH2 0x840 JUMP JUMPDEST PUSH1 0x20 PUSH1 0x40 MLOAD DUP1 DUP4 SUB DUP2 DUP6 GAS STATICCALL ISZERO DUP1 ISZERO PUSH2 0x4BF JUMPI RETURNDATASIZE PUSH1 0x0 DUP1 RETURNDATACOPY RETURNDATASIZE PUSH1 0x0 REVERT JUMPDEST POP POP POP PUSH1 0x40 MLOAD RETURNDATASIZE PUSH1 0x1F NOT PUSH1 0x1F DUP3 ADD AND DUP3 ADD DUP1 PUSH1 0x40 MSTORE POP DUP2 ADD SWAP1 PUSH2 0x4E2 SWAP2 SWAP1 PUSH2 0x668 JUMP JUMPDEST PUSH1 0x0 SHR SWAP1 POP SWAP1 JUMP JUMPDEST PUSH1 0x0 DUP1 PUSH1 0x0 SWAP1 POP JUMPDEST PUSH1 0x1 DUP1 SLOAD SWAP1 POP DUP2 LT ISZERO PUSH2 0x58E JUMPI PUSH1 0x1 DUP2 DUP2 SLOAD DUP2 LT PUSH2 0x513 JUMPI PUSH2 0x512 PUSH2 0xB4C JUMP JUMPDEST JUMPDEST SWAP1 PUSH1 0x0 MSTORE PUSH1 0x20 PUSH1 0x0 KECCAK256 ADD PUSH1 0x0 SWAP1 SLOAD SWAP1 PUSH2 0x100 EXP SWAP1 DIV PUSH20 0xFFFFFFFFFFFFFFFFFFFFFFFFFFFFFFFFFFFFFFFF AND PUSH20 0xFFFFFFFFFFFFFFFFFFFFFFFFFFFFFFFFFFFFFFFF AND CALLER PUSH20 0xFFFFFFFFFFFFFFFFFFFFFFFFFFFFFFFFFFFFFFFF AND EQ ISZERO PUSH2 0x57B JUMPI PUSH1 0x1 SWAP2 POP POP PUSH2 0x594 JUMP JUMPDEST DUP1 DUP1 PUSH2 0x586 SWAP1 PUSH2 0xA6A JUMP JUMPDEST SWAP2 POP POP PUSH2 0x4F2 JUMP JUMPDEST POP PUSH1 0x0 SWAP1 POP JUMPDEST SWAP1 JUMP JUMPDEST DUP3 DUP1 SLOAD DUP3 DUP3 SSTORE SWAP1 PUSH1 0x0 MSTORE PUSH1 0x20 PUSH1 0x0 KECCAK256 SWAP1 DUP2 ADD SWAP3 DUP3 ISZERO PUSH2 0x610 JUMPI SWAP2 PUSH1 0x20 MUL DUP3 ADD JUMPDEST DUP3 DUP2 GT ISZERO PUSH2 0x60F JUMPI DUP3 MLOAD DUP3 PUSH1 0x0 PUSH2 0x100 EXP DUP2 SLOAD DUP2 PUSH20 0xFFFFFFFFFFFFFFFFFFFFFFFFFFFFFFFFFFFFFFFF MUL NOT AND SWAP1 DUP4 PUSH20 0xFFFFFFFFFFFFFFFFFFFFFFFFFFFFFFFFFFFFFFFF AND MUL OR SWAP1 SSTORE POP SWAP2 PUSH1 0x20 ADD SWAP2 SWAP1 PUSH1 0x1 ADD SWAP1 PUSH2 0x5B7 JUMP JUMPDEST JUMPDEST POP SWAP1 POP PUSH2 0x61D SWAP2 SWAP1 PUSH2 0x621 JUMP JUMPDEST POP SWAP1 JUMP JUMPDEST JUMPDEST DUP1 DUP3 GT ISZERO PUSH2 0x63A JUMPI PUSH1 0x0 DUP2 PUSH1 0x0 SWAP1 SSTORE POP PUSH1 0x1 ADD PUSH2 0x622 JUMP JUMPDEST POP SWAP1 JUMP JUMPDEST PUSH1 0x0 DUP2 MLOAD SWAP1 POP PUSH2 0x64D DUP2 PUSH2 0xC99 JUMP JUMPDEST SWAP3 SWAP2 POP POP JUMP JUMPDEST PUSH1 0x0 DUP2 CALLDATALOAD SWAP1 POP PUSH2 0x662 DUP2 PUSH2 0xCB0 JUMP JUMPDEST SWAP3 SWAP2 POP POP JUMP JUMPDEST PUSH1 0x0 PUSH1 0x20 DUP3 DUP5 SUB SLT ISZERO PUSH2 0x67E JUMPI PUSH2 0x67D PUSH2 0xBBD JUMP JUMPDEST JUMPDEST PUSH1 0x0 PUSH2 0x68C DUP5 DUP3 DUP6 ADD PUSH2 0x63E JUMP JUMPDEST SWAP2 POP POP SWAP3 SWAP2 POP POP JUMP JUMPDEST PUSH1 0x0 PUSH1 0x20 DUP3 DUP5 SUB SLT ISZERO PUSH2 0x6AB JUMPI PUSH2 0x6AA PUSH2 0xBBD JUMP JUMPDEST JUMPDEST PUSH1 0x0 PUSH2 0x6B9 DUP5 DUP3 DUP6 ADD PUSH2 0x653 JUMP JUMPDEST SWAP2 POP POP SWAP3 SWAP2 POP POP JUMP JUMPDEST PUSH1 0x0 PUSH2 0x6CE DUP4 DUP4 PUSH2 0x6E9 JUMP JUMPDEST PUSH1 0x20 DUP4 ADD SWAP1 POP SWAP3 SWAP2 POP POP JUMP JUMPDEST PUSH2 0x6E3 DUP2 PUSH2 0x9D7 JUMP JUMPDEST DUP3 MSTORE POP POP JUMP JUMPDEST PUSH2 0x6F2 DUP2 PUSH2 0x9D7 JUMP JUMPDEST DUP3 MSTORE POP POP JUMP JUMPDEST PUSH2 0x701 DUP2 PUSH2 0x9C5 JUMP JUMPDEST DUP3 MSTORE POP POP JUMP JUMPDEST PUSH1 0x0 PUSH2 0x712 DUP3 PUSH2 0x95B JUMP JUMPDEST PUSH2 0x71C DUP2 DUP6 PUSH2 0x97E JUMP JUMPDEST SWAP4 POP PUSH2 0x727 DUP4 PUSH2 0x946 JUMP JUMPDEST DUP1 PUSH1 0x0 JUMPDEST DUP4 DUP2 LT ISZERO PUSH2 0x75F JUMPI PUSH2 0x73C DUP3 PUSH2 0xBAA JUMP JUMPDEST PUSH2 0x746 DUP9 DUP3 PUSH2 0x6C2 JUMP JUMPDEST SWAP8 POP PUSH2 0x751 DUP4 PUSH2 0x971 JUMP JUMPDEST SWAP3 POP POP PUSH1 0x1 DUP2 ADD SWAP1 POP PUSH2 0x72B JUMP JUMPDEST POP DUP6 SWAP4 POP POP POP POP SWAP3 SWAP2 POP POP JUMP JUMPDEST PUSH1 0x0 PUSH2 0x777 DUP3 PUSH2 0x966 JUMP JUMPDEST PUSH2 0x781 DUP2 DUP6 PUSH2 0x989 JUMP JUMPDEST SWAP4 POP PUSH2 0x791 DUP2 DUP6 PUSH1 0x20 DUP7 ADD PUSH2 0xA1D JUMP JUMPDEST DUP1 DUP5 ADD SWAP2 POP POP SWAP3 SWAP2 POP POP JUMP JUMPDEST PUSH1 0x0 PUSH2 0x7AA PUSH1 0x1A DUP4 PUSH2 0x994 JUMP JUMPDEST SWAP2 POP PUSH2 0x7B5 DUP3 PUSH2 0xBCF JUMP JUMPDEST PUSH1 0x20 DUP3 ADD SWAP1 POP SWAP2 SWAP1 POP JUMP JUMPDEST PUSH1 0x0 PUSH2 0x7CD PUSH1 0x23 DUP4 PUSH2 0x994 JUMP JUMPDEST SWAP2 POP PUSH2 0x7D8 DUP3 PUSH2 0xBF8 JUMP JUMPDEST PUSH1 0x40 DUP3 ADD SWAP1 POP SWAP2 SWAP1 POP JUMP JUMPDEST PUSH1 0x0 PUSH2 0x7F0 PUSH1 0x1C DUP4 PUSH2 0x994 JUMP JUMPDEST SWAP2 POP PUSH2 0x7FB DUP3 PUSH2 0xC47 JUMP JUMPDEST PUSH1 0x20 DUP3 ADD SWAP1 POP SWAP2 SWAP1 POP JUMP JUMPDEST PUSH1 0x0 PUSH2 0x813 PUSH1 0x1B DUP4 PUSH2 0x994 JUMP JUMPDEST SWAP2 POP PUSH2 0x81E DUP3 PUSH2 0xC70 JUMP JUMPDEST PUSH1 0x20 DUP3 ADD SWAP1 POP SWAP2 SWAP1 POP JUMP JUMPDEST PUSH2 0x83A PUSH2 0x835 DUP3 PUSH2 0xA13 JUMP JUMPDEST PUSH2 0xAB3 JUMP JUMPDEST DUP3 MSTORE POP POP JUMP JUMPDEST PUSH1 0x0 PUSH2 0x84C DUP3 DUP5 PUSH2 0x76C JUMP JUMPDEST SWAP2 POP DUP2 SWAP1 POP SWAP3 SWAP2 POP POP JUMP JUMPDEST PUSH1 0x0 PUSH2 0x863 DUP3 DUP7 PUSH2 0x829 JUMP JUMPDEST PUSH1 0x20 DUP3 ADD SWAP2 POP PUSH2 0x873 DUP3 DUP6 PUSH2 0x829 JUMP JUMPDEST PUSH1 0x20 DUP3 ADD SWAP2 POP PUSH2 0x883 DUP3 DUP5 PUSH2 0x707 JUMP JUMPDEST SWAP2 POP DUP2 SWAP1 POP SWAP5 SWAP4 POP POP POP POP JUMP JUMPDEST PUSH1 0x0 PUSH1 0x20 DUP3 ADD SWAP1 POP PUSH2 0x8A5 PUSH1 0x0 DUP4 ADD DUP5 PUSH2 0x6F8 JUMP JUMPDEST SWAP3 SWAP2 POP POP JUMP JUMPDEST PUSH1 0x0 PUSH1 0x20 DUP3 ADD SWAP1 POP PUSH2 0x8C0 PUSH1 0x0 DUP4 ADD DUP5 PUSH2 0x6DA JUMP JUMPDEST SWAP3 SWAP2 POP POP JUMP JUMPDEST PUSH1 0x0 PUSH1 0x20 DUP3 ADD SWAP1 POP DUP2 DUP2 SUB PUSH1 0x0 DUP4 ADD MSTORE PUSH2 0x8DF DUP2 PUSH2 0x79D JUMP JUMPDEST SWAP1 POP SWAP2 SWAP1 POP JUMP JUMPDEST PUSH1 0x0 PUSH1 0x20 DUP3 ADD SWAP1 POP DUP2 DUP2 SUB PUSH1 0x0 DUP4 ADD MSTORE PUSH2 0x8FF DUP2 PUSH2 0x7C0 JUMP JUMPDEST SWAP1 POP SWAP2 SWAP1 POP JUMP JUMPDEST PUSH1 0x0 PUSH1 0x20 DUP3 ADD SWAP1 POP DUP2 DUP2 SUB PUSH1 0x0 DUP4 ADD MSTORE PUSH2 0x91F DUP2 PUSH2 0x7E3 JUMP JUMPDEST SWAP1 POP SWAP2 SWAP1 POP JUMP JUMPDEST PUSH1 0x0 PUSH1 0x20 DUP3 ADD SWAP1 POP DUP2 DUP2 SUB PUSH1 0x0 DUP4 ADD MSTORE PUSH2 0x93F DUP2 PUSH2 0x806 JUMP JUMPDEST SWAP1 POP SWAP2 SWAP1 POP JUMP JUMPDEST PUSH1 0x0 DUP2 SWAP1 POP DUP2 PUSH1 0x0 MSTORE PUSH1 0x20 PUSH1 0x0 KECCAK256 SWAP1 POP SWAP2 SWAP1 POP JUMP JUMPDEST PUSH1 0x0 DUP2 SLOAD SWAP1 POP SWAP2 SWAP1 POP JUMP JUMPDEST PUSH1 0x0 DUP2 MLOAD SWAP1 POP SWAP2 SWAP1 POP JUMP JUMPDEST PUSH1 0x0 PUSH1 0x1 DUP3 ADD SWAP1 POP SWAP2 SWAP1 POP JUMP JUMPDEST PUSH1 0x0 DUP2 SWAP1 POP SWAP3 SWAP2 POP POP JUMP JUMPDEST PUSH1 0x0 DUP2 SWAP1 POP SWAP3 SWAP2 POP POP JUMP JUMPDEST PUSH1 0x0 DUP3 DUP3 MSTORE PUSH1 0x20 DUP3 ADD SWAP1 POP SWAP3 SWAP2 POP POP JUMP JUMPDEST PUSH1 0x0 PUSH20 0xFFFFFFFFFFFFFFFFFFFFFFFFFFFFFFFFFFFFFFFF DUP3 AND SWAP1 POP SWAP2 SWAP1 POP JUMP JUMPDEST PUSH1 0x0 PUSH2 0x9D0 DUP3 PUSH2 0x9F3 JUMP JUMPDEST SWAP1 POP SWAP2 SWAP1 POP JUMP JUMPDEST PUSH1 0x0 PUSH2 0x9E2 DUP3 PUSH2 0x9F3 JUMP JUMPDEST SWAP1 POP SWAP2 SWAP1 POP JUMP JUMPDEST PUSH1 0x0 DUP2 SWAP1 POP SWAP2 SWAP1 POP JUMP JUMPDEST PUSH1 0x0 PUSH20 0xFFFFFFFFFFFFFFFFFFFFFFFFFFFFFFFFFFFFFFFF DUP3 AND SWAP1 POP SWAP2 SWAP1 POP JUMP JUMPDEST PUSH1 0x0 DUP2 SWAP1 POP SWAP2 SWAP1 POP JUMP JUMPDEST PUSH1 0x0 JUMPDEST DUP4 DUP2 LT ISZERO PUSH2 0xA3B JUMPI DUP1 DUP3 ADD MLOAD DUP2 DUP5 ADD MSTORE PUSH1 0x20 DUP2 ADD SWAP1 POP PUSH2 0xA20 JUMP JUMPDEST DUP4 DUP2 GT ISZERO PUSH2 0xA4A JUMPI PUSH1 0x0 DUP5 DUP5 ADD MSTORE JUMPDEST POP POP POP POP JUMP JUMPDEST PUSH1 0x0 PUSH2 0xA63 PUSH2 0xA5E DUP4 PUSH2 0xBC2 JUMP JUMPDEST PUSH2 0x9A5 JUMP JUMPDEST SWAP1 POP SWAP2 SWAP1 POP JUMP JUMPDEST PUSH1 0x0 PUSH2 0xA75 DUP3 PUSH2 0xA13 JUMP JUMPDEST SWAP2 POP PUSH32 0xFFFFFFFFFFFFFFFFFFFFFFFFFFFFFFFFFFFFFFFFFFFFFFFFFFFFFFFFFFFFFFFF DUP3 EQ ISZERO PUSH2 0xAA8 JUMPI PUSH2 0xAA7 PUSH2 0xAEE JUMP JUMPDEST JUMPDEST PUSH1 0x1 DUP3 ADD SWAP1 POP SWAP2 SWAP1 POP JUMP JUMPDEST PUSH1 0x0 DUP2 SWAP1 POP SWAP2 SWAP1 POP JUMP JUMPDEST PUSH1 0x0 PUSH2 0xAC8 DUP3 PUSH2 0xA13 JUMP JUMPDEST SWAP2 POP PUSH2 0xAD3 DUP4 PUSH2 0xA13 JUMP JUMPDEST SWAP3 POP DUP3 PUSH2 0xAE3 JUMPI PUSH2 0xAE2 PUSH2 0xB1D JUMP JUMPDEST JUMPDEST DUP3 DUP3 MOD SWAP1 POP SWAP3 SWAP2 POP POP JUMP JUMPDEST PUSH32 0x4E487B7100000000000000000000000000000000000000000000000000000000 PUSH1 0x0 MSTORE PUSH1 0x11 PUSH1 0x4 MSTORE PUSH1 0x24 PUSH1 0x0 REVERT JUMPDEST PUSH32 0x4E487B7100000000000000000000000000000000000000000000000000000000 PUSH1 0x0 MSTORE PUSH1 0x12 PUSH1 0x4 MSTORE PUSH1 0x24 PUSH1 0x0 REVERT JUMPDEST PUSH32 0x4E487B7100000000000000000000000000000000000000000000000000000000 PUSH1 0x0 MSTORE PUSH1 0x32 PUSH1 0x4 MSTORE PUSH1 0x24 PUSH1 0x0 REVERT JUMPDEST PUSH32 0x4E487B7100000000000000000000000000000000000000000000000000000000 PUSH1 0x0 MSTORE PUSH1 0x41 PUSH1 0x4 MSTORE PUSH1 0x24 PUSH1 0x0 REVERT JUMPDEST PUSH1 0x0 PUSH2 0xBB6 DUP3 SLOAD PUSH2 0xA50 JUMP JUMPDEST SWAP1 POP SWAP2 SWAP1 POP JUMP JUMPDEST PUSH1 0x0 DUP1 REVERT JUMPDEST PUSH1 0x0 DUP2 PUSH1 0x0 SHR SWAP1 POP SWAP2 SWAP1 POP JUMP JUMPDEST PUSH32 0x4D696E696E6D756E20616D6F756E742069732021206574686572000000000000 PUSH1 0x0 DUP3 ADD MSTORE POP JUMP JUMPDEST PUSH32 0x4D616E616765722063616E6E6F7420656E74657220696E20436F6D7065746974 PUSH1 0x0 DUP3 ADD MSTORE PUSH32 0x696F6E0000000000000000000000000000000000000000000000000000000000 PUSH1 0x20 DUP3 ADD MSTORE POP JUMP JUMPDEST PUSH32 0x4D616E61676572206F6E6C79207069636B207468652077696E6E657200000000 PUSH1 0x0 DUP3 ADD MSTORE POP JUMP JUMPDEST PUSH32 0x506C6179657220616C7265616479205061727469636970617465640000000000 PUSH1 0x0 DUP3 ADD MSTORE POP JUMP JUMPDEST PUSH2 0xCA2 DUP2 PUSH2 0x9E9 JUMP JUMPDEST DUP2 EQ PUSH2 0xCAD JUMPI PUSH1 0x0 DUP1 REVERT JUMPDEST POP JUMP JUMPDEST PUSH2 0xCB9 DUP2 PUSH2 0xA13 JUMP JUMPDEST DUP2 EQ PUSH2 0xCC4 JUMPI PUSH1 0x0 DUP1 REVERT JUMPDEST POP JUMP INVALID LOG2 PUSH5 0x6970667358 0x22 SLT KECCAK256 SWAP1 RETURN PUSH10 0x34BF689A0C6014709788 DUP2 0xDA SUB PUSH19 0xF4BAA67EAB300330D294387560E9FB64736F6C PUSH4 0x43000807 STOP CALLER "
				},
				"gasEstimates": {
					"creation": {
						"codeDepositCost": "665000",
						"executionCost": "24962",
						"totalCost": "689962"
					},
					"external": {
						"enter()": "infinite",
						"manager()": "2489",
						"pickWinner()": "infinite",
						"players(uint256)": "5000"
					},
					"internal": {
						"alreadyEnteres()": "infinite",
						"random()": "infinite"
					}
				},
				"methodIdentifiers": {
					"enter()": "e97dcb62",
					"manager()": "481c6a75",
					"pickWinner()": "5d495aea",
					"players(uint256)": "f71d96cb"
				}
			},
			"storageLayout": {
				"storage": [
					{
						"astId": 3,
						"contract": "lotterySmartContract.sol:Lottery",
						"label": "manager",
						"offset": 0,
						"slot": "0",
						"type": "t_address"
					},
					{
						"astId": 6,
						"contract": "lotterySmartContract.sol:Lottery",
						"label": "players",
						"offset": 0,
						"slot": "1",
						"type": "t_array(t_address_payable)dyn_storage"
					}
				],
				"types": {
					"t_address": {
						"encoding": "inplace",
						"label": "address",
						"numberOfBytes": "20"
					},
					"t_address_payable": {
						"encoding": "inplace",
						"label": "address payable",
						"numberOfBytes": "20"
					},
					"t_array(t_address_payable)dyn_storage": {
						"base": "t_address_payable",
						"encoding": "dynamic_array",
						"label": "address payable[]",
						"numberOfBytes": "32"
					}
				}
			},
			"userdoc": {
				"kind": "user",
				"methods": {},
				"version": 1
			}
		}
	}
}