{
	"alltypesoffunction.sol": {
		"allTypesFunction": {
			"abi": [
				{
					"inputs": [],
					"name": "age",
					"outputs": [
						{
							"internalType": "uint256",
							"name": "",
							"type": "uint256"
						}
					],
					"stateMutability": "view",
					"type": "function"
				},
				{
					"inputs": [],
					"name": "pureFunctionImp",
					"outputs": [
						{
							"internalType": "uint256",
							"name": "",
							"type": "uint256"
						}
					],
					"stateMutability": "pure",
					"type": "function"
				},
				{
					"inputs": [],
					"name": "viewFuctionImpl",
					"outputs": [
						{
							"internalType": "uint256",
							"name": "",
							"type": "uint256"
						}
					],
					"stateMutability": "view",
					"type": "function"
				}
			],
			"devdoc": {
				"kind": "dev",
				"methods": {},
				"version": 1
			},
			"evm": {
				"assembly": "    /* \"alltypesoffunction.sol\":65:283  contract allTypesFunction{... */\n  mstore(0x40, 0x80)\n    /* \"alltypesoffunction.sol\":115:117  10 */\n  0x0a\n    /* \"alltypesoffunction.sol\":97:117  uint public age = 10 */\n  0x00\n  sstore\n    /* \"alltypesoffunction.sol\":65:283  contract allTypesFunction{... */\n  callvalue\n  dup1\n  iszero\n  tag_1\n  jumpi\n  0x00\n  dup1\n  revert\ntag_1:\n  pop\n  dataSize(sub_0)\n  dup1\n  dataOffset(sub_0)\n  0x00\n  codecopy\n  0x00\n  return\nstop\n\nsub_0: assembly {\n        /* \"alltypesoffunction.sol\":65:283  contract allTypesFunction{... */\n      mstore(0x40, 0x80)\n      callvalue\n      dup1\n      iszero\n      tag_1\n      jumpi\n      0x00\n      dup1\n      revert\n    tag_1:\n      pop\n      jumpi(tag_2, lt(calldatasize, 0x04))\n      shr(0xe0, calldataload(0x00))\n      dup1\n      0x262a9dff\n      eq\n      tag_3\n      jumpi\n      dup1\n      0x94a50cc8\n      eq\n      tag_4\n      jumpi\n      dup1\n      0xfc262bfe\n      eq\n      tag_5\n      jumpi\n    tag_2:\n      0x00\n      dup1\n      revert\n        /* \"alltypesoffunction.sol\":97:117  uint public age = 10 */\n    tag_3:\n      tag_6\n      tag_7\n      jump\t// in\n    tag_6:\n      mload(0x40)\n      tag_8\n      swap2\n      swap1\n      tag_9\n      jump\t// in\n    tag_8:\n      mload(0x40)\n      dup1\n      swap2\n      sub\n      swap1\n      return\n        /* \"alltypesoffunction.sol\":213:281  function pureFunctionImp() public pure returns(uint){... */\n    tag_4:\n      tag_10\n      tag_11\n      jump\t// in\n    tag_10:\n      mload(0x40)\n      tag_12\n      swap2\n      swap1\n      tag_9\n      jump\t// in\n    tag_12:\n      mload(0x40)\n      dup1\n      swap2\n      sub\n      swap1\n      return\n        /* \"alltypesoffunction.sol\":124:206  function viewFuctionImpl() public view returns(uint){... */\n    tag_5:\n      tag_13\n      tag_14\n      jump\t// in\n    tag_13:\n      mload(0x40)\n      tag_15\n      swap2\n      swap1\n      tag_9\n      jump\t// in\n    tag_15:\n      mload(0x40)\n      dup1\n      swap2\n      sub\n      swap1\n      return\n        /* \"alltypesoffunction.sol\":97:117  uint public age = 10 */\n    tag_7:\n      sload(0x00)\n      dup2\n      jump\t// out\n        /* \"alltypesoffunction.sol\":213:281  function pureFunctionImp() public pure returns(uint){... */\n    tag_11:\n        /* \"alltypesoffunction.sol\":260:264  uint */\n      0x00\n        /* \"alltypesoffunction.sol\":213:281  function pureFunctionImp() public pure returns(uint){... */\n      swap1\n      jump\t// out\n        /* \"alltypesoffunction.sol\":124:206  function viewFuctionImpl() public view returns(uint){... */\n    tag_14:\n        /* \"alltypesoffunction.sol\":171:175  uint */\n      0x00\n        /* \"alltypesoffunction.sol\":197:199  10 */\n      0x0a\n        /* \"alltypesoffunction.sol\":193:196  age */\n      sload(0x00)\n        /* \"alltypesoffunction.sol\":193:199  age+10 */\n      tag_18\n      swap2\n      swap1\n      tag_19\n      jump\t// in\n    tag_18:\n        /* \"alltypesoffunction.sol\":186:199  return age+10 */\n      swap1\n      pop\n        /* \"alltypesoffunction.sol\":124:206  function viewFuctionImpl() public view returns(uint){... */\n      swap1\n      jump\t// out\n        /* \"#utility.yul\":7:125   */\n    tag_21:\n        /* \"#utility.yul\":94:118   */\n      tag_23\n        /* \"#utility.yul\":112:117   */\n      dup2\n        /* \"#utility.yul\":94:118   */\n      tag_24\n      jump\t// in\n    tag_23:\n        /* \"#utility.yul\":89:92   */\n      dup3\n        /* \"#utility.yul\":82:119   */\n      mstore\n        /* \"#utility.yul\":7:125   */\n      pop\n      pop\n      jump\t// out\n        /* \"#utility.yul\":131:353   */\n    tag_9:\n        /* \"#utility.yul\":224:228   */\n      0x00\n        /* \"#utility.yul\":262:264   */\n      0x20\n        /* \"#utility.yul\":251:260   */\n      dup3\n        /* \"#utility.yul\":247:265   */\n      add\n        /* \"#utility.yul\":239:265   */\n      swap1\n      pop\n        /* \"#utility.yul\":275:346   */\n      tag_26\n        /* \"#utility.yul\":343:344   */\n      0x00\n        /* \"#utility.yul\":332:341   */\n      dup4\n        /* \"#utility.yul\":328:345   */\n      add\n        /* \"#utility.yul\":319:325   */\n      dup5\n        /* \"#utility.yul\":275:346   */\n      tag_21\n      jump\t// in\n    tag_26:\n        /* \"#utility.yul\":131:353   */\n      swap3\n      swap2\n      pop\n      pop\n      jump\t// out\n        /* \"#utility.yul\":359:664   */\n    tag_19:\n        /* \"#utility.yul\":399:402   */\n      0x00\n        /* \"#utility.yul\":418:438   */\n      tag_28\n        /* \"#utility.yul\":436:437   */\n      dup3\n        /* \"#utility.yul\":418:438   */\n      tag_24\n      jump\t// in\n    tag_28:\n        /* \"#utility.yul\":413:438   */\n      swap2\n      pop\n        /* \"#utility.yul\":452:472   */\n      tag_29\n        /* \"#utility.yul\":470:471   */\n      dup4\n        /* \"#utility.yul\":452:472   */\n      tag_24\n      jump\t// in\n    tag_29:\n        /* \"#utility.yul\":447:472   */\n      swap3\n      pop\n        /* \"#utility.yul\":606:607   */\n      dup3\n        /* \"#utility.yul\":538:604   */\n      0xffffffffffffffffffffffffffffffffffffffffffffffffffffffffffffffff\n        /* \"#utility.yul\":534:608   */\n      sub\n        /* \"#utility.yul\":531:532   */\n      dup3\n        /* \"#utility.yul\":528:609   */\n      gt\n        /* \"#utility.yul\":525:632   */\n      iszero\n      tag_30\n      jumpi\n        /* \"#utility.yul\":612:630   */\n      tag_31\n      tag_32\n      jump\t// in\n    tag_31:\n        /* \"#utility.yul\":525:632   */\n    tag_30:\n        /* \"#utility.yul\":656:657   */\n      dup3\n        /* \"#utility.yul\":653:654   */\n      dup3\n        /* \"#utility.yul\":649:658   */\n      add\n        /* \"#utility.yul\":642:658   */\n      swap1\n      pop\n        /* \"#utility.yul\":359:664   */\n      swap3\n      swap2\n      pop\n      pop\n      jump\t// out\n        /* \"#utility.yul\":670:747   */\n    tag_24:\n        /* \"#utility.yul\":707:714   */\n      0x00\n        /* \"#utility.yul\":736:741   */\n      dup2\n        /* \"#utility.yul\":725:741   */\n      swap1\n      pop\n        /* \"#utility.yul\":670:747   */\n      swap2\n      swap1\n      pop\n      jump\t// out\n        /* \"#utility.yul\":753:933   */\n    tag_32:\n        /* \"#utility.yul\":801:878   */\n      0x4e487b7100000000000000000000000000000000000000000000000000000000\n        /* \"#utility.yul\":798:799   */\n      0x00\n        /* \"#utility.yul\":791:879   */\n      mstore\n        /* \"#utility.yul\":898:902   */\n      0x11\n        /* \"#utility.yul\":895:896   */\n      0x04\n        /* \"#utility.yul\":888:903   */\n      mstore\n        /* \"#utility.yul\":922:926   */\n      0x24\n        /* \"#utility.yul\":919:920   */\n      0x00\n        /* \"#utility.yul\":912:927   */\n      revert\n\n    auxdata: 0xa26469706673582212205bc4caadc217f13032c890a4102c3f58a817c66bbce1aa1fa91de2ee9da13ffd64736f6c63430008070033\n}\n",
				"bytecode": {
					"linkReferences": {},
					"object": "6080604052600a60005534801561001557600080fd5b506101b0806100256000396000f3fe608060405234801561001057600080fd5b50600436106100415760003560e01c8063262a9dff1461004657806394a50cc814610064578063fc262bfe14610082575b600080fd5b61004e6100a0565b60405161005b91906100d0565b60405180910390f35b61006c6100a6565b60405161007991906100d0565b60405180910390f35b61008a6100ab565b60405161009791906100d0565b60405180910390f35b60005481565b600090565b6000600a6000546100bc91906100eb565b905090565b6100ca81610141565b82525050565b60006020820190506100e560008301846100c1565b92915050565b60006100f682610141565b915061010183610141565b9250827fffffffffffffffffffffffffffffffffffffffffffffffffffffffffffffffff038211156101365761013561014b565b5b828201905092915050565b6000819050919050565b7f4e487b7100000000000000000000000000000000000000000000000000000000600052601160045260246000fdfea26469706673582212205bc4caadc217f13032c890a4102c3f58a817c66bbce1aa1fa91de2ee9da13ffd64736f6c63430008070033",
					"opcodes": "PUSH1 0x80 PUSH1 0x40 MSTORE PUSH1 0xA PUSH1 0x0 SSTORE CALLVALUE DUP1 ISZERO PUSH2 0x15 JUMPI PUSH1 0x0 DUP1 REVERT JUMPDEST POP PUSH2 0x1B0 DUP1 PUSH2 0x25 PUSH1 0x0 CODECOPY PUSH1 0x0 RETURN INVALID PUSH1 0x80 PUSH1 0x40 MSTORE CALLVALUE DUP1 ISZERO PUSH2 0x10 JUMPI PUSH1 0x0 DUP1 REVERT JUMPDEST POP PUSH1 0x4 CALLDATASIZE LT PUSH2 0x41 JUMPI PUSH1 0x0 CALLDATALOAD PUSH1 0xE0 SHR DUP1 PUSH4 0x262A9DFF EQ PUSH2 0x46 JUMPI DUP1 PUSH4 0x94A50CC8 EQ PUSH2 0x64 JUMPI DUP1 PUSH4 0xFC262BFE EQ PUSH2 0x82 JUMPI JUMPDEST PUSH1 0x0 DUP1 REVERT JUMPDEST PUSH2 0x4E PUSH2 0xA0 JUMP JUMPDEST PUSH1 0x40 MLOAD PUSH2 0x5B SWAP2 SWAP1 PUSH2 0xD0 JUMP JUMPDEST PUSH1 0x40 MLOAD DUP1 SWAP2 SUB SWAP1 RETURN JUMPDEST PUSH2 0x6C PUSH2 0xA6 JUMP JUMPDEST PUSH1 0x40 MLOAD PUSH2 0x79 SWAP2 SWAP1 PUSH2 0xD0 JUMP JUMPDEST PUSH1 0x40 MLOAD DUP1 SWAP2 SUB SWAP1 RETURN JUMPDEST PUSH2 0x8A PUSH2 0xAB JUMP JUMPDEST PUSH1 0x40 MLOAD PUSH2 0x97 SWAP2 SWAP1 PUSH2 0xD0 JUMP JUMPDEST PUSH1 0x40 MLOAD DUP1 SWAP2 SUB SWAP1 RETURN JUMPDEST PUSH1 0x0 SLOAD DUP2 JUMP JUMPDEST PUSH1 0x0 SWAP1 JUMP JUMPDEST PUSH1 0x0 PUSH1 0xA PUSH1 0x0 SLOAD PUSH2 0xBC SWAP2 SWAP1 PUSH2 0xEB JUMP JUMPDEST SWAP1 POP SWAP1 JUMP JUMPDEST PUSH2 0xCA DUP2 PUSH2 0x141 JUMP JUMPDEST DUP3 MSTORE POP POP JUMP JUMPDEST PUSH1 0x0 PUSH1 0x20 DUP3 ADD SWAP1 POP PUSH2 0xE5 PUSH1 0x0 DUP4 ADD DUP5 PUSH2 0xC1 JUMP JUMPDEST SWAP3 SWAP2 POP POP JUMP JUMPDEST PUSH1 0x0 PUSH2 0xF6 DUP3 PUSH2 0x141 JUMP JUMPDEST SWAP2 POP PUSH2 0x101 DUP4 PUSH2 0x141 JUMP JUMPDEST SWAP3 POP DUP3 PUSH32 0xFFFFFFFFFFFFFFFFFFFFFFFFFFFFFFFFFFFFFFFFFFFFFFFFFFFFFFFFFFFFFFFF SUB DUP3 GT ISZERO PUSH2 0x136 JUMPI PUSH2 0x135 PUSH2 0x14B JUMP JUMPDEST JUMPDEST DUP3 DUP3 ADD SWAP1 POP SWAP3 SWAP2 POP POP JUMP JUMPDEST PUSH1 0x0 DUP2 SWAP1 POP SWAP2 SWAP1 POP JUMP JUMPDEST PUSH32 0x4E487B7100000000000000000000000000000000000000000000000000000000 PUSH1 0x0 MSTORE PUSH1 0x11 PUSH1 0x4 MSTORE PUSH1 0x24 PUSH1 0x0 REVERT INVALID LOG2 PUSH5 0x6970667358 0x22 SLT KECCAK256 JUMPDEST 0xC4 0xCA 0xAD 0xC2 OR CALL ADDRESS ORIGIN 0xC8 SWAP1 LOG4 LT 0x2C EXTCODEHASH PC 0xA8 OR 0xC6 PUSH12 0xBCE1AA1FA91DE2EE9DA13FFD PUSH5 0x736F6C6343 STOP ADDMOD SMOD STOP CALLER "
				},
				"gasEstimates": {
					"creation": {
						"codeDepositCost": "86400",
						"executionCost": "22241",
						"totalCost": "108641"
					},
					"external": {
						"age()": "2407",
						"pureFunctionImp()": "329",
						"viewFuctionImpl()": "infinite"
					}
				},
				"methodIdentifiers": {
					"age()": "262a9dff",
					"pureFunctionImp()": "94a50cc8",
					"viewFuctionImpl()": "fc262bfe"
				}
			},
			"storageLayout": {
				"storage": [
					{
						"astId": 4,
						"contract": "alltypesoffunction.sol:allTypesFunction",
						"label": "age",
						"offset": 0,
						"slot": "0",
						"type": "t_uint256"
					}
				],
				"types": {
					"t_uint256": {
						"encoding": "inplace",
						"label": "uint256",
						"numberOfBytes": "32"
					}
				}
			},
			"userdoc": {
				"kind": "user",
				"methods": {},
				"version": 1
			}
		}
	}
}