{
	"dynamicsizearr.sol": {
		"fixedsizearray": {
			"abi": [
				{
					"inputs": [],
					"name": "getarr",
					"outputs": [
						{
							"internalType": "uint256[]",
							"name": "",
							"type": "uint256[]"
						}
					],
					"stateMutability": "view",
					"type": "function"
				},
				{
					"inputs": [],
					"name": "getupdate",
					"outputs": [
						{
							"internalType": "bool",
							"name": "",
							"type": "bool"
						}
					],
					"stateMutability": "view",
					"type": "function"
				},
				{
					"inputs": [],
					"name": "pushnum",
					"outputs": [
						{
							"internalType": "uint256[]",
							"name": "",
							"type": "uint256[]"
						}
					],
					"stateMutability": "view",
					"type": "function"
				},
				{
					"inputs": [],
					"name": "simpleoushinarr",
					"outputs": [],
					"stateMutability": "nonpayable",
					"type": "function"
				},
				{
					"inputs": [
						{
							"internalType": "uint256",
							"name": "_pos",
							"type": "uint256"
						},
						{
							"internalType": "uint256",
							"name": "_value",
							"type": "uint256"
						}
					],
					"name": "updatearr",
					"outputs": [],
					"stateMutability": "nonpayable",
					"type": "function"
				}
			],
			"devdoc": {
				"kind": "dev",
				"methods": {},
				"version": 1
			},
			"evm": {
				"assembly": "    /* \"dynamicsizearr.sol\":63:964  contract fixedsizearray{... */\n  mstore(0x40, 0x80)\n    /* \"dynamicsizearr.sol\":107:112  false */\n  0x00\n    /* \"dynamicsizearr.sol\":93:112  bool update = false */\n  dup1\n  exp(0x0100, 0x00)\n  dup2\n  sload\n  dup2\n  0xff\n  mul\n  not\n  and\n  swap1\n  dup4\n  iszero\n  iszero\n  mul\n  or\n  swap1\n  sstore\n  pop\n    /* \"dynamicsizearr.sol\":118:151  uint[] arr = [10, 20, 30, 40, 50] */\n  mload(0x40)\n  dup1\n  0xa0\n  add\n  0x40\n  mstore\n  dup1\n    /* \"dynamicsizearr.sol\":132:134  10 */\n  0x0a\n    /* \"dynamicsizearr.sol\":118:151  uint[] arr = [10, 20, 30, 40, 50] */\n  0xff\n  and\n  dup2\n  mstore\n  0x20\n  add\n    /* \"dynamicsizearr.sol\":136:138  20 */\n  0x14\n    /* \"dynamicsizearr.sol\":118:151  uint[] arr = [10, 20, 30, 40, 50] */\n  0xff\n  and\n  dup2\n  mstore\n  0x20\n  add\n    /* \"dynamicsizearr.sol\":140:142  30 */\n  0x1e\n    /* \"dynamicsizearr.sol\":118:151  uint[] arr = [10, 20, 30, 40, 50] */\n  0xff\n  and\n  dup2\n  mstore\n  0x20\n  add\n    /* \"dynamicsizearr.sol\":144:146  40 */\n  0x28\n    /* \"dynamicsizearr.sol\":118:151  uint[] arr = [10, 20, 30, 40, 50] */\n  0xff\n  and\n  dup2\n  mstore\n  0x20\n  add\n    /* \"dynamicsizearr.sol\":148:150  50 */\n  0x32\n    /* \"dynamicsizearr.sol\":118:151  uint[] arr = [10, 20, 30, 40, 50] */\n  0xff\n  and\n  dup2\n  mstore\n  pop\n  0x01\n  swap1\n  0x05\n  tag_1\n  swap3\n  swap2\n  swap1\n  tag_2\n  jump\t// in\ntag_1:\n  pop\n    /* \"dynamicsizearr.sol\":63:964  contract fixedsizearray{... */\n  callvalue\n  dup1\n  iszero\n  tag_3\n  jumpi\n  0x00\n  dup1\n  revert\ntag_3:\n  pop\n  jump(tag_4)\ntag_2:\n  dup3\n  dup1\n  sload\n  dup3\n  dup3\n  sstore\n  swap1\n  0x00\n  mstore\n  keccak256(0x00, 0x20)\n  swap1\n  dup2\n  add\n  swap3\n  dup3\n  iszero\n  tag_5\n  jumpi\n  swap2\n  0x20\n  mul\n  dup3\n  add\ntag_6:\n  dup3\n  dup2\n  gt\n  iszero\n  tag_7\n  jumpi\n  dup3\n  mload\n  dup3\n  swap1\n  0xff\n  and\n  swap1\n  sstore\n  swap2\n  0x20\n  add\n  swap2\n  swap1\n  0x01\n  add\n  swap1\n  jump(tag_6)\ntag_7:\ntag_5:\n  pop\n  swap1\n  pop\n  tag_8\n  swap2\n  swap1\n  tag_9\n  jump\t// in\ntag_8:\n  pop\n  swap1\n  jump\t// out\ntag_9:\ntag_10:\n  dup1\n  dup3\n  gt\n  iszero\n  tag_11\n  jumpi\n  0x00\n  dup2\n  0x00\n  swap1\n  sstore\n  pop\n  0x01\n  add\n  jump(tag_10)\ntag_11:\n  pop\n  swap1\n  jump\t// out\ntag_4:\n  dataSize(sub_0)\n  dup1\n  dataOffset(sub_0)\n  0x00\n  codecopy\n  0x00\n  return\nstop\n\nsub_0: assembly {\n        /* \"dynamicsizearr.sol\":63:964  contract fixedsizearray{... */\n      mstore(0x40, 0x80)\n      callvalue\n      dup1\n      iszero\n      tag_1\n      jumpi\n      0x00\n      dup1\n      revert\n    tag_1:\n      pop\n      jumpi(tag_2, lt(calldatasize, 0x04))\n      shr(0xe0, calldataload(0x00))\n      dup1\n      0x0469a5e2\n      eq\n      tag_3\n      jumpi\n      dup1\n      0x4678f832\n      eq\n      tag_4\n      jumpi\n      dup1\n      0x6bc7deae\n      eq\n      tag_5\n      jumpi\n      dup1\n      0x9fd44f5a\n      eq\n      tag_6\n      jumpi\n      dup1\n      0xa80c52e9\n      eq\n      tag_7\n      jumpi\n    tag_2:\n      0x00\n      dup1\n      revert\n        /* \"dynamicsizearr.sol\":856:962  function pushnum() public view returns(uint[] memory){... */\n    tag_3:\n      tag_8\n      tag_9\n      jump\t// in\n    tag_8:\n      mload(0x40)\n      tag_10\n      swap2\n      swap1\n      tag_11\n      jump\t// in\n    tag_10:\n      mload(0x40)\n      dup1\n      swap2\n      sub\n      swap1\n      return\n        /* \"dynamicsizearr.sol\":705:781  function getupdate() public view returns(bool){... */\n    tag_4:\n      tag_12\n      tag_13\n      jump\t// in\n    tag_12:\n      mload(0x40)\n      tag_14\n      swap2\n      swap1\n      tag_15\n      jump\t// in\n    tag_14:\n      mload(0x40)\n      dup1\n      swap2\n      sub\n      swap1\n      return\n        /* \"dynamicsizearr.sol\":177:256  function getarr() public view returns(uint[] memory){... */\n    tag_5:\n      tag_16\n      tag_17\n      jump\t// in\n    tag_16:\n      mload(0x40)\n      tag_18\n      swap2\n      swap1\n      tag_11\n      jump\t// in\n    tag_18:\n      mload(0x40)\n      dup1\n      swap2\n      sub\n      swap1\n      return\n        /* \"dynamicsizearr.sol\":262:699  function updatearr(uint _pos, uint _value) public{... */\n    tag_6:\n      tag_19\n      0x04\n      dup1\n      calldatasize\n      sub\n      dup2\n      add\n      swap1\n      tag_20\n      swap2\n      swap1\n      tag_21\n      jump\t// in\n    tag_20:\n      tag_22\n      jump\t// in\n    tag_19:\n      stop\n        /* \"dynamicsizearr.sol\":787:850  function simpleoushinarr() public{... */\n    tag_7:\n      tag_23\n      tag_24\n      jump\t// in\n    tag_23:\n      stop\n        /* \"dynamicsizearr.sol\":856:962  function pushnum() public view returns(uint[] memory){... */\n    tag_9:\n        /* \"dynamicsizearr.sol\":895:908  uint[] memory */\n      0x60\n        /* \"dynamicsizearr.sol\":952:955  arr */\n      0x01\n        /* \"dynamicsizearr.sol\":945:955  return arr */\n      dup1\n      sload\n      dup1\n      0x20\n      mul\n      0x20\n      add\n      mload(0x40)\n      swap1\n      dup2\n      add\n      0x40\n      mstore\n      dup1\n      swap3\n      swap2\n      swap1\n      dup2\n      dup2\n      mstore\n      0x20\n      add\n      dup3\n      dup1\n      sload\n      dup1\n      iszero\n      tag_26\n      jumpi\n      0x20\n      mul\n      dup3\n      add\n      swap2\n      swap1\n      0x00\n      mstore\n      keccak256(0x00, 0x20)\n      swap1\n    tag_27:\n      dup2\n      sload\n      dup2\n      mstore\n      0x20\n      add\n      swap1\n      0x01\n      add\n      swap1\n      dup1\n      dup4\n      gt\n      tag_27\n      jumpi\n    tag_26:\n      pop\n      pop\n      pop\n      pop\n      pop\n      swap1\n      pop\n        /* \"dynamicsizearr.sol\":856:962  function pushnum() public view returns(uint[] memory){... */\n      swap1\n      jump\t// out\n        /* \"dynamicsizearr.sol\":705:781  function getupdate() public view returns(bool){... */\n    tag_13:\n        /* \"dynamicsizearr.sol\":746:750  bool */\n      0x00\n        /* \"dynamicsizearr.sol\":768:774  update */\n      dup1\n      0x00\n      swap1\n      sload\n      swap1\n      0x0100\n      exp\n      swap1\n      div\n      0xff\n      and\n        /* \"dynamicsizearr.sol\":761:774  return update */\n      swap1\n      pop\n        /* \"dynamicsizearr.sol\":705:781  function getupdate() public view returns(bool){... */\n      swap1\n      jump\t// out\n        /* \"dynamicsizearr.sol\":177:256  function getarr() public view returns(uint[] memory){... */\n    tag_17:\n        /* \"dynamicsizearr.sol\":215:228  uint[] memory */\n      0x60\n        /* \"dynamicsizearr.sol\":246:249  arr */\n      0x01\n        /* \"dynamicsizearr.sol\":239:249  return arr */\n      dup1\n      sload\n      dup1\n      0x20\n      mul\n      0x20\n      add\n      mload(0x40)\n      swap1\n      dup2\n      add\n      0x40\n      mstore\n      dup1\n      swap3\n      swap2\n      swap1\n      dup2\n      dup2\n      mstore\n      0x20\n      add\n      dup3\n      dup1\n      sload\n      dup1\n      iszero\n      tag_30\n      jumpi\n      0x20\n      mul\n      dup3\n      add\n      swap2\n      swap1\n      0x00\n      mstore\n      keccak256(0x00, 0x20)\n      swap1\n    tag_31:\n      dup2\n      sload\n      dup2\n      mstore\n      0x20\n      add\n      swap1\n      0x01\n      add\n      swap1\n      dup1\n      dup4\n      gt\n      tag_31\n      jumpi\n    tag_30:\n      pop\n      pop\n      pop\n      pop\n      pop\n      swap1\n      pop\n        /* \"dynamicsizearr.sol\":177:256  function getarr() public view returns(uint[] memory){... */\n      swap1\n      jump\t// out\n        /* \"dynamicsizearr.sol\":262:699  function updatearr(uint _pos, uint _value) public{... */\n    tag_22:\n        /* \"dynamicsizearr.sol\":330:334  true */\n      0x01\n        /* \"dynamicsizearr.sol\":321:327  update */\n      0x00\n      dup1\n        /* \"dynamicsizearr.sol\":321:334  update = true */\n      0x0100\n      exp\n      dup2\n      sload\n      dup2\n      0xff\n      mul\n      not\n      and\n      swap1\n      dup4\n      iszero\n      iszero\n      mul\n      or\n      swap1\n      sstore\n      pop\n        /* \"dynamicsizearr.sol\":365:369  _pos */\n      dup2\n        /* \"dynamicsizearr.sol\":360:361  1 */\n      0x01\n        /* \"dynamicsizearr.sol\":348:351  arr */\n      dup1\n        /* \"dynamicsizearr.sol\":348:358  arr.length */\n      dup1\n      sload\n      swap1\n      pop\n        /* \"dynamicsizearr.sol\":348:361  arr.length -1 */\n      tag_33\n      swap2\n      swap1\n      tag_34\n      jump\t// in\n    tag_33:\n        /* \"dynamicsizearr.sol\":347:369  (arr.length -1) > _pos */\n      gt\n        /* \"dynamicsizearr.sol\":344:692  if((arr.length -1) > _pos){... */\n      iszero\n      tag_35\n      jumpi\n        /* \"dynamicsizearr.sol\":396:402  _value */\n      dup1\n        /* \"dynamicsizearr.sol\":384:387  arr */\n      0x01\n        /* \"dynamicsizearr.sol\":388:392  _pos */\n      dup4\n        /* \"dynamicsizearr.sol\":384:393  arr[_pos] */\n      dup2\n      sload\n      dup2\n      lt\n      tag_36\n      jumpi\n      tag_37\n      tag_38\n      jump\t// in\n    tag_37:\n    tag_36:\n      swap1\n      0x00\n      mstore\n      keccak256(0x00, 0x20)\n      add\n        /* \"dynamicsizearr.sol\":384:402  arr[_pos] = _value */\n      dup2\n      swap1\n      sstore\n      pop\n        /* \"dynamicsizearr.sol\":425:429  true */\n      0x01\n        /* \"dynamicsizearr.sol\":416:422  update */\n      0x00\n      dup1\n        /* \"dynamicsizearr.sol\":416:429  update = true */\n      0x0100\n      exp\n      dup2\n      sload\n      dup2\n      0xff\n      mul\n      not\n      and\n      swap1\n      dup4\n      iszero\n      iszero\n      mul\n      or\n      swap1\n      sstore\n      pop\n        /* \"dynamicsizearr.sol\":344:692  if((arr.length -1) > _pos){... */\n      jump(tag_40)\n    tag_35:\n        /* \"dynamicsizearr.sol\":462:468  uint i */\n      0x00\n        /* \"dynamicsizearr.sol\":471:474  arr */\n      0x01\n        /* \"dynamicsizearr.sol\":471:481  arr.length */\n      dup1\n      sload\n      swap1\n      pop\n        /* \"dynamicsizearr.sol\":462:481  uint i = arr.length */\n      swap1\n      pop\n        /* \"dynamicsizearr.sol\":458:682  for(uint i = arr.length; i<_pos-1; i++){... */\n    tag_41:\n        /* \"dynamicsizearr.sol\":490:491  1 */\n      0x01\n        /* \"dynamicsizearr.sol\":485:489  _pos */\n      dup4\n        /* \"dynamicsizearr.sol\":485:491  _pos-1 */\n      tag_44\n      swap2\n      swap1\n      tag_34\n      jump\t// in\n    tag_44:\n        /* \"dynamicsizearr.sol\":483:484  i */\n      dup2\n        /* \"dynamicsizearr.sol\":483:491  i<_pos-1 */\n      lt\n        /* \"dynamicsizearr.sol\":458:682  for(uint i = arr.length; i<_pos-1; i++){... */\n      iszero\n      tag_42\n      jumpi\n        /* \"dynamicsizearr.sol\":534:538  _pos */\n      dup3\n        /* \"dynamicsizearr.sol\":529:530  1 */\n      0x01\n        /* \"dynamicsizearr.sol\":518:521  arr */\n      dup1\n        /* \"dynamicsizearr.sol\":518:528  arr.length */\n      dup1\n      sload\n      swap1\n      pop\n        /* \"dynamicsizearr.sol\":518:530  arr.length-1 */\n      tag_45\n      swap2\n      swap1\n      tag_34\n      jump\t// in\n    tag_45:\n        /* \"dynamicsizearr.sol\":518:538  arr.length-1 != _pos */\n      eq\n        /* \"dynamicsizearr.sol\":515:652  if(arr.length-1 != _pos){... */\n      tag_46\n      jumpi\n        /* \"dynamicsizearr.sol\":561:564  arr */\n      0x01\n        /* \"dynamicsizearr.sol\":570:571  0 */\n      0x00\n        /* \"dynamicsizearr.sol\":561:572  arr.push(0) */\n      swap1\n      dup1\n      0x01\n      dup2\n      sload\n      add\n      dup1\n      dup3\n      sstore\n      dup1\n      swap2\n      pop\n      pop\n      0x01\n      swap1\n      sub\n      swap1\n      0x00\n      mstore\n      keccak256(0x00, 0x20)\n      add\n      0x00\n      swap1\n      swap2\n      swap1\n      swap2\n      swap1\n      swap2\n      pop\n      sstore\n        /* \"dynamicsizearr.sol\":515:652  if(arr.length-1 != _pos){... */\n      jump(tag_48)\n    tag_46:\n        /* \"dynamicsizearr.sol\":614:617  arr */\n      0x01\n        /* \"dynamicsizearr.sol\":623:629  _value */\n      dup3\n        /* \"dynamicsizearr.sol\":614:630  arr.push(_value) */\n      swap1\n      dup1\n      0x01\n      dup2\n      sload\n      add\n      dup1\n      dup3\n      sstore\n      dup1\n      swap2\n      pop\n      pop\n      0x01\n      swap1\n      sub\n      swap1\n      0x00\n      mstore\n      keccak256(0x00, 0x20)\n      add\n      0x00\n      swap1\n      swap2\n      swap1\n      swap2\n      swap1\n      swap2\n      pop\n      sstore\n        /* \"dynamicsizearr.sol\":515:652  if(arr.length-1 != _pos){... */\n    tag_48:\n        /* \"dynamicsizearr.sol\":493:496  i++ */\n      dup1\n      dup1\n      tag_50\n      swap1\n      tag_51\n      jump\t// in\n    tag_50:\n      swap2\n      pop\n      pop\n        /* \"dynamicsizearr.sol\":458:682  for(uint i = arr.length; i<_pos-1; i++){... */\n      jump(tag_41)\n    tag_42:\n      pop\n        /* \"dynamicsizearr.sol\":344:692  if((arr.length -1) > _pos){... */\n    tag_40:\n        /* \"dynamicsizearr.sol\":262:699  function updatearr(uint _pos, uint _value) public{... */\n      pop\n      pop\n      jump\t// out\n        /* \"dynamicsizearr.sol\":787:850  function simpleoushinarr() public{... */\n    tag_24:\n        /* \"dynamicsizearr.sol\":830:833  arr */\n      0x01\n        /* \"dynamicsizearr.sol\":839:842  123 */\n      0x7b\n        /* \"dynamicsizearr.sol\":830:843  arr.push(123) */\n      swap1\n      dup1\n      0x01\n      dup2\n      sload\n      add\n      dup1\n      dup3\n      sstore\n      dup1\n      swap2\n      pop\n      pop\n      0x01\n      swap1\n      sub\n      swap1\n      0x00\n      mstore\n      keccak256(0x00, 0x20)\n      add\n      0x00\n      swap1\n      swap2\n      swap1\n      swap2\n      swap1\n      swap2\n      pop\n      sstore\n        /* \"dynamicsizearr.sol\":787:850  function simpleoushinarr() public{... */\n      jump\t// out\n        /* \"#utility.yul\":7:146   */\n    tag_55:\n        /* \"#utility.yul\":53:58   */\n      0x00\n        /* \"#utility.yul\":91:97   */\n      dup2\n        /* \"#utility.yul\":78:98   */\n      calldataload\n        /* \"#utility.yul\":69:98   */\n      swap1\n      pop\n        /* \"#utility.yul\":107:140   */\n      tag_57\n        /* \"#utility.yul\":134:139   */\n      dup2\n        /* \"#utility.yul\":107:140   */\n      tag_58\n      jump\t// in\n    tag_57:\n        /* \"#utility.yul\":7:146   */\n      swap3\n      swap2\n      pop\n      pop\n      jump\t// out\n        /* \"#utility.yul\":152:626   */\n    tag_21:\n        /* \"#utility.yul\":220:226   */\n      0x00\n        /* \"#utility.yul\":228:234   */\n      dup1\n        /* \"#utility.yul\":277:279   */\n      0x40\n        /* \"#utility.yul\":265:274   */\n      dup4\n        /* \"#utility.yul\":256:263   */\n      dup6\n        /* \"#utility.yul\":252:275   */\n      sub\n        /* \"#utility.yul\":248:280   */\n      slt\n        /* \"#utility.yul\":245:364   */\n      iszero\n      tag_60\n      jumpi\n        /* \"#utility.yul\":283:362   */\n      tag_61\n      tag_62\n      jump\t// in\n    tag_61:\n        /* \"#utility.yul\":245:364   */\n    tag_60:\n        /* \"#utility.yul\":403:404   */\n      0x00\n        /* \"#utility.yul\":428:481   */\n      tag_63\n        /* \"#utility.yul\":473:480   */\n      dup6\n        /* \"#utility.yul\":464:470   */\n      dup3\n        /* \"#utility.yul\":453:462   */\n      dup7\n        /* \"#utility.yul\":449:471   */\n      add\n        /* \"#utility.yul\":428:481   */\n      tag_55\n      jump\t// in\n    tag_63:\n        /* \"#utility.yul\":418:481   */\n      swap3\n      pop\n        /* \"#utility.yul\":374:491   */\n      pop\n        /* \"#utility.yul\":530:532   */\n      0x20\n        /* \"#utility.yul\":556:609   */\n      tag_64\n        /* \"#utility.yul\":601:608   */\n      dup6\n        /* \"#utility.yul\":592:598   */\n      dup3\n        /* \"#utility.yul\":581:590   */\n      dup7\n        /* \"#utility.yul\":577:599   */\n      add\n        /* \"#utility.yul\":556:609   */\n      tag_55\n      jump\t// in\n    tag_64:\n        /* \"#utility.yul\":546:609   */\n      swap2\n      pop\n        /* \"#utility.yul\":501:619   */\n      pop\n        /* \"#utility.yul\":152:626   */\n      swap3\n      pop\n      swap3\n      swap1\n      pop\n      jump\t// out\n        /* \"#utility.yul\":632:811   */\n    tag_65:\n        /* \"#utility.yul\":701:711   */\n      0x00\n        /* \"#utility.yul\":722:768   */\n      tag_67\n        /* \"#utility.yul\":764:767   */\n      dup4\n        /* \"#utility.yul\":756:762   */\n      dup4\n        /* \"#utility.yul\":722:768   */\n      tag_68\n      jump\t// in\n    tag_67:\n        /* \"#utility.yul\":800:804   */\n      0x20\n        /* \"#utility.yul\":795:798   */\n      dup4\n        /* \"#utility.yul\":791:805   */\n      add\n        /* \"#utility.yul\":777:805   */\n      swap1\n      pop\n        /* \"#utility.yul\":632:811   */\n      swap3\n      swap2\n      pop\n      pop\n      jump\t// out\n        /* \"#utility.yul\":847:1579   */\n    tag_69:\n        /* \"#utility.yul\":966:969   */\n      0x00\n        /* \"#utility.yul\":995:1049   */\n      tag_71\n        /* \"#utility.yul\":1043:1048   */\n      dup3\n        /* \"#utility.yul\":995:1049   */\n      tag_72\n      jump\t// in\n    tag_71:\n        /* \"#utility.yul\":1065:1151   */\n      tag_73\n        /* \"#utility.yul\":1144:1150   */\n      dup2\n        /* \"#utility.yul\":1139:1142   */\n      dup6\n        /* \"#utility.yul\":1065:1151   */\n      tag_74\n      jump\t// in\n    tag_73:\n        /* \"#utility.yul\":1058:1151   */\n      swap4\n      pop\n        /* \"#utility.yul\":1175:1231   */\n      tag_75\n        /* \"#utility.yul\":1225:1230   */\n      dup4\n        /* \"#utility.yul\":1175:1231   */\n      tag_76\n      jump\t// in\n    tag_75:\n        /* \"#utility.yul\":1254:1261   */\n      dup1\n        /* \"#utility.yul\":1285:1286   */\n      0x00\n        /* \"#utility.yul\":1270:1554   */\n    tag_77:\n        /* \"#utility.yul\":1295:1301   */\n      dup4\n        /* \"#utility.yul\":1292:1293   */\n      dup2\n        /* \"#utility.yul\":1289:1302   */\n      lt\n        /* \"#utility.yul\":1270:1554   */\n      iszero\n      tag_79\n      jumpi\n        /* \"#utility.yul\":1371:1377   */\n      dup2\n        /* \"#utility.yul\":1365:1378   */\n      mload\n        /* \"#utility.yul\":1398:1461   */\n      tag_80\n        /* \"#utility.yul\":1457:1460   */\n      dup9\n        /* \"#utility.yul\":1442:1455   */\n      dup3\n        /* \"#utility.yul\":1398:1461   */\n      tag_65\n      jump\t// in\n    tag_80:\n        /* \"#utility.yul\":1391:1461   */\n      swap8\n      pop\n        /* \"#utility.yul\":1484:1544   */\n      tag_81\n        /* \"#utility.yul\":1537:1543   */\n      dup4\n        /* \"#utility.yul\":1484:1544   */\n      tag_82\n      jump\t// in\n    tag_81:\n        /* \"#utility.yul\":1474:1544   */\n      swap3\n      pop\n        /* \"#utility.yul\":1330:1554   */\n      pop\n        /* \"#utility.yul\":1317:1318   */\n      0x01\n        /* \"#utility.yul\":1314:1315   */\n      dup2\n        /* \"#utility.yul\":1310:1319   */\n      add\n        /* \"#utility.yul\":1305:1319   */\n      swap1\n      pop\n        /* \"#utility.yul\":1270:1554   */\n      jump(tag_77)\n    tag_79:\n        /* \"#utility.yul\":1274:1288   */\n      pop\n        /* \"#utility.yul\":1570:1573   */\n      dup6\n        /* \"#utility.yul\":1563:1573   */\n      swap4\n      pop\n        /* \"#utility.yul\":971:1579   */\n      pop\n      pop\n      pop\n        /* \"#utility.yul\":847:1579   */\n      swap3\n      swap2\n      pop\n      pop\n      jump\t// out\n        /* \"#utility.yul\":1585:1694   */\n    tag_83:\n        /* \"#utility.yul\":1666:1687   */\n      tag_85\n        /* \"#utility.yul\":1681:1686   */\n      dup2\n        /* \"#utility.yul\":1666:1687   */\n      tag_86\n      jump\t// in\n    tag_85:\n        /* \"#utility.yul\":1661:1664   */\n      dup3\n        /* \"#utility.yul\":1654:1688   */\n      mstore\n        /* \"#utility.yul\":1585:1694   */\n      pop\n      pop\n      jump\t// out\n        /* \"#utility.yul\":1700:1808   */\n    tag_68:\n        /* \"#utility.yul\":1777:1801   */\n      tag_88\n        /* \"#utility.yul\":1795:1800   */\n      dup2\n        /* \"#utility.yul\":1777:1801   */\n      tag_89\n      jump\t// in\n    tag_88:\n        /* \"#utility.yul\":1772:1775   */\n      dup3\n        /* \"#utility.yul\":1765:1802   */\n      mstore\n        /* \"#utility.yul\":1700:1808   */\n      pop\n      pop\n      jump\t// out\n        /* \"#utility.yul\":1814:2187   */\n    tag_11:\n        /* \"#utility.yul\":1957:1961   */\n      0x00\n        /* \"#utility.yul\":1995:1997   */\n      0x20\n        /* \"#utility.yul\":1984:1993   */\n      dup3\n        /* \"#utility.yul\":1980:1998   */\n      add\n        /* \"#utility.yul\":1972:1998   */\n      swap1\n      pop\n        /* \"#utility.yul\":2044:2053   */\n      dup2\n        /* \"#utility.yul\":2038:2042   */\n      dup2\n        /* \"#utility.yul\":2034:2054   */\n      sub\n        /* \"#utility.yul\":2030:2031   */\n      0x00\n        /* \"#utility.yul\":2019:2028   */\n      dup4\n        /* \"#utility.yul\":2015:2032   */\n      add\n        /* \"#utility.yul\":2008:2055   */\n      mstore\n        /* \"#utility.yul\":2072:2180   */\n      tag_91\n        /* \"#utility.yul\":2175:2179   */\n      dup2\n        /* \"#utility.yul\":2166:2172   */\n      dup5\n        /* \"#utility.yul\":2072:2180   */\n      tag_69\n      jump\t// in\n    tag_91:\n        /* \"#utility.yul\":2064:2180   */\n      swap1\n      pop\n        /* \"#utility.yul\":1814:2187   */\n      swap3\n      swap2\n      pop\n      pop\n      jump\t// out\n        /* \"#utility.yul\":2193:2403   */\n    tag_15:\n        /* \"#utility.yul\":2280:2284   */\n      0x00\n        /* \"#utility.yul\":2318:2320   */\n      0x20\n        /* \"#utility.yul\":2307:2316   */\n      dup3\n        /* \"#utility.yul\":2303:2321   */\n      add\n        /* \"#utility.yul\":2295:2321   */\n      swap1\n      pop\n        /* \"#utility.yul\":2331:2396   */\n      tag_93\n        /* \"#utility.yul\":2393:2394   */\n      0x00\n        /* \"#utility.yul\":2382:2391   */\n      dup4\n        /* \"#utility.yul\":2378:2395   */\n      add\n        /* \"#utility.yul\":2369:2375   */\n      dup5\n        /* \"#utility.yul\":2331:2396   */\n      tag_83\n      jump\t// in\n    tag_93:\n        /* \"#utility.yul\":2193:2403   */\n      swap3\n      swap2\n      pop\n      pop\n      jump\t// out\n        /* \"#utility.yul\":2490:2622   */\n    tag_76:\n        /* \"#utility.yul\":2557:2561   */\n      0x00\n        /* \"#utility.yul\":2580:2583   */\n      dup2\n        /* \"#utility.yul\":2572:2583   */\n      swap1\n      pop\n        /* \"#utility.yul\":2610:2614   */\n      0x20\n        /* \"#utility.yul\":2605:2608   */\n      dup3\n        /* \"#utility.yul\":2601:2615   */\n      add\n        /* \"#utility.yul\":2593:2615   */\n      swap1\n      pop\n        /* \"#utility.yul\":2490:2622   */\n      swap2\n      swap1\n      pop\n      jump\t// out\n        /* \"#utility.yul\":2628:2742   */\n    tag_72:\n        /* \"#utility.yul\":2695:2701   */\n      0x00\n        /* \"#utility.yul\":2729:2734   */\n      dup2\n        /* \"#utility.yul\":2723:2735   */\n      mload\n        /* \"#utility.yul\":2713:2735   */\n      swap1\n      pop\n        /* \"#utility.yul\":2628:2742   */\n      swap2\n      swap1\n      pop\n      jump\t// out\n        /* \"#utility.yul\":2748:2861   */\n    tag_82:\n        /* \"#utility.yul\":2818:2822   */\n      0x00\n        /* \"#utility.yul\":2850:2854   */\n      0x20\n        /* \"#utility.yul\":2845:2848   */\n      dup3\n        /* \"#utility.yul\":2841:2855   */\n      add\n        /* \"#utility.yul\":2833:2855   */\n      swap1\n      pop\n        /* \"#utility.yul\":2748:2861   */\n      swap2\n      swap1\n      pop\n      jump\t// out\n        /* \"#utility.yul\":2867:3051   */\n    tag_74:\n        /* \"#utility.yul\":2966:2977   */\n      0x00\n        /* \"#utility.yul\":3000:3006   */\n      dup3\n        /* \"#utility.yul\":2995:2998   */\n      dup3\n        /* \"#utility.yul\":2988:3007   */\n      mstore\n        /* \"#utility.yul\":3040:3044   */\n      0x20\n        /* \"#utility.yul\":3035:3038   */\n      dup3\n        /* \"#utility.yul\":3031:3045   */\n      add\n        /* \"#utility.yul\":3016:3045   */\n      swap1\n      pop\n        /* \"#utility.yul\":2867:3051   */\n      swap3\n      swap2\n      pop\n      pop\n      jump\t// out\n        /* \"#utility.yul\":3057:3248   */\n    tag_34:\n        /* \"#utility.yul\":3097:3101   */\n      0x00\n        /* \"#utility.yul\":3117:3137   */\n      tag_101\n        /* \"#utility.yul\":3135:3136   */\n      dup3\n        /* \"#utility.yul\":3117:3137   */\n      tag_89\n      jump\t// in\n    tag_101:\n        /* \"#utility.yul\":3112:3137   */\n      swap2\n      pop\n        /* \"#utility.yul\":3151:3171   */\n      tag_102\n        /* \"#utility.yul\":3169:3170   */\n      dup4\n        /* \"#utility.yul\":3151:3171   */\n      tag_89\n      jump\t// in\n    tag_102:\n        /* \"#utility.yul\":3146:3171   */\n      swap3\n      pop\n        /* \"#utility.yul\":3190:3191   */\n      dup3\n        /* \"#utility.yul\":3187:3188   */\n      dup3\n        /* \"#utility.yul\":3184:3192   */\n      lt\n        /* \"#utility.yul\":3181:3215   */\n      iszero\n      tag_103\n      jumpi\n        /* \"#utility.yul\":3195:3213   */\n      tag_104\n      tag_105\n      jump\t// in\n    tag_104:\n        /* \"#utility.yul\":3181:3215   */\n    tag_103:\n        /* \"#utility.yul\":3240:3241   */\n      dup3\n        /* \"#utility.yul\":3237:3238   */\n      dup3\n        /* \"#utility.yul\":3233:3242   */\n      sub\n        /* \"#utility.yul\":3225:3242   */\n      swap1\n      pop\n        /* \"#utility.yul\":3057:3248   */\n      swap3\n      swap2\n      pop\n      pop\n      jump\t// out\n        /* \"#utility.yul\":3254:3344   */\n    tag_86:\n        /* \"#utility.yul\":3288:3295   */\n      0x00\n        /* \"#utility.yul\":3331:3336   */\n      dup2\n        /* \"#utility.yul\":3324:3337   */\n      iszero\n        /* \"#utility.yul\":3317:3338   */\n      iszero\n        /* \"#utility.yul\":3306:3338   */\n      swap1\n      pop\n        /* \"#utility.yul\":3254:3344   */\n      swap2\n      swap1\n      pop\n      jump\t// out\n        /* \"#utility.yul\":3350:3427   */\n    tag_89:\n        /* \"#utility.yul\":3387:3394   */\n      0x00\n        /* \"#utility.yul\":3416:3421   */\n      dup2\n        /* \"#utility.yul\":3405:3421   */\n      swap1\n      pop\n        /* \"#utility.yul\":3350:3427   */\n      swap2\n      swap1\n      pop\n      jump\t// out\n        /* \"#utility.yul\":3433:3666   */\n    tag_51:\n        /* \"#utility.yul\":3472:3475   */\n      0x00\n        /* \"#utility.yul\":3495:3519   */\n      tag_109\n        /* \"#utility.yul\":3513:3518   */\n      dup3\n        /* \"#utility.yul\":3495:3519   */\n      tag_89\n      jump\t// in\n    tag_109:\n        /* \"#utility.yul\":3486:3519   */\n      swap2\n      pop\n        /* \"#utility.yul\":3541:3607   */\n      0xffffffffffffffffffffffffffffffffffffffffffffffffffffffffffffffff\n        /* \"#utility.yul\":3534:3539   */\n      dup3\n        /* \"#utility.yul\":3531:3608   */\n      eq\n        /* \"#utility.yul\":3528:3631   */\n      iszero\n      tag_110\n      jumpi\n        /* \"#utility.yul\":3611:3629   */\n      tag_111\n      tag_105\n      jump\t// in\n    tag_111:\n        /* \"#utility.yul\":3528:3631   */\n    tag_110:\n        /* \"#utility.yul\":3658:3659   */\n      0x01\n        /* \"#utility.yul\":3651:3656   */\n      dup3\n        /* \"#utility.yul\":3647:3660   */\n      add\n        /* \"#utility.yul\":3640:3660   */\n      swap1\n      pop\n        /* \"#utility.yul\":3433:3666   */\n      swap2\n      swap1\n      pop\n      jump\t// out\n        /* \"#utility.yul\":3672:3852   */\n    tag_105:\n        /* \"#utility.yul\":3720:3797   */\n      0x4e487b7100000000000000000000000000000000000000000000000000000000\n        /* \"#utility.yul\":3717:3718   */\n      0x00\n        /* \"#utility.yul\":3710:3798   */\n      mstore\n        /* \"#utility.yul\":3817:3821   */\n      0x11\n        /* \"#utility.yul\":3814:3815   */\n      0x04\n        /* \"#utility.yul\":3807:3822   */\n      mstore\n        /* \"#utility.yul\":3841:3845   */\n      0x24\n        /* \"#utility.yul\":3838:3839   */\n      0x00\n        /* \"#utility.yul\":3831:3846   */\n      revert\n        /* \"#utility.yul\":3858:4038   */\n    tag_38:\n        /* \"#utility.yul\":3906:3983   */\n      0x4e487b7100000000000000000000000000000000000000000000000000000000\n        /* \"#utility.yul\":3903:3904   */\n      0x00\n        /* \"#utility.yul\":3896:3984   */\n      mstore\n        /* \"#utility.yul\":4003:4007   */\n      0x32\n        /* \"#utility.yul\":4000:4001   */\n      0x04\n        /* \"#utility.yul\":3993:4008   */\n      mstore\n        /* \"#utility.yul\":4027:4031   */\n      0x24\n        /* \"#utility.yul\":4024:4025   */\n      0x00\n        /* \"#utility.yul\":4017:4032   */\n      revert\n        /* \"#utility.yul\":4167:4284   */\n    tag_62:\n        /* \"#utility.yul\":4276:4277   */\n      0x00\n        /* \"#utility.yul\":4273:4274   */\n      dup1\n        /* \"#utility.yul\":4266:4278   */\n      revert\n        /* \"#utility.yul\":4290:4412   */\n    tag_58:\n        /* \"#utility.yul\":4363:4387   */\n      tag_118\n        /* \"#utility.yul\":4381:4386   */\n      dup2\n        /* \"#utility.yul\":4363:4387   */\n      tag_89\n      jump\t// in\n    tag_118:\n        /* \"#utility.yul\":4356:4361   */\n      dup2\n        /* \"#utility.yul\":4353:4388   */\n      eq\n        /* \"#utility.yul\":4343:4406   */\n      tag_119\n      jumpi\n        /* \"#utility.yul\":4402:4403   */\n      0x00\n        /* \"#utility.yul\":4399:4400   */\n      dup1\n        /* \"#utility.yul\":4392:4404   */\n      revert\n        /* \"#utility.yul\":4343:4406   */\n    tag_119:\n        /* \"#utility.yul\":4290:4412   */\n      pop\n      jump\t// out\n\n    auxdata: 0xa264697066735822122034468ae130dba0982227a3c6cfa1ca3dc34cc57fbc00eeeec5f66ef942602ef464736f6c63430008070033\n}\n",
				"bytecode": {
					"linkReferences": {},
					"object": "608060405260008060006101000a81548160ff0219169083151502179055506040518060a00160405280600a60ff168152602001601460ff168152602001601e60ff168152602001602860ff168152602001603260ff16815250600190600561006992919061007c565b5034801561007657600080fd5b506100eb565b8280548282559060005260206000209081019282156100bd579160200282015b828111156100bc578251829060ff1690559160200191906001019061009c565b5b5090506100ca91906100ce565b5090565b5b808211156100e75760008160009055506001016100cf565b5090565b61058c806100fa6000396000f3fe608060405234801561001057600080fd5b50600436106100575760003560e01c80630469a5e21461005c5780634678f8321461007a5780636bc7deae146100985780639fd44f5a146100b6578063a80c52e9146100d2575b600080fd5b6100646100dc565b60405161007191906103d3565b60405180910390f35b610082610134565b60405161008f91906103f5565b60405180910390f35b6100a061014a565b6040516100ad91906103d3565b60405180910390f35b6100d060048036038101906100cb91906102ff565b6101a2565b005b6100da6102be565b005b6060600180548060200260200160405190810160405280929190818152602001828054801561012a57602002820191906000526020600020905b815481526020019060010190808311610116575b5050505050905090565b60008060009054906101000a900460ff16905090565b6060600180548060200260200160405190810160405280929190818152602001828054801561019857602002820191906000526020600020905b815481526020019060010190808311610184575b5050505050905090565b60016000806101000a81548160ff02191690831515021790555081600180805490506101ce9190610449565b11156102165780600183815481106101e9576101e861050b565b5b906000526020600020018190555060016000806101000a81548160ff0219169083151502179055506102ba565b600060018054905090505b60018361022e9190610449565b8110156102b85782600180805490506102479190610449565b1461027b576001600090806001815401808255809150506001900390600052602060002001600090919091909150556102a5565b60018290806001815401808255809150506001900390600052602060002001600090919091909150555b80806102b090610493565b915050610221565b505b5050565b6001607b9080600181540180825580915050600190039060005260206000200160009091909190915055565b6000813590506102f98161053f565b92915050565b600080604083850312156103165761031561053a565b5b6000610324858286016102ea565b9250506020610335858286016102ea565b9150509250929050565b600061034b83836103c4565b60208301905092915050565b600061036282610420565b61036c8185610438565b935061037783610410565b8060005b838110156103a857815161038f888261033f565b975061039a8361042b565b92505060018101905061037b565b5085935050505092915050565b6103be8161047d565b82525050565b6103cd81610489565b82525050565b600060208201905081810360008301526103ed8184610357565b905092915050565b600060208201905061040a60008301846103b5565b92915050565b6000819050602082019050919050565b600081519050919050565b6000602082019050919050565b600082825260208201905092915050565b600061045482610489565b915061045f83610489565b925082821015610472576104716104dc565b5b828203905092915050565b60008115159050919050565b6000819050919050565b600061049e82610489565b91507fffffffffffffffffffffffffffffffffffffffffffffffffffffffffffffffff8214156104d1576104d06104dc565b5b600182019050919050565b7f4e487b7100000000000000000000000000000000000000000000000000000000600052601160045260246000fd5b7f4e487b7100000000000000000000000000000000000000000000000000000000600052603260045260246000fd5b600080fd5b61054881610489565b811461055357600080fd5b5056fea264697066735822122034468ae130dba0982227a3c6cfa1ca3dc34cc57fbc00eeeec5f66ef942602ef464736f6c63430008070033",
					"opcodes": "PUSH1 0x80 PUSH1 0x40 MSTORE PUSH1 0x0 DUP1 PUSH1 0x0 PUSH2 0x100 EXP DUP2 SLOAD DUP2 PUSH1 0xFF MUL NOT AND SWAP1 DUP4 ISZERO ISZERO MUL OR SWAP1 SSTORE POP PUSH1 0x40 MLOAD DUP1 PUSH1 0xA0 ADD PUSH1 0x40 MSTORE DUP1 PUSH1 0xA PUSH1 0xFF AND DUP2 MSTORE PUSH1 0x20 ADD PUSH1 0x14 PUSH1 0xFF AND DUP2 MSTORE PUSH1 0x20 ADD PUSH1 0x1E PUSH1 0xFF AND DUP2 MSTORE PUSH1 0x20 ADD PUSH1 0x28 PUSH1 0xFF AND DUP2 MSTORE PUSH1 0x20 ADD PUSH1 0x32 PUSH1 0xFF AND DUP2 MSTORE POP PUSH1 0x1 SWAP1 PUSH1 0x5 PUSH2 0x69 SWAP3 SWAP2 SWAP1 PUSH2 0x7C JUMP JUMPDEST POP CALLVALUE DUP1 ISZERO PUSH2 0x76 JUMPI PUSH1 0x0 DUP1 REVERT JUMPDEST POP PUSH2 0xEB JUMP JUMPDEST DUP3 DUP1 SLOAD DUP3 DUP3 SSTORE SWAP1 PUSH1 0x0 MSTORE PUSH1 0x20 PUSH1 0x0 KECCAK256 SWAP1 DUP2 ADD SWAP3 DUP3 ISZERO PUSH2 0xBD JUMPI SWAP2 PUSH1 0x20 MUL DUP3 ADD JUMPDEST DUP3 DUP2 GT ISZERO PUSH2 0xBC JUMPI DUP3 MLOAD DUP3 SWAP1 PUSH1 0xFF AND SWAP1 SSTORE SWAP2 PUSH1 0x20 ADD SWAP2 SWAP1 PUSH1 0x1 ADD SWAP1 PUSH2 0x9C JUMP JUMPDEST JUMPDEST POP SWAP1 POP PUSH2 0xCA SWAP2 SWAP1 PUSH2 0xCE JUMP JUMPDEST POP SWAP1 JUMP JUMPDEST JUMPDEST DUP1 DUP3 GT ISZERO PUSH2 0xE7 JUMPI PUSH1 0x0 DUP2 PUSH1 0x0 SWAP1 SSTORE POP PUSH1 0x1 ADD PUSH2 0xCF JUMP JUMPDEST POP SWAP1 JUMP JUMPDEST PUSH2 0x58C DUP1 PUSH2 0xFA PUSH1 0x0 CODECOPY PUSH1 0x0 RETURN INVALID PUSH1 0x80 PUSH1 0x40 MSTORE CALLVALUE DUP1 ISZERO PUSH2 0x10 JUMPI PUSH1 0x0 DUP1 REVERT JUMPDEST POP PUSH1 0x4 CALLDATASIZE LT PUSH2 0x57 JUMPI PUSH1 0x0 CALLDATALOAD PUSH1 0xE0 SHR DUP1 PUSH4 0x469A5E2 EQ PUSH2 0x5C JUMPI DUP1 PUSH4 0x4678F832 EQ PUSH2 0x7A JUMPI DUP1 PUSH4 0x6BC7DEAE EQ PUSH2 0x98 JUMPI DUP1 PUSH4 0x9FD44F5A EQ PUSH2 0xB6 JUMPI DUP1 PUSH4 0xA80C52E9 EQ PUSH2 0xD2 JUMPI JUMPDEST PUSH1 0x0 DUP1 REVERT JUMPDEST PUSH2 0x64 PUSH2 0xDC JUMP JUMPDEST PUSH1 0x40 MLOAD PUSH2 0x71 SWAP2 SWAP1 PUSH2 0x3D3 JUMP JUMPDEST PUSH1 0x40 MLOAD DUP1 SWAP2 SUB SWAP1 RETURN JUMPDEST PUSH2 0x82 PUSH2 0x134 JUMP JUMPDEST PUSH1 0x40 MLOAD PUSH2 0x8F SWAP2 SWAP1 PUSH2 0x3F5 JUMP JUMPDEST PUSH1 0x40 MLOAD DUP1 SWAP2 SUB SWAP1 RETURN JUMPDEST PUSH2 0xA0 PUSH2 0x14A JUMP JUMPDEST PUSH1 0x40 MLOAD PUSH2 0xAD SWAP2 SWAP1 PUSH2 0x3D3 JUMP JUMPDEST PUSH1 0x40 MLOAD DUP1 SWAP2 SUB SWAP1 RETURN JUMPDEST PUSH2 0xD0 PUSH1 0x4 DUP1 CALLDATASIZE SUB DUP2 ADD SWAP1 PUSH2 0xCB SWAP2 SWAP1 PUSH2 0x2FF JUMP JUMPDEST PUSH2 0x1A2 JUMP JUMPDEST STOP JUMPDEST PUSH2 0xDA PUSH2 0x2BE JUMP JUMPDEST STOP JUMPDEST PUSH1 0x60 PUSH1 0x1 DUP1 SLOAD DUP1 PUSH1 0x20 MUL PUSH1 0x20 ADD PUSH1 0x40 MLOAD SWAP1 DUP2 ADD PUSH1 0x40 MSTORE DUP1 SWAP3 SWAP2 SWAP1 DUP2 DUP2 MSTORE PUSH1 0x20 ADD DUP3 DUP1 SLOAD DUP1 ISZERO PUSH2 0x12A JUMPI PUSH1 0x20 MUL DUP3 ADD SWAP2 SWAP1 PUSH1 0x0 MSTORE PUSH1 0x20 PUSH1 0x0 KECCAK256 SWAP1 JUMPDEST DUP2 SLOAD DUP2 MSTORE PUSH1 0x20 ADD SWAP1 PUSH1 0x1 ADD SWAP1 DUP1 DUP4 GT PUSH2 0x116 JUMPI JUMPDEST POP POP POP POP POP SWAP1 POP SWAP1 JUMP JUMPDEST PUSH1 0x0 DUP1 PUSH1 0x0 SWAP1 SLOAD SWAP1 PUSH2 0x100 EXP SWAP1 DIV PUSH1 0xFF AND SWAP1 POP SWAP1 JUMP JUMPDEST PUSH1 0x60 PUSH1 0x1 DUP1 SLOAD DUP1 PUSH1 0x20 MUL PUSH1 0x20 ADD PUSH1 0x40 MLOAD SWAP1 DUP2 ADD PUSH1 0x40 MSTORE DUP1 SWAP3 SWAP2 SWAP1 DUP2 DUP2 MSTORE PUSH1 0x20 ADD DUP3 DUP1 SLOAD DUP1 ISZERO PUSH2 0x198 JUMPI PUSH1 0x20 MUL DUP3 ADD SWAP2 SWAP1 PUSH1 0x0 MSTORE PUSH1 0x20 PUSH1 0x0 KECCAK256 SWAP1 JUMPDEST DUP2 SLOAD DUP2 MSTORE PUSH1 0x20 ADD SWAP1 PUSH1 0x1 ADD SWAP1 DUP1 DUP4 GT PUSH2 0x184 JUMPI JUMPDEST POP POP POP POP POP SWAP1 POP SWAP1 JUMP JUMPDEST PUSH1 0x1 PUSH1 0x0 DUP1 PUSH2 0x100 EXP DUP2 SLOAD DUP2 PUSH1 0xFF MUL NOT AND SWAP1 DUP4 ISZERO ISZERO MUL OR SWAP1 SSTORE POP DUP2 PUSH1 0x1 DUP1 DUP1 SLOAD SWAP1 POP PUSH2 0x1CE SWAP2 SWAP1 PUSH2 0x449 JUMP JUMPDEST GT ISZERO PUSH2 0x216 JUMPI DUP1 PUSH1 0x1 DUP4 DUP2 SLOAD DUP2 LT PUSH2 0x1E9 JUMPI PUSH2 0x1E8 PUSH2 0x50B JUMP JUMPDEST JUMPDEST SWAP1 PUSH1 0x0 MSTORE PUSH1 0x20 PUSH1 0x0 KECCAK256 ADD DUP2 SWAP1 SSTORE POP PUSH1 0x1 PUSH1 0x0 DUP1 PUSH2 0x100 EXP DUP2 SLOAD DUP2 PUSH1 0xFF MUL NOT AND SWAP1 DUP4 ISZERO ISZERO MUL OR SWAP1 SSTORE POP PUSH2 0x2BA JUMP JUMPDEST PUSH1 0x0 PUSH1 0x1 DUP1 SLOAD SWAP1 POP SWAP1 POP JUMPDEST PUSH1 0x1 DUP4 PUSH2 0x22E SWAP2 SWAP1 PUSH2 0x449 JUMP JUMPDEST DUP2 LT ISZERO PUSH2 0x2B8 JUMPI DUP3 PUSH1 0x1 DUP1 DUP1 SLOAD SWAP1 POP PUSH2 0x247 SWAP2 SWAP1 PUSH2 0x449 JUMP JUMPDEST EQ PUSH2 0x27B JUMPI PUSH1 0x1 PUSH1 0x0 SWAP1 DUP1 PUSH1 0x1 DUP2 SLOAD ADD DUP1 DUP3 SSTORE DUP1 SWAP2 POP POP PUSH1 0x1 SWAP1 SUB SWAP1 PUSH1 0x0 MSTORE PUSH1 0x20 PUSH1 0x0 KECCAK256 ADD PUSH1 0x0 SWAP1 SWAP2 SWAP1 SWAP2 SWAP1 SWAP2 POP SSTORE PUSH2 0x2A5 JUMP JUMPDEST PUSH1 0x1 DUP3 SWAP1 DUP1 PUSH1 0x1 DUP2 SLOAD ADD DUP1 DUP3 SSTORE DUP1 SWAP2 POP POP PUSH1 0x1 SWAP1 SUB SWAP1 PUSH1 0x0 MSTORE PUSH1 0x20 PUSH1 0x0 KECCAK256 ADD PUSH1 0x0 SWAP1 SWAP2 SWAP1 SWAP2 SWAP1 SWAP2 POP SSTORE JUMPDEST DUP1 DUP1 PUSH2 0x2B0 SWAP1 PUSH2 0x493 JUMP JUMPDEST SWAP2 POP POP PUSH2 0x221 JUMP JUMPDEST POP JUMPDEST POP POP JUMP JUMPDEST PUSH1 0x1 PUSH1 0x7B SWAP1 DUP1 PUSH1 0x1 DUP2 SLOAD ADD DUP1 DUP3 SSTORE DUP1 SWAP2 POP POP PUSH1 0x1 SWAP1 SUB SWAP1 PUSH1 0x0 MSTORE PUSH1 0x20 PUSH1 0x0 KECCAK256 ADD PUSH1 0x0 SWAP1 SWAP2 SWAP1 SWAP2 SWAP1 SWAP2 POP SSTORE JUMP JUMPDEST PUSH1 0x0 DUP2 CALLDATALOAD SWAP1 POP PUSH2 0x2F9 DUP2 PUSH2 0x53F JUMP JUMPDEST SWAP3 SWAP2 POP POP JUMP JUMPDEST PUSH1 0x0 DUP1 PUSH1 0x40 DUP4 DUP6 SUB SLT ISZERO PUSH2 0x316 JUMPI PUSH2 0x315 PUSH2 0x53A JUMP JUMPDEST JUMPDEST PUSH1 0x0 PUSH2 0x324 DUP6 DUP3 DUP7 ADD PUSH2 0x2EA JUMP JUMPDEST SWAP3 POP POP PUSH1 0x20 PUSH2 0x335 DUP6 DUP3 DUP7 ADD PUSH2 0x2EA JUMP JUMPDEST SWAP2 POP POP SWAP3 POP SWAP3 SWAP1 POP JUMP JUMPDEST PUSH1 0x0 PUSH2 0x34B DUP4 DUP4 PUSH2 0x3C4 JUMP JUMPDEST PUSH1 0x20 DUP4 ADD SWAP1 POP SWAP3 SWAP2 POP POP JUMP JUMPDEST PUSH1 0x0 PUSH2 0x362 DUP3 PUSH2 0x420 JUMP JUMPDEST PUSH2 0x36C DUP2 DUP6 PUSH2 0x438 JUMP JUMPDEST SWAP4 POP PUSH2 0x377 DUP4 PUSH2 0x410 JUMP JUMPDEST DUP1 PUSH1 0x0 JUMPDEST DUP4 DUP2 LT ISZERO PUSH2 0x3A8 JUMPI DUP2 MLOAD PUSH2 0x38F DUP9 DUP3 PUSH2 0x33F JUMP JUMPDEST SWAP8 POP PUSH2 0x39A DUP4 PUSH2 0x42B JUMP JUMPDEST SWAP3 POP POP PUSH1 0x1 DUP2 ADD SWAP1 POP PUSH2 0x37B JUMP JUMPDEST POP DUP6 SWAP4 POP POP POP POP SWAP3 SWAP2 POP POP JUMP JUMPDEST PUSH2 0x3BE DUP2 PUSH2 0x47D JUMP JUMPDEST DUP3 MSTORE POP POP JUMP JUMPDEST PUSH2 0x3CD DUP2 PUSH2 0x489 JUMP JUMPDEST DUP3 MSTORE POP POP JUMP JUMPDEST PUSH1 0x0 PUSH1 0x20 DUP3 ADD SWAP1 POP DUP2 DUP2 SUB PUSH1 0x0 DUP4 ADD MSTORE PUSH2 0x3ED DUP2 DUP5 PUSH2 0x357 JUMP JUMPDEST SWAP1 POP SWAP3 SWAP2 POP POP JUMP JUMPDEST PUSH1 0x0 PUSH1 0x20 DUP3 ADD SWAP1 POP PUSH2 0x40A PUSH1 0x0 DUP4 ADD DUP5 PUSH2 0x3B5 JUMP JUMPDEST SWAP3 SWAP2 POP POP JUMP JUMPDEST PUSH1 0x0 DUP2 SWAP1 POP PUSH1 0x20 DUP3 ADD SWAP1 POP SWAP2 SWAP1 POP JUMP JUMPDEST PUSH1 0x0 DUP2 MLOAD SWAP1 POP SWAP2 SWAP1 POP JUMP JUMPDEST PUSH1 0x0 PUSH1 0x20 DUP3 ADD SWAP1 POP SWAP2 SWAP1 POP JUMP JUMPDEST PUSH1 0x0 DUP3 DUP3 MSTORE PUSH1 0x20 DUP3 ADD SWAP1 POP SWAP3 SWAP2 POP POP JUMP JUMPDEST PUSH1 0x0 PUSH2 0x454 DUP3 PUSH2 0x489 JUMP JUMPDEST SWAP2 POP PUSH2 0x45F DUP4 PUSH2 0x489 JUMP JUMPDEST SWAP3 POP DUP3 DUP3 LT ISZERO PUSH2 0x472 JUMPI PUSH2 0x471 PUSH2 0x4DC JUMP JUMPDEST JUMPDEST DUP3 DUP3 SUB SWAP1 POP SWAP3 SWAP2 POP POP JUMP JUMPDEST PUSH1 0x0 DUP2 ISZERO ISZERO SWAP1 POP SWAP2 SWAP1 POP JUMP JUMPDEST PUSH1 0x0 DUP2 SWAP1 POP SWAP2 SWAP1 POP JUMP JUMPDEST PUSH1 0x0 PUSH2 0x49E DUP3 PUSH2 0x489 JUMP JUMPDEST SWAP2 POP PUSH32 0xFFFFFFFFFFFFFFFFFFFFFFFFFFFFFFFFFFFFFFFFFFFFFFFFFFFFFFFFFFFFFFFF DUP3 EQ ISZERO PUSH2 0x4D1 JUMPI PUSH2 0x4D0 PUSH2 0x4DC JUMP JUMPDEST JUMPDEST PUSH1 0x1 DUP3 ADD SWAP1 POP SWAP2 SWAP1 POP JUMP JUMPDEST PUSH32 0x4E487B7100000000000000000000000000000000000000000000000000000000 PUSH1 0x0 MSTORE PUSH1 0x11 PUSH1 0x4 MSTORE PUSH1 0x24 PUSH1 0x0 REVERT JUMPDEST PUSH32 0x4E487B7100000000000000000000000000000000000000000000000000000000 PUSH1 0x0 MSTORE PUSH1 0x32 PUSH1 0x4 MSTORE PUSH1 0x24 PUSH1 0x0 REVERT JUMPDEST PUSH1 0x0 DUP1 REVERT JUMPDEST PUSH2 0x548 DUP2 PUSH2 0x489 JUMP JUMPDEST DUP2 EQ PUSH2 0x553 JUMPI PUSH1 0x0 DUP1 REVERT JUMPDEST POP JUMP INVALID LOG2 PUSH5 0x6970667358 0x22 SLT KECCAK256 CALLVALUE CHAINID DUP11 0xE1 ADDRESS 0xDB LOG0 SWAP9 0x22 0x27 LOG3 0xC6 0xCF LOG1 0xCA RETURNDATASIZE 0xC3 0x4C 0xC5 PUSH32 0xBC00EEEEC5F66EF942602EF464736F6C63430008070033000000000000000000 "
				},
				"gasEstimates": {
					"creation": {
						"codeDepositCost": "284000",
						"executionCost": "infinite",
						"totalCost": "infinite"
					},
					"external": {
						"getarr()": "infinite",
						"getupdate()": "2479",
						"pushnum()": "infinite",
						"simpleoushinarr()": "46633",
						"updatearr(uint256,uint256)": "infinite"
					}
				},
				"methodIdentifiers": {
					"getarr()": "6bc7deae",
					"getupdate()": "4678f832",
					"pushnum()": "0469a5e2",
					"simpleoushinarr()": "a80c52e9",
					"updatearr(uint256,uint256)": "9fd44f5a"
				}
			},
			"storageLayout": {
				"storage": [
					{
						"astId": 4,
						"contract": "dynamicsizearr.sol:fixedsizearray",
						"label": "update",
						"offset": 0,
						"slot": "0",
						"type": "t_bool"
					},
					{
						"astId": 13,
						"contract": "dynamicsizearr.sol:fixedsizearray",
						"label": "arr",
						"offset": 0,
						"slot": "1",
						"type": "t_array(t_uint256)dyn_storage"
					}
				],
				"types": {
					"t_array(t_uint256)dyn_storage": {
						"base": "t_uint256",
						"encoding": "dynamic_array",
						"label": "uint256[]",
						"numberOfBytes": "32"
					},
					"t_bool": {
						"encoding": "inplace",
						"label": "bool",
						"numberOfBytes": "1"
					},
					"t_uint256": {
						"encoding": "inplace",
						"label": "uint256",
						"numberOfBytes": "32"
					}
				}
			},
			"userdoc": {
				"kind": "user",
				"methods": {},
				"version": 1
			}
		}
	}
}