{
	"alltypesoffunction.sol": {
		"allTypesFunction": {
			"abi": [
				{
					"inputs": [],
					"name": "age",
					"outputs": [
						{
							"internalType": "uint256",
							"name": "",
							"type": "uint256"
						}
					],
					"stateMutability": "view",
					"type": "function"
				},
				{
					"inputs": [],
					"name": "pureFunctionImp",
					"outputs": [
						{
							"internalType": "uint256",
							"name": "",
							"type": "uint256"
						}
					],
					"stateMutability": "pure",
					"type": "function"
				},
				{
					"inputs": [],
					"name": "pureFunctionImp2",
					"outputs": [
						{
							"internalType": "uint256",
							"name": "",
							"type": "uint256"
						}
					],
					"stateMutability": "pure",
					"type": "function"
				},
				{
					"inputs": [],
					"name": "simpleFunctionImp",
					"outputs": [],
					"stateMutability": "nonpayable",
					"type": "function"
				},
				{
					"inputs": [],
					"name": "simpleFunctionImp1",
					"outputs": [],
					"stateMutability": "nonpayable",
					"type": "function"
				},
				{
					"inputs": [],
					"name": "viewFuctionImpl",
					"outputs": [
						{
							"internalType": "uint256",
							"name": "",
							"type": "uint256"
						}
					],
					"stateMutability": "view",
					"type": "function"
				}
			],
			"devdoc": {
				"kind": "dev",
				"methods": {},
				"version": 1
			},
			"evm": {
				"assembly": "    /* \"alltypesoffunction.sol\":65:546  contract allTypesFunction{... */\n  mstore(0x40, 0x80)\n    /* \"alltypesoffunction.sol\":115:117  10 */\n  0x0a\n    /* \"alltypesoffunction.sol\":97:117  uint public age = 10 */\n  0x00\n  sstore\n    /* \"alltypesoffunction.sol\":65:546  contract allTypesFunction{... */\n  callvalue\n  dup1\n  iszero\n  tag_1\n  jumpi\n  0x00\n  dup1\n  revert\ntag_1:\n  pop\n  dataSize(sub_0)\n  dup1\n  dataOffset(sub_0)\n  0x00\n  codecopy\n  0x00\n  return\nstop\n\nsub_0: assembly {\n        /* \"alltypesoffunction.sol\":65:546  contract allTypesFunction{... */\n      mstore(0x40, 0x80)\n      callvalue\n      dup1\n      iszero\n      tag_1\n      jumpi\n      0x00\n      dup1\n      revert\n    tag_1:\n      pop\n      jumpi(tag_2, lt(calldatasize, 0x04))\n      shr(0xe0, calldataload(0x00))\n      dup1\n      0x262a9dff\n      eq\n      tag_3\n      jumpi\n      dup1\n      0x4c2a13ea\n      eq\n      tag_4\n      jumpi\n      dup1\n      0x64d85fa5\n      eq\n      tag_5\n      jumpi\n      dup1\n      0x94a50cc8\n      eq\n      tag_6\n      jumpi\n      dup1\n      0xdf80da97\n      eq\n      tag_7\n      jumpi\n      dup1\n      0xfc262bfe\n      eq\n      tag_8\n      jumpi\n    tag_2:\n      0x00\n      dup1\n      revert\n        /* \"alltypesoffunction.sol\":97:117  uint public age = 10 */\n    tag_3:\n      tag_9\n      tag_10\n      jump\t// in\n    tag_9:\n      mload(0x40)\n      tag_11\n      swap2\n      swap1\n      tag_12\n      jump\t// in\n    tag_11:\n      mload(0x40)\n      dup1\n      swap2\n      sub\n      swap1\n      return\n        /* \"alltypesoffunction.sol\":481:541  function simpleFunctionImp1() public{... */\n    tag_4:\n      tag_13\n      tag_14\n      jump\t// in\n    tag_13:\n      stop\n        /* \"alltypesoffunction.sol\":301:409  function pureFunctionImp2() public pure returns(uint){... */\n    tag_5:\n      tag_15\n      tag_16\n      jump\t// in\n    tag_15:\n      mload(0x40)\n      tag_17\n      swap2\n      swap1\n      tag_12\n      jump\t// in\n    tag_17:\n      mload(0x40)\n      dup1\n      swap2\n      sub\n      swap1\n      return\n        /* \"alltypesoffunction.sol\":212:294  function pureFunctionImp() public pure returns(uint){... */\n    tag_6:\n      tag_18\n      tag_19\n      jump\t// in\n    tag_18:\n      mload(0x40)\n      tag_20\n      swap2\n      swap1\n      tag_12\n      jump\t// in\n    tag_20:\n      mload(0x40)\n      dup1\n      swap2\n      sub\n      swap1\n      return\n        /* \"alltypesoffunction.sol\":415:475  function simpleFunctionImp() public{... */\n    tag_7:\n      tag_21\n      tag_22\n      jump\t// in\n    tag_21:\n      stop\n        /* \"alltypesoffunction.sol\":124:206  function viewFuctionImpl() public view returns(uint){... */\n    tag_8:\n      tag_23\n      tag_24\n      jump\t// in\n    tag_23:\n      mload(0x40)\n      tag_25\n      swap2\n      swap1\n      tag_12\n      jump\t// in\n    tag_25:\n      mload(0x40)\n      dup1\n      swap2\n      sub\n      swap1\n      return\n        /* \"alltypesoffunction.sol\":97:117  uint public age = 10 */\n    tag_10:\n      sload(0x00)\n      dup2\n      jump\t// out\n        /* \"alltypesoffunction.sol\":481:541  function simpleFunctionImp1() public{... */\n    tag_14:\n        /* \"alltypesoffunction.sol\":532:534  10 */\n      0x0a\n        /* \"alltypesoffunction.sol\":528:531  age */\n      sload(0x00)\n        /* \"alltypesoffunction.sol\":528:534  age+10 */\n      tag_27\n      swap2\n      swap1\n      tag_28\n      jump\t// in\n    tag_27:\n      pop\n        /* \"alltypesoffunction.sol\":481:541  function simpleFunctionImp1() public{... */\n      jump\t// out\n        /* \"alltypesoffunction.sol\":301:409  function pureFunctionImp2() public pure returns(uint){... */\n    tag_16:\n        /* \"alltypesoffunction.sol\":349:353  uint */\n      0x00\n        /* \"alltypesoffunction.sol\":373:379  uint x */\n      dup1\n        /* \"alltypesoffunction.sol\":382:384  20 */\n      0x14\n        /* \"alltypesoffunction.sol\":373:384  uint x = 20 */\n      swap1\n      pop\n        /* \"alltypesoffunction.sol\":401:402  x */\n      dup1\n        /* \"alltypesoffunction.sol\":394:402  return x */\n      swap2\n      pop\n      pop\n        /* \"alltypesoffunction.sol\":301:409  function pureFunctionImp2() public pure returns(uint){... */\n      swap1\n      jump\t// out\n        /* \"alltypesoffunction.sol\":212:294  function pureFunctionImp() public pure returns(uint){... */\n    tag_19:\n        /* \"alltypesoffunction.sol\":259:263  uint */\n      0x00\n        /* \"alltypesoffunction.sol\":281:283  10 */\n      0x0a\n        /* \"alltypesoffunction.sol\":274:283  return 10 */\n      swap1\n      pop\n        /* \"alltypesoffunction.sol\":212:294  function pureFunctionImp() public pure returns(uint){... */\n      swap1\n      jump\t// out\n        /* \"alltypesoffunction.sol\":415:475  function simpleFunctionImp() public{... */\n    tag_22:\n        /* \"alltypesoffunction.sol\":466:468  10 */\n      0x0a\n        /* \"alltypesoffunction.sol\":461:464  age */\n      0x00\n      dup1\n        /* \"alltypesoffunction.sol\":461:468  age+=10 */\n      dup3\n      dup3\n      sload\n      tag_32\n      swap2\n      swap1\n      tag_28\n      jump\t// in\n    tag_32:\n      swap3\n      pop\n      pop\n      dup2\n      swap1\n      sstore\n      pop\n        /* \"alltypesoffunction.sol\":415:475  function simpleFunctionImp() public{... */\n      jump\t// out\n        /* \"alltypesoffunction.sol\":124:206  function viewFuctionImpl() public view returns(uint){... */\n    tag_24:\n        /* \"alltypesoffunction.sol\":171:175  uint */\n      0x00\n        /* \"alltypesoffunction.sol\":197:199  10 */\n      0x0a\n        /* \"alltypesoffunction.sol\":193:196  age */\n      sload(0x00)\n        /* \"alltypesoffunction.sol\":193:199  age+10 */\n      tag_34\n      swap2\n      swap1\n      tag_28\n      jump\t// in\n    tag_34:\n        /* \"alltypesoffunction.sol\":186:199  return age+10 */\n      swap1\n      pop\n        /* \"alltypesoffunction.sol\":124:206  function viewFuctionImpl() public view returns(uint){... */\n      swap1\n      jump\t// out\n        /* \"#utility.yul\":7:125   */\n    tag_36:\n        /* \"#utility.yul\":94:118   */\n      tag_38\n        /* \"#utility.yul\":112:117   */\n      dup2\n        /* \"#utility.yul\":94:118   */\n      tag_39\n      jump\t// in\n    tag_38:\n        /* \"#utility.yul\":89:92   */\n      dup3\n        /* \"#utility.yul\":82:119   */\n      mstore\n        /* \"#utility.yul\":7:125   */\n      pop\n      pop\n      jump\t// out\n        /* \"#utility.yul\":131:353   */\n    tag_12:\n        /* \"#utility.yul\":224:228   */\n      0x00\n        /* \"#utility.yul\":262:264   */\n      0x20\n        /* \"#utility.yul\":251:260   */\n      dup3\n        /* \"#utility.yul\":247:265   */\n      add\n        /* \"#utility.yul\":239:265   */\n      swap1\n      pop\n        /* \"#utility.yul\":275:346   */\n      tag_41\n        /* \"#utility.yul\":343:344   */\n      0x00\n        /* \"#utility.yul\":332:341   */\n      dup4\n        /* \"#utility.yul\":328:345   */\n      add\n        /* \"#utility.yul\":319:325   */\n      dup5\n        /* \"#utility.yul\":275:346   */\n      tag_36\n      jump\t// in\n    tag_41:\n        /* \"#utility.yul\":131:353   */\n      swap3\n      swap2\n      pop\n      pop\n      jump\t// out\n        /* \"#utility.yul\":359:664   */\n    tag_28:\n        /* \"#utility.yul\":399:402   */\n      0x00\n        /* \"#utility.yul\":418:438   */\n      tag_43\n        /* \"#utility.yul\":436:437   */\n      dup3\n        /* \"#utility.yul\":418:438   */\n      tag_39\n      jump\t// in\n    tag_43:\n        /* \"#utility.yul\":413:438   */\n      swap2\n      pop\n        /* \"#utility.yul\":452:472   */\n      tag_44\n        /* \"#utility.yul\":470:471   */\n      dup4\n        /* \"#utility.yul\":452:472   */\n      tag_39\n      jump\t// in\n    tag_44:\n        /* \"#utility.yul\":447:472   */\n      swap3\n      pop\n        /* \"#utility.yul\":606:607   */\n      dup3\n        /* \"#utility.yul\":538:604   */\n      0xffffffffffffffffffffffffffffffffffffffffffffffffffffffffffffffff\n        /* \"#utility.yul\":534:608   */\n      sub\n        /* \"#utility.yul\":531:532   */\n      dup3\n        /* \"#utility.yul\":528:609   */\n      gt\n        /* \"#utility.yul\":525:632   */\n      iszero\n      tag_45\n      jumpi\n        /* \"#utility.yul\":612:630   */\n      tag_46\n      tag_47\n      jump\t// in\n    tag_46:\n        /* \"#utility.yul\":525:632   */\n    tag_45:\n        /* \"#utility.yul\":656:657   */\n      dup3\n        /* \"#utility.yul\":653:654   */\n      dup3\n        /* \"#utility.yul\":649:658   */\n      add\n        /* \"#utility.yul\":642:658   */\n      swap1\n      pop\n        /* \"#utility.yul\":359:664   */\n      swap3\n      swap2\n      pop\n      pop\n      jump\t// out\n        /* \"#utility.yul\":670:747   */\n    tag_39:\n        /* \"#utility.yul\":707:714   */\n      0x00\n        /* \"#utility.yul\":736:741   */\n      dup2\n        /* \"#utility.yul\":725:741   */\n      swap1\n      pop\n        /* \"#utility.yul\":670:747   */\n      swap2\n      swap1\n      pop\n      jump\t// out\n        /* \"#utility.yul\":753:933   */\n    tag_47:\n        /* \"#utility.yul\":801:878   */\n      0x4e487b7100000000000000000000000000000000000000000000000000000000\n        /* \"#utility.yul\":798:799   */\n      0x00\n        /* \"#utility.yul\":791:879   */\n      mstore\n        /* \"#utility.yul\":898:902   */\n      0x11\n        /* \"#utility.yul\":895:896   */\n      0x04\n        /* \"#utility.yul\":888:903   */\n      mstore\n        /* \"#utility.yul\":922:926   */\n      0x24\n        /* \"#utility.yul\":919:920   */\n      0x00\n        /* \"#utility.yul\":912:927   */\n      revert\n\n    auxdata: 0xa26469706673582212204e52937fadc7d53e72fef3ab0660f9b8d0eecd300cba376eeff1817b35f6731664736f6c63430008070033\n}\n",
				"bytecode": {
					"linkReferences": {},
					"object": "6080604052600a60005534801561001557600080fd5b50610242806100256000396000f3fe608060405234801561001057600080fd5b50600436106100625760003560e01c8063262a9dff146100675780634c2a13ea1461008557806364d85fa51461008f57806394a50cc8146100ad578063df80da97146100cb578063fc262bfe146100d5575b600080fd5b61006f6100f3565b60405161007c9190610162565b60405180910390f35b61008d6100f9565b005b61009761010b565b6040516100a49190610162565b60405180910390f35b6100b5610119565b6040516100c29190610162565b60405180910390f35b6100d3610122565b005b6100dd61013d565b6040516100ea9190610162565b60405180910390f35b60005481565b600a600054610108919061017d565b50565b600080601490508091505090565b6000600a905090565b600a600080828254610134919061017d565b92505081905550565b6000600a60005461014e919061017d565b905090565b61015c816101d3565b82525050565b60006020820190506101776000830184610153565b92915050565b6000610188826101d3565b9150610193836101d3565b9250827fffffffffffffffffffffffffffffffffffffffffffffffffffffffffffffffff038211156101c8576101c76101dd565b5b828201905092915050565b6000819050919050565b7f4e487b7100000000000000000000000000000000000000000000000000000000600052601160045260246000fdfea26469706673582212204e52937fadc7d53e72fef3ab0660f9b8d0eecd300cba376eeff1817b35f6731664736f6c63430008070033",
					"opcodes": "PUSH1 0x80 PUSH1 0x40 MSTORE PUSH1 0xA PUSH1 0x0 SSTORE CALLVALUE DUP1 ISZERO PUSH2 0x15 JUMPI PUSH1 0x0 DUP1 REVERT JUMPDEST POP PUSH2 0x242 DUP1 PUSH2 0x25 PUSH1 0x0 CODECOPY PUSH1 0x0 RETURN INVALID PUSH1 0x80 PUSH1 0x40 MSTORE CALLVALUE DUP1 ISZERO PUSH2 0x10 JUMPI PUSH1 0x0 DUP1 REVERT JUMPDEST POP PUSH1 0x4 CALLDATASIZE LT PUSH2 0x62 JUMPI PUSH1 0x0 CALLDATALOAD PUSH1 0xE0 SHR DUP1 PUSH4 0x262A9DFF EQ PUSH2 0x67 JUMPI DUP1 PUSH4 0x4C2A13EA EQ PUSH2 0x85 JUMPI DUP1 PUSH4 0x64D85FA5 EQ PUSH2 0x8F JUMPI DUP1 PUSH4 0x94A50CC8 EQ PUSH2 0xAD JUMPI DUP1 PUSH4 0xDF80DA97 EQ PUSH2 0xCB JUMPI DUP1 PUSH4 0xFC262BFE EQ PUSH2 0xD5 JUMPI JUMPDEST PUSH1 0x0 DUP1 REVERT JUMPDEST PUSH2 0x6F PUSH2 0xF3 JUMP JUMPDEST PUSH1 0x40 MLOAD PUSH2 0x7C SWAP2 SWAP1 PUSH2 0x162 JUMP JUMPDEST PUSH1 0x40 MLOAD DUP1 SWAP2 SUB SWAP1 RETURN JUMPDEST PUSH2 0x8D PUSH2 0xF9 JUMP JUMPDEST STOP JUMPDEST PUSH2 0x97 PUSH2 0x10B JUMP JUMPDEST PUSH1 0x40 MLOAD PUSH2 0xA4 SWAP2 SWAP1 PUSH2 0x162 JUMP JUMPDEST PUSH1 0x40 MLOAD DUP1 SWAP2 SUB SWAP1 RETURN JUMPDEST PUSH2 0xB5 PUSH2 0x119 JUMP JUMPDEST PUSH1 0x40 MLOAD PUSH2 0xC2 SWAP2 SWAP1 PUSH2 0x162 JUMP JUMPDEST PUSH1 0x40 MLOAD DUP1 SWAP2 SUB SWAP1 RETURN JUMPDEST PUSH2 0xD3 PUSH2 0x122 JUMP JUMPDEST STOP JUMPDEST PUSH2 0xDD PUSH2 0x13D JUMP JUMPDEST PUSH1 0x40 MLOAD PUSH2 0xEA SWAP2 SWAP1 PUSH2 0x162 JUMP JUMPDEST PUSH1 0x40 MLOAD DUP1 SWAP2 SUB SWAP1 RETURN JUMPDEST PUSH1 0x0 SLOAD DUP2 JUMP JUMPDEST PUSH1 0xA PUSH1 0x0 SLOAD PUSH2 0x108 SWAP2 SWAP1 PUSH2 0x17D JUMP JUMPDEST POP JUMP JUMPDEST PUSH1 0x0 DUP1 PUSH1 0x14 SWAP1 POP DUP1 SWAP2 POP POP SWAP1 JUMP JUMPDEST PUSH1 0x0 PUSH1 0xA SWAP1 POP SWAP1 JUMP JUMPDEST PUSH1 0xA PUSH1 0x0 DUP1 DUP3 DUP3 SLOAD PUSH2 0x134 SWAP2 SWAP1 PUSH2 0x17D JUMP JUMPDEST SWAP3 POP POP DUP2 SWAP1 SSTORE POP JUMP JUMPDEST PUSH1 0x0 PUSH1 0xA PUSH1 0x0 SLOAD PUSH2 0x14E SWAP2 SWAP1 PUSH2 0x17D JUMP JUMPDEST SWAP1 POP SWAP1 JUMP JUMPDEST PUSH2 0x15C DUP2 PUSH2 0x1D3 JUMP JUMPDEST DUP3 MSTORE POP POP JUMP JUMPDEST PUSH1 0x0 PUSH1 0x20 DUP3 ADD SWAP1 POP PUSH2 0x177 PUSH1 0x0 DUP4 ADD DUP5 PUSH2 0x153 JUMP JUMPDEST SWAP3 SWAP2 POP POP JUMP JUMPDEST PUSH1 0x0 PUSH2 0x188 DUP3 PUSH2 0x1D3 JUMP JUMPDEST SWAP2 POP PUSH2 0x193 DUP4 PUSH2 0x1D3 JUMP JUMPDEST SWAP3 POP DUP3 PUSH32 0xFFFFFFFFFFFFFFFFFFFFFFFFFFFFFFFFFFFFFFFFFFFFFFFFFFFFFFFFFFFFFFFF SUB DUP3 GT ISZERO PUSH2 0x1C8 JUMPI PUSH2 0x1C7 PUSH2 0x1DD JUMP JUMPDEST JUMPDEST DUP3 DUP3 ADD SWAP1 POP SWAP3 SWAP2 POP POP JUMP JUMPDEST PUSH1 0x0 DUP2 SWAP1 POP SWAP2 SWAP1 POP JUMP JUMPDEST PUSH32 0x4E487B7100000000000000000000000000000000000000000000000000000000 PUSH1 0x0 MSTORE PUSH1 0x11 PUSH1 0x4 MSTORE PUSH1 0x24 PUSH1 0x0 REVERT INVALID LOG2 PUSH5 0x6970667358 0x22 SLT KECCAK256 0x4E MSTORE SWAP4 PUSH32 0xADC7D53E72FEF3AB0660F9B8D0EECD300CBA376EEFF1817B35F6731664736F6C PUSH4 0x43000807 STOP CALLER "
				},
				"gasEstimates": {
					"creation": {
						"codeDepositCost": "115600",
						"executionCost": "22271",
						"totalCost": "137871"
					},
					"external": {
						"age()": "2407",
						"pureFunctionImp()": "381",
						"pureFunctionImp2()": "372",
						"simpleFunctionImp()": "infinite",
						"simpleFunctionImp1()": "infinite",
						"viewFuctionImpl()": "infinite"
					}
				},
				"methodIdentifiers": {
					"age()": "262a9dff",
					"pureFunctionImp()": "94a50cc8",
					"pureFunctionImp2()": "64d85fa5",
					"simpleFunctionImp()": "df80da97",
					"simpleFunctionImp1()": "4c2a13ea",
					"viewFuctionImpl()": "fc262bfe"
				}
			},
			"storageLayout": {
				"storage": [
					{
						"astId": 4,
						"contract": "alltypesoffunction.sol:allTypesFunction",
						"label": "age",
						"offset": 0,
						"slot": "0",
						"type": "t_uint256"
					}
				],
				"types": {
					"t_uint256": {
						"encoding": "inplace",
						"label": "uint256",
						"numberOfBytes": "32"
					}
				}
			},
			"userdoc": {
				"kind": "user",
				"methods": {},
				"version": 1
			}
		}
	}
}