{
	"send_eth.sol": {
		"sendETH": {
			"abi": [
				{
					"inputs": [],
					"name": "checkBalance",
					"outputs": [
						{
							"internalType": "uint256",
							"name": "",
							"type": "uint256"
						}
					],
					"stateMutability": "view",
					"type": "function"
				},
				{
					"inputs": [],
					"name": "getter",
					"outputs": [
						{
							"internalType": "address payable",
							"name": "",
							"type": "address"
						}
					],
					"stateMutability": "view",
					"type": "function"
				},
				{
					"stateMutability": "payable",
					"type": "receive"
				}
			],
			"devdoc": {
				"kind": "dev",
				"methods": {},
				"version": 1
			},
			"evm": {
				"assembly": "    /* \"send_eth.sol\":411:662  contract sendETH{... */\n  mstore(0x40, 0x80)\n    /* \"send_eth.sol\":473:515  0x03C6FcED478cBbC9a4FAB34eF9f40767739D1Ff7 */\n  0x03c6fced478cbbc9a4fab34ef9f40767739d1ff7\n    /* \"send_eth.sol\":433:516  address payable public getter = payable(0x03C6FcED478cBbC9a4FAB34eF9f40767739D1Ff7) */\n  0x00\n  dup1\n  0x0100\n  exp\n  dup2\n  sload\n  dup2\n  0xffffffffffffffffffffffffffffffffffffffff\n  mul\n  not\n  and\n  swap1\n  dup4\n  0xffffffffffffffffffffffffffffffffffffffff\n  and\n  mul\n  or\n  swap1\n  sstore\n  pop\n    /* \"send_eth.sol\":411:662  contract sendETH{... */\n  callvalue\n  dup1\n  iszero\n  tag_1\n  jumpi\n  0x00\n  dup1\n  revert\ntag_1:\n  pop\n  dataSize(sub_0)\n  dup1\n  dataOffset(sub_0)\n  0x00\n  codecopy\n  0x00\n  return\nstop\n\nsub_0: assembly {\n        /* \"send_eth.sol\":411:662  contract sendETH{... */\n      mstore(0x40, 0x80)\n      jumpi(tag_1, lt(calldatasize, 0x04))\n      shr(0xe0, calldataload(0x00))\n      dup1\n      0x993a04b7\n      eq\n      tag_3\n      jumpi\n      dup1\n      0xc71daccb\n      eq\n      tag_4\n      jumpi\n      jump(tag_2)\n    tag_1:\n      jumpi(tag_2, calldatasize)\n      stop\n    tag_2:\n      0x00\n      dup1\n      revert\n        /* \"send_eth.sol\":433:516  address payable public getter = payable(0x03C6FcED478cBbC9a4FAB34eF9f40767739D1Ff7) */\n    tag_3:\n      callvalue\n      dup1\n      iszero\n      tag_7\n      jumpi\n      0x00\n      dup1\n      revert\n    tag_7:\n      pop\n      tag_8\n      tag_9\n      jump\t// in\n    tag_8:\n      mload(0x40)\n      tag_10\n      swap2\n      swap1\n      tag_11\n      jump\t// in\n    tag_10:\n      mload(0x40)\n      dup1\n      swap2\n      sub\n      swap1\n      return\n        /* \"send_eth.sol\":564:658  function checkBalance() public view returns(uint){... */\n    tag_4:\n      callvalue\n      dup1\n      iszero\n      tag_12\n      jumpi\n      0x00\n      dup1\n      revert\n    tag_12:\n      pop\n      tag_13\n      tag_14\n      jump\t// in\n    tag_13:\n      mload(0x40)\n      tag_15\n      swap2\n      swap1\n      tag_16\n      jump\t// in\n    tag_15:\n      mload(0x40)\n      dup1\n      swap2\n      sub\n      swap1\n      return\n        /* \"send_eth.sol\":433:516  address payable public getter = payable(0x03C6FcED478cBbC9a4FAB34eF9f40767739D1Ff7) */\n    tag_9:\n      0x00\n      dup1\n      sload\n      swap1\n      0x0100\n      exp\n      swap1\n      div\n      0xffffffffffffffffffffffffffffffffffffffff\n      and\n      dup2\n      jump\t// out\n        /* \"send_eth.sol\":564:658  function checkBalance() public view returns(uint){... */\n    tag_14:\n        /* \"send_eth.sol\":608:612  uint */\n      0x00\n        /* \"send_eth.sol\":630:651  address(this).balance */\n      selfbalance\n        /* \"send_eth.sol\":623:651  return address(this).balance */\n      swap1\n      pop\n        /* \"send_eth.sol\":564:658  function checkBalance() public view returns(uint){... */\n      swap1\n      jump\t// out\n        /* \"#utility.yul\":7:149   */\n    tag_19:\n        /* \"#utility.yul\":110:142   */\n      tag_21\n        /* \"#utility.yul\":136:141   */\n      dup2\n        /* \"#utility.yul\":110:142   */\n      tag_22\n      jump\t// in\n    tag_21:\n        /* \"#utility.yul\":105:108   */\n      dup3\n        /* \"#utility.yul\":98:143   */\n      mstore\n        /* \"#utility.yul\":7:149   */\n      pop\n      pop\n      jump\t// out\n        /* \"#utility.yul\":155:273   */\n    tag_23:\n        /* \"#utility.yul\":242:266   */\n      tag_25\n        /* \"#utility.yul\":260:265   */\n      dup2\n        /* \"#utility.yul\":242:266   */\n      tag_26\n      jump\t// in\n    tag_25:\n        /* \"#utility.yul\":237:240   */\n      dup3\n        /* \"#utility.yul\":230:267   */\n      mstore\n        /* \"#utility.yul\":155:273   */\n      pop\n      pop\n      jump\t// out\n        /* \"#utility.yul\":279:533   */\n    tag_11:\n        /* \"#utility.yul\":388:392   */\n      0x00\n        /* \"#utility.yul\":426:428   */\n      0x20\n        /* \"#utility.yul\":415:424   */\n      dup3\n        /* \"#utility.yul\":411:429   */\n      add\n        /* \"#utility.yul\":403:429   */\n      swap1\n      pop\n        /* \"#utility.yul\":439:526   */\n      tag_28\n        /* \"#utility.yul\":523:524   */\n      0x00\n        /* \"#utility.yul\":512:521   */\n      dup4\n        /* \"#utility.yul\":508:525   */\n      add\n        /* \"#utility.yul\":499:505   */\n      dup5\n        /* \"#utility.yul\":439:526   */\n      tag_19\n      jump\t// in\n    tag_28:\n        /* \"#utility.yul\":279:533   */\n      swap3\n      swap2\n      pop\n      pop\n      jump\t// out\n        /* \"#utility.yul\":539:761   */\n    tag_16:\n        /* \"#utility.yul\":632:636   */\n      0x00\n        /* \"#utility.yul\":670:672   */\n      0x20\n        /* \"#utility.yul\":659:668   */\n      dup3\n        /* \"#utility.yul\":655:673   */\n      add\n        /* \"#utility.yul\":647:673   */\n      swap1\n      pop\n        /* \"#utility.yul\":683:754   */\n      tag_30\n        /* \"#utility.yul\":751:752   */\n      0x00\n        /* \"#utility.yul\":740:749   */\n      dup4\n        /* \"#utility.yul\":736:753   */\n      add\n        /* \"#utility.yul\":727:733   */\n      dup5\n        /* \"#utility.yul\":683:754   */\n      tag_23\n      jump\t// in\n    tag_30:\n        /* \"#utility.yul\":539:761   */\n      swap3\n      swap2\n      pop\n      pop\n      jump\t// out\n        /* \"#utility.yul\":767:871   */\n    tag_22:\n        /* \"#utility.yul\":812:819   */\n      0x00\n        /* \"#utility.yul\":841:865   */\n      tag_32\n        /* \"#utility.yul\":859:864   */\n      dup3\n        /* \"#utility.yul\":841:865   */\n      tag_33\n      jump\t// in\n    tag_32:\n        /* \"#utility.yul\":830:865   */\n      swap1\n      pop\n        /* \"#utility.yul\":767:871   */\n      swap2\n      swap1\n      pop\n      jump\t// out\n        /* \"#utility.yul\":877:1003   */\n    tag_33:\n        /* \"#utility.yul\":914:921   */\n      0x00\n        /* \"#utility.yul\":954:996   */\n      0xffffffffffffffffffffffffffffffffffffffff\n        /* \"#utility.yul\":947:952   */\n      dup3\n        /* \"#utility.yul\":943:997   */\n      and\n        /* \"#utility.yul\":932:997   */\n      swap1\n      pop\n        /* \"#utility.yul\":877:1003   */\n      swap2\n      swap1\n      pop\n      jump\t// out\n        /* \"#utility.yul\":1009:1086   */\n    tag_26:\n        /* \"#utility.yul\":1046:1053   */\n      0x00\n        /* \"#utility.yul\":1075:1080   */\n      dup2\n        /* \"#utility.yul\":1064:1080   */\n      swap1\n      pop\n        /* \"#utility.yul\":1009:1086   */\n      swap2\n      swap1\n      pop\n      jump\t// out\n\n    auxdata: 0xa2646970667358221220b54b8d29efc261800467c5a14cbf1cc92db832ed53eaa9280fa570fa9b1fe7a664736f6c63430008070033\n}\n",
				"bytecode": {
					"linkReferences": {},
					"object": "60806040527303c6fced478cbbc9a4fab34ef9f40767739d1ff76000806101000a81548173ffffffffffffffffffffffffffffffffffffffff021916908373ffffffffffffffffffffffffffffffffffffffff16021790555034801561006457600080fd5b50610181806100746000396000f3fe60806040526004361061002d5760003560e01c8063993a04b714610039578063c71daccb1461006457610034565b3661003457005b600080fd5b34801561004557600080fd5b5061004e61008f565b60405161005b91906100d9565b60405180910390f35b34801561007057600080fd5b506100796100b3565b60405161008691906100f4565b60405180910390f35b60008054906101000a900473ffffffffffffffffffffffffffffffffffffffff1681565b600047905090565b6100c48161010f565b82525050565b6100d381610141565b82525050565b60006020820190506100ee60008301846100bb565b92915050565b600060208201905061010960008301846100ca565b92915050565b600061011a82610121565b9050919050565b600073ffffffffffffffffffffffffffffffffffffffff82169050919050565b600081905091905056fea2646970667358221220b54b8d29efc261800467c5a14cbf1cc92db832ed53eaa9280fa570fa9b1fe7a664736f6c63430008070033",
					"opcodes": "PUSH1 0x80 PUSH1 0x40 MSTORE PUSH20 0x3C6FCED478CBBC9A4FAB34EF9F40767739D1FF7 PUSH1 0x0 DUP1 PUSH2 0x100 EXP DUP2 SLOAD DUP2 PUSH20 0xFFFFFFFFFFFFFFFFFFFFFFFFFFFFFFFFFFFFFFFF MUL NOT AND SWAP1 DUP4 PUSH20 0xFFFFFFFFFFFFFFFFFFFFFFFFFFFFFFFFFFFFFFFF AND MUL OR SWAP1 SSTORE POP CALLVALUE DUP1 ISZERO PUSH2 0x64 JUMPI PUSH1 0x0 DUP1 REVERT JUMPDEST POP PUSH2 0x181 DUP1 PUSH2 0x74 PUSH1 0x0 CODECOPY PUSH1 0x0 RETURN INVALID PUSH1 0x80 PUSH1 0x40 MSTORE PUSH1 0x4 CALLDATASIZE LT PUSH2 0x2D JUMPI PUSH1 0x0 CALLDATALOAD PUSH1 0xE0 SHR DUP1 PUSH4 0x993A04B7 EQ PUSH2 0x39 JUMPI DUP1 PUSH4 0xC71DACCB EQ PUSH2 0x64 JUMPI PUSH2 0x34 JUMP JUMPDEST CALLDATASIZE PUSH2 0x34 JUMPI STOP JUMPDEST PUSH1 0x0 DUP1 REVERT JUMPDEST CALLVALUE DUP1 ISZERO PUSH2 0x45 JUMPI PUSH1 0x0 DUP1 REVERT JUMPDEST POP PUSH2 0x4E PUSH2 0x8F JUMP JUMPDEST PUSH1 0x40 MLOAD PUSH2 0x5B SWAP2 SWAP1 PUSH2 0xD9 JUMP JUMPDEST PUSH1 0x40 MLOAD DUP1 SWAP2 SUB SWAP1 RETURN JUMPDEST CALLVALUE DUP1 ISZERO PUSH2 0x70 JUMPI PUSH1 0x0 DUP1 REVERT JUMPDEST POP PUSH2 0x79 PUSH2 0xB3 JUMP JUMPDEST PUSH1 0x40 MLOAD PUSH2 0x86 SWAP2 SWAP1 PUSH2 0xF4 JUMP JUMPDEST PUSH1 0x40 MLOAD DUP1 SWAP2 SUB SWAP1 RETURN JUMPDEST PUSH1 0x0 DUP1 SLOAD SWAP1 PUSH2 0x100 EXP SWAP1 DIV PUSH20 0xFFFFFFFFFFFFFFFFFFFFFFFFFFFFFFFFFFFFFFFF AND DUP2 JUMP JUMPDEST PUSH1 0x0 SELFBALANCE SWAP1 POP SWAP1 JUMP JUMPDEST PUSH2 0xC4 DUP2 PUSH2 0x10F JUMP JUMPDEST DUP3 MSTORE POP POP JUMP JUMPDEST PUSH2 0xD3 DUP2 PUSH2 0x141 JUMP JUMPDEST DUP3 MSTORE POP POP JUMP JUMPDEST PUSH1 0x0 PUSH1 0x20 DUP3 ADD SWAP1 POP PUSH2 0xEE PUSH1 0x0 DUP4 ADD DUP5 PUSH2 0xBB JUMP JUMPDEST SWAP3 SWAP2 POP POP JUMP JUMPDEST PUSH1 0x0 PUSH1 0x20 DUP3 ADD SWAP1 POP PUSH2 0x109 PUSH1 0x0 DUP4 ADD DUP5 PUSH2 0xCA JUMP JUMPDEST SWAP3 SWAP2 POP POP JUMP JUMPDEST PUSH1 0x0 PUSH2 0x11A DUP3 PUSH2 0x121 JUMP JUMPDEST SWAP1 POP SWAP2 SWAP1 POP JUMP JUMPDEST PUSH1 0x0 PUSH20 0xFFFFFFFFFFFFFFFFFFFFFFFFFFFFFFFFFFFFFFFF DUP3 AND SWAP1 POP SWAP2 SWAP1 POP JUMP JUMPDEST PUSH1 0x0 DUP2 SWAP1 POP SWAP2 SWAP1 POP JUMP INVALID LOG2 PUSH5 0x6970667358 0x22 SLT KECCAK256 0xB5 0x4B DUP14 0x29 0xEF 0xC2 PUSH2 0x8004 PUSH8 0xC5A14CBF1CC92DB8 ORIGIN 0xED MSTORE8 0xEA 0xA9 0x28 0xF 0xA5 PUSH17 0xFA9B1FE7A664736F6C6343000807003300 "
				},
				"gasEstimates": {
					"creation": {
						"codeDepositCost": "77000",
						"executionCost": "24396",
						"totalCost": "101396"
					},
					"external": {
						"checkBalance()": "339",
						"getter()": "2489"
					}
				},
				"methodIdentifiers": {
					"checkBalance()": "c71daccb",
					"getter()": "993a04b7"
				}
			},
			"storageLayout": {
				"storage": [
					{
						"astId": 7,
						"contract": "send_eth.sol:sendETH",
						"label": "getter",
						"offset": 0,
						"slot": "0",
						"type": "t_address_payable"
					}
				],
				"types": {
					"t_address_payable": {
						"encoding": "inplace",
						"label": "address payable",
						"numberOfBytes": "20"
					}
				}
			},
			"userdoc": {
				"kind": "user",
				"methods": {},
				"version": 1
			}
		}
	}
}