{
	"functionModifierImple.sol": {
		"modifierFunctionImplementation": {
			"abi": [
				{
					"inputs": [],
					"name": "testFun1",
					"outputs": [],
					"stateMutability": "pure",
					"type": "function"
				},
				{
					"inputs": [],
					"name": "testFun2",
					"outputs": [],
					"stateMutability": "nonpayable",
					"type": "function"
				},
				{
					"inputs": [],
					"name": "testFun3",
					"outputs": [],
					"stateMutability": "nonpayable",
					"type": "function"
				}
			],
			"devdoc": {
				"kind": "dev",
				"methods": {},
				"version": 1
			},
			"evm": {
				"assembly": "    /* \"functionModifierImple.sol\":62:432  contract modifierFunctionImplementation{... */\n  mstore(0x40, 0x80)\n  callvalue\n  dup1\n  iszero\n  tag_1\n  jumpi\n  0x00\n  dup1\n  revert\ntag_1:\n  pop\n  dataSize(sub_0)\n  dup1\n  dataOffset(sub_0)\n  0x00\n  codecopy\n  0x00\n  return\nstop\n\nsub_0: assembly {\n        /* \"functionModifierImple.sol\":62:432  contract modifierFunctionImplementation{... */\n      mstore(0x40, 0x80)\n      callvalue\n      dup1\n      iszero\n      tag_1\n      jumpi\n      0x00\n      dup1\n      revert\n    tag_1:\n      pop\n      jumpi(tag_2, lt(calldatasize, 0x04))\n      shr(0xe0, calldataload(0x00))\n      dup1\n      0x0957a33c\n      eq\n      tag_3\n      jumpi\n      dup1\n      0xd1348826\n      eq\n      tag_4\n      jumpi\n      dup1\n      0xd91c1d8a\n      eq\n      tag_5\n      jumpi\n    tag_2:\n      0x00\n      dup1\n      revert\n        /* \"functionModifierImple.sol\":387:429  function testFun3() public{... */\n    tag_3:\n      tag_6\n      tag_7\n      jump\t// in\n    tag_6:\n      stop\n        /* \"functionModifierImple.sol\":155:263  function testFun1() public pure{... */\n    tag_4:\n      tag_8\n      tag_9\n      jump\t// in\n    tag_8:\n      stop\n        /* \"functionModifierImple.sol\":269:381  function testFun2() public{... */\n    tag_5:\n      tag_10\n      tag_11\n      jump\t// in\n    tag_10:\n      stop\n        /* \"functionModifierImple.sol\":387:429  function testFun3() public{... */\n    tag_7:\n      jump\t// out\n        /* \"functionModifierImple.sol\":155:263  function testFun1() public pure{... */\n    tag_9:\n        /* \"functionModifierImple.sol\":200:207  uint _i */\n      0x00\n        /* \"functionModifierImple.sol\":196:256  for(uint _i = 0; _i<10; _i++){... */\n    tag_14:\n        /* \"functionModifierImple.sol\":216:218  10 */\n      0x0a\n        /* \"functionModifierImple.sol\":213:215  _i */\n      dup2\n        /* \"functionModifierImple.sol\":213:218  _i<10 */\n      lt\n        /* \"functionModifierImple.sol\":196:256  for(uint _i = 0; _i<10; _i++){... */\n      iszero\n      tag_15\n      jumpi\n        /* \"functionModifierImple.sol\":220:224  _i++ */\n      dup1\n      dup1\n      tag_17\n      swap1\n      tag_18\n      jump\t// in\n    tag_17:\n      swap2\n      pop\n      pop\n        /* \"functionModifierImple.sol\":196:256  for(uint _i = 0; _i<10; _i++){... */\n      jump(tag_14)\n    tag_15:\n      pop\n        /* \"functionModifierImple.sol\":155:263  function testFun1() public pure{... */\n      jump\t// out\n        /* \"functionModifierImple.sol\":269:381  function testFun2() public{... */\n    tag_11:\n        /* \"functionModifierImple.sol\":310:317  uint _i */\n      0x00\n        /* \"functionModifierImple.sol\":306:366  for(uint _i = 0; _i<10; _i++){... */\n    tag_20:\n        /* \"functionModifierImple.sol\":326:328  10 */\n      0x0a\n        /* \"functionModifierImple.sol\":323:325  _i */\n      dup2\n        /* \"functionModifierImple.sol\":323:328  _i<10 */\n      lt\n        /* \"functionModifierImple.sol\":306:366  for(uint _i = 0; _i<10; _i++){... */\n      iszero\n      tag_21\n      jumpi\n        /* \"functionModifierImple.sol\":330:334  _i++ */\n      dup1\n      dup1\n      tag_23\n      swap1\n      tag_18\n      jump\t// in\n    tag_23:\n      swap2\n      pop\n      pop\n        /* \"functionModifierImple.sol\":306:366  for(uint _i = 0; _i<10; _i++){... */\n      jump(tag_20)\n    tag_21:\n      pop\n        /* \"functionModifierImple.sol\":269:381  function testFun2() public{... */\n      jump\t// out\n        /* \"#utility.yul\":7:84   */\n    tag_25:\n        /* \"#utility.yul\":44:51   */\n      0x00\n        /* \"#utility.yul\":73:78   */\n      dup2\n        /* \"#utility.yul\":62:78   */\n      swap1\n      pop\n        /* \"#utility.yul\":7:84   */\n      swap2\n      swap1\n      pop\n      jump\t// out\n        /* \"#utility.yul\":90:323   */\n    tag_18:\n        /* \"#utility.yul\":129:132   */\n      0x00\n        /* \"#utility.yul\":152:176   */\n      tag_28\n        /* \"#utility.yul\":170:175   */\n      dup3\n        /* \"#utility.yul\":152:176   */\n      tag_25\n      jump\t// in\n    tag_28:\n        /* \"#utility.yul\":143:176   */\n      swap2\n      pop\n        /* \"#utility.yul\":198:264   */\n      0xffffffffffffffffffffffffffffffffffffffffffffffffffffffffffffffff\n        /* \"#utility.yul\":191:196   */\n      dup3\n        /* \"#utility.yul\":188:265   */\n      eq\n        /* \"#utility.yul\":185:288   */\n      iszero\n      tag_29\n      jumpi\n        /* \"#utility.yul\":268:286   */\n      tag_30\n      tag_31\n      jump\t// in\n    tag_30:\n        /* \"#utility.yul\":185:288   */\n    tag_29:\n        /* \"#utility.yul\":315:316   */\n      0x01\n        /* \"#utility.yul\":308:313   */\n      dup3\n        /* \"#utility.yul\":304:317   */\n      add\n        /* \"#utility.yul\":297:317   */\n      swap1\n      pop\n        /* \"#utility.yul\":90:323   */\n      swap2\n      swap1\n      pop\n      jump\t// out\n        /* \"#utility.yul\":329:509   */\n    tag_31:\n        /* \"#utility.yul\":377:454   */\n      0x4e487b7100000000000000000000000000000000000000000000000000000000\n        /* \"#utility.yul\":374:375   */\n      0x00\n        /* \"#utility.yul\":367:455   */\n      mstore\n        /* \"#utility.yul\":474:478   */\n      0x11\n        /* \"#utility.yul\":471:472   */\n      0x04\n        /* \"#utility.yul\":464:479   */\n      mstore\n        /* \"#utility.yul\":498:502   */\n      0x24\n        /* \"#utility.yul\":495:496   */\n      0x00\n        /* \"#utility.yul\":488:503   */\n      revert\n\n    auxdata: 0xa2646970667358221220798830f6e9962453eab918c1f188eafad85549782d689efda8a613e4111fa01764736f6c63430008070033\n}\n",
				"bytecode": {
					"linkReferences": {},
					"object": "608060405234801561001057600080fd5b50610162806100206000396000f3fe608060405234801561001057600080fd5b50600436106100415760003560e01c80630957a33c14610046578063d134882614610050578063d91c1d8a1461005a575b600080fd5b61004e610064565b005b610058610066565b005b610062610088565b005b565b60005b600a81101561008557808061007d906100b4565b915050610069565b50565b60005b600a8110156100a757808061009f906100b4565b91505061008b565b50565b6000819050919050565b60006100bf826100aa565b91507fffffffffffffffffffffffffffffffffffffffffffffffffffffffffffffffff8214156100f2576100f16100fd565b5b600182019050919050565b7f4e487b7100000000000000000000000000000000000000000000000000000000600052601160045260246000fdfea2646970667358221220798830f6e9962453eab918c1f188eafad85549782d689efda8a613e4111fa01764736f6c63430008070033",
					"opcodes": "PUSH1 0x80 PUSH1 0x40 MSTORE CALLVALUE DUP1 ISZERO PUSH2 0x10 JUMPI PUSH1 0x0 DUP1 REVERT JUMPDEST POP PUSH2 0x162 DUP1 PUSH2 0x20 PUSH1 0x0 CODECOPY PUSH1 0x0 RETURN INVALID PUSH1 0x80 PUSH1 0x40 MSTORE CALLVALUE DUP1 ISZERO PUSH2 0x10 JUMPI PUSH1 0x0 DUP1 REVERT JUMPDEST POP PUSH1 0x4 CALLDATASIZE LT PUSH2 0x41 JUMPI PUSH1 0x0 CALLDATALOAD PUSH1 0xE0 SHR DUP1 PUSH4 0x957A33C EQ PUSH2 0x46 JUMPI DUP1 PUSH4 0xD1348826 EQ PUSH2 0x50 JUMPI DUP1 PUSH4 0xD91C1D8A EQ PUSH2 0x5A JUMPI JUMPDEST PUSH1 0x0 DUP1 REVERT JUMPDEST PUSH2 0x4E PUSH2 0x64 JUMP JUMPDEST STOP JUMPDEST PUSH2 0x58 PUSH2 0x66 JUMP JUMPDEST STOP JUMPDEST PUSH2 0x62 PUSH2 0x88 JUMP JUMPDEST STOP JUMPDEST JUMP JUMPDEST PUSH1 0x0 JUMPDEST PUSH1 0xA DUP2 LT ISZERO PUSH2 0x85 JUMPI DUP1 DUP1 PUSH2 0x7D SWAP1 PUSH2 0xB4 JUMP JUMPDEST SWAP2 POP POP PUSH2 0x69 JUMP JUMPDEST POP JUMP JUMPDEST PUSH1 0x0 JUMPDEST PUSH1 0xA DUP2 LT ISZERO PUSH2 0xA7 JUMPI DUP1 DUP1 PUSH2 0x9F SWAP1 PUSH2 0xB4 JUMP JUMPDEST SWAP2 POP POP PUSH2 0x8B JUMP JUMPDEST POP JUMP JUMPDEST PUSH1 0x0 DUP2 SWAP1 POP SWAP2 SWAP1 POP JUMP JUMPDEST PUSH1 0x0 PUSH2 0xBF DUP3 PUSH2 0xAA JUMP JUMPDEST SWAP2 POP PUSH32 0xFFFFFFFFFFFFFFFFFFFFFFFFFFFFFFFFFFFFFFFFFFFFFFFFFFFFFFFFFFFFFFFF DUP3 EQ ISZERO PUSH2 0xF2 JUMPI PUSH2 0xF1 PUSH2 0xFD JUMP JUMPDEST JUMPDEST PUSH1 0x1 DUP3 ADD SWAP1 POP SWAP2 SWAP1 POP JUMP JUMPDEST PUSH32 0x4E487B7100000000000000000000000000000000000000000000000000000000 PUSH1 0x0 MSTORE PUSH1 0x11 PUSH1 0x4 MSTORE PUSH1 0x24 PUSH1 0x0 REVERT INVALID LOG2 PUSH5 0x6970667358 0x22 SLT KECCAK256 PUSH26 0x8830F6E9962453EAB918C1F188EAFAD85549782D689EFDA8A613 0xE4 GT 0x1F LOG0 OR PUSH5 0x736F6C6343 STOP ADDMOD SMOD STOP CALLER "
				},
				"gasEstimates": {
					"creation": {
						"codeDepositCost": "70800",
						"executionCost": "123",
						"totalCost": "70923"
					},
					"external": {
						"testFun1()": "infinite",
						"testFun2()": "infinite",
						"testFun3()": "122"
					}
				},
				"methodIdentifiers": {
					"testFun1()": "d1348826",
					"testFun2()": "d91c1d8a",
					"testFun3()": "0957a33c"
				}
			},
			"storageLayout": {
				"storage": [],
				"types": null
			},
			"userdoc": {
				"kind": "user",
				"methods": {},
				"version": 1
			}
		}
	}
}