{
	"send_eth.sol": {
		"sendETH": {
			"abi": [
				{
					"inputs": [],
					"name": "CALL",
					"outputs": [],
					"stateMutability": "nonpayable",
					"type": "function"
				},
				{
					"inputs": [],
					"name": "SEND",
					"outputs": [],
					"stateMutability": "nonpayable",
					"type": "function"
				},
				{
					"inputs": [],
					"name": "TRANSFER",
					"outputs": [],
					"stateMutability": "nonpayable",
					"type": "function"
				},
				{
					"inputs": [],
					"name": "checkBalance",
					"outputs": [
						{
							"internalType": "uint256",
							"name": "",
							"type": "uint256"
						}
					],
					"stateMutability": "view",
					"type": "function"
				},
				{
					"inputs": [],
					"name": "getter",
					"outputs": [
						{
							"internalType": "address payable",
							"name": "",
							"type": "address"
						}
					],
					"stateMutability": "view",
					"type": "function"
				},
				{
					"stateMutability": "payable",
					"type": "receive"
				}
			],
			"devdoc": {
				"kind": "dev",
				"methods": {},
				"version": 1
			},
			"evm": {
				"assembly": "    /* \"send_eth.sol\":411:1108  contract sendETH{... */\n  mstore(0x40, 0x80)\n    /* \"send_eth.sol\":473:515  0x03C6FcED478cBbC9a4FAB34eF9f40767739D1Ff7 */\n  0x03c6fced478cbbc9a4fab34ef9f40767739d1ff7\n    /* \"send_eth.sol\":433:516  address payable public getter = payable(0x03C6FcED478cBbC9a4FAB34eF9f40767739D1Ff7) */\n  0x00\n  dup1\n  0x0100\n  exp\n  dup2\n  sload\n  dup2\n  0xffffffffffffffffffffffffffffffffffffffff\n  mul\n  not\n  and\n  swap1\n  dup4\n  0xffffffffffffffffffffffffffffffffffffffff\n  and\n  mul\n  or\n  swap1\n  sstore\n  pop\n    /* \"send_eth.sol\":411:1108  contract sendETH{... */\n  callvalue\n  dup1\n  iszero\n  tag_1\n  jumpi\n  0x00\n  dup1\n  revert\ntag_1:\n  pop\n  dataSize(sub_0)\n  dup1\n  dataOffset(sub_0)\n  0x00\n  codecopy\n  0x00\n  return\nstop\n\nsub_0: assembly {\n        /* \"send_eth.sol\":411:1108  contract sendETH{... */\n      mstore(0x40, 0x80)\n      jumpi(tag_1, lt(calldatasize, 0x04))\n      shr(0xe0, calldataload(0x00))\n      dup1\n      0x1cd48842\n      eq\n      tag_3\n      jumpi\n      dup1\n      0x1f5e1334\n      eq\n      tag_4\n      jumpi\n      dup1\n      0x76420e1d\n      eq\n      tag_5\n      jumpi\n      dup1\n      0x993a04b7\n      eq\n      tag_6\n      jumpi\n      dup1\n      0xc71daccb\n      eq\n      tag_7\n      jumpi\n      jump(tag_2)\n    tag_1:\n      jumpi(tag_2, calldatasize)\n      stop\n    tag_2:\n      0x00\n      dup1\n      revert\n        /* \"send_eth.sol\":891:1106  function CALL() public{... */\n    tag_3:\n      callvalue\n      dup1\n      iszero\n      tag_10\n      jumpi\n      0x00\n      dup1\n      revert\n    tag_10:\n      pop\n      tag_11\n      tag_12\n      jump\t// in\n    tag_11:\n      stop\n        /* \"send_eth.sol\":665:800  function SEND() public{... */\n    tag_4:\n      callvalue\n      dup1\n      iszero\n      tag_13\n      jumpi\n      0x00\n      dup1\n      revert\n    tag_13:\n      pop\n      tag_14\n      tag_15\n      jump\t// in\n    tag_14:\n      stop\n        /* \"send_eth.sol\":806:885  function TRANSFER() public{... */\n    tag_5:\n      callvalue\n      dup1\n      iszero\n      tag_16\n      jumpi\n      0x00\n      dup1\n      revert\n    tag_16:\n      pop\n      tag_17\n      tag_18\n      jump\t// in\n    tag_17:\n      stop\n        /* \"send_eth.sol\":433:516  address payable public getter = payable(0x03C6FcED478cBbC9a4FAB34eF9f40767739D1Ff7) */\n    tag_6:\n      callvalue\n      dup1\n      iszero\n      tag_19\n      jumpi\n      0x00\n      dup1\n      revert\n    tag_19:\n      pop\n      tag_20\n      tag_21\n      jump\t// in\n    tag_20:\n      mload(0x40)\n      tag_22\n      swap2\n      swap1\n      tag_23\n      jump\t// in\n    tag_22:\n      mload(0x40)\n      dup1\n      swap2\n      sub\n      swap1\n      return\n        /* \"send_eth.sol\":564:658  function checkBalance() public view returns(uint){... */\n    tag_7:\n      callvalue\n      dup1\n      iszero\n      tag_24\n      jumpi\n      0x00\n      dup1\n      revert\n    tag_24:\n      pop\n      tag_25\n      tag_26\n      jump\t// in\n    tag_25:\n      mload(0x40)\n      tag_27\n      swap2\n      swap1\n      tag_28\n      jump\t// in\n    tag_27:\n      mload(0x40)\n      dup1\n      swap2\n      sub\n      swap1\n      return\n        /* \"send_eth.sol\":891:1106  function CALL() public{... */\n    tag_12:\n        /* \"send_eth.sol\":933:941  bool get */\n      0x00\n        /* \"send_eth.sol\":943:960  bytes memory data */\n      dup1\n        /* \"send_eth.sol\":962:968  getter */\n      0x00\n      dup1\n      sload\n      swap1\n      0x0100\n      exp\n      swap1\n      div\n      0xffffffffffffffffffffffffffffffffffffffff\n      and\n        /* \"send_eth.sol\":962:973  getter.call */\n      0xffffffffffffffffffffffffffffffffffffffff\n      and\n        /* \"send_eth.sol\":993:1011  100000000000000000 */\n      0x016345785d8a0000\n        /* \"send_eth.sol\":962:1051  getter.call{... */\n      mload(0x40)\n      tag_30\n      swap1\n      tag_31\n      jump\t// in\n    tag_30:\n      0x00\n      mload(0x40)\n      dup1\n      dup4\n      sub\n      dup2\n      dup6\n      dup8\n      gas\n      call\n      swap3\n      pop\n      pop\n      pop\n      returndatasize\n      dup1\n      0x00\n      dup2\n      eq\n      tag_34\n      jumpi\n      mload(0x40)\n      swap2\n      pop\n      and(add(returndatasize, 0x3f), not(0x1f))\n      dup3\n      add\n      0x40\n      mstore\n      returndatasize\n      dup3\n      mstore\n      returndatasize\n      0x00\n      0x20\n      dup5\n      add\n      returndatacopy\n      jump(tag_33)\n    tag_34:\n      0x60\n      swap2\n      pop\n    tag_33:\n      pop\n        /* \"send_eth.sol\":932:1051  (bool get, bytes memory data)=getter.call{... */\n      swap2\n      pop\n      swap2\n      pop\n        /* \"send_eth.sol\":1070:1073  get */\n      dup2\n        /* \"send_eth.sol\":1062:1099  require(get, \"Transcation is Failed\") */\n      tag_35\n      jumpi\n      mload(0x40)\n      0x08c379a000000000000000000000000000000000000000000000000000000000\n      dup2\n      mstore\n      0x04\n      add\n      tag_36\n      swap1\n      tag_37\n      jump\t// in\n    tag_36:\n      mload(0x40)\n      dup1\n      swap2\n      sub\n      swap1\n      revert\n    tag_35:\n        /* \"send_eth.sol\":913:1106  {... */\n      pop\n      pop\n        /* \"send_eth.sol\":891:1106  function CALL() public{... */\n      jump\t// out\n        /* \"send_eth.sol\":665:800  function SEND() public{... */\n    tag_15:\n        /* \"send_eth.sol\":697:708  bool isSend */\n      0x00\n        /* \"send_eth.sol\":711:717  getter */\n      dup1\n      0x00\n      swap1\n      sload\n      swap1\n      0x0100\n      exp\n      swap1\n      div\n      0xffffffffffffffffffffffffffffffffffffffff\n      and\n        /* \"send_eth.sol\":711:722  getter.send */\n      0xffffffffffffffffffffffffffffffffffffffff\n      and\n        /* \"send_eth.sol\":711:743  getter.send(1000000000000000000) */\n      0x08fc\n        /* \"send_eth.sol\":723:742  1000000000000000000 */\n      0x0de0b6b3a7640000\n        /* \"send_eth.sol\":711:743  getter.send(1000000000000000000) */\n      swap1\n      dup2\n      iszero\n      mul\n      swap1\n      mload(0x40)\n      0x00\n      mload(0x40)\n      dup1\n      dup4\n      sub\n      dup2\n      dup6\n      dup9\n      dup9\n      call\n      swap4\n      pop\n      pop\n      pop\n      pop\n        /* \"send_eth.sol\":697:743  bool isSend = getter.send(1000000000000000000) */\n      swap1\n      pop\n        /* \"send_eth.sol\":761:767  isSend */\n      dup1\n        /* \"send_eth.sol\":753:793  require(isSend, \"Transcation is Failed\") */\n      tag_40\n      jumpi\n      mload(0x40)\n      0x08c379a000000000000000000000000000000000000000000000000000000000\n      dup2\n      mstore\n      0x04\n      add\n      tag_41\n      swap1\n      tag_37\n      jump\t// in\n    tag_41:\n      mload(0x40)\n      dup1\n      swap2\n      sub\n      swap1\n      revert\n    tag_40:\n        /* \"send_eth.sol\":687:800  {... */\n      pop\n        /* \"send_eth.sol\":665:800  function SEND() public{... */\n      jump\t// out\n        /* \"send_eth.sol\":806:885  function TRANSFER() public{... */\n    tag_18:\n        /* \"send_eth.sol\":842:848  getter */\n      0x00\n      dup1\n      sload\n      swap1\n      0x0100\n      exp\n      swap1\n      div\n      0xffffffffffffffffffffffffffffffffffffffff\n      and\n        /* \"send_eth.sol\":842:857  getter.transfer */\n      0xffffffffffffffffffffffffffffffffffffffff\n      and\n        /* \"send_eth.sol\":842:878  getter.transfer(1000000000000000000) */\n      0x08fc\n        /* \"send_eth.sol\":858:877  1000000000000000000 */\n      0x0de0b6b3a7640000\n        /* \"send_eth.sol\":842:878  getter.transfer(1000000000000000000) */\n      swap1\n      dup2\n      iszero\n      mul\n      swap1\n      mload(0x40)\n      0x00\n      mload(0x40)\n      dup1\n      dup4\n      sub\n      dup2\n      dup6\n      dup9\n      dup9\n      call\n      swap4\n      pop\n      pop\n      pop\n      pop\n      iszero\n      dup1\n      iszero\n      tag_44\n      jumpi\n      returndatasize\n      0x00\n      dup1\n      returndatacopy\n      revert(0x00, returndatasize)\n    tag_44:\n      pop\n        /* \"send_eth.sol\":806:885  function TRANSFER() public{... */\n      jump\t// out\n        /* \"send_eth.sol\":433:516  address payable public getter = payable(0x03C6FcED478cBbC9a4FAB34eF9f40767739D1Ff7) */\n    tag_21:\n      0x00\n      dup1\n      sload\n      swap1\n      0x0100\n      exp\n      swap1\n      div\n      0xffffffffffffffffffffffffffffffffffffffff\n      and\n      dup2\n      jump\t// out\n        /* \"send_eth.sol\":564:658  function checkBalance() public view returns(uint){... */\n    tag_26:\n        /* \"send_eth.sol\":608:612  uint */\n      0x00\n        /* \"send_eth.sol\":630:651  address(this).balance */\n      selfbalance\n        /* \"send_eth.sol\":623:651  return address(this).balance */\n      swap1\n      pop\n        /* \"send_eth.sol\":564:658  function checkBalance() public view returns(uint){... */\n      swap1\n      jump\t// out\n        /* \"#utility.yul\":7:149   */\n    tag_47:\n        /* \"#utility.yul\":110:142   */\n      tag_49\n        /* \"#utility.yul\":136:141   */\n      dup2\n        /* \"#utility.yul\":110:142   */\n      tag_50\n      jump\t// in\n    tag_49:\n        /* \"#utility.yul\":105:108   */\n      dup3\n        /* \"#utility.yul\":98:143   */\n      mstore\n        /* \"#utility.yul\":7:149   */\n      pop\n      pop\n      jump\t// out\n        /* \"#utility.yul\":155:521   */\n    tag_51:\n        /* \"#utility.yul\":297:300   */\n      0x00\n        /* \"#utility.yul\":318:385   */\n      tag_53\n        /* \"#utility.yul\":382:384   */\n      0x15\n        /* \"#utility.yul\":377:380   */\n      dup4\n        /* \"#utility.yul\":318:385   */\n      tag_54\n      jump\t// in\n    tag_53:\n        /* \"#utility.yul\":311:385   */\n      swap2\n      pop\n        /* \"#utility.yul\":394:487   */\n      tag_55\n        /* \"#utility.yul\":483:486   */\n      dup3\n        /* \"#utility.yul\":394:487   */\n      tag_56\n      jump\t// in\n    tag_55:\n        /* \"#utility.yul\":512:514   */\n      0x20\n        /* \"#utility.yul\":507:510   */\n      dup3\n        /* \"#utility.yul\":503:515   */\n      add\n        /* \"#utility.yul\":496:515   */\n      swap1\n      pop\n        /* \"#utility.yul\":155:521   */\n      swap2\n      swap1\n      pop\n      jump\t// out\n        /* \"#utility.yul\":527:925   */\n    tag_57:\n        /* \"#utility.yul\":686:689   */\n      0x00\n        /* \"#utility.yul\":707:790   */\n      tag_59\n        /* \"#utility.yul\":788:789   */\n      0x00\n        /* \"#utility.yul\":783:786   */\n      dup4\n        /* \"#utility.yul\":707:790   */\n      tag_60\n      jump\t// in\n    tag_59:\n        /* \"#utility.yul\":700:790   */\n      swap2\n      pop\n        /* \"#utility.yul\":799:892   */\n      tag_61\n        /* \"#utility.yul\":888:891   */\n      dup3\n        /* \"#utility.yul\":799:892   */\n      tag_62\n      jump\t// in\n    tag_61:\n        /* \"#utility.yul\":917:918   */\n      0x00\n        /* \"#utility.yul\":912:915   */\n      dup3\n        /* \"#utility.yul\":908:919   */\n      add\n        /* \"#utility.yul\":901:919   */\n      swap1\n      pop\n        /* \"#utility.yul\":527:925   */\n      swap2\n      swap1\n      pop\n      jump\t// out\n        /* \"#utility.yul\":931:1049   */\n    tag_63:\n        /* \"#utility.yul\":1018:1042   */\n      tag_65\n        /* \"#utility.yul\":1036:1041   */\n      dup2\n        /* \"#utility.yul\":1018:1042   */\n      tag_66\n      jump\t// in\n    tag_65:\n        /* \"#utility.yul\":1013:1016   */\n      dup3\n        /* \"#utility.yul\":1006:1043   */\n      mstore\n        /* \"#utility.yul\":931:1049   */\n      pop\n      pop\n      jump\t// out\n        /* \"#utility.yul\":1055:1434   */\n    tag_31:\n        /* \"#utility.yul\":1239:1242   */\n      0x00\n        /* \"#utility.yul\":1261:1408   */\n      tag_68\n        /* \"#utility.yul\":1404:1407   */\n      dup3\n        /* \"#utility.yul\":1261:1408   */\n      tag_57\n      jump\t// in\n    tag_68:\n        /* \"#utility.yul\":1254:1408   */\n      swap2\n      pop\n        /* \"#utility.yul\":1425:1428   */\n      dup2\n        /* \"#utility.yul\":1418:1428   */\n      swap1\n      pop\n        /* \"#utility.yul\":1055:1434   */\n      swap2\n      swap1\n      pop\n      jump\t// out\n        /* \"#utility.yul\":1440:1694   */\n    tag_23:\n        /* \"#utility.yul\":1549:1553   */\n      0x00\n        /* \"#utility.yul\":1587:1589   */\n      0x20\n        /* \"#utility.yul\":1576:1585   */\n      dup3\n        /* \"#utility.yul\":1572:1590   */\n      add\n        /* \"#utility.yul\":1564:1590   */\n      swap1\n      pop\n        /* \"#utility.yul\":1600:1687   */\n      tag_70\n        /* \"#utility.yul\":1684:1685   */\n      0x00\n        /* \"#utility.yul\":1673:1682   */\n      dup4\n        /* \"#utility.yul\":1669:1686   */\n      add\n        /* \"#utility.yul\":1660:1666   */\n      dup5\n        /* \"#utility.yul\":1600:1687   */\n      tag_47\n      jump\t// in\n    tag_70:\n        /* \"#utility.yul\":1440:1694   */\n      swap3\n      swap2\n      pop\n      pop\n      jump\t// out\n        /* \"#utility.yul\":1700:2119   */\n    tag_37:\n        /* \"#utility.yul\":1866:1870   */\n      0x00\n        /* \"#utility.yul\":1904:1906   */\n      0x20\n        /* \"#utility.yul\":1893:1902   */\n      dup3\n        /* \"#utility.yul\":1889:1907   */\n      add\n        /* \"#utility.yul\":1881:1907   */\n      swap1\n      pop\n        /* \"#utility.yul\":1953:1962   */\n      dup2\n        /* \"#utility.yul\":1947:1951   */\n      dup2\n        /* \"#utility.yul\":1943:1963   */\n      sub\n        /* \"#utility.yul\":1939:1940   */\n      0x00\n        /* \"#utility.yul\":1928:1937   */\n      dup4\n        /* \"#utility.yul\":1924:1941   */\n      add\n        /* \"#utility.yul\":1917:1964   */\n      mstore\n        /* \"#utility.yul\":1981:2112   */\n      tag_72\n        /* \"#utility.yul\":2107:2111   */\n      dup2\n        /* \"#utility.yul\":1981:2112   */\n      tag_51\n      jump\t// in\n    tag_72:\n        /* \"#utility.yul\":1973:2112   */\n      swap1\n      pop\n        /* \"#utility.yul\":1700:2119   */\n      swap2\n      swap1\n      pop\n      jump\t// out\n        /* \"#utility.yul\":2125:2347   */\n    tag_28:\n        /* \"#utility.yul\":2218:2222   */\n      0x00\n        /* \"#utility.yul\":2256:2258   */\n      0x20\n        /* \"#utility.yul\":2245:2254   */\n      dup3\n        /* \"#utility.yul\":2241:2259   */\n      add\n        /* \"#utility.yul\":2233:2259   */\n      swap1\n      pop\n        /* \"#utility.yul\":2269:2340   */\n      tag_74\n        /* \"#utility.yul\":2337:2338   */\n      0x00\n        /* \"#utility.yul\":2326:2335   */\n      dup4\n        /* \"#utility.yul\":2322:2339   */\n      add\n        /* \"#utility.yul\":2313:2319   */\n      dup5\n        /* \"#utility.yul\":2269:2340   */\n      tag_63\n      jump\t// in\n    tag_74:\n        /* \"#utility.yul\":2125:2347   */\n      swap3\n      swap2\n      pop\n      pop\n      jump\t// out\n        /* \"#utility.yul\":2353:2500   */\n    tag_60:\n        /* \"#utility.yul\":2454:2465   */\n      0x00\n        /* \"#utility.yul\":2491:2494   */\n      dup2\n        /* \"#utility.yul\":2476:2494   */\n      swap1\n      pop\n        /* \"#utility.yul\":2353:2500   */\n      swap3\n      swap2\n      pop\n      pop\n      jump\t// out\n        /* \"#utility.yul\":2506:2675   */\n    tag_54:\n        /* \"#utility.yul\":2590:2601   */\n      0x00\n        /* \"#utility.yul\":2624:2630   */\n      dup3\n        /* \"#utility.yul\":2619:2622   */\n      dup3\n        /* \"#utility.yul\":2612:2631   */\n      mstore\n        /* \"#utility.yul\":2664:2668   */\n      0x20\n        /* \"#utility.yul\":2659:2662   */\n      dup3\n        /* \"#utility.yul\":2655:2669   */\n      add\n        /* \"#utility.yul\":2640:2669   */\n      swap1\n      pop\n        /* \"#utility.yul\":2506:2675   */\n      swap3\n      swap2\n      pop\n      pop\n      jump\t// out\n        /* \"#utility.yul\":2681:2785   */\n    tag_50:\n        /* \"#utility.yul\":2726:2733   */\n      0x00\n        /* \"#utility.yul\":2755:2779   */\n      tag_78\n        /* \"#utility.yul\":2773:2778   */\n      dup3\n        /* \"#utility.yul\":2755:2779   */\n      tag_79\n      jump\t// in\n    tag_78:\n        /* \"#utility.yul\":2744:2779   */\n      swap1\n      pop\n        /* \"#utility.yul\":2681:2785   */\n      swap2\n      swap1\n      pop\n      jump\t// out\n        /* \"#utility.yul\":2791:2917   */\n    tag_79:\n        /* \"#utility.yul\":2828:2835   */\n      0x00\n        /* \"#utility.yul\":2868:2910   */\n      0xffffffffffffffffffffffffffffffffffffffff\n        /* \"#utility.yul\":2861:2866   */\n      dup3\n        /* \"#utility.yul\":2857:2911   */\n      and\n        /* \"#utility.yul\":2846:2911   */\n      swap1\n      pop\n        /* \"#utility.yul\":2791:2917   */\n      swap2\n      swap1\n      pop\n      jump\t// out\n        /* \"#utility.yul\":2923:3000   */\n    tag_66:\n        /* \"#utility.yul\":2960:2967   */\n      0x00\n        /* \"#utility.yul\":2989:2994   */\n      dup2\n        /* \"#utility.yul\":2978:2994   */\n      swap1\n      pop\n        /* \"#utility.yul\":2923:3000   */\n      swap2\n      swap1\n      pop\n      jump\t// out\n        /* \"#utility.yul\":3006:3177   */\n    tag_56:\n        /* \"#utility.yul\":3146:3169   */\n      0x5472616e73636174696f6e206973204661696c65640000000000000000000000\n        /* \"#utility.yul\":3142:3143   */\n      0x00\n        /* \"#utility.yul\":3134:3140   */\n      dup3\n        /* \"#utility.yul\":3130:3144   */\n      add\n        /* \"#utility.yul\":3123:3170   */\n      mstore\n        /* \"#utility.yul\":3006:3177   */\n      pop\n      jump\t// out\n        /* \"#utility.yul\":3183:3297   */\n    tag_62:\n      pop\n      jump\t// out\n\n    auxdata: 0xa2646970667358221220df03d5a82fc7acb8c7db652b80d9a4a3e32c2a000b2cb1157d1abe844c7e965064736f6c63430008070033\n}\n",
				"bytecode": {
					"linkReferences": {},
					"object": "60806040527303c6fced478cbbc9a4fab34ef9f40767739d1ff76000806101000a81548173ffffffffffffffffffffffffffffffffffffffff021916908373ffffffffffffffffffffffffffffffffffffffff16021790555034801561006457600080fd5b5061049a806100746000396000f3fe60806040526004361061004e5760003560e01c80631cd488421461005a5780631f5e13341461007157806376420e1d14610088578063993a04b71461009f578063c71daccb146100ca57610055565b3661005557005b600080fd5b34801561006657600080fd5b5061006f6100f5565b005b34801561007d57600080fd5b506100866101cf565b005b34801561009457600080fd5b5061009d610274565b005b3480156100ab57600080fd5b506100b46102e5565b6040516100c1919061038a565b60405180910390f35b3480156100d657600080fd5b506100df610309565b6040516100ec91906103c5565b60405180910390f35b60008060008054906101000a900473ffffffffffffffffffffffffffffffffffffffff1673ffffffffffffffffffffffffffffffffffffffff1667016345785d8a000060405161014490610375565b60006040518083038185875af1925050503d8060008114610181576040519150601f19603f3d011682016040523d82523d6000602084013e610186565b606091505b5091509150816101cb576040517f08c379a00000000000000000000000000000000000000000000000000000000081526004016101c2906103a5565b60405180910390fd5b5050565b60008060009054906101000a900473ffffffffffffffffffffffffffffffffffffffff1673ffffffffffffffffffffffffffffffffffffffff166108fc670de0b6b3a76400009081150290604051600060405180830381858888f19350505050905080610271576040517f08c379a0000000000000000000000000000000000000000000000000000000008152600401610268906103a5565b60405180910390fd5b50565b60008054906101000a900473ffffffffffffffffffffffffffffffffffffffff1673ffffffffffffffffffffffffffffffffffffffff166108fc670de0b6b3a76400009081150290604051600060405180830381858888f193505050501580156102e2573d6000803e3d6000fd5b50565b60008054906101000a900473ffffffffffffffffffffffffffffffffffffffff1681565b600047905090565b61031a816103fc565b82525050565b600061032d6015836103eb565b915061033882610438565b602082019050919050565b60006103506000836103e0565b915061035b82610461565b600082019050919050565b61036f8161042e565b82525050565b600061038082610343565b9150819050919050565b600060208201905061039f6000830184610311565b92915050565b600060208201905081810360008301526103be81610320565b9050919050565b60006020820190506103da6000830184610366565b92915050565b600081905092915050565b600082825260208201905092915050565b60006104078261040e565b9050919050565b600073ffffffffffffffffffffffffffffffffffffffff82169050919050565b6000819050919050565b7f5472616e73636174696f6e206973204661696c65640000000000000000000000600082015250565b5056fea2646970667358221220df03d5a82fc7acb8c7db652b80d9a4a3e32c2a000b2cb1157d1abe844c7e965064736f6c63430008070033",
					"opcodes": "PUSH1 0x80 PUSH1 0x40 MSTORE PUSH20 0x3C6FCED478CBBC9A4FAB34EF9F40767739D1FF7 PUSH1 0x0 DUP1 PUSH2 0x100 EXP DUP2 SLOAD DUP2 PUSH20 0xFFFFFFFFFFFFFFFFFFFFFFFFFFFFFFFFFFFFFFFF MUL NOT AND SWAP1 DUP4 PUSH20 0xFFFFFFFFFFFFFFFFFFFFFFFFFFFFFFFFFFFFFFFF AND MUL OR SWAP1 SSTORE POP CALLVALUE DUP1 ISZERO PUSH2 0x64 JUMPI PUSH1 0x0 DUP1 REVERT JUMPDEST POP PUSH2 0x49A DUP1 PUSH2 0x74 PUSH1 0x0 CODECOPY PUSH1 0x0 RETURN INVALID PUSH1 0x80 PUSH1 0x40 MSTORE PUSH1 0x4 CALLDATASIZE LT PUSH2 0x4E JUMPI PUSH1 0x0 CALLDATALOAD PUSH1 0xE0 SHR DUP1 PUSH4 0x1CD48842 EQ PUSH2 0x5A JUMPI DUP1 PUSH4 0x1F5E1334 EQ PUSH2 0x71 JUMPI DUP1 PUSH4 0x76420E1D EQ PUSH2 0x88 JUMPI DUP1 PUSH4 0x993A04B7 EQ PUSH2 0x9F JUMPI DUP1 PUSH4 0xC71DACCB EQ PUSH2 0xCA JUMPI PUSH2 0x55 JUMP JUMPDEST CALLDATASIZE PUSH2 0x55 JUMPI STOP JUMPDEST PUSH1 0x0 DUP1 REVERT JUMPDEST CALLVALUE DUP1 ISZERO PUSH2 0x66 JUMPI PUSH1 0x0 DUP1 REVERT JUMPDEST POP PUSH2 0x6F PUSH2 0xF5 JUMP JUMPDEST STOP JUMPDEST CALLVALUE DUP1 ISZERO PUSH2 0x7D JUMPI PUSH1 0x0 DUP1 REVERT JUMPDEST POP PUSH2 0x86 PUSH2 0x1CF JUMP JUMPDEST STOP JUMPDEST CALLVALUE DUP1 ISZERO PUSH2 0x94 JUMPI PUSH1 0x0 DUP1 REVERT JUMPDEST POP PUSH2 0x9D PUSH2 0x274 JUMP JUMPDEST STOP JUMPDEST CALLVALUE DUP1 ISZERO PUSH2 0xAB JUMPI PUSH1 0x0 DUP1 REVERT JUMPDEST POP PUSH2 0xB4 PUSH2 0x2E5 JUMP JUMPDEST PUSH1 0x40 MLOAD PUSH2 0xC1 SWAP2 SWAP1 PUSH2 0x38A JUMP JUMPDEST PUSH1 0x40 MLOAD DUP1 SWAP2 SUB SWAP1 RETURN JUMPDEST CALLVALUE DUP1 ISZERO PUSH2 0xD6 JUMPI PUSH1 0x0 DUP1 REVERT JUMPDEST POP PUSH2 0xDF PUSH2 0x309 JUMP JUMPDEST PUSH1 0x40 MLOAD PUSH2 0xEC SWAP2 SWAP1 PUSH2 0x3C5 JUMP JUMPDEST PUSH1 0x40 MLOAD DUP1 SWAP2 SUB SWAP1 RETURN JUMPDEST PUSH1 0x0 DUP1 PUSH1 0x0 DUP1 SLOAD SWAP1 PUSH2 0x100 EXP SWAP1 DIV PUSH20 0xFFFFFFFFFFFFFFFFFFFFFFFFFFFFFFFFFFFFFFFF AND PUSH20 0xFFFFFFFFFFFFFFFFFFFFFFFFFFFFFFFFFFFFFFFF AND PUSH8 0x16345785D8A0000 PUSH1 0x40 MLOAD PUSH2 0x144 SWAP1 PUSH2 0x375 JUMP JUMPDEST PUSH1 0x0 PUSH1 0x40 MLOAD DUP1 DUP4 SUB DUP2 DUP6 DUP8 GAS CALL SWAP3 POP POP POP RETURNDATASIZE DUP1 PUSH1 0x0 DUP2 EQ PUSH2 0x181 JUMPI PUSH1 0x40 MLOAD SWAP2 POP PUSH1 0x1F NOT PUSH1 0x3F RETURNDATASIZE ADD AND DUP3 ADD PUSH1 0x40 MSTORE RETURNDATASIZE DUP3 MSTORE RETURNDATASIZE PUSH1 0x0 PUSH1 0x20 DUP5 ADD RETURNDATACOPY PUSH2 0x186 JUMP JUMPDEST PUSH1 0x60 SWAP2 POP JUMPDEST POP SWAP2 POP SWAP2 POP DUP2 PUSH2 0x1CB JUMPI PUSH1 0x40 MLOAD PUSH32 0x8C379A000000000000000000000000000000000000000000000000000000000 DUP2 MSTORE PUSH1 0x4 ADD PUSH2 0x1C2 SWAP1 PUSH2 0x3A5 JUMP JUMPDEST PUSH1 0x40 MLOAD DUP1 SWAP2 SUB SWAP1 REVERT JUMPDEST POP POP JUMP JUMPDEST PUSH1 0x0 DUP1 PUSH1 0x0 SWAP1 SLOAD SWAP1 PUSH2 0x100 EXP SWAP1 DIV PUSH20 0xFFFFFFFFFFFFFFFFFFFFFFFFFFFFFFFFFFFFFFFF AND PUSH20 0xFFFFFFFFFFFFFFFFFFFFFFFFFFFFFFFFFFFFFFFF AND PUSH2 0x8FC PUSH8 0xDE0B6B3A7640000 SWAP1 DUP2 ISZERO MUL SWAP1 PUSH1 0x40 MLOAD PUSH1 0x0 PUSH1 0x40 MLOAD DUP1 DUP4 SUB DUP2 DUP6 DUP9 DUP9 CALL SWAP4 POP POP POP POP SWAP1 POP DUP1 PUSH2 0x271 JUMPI PUSH1 0x40 MLOAD PUSH32 0x8C379A000000000000000000000000000000000000000000000000000000000 DUP2 MSTORE PUSH1 0x4 ADD PUSH2 0x268 SWAP1 PUSH2 0x3A5 JUMP JUMPDEST PUSH1 0x40 MLOAD DUP1 SWAP2 SUB SWAP1 REVERT JUMPDEST POP JUMP JUMPDEST PUSH1 0x0 DUP1 SLOAD SWAP1 PUSH2 0x100 EXP SWAP1 DIV PUSH20 0xFFFFFFFFFFFFFFFFFFFFFFFFFFFFFFFFFFFFFFFF AND PUSH20 0xFFFFFFFFFFFFFFFFFFFFFFFFFFFFFFFFFFFFFFFF AND PUSH2 0x8FC PUSH8 0xDE0B6B3A7640000 SWAP1 DUP2 ISZERO MUL SWAP1 PUSH1 0x40 MLOAD PUSH1 0x0 PUSH1 0x40 MLOAD DUP1 DUP4 SUB DUP2 DUP6 DUP9 DUP9 CALL SWAP4 POP POP POP POP ISZERO DUP1 ISZERO PUSH2 0x2E2 JUMPI RETURNDATASIZE PUSH1 0x0 DUP1 RETURNDATACOPY RETURNDATASIZE PUSH1 0x0 REVERT JUMPDEST POP JUMP JUMPDEST PUSH1 0x0 DUP1 SLOAD SWAP1 PUSH2 0x100 EXP SWAP1 DIV PUSH20 0xFFFFFFFFFFFFFFFFFFFFFFFFFFFFFFFFFFFFFFFF AND DUP2 JUMP JUMPDEST PUSH1 0x0 SELFBALANCE SWAP1 POP SWAP1 JUMP JUMPDEST PUSH2 0x31A DUP2 PUSH2 0x3FC JUMP JUMPDEST DUP3 MSTORE POP POP JUMP JUMPDEST PUSH1 0x0 PUSH2 0x32D PUSH1 0x15 DUP4 PUSH2 0x3EB JUMP JUMPDEST SWAP2 POP PUSH2 0x338 DUP3 PUSH2 0x438 JUMP JUMPDEST PUSH1 0x20 DUP3 ADD SWAP1 POP SWAP2 SWAP1 POP JUMP JUMPDEST PUSH1 0x0 PUSH2 0x350 PUSH1 0x0 DUP4 PUSH2 0x3E0 JUMP JUMPDEST SWAP2 POP PUSH2 0x35B DUP3 PUSH2 0x461 JUMP JUMPDEST PUSH1 0x0 DUP3 ADD SWAP1 POP SWAP2 SWAP1 POP JUMP JUMPDEST PUSH2 0x36F DUP2 PUSH2 0x42E JUMP JUMPDEST DUP3 MSTORE POP POP JUMP JUMPDEST PUSH1 0x0 PUSH2 0x380 DUP3 PUSH2 0x343 JUMP JUMPDEST SWAP2 POP DUP2 SWAP1 POP SWAP2 SWAP1 POP JUMP JUMPDEST PUSH1 0x0 PUSH1 0x20 DUP3 ADD SWAP1 POP PUSH2 0x39F PUSH1 0x0 DUP4 ADD DUP5 PUSH2 0x311 JUMP JUMPDEST SWAP3 SWAP2 POP POP JUMP JUMPDEST PUSH1 0x0 PUSH1 0x20 DUP3 ADD SWAP1 POP DUP2 DUP2 SUB PUSH1 0x0 DUP4 ADD MSTORE PUSH2 0x3BE DUP2 PUSH2 0x320 JUMP JUMPDEST SWAP1 POP SWAP2 SWAP1 POP JUMP JUMPDEST PUSH1 0x0 PUSH1 0x20 DUP3 ADD SWAP1 POP PUSH2 0x3DA PUSH1 0x0 DUP4 ADD DUP5 PUSH2 0x366 JUMP JUMPDEST SWAP3 SWAP2 POP POP JUMP JUMPDEST PUSH1 0x0 DUP2 SWAP1 POP SWAP3 SWAP2 POP POP JUMP JUMPDEST PUSH1 0x0 DUP3 DUP3 MSTORE PUSH1 0x20 DUP3 ADD SWAP1 POP SWAP3 SWAP2 POP POP JUMP JUMPDEST PUSH1 0x0 PUSH2 0x407 DUP3 PUSH2 0x40E JUMP JUMPDEST SWAP1 POP SWAP2 SWAP1 POP JUMP JUMPDEST PUSH1 0x0 PUSH20 0xFFFFFFFFFFFFFFFFFFFFFFFFFFFFFFFFFFFFFFFF DUP3 AND SWAP1 POP SWAP2 SWAP1 POP JUMP JUMPDEST PUSH1 0x0 DUP2 SWAP1 POP SWAP2 SWAP1 POP JUMP JUMPDEST PUSH32 0x5472616E73636174696F6E206973204661696C65640000000000000000000000 PUSH1 0x0 DUP3 ADD MSTORE POP JUMP JUMPDEST POP JUMP INVALID LOG2 PUSH5 0x6970667358 0x22 SLT KECCAK256 0xDF SUB 0xD5 0xA8 0x2F 0xC7 0xAC 0xB8 0xC7 0xDB PUSH6 0x2B80D9A4A3E3 0x2C 0x2A STOP SIGNEXTEND 0x2C 0xB1 ISZERO PUSH30 0x1ABE844C7E965064736F6C63430008070033000000000000000000000000 "
				},
				"gasEstimates": {
					"creation": {
						"codeDepositCost": "235600",
						"executionCost": "24542",
						"totalCost": "260142"
					},
					"external": {
						"CALL()": "infinite",
						"SEND()": "infinite",
						"TRANSFER()": "infinite",
						"checkBalance()": "405",
						"getter()": "2555"
					}
				},
				"methodIdentifiers": {
					"CALL()": "1cd48842",
					"SEND()": "1f5e1334",
					"TRANSFER()": "76420e1d",
					"checkBalance()": "c71daccb",
					"getter()": "993a04b7"
				}
			},
			"storageLayout": {
				"storage": [
					{
						"astId": 7,
						"contract": "send_eth.sol:sendETH",
						"label": "getter",
						"offset": 0,
						"slot": "0",
						"type": "t_address_payable"
					}
				],
				"types": {
					"t_address_payable": {
						"encoding": "inplace",
						"label": "address payable",
						"numberOfBytes": "20"
					}
				}
			},
			"userdoc": {
				"kind": "user",
				"methods": {},
				"version": 1
			}
		}
	}
}