{
	"localvariable.sol": {
		"localvariable": {
			"abi": [
				{
					"inputs": [],
					"stateMutability": "nonpayable",
					"type": "constructor"
				},
				{
					"inputs": [],
					"name": "boolvar",
					"outputs": [
						{
							"internalType": "bool",
							"name": "",
							"type": "bool"
						}
					],
					"stateMutability": "view",
					"type": "function"
				},
				{
					"inputs": [
						{
							"internalType": "uint256",
							"name": "_x",
							"type": "uint256"
						},
						{
							"internalType": "bool",
							"name": "_y",
							"type": "bool"
						},
						{
							"internalType": "address",
							"name": "_z",
							"type": "address"
						}
					],
					"name": "locvariable",
					"outputs": [
						{
							"internalType": "uint256",
							"name": "",
							"type": "uint256"
						},
						{
							"internalType": "bool",
							"name": "",
							"type": "bool"
						},
						{
							"internalType": "address",
							"name": "",
							"type": "address"
						}
					],
					"stateMutability": "nonpayable",
					"type": "function"
				},
				{
					"inputs": [],
					"name": "statevarable",
					"outputs": [
						{
							"internalType": "uint256",
							"name": "",
							"type": "uint256"
						}
					],
					"stateMutability": "view",
					"type": "function"
				}
			],
			"devdoc": {
				"kind": "dev",
				"methods": {},
				"version": 1
			},
			"evm": {
				"assembly": "    /* \"localvariable.sol\":63:486  contract localvariable{... */\n  mstore(0x40, 0x80)\n    /* \"localvariable.sol\":144:149  false */\n  0x00\n    /* \"localvariable.sol\":122:149  bool public boolvar = false */\n  0x01\n  exp(0x0100, 0x00)\n  dup2\n  sload\n  dup2\n  0xff\n  mul\n  not\n  and\n  swap1\n  dup4\n  iszero\n  iszero\n  mul\n  or\n  swap1\n  sstore\n  pop\n    /* \"localvariable.sol\":161:209  constructor(){... */\n  callvalue\n  dup1\n  iszero\n  tag_1\n  jumpi\n  0x00\n  dup1\n  revert\ntag_1:\n  pop\n    /* \"localvariable.sol\":199:202  100 */\n  0x64\n    /* \"localvariable.sol\":184:196  statevarable */\n  0x00\n    /* \"localvariable.sol\":184:202  statevarable = 100 */\n  dup2\n  swap1\n  sstore\n  pop\n    /* \"localvariable.sol\":63:486  contract localvariable{... */\n  dataSize(sub_0)\n  dup1\n  dataOffset(sub_0)\n  0x00\n  codecopy\n  0x00\n  return\nstop\n\nsub_0: assembly {\n        /* \"localvariable.sol\":63:486  contract localvariable{... */\n      mstore(0x40, 0x80)\n      callvalue\n      dup1\n      iszero\n      tag_1\n      jumpi\n      0x00\n      dup1\n      revert\n    tag_1:\n      pop\n      jumpi(tag_2, lt(calldatasize, 0x04))\n      shr(0xe0, calldataload(0x00))\n      dup1\n      0x1abd155f\n      eq\n      tag_3\n      jumpi\n      dup1\n      0x8a3b12ae\n      eq\n      tag_4\n      jumpi\n      dup1\n      0xb75f17c5\n      eq\n      tag_5\n      jumpi\n    tag_2:\n      0x00\n      dup1\n      revert\n        /* \"localvariable.sol\":219:482  function locvariable(uint _x, bool _y, address _z) public returns(uint, bool, address) {... */\n    tag_3:\n      tag_6\n      0x04\n      dup1\n      calldatasize\n      sub\n      dup2\n      add\n      swap1\n      tag_7\n      swap2\n      swap1\n      tag_8\n      jump\t// in\n    tag_7:\n      tag_9\n      jump\t// in\n    tag_6:\n      mload(0x40)\n      tag_10\n      swap4\n      swap3\n      swap2\n      swap1\n      tag_11\n      jump\t// in\n    tag_10:\n      mload(0x40)\n      dup1\n      swap2\n      sub\n      swap1\n      return\n        /* \"localvariable.sol\":92:116  uint public statevarable */\n    tag_4:\n      tag_12\n      tag_13\n      jump\t// in\n    tag_12:\n      mload(0x40)\n      tag_14\n      swap2\n      swap1\n      tag_15\n      jump\t// in\n    tag_14:\n      mload(0x40)\n      dup1\n      swap2\n      sub\n      swap1\n      return\n        /* \"localvariable.sol\":122:149  bool public boolvar = false */\n    tag_5:\n      tag_16\n      tag_17\n      jump\t// in\n    tag_16:\n      mload(0x40)\n      tag_18\n      swap2\n      swap1\n      tag_19\n      jump\t// in\n    tag_18:\n      mload(0x40)\n      dup1\n      swap2\n      sub\n      swap1\n      return\n        /* \"localvariable.sol\":219:482  function locvariable(uint _x, bool _y, address _z) public returns(uint, bool, address) {... */\n    tag_9:\n        /* \"localvariable.sol\":285:289  uint */\n      0x00\n        /* \"localvariable.sol\":291:295  bool */\n      dup1\n        /* \"localvariable.sol\":297:304  address */\n      0x00\n        /* \"localvariable.sol\":317:323  uint a */\n      dup1\n        /* \"localvariable.sol\":331:333  _x */\n      dup7\n        /* \"localvariable.sol\":326:328  22 */\n      0x16\n        /* \"localvariable.sol\":326:333  22 + _x */\n      tag_21\n      swap2\n      swap1\n      tag_22\n      jump\t// in\n    tag_21:\n        /* \"localvariable.sol\":317:333  uint a = 22 + _x */\n      swap1\n      pop\n        /* \"localvariable.sol\":343:352  bool var1 */\n      0x00\n        /* \"localvariable.sol\":355:359  true */\n      0x01\n        /* \"localvariable.sol\":343:359  bool var1 = true */\n      swap1\n      pop\n        /* \"localvariable.sol\":369:389  address accesaddress */\n      0x00\n        /* \"localvariable.sol\":410:412  _y */\n      dup8\n        /* \"localvariable.sol\":400:407  boolvar */\n      0x01\n      0x00\n        /* \"localvariable.sol\":400:412  boolvar = _y */\n      0x0100\n      exp\n      dup2\n      sload\n      dup2\n      0xff\n      mul\n      not\n      and\n      swap1\n      dup4\n      iszero\n      iszero\n      mul\n      or\n      swap1\n      sstore\n      pop\n        /* \"localvariable.sol\":422:431  address z */\n      0x00\n        /* \"localvariable.sol\":434:436  _z */\n      dup8\n        /* \"localvariable.sol\":422:436  address z = _z */\n      swap1\n      pop\n        /* \"localvariable.sol\":453:454  a */\n      dup4\n        /* \"localvariable.sol\":456:460  var1 */\n      dup4\n        /* \"localvariable.sol\":462:474  accesaddress */\n      dup4\n        /* \"localvariable.sol\":446:475  return(a, var1, accesaddress) */\n      swap7\n      pop\n      swap7\n      pop\n      swap7\n      pop\n      pop\n      pop\n      pop\n      pop\n        /* \"localvariable.sol\":219:482  function locvariable(uint _x, bool _y, address _z) public returns(uint, bool, address) {... */\n      swap4\n      pop\n      swap4\n      pop\n      swap4\n      swap1\n      pop\n      jump\t// out\n        /* \"localvariable.sol\":92:116  uint public statevarable */\n    tag_13:\n      sload(0x00)\n      dup2\n      jump\t// out\n        /* \"localvariable.sol\":122:149  bool public boolvar = false */\n    tag_17:\n      0x01\n      0x00\n      swap1\n      sload\n      swap1\n      0x0100\n      exp\n      swap1\n      div\n      0xff\n      and\n      dup2\n      jump\t// out\n        /* \"#utility.yul\":7:146   */\n    tag_24:\n        /* \"#utility.yul\":53:58   */\n      0x00\n        /* \"#utility.yul\":91:97   */\n      dup2\n        /* \"#utility.yul\":78:98   */\n      calldataload\n        /* \"#utility.yul\":69:98   */\n      swap1\n      pop\n        /* \"#utility.yul\":107:140   */\n      tag_26\n        /* \"#utility.yul\":134:139   */\n      dup2\n        /* \"#utility.yul\":107:140   */\n      tag_27\n      jump\t// in\n    tag_26:\n        /* \"#utility.yul\":7:146   */\n      swap3\n      swap2\n      pop\n      pop\n      jump\t// out\n        /* \"#utility.yul\":152:285   */\n    tag_28:\n        /* \"#utility.yul\":195:200   */\n      0x00\n        /* \"#utility.yul\":233:239   */\n      dup2\n        /* \"#utility.yul\":220:240   */\n      calldataload\n        /* \"#utility.yul\":211:240   */\n      swap1\n      pop\n        /* \"#utility.yul\":249:279   */\n      tag_30\n        /* \"#utility.yul\":273:278   */\n      dup2\n        /* \"#utility.yul\":249:279   */\n      tag_31\n      jump\t// in\n    tag_30:\n        /* \"#utility.yul\":152:285   */\n      swap3\n      swap2\n      pop\n      pop\n      jump\t// out\n        /* \"#utility.yul\":291:430   */\n    tag_32:\n        /* \"#utility.yul\":337:342   */\n      0x00\n        /* \"#utility.yul\":375:381   */\n      dup2\n        /* \"#utility.yul\":362:382   */\n      calldataload\n        /* \"#utility.yul\":353:382   */\n      swap1\n      pop\n        /* \"#utility.yul\":391:424   */\n      tag_34\n        /* \"#utility.yul\":418:423   */\n      dup2\n        /* \"#utility.yul\":391:424   */\n      tag_35\n      jump\t// in\n    tag_34:\n        /* \"#utility.yul\":291:430   */\n      swap3\n      swap2\n      pop\n      pop\n      jump\t// out\n        /* \"#utility.yul\":436:1049   */\n    tag_8:\n        /* \"#utility.yul\":510:516   */\n      0x00\n        /* \"#utility.yul\":518:524   */\n      dup1\n        /* \"#utility.yul\":526:532   */\n      0x00\n        /* \"#utility.yul\":575:577   */\n      0x60\n        /* \"#utility.yul\":563:572   */\n      dup5\n        /* \"#utility.yul\":554:561   */\n      dup7\n        /* \"#utility.yul\":550:573   */\n      sub\n        /* \"#utility.yul\":546:578   */\n      slt\n        /* \"#utility.yul\":543:662   */\n      iszero\n      tag_37\n      jumpi\n        /* \"#utility.yul\":581:660   */\n      tag_38\n      tag_39\n      jump\t// in\n    tag_38:\n        /* \"#utility.yul\":543:662   */\n    tag_37:\n        /* \"#utility.yul\":701:702   */\n      0x00\n        /* \"#utility.yul\":726:779   */\n      tag_40\n        /* \"#utility.yul\":771:778   */\n      dup7\n        /* \"#utility.yul\":762:768   */\n      dup3\n        /* \"#utility.yul\":751:760   */\n      dup8\n        /* \"#utility.yul\":747:769   */\n      add\n        /* \"#utility.yul\":726:779   */\n      tag_32\n      jump\t// in\n    tag_40:\n        /* \"#utility.yul\":716:779   */\n      swap4\n      pop\n        /* \"#utility.yul\":672:789   */\n      pop\n        /* \"#utility.yul\":828:830   */\n      0x20\n        /* \"#utility.yul\":854:904   */\n      tag_41\n        /* \"#utility.yul\":896:903   */\n      dup7\n        /* \"#utility.yul\":887:893   */\n      dup3\n        /* \"#utility.yul\":876:885   */\n      dup8\n        /* \"#utility.yul\":872:894   */\n      add\n        /* \"#utility.yul\":854:904   */\n      tag_28\n      jump\t// in\n    tag_41:\n        /* \"#utility.yul\":844:904   */\n      swap3\n      pop\n        /* \"#utility.yul\":799:914   */\n      pop\n        /* \"#utility.yul\":953:955   */\n      0x40\n        /* \"#utility.yul\":979:1032   */\n      tag_42\n        /* \"#utility.yul\":1024:1031   */\n      dup7\n        /* \"#utility.yul\":1015:1021   */\n      dup3\n        /* \"#utility.yul\":1004:1013   */\n      dup8\n        /* \"#utility.yul\":1000:1022   */\n      add\n        /* \"#utility.yul\":979:1032   */\n      tag_24\n      jump\t// in\n    tag_42:\n        /* \"#utility.yul\":969:1032   */\n      swap2\n      pop\n        /* \"#utility.yul\":924:1042   */\n      pop\n        /* \"#utility.yul\":436:1049   */\n      swap3\n      pop\n      swap3\n      pop\n      swap3\n      jump\t// out\n        /* \"#utility.yul\":1055:1173   */\n    tag_43:\n        /* \"#utility.yul\":1142:1166   */\n      tag_45\n        /* \"#utility.yul\":1160:1165   */\n      dup2\n        /* \"#utility.yul\":1142:1166   */\n      tag_46\n      jump\t// in\n    tag_45:\n        /* \"#utility.yul\":1137:1140   */\n      dup3\n        /* \"#utility.yul\":1130:1167   */\n      mstore\n        /* \"#utility.yul\":1055:1173   */\n      pop\n      pop\n      jump\t// out\n        /* \"#utility.yul\":1179:1288   */\n    tag_47:\n        /* \"#utility.yul\":1260:1281   */\n      tag_49\n        /* \"#utility.yul\":1275:1280   */\n      dup2\n        /* \"#utility.yul\":1260:1281   */\n      tag_50\n      jump\t// in\n    tag_49:\n        /* \"#utility.yul\":1255:1258   */\n      dup3\n        /* \"#utility.yul\":1248:1282   */\n      mstore\n        /* \"#utility.yul\":1179:1288   */\n      pop\n      pop\n      jump\t// out\n        /* \"#utility.yul\":1294:1412   */\n    tag_51:\n        /* \"#utility.yul\":1381:1405   */\n      tag_53\n        /* \"#utility.yul\":1399:1404   */\n      dup2\n        /* \"#utility.yul\":1381:1405   */\n      tag_54\n      jump\t// in\n    tag_53:\n        /* \"#utility.yul\":1376:1379   */\n      dup3\n        /* \"#utility.yul\":1369:1406   */\n      mstore\n        /* \"#utility.yul\":1294:1412   */\n      pop\n      pop\n      jump\t// out\n        /* \"#utility.yul\":1418:1628   */\n    tag_19:\n        /* \"#utility.yul\":1505:1509   */\n      0x00\n        /* \"#utility.yul\":1543:1545   */\n      0x20\n        /* \"#utility.yul\":1532:1541   */\n      dup3\n        /* \"#utility.yul\":1528:1546   */\n      add\n        /* \"#utility.yul\":1520:1546   */\n      swap1\n      pop\n        /* \"#utility.yul\":1556:1621   */\n      tag_56\n        /* \"#utility.yul\":1618:1619   */\n      0x00\n        /* \"#utility.yul\":1607:1616   */\n      dup4\n        /* \"#utility.yul\":1603:1620   */\n      add\n        /* \"#utility.yul\":1594:1600   */\n      dup5\n        /* \"#utility.yul\":1556:1621   */\n      tag_47\n      jump\t// in\n    tag_56:\n        /* \"#utility.yul\":1418:1628   */\n      swap3\n      swap2\n      pop\n      pop\n      jump\t// out\n        /* \"#utility.yul\":1634:1856   */\n    tag_15:\n        /* \"#utility.yul\":1727:1731   */\n      0x00\n        /* \"#utility.yul\":1765:1767   */\n      0x20\n        /* \"#utility.yul\":1754:1763   */\n      dup3\n        /* \"#utility.yul\":1750:1768   */\n      add\n        /* \"#utility.yul\":1742:1768   */\n      swap1\n      pop\n        /* \"#utility.yul\":1778:1849   */\n      tag_58\n        /* \"#utility.yul\":1846:1847   */\n      0x00\n        /* \"#utility.yul\":1835:1844   */\n      dup4\n        /* \"#utility.yul\":1831:1848   */\n      add\n        /* \"#utility.yul\":1822:1828   */\n      dup5\n        /* \"#utility.yul\":1778:1849   */\n      tag_51\n      jump\t// in\n    tag_58:\n        /* \"#utility.yul\":1634:1856   */\n      swap3\n      swap2\n      pop\n      pop\n      jump\t// out\n        /* \"#utility.yul\":1862:2292   */\n    tag_11:\n        /* \"#utility.yul\":2005:2009   */\n      0x00\n        /* \"#utility.yul\":2043:2045   */\n      0x60\n        /* \"#utility.yul\":2032:2041   */\n      dup3\n        /* \"#utility.yul\":2028:2046   */\n      add\n        /* \"#utility.yul\":2020:2046   */\n      swap1\n      pop\n        /* \"#utility.yul\":2056:2127   */\n      tag_60\n        /* \"#utility.yul\":2124:2125   */\n      0x00\n        /* \"#utility.yul\":2113:2122   */\n      dup4\n        /* \"#utility.yul\":2109:2126   */\n      add\n        /* \"#utility.yul\":2100:2106   */\n      dup7\n        /* \"#utility.yul\":2056:2127   */\n      tag_51\n      jump\t// in\n    tag_60:\n        /* \"#utility.yul\":2137:2203   */\n      tag_61\n        /* \"#utility.yul\":2199:2201   */\n      0x20\n        /* \"#utility.yul\":2188:2197   */\n      dup4\n        /* \"#utility.yul\":2184:2202   */\n      add\n        /* \"#utility.yul\":2175:2181   */\n      dup6\n        /* \"#utility.yul\":2137:2203   */\n      tag_47\n      jump\t// in\n    tag_61:\n        /* \"#utility.yul\":2213:2285   */\n      tag_62\n        /* \"#utility.yul\":2281:2283   */\n      0x40\n        /* \"#utility.yul\":2270:2279   */\n      dup4\n        /* \"#utility.yul\":2266:2284   */\n      add\n        /* \"#utility.yul\":2257:2263   */\n      dup5\n        /* \"#utility.yul\":2213:2285   */\n      tag_43\n      jump\t// in\n    tag_62:\n        /* \"#utility.yul\":1862:2292   */\n      swap5\n      swap4\n      pop\n      pop\n      pop\n      pop\n      jump\t// out\n        /* \"#utility.yul\":2379:2684   */\n    tag_22:\n        /* \"#utility.yul\":2419:2422   */\n      0x00\n        /* \"#utility.yul\":2438:2458   */\n      tag_66\n        /* \"#utility.yul\":2456:2457   */\n      dup3\n        /* \"#utility.yul\":2438:2458   */\n      tag_54\n      jump\t// in\n    tag_66:\n        /* \"#utility.yul\":2433:2458   */\n      swap2\n      pop\n        /* \"#utility.yul\":2472:2492   */\n      tag_67\n        /* \"#utility.yul\":2490:2491   */\n      dup4\n        /* \"#utility.yul\":2472:2492   */\n      tag_54\n      jump\t// in\n    tag_67:\n        /* \"#utility.yul\":2467:2492   */\n      swap3\n      pop\n        /* \"#utility.yul\":2626:2627   */\n      dup3\n        /* \"#utility.yul\":2558:2624   */\n      0xffffffffffffffffffffffffffffffffffffffffffffffffffffffffffffffff\n        /* \"#utility.yul\":2554:2628   */\n      sub\n        /* \"#utility.yul\":2551:2552   */\n      dup3\n        /* \"#utility.yul\":2548:2629   */\n      gt\n        /* \"#utility.yul\":2545:2652   */\n      iszero\n      tag_68\n      jumpi\n        /* \"#utility.yul\":2632:2650   */\n      tag_69\n      tag_70\n      jump\t// in\n    tag_69:\n        /* \"#utility.yul\":2545:2652   */\n    tag_68:\n        /* \"#utility.yul\":2676:2677   */\n      dup3\n        /* \"#utility.yul\":2673:2674   */\n      dup3\n        /* \"#utility.yul\":2669:2678   */\n      add\n        /* \"#utility.yul\":2662:2678   */\n      swap1\n      pop\n        /* \"#utility.yul\":2379:2684   */\n      swap3\n      swap2\n      pop\n      pop\n      jump\t// out\n        /* \"#utility.yul\":2690:2786   */\n    tag_46:\n        /* \"#utility.yul\":2727:2734   */\n      0x00\n        /* \"#utility.yul\":2756:2780   */\n      tag_72\n        /* \"#utility.yul\":2774:2779   */\n      dup3\n        /* \"#utility.yul\":2756:2780   */\n      tag_73\n      jump\t// in\n    tag_72:\n        /* \"#utility.yul\":2745:2780   */\n      swap1\n      pop\n        /* \"#utility.yul\":2690:2786   */\n      swap2\n      swap1\n      pop\n      jump\t// out\n        /* \"#utility.yul\":2792:2882   */\n    tag_50:\n        /* \"#utility.yul\":2826:2833   */\n      0x00\n        /* \"#utility.yul\":2869:2874   */\n      dup2\n        /* \"#utility.yul\":2862:2875   */\n      iszero\n        /* \"#utility.yul\":2855:2876   */\n      iszero\n        /* \"#utility.yul\":2844:2876   */\n      swap1\n      pop\n        /* \"#utility.yul\":2792:2882   */\n      swap2\n      swap1\n      pop\n      jump\t// out\n        /* \"#utility.yul\":2888:3014   */\n    tag_73:\n        /* \"#utility.yul\":2925:2932   */\n      0x00\n        /* \"#utility.yul\":2965:3007   */\n      0xffffffffffffffffffffffffffffffffffffffff\n        /* \"#utility.yul\":2958:2963   */\n      dup3\n        /* \"#utility.yul\":2954:3008   */\n      and\n        /* \"#utility.yul\":2943:3008   */\n      swap1\n      pop\n        /* \"#utility.yul\":2888:3014   */\n      swap2\n      swap1\n      pop\n      jump\t// out\n        /* \"#utility.yul\":3020:3097   */\n    tag_54:\n        /* \"#utility.yul\":3057:3064   */\n      0x00\n        /* \"#utility.yul\":3086:3091   */\n      dup2\n        /* \"#utility.yul\":3075:3091   */\n      swap1\n      pop\n        /* \"#utility.yul\":3020:3097   */\n      swap2\n      swap1\n      pop\n      jump\t// out\n        /* \"#utility.yul\":3103:3283   */\n    tag_70:\n        /* \"#utility.yul\":3151:3228   */\n      0x4e487b7100000000000000000000000000000000000000000000000000000000\n        /* \"#utility.yul\":3148:3149   */\n      0x00\n        /* \"#utility.yul\":3141:3229   */\n      mstore\n        /* \"#utility.yul\":3248:3252   */\n      0x11\n        /* \"#utility.yul\":3245:3246   */\n      0x04\n        /* \"#utility.yul\":3238:3253   */\n      mstore\n        /* \"#utility.yul\":3272:3276   */\n      0x24\n        /* \"#utility.yul\":3269:3270   */\n      0x00\n        /* \"#utility.yul\":3262:3277   */\n      revert\n        /* \"#utility.yul\":3412:3529   */\n    tag_39:\n        /* \"#utility.yul\":3521:3522   */\n      0x00\n        /* \"#utility.yul\":3518:3519   */\n      dup1\n        /* \"#utility.yul\":3511:3523   */\n      revert\n        /* \"#utility.yul\":3535:3657   */\n    tag_27:\n        /* \"#utility.yul\":3608:3632   */\n      tag_82\n        /* \"#utility.yul\":3626:3631   */\n      dup2\n        /* \"#utility.yul\":3608:3632   */\n      tag_46\n      jump\t// in\n    tag_82:\n        /* \"#utility.yul\":3601:3606   */\n      dup2\n        /* \"#utility.yul\":3598:3633   */\n      eq\n        /* \"#utility.yul\":3588:3651   */\n      tag_83\n      jumpi\n        /* \"#utility.yul\":3647:3648   */\n      0x00\n        /* \"#utility.yul\":3644:3645   */\n      dup1\n        /* \"#utility.yul\":3637:3649   */\n      revert\n        /* \"#utility.yul\":3588:3651   */\n    tag_83:\n        /* \"#utility.yul\":3535:3657   */\n      pop\n      jump\t// out\n        /* \"#utility.yul\":3663:3779   */\n    tag_31:\n        /* \"#utility.yul\":3733:3754   */\n      tag_85\n        /* \"#utility.yul\":3748:3753   */\n      dup2\n        /* \"#utility.yul\":3733:3754   */\n      tag_50\n      jump\t// in\n    tag_85:\n        /* \"#utility.yul\":3726:3731   */\n      dup2\n        /* \"#utility.yul\":3723:3755   */\n      eq\n        /* \"#utility.yul\":3713:3773   */\n      tag_86\n      jumpi\n        /* \"#utility.yul\":3769:3770   */\n      0x00\n        /* \"#utility.yul\":3766:3767   */\n      dup1\n        /* \"#utility.yul\":3759:3771   */\n      revert\n        /* \"#utility.yul\":3713:3773   */\n    tag_86:\n        /* \"#utility.yul\":3663:3779   */\n      pop\n      jump\t// out\n        /* \"#utility.yul\":3785:3907   */\n    tag_35:\n        /* \"#utility.yul\":3858:3882   */\n      tag_88\n        /* \"#utility.yul\":3876:3881   */\n      dup2\n        /* \"#utility.yul\":3858:3882   */\n      tag_54\n      jump\t// in\n    tag_88:\n        /* \"#utility.yul\":3851:3856   */\n      dup2\n        /* \"#utility.yul\":3848:3883   */\n      eq\n        /* \"#utility.yul\":3838:3901   */\n      tag_89\n      jumpi\n        /* \"#utility.yul\":3897:3898   */\n      0x00\n        /* \"#utility.yul\":3894:3895   */\n      dup1\n        /* \"#utility.yul\":3887:3899   */\n      revert\n        /* \"#utility.yul\":3838:3901   */\n    tag_89:\n        /* \"#utility.yul\":3785:3907   */\n      pop\n      jump\t// out\n\n    auxdata: 0xa2646970667358221220d1484adc73b144c651a9f11fbb167010fabb4c091e6ecd038781d4b9ac6d2f4764736f6c63430008070033\n}\n",
				"bytecode": {
					"linkReferences": {},
					"object": "60806040526000600160006101000a81548160ff02191690831515021790555034801561002b57600080fd5b506064600081905550610398806100436000396000f3fe608060405234801561001057600080fd5b50600436106100415760003560e01c80631abd155f146100465780638a3b12ae14610078578063b75f17c514610096575b600080fd5b610060600480360381019061005b919061015e565b6100b4565b60405161006f93929190610214565b60405180910390f35b610080610106565b60405161008d91906101f9565b60405180910390f35b61009e61010c565b6040516100ab91906101de565b60405180910390f35b6000806000808660166100c7919061024b565b9050600060019050600087600160006101000a81548160ff02191690831515021790555060008790508383839650965096505050505093509350939050565b60005481565b600160009054906101000a900460ff1681565b60008135905061012e8161031d565b92915050565b60008135905061014381610334565b92915050565b6000813590506101588161034b565b92915050565b60008060006060848603121561017757610176610318565b5b600061018586828701610149565b935050602061019686828701610134565b92505060406101a78682870161011f565b9150509250925092565b6101ba816102a1565b82525050565b6101c9816102b3565b82525050565b6101d8816102df565b82525050565b60006020820190506101f360008301846101c0565b92915050565b600060208201905061020e60008301846101cf565b92915050565b600060608201905061022960008301866101cf565b61023660208301856101c0565b61024360408301846101b1565b949350505050565b6000610256826102df565b9150610261836102df565b9250827fffffffffffffffffffffffffffffffffffffffffffffffffffffffffffffffff03821115610296576102956102e9565b5b828201905092915050565b60006102ac826102bf565b9050919050565b60008115159050919050565b600073ffffffffffffffffffffffffffffffffffffffff82169050919050565b6000819050919050565b7f4e487b7100000000000000000000000000000000000000000000000000000000600052601160045260246000fd5b600080fd5b610326816102a1565b811461033157600080fd5b50565b61033d816102b3565b811461034857600080fd5b50565b610354816102df565b811461035f57600080fd5b5056fea2646970667358221220d1484adc73b144c651a9f11fbb167010fabb4c091e6ecd038781d4b9ac6d2f4764736f6c63430008070033",
					"opcodes": "PUSH1 0x80 PUSH1 0x40 MSTORE PUSH1 0x0 PUSH1 0x1 PUSH1 0x0 PUSH2 0x100 EXP DUP2 SLOAD DUP2 PUSH1 0xFF MUL NOT AND SWAP1 DUP4 ISZERO ISZERO MUL OR SWAP1 SSTORE POP CALLVALUE DUP1 ISZERO PUSH2 0x2B JUMPI PUSH1 0x0 DUP1 REVERT JUMPDEST POP PUSH1 0x64 PUSH1 0x0 DUP2 SWAP1 SSTORE POP PUSH2 0x398 DUP1 PUSH2 0x43 PUSH1 0x0 CODECOPY PUSH1 0x0 RETURN INVALID PUSH1 0x80 PUSH1 0x40 MSTORE CALLVALUE DUP1 ISZERO PUSH2 0x10 JUMPI PUSH1 0x0 DUP1 REVERT JUMPDEST POP PUSH1 0x4 CALLDATASIZE LT PUSH2 0x41 JUMPI PUSH1 0x0 CALLDATALOAD PUSH1 0xE0 SHR DUP1 PUSH4 0x1ABD155F EQ PUSH2 0x46 JUMPI DUP1 PUSH4 0x8A3B12AE EQ PUSH2 0x78 JUMPI DUP1 PUSH4 0xB75F17C5 EQ PUSH2 0x96 JUMPI JUMPDEST PUSH1 0x0 DUP1 REVERT JUMPDEST PUSH2 0x60 PUSH1 0x4 DUP1 CALLDATASIZE SUB DUP2 ADD SWAP1 PUSH2 0x5B SWAP2 SWAP1 PUSH2 0x15E JUMP JUMPDEST PUSH2 0xB4 JUMP JUMPDEST PUSH1 0x40 MLOAD PUSH2 0x6F SWAP4 SWAP3 SWAP2 SWAP1 PUSH2 0x214 JUMP JUMPDEST PUSH1 0x40 MLOAD DUP1 SWAP2 SUB SWAP1 RETURN JUMPDEST PUSH2 0x80 PUSH2 0x106 JUMP JUMPDEST PUSH1 0x40 MLOAD PUSH2 0x8D SWAP2 SWAP1 PUSH2 0x1F9 JUMP JUMPDEST PUSH1 0x40 MLOAD DUP1 SWAP2 SUB SWAP1 RETURN JUMPDEST PUSH2 0x9E PUSH2 0x10C JUMP JUMPDEST PUSH1 0x40 MLOAD PUSH2 0xAB SWAP2 SWAP1 PUSH2 0x1DE JUMP JUMPDEST PUSH1 0x40 MLOAD DUP1 SWAP2 SUB SWAP1 RETURN JUMPDEST PUSH1 0x0 DUP1 PUSH1 0x0 DUP1 DUP7 PUSH1 0x16 PUSH2 0xC7 SWAP2 SWAP1 PUSH2 0x24B JUMP JUMPDEST SWAP1 POP PUSH1 0x0 PUSH1 0x1 SWAP1 POP PUSH1 0x0 DUP8 PUSH1 0x1 PUSH1 0x0 PUSH2 0x100 EXP DUP2 SLOAD DUP2 PUSH1 0xFF MUL NOT AND SWAP1 DUP4 ISZERO ISZERO MUL OR SWAP1 SSTORE POP PUSH1 0x0 DUP8 SWAP1 POP DUP4 DUP4 DUP4 SWAP7 POP SWAP7 POP SWAP7 POP POP POP POP POP SWAP4 POP SWAP4 POP SWAP4 SWAP1 POP JUMP JUMPDEST PUSH1 0x0 SLOAD DUP2 JUMP JUMPDEST PUSH1 0x1 PUSH1 0x0 SWAP1 SLOAD SWAP1 PUSH2 0x100 EXP SWAP1 DIV PUSH1 0xFF AND DUP2 JUMP JUMPDEST PUSH1 0x0 DUP2 CALLDATALOAD SWAP1 POP PUSH2 0x12E DUP2 PUSH2 0x31D JUMP JUMPDEST SWAP3 SWAP2 POP POP JUMP JUMPDEST PUSH1 0x0 DUP2 CALLDATALOAD SWAP1 POP PUSH2 0x143 DUP2 PUSH2 0x334 JUMP JUMPDEST SWAP3 SWAP2 POP POP JUMP JUMPDEST PUSH1 0x0 DUP2 CALLDATALOAD SWAP1 POP PUSH2 0x158 DUP2 PUSH2 0x34B JUMP JUMPDEST SWAP3 SWAP2 POP POP JUMP JUMPDEST PUSH1 0x0 DUP1 PUSH1 0x0 PUSH1 0x60 DUP5 DUP7 SUB SLT ISZERO PUSH2 0x177 JUMPI PUSH2 0x176 PUSH2 0x318 JUMP JUMPDEST JUMPDEST PUSH1 0x0 PUSH2 0x185 DUP7 DUP3 DUP8 ADD PUSH2 0x149 JUMP JUMPDEST SWAP4 POP POP PUSH1 0x20 PUSH2 0x196 DUP7 DUP3 DUP8 ADD PUSH2 0x134 JUMP JUMPDEST SWAP3 POP POP PUSH1 0x40 PUSH2 0x1A7 DUP7 DUP3 DUP8 ADD PUSH2 0x11F JUMP JUMPDEST SWAP2 POP POP SWAP3 POP SWAP3 POP SWAP3 JUMP JUMPDEST PUSH2 0x1BA DUP2 PUSH2 0x2A1 JUMP JUMPDEST DUP3 MSTORE POP POP JUMP JUMPDEST PUSH2 0x1C9 DUP2 PUSH2 0x2B3 JUMP JUMPDEST DUP3 MSTORE POP POP JUMP JUMPDEST PUSH2 0x1D8 DUP2 PUSH2 0x2DF JUMP JUMPDEST DUP3 MSTORE POP POP JUMP JUMPDEST PUSH1 0x0 PUSH1 0x20 DUP3 ADD SWAP1 POP PUSH2 0x1F3 PUSH1 0x0 DUP4 ADD DUP5 PUSH2 0x1C0 JUMP JUMPDEST SWAP3 SWAP2 POP POP JUMP JUMPDEST PUSH1 0x0 PUSH1 0x20 DUP3 ADD SWAP1 POP PUSH2 0x20E PUSH1 0x0 DUP4 ADD DUP5 PUSH2 0x1CF JUMP JUMPDEST SWAP3 SWAP2 POP POP JUMP JUMPDEST PUSH1 0x0 PUSH1 0x60 DUP3 ADD SWAP1 POP PUSH2 0x229 PUSH1 0x0 DUP4 ADD DUP7 PUSH2 0x1CF JUMP JUMPDEST PUSH2 0x236 PUSH1 0x20 DUP4 ADD DUP6 PUSH2 0x1C0 JUMP JUMPDEST PUSH2 0x243 PUSH1 0x40 DUP4 ADD DUP5 PUSH2 0x1B1 JUMP JUMPDEST SWAP5 SWAP4 POP POP POP POP JUMP JUMPDEST PUSH1 0x0 PUSH2 0x256 DUP3 PUSH2 0x2DF JUMP JUMPDEST SWAP2 POP PUSH2 0x261 DUP4 PUSH2 0x2DF JUMP JUMPDEST SWAP3 POP DUP3 PUSH32 0xFFFFFFFFFFFFFFFFFFFFFFFFFFFFFFFFFFFFFFFFFFFFFFFFFFFFFFFFFFFFFFFF SUB DUP3 GT ISZERO PUSH2 0x296 JUMPI PUSH2 0x295 PUSH2 0x2E9 JUMP JUMPDEST JUMPDEST DUP3 DUP3 ADD SWAP1 POP SWAP3 SWAP2 POP POP JUMP JUMPDEST PUSH1 0x0 PUSH2 0x2AC DUP3 PUSH2 0x2BF JUMP JUMPDEST SWAP1 POP SWAP2 SWAP1 POP JUMP JUMPDEST PUSH1 0x0 DUP2 ISZERO ISZERO SWAP1 POP SWAP2 SWAP1 POP JUMP JUMPDEST PUSH1 0x0 PUSH20 0xFFFFFFFFFFFFFFFFFFFFFFFFFFFFFFFFFFFFFFFF DUP3 AND SWAP1 POP SWAP2 SWAP1 POP JUMP JUMPDEST PUSH1 0x0 DUP2 SWAP1 POP SWAP2 SWAP1 POP JUMP JUMPDEST PUSH32 0x4E487B7100000000000000000000000000000000000000000000000000000000 PUSH1 0x0 MSTORE PUSH1 0x11 PUSH1 0x4 MSTORE PUSH1 0x24 PUSH1 0x0 REVERT JUMPDEST PUSH1 0x0 DUP1 REVERT JUMPDEST PUSH2 0x326 DUP2 PUSH2 0x2A1 JUMP JUMPDEST DUP2 EQ PUSH2 0x331 JUMPI PUSH1 0x0 DUP1 REVERT JUMPDEST POP JUMP JUMPDEST PUSH2 0x33D DUP2 PUSH2 0x2B3 JUMP JUMPDEST DUP2 EQ PUSH2 0x348 JUMPI PUSH1 0x0 DUP1 REVERT JUMPDEST POP JUMP JUMPDEST PUSH2 0x354 DUP2 PUSH2 0x2DF JUMP JUMPDEST DUP2 EQ PUSH2 0x35F JUMPI PUSH1 0x0 DUP1 REVERT JUMPDEST POP JUMP INVALID LOG2 PUSH5 0x6970667358 0x22 SLT KECCAK256 0xD1 BASEFEE 0x4A 0xDC PUSH20 0xB144C651A9F11FBB167010FABB4C091E6ECD0387 DUP2 0xD4 0xB9 0xAC PUSH14 0x2F4764736F6C6343000807003300 "
				},
				"gasEstimates": {
					"creation": {
						"codeDepositCost": "184000",
						"executionCost": "46607",
						"totalCost": "230607"
					},
					"external": {
						"boolvar()": "2493",
						"locvariable(uint256,bool,address)": "infinite",
						"statevarable()": "2429"
					}
				},
				"methodIdentifiers": {
					"boolvar()": "b75f17c5",
					"locvariable(uint256,bool,address)": "1abd155f",
					"statevarable()": "8a3b12ae"
				}
			},
			"storageLayout": {
				"storage": [
					{
						"astId": 3,
						"contract": "localvariable.sol:localvariable",
						"label": "statevarable",
						"offset": 0,
						"slot": "0",
						"type": "t_uint256"
					},
					{
						"astId": 6,
						"contract": "localvariable.sol:localvariable",
						"label": "boolvar",
						"offset": 0,
						"slot": "1",
						"type": "t_bool"
					}
				],
				"types": {
					"t_bool": {
						"encoding": "inplace",
						"label": "bool",
						"numberOfBytes": "1"
					},
					"t_uint256": {
						"encoding": "inplace",
						"label": "uint256",
						"numberOfBytes": "32"
					}
				}
			},
			"userdoc": {
				"kind": "user",
				"methods": {},
				"version": 1
			}
		}
	}
}