{
	"passingParamterInMultipleInheritance.sol": {
		"E": {
			"abi": [
				{
					"inputs": [
						{
							"internalType": "string",
							"name": "_name",
							"type": "string"
						},
						{
							"internalType": "uint256",
							"name": "_age",
							"type": "uint256"
						},
						{
							"internalType": "string",
							"name": "_add",
							"type": "string"
						},
						{
							"internalType": "uint256",
							"name": "_salary",
							"type": "uint256"
						}
					],
					"stateMutability": "nonpayable",
					"type": "constructor"
				},
				{
					"inputs": [],
					"name": "add",
					"outputs": [
						{
							"internalType": "string",
							"name": "",
							"type": "string"
						}
					],
					"stateMutability": "view",
					"type": "function"
				},
				{
					"inputs": [],
					"name": "age",
					"outputs": [
						{
							"internalType": "uint256",
							"name": "",
							"type": "uint256"
						}
					],
					"stateMutability": "view",
					"type": "function"
				},
				{
					"inputs": [],
					"name": "name",
					"outputs": [
						{
							"internalType": "string",
							"name": "",
							"type": "string"
						}
					],
					"stateMutability": "view",
					"type": "function"
				},
				{
					"inputs": [],
					"name": "salary",
					"outputs": [
						{
							"internalType": "uint256",
							"name": "",
							"type": "uint256"
						}
					],
					"stateMutability": "view",
					"type": "function"
				}
			],
			"devdoc": {
				"kind": "dev",
				"methods": {},
				"version": 1
			},
			"evm": {
				"assembly": "    /* \"passingParamterInMultipleInheritance.sol\":599:741  contract E is B,A{... */\n  mstore(0x40, 0x80)\n    /* \"passingParamterInMultipleInheritance.sol\":622:739  constructor(string memory _name, uint _age ,string memory _add, uint _salary) A(_name, _age) B(_add, _salary){... */\n  callvalue\n  dup1\n  iszero\n  tag_1\n  jumpi\n  0x00\n  dup1\n  revert\ntag_1:\n  pop\n  mload(0x40)\n  sub(codesize, bytecodeSize)\n  dup1\n  bytecodeSize\n  dup4\n  codecopy\n  dup2\n  dup2\n  add\n  0x40\n  mstore\n  dup2\n  add\n  swap1\n  tag_2\n  swap2\n  swap1\n  tag_3\n  jump\t// in\ntag_2:\n    /* \"passingParamterInMultipleInheritance.sol\":702:707  _name */\n  dup4\n    /* \"passingParamterInMultipleInheritance.sol\":709:713  _age */\n  dup4\n    /* \"passingParamterInMultipleInheritance.sol\":717:721  _add */\n  dup4\n    /* \"passingParamterInMultipleInheritance.sol\":723:730  _salary */\n  dup4\n    /* \"passingParamterInMultipleInheritance.sol\":349:353  _add */\n  dup2\n    /* \"passingParamterInMultipleInheritance.sol\":343:346  add */\n  0x00\n    /* \"passingParamterInMultipleInheritance.sol\":343:353  add = _add */\n  swap1\n  dup1\n  mload\n  swap1\n  0x20\n  add\n  swap1\n  tag_8\n  swap3\n  swap2\n  swap1\n  tag_9\n  jump\t// in\ntag_8:\n  pop\n    /* \"passingParamterInMultipleInheritance.sol\":372:379  _salary */\n  dup1\n    /* \"passingParamterInMultipleInheritance.sol\":363:369  salary */\n  0x01\n    /* \"passingParamterInMultipleInheritance.sol\":363:379  salary = _salary */\n  dup2\n  swap1\n  sstore\n  pop\n    /* \"passingParamterInMultipleInheritance.sol\":288:386  constructor(string memory _add, uint _salary){... */\n  pop\n  pop\n    /* \"passingParamterInMultipleInheritance.sol\":186:191  _name */\n  dup2\n    /* \"passingParamterInMultipleInheritance.sol\":179:183  name */\n  0x02\n    /* \"passingParamterInMultipleInheritance.sol\":179:191  name = _name */\n  swap1\n  dup1\n  mload\n  swap1\n  0x20\n  add\n  swap1\n  tag_11\n  swap3\n  swap2\n  swap1\n  tag_9\n  jump\t// in\ntag_11:\n  pop\n    /* \"passingParamterInMultipleInheritance.sol\":207:211  _age */\n  dup1\n    /* \"passingParamterInMultipleInheritance.sol\":201:204  age */\n  0x03\n    /* \"passingParamterInMultipleInheritance.sol\":201:211  age = _age */\n  dup2\n  swap1\n  sstore\n  pop\n    /* \"passingParamterInMultipleInheritance.sol\":126:218  constructor(string memory _name, uint _age){... */\n  pop\n  pop\n    /* \"passingParamterInMultipleInheritance.sol\":622:739  constructor(string memory _name, uint _age ,string memory _add, uint _salary) A(_name, _age) B(_add, _salary){... */\n  pop\n  pop\n  pop\n  pop\n    /* \"passingParamterInMultipleInheritance.sol\":599:741  contract E is B,A{... */\n  jump(tag_13)\ntag_9:\n  dup3\n  dup1\n  sload\n  tag_14\n  swap1\n  tag_15\n  jump\t// in\ntag_14:\n  swap1\n  0x00\n  mstore\n  keccak256(0x00, 0x20)\n  swap1\n  0x1f\n  add\n  0x20\n  swap1\n  div\n  dup2\n  add\n  swap3\n  dup3\n  tag_17\n  jumpi\n  0x00\n  dup6\n  sstore\n  jump(tag_16)\ntag_17:\n  dup3\n  0x1f\n  lt\n  tag_18\n  jumpi\n  dup1\n  mload\n  not(0xff)\n  and\n  dup4\n  dup1\n  add\n  or\n  dup6\n  sstore\n  jump(tag_16)\ntag_18:\n  dup3\n  dup1\n  add\n  0x01\n  add\n  dup6\n  sstore\n  dup3\n  iszero\n  tag_16\n  jumpi\n  swap2\n  dup3\n  add\ntag_19:\n  dup3\n  dup2\n  gt\n  iszero\n  tag_20\n  jumpi\n  dup3\n  mload\n  dup3\n  sstore\n  swap2\n  0x20\n  add\n  swap2\n  swap1\n  0x01\n  add\n  swap1\n  jump(tag_19)\ntag_20:\ntag_16:\n  pop\n  swap1\n  pop\n  tag_21\n  swap2\n  swap1\n  tag_22\n  jump\t// in\ntag_21:\n  pop\n  swap1\n  jump\t// out\ntag_22:\ntag_23:\n  dup1\n  dup3\n  gt\n  iszero\n  tag_24\n  jumpi\n  0x00\n  dup2\n  0x00\n  swap1\n  sstore\n  pop\n  0x01\n  add\n  jump(tag_23)\ntag_24:\n  pop\n  swap1\n  jump\t// out\n    /* \"#utility.yul\":7:428   */\ntag_26:\n    /* \"#utility.yul\":96:101   */\n  0x00\n    /* \"#utility.yul\":121:187   */\n  tag_28\n    /* \"#utility.yul\":137:186   */\n  tag_29\n    /* \"#utility.yul\":179:185   */\n  dup5\n    /* \"#utility.yul\":137:186   */\n  tag_30\n  jump\t// in\ntag_29:\n    /* \"#utility.yul\":121:187   */\n  tag_31\n  jump\t// in\ntag_28:\n    /* \"#utility.yul\":112:187   */\n  swap1\n  pop\n    /* \"#utility.yul\":210:216   */\n  dup3\n    /* \"#utility.yul\":203:208   */\n  dup2\n    /* \"#utility.yul\":196:217   */\n  mstore\n    /* \"#utility.yul\":248:252   */\n  0x20\n    /* \"#utility.yul\":241:246   */\n  dup2\n    /* \"#utility.yul\":237:253   */\n  add\n    /* \"#utility.yul\":286:289   */\n  dup5\n    /* \"#utility.yul\":277:283   */\n  dup5\n    /* \"#utility.yul\":272:275   */\n  dup5\n    /* \"#utility.yul\":268:284   */\n  add\n    /* \"#utility.yul\":265:290   */\n  gt\n    /* \"#utility.yul\":262:374   */\n  iszero\n  tag_32\n  jumpi\n    /* \"#utility.yul\":293:372   */\n  tag_33\n  tag_34\n  jump\t// in\ntag_33:\n    /* \"#utility.yul\":262:374   */\ntag_32:\n    /* \"#utility.yul\":383:422   */\n  tag_35\n    /* \"#utility.yul\":415:421   */\n  dup5\n    /* \"#utility.yul\":410:413   */\n  dup3\n    /* \"#utility.yul\":405:408   */\n  dup6\n    /* \"#utility.yul\":383:422   */\n  tag_36\n  jump\t// in\ntag_35:\n    /* \"#utility.yul\":102:428   */\n  pop\n    /* \"#utility.yul\":7:428   */\n  swap4\n  swap3\n  pop\n  pop\n  pop\n  jump\t// out\n    /* \"#utility.yul\":448:803   */\ntag_37:\n    /* \"#utility.yul\":515:520   */\n  0x00\n    /* \"#utility.yul\":564:567   */\n  dup3\n    /* \"#utility.yul\":557:561   */\n  0x1f\n    /* \"#utility.yul\":549:555   */\n  dup4\n    /* \"#utility.yul\":545:562   */\n  add\n    /* \"#utility.yul\":541:568   */\n  slt\n    /* \"#utility.yul\":531:653   */\n  tag_39\n  jumpi\n    /* \"#utility.yul\":572:651   */\n  tag_40\n  tag_41\n  jump\t// in\ntag_40:\n    /* \"#utility.yul\":531:653   */\ntag_39:\n    /* \"#utility.yul\":682:688   */\n  dup2\n    /* \"#utility.yul\":676:689   */\n  mload\n    /* \"#utility.yul\":707:797   */\n  tag_42\n    /* \"#utility.yul\":793:796   */\n  dup5\n    /* \"#utility.yul\":785:791   */\n  dup3\n    /* \"#utility.yul\":778:782   */\n  0x20\n    /* \"#utility.yul\":770:776   */\n  dup7\n    /* \"#utility.yul\":766:783   */\n  add\n    /* \"#utility.yul\":707:797   */\n  tag_26\n  jump\t// in\ntag_42:\n    /* \"#utility.yul\":698:797   */\n  swap2\n  pop\n    /* \"#utility.yul\":521:803   */\n  pop\n    /* \"#utility.yul\":448:803   */\n  swap3\n  swap2\n  pop\n  pop\n  jump\t// out\n    /* \"#utility.yul\":809:952   */\ntag_43:\n    /* \"#utility.yul\":866:871   */\n  0x00\n    /* \"#utility.yul\":897:903   */\n  dup2\n    /* \"#utility.yul\":891:904   */\n  mload\n    /* \"#utility.yul\":882:904   */\n  swap1\n  pop\n    /* \"#utility.yul\":913:946   */\n  tag_45\n    /* \"#utility.yul\":940:945   */\n  dup2\n    /* \"#utility.yul\":913:946   */\n  tag_46\n  jump\t// in\ntag_45:\n    /* \"#utility.yul\":809:952   */\n  swap3\n  swap2\n  pop\n  pop\n  jump\t// out\n    /* \"#utility.yul\":958:2124   */\ntag_3:\n    /* \"#utility.yul\":1075:1081   */\n  0x00\n    /* \"#utility.yul\":1083:1089   */\n  dup1\n    /* \"#utility.yul\":1091:1097   */\n  0x00\n    /* \"#utility.yul\":1099:1105   */\n  dup1\n    /* \"#utility.yul\":1148:1151   */\n  0x80\n    /* \"#utility.yul\":1136:1145   */\n  dup6\n    /* \"#utility.yul\":1127:1134   */\n  dup8\n    /* \"#utility.yul\":1123:1146   */\n  sub\n    /* \"#utility.yul\":1119:1152   */\n  slt\n    /* \"#utility.yul\":1116:1236   */\n  iszero\n  tag_48\n  jumpi\n    /* \"#utility.yul\":1155:1234   */\n  tag_49\n  tag_50\n  jump\t// in\ntag_49:\n    /* \"#utility.yul\":1116:1236   */\ntag_48:\n    /* \"#utility.yul\":1296:1297   */\n  0x00\n    /* \"#utility.yul\":1285:1294   */\n  dup6\n    /* \"#utility.yul\":1281:1298   */\n  add\n    /* \"#utility.yul\":1275:1299   */\n  mload\n    /* \"#utility.yul\":1326:1344   */\n  0xffffffffffffffff\n    /* \"#utility.yul\":1318:1324   */\n  dup2\n    /* \"#utility.yul\":1315:1345   */\n  gt\n    /* \"#utility.yul\":1312:1429   */\n  iszero\n  tag_51\n  jumpi\n    /* \"#utility.yul\":1348:1427   */\n  tag_52\n  tag_53\n  jump\t// in\ntag_52:\n    /* \"#utility.yul\":1312:1429   */\ntag_51:\n    /* \"#utility.yul\":1453:1527   */\n  tag_54\n    /* \"#utility.yul\":1519:1526   */\n  dup8\n    /* \"#utility.yul\":1510:1516   */\n  dup3\n    /* \"#utility.yul\":1499:1508   */\n  dup9\n    /* \"#utility.yul\":1495:1517   */\n  add\n    /* \"#utility.yul\":1453:1527   */\n  tag_37\n  jump\t// in\ntag_54:\n    /* \"#utility.yul\":1443:1527   */\n  swap5\n  pop\n    /* \"#utility.yul\":1246:1537   */\n  pop\n    /* \"#utility.yul\":1576:1578   */\n  0x20\n    /* \"#utility.yul\":1602:1666   */\n  tag_55\n    /* \"#utility.yul\":1658:1665   */\n  dup8\n    /* \"#utility.yul\":1649:1655   */\n  dup3\n    /* \"#utility.yul\":1638:1647   */\n  dup9\n    /* \"#utility.yul\":1634:1656   */\n  add\n    /* \"#utility.yul\":1602:1666   */\n  tag_43\n  jump\t// in\ntag_55:\n    /* \"#utility.yul\":1592:1666   */\n  swap4\n  pop\n    /* \"#utility.yul\":1547:1676   */\n  pop\n    /* \"#utility.yul\":1736:1738   */\n  0x40\n    /* \"#utility.yul\":1725:1734   */\n  dup6\n    /* \"#utility.yul\":1721:1739   */\n  add\n    /* \"#utility.yul\":1715:1740   */\n  mload\n    /* \"#utility.yul\":1767:1785   */\n  0xffffffffffffffff\n    /* \"#utility.yul\":1759:1765   */\n  dup2\n    /* \"#utility.yul\":1756:1786   */\n  gt\n    /* \"#utility.yul\":1753:1870   */\n  iszero\n  tag_56\n  jumpi\n    /* \"#utility.yul\":1789:1868   */\n  tag_57\n  tag_53\n  jump\t// in\ntag_57:\n    /* \"#utility.yul\":1753:1870   */\ntag_56:\n    /* \"#utility.yul\":1894:1968   */\n  tag_58\n    /* \"#utility.yul\":1960:1967   */\n  dup8\n    /* \"#utility.yul\":1951:1957   */\n  dup3\n    /* \"#utility.yul\":1940:1949   */\n  dup9\n    /* \"#utility.yul\":1936:1958   */\n  add\n    /* \"#utility.yul\":1894:1968   */\n  tag_37\n  jump\t// in\ntag_58:\n    /* \"#utility.yul\":1884:1968   */\n  swap3\n  pop\n    /* \"#utility.yul\":1686:1978   */\n  pop\n    /* \"#utility.yul\":2017:2019   */\n  0x60\n    /* \"#utility.yul\":2043:2107   */\n  tag_59\n    /* \"#utility.yul\":2099:2106   */\n  dup8\n    /* \"#utility.yul\":2090:2096   */\n  dup3\n    /* \"#utility.yul\":2079:2088   */\n  dup9\n    /* \"#utility.yul\":2075:2097   */\n  add\n    /* \"#utility.yul\":2043:2107   */\n  tag_43\n  jump\t// in\ntag_59:\n    /* \"#utility.yul\":2033:2107   */\n  swap2\n  pop\n    /* \"#utility.yul\":1988:2117   */\n  pop\n    /* \"#utility.yul\":958:2124   */\n  swap3\n  swap6\n  swap2\n  swap5\n  pop\n  swap3\n  pop\n  jump\t// out\n    /* \"#utility.yul\":2130:2259   */\ntag_31:\n    /* \"#utility.yul\":2164:2170   */\n  0x00\n    /* \"#utility.yul\":2191:2211   */\n  tag_61\n  tag_62\n  jump\t// in\ntag_61:\n    /* \"#utility.yul\":2181:2211   */\n  swap1\n  pop\n    /* \"#utility.yul\":2220:2253   */\n  tag_63\n    /* \"#utility.yul\":2248:2252   */\n  dup3\n    /* \"#utility.yul\":2240:2246   */\n  dup3\n    /* \"#utility.yul\":2220:2253   */\n  tag_64\n  jump\t// in\ntag_63:\n    /* \"#utility.yul\":2130:2259   */\n  swap2\n  swap1\n  pop\n  jump\t// out\n    /* \"#utility.yul\":2265:2340   */\ntag_62:\n    /* \"#utility.yul\":2298:2304   */\n  0x00\n    /* \"#utility.yul\":2331:2333   */\n  0x40\n    /* \"#utility.yul\":2325:2334   */\n  mload\n    /* \"#utility.yul\":2315:2334   */\n  swap1\n  pop\n    /* \"#utility.yul\":2265:2340   */\n  swap1\n  jump\t// out\n    /* \"#utility.yul\":2346:2654   */\ntag_30:\n    /* \"#utility.yul\":2408:2412   */\n  0x00\n    /* \"#utility.yul\":2498:2516   */\n  0xffffffffffffffff\n    /* \"#utility.yul\":2490:2496   */\n  dup3\n    /* \"#utility.yul\":2487:2517   */\n  gt\n    /* \"#utility.yul\":2484:2540   */\n  iszero\n  tag_67\n  jumpi\n    /* \"#utility.yul\":2520:2538   */\n  tag_68\n  tag_69\n  jump\t// in\ntag_68:\n    /* \"#utility.yul\":2484:2540   */\ntag_67:\n    /* \"#utility.yul\":2558:2587   */\n  tag_70\n    /* \"#utility.yul\":2580:2586   */\n  dup3\n    /* \"#utility.yul\":2558:2587   */\n  tag_71\n  jump\t// in\ntag_70:\n    /* \"#utility.yul\":2550:2587   */\n  swap1\n  pop\n    /* \"#utility.yul\":2642:2646   */\n  0x20\n    /* \"#utility.yul\":2636:2640   */\n  dup2\n    /* \"#utility.yul\":2632:2647   */\n  add\n    /* \"#utility.yul\":2624:2647   */\n  swap1\n  pop\n    /* \"#utility.yul\":2346:2654   */\n  swap2\n  swap1\n  pop\n  jump\t// out\n    /* \"#utility.yul\":2660:2737   */\ntag_72:\n    /* \"#utility.yul\":2697:2704   */\n  0x00\n    /* \"#utility.yul\":2726:2731   */\n  dup2\n    /* \"#utility.yul\":2715:2731   */\n  swap1\n  pop\n    /* \"#utility.yul\":2660:2737   */\n  swap2\n  swap1\n  pop\n  jump\t// out\n    /* \"#utility.yul\":2743:3050   */\ntag_36:\n    /* \"#utility.yul\":2811:2812   */\n  0x00\n    /* \"#utility.yul\":2821:2934   */\ntag_75:\n    /* \"#utility.yul\":2835:2841   */\n  dup4\n    /* \"#utility.yul\":2832:2833   */\n  dup2\n    /* \"#utility.yul\":2829:2842   */\n  lt\n    /* \"#utility.yul\":2821:2934   */\n  iszero\n  tag_77\n  jumpi\n    /* \"#utility.yul\":2920:2921   */\n  dup1\n    /* \"#utility.yul\":2915:2918   */\n  dup3\n    /* \"#utility.yul\":2911:2922   */\n  add\n    /* \"#utility.yul\":2905:2923   */\n  mload\n    /* \"#utility.yul\":2901:2902   */\n  dup2\n    /* \"#utility.yul\":2896:2899   */\n  dup5\n    /* \"#utility.yul\":2892:2903   */\n  add\n    /* \"#utility.yul\":2885:2924   */\n  mstore\n    /* \"#utility.yul\":2857:2859   */\n  0x20\n    /* \"#utility.yul\":2854:2855   */\n  dup2\n    /* \"#utility.yul\":2850:2860   */\n  add\n    /* \"#utility.yul\":2845:2860   */\n  swap1\n  pop\n    /* \"#utility.yul\":2821:2934   */\n  jump(tag_75)\ntag_77:\n    /* \"#utility.yul\":2952:2958   */\n  dup4\n    /* \"#utility.yul\":2949:2950   */\n  dup2\n    /* \"#utility.yul\":2946:2959   */\n  gt\n    /* \"#utility.yul\":2943:3044   */\n  iszero\n  tag_78\n  jumpi\n    /* \"#utility.yul\":3032:3033   */\n  0x00\n    /* \"#utility.yul\":3023:3029   */\n  dup5\n    /* \"#utility.yul\":3018:3021   */\n  dup5\n    /* \"#utility.yul\":3014:3030   */\n  add\n    /* \"#utility.yul\":3007:3034   */\n  mstore\n    /* \"#utility.yul\":2943:3044   */\ntag_78:\n    /* \"#utility.yul\":2792:3050   */\n  pop\n    /* \"#utility.yul\":2743:3050   */\n  pop\n  pop\n  pop\n  jump\t// out\n    /* \"#utility.yul\":3056:3376   */\ntag_15:\n    /* \"#utility.yul\":3100:3106   */\n  0x00\n    /* \"#utility.yul\":3137:3138   */\n  0x02\n    /* \"#utility.yul\":3131:3135   */\n  dup3\n    /* \"#utility.yul\":3127:3139   */\n  div\n    /* \"#utility.yul\":3117:3139   */\n  swap1\n  pop\n    /* \"#utility.yul\":3184:3185   */\n  0x01\n    /* \"#utility.yul\":3178:3182   */\n  dup3\n    /* \"#utility.yul\":3174:3186   */\n  and\n    /* \"#utility.yul\":3205:3223   */\n  dup1\n    /* \"#utility.yul\":3195:3276   */\n  tag_80\n  jumpi\n    /* \"#utility.yul\":3261:3265   */\n  0x7f\n    /* \"#utility.yul\":3253:3259   */\n  dup3\n    /* \"#utility.yul\":3249:3266   */\n  and\n    /* \"#utility.yul\":3239:3266   */\n  swap2\n  pop\n    /* \"#utility.yul\":3195:3276   */\ntag_80:\n    /* \"#utility.yul\":3323:3325   */\n  0x20\n    /* \"#utility.yul\":3315:3321   */\n  dup3\n    /* \"#utility.yul\":3312:3326   */\n  lt\n    /* \"#utility.yul\":3292:3310   */\n  dup2\n    /* \"#utility.yul\":3289:3327   */\n  eq\n    /* \"#utility.yul\":3286:3370   */\n  iszero\n  tag_81\n  jumpi\n    /* \"#utility.yul\":3342:3360   */\n  tag_82\n  tag_83\n  jump\t// in\ntag_82:\n    /* \"#utility.yul\":3286:3370   */\ntag_81:\n    /* \"#utility.yul\":3107:3376   */\n  pop\n    /* \"#utility.yul\":3056:3376   */\n  swap2\n  swap1\n  pop\n  jump\t// out\n    /* \"#utility.yul\":3382:3663   */\ntag_64:\n    /* \"#utility.yul\":3465:3492   */\n  tag_85\n    /* \"#utility.yul\":3487:3491   */\n  dup3\n    /* \"#utility.yul\":3465:3492   */\n  tag_71\n  jump\t// in\ntag_85:\n    /* \"#utility.yul\":3457:3463   */\n  dup2\n    /* \"#utility.yul\":3453:3493   */\n  add\n    /* \"#utility.yul\":3595:3601   */\n  dup2\n    /* \"#utility.yul\":3583:3593   */\n  dup2\n    /* \"#utility.yul\":3580:3602   */\n  lt\n    /* \"#utility.yul\":3559:3577   */\n  0xffffffffffffffff\n    /* \"#utility.yul\":3547:3557   */\n  dup3\n    /* \"#utility.yul\":3544:3578   */\n  gt\n    /* \"#utility.yul\":3541:3603   */\n  or\n    /* \"#utility.yul\":3538:3626   */\n  iszero\n  tag_86\n  jumpi\n    /* \"#utility.yul\":3606:3624   */\n  tag_87\n  tag_69\n  jump\t// in\ntag_87:\n    /* \"#utility.yul\":3538:3626   */\ntag_86:\n    /* \"#utility.yul\":3646:3656   */\n  dup1\n    /* \"#utility.yul\":3642:3644   */\n  0x40\n    /* \"#utility.yul\":3635:3657   */\n  mstore\n    /* \"#utility.yul\":3425:3663   */\n  pop\n    /* \"#utility.yul\":3382:3663   */\n  pop\n  pop\n  jump\t// out\n    /* \"#utility.yul\":3669:3849   */\ntag_83:\n    /* \"#utility.yul\":3717:3794   */\n  0x4e487b7100000000000000000000000000000000000000000000000000000000\n    /* \"#utility.yul\":3714:3715   */\n  0x00\n    /* \"#utility.yul\":3707:3795   */\n  mstore\n    /* \"#utility.yul\":3814:3818   */\n  0x22\n    /* \"#utility.yul\":3811:3812   */\n  0x04\n    /* \"#utility.yul\":3804:3819   */\n  mstore\n    /* \"#utility.yul\":3838:3842   */\n  0x24\n    /* \"#utility.yul\":3835:3836   */\n  0x00\n    /* \"#utility.yul\":3828:3843   */\n  revert\n    /* \"#utility.yul\":3855:4035   */\ntag_69:\n    /* \"#utility.yul\":3903:3980   */\n  0x4e487b7100000000000000000000000000000000000000000000000000000000\n    /* \"#utility.yul\":3900:3901   */\n  0x00\n    /* \"#utility.yul\":3893:3981   */\n  mstore\n    /* \"#utility.yul\":4000:4004   */\n  0x41\n    /* \"#utility.yul\":3997:3998   */\n  0x04\n    /* \"#utility.yul\":3990:4005   */\n  mstore\n    /* \"#utility.yul\":4024:4028   */\n  0x24\n    /* \"#utility.yul\":4021:4022   */\n  0x00\n    /* \"#utility.yul\":4014:4029   */\n  revert\n    /* \"#utility.yul\":4041:4158   */\ntag_41:\n    /* \"#utility.yul\":4150:4151   */\n  0x00\n    /* \"#utility.yul\":4147:4148   */\n  dup1\n    /* \"#utility.yul\":4140:4152   */\n  revert\n    /* \"#utility.yul\":4164:4281   */\ntag_34:\n    /* \"#utility.yul\":4273:4274   */\n  0x00\n    /* \"#utility.yul\":4270:4271   */\n  dup1\n    /* \"#utility.yul\":4263:4275   */\n  revert\n    /* \"#utility.yul\":4287:4404   */\ntag_53:\n    /* \"#utility.yul\":4396:4397   */\n  0x00\n    /* \"#utility.yul\":4393:4394   */\n  dup1\n    /* \"#utility.yul\":4386:4398   */\n  revert\n    /* \"#utility.yul\":4410:4527   */\ntag_50:\n    /* \"#utility.yul\":4519:4520   */\n  0x00\n    /* \"#utility.yul\":4516:4517   */\n  dup1\n    /* \"#utility.yul\":4509:4521   */\n  revert\n    /* \"#utility.yul\":4533:4635   */\ntag_71:\n    /* \"#utility.yul\":4574:4580   */\n  0x00\n    /* \"#utility.yul\":4625:4627   */\n  0x1f\n    /* \"#utility.yul\":4621:4628   */\n  not\n    /* \"#utility.yul\":4616:4618   */\n  0x1f\n    /* \"#utility.yul\":4609:4614   */\n  dup4\n    /* \"#utility.yul\":4605:4619   */\n  add\n    /* \"#utility.yul\":4601:4629   */\n  and\n    /* \"#utility.yul\":4591:4629   */\n  swap1\n  pop\n    /* \"#utility.yul\":4533:4635   */\n  swap2\n  swap1\n  pop\n  jump\t// out\n    /* \"#utility.yul\":4641:4763   */\ntag_46:\n    /* \"#utility.yul\":4714:4738   */\n  tag_96\n    /* \"#utility.yul\":4732:4737   */\n  dup2\n    /* \"#utility.yul\":4714:4738   */\n  tag_72\n  jump\t// in\ntag_96:\n    /* \"#utility.yul\":4707:4712   */\n  dup2\n    /* \"#utility.yul\":4704:4739   */\n  eq\n    /* \"#utility.yul\":4694:4757   */\n  tag_97\n  jumpi\n    /* \"#utility.yul\":4753:4754   */\n  0x00\n    /* \"#utility.yul\":4750:4751   */\n  dup1\n    /* \"#utility.yul\":4743:4755   */\n  revert\n    /* \"#utility.yul\":4694:4757   */\ntag_97:\n    /* \"#utility.yul\":4641:4763   */\n  pop\n  jump\t// out\n    /* \"passingParamterInMultipleInheritance.sol\":599:741  contract E is B,A{... */\ntag_13:\n  dataSize(sub_0)\n  dup1\n  dataOffset(sub_0)\n  0x00\n  codecopy\n  0x00\n  return\nstop\n\nsub_0: assembly {\n        /* \"passingParamterInMultipleInheritance.sol\":599:741  contract E is B,A{... */\n      mstore(0x40, 0x80)\n      callvalue\n      dup1\n      iszero\n      tag_1\n      jumpi\n      0x00\n      dup1\n      revert\n    tag_1:\n      pop\n      jumpi(tag_2, lt(calldatasize, 0x04))\n      shr(0xe0, calldataload(0x00))\n      dup1\n      0x0397b652\n      eq\n      tag_3\n      jumpi\n      dup1\n      0x06fdde03\n      eq\n      tag_4\n      jumpi\n      dup1\n      0x262a9dff\n      eq\n      tag_5\n      jumpi\n      dup1\n      0x4f2be91f\n      eq\n      tag_6\n      jumpi\n    tag_2:\n      0x00\n      dup1\n      revert\n        /* \"passingParamterInMultipleInheritance.sol\":263:281  uint public salary */\n    tag_3:\n      tag_7\n      tag_8\n      jump\t// in\n    tag_7:\n      mload(0x40)\n      tag_9\n      swap2\n      swap1\n      tag_10\n      jump\t// in\n    tag_9:\n      mload(0x40)\n      dup1\n      swap2\n      sub\n      swap1\n      return\n        /* \"passingParamterInMultipleInheritance.sol\":80:98  string public name */\n    tag_4:\n      tag_11\n      tag_12\n      jump\t// in\n    tag_11:\n      mload(0x40)\n      tag_13\n      swap2\n      swap1\n      tag_14\n      jump\t// in\n    tag_13:\n      mload(0x40)\n      dup1\n      swap2\n      sub\n      swap1\n      return\n        /* \"passingParamterInMultipleInheritance.sol\":104:119  uint public age */\n    tag_5:\n      tag_15\n      tag_16\n      jump\t// in\n    tag_15:\n      mload(0x40)\n      tag_17\n      swap2\n      swap1\n      tag_10\n      jump\t// in\n    tag_17:\n      mload(0x40)\n      dup1\n      swap2\n      sub\n      swap1\n      return\n        /* \"passingParamterInMultipleInheritance.sol\":240:257  string public add */\n    tag_6:\n      tag_18\n      tag_19\n      jump\t// in\n    tag_18:\n      mload(0x40)\n      tag_20\n      swap2\n      swap1\n      tag_14\n      jump\t// in\n    tag_20:\n      mload(0x40)\n      dup1\n      swap2\n      sub\n      swap1\n      return\n        /* \"passingParamterInMultipleInheritance.sol\":263:281  uint public salary */\n    tag_8:\n      sload(0x01)\n      dup2\n      jump\t// out\n        /* \"passingParamterInMultipleInheritance.sol\":80:98  string public name */\n    tag_12:\n      0x02\n      dup1\n      sload\n      tag_21\n      swap1\n      tag_22\n      jump\t// in\n    tag_21:\n      dup1\n      0x1f\n      add\n      0x20\n      dup1\n      swap2\n      div\n      mul\n      0x20\n      add\n      mload(0x40)\n      swap1\n      dup2\n      add\n      0x40\n      mstore\n      dup1\n      swap3\n      swap2\n      swap1\n      dup2\n      dup2\n      mstore\n      0x20\n      add\n      dup3\n      dup1\n      sload\n      tag_23\n      swap1\n      tag_22\n      jump\t// in\n    tag_23:\n      dup1\n      iszero\n      tag_24\n      jumpi\n      dup1\n      0x1f\n      lt\n      tag_25\n      jumpi\n      0x0100\n      dup1\n      dup4\n      sload\n      div\n      mul\n      dup4\n      mstore\n      swap2\n      0x20\n      add\n      swap2\n      jump(tag_24)\n    tag_25:\n      dup3\n      add\n      swap2\n      swap1\n      0x00\n      mstore\n      keccak256(0x00, 0x20)\n      swap1\n    tag_26:\n      dup2\n      sload\n      dup2\n      mstore\n      swap1\n      0x01\n      add\n      swap1\n      0x20\n      add\n      dup1\n      dup4\n      gt\n      tag_26\n      jumpi\n      dup3\n      swap1\n      sub\n      0x1f\n      and\n      dup3\n      add\n      swap2\n    tag_24:\n      pop\n      pop\n      pop\n      pop\n      pop\n      dup2\n      jump\t// out\n        /* \"passingParamterInMultipleInheritance.sol\":104:119  uint public age */\n    tag_16:\n      sload(0x03)\n      dup2\n      jump\t// out\n        /* \"passingParamterInMultipleInheritance.sol\":240:257  string public add */\n    tag_19:\n      0x00\n      dup1\n      sload\n      tag_27\n      swap1\n      tag_22\n      jump\t// in\n    tag_27:\n      dup1\n      0x1f\n      add\n      0x20\n      dup1\n      swap2\n      div\n      mul\n      0x20\n      add\n      mload(0x40)\n      swap1\n      dup2\n      add\n      0x40\n      mstore\n      dup1\n      swap3\n      swap2\n      swap1\n      dup2\n      dup2\n      mstore\n      0x20\n      add\n      dup3\n      dup1\n      sload\n      tag_28\n      swap1\n      tag_22\n      jump\t// in\n    tag_28:\n      dup1\n      iszero\n      tag_29\n      jumpi\n      dup1\n      0x1f\n      lt\n      tag_30\n      jumpi\n      0x0100\n      dup1\n      dup4\n      sload\n      div\n      mul\n      dup4\n      mstore\n      swap2\n      0x20\n      add\n      swap2\n      jump(tag_29)\n    tag_30:\n      dup3\n      add\n      swap2\n      swap1\n      0x00\n      mstore\n      keccak256(0x00, 0x20)\n      swap1\n    tag_31:\n      dup2\n      sload\n      dup2\n      mstore\n      swap1\n      0x01\n      add\n      swap1\n      0x20\n      add\n      dup1\n      dup4\n      gt\n      tag_31\n      jumpi\n      dup3\n      swap1\n      sub\n      0x1f\n      and\n      dup3\n      add\n      swap2\n    tag_29:\n      pop\n      pop\n      pop\n      pop\n      pop\n      dup2\n      jump\t// out\n        /* \"#utility.yul\":7:371   */\n    tag_33:\n        /* \"#utility.yul\":95:98   */\n      0x00\n        /* \"#utility.yul\":123:162   */\n      tag_35\n        /* \"#utility.yul\":156:161   */\n      dup3\n        /* \"#utility.yul\":123:162   */\n      tag_36\n      jump\t// in\n    tag_35:\n        /* \"#utility.yul\":178:249   */\n      tag_37\n        /* \"#utility.yul\":242:248   */\n      dup2\n        /* \"#utility.yul\":237:240   */\n      dup6\n        /* \"#utility.yul\":178:249   */\n      tag_38\n      jump\t// in\n    tag_37:\n        /* \"#utility.yul\":171:249   */\n      swap4\n      pop\n        /* \"#utility.yul\":258:310   */\n      tag_39\n        /* \"#utility.yul\":303:309   */\n      dup2\n        /* \"#utility.yul\":298:301   */\n      dup6\n        /* \"#utility.yul\":291:295   */\n      0x20\n        /* \"#utility.yul\":284:289   */\n      dup7\n        /* \"#utility.yul\":280:296   */\n      add\n        /* \"#utility.yul\":258:310   */\n      tag_40\n      jump\t// in\n    tag_39:\n        /* \"#utility.yul\":335:364   */\n      tag_41\n        /* \"#utility.yul\":357:363   */\n      dup2\n        /* \"#utility.yul\":335:364   */\n      tag_42\n      jump\t// in\n    tag_41:\n        /* \"#utility.yul\":330:333   */\n      dup5\n        /* \"#utility.yul\":326:365   */\n      add\n        /* \"#utility.yul\":319:365   */\n      swap2\n      pop\n        /* \"#utility.yul\":99:371   */\n      pop\n        /* \"#utility.yul\":7:371   */\n      swap3\n      swap2\n      pop\n      pop\n      jump\t// out\n        /* \"#utility.yul\":377:495   */\n    tag_43:\n        /* \"#utility.yul\":464:488   */\n      tag_45\n        /* \"#utility.yul\":482:487   */\n      dup2\n        /* \"#utility.yul\":464:488   */\n      tag_46\n      jump\t// in\n    tag_45:\n        /* \"#utility.yul\":459:462   */\n      dup3\n        /* \"#utility.yul\":452:489   */\n      mstore\n        /* \"#utility.yul\":377:495   */\n      pop\n      pop\n      jump\t// out\n        /* \"#utility.yul\":501:814   */\n    tag_14:\n        /* \"#utility.yul\":614:618   */\n      0x00\n        /* \"#utility.yul\":652:654   */\n      0x20\n        /* \"#utility.yul\":641:650   */\n      dup3\n        /* \"#utility.yul\":637:655   */\n      add\n        /* \"#utility.yul\":629:655   */\n      swap1\n      pop\n        /* \"#utility.yul\":701:710   */\n      dup2\n        /* \"#utility.yul\":695:699   */\n      dup2\n        /* \"#utility.yul\":691:711   */\n      sub\n        /* \"#utility.yul\":687:688   */\n      0x00\n        /* \"#utility.yul\":676:685   */\n      dup4\n        /* \"#utility.yul\":672:689   */\n      add\n        /* \"#utility.yul\":665:712   */\n      mstore\n        /* \"#utility.yul\":729:807   */\n      tag_48\n        /* \"#utility.yul\":802:806   */\n      dup2\n        /* \"#utility.yul\":793:799   */\n      dup5\n        /* \"#utility.yul\":729:807   */\n      tag_33\n      jump\t// in\n    tag_48:\n        /* \"#utility.yul\":721:807   */\n      swap1\n      pop\n        /* \"#utility.yul\":501:814   */\n      swap3\n      swap2\n      pop\n      pop\n      jump\t// out\n        /* \"#utility.yul\":820:1042   */\n    tag_10:\n        /* \"#utility.yul\":913:917   */\n      0x00\n        /* \"#utility.yul\":951:953   */\n      0x20\n        /* \"#utility.yul\":940:949   */\n      dup3\n        /* \"#utility.yul\":936:954   */\n      add\n        /* \"#utility.yul\":928:954   */\n      swap1\n      pop\n        /* \"#utility.yul\":964:1035   */\n      tag_50\n        /* \"#utility.yul\":1032:1033   */\n      0x00\n        /* \"#utility.yul\":1021:1030   */\n      dup4\n        /* \"#utility.yul\":1017:1034   */\n      add\n        /* \"#utility.yul\":1008:1014   */\n      dup5\n        /* \"#utility.yul\":964:1035   */\n      tag_43\n      jump\t// in\n    tag_50:\n        /* \"#utility.yul\":820:1042   */\n      swap3\n      swap2\n      pop\n      pop\n      jump\t// out\n        /* \"#utility.yul\":1048:1147   */\n    tag_36:\n        /* \"#utility.yul\":1100:1106   */\n      0x00\n        /* \"#utility.yul\":1134:1139   */\n      dup2\n        /* \"#utility.yul\":1128:1140   */\n      mload\n        /* \"#utility.yul\":1118:1140   */\n      swap1\n      pop\n        /* \"#utility.yul\":1048:1147   */\n      swap2\n      swap1\n      pop\n      jump\t// out\n        /* \"#utility.yul\":1153:1322   */\n    tag_38:\n        /* \"#utility.yul\":1237:1248   */\n      0x00\n        /* \"#utility.yul\":1271:1277   */\n      dup3\n        /* \"#utility.yul\":1266:1269   */\n      dup3\n        /* \"#utility.yul\":1259:1278   */\n      mstore\n        /* \"#utility.yul\":1311:1315   */\n      0x20\n        /* \"#utility.yul\":1306:1309   */\n      dup3\n        /* \"#utility.yul\":1302:1316   */\n      add\n        /* \"#utility.yul\":1287:1316   */\n      swap1\n      pop\n        /* \"#utility.yul\":1153:1322   */\n      swap3\n      swap2\n      pop\n      pop\n      jump\t// out\n        /* \"#utility.yul\":1328:1405   */\n    tag_46:\n        /* \"#utility.yul\":1365:1372   */\n      0x00\n        /* \"#utility.yul\":1394:1399   */\n      dup2\n        /* \"#utility.yul\":1383:1399   */\n      swap1\n      pop\n        /* \"#utility.yul\":1328:1405   */\n      swap2\n      swap1\n      pop\n      jump\t// out\n        /* \"#utility.yul\":1411:1718   */\n    tag_40:\n        /* \"#utility.yul\":1479:1480   */\n      0x00\n        /* \"#utility.yul\":1489:1602   */\n    tag_55:\n        /* \"#utility.yul\":1503:1509   */\n      dup4\n        /* \"#utility.yul\":1500:1501   */\n      dup2\n        /* \"#utility.yul\":1497:1510   */\n      lt\n        /* \"#utility.yul\":1489:1602   */\n      iszero\n      tag_57\n      jumpi\n        /* \"#utility.yul\":1588:1589   */\n      dup1\n        /* \"#utility.yul\":1583:1586   */\n      dup3\n        /* \"#utility.yul\":1579:1590   */\n      add\n        /* \"#utility.yul\":1573:1591   */\n      mload\n        /* \"#utility.yul\":1569:1570   */\n      dup2\n        /* \"#utility.yul\":1564:1567   */\n      dup5\n        /* \"#utility.yul\":1560:1571   */\n      add\n        /* \"#utility.yul\":1553:1592   */\n      mstore\n        /* \"#utility.yul\":1525:1527   */\n      0x20\n        /* \"#utility.yul\":1522:1523   */\n      dup2\n        /* \"#utility.yul\":1518:1528   */\n      add\n        /* \"#utility.yul\":1513:1528   */\n      swap1\n      pop\n        /* \"#utility.yul\":1489:1602   */\n      jump(tag_55)\n    tag_57:\n        /* \"#utility.yul\":1620:1626   */\n      dup4\n        /* \"#utility.yul\":1617:1618   */\n      dup2\n        /* \"#utility.yul\":1614:1627   */\n      gt\n        /* \"#utility.yul\":1611:1712   */\n      iszero\n      tag_58\n      jumpi\n        /* \"#utility.yul\":1700:1701   */\n      0x00\n        /* \"#utility.yul\":1691:1697   */\n      dup5\n        /* \"#utility.yul\":1686:1689   */\n      dup5\n        /* \"#utility.yul\":1682:1698   */\n      add\n        /* \"#utility.yul\":1675:1702   */\n      mstore\n        /* \"#utility.yul\":1611:1712   */\n    tag_58:\n        /* \"#utility.yul\":1460:1718   */\n      pop\n        /* \"#utility.yul\":1411:1718   */\n      pop\n      pop\n      pop\n      jump\t// out\n        /* \"#utility.yul\":1724:2044   */\n    tag_22:\n        /* \"#utility.yul\":1768:1774   */\n      0x00\n        /* \"#utility.yul\":1805:1806   */\n      0x02\n        /* \"#utility.yul\":1799:1803   */\n      dup3\n        /* \"#utility.yul\":1795:1807   */\n      div\n        /* \"#utility.yul\":1785:1807   */\n      swap1\n      pop\n        /* \"#utility.yul\":1852:1853   */\n      0x01\n        /* \"#utility.yul\":1846:1850   */\n      dup3\n        /* \"#utility.yul\":1842:1854   */\n      and\n        /* \"#utility.yul\":1873:1891   */\n      dup1\n        /* \"#utility.yul\":1863:1944   */\n      tag_60\n      jumpi\n        /* \"#utility.yul\":1929:1933   */\n      0x7f\n        /* \"#utility.yul\":1921:1927   */\n      dup3\n        /* \"#utility.yul\":1917:1934   */\n      and\n        /* \"#utility.yul\":1907:1934   */\n      swap2\n      pop\n        /* \"#utility.yul\":1863:1944   */\n    tag_60:\n        /* \"#utility.yul\":1991:1993   */\n      0x20\n        /* \"#utility.yul\":1983:1989   */\n      dup3\n        /* \"#utility.yul\":1980:1994   */\n      lt\n        /* \"#utility.yul\":1960:1978   */\n      dup2\n        /* \"#utility.yul\":1957:1995   */\n      eq\n        /* \"#utility.yul\":1954:2038   */\n      iszero\n      tag_61\n      jumpi\n        /* \"#utility.yul\":2010:2028   */\n      tag_62\n      tag_63\n      jump\t// in\n    tag_62:\n        /* \"#utility.yul\":1954:2038   */\n    tag_61:\n        /* \"#utility.yul\":1775:2044   */\n      pop\n        /* \"#utility.yul\":1724:2044   */\n      swap2\n      swap1\n      pop\n      jump\t// out\n        /* \"#utility.yul\":2050:2230   */\n    tag_63:\n        /* \"#utility.yul\":2098:2175   */\n      0x4e487b7100000000000000000000000000000000000000000000000000000000\n        /* \"#utility.yul\":2095:2096   */\n      0x00\n        /* \"#utility.yul\":2088:2176   */\n      mstore\n        /* \"#utility.yul\":2195:2199   */\n      0x22\n        /* \"#utility.yul\":2192:2193   */\n      0x04\n        /* \"#utility.yul\":2185:2200   */\n      mstore\n        /* \"#utility.yul\":2219:2223   */\n      0x24\n        /* \"#utility.yul\":2216:2217   */\n      0x00\n        /* \"#utility.yul\":2209:2224   */\n      revert\n        /* \"#utility.yul\":2236:2338   */\n    tag_42:\n        /* \"#utility.yul\":2277:2283   */\n      0x00\n        /* \"#utility.yul\":2328:2330   */\n      0x1f\n        /* \"#utility.yul\":2324:2331   */\n      not\n        /* \"#utility.yul\":2319:2321   */\n      0x1f\n        /* \"#utility.yul\":2312:2317   */\n      dup4\n        /* \"#utility.yul\":2308:2322   */\n      add\n        /* \"#utility.yul\":2304:2332   */\n      and\n        /* \"#utility.yul\":2294:2332   */\n      swap1\n      pop\n        /* \"#utility.yul\":2236:2338   */\n      swap2\n      swap1\n      pop\n      jump\t// out\n\n    auxdata: 0xa2646970667358221220bcb6adb48b45951eaa1e42f133e5ec2b17074b4f8456bc697c3463bab3ac002864736f6c63430008070033\n}\n",
				"bytecode": {
					"linkReferences": {},
					"object": "608060405234801561001057600080fd5b506040516200075f3803806200075f833981810160405281019061003491906101a9565b83838383816000908051906020019061004e929190610081565b50806001819055505050816002908051906020019061006e929190610081565b50806003819055505050505050506103d8565b82805461008d906102db565b90600052602060002090601f0160209004810192826100af57600085556100f6565b82601f106100c857805160ff19168380011785556100f6565b828001600101855582156100f6579182015b828111156100f55782518255916020019190600101906100da565b5b5090506101039190610107565b5090565b5b80821115610120576000816000905550600101610108565b5090565b60006101376101328461026d565b610248565b905082815260208101848484011115610153576101526103a1565b5b61015e8482856102a8565b509392505050565b600082601f83011261017b5761017a61039c565b5b815161018b848260208601610124565b91505092915050565b6000815190506101a3816103c1565b92915050565b600080600080608085870312156101c3576101c26103ab565b5b600085015167ffffffffffffffff8111156101e1576101e06103a6565b5b6101ed87828801610166565b94505060206101fe87828801610194565b935050604085015167ffffffffffffffff81111561021f5761021e6103a6565b5b61022b87828801610166565b925050606061023c87828801610194565b91505092959194509250565b6000610252610263565b905061025e828261030d565b919050565b6000604051905090565b600067ffffffffffffffff8211156102885761028761036d565b5b610291826103b0565b9050602081019050919050565b6000819050919050565b60005b838110156102c65780820151818401526020810190506102ab565b838111156102d5576000848401525b50505050565b600060028204905060018216806102f357607f821691505b602082108114156103075761030661033e565b5b50919050565b610316826103b0565b810181811067ffffffffffffffff821117156103355761033461036d565b5b80604052505050565b7f4e487b7100000000000000000000000000000000000000000000000000000000600052602260045260246000fd5b7f4e487b7100000000000000000000000000000000000000000000000000000000600052604160045260246000fd5b600080fd5b600080fd5b600080fd5b600080fd5b6000601f19601f8301169050919050565b6103ca8161029e565b81146103d557600080fd5b50565b61037780620003e86000396000f3fe608060405234801561001057600080fd5b506004361061004c5760003560e01c80630397b6521461005157806306fdde031461006f578063262a9dff1461008d5780634f2be91f146100ab575b600080fd5b6100596100c9565b604051610066919061025b565b60405180910390f35b6100776100cf565b6040516100849190610239565b60405180910390f35b61009561015d565b6040516100a2919061025b565b60405180910390f35b6100b3610163565b6040516100c09190610239565b60405180910390f35b60015481565b600280546100dc906102cf565b80601f0160208091040260200160405190810160405280929190818152602001828054610108906102cf565b80156101555780601f1061012a57610100808354040283529160200191610155565b820191906000526020600020905b81548152906001019060200180831161013857829003601f168201915b505050505081565b60035481565b60008054610170906102cf565b80601f016020809104026020016040519081016040528092919081815260200182805461019c906102cf565b80156101e95780601f106101be576101008083540402835291602001916101e9565b820191906000526020600020905b8154815290600101906020018083116101cc57829003601f168201915b505050505081565b60006101fc82610276565b6102068185610281565b935061021681856020860161029c565b61021f81610330565b840191505092915050565b61023381610292565b82525050565b6000602082019050818103600083015261025381846101f1565b905092915050565b6000602082019050610270600083018461022a565b92915050565b600081519050919050565b600082825260208201905092915050565b6000819050919050565b60005b838110156102ba57808201518184015260208101905061029f565b838111156102c9576000848401525b50505050565b600060028204905060018216806102e757607f821691505b602082108114156102fb576102fa610301565b5b50919050565b7f4e487b7100000000000000000000000000000000000000000000000000000000600052602260045260246000fd5b6000601f19601f830116905091905056fea2646970667358221220bcb6adb48b45951eaa1e42f133e5ec2b17074b4f8456bc697c3463bab3ac002864736f6c63430008070033",
					"opcodes": "PUSH1 0x80 PUSH1 0x40 MSTORE CALLVALUE DUP1 ISZERO PUSH2 0x10 JUMPI PUSH1 0x0 DUP1 REVERT JUMPDEST POP PUSH1 0x40 MLOAD PUSH3 0x75F CODESIZE SUB DUP1 PUSH3 0x75F DUP4 CODECOPY DUP2 DUP2 ADD PUSH1 0x40 MSTORE DUP2 ADD SWAP1 PUSH2 0x34 SWAP2 SWAP1 PUSH2 0x1A9 JUMP JUMPDEST DUP4 DUP4 DUP4 DUP4 DUP2 PUSH1 0x0 SWAP1 DUP1 MLOAD SWAP1 PUSH1 0x20 ADD SWAP1 PUSH2 0x4E SWAP3 SWAP2 SWAP1 PUSH2 0x81 JUMP JUMPDEST POP DUP1 PUSH1 0x1 DUP2 SWAP1 SSTORE POP POP POP DUP2 PUSH1 0x2 SWAP1 DUP1 MLOAD SWAP1 PUSH1 0x20 ADD SWAP1 PUSH2 0x6E SWAP3 SWAP2 SWAP1 PUSH2 0x81 JUMP JUMPDEST POP DUP1 PUSH1 0x3 DUP2 SWAP1 SSTORE POP POP POP POP POP POP POP PUSH2 0x3D8 JUMP JUMPDEST DUP3 DUP1 SLOAD PUSH2 0x8D SWAP1 PUSH2 0x2DB JUMP JUMPDEST SWAP1 PUSH1 0x0 MSTORE PUSH1 0x20 PUSH1 0x0 KECCAK256 SWAP1 PUSH1 0x1F ADD PUSH1 0x20 SWAP1 DIV DUP2 ADD SWAP3 DUP3 PUSH2 0xAF JUMPI PUSH1 0x0 DUP6 SSTORE PUSH2 0xF6 JUMP JUMPDEST DUP3 PUSH1 0x1F LT PUSH2 0xC8 JUMPI DUP1 MLOAD PUSH1 0xFF NOT AND DUP4 DUP1 ADD OR DUP6 SSTORE PUSH2 0xF6 JUMP JUMPDEST DUP3 DUP1 ADD PUSH1 0x1 ADD DUP6 SSTORE DUP3 ISZERO PUSH2 0xF6 JUMPI SWAP2 DUP3 ADD JUMPDEST DUP3 DUP2 GT ISZERO PUSH2 0xF5 JUMPI DUP3 MLOAD DUP3 SSTORE SWAP2 PUSH1 0x20 ADD SWAP2 SWAP1 PUSH1 0x1 ADD SWAP1 PUSH2 0xDA JUMP JUMPDEST JUMPDEST POP SWAP1 POP PUSH2 0x103 SWAP2 SWAP1 PUSH2 0x107 JUMP JUMPDEST POP SWAP1 JUMP JUMPDEST JUMPDEST DUP1 DUP3 GT ISZERO PUSH2 0x120 JUMPI PUSH1 0x0 DUP2 PUSH1 0x0 SWAP1 SSTORE POP PUSH1 0x1 ADD PUSH2 0x108 JUMP JUMPDEST POP SWAP1 JUMP JUMPDEST PUSH1 0x0 PUSH2 0x137 PUSH2 0x132 DUP5 PUSH2 0x26D JUMP JUMPDEST PUSH2 0x248 JUMP JUMPDEST SWAP1 POP DUP3 DUP2 MSTORE PUSH1 0x20 DUP2 ADD DUP5 DUP5 DUP5 ADD GT ISZERO PUSH2 0x153 JUMPI PUSH2 0x152 PUSH2 0x3A1 JUMP JUMPDEST JUMPDEST PUSH2 0x15E DUP5 DUP3 DUP6 PUSH2 0x2A8 JUMP JUMPDEST POP SWAP4 SWAP3 POP POP POP JUMP JUMPDEST PUSH1 0x0 DUP3 PUSH1 0x1F DUP4 ADD SLT PUSH2 0x17B JUMPI PUSH2 0x17A PUSH2 0x39C JUMP JUMPDEST JUMPDEST DUP2 MLOAD PUSH2 0x18B DUP5 DUP3 PUSH1 0x20 DUP7 ADD PUSH2 0x124 JUMP JUMPDEST SWAP2 POP POP SWAP3 SWAP2 POP POP JUMP JUMPDEST PUSH1 0x0 DUP2 MLOAD SWAP1 POP PUSH2 0x1A3 DUP2 PUSH2 0x3C1 JUMP JUMPDEST SWAP3 SWAP2 POP POP JUMP JUMPDEST PUSH1 0x0 DUP1 PUSH1 0x0 DUP1 PUSH1 0x80 DUP6 DUP8 SUB SLT ISZERO PUSH2 0x1C3 JUMPI PUSH2 0x1C2 PUSH2 0x3AB JUMP JUMPDEST JUMPDEST PUSH1 0x0 DUP6 ADD MLOAD PUSH8 0xFFFFFFFFFFFFFFFF DUP2 GT ISZERO PUSH2 0x1E1 JUMPI PUSH2 0x1E0 PUSH2 0x3A6 JUMP JUMPDEST JUMPDEST PUSH2 0x1ED DUP8 DUP3 DUP9 ADD PUSH2 0x166 JUMP JUMPDEST SWAP5 POP POP PUSH1 0x20 PUSH2 0x1FE DUP8 DUP3 DUP9 ADD PUSH2 0x194 JUMP JUMPDEST SWAP4 POP POP PUSH1 0x40 DUP6 ADD MLOAD PUSH8 0xFFFFFFFFFFFFFFFF DUP2 GT ISZERO PUSH2 0x21F JUMPI PUSH2 0x21E PUSH2 0x3A6 JUMP JUMPDEST JUMPDEST PUSH2 0x22B DUP8 DUP3 DUP9 ADD PUSH2 0x166 JUMP JUMPDEST SWAP3 POP POP PUSH1 0x60 PUSH2 0x23C DUP8 DUP3 DUP9 ADD PUSH2 0x194 JUMP JUMPDEST SWAP2 POP POP SWAP3 SWAP6 SWAP2 SWAP5 POP SWAP3 POP JUMP JUMPDEST PUSH1 0x0 PUSH2 0x252 PUSH2 0x263 JUMP JUMPDEST SWAP1 POP PUSH2 0x25E DUP3 DUP3 PUSH2 0x30D JUMP JUMPDEST SWAP2 SWAP1 POP JUMP JUMPDEST PUSH1 0x0 PUSH1 0x40 MLOAD SWAP1 POP SWAP1 JUMP JUMPDEST PUSH1 0x0 PUSH8 0xFFFFFFFFFFFFFFFF DUP3 GT ISZERO PUSH2 0x288 JUMPI PUSH2 0x287 PUSH2 0x36D JUMP JUMPDEST JUMPDEST PUSH2 0x291 DUP3 PUSH2 0x3B0 JUMP JUMPDEST SWAP1 POP PUSH1 0x20 DUP2 ADD SWAP1 POP SWAP2 SWAP1 POP JUMP JUMPDEST PUSH1 0x0 DUP2 SWAP1 POP SWAP2 SWAP1 POP JUMP JUMPDEST PUSH1 0x0 JUMPDEST DUP4 DUP2 LT ISZERO PUSH2 0x2C6 JUMPI DUP1 DUP3 ADD MLOAD DUP2 DUP5 ADD MSTORE PUSH1 0x20 DUP2 ADD SWAP1 POP PUSH2 0x2AB JUMP JUMPDEST DUP4 DUP2 GT ISZERO PUSH2 0x2D5 JUMPI PUSH1 0x0 DUP5 DUP5 ADD MSTORE JUMPDEST POP POP POP POP JUMP JUMPDEST PUSH1 0x0 PUSH1 0x2 DUP3 DIV SWAP1 POP PUSH1 0x1 DUP3 AND DUP1 PUSH2 0x2F3 JUMPI PUSH1 0x7F DUP3 AND SWAP2 POP JUMPDEST PUSH1 0x20 DUP3 LT DUP2 EQ ISZERO PUSH2 0x307 JUMPI PUSH2 0x306 PUSH2 0x33E JUMP JUMPDEST JUMPDEST POP SWAP2 SWAP1 POP JUMP JUMPDEST PUSH2 0x316 DUP3 PUSH2 0x3B0 JUMP JUMPDEST DUP2 ADD DUP2 DUP2 LT PUSH8 0xFFFFFFFFFFFFFFFF DUP3 GT OR ISZERO PUSH2 0x335 JUMPI PUSH2 0x334 PUSH2 0x36D JUMP JUMPDEST JUMPDEST DUP1 PUSH1 0x40 MSTORE POP POP POP JUMP JUMPDEST PUSH32 0x4E487B7100000000000000000000000000000000000000000000000000000000 PUSH1 0x0 MSTORE PUSH1 0x22 PUSH1 0x4 MSTORE PUSH1 0x24 PUSH1 0x0 REVERT JUMPDEST PUSH32 0x4E487B7100000000000000000000000000000000000000000000000000000000 PUSH1 0x0 MSTORE PUSH1 0x41 PUSH1 0x4 MSTORE PUSH1 0x24 PUSH1 0x0 REVERT JUMPDEST PUSH1 0x0 DUP1 REVERT JUMPDEST PUSH1 0x0 DUP1 REVERT JUMPDEST PUSH1 0x0 DUP1 REVERT JUMPDEST PUSH1 0x0 DUP1 REVERT JUMPDEST PUSH1 0x0 PUSH1 0x1F NOT PUSH1 0x1F DUP4 ADD AND SWAP1 POP SWAP2 SWAP1 POP JUMP JUMPDEST PUSH2 0x3CA DUP2 PUSH2 0x29E JUMP JUMPDEST DUP2 EQ PUSH2 0x3D5 JUMPI PUSH1 0x0 DUP1 REVERT JUMPDEST POP JUMP JUMPDEST PUSH2 0x377 DUP1 PUSH3 0x3E8 PUSH1 0x0 CODECOPY PUSH1 0x0 RETURN INVALID PUSH1 0x80 PUSH1 0x40 MSTORE CALLVALUE DUP1 ISZERO PUSH2 0x10 JUMPI PUSH1 0x0 DUP1 REVERT JUMPDEST POP PUSH1 0x4 CALLDATASIZE LT PUSH2 0x4C JUMPI PUSH1 0x0 CALLDATALOAD PUSH1 0xE0 SHR DUP1 PUSH4 0x397B652 EQ PUSH2 0x51 JUMPI DUP1 PUSH4 0x6FDDE03 EQ PUSH2 0x6F JUMPI DUP1 PUSH4 0x262A9DFF EQ PUSH2 0x8D JUMPI DUP1 PUSH4 0x4F2BE91F EQ PUSH2 0xAB JUMPI JUMPDEST PUSH1 0x0 DUP1 REVERT JUMPDEST PUSH2 0x59 PUSH2 0xC9 JUMP JUMPDEST PUSH1 0x40 MLOAD PUSH2 0x66 SWAP2 SWAP1 PUSH2 0x25B JUMP JUMPDEST PUSH1 0x40 MLOAD DUP1 SWAP2 SUB SWAP1 RETURN JUMPDEST PUSH2 0x77 PUSH2 0xCF JUMP JUMPDEST PUSH1 0x40 MLOAD PUSH2 0x84 SWAP2 SWAP1 PUSH2 0x239 JUMP JUMPDEST PUSH1 0x40 MLOAD DUP1 SWAP2 SUB SWAP1 RETURN JUMPDEST PUSH2 0x95 PUSH2 0x15D JUMP JUMPDEST PUSH1 0x40 MLOAD PUSH2 0xA2 SWAP2 SWAP1 PUSH2 0x25B JUMP JUMPDEST PUSH1 0x40 MLOAD DUP1 SWAP2 SUB SWAP1 RETURN JUMPDEST PUSH2 0xB3 PUSH2 0x163 JUMP JUMPDEST PUSH1 0x40 MLOAD PUSH2 0xC0 SWAP2 SWAP1 PUSH2 0x239 JUMP JUMPDEST PUSH1 0x40 MLOAD DUP1 SWAP2 SUB SWAP1 RETURN JUMPDEST PUSH1 0x1 SLOAD DUP2 JUMP JUMPDEST PUSH1 0x2 DUP1 SLOAD PUSH2 0xDC SWAP1 PUSH2 0x2CF JUMP JUMPDEST DUP1 PUSH1 0x1F ADD PUSH1 0x20 DUP1 SWAP2 DIV MUL PUSH1 0x20 ADD PUSH1 0x40 MLOAD SWAP1 DUP2 ADD PUSH1 0x40 MSTORE DUP1 SWAP3 SWAP2 SWAP1 DUP2 DUP2 MSTORE PUSH1 0x20 ADD DUP3 DUP1 SLOAD PUSH2 0x108 SWAP1 PUSH2 0x2CF JUMP JUMPDEST DUP1 ISZERO PUSH2 0x155 JUMPI DUP1 PUSH1 0x1F LT PUSH2 0x12A JUMPI PUSH2 0x100 DUP1 DUP4 SLOAD DIV MUL DUP4 MSTORE SWAP2 PUSH1 0x20 ADD SWAP2 PUSH2 0x155 JUMP JUMPDEST DUP3 ADD SWAP2 SWAP1 PUSH1 0x0 MSTORE PUSH1 0x20 PUSH1 0x0 KECCAK256 SWAP1 JUMPDEST DUP2 SLOAD DUP2 MSTORE SWAP1 PUSH1 0x1 ADD SWAP1 PUSH1 0x20 ADD DUP1 DUP4 GT PUSH2 0x138 JUMPI DUP3 SWAP1 SUB PUSH1 0x1F AND DUP3 ADD SWAP2 JUMPDEST POP POP POP POP POP DUP2 JUMP JUMPDEST PUSH1 0x3 SLOAD DUP2 JUMP JUMPDEST PUSH1 0x0 DUP1 SLOAD PUSH2 0x170 SWAP1 PUSH2 0x2CF JUMP JUMPDEST DUP1 PUSH1 0x1F ADD PUSH1 0x20 DUP1 SWAP2 DIV MUL PUSH1 0x20 ADD PUSH1 0x40 MLOAD SWAP1 DUP2 ADD PUSH1 0x40 MSTORE DUP1 SWAP3 SWAP2 SWAP1 DUP2 DUP2 MSTORE PUSH1 0x20 ADD DUP3 DUP1 SLOAD PUSH2 0x19C SWAP1 PUSH2 0x2CF JUMP JUMPDEST DUP1 ISZERO PUSH2 0x1E9 JUMPI DUP1 PUSH1 0x1F LT PUSH2 0x1BE JUMPI PUSH2 0x100 DUP1 DUP4 SLOAD DIV MUL DUP4 MSTORE SWAP2 PUSH1 0x20 ADD SWAP2 PUSH2 0x1E9 JUMP JUMPDEST DUP3 ADD SWAP2 SWAP1 PUSH1 0x0 MSTORE PUSH1 0x20 PUSH1 0x0 KECCAK256 SWAP1 JUMPDEST DUP2 SLOAD DUP2 MSTORE SWAP1 PUSH1 0x1 ADD SWAP1 PUSH1 0x20 ADD DUP1 DUP4 GT PUSH2 0x1CC JUMPI DUP3 SWAP1 SUB PUSH1 0x1F AND DUP3 ADD SWAP2 JUMPDEST POP POP POP POP POP DUP2 JUMP JUMPDEST PUSH1 0x0 PUSH2 0x1FC DUP3 PUSH2 0x276 JUMP JUMPDEST PUSH2 0x206 DUP2 DUP6 PUSH2 0x281 JUMP JUMPDEST SWAP4 POP PUSH2 0x216 DUP2 DUP6 PUSH1 0x20 DUP7 ADD PUSH2 0x29C JUMP JUMPDEST PUSH2 0x21F DUP2 PUSH2 0x330 JUMP JUMPDEST DUP5 ADD SWAP2 POP POP SWAP3 SWAP2 POP POP JUMP JUMPDEST PUSH2 0x233 DUP2 PUSH2 0x292 JUMP JUMPDEST DUP3 MSTORE POP POP JUMP JUMPDEST PUSH1 0x0 PUSH1 0x20 DUP3 ADD SWAP1 POP DUP2 DUP2 SUB PUSH1 0x0 DUP4 ADD MSTORE PUSH2 0x253 DUP2 DUP5 PUSH2 0x1F1 JUMP JUMPDEST SWAP1 POP SWAP3 SWAP2 POP POP JUMP JUMPDEST PUSH1 0x0 PUSH1 0x20 DUP3 ADD SWAP1 POP PUSH2 0x270 PUSH1 0x0 DUP4 ADD DUP5 PUSH2 0x22A JUMP JUMPDEST SWAP3 SWAP2 POP POP JUMP JUMPDEST PUSH1 0x0 DUP2 MLOAD SWAP1 POP SWAP2 SWAP1 POP JUMP JUMPDEST PUSH1 0x0 DUP3 DUP3 MSTORE PUSH1 0x20 DUP3 ADD SWAP1 POP SWAP3 SWAP2 POP POP JUMP JUMPDEST PUSH1 0x0 DUP2 SWAP1 POP SWAP2 SWAP1 POP JUMP JUMPDEST PUSH1 0x0 JUMPDEST DUP4 DUP2 LT ISZERO PUSH2 0x2BA JUMPI DUP1 DUP3 ADD MLOAD DUP2 DUP5 ADD MSTORE PUSH1 0x20 DUP2 ADD SWAP1 POP PUSH2 0x29F JUMP JUMPDEST DUP4 DUP2 GT ISZERO PUSH2 0x2C9 JUMPI PUSH1 0x0 DUP5 DUP5 ADD MSTORE JUMPDEST POP POP POP POP JUMP JUMPDEST PUSH1 0x0 PUSH1 0x2 DUP3 DIV SWAP1 POP PUSH1 0x1 DUP3 AND DUP1 PUSH2 0x2E7 JUMPI PUSH1 0x7F DUP3 AND SWAP2 POP JUMPDEST PUSH1 0x20 DUP3 LT DUP2 EQ ISZERO PUSH2 0x2FB JUMPI PUSH2 0x2FA PUSH2 0x301 JUMP JUMPDEST JUMPDEST POP SWAP2 SWAP1 POP JUMP JUMPDEST PUSH32 0x4E487B7100000000000000000000000000000000000000000000000000000000 PUSH1 0x0 MSTORE PUSH1 0x22 PUSH1 0x4 MSTORE PUSH1 0x24 PUSH1 0x0 REVERT JUMPDEST PUSH1 0x0 PUSH1 0x1F NOT PUSH1 0x1F DUP4 ADD AND SWAP1 POP SWAP2 SWAP1 POP JUMP INVALID LOG2 PUSH5 0x6970667358 0x22 SLT KECCAK256 0xBC 0xB6 0xAD 0xB4 DUP12 GASLIMIT SWAP6 0x1E 0xAA 0x1E TIMESTAMP CALL CALLER 0xE5 0xEC 0x2B OR SMOD 0x4B 0x4F DUP5 JUMP 0xBC PUSH10 0x7C3463BAB3AC00286473 PUSH16 0x6C634300080700330000000000000000 "
				},
				"gasEstimates": {
					"creation": {
						"codeDepositCost": "177400",
						"executionCost": "infinite",
						"totalCost": "infinite"
					},
					"external": {
						"add()": "infinite",
						"age()": "2451",
						"name()": "infinite",
						"salary()": "2407"
					}
				},
				"methodIdentifiers": {
					"add()": "4f2be91f",
					"age()": "262a9dff",
					"name()": "06fdde03",
					"salary()": "0397b652"
				}
			},
			"storageLayout": {
				"storage": [
					{
						"astId": 24,
						"contract": "passingParamterInMultipleInheritance.sol:E",
						"label": "add",
						"offset": 0,
						"slot": "0",
						"type": "t_string_storage"
					},
					{
						"astId": 26,
						"contract": "passingParamterInMultipleInheritance.sol:E",
						"label": "salary",
						"offset": 0,
						"slot": "1",
						"type": "t_uint256"
					},
					{
						"astId": 3,
						"contract": "passingParamterInMultipleInheritance.sol:E",
						"label": "name",
						"offset": 0,
						"slot": "2",
						"type": "t_string_storage"
					},
					{
						"astId": 5,
						"contract": "passingParamterInMultipleInheritance.sol:E",
						"label": "age",
						"offset": 0,
						"slot": "3",
						"type": "t_uint256"
					}
				],
				"types": {
					"t_string_storage": {
						"encoding": "bytes",
						"label": "string",
						"numberOfBytes": "32"
					},
					"t_uint256": {
						"encoding": "inplace",
						"label": "uint256",
						"numberOfBytes": "32"
					}
				}
			},
			"userdoc": {
				"kind": "user",
				"methods": {},
				"version": 1
			}
		}
	}
}