{
	"dynamicsizearr.sol": {
		"fixedsizearray": {
			"abi": [
				{
					"inputs": [],
					"name": "getArrayLength",
					"outputs": [
						{
							"internalType": "uint256",
							"name": "",
							"type": "uint256"
						}
					],
					"stateMutability": "view",
					"type": "function"
				},
				{
					"inputs": [],
					"name": "getarr",
					"outputs": [
						{
							"internalType": "uint256[]",
							"name": "",
							"type": "uint256[]"
						}
					],
					"stateMutability": "view",
					"type": "function"
				},
				{
					"inputs": [],
					"name": "getstatus",
					"outputs": [
						{
							"internalType": "string",
							"name": "",
							"type": "string"
						}
					],
					"stateMutability": "view",
					"type": "function"
				},
				{
					"inputs": [],
					"name": "getupdate",
					"outputs": [
						{
							"internalType": "string",
							"name": "",
							"type": "string"
						}
					],
					"stateMutability": "view",
					"type": "function"
				},
				{
					"inputs": [],
					"name": "pushnum",
					"outputs": [
						{
							"internalType": "uint256[]",
							"name": "",
							"type": "uint256[]"
						}
					],
					"stateMutability": "view",
					"type": "function"
				},
				{
					"inputs": [],
					"name": "simpleoushinarr",
					"outputs": [],
					"stateMutability": "nonpayable",
					"type": "function"
				},
				{
					"inputs": [
						{
							"internalType": "uint256",
							"name": "_pos",
							"type": "uint256"
						},
						{
							"internalType": "uint256",
							"name": "_value",
							"type": "uint256"
						}
					],
					"name": "updatearr",
					"outputs": [],
					"stateMutability": "nonpayable",
					"type": "function"
				}
			],
			"devdoc": {
				"kind": "dev",
				"methods": {},
				"version": 1
			},
			"evm": {
				"assembly": "    /* \"dynamicsizearr.sol\":63:1681  contract fixedsizearray{... */\n  mstore(0x40, 0x80)\n    /* \"dynamicsizearr.sol\":112:145  uint[] arr = [10, 20, 30, 40, 50] */\n  mload(0x40)\n  dup1\n  0xa0\n  add\n  0x40\n  mstore\n  dup1\n    /* \"dynamicsizearr.sol\":126:128  10 */\n  0x0a\n    /* \"dynamicsizearr.sol\":112:145  uint[] arr = [10, 20, 30, 40, 50] */\n  0xff\n  and\n  dup2\n  mstore\n  0x20\n  add\n    /* \"dynamicsizearr.sol\":130:132  20 */\n  0x14\n    /* \"dynamicsizearr.sol\":112:145  uint[] arr = [10, 20, 30, 40, 50] */\n  0xff\n  and\n  dup2\n  mstore\n  0x20\n  add\n    /* \"dynamicsizearr.sol\":134:136  30 */\n  0x1e\n    /* \"dynamicsizearr.sol\":112:145  uint[] arr = [10, 20, 30, 40, 50] */\n  0xff\n  and\n  dup2\n  mstore\n  0x20\n  add\n    /* \"dynamicsizearr.sol\":138:140  40 */\n  0x28\n    /* \"dynamicsizearr.sol\":112:145  uint[] arr = [10, 20, 30, 40, 50] */\n  0xff\n  and\n  dup2\n  mstore\n  0x20\n  add\n    /* \"dynamicsizearr.sol\":142:144  50 */\n  0x32\n    /* \"dynamicsizearr.sol\":112:145  uint[] arr = [10, 20, 30, 40, 50] */\n  0xff\n  and\n  dup2\n  mstore\n  pop\n  0x01\n  swap1\n  0x05\n  tag_1\n  swap3\n  swap2\n  swap1\n  tag_2\n  jump\t// in\ntag_1:\n  pop\n    /* \"dynamicsizearr.sol\":63:1681  contract fixedsizearray{... */\n  callvalue\n  dup1\n  iszero\n  tag_3\n  jumpi\n  0x00\n  dup1\n  revert\ntag_3:\n  pop\n  jump(tag_4)\ntag_2:\n  dup3\n  dup1\n  sload\n  dup3\n  dup3\n  sstore\n  swap1\n  0x00\n  mstore\n  keccak256(0x00, 0x20)\n  swap1\n  dup2\n  add\n  swap3\n  dup3\n  iszero\n  tag_5\n  jumpi\n  swap2\n  0x20\n  mul\n  dup3\n  add\ntag_6:\n  dup3\n  dup2\n  gt\n  iszero\n  tag_7\n  jumpi\n  dup3\n  mload\n  dup3\n  swap1\n  0xff\n  and\n  swap1\n  sstore\n  swap2\n  0x20\n  add\n  swap2\n  swap1\n  0x01\n  add\n  swap1\n  jump(tag_6)\ntag_7:\ntag_5:\n  pop\n  swap1\n  pop\n  tag_8\n  swap2\n  swap1\n  tag_9\n  jump\t// in\ntag_8:\n  pop\n  swap1\n  jump\t// out\ntag_9:\ntag_10:\n  dup1\n  dup3\n  gt\n  iszero\n  tag_11\n  jumpi\n  0x00\n  dup2\n  0x00\n  swap1\n  sstore\n  pop\n  0x01\n  add\n  jump(tag_10)\ntag_11:\n  pop\n  swap1\n  jump\t// out\ntag_4:\n  dataSize(sub_0)\n  dup1\n  dataOffset(sub_0)\n  0x00\n  codecopy\n  0x00\n  return\nstop\n\nsub_0: assembly {\n        /* \"dynamicsizearr.sol\":63:1681  contract fixedsizearray{... */\n      mstore(0x40, 0x80)\n      callvalue\n      dup1\n      iszero\n      tag_1\n      jumpi\n      0x00\n      dup1\n      revert\n    tag_1:\n      pop\n      jumpi(tag_2, lt(calldatasize, 0x04))\n      shr(0xe0, calldataload(0x00))\n      dup1\n      0x4678f832\n      gt\n      tag_10\n      jumpi\n      dup1\n      0x4678f832\n      eq\n      tag_6\n      jumpi\n      dup1\n      0x6bc7deae\n      eq\n      tag_7\n      jumpi\n      dup1\n      0x9fd44f5a\n      eq\n      tag_8\n      jumpi\n      dup1\n      0xa80c52e9\n      eq\n      tag_9\n      jumpi\n      jump(tag_2)\n    tag_10:\n      dup1\n      0x0469a5e2\n      eq\n      tag_3\n      jumpi\n      dup1\n      0x0849cc99\n      eq\n      tag_4\n      jumpi\n      dup1\n      0x3b0b0290\n      eq\n      tag_5\n      jumpi\n    tag_2:\n      0x00\n      dup1\n      revert\n        /* \"dynamicsizearr.sol\":1573:1679  function pushnum() public view returns(uint[] memory){... */\n    tag_3:\n      tag_11\n      tag_12\n      jump\t// in\n    tag_11:\n      mload(0x40)\n      tag_13\n      swap2\n      swap1\n      tag_14\n      jump\t// in\n    tag_13:\n      mload(0x40)\n      dup1\n      swap2\n      sub\n      swap1\n      return\n        /* \"dynamicsizearr.sol\":347:432  function getArrayLength() public view returns(uint){... */\n    tag_4:\n      tag_15\n      tag_16\n      jump\t// in\n    tag_15:\n      mload(0x40)\n      tag_17\n      swap2\n      swap1\n      tag_18\n      jump\t// in\n    tag_17:\n      mload(0x40)\n      dup1\n      swap2\n      sub\n      swap1\n      return\n        /* \"dynamicsizearr.sol\":256:341  function getstatus() public view returns(string memory){... */\n    tag_5:\n      tag_19\n      tag_20\n      jump\t// in\n    tag_19:\n      mload(0x40)\n      tag_21\n      swap2\n      swap1\n      tag_22\n      jump\t// in\n    tag_21:\n      mload(0x40)\n      dup1\n      swap2\n      sub\n      swap1\n      return\n        /* \"dynamicsizearr.sol\":1413:1498  function getupdate() public view returns(string memory){... */\n    tag_6:\n      tag_23\n      tag_24\n      jump\t// in\n    tag_23:\n      mload(0x40)\n      tag_25\n      swap2\n      swap1\n      tag_22\n      jump\t// in\n    tag_25:\n      mload(0x40)\n      dup1\n      swap2\n      sub\n      swap1\n      return\n        /* \"dynamicsizearr.sol\":171:250  function getarr() public view returns(uint[] memory){... */\n    tag_7:\n      tag_26\n      tag_27\n      jump\t// in\n    tag_26:\n      mload(0x40)\n      tag_28\n      swap2\n      swap1\n      tag_14\n      jump\t// in\n    tag_28:\n      mload(0x40)\n      dup1\n      swap2\n      sub\n      swap1\n      return\n        /* \"dynamicsizearr.sol\":911:1407  function updatearr(uint _pos, uint _value) public{... */\n    tag_8:\n      tag_29\n      0x04\n      dup1\n      calldatasize\n      sub\n      dup2\n      add\n      swap1\n      tag_30\n      swap2\n      swap1\n      tag_31\n      jump\t// in\n    tag_30:\n      tag_32\n      jump\t// in\n    tag_29:\n      stop\n        /* \"dynamicsizearr.sol\":1504:1567  function simpleoushinarr() public{... */\n    tag_9:\n      tag_33\n      tag_34\n      jump\t// in\n    tag_33:\n      stop\n        /* \"dynamicsizearr.sol\":1573:1679  function pushnum() public view returns(uint[] memory){... */\n    tag_12:\n        /* \"dynamicsizearr.sol\":1612:1625  uint[] memory */\n      0x60\n        /* \"dynamicsizearr.sol\":1669:1672  arr */\n      0x01\n        /* \"dynamicsizearr.sol\":1662:1672  return arr */\n      dup1\n      sload\n      dup1\n      0x20\n      mul\n      0x20\n      add\n      mload(0x40)\n      swap1\n      dup2\n      add\n      0x40\n      mstore\n      dup1\n      swap3\n      swap2\n      swap1\n      dup2\n      dup2\n      mstore\n      0x20\n      add\n      dup3\n      dup1\n      sload\n      dup1\n      iszero\n      tag_36\n      jumpi\n      0x20\n      mul\n      dup3\n      add\n      swap2\n      swap1\n      0x00\n      mstore\n      keccak256(0x00, 0x20)\n      swap1\n    tag_37:\n      dup2\n      sload\n      dup2\n      mstore\n      0x20\n      add\n      swap1\n      0x01\n      add\n      swap1\n      dup1\n      dup4\n      gt\n      tag_37\n      jumpi\n    tag_36:\n      pop\n      pop\n      pop\n      pop\n      pop\n      swap1\n      pop\n        /* \"dynamicsizearr.sol\":1573:1679  function pushnum() public view returns(uint[] memory){... */\n      swap1\n      jump\t// out\n        /* \"dynamicsizearr.sol\":347:432  function getArrayLength() public view returns(uint){... */\n    tag_16:\n        /* \"dynamicsizearr.sol\":393:397  uint */\n      0x00\n        /* \"dynamicsizearr.sol\":415:418  arr */\n      0x01\n        /* \"dynamicsizearr.sol\":415:425  arr.length */\n      dup1\n      sload\n      swap1\n      pop\n        /* \"dynamicsizearr.sol\":408:425  return arr.length */\n      swap1\n      pop\n        /* \"dynamicsizearr.sol\":347:432  function getArrayLength() public view returns(uint){... */\n      swap1\n      jump\t// out\n        /* \"dynamicsizearr.sol\":256:341  function getstatus() public view returns(string memory){... */\n    tag_20:\n        /* \"dynamicsizearr.sol\":297:310  string memory */\n      0x60\n        /* \"dynamicsizearr.sol\":328:334  status */\n      0x00\n        /* \"dynamicsizearr.sol\":321:334  return status */\n      dup1\n      sload\n      tag_40\n      swap1\n      tag_41\n      jump\t// in\n    tag_40:\n      dup1\n      0x1f\n      add\n      0x20\n      dup1\n      swap2\n      div\n      mul\n      0x20\n      add\n      mload(0x40)\n      swap1\n      dup2\n      add\n      0x40\n      mstore\n      dup1\n      swap3\n      swap2\n      swap1\n      dup2\n      dup2\n      mstore\n      0x20\n      add\n      dup3\n      dup1\n      sload\n      tag_42\n      swap1\n      tag_41\n      jump\t// in\n    tag_42:\n      dup1\n      iszero\n      tag_43\n      jumpi\n      dup1\n      0x1f\n      lt\n      tag_44\n      jumpi\n      0x0100\n      dup1\n      dup4\n      sload\n      div\n      mul\n      dup4\n      mstore\n      swap2\n      0x20\n      add\n      swap2\n      jump(tag_43)\n    tag_44:\n      dup3\n      add\n      swap2\n      swap1\n      0x00\n      mstore\n      keccak256(0x00, 0x20)\n      swap1\n    tag_45:\n      dup2\n      sload\n      dup2\n      mstore\n      swap1\n      0x01\n      add\n      swap1\n      0x20\n      add\n      dup1\n      dup4\n      gt\n      tag_45\n      jumpi\n      dup3\n      swap1\n      sub\n      0x1f\n      and\n      dup3\n      add\n      swap2\n    tag_43:\n      pop\n      pop\n      pop\n      pop\n      pop\n      swap1\n      pop\n        /* \"dynamicsizearr.sol\":256:341  function getstatus() public view returns(string memory){... */\n      swap1\n      jump\t// out\n        /* \"dynamicsizearr.sol\":1413:1498  function getupdate() public view returns(string memory){... */\n    tag_24:\n        /* \"dynamicsizearr.sol\":1454:1467  string memory */\n      0x60\n        /* \"dynamicsizearr.sol\":1485:1491  status */\n      0x00\n        /* \"dynamicsizearr.sol\":1478:1491  return status */\n      dup1\n      sload\n      tag_47\n      swap1\n      tag_41\n      jump\t// in\n    tag_47:\n      dup1\n      0x1f\n      add\n      0x20\n      dup1\n      swap2\n      div\n      mul\n      0x20\n      add\n      mload(0x40)\n      swap1\n      dup2\n      add\n      0x40\n      mstore\n      dup1\n      swap3\n      swap2\n      swap1\n      dup2\n      dup2\n      mstore\n      0x20\n      add\n      dup3\n      dup1\n      sload\n      tag_48\n      swap1\n      tag_41\n      jump\t// in\n    tag_48:\n      dup1\n      iszero\n      tag_49\n      jumpi\n      dup1\n      0x1f\n      lt\n      tag_50\n      jumpi\n      0x0100\n      dup1\n      dup4\n      sload\n      div\n      mul\n      dup4\n      mstore\n      swap2\n      0x20\n      add\n      swap2\n      jump(tag_49)\n    tag_50:\n      dup3\n      add\n      swap2\n      swap1\n      0x00\n      mstore\n      keccak256(0x00, 0x20)\n      swap1\n    tag_51:\n      dup2\n      sload\n      dup2\n      mstore\n      swap1\n      0x01\n      add\n      swap1\n      0x20\n      add\n      dup1\n      dup4\n      gt\n      tag_51\n      jumpi\n      dup3\n      swap1\n      sub\n      0x1f\n      and\n      dup3\n      add\n      swap2\n    tag_49:\n      pop\n      pop\n      pop\n      pop\n      pop\n      swap1\n      pop\n        /* \"dynamicsizearr.sol\":1413:1498  function getupdate() public view returns(string memory){... */\n      swap1\n      jump\t// out\n        /* \"dynamicsizearr.sol\":171:250  function getarr() public view returns(uint[] memory){... */\n    tag_27:\n        /* \"dynamicsizearr.sol\":209:222  uint[] memory */\n      0x60\n        /* \"dynamicsizearr.sol\":240:243  arr */\n      0x01\n        /* \"dynamicsizearr.sol\":233:243  return arr */\n      dup1\n      sload\n      dup1\n      0x20\n      mul\n      0x20\n      add\n      mload(0x40)\n      swap1\n      dup2\n      add\n      0x40\n      mstore\n      dup1\n      swap3\n      swap2\n      swap1\n      dup2\n      dup2\n      mstore\n      0x20\n      add\n      dup3\n      dup1\n      sload\n      dup1\n      iszero\n      tag_53\n      jumpi\n      0x20\n      mul\n      dup3\n      add\n      swap2\n      swap1\n      0x00\n      mstore\n      keccak256(0x00, 0x20)\n      swap1\n    tag_54:\n      dup2\n      sload\n      dup2\n      mstore\n      0x20\n      add\n      swap1\n      0x01\n      add\n      swap1\n      dup1\n      dup4\n      gt\n      tag_54\n      jumpi\n    tag_53:\n      pop\n      pop\n      pop\n      pop\n      pop\n      swap1\n      pop\n        /* \"dynamicsizearr.sol\":171:250  function getarr() public view returns(uint[] memory){... */\n      swap1\n      jump\t// out\n        /* \"dynamicsizearr.sol\":911:1407  function updatearr(uint _pos, uint _value) public{... */\n    tag_32:\n        /* \"dynamicsizearr.sol\":970:987  status = \"ABABAB\" */\n      mload(0x40)\n      dup1\n      0x40\n      add\n      0x40\n      mstore\n      dup1\n      0x06\n      dup2\n      mstore\n      0x20\n      add\n      0x4142414241420000000000000000000000000000000000000000000000000000\n      dup2\n      mstore\n      pop\n        /* \"dynamicsizearr.sol\":970:976  status */\n      0x00\n        /* \"dynamicsizearr.sol\":970:987  status = \"ABABAB\" */\n      swap1\n      dup1\n      mload\n      swap1\n      0x20\n      add\n      swap1\n      tag_56\n      swap3\n      swap2\n      swap1\n      tag_57\n      jump\t// in\n    tag_56:\n      pop\n        /* \"dynamicsizearr.sol\":1014:1018  _pos */\n      dup2\n        /* \"dynamicsizearr.sol\":1000:1003  arr */\n      0x01\n        /* \"dynamicsizearr.sol\":1000:1010  arr.length */\n      dup1\n      sload\n      swap1\n      pop\n        /* \"dynamicsizearr.sol\":1000:1018  arr.length  > _pos */\n      gt\n        /* \"dynamicsizearr.sol\":997:1400  if(arr.length  > _pos){... */\n      iszero\n      tag_58\n      jumpi\n        /* \"dynamicsizearr.sol\":1045:1051  _value */\n      dup1\n        /* \"dynamicsizearr.sol\":1033:1036  arr */\n      0x01\n        /* \"dynamicsizearr.sol\":1037:1041  _pos */\n      dup4\n        /* \"dynamicsizearr.sol\":1033:1042  arr[_pos] */\n      dup2\n      sload\n      dup2\n      lt\n      tag_59\n      jumpi\n      tag_60\n      tag_61\n      jump\t// in\n    tag_60:\n    tag_59:\n      swap1\n      0x00\n      mstore\n      keccak256(0x00, 0x20)\n      add\n        /* \"dynamicsizearr.sol\":1033:1051  arr[_pos] = _value */\n      dup2\n      swap1\n      sstore\n      pop\n        /* \"dynamicsizearr.sol\":1065:1098  status = \"update existing string\" */\n      mload(0x40)\n      dup1\n      0x40\n      add\n      0x40\n      mstore\n      dup1\n      0x16\n      dup2\n      mstore\n      0x20\n      add\n      0x757064617465206578697374696e6720737472696e6700000000000000000000\n      dup2\n      mstore\n      pop\n        /* \"dynamicsizearr.sol\":1065:1071  status */\n      0x00\n        /* \"dynamicsizearr.sol\":1065:1098  status = \"update existing string\" */\n      swap1\n      dup1\n      mload\n      swap1\n      0x20\n      add\n      swap1\n      tag_63\n      swap3\n      swap2\n      swap1\n      tag_57\n      jump\t// in\n    tag_63:\n      pop\n        /* \"dynamicsizearr.sol\":997:1400  if(arr.length  > _pos){... */\n      jump(tag_64)\n    tag_58:\n        /* \"dynamicsizearr.sol\":1131:1137  uint i */\n      0x00\n        /* \"dynamicsizearr.sol\":1140:1143  arr */\n      0x01\n        /* \"dynamicsizearr.sol\":1140:1150  arr.length */\n      dup1\n      sload\n      swap1\n      pop\n        /* \"dynamicsizearr.sol\":1131:1150  uint i = arr.length */\n      swap1\n      pop\n        /* \"dynamicsizearr.sol\":1127:1350  for(uint i = arr.length; i<=_pos; i++){... */\n    tag_65:\n        /* \"dynamicsizearr.sol\":1155:1159  _pos */\n      dup3\n        /* \"dynamicsizearr.sol\":1152:1153  i */\n      dup2\n        /* \"dynamicsizearr.sol\":1152:1159  i<=_pos */\n      gt\n        /* \"dynamicsizearr.sol\":1127:1350  for(uint i = arr.length; i<=_pos; i++){... */\n      tag_66\n      jumpi\n        /* \"dynamicsizearr.sol\":1202:1206  _pos */\n      dup3\n        /* \"dynamicsizearr.sol\":1197:1198  1 */\n      0x01\n        /* \"dynamicsizearr.sol\":1186:1189  arr */\n      dup1\n        /* \"dynamicsizearr.sol\":1186:1196  arr.length */\n      dup1\n      sload\n      swap1\n      pop\n        /* \"dynamicsizearr.sol\":1186:1198  arr.length-1 */\n      tag_68\n      swap2\n      swap1\n      tag_69\n      jump\t// in\n    tag_68:\n        /* \"dynamicsizearr.sol\":1186:1206  arr.length-1 != _pos */\n      eq\n        /* \"dynamicsizearr.sol\":1183:1320  if(arr.length-1 != _pos){... */\n      tag_70\n      jumpi\n        /* \"dynamicsizearr.sol\":1229:1232  arr */\n      0x01\n        /* \"dynamicsizearr.sol\":1238:1239  0 */\n      0x00\n        /* \"dynamicsizearr.sol\":1229:1240  arr.push(0) */\n      swap1\n      dup1\n      0x01\n      dup2\n      sload\n      add\n      dup1\n      dup3\n      sstore\n      dup1\n      swap2\n      pop\n      pop\n      0x01\n      swap1\n      sub\n      swap1\n      0x00\n      mstore\n      keccak256(0x00, 0x20)\n      add\n      0x00\n      swap1\n      swap2\n      swap1\n      swap2\n      swap1\n      swap2\n      pop\n      sstore\n        /* \"dynamicsizearr.sol\":1183:1320  if(arr.length-1 != _pos){... */\n      jump(tag_72)\n    tag_70:\n        /* \"dynamicsizearr.sol\":1282:1285  arr */\n      0x01\n        /* \"dynamicsizearr.sol\":1291:1297  _value */\n      dup3\n        /* \"dynamicsizearr.sol\":1282:1298  arr.push(_value) */\n      swap1\n      dup1\n      0x01\n      dup2\n      sload\n      add\n      dup1\n      dup3\n      sstore\n      dup1\n      swap2\n      pop\n      pop\n      0x01\n      swap1\n      sub\n      swap1\n      0x00\n      mstore\n      keccak256(0x00, 0x20)\n      add\n      0x00\n      swap1\n      swap2\n      swap1\n      swap2\n      swap1\n      swap2\n      pop\n      sstore\n        /* \"dynamicsizearr.sol\":1183:1320  if(arr.length-1 != _pos){... */\n    tag_72:\n        /* \"dynamicsizearr.sol\":1161:1164  i++ */\n      dup1\n      dup1\n      tag_74\n      swap1\n      tag_75\n      jump\t// in\n    tag_74:\n      swap2\n      pop\n      pop\n        /* \"dynamicsizearr.sol\":1127:1350  for(uint i = arr.length; i<=_pos; i++){... */\n      jump(tag_65)\n    tag_66:\n      pop\n        /* \"dynamicsizearr.sol\":1363:1389  status=\"In Else Condition\" */\n      mload(0x40)\n      dup1\n      0x40\n      add\n      0x40\n      mstore\n      dup1\n      0x11\n      dup2\n      mstore\n      0x20\n      add\n      0x496e20456c736520436f6e646974696f6e000000000000000000000000000000\n      dup2\n      mstore\n      pop\n        /* \"dynamicsizearr.sol\":1363:1369  status */\n      0x00\n        /* \"dynamicsizearr.sol\":1363:1389  status=\"In Else Condition\" */\n      swap1\n      dup1\n      mload\n      swap1\n      0x20\n      add\n      swap1\n      tag_76\n      swap3\n      swap2\n      swap1\n      tag_57\n      jump\t// in\n    tag_76:\n      pop\n        /* \"dynamicsizearr.sol\":997:1400  if(arr.length  > _pos){... */\n    tag_64:\n        /* \"dynamicsizearr.sol\":911:1407  function updatearr(uint _pos, uint _value) public{... */\n      pop\n      pop\n      jump\t// out\n        /* \"dynamicsizearr.sol\":1504:1567  function simpleoushinarr() public{... */\n    tag_34:\n        /* \"dynamicsizearr.sol\":1547:1550  arr */\n      0x01\n        /* \"dynamicsizearr.sol\":1556:1559  123 */\n      0x7b\n        /* \"dynamicsizearr.sol\":1547:1560  arr.push(123) */\n      swap1\n      dup1\n      0x01\n      dup2\n      sload\n      add\n      dup1\n      dup3\n      sstore\n      dup1\n      swap2\n      pop\n      pop\n      0x01\n      swap1\n      sub\n      swap1\n      0x00\n      mstore\n      keccak256(0x00, 0x20)\n      add\n      0x00\n      swap1\n      swap2\n      swap1\n      swap2\n      swap1\n      swap2\n      pop\n      sstore\n        /* \"dynamicsizearr.sol\":1504:1567  function simpleoushinarr() public{... */\n      jump\t// out\n    tag_57:\n      dup3\n      dup1\n      sload\n      tag_79\n      swap1\n      tag_41\n      jump\t// in\n    tag_79:\n      swap1\n      0x00\n      mstore\n      keccak256(0x00, 0x20)\n      swap1\n      0x1f\n      add\n      0x20\n      swap1\n      div\n      dup2\n      add\n      swap3\n      dup3\n      tag_81\n      jumpi\n      0x00\n      dup6\n      sstore\n      jump(tag_80)\n    tag_81:\n      dup3\n      0x1f\n      lt\n      tag_82\n      jumpi\n      dup1\n      mload\n      not(0xff)\n      and\n      dup4\n      dup1\n      add\n      or\n      dup6\n      sstore\n      jump(tag_80)\n    tag_82:\n      dup3\n      dup1\n      add\n      0x01\n      add\n      dup6\n      sstore\n      dup3\n      iszero\n      tag_80\n      jumpi\n      swap2\n      dup3\n      add\n    tag_83:\n      dup3\n      dup2\n      gt\n      iszero\n      tag_84\n      jumpi\n      dup3\n      mload\n      dup3\n      sstore\n      swap2\n      0x20\n      add\n      swap2\n      swap1\n      0x01\n      add\n      swap1\n      jump(tag_83)\n    tag_84:\n    tag_80:\n      pop\n      swap1\n      pop\n      tag_85\n      swap2\n      swap1\n      tag_86\n      jump\t// in\n    tag_85:\n      pop\n      swap1\n      jump\t// out\n    tag_86:\n    tag_87:\n      dup1\n      dup3\n      gt\n      iszero\n      tag_88\n      jumpi\n      0x00\n      dup2\n      0x00\n      swap1\n      sstore\n      pop\n      0x01\n      add\n      jump(tag_87)\n    tag_88:\n      pop\n      swap1\n      jump\t// out\n        /* \"#utility.yul\":7:146   */\n    tag_90:\n        /* \"#utility.yul\":53:58   */\n      0x00\n        /* \"#utility.yul\":91:97   */\n      dup2\n        /* \"#utility.yul\":78:98   */\n      calldataload\n        /* \"#utility.yul\":69:98   */\n      swap1\n      pop\n        /* \"#utility.yul\":107:140   */\n      tag_92\n        /* \"#utility.yul\":134:139   */\n      dup2\n        /* \"#utility.yul\":107:140   */\n      tag_93\n      jump\t// in\n    tag_92:\n        /* \"#utility.yul\":7:146   */\n      swap3\n      swap2\n      pop\n      pop\n      jump\t// out\n        /* \"#utility.yul\":152:626   */\n    tag_31:\n        /* \"#utility.yul\":220:226   */\n      0x00\n        /* \"#utility.yul\":228:234   */\n      dup1\n        /* \"#utility.yul\":277:279   */\n      0x40\n        /* \"#utility.yul\":265:274   */\n      dup4\n        /* \"#utility.yul\":256:263   */\n      dup6\n        /* \"#utility.yul\":252:275   */\n      sub\n        /* \"#utility.yul\":248:280   */\n      slt\n        /* \"#utility.yul\":245:364   */\n      iszero\n      tag_95\n      jumpi\n        /* \"#utility.yul\":283:362   */\n      tag_96\n      tag_97\n      jump\t// in\n    tag_96:\n        /* \"#utility.yul\":245:364   */\n    tag_95:\n        /* \"#utility.yul\":403:404   */\n      0x00\n        /* \"#utility.yul\":428:481   */\n      tag_98\n        /* \"#utility.yul\":473:480   */\n      dup6\n        /* \"#utility.yul\":464:470   */\n      dup3\n        /* \"#utility.yul\":453:462   */\n      dup7\n        /* \"#utility.yul\":449:471   */\n      add\n        /* \"#utility.yul\":428:481   */\n      tag_90\n      jump\t// in\n    tag_98:\n        /* \"#utility.yul\":418:481   */\n      swap3\n      pop\n        /* \"#utility.yul\":374:491   */\n      pop\n        /* \"#utility.yul\":530:532   */\n      0x20\n        /* \"#utility.yul\":556:609   */\n      tag_99\n        /* \"#utility.yul\":601:608   */\n      dup6\n        /* \"#utility.yul\":592:598   */\n      dup3\n        /* \"#utility.yul\":581:590   */\n      dup7\n        /* \"#utility.yul\":577:599   */\n      add\n        /* \"#utility.yul\":556:609   */\n      tag_90\n      jump\t// in\n    tag_99:\n        /* \"#utility.yul\":546:609   */\n      swap2\n      pop\n        /* \"#utility.yul\":501:619   */\n      pop\n        /* \"#utility.yul\":152:626   */\n      swap3\n      pop\n      swap3\n      swap1\n      pop\n      jump\t// out\n        /* \"#utility.yul\":632:811   */\n    tag_100:\n        /* \"#utility.yul\":701:711   */\n      0x00\n        /* \"#utility.yul\":722:768   */\n      tag_102\n        /* \"#utility.yul\":764:767   */\n      dup4\n        /* \"#utility.yul\":756:762   */\n      dup4\n        /* \"#utility.yul\":722:768   */\n      tag_103\n      jump\t// in\n    tag_102:\n        /* \"#utility.yul\":800:804   */\n      0x20\n        /* \"#utility.yul\":795:798   */\n      dup4\n        /* \"#utility.yul\":791:805   */\n      add\n        /* \"#utility.yul\":777:805   */\n      swap1\n      pop\n        /* \"#utility.yul\":632:811   */\n      swap3\n      swap2\n      pop\n      pop\n      jump\t// out\n        /* \"#utility.yul\":847:1579   */\n    tag_104:\n        /* \"#utility.yul\":966:969   */\n      0x00\n        /* \"#utility.yul\":995:1049   */\n      tag_106\n        /* \"#utility.yul\":1043:1048   */\n      dup3\n        /* \"#utility.yul\":995:1049   */\n      tag_107\n      jump\t// in\n    tag_106:\n        /* \"#utility.yul\":1065:1151   */\n      tag_108\n        /* \"#utility.yul\":1144:1150   */\n      dup2\n        /* \"#utility.yul\":1139:1142   */\n      dup6\n        /* \"#utility.yul\":1065:1151   */\n      tag_109\n      jump\t// in\n    tag_108:\n        /* \"#utility.yul\":1058:1151   */\n      swap4\n      pop\n        /* \"#utility.yul\":1175:1231   */\n      tag_110\n        /* \"#utility.yul\":1225:1230   */\n      dup4\n        /* \"#utility.yul\":1175:1231   */\n      tag_111\n      jump\t// in\n    tag_110:\n        /* \"#utility.yul\":1254:1261   */\n      dup1\n        /* \"#utility.yul\":1285:1286   */\n      0x00\n        /* \"#utility.yul\":1270:1554   */\n    tag_112:\n        /* \"#utility.yul\":1295:1301   */\n      dup4\n        /* \"#utility.yul\":1292:1293   */\n      dup2\n        /* \"#utility.yul\":1289:1302   */\n      lt\n        /* \"#utility.yul\":1270:1554   */\n      iszero\n      tag_114\n      jumpi\n        /* \"#utility.yul\":1371:1377   */\n      dup2\n        /* \"#utility.yul\":1365:1378   */\n      mload\n        /* \"#utility.yul\":1398:1461   */\n      tag_115\n        /* \"#utility.yul\":1457:1460   */\n      dup9\n        /* \"#utility.yul\":1442:1455   */\n      dup3\n        /* \"#utility.yul\":1398:1461   */\n      tag_100\n      jump\t// in\n    tag_115:\n        /* \"#utility.yul\":1391:1461   */\n      swap8\n      pop\n        /* \"#utility.yul\":1484:1544   */\n      tag_116\n        /* \"#utility.yul\":1537:1543   */\n      dup4\n        /* \"#utility.yul\":1484:1544   */\n      tag_117\n      jump\t// in\n    tag_116:\n        /* \"#utility.yul\":1474:1544   */\n      swap3\n      pop\n        /* \"#utility.yul\":1330:1554   */\n      pop\n        /* \"#utility.yul\":1317:1318   */\n      0x01\n        /* \"#utility.yul\":1314:1315   */\n      dup2\n        /* \"#utility.yul\":1310:1319   */\n      add\n        /* \"#utility.yul\":1305:1319   */\n      swap1\n      pop\n        /* \"#utility.yul\":1270:1554   */\n      jump(tag_112)\n    tag_114:\n        /* \"#utility.yul\":1274:1288   */\n      pop\n        /* \"#utility.yul\":1570:1573   */\n      dup6\n        /* \"#utility.yul\":1563:1573   */\n      swap4\n      pop\n        /* \"#utility.yul\":971:1579   */\n      pop\n      pop\n      pop\n        /* \"#utility.yul\":847:1579   */\n      swap3\n      swap2\n      pop\n      pop\n      jump\t// out\n        /* \"#utility.yul\":1585:1949   */\n    tag_118:\n        /* \"#utility.yul\":1673:1676   */\n      0x00\n        /* \"#utility.yul\":1701:1740   */\n      tag_120\n        /* \"#utility.yul\":1734:1739   */\n      dup3\n        /* \"#utility.yul\":1701:1740   */\n      tag_121\n      jump\t// in\n    tag_120:\n        /* \"#utility.yul\":1756:1827   */\n      tag_122\n        /* \"#utility.yul\":1820:1826   */\n      dup2\n        /* \"#utility.yul\":1815:1818   */\n      dup6\n        /* \"#utility.yul\":1756:1827   */\n      tag_123\n      jump\t// in\n    tag_122:\n        /* \"#utility.yul\":1749:1827   */\n      swap4\n      pop\n        /* \"#utility.yul\":1836:1888   */\n      tag_124\n        /* \"#utility.yul\":1881:1887   */\n      dup2\n        /* \"#utility.yul\":1876:1879   */\n      dup6\n        /* \"#utility.yul\":1869:1873   */\n      0x20\n        /* \"#utility.yul\":1862:1867   */\n      dup7\n        /* \"#utility.yul\":1858:1874   */\n      add\n        /* \"#utility.yul\":1836:1888   */\n      tag_125\n      jump\t// in\n    tag_124:\n        /* \"#utility.yul\":1913:1942   */\n      tag_126\n        /* \"#utility.yul\":1935:1941   */\n      dup2\n        /* \"#utility.yul\":1913:1942   */\n      tag_127\n      jump\t// in\n    tag_126:\n        /* \"#utility.yul\":1908:1911   */\n      dup5\n        /* \"#utility.yul\":1904:1943   */\n      add\n        /* \"#utility.yul\":1897:1943   */\n      swap2\n      pop\n        /* \"#utility.yul\":1677:1949   */\n      pop\n        /* \"#utility.yul\":1585:1949   */\n      swap3\n      swap2\n      pop\n      pop\n      jump\t// out\n        /* \"#utility.yul\":1955:2063   */\n    tag_103:\n        /* \"#utility.yul\":2032:2056   */\n      tag_129\n        /* \"#utility.yul\":2050:2055   */\n      dup2\n        /* \"#utility.yul\":2032:2056   */\n      tag_130\n      jump\t// in\n    tag_129:\n        /* \"#utility.yul\":2027:2030   */\n      dup3\n        /* \"#utility.yul\":2020:2057   */\n      mstore\n        /* \"#utility.yul\":1955:2063   */\n      pop\n      pop\n      jump\t// out\n        /* \"#utility.yul\":2069:2187   */\n    tag_131:\n        /* \"#utility.yul\":2156:2180   */\n      tag_133\n        /* \"#utility.yul\":2174:2179   */\n      dup2\n        /* \"#utility.yul\":2156:2180   */\n      tag_130\n      jump\t// in\n    tag_133:\n        /* \"#utility.yul\":2151:2154   */\n      dup3\n        /* \"#utility.yul\":2144:2181   */\n      mstore\n        /* \"#utility.yul\":2069:2187   */\n      pop\n      pop\n      jump\t// out\n        /* \"#utility.yul\":2193:2566   */\n    tag_14:\n        /* \"#utility.yul\":2336:2340   */\n      0x00\n        /* \"#utility.yul\":2374:2376   */\n      0x20\n        /* \"#utility.yul\":2363:2372   */\n      dup3\n        /* \"#utility.yul\":2359:2377   */\n      add\n        /* \"#utility.yul\":2351:2377   */\n      swap1\n      pop\n        /* \"#utility.yul\":2423:2432   */\n      dup2\n        /* \"#utility.yul\":2417:2421   */\n      dup2\n        /* \"#utility.yul\":2413:2433   */\n      sub\n        /* \"#utility.yul\":2409:2410   */\n      0x00\n        /* \"#utility.yul\":2398:2407   */\n      dup4\n        /* \"#utility.yul\":2394:2411   */\n      add\n        /* \"#utility.yul\":2387:2434   */\n      mstore\n        /* \"#utility.yul\":2451:2559   */\n      tag_135\n        /* \"#utility.yul\":2554:2558   */\n      dup2\n        /* \"#utility.yul\":2545:2551   */\n      dup5\n        /* \"#utility.yul\":2451:2559   */\n      tag_104\n      jump\t// in\n    tag_135:\n        /* \"#utility.yul\":2443:2559   */\n      swap1\n      pop\n        /* \"#utility.yul\":2193:2566   */\n      swap3\n      swap2\n      pop\n      pop\n      jump\t// out\n        /* \"#utility.yul\":2572:2885   */\n    tag_22:\n        /* \"#utility.yul\":2685:2689   */\n      0x00\n        /* \"#utility.yul\":2723:2725   */\n      0x20\n        /* \"#utility.yul\":2712:2721   */\n      dup3\n        /* \"#utility.yul\":2708:2726   */\n      add\n        /* \"#utility.yul\":2700:2726   */\n      swap1\n      pop\n        /* \"#utility.yul\":2772:2781   */\n      dup2\n        /* \"#utility.yul\":2766:2770   */\n      dup2\n        /* \"#utility.yul\":2762:2782   */\n      sub\n        /* \"#utility.yul\":2758:2759   */\n      0x00\n        /* \"#utility.yul\":2747:2756   */\n      dup4\n        /* \"#utility.yul\":2743:2760   */\n      add\n        /* \"#utility.yul\":2736:2783   */\n      mstore\n        /* \"#utility.yul\":2800:2878   */\n      tag_137\n        /* \"#utility.yul\":2873:2877   */\n      dup2\n        /* \"#utility.yul\":2864:2870   */\n      dup5\n        /* \"#utility.yul\":2800:2878   */\n      tag_118\n      jump\t// in\n    tag_137:\n        /* \"#utility.yul\":2792:2878   */\n      swap1\n      pop\n        /* \"#utility.yul\":2572:2885   */\n      swap3\n      swap2\n      pop\n      pop\n      jump\t// out\n        /* \"#utility.yul\":2891:3113   */\n    tag_18:\n        /* \"#utility.yul\":2984:2988   */\n      0x00\n        /* \"#utility.yul\":3022:3024   */\n      0x20\n        /* \"#utility.yul\":3011:3020   */\n      dup3\n        /* \"#utility.yul\":3007:3025   */\n      add\n        /* \"#utility.yul\":2999:3025   */\n      swap1\n      pop\n        /* \"#utility.yul\":3035:3106   */\n      tag_139\n        /* \"#utility.yul\":3103:3104   */\n      0x00\n        /* \"#utility.yul\":3092:3101   */\n      dup4\n        /* \"#utility.yul\":3088:3105   */\n      add\n        /* \"#utility.yul\":3079:3085   */\n      dup5\n        /* \"#utility.yul\":3035:3106   */\n      tag_131\n      jump\t// in\n    tag_139:\n        /* \"#utility.yul\":2891:3113   */\n      swap3\n      swap2\n      pop\n      pop\n      jump\t// out\n        /* \"#utility.yul\":3200:3332   */\n    tag_111:\n        /* \"#utility.yul\":3267:3271   */\n      0x00\n        /* \"#utility.yul\":3290:3293   */\n      dup2\n        /* \"#utility.yul\":3282:3293   */\n      swap1\n      pop\n        /* \"#utility.yul\":3320:3324   */\n      0x20\n        /* \"#utility.yul\":3315:3318   */\n      dup3\n        /* \"#utility.yul\":3311:3325   */\n      add\n        /* \"#utility.yul\":3303:3325   */\n      swap1\n      pop\n        /* \"#utility.yul\":3200:3332   */\n      swap2\n      swap1\n      pop\n      jump\t// out\n        /* \"#utility.yul\":3338:3452   */\n    tag_107:\n        /* \"#utility.yul\":3405:3411   */\n      0x00\n        /* \"#utility.yul\":3439:3444   */\n      dup2\n        /* \"#utility.yul\":3433:3445   */\n      mload\n        /* \"#utility.yul\":3423:3445   */\n      swap1\n      pop\n        /* \"#utility.yul\":3338:3452   */\n      swap2\n      swap1\n      pop\n      jump\t// out\n        /* \"#utility.yul\":3458:3557   */\n    tag_121:\n        /* \"#utility.yul\":3510:3516   */\n      0x00\n        /* \"#utility.yul\":3544:3549   */\n      dup2\n        /* \"#utility.yul\":3538:3550   */\n      mload\n        /* \"#utility.yul\":3528:3550   */\n      swap1\n      pop\n        /* \"#utility.yul\":3458:3557   */\n      swap2\n      swap1\n      pop\n      jump\t// out\n        /* \"#utility.yul\":3563:3676   */\n    tag_117:\n        /* \"#utility.yul\":3633:3637   */\n      0x00\n        /* \"#utility.yul\":3665:3669   */\n      0x20\n        /* \"#utility.yul\":3660:3663   */\n      dup3\n        /* \"#utility.yul\":3656:3670   */\n      add\n        /* \"#utility.yul\":3648:3670   */\n      swap1\n      pop\n        /* \"#utility.yul\":3563:3676   */\n      swap2\n      swap1\n      pop\n      jump\t// out\n        /* \"#utility.yul\":3682:3866   */\n    tag_109:\n        /* \"#utility.yul\":3781:3792   */\n      0x00\n        /* \"#utility.yul\":3815:3821   */\n      dup3\n        /* \"#utility.yul\":3810:3813   */\n      dup3\n        /* \"#utility.yul\":3803:3822   */\n      mstore\n        /* \"#utility.yul\":3855:3859   */\n      0x20\n        /* \"#utility.yul\":3850:3853   */\n      dup3\n        /* \"#utility.yul\":3846:3860   */\n      add\n        /* \"#utility.yul\":3831:3860   */\n      swap1\n      pop\n        /* \"#utility.yul\":3682:3866   */\n      swap3\n      swap2\n      pop\n      pop\n      jump\t// out\n        /* \"#utility.yul\":3872:4041   */\n    tag_123:\n        /* \"#utility.yul\":3956:3967   */\n      0x00\n        /* \"#utility.yul\":3990:3996   */\n      dup3\n        /* \"#utility.yul\":3985:3988   */\n      dup3\n        /* \"#utility.yul\":3978:3997   */\n      mstore\n        /* \"#utility.yul\":4030:4034   */\n      0x20\n        /* \"#utility.yul\":4025:4028   */\n      dup3\n        /* \"#utility.yul\":4021:4035   */\n      add\n        /* \"#utility.yul\":4006:4035   */\n      swap1\n      pop\n        /* \"#utility.yul\":3872:4041   */\n      swap3\n      swap2\n      pop\n      pop\n      jump\t// out\n        /* \"#utility.yul\":4047:4238   */\n    tag_69:\n        /* \"#utility.yul\":4087:4091   */\n      0x00\n        /* \"#utility.yul\":4107:4127   */\n      tag_149\n        /* \"#utility.yul\":4125:4126   */\n      dup3\n        /* \"#utility.yul\":4107:4127   */\n      tag_130\n      jump\t// in\n    tag_149:\n        /* \"#utility.yul\":4102:4127   */\n      swap2\n      pop\n        /* \"#utility.yul\":4141:4161   */\n      tag_150\n        /* \"#utility.yul\":4159:4160   */\n      dup4\n        /* \"#utility.yul\":4141:4161   */\n      tag_130\n      jump\t// in\n    tag_150:\n        /* \"#utility.yul\":4136:4161   */\n      swap3\n      pop\n        /* \"#utility.yul\":4180:4181   */\n      dup3\n        /* \"#utility.yul\":4177:4178   */\n      dup3\n        /* \"#utility.yul\":4174:4182   */\n      lt\n        /* \"#utility.yul\":4171:4205   */\n      iszero\n      tag_151\n      jumpi\n        /* \"#utility.yul\":4185:4203   */\n      tag_152\n      tag_153\n      jump\t// in\n    tag_152:\n        /* \"#utility.yul\":4171:4205   */\n    tag_151:\n        /* \"#utility.yul\":4230:4231   */\n      dup3\n        /* \"#utility.yul\":4227:4228   */\n      dup3\n        /* \"#utility.yul\":4223:4232   */\n      sub\n        /* \"#utility.yul\":4215:4232   */\n      swap1\n      pop\n        /* \"#utility.yul\":4047:4238   */\n      swap3\n      swap2\n      pop\n      pop\n      jump\t// out\n        /* \"#utility.yul\":4244:4321   */\n    tag_130:\n        /* \"#utility.yul\":4281:4288   */\n      0x00\n        /* \"#utility.yul\":4310:4315   */\n      dup2\n        /* \"#utility.yul\":4299:4315   */\n      swap1\n      pop\n        /* \"#utility.yul\":4244:4321   */\n      swap2\n      swap1\n      pop\n      jump\t// out\n        /* \"#utility.yul\":4327:4634   */\n    tag_125:\n        /* \"#utility.yul\":4395:4396   */\n      0x00\n        /* \"#utility.yul\":4405:4518   */\n    tag_156:\n        /* \"#utility.yul\":4419:4425   */\n      dup4\n        /* \"#utility.yul\":4416:4417   */\n      dup2\n        /* \"#utility.yul\":4413:4426   */\n      lt\n        /* \"#utility.yul\":4405:4518   */\n      iszero\n      tag_158\n      jumpi\n        /* \"#utility.yul\":4504:4505   */\n      dup1\n        /* \"#utility.yul\":4499:4502   */\n      dup3\n        /* \"#utility.yul\":4495:4506   */\n      add\n        /* \"#utility.yul\":4489:4507   */\n      mload\n        /* \"#utility.yul\":4485:4486   */\n      dup2\n        /* \"#utility.yul\":4480:4483   */\n      dup5\n        /* \"#utility.yul\":4476:4487   */\n      add\n        /* \"#utility.yul\":4469:4508   */\n      mstore\n        /* \"#utility.yul\":4441:4443   */\n      0x20\n        /* \"#utility.yul\":4438:4439   */\n      dup2\n        /* \"#utility.yul\":4434:4444   */\n      add\n        /* \"#utility.yul\":4429:4444   */\n      swap1\n      pop\n        /* \"#utility.yul\":4405:4518   */\n      jump(tag_156)\n    tag_158:\n        /* \"#utility.yul\":4536:4542   */\n      dup4\n        /* \"#utility.yul\":4533:4534   */\n      dup2\n        /* \"#utility.yul\":4530:4543   */\n      gt\n        /* \"#utility.yul\":4527:4628   */\n      iszero\n      tag_159\n      jumpi\n        /* \"#utility.yul\":4616:4617   */\n      0x00\n        /* \"#utility.yul\":4607:4613   */\n      dup5\n        /* \"#utility.yul\":4602:4605   */\n      dup5\n        /* \"#utility.yul\":4598:4614   */\n      add\n        /* \"#utility.yul\":4591:4618   */\n      mstore\n        /* \"#utility.yul\":4527:4628   */\n    tag_159:\n        /* \"#utility.yul\":4376:4634   */\n      pop\n        /* \"#utility.yul\":4327:4634   */\n      pop\n      pop\n      pop\n      jump\t// out\n        /* \"#utility.yul\":4640:4960   */\n    tag_41:\n        /* \"#utility.yul\":4684:4690   */\n      0x00\n        /* \"#utility.yul\":4721:4722   */\n      0x02\n        /* \"#utility.yul\":4715:4719   */\n      dup3\n        /* \"#utility.yul\":4711:4723   */\n      div\n        /* \"#utility.yul\":4701:4723   */\n      swap1\n      pop\n        /* \"#utility.yul\":4768:4769   */\n      0x01\n        /* \"#utility.yul\":4762:4766   */\n      dup3\n        /* \"#utility.yul\":4758:4770   */\n      and\n        /* \"#utility.yul\":4789:4807   */\n      dup1\n        /* \"#utility.yul\":4779:4860   */\n      tag_161\n      jumpi\n        /* \"#utility.yul\":4845:4849   */\n      0x7f\n        /* \"#utility.yul\":4837:4843   */\n      dup3\n        /* \"#utility.yul\":4833:4850   */\n      and\n        /* \"#utility.yul\":4823:4850   */\n      swap2\n      pop\n        /* \"#utility.yul\":4779:4860   */\n    tag_161:\n        /* \"#utility.yul\":4907:4909   */\n      0x20\n        /* \"#utility.yul\":4899:4905   */\n      dup3\n        /* \"#utility.yul\":4896:4910   */\n      lt\n        /* \"#utility.yul\":4876:4894   */\n      dup2\n        /* \"#utility.yul\":4873:4911   */\n      eq\n        /* \"#utility.yul\":4870:4954   */\n      iszero\n      tag_162\n      jumpi\n        /* \"#utility.yul\":4926:4944   */\n      tag_163\n      tag_164\n      jump\t// in\n    tag_163:\n        /* \"#utility.yul\":4870:4954   */\n    tag_162:\n        /* \"#utility.yul\":4691:4960   */\n      pop\n        /* \"#utility.yul\":4640:4960   */\n      swap2\n      swap1\n      pop\n      jump\t// out\n        /* \"#utility.yul\":4966:5199   */\n    tag_75:\n        /* \"#utility.yul\":5005:5008   */\n      0x00\n        /* \"#utility.yul\":5028:5052   */\n      tag_166\n        /* \"#utility.yul\":5046:5051   */\n      dup3\n        /* \"#utility.yul\":5028:5052   */\n      tag_130\n      jump\t// in\n    tag_166:\n        /* \"#utility.yul\":5019:5052   */\n      swap2\n      pop\n        /* \"#utility.yul\":5074:5140   */\n      0xffffffffffffffffffffffffffffffffffffffffffffffffffffffffffffffff\n        /* \"#utility.yul\":5067:5072   */\n      dup3\n        /* \"#utility.yul\":5064:5141   */\n      eq\n        /* \"#utility.yul\":5061:5164   */\n      iszero\n      tag_167\n      jumpi\n        /* \"#utility.yul\":5144:5162   */\n      tag_168\n      tag_153\n      jump\t// in\n    tag_168:\n        /* \"#utility.yul\":5061:5164   */\n    tag_167:\n        /* \"#utility.yul\":5191:5192   */\n      0x01\n        /* \"#utility.yul\":5184:5189   */\n      dup3\n        /* \"#utility.yul\":5180:5193   */\n      add\n        /* \"#utility.yul\":5173:5193   */\n      swap1\n      pop\n        /* \"#utility.yul\":4966:5199   */\n      swap2\n      swap1\n      pop\n      jump\t// out\n        /* \"#utility.yul\":5205:5385   */\n    tag_153:\n        /* \"#utility.yul\":5253:5330   */\n      0x4e487b7100000000000000000000000000000000000000000000000000000000\n        /* \"#utility.yul\":5250:5251   */\n      0x00\n        /* \"#utility.yul\":5243:5331   */\n      mstore\n        /* \"#utility.yul\":5350:5354   */\n      0x11\n        /* \"#utility.yul\":5347:5348   */\n      0x04\n        /* \"#utility.yul\":5340:5355   */\n      mstore\n        /* \"#utility.yul\":5374:5378   */\n      0x24\n        /* \"#utility.yul\":5371:5372   */\n      0x00\n        /* \"#utility.yul\":5364:5379   */\n      revert\n        /* \"#utility.yul\":5391:5571   */\n    tag_164:\n        /* \"#utility.yul\":5439:5516   */\n      0x4e487b7100000000000000000000000000000000000000000000000000000000\n        /* \"#utility.yul\":5436:5437   */\n      0x00\n        /* \"#utility.yul\":5429:5517   */\n      mstore\n        /* \"#utility.yul\":5536:5540   */\n      0x22\n        /* \"#utility.yul\":5533:5534   */\n      0x04\n        /* \"#utility.yul\":5526:5541   */\n      mstore\n        /* \"#utility.yul\":5560:5564   */\n      0x24\n        /* \"#utility.yul\":5557:5558   */\n      0x00\n        /* \"#utility.yul\":5550:5565   */\n      revert\n        /* \"#utility.yul\":5577:5757   */\n    tag_61:\n        /* \"#utility.yul\":5625:5702   */\n      0x4e487b7100000000000000000000000000000000000000000000000000000000\n        /* \"#utility.yul\":5622:5623   */\n      0x00\n        /* \"#utility.yul\":5615:5703   */\n      mstore\n        /* \"#utility.yul\":5722:5726   */\n      0x32\n        /* \"#utility.yul\":5719:5720   */\n      0x04\n        /* \"#utility.yul\":5712:5727   */\n      mstore\n        /* \"#utility.yul\":5746:5750   */\n      0x24\n        /* \"#utility.yul\":5743:5744   */\n      0x00\n        /* \"#utility.yul\":5736:5751   */\n      revert\n        /* \"#utility.yul\":5886:6003   */\n    tag_97:\n        /* \"#utility.yul\":5995:5996   */\n      0x00\n        /* \"#utility.yul\":5992:5993   */\n      dup1\n        /* \"#utility.yul\":5985:5997   */\n      revert\n        /* \"#utility.yul\":6009:6111   */\n    tag_127:\n        /* \"#utility.yul\":6050:6056   */\n      0x00\n        /* \"#utility.yul\":6101:6103   */\n      0x1f\n        /* \"#utility.yul\":6097:6104   */\n      not\n        /* \"#utility.yul\":6092:6094   */\n      0x1f\n        /* \"#utility.yul\":6085:6090   */\n      dup4\n        /* \"#utility.yul\":6081:6095   */\n      add\n        /* \"#utility.yul\":6077:6105   */\n      and\n        /* \"#utility.yul\":6067:6105   */\n      swap1\n      pop\n        /* \"#utility.yul\":6009:6111   */\n      swap2\n      swap1\n      pop\n      jump\t// out\n        /* \"#utility.yul\":6117:6239   */\n    tag_93:\n        /* \"#utility.yul\":6190:6214   */\n      tag_177\n        /* \"#utility.yul\":6208:6213   */\n      dup2\n        /* \"#utility.yul\":6190:6214   */\n      tag_130\n      jump\t// in\n    tag_177:\n        /* \"#utility.yul\":6183:6188   */\n      dup2\n        /* \"#utility.yul\":6180:6215   */\n      eq\n        /* \"#utility.yul\":6170:6233   */\n      tag_178\n      jumpi\n        /* \"#utility.yul\":6229:6230   */\n      0x00\n        /* \"#utility.yul\":6226:6227   */\n      dup1\n        /* \"#utility.yul\":6219:6231   */\n      revert\n        /* \"#utility.yul\":6170:6233   */\n    tag_178:\n        /* \"#utility.yul\":6117:6239   */\n      pop\n      jump\t// out\n\n    auxdata: 0xa264697066735822122046a29688cb59909c36cf97e107e5f44babe27bc88c8cf234bd296746dce2f39f64736f6c63430008070033\n}\n",
				"bytecode": {
					"linkReferences": {},
					"object": "60806040526040518060a00160405280600a60ff168152602001601460ff168152602001601e60ff168152602001602860ff168152602001603260ff16815250600190600561004f929190610062565b5034801561005c57600080fd5b506100d1565b8280548282559060005260206000209081019282156100a3579160200282015b828111156100a2578251829060ff16905591602001919060010190610082565b5b5090506100b091906100b4565b5090565b5b808211156100cd5760008160009055506001016100b5565b5090565b610954806100e06000396000f3fe608060405234801561001057600080fd5b506004361061007d5760003560e01c80634678f8321161005b5780634678f832146100dc5780636bc7deae146100fa5780639fd44f5a14610118578063a80c52e9146101345761007d565b80630469a5e2146100825780630849cc99146100a05780633b0b0290146100be575b600080fd5b61008a61013e565b60405161009791906106c4565b60405180910390f35b6100a8610196565b6040516100b59190610708565b60405180910390f35b6100c66101a3565b6040516100d391906106e6565b60405180910390f35b6100e4610235565b6040516100f191906106e6565b60405180910390f35b6101026102c7565b60405161010f91906106c4565b60405180910390f35b610132600480360381019061012d91906105b7565b61031f565b005b61013c6104d3565b005b6060600180548060200260200160405190810160405280929190818152602001828054801561018c57602002820191906000526020600020905b815481526020019060010190808311610178575b5050505050905090565b6000600180549050905090565b6060600080546101b2906107e9565b80601f01602080910402602001604051908101604052809291908181526020018280546101de906107e9565b801561022b5780601f106102005761010080835404028352916020019161022b565b820191906000526020600020905b81548152906001019060200180831161020e57829003601f168201915b5050505050905090565b606060008054610244906107e9565b80601f0160208091040260200160405190810160405280929190818152602001828054610270906107e9565b80156102bd5780601f10610292576101008083540402835291602001916102bd565b820191906000526020600020905b8154815290600101906020018083116102a057829003601f168201915b5050505050905090565b6060600180548060200260200160405190810160405280929190818152602001828054801561031557602002820191906000526020600020905b815481526020019060010190808311610301575b5050505050905090565b6040518060400160405280600681526020017f41424142414200000000000000000000000000000000000000000000000000008152506000908051906020019061036a9291906104ff565b508160018054905011156103ec57806001838154811061038d5761038c6108c2565b5b90600052602060002001819055506040518060400160405280601681526020017f757064617465206578697374696e6720737472696e6700000000000000000000815250600090805190602001906103e69291906104ff565b506104cf565b600060018054905090505b8281116104815782600180805490506104109190610778565b146104445760016000908060018154018082558091505060019003906000526020600020016000909190919091505561046e565b60018290806001815401808255809150506001900390600052602060002001600090919091909150555b80806104799061081b565b9150506103f7565b506040518060400160405280601181526020017f496e20456c736520436f6e646974696f6e000000000000000000000000000000815250600090805190602001906104cd9291906104ff565b505b5050565b6001607b9080600181540180825580915050600190039060005260206000200160009091909190915055565b82805461050b906107e9565b90600052602060002090601f01602090048101928261052d5760008555610574565b82601f1061054657805160ff1916838001178555610574565b82800160010185558215610574579182015b82811115610573578251825591602001919060010190610558565b5b5090506105819190610585565b5090565b5b8082111561059e576000816000905550600101610586565b5090565b6000813590506105b181610907565b92915050565b600080604083850312156105ce576105cd6108f1565b5b60006105dc858286016105a2565b92505060206105ed858286016105a2565b9150509250929050565b600061060383836106a6565b60208301905092915050565b600061061a82610733565b6106248185610756565b935061062f83610723565b8060005b8381101561066057815161064788826105f7565b975061065283610749565b925050600181019050610633565b5085935050505092915050565b60006106788261073e565b6106828185610767565b93506106928185602086016107b6565b61069b816108f6565b840191505092915050565b6106af816107ac565b82525050565b6106be816107ac565b82525050565b600060208201905081810360008301526106de818461060f565b905092915050565b60006020820190508181036000830152610700818461066d565b905092915050565b600060208201905061071d60008301846106b5565b92915050565b6000819050602082019050919050565b600081519050919050565b600081519050919050565b6000602082019050919050565b600082825260208201905092915050565b600082825260208201905092915050565b6000610783826107ac565b915061078e836107ac565b9250828210156107a1576107a0610864565b5b828203905092915050565b6000819050919050565b60005b838110156107d45780820151818401526020810190506107b9565b838111156107e3576000848401525b50505050565b6000600282049050600182168061080157607f821691505b6020821081141561081557610814610893565b5b50919050565b6000610826826107ac565b91507fffffffffffffffffffffffffffffffffffffffffffffffffffffffffffffffff82141561085957610858610864565b5b600182019050919050565b7f4e487b7100000000000000000000000000000000000000000000000000000000600052601160045260246000fd5b7f4e487b7100000000000000000000000000000000000000000000000000000000600052602260045260246000fd5b7f4e487b7100000000000000000000000000000000000000000000000000000000600052603260045260246000fd5b600080fd5b6000601f19601f8301169050919050565b610910816107ac565b811461091b57600080fd5b5056fea264697066735822122046a29688cb59909c36cf97e107e5f44babe27bc88c8cf234bd296746dce2f39f64736f6c63430008070033",
					"opcodes": "PUSH1 0x80 PUSH1 0x40 MSTORE PUSH1 0x40 MLOAD DUP1 PUSH1 0xA0 ADD PUSH1 0x40 MSTORE DUP1 PUSH1 0xA PUSH1 0xFF AND DUP2 MSTORE PUSH1 0x20 ADD PUSH1 0x14 PUSH1 0xFF AND DUP2 MSTORE PUSH1 0x20 ADD PUSH1 0x1E PUSH1 0xFF AND DUP2 MSTORE PUSH1 0x20 ADD PUSH1 0x28 PUSH1 0xFF AND DUP2 MSTORE PUSH1 0x20 ADD PUSH1 0x32 PUSH1 0xFF AND DUP2 MSTORE POP PUSH1 0x1 SWAP1 PUSH1 0x5 PUSH2 0x4F SWAP3 SWAP2 SWAP1 PUSH2 0x62 JUMP JUMPDEST POP CALLVALUE DUP1 ISZERO PUSH2 0x5C JUMPI PUSH1 0x0 DUP1 REVERT JUMPDEST POP PUSH2 0xD1 JUMP JUMPDEST DUP3 DUP1 SLOAD DUP3 DUP3 SSTORE SWAP1 PUSH1 0x0 MSTORE PUSH1 0x20 PUSH1 0x0 KECCAK256 SWAP1 DUP2 ADD SWAP3 DUP3 ISZERO PUSH2 0xA3 JUMPI SWAP2 PUSH1 0x20 MUL DUP3 ADD JUMPDEST DUP3 DUP2 GT ISZERO PUSH2 0xA2 JUMPI DUP3 MLOAD DUP3 SWAP1 PUSH1 0xFF AND SWAP1 SSTORE SWAP2 PUSH1 0x20 ADD SWAP2 SWAP1 PUSH1 0x1 ADD SWAP1 PUSH2 0x82 JUMP JUMPDEST JUMPDEST POP SWAP1 POP PUSH2 0xB0 SWAP2 SWAP1 PUSH2 0xB4 JUMP JUMPDEST POP SWAP1 JUMP JUMPDEST JUMPDEST DUP1 DUP3 GT ISZERO PUSH2 0xCD JUMPI PUSH1 0x0 DUP2 PUSH1 0x0 SWAP1 SSTORE POP PUSH1 0x1 ADD PUSH2 0xB5 JUMP JUMPDEST POP SWAP1 JUMP JUMPDEST PUSH2 0x954 DUP1 PUSH2 0xE0 PUSH1 0x0 CODECOPY PUSH1 0x0 RETURN INVALID PUSH1 0x80 PUSH1 0x40 MSTORE CALLVALUE DUP1 ISZERO PUSH2 0x10 JUMPI PUSH1 0x0 DUP1 REVERT JUMPDEST POP PUSH1 0x4 CALLDATASIZE LT PUSH2 0x7D JUMPI PUSH1 0x0 CALLDATALOAD PUSH1 0xE0 SHR DUP1 PUSH4 0x4678F832 GT PUSH2 0x5B JUMPI DUP1 PUSH4 0x4678F832 EQ PUSH2 0xDC JUMPI DUP1 PUSH4 0x6BC7DEAE EQ PUSH2 0xFA JUMPI DUP1 PUSH4 0x9FD44F5A EQ PUSH2 0x118 JUMPI DUP1 PUSH4 0xA80C52E9 EQ PUSH2 0x134 JUMPI PUSH2 0x7D JUMP JUMPDEST DUP1 PUSH4 0x469A5E2 EQ PUSH2 0x82 JUMPI DUP1 PUSH4 0x849CC99 EQ PUSH2 0xA0 JUMPI DUP1 PUSH4 0x3B0B0290 EQ PUSH2 0xBE JUMPI JUMPDEST PUSH1 0x0 DUP1 REVERT JUMPDEST PUSH2 0x8A PUSH2 0x13E JUMP JUMPDEST PUSH1 0x40 MLOAD PUSH2 0x97 SWAP2 SWAP1 PUSH2 0x6C4 JUMP JUMPDEST PUSH1 0x40 MLOAD DUP1 SWAP2 SUB SWAP1 RETURN JUMPDEST PUSH2 0xA8 PUSH2 0x196 JUMP JUMPDEST PUSH1 0x40 MLOAD PUSH2 0xB5 SWAP2 SWAP1 PUSH2 0x708 JUMP JUMPDEST PUSH1 0x40 MLOAD DUP1 SWAP2 SUB SWAP1 RETURN JUMPDEST PUSH2 0xC6 PUSH2 0x1A3 JUMP JUMPDEST PUSH1 0x40 MLOAD PUSH2 0xD3 SWAP2 SWAP1 PUSH2 0x6E6 JUMP JUMPDEST PUSH1 0x40 MLOAD DUP1 SWAP2 SUB SWAP1 RETURN JUMPDEST PUSH2 0xE4 PUSH2 0x235 JUMP JUMPDEST PUSH1 0x40 MLOAD PUSH2 0xF1 SWAP2 SWAP1 PUSH2 0x6E6 JUMP JUMPDEST PUSH1 0x40 MLOAD DUP1 SWAP2 SUB SWAP1 RETURN JUMPDEST PUSH2 0x102 PUSH2 0x2C7 JUMP JUMPDEST PUSH1 0x40 MLOAD PUSH2 0x10F SWAP2 SWAP1 PUSH2 0x6C4 JUMP JUMPDEST PUSH1 0x40 MLOAD DUP1 SWAP2 SUB SWAP1 RETURN JUMPDEST PUSH2 0x132 PUSH1 0x4 DUP1 CALLDATASIZE SUB DUP2 ADD SWAP1 PUSH2 0x12D SWAP2 SWAP1 PUSH2 0x5B7 JUMP JUMPDEST PUSH2 0x31F JUMP JUMPDEST STOP JUMPDEST PUSH2 0x13C PUSH2 0x4D3 JUMP JUMPDEST STOP JUMPDEST PUSH1 0x60 PUSH1 0x1 DUP1 SLOAD DUP1 PUSH1 0x20 MUL PUSH1 0x20 ADD PUSH1 0x40 MLOAD SWAP1 DUP2 ADD PUSH1 0x40 MSTORE DUP1 SWAP3 SWAP2 SWAP1 DUP2 DUP2 MSTORE PUSH1 0x20 ADD DUP3 DUP1 SLOAD DUP1 ISZERO PUSH2 0x18C JUMPI PUSH1 0x20 MUL DUP3 ADD SWAP2 SWAP1 PUSH1 0x0 MSTORE PUSH1 0x20 PUSH1 0x0 KECCAK256 SWAP1 JUMPDEST DUP2 SLOAD DUP2 MSTORE PUSH1 0x20 ADD SWAP1 PUSH1 0x1 ADD SWAP1 DUP1 DUP4 GT PUSH2 0x178 JUMPI JUMPDEST POP POP POP POP POP SWAP1 POP SWAP1 JUMP JUMPDEST PUSH1 0x0 PUSH1 0x1 DUP1 SLOAD SWAP1 POP SWAP1 POP SWAP1 JUMP JUMPDEST PUSH1 0x60 PUSH1 0x0 DUP1 SLOAD PUSH2 0x1B2 SWAP1 PUSH2 0x7E9 JUMP JUMPDEST DUP1 PUSH1 0x1F ADD PUSH1 0x20 DUP1 SWAP2 DIV MUL PUSH1 0x20 ADD PUSH1 0x40 MLOAD SWAP1 DUP2 ADD PUSH1 0x40 MSTORE DUP1 SWAP3 SWAP2 SWAP1 DUP2 DUP2 MSTORE PUSH1 0x20 ADD DUP3 DUP1 SLOAD PUSH2 0x1DE SWAP1 PUSH2 0x7E9 JUMP JUMPDEST DUP1 ISZERO PUSH2 0x22B JUMPI DUP1 PUSH1 0x1F LT PUSH2 0x200 JUMPI PUSH2 0x100 DUP1 DUP4 SLOAD DIV MUL DUP4 MSTORE SWAP2 PUSH1 0x20 ADD SWAP2 PUSH2 0x22B JUMP JUMPDEST DUP3 ADD SWAP2 SWAP1 PUSH1 0x0 MSTORE PUSH1 0x20 PUSH1 0x0 KECCAK256 SWAP1 JUMPDEST DUP2 SLOAD DUP2 MSTORE SWAP1 PUSH1 0x1 ADD SWAP1 PUSH1 0x20 ADD DUP1 DUP4 GT PUSH2 0x20E JUMPI DUP3 SWAP1 SUB PUSH1 0x1F AND DUP3 ADD SWAP2 JUMPDEST POP POP POP POP POP SWAP1 POP SWAP1 JUMP JUMPDEST PUSH1 0x60 PUSH1 0x0 DUP1 SLOAD PUSH2 0x244 SWAP1 PUSH2 0x7E9 JUMP JUMPDEST DUP1 PUSH1 0x1F ADD PUSH1 0x20 DUP1 SWAP2 DIV MUL PUSH1 0x20 ADD PUSH1 0x40 MLOAD SWAP1 DUP2 ADD PUSH1 0x40 MSTORE DUP1 SWAP3 SWAP2 SWAP1 DUP2 DUP2 MSTORE PUSH1 0x20 ADD DUP3 DUP1 SLOAD PUSH2 0x270 SWAP1 PUSH2 0x7E9 JUMP JUMPDEST DUP1 ISZERO PUSH2 0x2BD JUMPI DUP1 PUSH1 0x1F LT PUSH2 0x292 JUMPI PUSH2 0x100 DUP1 DUP4 SLOAD DIV MUL DUP4 MSTORE SWAP2 PUSH1 0x20 ADD SWAP2 PUSH2 0x2BD JUMP JUMPDEST DUP3 ADD SWAP2 SWAP1 PUSH1 0x0 MSTORE PUSH1 0x20 PUSH1 0x0 KECCAK256 SWAP1 JUMPDEST DUP2 SLOAD DUP2 MSTORE SWAP1 PUSH1 0x1 ADD SWAP1 PUSH1 0x20 ADD DUP1 DUP4 GT PUSH2 0x2A0 JUMPI DUP3 SWAP1 SUB PUSH1 0x1F AND DUP3 ADD SWAP2 JUMPDEST POP POP POP POP POP SWAP1 POP SWAP1 JUMP JUMPDEST PUSH1 0x60 PUSH1 0x1 DUP1 SLOAD DUP1 PUSH1 0x20 MUL PUSH1 0x20 ADD PUSH1 0x40 MLOAD SWAP1 DUP2 ADD PUSH1 0x40 MSTORE DUP1 SWAP3 SWAP2 SWAP1 DUP2 DUP2 MSTORE PUSH1 0x20 ADD DUP3 DUP1 SLOAD DUP1 ISZERO PUSH2 0x315 JUMPI PUSH1 0x20 MUL DUP3 ADD SWAP2 SWAP1 PUSH1 0x0 MSTORE PUSH1 0x20 PUSH1 0x0 KECCAK256 SWAP1 JUMPDEST DUP2 SLOAD DUP2 MSTORE PUSH1 0x20 ADD SWAP1 PUSH1 0x1 ADD SWAP1 DUP1 DUP4 GT PUSH2 0x301 JUMPI JUMPDEST POP POP POP POP POP SWAP1 POP SWAP1 JUMP JUMPDEST PUSH1 0x40 MLOAD DUP1 PUSH1 0x40 ADD PUSH1 0x40 MSTORE DUP1 PUSH1 0x6 DUP2 MSTORE PUSH1 0x20 ADD PUSH32 0x4142414241420000000000000000000000000000000000000000000000000000 DUP2 MSTORE POP PUSH1 0x0 SWAP1 DUP1 MLOAD SWAP1 PUSH1 0x20 ADD SWAP1 PUSH2 0x36A SWAP3 SWAP2 SWAP1 PUSH2 0x4FF JUMP JUMPDEST POP DUP2 PUSH1 0x1 DUP1 SLOAD SWAP1 POP GT ISZERO PUSH2 0x3EC JUMPI DUP1 PUSH1 0x1 DUP4 DUP2 SLOAD DUP2 LT PUSH2 0x38D JUMPI PUSH2 0x38C PUSH2 0x8C2 JUMP JUMPDEST JUMPDEST SWAP1 PUSH1 0x0 MSTORE PUSH1 0x20 PUSH1 0x0 KECCAK256 ADD DUP2 SWAP1 SSTORE POP PUSH1 0x40 MLOAD DUP1 PUSH1 0x40 ADD PUSH1 0x40 MSTORE DUP1 PUSH1 0x16 DUP2 MSTORE PUSH1 0x20 ADD PUSH32 0x757064617465206578697374696E6720737472696E6700000000000000000000 DUP2 MSTORE POP PUSH1 0x0 SWAP1 DUP1 MLOAD SWAP1 PUSH1 0x20 ADD SWAP1 PUSH2 0x3E6 SWAP3 SWAP2 SWAP1 PUSH2 0x4FF JUMP JUMPDEST POP PUSH2 0x4CF JUMP JUMPDEST PUSH1 0x0 PUSH1 0x1 DUP1 SLOAD SWAP1 POP SWAP1 POP JUMPDEST DUP3 DUP2 GT PUSH2 0x481 JUMPI DUP3 PUSH1 0x1 DUP1 DUP1 SLOAD SWAP1 POP PUSH2 0x410 SWAP2 SWAP1 PUSH2 0x778 JUMP JUMPDEST EQ PUSH2 0x444 JUMPI PUSH1 0x1 PUSH1 0x0 SWAP1 DUP1 PUSH1 0x1 DUP2 SLOAD ADD DUP1 DUP3 SSTORE DUP1 SWAP2 POP POP PUSH1 0x1 SWAP1 SUB SWAP1 PUSH1 0x0 MSTORE PUSH1 0x20 PUSH1 0x0 KECCAK256 ADD PUSH1 0x0 SWAP1 SWAP2 SWAP1 SWAP2 SWAP1 SWAP2 POP SSTORE PUSH2 0x46E JUMP JUMPDEST PUSH1 0x1 DUP3 SWAP1 DUP1 PUSH1 0x1 DUP2 SLOAD ADD DUP1 DUP3 SSTORE DUP1 SWAP2 POP POP PUSH1 0x1 SWAP1 SUB SWAP1 PUSH1 0x0 MSTORE PUSH1 0x20 PUSH1 0x0 KECCAK256 ADD PUSH1 0x0 SWAP1 SWAP2 SWAP1 SWAP2 SWAP1 SWAP2 POP SSTORE JUMPDEST DUP1 DUP1 PUSH2 0x479 SWAP1 PUSH2 0x81B JUMP JUMPDEST SWAP2 POP POP PUSH2 0x3F7 JUMP JUMPDEST POP PUSH1 0x40 MLOAD DUP1 PUSH1 0x40 ADD PUSH1 0x40 MSTORE DUP1 PUSH1 0x11 DUP2 MSTORE PUSH1 0x20 ADD PUSH32 0x496E20456C736520436F6E646974696F6E000000000000000000000000000000 DUP2 MSTORE POP PUSH1 0x0 SWAP1 DUP1 MLOAD SWAP1 PUSH1 0x20 ADD SWAP1 PUSH2 0x4CD SWAP3 SWAP2 SWAP1 PUSH2 0x4FF JUMP JUMPDEST POP JUMPDEST POP POP JUMP JUMPDEST PUSH1 0x1 PUSH1 0x7B SWAP1 DUP1 PUSH1 0x1 DUP2 SLOAD ADD DUP1 DUP3 SSTORE DUP1 SWAP2 POP POP PUSH1 0x1 SWAP1 SUB SWAP1 PUSH1 0x0 MSTORE PUSH1 0x20 PUSH1 0x0 KECCAK256 ADD PUSH1 0x0 SWAP1 SWAP2 SWAP1 SWAP2 SWAP1 SWAP2 POP SSTORE JUMP JUMPDEST DUP3 DUP1 SLOAD PUSH2 0x50B SWAP1 PUSH2 0x7E9 JUMP JUMPDEST SWAP1 PUSH1 0x0 MSTORE PUSH1 0x20 PUSH1 0x0 KECCAK256 SWAP1 PUSH1 0x1F ADD PUSH1 0x20 SWAP1 DIV DUP2 ADD SWAP3 DUP3 PUSH2 0x52D JUMPI PUSH1 0x0 DUP6 SSTORE PUSH2 0x574 JUMP JUMPDEST DUP3 PUSH1 0x1F LT PUSH2 0x546 JUMPI DUP1 MLOAD PUSH1 0xFF NOT AND DUP4 DUP1 ADD OR DUP6 SSTORE PUSH2 0x574 JUMP JUMPDEST DUP3 DUP1 ADD PUSH1 0x1 ADD DUP6 SSTORE DUP3 ISZERO PUSH2 0x574 JUMPI SWAP2 DUP3 ADD JUMPDEST DUP3 DUP2 GT ISZERO PUSH2 0x573 JUMPI DUP3 MLOAD DUP3 SSTORE SWAP2 PUSH1 0x20 ADD SWAP2 SWAP1 PUSH1 0x1 ADD SWAP1 PUSH2 0x558 JUMP JUMPDEST JUMPDEST POP SWAP1 POP PUSH2 0x581 SWAP2 SWAP1 PUSH2 0x585 JUMP JUMPDEST POP SWAP1 JUMP JUMPDEST JUMPDEST DUP1 DUP3 GT ISZERO PUSH2 0x59E JUMPI PUSH1 0x0 DUP2 PUSH1 0x0 SWAP1 SSTORE POP PUSH1 0x1 ADD PUSH2 0x586 JUMP JUMPDEST POP SWAP1 JUMP JUMPDEST PUSH1 0x0 DUP2 CALLDATALOAD SWAP1 POP PUSH2 0x5B1 DUP2 PUSH2 0x907 JUMP JUMPDEST SWAP3 SWAP2 POP POP JUMP JUMPDEST PUSH1 0x0 DUP1 PUSH1 0x40 DUP4 DUP6 SUB SLT ISZERO PUSH2 0x5CE JUMPI PUSH2 0x5CD PUSH2 0x8F1 JUMP JUMPDEST JUMPDEST PUSH1 0x0 PUSH2 0x5DC DUP6 DUP3 DUP7 ADD PUSH2 0x5A2 JUMP JUMPDEST SWAP3 POP POP PUSH1 0x20 PUSH2 0x5ED DUP6 DUP3 DUP7 ADD PUSH2 0x5A2 JUMP JUMPDEST SWAP2 POP POP SWAP3 POP SWAP3 SWAP1 POP JUMP JUMPDEST PUSH1 0x0 PUSH2 0x603 DUP4 DUP4 PUSH2 0x6A6 JUMP JUMPDEST PUSH1 0x20 DUP4 ADD SWAP1 POP SWAP3 SWAP2 POP POP JUMP JUMPDEST PUSH1 0x0 PUSH2 0x61A DUP3 PUSH2 0x733 JUMP JUMPDEST PUSH2 0x624 DUP2 DUP6 PUSH2 0x756 JUMP JUMPDEST SWAP4 POP PUSH2 0x62F DUP4 PUSH2 0x723 JUMP JUMPDEST DUP1 PUSH1 0x0 JUMPDEST DUP4 DUP2 LT ISZERO PUSH2 0x660 JUMPI DUP2 MLOAD PUSH2 0x647 DUP9 DUP3 PUSH2 0x5F7 JUMP JUMPDEST SWAP8 POP PUSH2 0x652 DUP4 PUSH2 0x749 JUMP JUMPDEST SWAP3 POP POP PUSH1 0x1 DUP2 ADD SWAP1 POP PUSH2 0x633 JUMP JUMPDEST POP DUP6 SWAP4 POP POP POP POP SWAP3 SWAP2 POP POP JUMP JUMPDEST PUSH1 0x0 PUSH2 0x678 DUP3 PUSH2 0x73E JUMP JUMPDEST PUSH2 0x682 DUP2 DUP6 PUSH2 0x767 JUMP JUMPDEST SWAP4 POP PUSH2 0x692 DUP2 DUP6 PUSH1 0x20 DUP7 ADD PUSH2 0x7B6 JUMP JUMPDEST PUSH2 0x69B DUP2 PUSH2 0x8F6 JUMP JUMPDEST DUP5 ADD SWAP2 POP POP SWAP3 SWAP2 POP POP JUMP JUMPDEST PUSH2 0x6AF DUP2 PUSH2 0x7AC JUMP JUMPDEST DUP3 MSTORE POP POP JUMP JUMPDEST PUSH2 0x6BE DUP2 PUSH2 0x7AC JUMP JUMPDEST DUP3 MSTORE POP POP JUMP JUMPDEST PUSH1 0x0 PUSH1 0x20 DUP3 ADD SWAP1 POP DUP2 DUP2 SUB PUSH1 0x0 DUP4 ADD MSTORE PUSH2 0x6DE DUP2 DUP5 PUSH2 0x60F JUMP JUMPDEST SWAP1 POP SWAP3 SWAP2 POP POP JUMP JUMPDEST PUSH1 0x0 PUSH1 0x20 DUP3 ADD SWAP1 POP DUP2 DUP2 SUB PUSH1 0x0 DUP4 ADD MSTORE PUSH2 0x700 DUP2 DUP5 PUSH2 0x66D JUMP JUMPDEST SWAP1 POP SWAP3 SWAP2 POP POP JUMP JUMPDEST PUSH1 0x0 PUSH1 0x20 DUP3 ADD SWAP1 POP PUSH2 0x71D PUSH1 0x0 DUP4 ADD DUP5 PUSH2 0x6B5 JUMP JUMPDEST SWAP3 SWAP2 POP POP JUMP JUMPDEST PUSH1 0x0 DUP2 SWAP1 POP PUSH1 0x20 DUP3 ADD SWAP1 POP SWAP2 SWAP1 POP JUMP JUMPDEST PUSH1 0x0 DUP2 MLOAD SWAP1 POP SWAP2 SWAP1 POP JUMP JUMPDEST PUSH1 0x0 DUP2 MLOAD SWAP1 POP SWAP2 SWAP1 POP JUMP JUMPDEST PUSH1 0x0 PUSH1 0x20 DUP3 ADD SWAP1 POP SWAP2 SWAP1 POP JUMP JUMPDEST PUSH1 0x0 DUP3 DUP3 MSTORE PUSH1 0x20 DUP3 ADD SWAP1 POP SWAP3 SWAP2 POP POP JUMP JUMPDEST PUSH1 0x0 DUP3 DUP3 MSTORE PUSH1 0x20 DUP3 ADD SWAP1 POP SWAP3 SWAP2 POP POP JUMP JUMPDEST PUSH1 0x0 PUSH2 0x783 DUP3 PUSH2 0x7AC JUMP JUMPDEST SWAP2 POP PUSH2 0x78E DUP4 PUSH2 0x7AC JUMP JUMPDEST SWAP3 POP DUP3 DUP3 LT ISZERO PUSH2 0x7A1 JUMPI PUSH2 0x7A0 PUSH2 0x864 JUMP JUMPDEST JUMPDEST DUP3 DUP3 SUB SWAP1 POP SWAP3 SWAP2 POP POP JUMP JUMPDEST PUSH1 0x0 DUP2 SWAP1 POP SWAP2 SWAP1 POP JUMP JUMPDEST PUSH1 0x0 JUMPDEST DUP4 DUP2 LT ISZERO PUSH2 0x7D4 JUMPI DUP1 DUP3 ADD MLOAD DUP2 DUP5 ADD MSTORE PUSH1 0x20 DUP2 ADD SWAP1 POP PUSH2 0x7B9 JUMP JUMPDEST DUP4 DUP2 GT ISZERO PUSH2 0x7E3 JUMPI PUSH1 0x0 DUP5 DUP5 ADD MSTORE JUMPDEST POP POP POP POP JUMP JUMPDEST PUSH1 0x0 PUSH1 0x2 DUP3 DIV SWAP1 POP PUSH1 0x1 DUP3 AND DUP1 PUSH2 0x801 JUMPI PUSH1 0x7F DUP3 AND SWAP2 POP JUMPDEST PUSH1 0x20 DUP3 LT DUP2 EQ ISZERO PUSH2 0x815 JUMPI PUSH2 0x814 PUSH2 0x893 JUMP JUMPDEST JUMPDEST POP SWAP2 SWAP1 POP JUMP JUMPDEST PUSH1 0x0 PUSH2 0x826 DUP3 PUSH2 0x7AC JUMP JUMPDEST SWAP2 POP PUSH32 0xFFFFFFFFFFFFFFFFFFFFFFFFFFFFFFFFFFFFFFFFFFFFFFFFFFFFFFFFFFFFFFFF DUP3 EQ ISZERO PUSH2 0x859 JUMPI PUSH2 0x858 PUSH2 0x864 JUMP JUMPDEST JUMPDEST PUSH1 0x1 DUP3 ADD SWAP1 POP SWAP2 SWAP1 POP JUMP JUMPDEST PUSH32 0x4E487B7100000000000000000000000000000000000000000000000000000000 PUSH1 0x0 MSTORE PUSH1 0x11 PUSH1 0x4 MSTORE PUSH1 0x24 PUSH1 0x0 REVERT JUMPDEST PUSH32 0x4E487B7100000000000000000000000000000000000000000000000000000000 PUSH1 0x0 MSTORE PUSH1 0x22 PUSH1 0x4 MSTORE PUSH1 0x24 PUSH1 0x0 REVERT JUMPDEST PUSH32 0x4E487B7100000000000000000000000000000000000000000000000000000000 PUSH1 0x0 MSTORE PUSH1 0x32 PUSH1 0x4 MSTORE PUSH1 0x24 PUSH1 0x0 REVERT JUMPDEST PUSH1 0x0 DUP1 REVERT JUMPDEST PUSH1 0x0 PUSH1 0x1F NOT PUSH1 0x1F DUP4 ADD AND SWAP1 POP SWAP2 SWAP1 POP JUMP JUMPDEST PUSH2 0x910 DUP2 PUSH2 0x7AC JUMP JUMPDEST DUP2 EQ PUSH2 0x91B JUMPI PUSH1 0x0 DUP1 REVERT JUMPDEST POP JUMP INVALID LOG2 PUSH5 0x6970667358 0x22 SLT KECCAK256 CHAINID LOG2 SWAP7 DUP9 0xCB MSIZE SWAP1 SWAP13 CALLDATASIZE 0xCF SWAP8 0xE1 SMOD 0xE5 DELEGATECALL 0x4B 0xAB 0xE2 PUSH28 0xC88C8CF234BD296746DCE2F39F64736F6C6343000807003300000000 "
				},
				"gasEstimates": {
					"creation": {
						"codeDepositCost": "477600",
						"executionCost": "infinite",
						"totalCost": "infinite"
					},
					"external": {
						"getArrayLength()": "2468",
						"getarr()": "infinite",
						"getstatus()": "infinite",
						"getupdate()": "infinite",
						"pushnum()": "infinite",
						"simpleoushinarr()": "46633",
						"updatearr(uint256,uint256)": "infinite"
					}
				},
				"methodIdentifiers": {
					"getArrayLength()": "0849cc99",
					"getarr()": "6bc7deae",
					"getstatus()": "3b0b0290",
					"getupdate()": "4678f832",
					"pushnum()": "0469a5e2",
					"simpleoushinarr()": "a80c52e9",
					"updatearr(uint256,uint256)": "9fd44f5a"
				}
			},
			"storageLayout": {
				"storage": [
					{
						"astId": 3,
						"contract": "dynamicsizearr.sol:fixedsizearray",
						"label": "status",
						"offset": 0,
						"slot": "0",
						"type": "t_string_storage"
					},
					{
						"astId": 12,
						"contract": "dynamicsizearr.sol:fixedsizearray",
						"label": "arr",
						"offset": 0,
						"slot": "1",
						"type": "t_array(t_uint256)dyn_storage"
					}
				],
				"types": {
					"t_array(t_uint256)dyn_storage": {
						"base": "t_uint256",
						"encoding": "dynamic_array",
						"label": "uint256[]",
						"numberOfBytes": "32"
					},
					"t_string_storage": {
						"encoding": "bytes",
						"label": "string",
						"numberOfBytes": "32"
					},
					"t_uint256": {
						"encoding": "inplace",
						"label": "uint256",
						"numberOfBytes": "32"
					}
				}
			},
			"userdoc": {
				"kind": "user",
				"methods": {},
				"version": 1
			}
		}
	}
}