{
	"dynamicsizearr.sol": {
		"fixedsizearray": {
			"abi": [
				{
					"inputs": [],
					"name": "getArrayLength",
					"outputs": [
						{
							"internalType": "uint256",
							"name": "",
							"type": "uint256"
						}
					],
					"stateMutability": "view",
					"type": "function"
				},
				{
					"inputs": [],
					"name": "getarr",
					"outputs": [
						{
							"internalType": "uint256[]",
							"name": "",
							"type": "uint256[]"
						}
					],
					"stateMutability": "view",
					"type": "function"
				},
				{
					"inputs": [],
					"name": "getstatus",
					"outputs": [
						{
							"internalType": "string",
							"name": "",
							"type": "string"
						}
					],
					"stateMutability": "view",
					"type": "function"
				},
				{
					"inputs": [],
					"name": "getupdate",
					"outputs": [
						{
							"internalType": "string",
							"name": "",
							"type": "string"
						}
					],
					"stateMutability": "view",
					"type": "function"
				},
				{
					"inputs": [],
					"name": "pushnum",
					"outputs": [
						{
							"internalType": "uint256[]",
							"name": "",
							"type": "uint256[]"
						}
					],
					"stateMutability": "view",
					"type": "function"
				},
				{
					"inputs": [],
					"name": "simpleoushinarr",
					"outputs": [],
					"stateMutability": "nonpayable",
					"type": "function"
				},
				{
					"inputs": [
						{
							"internalType": "uint256",
							"name": "_pos",
							"type": "uint256"
						},
						{
							"internalType": "uint256",
							"name": "_value",
							"type": "uint256"
						}
					],
					"name": "updatearr",
					"outputs": [],
					"stateMutability": "nonpayable",
					"type": "function"
				}
			],
			"devdoc": {
				"kind": "dev",
				"methods": {},
				"version": 1
			},
			"evm": {
				"assembly": "    /* \"dynamicsizearr.sol\":63:1639  contract fixedsizearray{... */\n  mstore(0x40, 0x80)\n    /* \"dynamicsizearr.sol\":112:145  uint[] arr = [10, 20, 30, 40, 50] */\n  mload(0x40)\n  dup1\n  0xa0\n  add\n  0x40\n  mstore\n  dup1\n    /* \"dynamicsizearr.sol\":126:128  10 */\n  0x0a\n    /* \"dynamicsizearr.sol\":112:145  uint[] arr = [10, 20, 30, 40, 50] */\n  0xff\n  and\n  dup2\n  mstore\n  0x20\n  add\n    /* \"dynamicsizearr.sol\":130:132  20 */\n  0x14\n    /* \"dynamicsizearr.sol\":112:145  uint[] arr = [10, 20, 30, 40, 50] */\n  0xff\n  and\n  dup2\n  mstore\n  0x20\n  add\n    /* \"dynamicsizearr.sol\":134:136  30 */\n  0x1e\n    /* \"dynamicsizearr.sol\":112:145  uint[] arr = [10, 20, 30, 40, 50] */\n  0xff\n  and\n  dup2\n  mstore\n  0x20\n  add\n    /* \"dynamicsizearr.sol\":138:140  40 */\n  0x28\n    /* \"dynamicsizearr.sol\":112:145  uint[] arr = [10, 20, 30, 40, 50] */\n  0xff\n  and\n  dup2\n  mstore\n  0x20\n  add\n    /* \"dynamicsizearr.sol\":142:144  50 */\n  0x32\n    /* \"dynamicsizearr.sol\":112:145  uint[] arr = [10, 20, 30, 40, 50] */\n  0xff\n  and\n  dup2\n  mstore\n  pop\n  0x01\n  swap1\n  0x05\n  tag_1\n  swap3\n  swap2\n  swap1\n  tag_2\n  jump\t// in\ntag_1:\n  pop\n    /* \"dynamicsizearr.sol\":63:1639  contract fixedsizearray{... */\n  callvalue\n  dup1\n  iszero\n  tag_3\n  jumpi\n  0x00\n  dup1\n  revert\ntag_3:\n  pop\n  jump(tag_4)\ntag_2:\n  dup3\n  dup1\n  sload\n  dup3\n  dup3\n  sstore\n  swap1\n  0x00\n  mstore\n  keccak256(0x00, 0x20)\n  swap1\n  dup2\n  add\n  swap3\n  dup3\n  iszero\n  tag_5\n  jumpi\n  swap2\n  0x20\n  mul\n  dup3\n  add\ntag_6:\n  dup3\n  dup2\n  gt\n  iszero\n  tag_7\n  jumpi\n  dup3\n  mload\n  dup3\n  swap1\n  0xff\n  and\n  swap1\n  sstore\n  swap2\n  0x20\n  add\n  swap2\n  swap1\n  0x01\n  add\n  swap1\n  jump(tag_6)\ntag_7:\ntag_5:\n  pop\n  swap1\n  pop\n  tag_8\n  swap2\n  swap1\n  tag_9\n  jump\t// in\ntag_8:\n  pop\n  swap1\n  jump\t// out\ntag_9:\ntag_10:\n  dup1\n  dup3\n  gt\n  iszero\n  tag_11\n  jumpi\n  0x00\n  dup2\n  0x00\n  swap1\n  sstore\n  pop\n  0x01\n  add\n  jump(tag_10)\ntag_11:\n  pop\n  swap1\n  jump\t// out\ntag_4:\n  dataSize(sub_0)\n  dup1\n  dataOffset(sub_0)\n  0x00\n  codecopy\n  0x00\n  return\nstop\n\nsub_0: assembly {\n        /* \"dynamicsizearr.sol\":63:1639  contract fixedsizearray{... */\n      mstore(0x40, 0x80)\n      callvalue\n      dup1\n      iszero\n      tag_1\n      jumpi\n      0x00\n      dup1\n      revert\n    tag_1:\n      pop\n      jumpi(tag_2, lt(calldatasize, 0x04))\n      shr(0xe0, calldataload(0x00))\n      dup1\n      0x4678f832\n      gt\n      tag_10\n      jumpi\n      dup1\n      0x4678f832\n      eq\n      tag_6\n      jumpi\n      dup1\n      0x6bc7deae\n      eq\n      tag_7\n      jumpi\n      dup1\n      0x9fd44f5a\n      eq\n      tag_8\n      jumpi\n      dup1\n      0xa80c52e9\n      eq\n      tag_9\n      jumpi\n      jump(tag_2)\n    tag_10:\n      dup1\n      0x0469a5e2\n      eq\n      tag_3\n      jumpi\n      dup1\n      0x0849cc99\n      eq\n      tag_4\n      jumpi\n      dup1\n      0x3b0b0290\n      eq\n      tag_5\n      jumpi\n    tag_2:\n      0x00\n      dup1\n      revert\n        /* \"dynamicsizearr.sol\":1531:1637  function pushnum() public view returns(uint[] memory){... */\n    tag_3:\n      tag_11\n      tag_12\n      jump\t// in\n    tag_11:\n      mload(0x40)\n      tag_13\n      swap2\n      swap1\n      tag_14\n      jump\t// in\n    tag_13:\n      mload(0x40)\n      dup1\n      swap2\n      sub\n      swap1\n      return\n        /* \"dynamicsizearr.sol\":347:432  function getArrayLength() public view returns(uint){... */\n    tag_4:\n      tag_15\n      tag_16\n      jump\t// in\n    tag_15:\n      mload(0x40)\n      tag_17\n      swap2\n      swap1\n      tag_18\n      jump\t// in\n    tag_17:\n      mload(0x40)\n      dup1\n      swap2\n      sub\n      swap1\n      return\n        /* \"dynamicsizearr.sol\":256:341  function getstatus() public view returns(string memory){... */\n    tag_5:\n      tag_19\n      tag_20\n      jump\t// in\n    tag_19:\n      mload(0x40)\n      tag_21\n      swap2\n      swap1\n      tag_22\n      jump\t// in\n    tag_21:\n      mload(0x40)\n      dup1\n      swap2\n      sub\n      swap1\n      return\n        /* \"dynamicsizearr.sol\":1371:1456  function getupdate() public view returns(string memory){... */\n    tag_6:\n      tag_23\n      tag_24\n      jump\t// in\n    tag_23:\n      mload(0x40)\n      tag_25\n      swap2\n      swap1\n      tag_22\n      jump\t// in\n    tag_25:\n      mload(0x40)\n      dup1\n      swap2\n      sub\n      swap1\n      return\n        /* \"dynamicsizearr.sol\":171:250  function getarr() public view returns(uint[] memory){... */\n    tag_7:\n      tag_26\n      tag_27\n      jump\t// in\n    tag_26:\n      mload(0x40)\n      tag_28\n      swap2\n      swap1\n      tag_14\n      jump\t// in\n    tag_28:\n      mload(0x40)\n      dup1\n      swap2\n      sub\n      swap1\n      return\n        /* \"dynamicsizearr.sol\":911:1365  function updatearr(uint _pos, uint _value) public{... */\n    tag_8:\n      tag_29\n      0x04\n      dup1\n      calldatasize\n      sub\n      dup2\n      add\n      swap1\n      tag_30\n      swap2\n      swap1\n      tag_31\n      jump\t// in\n    tag_30:\n      tag_32\n      jump\t// in\n    tag_29:\n      stop\n        /* \"dynamicsizearr.sol\":1462:1525  function simpleoushinarr() public{... */\n    tag_9:\n      tag_33\n      tag_34\n      jump\t// in\n    tag_33:\n      stop\n        /* \"dynamicsizearr.sol\":1531:1637  function pushnum() public view returns(uint[] memory){... */\n    tag_12:\n        /* \"dynamicsizearr.sol\":1570:1583  uint[] memory */\n      0x60\n        /* \"dynamicsizearr.sol\":1627:1630  arr */\n      0x01\n        /* \"dynamicsizearr.sol\":1620:1630  return arr */\n      dup1\n      sload\n      dup1\n      0x20\n      mul\n      0x20\n      add\n      mload(0x40)\n      swap1\n      dup2\n      add\n      0x40\n      mstore\n      dup1\n      swap3\n      swap2\n      swap1\n      dup2\n      dup2\n      mstore\n      0x20\n      add\n      dup3\n      dup1\n      sload\n      dup1\n      iszero\n      tag_36\n      jumpi\n      0x20\n      mul\n      dup3\n      add\n      swap2\n      swap1\n      0x00\n      mstore\n      keccak256(0x00, 0x20)\n      swap1\n    tag_37:\n      dup2\n      sload\n      dup2\n      mstore\n      0x20\n      add\n      swap1\n      0x01\n      add\n      swap1\n      dup1\n      dup4\n      gt\n      tag_37\n      jumpi\n    tag_36:\n      pop\n      pop\n      pop\n      pop\n      pop\n      swap1\n      pop\n        /* \"dynamicsizearr.sol\":1531:1637  function pushnum() public view returns(uint[] memory){... */\n      swap1\n      jump\t// out\n        /* \"dynamicsizearr.sol\":347:432  function getArrayLength() public view returns(uint){... */\n    tag_16:\n        /* \"dynamicsizearr.sol\":393:397  uint */\n      0x00\n        /* \"dynamicsizearr.sol\":415:418  arr */\n      0x01\n        /* \"dynamicsizearr.sol\":415:425  arr.length */\n      dup1\n      sload\n      swap1\n      pop\n        /* \"dynamicsizearr.sol\":408:425  return arr.length */\n      swap1\n      pop\n        /* \"dynamicsizearr.sol\":347:432  function getArrayLength() public view returns(uint){... */\n      swap1\n      jump\t// out\n        /* \"dynamicsizearr.sol\":256:341  function getstatus() public view returns(string memory){... */\n    tag_20:\n        /* \"dynamicsizearr.sol\":297:310  string memory */\n      0x60\n        /* \"dynamicsizearr.sol\":328:334  status */\n      0x00\n        /* \"dynamicsizearr.sol\":321:334  return status */\n      dup1\n      sload\n      tag_40\n      swap1\n      tag_41\n      jump\t// in\n    tag_40:\n      dup1\n      0x1f\n      add\n      0x20\n      dup1\n      swap2\n      div\n      mul\n      0x20\n      add\n      mload(0x40)\n      swap1\n      dup2\n      add\n      0x40\n      mstore\n      dup1\n      swap3\n      swap2\n      swap1\n      dup2\n      dup2\n      mstore\n      0x20\n      add\n      dup3\n      dup1\n      sload\n      tag_42\n      swap1\n      tag_41\n      jump\t// in\n    tag_42:\n      dup1\n      iszero\n      tag_43\n      jumpi\n      dup1\n      0x1f\n      lt\n      tag_44\n      jumpi\n      0x0100\n      dup1\n      dup4\n      sload\n      div\n      mul\n      dup4\n      mstore\n      swap2\n      0x20\n      add\n      swap2\n      jump(tag_43)\n    tag_44:\n      dup3\n      add\n      swap2\n      swap1\n      0x00\n      mstore\n      keccak256(0x00, 0x20)\n      swap1\n    tag_45:\n      dup2\n      sload\n      dup2\n      mstore\n      swap1\n      0x01\n      add\n      swap1\n      0x20\n      add\n      dup1\n      dup4\n      gt\n      tag_45\n      jumpi\n      dup3\n      swap1\n      sub\n      0x1f\n      and\n      dup3\n      add\n      swap2\n    tag_43:\n      pop\n      pop\n      pop\n      pop\n      pop\n      swap1\n      pop\n        /* \"dynamicsizearr.sol\":256:341  function getstatus() public view returns(string memory){... */\n      swap1\n      jump\t// out\n        /* \"dynamicsizearr.sol\":1371:1456  function getupdate() public view returns(string memory){... */\n    tag_24:\n        /* \"dynamicsizearr.sol\":1412:1425  string memory */\n      0x60\n        /* \"dynamicsizearr.sol\":1443:1449  status */\n      0x00\n        /* \"dynamicsizearr.sol\":1436:1449  return status */\n      dup1\n      sload\n      tag_47\n      swap1\n      tag_41\n      jump\t// in\n    tag_47:\n      dup1\n      0x1f\n      add\n      0x20\n      dup1\n      swap2\n      div\n      mul\n      0x20\n      add\n      mload(0x40)\n      swap1\n      dup2\n      add\n      0x40\n      mstore\n      dup1\n      swap3\n      swap2\n      swap1\n      dup2\n      dup2\n      mstore\n      0x20\n      add\n      dup3\n      dup1\n      sload\n      tag_48\n      swap1\n      tag_41\n      jump\t// in\n    tag_48:\n      dup1\n      iszero\n      tag_49\n      jumpi\n      dup1\n      0x1f\n      lt\n      tag_50\n      jumpi\n      0x0100\n      dup1\n      dup4\n      sload\n      div\n      mul\n      dup4\n      mstore\n      swap2\n      0x20\n      add\n      swap2\n      jump(tag_49)\n    tag_50:\n      dup3\n      add\n      swap2\n      swap1\n      0x00\n      mstore\n      keccak256(0x00, 0x20)\n      swap1\n    tag_51:\n      dup2\n      sload\n      dup2\n      mstore\n      swap1\n      0x01\n      add\n      swap1\n      0x20\n      add\n      dup1\n      dup4\n      gt\n      tag_51\n      jumpi\n      dup3\n      swap1\n      sub\n      0x1f\n      and\n      dup3\n      add\n      swap2\n    tag_49:\n      pop\n      pop\n      pop\n      pop\n      pop\n      swap1\n      pop\n        /* \"dynamicsizearr.sol\":1371:1456  function getupdate() public view returns(string memory){... */\n      swap1\n      jump\t// out\n        /* \"dynamicsizearr.sol\":171:250  function getarr() public view returns(uint[] memory){... */\n    tag_27:\n        /* \"dynamicsizearr.sol\":209:222  uint[] memory */\n      0x60\n        /* \"dynamicsizearr.sol\":240:243  arr */\n      0x01\n        /* \"dynamicsizearr.sol\":233:243  return arr */\n      dup1\n      sload\n      dup1\n      0x20\n      mul\n      0x20\n      add\n      mload(0x40)\n      swap1\n      dup2\n      add\n      0x40\n      mstore\n      dup1\n      swap3\n      swap2\n      swap1\n      dup2\n      dup2\n      mstore\n      0x20\n      add\n      dup3\n      dup1\n      sload\n      dup1\n      iszero\n      tag_53\n      jumpi\n      0x20\n      mul\n      dup3\n      add\n      swap2\n      swap1\n      0x00\n      mstore\n      keccak256(0x00, 0x20)\n      swap1\n    tag_54:\n      dup2\n      sload\n      dup2\n      mstore\n      0x20\n      add\n      swap1\n      0x01\n      add\n      swap1\n      dup1\n      dup4\n      gt\n      tag_54\n      jumpi\n    tag_53:\n      pop\n      pop\n      pop\n      pop\n      pop\n      swap1\n      pop\n        /* \"dynamicsizearr.sol\":171:250  function getarr() public view returns(uint[] memory){... */\n      swap1\n      jump\t// out\n        /* \"dynamicsizearr.sol\":911:1365  function updatearr(uint _pos, uint _value) public{... */\n    tag_32:\n        /* \"dynamicsizearr.sol\":970:987  status = \"ABABAB\" */\n      mload(0x40)\n      dup1\n      0x40\n      add\n      0x40\n      mstore\n      dup1\n      0x06\n      dup2\n      mstore\n      0x20\n      add\n      0x4142414241420000000000000000000000000000000000000000000000000000\n      dup2\n      mstore\n      pop\n        /* \"dynamicsizearr.sol\":970:976  status */\n      0x00\n        /* \"dynamicsizearr.sol\":970:987  status = \"ABABAB\" */\n      swap1\n      dup1\n      mload\n      swap1\n      0x20\n      add\n      swap1\n      tag_56\n      swap3\n      swap2\n      swap1\n      tag_57\n      jump\t// in\n    tag_56:\n      pop\n        /* \"dynamicsizearr.sol\":1014:1018  _pos */\n      dup2\n        /* \"dynamicsizearr.sol\":1000:1003  arr */\n      0x01\n        /* \"dynamicsizearr.sol\":1000:1010  arr.length */\n      dup1\n      sload\n      swap1\n      pop\n        /* \"dynamicsizearr.sol\":1000:1018  arr.length  > _pos */\n      gt\n        /* \"dynamicsizearr.sol\":997:1358  if(arr.length  > _pos){... */\n      iszero\n      tag_58\n      jumpi\n        /* \"dynamicsizearr.sol\":1045:1051  _value */\n      dup1\n        /* \"dynamicsizearr.sol\":1033:1036  arr */\n      0x01\n        /* \"dynamicsizearr.sol\":1037:1041  _pos */\n      dup4\n        /* \"dynamicsizearr.sol\":1033:1042  arr[_pos] */\n      dup2\n      sload\n      dup2\n      lt\n      tag_59\n      jumpi\n      tag_60\n      tag_61\n      jump\t// in\n    tag_60:\n    tag_59:\n      swap1\n      0x00\n      mstore\n      keccak256(0x00, 0x20)\n      add\n        /* \"dynamicsizearr.sol\":1033:1051  arr[_pos] = _value */\n      dup2\n      swap1\n      sstore\n      pop\n        /* \"dynamicsizearr.sol\":1065:1098  status = \"update existing string\" */\n      mload(0x40)\n      dup1\n      0x40\n      add\n      0x40\n      mstore\n      dup1\n      0x16\n      dup2\n      mstore\n      0x20\n      add\n      0x757064617465206578697374696e6720737472696e6700000000000000000000\n      dup2\n      mstore\n      pop\n        /* \"dynamicsizearr.sol\":1065:1071  status */\n      0x00\n        /* \"dynamicsizearr.sol\":1065:1098  status = \"update existing string\" */\n      swap1\n      dup1\n      mload\n      swap1\n      0x20\n      add\n      swap1\n      tag_63\n      swap3\n      swap2\n      swap1\n      tag_57\n      jump\t// in\n    tag_63:\n      pop\n        /* \"dynamicsizearr.sol\":997:1358  if(arr.length  > _pos){... */\n      jump(tag_64)\n    tag_58:\n        /* \"dynamicsizearr.sol\":1131:1137  uint i */\n      0x00\n        /* \"dynamicsizearr.sol\":1140:1143  arr */\n      0x01\n        /* \"dynamicsizearr.sol\":1140:1150  arr.length */\n      dup1\n      sload\n      swap1\n      pop\n        /* \"dynamicsizearr.sol\":1131:1150  uint i = arr.length */\n      swap1\n      pop\n        /* \"dynamicsizearr.sol\":1127:1348  for(uint i = arr.length; i<=_pos; i++){... */\n    tag_65:\n        /* \"dynamicsizearr.sol\":1155:1159  _pos */\n      dup3\n        /* \"dynamicsizearr.sol\":1152:1153  i */\n      dup2\n        /* \"dynamicsizearr.sol\":1152:1159  i<=_pos */\n      gt\n        /* \"dynamicsizearr.sol\":1127:1348  for(uint i = arr.length; i<=_pos; i++){... */\n      tag_66\n      jumpi\n        /* \"dynamicsizearr.sol\":1200:1204  _pos */\n      dup3\n        /* \"dynamicsizearr.sol\":1186:1189  arr */\n      0x01\n        /* \"dynamicsizearr.sol\":1186:1196  arr.length */\n      dup1\n      sload\n      swap1\n      pop\n        /* \"dynamicsizearr.sol\":1186:1204  arr.length != _pos */\n      eq\n        /* \"dynamicsizearr.sol\":1183:1318  if(arr.length != _pos){... */\n      tag_68\n      jumpi\n        /* \"dynamicsizearr.sol\":1227:1230  arr */\n      0x01\n        /* \"dynamicsizearr.sol\":1236:1237  0 */\n      0x00\n        /* \"dynamicsizearr.sol\":1227:1238  arr.push(0) */\n      swap1\n      dup1\n      0x01\n      dup2\n      sload\n      add\n      dup1\n      dup3\n      sstore\n      dup1\n      swap2\n      pop\n      pop\n      0x01\n      swap1\n      sub\n      swap1\n      0x00\n      mstore\n      keccak256(0x00, 0x20)\n      add\n      0x00\n      swap1\n      swap2\n      swap1\n      swap2\n      swap1\n      swap2\n      pop\n      sstore\n        /* \"dynamicsizearr.sol\":1183:1318  if(arr.length != _pos){... */\n      jump(tag_70)\n    tag_68:\n        /* \"dynamicsizearr.sol\":1280:1283  arr */\n      0x01\n        /* \"dynamicsizearr.sol\":1289:1295  _value */\n      dup3\n        /* \"dynamicsizearr.sol\":1280:1296  arr.push(_value) */\n      swap1\n      dup1\n      0x01\n      dup2\n      sload\n      add\n      dup1\n      dup3\n      sstore\n      dup1\n      swap2\n      pop\n      pop\n      0x01\n      swap1\n      sub\n      swap1\n      0x00\n      mstore\n      keccak256(0x00, 0x20)\n      add\n      0x00\n      swap1\n      swap2\n      swap1\n      swap2\n      swap1\n      swap2\n      pop\n      sstore\n        /* \"dynamicsizearr.sol\":1183:1318  if(arr.length != _pos){... */\n    tag_70:\n        /* \"dynamicsizearr.sol\":1161:1164  i++ */\n      dup1\n      dup1\n      tag_72\n      swap1\n      tag_73\n      jump\t// in\n    tag_72:\n      swap2\n      pop\n      pop\n        /* \"dynamicsizearr.sol\":1127:1348  for(uint i = arr.length; i<=_pos; i++){... */\n      jump(tag_65)\n    tag_66:\n      pop\n        /* \"dynamicsizearr.sol\":997:1358  if(arr.length  > _pos){... */\n    tag_64:\n        /* \"dynamicsizearr.sol\":911:1365  function updatearr(uint _pos, uint _value) public{... */\n      pop\n      pop\n      jump\t// out\n        /* \"dynamicsizearr.sol\":1462:1525  function simpleoushinarr() public{... */\n    tag_34:\n        /* \"dynamicsizearr.sol\":1505:1508  arr */\n      0x01\n        /* \"dynamicsizearr.sol\":1514:1517  123 */\n      0x7b\n        /* \"dynamicsizearr.sol\":1505:1518  arr.push(123) */\n      swap1\n      dup1\n      0x01\n      dup2\n      sload\n      add\n      dup1\n      dup3\n      sstore\n      dup1\n      swap2\n      pop\n      pop\n      0x01\n      swap1\n      sub\n      swap1\n      0x00\n      mstore\n      keccak256(0x00, 0x20)\n      add\n      0x00\n      swap1\n      swap2\n      swap1\n      swap2\n      swap1\n      swap2\n      pop\n      sstore\n        /* \"dynamicsizearr.sol\":1462:1525  function simpleoushinarr() public{... */\n      jump\t// out\n    tag_57:\n      dup3\n      dup1\n      sload\n      tag_76\n      swap1\n      tag_41\n      jump\t// in\n    tag_76:\n      swap1\n      0x00\n      mstore\n      keccak256(0x00, 0x20)\n      swap1\n      0x1f\n      add\n      0x20\n      swap1\n      div\n      dup2\n      add\n      swap3\n      dup3\n      tag_78\n      jumpi\n      0x00\n      dup6\n      sstore\n      jump(tag_77)\n    tag_78:\n      dup3\n      0x1f\n      lt\n      tag_79\n      jumpi\n      dup1\n      mload\n      not(0xff)\n      and\n      dup4\n      dup1\n      add\n      or\n      dup6\n      sstore\n      jump(tag_77)\n    tag_79:\n      dup3\n      dup1\n      add\n      0x01\n      add\n      dup6\n      sstore\n      dup3\n      iszero\n      tag_77\n      jumpi\n      swap2\n      dup3\n      add\n    tag_80:\n      dup3\n      dup2\n      gt\n      iszero\n      tag_81\n      jumpi\n      dup3\n      mload\n      dup3\n      sstore\n      swap2\n      0x20\n      add\n      swap2\n      swap1\n      0x01\n      add\n      swap1\n      jump(tag_80)\n    tag_81:\n    tag_77:\n      pop\n      swap1\n      pop\n      tag_82\n      swap2\n      swap1\n      tag_83\n      jump\t// in\n    tag_82:\n      pop\n      swap1\n      jump\t// out\n    tag_83:\n    tag_84:\n      dup1\n      dup3\n      gt\n      iszero\n      tag_85\n      jumpi\n      0x00\n      dup2\n      0x00\n      swap1\n      sstore\n      pop\n      0x01\n      add\n      jump(tag_84)\n    tag_85:\n      pop\n      swap1\n      jump\t// out\n        /* \"#utility.yul\":7:146   */\n    tag_87:\n        /* \"#utility.yul\":53:58   */\n      0x00\n        /* \"#utility.yul\":91:97   */\n      dup2\n        /* \"#utility.yul\":78:98   */\n      calldataload\n        /* \"#utility.yul\":69:98   */\n      swap1\n      pop\n        /* \"#utility.yul\":107:140   */\n      tag_89\n        /* \"#utility.yul\":134:139   */\n      dup2\n        /* \"#utility.yul\":107:140   */\n      tag_90\n      jump\t// in\n    tag_89:\n        /* \"#utility.yul\":7:146   */\n      swap3\n      swap2\n      pop\n      pop\n      jump\t// out\n        /* \"#utility.yul\":152:626   */\n    tag_31:\n        /* \"#utility.yul\":220:226   */\n      0x00\n        /* \"#utility.yul\":228:234   */\n      dup1\n        /* \"#utility.yul\":277:279   */\n      0x40\n        /* \"#utility.yul\":265:274   */\n      dup4\n        /* \"#utility.yul\":256:263   */\n      dup6\n        /* \"#utility.yul\":252:275   */\n      sub\n        /* \"#utility.yul\":248:280   */\n      slt\n        /* \"#utility.yul\":245:364   */\n      iszero\n      tag_92\n      jumpi\n        /* \"#utility.yul\":283:362   */\n      tag_93\n      tag_94\n      jump\t// in\n    tag_93:\n        /* \"#utility.yul\":245:364   */\n    tag_92:\n        /* \"#utility.yul\":403:404   */\n      0x00\n        /* \"#utility.yul\":428:481   */\n      tag_95\n        /* \"#utility.yul\":473:480   */\n      dup6\n        /* \"#utility.yul\":464:470   */\n      dup3\n        /* \"#utility.yul\":453:462   */\n      dup7\n        /* \"#utility.yul\":449:471   */\n      add\n        /* \"#utility.yul\":428:481   */\n      tag_87\n      jump\t// in\n    tag_95:\n        /* \"#utility.yul\":418:481   */\n      swap3\n      pop\n        /* \"#utility.yul\":374:491   */\n      pop\n        /* \"#utility.yul\":530:532   */\n      0x20\n        /* \"#utility.yul\":556:609   */\n      tag_96\n        /* \"#utility.yul\":601:608   */\n      dup6\n        /* \"#utility.yul\":592:598   */\n      dup3\n        /* \"#utility.yul\":581:590   */\n      dup7\n        /* \"#utility.yul\":577:599   */\n      add\n        /* \"#utility.yul\":556:609   */\n      tag_87\n      jump\t// in\n    tag_96:\n        /* \"#utility.yul\":546:609   */\n      swap2\n      pop\n        /* \"#utility.yul\":501:619   */\n      pop\n        /* \"#utility.yul\":152:626   */\n      swap3\n      pop\n      swap3\n      swap1\n      pop\n      jump\t// out\n        /* \"#utility.yul\":632:811   */\n    tag_97:\n        /* \"#utility.yul\":701:711   */\n      0x00\n        /* \"#utility.yul\":722:768   */\n      tag_99\n        /* \"#utility.yul\":764:767   */\n      dup4\n        /* \"#utility.yul\":756:762   */\n      dup4\n        /* \"#utility.yul\":722:768   */\n      tag_100\n      jump\t// in\n    tag_99:\n        /* \"#utility.yul\":800:804   */\n      0x20\n        /* \"#utility.yul\":795:798   */\n      dup4\n        /* \"#utility.yul\":791:805   */\n      add\n        /* \"#utility.yul\":777:805   */\n      swap1\n      pop\n        /* \"#utility.yul\":632:811   */\n      swap3\n      swap2\n      pop\n      pop\n      jump\t// out\n        /* \"#utility.yul\":847:1579   */\n    tag_101:\n        /* \"#utility.yul\":966:969   */\n      0x00\n        /* \"#utility.yul\":995:1049   */\n      tag_103\n        /* \"#utility.yul\":1043:1048   */\n      dup3\n        /* \"#utility.yul\":995:1049   */\n      tag_104\n      jump\t// in\n    tag_103:\n        /* \"#utility.yul\":1065:1151   */\n      tag_105\n        /* \"#utility.yul\":1144:1150   */\n      dup2\n        /* \"#utility.yul\":1139:1142   */\n      dup6\n        /* \"#utility.yul\":1065:1151   */\n      tag_106\n      jump\t// in\n    tag_105:\n        /* \"#utility.yul\":1058:1151   */\n      swap4\n      pop\n        /* \"#utility.yul\":1175:1231   */\n      tag_107\n        /* \"#utility.yul\":1225:1230   */\n      dup4\n        /* \"#utility.yul\":1175:1231   */\n      tag_108\n      jump\t// in\n    tag_107:\n        /* \"#utility.yul\":1254:1261   */\n      dup1\n        /* \"#utility.yul\":1285:1286   */\n      0x00\n        /* \"#utility.yul\":1270:1554   */\n    tag_109:\n        /* \"#utility.yul\":1295:1301   */\n      dup4\n        /* \"#utility.yul\":1292:1293   */\n      dup2\n        /* \"#utility.yul\":1289:1302   */\n      lt\n        /* \"#utility.yul\":1270:1554   */\n      iszero\n      tag_111\n      jumpi\n        /* \"#utility.yul\":1371:1377   */\n      dup2\n        /* \"#utility.yul\":1365:1378   */\n      mload\n        /* \"#utility.yul\":1398:1461   */\n      tag_112\n        /* \"#utility.yul\":1457:1460   */\n      dup9\n        /* \"#utility.yul\":1442:1455   */\n      dup3\n        /* \"#utility.yul\":1398:1461   */\n      tag_97\n      jump\t// in\n    tag_112:\n        /* \"#utility.yul\":1391:1461   */\n      swap8\n      pop\n        /* \"#utility.yul\":1484:1544   */\n      tag_113\n        /* \"#utility.yul\":1537:1543   */\n      dup4\n        /* \"#utility.yul\":1484:1544   */\n      tag_114\n      jump\t// in\n    tag_113:\n        /* \"#utility.yul\":1474:1544   */\n      swap3\n      pop\n        /* \"#utility.yul\":1330:1554   */\n      pop\n        /* \"#utility.yul\":1317:1318   */\n      0x01\n        /* \"#utility.yul\":1314:1315   */\n      dup2\n        /* \"#utility.yul\":1310:1319   */\n      add\n        /* \"#utility.yul\":1305:1319   */\n      swap1\n      pop\n        /* \"#utility.yul\":1270:1554   */\n      jump(tag_109)\n    tag_111:\n        /* \"#utility.yul\":1274:1288   */\n      pop\n        /* \"#utility.yul\":1570:1573   */\n      dup6\n        /* \"#utility.yul\":1563:1573   */\n      swap4\n      pop\n        /* \"#utility.yul\":971:1579   */\n      pop\n      pop\n      pop\n        /* \"#utility.yul\":847:1579   */\n      swap3\n      swap2\n      pop\n      pop\n      jump\t// out\n        /* \"#utility.yul\":1585:1949   */\n    tag_115:\n        /* \"#utility.yul\":1673:1676   */\n      0x00\n        /* \"#utility.yul\":1701:1740   */\n      tag_117\n        /* \"#utility.yul\":1734:1739   */\n      dup3\n        /* \"#utility.yul\":1701:1740   */\n      tag_118\n      jump\t// in\n    tag_117:\n        /* \"#utility.yul\":1756:1827   */\n      tag_119\n        /* \"#utility.yul\":1820:1826   */\n      dup2\n        /* \"#utility.yul\":1815:1818   */\n      dup6\n        /* \"#utility.yul\":1756:1827   */\n      tag_120\n      jump\t// in\n    tag_119:\n        /* \"#utility.yul\":1749:1827   */\n      swap4\n      pop\n        /* \"#utility.yul\":1836:1888   */\n      tag_121\n        /* \"#utility.yul\":1881:1887   */\n      dup2\n        /* \"#utility.yul\":1876:1879   */\n      dup6\n        /* \"#utility.yul\":1869:1873   */\n      0x20\n        /* \"#utility.yul\":1862:1867   */\n      dup7\n        /* \"#utility.yul\":1858:1874   */\n      add\n        /* \"#utility.yul\":1836:1888   */\n      tag_122\n      jump\t// in\n    tag_121:\n        /* \"#utility.yul\":1913:1942   */\n      tag_123\n        /* \"#utility.yul\":1935:1941   */\n      dup2\n        /* \"#utility.yul\":1913:1942   */\n      tag_124\n      jump\t// in\n    tag_123:\n        /* \"#utility.yul\":1908:1911   */\n      dup5\n        /* \"#utility.yul\":1904:1943   */\n      add\n        /* \"#utility.yul\":1897:1943   */\n      swap2\n      pop\n        /* \"#utility.yul\":1677:1949   */\n      pop\n        /* \"#utility.yul\":1585:1949   */\n      swap3\n      swap2\n      pop\n      pop\n      jump\t// out\n        /* \"#utility.yul\":1955:2063   */\n    tag_100:\n        /* \"#utility.yul\":2032:2056   */\n      tag_126\n        /* \"#utility.yul\":2050:2055   */\n      dup2\n        /* \"#utility.yul\":2032:2056   */\n      tag_127\n      jump\t// in\n    tag_126:\n        /* \"#utility.yul\":2027:2030   */\n      dup3\n        /* \"#utility.yul\":2020:2057   */\n      mstore\n        /* \"#utility.yul\":1955:2063   */\n      pop\n      pop\n      jump\t// out\n        /* \"#utility.yul\":2069:2187   */\n    tag_128:\n        /* \"#utility.yul\":2156:2180   */\n      tag_130\n        /* \"#utility.yul\":2174:2179   */\n      dup2\n        /* \"#utility.yul\":2156:2180   */\n      tag_127\n      jump\t// in\n    tag_130:\n        /* \"#utility.yul\":2151:2154   */\n      dup3\n        /* \"#utility.yul\":2144:2181   */\n      mstore\n        /* \"#utility.yul\":2069:2187   */\n      pop\n      pop\n      jump\t// out\n        /* \"#utility.yul\":2193:2566   */\n    tag_14:\n        /* \"#utility.yul\":2336:2340   */\n      0x00\n        /* \"#utility.yul\":2374:2376   */\n      0x20\n        /* \"#utility.yul\":2363:2372   */\n      dup3\n        /* \"#utility.yul\":2359:2377   */\n      add\n        /* \"#utility.yul\":2351:2377   */\n      swap1\n      pop\n        /* \"#utility.yul\":2423:2432   */\n      dup2\n        /* \"#utility.yul\":2417:2421   */\n      dup2\n        /* \"#utility.yul\":2413:2433   */\n      sub\n        /* \"#utility.yul\":2409:2410   */\n      0x00\n        /* \"#utility.yul\":2398:2407   */\n      dup4\n        /* \"#utility.yul\":2394:2411   */\n      add\n        /* \"#utility.yul\":2387:2434   */\n      mstore\n        /* \"#utility.yul\":2451:2559   */\n      tag_132\n        /* \"#utility.yul\":2554:2558   */\n      dup2\n        /* \"#utility.yul\":2545:2551   */\n      dup5\n        /* \"#utility.yul\":2451:2559   */\n      tag_101\n      jump\t// in\n    tag_132:\n        /* \"#utility.yul\":2443:2559   */\n      swap1\n      pop\n        /* \"#utility.yul\":2193:2566   */\n      swap3\n      swap2\n      pop\n      pop\n      jump\t// out\n        /* \"#utility.yul\":2572:2885   */\n    tag_22:\n        /* \"#utility.yul\":2685:2689   */\n      0x00\n        /* \"#utility.yul\":2723:2725   */\n      0x20\n        /* \"#utility.yul\":2712:2721   */\n      dup3\n        /* \"#utility.yul\":2708:2726   */\n      add\n        /* \"#utility.yul\":2700:2726   */\n      swap1\n      pop\n        /* \"#utility.yul\":2772:2781   */\n      dup2\n        /* \"#utility.yul\":2766:2770   */\n      dup2\n        /* \"#utility.yul\":2762:2782   */\n      sub\n        /* \"#utility.yul\":2758:2759   */\n      0x00\n        /* \"#utility.yul\":2747:2756   */\n      dup4\n        /* \"#utility.yul\":2743:2760   */\n      add\n        /* \"#utility.yul\":2736:2783   */\n      mstore\n        /* \"#utility.yul\":2800:2878   */\n      tag_134\n        /* \"#utility.yul\":2873:2877   */\n      dup2\n        /* \"#utility.yul\":2864:2870   */\n      dup5\n        /* \"#utility.yul\":2800:2878   */\n      tag_115\n      jump\t// in\n    tag_134:\n        /* \"#utility.yul\":2792:2878   */\n      swap1\n      pop\n        /* \"#utility.yul\":2572:2885   */\n      swap3\n      swap2\n      pop\n      pop\n      jump\t// out\n        /* \"#utility.yul\":2891:3113   */\n    tag_18:\n        /* \"#utility.yul\":2984:2988   */\n      0x00\n        /* \"#utility.yul\":3022:3024   */\n      0x20\n        /* \"#utility.yul\":3011:3020   */\n      dup3\n        /* \"#utility.yul\":3007:3025   */\n      add\n        /* \"#utility.yul\":2999:3025   */\n      swap1\n      pop\n        /* \"#utility.yul\":3035:3106   */\n      tag_136\n        /* \"#utility.yul\":3103:3104   */\n      0x00\n        /* \"#utility.yul\":3092:3101   */\n      dup4\n        /* \"#utility.yul\":3088:3105   */\n      add\n        /* \"#utility.yul\":3079:3085   */\n      dup5\n        /* \"#utility.yul\":3035:3106   */\n      tag_128\n      jump\t// in\n    tag_136:\n        /* \"#utility.yul\":2891:3113   */\n      swap3\n      swap2\n      pop\n      pop\n      jump\t// out\n        /* \"#utility.yul\":3200:3332   */\n    tag_108:\n        /* \"#utility.yul\":3267:3271   */\n      0x00\n        /* \"#utility.yul\":3290:3293   */\n      dup2\n        /* \"#utility.yul\":3282:3293   */\n      swap1\n      pop\n        /* \"#utility.yul\":3320:3324   */\n      0x20\n        /* \"#utility.yul\":3315:3318   */\n      dup3\n        /* \"#utility.yul\":3311:3325   */\n      add\n        /* \"#utility.yul\":3303:3325   */\n      swap1\n      pop\n        /* \"#utility.yul\":3200:3332   */\n      swap2\n      swap1\n      pop\n      jump\t// out\n        /* \"#utility.yul\":3338:3452   */\n    tag_104:\n        /* \"#utility.yul\":3405:3411   */\n      0x00\n        /* \"#utility.yul\":3439:3444   */\n      dup2\n        /* \"#utility.yul\":3433:3445   */\n      mload\n        /* \"#utility.yul\":3423:3445   */\n      swap1\n      pop\n        /* \"#utility.yul\":3338:3452   */\n      swap2\n      swap1\n      pop\n      jump\t// out\n        /* \"#utility.yul\":3458:3557   */\n    tag_118:\n        /* \"#utility.yul\":3510:3516   */\n      0x00\n        /* \"#utility.yul\":3544:3549   */\n      dup2\n        /* \"#utility.yul\":3538:3550   */\n      mload\n        /* \"#utility.yul\":3528:3550   */\n      swap1\n      pop\n        /* \"#utility.yul\":3458:3557   */\n      swap2\n      swap1\n      pop\n      jump\t// out\n        /* \"#utility.yul\":3563:3676   */\n    tag_114:\n        /* \"#utility.yul\":3633:3637   */\n      0x00\n        /* \"#utility.yul\":3665:3669   */\n      0x20\n        /* \"#utility.yul\":3660:3663   */\n      dup3\n        /* \"#utility.yul\":3656:3670   */\n      add\n        /* \"#utility.yul\":3648:3670   */\n      swap1\n      pop\n        /* \"#utility.yul\":3563:3676   */\n      swap2\n      swap1\n      pop\n      jump\t// out\n        /* \"#utility.yul\":3682:3866   */\n    tag_106:\n        /* \"#utility.yul\":3781:3792   */\n      0x00\n        /* \"#utility.yul\":3815:3821   */\n      dup3\n        /* \"#utility.yul\":3810:3813   */\n      dup3\n        /* \"#utility.yul\":3803:3822   */\n      mstore\n        /* \"#utility.yul\":3855:3859   */\n      0x20\n        /* \"#utility.yul\":3850:3853   */\n      dup3\n        /* \"#utility.yul\":3846:3860   */\n      add\n        /* \"#utility.yul\":3831:3860   */\n      swap1\n      pop\n        /* \"#utility.yul\":3682:3866   */\n      swap3\n      swap2\n      pop\n      pop\n      jump\t// out\n        /* \"#utility.yul\":3872:4041   */\n    tag_120:\n        /* \"#utility.yul\":3956:3967   */\n      0x00\n        /* \"#utility.yul\":3990:3996   */\n      dup3\n        /* \"#utility.yul\":3985:3988   */\n      dup3\n        /* \"#utility.yul\":3978:3997   */\n      mstore\n        /* \"#utility.yul\":4030:4034   */\n      0x20\n        /* \"#utility.yul\":4025:4028   */\n      dup3\n        /* \"#utility.yul\":4021:4035   */\n      add\n        /* \"#utility.yul\":4006:4035   */\n      swap1\n      pop\n        /* \"#utility.yul\":3872:4041   */\n      swap3\n      swap2\n      pop\n      pop\n      jump\t// out\n        /* \"#utility.yul\":4047:4124   */\n    tag_127:\n        /* \"#utility.yul\":4084:4091   */\n      0x00\n        /* \"#utility.yul\":4113:4118   */\n      dup2\n        /* \"#utility.yul\":4102:4118   */\n      swap1\n      pop\n        /* \"#utility.yul\":4047:4124   */\n      swap2\n      swap1\n      pop\n      jump\t// out\n        /* \"#utility.yul\":4130:4437   */\n    tag_122:\n        /* \"#utility.yul\":4198:4199   */\n      0x00\n        /* \"#utility.yul\":4208:4321   */\n    tag_147:\n        /* \"#utility.yul\":4222:4228   */\n      dup4\n        /* \"#utility.yul\":4219:4220   */\n      dup2\n        /* \"#utility.yul\":4216:4229   */\n      lt\n        /* \"#utility.yul\":4208:4321   */\n      iszero\n      tag_149\n      jumpi\n        /* \"#utility.yul\":4307:4308   */\n      dup1\n        /* \"#utility.yul\":4302:4305   */\n      dup3\n        /* \"#utility.yul\":4298:4309   */\n      add\n        /* \"#utility.yul\":4292:4310   */\n      mload\n        /* \"#utility.yul\":4288:4289   */\n      dup2\n        /* \"#utility.yul\":4283:4286   */\n      dup5\n        /* \"#utility.yul\":4279:4290   */\n      add\n        /* \"#utility.yul\":4272:4311   */\n      mstore\n        /* \"#utility.yul\":4244:4246   */\n      0x20\n        /* \"#utility.yul\":4241:4242   */\n      dup2\n        /* \"#utility.yul\":4237:4247   */\n      add\n        /* \"#utility.yul\":4232:4247   */\n      swap1\n      pop\n        /* \"#utility.yul\":4208:4321   */\n      jump(tag_147)\n    tag_149:\n        /* \"#utility.yul\":4339:4345   */\n      dup4\n        /* \"#utility.yul\":4336:4337   */\n      dup2\n        /* \"#utility.yul\":4333:4346   */\n      gt\n        /* \"#utility.yul\":4330:4431   */\n      iszero\n      tag_150\n      jumpi\n        /* \"#utility.yul\":4419:4420   */\n      0x00\n        /* \"#utility.yul\":4410:4416   */\n      dup5\n        /* \"#utility.yul\":4405:4408   */\n      dup5\n        /* \"#utility.yul\":4401:4417   */\n      add\n        /* \"#utility.yul\":4394:4421   */\n      mstore\n        /* \"#utility.yul\":4330:4431   */\n    tag_150:\n        /* \"#utility.yul\":4179:4437   */\n      pop\n        /* \"#utility.yul\":4130:4437   */\n      pop\n      pop\n      pop\n      jump\t// out\n        /* \"#utility.yul\":4443:4763   */\n    tag_41:\n        /* \"#utility.yul\":4487:4493   */\n      0x00\n        /* \"#utility.yul\":4524:4525   */\n      0x02\n        /* \"#utility.yul\":4518:4522   */\n      dup3\n        /* \"#utility.yul\":4514:4526   */\n      div\n        /* \"#utility.yul\":4504:4526   */\n      swap1\n      pop\n        /* \"#utility.yul\":4571:4572   */\n      0x01\n        /* \"#utility.yul\":4565:4569   */\n      dup3\n        /* \"#utility.yul\":4561:4573   */\n      and\n        /* \"#utility.yul\":4592:4610   */\n      dup1\n        /* \"#utility.yul\":4582:4663   */\n      tag_152\n      jumpi\n        /* \"#utility.yul\":4648:4652   */\n      0x7f\n        /* \"#utility.yul\":4640:4646   */\n      dup3\n        /* \"#utility.yul\":4636:4653   */\n      and\n        /* \"#utility.yul\":4626:4653   */\n      swap2\n      pop\n        /* \"#utility.yul\":4582:4663   */\n    tag_152:\n        /* \"#utility.yul\":4710:4712   */\n      0x20\n        /* \"#utility.yul\":4702:4708   */\n      dup3\n        /* \"#utility.yul\":4699:4713   */\n      lt\n        /* \"#utility.yul\":4679:4697   */\n      dup2\n        /* \"#utility.yul\":4676:4714   */\n      eq\n        /* \"#utility.yul\":4673:4757   */\n      iszero\n      tag_153\n      jumpi\n        /* \"#utility.yul\":4729:4747   */\n      tag_154\n      tag_155\n      jump\t// in\n    tag_154:\n        /* \"#utility.yul\":4673:4757   */\n    tag_153:\n        /* \"#utility.yul\":4494:4763   */\n      pop\n        /* \"#utility.yul\":4443:4763   */\n      swap2\n      swap1\n      pop\n      jump\t// out\n        /* \"#utility.yul\":4769:5002   */\n    tag_73:\n        /* \"#utility.yul\":4808:4811   */\n      0x00\n        /* \"#utility.yul\":4831:4855   */\n      tag_157\n        /* \"#utility.yul\":4849:4854   */\n      dup3\n        /* \"#utility.yul\":4831:4855   */\n      tag_127\n      jump\t// in\n    tag_157:\n        /* \"#utility.yul\":4822:4855   */\n      swap2\n      pop\n        /* \"#utility.yul\":4877:4943   */\n      0xffffffffffffffffffffffffffffffffffffffffffffffffffffffffffffffff\n        /* \"#utility.yul\":4870:4875   */\n      dup3\n        /* \"#utility.yul\":4867:4944   */\n      eq\n        /* \"#utility.yul\":4864:4967   */\n      iszero\n      tag_158\n      jumpi\n        /* \"#utility.yul\":4947:4965   */\n      tag_159\n      tag_160\n      jump\t// in\n    tag_159:\n        /* \"#utility.yul\":4864:4967   */\n    tag_158:\n        /* \"#utility.yul\":4994:4995   */\n      0x01\n        /* \"#utility.yul\":4987:4992   */\n      dup3\n        /* \"#utility.yul\":4983:4996   */\n      add\n        /* \"#utility.yul\":4976:4996   */\n      swap1\n      pop\n        /* \"#utility.yul\":4769:5002   */\n      swap2\n      swap1\n      pop\n      jump\t// out\n        /* \"#utility.yul\":5008:5188   */\n    tag_160:\n        /* \"#utility.yul\":5056:5133   */\n      0x4e487b7100000000000000000000000000000000000000000000000000000000\n        /* \"#utility.yul\":5053:5054   */\n      0x00\n        /* \"#utility.yul\":5046:5134   */\n      mstore\n        /* \"#utility.yul\":5153:5157   */\n      0x11\n        /* \"#utility.yul\":5150:5151   */\n      0x04\n        /* \"#utility.yul\":5143:5158   */\n      mstore\n        /* \"#utility.yul\":5177:5181   */\n      0x24\n        /* \"#utility.yul\":5174:5175   */\n      0x00\n        /* \"#utility.yul\":5167:5182   */\n      revert\n        /* \"#utility.yul\":5194:5374   */\n    tag_155:\n        /* \"#utility.yul\":5242:5319   */\n      0x4e487b7100000000000000000000000000000000000000000000000000000000\n        /* \"#utility.yul\":5239:5240   */\n      0x00\n        /* \"#utility.yul\":5232:5320   */\n      mstore\n        /* \"#utility.yul\":5339:5343   */\n      0x22\n        /* \"#utility.yul\":5336:5337   */\n      0x04\n        /* \"#utility.yul\":5329:5344   */\n      mstore\n        /* \"#utility.yul\":5363:5367   */\n      0x24\n        /* \"#utility.yul\":5360:5361   */\n      0x00\n        /* \"#utility.yul\":5353:5368   */\n      revert\n        /* \"#utility.yul\":5380:5560   */\n    tag_61:\n        /* \"#utility.yul\":5428:5505   */\n      0x4e487b7100000000000000000000000000000000000000000000000000000000\n        /* \"#utility.yul\":5425:5426   */\n      0x00\n        /* \"#utility.yul\":5418:5506   */\n      mstore\n        /* \"#utility.yul\":5525:5529   */\n      0x32\n        /* \"#utility.yul\":5522:5523   */\n      0x04\n        /* \"#utility.yul\":5515:5530   */\n      mstore\n        /* \"#utility.yul\":5549:5553   */\n      0x24\n        /* \"#utility.yul\":5546:5547   */\n      0x00\n        /* \"#utility.yul\":5539:5554   */\n      revert\n        /* \"#utility.yul\":5689:5806   */\n    tag_94:\n        /* \"#utility.yul\":5798:5799   */\n      0x00\n        /* \"#utility.yul\":5795:5796   */\n      dup1\n        /* \"#utility.yul\":5788:5800   */\n      revert\n        /* \"#utility.yul\":5812:5914   */\n    tag_124:\n        /* \"#utility.yul\":5853:5859   */\n      0x00\n        /* \"#utility.yul\":5904:5906   */\n      0x1f\n        /* \"#utility.yul\":5900:5907   */\n      not\n        /* \"#utility.yul\":5895:5897   */\n      0x1f\n        /* \"#utility.yul\":5888:5893   */\n      dup4\n        /* \"#utility.yul\":5884:5898   */\n      add\n        /* \"#utility.yul\":5880:5908   */\n      and\n        /* \"#utility.yul\":5870:5908   */\n      swap1\n      pop\n        /* \"#utility.yul\":5812:5914   */\n      swap2\n      swap1\n      pop\n      jump\t// out\n        /* \"#utility.yul\":5920:6042   */\n    tag_90:\n        /* \"#utility.yul\":5993:6017   */\n      tag_169\n        /* \"#utility.yul\":6011:6016   */\n      dup2\n        /* \"#utility.yul\":5993:6017   */\n      tag_127\n      jump\t// in\n    tag_169:\n        /* \"#utility.yul\":5986:5991   */\n      dup2\n        /* \"#utility.yul\":5983:6018   */\n      eq\n        /* \"#utility.yul\":5973:6036   */\n      tag_170\n      jumpi\n        /* \"#utility.yul\":6032:6033   */\n      0x00\n        /* \"#utility.yul\":6029:6030   */\n      dup1\n        /* \"#utility.yul\":6022:6034   */\n      revert\n        /* \"#utility.yul\":5973:6036   */\n    tag_170:\n        /* \"#utility.yul\":5920:6042   */\n      pop\n      jump\t// out\n\n    auxdata: 0xa2646970667358221220dc311a562cc5021bd6f0d0443cd4b49152b06bc4442bee61f86b9f66f806553f64736f6c63430008070033\n}\n",
				"bytecode": {
					"linkReferences": {},
					"object": "60806040526040518060a00160405280600a60ff168152602001601460ff168152602001601e60ff168152602001602860ff168152602001603260ff16815250600190600561004f929190610062565b5034801561005c57600080fd5b506100d1565b8280548282559060005260206000209081019282156100a3579160200282015b828111156100a2578251829060ff16905591602001919060010190610082565b5b5090506100b091906100b4565b5090565b5b808211156100cd5760008160009055506001016100b5565b5090565b6108c9806100e06000396000f3fe608060405234801561001057600080fd5b506004361061007d5760003560e01c80634678f8321161005b5780634678f832146100dc5780636bc7deae146100fa5780639fd44f5a14610118578063a80c52e9146101345761007d565b80630469a5e2146100825780630849cc99146100a05780633b0b0290146100be575b600080fd5b61008a61013e565b604051610097919061066d565b60405180910390f35b6100a8610196565b6040516100b591906106b1565b60405180910390f35b6100c66101a3565b6040516100d3919061068f565b60405180910390f35b6100e4610235565b6040516100f1919061068f565b60405180910390f35b6101026102c7565b60405161010f919061066d565b60405180910390f35b610132600480360381019061012d9190610560565b61031f565b005b61013c61047c565b005b6060600180548060200260200160405190810160405280929190818152602001828054801561018c57602002820191906000526020600020905b815481526020019060010190808311610178575b5050505050905090565b6000600180549050905090565b6060600080546101b29061075e565b80601f01602080910402602001604051908101604052809291908181526020018280546101de9061075e565b801561022b5780601f106102005761010080835404028352916020019161022b565b820191906000526020600020905b81548152906001019060200180831161020e57829003601f168201915b5050505050905090565b6060600080546102449061075e565b80601f01602080910402602001604051908101604052809291908181526020018280546102709061075e565b80156102bd5780601f10610292576101008083540402835291602001916102bd565b820191906000526020600020905b8154815290600101906020018083116102a057829003601f168201915b5050505050905090565b6060600180548060200260200160405190810160405280929190818152602001828054801561031557602002820191906000526020600020905b815481526020019060010190808311610301575b5050505050905090565b6040518060400160405280600681526020017f41424142414200000000000000000000000000000000000000000000000000008152506000908051906020019061036a9291906104a8565b508160018054905011156103ec57806001838154811061038d5761038c610837565b5b90600052602060002001819055506040518060400160405280601681526020017f757064617465206578697374696e6720737472696e6700000000000000000000815250600090805190602001906103e69291906104a8565b50610478565b600060018054905090505b82811161047657826001805490501461043957600160009080600181540180825580915050600190039060005260206000200160009091909190915055610463565b60018290806001815401808255809150506001900390600052602060002001600090919091909150555b808061046e90610790565b9150506103f7565b505b5050565b6001607b9080600181540180825580915050600190039060005260206000200160009091909190915055565b8280546104b49061075e565b90600052602060002090601f0160209004810192826104d6576000855561051d565b82601f106104ef57805160ff191683800117855561051d565b8280016001018555821561051d579182015b8281111561051c578251825591602001919060010190610501565b5b50905061052a919061052e565b5090565b5b8082111561054757600081600090555060010161052f565b5090565b60008135905061055a8161087c565b92915050565b6000806040838503121561057757610576610866565b5b60006105858582860161054b565b92505060206105968582860161054b565b9150509250929050565b60006105ac838361064f565b60208301905092915050565b60006105c3826106dc565b6105cd81856106ff565b93506105d8836106cc565b8060005b838110156106095781516105f088826105a0565b97506105fb836106f2565b9250506001810190506105dc565b5085935050505092915050565b6000610621826106e7565b61062b8185610710565b935061063b81856020860161072b565b6106448161086b565b840191505092915050565b61065881610721565b82525050565b61066781610721565b82525050565b6000602082019050818103600083015261068781846105b8565b905092915050565b600060208201905081810360008301526106a98184610616565b905092915050565b60006020820190506106c6600083018461065e565b92915050565b6000819050602082019050919050565b600081519050919050565b600081519050919050565b6000602082019050919050565b600082825260208201905092915050565b600082825260208201905092915050565b6000819050919050565b60005b8381101561074957808201518184015260208101905061072e565b83811115610758576000848401525b50505050565b6000600282049050600182168061077657607f821691505b6020821081141561078a57610789610808565b5b50919050565b600061079b82610721565b91507fffffffffffffffffffffffffffffffffffffffffffffffffffffffffffffffff8214156107ce576107cd6107d9565b5b600182019050919050565b7f4e487b7100000000000000000000000000000000000000000000000000000000600052601160045260246000fd5b7f4e487b7100000000000000000000000000000000000000000000000000000000600052602260045260246000fd5b7f4e487b7100000000000000000000000000000000000000000000000000000000600052603260045260246000fd5b600080fd5b6000601f19601f8301169050919050565b61088581610721565b811461089057600080fd5b5056fea2646970667358221220dc311a562cc5021bd6f0d0443cd4b49152b06bc4442bee61f86b9f66f806553f64736f6c63430008070033",
					"opcodes": "PUSH1 0x80 PUSH1 0x40 MSTORE PUSH1 0x40 MLOAD DUP1 PUSH1 0xA0 ADD PUSH1 0x40 MSTORE DUP1 PUSH1 0xA PUSH1 0xFF AND DUP2 MSTORE PUSH1 0x20 ADD PUSH1 0x14 PUSH1 0xFF AND DUP2 MSTORE PUSH1 0x20 ADD PUSH1 0x1E PUSH1 0xFF AND DUP2 MSTORE PUSH1 0x20 ADD PUSH1 0x28 PUSH1 0xFF AND DUP2 MSTORE PUSH1 0x20 ADD PUSH1 0x32 PUSH1 0xFF AND DUP2 MSTORE POP PUSH1 0x1 SWAP1 PUSH1 0x5 PUSH2 0x4F SWAP3 SWAP2 SWAP1 PUSH2 0x62 JUMP JUMPDEST POP CALLVALUE DUP1 ISZERO PUSH2 0x5C JUMPI PUSH1 0x0 DUP1 REVERT JUMPDEST POP PUSH2 0xD1 JUMP JUMPDEST DUP3 DUP1 SLOAD DUP3 DUP3 SSTORE SWAP1 PUSH1 0x0 MSTORE PUSH1 0x20 PUSH1 0x0 KECCAK256 SWAP1 DUP2 ADD SWAP3 DUP3 ISZERO PUSH2 0xA3 JUMPI SWAP2 PUSH1 0x20 MUL DUP3 ADD JUMPDEST DUP3 DUP2 GT ISZERO PUSH2 0xA2 JUMPI DUP3 MLOAD DUP3 SWAP1 PUSH1 0xFF AND SWAP1 SSTORE SWAP2 PUSH1 0x20 ADD SWAP2 SWAP1 PUSH1 0x1 ADD SWAP1 PUSH2 0x82 JUMP JUMPDEST JUMPDEST POP SWAP1 POP PUSH2 0xB0 SWAP2 SWAP1 PUSH2 0xB4 JUMP JUMPDEST POP SWAP1 JUMP JUMPDEST JUMPDEST DUP1 DUP3 GT ISZERO PUSH2 0xCD JUMPI PUSH1 0x0 DUP2 PUSH1 0x0 SWAP1 SSTORE POP PUSH1 0x1 ADD PUSH2 0xB5 JUMP JUMPDEST POP SWAP1 JUMP JUMPDEST PUSH2 0x8C9 DUP1 PUSH2 0xE0 PUSH1 0x0 CODECOPY PUSH1 0x0 RETURN INVALID PUSH1 0x80 PUSH1 0x40 MSTORE CALLVALUE DUP1 ISZERO PUSH2 0x10 JUMPI PUSH1 0x0 DUP1 REVERT JUMPDEST POP PUSH1 0x4 CALLDATASIZE LT PUSH2 0x7D JUMPI PUSH1 0x0 CALLDATALOAD PUSH1 0xE0 SHR DUP1 PUSH4 0x4678F832 GT PUSH2 0x5B JUMPI DUP1 PUSH4 0x4678F832 EQ PUSH2 0xDC JUMPI DUP1 PUSH4 0x6BC7DEAE EQ PUSH2 0xFA JUMPI DUP1 PUSH4 0x9FD44F5A EQ PUSH2 0x118 JUMPI DUP1 PUSH4 0xA80C52E9 EQ PUSH2 0x134 JUMPI PUSH2 0x7D JUMP JUMPDEST DUP1 PUSH4 0x469A5E2 EQ PUSH2 0x82 JUMPI DUP1 PUSH4 0x849CC99 EQ PUSH2 0xA0 JUMPI DUP1 PUSH4 0x3B0B0290 EQ PUSH2 0xBE JUMPI JUMPDEST PUSH1 0x0 DUP1 REVERT JUMPDEST PUSH2 0x8A PUSH2 0x13E JUMP JUMPDEST PUSH1 0x40 MLOAD PUSH2 0x97 SWAP2 SWAP1 PUSH2 0x66D JUMP JUMPDEST PUSH1 0x40 MLOAD DUP1 SWAP2 SUB SWAP1 RETURN JUMPDEST PUSH2 0xA8 PUSH2 0x196 JUMP JUMPDEST PUSH1 0x40 MLOAD PUSH2 0xB5 SWAP2 SWAP1 PUSH2 0x6B1 JUMP JUMPDEST PUSH1 0x40 MLOAD DUP1 SWAP2 SUB SWAP1 RETURN JUMPDEST PUSH2 0xC6 PUSH2 0x1A3 JUMP JUMPDEST PUSH1 0x40 MLOAD PUSH2 0xD3 SWAP2 SWAP1 PUSH2 0x68F JUMP JUMPDEST PUSH1 0x40 MLOAD DUP1 SWAP2 SUB SWAP1 RETURN JUMPDEST PUSH2 0xE4 PUSH2 0x235 JUMP JUMPDEST PUSH1 0x40 MLOAD PUSH2 0xF1 SWAP2 SWAP1 PUSH2 0x68F JUMP JUMPDEST PUSH1 0x40 MLOAD DUP1 SWAP2 SUB SWAP1 RETURN JUMPDEST PUSH2 0x102 PUSH2 0x2C7 JUMP JUMPDEST PUSH1 0x40 MLOAD PUSH2 0x10F SWAP2 SWAP1 PUSH2 0x66D JUMP JUMPDEST PUSH1 0x40 MLOAD DUP1 SWAP2 SUB SWAP1 RETURN JUMPDEST PUSH2 0x132 PUSH1 0x4 DUP1 CALLDATASIZE SUB DUP2 ADD SWAP1 PUSH2 0x12D SWAP2 SWAP1 PUSH2 0x560 JUMP JUMPDEST PUSH2 0x31F JUMP JUMPDEST STOP JUMPDEST PUSH2 0x13C PUSH2 0x47C JUMP JUMPDEST STOP JUMPDEST PUSH1 0x60 PUSH1 0x1 DUP1 SLOAD DUP1 PUSH1 0x20 MUL PUSH1 0x20 ADD PUSH1 0x40 MLOAD SWAP1 DUP2 ADD PUSH1 0x40 MSTORE DUP1 SWAP3 SWAP2 SWAP1 DUP2 DUP2 MSTORE PUSH1 0x20 ADD DUP3 DUP1 SLOAD DUP1 ISZERO PUSH2 0x18C JUMPI PUSH1 0x20 MUL DUP3 ADD SWAP2 SWAP1 PUSH1 0x0 MSTORE PUSH1 0x20 PUSH1 0x0 KECCAK256 SWAP1 JUMPDEST DUP2 SLOAD DUP2 MSTORE PUSH1 0x20 ADD SWAP1 PUSH1 0x1 ADD SWAP1 DUP1 DUP4 GT PUSH2 0x178 JUMPI JUMPDEST POP POP POP POP POP SWAP1 POP SWAP1 JUMP JUMPDEST PUSH1 0x0 PUSH1 0x1 DUP1 SLOAD SWAP1 POP SWAP1 POP SWAP1 JUMP JUMPDEST PUSH1 0x60 PUSH1 0x0 DUP1 SLOAD PUSH2 0x1B2 SWAP1 PUSH2 0x75E JUMP JUMPDEST DUP1 PUSH1 0x1F ADD PUSH1 0x20 DUP1 SWAP2 DIV MUL PUSH1 0x20 ADD PUSH1 0x40 MLOAD SWAP1 DUP2 ADD PUSH1 0x40 MSTORE DUP1 SWAP3 SWAP2 SWAP1 DUP2 DUP2 MSTORE PUSH1 0x20 ADD DUP3 DUP1 SLOAD PUSH2 0x1DE SWAP1 PUSH2 0x75E JUMP JUMPDEST DUP1 ISZERO PUSH2 0x22B JUMPI DUP1 PUSH1 0x1F LT PUSH2 0x200 JUMPI PUSH2 0x100 DUP1 DUP4 SLOAD DIV MUL DUP4 MSTORE SWAP2 PUSH1 0x20 ADD SWAP2 PUSH2 0x22B JUMP JUMPDEST DUP3 ADD SWAP2 SWAP1 PUSH1 0x0 MSTORE PUSH1 0x20 PUSH1 0x0 KECCAK256 SWAP1 JUMPDEST DUP2 SLOAD DUP2 MSTORE SWAP1 PUSH1 0x1 ADD SWAP1 PUSH1 0x20 ADD DUP1 DUP4 GT PUSH2 0x20E JUMPI DUP3 SWAP1 SUB PUSH1 0x1F AND DUP3 ADD SWAP2 JUMPDEST POP POP POP POP POP SWAP1 POP SWAP1 JUMP JUMPDEST PUSH1 0x60 PUSH1 0x0 DUP1 SLOAD PUSH2 0x244 SWAP1 PUSH2 0x75E JUMP JUMPDEST DUP1 PUSH1 0x1F ADD PUSH1 0x20 DUP1 SWAP2 DIV MUL PUSH1 0x20 ADD PUSH1 0x40 MLOAD SWAP1 DUP2 ADD PUSH1 0x40 MSTORE DUP1 SWAP3 SWAP2 SWAP1 DUP2 DUP2 MSTORE PUSH1 0x20 ADD DUP3 DUP1 SLOAD PUSH2 0x270 SWAP1 PUSH2 0x75E JUMP JUMPDEST DUP1 ISZERO PUSH2 0x2BD JUMPI DUP1 PUSH1 0x1F LT PUSH2 0x292 JUMPI PUSH2 0x100 DUP1 DUP4 SLOAD DIV MUL DUP4 MSTORE SWAP2 PUSH1 0x20 ADD SWAP2 PUSH2 0x2BD JUMP JUMPDEST DUP3 ADD SWAP2 SWAP1 PUSH1 0x0 MSTORE PUSH1 0x20 PUSH1 0x0 KECCAK256 SWAP1 JUMPDEST DUP2 SLOAD DUP2 MSTORE SWAP1 PUSH1 0x1 ADD SWAP1 PUSH1 0x20 ADD DUP1 DUP4 GT PUSH2 0x2A0 JUMPI DUP3 SWAP1 SUB PUSH1 0x1F AND DUP3 ADD SWAP2 JUMPDEST POP POP POP POP POP SWAP1 POP SWAP1 JUMP JUMPDEST PUSH1 0x60 PUSH1 0x1 DUP1 SLOAD DUP1 PUSH1 0x20 MUL PUSH1 0x20 ADD PUSH1 0x40 MLOAD SWAP1 DUP2 ADD PUSH1 0x40 MSTORE DUP1 SWAP3 SWAP2 SWAP1 DUP2 DUP2 MSTORE PUSH1 0x20 ADD DUP3 DUP1 SLOAD DUP1 ISZERO PUSH2 0x315 JUMPI PUSH1 0x20 MUL DUP3 ADD SWAP2 SWAP1 PUSH1 0x0 MSTORE PUSH1 0x20 PUSH1 0x0 KECCAK256 SWAP1 JUMPDEST DUP2 SLOAD DUP2 MSTORE PUSH1 0x20 ADD SWAP1 PUSH1 0x1 ADD SWAP1 DUP1 DUP4 GT PUSH2 0x301 JUMPI JUMPDEST POP POP POP POP POP SWAP1 POP SWAP1 JUMP JUMPDEST PUSH1 0x40 MLOAD DUP1 PUSH1 0x40 ADD PUSH1 0x40 MSTORE DUP1 PUSH1 0x6 DUP2 MSTORE PUSH1 0x20 ADD PUSH32 0x4142414241420000000000000000000000000000000000000000000000000000 DUP2 MSTORE POP PUSH1 0x0 SWAP1 DUP1 MLOAD SWAP1 PUSH1 0x20 ADD SWAP1 PUSH2 0x36A SWAP3 SWAP2 SWAP1 PUSH2 0x4A8 JUMP JUMPDEST POP DUP2 PUSH1 0x1 DUP1 SLOAD SWAP1 POP GT ISZERO PUSH2 0x3EC JUMPI DUP1 PUSH1 0x1 DUP4 DUP2 SLOAD DUP2 LT PUSH2 0x38D JUMPI PUSH2 0x38C PUSH2 0x837 JUMP JUMPDEST JUMPDEST SWAP1 PUSH1 0x0 MSTORE PUSH1 0x20 PUSH1 0x0 KECCAK256 ADD DUP2 SWAP1 SSTORE POP PUSH1 0x40 MLOAD DUP1 PUSH1 0x40 ADD PUSH1 0x40 MSTORE DUP1 PUSH1 0x16 DUP2 MSTORE PUSH1 0x20 ADD PUSH32 0x757064617465206578697374696E6720737472696E6700000000000000000000 DUP2 MSTORE POP PUSH1 0x0 SWAP1 DUP1 MLOAD SWAP1 PUSH1 0x20 ADD SWAP1 PUSH2 0x3E6 SWAP3 SWAP2 SWAP1 PUSH2 0x4A8 JUMP JUMPDEST POP PUSH2 0x478 JUMP JUMPDEST PUSH1 0x0 PUSH1 0x1 DUP1 SLOAD SWAP1 POP SWAP1 POP JUMPDEST DUP3 DUP2 GT PUSH2 0x476 JUMPI DUP3 PUSH1 0x1 DUP1 SLOAD SWAP1 POP EQ PUSH2 0x439 JUMPI PUSH1 0x1 PUSH1 0x0 SWAP1 DUP1 PUSH1 0x1 DUP2 SLOAD ADD DUP1 DUP3 SSTORE DUP1 SWAP2 POP POP PUSH1 0x1 SWAP1 SUB SWAP1 PUSH1 0x0 MSTORE PUSH1 0x20 PUSH1 0x0 KECCAK256 ADD PUSH1 0x0 SWAP1 SWAP2 SWAP1 SWAP2 SWAP1 SWAP2 POP SSTORE PUSH2 0x463 JUMP JUMPDEST PUSH1 0x1 DUP3 SWAP1 DUP1 PUSH1 0x1 DUP2 SLOAD ADD DUP1 DUP3 SSTORE DUP1 SWAP2 POP POP PUSH1 0x1 SWAP1 SUB SWAP1 PUSH1 0x0 MSTORE PUSH1 0x20 PUSH1 0x0 KECCAK256 ADD PUSH1 0x0 SWAP1 SWAP2 SWAP1 SWAP2 SWAP1 SWAP2 POP SSTORE JUMPDEST DUP1 DUP1 PUSH2 0x46E SWAP1 PUSH2 0x790 JUMP JUMPDEST SWAP2 POP POP PUSH2 0x3F7 JUMP JUMPDEST POP JUMPDEST POP POP JUMP JUMPDEST PUSH1 0x1 PUSH1 0x7B SWAP1 DUP1 PUSH1 0x1 DUP2 SLOAD ADD DUP1 DUP3 SSTORE DUP1 SWAP2 POP POP PUSH1 0x1 SWAP1 SUB SWAP1 PUSH1 0x0 MSTORE PUSH1 0x20 PUSH1 0x0 KECCAK256 ADD PUSH1 0x0 SWAP1 SWAP2 SWAP1 SWAP2 SWAP1 SWAP2 POP SSTORE JUMP JUMPDEST DUP3 DUP1 SLOAD PUSH2 0x4B4 SWAP1 PUSH2 0x75E JUMP JUMPDEST SWAP1 PUSH1 0x0 MSTORE PUSH1 0x20 PUSH1 0x0 KECCAK256 SWAP1 PUSH1 0x1F ADD PUSH1 0x20 SWAP1 DIV DUP2 ADD SWAP3 DUP3 PUSH2 0x4D6 JUMPI PUSH1 0x0 DUP6 SSTORE PUSH2 0x51D JUMP JUMPDEST DUP3 PUSH1 0x1F LT PUSH2 0x4EF JUMPI DUP1 MLOAD PUSH1 0xFF NOT AND DUP4 DUP1 ADD OR DUP6 SSTORE PUSH2 0x51D JUMP JUMPDEST DUP3 DUP1 ADD PUSH1 0x1 ADD DUP6 SSTORE DUP3 ISZERO PUSH2 0x51D JUMPI SWAP2 DUP3 ADD JUMPDEST DUP3 DUP2 GT ISZERO PUSH2 0x51C JUMPI DUP3 MLOAD DUP3 SSTORE SWAP2 PUSH1 0x20 ADD SWAP2 SWAP1 PUSH1 0x1 ADD SWAP1 PUSH2 0x501 JUMP JUMPDEST JUMPDEST POP SWAP1 POP PUSH2 0x52A SWAP2 SWAP1 PUSH2 0x52E JUMP JUMPDEST POP SWAP1 JUMP JUMPDEST JUMPDEST DUP1 DUP3 GT ISZERO PUSH2 0x547 JUMPI PUSH1 0x0 DUP2 PUSH1 0x0 SWAP1 SSTORE POP PUSH1 0x1 ADD PUSH2 0x52F JUMP JUMPDEST POP SWAP1 JUMP JUMPDEST PUSH1 0x0 DUP2 CALLDATALOAD SWAP1 POP PUSH2 0x55A DUP2 PUSH2 0x87C JUMP JUMPDEST SWAP3 SWAP2 POP POP JUMP JUMPDEST PUSH1 0x0 DUP1 PUSH1 0x40 DUP4 DUP6 SUB SLT ISZERO PUSH2 0x577 JUMPI PUSH2 0x576 PUSH2 0x866 JUMP JUMPDEST JUMPDEST PUSH1 0x0 PUSH2 0x585 DUP6 DUP3 DUP7 ADD PUSH2 0x54B JUMP JUMPDEST SWAP3 POP POP PUSH1 0x20 PUSH2 0x596 DUP6 DUP3 DUP7 ADD PUSH2 0x54B JUMP JUMPDEST SWAP2 POP POP SWAP3 POP SWAP3 SWAP1 POP JUMP JUMPDEST PUSH1 0x0 PUSH2 0x5AC DUP4 DUP4 PUSH2 0x64F JUMP JUMPDEST PUSH1 0x20 DUP4 ADD SWAP1 POP SWAP3 SWAP2 POP POP JUMP JUMPDEST PUSH1 0x0 PUSH2 0x5C3 DUP3 PUSH2 0x6DC JUMP JUMPDEST PUSH2 0x5CD DUP2 DUP6 PUSH2 0x6FF JUMP JUMPDEST SWAP4 POP PUSH2 0x5D8 DUP4 PUSH2 0x6CC JUMP JUMPDEST DUP1 PUSH1 0x0 JUMPDEST DUP4 DUP2 LT ISZERO PUSH2 0x609 JUMPI DUP2 MLOAD PUSH2 0x5F0 DUP9 DUP3 PUSH2 0x5A0 JUMP JUMPDEST SWAP8 POP PUSH2 0x5FB DUP4 PUSH2 0x6F2 JUMP JUMPDEST SWAP3 POP POP PUSH1 0x1 DUP2 ADD SWAP1 POP PUSH2 0x5DC JUMP JUMPDEST POP DUP6 SWAP4 POP POP POP POP SWAP3 SWAP2 POP POP JUMP JUMPDEST PUSH1 0x0 PUSH2 0x621 DUP3 PUSH2 0x6E7 JUMP JUMPDEST PUSH2 0x62B DUP2 DUP6 PUSH2 0x710 JUMP JUMPDEST SWAP4 POP PUSH2 0x63B DUP2 DUP6 PUSH1 0x20 DUP7 ADD PUSH2 0x72B JUMP JUMPDEST PUSH2 0x644 DUP2 PUSH2 0x86B JUMP JUMPDEST DUP5 ADD SWAP2 POP POP SWAP3 SWAP2 POP POP JUMP JUMPDEST PUSH2 0x658 DUP2 PUSH2 0x721 JUMP JUMPDEST DUP3 MSTORE POP POP JUMP JUMPDEST PUSH2 0x667 DUP2 PUSH2 0x721 JUMP JUMPDEST DUP3 MSTORE POP POP JUMP JUMPDEST PUSH1 0x0 PUSH1 0x20 DUP3 ADD SWAP1 POP DUP2 DUP2 SUB PUSH1 0x0 DUP4 ADD MSTORE PUSH2 0x687 DUP2 DUP5 PUSH2 0x5B8 JUMP JUMPDEST SWAP1 POP SWAP3 SWAP2 POP POP JUMP JUMPDEST PUSH1 0x0 PUSH1 0x20 DUP3 ADD SWAP1 POP DUP2 DUP2 SUB PUSH1 0x0 DUP4 ADD MSTORE PUSH2 0x6A9 DUP2 DUP5 PUSH2 0x616 JUMP JUMPDEST SWAP1 POP SWAP3 SWAP2 POP POP JUMP JUMPDEST PUSH1 0x0 PUSH1 0x20 DUP3 ADD SWAP1 POP PUSH2 0x6C6 PUSH1 0x0 DUP4 ADD DUP5 PUSH2 0x65E JUMP JUMPDEST SWAP3 SWAP2 POP POP JUMP JUMPDEST PUSH1 0x0 DUP2 SWAP1 POP PUSH1 0x20 DUP3 ADD SWAP1 POP SWAP2 SWAP1 POP JUMP JUMPDEST PUSH1 0x0 DUP2 MLOAD SWAP1 POP SWAP2 SWAP1 POP JUMP JUMPDEST PUSH1 0x0 DUP2 MLOAD SWAP1 POP SWAP2 SWAP1 POP JUMP JUMPDEST PUSH1 0x0 PUSH1 0x20 DUP3 ADD SWAP1 POP SWAP2 SWAP1 POP JUMP JUMPDEST PUSH1 0x0 DUP3 DUP3 MSTORE PUSH1 0x20 DUP3 ADD SWAP1 POP SWAP3 SWAP2 POP POP JUMP JUMPDEST PUSH1 0x0 DUP3 DUP3 MSTORE PUSH1 0x20 DUP3 ADD SWAP1 POP SWAP3 SWAP2 POP POP JUMP JUMPDEST PUSH1 0x0 DUP2 SWAP1 POP SWAP2 SWAP1 POP JUMP JUMPDEST PUSH1 0x0 JUMPDEST DUP4 DUP2 LT ISZERO PUSH2 0x749 JUMPI DUP1 DUP3 ADD MLOAD DUP2 DUP5 ADD MSTORE PUSH1 0x20 DUP2 ADD SWAP1 POP PUSH2 0x72E JUMP JUMPDEST DUP4 DUP2 GT ISZERO PUSH2 0x758 JUMPI PUSH1 0x0 DUP5 DUP5 ADD MSTORE JUMPDEST POP POP POP POP JUMP JUMPDEST PUSH1 0x0 PUSH1 0x2 DUP3 DIV SWAP1 POP PUSH1 0x1 DUP3 AND DUP1 PUSH2 0x776 JUMPI PUSH1 0x7F DUP3 AND SWAP2 POP JUMPDEST PUSH1 0x20 DUP3 LT DUP2 EQ ISZERO PUSH2 0x78A JUMPI PUSH2 0x789 PUSH2 0x808 JUMP JUMPDEST JUMPDEST POP SWAP2 SWAP1 POP JUMP JUMPDEST PUSH1 0x0 PUSH2 0x79B DUP3 PUSH2 0x721 JUMP JUMPDEST SWAP2 POP PUSH32 0xFFFFFFFFFFFFFFFFFFFFFFFFFFFFFFFFFFFFFFFFFFFFFFFFFFFFFFFFFFFFFFFF DUP3 EQ ISZERO PUSH2 0x7CE JUMPI PUSH2 0x7CD PUSH2 0x7D9 JUMP JUMPDEST JUMPDEST PUSH1 0x1 DUP3 ADD SWAP1 POP SWAP2 SWAP1 POP JUMP JUMPDEST PUSH32 0x4E487B7100000000000000000000000000000000000000000000000000000000 PUSH1 0x0 MSTORE PUSH1 0x11 PUSH1 0x4 MSTORE PUSH1 0x24 PUSH1 0x0 REVERT JUMPDEST PUSH32 0x4E487B7100000000000000000000000000000000000000000000000000000000 PUSH1 0x0 MSTORE PUSH1 0x22 PUSH1 0x4 MSTORE PUSH1 0x24 PUSH1 0x0 REVERT JUMPDEST PUSH32 0x4E487B7100000000000000000000000000000000000000000000000000000000 PUSH1 0x0 MSTORE PUSH1 0x32 PUSH1 0x4 MSTORE PUSH1 0x24 PUSH1 0x0 REVERT JUMPDEST PUSH1 0x0 DUP1 REVERT JUMPDEST PUSH1 0x0 PUSH1 0x1F NOT PUSH1 0x1F DUP4 ADD AND SWAP1 POP SWAP2 SWAP1 POP JUMP JUMPDEST PUSH2 0x885 DUP2 PUSH2 0x721 JUMP JUMPDEST DUP2 EQ PUSH2 0x890 JUMPI PUSH1 0x0 DUP1 REVERT JUMPDEST POP JUMP INVALID LOG2 PUSH5 0x6970667358 0x22 SLT KECCAK256 0xDC BALANCE BYTE JUMP 0x2C 0xC5 MUL SHL 0xD6 CREATE 0xD0 DIFFICULTY EXTCODECOPY 0xD4 0xB4 SWAP2 MSTORE 0xB0 PUSH12 0xC4442BEE61F86B9F66F80655 EXTCODEHASH PUSH5 0x736F6C6343 STOP ADDMOD SMOD STOP CALLER "
				},
				"gasEstimates": {
					"creation": {
						"codeDepositCost": "449800",
						"executionCost": "infinite",
						"totalCost": "infinite"
					},
					"external": {
						"getArrayLength()": "2468",
						"getarr()": "infinite",
						"getstatus()": "infinite",
						"getupdate()": "infinite",
						"pushnum()": "infinite",
						"simpleoushinarr()": "46633",
						"updatearr(uint256,uint256)": "infinite"
					}
				},
				"methodIdentifiers": {
					"getArrayLength()": "0849cc99",
					"getarr()": "6bc7deae",
					"getstatus()": "3b0b0290",
					"getupdate()": "4678f832",
					"pushnum()": "0469a5e2",
					"simpleoushinarr()": "a80c52e9",
					"updatearr(uint256,uint256)": "9fd44f5a"
				}
			},
			"storageLayout": {
				"storage": [
					{
						"astId": 3,
						"contract": "dynamicsizearr.sol:fixedsizearray",
						"label": "status",
						"offset": 0,
						"slot": "0",
						"type": "t_string_storage"
					},
					{
						"astId": 12,
						"contract": "dynamicsizearr.sol:fixedsizearray",
						"label": "arr",
						"offset": 0,
						"slot": "1",
						"type": "t_array(t_uint256)dyn_storage"
					}
				],
				"types": {
					"t_array(t_uint256)dyn_storage": {
						"base": "t_uint256",
						"encoding": "dynamic_array",
						"label": "uint256[]",
						"numberOfBytes": "32"
					},
					"t_string_storage": {
						"encoding": "bytes",
						"label": "string",
						"numberOfBytes": "32"
					},
					"t_uint256": {
						"encoding": "inplace",
						"label": "uint256",
						"numberOfBytes": "32"
					}
				}
			},
			"userdoc": {
				"kind": "user",
				"methods": {},
				"version": 1
			}
		}
	}
}