{
	"lotterySmartContract.sol": {
		"Lottery": {
			"abi": [
				{
					"inputs": [],
					"stateMutability": "nonpayable",
					"type": "constructor"
				},
				{
					"inputs": [],
					"name": "enter",
					"outputs": [],
					"stateMutability": "payable",
					"type": "function"
				},
				{
					"inputs": [],
					"name": "manager",
					"outputs": [
						{
							"internalType": "address",
							"name": "",
							"type": "address"
						}
					],
					"stateMutability": "view",
					"type": "function"
				},
				{
					"inputs": [
						{
							"internalType": "uint256",
							"name": "",
							"type": "uint256"
						}
					],
					"name": "players",
					"outputs": [
						{
							"internalType": "address payable",
							"name": "",
							"type": "address"
						}
					],
					"stateMutability": "view",
					"type": "function"
				}
			],
			"devdoc": {
				"kind": "dev",
				"methods": {},
				"version": 1
			},
			"evm": {
				"assembly": "    /* \"lotterySmartContract.sol\":62:784  contract Lottery{... */\n  mstore(0x40, 0x80)\n    /* \"lotterySmartContract.sol\":153:203  constructor(){... */\n  callvalue\n  dup1\n  iszero\n  tag_1\n  jumpi\n  0x00\n  dup1\n  revert\ntag_1:\n  pop\n    /* \"lotterySmartContract.sol\":186:196  msg.sender */\n  caller\n    /* \"lotterySmartContract.sol\":176:183  manager */\n  0x00\n  dup1\n    /* \"lotterySmartContract.sol\":176:196  manager = msg.sender */\n  0x0100\n  exp\n  dup2\n  sload\n  dup2\n  0xffffffffffffffffffffffffffffffffffffffff\n  mul\n  not\n  and\n  swap1\n  dup4\n  0xffffffffffffffffffffffffffffffffffffffff\n  and\n  mul\n  or\n  swap1\n  sstore\n  pop\n    /* \"lotterySmartContract.sol\":62:784  contract Lottery{... */\n  dataSize(sub_0)\n  dup1\n  dataOffset(sub_0)\n  0x00\n  codecopy\n  0x00\n  return\nstop\n\nsub_0: assembly {\n        /* \"lotterySmartContract.sol\":62:784  contract Lottery{... */\n      mstore(0x40, 0x80)\n      jumpi(tag_1, lt(calldatasize, 0x04))\n      shr(0xe0, calldataload(0x00))\n      dup1\n      0x481c6a75\n      eq\n      tag_2\n      jumpi\n      dup1\n      0xe97dcb62\n      eq\n      tag_3\n      jumpi\n      dup1\n      0xf71d96cb\n      eq\n      tag_4\n      jumpi\n    tag_1:\n      0x00\n      dup1\n      revert\n        /* \"lotterySmartContract.sol\":85:107  address public manager */\n    tag_2:\n      callvalue\n      dup1\n      iszero\n      tag_5\n      jumpi\n      0x00\n      dup1\n      revert\n    tag_5:\n      pop\n      tag_6\n      tag_7\n      jump\t// in\n    tag_6:\n      mload(0x40)\n      tag_8\n      swap2\n      swap1\n      tag_9\n      jump\t// in\n    tag_8:\n      mload(0x40)\n      dup1\n      swap2\n      sub\n      swap1\n      return\n        /* \"lotterySmartContract.sol\":437:741  function enter() payable public{... */\n    tag_3:\n      tag_10\n      tag_11\n      jump\t// in\n    tag_10:\n      stop\n        /* \"lotterySmartContract.sol\":113:145  address payable[] public players */\n    tag_4:\n      callvalue\n      dup1\n      iszero\n      tag_12\n      jumpi\n      0x00\n      dup1\n      revert\n    tag_12:\n      pop\n      tag_13\n      0x04\n      dup1\n      calldatasize\n      sub\n      dup2\n      add\n      swap1\n      tag_14\n      swap2\n      swap1\n      tag_15\n      jump\t// in\n    tag_14:\n      tag_16\n      jump\t// in\n    tag_13:\n      mload(0x40)\n      tag_17\n      swap2\n      swap1\n      tag_18\n      jump\t// in\n    tag_17:\n      mload(0x40)\n      dup1\n      swap2\n      sub\n      swap1\n      return\n        /* \"lotterySmartContract.sol\":85:107  address public manager */\n    tag_7:\n      0x00\n      dup1\n      sload\n      swap1\n      0x0100\n      exp\n      swap1\n      div\n      0xffffffffffffffffffffffffffffffffffffffff\n      and\n      dup2\n      jump\t// out\n        /* \"lotterySmartContract.sol\":437:741  function enter() payable public{... */\n    tag_11:\n        /* \"lotterySmartContract.sol\":500:507  manager */\n      0x00\n      dup1\n      sload\n      swap1\n      0x0100\n      exp\n      swap1\n      div\n      0xffffffffffffffffffffffffffffffffffffffff\n      and\n        /* \"lotterySmartContract.sol\":486:507  msg.sender != manager */\n      0xffffffffffffffffffffffffffffffffffffffff\n      and\n        /* \"lotterySmartContract.sol\":486:496  msg.sender */\n      caller\n        /* \"lotterySmartContract.sol\":486:507  msg.sender != manager */\n      0xffffffffffffffffffffffffffffffffffffffff\n      and\n      eq\n      iszero\n        /* \"lotterySmartContract.sol\":478:547  require(msg.sender != manager, \"Manager cannot enter in Competition\") */\n      tag_20\n      jumpi\n      mload(0x40)\n      0x08c379a000000000000000000000000000000000000000000000000000000000\n      dup2\n      mstore\n      0x04\n      add\n      tag_21\n      swap1\n      tag_22\n      jump\t// in\n    tag_21:\n      mload(0x40)\n      dup1\n      swap2\n      sub\n      swap1\n      revert\n    tag_20:\n        /* \"lotterySmartContract.sol\":585:590  false */\n      0x00\n        /* \"lotterySmartContract.sol\":565:590  alreadyEnteres() == false */\n      iszero\n      iszero\n        /* \"lotterySmartContract.sol\":565:581  alreadyEnteres() */\n      tag_23\n        /* \"lotterySmartContract.sol\":565:579  alreadyEnteres */\n      tag_24\n        /* \"lotterySmartContract.sol\":565:581  alreadyEnteres() */\n      jump\t// in\n    tag_23:\n        /* \"lotterySmartContract.sol\":565:590  alreadyEnteres() == false */\n      iszero\n      iszero\n      eq\n        /* \"lotterySmartContract.sol\":557:622  require(alreadyEnteres() == false, \"Player already Participated\") */\n      tag_25\n      jumpi\n      mload(0x40)\n      0x08c379a000000000000000000000000000000000000000000000000000000000\n      dup2\n      mstore\n      0x04\n      add\n      tag_26\n      swap1\n      tag_27\n      jump\t// in\n    tag_26:\n      mload(0x40)\n      dup1\n      swap2\n      sub\n      swap1\n      revert\n    tag_25:\n        /* \"lotterySmartContract.sol\":653:660  1 ether */\n      0x0de0b6b3a7640000\n        /* \"lotterySmartContract.sol\":640:649  msg.value */\n      callvalue\n        /* \"lotterySmartContract.sol\":640:660  msg.value >= 1 ether */\n      lt\n      iszero\n        /* \"lotterySmartContract.sol\":632:691  require(msg.value >= 1 ether, \"Mininmun amount is ! ether\") */\n      tag_28\n      jumpi\n      mload(0x40)\n      0x08c379a000000000000000000000000000000000000000000000000000000000\n      dup2\n      mstore\n      0x04\n      add\n      tag_29\n      swap1\n      tag_30\n      jump\t// in\n    tag_29:\n      mload(0x40)\n      dup1\n      swap2\n      sub\n      swap1\n      revert\n    tag_28:\n        /* \"lotterySmartContract.sol\":701:708  players */\n      0x01\n        /* \"lotterySmartContract.sol\":722:732  msg.sender */\n      caller\n        /* \"lotterySmartContract.sol\":701:734  players.push(payable(msg.sender)) */\n      swap1\n      dup1\n      0x01\n      dup2\n      sload\n      add\n      dup1\n      dup3\n      sstore\n      dup1\n      swap2\n      pop\n      pop\n      0x01\n      swap1\n      sub\n      swap1\n      0x00\n      mstore\n      keccak256(0x00, 0x20)\n      add\n      0x00\n      swap1\n      swap2\n      swap1\n      swap2\n      swap1\n      swap2\n      0x0100\n      exp\n      dup2\n      sload\n      dup2\n      0xffffffffffffffffffffffffffffffffffffffff\n      mul\n      not\n      and\n      swap1\n      dup4\n      0xffffffffffffffffffffffffffffffffffffffff\n      and\n      mul\n      or\n      swap1\n      sstore\n      pop\n        /* \"lotterySmartContract.sol\":437:741  function enter() payable public{... */\n      jump\t// out\n        /* \"lotterySmartContract.sol\":113:145  address payable[] public players */\n    tag_16:\n      0x01\n      dup2\n      dup2\n      sload\n      dup2\n      lt\n      tag_32\n      jumpi\n      0x00\n      dup1\n      revert\n    tag_32:\n      swap1\n      0x00\n      mstore\n      keccak256(0x00, 0x20)\n      add\n      0x00\n      swap2\n      pop\n      sload\n      swap1\n      0x0100\n      exp\n      swap1\n      div\n      0xffffffffffffffffffffffffffffffffffffffff\n      and\n      dup2\n      jump\t// out\n        /* \"lotterySmartContract.sol\":209:431  function alreadyEnteres() view private returns(bool){... */\n    tag_24:\n        /* \"lotterySmartContract.sol\":256:260  bool */\n      0x00\n        /* \"lotterySmartContract.sol\":275:281  uint i */\n      dup1\n        /* \"lotterySmartContract.sol\":282:283  0 */\n      0x00\n        /* \"lotterySmartContract.sol\":275:283  uint i=0 */\n      swap1\n      pop\n        /* \"lotterySmartContract.sol\":271:403  for(uint i=0; i<players.length;i++ ){... */\n    tag_35:\n        /* \"lotterySmartContract.sol\":287:294  players */\n      0x01\n        /* \"lotterySmartContract.sol\":287:301  players.length */\n      dup1\n      sload\n      swap1\n      pop\n        /* \"lotterySmartContract.sol\":285:286  i */\n      dup2\n        /* \"lotterySmartContract.sol\":285:301  i<players.length */\n      lt\n        /* \"lotterySmartContract.sol\":271:403  for(uint i=0; i<players.length;i++ ){... */\n      iszero\n      tag_36\n      jumpi\n        /* \"lotterySmartContract.sol\":338:345  players */\n      0x01\n        /* \"lotterySmartContract.sol\":346:347  i */\n      dup2\n        /* \"lotterySmartContract.sol\":338:348  players[i] */\n      dup2\n      sload\n      dup2\n      lt\n      tag_38\n      jumpi\n      tag_39\n      tag_40\n      jump\t// in\n    tag_39:\n    tag_38:\n      swap1\n      0x00\n      mstore\n      keccak256(0x00, 0x20)\n      add\n      0x00\n      swap1\n      sload\n      swap1\n      0x0100\n      exp\n      swap1\n      div\n      0xffffffffffffffffffffffffffffffffffffffff\n      and\n        /* \"lotterySmartContract.sol\":324:348  msg.sender == players[i] */\n      0xffffffffffffffffffffffffffffffffffffffff\n      and\n        /* \"lotterySmartContract.sol\":324:334  msg.sender */\n      caller\n        /* \"lotterySmartContract.sol\":324:348  msg.sender == players[i] */\n      0xffffffffffffffffffffffffffffffffffffffff\n      and\n      eq\n        /* \"lotterySmartContract.sol\":321:393  if(msg.sender == players[i]){... */\n      iszero\n      tag_42\n      jumpi\n        /* \"lotterySmartContract.sol\":374:378  true */\n      0x01\n        /* \"lotterySmartContract.sol\":367:378  return true */\n      swap2\n      pop\n      pop\n      jump(tag_34)\n        /* \"lotterySmartContract.sol\":321:393  if(msg.sender == players[i]){... */\n    tag_42:\n        /* \"lotterySmartContract.sol\":302:305  i++ */\n      dup1\n      dup1\n      tag_43\n      swap1\n      tag_44\n      jump\t// in\n    tag_43:\n      swap2\n      pop\n      pop\n        /* \"lotterySmartContract.sol\":271:403  for(uint i=0; i<players.length;i++ ){... */\n      jump(tag_35)\n    tag_36:\n      pop\n        /* \"lotterySmartContract.sol\":419:424  false */\n      0x00\n        /* \"lotterySmartContract.sol\":412:424  return false */\n      swap1\n      pop\n        /* \"lotterySmartContract.sol\":209:431  function alreadyEnteres() view private returns(bool){... */\n    tag_34:\n      swap1\n      jump\t// out\n        /* \"#utility.yul\":7:146   */\n    tag_46:\n        /* \"#utility.yul\":53:58   */\n      0x00\n        /* \"#utility.yul\":91:97   */\n      dup2\n        /* \"#utility.yul\":78:98   */\n      calldataload\n        /* \"#utility.yul\":69:98   */\n      swap1\n      pop\n        /* \"#utility.yul\":107:140   */\n      tag_48\n        /* \"#utility.yul\":134:139   */\n      dup2\n        /* \"#utility.yul\":107:140   */\n      tag_49\n      jump\t// in\n    tag_48:\n        /* \"#utility.yul\":7:146   */\n      swap3\n      swap2\n      pop\n      pop\n      jump\t// out\n        /* \"#utility.yul\":152:481   */\n    tag_15:\n        /* \"#utility.yul\":211:217   */\n      0x00\n        /* \"#utility.yul\":260:262   */\n      0x20\n        /* \"#utility.yul\":248:257   */\n      dup3\n        /* \"#utility.yul\":239:246   */\n      dup5\n        /* \"#utility.yul\":235:258   */\n      sub\n        /* \"#utility.yul\":231:263   */\n      slt\n        /* \"#utility.yul\":228:347   */\n      iszero\n      tag_51\n      jumpi\n        /* \"#utility.yul\":266:345   */\n      tag_52\n      tag_53\n      jump\t// in\n    tag_52:\n        /* \"#utility.yul\":228:347   */\n    tag_51:\n        /* \"#utility.yul\":386:387   */\n      0x00\n        /* \"#utility.yul\":411:464   */\n      tag_54\n        /* \"#utility.yul\":456:463   */\n      dup5\n        /* \"#utility.yul\":447:453   */\n      dup3\n        /* \"#utility.yul\":436:445   */\n      dup6\n        /* \"#utility.yul\":432:454   */\n      add\n        /* \"#utility.yul\":411:464   */\n      tag_46\n      jump\t// in\n    tag_54:\n        /* \"#utility.yul\":401:464   */\n      swap2\n      pop\n        /* \"#utility.yul\":357:474   */\n      pop\n        /* \"#utility.yul\":152:481   */\n      swap3\n      swap2\n      pop\n      pop\n      jump\t// out\n        /* \"#utility.yul\":487:629   */\n    tag_55:\n        /* \"#utility.yul\":590:622   */\n      tag_57\n        /* \"#utility.yul\":616:621   */\n      dup2\n        /* \"#utility.yul\":590:622   */\n      tag_58\n      jump\t// in\n    tag_57:\n        /* \"#utility.yul\":585:588   */\n      dup3\n        /* \"#utility.yul\":578:623   */\n      mstore\n        /* \"#utility.yul\":487:629   */\n      pop\n      pop\n      jump\t// out\n        /* \"#utility.yul\":635:753   */\n    tag_59:\n        /* \"#utility.yul\":722:746   */\n      tag_61\n        /* \"#utility.yul\":740:745   */\n      dup2\n        /* \"#utility.yul\":722:746   */\n      tag_62\n      jump\t// in\n    tag_61:\n        /* \"#utility.yul\":717:720   */\n      dup3\n        /* \"#utility.yul\":710:747   */\n      mstore\n        /* \"#utility.yul\":635:753   */\n      pop\n      pop\n      jump\t// out\n        /* \"#utility.yul\":759:1125   */\n    tag_63:\n        /* \"#utility.yul\":901:904   */\n      0x00\n        /* \"#utility.yul\":922:989   */\n      tag_65\n        /* \"#utility.yul\":986:988   */\n      0x1a\n        /* \"#utility.yul\":981:984   */\n      dup4\n        /* \"#utility.yul\":922:989   */\n      tag_66\n      jump\t// in\n    tag_65:\n        /* \"#utility.yul\":915:989   */\n      swap2\n      pop\n        /* \"#utility.yul\":998:1091   */\n      tag_67\n        /* \"#utility.yul\":1087:1090   */\n      dup3\n        /* \"#utility.yul\":998:1091   */\n      tag_68\n      jump\t// in\n    tag_67:\n        /* \"#utility.yul\":1116:1118   */\n      0x20\n        /* \"#utility.yul\":1111:1114   */\n      dup3\n        /* \"#utility.yul\":1107:1119   */\n      add\n        /* \"#utility.yul\":1100:1119   */\n      swap1\n      pop\n        /* \"#utility.yul\":759:1125   */\n      swap2\n      swap1\n      pop\n      jump\t// out\n        /* \"#utility.yul\":1131:1497   */\n    tag_69:\n        /* \"#utility.yul\":1273:1276   */\n      0x00\n        /* \"#utility.yul\":1294:1361   */\n      tag_71\n        /* \"#utility.yul\":1358:1360   */\n      0x23\n        /* \"#utility.yul\":1353:1356   */\n      dup4\n        /* \"#utility.yul\":1294:1361   */\n      tag_66\n      jump\t// in\n    tag_71:\n        /* \"#utility.yul\":1287:1361   */\n      swap2\n      pop\n        /* \"#utility.yul\":1370:1463   */\n      tag_72\n        /* \"#utility.yul\":1459:1462   */\n      dup3\n        /* \"#utility.yul\":1370:1463   */\n      tag_73\n      jump\t// in\n    tag_72:\n        /* \"#utility.yul\":1488:1490   */\n      0x40\n        /* \"#utility.yul\":1483:1486   */\n      dup3\n        /* \"#utility.yul\":1479:1491   */\n      add\n        /* \"#utility.yul\":1472:1491   */\n      swap1\n      pop\n        /* \"#utility.yul\":1131:1497   */\n      swap2\n      swap1\n      pop\n      jump\t// out\n        /* \"#utility.yul\":1503:1869   */\n    tag_74:\n        /* \"#utility.yul\":1645:1648   */\n      0x00\n        /* \"#utility.yul\":1666:1733   */\n      tag_76\n        /* \"#utility.yul\":1730:1732   */\n      0x1b\n        /* \"#utility.yul\":1725:1728   */\n      dup4\n        /* \"#utility.yul\":1666:1733   */\n      tag_66\n      jump\t// in\n    tag_76:\n        /* \"#utility.yul\":1659:1733   */\n      swap2\n      pop\n        /* \"#utility.yul\":1742:1835   */\n      tag_77\n        /* \"#utility.yul\":1831:1834   */\n      dup3\n        /* \"#utility.yul\":1742:1835   */\n      tag_78\n      jump\t// in\n    tag_77:\n        /* \"#utility.yul\":1860:1862   */\n      0x20\n        /* \"#utility.yul\":1855:1858   */\n      dup3\n        /* \"#utility.yul\":1851:1863   */\n      add\n        /* \"#utility.yul\":1844:1863   */\n      swap1\n      pop\n        /* \"#utility.yul\":1503:1869   */\n      swap2\n      swap1\n      pop\n      jump\t// out\n        /* \"#utility.yul\":1875:2097   */\n    tag_9:\n        /* \"#utility.yul\":1968:1972   */\n      0x00\n        /* \"#utility.yul\":2006:2008   */\n      0x20\n        /* \"#utility.yul\":1995:2004   */\n      dup3\n        /* \"#utility.yul\":1991:2009   */\n      add\n        /* \"#utility.yul\":1983:2009   */\n      swap1\n      pop\n        /* \"#utility.yul\":2019:2090   */\n      tag_80\n        /* \"#utility.yul\":2087:2088   */\n      0x00\n        /* \"#utility.yul\":2076:2085   */\n      dup4\n        /* \"#utility.yul\":2072:2089   */\n      add\n        /* \"#utility.yul\":2063:2069   */\n      dup5\n        /* \"#utility.yul\":2019:2090   */\n      tag_59\n      jump\t// in\n    tag_80:\n        /* \"#utility.yul\":1875:2097   */\n      swap3\n      swap2\n      pop\n      pop\n      jump\t// out\n        /* \"#utility.yul\":2103:2357   */\n    tag_18:\n        /* \"#utility.yul\":2212:2216   */\n      0x00\n        /* \"#utility.yul\":2250:2252   */\n      0x20\n        /* \"#utility.yul\":2239:2248   */\n      dup3\n        /* \"#utility.yul\":2235:2253   */\n      add\n        /* \"#utility.yul\":2227:2253   */\n      swap1\n      pop\n        /* \"#utility.yul\":2263:2350   */\n      tag_82\n        /* \"#utility.yul\":2347:2348   */\n      0x00\n        /* \"#utility.yul\":2336:2345   */\n      dup4\n        /* \"#utility.yul\":2332:2349   */\n      add\n        /* \"#utility.yul\":2323:2329   */\n      dup5\n        /* \"#utility.yul\":2263:2350   */\n      tag_55\n      jump\t// in\n    tag_82:\n        /* \"#utility.yul\":2103:2357   */\n      swap3\n      swap2\n      pop\n      pop\n      jump\t// out\n        /* \"#utility.yul\":2363:2782   */\n    tag_30:\n        /* \"#utility.yul\":2529:2533   */\n      0x00\n        /* \"#utility.yul\":2567:2569   */\n      0x20\n        /* \"#utility.yul\":2556:2565   */\n      dup3\n        /* \"#utility.yul\":2552:2570   */\n      add\n        /* \"#utility.yul\":2544:2570   */\n      swap1\n      pop\n        /* \"#utility.yul\":2616:2625   */\n      dup2\n        /* \"#utility.yul\":2610:2614   */\n      dup2\n        /* \"#utility.yul\":2606:2626   */\n      sub\n        /* \"#utility.yul\":2602:2603   */\n      0x00\n        /* \"#utility.yul\":2591:2600   */\n      dup4\n        /* \"#utility.yul\":2587:2604   */\n      add\n        /* \"#utility.yul\":2580:2627   */\n      mstore\n        /* \"#utility.yul\":2644:2775   */\n      tag_84\n        /* \"#utility.yul\":2770:2774   */\n      dup2\n        /* \"#utility.yul\":2644:2775   */\n      tag_63\n      jump\t// in\n    tag_84:\n        /* \"#utility.yul\":2636:2775   */\n      swap1\n      pop\n        /* \"#utility.yul\":2363:2782   */\n      swap2\n      swap1\n      pop\n      jump\t// out\n        /* \"#utility.yul\":2788:3207   */\n    tag_22:\n        /* \"#utility.yul\":2954:2958   */\n      0x00\n        /* \"#utility.yul\":2992:2994   */\n      0x20\n        /* \"#utility.yul\":2981:2990   */\n      dup3\n        /* \"#utility.yul\":2977:2995   */\n      add\n        /* \"#utility.yul\":2969:2995   */\n      swap1\n      pop\n        /* \"#utility.yul\":3041:3050   */\n      dup2\n        /* \"#utility.yul\":3035:3039   */\n      dup2\n        /* \"#utility.yul\":3031:3051   */\n      sub\n        /* \"#utility.yul\":3027:3028   */\n      0x00\n        /* \"#utility.yul\":3016:3025   */\n      dup4\n        /* \"#utility.yul\":3012:3029   */\n      add\n        /* \"#utility.yul\":3005:3052   */\n      mstore\n        /* \"#utility.yul\":3069:3200   */\n      tag_86\n        /* \"#utility.yul\":3195:3199   */\n      dup2\n        /* \"#utility.yul\":3069:3200   */\n      tag_69\n      jump\t// in\n    tag_86:\n        /* \"#utility.yul\":3061:3200   */\n      swap1\n      pop\n        /* \"#utility.yul\":2788:3207   */\n      swap2\n      swap1\n      pop\n      jump\t// out\n        /* \"#utility.yul\":3213:3632   */\n    tag_27:\n        /* \"#utility.yul\":3379:3383   */\n      0x00\n        /* \"#utility.yul\":3417:3419   */\n      0x20\n        /* \"#utility.yul\":3406:3415   */\n      dup3\n        /* \"#utility.yul\":3402:3420   */\n      add\n        /* \"#utility.yul\":3394:3420   */\n      swap1\n      pop\n        /* \"#utility.yul\":3466:3475   */\n      dup2\n        /* \"#utility.yul\":3460:3464   */\n      dup2\n        /* \"#utility.yul\":3456:3476   */\n      sub\n        /* \"#utility.yul\":3452:3453   */\n      0x00\n        /* \"#utility.yul\":3441:3450   */\n      dup4\n        /* \"#utility.yul\":3437:3454   */\n      add\n        /* \"#utility.yul\":3430:3477   */\n      mstore\n        /* \"#utility.yul\":3494:3625   */\n      tag_88\n        /* \"#utility.yul\":3620:3624   */\n      dup2\n        /* \"#utility.yul\":3494:3625   */\n      tag_74\n      jump\t// in\n    tag_88:\n        /* \"#utility.yul\":3486:3625   */\n      swap1\n      pop\n        /* \"#utility.yul\":3213:3632   */\n      swap2\n      swap1\n      pop\n      jump\t// out\n        /* \"#utility.yul\":3719:3888   */\n    tag_66:\n        /* \"#utility.yul\":3803:3814   */\n      0x00\n        /* \"#utility.yul\":3837:3843   */\n      dup3\n        /* \"#utility.yul\":3832:3835   */\n      dup3\n        /* \"#utility.yul\":3825:3844   */\n      mstore\n        /* \"#utility.yul\":3877:3881   */\n      0x20\n        /* \"#utility.yul\":3872:3875   */\n      dup3\n        /* \"#utility.yul\":3868:3882   */\n      add\n        /* \"#utility.yul\":3853:3882   */\n      swap1\n      pop\n        /* \"#utility.yul\":3719:3888   */\n      swap3\n      swap2\n      pop\n      pop\n      jump\t// out\n        /* \"#utility.yul\":3894:3990   */\n    tag_62:\n        /* \"#utility.yul\":3931:3938   */\n      0x00\n        /* \"#utility.yul\":3960:3984   */\n      tag_93\n        /* \"#utility.yul\":3978:3983   */\n      dup3\n        /* \"#utility.yul\":3960:3984   */\n      tag_94\n      jump\t// in\n    tag_93:\n        /* \"#utility.yul\":3949:3984   */\n      swap1\n      pop\n        /* \"#utility.yul\":3894:3990   */\n      swap2\n      swap1\n      pop\n      jump\t// out\n        /* \"#utility.yul\":3996:4100   */\n    tag_58:\n        /* \"#utility.yul\":4041:4048   */\n      0x00\n        /* \"#utility.yul\":4070:4094   */\n      tag_96\n        /* \"#utility.yul\":4088:4093   */\n      dup3\n        /* \"#utility.yul\":4070:4094   */\n      tag_94\n      jump\t// in\n    tag_96:\n        /* \"#utility.yul\":4059:4094   */\n      swap1\n      pop\n        /* \"#utility.yul\":3996:4100   */\n      swap2\n      swap1\n      pop\n      jump\t// out\n        /* \"#utility.yul\":4106:4232   */\n    tag_94:\n        /* \"#utility.yul\":4143:4150   */\n      0x00\n        /* \"#utility.yul\":4183:4225   */\n      0xffffffffffffffffffffffffffffffffffffffff\n        /* \"#utility.yul\":4176:4181   */\n      dup3\n        /* \"#utility.yul\":4172:4226   */\n      and\n        /* \"#utility.yul\":4161:4226   */\n      swap1\n      pop\n        /* \"#utility.yul\":4106:4232   */\n      swap2\n      swap1\n      pop\n      jump\t// out\n        /* \"#utility.yul\":4238:4315   */\n    tag_98:\n        /* \"#utility.yul\":4275:4282   */\n      0x00\n        /* \"#utility.yul\":4304:4309   */\n      dup2\n        /* \"#utility.yul\":4293:4309   */\n      swap1\n      pop\n        /* \"#utility.yul\":4238:4315   */\n      swap2\n      swap1\n      pop\n      jump\t// out\n        /* \"#utility.yul\":4321:4554   */\n    tag_44:\n        /* \"#utility.yul\":4360:4363   */\n      0x00\n        /* \"#utility.yul\":4383:4407   */\n      tag_101\n        /* \"#utility.yul\":4401:4406   */\n      dup3\n        /* \"#utility.yul\":4383:4407   */\n      tag_98\n      jump\t// in\n    tag_101:\n        /* \"#utility.yul\":4374:4407   */\n      swap2\n      pop\n        /* \"#utility.yul\":4429:4495   */\n      0xffffffffffffffffffffffffffffffffffffffffffffffffffffffffffffffff\n        /* \"#utility.yul\":4422:4427   */\n      dup3\n        /* \"#utility.yul\":4419:4496   */\n      eq\n        /* \"#utility.yul\":4416:4519   */\n      iszero\n      tag_102\n      jumpi\n        /* \"#utility.yul\":4499:4517   */\n      tag_103\n      tag_104\n      jump\t// in\n    tag_103:\n        /* \"#utility.yul\":4416:4519   */\n    tag_102:\n        /* \"#utility.yul\":4546:4547   */\n      0x01\n        /* \"#utility.yul\":4539:4544   */\n      dup3\n        /* \"#utility.yul\":4535:4548   */\n      add\n        /* \"#utility.yul\":4528:4548   */\n      swap1\n      pop\n        /* \"#utility.yul\":4321:4554   */\n      swap2\n      swap1\n      pop\n      jump\t// out\n        /* \"#utility.yul\":4560:4740   */\n    tag_104:\n        /* \"#utility.yul\":4608:4685   */\n      0x4e487b7100000000000000000000000000000000000000000000000000000000\n        /* \"#utility.yul\":4605:4606   */\n      0x00\n        /* \"#utility.yul\":4598:4686   */\n      mstore\n        /* \"#utility.yul\":4705:4709   */\n      0x11\n        /* \"#utility.yul\":4702:4703   */\n      0x04\n        /* \"#utility.yul\":4695:4710   */\n      mstore\n        /* \"#utility.yul\":4729:4733   */\n      0x24\n        /* \"#utility.yul\":4726:4727   */\n      0x00\n        /* \"#utility.yul\":4719:4734   */\n      revert\n        /* \"#utility.yul\":4746:4926   */\n    tag_40:\n        /* \"#utility.yul\":4794:4871   */\n      0x4e487b7100000000000000000000000000000000000000000000000000000000\n        /* \"#utility.yul\":4791:4792   */\n      0x00\n        /* \"#utility.yul\":4784:4872   */\n      mstore\n        /* \"#utility.yul\":4891:4895   */\n      0x32\n        /* \"#utility.yul\":4888:4889   */\n      0x04\n        /* \"#utility.yul\":4881:4896   */\n      mstore\n        /* \"#utility.yul\":4915:4919   */\n      0x24\n        /* \"#utility.yul\":4912:4913   */\n      0x00\n        /* \"#utility.yul\":4905:4920   */\n      revert\n        /* \"#utility.yul\":5055:5172   */\n    tag_53:\n        /* \"#utility.yul\":5164:5165   */\n      0x00\n        /* \"#utility.yul\":5161:5162   */\n      dup1\n        /* \"#utility.yul\":5154:5166   */\n      revert\n        /* \"#utility.yul\":5178:5354   */\n    tag_68:\n        /* \"#utility.yul\":5318:5346   */\n      0x4d696e696e6d756e20616d6f756e742069732021206574686572000000000000\n        /* \"#utility.yul\":5314:5315   */\n      0x00\n        /* \"#utility.yul\":5306:5312   */\n      dup3\n        /* \"#utility.yul\":5302:5316   */\n      add\n        /* \"#utility.yul\":5295:5347   */\n      mstore\n        /* \"#utility.yul\":5178:5354   */\n      pop\n      jump\t// out\n        /* \"#utility.yul\":5360:5582   */\n    tag_73:\n        /* \"#utility.yul\":5500:5534   */\n      0x4d616e616765722063616e6e6f7420656e74657220696e20436f6d7065746974\n        /* \"#utility.yul\":5496:5497   */\n      0x00\n        /* \"#utility.yul\":5488:5494   */\n      dup3\n        /* \"#utility.yul\":5484:5498   */\n      add\n        /* \"#utility.yul\":5477:5535   */\n      mstore\n        /* \"#utility.yul\":5569:5574   */\n      0x696f6e0000000000000000000000000000000000000000000000000000000000\n        /* \"#utility.yul\":5564:5566   */\n      0x20\n        /* \"#utility.yul\":5556:5562   */\n      dup3\n        /* \"#utility.yul\":5552:5567   */\n      add\n        /* \"#utility.yul\":5545:5575   */\n      mstore\n        /* \"#utility.yul\":5360:5582   */\n      pop\n      jump\t// out\n        /* \"#utility.yul\":5588:5765   */\n    tag_78:\n        /* \"#utility.yul\":5728:5757   */\n      0x506c6179657220616c7265616479205061727469636970617465640000000000\n        /* \"#utility.yul\":5724:5725   */\n      0x00\n        /* \"#utility.yul\":5716:5722   */\n      dup3\n        /* \"#utility.yul\":5712:5726   */\n      add\n        /* \"#utility.yul\":5705:5758   */\n      mstore\n        /* \"#utility.yul\":5588:5765   */\n      pop\n      jump\t// out\n        /* \"#utility.yul\":5771:5893   */\n    tag_49:\n        /* \"#utility.yul\":5844:5868   */\n      tag_114\n        /* \"#utility.yul\":5862:5867   */\n      dup2\n        /* \"#utility.yul\":5844:5868   */\n      tag_98\n      jump\t// in\n    tag_114:\n        /* \"#utility.yul\":5837:5842   */\n      dup2\n        /* \"#utility.yul\":5834:5869   */\n      eq\n        /* \"#utility.yul\":5824:5887   */\n      tag_115\n      jumpi\n        /* \"#utility.yul\":5883:5884   */\n      0x00\n        /* \"#utility.yul\":5880:5881   */\n      dup1\n        /* \"#utility.yul\":5873:5885   */\n      revert\n        /* \"#utility.yul\":5824:5887   */\n    tag_115:\n        /* \"#utility.yul\":5771:5893   */\n      pop\n      jump\t// out\n\n    auxdata: 0xa2646970667358221220d8e3b85c64c14b03746ecd7fe050f179e99d73ee9129c9b5c4f4c555362f5b4564736f6c63430008070033\n}\n",
				"bytecode": {
					"linkReferences": {},
					"object": "608060405234801561001057600080fd5b50336000806101000a81548173ffffffffffffffffffffffffffffffffffffffff021916908373ffffffffffffffffffffffffffffffffffffffff1602179055506106a0806100606000396000f3fe6080604052600436106100345760003560e01c8063481c6a7514610039578063e97dcb6214610064578063f71d96cb1461006e575b600080fd5b34801561004557600080fd5b5061004e6100ab565b60405161005b9190610411565b60405180910390f35b61006c6100cf565b005b34801561007a57600080fd5b506100956004803603810190610090919061035d565b61025c565b6040516100a2919061042c565b60405180910390f35b60008054906101000a900473ffffffffffffffffffffffffffffffffffffffff1681565b60008054906101000a900473ffffffffffffffffffffffffffffffffffffffff1673ffffffffffffffffffffffffffffffffffffffff163373ffffffffffffffffffffffffffffffffffffffff16141561015e576040517f08c379a000000000000000000000000000000000000000000000000000000000815260040161015590610467565b60405180910390fd5b6000151561016a61029b565b1515146101ac576040517f08c379a00000000000000000000000000000000000000000000000000000000081526004016101a390610487565b60405180910390fd5b670de0b6b3a76400003410156101f7576040517f08c379a00000000000000000000000000000000000000000000000000000000081526004016101ee90610447565b60405180910390fd5b6001339080600181540180825580915050600190039060005260206000200160009091909190916101000a81548173ffffffffffffffffffffffffffffffffffffffff021916908373ffffffffffffffffffffffffffffffffffffffff160217905550565b6001818154811061026c57600080fd5b906000526020600020016000915054906101000a900473ffffffffffffffffffffffffffffffffffffffff1681565b600080600090505b60018054905081101561033f57600181815481106102c4576102c361057e565b5b9060005260206000200160009054906101000a900473ffffffffffffffffffffffffffffffffffffffff1673ffffffffffffffffffffffffffffffffffffffff163373ffffffffffffffffffffffffffffffffffffffff16141561032c576001915050610345565b808061033790610506565b9150506102a3565b50600090505b90565b60008135905061035781610653565b92915050565b600060208284031215610373576103726105ad565b5b600061038184828501610348565b91505092915050565b610393816104ca565b82525050565b6103a2816104b8565b82525050565b60006103b5601a836104a7565b91506103c0826105b2565b602082019050919050565b60006103d86023836104a7565b91506103e3826105db565b604082019050919050565b60006103fb601b836104a7565b91506104068261062a565b602082019050919050565b60006020820190506104266000830184610399565b92915050565b6000602082019050610441600083018461038a565b92915050565b60006020820190508181036000830152610460816103a8565b9050919050565b60006020820190508181036000830152610480816103cb565b9050919050565b600060208201905081810360008301526104a0816103ee565b9050919050565b600082825260208201905092915050565b60006104c3826104dc565b9050919050565b60006104d5826104dc565b9050919050565b600073ffffffffffffffffffffffffffffffffffffffff82169050919050565b6000819050919050565b6000610511826104fc565b91507fffffffffffffffffffffffffffffffffffffffffffffffffffffffffffffffff8214156105445761054361054f565b5b600182019050919050565b7f4e487b7100000000000000000000000000000000000000000000000000000000600052601160045260246000fd5b7f4e487b7100000000000000000000000000000000000000000000000000000000600052603260045260246000fd5b600080fd5b7f4d696e696e6d756e20616d6f756e742069732021206574686572000000000000600082015250565b7f4d616e616765722063616e6e6f7420656e74657220696e20436f6d706574697460008201527f696f6e0000000000000000000000000000000000000000000000000000000000602082015250565b7f506c6179657220616c7265616479205061727469636970617465640000000000600082015250565b61065c816104fc565b811461066757600080fd5b5056fea2646970667358221220d8e3b85c64c14b03746ecd7fe050f179e99d73ee9129c9b5c4f4c555362f5b4564736f6c63430008070033",
					"opcodes": "PUSH1 0x80 PUSH1 0x40 MSTORE CALLVALUE DUP1 ISZERO PUSH2 0x10 JUMPI PUSH1 0x0 DUP1 REVERT JUMPDEST POP CALLER PUSH1 0x0 DUP1 PUSH2 0x100 EXP DUP2 SLOAD DUP2 PUSH20 0xFFFFFFFFFFFFFFFFFFFFFFFFFFFFFFFFFFFFFFFF MUL NOT AND SWAP1 DUP4 PUSH20 0xFFFFFFFFFFFFFFFFFFFFFFFFFFFFFFFFFFFFFFFF AND MUL OR SWAP1 SSTORE POP PUSH2 0x6A0 DUP1 PUSH2 0x60 PUSH1 0x0 CODECOPY PUSH1 0x0 RETURN INVALID PUSH1 0x80 PUSH1 0x40 MSTORE PUSH1 0x4 CALLDATASIZE LT PUSH2 0x34 JUMPI PUSH1 0x0 CALLDATALOAD PUSH1 0xE0 SHR DUP1 PUSH4 0x481C6A75 EQ PUSH2 0x39 JUMPI DUP1 PUSH4 0xE97DCB62 EQ PUSH2 0x64 JUMPI DUP1 PUSH4 0xF71D96CB EQ PUSH2 0x6E JUMPI JUMPDEST PUSH1 0x0 DUP1 REVERT JUMPDEST CALLVALUE DUP1 ISZERO PUSH2 0x45 JUMPI PUSH1 0x0 DUP1 REVERT JUMPDEST POP PUSH2 0x4E PUSH2 0xAB JUMP JUMPDEST PUSH1 0x40 MLOAD PUSH2 0x5B SWAP2 SWAP1 PUSH2 0x411 JUMP JUMPDEST PUSH1 0x40 MLOAD DUP1 SWAP2 SUB SWAP1 RETURN JUMPDEST PUSH2 0x6C PUSH2 0xCF JUMP JUMPDEST STOP JUMPDEST CALLVALUE DUP1 ISZERO PUSH2 0x7A JUMPI PUSH1 0x0 DUP1 REVERT JUMPDEST POP PUSH2 0x95 PUSH1 0x4 DUP1 CALLDATASIZE SUB DUP2 ADD SWAP1 PUSH2 0x90 SWAP2 SWAP1 PUSH2 0x35D JUMP JUMPDEST PUSH2 0x25C JUMP JUMPDEST PUSH1 0x40 MLOAD PUSH2 0xA2 SWAP2 SWAP1 PUSH2 0x42C JUMP JUMPDEST PUSH1 0x40 MLOAD DUP1 SWAP2 SUB SWAP1 RETURN JUMPDEST PUSH1 0x0 DUP1 SLOAD SWAP1 PUSH2 0x100 EXP SWAP1 DIV PUSH20 0xFFFFFFFFFFFFFFFFFFFFFFFFFFFFFFFFFFFFFFFF AND DUP2 JUMP JUMPDEST PUSH1 0x0 DUP1 SLOAD SWAP1 PUSH2 0x100 EXP SWAP1 DIV PUSH20 0xFFFFFFFFFFFFFFFFFFFFFFFFFFFFFFFFFFFFFFFF AND PUSH20 0xFFFFFFFFFFFFFFFFFFFFFFFFFFFFFFFFFFFFFFFF AND CALLER PUSH20 0xFFFFFFFFFFFFFFFFFFFFFFFFFFFFFFFFFFFFFFFF AND EQ ISZERO PUSH2 0x15E JUMPI PUSH1 0x40 MLOAD PUSH32 0x8C379A000000000000000000000000000000000000000000000000000000000 DUP2 MSTORE PUSH1 0x4 ADD PUSH2 0x155 SWAP1 PUSH2 0x467 JUMP JUMPDEST PUSH1 0x40 MLOAD DUP1 SWAP2 SUB SWAP1 REVERT JUMPDEST PUSH1 0x0 ISZERO ISZERO PUSH2 0x16A PUSH2 0x29B JUMP JUMPDEST ISZERO ISZERO EQ PUSH2 0x1AC JUMPI PUSH1 0x40 MLOAD PUSH32 0x8C379A000000000000000000000000000000000000000000000000000000000 DUP2 MSTORE PUSH1 0x4 ADD PUSH2 0x1A3 SWAP1 PUSH2 0x487 JUMP JUMPDEST PUSH1 0x40 MLOAD DUP1 SWAP2 SUB SWAP1 REVERT JUMPDEST PUSH8 0xDE0B6B3A7640000 CALLVALUE LT ISZERO PUSH2 0x1F7 JUMPI PUSH1 0x40 MLOAD PUSH32 0x8C379A000000000000000000000000000000000000000000000000000000000 DUP2 MSTORE PUSH1 0x4 ADD PUSH2 0x1EE SWAP1 PUSH2 0x447 JUMP JUMPDEST PUSH1 0x40 MLOAD DUP1 SWAP2 SUB SWAP1 REVERT JUMPDEST PUSH1 0x1 CALLER SWAP1 DUP1 PUSH1 0x1 DUP2 SLOAD ADD DUP1 DUP3 SSTORE DUP1 SWAP2 POP POP PUSH1 0x1 SWAP1 SUB SWAP1 PUSH1 0x0 MSTORE PUSH1 0x20 PUSH1 0x0 KECCAK256 ADD PUSH1 0x0 SWAP1 SWAP2 SWAP1 SWAP2 SWAP1 SWAP2 PUSH2 0x100 EXP DUP2 SLOAD DUP2 PUSH20 0xFFFFFFFFFFFFFFFFFFFFFFFFFFFFFFFFFFFFFFFF MUL NOT AND SWAP1 DUP4 PUSH20 0xFFFFFFFFFFFFFFFFFFFFFFFFFFFFFFFFFFFFFFFF AND MUL OR SWAP1 SSTORE POP JUMP JUMPDEST PUSH1 0x1 DUP2 DUP2 SLOAD DUP2 LT PUSH2 0x26C JUMPI PUSH1 0x0 DUP1 REVERT JUMPDEST SWAP1 PUSH1 0x0 MSTORE PUSH1 0x20 PUSH1 0x0 KECCAK256 ADD PUSH1 0x0 SWAP2 POP SLOAD SWAP1 PUSH2 0x100 EXP SWAP1 DIV PUSH20 0xFFFFFFFFFFFFFFFFFFFFFFFFFFFFFFFFFFFFFFFF AND DUP2 JUMP JUMPDEST PUSH1 0x0 DUP1 PUSH1 0x0 SWAP1 POP JUMPDEST PUSH1 0x1 DUP1 SLOAD SWAP1 POP DUP2 LT ISZERO PUSH2 0x33F JUMPI PUSH1 0x1 DUP2 DUP2 SLOAD DUP2 LT PUSH2 0x2C4 JUMPI PUSH2 0x2C3 PUSH2 0x57E JUMP JUMPDEST JUMPDEST SWAP1 PUSH1 0x0 MSTORE PUSH1 0x20 PUSH1 0x0 KECCAK256 ADD PUSH1 0x0 SWAP1 SLOAD SWAP1 PUSH2 0x100 EXP SWAP1 DIV PUSH20 0xFFFFFFFFFFFFFFFFFFFFFFFFFFFFFFFFFFFFFFFF AND PUSH20 0xFFFFFFFFFFFFFFFFFFFFFFFFFFFFFFFFFFFFFFFF AND CALLER PUSH20 0xFFFFFFFFFFFFFFFFFFFFFFFFFFFFFFFFFFFFFFFF AND EQ ISZERO PUSH2 0x32C JUMPI PUSH1 0x1 SWAP2 POP POP PUSH2 0x345 JUMP JUMPDEST DUP1 DUP1 PUSH2 0x337 SWAP1 PUSH2 0x506 JUMP JUMPDEST SWAP2 POP POP PUSH2 0x2A3 JUMP JUMPDEST POP PUSH1 0x0 SWAP1 POP JUMPDEST SWAP1 JUMP JUMPDEST PUSH1 0x0 DUP2 CALLDATALOAD SWAP1 POP PUSH2 0x357 DUP2 PUSH2 0x653 JUMP JUMPDEST SWAP3 SWAP2 POP POP JUMP JUMPDEST PUSH1 0x0 PUSH1 0x20 DUP3 DUP5 SUB SLT ISZERO PUSH2 0x373 JUMPI PUSH2 0x372 PUSH2 0x5AD JUMP JUMPDEST JUMPDEST PUSH1 0x0 PUSH2 0x381 DUP5 DUP3 DUP6 ADD PUSH2 0x348 JUMP JUMPDEST SWAP2 POP POP SWAP3 SWAP2 POP POP JUMP JUMPDEST PUSH2 0x393 DUP2 PUSH2 0x4CA JUMP JUMPDEST DUP3 MSTORE POP POP JUMP JUMPDEST PUSH2 0x3A2 DUP2 PUSH2 0x4B8 JUMP JUMPDEST DUP3 MSTORE POP POP JUMP JUMPDEST PUSH1 0x0 PUSH2 0x3B5 PUSH1 0x1A DUP4 PUSH2 0x4A7 JUMP JUMPDEST SWAP2 POP PUSH2 0x3C0 DUP3 PUSH2 0x5B2 JUMP JUMPDEST PUSH1 0x20 DUP3 ADD SWAP1 POP SWAP2 SWAP1 POP JUMP JUMPDEST PUSH1 0x0 PUSH2 0x3D8 PUSH1 0x23 DUP4 PUSH2 0x4A7 JUMP JUMPDEST SWAP2 POP PUSH2 0x3E3 DUP3 PUSH2 0x5DB JUMP JUMPDEST PUSH1 0x40 DUP3 ADD SWAP1 POP SWAP2 SWAP1 POP JUMP JUMPDEST PUSH1 0x0 PUSH2 0x3FB PUSH1 0x1B DUP4 PUSH2 0x4A7 JUMP JUMPDEST SWAP2 POP PUSH2 0x406 DUP3 PUSH2 0x62A JUMP JUMPDEST PUSH1 0x20 DUP3 ADD SWAP1 POP SWAP2 SWAP1 POP JUMP JUMPDEST PUSH1 0x0 PUSH1 0x20 DUP3 ADD SWAP1 POP PUSH2 0x426 PUSH1 0x0 DUP4 ADD DUP5 PUSH2 0x399 JUMP JUMPDEST SWAP3 SWAP2 POP POP JUMP JUMPDEST PUSH1 0x0 PUSH1 0x20 DUP3 ADD SWAP1 POP PUSH2 0x441 PUSH1 0x0 DUP4 ADD DUP5 PUSH2 0x38A JUMP JUMPDEST SWAP3 SWAP2 POP POP JUMP JUMPDEST PUSH1 0x0 PUSH1 0x20 DUP3 ADD SWAP1 POP DUP2 DUP2 SUB PUSH1 0x0 DUP4 ADD MSTORE PUSH2 0x460 DUP2 PUSH2 0x3A8 JUMP JUMPDEST SWAP1 POP SWAP2 SWAP1 POP JUMP JUMPDEST PUSH1 0x0 PUSH1 0x20 DUP3 ADD SWAP1 POP DUP2 DUP2 SUB PUSH1 0x0 DUP4 ADD MSTORE PUSH2 0x480 DUP2 PUSH2 0x3CB JUMP JUMPDEST SWAP1 POP SWAP2 SWAP1 POP JUMP JUMPDEST PUSH1 0x0 PUSH1 0x20 DUP3 ADD SWAP1 POP DUP2 DUP2 SUB PUSH1 0x0 DUP4 ADD MSTORE PUSH2 0x4A0 DUP2 PUSH2 0x3EE JUMP JUMPDEST SWAP1 POP SWAP2 SWAP1 POP JUMP JUMPDEST PUSH1 0x0 DUP3 DUP3 MSTORE PUSH1 0x20 DUP3 ADD SWAP1 POP SWAP3 SWAP2 POP POP JUMP JUMPDEST PUSH1 0x0 PUSH2 0x4C3 DUP3 PUSH2 0x4DC JUMP JUMPDEST SWAP1 POP SWAP2 SWAP1 POP JUMP JUMPDEST PUSH1 0x0 PUSH2 0x4D5 DUP3 PUSH2 0x4DC JUMP JUMPDEST SWAP1 POP SWAP2 SWAP1 POP JUMP JUMPDEST PUSH1 0x0 PUSH20 0xFFFFFFFFFFFFFFFFFFFFFFFFFFFFFFFFFFFFFFFF DUP3 AND SWAP1 POP SWAP2 SWAP1 POP JUMP JUMPDEST PUSH1 0x0 DUP2 SWAP1 POP SWAP2 SWAP1 POP JUMP JUMPDEST PUSH1 0x0 PUSH2 0x511 DUP3 PUSH2 0x4FC JUMP JUMPDEST SWAP2 POP PUSH32 0xFFFFFFFFFFFFFFFFFFFFFFFFFFFFFFFFFFFFFFFFFFFFFFFFFFFFFFFFFFFFFFFF DUP3 EQ ISZERO PUSH2 0x544 JUMPI PUSH2 0x543 PUSH2 0x54F JUMP JUMPDEST JUMPDEST PUSH1 0x1 DUP3 ADD SWAP1 POP SWAP2 SWAP1 POP JUMP JUMPDEST PUSH32 0x4E487B7100000000000000000000000000000000000000000000000000000000 PUSH1 0x0 MSTORE PUSH1 0x11 PUSH1 0x4 MSTORE PUSH1 0x24 PUSH1 0x0 REVERT JUMPDEST PUSH32 0x4E487B7100000000000000000000000000000000000000000000000000000000 PUSH1 0x0 MSTORE PUSH1 0x32 PUSH1 0x4 MSTORE PUSH1 0x24 PUSH1 0x0 REVERT JUMPDEST PUSH1 0x0 DUP1 REVERT JUMPDEST PUSH32 0x4D696E696E6D756E20616D6F756E742069732021206574686572000000000000 PUSH1 0x0 DUP3 ADD MSTORE POP JUMP JUMPDEST PUSH32 0x4D616E616765722063616E6E6F7420656E74657220696E20436F6D7065746974 PUSH1 0x0 DUP3 ADD MSTORE PUSH32 0x696F6E0000000000000000000000000000000000000000000000000000000000 PUSH1 0x20 DUP3 ADD MSTORE POP JUMP JUMPDEST PUSH32 0x506C6179657220616C7265616479205061727469636970617465640000000000 PUSH1 0x0 DUP3 ADD MSTORE POP JUMP JUMPDEST PUSH2 0x65C DUP2 PUSH2 0x4FC JUMP JUMPDEST DUP2 EQ PUSH2 0x667 JUMPI PUSH1 0x0 DUP1 REVERT JUMPDEST POP JUMP INVALID LOG2 PUSH5 0x6970667358 0x22 SLT KECCAK256 0xD8 0xE3 0xB8 0x5C PUSH5 0xC14B03746E 0xCD PUSH32 0xE050F179E99D73EE9129C9B5C4F4C555362F5B4564736F6C6343000807003300 "
				},
				"gasEstimates": {
					"creation": {
						"codeDepositCost": "339200",
						"executionCost": "24640",
						"totalCost": "363840"
					},
					"external": {
						"enter()": "infinite",
						"manager()": "2489",
						"players(uint256)": "4978"
					},
					"internal": {
						"alreadyEnteres()": "infinite",
						"random()": "infinite"
					}
				},
				"methodIdentifiers": {
					"enter()": "e97dcb62",
					"manager()": "481c6a75",
					"players(uint256)": "f71d96cb"
				}
			},
			"storageLayout": {
				"storage": [
					{
						"astId": 3,
						"contract": "lotterySmartContract.sol:Lottery",
						"label": "manager",
						"offset": 0,
						"slot": "0",
						"type": "t_address"
					},
					{
						"astId": 6,
						"contract": "lotterySmartContract.sol:Lottery",
						"label": "players",
						"offset": 0,
						"slot": "1",
						"type": "t_array(t_address_payable)dyn_storage"
					}
				],
				"types": {
					"t_address": {
						"encoding": "inplace",
						"label": "address",
						"numberOfBytes": "20"
					},
					"t_address_payable": {
						"encoding": "inplace",
						"label": "address payable",
						"numberOfBytes": "20"
					},
					"t_array(t_address_payable)dyn_storage": {
						"base": "t_address_payable",
						"encoding": "dynamic_array",
						"label": "address payable[]",
						"numberOfBytes": "32"
					}
				}
			},
			"userdoc": {
				"kind": "user",
				"methods": {},
				"version": 1
			}
		}
	}
}