{
	"sample.sol": {
		"ownable": {
			"abi": [
				{
					"inputs": [],
					"stateMutability": "nonpayable",
					"type": "constructor"
				},
				{
					"inputs": [],
					"name": "onlyowneraccess",
					"outputs": [],
					"stateMutability": "nonpayable",
					"type": "function"
				},
				{
					"inputs": [],
					"name": "owner",
					"outputs": [
						{
							"internalType": "address",
							"name": "",
							"type": "address"
						}
					],
					"stateMutability": "view",
					"type": "function"
				},
				{
					"inputs": [
						{
							"internalType": "address",
							"name": "_newOwner",
							"type": "address"
						}
					],
					"name": "setOwner",
					"outputs": [],
					"stateMutability": "nonpayable",
					"type": "function"
				}
			],
			"devdoc": {
				"kind": "dev",
				"methods": {},
				"version": 1
			},
			"evm": {
				"assembly": "    /* \"sample.sol\":62:654  contract ownable{... */\n  mstore(0x40, 0x80)\n    /* \"sample.sol\":112:220  constructor(){... */\n  callvalue\n  dup1\n  iszero\n  tag_1\n  jumpi\n  0x00\n  dup1\n  revert\ntag_1:\n  pop\n    /* \"sample.sol\":143:153  msg.sender */\n  caller\n    /* \"sample.sol\":135:140  owner */\n  0x00\n  dup1\n    /* \"sample.sol\":135:153  owner = msg.sender */\n  0x0100\n  exp\n  dup2\n  sload\n  dup2\n  0xffffffffffffffffffffffffffffffffffffffff\n  mul\n  not\n  and\n  swap1\n  dup4\n  0xffffffffffffffffffffffffffffffffffffffff\n  and\n  mul\n  or\n  swap1\n  sstore\n  pop\n    /* \"sample.sol\":62:654  contract ownable{... */\n  dataSize(sub_0)\n  dup1\n  dataOffset(sub_0)\n  0x00\n  codecopy\n  0x00\n  return\nstop\n\nsub_0: assembly {\n        /* \"sample.sol\":62:654  contract ownable{... */\n      mstore(0x40, 0x80)\n      callvalue\n      dup1\n      iszero\n      tag_1\n      jumpi\n      0x00\n      dup1\n      revert\n    tag_1:\n      pop\n      jumpi(tag_2, lt(calldatasize, 0x04))\n      shr(0xe0, calldataload(0x00))\n      dup1\n      0x13af4035\n      eq\n      tag_3\n      jumpi\n      dup1\n      0x14d17999\n      eq\n      tag_4\n      jumpi\n      dup1\n      0x8da5cb5b\n      eq\n      tag_5\n      jumpi\n    tag_2:\n      0x00\n      dup1\n      revert\n        /* \"sample.sol\":361:509  function setOwner(address _newOwner) public onlyowner{... */\n    tag_3:\n      tag_6\n      0x04\n      dup1\n      calldatasize\n      sub\n      dup2\n      add\n      swap1\n      tag_7\n      swap2\n      swap1\n      tag_8\n      jump\t// in\n    tag_7:\n      tag_9\n      jump\t// in\n    tag_6:\n      stop\n        /* \"sample.sol\":515:581  function onlyowneraccess() public onlyowner{... */\n    tag_4:\n      tag_10\n      tag_11\n      jump\t// in\n    tag_10:\n      stop\n        /* \"sample.sol\":84:104  address public owner */\n    tag_5:\n      tag_12\n      tag_13\n      jump\t// in\n    tag_12:\n      mload(0x40)\n      tag_14\n      swap2\n      swap1\n      tag_15\n      jump\t// in\n    tag_14:\n      mload(0x40)\n      dup1\n      swap2\n      sub\n      swap1\n      return\n        /* \"sample.sol\":361:509  function setOwner(address _newOwner) public onlyowner{... */\n    tag_9:\n        /* \"sample.sol\":317:322  owner */\n      0x00\n      dup1\n      sload\n      swap1\n      0x0100\n      exp\n      swap1\n      div\n      0xffffffffffffffffffffffffffffffffffffffff\n      and\n        /* \"sample.sol\":303:322  msg.sender == owner */\n      0xffffffffffffffffffffffffffffffffffffffff\n      and\n        /* \"sample.sol\":303:313  msg.sender */\n      caller\n        /* \"sample.sol\":303:322  msg.sender == owner */\n      0xffffffffffffffffffffffffffffffffffffffff\n      and\n      eq\n        /* \"sample.sol\":295:337  require(msg.sender == owner , \"not owner\") */\n      tag_17\n      jumpi\n      mload(0x40)\n      0x08c379a000000000000000000000000000000000000000000000000000000000\n      dup2\n      mstore\n      0x04\n      add\n      tag_18\n      swap1\n      tag_19\n      jump\t// in\n    tag_18:\n      mload(0x40)\n      dup1\n      swap2\n      sub\n      swap1\n      revert\n    tag_17:\n        /* \"sample.sol\":453:454  0 */\n      0x00\n        /* \"sample.sol\":432:455  _newOwner != address(0) */\n      0xffffffffffffffffffffffffffffffffffffffff\n      and\n        /* \"sample.sol\":432:441  _newOwner */\n      dup2\n        /* \"sample.sol\":432:455  _newOwner != address(0) */\n      0xffffffffffffffffffffffffffffffffffffffff\n      and\n      eq\n      iszero\n        /* \"sample.sol\":424:475  require(_newOwner != address(0), \"invalid Address\") */\n      tag_21\n      jumpi\n      mload(0x40)\n      0x08c379a000000000000000000000000000000000000000000000000000000000\n      dup2\n      mstore\n      0x04\n      add\n      tag_22\n      swap1\n      tag_23\n      jump\t// in\n    tag_22:\n      mload(0x40)\n      dup1\n      swap2\n      sub\n      swap1\n      revert\n    tag_21:\n        /* \"sample.sol\":493:502  _newOwner */\n      dup1\n        /* \"sample.sol\":485:490  owner */\n      0x00\n      dup1\n        /* \"sample.sol\":485:502  owner = _newOwner */\n      0x0100\n      exp\n      dup2\n      sload\n      dup2\n      0xffffffffffffffffffffffffffffffffffffffff\n      mul\n      not\n      and\n      swap1\n      dup4\n      0xffffffffffffffffffffffffffffffffffffffff\n      and\n      mul\n      or\n      swap1\n      sstore\n      pop\n        /* \"sample.sol\":361:509  function setOwner(address _newOwner) public onlyowner{... */\n      pop\n      jump\t// out\n        /* \"sample.sol\":515:581  function onlyowneraccess() public onlyowner{... */\n    tag_11:\n        /* \"sample.sol\":317:322  owner */\n      0x00\n      dup1\n      sload\n      swap1\n      0x0100\n      exp\n      swap1\n      div\n      0xffffffffffffffffffffffffffffffffffffffff\n      and\n        /* \"sample.sol\":303:322  msg.sender == owner */\n      0xffffffffffffffffffffffffffffffffffffffff\n      and\n        /* \"sample.sol\":303:313  msg.sender */\n      caller\n        /* \"sample.sol\":303:322  msg.sender == owner */\n      0xffffffffffffffffffffffffffffffffffffffff\n      and\n      eq\n        /* \"sample.sol\":295:337  require(msg.sender == owner , \"not owner\") */\n      tag_25\n      jumpi\n      mload(0x40)\n      0x08c379a000000000000000000000000000000000000000000000000000000000\n      dup2\n      mstore\n      0x04\n      add\n      tag_26\n      swap1\n      tag_19\n      jump\t// in\n    tag_26:\n      mload(0x40)\n      dup1\n      swap2\n      sub\n      swap1\n      revert\n    tag_25:\n        /* \"sample.sol\":515:581  function onlyowneraccess() public onlyowner{... */\n      jump\t// out\n        /* \"sample.sol\":84:104  address public owner */\n    tag_13:\n      0x00\n      dup1\n      sload\n      swap1\n      0x0100\n      exp\n      swap1\n      div\n      0xffffffffffffffffffffffffffffffffffffffff\n      and\n      dup2\n      jump\t// out\n        /* \"#utility.yul\":7:146   */\n    tag_29:\n      0x00\n        /* \"#utility.yul\":91:97   */\n      dup2\n        /* \"#utility.yul\":78:98   */\n      calldataload\n        /* \"#utility.yul\":69:98   */\n      swap1\n      pop\n        /* \"#utility.yul\":107:140   */\n      tag_31\n        /* \"#utility.yul\":134:139   */\n      dup2\n        /* \"#utility.yul\":107:140   */\n      tag_32\n      jump\t// in\n    tag_31:\n        /* \"#utility.yul\":59:146   */\n      swap3\n      swap2\n      pop\n      pop\n      jump\t// out\n        /* \"#utility.yul\":152:414   */\n    tag_8:\n      0x00\n        /* \"#utility.yul\":260:262   */\n      0x20\n        /* \"#utility.yul\":248:257   */\n      dup3\n        /* \"#utility.yul\":239:246   */\n      dup5\n        /* \"#utility.yul\":235:258   */\n      sub\n        /* \"#utility.yul\":231:263   */\n      slt\n        /* \"#utility.yul\":228:230   */\n      iszero\n      tag_34\n      jumpi\n        /* \"#utility.yul\":276:277   */\n      0x00\n        /* \"#utility.yul\":273:274   */\n      dup1\n        /* \"#utility.yul\":266:278   */\n      revert\n        /* \"#utility.yul\":228:230   */\n    tag_34:\n        /* \"#utility.yul\":319:320   */\n      0x00\n        /* \"#utility.yul\":344:397   */\n      tag_35\n        /* \"#utility.yul\":389:396   */\n      dup5\n        /* \"#utility.yul\":380:386   */\n      dup3\n        /* \"#utility.yul\":369:378   */\n      dup6\n        /* \"#utility.yul\":365:387   */\n      add\n        /* \"#utility.yul\":344:397   */\n      tag_29\n      jump\t// in\n    tag_35:\n        /* \"#utility.yul\":334:397   */\n      swap2\n      pop\n        /* \"#utility.yul\":290:407   */\n      pop\n        /* \"#utility.yul\":218:414   */\n      swap3\n      swap2\n      pop\n      pop\n      jump\t// out\n        /* \"#utility.yul\":420:538   */\n    tag_36:\n        /* \"#utility.yul\":507:531   */\n      tag_38\n        /* \"#utility.yul\":525:530   */\n      dup2\n        /* \"#utility.yul\":507:531   */\n      tag_39\n      jump\t// in\n    tag_38:\n        /* \"#utility.yul\":502:505   */\n      dup3\n        /* \"#utility.yul\":495:532   */\n      mstore\n        /* \"#utility.yul\":485:538   */\n      pop\n      pop\n      jump\t// out\n        /* \"#utility.yul\":544:850   */\n    tag_40:\n      0x00\n        /* \"#utility.yul\":707:773   */\n      tag_42\n        /* \"#utility.yul\":771:772   */\n      0x09\n        /* \"#utility.yul\":766:769   */\n      dup4\n        /* \"#utility.yul\":707:773   */\n      tag_43\n      jump\t// in\n    tag_42:\n        /* \"#utility.yul\":700:773   */\n      swap2\n      pop\n        /* \"#utility.yul\":803:814   */\n      0x6e6f74206f776e65720000000000000000000000000000000000000000000000\n        /* \"#utility.yul\":799:800   */\n      0x00\n        /* \"#utility.yul\":794:797   */\n      dup4\n        /* \"#utility.yul\":790:801   */\n      add\n        /* \"#utility.yul\":783:815   */\n      mstore\n        /* \"#utility.yul\":841:843   */\n      0x20\n        /* \"#utility.yul\":836:839   */\n      dup3\n        /* \"#utility.yul\":832:844   */\n      add\n        /* \"#utility.yul\":825:844   */\n      swap1\n      pop\n        /* \"#utility.yul\":690:850   */\n      swap2\n      swap1\n      pop\n      jump\t// out\n        /* \"#utility.yul\":856:1169   */\n    tag_44:\n      0x00\n        /* \"#utility.yul\":1019:1086   */\n      tag_46\n        /* \"#utility.yul\":1083:1085   */\n      0x0f\n        /* \"#utility.yul\":1078:1081   */\n      dup4\n        /* \"#utility.yul\":1019:1086   */\n      tag_43\n      jump\t// in\n    tag_46:\n        /* \"#utility.yul\":1012:1086   */\n      swap2\n      pop\n        /* \"#utility.yul\":1116:1133   */\n      0x696e76616c696420416464726573730000000000000000000000000000000000\n        /* \"#utility.yul\":1112:1113   */\n      0x00\n        /* \"#utility.yul\":1107:1110   */\n      dup4\n        /* \"#utility.yul\":1103:1114   */\n      add\n        /* \"#utility.yul\":1096:1134   */\n      mstore\n        /* \"#utility.yul\":1160:1162   */\n      0x20\n        /* \"#utility.yul\":1155:1158   */\n      dup3\n        /* \"#utility.yul\":1151:1163   */\n      add\n        /* \"#utility.yul\":1144:1163   */\n      swap1\n      pop\n        /* \"#utility.yul\":1002:1169   */\n      swap2\n      swap1\n      pop\n      jump\t// out\n        /* \"#utility.yul\":1175:1397   */\n    tag_15:\n      0x00\n        /* \"#utility.yul\":1306:1308   */\n      0x20\n        /* \"#utility.yul\":1295:1304   */\n      dup3\n        /* \"#utility.yul\":1291:1309   */\n      add\n        /* \"#utility.yul\":1283:1309   */\n      swap1\n      pop\n        /* \"#utility.yul\":1319:1390   */\n      tag_48\n        /* \"#utility.yul\":1387:1388   */\n      0x00\n        /* \"#utility.yul\":1376:1385   */\n      dup4\n        /* \"#utility.yul\":1372:1389   */\n      add\n        /* \"#utility.yul\":1363:1369   */\n      dup5\n        /* \"#utility.yul\":1319:1390   */\n      tag_36\n      jump\t// in\n    tag_48:\n        /* \"#utility.yul\":1273:1397   */\n      swap3\n      swap2\n      pop\n      pop\n      jump\t// out\n        /* \"#utility.yul\":1403:1822   */\n    tag_19:\n      0x00\n        /* \"#utility.yul\":1607:1609   */\n      0x20\n        /* \"#utility.yul\":1596:1605   */\n      dup3\n        /* \"#utility.yul\":1592:1610   */\n      add\n        /* \"#utility.yul\":1584:1610   */\n      swap1\n      pop\n        /* \"#utility.yul\":1656:1665   */\n      dup2\n        /* \"#utility.yul\":1650:1654   */\n      dup2\n        /* \"#utility.yul\":1646:1666   */\n      sub\n        /* \"#utility.yul\":1642:1643   */\n      0x00\n        /* \"#utility.yul\":1631:1640   */\n      dup4\n        /* \"#utility.yul\":1627:1644   */\n      add\n        /* \"#utility.yul\":1620:1667   */\n      mstore\n        /* \"#utility.yul\":1684:1815   */\n      tag_50\n        /* \"#utility.yul\":1810:1814   */\n      dup2\n        /* \"#utility.yul\":1684:1815   */\n      tag_40\n      jump\t// in\n    tag_50:\n        /* \"#utility.yul\":1676:1815   */\n      swap1\n      pop\n        /* \"#utility.yul\":1574:1822   */\n      swap2\n      swap1\n      pop\n      jump\t// out\n        /* \"#utility.yul\":1828:2247   */\n    tag_23:\n      0x00\n        /* \"#utility.yul\":2032:2034   */\n      0x20\n        /* \"#utility.yul\":2021:2030   */\n      dup3\n        /* \"#utility.yul\":2017:2035   */\n      add\n        /* \"#utility.yul\":2009:2035   */\n      swap1\n      pop\n        /* \"#utility.yul\":2081:2090   */\n      dup2\n        /* \"#utility.yul\":2075:2079   */\n      dup2\n        /* \"#utility.yul\":2071:2091   */\n      sub\n        /* \"#utility.yul\":2067:2068   */\n      0x00\n        /* \"#utility.yul\":2056:2065   */\n      dup4\n        /* \"#utility.yul\":2052:2069   */\n      add\n        /* \"#utility.yul\":2045:2092   */\n      mstore\n        /* \"#utility.yul\":2109:2240   */\n      tag_52\n        /* \"#utility.yul\":2235:2239   */\n      dup2\n        /* \"#utility.yul\":2109:2240   */\n      tag_44\n      jump\t// in\n    tag_52:\n        /* \"#utility.yul\":2101:2240   */\n      swap1\n      pop\n        /* \"#utility.yul\":1999:2247   */\n      swap2\n      swap1\n      pop\n      jump\t// out\n        /* \"#utility.yul\":2253:2422   */\n    tag_43:\n      0x00\n        /* \"#utility.yul\":2371:2377   */\n      dup3\n        /* \"#utility.yul\":2366:2369   */\n      dup3\n        /* \"#utility.yul\":2359:2378   */\n      mstore\n        /* \"#utility.yul\":2411:2415   */\n      0x20\n        /* \"#utility.yul\":2406:2409   */\n      dup3\n        /* \"#utility.yul\":2402:2416   */\n      add\n        /* \"#utility.yul\":2387:2416   */\n      swap1\n      pop\n        /* \"#utility.yul\":2349:2422   */\n      swap3\n      swap2\n      pop\n      pop\n      jump\t// out\n        /* \"#utility.yul\":2428:2524   */\n    tag_39:\n      0x00\n        /* \"#utility.yul\":2494:2518   */\n      tag_55\n        /* \"#utility.yul\":2512:2517   */\n      dup3\n        /* \"#utility.yul\":2494:2518   */\n      tag_56\n      jump\t// in\n    tag_55:\n        /* \"#utility.yul\":2483:2518   */\n      swap1\n      pop\n        /* \"#utility.yul\":2473:2524   */\n      swap2\n      swap1\n      pop\n      jump\t// out\n        /* \"#utility.yul\":2530:2656   */\n    tag_56:\n      0x00\n        /* \"#utility.yul\":2607:2649   */\n      0xffffffffffffffffffffffffffffffffffffffff\n        /* \"#utility.yul\":2600:2605   */\n      dup3\n        /* \"#utility.yul\":2596:2650   */\n      and\n        /* \"#utility.yul\":2585:2650   */\n      swap1\n      pop\n        /* \"#utility.yul\":2575:2656   */\n      swap2\n      swap1\n      pop\n      jump\t// out\n        /* \"#utility.yul\":2662:2784   */\n    tag_32:\n        /* \"#utility.yul\":2735:2759   */\n      tag_59\n        /* \"#utility.yul\":2753:2758   */\n      dup2\n        /* \"#utility.yul\":2735:2759   */\n      tag_39\n      jump\t// in\n    tag_59:\n        /* \"#utility.yul\":2728:2733   */\n      dup2\n        /* \"#utility.yul\":2725:2760   */\n      eq\n        /* \"#utility.yul\":2715:2717   */\n      tag_60\n      jumpi\n        /* \"#utility.yul\":2774:2775   */\n      0x00\n        /* \"#utility.yul\":2771:2772   */\n      dup1\n        /* \"#utility.yul\":2764:2776   */\n      revert\n        /* \"#utility.yul\":2715:2717   */\n    tag_60:\n        /* \"#utility.yul\":2705:2784   */\n      pop\n      jump\t// out\n\n    auxdata: 0xa26469706673582212205a06489c57afa2ed5c53be36353f016059fa2abcd7dbdb6a109229f1b676204564736f6c63430008000033\n}\n",
				"bytecode": {
					"linkReferences": {},
					"object": "608060405234801561001057600080fd5b50336000806101000a81548173ffffffffffffffffffffffffffffffffffffffff021916908373ffffffffffffffffffffffffffffffffffffffff160217905550610437806100606000396000f3fe608060405234801561001057600080fd5b50600436106100415760003560e01c806313af40351461004657806314d17999146100625780638da5cb5b1461006c575b600080fd5b610060600480360381019061005b9190610294565b61008a565b005b61006a6101cb565b005b61007461025b565b604051610081919061034c565b60405180910390f35b60008054906101000a900473ffffffffffffffffffffffffffffffffffffffff1673ffffffffffffffffffffffffffffffffffffffff163373ffffffffffffffffffffffffffffffffffffffff1614610118576040517f08c379a000000000000000000000000000000000000000000000000000000000815260040161010f90610367565b60405180910390fd5b600073ffffffffffffffffffffffffffffffffffffffff168173ffffffffffffffffffffffffffffffffffffffff161415610188576040517f08c379a000000000000000000000000000000000000000000000000000000000815260040161017f90610387565b60405180910390fd5b806000806101000a81548173ffffffffffffffffffffffffffffffffffffffff021916908373ffffffffffffffffffffffffffffffffffffffff16021790555050565b60008054906101000a900473ffffffffffffffffffffffffffffffffffffffff1673ffffffffffffffffffffffffffffffffffffffff163373ffffffffffffffffffffffffffffffffffffffff1614610259576040517f08c379a000000000000000000000000000000000000000000000000000000000815260040161025090610367565b60405180910390fd5b565b60008054906101000a900473ffffffffffffffffffffffffffffffffffffffff1681565b60008135905061028e816103ea565b92915050565b6000602082840312156102a657600080fd5b60006102b48482850161027f565b91505092915050565b6102c6816103b8565b82525050565b60006102d96009836103a7565b91507f6e6f74206f776e657200000000000000000000000000000000000000000000006000830152602082019050919050565b6000610319600f836103a7565b91507f696e76616c6964204164647265737300000000000000000000000000000000006000830152602082019050919050565b600060208201905061036160008301846102bd565b92915050565b60006020820190508181036000830152610380816102cc565b9050919050565b600060208201905081810360008301526103a08161030c565b9050919050565b600082825260208201905092915050565b60006103c3826103ca565b9050919050565b600073ffffffffffffffffffffffffffffffffffffffff82169050919050565b6103f3816103b8565b81146103fe57600080fd5b5056fea26469706673582212205a06489c57afa2ed5c53be36353f016059fa2abcd7dbdb6a109229f1b676204564736f6c63430008000033",
					"opcodes": "PUSH1 0x80 PUSH1 0x40 MSTORE CALLVALUE DUP1 ISZERO PUSH2 0x10 JUMPI PUSH1 0x0 DUP1 REVERT JUMPDEST POP CALLER PUSH1 0x0 DUP1 PUSH2 0x100 EXP DUP2 SLOAD DUP2 PUSH20 0xFFFFFFFFFFFFFFFFFFFFFFFFFFFFFFFFFFFFFFFF MUL NOT AND SWAP1 DUP4 PUSH20 0xFFFFFFFFFFFFFFFFFFFFFFFFFFFFFFFFFFFFFFFF AND MUL OR SWAP1 SSTORE POP PUSH2 0x437 DUP1 PUSH2 0x60 PUSH1 0x0 CODECOPY PUSH1 0x0 RETURN INVALID PUSH1 0x80 PUSH1 0x40 MSTORE CALLVALUE DUP1 ISZERO PUSH2 0x10 JUMPI PUSH1 0x0 DUP1 REVERT JUMPDEST POP PUSH1 0x4 CALLDATASIZE LT PUSH2 0x41 JUMPI PUSH1 0x0 CALLDATALOAD PUSH1 0xE0 SHR DUP1 PUSH4 0x13AF4035 EQ PUSH2 0x46 JUMPI DUP1 PUSH4 0x14D17999 EQ PUSH2 0x62 JUMPI DUP1 PUSH4 0x8DA5CB5B EQ PUSH2 0x6C JUMPI JUMPDEST PUSH1 0x0 DUP1 REVERT JUMPDEST PUSH2 0x60 PUSH1 0x4 DUP1 CALLDATASIZE SUB DUP2 ADD SWAP1 PUSH2 0x5B SWAP2 SWAP1 PUSH2 0x294 JUMP JUMPDEST PUSH2 0x8A JUMP JUMPDEST STOP JUMPDEST PUSH2 0x6A PUSH2 0x1CB JUMP JUMPDEST STOP JUMPDEST PUSH2 0x74 PUSH2 0x25B JUMP JUMPDEST PUSH1 0x40 MLOAD PUSH2 0x81 SWAP2 SWAP1 PUSH2 0x34C JUMP JUMPDEST PUSH1 0x40 MLOAD DUP1 SWAP2 SUB SWAP1 RETURN JUMPDEST PUSH1 0x0 DUP1 SLOAD SWAP1 PUSH2 0x100 EXP SWAP1 DIV PUSH20 0xFFFFFFFFFFFFFFFFFFFFFFFFFFFFFFFFFFFFFFFF AND PUSH20 0xFFFFFFFFFFFFFFFFFFFFFFFFFFFFFFFFFFFFFFFF AND CALLER PUSH20 0xFFFFFFFFFFFFFFFFFFFFFFFFFFFFFFFFFFFFFFFF AND EQ PUSH2 0x118 JUMPI PUSH1 0x40 MLOAD PUSH32 0x8C379A000000000000000000000000000000000000000000000000000000000 DUP2 MSTORE PUSH1 0x4 ADD PUSH2 0x10F SWAP1 PUSH2 0x367 JUMP JUMPDEST PUSH1 0x40 MLOAD DUP1 SWAP2 SUB SWAP1 REVERT JUMPDEST PUSH1 0x0 PUSH20 0xFFFFFFFFFFFFFFFFFFFFFFFFFFFFFFFFFFFFFFFF AND DUP2 PUSH20 0xFFFFFFFFFFFFFFFFFFFFFFFFFFFFFFFFFFFFFFFF AND EQ ISZERO PUSH2 0x188 JUMPI PUSH1 0x40 MLOAD PUSH32 0x8C379A000000000000000000000000000000000000000000000000000000000 DUP2 MSTORE PUSH1 0x4 ADD PUSH2 0x17F SWAP1 PUSH2 0x387 JUMP JUMPDEST PUSH1 0x40 MLOAD DUP1 SWAP2 SUB SWAP1 REVERT JUMPDEST DUP1 PUSH1 0x0 DUP1 PUSH2 0x100 EXP DUP2 SLOAD DUP2 PUSH20 0xFFFFFFFFFFFFFFFFFFFFFFFFFFFFFFFFFFFFFFFF MUL NOT AND SWAP1 DUP4 PUSH20 0xFFFFFFFFFFFFFFFFFFFFFFFFFFFFFFFFFFFFFFFF AND MUL OR SWAP1 SSTORE POP POP JUMP JUMPDEST PUSH1 0x0 DUP1 SLOAD SWAP1 PUSH2 0x100 EXP SWAP1 DIV PUSH20 0xFFFFFFFFFFFFFFFFFFFFFFFFFFFFFFFFFFFFFFFF AND PUSH20 0xFFFFFFFFFFFFFFFFFFFFFFFFFFFFFFFFFFFFFFFF AND CALLER PUSH20 0xFFFFFFFFFFFFFFFFFFFFFFFFFFFFFFFFFFFFFFFF AND EQ PUSH2 0x259 JUMPI PUSH1 0x40 MLOAD PUSH32 0x8C379A000000000000000000000000000000000000000000000000000000000 DUP2 MSTORE PUSH1 0x4 ADD PUSH2 0x250 SWAP1 PUSH2 0x367 JUMP JUMPDEST PUSH1 0x40 MLOAD DUP1 SWAP2 SUB SWAP1 REVERT JUMPDEST JUMP JUMPDEST PUSH1 0x0 DUP1 SLOAD SWAP1 PUSH2 0x100 EXP SWAP1 DIV PUSH20 0xFFFFFFFFFFFFFFFFFFFFFFFFFFFFFFFFFFFFFFFF AND DUP2 JUMP JUMPDEST PUSH1 0x0 DUP2 CALLDATALOAD SWAP1 POP PUSH2 0x28E DUP2 PUSH2 0x3EA JUMP JUMPDEST SWAP3 SWAP2 POP POP JUMP JUMPDEST PUSH1 0x0 PUSH1 0x20 DUP3 DUP5 SUB SLT ISZERO PUSH2 0x2A6 JUMPI PUSH1 0x0 DUP1 REVERT JUMPDEST PUSH1 0x0 PUSH2 0x2B4 DUP5 DUP3 DUP6 ADD PUSH2 0x27F JUMP JUMPDEST SWAP2 POP POP SWAP3 SWAP2 POP POP JUMP JUMPDEST PUSH2 0x2C6 DUP2 PUSH2 0x3B8 JUMP JUMPDEST DUP3 MSTORE POP POP JUMP JUMPDEST PUSH1 0x0 PUSH2 0x2D9 PUSH1 0x9 DUP4 PUSH2 0x3A7 JUMP JUMPDEST SWAP2 POP PUSH32 0x6E6F74206F776E65720000000000000000000000000000000000000000000000 PUSH1 0x0 DUP4 ADD MSTORE PUSH1 0x20 DUP3 ADD SWAP1 POP SWAP2 SWAP1 POP JUMP JUMPDEST PUSH1 0x0 PUSH2 0x319 PUSH1 0xF DUP4 PUSH2 0x3A7 JUMP JUMPDEST SWAP2 POP PUSH32 0x696E76616C696420416464726573730000000000000000000000000000000000 PUSH1 0x0 DUP4 ADD MSTORE PUSH1 0x20 DUP3 ADD SWAP1 POP SWAP2 SWAP1 POP JUMP JUMPDEST PUSH1 0x0 PUSH1 0x20 DUP3 ADD SWAP1 POP PUSH2 0x361 PUSH1 0x0 DUP4 ADD DUP5 PUSH2 0x2BD JUMP JUMPDEST SWAP3 SWAP2 POP POP JUMP JUMPDEST PUSH1 0x0 PUSH1 0x20 DUP3 ADD SWAP1 POP DUP2 DUP2 SUB PUSH1 0x0 DUP4 ADD MSTORE PUSH2 0x380 DUP2 PUSH2 0x2CC JUMP JUMPDEST SWAP1 POP SWAP2 SWAP1 POP JUMP JUMPDEST PUSH1 0x0 PUSH1 0x20 DUP3 ADD SWAP1 POP DUP2 DUP2 SUB PUSH1 0x0 DUP4 ADD MSTORE PUSH2 0x3A0 DUP2 PUSH2 0x30C JUMP JUMPDEST SWAP1 POP SWAP2 SWAP1 POP JUMP JUMPDEST PUSH1 0x0 DUP3 DUP3 MSTORE PUSH1 0x20 DUP3 ADD SWAP1 POP SWAP3 SWAP2 POP POP JUMP JUMPDEST PUSH1 0x0 PUSH2 0x3C3 DUP3 PUSH2 0x3CA JUMP JUMPDEST SWAP1 POP SWAP2 SWAP1 POP JUMP JUMPDEST PUSH1 0x0 PUSH20 0xFFFFFFFFFFFFFFFFFFFFFFFFFFFFFFFFFFFFFFFF DUP3 AND SWAP1 POP SWAP2 SWAP1 POP JUMP JUMPDEST PUSH2 0x3F3 DUP2 PUSH2 0x3B8 JUMP JUMPDEST DUP2 EQ PUSH2 0x3FE JUMPI PUSH1 0x0 DUP1 REVERT JUMPDEST POP JUMP INVALID LOG2 PUSH5 0x6970667358 0x22 SLT KECCAK256 GAS MOD 0x48 SWAP13 JUMPI 0xAF LOG2 0xED 0x5C MSTORE8 0xBE CALLDATASIZE CALLDATALOAD EXTCODEHASH ADD PUSH1 0x59 STATICCALL 0x2A 0xBC 0xD7 0xDB 0xDB PUSH11 0x109229F1B676204564736F PUSH13 0x63430008000033000000000000 "
				},
				"gasEstimates": {
					"creation": {
						"codeDepositCost": "215800",
						"executionCost": "21123",
						"totalCost": "236923"
					},
					"external": {
						"onlyowneraccess()": "1271",
						"owner()": "1233",
						"setOwner(address)": "22205"
					}
				},
				"methodIdentifiers": {
					"onlyowneraccess()": "14d17999",
					"owner()": "8da5cb5b",
					"setOwner(address)": "13af4035"
				}
			},
			"storageLayout": {
				"storage": [
					{
						"astId": 3,
						"contract": "sample.sol:ownable",
						"label": "owner",
						"offset": 0,
						"slot": "0",
						"type": "t_address"
					}
				],
				"types": {
					"t_address": {
						"encoding": "inplace",
						"label": "address",
						"numberOfBytes": "20"
					}
				}
			},
			"userdoc": {
				"kind": "user",
				"methods": {},
				"version": 1
			}
		}
	}
}