{
	"functionModifierImple.sol": {
		"modifierFunctionImplementation": {
			"abi": [
				{
					"inputs": [],
					"name": "testFun1",
					"outputs": [],
					"stateMutability": "nonpayable",
					"type": "function"
				},
				{
					"inputs": [],
					"name": "testFun2",
					"outputs": [],
					"stateMutability": "nonpayable",
					"type": "function"
				},
				{
					"inputs": [],
					"name": "testFun3",
					"outputs": [],
					"stateMutability": "nonpayable",
					"type": "function"
				}
			],
			"devdoc": {
				"kind": "dev",
				"methods": {},
				"version": 1
			},
			"evm": {
				"assembly": "    /* \"functionModifierImple.sol\":62:291  contract modifierFunctionImplementation{... */\n  mstore(0x40, 0x80)\n  callvalue\n  dup1\n  iszero\n  tag_1\n  jumpi\n  0x00\n  dup1\n  revert\ntag_1:\n  pop\n  dataSize(sub_0)\n  dup1\n  dataOffset(sub_0)\n  0x00\n  codecopy\n  0x00\n  return\nstop\n\nsub_0: assembly {\n        /* \"functionModifierImple.sol\":62:291  contract modifierFunctionImplementation{... */\n      mstore(0x40, 0x80)\n      callvalue\n      dup1\n      iszero\n      tag_1\n      jumpi\n      0x00\n      dup1\n      revert\n    tag_1:\n      pop\n      jumpi(tag_2, lt(calldatasize, 0x04))\n      shr(0xe0, calldataload(0x00))\n      dup1\n      0x0957a33c\n      eq\n      tag_3\n      jumpi\n      dup1\n      0xd1348826\n      eq\n      tag_4\n      jumpi\n      dup1\n      0xd91c1d8a\n      eq\n      tag_5\n      jumpi\n    tag_2:\n      0x00\n      dup1\n      revert\n        /* \"functionModifierImple.sol\":246:288  function testFun3() public{... */\n    tag_3:\n      tag_6\n      tag_7\n      jump\t// in\n    tag_6:\n      stop\n        /* \"functionModifierImple.sol\":155:189  function testFun1() public{... */\n    tag_4:\n      tag_8\n      tag_9\n      jump\t// in\n    tag_8:\n      stop\n        /* \"functionModifierImple.sol\":199:241  function testFun2() public{... */\n    tag_5:\n      tag_10\n      tag_11\n      jump\t// in\n    tag_10:\n      stop\n        /* \"functionModifierImple.sol\":246:288  function testFun3() public{... */\n    tag_7:\n      jump\t// out\n        /* \"functionModifierImple.sol\":155:189  function testFun1() public{... */\n    tag_9:\n      jump\t// out\n        /* \"functionModifierImple.sol\":199:241  function testFun2() public{... */\n    tag_11:\n      jump\t// out\n\n    auxdata: 0xa2646970667358221220f519abc6bc5fa3e68e56269603de40ce3e19370448d195b3df3a235855f990f064736f6c63430008070033\n}\n",
				"bytecode": {
					"linkReferences": {},
					"object": "6080604052348015600f57600080fd5b5060958061001e6000396000f3fe6080604052348015600f57600080fd5b5060043610603c5760003560e01c80630957a33c146041578063d1348826146049578063d91c1d8a146051575b600080fd5b60476059565b005b604f605b565b005b6057605d565b005b565b565b56fea2646970667358221220f519abc6bc5fa3e68e56269603de40ce3e19370448d195b3df3a235855f990f064736f6c63430008070033",
					"opcodes": "PUSH1 0x80 PUSH1 0x40 MSTORE CALLVALUE DUP1 ISZERO PUSH1 0xF JUMPI PUSH1 0x0 DUP1 REVERT JUMPDEST POP PUSH1 0x95 DUP1 PUSH2 0x1E PUSH1 0x0 CODECOPY PUSH1 0x0 RETURN INVALID PUSH1 0x80 PUSH1 0x40 MSTORE CALLVALUE DUP1 ISZERO PUSH1 0xF JUMPI PUSH1 0x0 DUP1 REVERT JUMPDEST POP PUSH1 0x4 CALLDATASIZE LT PUSH1 0x3C JUMPI PUSH1 0x0 CALLDATALOAD PUSH1 0xE0 SHR DUP1 PUSH4 0x957A33C EQ PUSH1 0x41 JUMPI DUP1 PUSH4 0xD1348826 EQ PUSH1 0x49 JUMPI DUP1 PUSH4 0xD91C1D8A EQ PUSH1 0x51 JUMPI JUMPDEST PUSH1 0x0 DUP1 REVERT JUMPDEST PUSH1 0x47 PUSH1 0x59 JUMP JUMPDEST STOP JUMPDEST PUSH1 0x4F PUSH1 0x5B JUMP JUMPDEST STOP JUMPDEST PUSH1 0x57 PUSH1 0x5D JUMP JUMPDEST STOP JUMPDEST JUMP JUMPDEST JUMP JUMPDEST JUMP INVALID LOG2 PUSH5 0x6970667358 0x22 SLT KECCAK256 CREATE2 NOT 0xAB 0xC6 0xBC 0x5F LOG3 0xE6 DUP15 JUMP 0x26 SWAP7 SUB 0xDE BLOCKHASH 0xCE RETURNDATACOPY NOT CALLDATACOPY DIV BASEFEE 0xD1 SWAP6 0xB3 0xDF GASPRICE 0x23 PC SSTORE 0xF9 SWAP1 CREATE PUSH5 0x736F6C6343 STOP ADDMOD SMOD STOP CALLER "
				},
				"gasEstimates": {
					"creation": {
						"codeDepositCost": "29800",
						"executionCost": "81",
						"totalCost": "29881"
					},
					"external": {
						"testFun1()": "144",
						"testFun2()": "166",
						"testFun3()": "122"
					}
				},
				"methodIdentifiers": {
					"testFun1()": "d1348826",
					"testFun2()": "d91c1d8a",
					"testFun3()": "0957a33c"
				}
			},
			"storageLayout": {
				"storage": [],
				"types": null
			},
			"userdoc": {
				"kind": "user",
				"methods": {},
				"version": 1
			}
		}
	}
}