{
	"localvariable.sol": {
		"localvariable": {
			"abi": [
				{
					"inputs": [],
					"stateMutability": "nonpayable",
					"type": "constructor"
				},
				{
					"inputs": [],
					"name": "boolvar",
					"outputs": [
						{
							"internalType": "bool",
							"name": "",
							"type": "bool"
						}
					],
					"stateMutability": "view",
					"type": "function"
				},
				{
					"inputs": [
						{
							"internalType": "uint256",
							"name": "_x",
							"type": "uint256"
						},
						{
							"internalType": "bool",
							"name": "_y",
							"type": "bool"
						},
						{
							"internalType": "address",
							"name": "_z",
							"type": "address"
						}
					],
					"name": "locvariable",
					"outputs": [
						{
							"internalType": "uint256",
							"name": "",
							"type": "uint256"
						},
						{
							"internalType": "bool",
							"name": "",
							"type": "bool"
						}
					],
					"stateMutability": "nonpayable",
					"type": "function"
				},
				{
					"inputs": [],
					"name": "statevarable",
					"outputs": [
						{
							"internalType": "uint256",
							"name": "",
							"type": "uint256"
						}
					],
					"stateMutability": "view",
					"type": "function"
				}
			],
			"devdoc": {
				"kind": "dev",
				"methods": {},
				"version": 1
			},
			"evm": {
				"assembly": "    /* \"localvariable.sol\":63:412  contract localvariable{... */\n  mstore(0x40, 0x80)\n    /* \"localvariable.sol\":144:149  false */\n  0x00\n    /* \"localvariable.sol\":122:149  bool public boolvar = false */\n  0x01\n  exp(0x0100, 0x00)\n  dup2\n  sload\n  dup2\n  0xff\n  mul\n  not\n  and\n  swap1\n  dup4\n  iszero\n  iszero\n  mul\n  or\n  swap1\n  sstore\n  pop\n    /* \"localvariable.sol\":156:204  constructor(){... */\n  callvalue\n  dup1\n  iszero\n  tag_1\n  jumpi\n  0x00\n  dup1\n  revert\ntag_1:\n  pop\n    /* \"localvariable.sol\":194:197  100 */\n  0x64\n    /* \"localvariable.sol\":179:191  statevarable */\n  0x00\n    /* \"localvariable.sol\":179:197  statevarable = 100 */\n  dup2\n  swap1\n  sstore\n  pop\n    /* \"localvariable.sol\":63:412  contract localvariable{... */\n  dataSize(sub_0)\n  dup1\n  dataOffset(sub_0)\n  0x00\n  codecopy\n  0x00\n  return\nstop\n\nsub_0: assembly {\n        /* \"localvariable.sol\":63:412  contract localvariable{... */\n      mstore(0x40, 0x80)\n      callvalue\n      dup1\n      iszero\n      tag_1\n      jumpi\n      0x00\n      dup1\n      revert\n    tag_1:\n      pop\n      jumpi(tag_2, lt(calldatasize, 0x04))\n      shr(0xe0, calldataload(0x00))\n      dup1\n      0x1abd155f\n      eq\n      tag_3\n      jumpi\n      dup1\n      0x8a3b12ae\n      eq\n      tag_4\n      jumpi\n      dup1\n      0xb75f17c5\n      eq\n      tag_5\n      jumpi\n    tag_2:\n      0x00\n      dup1\n      revert\n        /* \"localvariable.sol\":214:408  function locvariable(uint _x, bool _y, address _z) public returns(uint, bool) {... */\n    tag_3:\n      tag_6\n      0x04\n      dup1\n      calldatasize\n      sub\n      dup2\n      add\n      swap1\n      tag_7\n      swap2\n      swap1\n      tag_8\n      jump\t// in\n    tag_7:\n      tag_9\n      jump\t// in\n    tag_6:\n      mload(0x40)\n      tag_10\n      swap3\n      swap2\n      swap1\n      tag_11\n      jump\t// in\n    tag_10:\n      mload(0x40)\n      dup1\n      swap2\n      sub\n      swap1\n      return\n        /* \"localvariable.sol\":92:116  uint public statevarable */\n    tag_4:\n      tag_12\n      tag_13\n      jump\t// in\n    tag_12:\n      mload(0x40)\n      tag_14\n      swap2\n      swap1\n      tag_15\n      jump\t// in\n    tag_14:\n      mload(0x40)\n      dup1\n      swap2\n      sub\n      swap1\n      return\n        /* \"localvariable.sol\":122:149  bool public boolvar = false */\n    tag_5:\n      tag_16\n      tag_17\n      jump\t// in\n    tag_16:\n      mload(0x40)\n      tag_18\n      swap2\n      swap1\n      tag_19\n      jump\t// in\n    tag_18:\n      mload(0x40)\n      dup1\n      swap2\n      sub\n      swap1\n      return\n        /* \"localvariable.sol\":214:408  function locvariable(uint _x, bool _y, address _z) public returns(uint, bool) {... */\n    tag_9:\n        /* \"localvariable.sol\":280:284  uint */\n      0x00\n        /* \"localvariable.sol\":286:290  bool */\n      dup1\n        /* \"localvariable.sol\":303:309  uint a */\n      0x00\n        /* \"localvariable.sol\":317:319  _x */\n      dup6\n        /* \"localvariable.sol\":312:314  22 */\n      0x16\n        /* \"localvariable.sol\":312:319  22 + _x */\n      tag_21\n      swap2\n      swap1\n      tag_22\n      jump\t// in\n    tag_21:\n        /* \"localvariable.sol\":303:319  uint a = 22 + _x */\n      swap1\n      pop\n        /* \"localvariable.sol\":329:338  bool var1 */\n      0x00\n        /* \"localvariable.sol\":341:345  true */\n      0x01\n        /* \"localvariable.sol\":329:345  bool var1 = true */\n      swap1\n      pop\n        /* \"localvariable.sol\":355:375  address accesaddress */\n      0x00\n        /* \"localvariable.sol\":393:394  a */\n      dup3\n        /* \"localvariable.sol\":396:400  var1 */\n      dup3\n        /* \"localvariable.sol\":386:401  return(a, var1) */\n      swap5\n      pop\n      swap5\n      pop\n      pop\n      pop\n      pop\n        /* \"localvariable.sol\":214:408  function locvariable(uint _x, bool _y, address _z) public returns(uint, bool) {... */\n      swap4\n      pop\n      swap4\n      swap2\n      pop\n      pop\n      jump\t// out\n        /* \"localvariable.sol\":92:116  uint public statevarable */\n    tag_13:\n      sload(0x00)\n      dup2\n      jump\t// out\n        /* \"localvariable.sol\":122:149  bool public boolvar = false */\n    tag_17:\n      0x01\n      0x00\n      swap1\n      sload\n      swap1\n      0x0100\n      exp\n      swap1\n      div\n      0xff\n      and\n      dup2\n      jump\t// out\n        /* \"#utility.yul\":7:146   */\n    tag_24:\n        /* \"#utility.yul\":53:58   */\n      0x00\n        /* \"#utility.yul\":91:97   */\n      dup2\n        /* \"#utility.yul\":78:98   */\n      calldataload\n        /* \"#utility.yul\":69:98   */\n      swap1\n      pop\n        /* \"#utility.yul\":107:140   */\n      tag_26\n        /* \"#utility.yul\":134:139   */\n      dup2\n        /* \"#utility.yul\":107:140   */\n      tag_27\n      jump\t// in\n    tag_26:\n        /* \"#utility.yul\":7:146   */\n      swap3\n      swap2\n      pop\n      pop\n      jump\t// out\n        /* \"#utility.yul\":152:285   */\n    tag_28:\n        /* \"#utility.yul\":195:200   */\n      0x00\n        /* \"#utility.yul\":233:239   */\n      dup2\n        /* \"#utility.yul\":220:240   */\n      calldataload\n        /* \"#utility.yul\":211:240   */\n      swap1\n      pop\n        /* \"#utility.yul\":249:279   */\n      tag_30\n        /* \"#utility.yul\":273:278   */\n      dup2\n        /* \"#utility.yul\":249:279   */\n      tag_31\n      jump\t// in\n    tag_30:\n        /* \"#utility.yul\":152:285   */\n      swap3\n      swap2\n      pop\n      pop\n      jump\t// out\n        /* \"#utility.yul\":291:430   */\n    tag_32:\n        /* \"#utility.yul\":337:342   */\n      0x00\n        /* \"#utility.yul\":375:381   */\n      dup2\n        /* \"#utility.yul\":362:382   */\n      calldataload\n        /* \"#utility.yul\":353:382   */\n      swap1\n      pop\n        /* \"#utility.yul\":391:424   */\n      tag_34\n        /* \"#utility.yul\":418:423   */\n      dup2\n        /* \"#utility.yul\":391:424   */\n      tag_35\n      jump\t// in\n    tag_34:\n        /* \"#utility.yul\":291:430   */\n      swap3\n      swap2\n      pop\n      pop\n      jump\t// out\n        /* \"#utility.yul\":436:1049   */\n    tag_8:\n        /* \"#utility.yul\":510:516   */\n      0x00\n        /* \"#utility.yul\":518:524   */\n      dup1\n        /* \"#utility.yul\":526:532   */\n      0x00\n        /* \"#utility.yul\":575:577   */\n      0x60\n        /* \"#utility.yul\":563:572   */\n      dup5\n        /* \"#utility.yul\":554:561   */\n      dup7\n        /* \"#utility.yul\":550:573   */\n      sub\n        /* \"#utility.yul\":546:578   */\n      slt\n        /* \"#utility.yul\":543:662   */\n      iszero\n      tag_37\n      jumpi\n        /* \"#utility.yul\":581:660   */\n      tag_38\n      tag_39\n      jump\t// in\n    tag_38:\n        /* \"#utility.yul\":543:662   */\n    tag_37:\n        /* \"#utility.yul\":701:702   */\n      0x00\n        /* \"#utility.yul\":726:779   */\n      tag_40\n        /* \"#utility.yul\":771:778   */\n      dup7\n        /* \"#utility.yul\":762:768   */\n      dup3\n        /* \"#utility.yul\":751:760   */\n      dup8\n        /* \"#utility.yul\":747:769   */\n      add\n        /* \"#utility.yul\":726:779   */\n      tag_32\n      jump\t// in\n    tag_40:\n        /* \"#utility.yul\":716:779   */\n      swap4\n      pop\n        /* \"#utility.yul\":672:789   */\n      pop\n        /* \"#utility.yul\":828:830   */\n      0x20\n        /* \"#utility.yul\":854:904   */\n      tag_41\n        /* \"#utility.yul\":896:903   */\n      dup7\n        /* \"#utility.yul\":887:893   */\n      dup3\n        /* \"#utility.yul\":876:885   */\n      dup8\n        /* \"#utility.yul\":872:894   */\n      add\n        /* \"#utility.yul\":854:904   */\n      tag_28\n      jump\t// in\n    tag_41:\n        /* \"#utility.yul\":844:904   */\n      swap3\n      pop\n        /* \"#utility.yul\":799:914   */\n      pop\n        /* \"#utility.yul\":953:955   */\n      0x40\n        /* \"#utility.yul\":979:1032   */\n      tag_42\n        /* \"#utility.yul\":1024:1031   */\n      dup7\n        /* \"#utility.yul\":1015:1021   */\n      dup3\n        /* \"#utility.yul\":1004:1013   */\n      dup8\n        /* \"#utility.yul\":1000:1022   */\n      add\n        /* \"#utility.yul\":979:1032   */\n      tag_24\n      jump\t// in\n    tag_42:\n        /* \"#utility.yul\":969:1032   */\n      swap2\n      pop\n        /* \"#utility.yul\":924:1042   */\n      pop\n        /* \"#utility.yul\":436:1049   */\n      swap3\n      pop\n      swap3\n      pop\n      swap3\n      jump\t// out\n        /* \"#utility.yul\":1055:1164   */\n    tag_43:\n        /* \"#utility.yul\":1136:1157   */\n      tag_45\n        /* \"#utility.yul\":1151:1156   */\n      dup2\n        /* \"#utility.yul\":1136:1157   */\n      tag_46\n      jump\t// in\n    tag_45:\n        /* \"#utility.yul\":1131:1134   */\n      dup3\n        /* \"#utility.yul\":1124:1158   */\n      mstore\n        /* \"#utility.yul\":1055:1164   */\n      pop\n      pop\n      jump\t// out\n        /* \"#utility.yul\":1170:1288   */\n    tag_47:\n        /* \"#utility.yul\":1257:1281   */\n      tag_49\n        /* \"#utility.yul\":1275:1280   */\n      dup2\n        /* \"#utility.yul\":1257:1281   */\n      tag_50\n      jump\t// in\n    tag_49:\n        /* \"#utility.yul\":1252:1255   */\n      dup3\n        /* \"#utility.yul\":1245:1282   */\n      mstore\n        /* \"#utility.yul\":1170:1288   */\n      pop\n      pop\n      jump\t// out\n        /* \"#utility.yul\":1294:1504   */\n    tag_19:\n        /* \"#utility.yul\":1381:1385   */\n      0x00\n        /* \"#utility.yul\":1419:1421   */\n      0x20\n        /* \"#utility.yul\":1408:1417   */\n      dup3\n        /* \"#utility.yul\":1404:1422   */\n      add\n        /* \"#utility.yul\":1396:1422   */\n      swap1\n      pop\n        /* \"#utility.yul\":1432:1497   */\n      tag_52\n        /* \"#utility.yul\":1494:1495   */\n      0x00\n        /* \"#utility.yul\":1483:1492   */\n      dup4\n        /* \"#utility.yul\":1479:1496   */\n      add\n        /* \"#utility.yul\":1470:1476   */\n      dup5\n        /* \"#utility.yul\":1432:1497   */\n      tag_43\n      jump\t// in\n    tag_52:\n        /* \"#utility.yul\":1294:1504   */\n      swap3\n      swap2\n      pop\n      pop\n      jump\t// out\n        /* \"#utility.yul\":1510:1732   */\n    tag_15:\n        /* \"#utility.yul\":1603:1607   */\n      0x00\n        /* \"#utility.yul\":1641:1643   */\n      0x20\n        /* \"#utility.yul\":1630:1639   */\n      dup3\n        /* \"#utility.yul\":1626:1644   */\n      add\n        /* \"#utility.yul\":1618:1644   */\n      swap1\n      pop\n        /* \"#utility.yul\":1654:1725   */\n      tag_54\n        /* \"#utility.yul\":1722:1723   */\n      0x00\n        /* \"#utility.yul\":1711:1720   */\n      dup4\n        /* \"#utility.yul\":1707:1724   */\n      add\n        /* \"#utility.yul\":1698:1704   */\n      dup5\n        /* \"#utility.yul\":1654:1725   */\n      tag_47\n      jump\t// in\n    tag_54:\n        /* \"#utility.yul\":1510:1732   */\n      swap3\n      swap2\n      pop\n      pop\n      jump\t// out\n        /* \"#utility.yul\":1738:2058   */\n    tag_11:\n        /* \"#utility.yul\":1853:1857   */\n      0x00\n        /* \"#utility.yul\":1891:1893   */\n      0x40\n        /* \"#utility.yul\":1880:1889   */\n      dup3\n        /* \"#utility.yul\":1876:1894   */\n      add\n        /* \"#utility.yul\":1868:1894   */\n      swap1\n      pop\n        /* \"#utility.yul\":1904:1975   */\n      tag_56\n        /* \"#utility.yul\":1972:1973   */\n      0x00\n        /* \"#utility.yul\":1961:1970   */\n      dup4\n        /* \"#utility.yul\":1957:1974   */\n      add\n        /* \"#utility.yul\":1948:1954   */\n      dup6\n        /* \"#utility.yul\":1904:1975   */\n      tag_47\n      jump\t// in\n    tag_56:\n        /* \"#utility.yul\":1985:2051   */\n      tag_57\n        /* \"#utility.yul\":2047:2049   */\n      0x20\n        /* \"#utility.yul\":2036:2045   */\n      dup4\n        /* \"#utility.yul\":2032:2050   */\n      add\n        /* \"#utility.yul\":2023:2029   */\n      dup5\n        /* \"#utility.yul\":1985:2051   */\n      tag_43\n      jump\t// in\n    tag_57:\n        /* \"#utility.yul\":1738:2058   */\n      swap4\n      swap3\n      pop\n      pop\n      pop\n      jump\t// out\n        /* \"#utility.yul\":2145:2450   */\n    tag_22:\n        /* \"#utility.yul\":2185:2188   */\n      0x00\n        /* \"#utility.yul\":2204:2224   */\n      tag_61\n        /* \"#utility.yul\":2222:2223   */\n      dup3\n        /* \"#utility.yul\":2204:2224   */\n      tag_50\n      jump\t// in\n    tag_61:\n        /* \"#utility.yul\":2199:2224   */\n      swap2\n      pop\n        /* \"#utility.yul\":2238:2258   */\n      tag_62\n        /* \"#utility.yul\":2256:2257   */\n      dup4\n        /* \"#utility.yul\":2238:2258   */\n      tag_50\n      jump\t// in\n    tag_62:\n        /* \"#utility.yul\":2233:2258   */\n      swap3\n      pop\n        /* \"#utility.yul\":2392:2393   */\n      dup3\n        /* \"#utility.yul\":2324:2390   */\n      0xffffffffffffffffffffffffffffffffffffffffffffffffffffffffffffffff\n        /* \"#utility.yul\":2320:2394   */\n      sub\n        /* \"#utility.yul\":2317:2318   */\n      dup3\n        /* \"#utility.yul\":2314:2395   */\n      gt\n        /* \"#utility.yul\":2311:2418   */\n      iszero\n      tag_63\n      jumpi\n        /* \"#utility.yul\":2398:2416   */\n      tag_64\n      tag_65\n      jump\t// in\n    tag_64:\n        /* \"#utility.yul\":2311:2418   */\n    tag_63:\n        /* \"#utility.yul\":2442:2443   */\n      dup3\n        /* \"#utility.yul\":2439:2440   */\n      dup3\n        /* \"#utility.yul\":2435:2444   */\n      add\n        /* \"#utility.yul\":2428:2444   */\n      swap1\n      pop\n        /* \"#utility.yul\":2145:2450   */\n      swap3\n      swap2\n      pop\n      pop\n      jump\t// out\n        /* \"#utility.yul\":2456:2552   */\n    tag_66:\n        /* \"#utility.yul\":2493:2500   */\n      0x00\n        /* \"#utility.yul\":2522:2546   */\n      tag_68\n        /* \"#utility.yul\":2540:2545   */\n      dup3\n        /* \"#utility.yul\":2522:2546   */\n      tag_69\n      jump\t// in\n    tag_68:\n        /* \"#utility.yul\":2511:2546   */\n      swap1\n      pop\n        /* \"#utility.yul\":2456:2552   */\n      swap2\n      swap1\n      pop\n      jump\t// out\n        /* \"#utility.yul\":2558:2648   */\n    tag_46:\n        /* \"#utility.yul\":2592:2599   */\n      0x00\n        /* \"#utility.yul\":2635:2640   */\n      dup2\n        /* \"#utility.yul\":2628:2641   */\n      iszero\n        /* \"#utility.yul\":2621:2642   */\n      iszero\n        /* \"#utility.yul\":2610:2642   */\n      swap1\n      pop\n        /* \"#utility.yul\":2558:2648   */\n      swap2\n      swap1\n      pop\n      jump\t// out\n        /* \"#utility.yul\":2654:2780   */\n    tag_69:\n        /* \"#utility.yul\":2691:2698   */\n      0x00\n        /* \"#utility.yul\":2731:2773   */\n      0xffffffffffffffffffffffffffffffffffffffff\n        /* \"#utility.yul\":2724:2729   */\n      dup3\n        /* \"#utility.yul\":2720:2774   */\n      and\n        /* \"#utility.yul\":2709:2774   */\n      swap1\n      pop\n        /* \"#utility.yul\":2654:2780   */\n      swap2\n      swap1\n      pop\n      jump\t// out\n        /* \"#utility.yul\":2786:2863   */\n    tag_50:\n        /* \"#utility.yul\":2823:2830   */\n      0x00\n        /* \"#utility.yul\":2852:2857   */\n      dup2\n        /* \"#utility.yul\":2841:2857   */\n      swap1\n      pop\n        /* \"#utility.yul\":2786:2863   */\n      swap2\n      swap1\n      pop\n      jump\t// out\n        /* \"#utility.yul\":2869:3049   */\n    tag_65:\n        /* \"#utility.yul\":2917:2994   */\n      0x4e487b7100000000000000000000000000000000000000000000000000000000\n        /* \"#utility.yul\":2914:2915   */\n      0x00\n        /* \"#utility.yul\":2907:2995   */\n      mstore\n        /* \"#utility.yul\":3014:3018   */\n      0x11\n        /* \"#utility.yul\":3011:3012   */\n      0x04\n        /* \"#utility.yul\":3004:3019   */\n      mstore\n        /* \"#utility.yul\":3038:3042   */\n      0x24\n        /* \"#utility.yul\":3035:3036   */\n      0x00\n        /* \"#utility.yul\":3028:3043   */\n      revert\n        /* \"#utility.yul\":3178:3295   */\n    tag_39:\n        /* \"#utility.yul\":3287:3288   */\n      0x00\n        /* \"#utility.yul\":3284:3285   */\n      dup1\n        /* \"#utility.yul\":3277:3289   */\n      revert\n        /* \"#utility.yul\":3301:3423   */\n    tag_27:\n        /* \"#utility.yul\":3374:3398   */\n      tag_78\n        /* \"#utility.yul\":3392:3397   */\n      dup2\n        /* \"#utility.yul\":3374:3398   */\n      tag_66\n      jump\t// in\n    tag_78:\n        /* \"#utility.yul\":3367:3372   */\n      dup2\n        /* \"#utility.yul\":3364:3399   */\n      eq\n        /* \"#utility.yul\":3354:3417   */\n      tag_79\n      jumpi\n        /* \"#utility.yul\":3413:3414   */\n      0x00\n        /* \"#utility.yul\":3410:3411   */\n      dup1\n        /* \"#utility.yul\":3403:3415   */\n      revert\n        /* \"#utility.yul\":3354:3417   */\n    tag_79:\n        /* \"#utility.yul\":3301:3423   */\n      pop\n      jump\t// out\n        /* \"#utility.yul\":3429:3545   */\n    tag_31:\n        /* \"#utility.yul\":3499:3520   */\n      tag_81\n        /* \"#utility.yul\":3514:3519   */\n      dup2\n        /* \"#utility.yul\":3499:3520   */\n      tag_46\n      jump\t// in\n    tag_81:\n        /* \"#utility.yul\":3492:3497   */\n      dup2\n        /* \"#utility.yul\":3489:3521   */\n      eq\n        /* \"#utility.yul\":3479:3539   */\n      tag_82\n      jumpi\n        /* \"#utility.yul\":3535:3536   */\n      0x00\n        /* \"#utility.yul\":3532:3533   */\n      dup1\n        /* \"#utility.yul\":3525:3537   */\n      revert\n        /* \"#utility.yul\":3479:3539   */\n    tag_82:\n        /* \"#utility.yul\":3429:3545   */\n      pop\n      jump\t// out\n        /* \"#utility.yul\":3551:3673   */\n    tag_35:\n        /* \"#utility.yul\":3624:3648   */\n      tag_84\n        /* \"#utility.yul\":3642:3647   */\n      dup2\n        /* \"#utility.yul\":3624:3648   */\n      tag_50\n      jump\t// in\n    tag_84:\n        /* \"#utility.yul\":3617:3622   */\n      dup2\n        /* \"#utility.yul\":3614:3649   */\n      eq\n        /* \"#utility.yul\":3604:3667   */\n      tag_85\n      jumpi\n        /* \"#utility.yul\":3663:3664   */\n      0x00\n        /* \"#utility.yul\":3660:3661   */\n      dup1\n        /* \"#utility.yul\":3653:3665   */\n      revert\n        /* \"#utility.yul\":3604:3667   */\n    tag_85:\n        /* \"#utility.yul\":3551:3673   */\n      pop\n      jump\t// out\n\n    auxdata: 0xa264697066735822122035a328287cccfd9def2ca957331427e78f85f2a590f730e44d4491d0b0a2407564736f6c63430008070033\n}\n",
				"bytecode": {
					"linkReferences": {},
					"object": "60806040526000600160006101000a81548160ff02191690831515021790555034801561002b57600080fd5b506064600081905550610355806100436000396000f3fe608060405234801561001057600080fd5b50600436106100415760003560e01c80631abd155f146100465780638a3b12ae14610077578063b75f17c514610095575b600080fd5b610060600480360381019061005b9190610138565b6100b3565b60405161006e9291906101df565b60405180910390f35b61007f6100e0565b60405161008c91906101c4565b60405180910390f35b61009d6100e6565b6040516100aa91906101a9565b60405180910390f35b60008060008560166100c59190610208565b90506000600190506000828294509450505050935093915050565b60005481565b600160009054906101000a900460ff1681565b600081359050610108816102da565b92915050565b60008135905061011d816102f1565b92915050565b60008135905061013281610308565b92915050565b600080600060608486031215610151576101506102d5565b5b600061015f86828701610123565b93505060206101708682870161010e565b9250506040610181868287016100f9565b9150509250925092565b61019481610270565b82525050565b6101a38161029c565b82525050565b60006020820190506101be600083018461018b565b92915050565b60006020820190506101d9600083018461019a565b92915050565b60006040820190506101f4600083018561019a565b610201602083018461018b565b9392505050565b60006102138261029c565b915061021e8361029c565b9250827fffffffffffffffffffffffffffffffffffffffffffffffffffffffffffffffff03821115610253576102526102a6565b5b828201905092915050565b60006102698261027c565b9050919050565b60008115159050919050565b600073ffffffffffffffffffffffffffffffffffffffff82169050919050565b6000819050919050565b7f4e487b7100000000000000000000000000000000000000000000000000000000600052601160045260246000fd5b600080fd5b6102e38161025e565b81146102ee57600080fd5b50565b6102fa81610270565b811461030557600080fd5b50565b6103118161029c565b811461031c57600080fd5b5056fea264697066735822122035a328287cccfd9def2ca957331427e78f85f2a590f730e44d4491d0b0a2407564736f6c63430008070033",
					"opcodes": "PUSH1 0x80 PUSH1 0x40 MSTORE PUSH1 0x0 PUSH1 0x1 PUSH1 0x0 PUSH2 0x100 EXP DUP2 SLOAD DUP2 PUSH1 0xFF MUL NOT AND SWAP1 DUP4 ISZERO ISZERO MUL OR SWAP1 SSTORE POP CALLVALUE DUP1 ISZERO PUSH2 0x2B JUMPI PUSH1 0x0 DUP1 REVERT JUMPDEST POP PUSH1 0x64 PUSH1 0x0 DUP2 SWAP1 SSTORE POP PUSH2 0x355 DUP1 PUSH2 0x43 PUSH1 0x0 CODECOPY PUSH1 0x0 RETURN INVALID PUSH1 0x80 PUSH1 0x40 MSTORE CALLVALUE DUP1 ISZERO PUSH2 0x10 JUMPI PUSH1 0x0 DUP1 REVERT JUMPDEST POP PUSH1 0x4 CALLDATASIZE LT PUSH2 0x41 JUMPI PUSH1 0x0 CALLDATALOAD PUSH1 0xE0 SHR DUP1 PUSH4 0x1ABD155F EQ PUSH2 0x46 JUMPI DUP1 PUSH4 0x8A3B12AE EQ PUSH2 0x77 JUMPI DUP1 PUSH4 0xB75F17C5 EQ PUSH2 0x95 JUMPI JUMPDEST PUSH1 0x0 DUP1 REVERT JUMPDEST PUSH2 0x60 PUSH1 0x4 DUP1 CALLDATASIZE SUB DUP2 ADD SWAP1 PUSH2 0x5B SWAP2 SWAP1 PUSH2 0x138 JUMP JUMPDEST PUSH2 0xB3 JUMP JUMPDEST PUSH1 0x40 MLOAD PUSH2 0x6E SWAP3 SWAP2 SWAP1 PUSH2 0x1DF JUMP JUMPDEST PUSH1 0x40 MLOAD DUP1 SWAP2 SUB SWAP1 RETURN JUMPDEST PUSH2 0x7F PUSH2 0xE0 JUMP JUMPDEST PUSH1 0x40 MLOAD PUSH2 0x8C SWAP2 SWAP1 PUSH2 0x1C4 JUMP JUMPDEST PUSH1 0x40 MLOAD DUP1 SWAP2 SUB SWAP1 RETURN JUMPDEST PUSH2 0x9D PUSH2 0xE6 JUMP JUMPDEST PUSH1 0x40 MLOAD PUSH2 0xAA SWAP2 SWAP1 PUSH2 0x1A9 JUMP JUMPDEST PUSH1 0x40 MLOAD DUP1 SWAP2 SUB SWAP1 RETURN JUMPDEST PUSH1 0x0 DUP1 PUSH1 0x0 DUP6 PUSH1 0x16 PUSH2 0xC5 SWAP2 SWAP1 PUSH2 0x208 JUMP JUMPDEST SWAP1 POP PUSH1 0x0 PUSH1 0x1 SWAP1 POP PUSH1 0x0 DUP3 DUP3 SWAP5 POP SWAP5 POP POP POP POP SWAP4 POP SWAP4 SWAP2 POP POP JUMP JUMPDEST PUSH1 0x0 SLOAD DUP2 JUMP JUMPDEST PUSH1 0x1 PUSH1 0x0 SWAP1 SLOAD SWAP1 PUSH2 0x100 EXP SWAP1 DIV PUSH1 0xFF AND DUP2 JUMP JUMPDEST PUSH1 0x0 DUP2 CALLDATALOAD SWAP1 POP PUSH2 0x108 DUP2 PUSH2 0x2DA JUMP JUMPDEST SWAP3 SWAP2 POP POP JUMP JUMPDEST PUSH1 0x0 DUP2 CALLDATALOAD SWAP1 POP PUSH2 0x11D DUP2 PUSH2 0x2F1 JUMP JUMPDEST SWAP3 SWAP2 POP POP JUMP JUMPDEST PUSH1 0x0 DUP2 CALLDATALOAD SWAP1 POP PUSH2 0x132 DUP2 PUSH2 0x308 JUMP JUMPDEST SWAP3 SWAP2 POP POP JUMP JUMPDEST PUSH1 0x0 DUP1 PUSH1 0x0 PUSH1 0x60 DUP5 DUP7 SUB SLT ISZERO PUSH2 0x151 JUMPI PUSH2 0x150 PUSH2 0x2D5 JUMP JUMPDEST JUMPDEST PUSH1 0x0 PUSH2 0x15F DUP7 DUP3 DUP8 ADD PUSH2 0x123 JUMP JUMPDEST SWAP4 POP POP PUSH1 0x20 PUSH2 0x170 DUP7 DUP3 DUP8 ADD PUSH2 0x10E JUMP JUMPDEST SWAP3 POP POP PUSH1 0x40 PUSH2 0x181 DUP7 DUP3 DUP8 ADD PUSH2 0xF9 JUMP JUMPDEST SWAP2 POP POP SWAP3 POP SWAP3 POP SWAP3 JUMP JUMPDEST PUSH2 0x194 DUP2 PUSH2 0x270 JUMP JUMPDEST DUP3 MSTORE POP POP JUMP JUMPDEST PUSH2 0x1A3 DUP2 PUSH2 0x29C JUMP JUMPDEST DUP3 MSTORE POP POP JUMP JUMPDEST PUSH1 0x0 PUSH1 0x20 DUP3 ADD SWAP1 POP PUSH2 0x1BE PUSH1 0x0 DUP4 ADD DUP5 PUSH2 0x18B JUMP JUMPDEST SWAP3 SWAP2 POP POP JUMP JUMPDEST PUSH1 0x0 PUSH1 0x20 DUP3 ADD SWAP1 POP PUSH2 0x1D9 PUSH1 0x0 DUP4 ADD DUP5 PUSH2 0x19A JUMP JUMPDEST SWAP3 SWAP2 POP POP JUMP JUMPDEST PUSH1 0x0 PUSH1 0x40 DUP3 ADD SWAP1 POP PUSH2 0x1F4 PUSH1 0x0 DUP4 ADD DUP6 PUSH2 0x19A JUMP JUMPDEST PUSH2 0x201 PUSH1 0x20 DUP4 ADD DUP5 PUSH2 0x18B JUMP JUMPDEST SWAP4 SWAP3 POP POP POP JUMP JUMPDEST PUSH1 0x0 PUSH2 0x213 DUP3 PUSH2 0x29C JUMP JUMPDEST SWAP2 POP PUSH2 0x21E DUP4 PUSH2 0x29C JUMP JUMPDEST SWAP3 POP DUP3 PUSH32 0xFFFFFFFFFFFFFFFFFFFFFFFFFFFFFFFFFFFFFFFFFFFFFFFFFFFFFFFFFFFFFFFF SUB DUP3 GT ISZERO PUSH2 0x253 JUMPI PUSH2 0x252 PUSH2 0x2A6 JUMP JUMPDEST JUMPDEST DUP3 DUP3 ADD SWAP1 POP SWAP3 SWAP2 POP POP JUMP JUMPDEST PUSH1 0x0 PUSH2 0x269 DUP3 PUSH2 0x27C JUMP JUMPDEST SWAP1 POP SWAP2 SWAP1 POP JUMP JUMPDEST PUSH1 0x0 DUP2 ISZERO ISZERO SWAP1 POP SWAP2 SWAP1 POP JUMP JUMPDEST PUSH1 0x0 PUSH20 0xFFFFFFFFFFFFFFFFFFFFFFFFFFFFFFFFFFFFFFFF DUP3 AND SWAP1 POP SWAP2 SWAP1 POP JUMP JUMPDEST PUSH1 0x0 DUP2 SWAP1 POP SWAP2 SWAP1 POP JUMP JUMPDEST PUSH32 0x4E487B7100000000000000000000000000000000000000000000000000000000 PUSH1 0x0 MSTORE PUSH1 0x11 PUSH1 0x4 MSTORE PUSH1 0x24 PUSH1 0x0 REVERT JUMPDEST PUSH1 0x0 DUP1 REVERT JUMPDEST PUSH2 0x2E3 DUP2 PUSH2 0x25E JUMP JUMPDEST DUP2 EQ PUSH2 0x2EE JUMPI PUSH1 0x0 DUP1 REVERT JUMPDEST POP JUMP JUMPDEST PUSH2 0x2FA DUP2 PUSH2 0x270 JUMP JUMPDEST DUP2 EQ PUSH2 0x305 JUMPI PUSH1 0x0 DUP1 REVERT JUMPDEST POP JUMP JUMPDEST PUSH2 0x311 DUP2 PUSH2 0x29C JUMP JUMPDEST DUP2 EQ PUSH2 0x31C JUMPI PUSH1 0x0 DUP1 REVERT JUMPDEST POP JUMP INVALID LOG2 PUSH5 0x6970667358 0x22 SLT KECCAK256 CALLDATALOAD LOG3 0x28 0x28 PUSH29 0xCCFD9DEF2CA957331427E78F85F2A590F730E44D4491D0B0A240756473 PUSH16 0x6C634300080700330000000000000000 "
				},
				"gasEstimates": {
					"creation": {
						"codeDepositCost": "170600",
						"executionCost": "46595",
						"totalCost": "217195"
					},
					"external": {
						"boolvar()": "2493",
						"locvariable(uint256,bool,address)": "infinite",
						"statevarable()": "2429"
					}
				},
				"methodIdentifiers": {
					"boolvar()": "b75f17c5",
					"locvariable(uint256,bool,address)": "1abd155f",
					"statevarable()": "8a3b12ae"
				}
			},
			"storageLayout": {
				"storage": [
					{
						"astId": 3,
						"contract": "localvariable.sol:localvariable",
						"label": "statevarable",
						"offset": 0,
						"slot": "0",
						"type": "t_uint256"
					},
					{
						"astId": 6,
						"contract": "localvariable.sol:localvariable",
						"label": "boolvar",
						"offset": 0,
						"slot": "1",
						"type": "t_bool"
					}
				],
				"types": {
					"t_bool": {
						"encoding": "inplace",
						"label": "bool",
						"numberOfBytes": "1"
					},
					"t_uint256": {
						"encoding": "inplace",
						"label": "uint256",
						"numberOfBytes": "32"
					}
				}
			},
			"userdoc": {
				"kind": "user",
				"methods": {},
				"version": 1
			}
		}
	}
}