{
	"visibilityOfVariable.sol": {
		"C": {
			"abi": [
				{
					"inputs": [],
					"name": "Caller",
					"outputs": [
						{
							"internalType": "string",
							"name": "",
							"type": "string"
						}
					],
					"stateMutability": "view",
					"type": "function"
				}
			],
			"devdoc": {
				"kind": "dev",
				"methods": {},
				"version": 1
			},
			"evm": {
				"assembly": "    /* \"visibilityOfVariable.sol\":969:1168  contract C{... */\n  mstore(0x40, 0x80)\n    /* \"visibilityOfVariable.sol\":1029:1059  new visibilityImplementation() */\n  mload(0x40)\n  tag_1\n  swap1\n  tag_2\n  jump\t// in\ntag_1:\n  mload(0x40)\n  dup1\n  swap2\n  sub\n  swap1\n  0x00\n  create\n  dup1\n  iszero\n  dup1\n  iszero\n  tag_3\n  jumpi\n  returndatasize\n  0x00\n  dup1\n  returndatacopy\n  revert(0x00, returndatasize)\ntag_3:\n  pop\n    /* \"visibilityOfVariable.sol\":986:1059  visibilityImplementation visibilityObjec = new visibilityImplementation() */\n  0x00\n  dup1\n  0x0100\n  exp\n  dup2\n  sload\n  dup2\n  0xffffffffffffffffffffffffffffffffffffffff\n  mul\n  not\n  and\n  swap1\n  dup4\n  0xffffffffffffffffffffffffffffffffffffffff\n  and\n  mul\n  or\n  swap1\n  sstore\n  pop\n    /* \"visibilityOfVariable.sol\":969:1168  contract C{... */\n  callvalue\n  dup1\n  iszero\n  tag_4\n  jumpi\n  0x00\n  dup1\n  revert\ntag_4:\n  pop\n  jump(tag_5)\ntag_2:\n  dataSize(sub_1)\n  dup1\n  dataOffset(sub_1)\n  dup4\n  codecopy\n  add\n  swap1\n  jump\t// out\ntag_5:\n  dataSize(sub_0)\n  dup1\n  dataOffset(sub_0)\n  0x00\n  codecopy\n  0x00\n  return\nstop\n\nsub_0: assembly {\n        /* \"visibilityOfVariable.sol\":969:1168  contract C{... */\n      mstore(0x40, 0x80)\n      callvalue\n      dup1\n      iszero\n      tag_1\n      jumpi\n      0x00\n      dup1\n      revert\n    tag_1:\n      pop\n      jumpi(tag_2, lt(calldatasize, 0x04))\n      shr(0xe0, calldataload(0x00))\n      dup1\n      0x7350597a\n      eq\n      tag_3\n      jumpi\n    tag_2:\n      0x00\n      dup1\n      revert\n        /* \"visibilityOfVariable.sol\":1066:1166  function Caller() public view returns(string memory){... */\n    tag_3:\n      tag_4\n      tag_5\n      jump\t// in\n    tag_4:\n      mload(0x40)\n      tag_6\n      swap2\n      swap1\n      tag_7\n      jump\t// in\n    tag_6:\n      mload(0x40)\n      dup1\n      swap2\n      sub\n      swap1\n      return\n    tag_5:\n        /* \"visibilityOfVariable.sol\":1104:1117  string memory */\n      0x60\n        /* \"visibilityOfVariable.sol\":1135:1150  visibilityObjec */\n      0x00\n      dup1\n      sload\n      swap1\n      0x0100\n      exp\n      swap1\n      div\n      0xffffffffffffffffffffffffffffffffffffffff\n      and\n        /* \"visibilityOfVariable.sol\":1135:1157  visibilityObjec.check3 */\n      0xffffffffffffffffffffffffffffffffffffffff\n      and\n      0x89ac3851\n        /* \"visibilityOfVariable.sol\":1135:1159  visibilityObjec.check3() */\n      mload(0x40)\n      dup2\n      0xffffffff\n      and\n      0xe0\n      shl\n      dup2\n      mstore\n      0x04\n      add\n      0x00\n      mload(0x40)\n      dup1\n      dup4\n      sub\n      dup2\n      dup7\n      dup1\n      extcodesize\n      iszero\n      dup1\n      iszero\n      tag_9\n      jumpi\n      0x00\n      dup1\n      revert\n    tag_9:\n      pop\n      gas\n      staticcall\n      iszero\n      dup1\n      iszero\n      tag_11\n      jumpi\n      returndatasize\n      0x00\n      dup1\n      returndatacopy\n      revert(0x00, returndatasize)\n    tag_11:\n      pop\n      pop\n      pop\n      pop\n      mload(0x40)\n      returndatasize\n      0x00\n      dup3\n      returndatacopy\n      returndatasize\n      not(0x1f)\n      0x1f\n      dup3\n      add\n      and\n      dup3\n      add\n      dup1\n      0x40\n      mstore\n      pop\n      dup2\n      add\n      swap1\n      tag_12\n      swap2\n      swap1\n      tag_13\n      jump\t// in\n    tag_12:\n        /* \"visibilityOfVariable.sol\":1128:1159  return visibilityObjec.check3() */\n      swap1\n      pop\n        /* \"visibilityOfVariable.sol\":1066:1166  function Caller() public view returns(string memory){... */\n      swap1\n      jump\t// out\n        /* \"#utility.yul\":7:428   */\n    tag_15:\n        /* \"#utility.yul\":96:101   */\n      0x00\n        /* \"#utility.yul\":121:187   */\n      tag_17\n        /* \"#utility.yul\":137:186   */\n      tag_18\n        /* \"#utility.yul\":179:185   */\n      dup5\n        /* \"#utility.yul\":137:186   */\n      tag_19\n      jump\t// in\n    tag_18:\n        /* \"#utility.yul\":121:187   */\n      tag_20\n      jump\t// in\n    tag_17:\n        /* \"#utility.yul\":112:187   */\n      swap1\n      pop\n        /* \"#utility.yul\":210:216   */\n      dup3\n        /* \"#utility.yul\":203:208   */\n      dup2\n        /* \"#utility.yul\":196:217   */\n      mstore\n        /* \"#utility.yul\":248:252   */\n      0x20\n        /* \"#utility.yul\":241:246   */\n      dup2\n        /* \"#utility.yul\":237:253   */\n      add\n        /* \"#utility.yul\":286:289   */\n      dup5\n        /* \"#utility.yul\":277:283   */\n      dup5\n        /* \"#utility.yul\":272:275   */\n      dup5\n        /* \"#utility.yul\":268:284   */\n      add\n        /* \"#utility.yul\":265:290   */\n      gt\n        /* \"#utility.yul\":262:374   */\n      iszero\n      tag_21\n      jumpi\n        /* \"#utility.yul\":293:372   */\n      tag_22\n      tag_23\n      jump\t// in\n    tag_22:\n        /* \"#utility.yul\":262:374   */\n    tag_21:\n        /* \"#utility.yul\":383:422   */\n      tag_24\n        /* \"#utility.yul\":415:421   */\n      dup5\n        /* \"#utility.yul\":410:413   */\n      dup3\n        /* \"#utility.yul\":405:408   */\n      dup6\n        /* \"#utility.yul\":383:422   */\n      tag_25\n      jump\t// in\n    tag_24:\n        /* \"#utility.yul\":102:428   */\n      pop\n        /* \"#utility.yul\":7:428   */\n      swap4\n      swap3\n      pop\n      pop\n      pop\n      jump\t// out\n        /* \"#utility.yul\":448:803   */\n    tag_26:\n        /* \"#utility.yul\":515:520   */\n      0x00\n        /* \"#utility.yul\":564:567   */\n      dup3\n        /* \"#utility.yul\":557:561   */\n      0x1f\n        /* \"#utility.yul\":549:555   */\n      dup4\n        /* \"#utility.yul\":545:562   */\n      add\n        /* \"#utility.yul\":541:568   */\n      slt\n        /* \"#utility.yul\":531:653   */\n      tag_28\n      jumpi\n        /* \"#utility.yul\":572:651   */\n      tag_29\n      tag_30\n      jump\t// in\n    tag_29:\n        /* \"#utility.yul\":531:653   */\n    tag_28:\n        /* \"#utility.yul\":682:688   */\n      dup2\n        /* \"#utility.yul\":676:689   */\n      mload\n        /* \"#utility.yul\":707:797   */\n      tag_31\n        /* \"#utility.yul\":793:796   */\n      dup5\n        /* \"#utility.yul\":785:791   */\n      dup3\n        /* \"#utility.yul\":778:782   */\n      0x20\n        /* \"#utility.yul\":770:776   */\n      dup7\n        /* \"#utility.yul\":766:783   */\n      add\n        /* \"#utility.yul\":707:797   */\n      tag_15\n      jump\t// in\n    tag_31:\n        /* \"#utility.yul\":698:797   */\n      swap2\n      pop\n        /* \"#utility.yul\":521:803   */\n      pop\n        /* \"#utility.yul\":448:803   */\n      swap3\n      swap2\n      pop\n      pop\n      jump\t// out\n        /* \"#utility.yul\":809:1333   */\n    tag_13:\n        /* \"#utility.yul\":889:895   */\n      0x00\n        /* \"#utility.yul\":938:940   */\n      0x20\n        /* \"#utility.yul\":926:935   */\n      dup3\n        /* \"#utility.yul\":917:924   */\n      dup5\n        /* \"#utility.yul\":913:936   */\n      sub\n        /* \"#utility.yul\":909:941   */\n      slt\n        /* \"#utility.yul\":906:1025   */\n      iszero\n      tag_33\n      jumpi\n        /* \"#utility.yul\":944:1023   */\n      tag_34\n      tag_35\n      jump\t// in\n    tag_34:\n        /* \"#utility.yul\":906:1025   */\n    tag_33:\n        /* \"#utility.yul\":1085:1086   */\n      0x00\n        /* \"#utility.yul\":1074:1083   */\n      dup3\n        /* \"#utility.yul\":1070:1087   */\n      add\n        /* \"#utility.yul\":1064:1088   */\n      mload\n        /* \"#utility.yul\":1115:1133   */\n      0xffffffffffffffff\n        /* \"#utility.yul\":1107:1113   */\n      dup2\n        /* \"#utility.yul\":1104:1134   */\n      gt\n        /* \"#utility.yul\":1101:1218   */\n      iszero\n      tag_36\n      jumpi\n        /* \"#utility.yul\":1137:1216   */\n      tag_37\n      tag_38\n      jump\t// in\n    tag_37:\n        /* \"#utility.yul\":1101:1218   */\n    tag_36:\n        /* \"#utility.yul\":1242:1316   */\n      tag_39\n        /* \"#utility.yul\":1308:1315   */\n      dup5\n        /* \"#utility.yul\":1299:1305   */\n      dup3\n        /* \"#utility.yul\":1288:1297   */\n      dup6\n        /* \"#utility.yul\":1284:1306   */\n      add\n        /* \"#utility.yul\":1242:1316   */\n      tag_26\n      jump\t// in\n    tag_39:\n        /* \"#utility.yul\":1232:1316   */\n      swap2\n      pop\n        /* \"#utility.yul\":1035:1326   */\n      pop\n        /* \"#utility.yul\":809:1333   */\n      swap3\n      swap2\n      pop\n      pop\n      jump\t// out\n        /* \"#utility.yul\":1339:1703   */\n    tag_40:\n        /* \"#utility.yul\":1427:1430   */\n      0x00\n        /* \"#utility.yul\":1455:1494   */\n      tag_42\n        /* \"#utility.yul\":1488:1493   */\n      dup3\n        /* \"#utility.yul\":1455:1494   */\n      tag_43\n      jump\t// in\n    tag_42:\n        /* \"#utility.yul\":1510:1581   */\n      tag_44\n        /* \"#utility.yul\":1574:1580   */\n      dup2\n        /* \"#utility.yul\":1569:1572   */\n      dup6\n        /* \"#utility.yul\":1510:1581   */\n      tag_45\n      jump\t// in\n    tag_44:\n        /* \"#utility.yul\":1503:1581   */\n      swap4\n      pop\n        /* \"#utility.yul\":1590:1642   */\n      tag_46\n        /* \"#utility.yul\":1635:1641   */\n      dup2\n        /* \"#utility.yul\":1630:1633   */\n      dup6\n        /* \"#utility.yul\":1623:1627   */\n      0x20\n        /* \"#utility.yul\":1616:1621   */\n      dup7\n        /* \"#utility.yul\":1612:1628   */\n      add\n        /* \"#utility.yul\":1590:1642   */\n      tag_25\n      jump\t// in\n    tag_46:\n        /* \"#utility.yul\":1667:1696   */\n      tag_47\n        /* \"#utility.yul\":1689:1695   */\n      dup2\n        /* \"#utility.yul\":1667:1696   */\n      tag_48\n      jump\t// in\n    tag_47:\n        /* \"#utility.yul\":1662:1665   */\n      dup5\n        /* \"#utility.yul\":1658:1697   */\n      add\n        /* \"#utility.yul\":1651:1697   */\n      swap2\n      pop\n        /* \"#utility.yul\":1431:1703   */\n      pop\n        /* \"#utility.yul\":1339:1703   */\n      swap3\n      swap2\n      pop\n      pop\n      jump\t// out\n        /* \"#utility.yul\":1709:2022   */\n    tag_7:\n        /* \"#utility.yul\":1822:1826   */\n      0x00\n        /* \"#utility.yul\":1860:1862   */\n      0x20\n        /* \"#utility.yul\":1849:1858   */\n      dup3\n        /* \"#utility.yul\":1845:1863   */\n      add\n        /* \"#utility.yul\":1837:1863   */\n      swap1\n      pop\n        /* \"#utility.yul\":1909:1918   */\n      dup2\n        /* \"#utility.yul\":1903:1907   */\n      dup2\n        /* \"#utility.yul\":1899:1919   */\n      sub\n        /* \"#utility.yul\":1895:1896   */\n      0x00\n        /* \"#utility.yul\":1884:1893   */\n      dup4\n        /* \"#utility.yul\":1880:1897   */\n      add\n        /* \"#utility.yul\":1873:1920   */\n      mstore\n        /* \"#utility.yul\":1937:2015   */\n      tag_50\n        /* \"#utility.yul\":2010:2014   */\n      dup2\n        /* \"#utility.yul\":2001:2007   */\n      dup5\n        /* \"#utility.yul\":1937:2015   */\n      tag_40\n      jump\t// in\n    tag_50:\n        /* \"#utility.yul\":1929:2015   */\n      swap1\n      pop\n        /* \"#utility.yul\":1709:2022   */\n      swap3\n      swap2\n      pop\n      pop\n      jump\t// out\n        /* \"#utility.yul\":2028:2157   */\n    tag_20:\n        /* \"#utility.yul\":2062:2068   */\n      0x00\n        /* \"#utility.yul\":2089:2109   */\n      tag_52\n      tag_53\n      jump\t// in\n    tag_52:\n        /* \"#utility.yul\":2079:2109   */\n      swap1\n      pop\n        /* \"#utility.yul\":2118:2151   */\n      tag_54\n        /* \"#utility.yul\":2146:2150   */\n      dup3\n        /* \"#utility.yul\":2138:2144   */\n      dup3\n        /* \"#utility.yul\":2118:2151   */\n      tag_55\n      jump\t// in\n    tag_54:\n        /* \"#utility.yul\":2028:2157   */\n      swap2\n      swap1\n      pop\n      jump\t// out\n        /* \"#utility.yul\":2163:2238   */\n    tag_53:\n        /* \"#utility.yul\":2196:2202   */\n      0x00\n        /* \"#utility.yul\":2229:2231   */\n      0x40\n        /* \"#utility.yul\":2223:2232   */\n      mload\n        /* \"#utility.yul\":2213:2232   */\n      swap1\n      pop\n        /* \"#utility.yul\":2163:2238   */\n      swap1\n      jump\t// out\n        /* \"#utility.yul\":2244:2552   */\n    tag_19:\n        /* \"#utility.yul\":2306:2310   */\n      0x00\n        /* \"#utility.yul\":2396:2414   */\n      0xffffffffffffffff\n        /* \"#utility.yul\":2388:2394   */\n      dup3\n        /* \"#utility.yul\":2385:2415   */\n      gt\n        /* \"#utility.yul\":2382:2438   */\n      iszero\n      tag_58\n      jumpi\n        /* \"#utility.yul\":2418:2436   */\n      tag_59\n      tag_60\n      jump\t// in\n    tag_59:\n        /* \"#utility.yul\":2382:2438   */\n    tag_58:\n        /* \"#utility.yul\":2456:2485   */\n      tag_61\n        /* \"#utility.yul\":2478:2484   */\n      dup3\n        /* \"#utility.yul\":2456:2485   */\n      tag_48\n      jump\t// in\n    tag_61:\n        /* \"#utility.yul\":2448:2485   */\n      swap1\n      pop\n        /* \"#utility.yul\":2540:2544   */\n      0x20\n        /* \"#utility.yul\":2534:2538   */\n      dup2\n        /* \"#utility.yul\":2530:2545   */\n      add\n        /* \"#utility.yul\":2522:2545   */\n      swap1\n      pop\n        /* \"#utility.yul\":2244:2552   */\n      swap2\n      swap1\n      pop\n      jump\t// out\n        /* \"#utility.yul\":2558:2657   */\n    tag_43:\n        /* \"#utility.yul\":2610:2616   */\n      0x00\n        /* \"#utility.yul\":2644:2649   */\n      dup2\n        /* \"#utility.yul\":2638:2650   */\n      mload\n        /* \"#utility.yul\":2628:2650   */\n      swap1\n      pop\n        /* \"#utility.yul\":2558:2657   */\n      swap2\n      swap1\n      pop\n      jump\t// out\n        /* \"#utility.yul\":2663:2832   */\n    tag_45:\n        /* \"#utility.yul\":2747:2758   */\n      0x00\n        /* \"#utility.yul\":2781:2787   */\n      dup3\n        /* \"#utility.yul\":2776:2779   */\n      dup3\n        /* \"#utility.yul\":2769:2788   */\n      mstore\n        /* \"#utility.yul\":2821:2825   */\n      0x20\n        /* \"#utility.yul\":2816:2819   */\n      dup3\n        /* \"#utility.yul\":2812:2826   */\n      add\n        /* \"#utility.yul\":2797:2826   */\n      swap1\n      pop\n        /* \"#utility.yul\":2663:2832   */\n      swap3\n      swap2\n      pop\n      pop\n      jump\t// out\n        /* \"#utility.yul\":2838:3145   */\n    tag_25:\n        /* \"#utility.yul\":2906:2907   */\n      0x00\n        /* \"#utility.yul\":2916:3029   */\n    tag_65:\n        /* \"#utility.yul\":2930:2936   */\n      dup4\n        /* \"#utility.yul\":2927:2928   */\n      dup2\n        /* \"#utility.yul\":2924:2937   */\n      lt\n        /* \"#utility.yul\":2916:3029   */\n      iszero\n      tag_67\n      jumpi\n        /* \"#utility.yul\":3015:3016   */\n      dup1\n        /* \"#utility.yul\":3010:3013   */\n      dup3\n        /* \"#utility.yul\":3006:3017   */\n      add\n        /* \"#utility.yul\":3000:3018   */\n      mload\n        /* \"#utility.yul\":2996:2997   */\n      dup2\n        /* \"#utility.yul\":2991:2994   */\n      dup5\n        /* \"#utility.yul\":2987:2998   */\n      add\n        /* \"#utility.yul\":2980:3019   */\n      mstore\n        /* \"#utility.yul\":2952:2954   */\n      0x20\n        /* \"#utility.yul\":2949:2950   */\n      dup2\n        /* \"#utility.yul\":2945:2955   */\n      add\n        /* \"#utility.yul\":2940:2955   */\n      swap1\n      pop\n        /* \"#utility.yul\":2916:3029   */\n      jump(tag_65)\n    tag_67:\n        /* \"#utility.yul\":3047:3053   */\n      dup4\n        /* \"#utility.yul\":3044:3045   */\n      dup2\n        /* \"#utility.yul\":3041:3054   */\n      gt\n        /* \"#utility.yul\":3038:3139   */\n      iszero\n      tag_68\n      jumpi\n        /* \"#utility.yul\":3127:3128   */\n      0x00\n        /* \"#utility.yul\":3118:3124   */\n      dup5\n        /* \"#utility.yul\":3113:3116   */\n      dup5\n        /* \"#utility.yul\":3109:3125   */\n      add\n        /* \"#utility.yul\":3102:3129   */\n      mstore\n        /* \"#utility.yul\":3038:3139   */\n    tag_68:\n        /* \"#utility.yul\":2887:3145   */\n      pop\n        /* \"#utility.yul\":2838:3145   */\n      pop\n      pop\n      pop\n      jump\t// out\n        /* \"#utility.yul\":3151:3432   */\n    tag_55:\n        /* \"#utility.yul\":3234:3261   */\n      tag_70\n        /* \"#utility.yul\":3256:3260   */\n      dup3\n        /* \"#utility.yul\":3234:3261   */\n      tag_48\n      jump\t// in\n    tag_70:\n        /* \"#utility.yul\":3226:3232   */\n      dup2\n        /* \"#utility.yul\":3222:3262   */\n      add\n        /* \"#utility.yul\":3364:3370   */\n      dup2\n        /* \"#utility.yul\":3352:3362   */\n      dup2\n        /* \"#utility.yul\":3349:3371   */\n      lt\n        /* \"#utility.yul\":3328:3346   */\n      0xffffffffffffffff\n        /* \"#utility.yul\":3316:3326   */\n      dup3\n        /* \"#utility.yul\":3313:3347   */\n      gt\n        /* \"#utility.yul\":3310:3372   */\n      or\n        /* \"#utility.yul\":3307:3395   */\n      iszero\n      tag_71\n      jumpi\n        /* \"#utility.yul\":3375:3393   */\n      tag_72\n      tag_60\n      jump\t// in\n    tag_72:\n        /* \"#utility.yul\":3307:3395   */\n    tag_71:\n        /* \"#utility.yul\":3415:3425   */\n      dup1\n        /* \"#utility.yul\":3411:3413   */\n      0x40\n        /* \"#utility.yul\":3404:3426   */\n      mstore\n        /* \"#utility.yul\":3194:3432   */\n      pop\n        /* \"#utility.yul\":3151:3432   */\n      pop\n      pop\n      jump\t// out\n        /* \"#utility.yul\":3438:3618   */\n    tag_60:\n        /* \"#utility.yul\":3486:3563   */\n      0x4e487b7100000000000000000000000000000000000000000000000000000000\n        /* \"#utility.yul\":3483:3484   */\n      0x00\n        /* \"#utility.yul\":3476:3564   */\n      mstore\n        /* \"#utility.yul\":3583:3587   */\n      0x41\n        /* \"#utility.yul\":3580:3581   */\n      0x04\n        /* \"#utility.yul\":3573:3588   */\n      mstore\n        /* \"#utility.yul\":3607:3611   */\n      0x24\n        /* \"#utility.yul\":3604:3605   */\n      0x00\n        /* \"#utility.yul\":3597:3612   */\n      revert\n        /* \"#utility.yul\":3624:3741   */\n    tag_30:\n        /* \"#utility.yul\":3733:3734   */\n      0x00\n        /* \"#utility.yul\":3730:3731   */\n      dup1\n        /* \"#utility.yul\":3723:3735   */\n      revert\n        /* \"#utility.yul\":3747:3864   */\n    tag_23:\n        /* \"#utility.yul\":3856:3857   */\n      0x00\n        /* \"#utility.yul\":3853:3854   */\n      dup1\n        /* \"#utility.yul\":3846:3858   */\n      revert\n        /* \"#utility.yul\":3870:3987   */\n    tag_38:\n        /* \"#utility.yul\":3979:3980   */\n      0x00\n        /* \"#utility.yul\":3976:3977   */\n      dup1\n        /* \"#utility.yul\":3969:3981   */\n      revert\n        /* \"#utility.yul\":3993:4110   */\n    tag_35:\n        /* \"#utility.yul\":4102:4103   */\n      0x00\n        /* \"#utility.yul\":4099:4100   */\n      dup1\n        /* \"#utility.yul\":4092:4104   */\n      revert\n        /* \"#utility.yul\":4116:4218   */\n    tag_48:\n        /* \"#utility.yul\":4157:4163   */\n      0x00\n        /* \"#utility.yul\":4208:4210   */\n      0x1f\n        /* \"#utility.yul\":4204:4211   */\n      not\n        /* \"#utility.yul\":4199:4201   */\n      0x1f\n        /* \"#utility.yul\":4192:4197   */\n      dup4\n        /* \"#utility.yul\":4188:4202   */\n      add\n        /* \"#utility.yul\":4184:4212   */\n      and\n        /* \"#utility.yul\":4174:4212   */\n      swap1\n      pop\n        /* \"#utility.yul\":4116:4218   */\n      swap2\n      swap1\n      pop\n      jump\t// out\n\n    auxdata: 0xa2646970667358221220a81ba56399d2b92ecef1c747ae516d1a53a2e261be39e620cd6e7838bca1f4fb64736f6c63430008070033\n}\n\nsub_1: assembly {\n        /* \"visibilityOfVariable.sol\":64:739  contract visibilityImplementation{... */\n      mstore(0x40, 0x80)\n        /* \"visibilityOfVariable.sol\":121:123  10 */\n      0x0a\n        /* \"visibilityOfVariable.sol\":104:123  uint private x = 10 */\n      0x00\n      sstore\n        /* \"visibilityOfVariable.sol\":147:149  20 */\n      0x14\n        /* \"visibilityOfVariable.sol\":129:149  uint internal y = 20 */\n      0x01\n      sstore\n        /* \"visibilityOfVariable.sol\":171:173  30 */\n      0x1e\n        /* \"visibilityOfVariable.sol\":155:173  uint public z = 30 */\n      0x02\n      sstore\n        /* \"visibilityOfVariable.sol\":64:739  contract visibilityImplementation{... */\n      callvalue\n      dup1\n      iszero\n      tag_1\n      jumpi\n      0x00\n      dup1\n      revert\n    tag_1:\n      pop\n      dataSize(sub_0)\n      dup1\n      dataOffset(sub_0)\n      0x00\n      codecopy\n      0x00\n      return\n    stop\n\n    sub_0: assembly {\n            /* \"visibilityOfVariable.sol\":64:739  contract visibilityImplementation{... */\n          mstore(0x40, 0x80)\n          callvalue\n          dup1\n          iszero\n          tag_1\n          jumpi\n          0x00\n          dup1\n          revert\n        tag_1:\n          pop\n          jumpi(tag_2, lt(calldatasize, 0x04))\n          shr(0xe0, calldataload(0x00))\n          dup1\n          0x1856775f\n          eq\n          tag_3\n          jumpi\n          dup1\n          0x89ac3851\n          eq\n          tag_4\n          jumpi\n          dup1\n          0xc5d7802e\n          eq\n          tag_5\n          jumpi\n          dup1\n          0xcfe65550\n          eq\n          tag_6\n          jumpi\n        tag_2:\n          0x00\n          dup1\n          revert\n            /* \"visibilityOfVariable.sol\":651:737  function checkall() public view returns(string memory){... */\n        tag_3:\n          tag_7\n          tag_8\n          jump\t// in\n        tag_7:\n          mload(0x40)\n          tag_9\n          swap2\n          swap1\n          tag_10\n          jump\t// in\n        tag_9:\n          mload(0x40)\n          dup1\n          swap2\n          sub\n          swap1\n          return\n            /* \"visibilityOfVariable.sol\":467:555  function check3() external pure returns(string memory){... */\n        tag_4:\n          tag_11\n          tag_12\n          jump\t// in\n        tag_11:\n          mload(0x40)\n          tag_13\n          swap2\n          swap1\n          tag_10\n          jump\t// in\n        tag_13:\n          mload(0x40)\n          dup1\n          swap2\n          sub\n          swap1\n          return\n            /* \"visibilityOfVariable.sol\":155:173  uint public z = 30 */\n        tag_5:\n          tag_14\n          tag_15\n          jump\t// in\n        tag_14:\n          mload(0x40)\n          tag_16\n          swap2\n          swap1\n          tag_17\n          jump\t// in\n        tag_16:\n          mload(0x40)\n          dup1\n          swap2\n          sub\n          swap1\n          return\n            /* \"visibilityOfVariable.sol\":561:645  function check4() public pure returns(string memory){... */\n        tag_6:\n          tag_18\n          tag_19\n          jump\t// in\n        tag_18:\n          mload(0x40)\n          tag_20\n          swap2\n          swap1\n          tag_10\n          jump\t// in\n        tag_20:\n          mload(0x40)\n          dup1\n          swap2\n          sub\n          swap1\n          return\n            /* \"visibilityOfVariable.sol\":651:737  function checkall() public view returns(string memory){... */\n        tag_8:\n            /* \"visibilityOfVariable.sol\":691:704  string memory */\n          0x60\n            /* \"visibilityOfVariable.sol\":722:730  check4() */\n          tag_22\n            /* \"visibilityOfVariable.sol\":722:728  check4 */\n          tag_19\n            /* \"visibilityOfVariable.sol\":722:730  check4() */\n          jump\t// in\n        tag_22:\n            /* \"visibilityOfVariable.sol\":715:730  return check4() */\n          swap1\n          pop\n            /* \"visibilityOfVariable.sol\":651:737  function checkall() public view returns(string memory){... */\n          swap1\n          jump\t// out\n            /* \"visibilityOfVariable.sol\":467:555  function check3() external pure returns(string memory){... */\n        tag_12:\n            /* \"visibilityOfVariable.sol\":507:520  string memory */\n          0x60\n            /* \"visibilityOfVariable.sol\":531:548  return \"external\" */\n          mload(0x40)\n          dup1\n          0x40\n          add\n          0x40\n          mstore\n          dup1\n          0x08\n          dup2\n          mstore\n          0x20\n          add\n          0x65787465726e616c000000000000000000000000000000000000000000000000\n          dup2\n          mstore\n          pop\n          swap1\n          pop\n            /* \"visibilityOfVariable.sol\":467:555  function check3() external pure returns(string memory){... */\n          swap1\n          jump\t// out\n            /* \"visibilityOfVariable.sol\":155:173  uint public z = 30 */\n        tag_15:\n          sload(0x02)\n          dup2\n          jump\t// out\n            /* \"visibilityOfVariable.sol\":561:645  function check4() public pure returns(string memory){... */\n        tag_19:\n            /* \"visibilityOfVariable.sol\":599:612  string memory */\n          0x60\n            /* \"visibilityOfVariable.sol\":623:638  return \"public\" */\n          mload(0x40)\n          dup1\n          0x40\n          add\n          0x40\n          mstore\n          dup1\n          0x06\n          dup2\n          mstore\n          0x20\n          add\n          0x7075626c69630000000000000000000000000000000000000000000000000000\n          dup2\n          mstore\n          pop\n          swap1\n          pop\n            /* \"visibilityOfVariable.sol\":561:645  function check4() public pure returns(string memory){... */\n          swap1\n          jump\t// out\n            /* \"#utility.yul\":7:371   */\n        tag_26:\n            /* \"#utility.yul\":95:98   */\n          0x00\n            /* \"#utility.yul\":123:162   */\n          tag_28\n            /* \"#utility.yul\":156:161   */\n          dup3\n            /* \"#utility.yul\":123:162   */\n          tag_29\n          jump\t// in\n        tag_28:\n            /* \"#utility.yul\":178:249   */\n          tag_30\n            /* \"#utility.yul\":242:248   */\n          dup2\n            /* \"#utility.yul\":237:240   */\n          dup6\n            /* \"#utility.yul\":178:249   */\n          tag_31\n          jump\t// in\n        tag_30:\n            /* \"#utility.yul\":171:249   */\n          swap4\n          pop\n            /* \"#utility.yul\":258:310   */\n          tag_32\n            /* \"#utility.yul\":303:309   */\n          dup2\n            /* \"#utility.yul\":298:301   */\n          dup6\n            /* \"#utility.yul\":291:295   */\n          0x20\n            /* \"#utility.yul\":284:289   */\n          dup7\n            /* \"#utility.yul\":280:296   */\n          add\n            /* \"#utility.yul\":258:310   */\n          tag_33\n          jump\t// in\n        tag_32:\n            /* \"#utility.yul\":335:364   */\n          tag_34\n            /* \"#utility.yul\":357:363   */\n          dup2\n            /* \"#utility.yul\":335:364   */\n          tag_35\n          jump\t// in\n        tag_34:\n            /* \"#utility.yul\":330:333   */\n          dup5\n            /* \"#utility.yul\":326:365   */\n          add\n            /* \"#utility.yul\":319:365   */\n          swap2\n          pop\n            /* \"#utility.yul\":99:371   */\n          pop\n            /* \"#utility.yul\":7:371   */\n          swap3\n          swap2\n          pop\n          pop\n          jump\t// out\n            /* \"#utility.yul\":377:495   */\n        tag_36:\n            /* \"#utility.yul\":464:488   */\n          tag_38\n            /* \"#utility.yul\":482:487   */\n          dup2\n            /* \"#utility.yul\":464:488   */\n          tag_39\n          jump\t// in\n        tag_38:\n            /* \"#utility.yul\":459:462   */\n          dup3\n            /* \"#utility.yul\":452:489   */\n          mstore\n            /* \"#utility.yul\":377:495   */\n          pop\n          pop\n          jump\t// out\n            /* \"#utility.yul\":501:814   */\n        tag_10:\n            /* \"#utility.yul\":614:618   */\n          0x00\n            /* \"#utility.yul\":652:654   */\n          0x20\n            /* \"#utility.yul\":641:650   */\n          dup3\n            /* \"#utility.yul\":637:655   */\n          add\n            /* \"#utility.yul\":629:655   */\n          swap1\n          pop\n            /* \"#utility.yul\":701:710   */\n          dup2\n            /* \"#utility.yul\":695:699   */\n          dup2\n            /* \"#utility.yul\":691:711   */\n          sub\n            /* \"#utility.yul\":687:688   */\n          0x00\n            /* \"#utility.yul\":676:685   */\n          dup4\n            /* \"#utility.yul\":672:689   */\n          add\n            /* \"#utility.yul\":665:712   */\n          mstore\n            /* \"#utility.yul\":729:807   */\n          tag_41\n            /* \"#utility.yul\":802:806   */\n          dup2\n            /* \"#utility.yul\":793:799   */\n          dup5\n            /* \"#utility.yul\":729:807   */\n          tag_26\n          jump\t// in\n        tag_41:\n            /* \"#utility.yul\":721:807   */\n          swap1\n          pop\n            /* \"#utility.yul\":501:814   */\n          swap3\n          swap2\n          pop\n          pop\n          jump\t// out\n            /* \"#utility.yul\":820:1042   */\n        tag_17:\n            /* \"#utility.yul\":913:917   */\n          0x00\n            /* \"#utility.yul\":951:953   */\n          0x20\n            /* \"#utility.yul\":940:949   */\n          dup3\n            /* \"#utility.yul\":936:954   */\n          add\n            /* \"#utility.yul\":928:954   */\n          swap1\n          pop\n            /* \"#utility.yul\":964:1035   */\n          tag_43\n            /* \"#utility.yul\":1032:1033   */\n          0x00\n            /* \"#utility.yul\":1021:1030   */\n          dup4\n            /* \"#utility.yul\":1017:1034   */\n          add\n            /* \"#utility.yul\":1008:1014   */\n          dup5\n            /* \"#utility.yul\":964:1035   */\n          tag_36\n          jump\t// in\n        tag_43:\n            /* \"#utility.yul\":820:1042   */\n          swap3\n          swap2\n          pop\n          pop\n          jump\t// out\n            /* \"#utility.yul\":1048:1147   */\n        tag_29:\n            /* \"#utility.yul\":1100:1106   */\n          0x00\n            /* \"#utility.yul\":1134:1139   */\n          dup2\n            /* \"#utility.yul\":1128:1140   */\n          mload\n            /* \"#utility.yul\":1118:1140   */\n          swap1\n          pop\n            /* \"#utility.yul\":1048:1147   */\n          swap2\n          swap1\n          pop\n          jump\t// out\n            /* \"#utility.yul\":1153:1322   */\n        tag_31:\n            /* \"#utility.yul\":1237:1248   */\n          0x00\n            /* \"#utility.yul\":1271:1277   */\n          dup3\n            /* \"#utility.yul\":1266:1269   */\n          dup3\n            /* \"#utility.yul\":1259:1278   */\n          mstore\n            /* \"#utility.yul\":1311:1315   */\n          0x20\n            /* \"#utility.yul\":1306:1309   */\n          dup3\n            /* \"#utility.yul\":1302:1316   */\n          add\n            /* \"#utility.yul\":1287:1316   */\n          swap1\n          pop\n            /* \"#utility.yul\":1153:1322   */\n          swap3\n          swap2\n          pop\n          pop\n          jump\t// out\n            /* \"#utility.yul\":1328:1405   */\n        tag_39:\n            /* \"#utility.yul\":1365:1372   */\n          0x00\n            /* \"#utility.yul\":1394:1399   */\n          dup2\n            /* \"#utility.yul\":1383:1399   */\n          swap1\n          pop\n            /* \"#utility.yul\":1328:1405   */\n          swap2\n          swap1\n          pop\n          jump\t// out\n            /* \"#utility.yul\":1411:1718   */\n        tag_33:\n            /* \"#utility.yul\":1479:1480   */\n          0x00\n            /* \"#utility.yul\":1489:1602   */\n        tag_48:\n            /* \"#utility.yul\":1503:1509   */\n          dup4\n            /* \"#utility.yul\":1500:1501   */\n          dup2\n            /* \"#utility.yul\":1497:1510   */\n          lt\n            /* \"#utility.yul\":1489:1602   */\n          iszero\n          tag_50\n          jumpi\n            /* \"#utility.yul\":1588:1589   */\n          dup1\n            /* \"#utility.yul\":1583:1586   */\n          dup3\n            /* \"#utility.yul\":1579:1590   */\n          add\n            /* \"#utility.yul\":1573:1591   */\n          mload\n            /* \"#utility.yul\":1569:1570   */\n          dup2\n            /* \"#utility.yul\":1564:1567   */\n          dup5\n            /* \"#utility.yul\":1560:1571   */\n          add\n            /* \"#utility.yul\":1553:1592   */\n          mstore\n            /* \"#utility.yul\":1525:1527   */\n          0x20\n            /* \"#utility.yul\":1522:1523   */\n          dup2\n            /* \"#utility.yul\":1518:1528   */\n          add\n            /* \"#utility.yul\":1513:1528   */\n          swap1\n          pop\n            /* \"#utility.yul\":1489:1602   */\n          jump(tag_48)\n        tag_50:\n            /* \"#utility.yul\":1620:1626   */\n          dup4\n            /* \"#utility.yul\":1617:1618   */\n          dup2\n            /* \"#utility.yul\":1614:1627   */\n          gt\n            /* \"#utility.yul\":1611:1712   */\n          iszero\n          tag_51\n          jumpi\n            /* \"#utility.yul\":1700:1701   */\n          0x00\n            /* \"#utility.yul\":1691:1697   */\n          dup5\n            /* \"#utility.yul\":1686:1689   */\n          dup5\n            /* \"#utility.yul\":1682:1698   */\n          add\n            /* \"#utility.yul\":1675:1702   */\n          mstore\n            /* \"#utility.yul\":1611:1712   */\n        tag_51:\n            /* \"#utility.yul\":1460:1718   */\n          pop\n            /* \"#utility.yul\":1411:1718   */\n          pop\n          pop\n          pop\n          jump\t// out\n            /* \"#utility.yul\":1724:1826   */\n        tag_35:\n            /* \"#utility.yul\":1765:1771   */\n          0x00\n            /* \"#utility.yul\":1816:1818   */\n          0x1f\n            /* \"#utility.yul\":1812:1819   */\n          not\n            /* \"#utility.yul\":1807:1809   */\n          0x1f\n            /* \"#utility.yul\":1800:1805   */\n          dup4\n            /* \"#utility.yul\":1796:1810   */\n          add\n            /* \"#utility.yul\":1792:1820   */\n          and\n            /* \"#utility.yul\":1782:1820   */\n          swap1\n          pop\n            /* \"#utility.yul\":1724:1826   */\n          swap2\n          swap1\n          pop\n          jump\t// out\n\n        auxdata: 0xa2646970667358221220aedcfc0958ad90f9ea58f823e456de3ca09c55922d30deaf3803c4d7993bbb9b64736f6c63430008070033\n    }\n}\n",
				"bytecode": {
					"linkReferences": {},
					"object": "60806040526040516100109061007e565b604051809103906000f08015801561002c573d6000803e3d6000fd5b506000806101000a81548173ffffffffffffffffffffffffffffffffffffffff021916908373ffffffffffffffffffffffffffffffffffffffff16021790555034801561007857600080fd5b5061008b565b6102ac8061040683390190565b61036c8061009a6000396000f3fe608060405234801561001057600080fd5b506004361061002b5760003560e01c80637350597a14610030575b600080fd5b61003861004e565b60405161004591906101ea565b60405180910390f35b606060008054906101000a900473ffffffffffffffffffffffffffffffffffffffff1673ffffffffffffffffffffffffffffffffffffffff166389ac38516040518163ffffffff1660e01b815260040160006040518083038186803b1580156100b657600080fd5b505afa1580156100ca573d6000803e3d6000fd5b505050506040513d6000823e3d601f19601f820116820180604052508101906100f39190610168565b905090565b600061010b61010684610231565b61020c565b90508281526020810184848401111561012757610126610316565b5b61013284828561027e565b509392505050565b600082601f83011261014f5761014e610311565b5b815161015f8482602086016100f8565b91505092915050565b60006020828403121561017e5761017d610320565b5b600082015167ffffffffffffffff81111561019c5761019b61031b565b5b6101a88482850161013a565b91505092915050565b60006101bc82610262565b6101c6818561026d565b93506101d681856020860161027e565b6101df81610325565b840191505092915050565b6000602082019050818103600083015261020481846101b1565b905092915050565b6000610216610227565b905061022282826102b1565b919050565b6000604051905090565b600067ffffffffffffffff82111561024c5761024b6102e2565b5b61025582610325565b9050602081019050919050565b600081519050919050565b600082825260208201905092915050565b60005b8381101561029c578082015181840152602081019050610281565b838111156102ab576000848401525b50505050565b6102ba82610325565b810181811067ffffffffffffffff821117156102d9576102d86102e2565b5b80604052505050565b7f4e487b7100000000000000000000000000000000000000000000000000000000600052604160045260246000fd5b600080fd5b600080fd5b600080fd5b600080fd5b6000601f19601f830116905091905056fea2646970667358221220a81ba56399d2b92ecef1c747ae516d1a53a2e261be39e620cd6e7838bca1f4fb64736f6c634300080700336080604052600a6000556014600155601e60025534801561001f57600080fd5b5061027d8061002f6000396000f3fe608060405234801561001057600080fd5b506004361061004c5760003560e01c80631856775f1461005157806389ac38511461006f578063c5d7802e1461008d578063cfe65550146100ab575b600080fd5b6100596100c9565b60405161006691906101a0565b60405180910390f35b6100776100d8565b60405161008491906101a0565b60405180910390f35b610095610115565b6040516100a291906101c2565b60405180910390f35b6100b361011b565b6040516100c091906101a0565b60405180910390f35b60606100d361011b565b905090565b60606040518060400160405280600881526020017f65787465726e616c000000000000000000000000000000000000000000000000815250905090565b60025481565b60606040518060400160405280600681526020017f7075626c69630000000000000000000000000000000000000000000000000000815250905090565b6000610163826101dd565b61016d81856101e8565b935061017d818560208601610203565b61018681610236565b840191505092915050565b61019a816101f9565b82525050565b600060208201905081810360008301526101ba8184610158565b905092915050565b60006020820190506101d76000830184610191565b92915050565b600081519050919050565b600082825260208201905092915050565b6000819050919050565b60005b83811015610221578082015181840152602081019050610206565b83811115610230576000848401525b50505050565b6000601f19601f830116905091905056fea2646970667358221220aedcfc0958ad90f9ea58f823e456de3ca09c55922d30deaf3803c4d7993bbb9b64736f6c63430008070033",
					"opcodes": "PUSH1 0x80 PUSH1 0x40 MSTORE PUSH1 0x40 MLOAD PUSH2 0x10 SWAP1 PUSH2 0x7E JUMP JUMPDEST PUSH1 0x40 MLOAD DUP1 SWAP2 SUB SWAP1 PUSH1 0x0 CREATE DUP1 ISZERO DUP1 ISZERO PUSH2 0x2C JUMPI RETURNDATASIZE PUSH1 0x0 DUP1 RETURNDATACOPY RETURNDATASIZE PUSH1 0x0 REVERT JUMPDEST POP PUSH1 0x0 DUP1 PUSH2 0x100 EXP DUP2 SLOAD DUP2 PUSH20 0xFFFFFFFFFFFFFFFFFFFFFFFFFFFFFFFFFFFFFFFF MUL NOT AND SWAP1 DUP4 PUSH20 0xFFFFFFFFFFFFFFFFFFFFFFFFFFFFFFFFFFFFFFFF AND MUL OR SWAP1 SSTORE POP CALLVALUE DUP1 ISZERO PUSH2 0x78 JUMPI PUSH1 0x0 DUP1 REVERT JUMPDEST POP PUSH2 0x8B JUMP JUMPDEST PUSH2 0x2AC DUP1 PUSH2 0x406 DUP4 CODECOPY ADD SWAP1 JUMP JUMPDEST PUSH2 0x36C DUP1 PUSH2 0x9A PUSH1 0x0 CODECOPY PUSH1 0x0 RETURN INVALID PUSH1 0x80 PUSH1 0x40 MSTORE CALLVALUE DUP1 ISZERO PUSH2 0x10 JUMPI PUSH1 0x0 DUP1 REVERT JUMPDEST POP PUSH1 0x4 CALLDATASIZE LT PUSH2 0x2B JUMPI PUSH1 0x0 CALLDATALOAD PUSH1 0xE0 SHR DUP1 PUSH4 0x7350597A EQ PUSH2 0x30 JUMPI JUMPDEST PUSH1 0x0 DUP1 REVERT JUMPDEST PUSH2 0x38 PUSH2 0x4E JUMP JUMPDEST PUSH1 0x40 MLOAD PUSH2 0x45 SWAP2 SWAP1 PUSH2 0x1EA JUMP JUMPDEST PUSH1 0x40 MLOAD DUP1 SWAP2 SUB SWAP1 RETURN JUMPDEST PUSH1 0x60 PUSH1 0x0 DUP1 SLOAD SWAP1 PUSH2 0x100 EXP SWAP1 DIV PUSH20 0xFFFFFFFFFFFFFFFFFFFFFFFFFFFFFFFFFFFFFFFF AND PUSH20 0xFFFFFFFFFFFFFFFFFFFFFFFFFFFFFFFFFFFFFFFF AND PUSH4 0x89AC3851 PUSH1 0x40 MLOAD DUP2 PUSH4 0xFFFFFFFF AND PUSH1 0xE0 SHL DUP2 MSTORE PUSH1 0x4 ADD PUSH1 0x0 PUSH1 0x40 MLOAD DUP1 DUP4 SUB DUP2 DUP7 DUP1 EXTCODESIZE ISZERO DUP1 ISZERO PUSH2 0xB6 JUMPI PUSH1 0x0 DUP1 REVERT JUMPDEST POP GAS STATICCALL ISZERO DUP1 ISZERO PUSH2 0xCA JUMPI RETURNDATASIZE PUSH1 0x0 DUP1 RETURNDATACOPY RETURNDATASIZE PUSH1 0x0 REVERT JUMPDEST POP POP POP POP PUSH1 0x40 MLOAD RETURNDATASIZE PUSH1 0x0 DUP3 RETURNDATACOPY RETURNDATASIZE PUSH1 0x1F NOT PUSH1 0x1F DUP3 ADD AND DUP3 ADD DUP1 PUSH1 0x40 MSTORE POP DUP2 ADD SWAP1 PUSH2 0xF3 SWAP2 SWAP1 PUSH2 0x168 JUMP JUMPDEST SWAP1 POP SWAP1 JUMP JUMPDEST PUSH1 0x0 PUSH2 0x10B PUSH2 0x106 DUP5 PUSH2 0x231 JUMP JUMPDEST PUSH2 0x20C JUMP JUMPDEST SWAP1 POP DUP3 DUP2 MSTORE PUSH1 0x20 DUP2 ADD DUP5 DUP5 DUP5 ADD GT ISZERO PUSH2 0x127 JUMPI PUSH2 0x126 PUSH2 0x316 JUMP JUMPDEST JUMPDEST PUSH2 0x132 DUP5 DUP3 DUP6 PUSH2 0x27E JUMP JUMPDEST POP SWAP4 SWAP3 POP POP POP JUMP JUMPDEST PUSH1 0x0 DUP3 PUSH1 0x1F DUP4 ADD SLT PUSH2 0x14F JUMPI PUSH2 0x14E PUSH2 0x311 JUMP JUMPDEST JUMPDEST DUP2 MLOAD PUSH2 0x15F DUP5 DUP3 PUSH1 0x20 DUP7 ADD PUSH2 0xF8 JUMP JUMPDEST SWAP2 POP POP SWAP3 SWAP2 POP POP JUMP JUMPDEST PUSH1 0x0 PUSH1 0x20 DUP3 DUP5 SUB SLT ISZERO PUSH2 0x17E JUMPI PUSH2 0x17D PUSH2 0x320 JUMP JUMPDEST JUMPDEST PUSH1 0x0 DUP3 ADD MLOAD PUSH8 0xFFFFFFFFFFFFFFFF DUP2 GT ISZERO PUSH2 0x19C JUMPI PUSH2 0x19B PUSH2 0x31B JUMP JUMPDEST JUMPDEST PUSH2 0x1A8 DUP5 DUP3 DUP6 ADD PUSH2 0x13A JUMP JUMPDEST SWAP2 POP POP SWAP3 SWAP2 POP POP JUMP JUMPDEST PUSH1 0x0 PUSH2 0x1BC DUP3 PUSH2 0x262 JUMP JUMPDEST PUSH2 0x1C6 DUP2 DUP6 PUSH2 0x26D JUMP JUMPDEST SWAP4 POP PUSH2 0x1D6 DUP2 DUP6 PUSH1 0x20 DUP7 ADD PUSH2 0x27E JUMP JUMPDEST PUSH2 0x1DF DUP2 PUSH2 0x325 JUMP JUMPDEST DUP5 ADD SWAP2 POP POP SWAP3 SWAP2 POP POP JUMP JUMPDEST PUSH1 0x0 PUSH1 0x20 DUP3 ADD SWAP1 POP DUP2 DUP2 SUB PUSH1 0x0 DUP4 ADD MSTORE PUSH2 0x204 DUP2 DUP5 PUSH2 0x1B1 JUMP JUMPDEST SWAP1 POP SWAP3 SWAP2 POP POP JUMP JUMPDEST PUSH1 0x0 PUSH2 0x216 PUSH2 0x227 JUMP JUMPDEST SWAP1 POP PUSH2 0x222 DUP3 DUP3 PUSH2 0x2B1 JUMP JUMPDEST SWAP2 SWAP1 POP JUMP JUMPDEST PUSH1 0x0 PUSH1 0x40 MLOAD SWAP1 POP SWAP1 JUMP JUMPDEST PUSH1 0x0 PUSH8 0xFFFFFFFFFFFFFFFF DUP3 GT ISZERO PUSH2 0x24C JUMPI PUSH2 0x24B PUSH2 0x2E2 JUMP JUMPDEST JUMPDEST PUSH2 0x255 DUP3 PUSH2 0x325 JUMP JUMPDEST SWAP1 POP PUSH1 0x20 DUP2 ADD SWAP1 POP SWAP2 SWAP1 POP JUMP JUMPDEST PUSH1 0x0 DUP2 MLOAD SWAP1 POP SWAP2 SWAP1 POP JUMP JUMPDEST PUSH1 0x0 DUP3 DUP3 MSTORE PUSH1 0x20 DUP3 ADD SWAP1 POP SWAP3 SWAP2 POP POP JUMP JUMPDEST PUSH1 0x0 JUMPDEST DUP4 DUP2 LT ISZERO PUSH2 0x29C JUMPI DUP1 DUP3 ADD MLOAD DUP2 DUP5 ADD MSTORE PUSH1 0x20 DUP2 ADD SWAP1 POP PUSH2 0x281 JUMP JUMPDEST DUP4 DUP2 GT ISZERO PUSH2 0x2AB JUMPI PUSH1 0x0 DUP5 DUP5 ADD MSTORE JUMPDEST POP POP POP POP JUMP JUMPDEST PUSH2 0x2BA DUP3 PUSH2 0x325 JUMP JUMPDEST DUP2 ADD DUP2 DUP2 LT PUSH8 0xFFFFFFFFFFFFFFFF DUP3 GT OR ISZERO PUSH2 0x2D9 JUMPI PUSH2 0x2D8 PUSH2 0x2E2 JUMP JUMPDEST JUMPDEST DUP1 PUSH1 0x40 MSTORE POP POP POP JUMP JUMPDEST PUSH32 0x4E487B7100000000000000000000000000000000000000000000000000000000 PUSH1 0x0 MSTORE PUSH1 0x41 PUSH1 0x4 MSTORE PUSH1 0x24 PUSH1 0x0 REVERT JUMPDEST PUSH1 0x0 DUP1 REVERT JUMPDEST PUSH1 0x0 DUP1 REVERT JUMPDEST PUSH1 0x0 DUP1 REVERT JUMPDEST PUSH1 0x0 DUP1 REVERT JUMPDEST PUSH1 0x0 PUSH1 0x1F NOT PUSH1 0x1F DUP4 ADD AND SWAP1 POP SWAP2 SWAP1 POP JUMP INVALID LOG2 PUSH5 0x6970667358 0x22 SLT KECCAK256 0xA8 SHL 0xA5 PUSH4 0x99D2B92E 0xCE CALL 0xC7 SELFBALANCE 0xAE MLOAD PUSH14 0x1A53A2E261BE39E620CD6E7838BC LOG1 DELEGATECALL 0xFB PUSH5 0x736F6C6343 STOP ADDMOD SMOD STOP CALLER PUSH1 0x80 PUSH1 0x40 MSTORE PUSH1 0xA PUSH1 0x0 SSTORE PUSH1 0x14 PUSH1 0x1 SSTORE PUSH1 0x1E PUSH1 0x2 SSTORE CALLVALUE DUP1 ISZERO PUSH2 0x1F JUMPI PUSH1 0x0 DUP1 REVERT JUMPDEST POP PUSH2 0x27D DUP1 PUSH2 0x2F PUSH1 0x0 CODECOPY PUSH1 0x0 RETURN INVALID PUSH1 0x80 PUSH1 0x40 MSTORE CALLVALUE DUP1 ISZERO PUSH2 0x10 JUMPI PUSH1 0x0 DUP1 REVERT JUMPDEST POP PUSH1 0x4 CALLDATASIZE LT PUSH2 0x4C JUMPI PUSH1 0x0 CALLDATALOAD PUSH1 0xE0 SHR DUP1 PUSH4 0x1856775F EQ PUSH2 0x51 JUMPI DUP1 PUSH4 0x89AC3851 EQ PUSH2 0x6F JUMPI DUP1 PUSH4 0xC5D7802E EQ PUSH2 0x8D JUMPI DUP1 PUSH4 0xCFE65550 EQ PUSH2 0xAB JUMPI JUMPDEST PUSH1 0x0 DUP1 REVERT JUMPDEST PUSH2 0x59 PUSH2 0xC9 JUMP JUMPDEST PUSH1 0x40 MLOAD PUSH2 0x66 SWAP2 SWAP1 PUSH2 0x1A0 JUMP JUMPDEST PUSH1 0x40 MLOAD DUP1 SWAP2 SUB SWAP1 RETURN JUMPDEST PUSH2 0x77 PUSH2 0xD8 JUMP JUMPDEST PUSH1 0x40 MLOAD PUSH2 0x84 SWAP2 SWAP1 PUSH2 0x1A0 JUMP JUMPDEST PUSH1 0x40 MLOAD DUP1 SWAP2 SUB SWAP1 RETURN JUMPDEST PUSH2 0x95 PUSH2 0x115 JUMP JUMPDEST PUSH1 0x40 MLOAD PUSH2 0xA2 SWAP2 SWAP1 PUSH2 0x1C2 JUMP JUMPDEST PUSH1 0x40 MLOAD DUP1 SWAP2 SUB SWAP1 RETURN JUMPDEST PUSH2 0xB3 PUSH2 0x11B JUMP JUMPDEST PUSH1 0x40 MLOAD PUSH2 0xC0 SWAP2 SWAP1 PUSH2 0x1A0 JUMP JUMPDEST PUSH1 0x40 MLOAD DUP1 SWAP2 SUB SWAP1 RETURN JUMPDEST PUSH1 0x60 PUSH2 0xD3 PUSH2 0x11B JUMP JUMPDEST SWAP1 POP SWAP1 JUMP JUMPDEST PUSH1 0x60 PUSH1 0x40 MLOAD DUP1 PUSH1 0x40 ADD PUSH1 0x40 MSTORE DUP1 PUSH1 0x8 DUP2 MSTORE PUSH1 0x20 ADD PUSH32 0x65787465726E616C000000000000000000000000000000000000000000000000 DUP2 MSTORE POP SWAP1 POP SWAP1 JUMP JUMPDEST PUSH1 0x2 SLOAD DUP2 JUMP JUMPDEST PUSH1 0x60 PUSH1 0x40 MLOAD DUP1 PUSH1 0x40 ADD PUSH1 0x40 MSTORE DUP1 PUSH1 0x6 DUP2 MSTORE PUSH1 0x20 ADD PUSH32 0x7075626C69630000000000000000000000000000000000000000000000000000 DUP2 MSTORE POP SWAP1 POP SWAP1 JUMP JUMPDEST PUSH1 0x0 PUSH2 0x163 DUP3 PUSH2 0x1DD JUMP JUMPDEST PUSH2 0x16D DUP2 DUP6 PUSH2 0x1E8 JUMP JUMPDEST SWAP4 POP PUSH2 0x17D DUP2 DUP6 PUSH1 0x20 DUP7 ADD PUSH2 0x203 JUMP JUMPDEST PUSH2 0x186 DUP2 PUSH2 0x236 JUMP JUMPDEST DUP5 ADD SWAP2 POP POP SWAP3 SWAP2 POP POP JUMP JUMPDEST PUSH2 0x19A DUP2 PUSH2 0x1F9 JUMP JUMPDEST DUP3 MSTORE POP POP JUMP JUMPDEST PUSH1 0x0 PUSH1 0x20 DUP3 ADD SWAP1 POP DUP2 DUP2 SUB PUSH1 0x0 DUP4 ADD MSTORE PUSH2 0x1BA DUP2 DUP5 PUSH2 0x158 JUMP JUMPDEST SWAP1 POP SWAP3 SWAP2 POP POP JUMP JUMPDEST PUSH1 0x0 PUSH1 0x20 DUP3 ADD SWAP1 POP PUSH2 0x1D7 PUSH1 0x0 DUP4 ADD DUP5 PUSH2 0x191 JUMP JUMPDEST SWAP3 SWAP2 POP POP JUMP JUMPDEST PUSH1 0x0 DUP2 MLOAD SWAP1 POP SWAP2 SWAP1 POP JUMP JUMPDEST PUSH1 0x0 DUP3 DUP3 MSTORE PUSH1 0x20 DUP3 ADD SWAP1 POP SWAP3 SWAP2 POP POP JUMP JUMPDEST PUSH1 0x0 DUP2 SWAP1 POP SWAP2 SWAP1 POP JUMP JUMPDEST PUSH1 0x0 JUMPDEST DUP4 DUP2 LT ISZERO PUSH2 0x221 JUMPI DUP1 DUP3 ADD MLOAD DUP2 DUP5 ADD MSTORE PUSH1 0x20 DUP2 ADD SWAP1 POP PUSH2 0x206 JUMP JUMPDEST DUP4 DUP2 GT ISZERO PUSH2 0x230 JUMPI PUSH1 0x0 DUP5 DUP5 ADD MSTORE JUMPDEST POP POP POP POP JUMP JUMPDEST PUSH1 0x0 PUSH1 0x1F NOT PUSH1 0x1F DUP4 ADD AND SWAP1 POP SWAP2 SWAP1 POP JUMP INVALID LOG2 PUSH5 0x6970667358 0x22 SLT KECCAK256 0xAE 0xDC 0xFC MULMOD PC 0xAD SWAP1 0xF9 0xEA PC 0xF8 0x23 0xE4 JUMP 0xDE EXTCODECOPY LOG0 SWAP13 SSTORE SWAP3 0x2D ADDRESS 0xDE 0xAF CODESIZE SUB 0xC4 0xD7 SWAP10 EXTCODESIZE 0xBB SWAP12 PUSH5 0x736F6C6343 STOP ADDMOD SMOD STOP CALLER "
				},
				"gasEstimates": {
					"creation": {
						"codeDepositCost": "175200",
						"executionCost": "infinite",
						"totalCost": "infinite"
					},
					"external": {
						"Caller()": "infinite"
					}
				},
				"methodIdentifiers": {
					"Caller()": "7350597a"
				}
			},
			"storageLayout": {
				"storage": [
					{
						"astId": 74,
						"contract": "visibilityOfVariable.sol:C",
						"label": "visibilityObjec",
						"offset": 0,
						"slot": "0",
						"type": "t_contract(visibilityImplementation)52"
					}
				],
				"types": {
					"t_contract(visibilityImplementation)52": {
						"encoding": "inplace",
						"label": "contract visibilityImplementation",
						"numberOfBytes": "20"
					}
				}
			},
			"userdoc": {
				"kind": "user",
				"methods": {},
				"version": 1
			}
		}
	}
}