{
	"functionModifierImple.sol": {
		"modifierFunctionImplementation": {
			"abi": [
				{
					"inputs": [],
					"name": "age",
					"outputs": [
						{
							"internalType": "uint256",
							"name": "",
							"type": "uint256"
						}
					],
					"stateMutability": "view",
					"type": "function"
				},
				{
					"inputs": [
						{
							"internalType": "uint256",
							"name": "_x",
							"type": "uint256"
						}
					],
					"name": "changeAge",
					"outputs": [
						{
							"internalType": "uint256",
							"name": "",
							"type": "uint256"
						}
					],
					"stateMutability": "nonpayable",
					"type": "function"
				},
				{
					"inputs": [
						{
							"internalType": "uint256",
							"name": "_x",
							"type": "uint256"
						}
					],
					"name": "changeAgeWReturn",
					"outputs": [],
					"stateMutability": "nonpayable",
					"type": "function"
				},
				{
					"inputs": [],
					"name": "testFun1",
					"outputs": [
						{
							"internalType": "string",
							"name": "",
							"type": "string"
						}
					],
					"stateMutability": "pure",
					"type": "function"
				},
				{
					"inputs": [],
					"name": "testFun2",
					"outputs": [
						{
							"internalType": "uint256",
							"name": "_x",
							"type": "uint256"
						}
					],
					"stateMutability": "pure",
					"type": "function"
				},
				{
					"inputs": [],
					"name": "testFun3",
					"outputs": [
						{
							"internalType": "address",
							"name": "_add",
							"type": "address"
						}
					],
					"stateMutability": "view",
					"type": "function"
				}
			],
			"devdoc": {
				"kind": "dev",
				"methods": {},
				"version": 1
			},
			"evm": {
				"assembly": "    /* \"functionModifierImple.sol\":62:1181  contract modifierFunctionImplementation{... */\n  mstore(0x40, 0x80)\n    /* \"functionModifierImple.sol\":891:893  30 */\n  0x1e\n    /* \"functionModifierImple.sol\":873:893  uint public age = 30 */\n  0x00\n  sstore\n    /* \"functionModifierImple.sol\":62:1181  contract modifierFunctionImplementation{... */\n  callvalue\n  dup1\n  iszero\n  tag_1\n  jumpi\n  0x00\n  dup1\n  revert\ntag_1:\n  pop\n  dataSize(sub_0)\n  dup1\n  dataOffset(sub_0)\n  0x00\n  codecopy\n  0x00\n  return\nstop\n\nsub_0: assembly {\n        /* \"functionModifierImple.sol\":62:1181  contract modifierFunctionImplementation{... */\n      mstore(0x40, 0x80)\n      callvalue\n      dup1\n      iszero\n      tag_1\n      jumpi\n      0x00\n      dup1\n      revert\n    tag_1:\n      pop\n      jumpi(tag_2, lt(calldatasize, 0x04))\n      shr(0xe0, calldataload(0x00))\n      dup1\n      0x0957a33c\n      eq\n      tag_3\n      jumpi\n      dup1\n      0x262a9dff\n      eq\n      tag_4\n      jumpi\n      dup1\n      0x5e439f66\n      eq\n      tag_5\n      jumpi\n      dup1\n      0xb922758f\n      eq\n      tag_6\n      jumpi\n      dup1\n      0xd1348826\n      eq\n      tag_7\n      jumpi\n      dup1\n      0xd91c1d8a\n      eq\n      tag_8\n      jumpi\n    tag_2:\n      0x00\n      dup1\n      revert\n        /* \"functionModifierImple.sol\":766:867  function testFun3() public view samecode returns(address _add){... */\n    tag_3:\n      tag_9\n      tag_10\n      jump\t// in\n    tag_9:\n      mload(0x40)\n      tag_11\n      swap2\n      swap1\n      tag_12\n      jump\t// in\n    tag_11:\n      mload(0x40)\n      dup1\n      swap2\n      sub\n      swap1\n      return\n        /* \"functionModifierImple.sol\":873:893  uint public age = 30 */\n    tag_4:\n      tag_13\n      tag_14\n      jump\t// in\n    tag_13:\n      mload(0x40)\n      tag_15\n      swap2\n      swap1\n      tag_16\n      jump\t// in\n    tag_15:\n      mload(0x40)\n      dup1\n      swap2\n      sub\n      swap1\n      return\n        /* \"functionModifierImple.sol\":1094:1178  function changeAge(uint _x) public temp(_x) returns(uint){... */\n    tag_5:\n      tag_17\n      0x04\n      dup1\n      calldatasize\n      sub\n      dup2\n      add\n      swap1\n      tag_18\n      swap2\n      swap1\n      tag_19\n      jump\t// in\n    tag_18:\n      tag_20\n      jump\t// in\n    tag_17:\n      mload(0x40)\n      tag_21\n      swap2\n      swap1\n      tag_16\n      jump\t// in\n    tag_21:\n      mload(0x40)\n      dup1\n      swap2\n      sub\n      swap1\n      return\n        /* \"functionModifierImple.sol\":1021:1088  function changeAgeWReturn(uint _x) public temp(_x) {... */\n    tag_6:\n      tag_22\n      0x04\n      dup1\n      calldatasize\n      sub\n      dup2\n      add\n      swap1\n      tag_23\n      swap2\n      swap1\n      tag_19\n      jump\t// in\n    tag_23:\n      tag_24\n      jump\t// in\n    tag_22:\n      stop\n        /* \"functionModifierImple.sol\":409:601  function testFun1() public pure samecode returns(string memory){... */\n    tag_7:\n      tag_25\n      tag_26\n      jump\t// in\n    tag_25:\n      mload(0x40)\n      tag_27\n      swap2\n      swap1\n      tag_28\n      jump\t// in\n    tag_27:\n      mload(0x40)\n      dup1\n      swap2\n      sub\n      swap1\n      return\n        /* \"functionModifierImple.sol\":607:760  function testFun2() public pure samecode returns(uint _x){... */\n    tag_8:\n      tag_29\n      tag_30\n      jump\t// in\n    tag_29:\n      mload(0x40)\n      tag_31\n      swap2\n      swap1\n      tag_16\n      jump\t// in\n    tag_31:\n      mload(0x40)\n      dup1\n      swap2\n      sub\n      swap1\n      return\n        /* \"functionModifierImple.sol\":766:867  function testFun3() public view samecode returns(address _add){... */\n    tag_10:\n        /* \"functionModifierImple.sol\":815:827  address _add */\n      0x00\n        /* \"functionModifierImple.sol\":189:196  uint _i */\n      dup1\n        /* \"functionModifierImple.sol\":199:200  0 */\n      0x00\n        /* \"functionModifierImple.sol\":189:200  uint _i = 0 */\n      swap1\n      pop\n        /* \"functionModifierImple.sol\":185:245  for(uint _i = 0; _i<10; _i++){... */\n    tag_33:\n        /* \"functionModifierImple.sol\":205:207  10 */\n      0x0a\n        /* \"functionModifierImple.sol\":202:204  _i */\n      dup2\n        /* \"functionModifierImple.sol\":202:207  _i<10 */\n      lt\n        /* \"functionModifierImple.sol\":185:245  for(uint _i = 0; _i<10; _i++){... */\n      iszero\n      tag_34\n      jumpi\n        /* \"functionModifierImple.sol\":209:213  _i++ */\n      dup1\n      dup1\n      tag_36\n      swap1\n      tag_37\n      jump\t// in\n    tag_36:\n      swap2\n      pop\n      pop\n        /* \"functionModifierImple.sol\":185:245  for(uint _i = 0; _i<10; _i++){... */\n      jump(tag_33)\n    tag_34:\n      pop\n        /* \"functionModifierImple.sol\":849:859  msg.sender */\n      caller\n        /* \"functionModifierImple.sol\":842:859  _add = msg.sender */\n      swap1\n      pop\n        /* \"functionModifierImple.sol\":766:867  function testFun3() public view samecode returns(address _add){... */\n      swap1\n      jump\t// out\n        /* \"functionModifierImple.sol\":873:893  uint public age = 30 */\n    tag_14:\n      sload(0x00)\n      dup2\n      jump\t// out\n        /* \"functionModifierImple.sol\":1094:1178  function changeAge(uint _x) public temp(_x) returns(uint){... */\n    tag_20:\n        /* \"functionModifierImple.sol\":1146:1150  uint */\n      0x00\n        /* \"functionModifierImple.sol\":1134:1136  _x */\n      dup2\n        /* \"functionModifierImple.sol\":937:939  _y */\n      dup1\n        /* \"functionModifierImple.sol\":932:935  age */\n      0x00\n      dup1\n        /* \"functionModifierImple.sol\":932:939  age+=_y */\n      dup3\n      dup3\n      sload\n      tag_40\n      swap2\n      swap1\n      tag_41\n      jump\t// in\n    tag_40:\n      swap3\n      pop\n      pop\n      dup2\n      swap1\n      sstore\n      pop\n        /* \"functionModifierImple.sol\":1168:1171  age */\n      sload(0x00)\n        /* \"functionModifierImple.sol\":1161:1171  return age */\n      swap2\n      pop\n        /* \"functionModifierImple.sol\":1094:1178  function changeAge(uint _x) public temp(_x) returns(uint){... */\n      pop\n      swap2\n      swap1\n      pop\n      jump\t// out\n        /* \"functionModifierImple.sol\":1021:1088  function changeAgeWReturn(uint _x) public temp(_x) {... */\n    tag_24:\n        /* \"functionModifierImple.sol\":1068:1070  _x */\n      dup1\n        /* \"functionModifierImple.sol\":937:939  _y */\n      dup1\n        /* \"functionModifierImple.sol\":932:935  age */\n      0x00\n      dup1\n        /* \"functionModifierImple.sol\":932:939  age+=_y */\n      dup3\n      dup3\n      sload\n      tag_44\n      swap2\n      swap1\n      tag_41\n      jump\t// in\n    tag_44:\n      swap3\n      pop\n      pop\n      dup2\n      swap1\n      sstore\n      pop\n        /* \"functionModifierImple.sol\":1021:1088  function changeAgeWReturn(uint _x) public temp(_x) {... */\n      pop\n      pop\n      jump\t// out\n        /* \"functionModifierImple.sol\":409:601  function testFun1() public pure samecode returns(string memory){... */\n    tag_26:\n        /* \"functionModifierImple.sol\":458:471  string memory */\n      0x60\n        /* \"functionModifierImple.sol\":189:196  uint _i */\n      0x00\n        /* \"functionModifierImple.sol\":185:245  for(uint _i = 0; _i<10; _i++){... */\n    tag_47:\n        /* \"functionModifierImple.sol\":205:207  10 */\n      0x0a\n        /* \"functionModifierImple.sol\":202:204  _i */\n      dup2\n        /* \"functionModifierImple.sol\":202:207  _i<10 */\n      lt\n        /* \"functionModifierImple.sol\":185:245  for(uint _i = 0; _i<10; _i++){... */\n      iszero\n      tag_48\n      jumpi\n        /* \"functionModifierImple.sol\":209:213  _i++ */\n      dup1\n      dup1\n      tag_50\n      swap1\n      tag_37\n      jump\t// in\n    tag_50:\n      swap2\n      pop\n      pop\n        /* \"functionModifierImple.sol\":185:245  for(uint _i = 0; _i<10; _i++){... */\n      jump(tag_47)\n    tag_48:\n      pop\n        /* \"functionModifierImple.sol\":560:593  return \"funct! return Somethings\" */\n      mload(0x40)\n      dup1\n      0x40\n      add\n      0x40\n      mstore\n      dup1\n      0x18\n      dup2\n      mstore\n      0x20\n      add\n      0x66756e6374212072657475726e20536f6d657468696e67730000000000000000\n      dup2\n      mstore\n      pop\n      swap1\n      pop\n        /* \"functionModifierImple.sol\":409:601  function testFun1() public pure samecode returns(string memory){... */\n      swap1\n      jump\t// out\n        /* \"functionModifierImple.sol\":607:760  function testFun2() public pure samecode returns(uint _x){... */\n    tag_30:\n        /* \"functionModifierImple.sol\":656:663  uint _x */\n      0x00\n        /* \"functionModifierImple.sol\":189:196  uint _i */\n      dup1\n        /* \"functionModifierImple.sol\":199:200  0 */\n      0x00\n        /* \"functionModifierImple.sol\":189:200  uint _i = 0 */\n      swap1\n      pop\n        /* \"functionModifierImple.sol\":185:245  for(uint _i = 0; _i<10; _i++){... */\n    tag_53:\n        /* \"functionModifierImple.sol\":205:207  10 */\n      0x0a\n        /* \"functionModifierImple.sol\":202:204  _i */\n      dup2\n        /* \"functionModifierImple.sol\":202:207  _i<10 */\n      lt\n        /* \"functionModifierImple.sol\":185:245  for(uint _i = 0; _i<10; _i++){... */\n      iszero\n      tag_54\n      jumpi\n        /* \"functionModifierImple.sol\":209:213  _i++ */\n      dup1\n      dup1\n      tag_56\n      swap1\n      tag_37\n      jump\t// in\n    tag_56:\n      swap2\n      pop\n      pop\n        /* \"functionModifierImple.sol\":185:245  for(uint _i = 0; _i<10; _i++){... */\n      jump(tag_53)\n    tag_54:\n      pop\n        /* \"functionModifierImple.sol\":680:682  20 */\n      0x14\n        /* \"functionModifierImple.sol\":675:682  _x = 20 */\n      swap1\n      pop\n        /* \"functionModifierImple.sol\":607:760  function testFun2() public pure samecode returns(uint _x){... */\n      swap1\n      jump\t// out\n        /* \"#utility.yul\":7:146   */\n    tag_59:\n        /* \"#utility.yul\":53:58   */\n      0x00\n        /* \"#utility.yul\":91:97   */\n      dup2\n        /* \"#utility.yul\":78:98   */\n      calldataload\n        /* \"#utility.yul\":69:98   */\n      swap1\n      pop\n        /* \"#utility.yul\":107:140   */\n      tag_61\n        /* \"#utility.yul\":134:139   */\n      dup2\n        /* \"#utility.yul\":107:140   */\n      tag_62\n      jump\t// in\n    tag_61:\n        /* \"#utility.yul\":7:146   */\n      swap3\n      swap2\n      pop\n      pop\n      jump\t// out\n        /* \"#utility.yul\":152:481   */\n    tag_19:\n        /* \"#utility.yul\":211:217   */\n      0x00\n        /* \"#utility.yul\":260:262   */\n      0x20\n        /* \"#utility.yul\":248:257   */\n      dup3\n        /* \"#utility.yul\":239:246   */\n      dup5\n        /* \"#utility.yul\":235:258   */\n      sub\n        /* \"#utility.yul\":231:263   */\n      slt\n        /* \"#utility.yul\":228:347   */\n      iszero\n      tag_64\n      jumpi\n        /* \"#utility.yul\":266:345   */\n      tag_65\n      tag_66\n      jump\t// in\n    tag_65:\n        /* \"#utility.yul\":228:347   */\n    tag_64:\n        /* \"#utility.yul\":386:387   */\n      0x00\n        /* \"#utility.yul\":411:464   */\n      tag_67\n        /* \"#utility.yul\":456:463   */\n      dup5\n        /* \"#utility.yul\":447:453   */\n      dup3\n        /* \"#utility.yul\":436:445   */\n      dup6\n        /* \"#utility.yul\":432:454   */\n      add\n        /* \"#utility.yul\":411:464   */\n      tag_59\n      jump\t// in\n    tag_67:\n        /* \"#utility.yul\":401:464   */\n      swap2\n      pop\n        /* \"#utility.yul\":357:474   */\n      pop\n        /* \"#utility.yul\":152:481   */\n      swap3\n      swap2\n      pop\n      pop\n      jump\t// out\n        /* \"#utility.yul\":487:605   */\n    tag_68:\n        /* \"#utility.yul\":574:598   */\n      tag_70\n        /* \"#utility.yul\":592:597   */\n      dup2\n        /* \"#utility.yul\":574:598   */\n      tag_71\n      jump\t// in\n    tag_70:\n        /* \"#utility.yul\":569:572   */\n      dup3\n        /* \"#utility.yul\":562:599   */\n      mstore\n        /* \"#utility.yul\":487:605   */\n      pop\n      pop\n      jump\t// out\n        /* \"#utility.yul\":611:975   */\n    tag_72:\n        /* \"#utility.yul\":699:702   */\n      0x00\n        /* \"#utility.yul\":727:766   */\n      tag_74\n        /* \"#utility.yul\":760:765   */\n      dup3\n        /* \"#utility.yul\":727:766   */\n      tag_75\n      jump\t// in\n    tag_74:\n        /* \"#utility.yul\":782:853   */\n      tag_76\n        /* \"#utility.yul\":846:852   */\n      dup2\n        /* \"#utility.yul\":841:844   */\n      dup6\n        /* \"#utility.yul\":782:853   */\n      tag_77\n      jump\t// in\n    tag_76:\n        /* \"#utility.yul\":775:853   */\n      swap4\n      pop\n        /* \"#utility.yul\":862:914   */\n      tag_78\n        /* \"#utility.yul\":907:913   */\n      dup2\n        /* \"#utility.yul\":902:905   */\n      dup6\n        /* \"#utility.yul\":895:899   */\n      0x20\n        /* \"#utility.yul\":888:893   */\n      dup7\n        /* \"#utility.yul\":884:900   */\n      add\n        /* \"#utility.yul\":862:914   */\n      tag_79\n      jump\t// in\n    tag_78:\n        /* \"#utility.yul\":939:968   */\n      tag_80\n        /* \"#utility.yul\":961:967   */\n      dup2\n        /* \"#utility.yul\":939:968   */\n      tag_81\n      jump\t// in\n    tag_80:\n        /* \"#utility.yul\":934:937   */\n      dup5\n        /* \"#utility.yul\":930:969   */\n      add\n        /* \"#utility.yul\":923:969   */\n      swap2\n      pop\n        /* \"#utility.yul\":703:975   */\n      pop\n        /* \"#utility.yul\":611:975   */\n      swap3\n      swap2\n      pop\n      pop\n      jump\t// out\n        /* \"#utility.yul\":981:1099   */\n    tag_82:\n        /* \"#utility.yul\":1068:1092   */\n      tag_84\n        /* \"#utility.yul\":1086:1091   */\n      dup2\n        /* \"#utility.yul\":1068:1092   */\n      tag_85\n      jump\t// in\n    tag_84:\n        /* \"#utility.yul\":1063:1066   */\n      dup3\n        /* \"#utility.yul\":1056:1093   */\n      mstore\n        /* \"#utility.yul\":981:1099   */\n      pop\n      pop\n      jump\t// out\n        /* \"#utility.yul\":1105:1327   */\n    tag_12:\n        /* \"#utility.yul\":1198:1202   */\n      0x00\n        /* \"#utility.yul\":1236:1238   */\n      0x20\n        /* \"#utility.yul\":1225:1234   */\n      dup3\n        /* \"#utility.yul\":1221:1239   */\n      add\n        /* \"#utility.yul\":1213:1239   */\n      swap1\n      pop\n        /* \"#utility.yul\":1249:1320   */\n      tag_87\n        /* \"#utility.yul\":1317:1318   */\n      0x00\n        /* \"#utility.yul\":1306:1315   */\n      dup4\n        /* \"#utility.yul\":1302:1319   */\n      add\n        /* \"#utility.yul\":1293:1299   */\n      dup5\n        /* \"#utility.yul\":1249:1320   */\n      tag_68\n      jump\t// in\n    tag_87:\n        /* \"#utility.yul\":1105:1327   */\n      swap3\n      swap2\n      pop\n      pop\n      jump\t// out\n        /* \"#utility.yul\":1333:1646   */\n    tag_28:\n        /* \"#utility.yul\":1446:1450   */\n      0x00\n        /* \"#utility.yul\":1484:1486   */\n      0x20\n        /* \"#utility.yul\":1473:1482   */\n      dup3\n        /* \"#utility.yul\":1469:1487   */\n      add\n        /* \"#utility.yul\":1461:1487   */\n      swap1\n      pop\n        /* \"#utility.yul\":1533:1542   */\n      dup2\n        /* \"#utility.yul\":1527:1531   */\n      dup2\n        /* \"#utility.yul\":1523:1543   */\n      sub\n        /* \"#utility.yul\":1519:1520   */\n      0x00\n        /* \"#utility.yul\":1508:1517   */\n      dup4\n        /* \"#utility.yul\":1504:1521   */\n      add\n        /* \"#utility.yul\":1497:1544   */\n      mstore\n        /* \"#utility.yul\":1561:1639   */\n      tag_89\n        /* \"#utility.yul\":1634:1638   */\n      dup2\n        /* \"#utility.yul\":1625:1631   */\n      dup5\n        /* \"#utility.yul\":1561:1639   */\n      tag_72\n      jump\t// in\n    tag_89:\n        /* \"#utility.yul\":1553:1639   */\n      swap1\n      pop\n        /* \"#utility.yul\":1333:1646   */\n      swap3\n      swap2\n      pop\n      pop\n      jump\t// out\n        /* \"#utility.yul\":1652:1874   */\n    tag_16:\n        /* \"#utility.yul\":1745:1749   */\n      0x00\n        /* \"#utility.yul\":1783:1785   */\n      0x20\n        /* \"#utility.yul\":1772:1781   */\n      dup3\n        /* \"#utility.yul\":1768:1786   */\n      add\n        /* \"#utility.yul\":1760:1786   */\n      swap1\n      pop\n        /* \"#utility.yul\":1796:1867   */\n      tag_91\n        /* \"#utility.yul\":1864:1865   */\n      0x00\n        /* \"#utility.yul\":1853:1862   */\n      dup4\n        /* \"#utility.yul\":1849:1866   */\n      add\n        /* \"#utility.yul\":1840:1846   */\n      dup5\n        /* \"#utility.yul\":1796:1867   */\n      tag_82\n      jump\t// in\n    tag_91:\n        /* \"#utility.yul\":1652:1874   */\n      swap3\n      swap2\n      pop\n      pop\n      jump\t// out\n        /* \"#utility.yul\":1961:2060   */\n    tag_75:\n        /* \"#utility.yul\":2013:2019   */\n      0x00\n        /* \"#utility.yul\":2047:2052   */\n      dup2\n        /* \"#utility.yul\":2041:2053   */\n      mload\n        /* \"#utility.yul\":2031:2053   */\n      swap1\n      pop\n        /* \"#utility.yul\":1961:2060   */\n      swap2\n      swap1\n      pop\n      jump\t// out\n        /* \"#utility.yul\":2066:2235   */\n    tag_77:\n        /* \"#utility.yul\":2150:2161   */\n      0x00\n        /* \"#utility.yul\":2184:2190   */\n      dup3\n        /* \"#utility.yul\":2179:2182   */\n      dup3\n        /* \"#utility.yul\":2172:2191   */\n      mstore\n        /* \"#utility.yul\":2224:2228   */\n      0x20\n        /* \"#utility.yul\":2219:2222   */\n      dup3\n        /* \"#utility.yul\":2215:2229   */\n      add\n        /* \"#utility.yul\":2200:2229   */\n      swap1\n      pop\n        /* \"#utility.yul\":2066:2235   */\n      swap3\n      swap2\n      pop\n      pop\n      jump\t// out\n        /* \"#utility.yul\":2241:2546   */\n    tag_41:\n        /* \"#utility.yul\":2281:2284   */\n      0x00\n        /* \"#utility.yul\":2300:2320   */\n      tag_97\n        /* \"#utility.yul\":2318:2319   */\n      dup3\n        /* \"#utility.yul\":2300:2320   */\n      tag_85\n      jump\t// in\n    tag_97:\n        /* \"#utility.yul\":2295:2320   */\n      swap2\n      pop\n        /* \"#utility.yul\":2334:2354   */\n      tag_98\n        /* \"#utility.yul\":2352:2353   */\n      dup4\n        /* \"#utility.yul\":2334:2354   */\n      tag_85\n      jump\t// in\n    tag_98:\n        /* \"#utility.yul\":2329:2354   */\n      swap3\n      pop\n        /* \"#utility.yul\":2488:2489   */\n      dup3\n        /* \"#utility.yul\":2420:2486   */\n      0xffffffffffffffffffffffffffffffffffffffffffffffffffffffffffffffff\n        /* \"#utility.yul\":2416:2490   */\n      sub\n        /* \"#utility.yul\":2413:2414   */\n      dup3\n        /* \"#utility.yul\":2410:2491   */\n      gt\n        /* \"#utility.yul\":2407:2514   */\n      iszero\n      tag_99\n      jumpi\n        /* \"#utility.yul\":2494:2512   */\n      tag_100\n      tag_101\n      jump\t// in\n    tag_100:\n        /* \"#utility.yul\":2407:2514   */\n    tag_99:\n        /* \"#utility.yul\":2538:2539   */\n      dup3\n        /* \"#utility.yul\":2535:2536   */\n      dup3\n        /* \"#utility.yul\":2531:2540   */\n      add\n        /* \"#utility.yul\":2524:2540   */\n      swap1\n      pop\n        /* \"#utility.yul\":2241:2546   */\n      swap3\n      swap2\n      pop\n      pop\n      jump\t// out\n        /* \"#utility.yul\":2552:2648   */\n    tag_71:\n        /* \"#utility.yul\":2589:2596   */\n      0x00\n        /* \"#utility.yul\":2618:2642   */\n      tag_103\n        /* \"#utility.yul\":2636:2641   */\n      dup3\n        /* \"#utility.yul\":2618:2642   */\n      tag_104\n      jump\t// in\n    tag_103:\n        /* \"#utility.yul\":2607:2642   */\n      swap1\n      pop\n        /* \"#utility.yul\":2552:2648   */\n      swap2\n      swap1\n      pop\n      jump\t// out\n        /* \"#utility.yul\":2654:2780   */\n    tag_104:\n        /* \"#utility.yul\":2691:2698   */\n      0x00\n        /* \"#utility.yul\":2731:2773   */\n      0xffffffffffffffffffffffffffffffffffffffff\n        /* \"#utility.yul\":2724:2729   */\n      dup3\n        /* \"#utility.yul\":2720:2774   */\n      and\n        /* \"#utility.yul\":2709:2774   */\n      swap1\n      pop\n        /* \"#utility.yul\":2654:2780   */\n      swap2\n      swap1\n      pop\n      jump\t// out\n        /* \"#utility.yul\":2786:2863   */\n    tag_85:\n        /* \"#utility.yul\":2823:2830   */\n      0x00\n        /* \"#utility.yul\":2852:2857   */\n      dup2\n        /* \"#utility.yul\":2841:2857   */\n      swap1\n      pop\n        /* \"#utility.yul\":2786:2863   */\n      swap2\n      swap1\n      pop\n      jump\t// out\n        /* \"#utility.yul\":2869:3176   */\n    tag_79:\n        /* \"#utility.yul\":2937:2938   */\n      0x00\n        /* \"#utility.yul\":2947:3060   */\n    tag_108:\n        /* \"#utility.yul\":2961:2967   */\n      dup4\n        /* \"#utility.yul\":2958:2959   */\n      dup2\n        /* \"#utility.yul\":2955:2968   */\n      lt\n        /* \"#utility.yul\":2947:3060   */\n      iszero\n      tag_110\n      jumpi\n        /* \"#utility.yul\":3046:3047   */\n      dup1\n        /* \"#utility.yul\":3041:3044   */\n      dup3\n        /* \"#utility.yul\":3037:3048   */\n      add\n        /* \"#utility.yul\":3031:3049   */\n      mload\n        /* \"#utility.yul\":3027:3028   */\n      dup2\n        /* \"#utility.yul\":3022:3025   */\n      dup5\n        /* \"#utility.yul\":3018:3029   */\n      add\n        /* \"#utility.yul\":3011:3050   */\n      mstore\n        /* \"#utility.yul\":2983:2985   */\n      0x20\n        /* \"#utility.yul\":2980:2981   */\n      dup2\n        /* \"#utility.yul\":2976:2986   */\n      add\n        /* \"#utility.yul\":2971:2986   */\n      swap1\n      pop\n        /* \"#utility.yul\":2947:3060   */\n      jump(tag_108)\n    tag_110:\n        /* \"#utility.yul\":3078:3084   */\n      dup4\n        /* \"#utility.yul\":3075:3076   */\n      dup2\n        /* \"#utility.yul\":3072:3085   */\n      gt\n        /* \"#utility.yul\":3069:3170   */\n      iszero\n      tag_111\n      jumpi\n        /* \"#utility.yul\":3158:3159   */\n      0x00\n        /* \"#utility.yul\":3149:3155   */\n      dup5\n        /* \"#utility.yul\":3144:3147   */\n      dup5\n        /* \"#utility.yul\":3140:3156   */\n      add\n        /* \"#utility.yul\":3133:3160   */\n      mstore\n        /* \"#utility.yul\":3069:3170   */\n    tag_111:\n        /* \"#utility.yul\":2918:3176   */\n      pop\n        /* \"#utility.yul\":2869:3176   */\n      pop\n      pop\n      pop\n      jump\t// out\n        /* \"#utility.yul\":3182:3415   */\n    tag_37:\n        /* \"#utility.yul\":3221:3224   */\n      0x00\n        /* \"#utility.yul\":3244:3268   */\n      tag_113\n        /* \"#utility.yul\":3262:3267   */\n      dup3\n        /* \"#utility.yul\":3244:3268   */\n      tag_85\n      jump\t// in\n    tag_113:\n        /* \"#utility.yul\":3235:3268   */\n      swap2\n      pop\n        /* \"#utility.yul\":3290:3356   */\n      0xffffffffffffffffffffffffffffffffffffffffffffffffffffffffffffffff\n        /* \"#utility.yul\":3283:3288   */\n      dup3\n        /* \"#utility.yul\":3280:3357   */\n      eq\n        /* \"#utility.yul\":3277:3380   */\n      iszero\n      tag_114\n      jumpi\n        /* \"#utility.yul\":3360:3378   */\n      tag_115\n      tag_101\n      jump\t// in\n    tag_115:\n        /* \"#utility.yul\":3277:3380   */\n    tag_114:\n        /* \"#utility.yul\":3407:3408   */\n      0x01\n        /* \"#utility.yul\":3400:3405   */\n      dup3\n        /* \"#utility.yul\":3396:3409   */\n      add\n        /* \"#utility.yul\":3389:3409   */\n      swap1\n      pop\n        /* \"#utility.yul\":3182:3415   */\n      swap2\n      swap1\n      pop\n      jump\t// out\n        /* \"#utility.yul\":3421:3601   */\n    tag_101:\n        /* \"#utility.yul\":3469:3546   */\n      0x4e487b7100000000000000000000000000000000000000000000000000000000\n        /* \"#utility.yul\":3466:3467   */\n      0x00\n        /* \"#utility.yul\":3459:3547   */\n      mstore\n        /* \"#utility.yul\":3566:3570   */\n      0x11\n        /* \"#utility.yul\":3563:3564   */\n      0x04\n        /* \"#utility.yul\":3556:3571   */\n      mstore\n        /* \"#utility.yul\":3590:3594   */\n      0x24\n        /* \"#utility.yul\":3587:3588   */\n      0x00\n        /* \"#utility.yul\":3580:3595   */\n      revert\n        /* \"#utility.yul\":3730:3847   */\n    tag_66:\n        /* \"#utility.yul\":3839:3840   */\n      0x00\n        /* \"#utility.yul\":3836:3837   */\n      dup1\n        /* \"#utility.yul\":3829:3841   */\n      revert\n        /* \"#utility.yul\":3853:3955   */\n    tag_81:\n        /* \"#utility.yul\":3894:3900   */\n      0x00\n        /* \"#utility.yul\":3945:3947   */\n      0x1f\n        /* \"#utility.yul\":3941:3948   */\n      not\n        /* \"#utility.yul\":3936:3938   */\n      0x1f\n        /* \"#utility.yul\":3929:3934   */\n      dup4\n        /* \"#utility.yul\":3925:3939   */\n      add\n        /* \"#utility.yul\":3921:3949   */\n      and\n        /* \"#utility.yul\":3911:3949   */\n      swap1\n      pop\n        /* \"#utility.yul\":3853:3955   */\n      swap2\n      swap1\n      pop\n      jump\t// out\n        /* \"#utility.yul\":3961:4083   */\n    tag_62:\n        /* \"#utility.yul\":4034:4058   */\n      tag_122\n        /* \"#utility.yul\":4052:4057   */\n      dup2\n        /* \"#utility.yul\":4034:4058   */\n      tag_85\n      jump\t// in\n    tag_122:\n        /* \"#utility.yul\":4027:4032   */\n      dup2\n        /* \"#utility.yul\":4024:4059   */\n      eq\n        /* \"#utility.yul\":4014:4077   */\n      tag_123\n      jumpi\n        /* \"#utility.yul\":4073:4074   */\n      0x00\n        /* \"#utility.yul\":4070:4071   */\n      dup1\n        /* \"#utility.yul\":4063:4075   */\n      revert\n        /* \"#utility.yul\":4014:4077   */\n    tag_123:\n        /* \"#utility.yul\":3961:4083   */\n      pop\n      jump\t// out\n\n    auxdata: 0xa26469706673582212202916d7be23da196f97886a4b8cf294f7a4f348b414953ce69977bf262e82256e64736f6c63430008070033\n}\n",
				"bytecode": {
					"linkReferences": {},
					"object": "6080604052601e60005534801561001557600080fd5b506104d5806100256000396000f3fe608060405234801561001057600080fd5b50600436106100625760003560e01c80630957a33c14610067578063262a9dff146100855780635e439f66146100a3578063b922758f146100d3578063d1348826146100ef578063d91c1d8a1461010d575b600080fd5b61006f61012b565b60405161007c91906102c1565b60405180910390f35b61008d610156565b60405161009a91906102fe565b60405180910390f35b6100bd60048036038101906100b8919061023d565b61015c565b6040516100ca91906102fe565b60405180910390f35b6100ed60048036038101906100e8919061023d565b610182565b005b6100f761019f565b60405161010491906102dc565b60405180910390f35b6101156101fc565b60405161012291906102fe565b60405180910390f35b600080600090505b600a81101561014f578080610147906103fa565b915050610133565b5033905090565b60005481565b600081806000808282546101709190610335565b92505081905550600054915050919050565b80806000808282546101949190610335565b925050819055505050565b606060005b600a8110156101c05780806101b8906103fa565b9150506101a4565b506040518060400160405280601881526020017f66756e6374212072657475726e20536f6d657468696e67730000000000000000815250905090565b600080600090505b600a811015610220578080610218906103fa565b915050610204565b506014905090565b60008135905061023781610488565b92915050565b60006020828403121561025357610252610472565b5b600061026184828501610228565b91505092915050565b6102738161038b565b82525050565b600061028482610319565b61028e8185610324565b935061029e8185602086016103c7565b6102a781610477565b840191505092915050565b6102bb816103bd565b82525050565b60006020820190506102d6600083018461026a565b92915050565b600060208201905081810360008301526102f68184610279565b905092915050565b600060208201905061031360008301846102b2565b92915050565b600081519050919050565b600082825260208201905092915050565b6000610340826103bd565b915061034b836103bd565b9250827fffffffffffffffffffffffffffffffffffffffffffffffffffffffffffffffff038211156103805761037f610443565b5b828201905092915050565b60006103968261039d565b9050919050565b600073ffffffffffffffffffffffffffffffffffffffff82169050919050565b6000819050919050565b60005b838110156103e55780820151818401526020810190506103ca565b838111156103f4576000848401525b50505050565b6000610405826103bd565b91507fffffffffffffffffffffffffffffffffffffffffffffffffffffffffffffffff82141561043857610437610443565b5b600182019050919050565b7f4e487b7100000000000000000000000000000000000000000000000000000000600052601160045260246000fd5b600080fd5b6000601f19601f8301169050919050565b610491816103bd565b811461049c57600080fd5b5056fea26469706673582212202916d7be23da196f97886a4b8cf294f7a4f348b414953ce69977bf262e82256e64736f6c63430008070033",
					"opcodes": "PUSH1 0x80 PUSH1 0x40 MSTORE PUSH1 0x1E PUSH1 0x0 SSTORE CALLVALUE DUP1 ISZERO PUSH2 0x15 JUMPI PUSH1 0x0 DUP1 REVERT JUMPDEST POP PUSH2 0x4D5 DUP1 PUSH2 0x25 PUSH1 0x0 CODECOPY PUSH1 0x0 RETURN INVALID PUSH1 0x80 PUSH1 0x40 MSTORE CALLVALUE DUP1 ISZERO PUSH2 0x10 JUMPI PUSH1 0x0 DUP1 REVERT JUMPDEST POP PUSH1 0x4 CALLDATASIZE LT PUSH2 0x62 JUMPI PUSH1 0x0 CALLDATALOAD PUSH1 0xE0 SHR DUP1 PUSH4 0x957A33C EQ PUSH2 0x67 JUMPI DUP1 PUSH4 0x262A9DFF EQ PUSH2 0x85 JUMPI DUP1 PUSH4 0x5E439F66 EQ PUSH2 0xA3 JUMPI DUP1 PUSH4 0xB922758F EQ PUSH2 0xD3 JUMPI DUP1 PUSH4 0xD1348826 EQ PUSH2 0xEF JUMPI DUP1 PUSH4 0xD91C1D8A EQ PUSH2 0x10D JUMPI JUMPDEST PUSH1 0x0 DUP1 REVERT JUMPDEST PUSH2 0x6F PUSH2 0x12B JUMP JUMPDEST PUSH1 0x40 MLOAD PUSH2 0x7C SWAP2 SWAP1 PUSH2 0x2C1 JUMP JUMPDEST PUSH1 0x40 MLOAD DUP1 SWAP2 SUB SWAP1 RETURN JUMPDEST PUSH2 0x8D PUSH2 0x156 JUMP JUMPDEST PUSH1 0x40 MLOAD PUSH2 0x9A SWAP2 SWAP1 PUSH2 0x2FE JUMP JUMPDEST PUSH1 0x40 MLOAD DUP1 SWAP2 SUB SWAP1 RETURN JUMPDEST PUSH2 0xBD PUSH1 0x4 DUP1 CALLDATASIZE SUB DUP2 ADD SWAP1 PUSH2 0xB8 SWAP2 SWAP1 PUSH2 0x23D JUMP JUMPDEST PUSH2 0x15C JUMP JUMPDEST PUSH1 0x40 MLOAD PUSH2 0xCA SWAP2 SWAP1 PUSH2 0x2FE JUMP JUMPDEST PUSH1 0x40 MLOAD DUP1 SWAP2 SUB SWAP1 RETURN JUMPDEST PUSH2 0xED PUSH1 0x4 DUP1 CALLDATASIZE SUB DUP2 ADD SWAP1 PUSH2 0xE8 SWAP2 SWAP1 PUSH2 0x23D JUMP JUMPDEST PUSH2 0x182 JUMP JUMPDEST STOP JUMPDEST PUSH2 0xF7 PUSH2 0x19F JUMP JUMPDEST PUSH1 0x40 MLOAD PUSH2 0x104 SWAP2 SWAP1 PUSH2 0x2DC JUMP JUMPDEST PUSH1 0x40 MLOAD DUP1 SWAP2 SUB SWAP1 RETURN JUMPDEST PUSH2 0x115 PUSH2 0x1FC JUMP JUMPDEST PUSH1 0x40 MLOAD PUSH2 0x122 SWAP2 SWAP1 PUSH2 0x2FE JUMP JUMPDEST PUSH1 0x40 MLOAD DUP1 SWAP2 SUB SWAP1 RETURN JUMPDEST PUSH1 0x0 DUP1 PUSH1 0x0 SWAP1 POP JUMPDEST PUSH1 0xA DUP2 LT ISZERO PUSH2 0x14F JUMPI DUP1 DUP1 PUSH2 0x147 SWAP1 PUSH2 0x3FA JUMP JUMPDEST SWAP2 POP POP PUSH2 0x133 JUMP JUMPDEST POP CALLER SWAP1 POP SWAP1 JUMP JUMPDEST PUSH1 0x0 SLOAD DUP2 JUMP JUMPDEST PUSH1 0x0 DUP2 DUP1 PUSH1 0x0 DUP1 DUP3 DUP3 SLOAD PUSH2 0x170 SWAP2 SWAP1 PUSH2 0x335 JUMP JUMPDEST SWAP3 POP POP DUP2 SWAP1 SSTORE POP PUSH1 0x0 SLOAD SWAP2 POP POP SWAP2 SWAP1 POP JUMP JUMPDEST DUP1 DUP1 PUSH1 0x0 DUP1 DUP3 DUP3 SLOAD PUSH2 0x194 SWAP2 SWAP1 PUSH2 0x335 JUMP JUMPDEST SWAP3 POP POP DUP2 SWAP1 SSTORE POP POP POP JUMP JUMPDEST PUSH1 0x60 PUSH1 0x0 JUMPDEST PUSH1 0xA DUP2 LT ISZERO PUSH2 0x1C0 JUMPI DUP1 DUP1 PUSH2 0x1B8 SWAP1 PUSH2 0x3FA JUMP JUMPDEST SWAP2 POP POP PUSH2 0x1A4 JUMP JUMPDEST POP PUSH1 0x40 MLOAD DUP1 PUSH1 0x40 ADD PUSH1 0x40 MSTORE DUP1 PUSH1 0x18 DUP2 MSTORE PUSH1 0x20 ADD PUSH32 0x66756E6374212072657475726E20536F6D657468696E67730000000000000000 DUP2 MSTORE POP SWAP1 POP SWAP1 JUMP JUMPDEST PUSH1 0x0 DUP1 PUSH1 0x0 SWAP1 POP JUMPDEST PUSH1 0xA DUP2 LT ISZERO PUSH2 0x220 JUMPI DUP1 DUP1 PUSH2 0x218 SWAP1 PUSH2 0x3FA JUMP JUMPDEST SWAP2 POP POP PUSH2 0x204 JUMP JUMPDEST POP PUSH1 0x14 SWAP1 POP SWAP1 JUMP JUMPDEST PUSH1 0x0 DUP2 CALLDATALOAD SWAP1 POP PUSH2 0x237 DUP2 PUSH2 0x488 JUMP JUMPDEST SWAP3 SWAP2 POP POP JUMP JUMPDEST PUSH1 0x0 PUSH1 0x20 DUP3 DUP5 SUB SLT ISZERO PUSH2 0x253 JUMPI PUSH2 0x252 PUSH2 0x472 JUMP JUMPDEST JUMPDEST PUSH1 0x0 PUSH2 0x261 DUP5 DUP3 DUP6 ADD PUSH2 0x228 JUMP JUMPDEST SWAP2 POP POP SWAP3 SWAP2 POP POP JUMP JUMPDEST PUSH2 0x273 DUP2 PUSH2 0x38B JUMP JUMPDEST DUP3 MSTORE POP POP JUMP JUMPDEST PUSH1 0x0 PUSH2 0x284 DUP3 PUSH2 0x319 JUMP JUMPDEST PUSH2 0x28E DUP2 DUP6 PUSH2 0x324 JUMP JUMPDEST SWAP4 POP PUSH2 0x29E DUP2 DUP6 PUSH1 0x20 DUP7 ADD PUSH2 0x3C7 JUMP JUMPDEST PUSH2 0x2A7 DUP2 PUSH2 0x477 JUMP JUMPDEST DUP5 ADD SWAP2 POP POP SWAP3 SWAP2 POP POP JUMP JUMPDEST PUSH2 0x2BB DUP2 PUSH2 0x3BD JUMP JUMPDEST DUP3 MSTORE POP POP JUMP JUMPDEST PUSH1 0x0 PUSH1 0x20 DUP3 ADD SWAP1 POP PUSH2 0x2D6 PUSH1 0x0 DUP4 ADD DUP5 PUSH2 0x26A JUMP JUMPDEST SWAP3 SWAP2 POP POP JUMP JUMPDEST PUSH1 0x0 PUSH1 0x20 DUP3 ADD SWAP1 POP DUP2 DUP2 SUB PUSH1 0x0 DUP4 ADD MSTORE PUSH2 0x2F6 DUP2 DUP5 PUSH2 0x279 JUMP JUMPDEST SWAP1 POP SWAP3 SWAP2 POP POP JUMP JUMPDEST PUSH1 0x0 PUSH1 0x20 DUP3 ADD SWAP1 POP PUSH2 0x313 PUSH1 0x0 DUP4 ADD DUP5 PUSH2 0x2B2 JUMP JUMPDEST SWAP3 SWAP2 POP POP JUMP JUMPDEST PUSH1 0x0 DUP2 MLOAD SWAP1 POP SWAP2 SWAP1 POP JUMP JUMPDEST PUSH1 0x0 DUP3 DUP3 MSTORE PUSH1 0x20 DUP3 ADD SWAP1 POP SWAP3 SWAP2 POP POP JUMP JUMPDEST PUSH1 0x0 PUSH2 0x340 DUP3 PUSH2 0x3BD JUMP JUMPDEST SWAP2 POP PUSH2 0x34B DUP4 PUSH2 0x3BD JUMP JUMPDEST SWAP3 POP DUP3 PUSH32 0xFFFFFFFFFFFFFFFFFFFFFFFFFFFFFFFFFFFFFFFFFFFFFFFFFFFFFFFFFFFFFFFF SUB DUP3 GT ISZERO PUSH2 0x380 JUMPI PUSH2 0x37F PUSH2 0x443 JUMP JUMPDEST JUMPDEST DUP3 DUP3 ADD SWAP1 POP SWAP3 SWAP2 POP POP JUMP JUMPDEST PUSH1 0x0 PUSH2 0x396 DUP3 PUSH2 0x39D JUMP JUMPDEST SWAP1 POP SWAP2 SWAP1 POP JUMP JUMPDEST PUSH1 0x0 PUSH20 0xFFFFFFFFFFFFFFFFFFFFFFFFFFFFFFFFFFFFFFFF DUP3 AND SWAP1 POP SWAP2 SWAP1 POP JUMP JUMPDEST PUSH1 0x0 DUP2 SWAP1 POP SWAP2 SWAP1 POP JUMP JUMPDEST PUSH1 0x0 JUMPDEST DUP4 DUP2 LT ISZERO PUSH2 0x3E5 JUMPI DUP1 DUP3 ADD MLOAD DUP2 DUP5 ADD MSTORE PUSH1 0x20 DUP2 ADD SWAP1 POP PUSH2 0x3CA JUMP JUMPDEST DUP4 DUP2 GT ISZERO PUSH2 0x3F4 JUMPI PUSH1 0x0 DUP5 DUP5 ADD MSTORE JUMPDEST POP POP POP POP JUMP JUMPDEST PUSH1 0x0 PUSH2 0x405 DUP3 PUSH2 0x3BD JUMP JUMPDEST SWAP2 POP PUSH32 0xFFFFFFFFFFFFFFFFFFFFFFFFFFFFFFFFFFFFFFFFFFFFFFFFFFFFFFFFFFFFFFFF DUP3 EQ ISZERO PUSH2 0x438 JUMPI PUSH2 0x437 PUSH2 0x443 JUMP JUMPDEST JUMPDEST PUSH1 0x1 DUP3 ADD SWAP1 POP SWAP2 SWAP1 POP JUMP JUMPDEST PUSH32 0x4E487B7100000000000000000000000000000000000000000000000000000000 PUSH1 0x0 MSTORE PUSH1 0x11 PUSH1 0x4 MSTORE PUSH1 0x24 PUSH1 0x0 REVERT JUMPDEST PUSH1 0x0 DUP1 REVERT JUMPDEST PUSH1 0x0 PUSH1 0x1F NOT PUSH1 0x1F DUP4 ADD AND SWAP1 POP SWAP2 SWAP1 POP JUMP JUMPDEST PUSH2 0x491 DUP2 PUSH2 0x3BD JUMP JUMPDEST DUP2 EQ PUSH2 0x49C JUMPI PUSH1 0x0 DUP1 REVERT JUMPDEST POP JUMP INVALID LOG2 PUSH5 0x6970667358 0x22 SLT KECCAK256 0x29 AND 0xD7 0xBE 0x23 0xDA NOT PUSH16 0x97886A4B8CF294F7A4F348B414953CE6 SWAP10 PUSH24 0xBF262E82256E64736F6C6343000807003300000000000000 "
				},
				"gasEstimates": {
					"creation": {
						"codeDepositCost": "247400",
						"executionCost": "22393",
						"totalCost": "269793"
					},
					"external": {
						"age()": "2429",
						"changeAge(uint256)": "infinite",
						"changeAgeWReturn(uint256)": "infinite",
						"testFun1()": "infinite",
						"testFun2()": "infinite",
						"testFun3()": "infinite"
					}
				},
				"methodIdentifiers": {
					"age()": "262a9dff",
					"changeAge(uint256)": "5e439f66",
					"changeAgeWReturn(uint256)": "b922758f",
					"testFun1()": "d1348826",
					"testFun2()": "d91c1d8a",
					"testFun3()": "0957a33c"
				}
			},
			"storageLayout": {
				"storage": [
					{
						"astId": 55,
						"contract": "functionModifierImple.sol:modifierFunctionImplementation",
						"label": "age",
						"offset": 0,
						"slot": "0",
						"type": "t_uint256"
					}
				],
				"types": {
					"t_uint256": {
						"encoding": "inplace",
						"label": "uint256",
						"numberOfBytes": "32"
					}
				}
			},
			"userdoc": {
				"kind": "user",
				"methods": {},
				"version": 1
			}
		}
	}
}