{
	"hashImplementation.sol": {
		"hashImplementation": {
			"abi": [
				{
					"inputs": [],
					"name": "hashRipemd160",
					"outputs": [
						{
							"internalType": "bytes20",
							"name": "",
							"type": "bytes20"
						}
					],
					"stateMutability": "nonpayable",
					"type": "function"
				},
				{
					"inputs": [
						{
							"internalType": "uint256",
							"name": "_x",
							"type": "uint256"
						},
						{
							"internalType": "string",
							"name": "_str",
							"type": "string"
						},
						{
							"internalType": "address",
							"name": "",
							"type": "address"
						}
					],
					"name": "hashkeccak256",
					"outputs": [
						{
							"internalType": "bytes32",
							"name": "",
							"type": "bytes32"
						}
					],
					"stateMutability": "nonpayable",
					"type": "function"
				},
				{
					"inputs": [],
					"name": "hashshar256",
					"outputs": [
						{
							"internalType": "bytes32",
							"name": "",
							"type": "bytes32"
						}
					],
					"stateMutability": "nonpayable",
					"type": "function"
				}
			],
			"devdoc": {
				"kind": "dev",
				"methods": {},
				"version": 1
			},
			"evm": {
				"assembly": "    /* \"hashImplementation.sol\":63:329  contract hashImplementation{... */\n  mstore(0x40, 0x80)\n  callvalue\n  dup1\n  iszero\n  tag_1\n  jumpi\n  0x00\n  dup1\n  revert\ntag_1:\n  pop\n  dataSize(sub_0)\n  dup1\n  dataOffset(sub_0)\n  0x00\n  codecopy\n  0x00\n  return\nstop\n\nsub_0: assembly {\n        /* \"hashImplementation.sol\":63:329  contract hashImplementation{... */\n      mstore(0x40, 0x80)\n      callvalue\n      dup1\n      iszero\n      tag_1\n      jumpi\n      0x00\n      dup1\n      revert\n    tag_1:\n      pop\n      jumpi(tag_2, lt(calldatasize, 0x04))\n      shr(0xe0, calldataload(0x00))\n      dup1\n      0x35df0101\n      eq\n      tag_3\n      jumpi\n      dup1\n      0x63922525\n      eq\n      tag_4\n      jumpi\n      dup1\n      0x6558b805\n      eq\n      tag_5\n      jumpi\n    tag_2:\n      0x00\n      dup1\n      revert\n        /* \"hashImplementation.sol\":263:327  function hashRipemd160() public returns(bytes20){... */\n    tag_3:\n      tag_6\n      tag_7\n      jump\t// in\n    tag_6:\n      mload(0x40)\n      tag_8\n      swap2\n      swap1\n      tag_9\n      jump\t// in\n    tag_8:\n      mload(0x40)\n      dup1\n      swap2\n      sub\n      swap1\n      return\n        /* \"hashImplementation.sol\":196:258  function hashshar256() public returns(bytes32){... */\n    tag_4:\n      tag_10\n      tag_11\n      jump\t// in\n    tag_10:\n      mload(0x40)\n      tag_12\n      swap2\n      swap1\n      tag_13\n      jump\t// in\n    tag_12:\n      mload(0x40)\n      dup1\n      swap2\n      sub\n      swap1\n      return\n        /* \"hashImplementation.sol\":97:191  function hashkeccak256(uint _x, string memory _str, address  ) public returns(bytes32){... */\n    tag_5:\n      tag_14\n      0x04\n      dup1\n      calldatasize\n      sub\n      dup2\n      add\n      swap1\n      tag_15\n      swap2\n      swap1\n      tag_16\n      jump\t// in\n    tag_15:\n      tag_17\n      jump\t// in\n    tag_14:\n      mload(0x40)\n      tag_18\n      swap2\n      swap1\n      tag_13\n      jump\t// in\n    tag_18:\n      mload(0x40)\n      dup1\n      swap2\n      sub\n      swap1\n      return\n        /* \"hashImplementation.sol\":263:327  function hashRipemd160() public returns(bytes20){... */\n    tag_7:\n        /* \"hashImplementation.sol\":303:310  bytes20 */\n      0x00\n        /* \"hashImplementation.sol\":263:327  function hashRipemd160() public returns(bytes20){... */\n      swap1\n      jump\t// out\n        /* \"hashImplementation.sol\":196:258  function hashshar256() public returns(bytes32){... */\n    tag_11:\n        /* \"hashImplementation.sol\":234:241  bytes32 */\n      0x00\n        /* \"hashImplementation.sol\":196:258  function hashshar256() public returns(bytes32){... */\n      swap1\n      jump\t// out\n        /* \"hashImplementation.sol\":97:191  function hashkeccak256(uint _x, string memory _str, address  ) public returns(bytes32){... */\n    tag_17:\n        /* \"hashImplementation.sol\":175:182  bytes32 */\n      0x00\n        /* \"hashImplementation.sol\":97:191  function hashkeccak256(uint _x, string memory _str, address  ) public returns(bytes32){... */\n      swap4\n      swap3\n      pop\n      pop\n      pop\n      jump\t// out\n        /* \"#utility.yul\":7:419   */\n    tag_23:\n        /* \"#utility.yul\":85:90   */\n      0x00\n        /* \"#utility.yul\":110:176   */\n      tag_25\n        /* \"#utility.yul\":126:175   */\n      tag_26\n        /* \"#utility.yul\":168:174   */\n      dup5\n        /* \"#utility.yul\":126:175   */\n      tag_27\n      jump\t// in\n    tag_26:\n        /* \"#utility.yul\":110:176   */\n      tag_28\n      jump\t// in\n    tag_25:\n        /* \"#utility.yul\":101:176   */\n      swap1\n      pop\n        /* \"#utility.yul\":199:205   */\n      dup3\n        /* \"#utility.yul\":192:197   */\n      dup2\n        /* \"#utility.yul\":185:206   */\n      mstore\n        /* \"#utility.yul\":237:241   */\n      0x20\n        /* \"#utility.yul\":230:235   */\n      dup2\n        /* \"#utility.yul\":226:242   */\n      add\n        /* \"#utility.yul\":275:278   */\n      dup5\n        /* \"#utility.yul\":266:272   */\n      dup5\n        /* \"#utility.yul\":261:264   */\n      dup5\n        /* \"#utility.yul\":257:273   */\n      add\n        /* \"#utility.yul\":254:279   */\n      gt\n        /* \"#utility.yul\":251:363   */\n      iszero\n      tag_29\n      jumpi\n        /* \"#utility.yul\":282:361   */\n      tag_30\n      tag_31\n      jump\t// in\n    tag_30:\n        /* \"#utility.yul\":251:363   */\n    tag_29:\n        /* \"#utility.yul\":372:413   */\n      tag_32\n        /* \"#utility.yul\":406:412   */\n      dup5\n        /* \"#utility.yul\":401:404   */\n      dup3\n        /* \"#utility.yul\":396:399   */\n      dup6\n        /* \"#utility.yul\":372:413   */\n      tag_33\n      jump\t// in\n    tag_32:\n        /* \"#utility.yul\":91:419   */\n      pop\n        /* \"#utility.yul\":7:419   */\n      swap4\n      swap3\n      pop\n      pop\n      pop\n      jump\t// out\n        /* \"#utility.yul\":425:564   */\n    tag_34:\n        /* \"#utility.yul\":471:476   */\n      0x00\n        /* \"#utility.yul\":509:515   */\n      dup2\n        /* \"#utility.yul\":496:516   */\n      calldataload\n        /* \"#utility.yul\":487:516   */\n      swap1\n      pop\n        /* \"#utility.yul\":525:558   */\n      tag_36\n        /* \"#utility.yul\":552:557   */\n      dup2\n        /* \"#utility.yul\":525:558   */\n      tag_37\n      jump\t// in\n    tag_36:\n        /* \"#utility.yul\":425:564   */\n      swap3\n      swap2\n      pop\n      pop\n      jump\t// out\n        /* \"#utility.yul\":584:924   */\n    tag_38:\n        /* \"#utility.yul\":640:645   */\n      0x00\n        /* \"#utility.yul\":689:692   */\n      dup3\n        /* \"#utility.yul\":682:686   */\n      0x1f\n        /* \"#utility.yul\":674:680   */\n      dup4\n        /* \"#utility.yul\":670:687   */\n      add\n        /* \"#utility.yul\":666:693   */\n      slt\n        /* \"#utility.yul\":656:778   */\n      tag_40\n      jumpi\n        /* \"#utility.yul\":697:776   */\n      tag_41\n      tag_42\n      jump\t// in\n    tag_41:\n        /* \"#utility.yul\":656:778   */\n    tag_40:\n        /* \"#utility.yul\":814:820   */\n      dup2\n        /* \"#utility.yul\":801:821   */\n      calldataload\n        /* \"#utility.yul\":839:918   */\n      tag_43\n        /* \"#utility.yul\":914:917   */\n      dup5\n        /* \"#utility.yul\":906:912   */\n      dup3\n        /* \"#utility.yul\":899:903   */\n      0x20\n        /* \"#utility.yul\":891:897   */\n      dup7\n        /* \"#utility.yul\":887:904   */\n      add\n        /* \"#utility.yul\":839:918   */\n      tag_23\n      jump\t// in\n    tag_43:\n        /* \"#utility.yul\":830:918   */\n      swap2\n      pop\n        /* \"#utility.yul\":646:924   */\n      pop\n        /* \"#utility.yul\":584:924   */\n      swap3\n      swap2\n      pop\n      pop\n      jump\t// out\n        /* \"#utility.yul\":930:1069   */\n    tag_44:\n        /* \"#utility.yul\":976:981   */\n      0x00\n        /* \"#utility.yul\":1014:1020   */\n      dup2\n        /* \"#utility.yul\":1001:1021   */\n      calldataload\n        /* \"#utility.yul\":992:1021   */\n      swap1\n      pop\n        /* \"#utility.yul\":1030:1063   */\n      tag_46\n        /* \"#utility.yul\":1057:1062   */\n      dup2\n        /* \"#utility.yul\":1030:1063   */\n      tag_47\n      jump\t// in\n    tag_46:\n        /* \"#utility.yul\":930:1069   */\n      swap3\n      swap2\n      pop\n      pop\n      jump\t// out\n        /* \"#utility.yul\":1075:1874   */\n    tag_16:\n        /* \"#utility.yul\":1162:1168   */\n      0x00\n        /* \"#utility.yul\":1170:1176   */\n      dup1\n        /* \"#utility.yul\":1178:1184   */\n      0x00\n        /* \"#utility.yul\":1227:1229   */\n      0x60\n        /* \"#utility.yul\":1215:1224   */\n      dup5\n        /* \"#utility.yul\":1206:1213   */\n      dup7\n        /* \"#utility.yul\":1202:1225   */\n      sub\n        /* \"#utility.yul\":1198:1230   */\n      slt\n        /* \"#utility.yul\":1195:1314   */\n      iszero\n      tag_49\n      jumpi\n        /* \"#utility.yul\":1233:1312   */\n      tag_50\n      tag_51\n      jump\t// in\n    tag_50:\n        /* \"#utility.yul\":1195:1314   */\n    tag_49:\n        /* \"#utility.yul\":1353:1354   */\n      0x00\n        /* \"#utility.yul\":1378:1431   */\n      tag_52\n        /* \"#utility.yul\":1423:1430   */\n      dup7\n        /* \"#utility.yul\":1414:1420   */\n      dup3\n        /* \"#utility.yul\":1403:1412   */\n      dup8\n        /* \"#utility.yul\":1399:1421   */\n      add\n        /* \"#utility.yul\":1378:1431   */\n      tag_44\n      jump\t// in\n    tag_52:\n        /* \"#utility.yul\":1368:1431   */\n      swap4\n      pop\n        /* \"#utility.yul\":1324:1441   */\n      pop\n        /* \"#utility.yul\":1508:1510   */\n      0x20\n        /* \"#utility.yul\":1497:1506   */\n      dup5\n        /* \"#utility.yul\":1493:1511   */\n      add\n        /* \"#utility.yul\":1480:1512   */\n      calldataload\n        /* \"#utility.yul\":1539:1557   */\n      0xffffffffffffffff\n        /* \"#utility.yul\":1531:1537   */\n      dup2\n        /* \"#utility.yul\":1528:1558   */\n      gt\n        /* \"#utility.yul\":1525:1642   */\n      iszero\n      tag_53\n      jumpi\n        /* \"#utility.yul\":1561:1640   */\n      tag_54\n      tag_55\n      jump\t// in\n    tag_54:\n        /* \"#utility.yul\":1525:1642   */\n    tag_53:\n        /* \"#utility.yul\":1666:1729   */\n      tag_56\n        /* \"#utility.yul\":1721:1728   */\n      dup7\n        /* \"#utility.yul\":1712:1718   */\n      dup3\n        /* \"#utility.yul\":1701:1710   */\n      dup8\n        /* \"#utility.yul\":1697:1719   */\n      add\n        /* \"#utility.yul\":1666:1729   */\n      tag_38\n      jump\t// in\n    tag_56:\n        /* \"#utility.yul\":1656:1729   */\n      swap3\n      pop\n        /* \"#utility.yul\":1451:1739   */\n      pop\n        /* \"#utility.yul\":1778:1780   */\n      0x40\n        /* \"#utility.yul\":1804:1857   */\n      tag_57\n        /* \"#utility.yul\":1849:1856   */\n      dup7\n        /* \"#utility.yul\":1840:1846   */\n      dup3\n        /* \"#utility.yul\":1829:1838   */\n      dup8\n        /* \"#utility.yul\":1825:1847   */\n      add\n        /* \"#utility.yul\":1804:1857   */\n      tag_34\n      jump\t// in\n    tag_57:\n        /* \"#utility.yul\":1794:1857   */\n      swap2\n      pop\n        /* \"#utility.yul\":1749:1867   */\n      pop\n        /* \"#utility.yul\":1075:1874   */\n      swap3\n      pop\n      swap3\n      pop\n      swap3\n      jump\t// out\n        /* \"#utility.yul\":1880:1998   */\n    tag_58:\n        /* \"#utility.yul\":1967:1991   */\n      tag_60\n        /* \"#utility.yul\":1985:1990   */\n      dup2\n        /* \"#utility.yul\":1967:1991   */\n      tag_61\n      jump\t// in\n    tag_60:\n        /* \"#utility.yul\":1962:1965   */\n      dup3\n        /* \"#utility.yul\":1955:1992   */\n      mstore\n        /* \"#utility.yul\":1880:1998   */\n      pop\n      pop\n      jump\t// out\n        /* \"#utility.yul\":2004:2122   */\n    tag_62:\n        /* \"#utility.yul\":2091:2115   */\n      tag_64\n        /* \"#utility.yul\":2109:2114   */\n      dup2\n        /* \"#utility.yul\":2091:2115   */\n      tag_65\n      jump\t// in\n    tag_64:\n        /* \"#utility.yul\":2086:2089   */\n      dup3\n        /* \"#utility.yul\":2079:2116   */\n      mstore\n        /* \"#utility.yul\":2004:2122   */\n      pop\n      pop\n      jump\t// out\n        /* \"#utility.yul\":2128:2350   */\n    tag_9:\n        /* \"#utility.yul\":2221:2225   */\n      0x00\n        /* \"#utility.yul\":2259:2261   */\n      0x20\n        /* \"#utility.yul\":2248:2257   */\n      dup3\n        /* \"#utility.yul\":2244:2262   */\n      add\n        /* \"#utility.yul\":2236:2262   */\n      swap1\n      pop\n        /* \"#utility.yul\":2272:2343   */\n      tag_67\n        /* \"#utility.yul\":2340:2341   */\n      0x00\n        /* \"#utility.yul\":2329:2338   */\n      dup4\n        /* \"#utility.yul\":2325:2342   */\n      add\n        /* \"#utility.yul\":2316:2322   */\n      dup5\n        /* \"#utility.yul\":2272:2343   */\n      tag_58\n      jump\t// in\n    tag_67:\n        /* \"#utility.yul\":2128:2350   */\n      swap3\n      swap2\n      pop\n      pop\n      jump\t// out\n        /* \"#utility.yul\":2356:2578   */\n    tag_13:\n        /* \"#utility.yul\":2449:2453   */\n      0x00\n        /* \"#utility.yul\":2487:2489   */\n      0x20\n        /* \"#utility.yul\":2476:2485   */\n      dup3\n        /* \"#utility.yul\":2472:2490   */\n      add\n        /* \"#utility.yul\":2464:2490   */\n      swap1\n      pop\n        /* \"#utility.yul\":2500:2571   */\n      tag_69\n        /* \"#utility.yul\":2568:2569   */\n      0x00\n        /* \"#utility.yul\":2557:2566   */\n      dup4\n        /* \"#utility.yul\":2553:2570   */\n      add\n        /* \"#utility.yul\":2544:2550   */\n      dup5\n        /* \"#utility.yul\":2500:2571   */\n      tag_62\n      jump\t// in\n    tag_69:\n        /* \"#utility.yul\":2356:2578   */\n      swap3\n      swap2\n      pop\n      pop\n      jump\t// out\n        /* \"#utility.yul\":2584:2713   */\n    tag_28:\n        /* \"#utility.yul\":2618:2624   */\n      0x00\n        /* \"#utility.yul\":2645:2665   */\n      tag_71\n      tag_72\n      jump\t// in\n    tag_71:\n        /* \"#utility.yul\":2635:2665   */\n      swap1\n      pop\n        /* \"#utility.yul\":2674:2707   */\n      tag_73\n        /* \"#utility.yul\":2702:2706   */\n      dup3\n        /* \"#utility.yul\":2694:2700   */\n      dup3\n        /* \"#utility.yul\":2674:2707   */\n      tag_74\n      jump\t// in\n    tag_73:\n        /* \"#utility.yul\":2584:2713   */\n      swap2\n      swap1\n      pop\n      jump\t// out\n        /* \"#utility.yul\":2719:2794   */\n    tag_72:\n        /* \"#utility.yul\":2752:2758   */\n      0x00\n        /* \"#utility.yul\":2785:2787   */\n      0x40\n        /* \"#utility.yul\":2779:2788   */\n      mload\n        /* \"#utility.yul\":2769:2788   */\n      swap1\n      pop\n        /* \"#utility.yul\":2719:2794   */\n      swap1\n      jump\t// out\n        /* \"#utility.yul\":2800:3108   */\n    tag_27:\n        /* \"#utility.yul\":2862:2866   */\n      0x00\n        /* \"#utility.yul\":2952:2970   */\n      0xffffffffffffffff\n        /* \"#utility.yul\":2944:2950   */\n      dup3\n        /* \"#utility.yul\":2941:2971   */\n      gt\n        /* \"#utility.yul\":2938:2994   */\n      iszero\n      tag_77\n      jumpi\n        /* \"#utility.yul\":2974:2992   */\n      tag_78\n      tag_79\n      jump\t// in\n    tag_78:\n        /* \"#utility.yul\":2938:2994   */\n    tag_77:\n        /* \"#utility.yul\":3012:3041   */\n      tag_80\n        /* \"#utility.yul\":3034:3040   */\n      dup3\n        /* \"#utility.yul\":3012:3041   */\n      tag_81\n      jump\t// in\n    tag_80:\n        /* \"#utility.yul\":3004:3041   */\n      swap1\n      pop\n        /* \"#utility.yul\":3096:3100   */\n      0x20\n        /* \"#utility.yul\":3090:3094   */\n      dup2\n        /* \"#utility.yul\":3086:3101   */\n      add\n        /* \"#utility.yul\":3078:3101   */\n      swap1\n      pop\n        /* \"#utility.yul\":2800:3108   */\n      swap2\n      swap1\n      pop\n      jump\t// out\n        /* \"#utility.yul\":3114:3210   */\n    tag_82:\n        /* \"#utility.yul\":3151:3158   */\n      0x00\n        /* \"#utility.yul\":3180:3204   */\n      tag_84\n        /* \"#utility.yul\":3198:3203   */\n      dup3\n        /* \"#utility.yul\":3180:3204   */\n      tag_85\n      jump\t// in\n    tag_84:\n        /* \"#utility.yul\":3169:3204   */\n      swap1\n      pop\n        /* \"#utility.yul\":3114:3210   */\n      swap2\n      swap1\n      pop\n      jump\t// out\n        /* \"#utility.yul\":3216:3366   */\n    tag_61:\n        /* \"#utility.yul\":3253:3260   */\n      0x00\n        /* \"#utility.yul\":3293:3359   */\n      0xffffffffffffffffffffffffffffffffffffffff000000000000000000000000\n        /* \"#utility.yul\":3286:3291   */\n      dup3\n        /* \"#utility.yul\":3282:3360   */\n      and\n        /* \"#utility.yul\":3271:3360   */\n      swap1\n      pop\n        /* \"#utility.yul\":3216:3366   */\n      swap2\n      swap1\n      pop\n      jump\t// out\n        /* \"#utility.yul\":3372:3449   */\n    tag_65:\n        /* \"#utility.yul\":3409:3416   */\n      0x00\n        /* \"#utility.yul\":3438:3443   */\n      dup2\n        /* \"#utility.yul\":3427:3443   */\n      swap1\n      pop\n        /* \"#utility.yul\":3372:3449   */\n      swap2\n      swap1\n      pop\n      jump\t// out\n        /* \"#utility.yul\":3455:3581   */\n    tag_85:\n        /* \"#utility.yul\":3492:3499   */\n      0x00\n        /* \"#utility.yul\":3532:3574   */\n      0xffffffffffffffffffffffffffffffffffffffff\n        /* \"#utility.yul\":3525:3530   */\n      dup3\n        /* \"#utility.yul\":3521:3575   */\n      and\n        /* \"#utility.yul\":3510:3575   */\n      swap1\n      pop\n        /* \"#utility.yul\":3455:3581   */\n      swap2\n      swap1\n      pop\n      jump\t// out\n        /* \"#utility.yul\":3587:3664   */\n    tag_89:\n        /* \"#utility.yul\":3624:3631   */\n      0x00\n        /* \"#utility.yul\":3653:3658   */\n      dup2\n        /* \"#utility.yul\":3642:3658   */\n      swap1\n      pop\n        /* \"#utility.yul\":3587:3664   */\n      swap2\n      swap1\n      pop\n      jump\t// out\n        /* \"#utility.yul\":3670:3824   */\n    tag_33:\n        /* \"#utility.yul\":3754:3760   */\n      dup3\n        /* \"#utility.yul\":3749:3752   */\n      dup2\n        /* \"#utility.yul\":3744:3747   */\n      dup4\n        /* \"#utility.yul\":3731:3761   */\n      calldatacopy\n        /* \"#utility.yul\":3816:3817   */\n      0x00\n        /* \"#utility.yul\":3807:3813   */\n      dup4\n        /* \"#utility.yul\":3802:3805   */\n      dup4\n        /* \"#utility.yul\":3798:3814   */\n      add\n        /* \"#utility.yul\":3791:3818   */\n      mstore\n        /* \"#utility.yul\":3670:3824   */\n      pop\n      pop\n      pop\n      jump\t// out\n        /* \"#utility.yul\":3830:4111   */\n    tag_74:\n        /* \"#utility.yul\":3913:3940   */\n      tag_93\n        /* \"#utility.yul\":3935:3939   */\n      dup3\n        /* \"#utility.yul\":3913:3940   */\n      tag_81\n      jump\t// in\n    tag_93:\n        /* \"#utility.yul\":3905:3911   */\n      dup2\n        /* \"#utility.yul\":3901:3941   */\n      add\n        /* \"#utility.yul\":4043:4049   */\n      dup2\n        /* \"#utility.yul\":4031:4041   */\n      dup2\n        /* \"#utility.yul\":4028:4050   */\n      lt\n        /* \"#utility.yul\":4007:4025   */\n      0xffffffffffffffff\n        /* \"#utility.yul\":3995:4005   */\n      dup3\n        /* \"#utility.yul\":3992:4026   */\n      gt\n        /* \"#utility.yul\":3989:4051   */\n      or\n        /* \"#utility.yul\":3986:4074   */\n      iszero\n      tag_94\n      jumpi\n        /* \"#utility.yul\":4054:4072   */\n      tag_95\n      tag_79\n      jump\t// in\n    tag_95:\n        /* \"#utility.yul\":3986:4074   */\n    tag_94:\n        /* \"#utility.yul\":4094:4104   */\n      dup1\n        /* \"#utility.yul\":4090:4092   */\n      0x40\n        /* \"#utility.yul\":4083:4105   */\n      mstore\n        /* \"#utility.yul\":3873:4111   */\n      pop\n        /* \"#utility.yul\":3830:4111   */\n      pop\n      pop\n      jump\t// out\n        /* \"#utility.yul\":4117:4297   */\n    tag_79:\n        /* \"#utility.yul\":4165:4242   */\n      0x4e487b7100000000000000000000000000000000000000000000000000000000\n        /* \"#utility.yul\":4162:4163   */\n      0x00\n        /* \"#utility.yul\":4155:4243   */\n      mstore\n        /* \"#utility.yul\":4262:4266   */\n      0x41\n        /* \"#utility.yul\":4259:4260   */\n      0x04\n        /* \"#utility.yul\":4252:4267   */\n      mstore\n        /* \"#utility.yul\":4286:4290   */\n      0x24\n        /* \"#utility.yul\":4283:4284   */\n      0x00\n        /* \"#utility.yul\":4276:4291   */\n      revert\n        /* \"#utility.yul\":4303:4420   */\n    tag_42:\n        /* \"#utility.yul\":4412:4413   */\n      0x00\n        /* \"#utility.yul\":4409:4410   */\n      dup1\n        /* \"#utility.yul\":4402:4414   */\n      revert\n        /* \"#utility.yul\":4426:4543   */\n    tag_31:\n        /* \"#utility.yul\":4535:4536   */\n      0x00\n        /* \"#utility.yul\":4532:4533   */\n      dup1\n        /* \"#utility.yul\":4525:4537   */\n      revert\n        /* \"#utility.yul\":4549:4666   */\n    tag_55:\n        /* \"#utility.yul\":4658:4659   */\n      0x00\n        /* \"#utility.yul\":4655:4656   */\n      dup1\n        /* \"#utility.yul\":4648:4660   */\n      revert\n        /* \"#utility.yul\":4672:4789   */\n    tag_51:\n        /* \"#utility.yul\":4781:4782   */\n      0x00\n        /* \"#utility.yul\":4778:4779   */\n      dup1\n        /* \"#utility.yul\":4771:4783   */\n      revert\n        /* \"#utility.yul\":4795:4897   */\n    tag_81:\n        /* \"#utility.yul\":4836:4842   */\n      0x00\n        /* \"#utility.yul\":4887:4889   */\n      0x1f\n        /* \"#utility.yul\":4883:4890   */\n      not\n        /* \"#utility.yul\":4878:4880   */\n      0x1f\n        /* \"#utility.yul\":4871:4876   */\n      dup4\n        /* \"#utility.yul\":4867:4881   */\n      add\n        /* \"#utility.yul\":4863:4891   */\n      and\n        /* \"#utility.yul\":4853:4891   */\n      swap1\n      pop\n        /* \"#utility.yul\":4795:4897   */\n      swap2\n      swap1\n      pop\n      jump\t// out\n        /* \"#utility.yul\":4903:5025   */\n    tag_37:\n        /* \"#utility.yul\":4976:5000   */\n      tag_103\n        /* \"#utility.yul\":4994:4999   */\n      dup2\n        /* \"#utility.yul\":4976:5000   */\n      tag_82\n      jump\t// in\n    tag_103:\n        /* \"#utility.yul\":4969:4974   */\n      dup2\n        /* \"#utility.yul\":4966:5001   */\n      eq\n        /* \"#utility.yul\":4956:5019   */\n      tag_104\n      jumpi\n        /* \"#utility.yul\":5015:5016   */\n      0x00\n        /* \"#utility.yul\":5012:5013   */\n      dup1\n        /* \"#utility.yul\":5005:5017   */\n      revert\n        /* \"#utility.yul\":4956:5019   */\n    tag_104:\n        /* \"#utility.yul\":4903:5025   */\n      pop\n      jump\t// out\n        /* \"#utility.yul\":5031:5153   */\n    tag_47:\n        /* \"#utility.yul\":5104:5128   */\n      tag_106\n        /* \"#utility.yul\":5122:5127   */\n      dup2\n        /* \"#utility.yul\":5104:5128   */\n      tag_89\n      jump\t// in\n    tag_106:\n        /* \"#utility.yul\":5097:5102   */\n      dup2\n        /* \"#utility.yul\":5094:5129   */\n      eq\n        /* \"#utility.yul\":5084:5147   */\n      tag_107\n      jumpi\n        /* \"#utility.yul\":5143:5144   */\n      0x00\n        /* \"#utility.yul\":5140:5141   */\n      dup1\n        /* \"#utility.yul\":5133:5145   */\n      revert\n        /* \"#utility.yul\":5084:5147   */\n    tag_107:\n        /* \"#utility.yul\":5031:5153   */\n      pop\n      jump\t// out\n\n    auxdata: 0xa2646970667358221220338e1c85283682e036a6c75cb081431243e7b9d8927778027ef27dd8be9baf7a64736f6c63430008070033\n}\n",
				"bytecode": {
					"linkReferences": {},
					"object": "608060405234801561001057600080fd5b506103e2806100206000396000f3fe608060405234801561001057600080fd5b50600436106100415760003560e01c806335df01011461004657806363922525146100645780636558b80514610082575b600080fd5b61004e6100b2565b60405161005b91906101ec565b60405180910390f35b61006c6100b7565b6040516100799190610207565b60405180910390f35b61009c6004803603810190610097919061015f565b6100bc565b6040516100a99190610207565b60405180910390f35b600090565b600090565b60009392505050565b60006100d86100d384610247565b610222565b9050828152602081018484840111156100f4576100f361035e565b5b6100ff8482856102ea565b509392505050565b6000813590506101168161037e565b92915050565b600082601f83011261013157610130610359565b5b81356101418482602086016100c5565b91505092915050565b60008135905061015981610395565b92915050565b60008060006060848603121561017857610177610368565b5b60006101868682870161014a565b935050602084013567ffffffffffffffff8111156101a7576101a6610363565b5b6101b38682870161011c565b92505060406101c486828701610107565b9150509250925092565b6101d78161028a565b82525050565b6101e6816102b6565b82525050565b600060208201905061020160008301846101ce565b92915050565b600060208201905061021c60008301846101dd565b92915050565b600061022c61023d565b905061023882826102f9565b919050565b6000604051905090565b600067ffffffffffffffff8211156102625761026161032a565b5b61026b8261036d565b9050602081019050919050565b6000610283826102c0565b9050919050565b60007fffffffffffffffffffffffffffffffffffffffff00000000000000000000000082169050919050565b6000819050919050565b600073ffffffffffffffffffffffffffffffffffffffff82169050919050565b6000819050919050565b82818337600083830152505050565b6103028261036d565b810181811067ffffffffffffffff821117156103215761032061032a565b5b80604052505050565b7f4e487b7100000000000000000000000000000000000000000000000000000000600052604160045260246000fd5b600080fd5b600080fd5b600080fd5b600080fd5b6000601f19601f8301169050919050565b61038781610278565b811461039257600080fd5b50565b61039e816102e0565b81146103a957600080fd5b5056fea2646970667358221220338e1c85283682e036a6c75cb081431243e7b9d8927778027ef27dd8be9baf7a64736f6c63430008070033",
					"opcodes": "PUSH1 0x80 PUSH1 0x40 MSTORE CALLVALUE DUP1 ISZERO PUSH2 0x10 JUMPI PUSH1 0x0 DUP1 REVERT JUMPDEST POP PUSH2 0x3E2 DUP1 PUSH2 0x20 PUSH1 0x0 CODECOPY PUSH1 0x0 RETURN INVALID PUSH1 0x80 PUSH1 0x40 MSTORE CALLVALUE DUP1 ISZERO PUSH2 0x10 JUMPI PUSH1 0x0 DUP1 REVERT JUMPDEST POP PUSH1 0x4 CALLDATASIZE LT PUSH2 0x41 JUMPI PUSH1 0x0 CALLDATALOAD PUSH1 0xE0 SHR DUP1 PUSH4 0x35DF0101 EQ PUSH2 0x46 JUMPI DUP1 PUSH4 0x63922525 EQ PUSH2 0x64 JUMPI DUP1 PUSH4 0x6558B805 EQ PUSH2 0x82 JUMPI JUMPDEST PUSH1 0x0 DUP1 REVERT JUMPDEST PUSH2 0x4E PUSH2 0xB2 JUMP JUMPDEST PUSH1 0x40 MLOAD PUSH2 0x5B SWAP2 SWAP1 PUSH2 0x1EC JUMP JUMPDEST PUSH1 0x40 MLOAD DUP1 SWAP2 SUB SWAP1 RETURN JUMPDEST PUSH2 0x6C PUSH2 0xB7 JUMP JUMPDEST PUSH1 0x40 MLOAD PUSH2 0x79 SWAP2 SWAP1 PUSH2 0x207 JUMP JUMPDEST PUSH1 0x40 MLOAD DUP1 SWAP2 SUB SWAP1 RETURN JUMPDEST PUSH2 0x9C PUSH1 0x4 DUP1 CALLDATASIZE SUB DUP2 ADD SWAP1 PUSH2 0x97 SWAP2 SWAP1 PUSH2 0x15F JUMP JUMPDEST PUSH2 0xBC JUMP JUMPDEST PUSH1 0x40 MLOAD PUSH2 0xA9 SWAP2 SWAP1 PUSH2 0x207 JUMP JUMPDEST PUSH1 0x40 MLOAD DUP1 SWAP2 SUB SWAP1 RETURN JUMPDEST PUSH1 0x0 SWAP1 JUMP JUMPDEST PUSH1 0x0 SWAP1 JUMP JUMPDEST PUSH1 0x0 SWAP4 SWAP3 POP POP POP JUMP JUMPDEST PUSH1 0x0 PUSH2 0xD8 PUSH2 0xD3 DUP5 PUSH2 0x247 JUMP JUMPDEST PUSH2 0x222 JUMP JUMPDEST SWAP1 POP DUP3 DUP2 MSTORE PUSH1 0x20 DUP2 ADD DUP5 DUP5 DUP5 ADD GT ISZERO PUSH2 0xF4 JUMPI PUSH2 0xF3 PUSH2 0x35E JUMP JUMPDEST JUMPDEST PUSH2 0xFF DUP5 DUP3 DUP6 PUSH2 0x2EA JUMP JUMPDEST POP SWAP4 SWAP3 POP POP POP JUMP JUMPDEST PUSH1 0x0 DUP2 CALLDATALOAD SWAP1 POP PUSH2 0x116 DUP2 PUSH2 0x37E JUMP JUMPDEST SWAP3 SWAP2 POP POP JUMP JUMPDEST PUSH1 0x0 DUP3 PUSH1 0x1F DUP4 ADD SLT PUSH2 0x131 JUMPI PUSH2 0x130 PUSH2 0x359 JUMP JUMPDEST JUMPDEST DUP2 CALLDATALOAD PUSH2 0x141 DUP5 DUP3 PUSH1 0x20 DUP7 ADD PUSH2 0xC5 JUMP JUMPDEST SWAP2 POP POP SWAP3 SWAP2 POP POP JUMP JUMPDEST PUSH1 0x0 DUP2 CALLDATALOAD SWAP1 POP PUSH2 0x159 DUP2 PUSH2 0x395 JUMP JUMPDEST SWAP3 SWAP2 POP POP JUMP JUMPDEST PUSH1 0x0 DUP1 PUSH1 0x0 PUSH1 0x60 DUP5 DUP7 SUB SLT ISZERO PUSH2 0x178 JUMPI PUSH2 0x177 PUSH2 0x368 JUMP JUMPDEST JUMPDEST PUSH1 0x0 PUSH2 0x186 DUP7 DUP3 DUP8 ADD PUSH2 0x14A JUMP JUMPDEST SWAP4 POP POP PUSH1 0x20 DUP5 ADD CALLDATALOAD PUSH8 0xFFFFFFFFFFFFFFFF DUP2 GT ISZERO PUSH2 0x1A7 JUMPI PUSH2 0x1A6 PUSH2 0x363 JUMP JUMPDEST JUMPDEST PUSH2 0x1B3 DUP7 DUP3 DUP8 ADD PUSH2 0x11C JUMP JUMPDEST SWAP3 POP POP PUSH1 0x40 PUSH2 0x1C4 DUP7 DUP3 DUP8 ADD PUSH2 0x107 JUMP JUMPDEST SWAP2 POP POP SWAP3 POP SWAP3 POP SWAP3 JUMP JUMPDEST PUSH2 0x1D7 DUP2 PUSH2 0x28A JUMP JUMPDEST DUP3 MSTORE POP POP JUMP JUMPDEST PUSH2 0x1E6 DUP2 PUSH2 0x2B6 JUMP JUMPDEST DUP3 MSTORE POP POP JUMP JUMPDEST PUSH1 0x0 PUSH1 0x20 DUP3 ADD SWAP1 POP PUSH2 0x201 PUSH1 0x0 DUP4 ADD DUP5 PUSH2 0x1CE JUMP JUMPDEST SWAP3 SWAP2 POP POP JUMP JUMPDEST PUSH1 0x0 PUSH1 0x20 DUP3 ADD SWAP1 POP PUSH2 0x21C PUSH1 0x0 DUP4 ADD DUP5 PUSH2 0x1DD JUMP JUMPDEST SWAP3 SWAP2 POP POP JUMP JUMPDEST PUSH1 0x0 PUSH2 0x22C PUSH2 0x23D JUMP JUMPDEST SWAP1 POP PUSH2 0x238 DUP3 DUP3 PUSH2 0x2F9 JUMP JUMPDEST SWAP2 SWAP1 POP JUMP JUMPDEST PUSH1 0x0 PUSH1 0x40 MLOAD SWAP1 POP SWAP1 JUMP JUMPDEST PUSH1 0x0 PUSH8 0xFFFFFFFFFFFFFFFF DUP3 GT ISZERO PUSH2 0x262 JUMPI PUSH2 0x261 PUSH2 0x32A JUMP JUMPDEST JUMPDEST PUSH2 0x26B DUP3 PUSH2 0x36D JUMP JUMPDEST SWAP1 POP PUSH1 0x20 DUP2 ADD SWAP1 POP SWAP2 SWAP1 POP JUMP JUMPDEST PUSH1 0x0 PUSH2 0x283 DUP3 PUSH2 0x2C0 JUMP JUMPDEST SWAP1 POP SWAP2 SWAP1 POP JUMP JUMPDEST PUSH1 0x0 PUSH32 0xFFFFFFFFFFFFFFFFFFFFFFFFFFFFFFFFFFFFFFFF000000000000000000000000 DUP3 AND SWAP1 POP SWAP2 SWAP1 POP JUMP JUMPDEST PUSH1 0x0 DUP2 SWAP1 POP SWAP2 SWAP1 POP JUMP JUMPDEST PUSH1 0x0 PUSH20 0xFFFFFFFFFFFFFFFFFFFFFFFFFFFFFFFFFFFFFFFF DUP3 AND SWAP1 POP SWAP2 SWAP1 POP JUMP JUMPDEST PUSH1 0x0 DUP2 SWAP1 POP SWAP2 SWAP1 POP JUMP JUMPDEST DUP3 DUP2 DUP4 CALLDATACOPY PUSH1 0x0 DUP4 DUP4 ADD MSTORE POP POP POP JUMP JUMPDEST PUSH2 0x302 DUP3 PUSH2 0x36D JUMP JUMPDEST DUP2 ADD DUP2 DUP2 LT PUSH8 0xFFFFFFFFFFFFFFFF DUP3 GT OR ISZERO PUSH2 0x321 JUMPI PUSH2 0x320 PUSH2 0x32A JUMP JUMPDEST JUMPDEST DUP1 PUSH1 0x40 MSTORE POP POP POP JUMP JUMPDEST PUSH32 0x4E487B7100000000000000000000000000000000000000000000000000000000 PUSH1 0x0 MSTORE PUSH1 0x41 PUSH1 0x4 MSTORE PUSH1 0x24 PUSH1 0x0 REVERT JUMPDEST PUSH1 0x0 DUP1 REVERT JUMPDEST PUSH1 0x0 DUP1 REVERT JUMPDEST PUSH1 0x0 DUP1 REVERT JUMPDEST PUSH1 0x0 DUP1 REVERT JUMPDEST PUSH1 0x0 PUSH1 0x1F NOT PUSH1 0x1F DUP4 ADD AND SWAP1 POP SWAP2 SWAP1 POP JUMP JUMPDEST PUSH2 0x387 DUP2 PUSH2 0x278 JUMP JUMPDEST DUP2 EQ PUSH2 0x392 JUMPI PUSH1 0x0 DUP1 REVERT JUMPDEST POP JUMP JUMPDEST PUSH2 0x39E DUP2 PUSH2 0x2E0 JUMP JUMPDEST DUP2 EQ PUSH2 0x3A9 JUMPI PUSH1 0x0 DUP1 REVERT JUMPDEST POP JUMP INVALID LOG2 PUSH5 0x6970667358 0x22 SLT KECCAK256 CALLER DUP15 SHR DUP6 0x28 CALLDATASIZE DUP3 0xE0 CALLDATASIZE 0xA6 0xC7 0x5C 0xB0 DUP2 NUMBER SLT NUMBER 0xE7 0xB9 0xD8 SWAP3 PUSH24 0x78027EF27DD8BE9BAF7A64736F6C63430008070033000000 "
				},
				"gasEstimates": {
					"creation": {
						"codeDepositCost": "198800",
						"executionCost": "245",
						"totalCost": "199045"
					},
					"external": {
						"hashRipemd160()": "313",
						"hashkeccak256(uint256,string,address)": "infinite",
						"hashshar256()": "329"
					}
				},
				"methodIdentifiers": {
					"hashRipemd160()": "35df0101",
					"hashkeccak256(uint256,string,address)": "6558b805",
					"hashshar256()": "63922525"
				}
			},
			"storageLayout": {
				"storage": [],
				"types": null
			},
			"userdoc": {
				"kind": "user",
				"methods": {},
				"version": 1
			}
		}
	}
}