{
	"hashImplementation.sol": {
		"hashImplementation": {
			"abi": [
				{
					"inputs": [
						{
							"internalType": "uint256",
							"name": "_x",
							"type": "uint256"
						},
						{
							"internalType": "string",
							"name": "_str",
							"type": "string"
						},
						{
							"internalType": "address",
							"name": "_add",
							"type": "address"
						}
					],
					"name": "hashRipemd160",
					"outputs": [
						{
							"internalType": "bytes20",
							"name": "",
							"type": "bytes20"
						}
					],
					"stateMutability": "nonpayable",
					"type": "function"
				},
				{
					"inputs": [
						{
							"internalType": "uint256",
							"name": "_x",
							"type": "uint256"
						},
						{
							"internalType": "string",
							"name": "_str",
							"type": "string"
						},
						{
							"internalType": "address",
							"name": "_add",
							"type": "address"
						}
					],
					"name": "hashkeccak256",
					"outputs": [
						{
							"internalType": "bytes32",
							"name": "",
							"type": "bytes32"
						}
					],
					"stateMutability": "pure",
					"type": "function"
				},
				{
					"inputs": [
						{
							"internalType": "uint256",
							"name": "_x",
							"type": "uint256"
						},
						{
							"internalType": "string",
							"name": "_str",
							"type": "string"
						},
						{
							"internalType": "address",
							"name": "_add",
							"type": "address"
						}
					],
					"name": "hashshar256",
					"outputs": [
						{
							"internalType": "bytes32",
							"name": "",
							"type": "bytes32"
						}
					],
					"stateMutability": "pure",
					"type": "function"
				}
			],
			"devdoc": {
				"kind": "dev",
				"methods": {},
				"version": 1
			},
			"evm": {
				"assembly": "    /* \"hashImplementation.sol\":63:604  contract hashImplementation{... */\n  mstore(0x40, 0x80)\n  callvalue\n  dup1\n  iszero\n  tag_1\n  jumpi\n  0x00\n  dup1\n  revert\ntag_1:\n  pop\n  dataSize(sub_0)\n  dup1\n  dataOffset(sub_0)\n  0x00\n  codecopy\n  0x00\n  return\nstop\n\nsub_0: assembly {\n        /* \"hashImplementation.sol\":63:604  contract hashImplementation{... */\n      mstore(0x40, 0x80)\n      callvalue\n      dup1\n      iszero\n      tag_1\n      jumpi\n      0x00\n      dup1\n      revert\n    tag_1:\n      pop\n      jumpi(tag_2, lt(calldatasize, 0x04))\n      shr(0xe0, calldataload(0x00))\n      dup1\n      0x4364b114\n      eq\n      tag_3\n      jumpi\n      dup1\n      0x6558b805\n      eq\n      tag_4\n      jumpi\n      dup1\n      0xcf97b7ec\n      eq\n      tag_5\n      jumpi\n    tag_2:\n      0x00\n      dup1\n      revert\n        /* \"hashImplementation.sol\":436:602  function hashRipemd160(uint _x, string memory _str, address _add) public returns(bytes20){... */\n    tag_3:\n      tag_6\n      0x04\n      dup1\n      calldatasize\n      sub\n      dup2\n      add\n      swap1\n      tag_7\n      swap2\n      swap1\n      tag_8\n      jump\t// in\n    tag_7:\n      tag_9\n      jump\t// in\n    tag_6:\n      mload(0x40)\n      tag_10\n      swap2\n      swap1\n      tag_11\n      jump\t// in\n    tag_10:\n      mload(0x40)\n      dup1\n      swap2\n      sub\n      swap1\n      return\n        /* \"hashImplementation.sol\":97:260  function hashkeccak256(uint _x, string memory _str, address _add) public pure returns(bytes32){... */\n    tag_4:\n      tag_12\n      0x04\n      dup1\n      calldatasize\n      sub\n      dup2\n      add\n      swap1\n      tag_13\n      swap2\n      swap1\n      tag_8\n      jump\t// in\n    tag_13:\n      tag_14\n      jump\t// in\n    tag_12:\n      mload(0x40)\n      tag_15\n      swap2\n      swap1\n      tag_16\n      jump\t// in\n    tag_15:\n      mload(0x40)\n      dup1\n      swap2\n      sub\n      swap1\n      return\n        /* \"hashImplementation.sol\":265:431  function hashshar256(uint _x, string memory _str, address _add) public pure returns(bytes32){... */\n    tag_5:\n      tag_17\n      0x04\n      dup1\n      calldatasize\n      sub\n      dup2\n      add\n      swap1\n      tag_18\n      swap2\n      swap1\n      tag_8\n      jump\t// in\n    tag_18:\n      tag_19\n      jump\t// in\n    tag_17:\n      mload(0x40)\n      tag_20\n      swap2\n      swap1\n      tag_16\n      jump\t// in\n    tag_20:\n      mload(0x40)\n      dup1\n      swap2\n      sub\n      swap1\n      return\n        /* \"hashImplementation.sol\":436:602  function hashRipemd160(uint _x, string memory _str, address _add) public returns(bytes20){... */\n    tag_9:\n        /* \"hashImplementation.sol\":517:524  bytes20 */\n      0x00\n        /* \"hashImplementation.sol\":551:594  ripemd160(abi.encodePacked(_x, _str, _add)) */\n      0x03\n        /* \"hashImplementation.sol\":578:580  _x */\n      dup5\n        /* \"hashImplementation.sol\":582:586  _str */\n      dup5\n        /* \"hashImplementation.sol\":588:592  _add */\n      dup5\n        /* \"hashImplementation.sol\":561:593  abi.encodePacked(_x, _str, _add) */\n      add(0x20, mload(0x40))\n      tag_22\n      swap4\n      swap3\n      swap2\n      swap1\n      tag_23\n      jump\t// in\n    tag_22:\n      mload(0x40)\n      0x20\n      dup2\n      dup4\n      sub\n      sub\n      dup2\n      mstore\n      swap1\n      0x40\n      mstore\n        /* \"hashImplementation.sol\":551:594  ripemd160(abi.encodePacked(_x, _str, _add)) */\n      mload(0x40)\n      tag_24\n      swap2\n      swap1\n      tag_25\n      jump\t// in\n    tag_24:\n      0x20\n      mload(0x40)\n      dup1\n      dup4\n      sub\n      dup2\n      dup6\n      gas\n      staticcall\n      iszero\n      dup1\n      iszero\n      tag_27\n      jumpi\n      returndatasize\n      0x00\n      dup1\n      returndatacopy\n      revert(0x00, returndatasize)\n    tag_27:\n      pop\n      pop\n      pop\n      shl(0x60, mload(mload(0x40)))\n        /* \"hashImplementation.sol\":544:594  return ripemd160(abi.encodePacked(_x, _str, _add)) */\n      swap1\n      pop\n        /* \"hashImplementation.sol\":436:602  function hashRipemd160(uint _x, string memory _str, address _add) public returns(bytes20){... */\n      swap4\n      swap3\n      pop\n      pop\n      pop\n      jump\t// out\n        /* \"hashImplementation.sol\":97:260  function hashkeccak256(uint _x, string memory _str, address _add) public pure returns(bytes32){... */\n    tag_14:\n        /* \"hashImplementation.sol\":183:190  bytes32 */\n      0x00\n        /* \"hashImplementation.sol\":236:238  _x */\n      dup4\n        /* \"hashImplementation.sol\":240:244  _str */\n      dup4\n        /* \"hashImplementation.sol\":246:250  _add */\n      dup4\n        /* \"hashImplementation.sol\":219:251  abi.encodePacked(_x, _str, _add) */\n      add(0x20, mload(0x40))\n      tag_29\n      swap4\n      swap3\n      swap2\n      swap1\n      tag_23\n      jump\t// in\n    tag_29:\n      mload(0x40)\n      0x20\n      dup2\n      dup4\n      sub\n      sub\n      dup2\n      mstore\n      swap1\n      0x40\n      mstore\n        /* \"hashImplementation.sol\":209:252  keccak256(abi.encodePacked(_x, _str, _add)) */\n      dup1\n      mload\n      swap1\n      0x20\n      add\n      keccak256\n        /* \"hashImplementation.sol\":202:252  return keccak256(abi.encodePacked(_x, _str, _add)) */\n      swap1\n      pop\n        /* \"hashImplementation.sol\":97:260  function hashkeccak256(uint _x, string memory _str, address _add) public pure returns(bytes32){... */\n      swap4\n      swap3\n      pop\n      pop\n      pop\n      jump\t// out\n        /* \"hashImplementation.sol\":265:431  function hashshar256(uint _x, string memory _str, address _add) public pure returns(bytes32){... */\n    tag_19:\n        /* \"hashImplementation.sol\":349:356  bytes32 */\n      0x00\n        /* \"hashImplementation.sol\":383:423  sha256(abi.encodePacked(_x, _str, _add)) */\n      0x02\n        /* \"hashImplementation.sol\":407:409  _x */\n      dup5\n        /* \"hashImplementation.sol\":411:415  _str */\n      dup5\n        /* \"hashImplementation.sol\":417:421  _add */\n      dup5\n        /* \"hashImplementation.sol\":390:422  abi.encodePacked(_x, _str, _add) */\n      add(0x20, mload(0x40))\n      tag_31\n      swap4\n      swap3\n      swap2\n      swap1\n      tag_23\n      jump\t// in\n    tag_31:\n      mload(0x40)\n      0x20\n      dup2\n      dup4\n      sub\n      sub\n      dup2\n      mstore\n      swap1\n      0x40\n      mstore\n        /* \"hashImplementation.sol\":383:423  sha256(abi.encodePacked(_x, _str, _add)) */\n      mload(0x40)\n      tag_32\n      swap2\n      swap1\n      tag_25\n      jump\t// in\n    tag_32:\n      0x20\n      mload(0x40)\n      dup1\n      dup4\n      sub\n      dup2\n      dup6\n      gas\n      staticcall\n      iszero\n      dup1\n      iszero\n      tag_34\n      jumpi\n      returndatasize\n      0x00\n      dup1\n      returndatacopy\n      revert(0x00, returndatasize)\n    tag_34:\n      pop\n      pop\n      pop\n      mload(0x40)\n      returndatasize\n      not(0x1f)\n      0x1f\n      dup3\n      add\n      and\n      dup3\n      add\n      dup1\n      0x40\n      mstore\n      pop\n      dup2\n      add\n      swap1\n      tag_35\n      swap2\n      swap1\n      tag_36\n      jump\t// in\n    tag_35:\n        /* \"hashImplementation.sol\":376:423  return sha256(abi.encodePacked(_x, _str, _add)) */\n      swap1\n      pop\n        /* \"hashImplementation.sol\":265:431  function hashshar256(uint _x, string memory _str, address _add) public pure returns(bytes32){... */\n      swap4\n      swap3\n      pop\n      pop\n      pop\n      jump\t// out\n        /* \"#utility.yul\":7:419   */\n    tag_38:\n        /* \"#utility.yul\":85:90   */\n      0x00\n        /* \"#utility.yul\":110:176   */\n      tag_40\n        /* \"#utility.yul\":126:175   */\n      tag_41\n        /* \"#utility.yul\":168:174   */\n      dup5\n        /* \"#utility.yul\":126:175   */\n      tag_42\n      jump\t// in\n    tag_41:\n        /* \"#utility.yul\":110:176   */\n      tag_43\n      jump\t// in\n    tag_40:\n        /* \"#utility.yul\":101:176   */\n      swap1\n      pop\n        /* \"#utility.yul\":199:205   */\n      dup3\n        /* \"#utility.yul\":192:197   */\n      dup2\n        /* \"#utility.yul\":185:206   */\n      mstore\n        /* \"#utility.yul\":237:241   */\n      0x20\n        /* \"#utility.yul\":230:235   */\n      dup2\n        /* \"#utility.yul\":226:242   */\n      add\n        /* \"#utility.yul\":275:278   */\n      dup5\n        /* \"#utility.yul\":266:272   */\n      dup5\n        /* \"#utility.yul\":261:264   */\n      dup5\n        /* \"#utility.yul\":257:273   */\n      add\n        /* \"#utility.yul\":254:279   */\n      gt\n        /* \"#utility.yul\":251:363   */\n      iszero\n      tag_44\n      jumpi\n        /* \"#utility.yul\":282:361   */\n      tag_45\n      tag_46\n      jump\t// in\n    tag_45:\n        /* \"#utility.yul\":251:363   */\n    tag_44:\n        /* \"#utility.yul\":372:413   */\n      tag_47\n        /* \"#utility.yul\":406:412   */\n      dup5\n        /* \"#utility.yul\":401:404   */\n      dup3\n        /* \"#utility.yul\":396:399   */\n      dup6\n        /* \"#utility.yul\":372:413   */\n      tag_48\n      jump\t// in\n    tag_47:\n        /* \"#utility.yul\":91:419   */\n      pop\n        /* \"#utility.yul\":7:419   */\n      swap4\n      swap3\n      pop\n      pop\n      pop\n      jump\t// out\n        /* \"#utility.yul\":425:564   */\n    tag_49:\n        /* \"#utility.yul\":471:476   */\n      0x00\n        /* \"#utility.yul\":509:515   */\n      dup2\n        /* \"#utility.yul\":496:516   */\n      calldataload\n        /* \"#utility.yul\":487:516   */\n      swap1\n      pop\n        /* \"#utility.yul\":525:558   */\n      tag_51\n        /* \"#utility.yul\":552:557   */\n      dup2\n        /* \"#utility.yul\":525:558   */\n      tag_52\n      jump\t// in\n    tag_51:\n        /* \"#utility.yul\":425:564   */\n      swap3\n      swap2\n      pop\n      pop\n      jump\t// out\n        /* \"#utility.yul\":570:713   */\n    tag_53:\n        /* \"#utility.yul\":627:632   */\n      0x00\n        /* \"#utility.yul\":658:664   */\n      dup2\n        /* \"#utility.yul\":652:665   */\n      mload\n        /* \"#utility.yul\":643:665   */\n      swap1\n      pop\n        /* \"#utility.yul\":674:707   */\n      tag_55\n        /* \"#utility.yul\":701:706   */\n      dup2\n        /* \"#utility.yul\":674:707   */\n      tag_56\n      jump\t// in\n    tag_55:\n        /* \"#utility.yul\":570:713   */\n      swap3\n      swap2\n      pop\n      pop\n      jump\t// out\n        /* \"#utility.yul\":733:1073   */\n    tag_57:\n        /* \"#utility.yul\":789:794   */\n      0x00\n        /* \"#utility.yul\":838:841   */\n      dup3\n        /* \"#utility.yul\":831:835   */\n      0x1f\n        /* \"#utility.yul\":823:829   */\n      dup4\n        /* \"#utility.yul\":819:836   */\n      add\n        /* \"#utility.yul\":815:842   */\n      slt\n        /* \"#utility.yul\":805:927   */\n      tag_59\n      jumpi\n        /* \"#utility.yul\":846:925   */\n      tag_60\n      tag_61\n      jump\t// in\n    tag_60:\n        /* \"#utility.yul\":805:927   */\n    tag_59:\n        /* \"#utility.yul\":963:969   */\n      dup2\n        /* \"#utility.yul\":950:970   */\n      calldataload\n        /* \"#utility.yul\":988:1067   */\n      tag_62\n        /* \"#utility.yul\":1063:1066   */\n      dup5\n        /* \"#utility.yul\":1055:1061   */\n      dup3\n        /* \"#utility.yul\":1048:1052   */\n      0x20\n        /* \"#utility.yul\":1040:1046   */\n      dup7\n        /* \"#utility.yul\":1036:1053   */\n      add\n        /* \"#utility.yul\":988:1067   */\n      tag_38\n      jump\t// in\n    tag_62:\n        /* \"#utility.yul\":979:1067   */\n      swap2\n      pop\n        /* \"#utility.yul\":795:1073   */\n      pop\n        /* \"#utility.yul\":733:1073   */\n      swap3\n      swap2\n      pop\n      pop\n      jump\t// out\n        /* \"#utility.yul\":1079:1218   */\n    tag_63:\n        /* \"#utility.yul\":1125:1130   */\n      0x00\n        /* \"#utility.yul\":1163:1169   */\n      dup2\n        /* \"#utility.yul\":1150:1170   */\n      calldataload\n        /* \"#utility.yul\":1141:1170   */\n      swap1\n      pop\n        /* \"#utility.yul\":1179:1212   */\n      tag_65\n        /* \"#utility.yul\":1206:1211   */\n      dup2\n        /* \"#utility.yul\":1179:1212   */\n      tag_66\n      jump\t// in\n    tag_65:\n        /* \"#utility.yul\":1079:1218   */\n      swap3\n      swap2\n      pop\n      pop\n      jump\t// out\n        /* \"#utility.yul\":1224:1575   */\n    tag_36:\n        /* \"#utility.yul\":1294:1300   */\n      0x00\n        /* \"#utility.yul\":1343:1345   */\n      0x20\n        /* \"#utility.yul\":1331:1340   */\n      dup3\n        /* \"#utility.yul\":1322:1329   */\n      dup5\n        /* \"#utility.yul\":1318:1341   */\n      sub\n        /* \"#utility.yul\":1314:1346   */\n      slt\n        /* \"#utility.yul\":1311:1430   */\n      iszero\n      tag_68\n      jumpi\n        /* \"#utility.yul\":1349:1428   */\n      tag_69\n      tag_70\n      jump\t// in\n    tag_69:\n        /* \"#utility.yul\":1311:1430   */\n    tag_68:\n        /* \"#utility.yul\":1469:1470   */\n      0x00\n        /* \"#utility.yul\":1494:1558   */\n      tag_71\n        /* \"#utility.yul\":1550:1557   */\n      dup5\n        /* \"#utility.yul\":1541:1547   */\n      dup3\n        /* \"#utility.yul\":1530:1539   */\n      dup6\n        /* \"#utility.yul\":1526:1548   */\n      add\n        /* \"#utility.yul\":1494:1558   */\n      tag_53\n      jump\t// in\n    tag_71:\n        /* \"#utility.yul\":1484:1558   */\n      swap2\n      pop\n        /* \"#utility.yul\":1440:1568   */\n      pop\n        /* \"#utility.yul\":1224:1575   */\n      swap3\n      swap2\n      pop\n      pop\n      jump\t// out\n        /* \"#utility.yul\":1581:2380   */\n    tag_8:\n        /* \"#utility.yul\":1668:1674   */\n      0x00\n        /* \"#utility.yul\":1676:1682   */\n      dup1\n        /* \"#utility.yul\":1684:1690   */\n      0x00\n        /* \"#utility.yul\":1733:1735   */\n      0x60\n        /* \"#utility.yul\":1721:1730   */\n      dup5\n        /* \"#utility.yul\":1712:1719   */\n      dup7\n        /* \"#utility.yul\":1708:1731   */\n      sub\n        /* \"#utility.yul\":1704:1736   */\n      slt\n        /* \"#utility.yul\":1701:1820   */\n      iszero\n      tag_73\n      jumpi\n        /* \"#utility.yul\":1739:1818   */\n      tag_74\n      tag_70\n      jump\t// in\n    tag_74:\n        /* \"#utility.yul\":1701:1820   */\n    tag_73:\n        /* \"#utility.yul\":1859:1860   */\n      0x00\n        /* \"#utility.yul\":1884:1937   */\n      tag_75\n        /* \"#utility.yul\":1929:1936   */\n      dup7\n        /* \"#utility.yul\":1920:1926   */\n      dup3\n        /* \"#utility.yul\":1909:1918   */\n      dup8\n        /* \"#utility.yul\":1905:1927   */\n      add\n        /* \"#utility.yul\":1884:1937   */\n      tag_63\n      jump\t// in\n    tag_75:\n        /* \"#utility.yul\":1874:1937   */\n      swap4\n      pop\n        /* \"#utility.yul\":1830:1947   */\n      pop\n        /* \"#utility.yul\":2014:2016   */\n      0x20\n        /* \"#utility.yul\":2003:2012   */\n      dup5\n        /* \"#utility.yul\":1999:2017   */\n      add\n        /* \"#utility.yul\":1986:2018   */\n      calldataload\n        /* \"#utility.yul\":2045:2063   */\n      0xffffffffffffffff\n        /* \"#utility.yul\":2037:2043   */\n      dup2\n        /* \"#utility.yul\":2034:2064   */\n      gt\n        /* \"#utility.yul\":2031:2148   */\n      iszero\n      tag_76\n      jumpi\n        /* \"#utility.yul\":2067:2146   */\n      tag_77\n      tag_78\n      jump\t// in\n    tag_77:\n        /* \"#utility.yul\":2031:2148   */\n    tag_76:\n        /* \"#utility.yul\":2172:2235   */\n      tag_79\n        /* \"#utility.yul\":2227:2234   */\n      dup7\n        /* \"#utility.yul\":2218:2224   */\n      dup3\n        /* \"#utility.yul\":2207:2216   */\n      dup8\n        /* \"#utility.yul\":2203:2225   */\n      add\n        /* \"#utility.yul\":2172:2235   */\n      tag_57\n      jump\t// in\n    tag_79:\n        /* \"#utility.yul\":2162:2235   */\n      swap3\n      pop\n        /* \"#utility.yul\":1957:2245   */\n      pop\n        /* \"#utility.yul\":2284:2286   */\n      0x40\n        /* \"#utility.yul\":2310:2363   */\n      tag_80\n        /* \"#utility.yul\":2355:2362   */\n      dup7\n        /* \"#utility.yul\":2346:2352   */\n      dup3\n        /* \"#utility.yul\":2335:2344   */\n      dup8\n        /* \"#utility.yul\":2331:2353   */\n      add\n        /* \"#utility.yul\":2310:2363   */\n      tag_49\n      jump\t// in\n    tag_80:\n        /* \"#utility.yul\":2300:2363   */\n      swap2\n      pop\n        /* \"#utility.yul\":2255:2373   */\n      pop\n        /* \"#utility.yul\":1581:2380   */\n      swap3\n      pop\n      swap3\n      pop\n      swap3\n      jump\t// out\n        /* \"#utility.yul\":2386:2543   */\n    tag_81:\n        /* \"#utility.yul\":2491:2536   */\n      tag_83\n        /* \"#utility.yul\":2511:2535   */\n      tag_84\n        /* \"#utility.yul\":2529:2534   */\n      dup3\n        /* \"#utility.yul\":2511:2535   */\n      tag_85\n      jump\t// in\n    tag_84:\n        /* \"#utility.yul\":2491:2536   */\n      tag_86\n      jump\t// in\n    tag_83:\n        /* \"#utility.yul\":2486:2489   */\n      dup3\n        /* \"#utility.yul\":2479:2537   */\n      mstore\n        /* \"#utility.yul\":2386:2543   */\n      pop\n      pop\n      jump\t// out\n        /* \"#utility.yul\":2549:2667   */\n    tag_87:\n        /* \"#utility.yul\":2636:2660   */\n      tag_89\n        /* \"#utility.yul\":2654:2659   */\n      dup2\n        /* \"#utility.yul\":2636:2660   */\n      tag_90\n      jump\t// in\n    tag_89:\n        /* \"#utility.yul\":2631:2634   */\n      dup3\n        /* \"#utility.yul\":2624:2661   */\n      mstore\n        /* \"#utility.yul\":2549:2667   */\n      pop\n      pop\n      jump\t// out\n        /* \"#utility.yul\":2673:2791   */\n    tag_91:\n        /* \"#utility.yul\":2760:2784   */\n      tag_93\n        /* \"#utility.yul\":2778:2783   */\n      dup2\n        /* \"#utility.yul\":2760:2784   */\n      tag_94\n      jump\t// in\n    tag_93:\n        /* \"#utility.yul\":2755:2758   */\n      dup3\n        /* \"#utility.yul\":2748:2785   */\n      mstore\n        /* \"#utility.yul\":2673:2791   */\n      pop\n      pop\n      jump\t// out\n        /* \"#utility.yul\":2797:3170   */\n    tag_95:\n        /* \"#utility.yul\":2901:2904   */\n      0x00\n        /* \"#utility.yul\":2929:2967   */\n      tag_97\n        /* \"#utility.yul\":2961:2966   */\n      dup3\n        /* \"#utility.yul\":2929:2967   */\n      tag_98\n      jump\t// in\n    tag_97:\n        /* \"#utility.yul\":2983:3071   */\n      tag_99\n        /* \"#utility.yul\":3064:3070   */\n      dup2\n        /* \"#utility.yul\":3059:3062   */\n      dup6\n        /* \"#utility.yul\":2983:3071   */\n      tag_100\n      jump\t// in\n    tag_99:\n        /* \"#utility.yul\":2976:3071   */\n      swap4\n      pop\n        /* \"#utility.yul\":3080:3132   */\n      tag_101\n        /* \"#utility.yul\":3125:3131   */\n      dup2\n        /* \"#utility.yul\":3120:3123   */\n      dup6\n        /* \"#utility.yul\":3113:3117   */\n      0x20\n        /* \"#utility.yul\":3106:3111   */\n      dup7\n        /* \"#utility.yul\":3102:3118   */\n      add\n        /* \"#utility.yul\":3080:3132   */\n      tag_102\n      jump\t// in\n    tag_101:\n        /* \"#utility.yul\":3157:3163   */\n      dup1\n        /* \"#utility.yul\":3152:3155   */\n      dup5\n        /* \"#utility.yul\":3148:3164   */\n      add\n        /* \"#utility.yul\":3141:3164   */\n      swap2\n      pop\n        /* \"#utility.yul\":2905:3170   */\n      pop\n        /* \"#utility.yul\":2797:3170   */\n      swap3\n      swap2\n      pop\n      pop\n      jump\t// out\n        /* \"#utility.yul\":3176:3553   */\n    tag_103:\n        /* \"#utility.yul\":3282:3285   */\n      0x00\n        /* \"#utility.yul\":3310:3349   */\n      tag_105\n        /* \"#utility.yul\":3343:3348   */\n      dup3\n        /* \"#utility.yul\":3310:3349   */\n      tag_106\n      jump\t// in\n    tag_105:\n        /* \"#utility.yul\":3365:3454   */\n      tag_107\n        /* \"#utility.yul\":3447:3453   */\n      dup2\n        /* \"#utility.yul\":3442:3445   */\n      dup6\n        /* \"#utility.yul\":3365:3454   */\n      tag_108\n      jump\t// in\n    tag_107:\n        /* \"#utility.yul\":3358:3454   */\n      swap4\n      pop\n        /* \"#utility.yul\":3463:3515   */\n      tag_109\n        /* \"#utility.yul\":3508:3514   */\n      dup2\n        /* \"#utility.yul\":3503:3506   */\n      dup6\n        /* \"#utility.yul\":3496:3500   */\n      0x20\n        /* \"#utility.yul\":3489:3494   */\n      dup7\n        /* \"#utility.yul\":3485:3501   */\n      add\n        /* \"#utility.yul\":3463:3515   */\n      tag_102\n      jump\t// in\n    tag_109:\n        /* \"#utility.yul\":3540:3546   */\n      dup1\n        /* \"#utility.yul\":3535:3538   */\n      dup5\n        /* \"#utility.yul\":3531:3547   */\n      add\n        /* \"#utility.yul\":3524:3547   */\n      swap2\n      pop\n        /* \"#utility.yul\":3286:3553   */\n      pop\n        /* \"#utility.yul\":3176:3553   */\n      swap3\n      swap2\n      pop\n      pop\n      jump\t// out\n        /* \"#utility.yul\":3559:3716   */\n    tag_110:\n        /* \"#utility.yul\":3664:3709   */\n      tag_112\n        /* \"#utility.yul\":3684:3708   */\n      tag_113\n        /* \"#utility.yul\":3702:3707   */\n      dup3\n        /* \"#utility.yul\":3684:3708   */\n      tag_114\n      jump\t// in\n    tag_113:\n        /* \"#utility.yul\":3664:3709   */\n      tag_115\n      jump\t// in\n    tag_112:\n        /* \"#utility.yul\":3659:3662   */\n      dup3\n        /* \"#utility.yul\":3652:3710   */\n      mstore\n        /* \"#utility.yul\":3559:3716   */\n      pop\n      pop\n      jump\t// out\n        /* \"#utility.yul\":3722:3993   */\n    tag_25:\n        /* \"#utility.yul\":3852:3855   */\n      0x00\n        /* \"#utility.yul\":3874:3967   */\n      tag_117\n        /* \"#utility.yul\":3963:3966   */\n      dup3\n        /* \"#utility.yul\":3954:3960   */\n      dup5\n        /* \"#utility.yul\":3874:3967   */\n      tag_95\n      jump\t// in\n    tag_117:\n        /* \"#utility.yul\":3867:3967   */\n      swap2\n      pop\n        /* \"#utility.yul\":3984:3987   */\n      dup2\n        /* \"#utility.yul\":3977:3987   */\n      swap1\n      pop\n        /* \"#utility.yul\":3722:3993   */\n      swap3\n      swap2\n      pop\n      pop\n      jump\t// out\n        /* \"#utility.yul\":3999:4556   */\n    tag_23:\n        /* \"#utility.yul\":4187:4190   */\n      0x00\n        /* \"#utility.yul\":4202:4277   */\n      tag_119\n        /* \"#utility.yul\":4273:4276   */\n      dup3\n        /* \"#utility.yul\":4264:4270   */\n      dup7\n        /* \"#utility.yul\":4202:4277   */\n      tag_110\n      jump\t// in\n    tag_119:\n        /* \"#utility.yul\":4302:4304   */\n      0x20\n        /* \"#utility.yul\":4297:4300   */\n      dup3\n        /* \"#utility.yul\":4293:4305   */\n      add\n        /* \"#utility.yul\":4286:4305   */\n      swap2\n      pop\n        /* \"#utility.yul\":4322:4417   */\n      tag_120\n        /* \"#utility.yul\":4413:4416   */\n      dup3\n        /* \"#utility.yul\":4404:4410   */\n      dup6\n        /* \"#utility.yul\":4322:4417   */\n      tag_103\n      jump\t// in\n    tag_120:\n        /* \"#utility.yul\":4315:4417   */\n      swap2\n      pop\n        /* \"#utility.yul\":4427:4502   */\n      tag_121\n        /* \"#utility.yul\":4498:4501   */\n      dup3\n        /* \"#utility.yul\":4489:4495   */\n      dup5\n        /* \"#utility.yul\":4427:4502   */\n      tag_81\n      jump\t// in\n    tag_121:\n        /* \"#utility.yul\":4527:4529   */\n      0x14\n        /* \"#utility.yul\":4522:4525   */\n      dup3\n        /* \"#utility.yul\":4518:4530   */\n      add\n        /* \"#utility.yul\":4511:4530   */\n      swap2\n      pop\n        /* \"#utility.yul\":4547:4550   */\n      dup2\n        /* \"#utility.yul\":4540:4550   */\n      swap1\n      pop\n        /* \"#utility.yul\":3999:4556   */\n      swap5\n      swap4\n      pop\n      pop\n      pop\n      pop\n      jump\t// out\n        /* \"#utility.yul\":4562:4784   */\n    tag_11:\n        /* \"#utility.yul\":4655:4659   */\n      0x00\n        /* \"#utility.yul\":4693:4695   */\n      0x20\n        /* \"#utility.yul\":4682:4691   */\n      dup3\n        /* \"#utility.yul\":4678:4696   */\n      add\n        /* \"#utility.yul\":4670:4696   */\n      swap1\n      pop\n        /* \"#utility.yul\":4706:4777   */\n      tag_123\n        /* \"#utility.yul\":4774:4775   */\n      0x00\n        /* \"#utility.yul\":4763:4772   */\n      dup4\n        /* \"#utility.yul\":4759:4776   */\n      add\n        /* \"#utility.yul\":4750:4756   */\n      dup5\n        /* \"#utility.yul\":4706:4777   */\n      tag_87\n      jump\t// in\n    tag_123:\n        /* \"#utility.yul\":4562:4784   */\n      swap3\n      swap2\n      pop\n      pop\n      jump\t// out\n        /* \"#utility.yul\":4790:5012   */\n    tag_16:\n        /* \"#utility.yul\":4883:4887   */\n      0x00\n        /* \"#utility.yul\":4921:4923   */\n      0x20\n        /* \"#utility.yul\":4910:4919   */\n      dup3\n        /* \"#utility.yul\":4906:4924   */\n      add\n        /* \"#utility.yul\":4898:4924   */\n      swap1\n      pop\n        /* \"#utility.yul\":4934:5005   */\n      tag_125\n        /* \"#utility.yul\":5002:5003   */\n      0x00\n        /* \"#utility.yul\":4991:5000   */\n      dup4\n        /* \"#utility.yul\":4987:5004   */\n      add\n        /* \"#utility.yul\":4978:4984   */\n      dup5\n        /* \"#utility.yul\":4934:5005   */\n      tag_91\n      jump\t// in\n    tag_125:\n        /* \"#utility.yul\":4790:5012   */\n      swap3\n      swap2\n      pop\n      pop\n      jump\t// out\n        /* \"#utility.yul\":5018:5147   */\n    tag_43:\n        /* \"#utility.yul\":5052:5058   */\n      0x00\n        /* \"#utility.yul\":5079:5099   */\n      tag_127\n      tag_128\n      jump\t// in\n    tag_127:\n        /* \"#utility.yul\":5069:5099   */\n      swap1\n      pop\n        /* \"#utility.yul\":5108:5141   */\n      tag_129\n        /* \"#utility.yul\":5136:5140   */\n      dup3\n        /* \"#utility.yul\":5128:5134   */\n      dup3\n        /* \"#utility.yul\":5108:5141   */\n      tag_130\n      jump\t// in\n    tag_129:\n        /* \"#utility.yul\":5018:5147   */\n      swap2\n      swap1\n      pop\n      jump\t// out\n        /* \"#utility.yul\":5153:5228   */\n    tag_128:\n        /* \"#utility.yul\":5186:5192   */\n      0x00\n        /* \"#utility.yul\":5219:5221   */\n      0x40\n        /* \"#utility.yul\":5213:5222   */\n      mload\n        /* \"#utility.yul\":5203:5222   */\n      swap1\n      pop\n        /* \"#utility.yul\":5153:5228   */\n      swap1\n      jump\t// out\n        /* \"#utility.yul\":5234:5542   */\n    tag_42:\n        /* \"#utility.yul\":5296:5300   */\n      0x00\n        /* \"#utility.yul\":5386:5404   */\n      0xffffffffffffffff\n        /* \"#utility.yul\":5378:5384   */\n      dup3\n        /* \"#utility.yul\":5375:5405   */\n      gt\n        /* \"#utility.yul\":5372:5428   */\n      iszero\n      tag_133\n      jumpi\n        /* \"#utility.yul\":5408:5426   */\n      tag_134\n      tag_135\n      jump\t// in\n    tag_134:\n        /* \"#utility.yul\":5372:5428   */\n    tag_133:\n        /* \"#utility.yul\":5446:5475   */\n      tag_136\n        /* \"#utility.yul\":5468:5474   */\n      dup3\n        /* \"#utility.yul\":5446:5475   */\n      tag_137\n      jump\t// in\n    tag_136:\n        /* \"#utility.yul\":5438:5475   */\n      swap1\n      pop\n        /* \"#utility.yul\":5530:5534   */\n      0x20\n        /* \"#utility.yul\":5524:5528   */\n      dup2\n        /* \"#utility.yul\":5520:5535   */\n      add\n        /* \"#utility.yul\":5512:5535   */\n      swap1\n      pop\n        /* \"#utility.yul\":5234:5542   */\n      swap2\n      swap1\n      pop\n      jump\t// out\n        /* \"#utility.yul\":5548:5646   */\n    tag_98:\n        /* \"#utility.yul\":5599:5605   */\n      0x00\n        /* \"#utility.yul\":5633:5638   */\n      dup2\n        /* \"#utility.yul\":5627:5639   */\n      mload\n        /* \"#utility.yul\":5617:5639   */\n      swap1\n      pop\n        /* \"#utility.yul\":5548:5646   */\n      swap2\n      swap1\n      pop\n      jump\t// out\n        /* \"#utility.yul\":5652:5751   */\n    tag_106:\n        /* \"#utility.yul\":5704:5710   */\n      0x00\n        /* \"#utility.yul\":5738:5743   */\n      dup2\n        /* \"#utility.yul\":5732:5744   */\n      mload\n        /* \"#utility.yul\":5722:5744   */\n      swap1\n      pop\n        /* \"#utility.yul\":5652:5751   */\n      swap2\n      swap1\n      pop\n      jump\t// out\n        /* \"#utility.yul\":5757:5904   */\n    tag_100:\n        /* \"#utility.yul\":5858:5869   */\n      0x00\n        /* \"#utility.yul\":5895:5898   */\n      dup2\n        /* \"#utility.yul\":5880:5898   */\n      swap1\n      pop\n        /* \"#utility.yul\":5757:5904   */\n      swap3\n      swap2\n      pop\n      pop\n      jump\t// out\n        /* \"#utility.yul\":5910:6058   */\n    tag_108:\n        /* \"#utility.yul\":6012:6023   */\n      0x00\n        /* \"#utility.yul\":6049:6052   */\n      dup2\n        /* \"#utility.yul\":6034:6052   */\n      swap1\n      pop\n        /* \"#utility.yul\":5910:6058   */\n      swap3\n      swap2\n      pop\n      pop\n      jump\t// out\n        /* \"#utility.yul\":6064:6160   */\n    tag_85:\n        /* \"#utility.yul\":6101:6108   */\n      0x00\n        /* \"#utility.yul\":6130:6154   */\n      tag_143\n        /* \"#utility.yul\":6148:6153   */\n      dup3\n        /* \"#utility.yul\":6130:6154   */\n      tag_144\n      jump\t// in\n    tag_143:\n        /* \"#utility.yul\":6119:6154   */\n      swap1\n      pop\n        /* \"#utility.yul\":6064:6160   */\n      swap2\n      swap1\n      pop\n      jump\t// out\n        /* \"#utility.yul\":6166:6316   */\n    tag_90:\n        /* \"#utility.yul\":6203:6210   */\n      0x00\n        /* \"#utility.yul\":6243:6309   */\n      0xffffffffffffffffffffffffffffffffffffffff000000000000000000000000\n        /* \"#utility.yul\":6236:6241   */\n      dup3\n        /* \"#utility.yul\":6232:6310   */\n      and\n        /* \"#utility.yul\":6221:6310   */\n      swap1\n      pop\n        /* \"#utility.yul\":6166:6316   */\n      swap2\n      swap1\n      pop\n      jump\t// out\n        /* \"#utility.yul\":6322:6399   */\n    tag_94:\n        /* \"#utility.yul\":6359:6366   */\n      0x00\n        /* \"#utility.yul\":6388:6393   */\n      dup2\n        /* \"#utility.yul\":6377:6393   */\n      swap1\n      pop\n        /* \"#utility.yul\":6322:6399   */\n      swap2\n      swap1\n      pop\n      jump\t// out\n        /* \"#utility.yul\":6405:6531   */\n    tag_144:\n        /* \"#utility.yul\":6442:6449   */\n      0x00\n        /* \"#utility.yul\":6482:6524   */\n      0xffffffffffffffffffffffffffffffffffffffff\n        /* \"#utility.yul\":6475:6480   */\n      dup3\n        /* \"#utility.yul\":6471:6525   */\n      and\n        /* \"#utility.yul\":6460:6525   */\n      swap1\n      pop\n        /* \"#utility.yul\":6405:6531   */\n      swap2\n      swap1\n      pop\n      jump\t// out\n        /* \"#utility.yul\":6537:6614   */\n    tag_114:\n        /* \"#utility.yul\":6574:6581   */\n      0x00\n        /* \"#utility.yul\":6603:6608   */\n      dup2\n        /* \"#utility.yul\":6592:6608   */\n      swap1\n      pop\n        /* \"#utility.yul\":6537:6614   */\n      swap2\n      swap1\n      pop\n      jump\t// out\n        /* \"#utility.yul\":6620:6774   */\n    tag_48:\n        /* \"#utility.yul\":6704:6710   */\n      dup3\n        /* \"#utility.yul\":6699:6702   */\n      dup2\n        /* \"#utility.yul\":6694:6697   */\n      dup4\n        /* \"#utility.yul\":6681:6711   */\n      calldatacopy\n        /* \"#utility.yul\":6766:6767   */\n      0x00\n        /* \"#utility.yul\":6757:6763   */\n      dup4\n        /* \"#utility.yul\":6752:6755   */\n      dup4\n        /* \"#utility.yul\":6748:6764   */\n      add\n        /* \"#utility.yul\":6741:6768   */\n      mstore\n        /* \"#utility.yul\":6620:6774   */\n      pop\n      pop\n      pop\n      jump\t// out\n        /* \"#utility.yul\":6780:7087   */\n    tag_102:\n        /* \"#utility.yul\":6848:6849   */\n      0x00\n        /* \"#utility.yul\":6858:6971   */\n    tag_151:\n        /* \"#utility.yul\":6872:6878   */\n      dup4\n        /* \"#utility.yul\":6869:6870   */\n      dup2\n        /* \"#utility.yul\":6866:6879   */\n      lt\n        /* \"#utility.yul\":6858:6971   */\n      iszero\n      tag_153\n      jumpi\n        /* \"#utility.yul\":6957:6958   */\n      dup1\n        /* \"#utility.yul\":6952:6955   */\n      dup3\n        /* \"#utility.yul\":6948:6959   */\n      add\n        /* \"#utility.yul\":6942:6960   */\n      mload\n        /* \"#utility.yul\":6938:6939   */\n      dup2\n        /* \"#utility.yul\":6933:6936   */\n      dup5\n        /* \"#utility.yul\":6929:6940   */\n      add\n        /* \"#utility.yul\":6922:6961   */\n      mstore\n        /* \"#utility.yul\":6894:6896   */\n      0x20\n        /* \"#utility.yul\":6891:6892   */\n      dup2\n        /* \"#utility.yul\":6887:6897   */\n      add\n        /* \"#utility.yul\":6882:6897   */\n      swap1\n      pop\n        /* \"#utility.yul\":6858:6971   */\n      jump(tag_151)\n    tag_153:\n        /* \"#utility.yul\":6989:6995   */\n      dup4\n        /* \"#utility.yul\":6986:6987   */\n      dup2\n        /* \"#utility.yul\":6983:6996   */\n      gt\n        /* \"#utility.yul\":6980:7081   */\n      iszero\n      tag_154\n      jumpi\n        /* \"#utility.yul\":7069:7070   */\n      0x00\n        /* \"#utility.yul\":7060:7066   */\n      dup5\n        /* \"#utility.yul\":7055:7058   */\n      dup5\n        /* \"#utility.yul\":7051:7067   */\n      add\n        /* \"#utility.yul\":7044:7071   */\n      mstore\n        /* \"#utility.yul\":6980:7081   */\n    tag_154:\n        /* \"#utility.yul\":6829:7087   */\n      pop\n        /* \"#utility.yul\":6780:7087   */\n      pop\n      pop\n      pop\n      jump\t// out\n        /* \"#utility.yul\":7093:7374   */\n    tag_130:\n        /* \"#utility.yul\":7176:7203   */\n      tag_156\n        /* \"#utility.yul\":7198:7202   */\n      dup3\n        /* \"#utility.yul\":7176:7203   */\n      tag_137\n      jump\t// in\n    tag_156:\n        /* \"#utility.yul\":7168:7174   */\n      dup2\n        /* \"#utility.yul\":7164:7204   */\n      add\n        /* \"#utility.yul\":7306:7312   */\n      dup2\n        /* \"#utility.yul\":7294:7304   */\n      dup2\n        /* \"#utility.yul\":7291:7313   */\n      lt\n        /* \"#utility.yul\":7270:7288   */\n      0xffffffffffffffff\n        /* \"#utility.yul\":7258:7268   */\n      dup3\n        /* \"#utility.yul\":7255:7289   */\n      gt\n        /* \"#utility.yul\":7252:7314   */\n      or\n        /* \"#utility.yul\":7249:7337   */\n      iszero\n      tag_157\n      jumpi\n        /* \"#utility.yul\":7317:7335   */\n      tag_158\n      tag_135\n      jump\t// in\n    tag_158:\n        /* \"#utility.yul\":7249:7337   */\n    tag_157:\n        /* \"#utility.yul\":7357:7367   */\n      dup1\n        /* \"#utility.yul\":7353:7355   */\n      0x40\n        /* \"#utility.yul\":7346:7368   */\n      mstore\n        /* \"#utility.yul\":7136:7374   */\n      pop\n        /* \"#utility.yul\":7093:7374   */\n      pop\n      pop\n      jump\t// out\n        /* \"#utility.yul\":7380:7480   */\n    tag_86:\n        /* \"#utility.yul\":7419:7426   */\n      0x00\n        /* \"#utility.yul\":7448:7474   */\n      tag_160\n        /* \"#utility.yul\":7468:7473   */\n      dup3\n        /* \"#utility.yul\":7448:7474   */\n      tag_161\n      jump\t// in\n    tag_160:\n        /* \"#utility.yul\":7437:7474   */\n      swap1\n      pop\n        /* \"#utility.yul\":7380:7480   */\n      swap2\n      swap1\n      pop\n      jump\t// out\n        /* \"#utility.yul\":7486:7580   */\n    tag_161:\n        /* \"#utility.yul\":7525:7532   */\n      0x00\n        /* \"#utility.yul\":7554:7574   */\n      tag_163\n        /* \"#utility.yul\":7568:7573   */\n      dup3\n        /* \"#utility.yul\":7554:7574   */\n      tag_164\n      jump\t// in\n    tag_163:\n        /* \"#utility.yul\":7543:7574   */\n      swap1\n      pop\n        /* \"#utility.yul\":7486:7580   */\n      swap2\n      swap1\n      pop\n      jump\t// out\n        /* \"#utility.yul\":7586:7665   */\n    tag_115:\n        /* \"#utility.yul\":7625:7632   */\n      0x00\n        /* \"#utility.yul\":7654:7659   */\n      dup2\n        /* \"#utility.yul\":7643:7659   */\n      swap1\n      pop\n        /* \"#utility.yul\":7586:7665   */\n      swap2\n      swap1\n      pop\n      jump\t// out\n        /* \"#utility.yul\":7671:7851   */\n    tag_135:\n        /* \"#utility.yul\":7719:7796   */\n      0x4e487b7100000000000000000000000000000000000000000000000000000000\n        /* \"#utility.yul\":7716:7717   */\n      0x00\n        /* \"#utility.yul\":7709:7797   */\n      mstore\n        /* \"#utility.yul\":7816:7820   */\n      0x41\n        /* \"#utility.yul\":7813:7814   */\n      0x04\n        /* \"#utility.yul\":7806:7821   */\n      mstore\n        /* \"#utility.yul\":7840:7844   */\n      0x24\n        /* \"#utility.yul\":7837:7838   */\n      0x00\n        /* \"#utility.yul\":7830:7845   */\n      revert\n        /* \"#utility.yul\":7857:7974   */\n    tag_61:\n        /* \"#utility.yul\":7966:7967   */\n      0x00\n        /* \"#utility.yul\":7963:7964   */\n      dup1\n        /* \"#utility.yul\":7956:7968   */\n      revert\n        /* \"#utility.yul\":7980:8097   */\n    tag_46:\n        /* \"#utility.yul\":8089:8090   */\n      0x00\n        /* \"#utility.yul\":8086:8087   */\n      dup1\n        /* \"#utility.yul\":8079:8091   */\n      revert\n        /* \"#utility.yul\":8103:8220   */\n    tag_78:\n        /* \"#utility.yul\":8212:8213   */\n      0x00\n        /* \"#utility.yul\":8209:8210   */\n      dup1\n        /* \"#utility.yul\":8202:8214   */\n      revert\n        /* \"#utility.yul\":8226:8343   */\n    tag_70:\n        /* \"#utility.yul\":8335:8336   */\n      0x00\n        /* \"#utility.yul\":8332:8333   */\n      dup1\n        /* \"#utility.yul\":8325:8337   */\n      revert\n        /* \"#utility.yul\":8349:8451   */\n    tag_137:\n        /* \"#utility.yul\":8390:8396   */\n      0x00\n        /* \"#utility.yul\":8441:8443   */\n      0x1f\n        /* \"#utility.yul\":8437:8444   */\n      not\n        /* \"#utility.yul\":8432:8434   */\n      0x1f\n        /* \"#utility.yul\":8425:8430   */\n      dup4\n        /* \"#utility.yul\":8421:8435   */\n      add\n        /* \"#utility.yul\":8417:8445   */\n      and\n        /* \"#utility.yul\":8407:8445   */\n      swap1\n      pop\n        /* \"#utility.yul\":8349:8451   */\n      swap2\n      swap1\n      pop\n      jump\t// out\n        /* \"#utility.yul\":8457:8551   */\n    tag_164:\n        /* \"#utility.yul\":8490:8498   */\n      0x00\n        /* \"#utility.yul\":8538:8543   */\n      dup2\n        /* \"#utility.yul\":8534:8536   */\n      0x60\n        /* \"#utility.yul\":8530:8544   */\n      shl\n        /* \"#utility.yul\":8509:8544   */\n      swap1\n      pop\n        /* \"#utility.yul\":8457:8551   */\n      swap2\n      swap1\n      pop\n      jump\t// out\n        /* \"#utility.yul\":8557:8679   */\n    tag_52:\n        /* \"#utility.yul\":8630:8654   */\n      tag_174\n        /* \"#utility.yul\":8648:8653   */\n      dup2\n        /* \"#utility.yul\":8630:8654   */\n      tag_85\n      jump\t// in\n    tag_174:\n        /* \"#utility.yul\":8623:8628   */\n      dup2\n        /* \"#utility.yul\":8620:8655   */\n      eq\n        /* \"#utility.yul\":8610:8673   */\n      tag_175\n      jumpi\n        /* \"#utility.yul\":8669:8670   */\n      0x00\n        /* \"#utility.yul\":8666:8667   */\n      dup1\n        /* \"#utility.yul\":8659:8671   */\n      revert\n        /* \"#utility.yul\":8610:8673   */\n    tag_175:\n        /* \"#utility.yul\":8557:8679   */\n      pop\n      jump\t// out\n        /* \"#utility.yul\":8685:8807   */\n    tag_56:\n        /* \"#utility.yul\":8758:8782   */\n      tag_177\n        /* \"#utility.yul\":8776:8781   */\n      dup2\n        /* \"#utility.yul\":8758:8782   */\n      tag_94\n      jump\t// in\n    tag_177:\n        /* \"#utility.yul\":8751:8756   */\n      dup2\n        /* \"#utility.yul\":8748:8783   */\n      eq\n        /* \"#utility.yul\":8738:8801   */\n      tag_178\n      jumpi\n        /* \"#utility.yul\":8797:8798   */\n      0x00\n        /* \"#utility.yul\":8794:8795   */\n      dup1\n        /* \"#utility.yul\":8787:8799   */\n      revert\n        /* \"#utility.yul\":8738:8801   */\n    tag_178:\n        /* \"#utility.yul\":8685:8807   */\n      pop\n      jump\t// out\n        /* \"#utility.yul\":8813:8935   */\n    tag_66:\n        /* \"#utility.yul\":8886:8910   */\n      tag_180\n        /* \"#utility.yul\":8904:8909   */\n      dup2\n        /* \"#utility.yul\":8886:8910   */\n      tag_114\n      jump\t// in\n    tag_180:\n        /* \"#utility.yul\":8879:8884   */\n      dup2\n        /* \"#utility.yul\":8876:8911   */\n      eq\n        /* \"#utility.yul\":8866:8929   */\n      tag_181\n      jumpi\n        /* \"#utility.yul\":8925:8926   */\n      0x00\n        /* \"#utility.yul\":8922:8923   */\n      dup1\n        /* \"#utility.yul\":8915:8927   */\n      revert\n        /* \"#utility.yul\":8866:8929   */\n    tag_181:\n        /* \"#utility.yul\":8813:8935   */\n      pop\n      jump\t// out\n\n    auxdata: 0xa26469706673582212206d4f87db1032fa5795315c2d156b8ace2cbb39cb6a6b30307b07e2c71d2483ea64736f6c63430008070033\n}\n",
				"bytecode": {
					"linkReferences": {},
					"object": "608060405234801561001057600080fd5b506106df806100206000396000f3fe608060405234801561001057600080fd5b50600436106100415760003560e01c80634364b114146100465780636558b80514610076578063cf97b7ec146100a6575b600080fd5b610060600480360381019061005b91906102cb565b6100d6565b60405161006d9190610438565b60405180910390f35b610090600480360381019061008b91906102cb565b61013b565b60405161009d9190610453565b60405180910390f35b6100c060048036038101906100bb91906102cb565b610171565b6040516100cd9190610453565b60405180910390f35b600060038484846040516020016100ef939291906103ff565b60405160208183030381529060405260405161010b91906103e8565b602060405180830381855afa158015610128573d6000803e3d6000fd5b5050506040515160601b90509392505050565b6000838383604051602001610152939291906103ff565b6040516020818303038152906040528051906020012090509392505050565b6000600284848460405160200161018a939291906103ff565b6040516020818303038152906040526040516101a691906103e8565b602060405180830381855afa1580156101c3573d6000803e3d6000fd5b5050506040513d601f19601f820116820180604052508101906101e6919061029e565b90509392505050565b60006102026101fd84610493565b61046e565b90508281526020810184848401111561021e5761021d610637565b5b610229848285610562565b509392505050565b60008135905061024081610664565b92915050565b6000815190506102558161067b565b92915050565b600082601f8301126102705761026f610632565b5b81356102808482602086016101ef565b91505092915050565b60008135905061029881610692565b92915050565b6000602082840312156102b4576102b3610641565b5b60006102c284828501610246565b91505092915050565b6000806000606084860312156102e4576102e3610641565b5b60006102f286828701610289565b935050602084013567ffffffffffffffff8111156103135761031261063c565b5b61031f8682870161025b565b925050604061033086828701610231565b9150509250925092565b61034b610346826104f0565b6105d5565b82525050565b61035a81610502565b82525050565b6103698161052e565b82525050565b600061037a826104c4565b61038481856104da565b9350610394818560208601610571565b80840191505092915050565b60006103ab826104cf565b6103b581856104e5565b93506103c5818560208601610571565b80840191505092915050565b6103e26103dd82610558565b6105f9565b82525050565b60006103f4828461036f565b915081905092915050565b600061040b82866103d1565b60208201915061041b82856103a0565b9150610427828461033a565b601482019150819050949350505050565b600060208201905061044d6000830184610351565b92915050565b60006020820190506104686000830184610360565b92915050565b6000610478610489565b905061048482826105a4565b919050565b6000604051905090565b600067ffffffffffffffff8211156104ae576104ad610603565b5b6104b782610646565b9050602081019050919050565b600081519050919050565b600081519050919050565b600081905092915050565b600081905092915050565b60006104fb82610538565b9050919050565b60007fffffffffffffffffffffffffffffffffffffffff00000000000000000000000082169050919050565b6000819050919050565b600073ffffffffffffffffffffffffffffffffffffffff82169050919050565b6000819050919050565b82818337600083830152505050565b60005b8381101561058f578082015181840152602081019050610574565b8381111561059e576000848401525b50505050565b6105ad82610646565b810181811067ffffffffffffffff821117156105cc576105cb610603565b5b80604052505050565b60006105e0826105e7565b9050919050565b60006105f282610657565b9050919050565b6000819050919050565b7f4e487b7100000000000000000000000000000000000000000000000000000000600052604160045260246000fd5b600080fd5b600080fd5b600080fd5b600080fd5b6000601f19601f8301169050919050565b60008160601b9050919050565b61066d816104f0565b811461067857600080fd5b50565b6106848161052e565b811461068f57600080fd5b50565b61069b81610558565b81146106a657600080fd5b5056fea26469706673582212206d4f87db1032fa5795315c2d156b8ace2cbb39cb6a6b30307b07e2c71d2483ea64736f6c63430008070033",
					"opcodes": "PUSH1 0x80 PUSH1 0x40 MSTORE CALLVALUE DUP1 ISZERO PUSH2 0x10 JUMPI PUSH1 0x0 DUP1 REVERT JUMPDEST POP PUSH2 0x6DF DUP1 PUSH2 0x20 PUSH1 0x0 CODECOPY PUSH1 0x0 RETURN INVALID PUSH1 0x80 PUSH1 0x40 MSTORE CALLVALUE DUP1 ISZERO PUSH2 0x10 JUMPI PUSH1 0x0 DUP1 REVERT JUMPDEST POP PUSH1 0x4 CALLDATASIZE LT PUSH2 0x41 JUMPI PUSH1 0x0 CALLDATALOAD PUSH1 0xE0 SHR DUP1 PUSH4 0x4364B114 EQ PUSH2 0x46 JUMPI DUP1 PUSH4 0x6558B805 EQ PUSH2 0x76 JUMPI DUP1 PUSH4 0xCF97B7EC EQ PUSH2 0xA6 JUMPI JUMPDEST PUSH1 0x0 DUP1 REVERT JUMPDEST PUSH2 0x60 PUSH1 0x4 DUP1 CALLDATASIZE SUB DUP2 ADD SWAP1 PUSH2 0x5B SWAP2 SWAP1 PUSH2 0x2CB JUMP JUMPDEST PUSH2 0xD6 JUMP JUMPDEST PUSH1 0x40 MLOAD PUSH2 0x6D SWAP2 SWAP1 PUSH2 0x438 JUMP JUMPDEST PUSH1 0x40 MLOAD DUP1 SWAP2 SUB SWAP1 RETURN JUMPDEST PUSH2 0x90 PUSH1 0x4 DUP1 CALLDATASIZE SUB DUP2 ADD SWAP1 PUSH2 0x8B SWAP2 SWAP1 PUSH2 0x2CB JUMP JUMPDEST PUSH2 0x13B JUMP JUMPDEST PUSH1 0x40 MLOAD PUSH2 0x9D SWAP2 SWAP1 PUSH2 0x453 JUMP JUMPDEST PUSH1 0x40 MLOAD DUP1 SWAP2 SUB SWAP1 RETURN JUMPDEST PUSH2 0xC0 PUSH1 0x4 DUP1 CALLDATASIZE SUB DUP2 ADD SWAP1 PUSH2 0xBB SWAP2 SWAP1 PUSH2 0x2CB JUMP JUMPDEST PUSH2 0x171 JUMP JUMPDEST PUSH1 0x40 MLOAD PUSH2 0xCD SWAP2 SWAP1 PUSH2 0x453 JUMP JUMPDEST PUSH1 0x40 MLOAD DUP1 SWAP2 SUB SWAP1 RETURN JUMPDEST PUSH1 0x0 PUSH1 0x3 DUP5 DUP5 DUP5 PUSH1 0x40 MLOAD PUSH1 0x20 ADD PUSH2 0xEF SWAP4 SWAP3 SWAP2 SWAP1 PUSH2 0x3FF JUMP JUMPDEST PUSH1 0x40 MLOAD PUSH1 0x20 DUP2 DUP4 SUB SUB DUP2 MSTORE SWAP1 PUSH1 0x40 MSTORE PUSH1 0x40 MLOAD PUSH2 0x10B SWAP2 SWAP1 PUSH2 0x3E8 JUMP JUMPDEST PUSH1 0x20 PUSH1 0x40 MLOAD DUP1 DUP4 SUB DUP2 DUP6 GAS STATICCALL ISZERO DUP1 ISZERO PUSH2 0x128 JUMPI RETURNDATASIZE PUSH1 0x0 DUP1 RETURNDATACOPY RETURNDATASIZE PUSH1 0x0 REVERT JUMPDEST POP POP POP PUSH1 0x40 MLOAD MLOAD PUSH1 0x60 SHL SWAP1 POP SWAP4 SWAP3 POP POP POP JUMP JUMPDEST PUSH1 0x0 DUP4 DUP4 DUP4 PUSH1 0x40 MLOAD PUSH1 0x20 ADD PUSH2 0x152 SWAP4 SWAP3 SWAP2 SWAP1 PUSH2 0x3FF JUMP JUMPDEST PUSH1 0x40 MLOAD PUSH1 0x20 DUP2 DUP4 SUB SUB DUP2 MSTORE SWAP1 PUSH1 0x40 MSTORE DUP1 MLOAD SWAP1 PUSH1 0x20 ADD KECCAK256 SWAP1 POP SWAP4 SWAP3 POP POP POP JUMP JUMPDEST PUSH1 0x0 PUSH1 0x2 DUP5 DUP5 DUP5 PUSH1 0x40 MLOAD PUSH1 0x20 ADD PUSH2 0x18A SWAP4 SWAP3 SWAP2 SWAP1 PUSH2 0x3FF JUMP JUMPDEST PUSH1 0x40 MLOAD PUSH1 0x20 DUP2 DUP4 SUB SUB DUP2 MSTORE SWAP1 PUSH1 0x40 MSTORE PUSH1 0x40 MLOAD PUSH2 0x1A6 SWAP2 SWAP1 PUSH2 0x3E8 JUMP JUMPDEST PUSH1 0x20 PUSH1 0x40 MLOAD DUP1 DUP4 SUB DUP2 DUP6 GAS STATICCALL ISZERO DUP1 ISZERO PUSH2 0x1C3 JUMPI RETURNDATASIZE PUSH1 0x0 DUP1 RETURNDATACOPY RETURNDATASIZE PUSH1 0x0 REVERT JUMPDEST POP POP POP PUSH1 0x40 MLOAD RETURNDATASIZE PUSH1 0x1F NOT PUSH1 0x1F DUP3 ADD AND DUP3 ADD DUP1 PUSH1 0x40 MSTORE POP DUP2 ADD SWAP1 PUSH2 0x1E6 SWAP2 SWAP1 PUSH2 0x29E JUMP JUMPDEST SWAP1 POP SWAP4 SWAP3 POP POP POP JUMP JUMPDEST PUSH1 0x0 PUSH2 0x202 PUSH2 0x1FD DUP5 PUSH2 0x493 JUMP JUMPDEST PUSH2 0x46E JUMP JUMPDEST SWAP1 POP DUP3 DUP2 MSTORE PUSH1 0x20 DUP2 ADD DUP5 DUP5 DUP5 ADD GT ISZERO PUSH2 0x21E JUMPI PUSH2 0x21D PUSH2 0x637 JUMP JUMPDEST JUMPDEST PUSH2 0x229 DUP5 DUP3 DUP6 PUSH2 0x562 JUMP JUMPDEST POP SWAP4 SWAP3 POP POP POP JUMP JUMPDEST PUSH1 0x0 DUP2 CALLDATALOAD SWAP1 POP PUSH2 0x240 DUP2 PUSH2 0x664 JUMP JUMPDEST SWAP3 SWAP2 POP POP JUMP JUMPDEST PUSH1 0x0 DUP2 MLOAD SWAP1 POP PUSH2 0x255 DUP2 PUSH2 0x67B JUMP JUMPDEST SWAP3 SWAP2 POP POP JUMP JUMPDEST PUSH1 0x0 DUP3 PUSH1 0x1F DUP4 ADD SLT PUSH2 0x270 JUMPI PUSH2 0x26F PUSH2 0x632 JUMP JUMPDEST JUMPDEST DUP2 CALLDATALOAD PUSH2 0x280 DUP5 DUP3 PUSH1 0x20 DUP7 ADD PUSH2 0x1EF JUMP JUMPDEST SWAP2 POP POP SWAP3 SWAP2 POP POP JUMP JUMPDEST PUSH1 0x0 DUP2 CALLDATALOAD SWAP1 POP PUSH2 0x298 DUP2 PUSH2 0x692 JUMP JUMPDEST SWAP3 SWAP2 POP POP JUMP JUMPDEST PUSH1 0x0 PUSH1 0x20 DUP3 DUP5 SUB SLT ISZERO PUSH2 0x2B4 JUMPI PUSH2 0x2B3 PUSH2 0x641 JUMP JUMPDEST JUMPDEST PUSH1 0x0 PUSH2 0x2C2 DUP5 DUP3 DUP6 ADD PUSH2 0x246 JUMP JUMPDEST SWAP2 POP POP SWAP3 SWAP2 POP POP JUMP JUMPDEST PUSH1 0x0 DUP1 PUSH1 0x0 PUSH1 0x60 DUP5 DUP7 SUB SLT ISZERO PUSH2 0x2E4 JUMPI PUSH2 0x2E3 PUSH2 0x641 JUMP JUMPDEST JUMPDEST PUSH1 0x0 PUSH2 0x2F2 DUP7 DUP3 DUP8 ADD PUSH2 0x289 JUMP JUMPDEST SWAP4 POP POP PUSH1 0x20 DUP5 ADD CALLDATALOAD PUSH8 0xFFFFFFFFFFFFFFFF DUP2 GT ISZERO PUSH2 0x313 JUMPI PUSH2 0x312 PUSH2 0x63C JUMP JUMPDEST JUMPDEST PUSH2 0x31F DUP7 DUP3 DUP8 ADD PUSH2 0x25B JUMP JUMPDEST SWAP3 POP POP PUSH1 0x40 PUSH2 0x330 DUP7 DUP3 DUP8 ADD PUSH2 0x231 JUMP JUMPDEST SWAP2 POP POP SWAP3 POP SWAP3 POP SWAP3 JUMP JUMPDEST PUSH2 0x34B PUSH2 0x346 DUP3 PUSH2 0x4F0 JUMP JUMPDEST PUSH2 0x5D5 JUMP JUMPDEST DUP3 MSTORE POP POP JUMP JUMPDEST PUSH2 0x35A DUP2 PUSH2 0x502 JUMP JUMPDEST DUP3 MSTORE POP POP JUMP JUMPDEST PUSH2 0x369 DUP2 PUSH2 0x52E JUMP JUMPDEST DUP3 MSTORE POP POP JUMP JUMPDEST PUSH1 0x0 PUSH2 0x37A DUP3 PUSH2 0x4C4 JUMP JUMPDEST PUSH2 0x384 DUP2 DUP6 PUSH2 0x4DA JUMP JUMPDEST SWAP4 POP PUSH2 0x394 DUP2 DUP6 PUSH1 0x20 DUP7 ADD PUSH2 0x571 JUMP JUMPDEST DUP1 DUP5 ADD SWAP2 POP POP SWAP3 SWAP2 POP POP JUMP JUMPDEST PUSH1 0x0 PUSH2 0x3AB DUP3 PUSH2 0x4CF JUMP JUMPDEST PUSH2 0x3B5 DUP2 DUP6 PUSH2 0x4E5 JUMP JUMPDEST SWAP4 POP PUSH2 0x3C5 DUP2 DUP6 PUSH1 0x20 DUP7 ADD PUSH2 0x571 JUMP JUMPDEST DUP1 DUP5 ADD SWAP2 POP POP SWAP3 SWAP2 POP POP JUMP JUMPDEST PUSH2 0x3E2 PUSH2 0x3DD DUP3 PUSH2 0x558 JUMP JUMPDEST PUSH2 0x5F9 JUMP JUMPDEST DUP3 MSTORE POP POP JUMP JUMPDEST PUSH1 0x0 PUSH2 0x3F4 DUP3 DUP5 PUSH2 0x36F JUMP JUMPDEST SWAP2 POP DUP2 SWAP1 POP SWAP3 SWAP2 POP POP JUMP JUMPDEST PUSH1 0x0 PUSH2 0x40B DUP3 DUP7 PUSH2 0x3D1 JUMP JUMPDEST PUSH1 0x20 DUP3 ADD SWAP2 POP PUSH2 0x41B DUP3 DUP6 PUSH2 0x3A0 JUMP JUMPDEST SWAP2 POP PUSH2 0x427 DUP3 DUP5 PUSH2 0x33A JUMP JUMPDEST PUSH1 0x14 DUP3 ADD SWAP2 POP DUP2 SWAP1 POP SWAP5 SWAP4 POP POP POP POP JUMP JUMPDEST PUSH1 0x0 PUSH1 0x20 DUP3 ADD SWAP1 POP PUSH2 0x44D PUSH1 0x0 DUP4 ADD DUP5 PUSH2 0x351 JUMP JUMPDEST SWAP3 SWAP2 POP POP JUMP JUMPDEST PUSH1 0x0 PUSH1 0x20 DUP3 ADD SWAP1 POP PUSH2 0x468 PUSH1 0x0 DUP4 ADD DUP5 PUSH2 0x360 JUMP JUMPDEST SWAP3 SWAP2 POP POP JUMP JUMPDEST PUSH1 0x0 PUSH2 0x478 PUSH2 0x489 JUMP JUMPDEST SWAP1 POP PUSH2 0x484 DUP3 DUP3 PUSH2 0x5A4 JUMP JUMPDEST SWAP2 SWAP1 POP JUMP JUMPDEST PUSH1 0x0 PUSH1 0x40 MLOAD SWAP1 POP SWAP1 JUMP JUMPDEST PUSH1 0x0 PUSH8 0xFFFFFFFFFFFFFFFF DUP3 GT ISZERO PUSH2 0x4AE JUMPI PUSH2 0x4AD PUSH2 0x603 JUMP JUMPDEST JUMPDEST PUSH2 0x4B7 DUP3 PUSH2 0x646 JUMP JUMPDEST SWAP1 POP PUSH1 0x20 DUP2 ADD SWAP1 POP SWAP2 SWAP1 POP JUMP JUMPDEST PUSH1 0x0 DUP2 MLOAD SWAP1 POP SWAP2 SWAP1 POP JUMP JUMPDEST PUSH1 0x0 DUP2 MLOAD SWAP1 POP SWAP2 SWAP1 POP JUMP JUMPDEST PUSH1 0x0 DUP2 SWAP1 POP SWAP3 SWAP2 POP POP JUMP JUMPDEST PUSH1 0x0 DUP2 SWAP1 POP SWAP3 SWAP2 POP POP JUMP JUMPDEST PUSH1 0x0 PUSH2 0x4FB DUP3 PUSH2 0x538 JUMP JUMPDEST SWAP1 POP SWAP2 SWAP1 POP JUMP JUMPDEST PUSH1 0x0 PUSH32 0xFFFFFFFFFFFFFFFFFFFFFFFFFFFFFFFFFFFFFFFF000000000000000000000000 DUP3 AND SWAP1 POP SWAP2 SWAP1 POP JUMP JUMPDEST PUSH1 0x0 DUP2 SWAP1 POP SWAP2 SWAP1 POP JUMP JUMPDEST PUSH1 0x0 PUSH20 0xFFFFFFFFFFFFFFFFFFFFFFFFFFFFFFFFFFFFFFFF DUP3 AND SWAP1 POP SWAP2 SWAP1 POP JUMP JUMPDEST PUSH1 0x0 DUP2 SWAP1 POP SWAP2 SWAP1 POP JUMP JUMPDEST DUP3 DUP2 DUP4 CALLDATACOPY PUSH1 0x0 DUP4 DUP4 ADD MSTORE POP POP POP JUMP JUMPDEST PUSH1 0x0 JUMPDEST DUP4 DUP2 LT ISZERO PUSH2 0x58F JUMPI DUP1 DUP3 ADD MLOAD DUP2 DUP5 ADD MSTORE PUSH1 0x20 DUP2 ADD SWAP1 POP PUSH2 0x574 JUMP JUMPDEST DUP4 DUP2 GT ISZERO PUSH2 0x59E JUMPI PUSH1 0x0 DUP5 DUP5 ADD MSTORE JUMPDEST POP POP POP POP JUMP JUMPDEST PUSH2 0x5AD DUP3 PUSH2 0x646 JUMP JUMPDEST DUP2 ADD DUP2 DUP2 LT PUSH8 0xFFFFFFFFFFFFFFFF DUP3 GT OR ISZERO PUSH2 0x5CC JUMPI PUSH2 0x5CB PUSH2 0x603 JUMP JUMPDEST JUMPDEST DUP1 PUSH1 0x40 MSTORE POP POP POP JUMP JUMPDEST PUSH1 0x0 PUSH2 0x5E0 DUP3 PUSH2 0x5E7 JUMP JUMPDEST SWAP1 POP SWAP2 SWAP1 POP JUMP JUMPDEST PUSH1 0x0 PUSH2 0x5F2 DUP3 PUSH2 0x657 JUMP JUMPDEST SWAP1 POP SWAP2 SWAP1 POP JUMP JUMPDEST PUSH1 0x0 DUP2 SWAP1 POP SWAP2 SWAP1 POP JUMP JUMPDEST PUSH32 0x4E487B7100000000000000000000000000000000000000000000000000000000 PUSH1 0x0 MSTORE PUSH1 0x41 PUSH1 0x4 MSTORE PUSH1 0x24 PUSH1 0x0 REVERT JUMPDEST PUSH1 0x0 DUP1 REVERT JUMPDEST PUSH1 0x0 DUP1 REVERT JUMPDEST PUSH1 0x0 DUP1 REVERT JUMPDEST PUSH1 0x0 DUP1 REVERT JUMPDEST PUSH1 0x0 PUSH1 0x1F NOT PUSH1 0x1F DUP4 ADD AND SWAP1 POP SWAP2 SWAP1 POP JUMP JUMPDEST PUSH1 0x0 DUP2 PUSH1 0x60 SHL SWAP1 POP SWAP2 SWAP1 POP JUMP JUMPDEST PUSH2 0x66D DUP2 PUSH2 0x4F0 JUMP JUMPDEST DUP2 EQ PUSH2 0x678 JUMPI PUSH1 0x0 DUP1 REVERT JUMPDEST POP JUMP JUMPDEST PUSH2 0x684 DUP2 PUSH2 0x52E JUMP JUMPDEST DUP2 EQ PUSH2 0x68F JUMPI PUSH1 0x0 DUP1 REVERT JUMPDEST POP JUMP JUMPDEST PUSH2 0x69B DUP2 PUSH2 0x558 JUMP JUMPDEST DUP2 EQ PUSH2 0x6A6 JUMPI PUSH1 0x0 DUP1 REVERT JUMPDEST POP JUMP INVALID LOG2 PUSH5 0x6970667358 0x22 SLT KECCAK256 PUSH14 0x4F87DB1032FA5795315C2D156B8A 0xCE 0x2C 0xBB CODECOPY 0xCB PUSH11 0x6B30307B07E2C71D2483EA PUSH5 0x736F6C6343 STOP ADDMOD SMOD STOP CALLER "
				},
				"gasEstimates": {
					"creation": {
						"codeDepositCost": "351800",
						"executionCost": "386",
						"totalCost": "352186"
					},
					"external": {
						"hashRipemd160(uint256,string,address)": "infinite",
						"hashkeccak256(uint256,string,address)": "infinite",
						"hashshar256(uint256,string,address)": "infinite"
					}
				},
				"methodIdentifiers": {
					"hashRipemd160(uint256,string,address)": "4364b114",
					"hashkeccak256(uint256,string,address)": "6558b805",
					"hashshar256(uint256,string,address)": "cf97b7ec"
				}
			},
			"storageLayout": {
				"storage": [],
				"types": null
			},
			"userdoc": {
				"kind": "user",
				"methods": {},
				"version": 1
			}
		}
	}
}