{
	"dynamicsizearr.sol": {
		"fixedsizearray": {
			"abi": [
				{
					"inputs": [],
					"name": "getarr",
					"outputs": [
						{
							"internalType": "uint256[5]",
							"name": "",
							"type": "uint256[5]"
						}
					],
					"stateMutability": "view",
					"type": "function"
				}
			],
			"devdoc": {
				"kind": "dev",
				"methods": {},
				"version": 1
			},
			"evm": {
				"assembly": "    /* \"dynamicsizearr.sol\":63:204  contract fixedsizearray{... */\n  mstore(0x40, 0x80)\n    /* \"dynamicsizearr.sol\":93:126  uint[] arr = [10, 20, 30, 40, 50] */\n  mload(0x40)\n  dup1\n  0xa0\n  add\n  0x40\n  mstore\n  dup1\n    /* \"dynamicsizearr.sol\":107:109  10 */\n  0x0a\n    /* \"dynamicsizearr.sol\":93:126  uint[] arr = [10, 20, 30, 40, 50] */\n  0xff\n  and\n  dup2\n  mstore\n  0x20\n  add\n    /* \"dynamicsizearr.sol\":111:113  20 */\n  0x14\n    /* \"dynamicsizearr.sol\":93:126  uint[] arr = [10, 20, 30, 40, 50] */\n  0xff\n  and\n  dup2\n  mstore\n  0x20\n  add\n    /* \"dynamicsizearr.sol\":115:117  30 */\n  0x1e\n    /* \"dynamicsizearr.sol\":93:126  uint[] arr = [10, 20, 30, 40, 50] */\n  0xff\n  and\n  dup2\n  mstore\n  0x20\n  add\n    /* \"dynamicsizearr.sol\":119:121  40 */\n  0x28\n    /* \"dynamicsizearr.sol\":93:126  uint[] arr = [10, 20, 30, 40, 50] */\n  0xff\n  and\n  dup2\n  mstore\n  0x20\n  add\n    /* \"dynamicsizearr.sol\":123:125  50 */\n  0x32\n    /* \"dynamicsizearr.sol\":93:126  uint[] arr = [10, 20, 30, 40, 50] */\n  0xff\n  and\n  dup2\n  mstore\n  pop\n  0x00\n  swap1\n  0x05\n  tag_1\n  swap3\n  swap2\n  swap1\n  tag_2\n  jump\t// in\ntag_1:\n  pop\n    /* \"dynamicsizearr.sol\":63:204  contract fixedsizearray{... */\n  callvalue\n  dup1\n  iszero\n  tag_3\n  jumpi\n  0x00\n  dup1\n  revert\ntag_3:\n  pop\n  jump(tag_4)\ntag_2:\n  dup3\n  dup1\n  sload\n  dup3\n  dup3\n  sstore\n  swap1\n  0x00\n  mstore\n  keccak256(0x00, 0x20)\n  swap1\n  dup2\n  add\n  swap3\n  dup3\n  iszero\n  tag_5\n  jumpi\n  swap2\n  0x20\n  mul\n  dup3\n  add\ntag_6:\n  dup3\n  dup2\n  gt\n  iszero\n  tag_7\n  jumpi\n  dup3\n  mload\n  dup3\n  swap1\n  0xff\n  and\n  swap1\n  sstore\n  swap2\n  0x20\n  add\n  swap2\n  swap1\n  0x01\n  add\n  swap1\n  jump(tag_6)\ntag_7:\ntag_5:\n  pop\n  swap1\n  pop\n  tag_8\n  swap2\n  swap1\n  tag_9\n  jump\t// in\ntag_8:\n  pop\n  swap1\n  jump\t// out\ntag_9:\ntag_10:\n  dup1\n  dup3\n  gt\n  iszero\n  tag_11\n  jumpi\n  0x00\n  dup2\n  0x00\n  swap1\n  sstore\n  pop\n  0x01\n  add\n  jump(tag_10)\ntag_11:\n  pop\n  swap1\n  jump\t// out\ntag_4:\n  dataSize(sub_0)\n  dup1\n  dataOffset(sub_0)\n  0x00\n  codecopy\n  0x00\n  return\nstop\n\nsub_0: assembly {\n        /* \"dynamicsizearr.sol\":63:204  contract fixedsizearray{... */\n      mstore(0x40, 0x80)\n      callvalue\n      dup1\n      iszero\n      tag_1\n      jumpi\n      0x00\n      dup1\n      revert\n    tag_1:\n      pop\n      jumpi(tag_2, lt(calldatasize, 0x04))\n      shr(0xe0, calldataload(0x00))\n      dup1\n      0x6bc7deae\n      eq\n      tag_3\n      jumpi\n    tag_2:\n      0x00\n      dup1\n      revert\n        /* \"dynamicsizearr.sol\":133:202  function getarr() public view returns(uint[5] memory){... */\n    tag_3:\n      tag_4\n      tag_5\n      jump\t// in\n    tag_4:\n      mload(0x40)\n      tag_6\n      swap2\n      swap1\n      tag_7\n      jump\t// in\n    tag_6:\n      mload(0x40)\n      dup1\n      swap2\n      sub\n      swap1\n      return\n    tag_5:\n        /* \"dynamicsizearr.sol\":171:185  uint[5] memory */\n      tag_8\n      tag_9\n      jump\t// in\n    tag_8:\n        /* \"dynamicsizearr.sol\":133:202  function getarr() public view returns(uint[5] memory){... */\n      swap1\n      jump\t// out\n    tag_9:\n      mload(0x40)\n      dup1\n      0xa0\n      add\n      0x40\n      mstore\n      dup1\n      0x05\n      swap1\n      0x20\n      dup3\n      mul\n      dup1\n      calldatasize\n      dup4\n      calldatacopy\n      dup1\n      dup3\n      add\n      swap2\n      pop\n      pop\n      swap1\n      pop\n      pop\n      swap1\n      jump\t// out\n        /* \"#utility.yul\":7:186   */\n    tag_12:\n        /* \"#utility.yul\":76:86   */\n      0x00\n        /* \"#utility.yul\":97:143   */\n      tag_14\n        /* \"#utility.yul\":139:142   */\n      dup4\n        /* \"#utility.yul\":131:137   */\n      dup4\n        /* \"#utility.yul\":97:143   */\n      tag_15\n      jump\t// in\n    tag_14:\n        /* \"#utility.yul\":175:179   */\n      0x20\n        /* \"#utility.yul\":170:173   */\n      dup4\n        /* \"#utility.yul\":166:180   */\n      add\n        /* \"#utility.yul\":152:180   */\n      swap1\n      pop\n        /* \"#utility.yul\":7:186   */\n      swap3\n      swap2\n      pop\n      pop\n      jump\t// out\n        /* \"#utility.yul\":224:918   */\n    tag_16:\n        /* \"#utility.yul\":360:412   */\n      tag_18\n        /* \"#utility.yul\":406:411   */\n      dup2\n        /* \"#utility.yul\":360:412   */\n      tag_19\n      jump\t// in\n    tag_18:\n        /* \"#utility.yul\":428:512   */\n      tag_20\n        /* \"#utility.yul\":505:511   */\n      dup2\n        /* \"#utility.yul\":500:503   */\n      dup5\n        /* \"#utility.yul\":428:512   */\n      tag_21\n      jump\t// in\n    tag_20:\n        /* \"#utility.yul\":421:512   */\n      swap3\n      pop\n        /* \"#utility.yul\":536:590   */\n      tag_22\n        /* \"#utility.yul\":584:589   */\n      dup3\n        /* \"#utility.yul\":536:590   */\n      tag_23\n      jump\t// in\n    tag_22:\n        /* \"#utility.yul\":613:620   */\n      dup1\n        /* \"#utility.yul\":644:645   */\n      0x00\n        /* \"#utility.yul\":629:911   */\n    tag_24:\n        /* \"#utility.yul\":654:660   */\n      dup4\n        /* \"#utility.yul\":651:652   */\n      dup2\n        /* \"#utility.yul\":648:661   */\n      lt\n        /* \"#utility.yul\":629:911   */\n      iszero\n      tag_26\n      jumpi\n        /* \"#utility.yul\":730:736   */\n      dup2\n        /* \"#utility.yul\":724:737   */\n      mload\n        /* \"#utility.yul\":757:820   */\n      tag_27\n        /* \"#utility.yul\":816:819   */\n      dup8\n        /* \"#utility.yul\":801:814   */\n      dup3\n        /* \"#utility.yul\":757:820   */\n      tag_12\n      jump\t// in\n    tag_27:\n        /* \"#utility.yul\":750:820   */\n      swap7\n      pop\n        /* \"#utility.yul\":843:901   */\n      tag_28\n        /* \"#utility.yul\":894:900   */\n      dup4\n        /* \"#utility.yul\":843:901   */\n      tag_29\n      jump\t// in\n    tag_28:\n        /* \"#utility.yul\":833:901   */\n      swap3\n      pop\n        /* \"#utility.yul\":689:911   */\n      pop\n        /* \"#utility.yul\":676:677   */\n      0x01\n        /* \"#utility.yul\":673:674   */\n      dup2\n        /* \"#utility.yul\":669:678   */\n      add\n        /* \"#utility.yul\":664:678   */\n      swap1\n      pop\n        /* \"#utility.yul\":629:911   */\n      jump(tag_24)\n    tag_26:\n        /* \"#utility.yul\":633:647   */\n      pop\n        /* \"#utility.yul\":336:918   */\n      pop\n      pop\n      pop\n        /* \"#utility.yul\":224:918   */\n      pop\n      pop\n      jump\t// out\n        /* \"#utility.yul\":924:1032   */\n    tag_15:\n        /* \"#utility.yul\":1001:1025   */\n      tag_31\n        /* \"#utility.yul\":1019:1024   */\n      dup2\n        /* \"#utility.yul\":1001:1025   */\n      tag_32\n      jump\t// in\n    tag_31:\n        /* \"#utility.yul\":996:999   */\n      dup3\n        /* \"#utility.yul\":989:1026   */\n      mstore\n        /* \"#utility.yul\":924:1032   */\n      pop\n      pop\n      jump\t// out\n        /* \"#utility.yul\":1038:1353   */\n    tag_7:\n        /* \"#utility.yul\":1177:1181   */\n      0x00\n        /* \"#utility.yul\":1215:1218   */\n      0xa0\n        /* \"#utility.yul\":1204:1213   */\n      dup3\n        /* \"#utility.yul\":1200:1219   */\n      add\n        /* \"#utility.yul\":1192:1219   */\n      swap1\n      pop\n        /* \"#utility.yul\":1229:1346   */\n      tag_34\n        /* \"#utility.yul\":1343:1344   */\n      0x00\n        /* \"#utility.yul\":1332:1341   */\n      dup4\n        /* \"#utility.yul\":1328:1345   */\n      add\n        /* \"#utility.yul\":1319:1325   */\n      dup5\n        /* \"#utility.yul\":1229:1346   */\n      tag_16\n      jump\t// in\n    tag_34:\n        /* \"#utility.yul\":1038:1353   */\n      swap3\n      swap2\n      pop\n      pop\n      jump\t// out\n        /* \"#utility.yul\":1359:1457   */\n    tag_23:\n        /* \"#utility.yul\":1424:1428   */\n      0x00\n        /* \"#utility.yul\":1447:1450   */\n      dup2\n        /* \"#utility.yul\":1439:1450   */\n      swap1\n      pop\n        /* \"#utility.yul\":1359:1457   */\n      swap2\n      swap1\n      pop\n      jump\t// out\n        /* \"#utility.yul\":1463:1567   */\n    tag_19:\n        /* \"#utility.yul\":1528:1534   */\n      0x00\n        /* \"#utility.yul\":1556:1560   */\n      0x05\n        /* \"#utility.yul\":1546:1560   */\n      swap1\n      pop\n        /* \"#utility.yul\":1463:1567   */\n      swap2\n      swap1\n      pop\n      jump\t// out\n        /* \"#utility.yul\":1573:1684   */\n    tag_29:\n        /* \"#utility.yul\":1641:1645   */\n      0x00\n        /* \"#utility.yul\":1673:1677   */\n      0x20\n        /* \"#utility.yul\":1668:1671   */\n      dup3\n        /* \"#utility.yul\":1664:1678   */\n      add\n        /* \"#utility.yul\":1656:1678   */\n      swap1\n      pop\n        /* \"#utility.yul\":1573:1684   */\n      swap2\n      swap1\n      pop\n      jump\t// out\n        /* \"#utility.yul\":1690:1833   */\n    tag_21:\n        /* \"#utility.yul\":1787:1798   */\n      0x00\n        /* \"#utility.yul\":1824:1827   */\n      dup2\n        /* \"#utility.yul\":1809:1827   */\n      swap1\n      pop\n        /* \"#utility.yul\":1690:1833   */\n      swap3\n      swap2\n      pop\n      pop\n      jump\t// out\n        /* \"#utility.yul\":1839:1916   */\n    tag_32:\n        /* \"#utility.yul\":1876:1883   */\n      0x00\n        /* \"#utility.yul\":1905:1910   */\n      dup2\n        /* \"#utility.yul\":1894:1910   */\n      swap1\n      pop\n        /* \"#utility.yul\":1839:1916   */\n      swap2\n      swap1\n      pop\n      jump\t// out\n\n    auxdata: 0xa26469706673582212208a837e6097b2f5f6155be75e826c08998df2b773983fdf8c89309a11bd7e7f6264736f6c63430008070033\n}\n",
				"bytecode": {
					"linkReferences": {},
					"object": "60806040526040518060a00160405280600a60ff168152602001601460ff168152602001601e60ff168152602001602860ff168152602001603260ff16815250600090600561004f929190610062565b5034801561005c57600080fd5b506100d1565b8280548282559060005260206000209081019282156100a3579160200282015b828111156100a2578251829060ff16905591602001919060010190610082565b5b5090506100b091906100b4565b5090565b5b808211156100cd5760008160009055506001016100b5565b5090565b610181806100e06000396000f3fe608060405234801561001057600080fd5b506004361061002b5760003560e01c80636bc7deae14610030575b600080fd5b61003861004e565b60405161004591906100f9565b60405180910390f35b610056610059565b90565b6040518060a00160405280600590602082028036833780820191505090505090565b600061008783836100ea565b60208301905092915050565b61009c8161011e565b6100a68184610136565b92506100b182610114565b8060005b838110156100e25781516100c9878261007b565b96506100d483610129565b9250506001810190506100b5565b505050505050565b6100f381610141565b82525050565b600060a08201905061010e6000830184610093565b92915050565b6000819050919050565b600060059050919050565b6000602082019050919050565b600081905092915050565b600081905091905056fea26469706673582212208a837e6097b2f5f6155be75e826c08998df2b773983fdf8c89309a11bd7e7f6264736f6c63430008070033",
					"opcodes": "PUSH1 0x80 PUSH1 0x40 MSTORE PUSH1 0x40 MLOAD DUP1 PUSH1 0xA0 ADD PUSH1 0x40 MSTORE DUP1 PUSH1 0xA PUSH1 0xFF AND DUP2 MSTORE PUSH1 0x20 ADD PUSH1 0x14 PUSH1 0xFF AND DUP2 MSTORE PUSH1 0x20 ADD PUSH1 0x1E PUSH1 0xFF AND DUP2 MSTORE PUSH1 0x20 ADD PUSH1 0x28 PUSH1 0xFF AND DUP2 MSTORE PUSH1 0x20 ADD PUSH1 0x32 PUSH1 0xFF AND DUP2 MSTORE POP PUSH1 0x0 SWAP1 PUSH1 0x5 PUSH2 0x4F SWAP3 SWAP2 SWAP1 PUSH2 0x62 JUMP JUMPDEST POP CALLVALUE DUP1 ISZERO PUSH2 0x5C JUMPI PUSH1 0x0 DUP1 REVERT JUMPDEST POP PUSH2 0xD1 JUMP JUMPDEST DUP3 DUP1 SLOAD DUP3 DUP3 SSTORE SWAP1 PUSH1 0x0 MSTORE PUSH1 0x20 PUSH1 0x0 KECCAK256 SWAP1 DUP2 ADD SWAP3 DUP3 ISZERO PUSH2 0xA3 JUMPI SWAP2 PUSH1 0x20 MUL DUP3 ADD JUMPDEST DUP3 DUP2 GT ISZERO PUSH2 0xA2 JUMPI DUP3 MLOAD DUP3 SWAP1 PUSH1 0xFF AND SWAP1 SSTORE SWAP2 PUSH1 0x20 ADD SWAP2 SWAP1 PUSH1 0x1 ADD SWAP1 PUSH2 0x82 JUMP JUMPDEST JUMPDEST POP SWAP1 POP PUSH2 0xB0 SWAP2 SWAP1 PUSH2 0xB4 JUMP JUMPDEST POP SWAP1 JUMP JUMPDEST JUMPDEST DUP1 DUP3 GT ISZERO PUSH2 0xCD JUMPI PUSH1 0x0 DUP2 PUSH1 0x0 SWAP1 SSTORE POP PUSH1 0x1 ADD PUSH2 0xB5 JUMP JUMPDEST POP SWAP1 JUMP JUMPDEST PUSH2 0x181 DUP1 PUSH2 0xE0 PUSH1 0x0 CODECOPY PUSH1 0x0 RETURN INVALID PUSH1 0x80 PUSH1 0x40 MSTORE CALLVALUE DUP1 ISZERO PUSH2 0x10 JUMPI PUSH1 0x0 DUP1 REVERT JUMPDEST POP PUSH1 0x4 CALLDATASIZE LT PUSH2 0x2B JUMPI PUSH1 0x0 CALLDATALOAD PUSH1 0xE0 SHR DUP1 PUSH4 0x6BC7DEAE EQ PUSH2 0x30 JUMPI JUMPDEST PUSH1 0x0 DUP1 REVERT JUMPDEST PUSH2 0x38 PUSH2 0x4E JUMP JUMPDEST PUSH1 0x40 MLOAD PUSH2 0x45 SWAP2 SWAP1 PUSH2 0xF9 JUMP JUMPDEST PUSH1 0x40 MLOAD DUP1 SWAP2 SUB SWAP1 RETURN JUMPDEST PUSH2 0x56 PUSH2 0x59 JUMP JUMPDEST SWAP1 JUMP JUMPDEST PUSH1 0x40 MLOAD DUP1 PUSH1 0xA0 ADD PUSH1 0x40 MSTORE DUP1 PUSH1 0x5 SWAP1 PUSH1 0x20 DUP3 MUL DUP1 CALLDATASIZE DUP4 CALLDATACOPY DUP1 DUP3 ADD SWAP2 POP POP SWAP1 POP POP SWAP1 JUMP JUMPDEST PUSH1 0x0 PUSH2 0x87 DUP4 DUP4 PUSH2 0xEA JUMP JUMPDEST PUSH1 0x20 DUP4 ADD SWAP1 POP SWAP3 SWAP2 POP POP JUMP JUMPDEST PUSH2 0x9C DUP2 PUSH2 0x11E JUMP JUMPDEST PUSH2 0xA6 DUP2 DUP5 PUSH2 0x136 JUMP JUMPDEST SWAP3 POP PUSH2 0xB1 DUP3 PUSH2 0x114 JUMP JUMPDEST DUP1 PUSH1 0x0 JUMPDEST DUP4 DUP2 LT ISZERO PUSH2 0xE2 JUMPI DUP2 MLOAD PUSH2 0xC9 DUP8 DUP3 PUSH2 0x7B JUMP JUMPDEST SWAP7 POP PUSH2 0xD4 DUP4 PUSH2 0x129 JUMP JUMPDEST SWAP3 POP POP PUSH1 0x1 DUP2 ADD SWAP1 POP PUSH2 0xB5 JUMP JUMPDEST POP POP POP POP POP POP JUMP JUMPDEST PUSH2 0xF3 DUP2 PUSH2 0x141 JUMP JUMPDEST DUP3 MSTORE POP POP JUMP JUMPDEST PUSH1 0x0 PUSH1 0xA0 DUP3 ADD SWAP1 POP PUSH2 0x10E PUSH1 0x0 DUP4 ADD DUP5 PUSH2 0x93 JUMP JUMPDEST SWAP3 SWAP2 POP POP JUMP JUMPDEST PUSH1 0x0 DUP2 SWAP1 POP SWAP2 SWAP1 POP JUMP JUMPDEST PUSH1 0x0 PUSH1 0x5 SWAP1 POP SWAP2 SWAP1 POP JUMP JUMPDEST PUSH1 0x0 PUSH1 0x20 DUP3 ADD SWAP1 POP SWAP2 SWAP1 POP JUMP JUMPDEST PUSH1 0x0 DUP2 SWAP1 POP SWAP3 SWAP2 POP POP JUMP JUMPDEST PUSH1 0x0 DUP2 SWAP1 POP SWAP2 SWAP1 POP JUMP INVALID LOG2 PUSH5 0x6970667358 0x22 SLT KECCAK256 DUP11 DUP4 PUSH31 0x6097B2F5F6155BE75E826C08998DF2B773983FDF8C89309A11BD7E7F626473 PUSH16 0x6C634300080700330000000000000000 "
				},
				"gasEstimates": {
					"creation": {
						"codeDepositCost": "77000",
						"executionCost": "infinite",
						"totalCost": "infinite"
					},
					"external": {
						"getarr()": "infinite"
					}
				},
				"methodIdentifiers": {
					"getarr()": "6bc7deae"
				}
			},
			"storageLayout": {
				"storage": [
					{
						"astId": 10,
						"contract": "dynamicsizearr.sol:fixedsizearray",
						"label": "arr",
						"offset": 0,
						"slot": "0",
						"type": "t_array(t_uint256)dyn_storage"
					}
				],
				"types": {
					"t_array(t_uint256)dyn_storage": {
						"base": "t_uint256",
						"encoding": "dynamic_array",
						"label": "uint256[]",
						"numberOfBytes": "32"
					},
					"t_uint256": {
						"encoding": "inplace",
						"label": "uint256",
						"numberOfBytes": "32"
					}
				}
			},
			"userdoc": {
				"kind": "user",
				"methods": {},
				"version": 1
			}
		}
	}
}