{
	"dynamicsizearr.sol": {
		"fixedsizearray": {
			"abi": [
				{
					"inputs": [],
					"name": "getarr",
					"outputs": [
						{
							"internalType": "uint256[]",
							"name": "",
							"type": "uint256[]"
						}
					],
					"stateMutability": "view",
					"type": "function"
				},
				{
					"inputs": [],
					"name": "pushnum",
					"outputs": [
						{
							"internalType": "uint256[]",
							"name": "",
							"type": "uint256[]"
						}
					],
					"stateMutability": "view",
					"type": "function"
				},
				{
					"inputs": [],
					"name": "simpleoushinarr",
					"outputs": [],
					"stateMutability": "nonpayable",
					"type": "function"
				},
				{
					"inputs": [
						{
							"internalType": "uint256",
							"name": "_pos",
							"type": "uint256"
						},
						{
							"internalType": "uint256",
							"name": "_value",
							"type": "uint256"
						}
					],
					"name": "updatearr",
					"outputs": [],
					"stateMutability": "nonpayable",
					"type": "function"
				}
			],
			"devdoc": {
				"kind": "dev",
				"methods": {},
				"version": 1
			},
			"evm": {
				"assembly": "    /* \"dynamicsizearr.sol\":63:859  contract fixedsizearray{... */\n  mstore(0x40, 0x80)\n    /* \"dynamicsizearr.sol\":107:112  false */\n  0x00\n    /* \"dynamicsizearr.sol\":93:112  bool update = false */\n  dup1\n  exp(0x0100, 0x00)\n  dup2\n  sload\n  dup2\n  0xff\n  mul\n  not\n  and\n  swap1\n  dup4\n  iszero\n  iszero\n  mul\n  or\n  swap1\n  sstore\n  pop\n    /* \"dynamicsizearr.sol\":118:151  uint[] arr = [10, 20, 30, 40, 50] */\n  mload(0x40)\n  dup1\n  0xa0\n  add\n  0x40\n  mstore\n  dup1\n    /* \"dynamicsizearr.sol\":132:134  10 */\n  0x0a\n    /* \"dynamicsizearr.sol\":118:151  uint[] arr = [10, 20, 30, 40, 50] */\n  0xff\n  and\n  dup2\n  mstore\n  0x20\n  add\n    /* \"dynamicsizearr.sol\":136:138  20 */\n  0x14\n    /* \"dynamicsizearr.sol\":118:151  uint[] arr = [10, 20, 30, 40, 50] */\n  0xff\n  and\n  dup2\n  mstore\n  0x20\n  add\n    /* \"dynamicsizearr.sol\":140:142  30 */\n  0x1e\n    /* \"dynamicsizearr.sol\":118:151  uint[] arr = [10, 20, 30, 40, 50] */\n  0xff\n  and\n  dup2\n  mstore\n  0x20\n  add\n    /* \"dynamicsizearr.sol\":144:146  40 */\n  0x28\n    /* \"dynamicsizearr.sol\":118:151  uint[] arr = [10, 20, 30, 40, 50] */\n  0xff\n  and\n  dup2\n  mstore\n  0x20\n  add\n    /* \"dynamicsizearr.sol\":148:150  50 */\n  0x32\n    /* \"dynamicsizearr.sol\":118:151  uint[] arr = [10, 20, 30, 40, 50] */\n  0xff\n  and\n  dup2\n  mstore\n  pop\n  0x01\n  swap1\n  0x05\n  tag_1\n  swap3\n  swap2\n  swap1\n  tag_2\n  jump\t// in\ntag_1:\n  pop\n    /* \"dynamicsizearr.sol\":63:859  contract fixedsizearray{... */\n  callvalue\n  dup1\n  iszero\n  tag_3\n  jumpi\n  0x00\n  dup1\n  revert\ntag_3:\n  pop\n  jump(tag_4)\ntag_2:\n  dup3\n  dup1\n  sload\n  dup3\n  dup3\n  sstore\n  swap1\n  0x00\n  mstore\n  keccak256(0x00, 0x20)\n  swap1\n  dup2\n  add\n  swap3\n  dup3\n  iszero\n  tag_5\n  jumpi\n  swap2\n  0x20\n  mul\n  dup3\n  add\ntag_6:\n  dup3\n  dup2\n  gt\n  iszero\n  tag_7\n  jumpi\n  dup3\n  mload\n  dup3\n  swap1\n  0xff\n  and\n  swap1\n  sstore\n  swap2\n  0x20\n  add\n  swap2\n  swap1\n  0x01\n  add\n  swap1\n  jump(tag_6)\ntag_7:\ntag_5:\n  pop\n  swap1\n  pop\n  tag_8\n  swap2\n  swap1\n  tag_9\n  jump\t// in\ntag_8:\n  pop\n  swap1\n  jump\t// out\ntag_9:\ntag_10:\n  dup1\n  dup3\n  gt\n  iszero\n  tag_11\n  jumpi\n  0x00\n  dup2\n  0x00\n  swap1\n  sstore\n  pop\n  0x01\n  add\n  jump(tag_10)\ntag_11:\n  pop\n  swap1\n  jump\t// out\ntag_4:\n  dataSize(sub_0)\n  dup1\n  dataOffset(sub_0)\n  0x00\n  codecopy\n  0x00\n  return\nstop\n\nsub_0: assembly {\n        /* \"dynamicsizearr.sol\":63:859  contract fixedsizearray{... */\n      mstore(0x40, 0x80)\n      callvalue\n      dup1\n      iszero\n      tag_1\n      jumpi\n      0x00\n      dup1\n      revert\n    tag_1:\n      pop\n      jumpi(tag_2, lt(calldatasize, 0x04))\n      shr(0xe0, calldataload(0x00))\n      dup1\n      0x0469a5e2\n      eq\n      tag_3\n      jumpi\n      dup1\n      0x6bc7deae\n      eq\n      tag_4\n      jumpi\n      dup1\n      0x9fd44f5a\n      eq\n      tag_5\n      jumpi\n      dup1\n      0xa80c52e9\n      eq\n      tag_6\n      jumpi\n    tag_2:\n      0x00\n      dup1\n      revert\n        /* \"dynamicsizearr.sol\":751:857  function pushnum() public view returns(uint[] memory){... */\n    tag_3:\n      tag_7\n      tag_8\n      jump\t// in\n    tag_7:\n      mload(0x40)\n      tag_9\n      swap2\n      swap1\n      tag_10\n      jump\t// in\n    tag_9:\n      mload(0x40)\n      dup1\n      swap2\n      sub\n      swap1\n      return\n        /* \"dynamicsizearr.sol\":177:256  function getarr() public view returns(uint[] memory){... */\n    tag_4:\n      tag_11\n      tag_12\n      jump\t// in\n    tag_11:\n      mload(0x40)\n      tag_13\n      swap2\n      swap1\n      tag_10\n      jump\t// in\n    tag_13:\n      mload(0x40)\n      dup1\n      swap2\n      sub\n      swap1\n      return\n        /* \"dynamicsizearr.sol\":262:676  function updatearr(uint _pos, uint _value) public{... */\n    tag_5:\n      tag_14\n      0x04\n      dup1\n      calldatasize\n      sub\n      dup2\n      add\n      swap1\n      tag_15\n      swap2\n      swap1\n      tag_16\n      jump\t// in\n    tag_15:\n      tag_17\n      jump\t// in\n    tag_14:\n      stop\n        /* \"dynamicsizearr.sol\":682:745  function simpleoushinarr() public{... */\n    tag_6:\n      tag_18\n      tag_19\n      jump\t// in\n    tag_18:\n      stop\n        /* \"dynamicsizearr.sol\":751:857  function pushnum() public view returns(uint[] memory){... */\n    tag_8:\n        /* \"dynamicsizearr.sol\":790:803  uint[] memory */\n      0x60\n        /* \"dynamicsizearr.sol\":847:850  arr */\n      0x01\n        /* \"dynamicsizearr.sol\":840:850  return arr */\n      dup1\n      sload\n      dup1\n      0x20\n      mul\n      0x20\n      add\n      mload(0x40)\n      swap1\n      dup2\n      add\n      0x40\n      mstore\n      dup1\n      swap3\n      swap2\n      swap1\n      dup2\n      dup2\n      mstore\n      0x20\n      add\n      dup3\n      dup1\n      sload\n      dup1\n      iszero\n      tag_21\n      jumpi\n      0x20\n      mul\n      dup3\n      add\n      swap2\n      swap1\n      0x00\n      mstore\n      keccak256(0x00, 0x20)\n      swap1\n    tag_22:\n      dup2\n      sload\n      dup2\n      mstore\n      0x20\n      add\n      swap1\n      0x01\n      add\n      swap1\n      dup1\n      dup4\n      gt\n      tag_22\n      jumpi\n    tag_21:\n      pop\n      pop\n      pop\n      pop\n      pop\n      swap1\n      pop\n        /* \"dynamicsizearr.sol\":751:857  function pushnum() public view returns(uint[] memory){... */\n      swap1\n      jump\t// out\n        /* \"dynamicsizearr.sol\":177:256  function getarr() public view returns(uint[] memory){... */\n    tag_12:\n        /* \"dynamicsizearr.sol\":215:228  uint[] memory */\n      0x60\n        /* \"dynamicsizearr.sol\":246:249  arr */\n      0x01\n        /* \"dynamicsizearr.sol\":239:249  return arr */\n      dup1\n      sload\n      dup1\n      0x20\n      mul\n      0x20\n      add\n      mload(0x40)\n      swap1\n      dup2\n      add\n      0x40\n      mstore\n      dup1\n      swap3\n      swap2\n      swap1\n      dup2\n      dup2\n      mstore\n      0x20\n      add\n      dup3\n      dup1\n      sload\n      dup1\n      iszero\n      tag_24\n      jumpi\n      0x20\n      mul\n      dup3\n      add\n      swap2\n      swap1\n      0x00\n      mstore\n      keccak256(0x00, 0x20)\n      swap1\n    tag_25:\n      dup2\n      sload\n      dup2\n      mstore\n      0x20\n      add\n      swap1\n      0x01\n      add\n      swap1\n      dup1\n      dup4\n      gt\n      tag_25\n      jumpi\n    tag_24:\n      pop\n      pop\n      pop\n      pop\n      pop\n      swap1\n      pop\n        /* \"dynamicsizearr.sol\":177:256  function getarr() public view returns(uint[] memory){... */\n      swap1\n      jump\t// out\n        /* \"dynamicsizearr.sol\":262:676  function updatearr(uint _pos, uint _value) public{... */\n    tag_17:\n        /* \"dynamicsizearr.sol\":342:346  _pos */\n      dup2\n        /* \"dynamicsizearr.sol\":337:338  1 */\n      0x01\n        /* \"dynamicsizearr.sol\":325:328  arr */\n      dup1\n        /* \"dynamicsizearr.sol\":325:335  arr.length */\n      dup1\n      sload\n      swap1\n      pop\n        /* \"dynamicsizearr.sol\":325:338  arr.length -1 */\n      tag_27\n      swap2\n      swap1\n      tag_28\n      jump\t// in\n    tag_27:\n        /* \"dynamicsizearr.sol\":324:346  (arr.length -1) > _pos */\n      gt\n        /* \"dynamicsizearr.sol\":321:669  if((arr.length -1) > _pos){... */\n      iszero\n      tag_29\n      jumpi\n        /* \"dynamicsizearr.sol\":373:379  _value */\n      dup1\n        /* \"dynamicsizearr.sol\":361:364  arr */\n      0x01\n        /* \"dynamicsizearr.sol\":365:369  _pos */\n      dup4\n        /* \"dynamicsizearr.sol\":361:370  arr[_pos] */\n      dup2\n      sload\n      dup2\n      lt\n      tag_30\n      jumpi\n      tag_31\n      tag_32\n      jump\t// in\n    tag_31:\n    tag_30:\n      swap1\n      0x00\n      mstore\n      keccak256(0x00, 0x20)\n      add\n        /* \"dynamicsizearr.sol\":361:379  arr[_pos] = _value */\n      dup2\n      swap1\n      sstore\n      pop\n        /* \"dynamicsizearr.sol\":402:406  true */\n      0x01\n        /* \"dynamicsizearr.sol\":393:399  update */\n      0x00\n      dup1\n        /* \"dynamicsizearr.sol\":393:406  update = true */\n      0x0100\n      exp\n      dup2\n      sload\n      dup2\n      0xff\n      mul\n      not\n      and\n      swap1\n      dup4\n      iszero\n      iszero\n      mul\n      or\n      swap1\n      sstore\n      pop\n        /* \"dynamicsizearr.sol\":321:669  if((arr.length -1) > _pos){... */\n      jump(tag_34)\n    tag_29:\n        /* \"dynamicsizearr.sol\":439:445  uint i */\n      0x00\n        /* \"dynamicsizearr.sol\":448:451  arr */\n      0x01\n        /* \"dynamicsizearr.sol\":448:458  arr.length */\n      dup1\n      sload\n      swap1\n      pop\n        /* \"dynamicsizearr.sol\":439:458  uint i = arr.length */\n      swap1\n      pop\n        /* \"dynamicsizearr.sol\":435:659  for(uint i = arr.length; i<_pos-1; i++){... */\n    tag_35:\n        /* \"dynamicsizearr.sol\":467:468  1 */\n      0x01\n        /* \"dynamicsizearr.sol\":462:466  _pos */\n      dup4\n        /* \"dynamicsizearr.sol\":462:468  _pos-1 */\n      tag_38\n      swap2\n      swap1\n      tag_28\n      jump\t// in\n    tag_38:\n        /* \"dynamicsizearr.sol\":460:461  i */\n      dup2\n        /* \"dynamicsizearr.sol\":460:468  i<_pos-1 */\n      lt\n        /* \"dynamicsizearr.sol\":435:659  for(uint i = arr.length; i<_pos-1; i++){... */\n      iszero\n      tag_36\n      jumpi\n        /* \"dynamicsizearr.sol\":511:515  _pos */\n      dup3\n        /* \"dynamicsizearr.sol\":506:507  1 */\n      0x01\n        /* \"dynamicsizearr.sol\":495:498  arr */\n      dup1\n        /* \"dynamicsizearr.sol\":495:505  arr.length */\n      dup1\n      sload\n      swap1\n      pop\n        /* \"dynamicsizearr.sol\":495:507  arr.length-1 */\n      tag_39\n      swap2\n      swap1\n      tag_28\n      jump\t// in\n    tag_39:\n        /* \"dynamicsizearr.sol\":495:515  arr.length-1 != _pos */\n      eq\n        /* \"dynamicsizearr.sol\":492:629  if(arr.length-1 != _pos){... */\n      tag_40\n      jumpi\n        /* \"dynamicsizearr.sol\":538:541  arr */\n      0x01\n        /* \"dynamicsizearr.sol\":547:548  0 */\n      0x00\n        /* \"dynamicsizearr.sol\":538:549  arr.push(0) */\n      swap1\n      dup1\n      0x01\n      dup2\n      sload\n      add\n      dup1\n      dup3\n      sstore\n      dup1\n      swap2\n      pop\n      pop\n      0x01\n      swap1\n      sub\n      swap1\n      0x00\n      mstore\n      keccak256(0x00, 0x20)\n      add\n      0x00\n      swap1\n      swap2\n      swap1\n      swap2\n      swap1\n      swap2\n      pop\n      sstore\n        /* \"dynamicsizearr.sol\":492:629  if(arr.length-1 != _pos){... */\n      jump(tag_42)\n    tag_40:\n        /* \"dynamicsizearr.sol\":591:594  arr */\n      0x01\n        /* \"dynamicsizearr.sol\":600:606  _value */\n      dup3\n        /* \"dynamicsizearr.sol\":591:607  arr.push(_value) */\n      swap1\n      dup1\n      0x01\n      dup2\n      sload\n      add\n      dup1\n      dup3\n      sstore\n      dup1\n      swap2\n      pop\n      pop\n      0x01\n      swap1\n      sub\n      swap1\n      0x00\n      mstore\n      keccak256(0x00, 0x20)\n      add\n      0x00\n      swap1\n      swap2\n      swap1\n      swap2\n      swap1\n      swap2\n      pop\n      sstore\n        /* \"dynamicsizearr.sol\":492:629  if(arr.length-1 != _pos){... */\n    tag_42:\n        /* \"dynamicsizearr.sol\":470:473  i++ */\n      dup1\n      dup1\n      tag_44\n      swap1\n      tag_45\n      jump\t// in\n    tag_44:\n      swap2\n      pop\n      pop\n        /* \"dynamicsizearr.sol\":435:659  for(uint i = arr.length; i<_pos-1; i++){... */\n      jump(tag_35)\n    tag_36:\n      pop\n        /* \"dynamicsizearr.sol\":321:669  if((arr.length -1) > _pos){... */\n    tag_34:\n        /* \"dynamicsizearr.sol\":262:676  function updatearr(uint _pos, uint _value) public{... */\n      pop\n      pop\n      jump\t// out\n        /* \"dynamicsizearr.sol\":682:745  function simpleoushinarr() public{... */\n    tag_19:\n        /* \"dynamicsizearr.sol\":725:728  arr */\n      0x01\n        /* \"dynamicsizearr.sol\":734:737  123 */\n      0x7b\n        /* \"dynamicsizearr.sol\":725:738  arr.push(123) */\n      swap1\n      dup1\n      0x01\n      dup2\n      sload\n      add\n      dup1\n      dup3\n      sstore\n      dup1\n      swap2\n      pop\n      pop\n      0x01\n      swap1\n      sub\n      swap1\n      0x00\n      mstore\n      keccak256(0x00, 0x20)\n      add\n      0x00\n      swap1\n      swap2\n      swap1\n      swap2\n      swap1\n      swap2\n      pop\n      sstore\n        /* \"dynamicsizearr.sol\":682:745  function simpleoushinarr() public{... */\n      jump\t// out\n        /* \"#utility.yul\":7:146   */\n    tag_49:\n        /* \"#utility.yul\":53:58   */\n      0x00\n        /* \"#utility.yul\":91:97   */\n      dup2\n        /* \"#utility.yul\":78:98   */\n      calldataload\n        /* \"#utility.yul\":69:98   */\n      swap1\n      pop\n        /* \"#utility.yul\":107:140   */\n      tag_51\n        /* \"#utility.yul\":134:139   */\n      dup2\n        /* \"#utility.yul\":107:140   */\n      tag_52\n      jump\t// in\n    tag_51:\n        /* \"#utility.yul\":7:146   */\n      swap3\n      swap2\n      pop\n      pop\n      jump\t// out\n        /* \"#utility.yul\":152:626   */\n    tag_16:\n        /* \"#utility.yul\":220:226   */\n      0x00\n        /* \"#utility.yul\":228:234   */\n      dup1\n        /* \"#utility.yul\":277:279   */\n      0x40\n        /* \"#utility.yul\":265:274   */\n      dup4\n        /* \"#utility.yul\":256:263   */\n      dup6\n        /* \"#utility.yul\":252:275   */\n      sub\n        /* \"#utility.yul\":248:280   */\n      slt\n        /* \"#utility.yul\":245:364   */\n      iszero\n      tag_54\n      jumpi\n        /* \"#utility.yul\":283:362   */\n      tag_55\n      tag_56\n      jump\t// in\n    tag_55:\n        /* \"#utility.yul\":245:364   */\n    tag_54:\n        /* \"#utility.yul\":403:404   */\n      0x00\n        /* \"#utility.yul\":428:481   */\n      tag_57\n        /* \"#utility.yul\":473:480   */\n      dup6\n        /* \"#utility.yul\":464:470   */\n      dup3\n        /* \"#utility.yul\":453:462   */\n      dup7\n        /* \"#utility.yul\":449:471   */\n      add\n        /* \"#utility.yul\":428:481   */\n      tag_49\n      jump\t// in\n    tag_57:\n        /* \"#utility.yul\":418:481   */\n      swap3\n      pop\n        /* \"#utility.yul\":374:491   */\n      pop\n        /* \"#utility.yul\":530:532   */\n      0x20\n        /* \"#utility.yul\":556:609   */\n      tag_58\n        /* \"#utility.yul\":601:608   */\n      dup6\n        /* \"#utility.yul\":592:598   */\n      dup3\n        /* \"#utility.yul\":581:590   */\n      dup7\n        /* \"#utility.yul\":577:599   */\n      add\n        /* \"#utility.yul\":556:609   */\n      tag_49\n      jump\t// in\n    tag_58:\n        /* \"#utility.yul\":546:609   */\n      swap2\n      pop\n        /* \"#utility.yul\":501:619   */\n      pop\n        /* \"#utility.yul\":152:626   */\n      swap3\n      pop\n      swap3\n      swap1\n      pop\n      jump\t// out\n        /* \"#utility.yul\":632:811   */\n    tag_59:\n        /* \"#utility.yul\":701:711   */\n      0x00\n        /* \"#utility.yul\":722:768   */\n      tag_61\n        /* \"#utility.yul\":764:767   */\n      dup4\n        /* \"#utility.yul\":756:762   */\n      dup4\n        /* \"#utility.yul\":722:768   */\n      tag_62\n      jump\t// in\n    tag_61:\n        /* \"#utility.yul\":800:804   */\n      0x20\n        /* \"#utility.yul\":795:798   */\n      dup4\n        /* \"#utility.yul\":791:805   */\n      add\n        /* \"#utility.yul\":777:805   */\n      swap1\n      pop\n        /* \"#utility.yul\":632:811   */\n      swap3\n      swap2\n      pop\n      pop\n      jump\t// out\n        /* \"#utility.yul\":847:1579   */\n    tag_63:\n        /* \"#utility.yul\":966:969   */\n      0x00\n        /* \"#utility.yul\":995:1049   */\n      tag_65\n        /* \"#utility.yul\":1043:1048   */\n      dup3\n        /* \"#utility.yul\":995:1049   */\n      tag_66\n      jump\t// in\n    tag_65:\n        /* \"#utility.yul\":1065:1151   */\n      tag_67\n        /* \"#utility.yul\":1144:1150   */\n      dup2\n        /* \"#utility.yul\":1139:1142   */\n      dup6\n        /* \"#utility.yul\":1065:1151   */\n      tag_68\n      jump\t// in\n    tag_67:\n        /* \"#utility.yul\":1058:1151   */\n      swap4\n      pop\n        /* \"#utility.yul\":1175:1231   */\n      tag_69\n        /* \"#utility.yul\":1225:1230   */\n      dup4\n        /* \"#utility.yul\":1175:1231   */\n      tag_70\n      jump\t// in\n    tag_69:\n        /* \"#utility.yul\":1254:1261   */\n      dup1\n        /* \"#utility.yul\":1285:1286   */\n      0x00\n        /* \"#utility.yul\":1270:1554   */\n    tag_71:\n        /* \"#utility.yul\":1295:1301   */\n      dup4\n        /* \"#utility.yul\":1292:1293   */\n      dup2\n        /* \"#utility.yul\":1289:1302   */\n      lt\n        /* \"#utility.yul\":1270:1554   */\n      iszero\n      tag_73\n      jumpi\n        /* \"#utility.yul\":1371:1377   */\n      dup2\n        /* \"#utility.yul\":1365:1378   */\n      mload\n        /* \"#utility.yul\":1398:1461   */\n      tag_74\n        /* \"#utility.yul\":1457:1460   */\n      dup9\n        /* \"#utility.yul\":1442:1455   */\n      dup3\n        /* \"#utility.yul\":1398:1461   */\n      tag_59\n      jump\t// in\n    tag_74:\n        /* \"#utility.yul\":1391:1461   */\n      swap8\n      pop\n        /* \"#utility.yul\":1484:1544   */\n      tag_75\n        /* \"#utility.yul\":1537:1543   */\n      dup4\n        /* \"#utility.yul\":1484:1544   */\n      tag_76\n      jump\t// in\n    tag_75:\n        /* \"#utility.yul\":1474:1544   */\n      swap3\n      pop\n        /* \"#utility.yul\":1330:1554   */\n      pop\n        /* \"#utility.yul\":1317:1318   */\n      0x01\n        /* \"#utility.yul\":1314:1315   */\n      dup2\n        /* \"#utility.yul\":1310:1319   */\n      add\n        /* \"#utility.yul\":1305:1319   */\n      swap1\n      pop\n        /* \"#utility.yul\":1270:1554   */\n      jump(tag_71)\n    tag_73:\n        /* \"#utility.yul\":1274:1288   */\n      pop\n        /* \"#utility.yul\":1570:1573   */\n      dup6\n        /* \"#utility.yul\":1563:1573   */\n      swap4\n      pop\n        /* \"#utility.yul\":971:1579   */\n      pop\n      pop\n      pop\n        /* \"#utility.yul\":847:1579   */\n      swap3\n      swap2\n      pop\n      pop\n      jump\t// out\n        /* \"#utility.yul\":1585:1693   */\n    tag_62:\n        /* \"#utility.yul\":1662:1686   */\n      tag_78\n        /* \"#utility.yul\":1680:1685   */\n      dup2\n        /* \"#utility.yul\":1662:1686   */\n      tag_79\n      jump\t// in\n    tag_78:\n        /* \"#utility.yul\":1657:1660   */\n      dup3\n        /* \"#utility.yul\":1650:1687   */\n      mstore\n        /* \"#utility.yul\":1585:1693   */\n      pop\n      pop\n      jump\t// out\n        /* \"#utility.yul\":1699:2072   */\n    tag_10:\n        /* \"#utility.yul\":1842:1846   */\n      0x00\n        /* \"#utility.yul\":1880:1882   */\n      0x20\n        /* \"#utility.yul\":1869:1878   */\n      dup3\n        /* \"#utility.yul\":1865:1883   */\n      add\n        /* \"#utility.yul\":1857:1883   */\n      swap1\n      pop\n        /* \"#utility.yul\":1929:1938   */\n      dup2\n        /* \"#utility.yul\":1923:1927   */\n      dup2\n        /* \"#utility.yul\":1919:1939   */\n      sub\n        /* \"#utility.yul\":1915:1916   */\n      0x00\n        /* \"#utility.yul\":1904:1913   */\n      dup4\n        /* \"#utility.yul\":1900:1917   */\n      add\n        /* \"#utility.yul\":1893:1940   */\n      mstore\n        /* \"#utility.yul\":1957:2065   */\n      tag_81\n        /* \"#utility.yul\":2060:2064   */\n      dup2\n        /* \"#utility.yul\":2051:2057   */\n      dup5\n        /* \"#utility.yul\":1957:2065   */\n      tag_63\n      jump\t// in\n    tag_81:\n        /* \"#utility.yul\":1949:2065   */\n      swap1\n      pop\n        /* \"#utility.yul\":1699:2072   */\n      swap3\n      swap2\n      pop\n      pop\n      jump\t// out\n        /* \"#utility.yul\":2159:2291   */\n    tag_70:\n        /* \"#utility.yul\":2226:2230   */\n      0x00\n        /* \"#utility.yul\":2249:2252   */\n      dup2\n        /* \"#utility.yul\":2241:2252   */\n      swap1\n      pop\n        /* \"#utility.yul\":2279:2283   */\n      0x20\n        /* \"#utility.yul\":2274:2277   */\n      dup3\n        /* \"#utility.yul\":2270:2284   */\n      add\n        /* \"#utility.yul\":2262:2284   */\n      swap1\n      pop\n        /* \"#utility.yul\":2159:2291   */\n      swap2\n      swap1\n      pop\n      jump\t// out\n        /* \"#utility.yul\":2297:2411   */\n    tag_66:\n        /* \"#utility.yul\":2364:2370   */\n      0x00\n        /* \"#utility.yul\":2398:2403   */\n      dup2\n        /* \"#utility.yul\":2392:2404   */\n      mload\n        /* \"#utility.yul\":2382:2404   */\n      swap1\n      pop\n        /* \"#utility.yul\":2297:2411   */\n      swap2\n      swap1\n      pop\n      jump\t// out\n        /* \"#utility.yul\":2417:2530   */\n    tag_76:\n        /* \"#utility.yul\":2487:2491   */\n      0x00\n        /* \"#utility.yul\":2519:2523   */\n      0x20\n        /* \"#utility.yul\":2514:2517   */\n      dup3\n        /* \"#utility.yul\":2510:2524   */\n      add\n        /* \"#utility.yul\":2502:2524   */\n      swap1\n      pop\n        /* \"#utility.yul\":2417:2530   */\n      swap2\n      swap1\n      pop\n      jump\t// out\n        /* \"#utility.yul\":2536:2720   */\n    tag_68:\n        /* \"#utility.yul\":2635:2646   */\n      0x00\n        /* \"#utility.yul\":2669:2675   */\n      dup3\n        /* \"#utility.yul\":2664:2667   */\n      dup3\n        /* \"#utility.yul\":2657:2676   */\n      mstore\n        /* \"#utility.yul\":2709:2713   */\n      0x20\n        /* \"#utility.yul\":2704:2707   */\n      dup3\n        /* \"#utility.yul\":2700:2714   */\n      add\n        /* \"#utility.yul\":2685:2714   */\n      swap1\n      pop\n        /* \"#utility.yul\":2536:2720   */\n      swap3\n      swap2\n      pop\n      pop\n      jump\t// out\n        /* \"#utility.yul\":2726:2917   */\n    tag_28:\n        /* \"#utility.yul\":2766:2770   */\n      0x00\n        /* \"#utility.yul\":2786:2806   */\n      tag_89\n        /* \"#utility.yul\":2804:2805   */\n      dup3\n        /* \"#utility.yul\":2786:2806   */\n      tag_79\n      jump\t// in\n    tag_89:\n        /* \"#utility.yul\":2781:2806   */\n      swap2\n      pop\n        /* \"#utility.yul\":2820:2840   */\n      tag_90\n        /* \"#utility.yul\":2838:2839   */\n      dup4\n        /* \"#utility.yul\":2820:2840   */\n      tag_79\n      jump\t// in\n    tag_90:\n        /* \"#utility.yul\":2815:2840   */\n      swap3\n      pop\n        /* \"#utility.yul\":2859:2860   */\n      dup3\n        /* \"#utility.yul\":2856:2857   */\n      dup3\n        /* \"#utility.yul\":2853:2861   */\n      lt\n        /* \"#utility.yul\":2850:2884   */\n      iszero\n      tag_91\n      jumpi\n        /* \"#utility.yul\":2864:2882   */\n      tag_92\n      tag_93\n      jump\t// in\n    tag_92:\n        /* \"#utility.yul\":2850:2884   */\n    tag_91:\n        /* \"#utility.yul\":2909:2910   */\n      dup3\n        /* \"#utility.yul\":2906:2907   */\n      dup3\n        /* \"#utility.yul\":2902:2911   */\n      sub\n        /* \"#utility.yul\":2894:2911   */\n      swap1\n      pop\n        /* \"#utility.yul\":2726:2917   */\n      swap3\n      swap2\n      pop\n      pop\n      jump\t// out\n        /* \"#utility.yul\":2923:3000   */\n    tag_79:\n        /* \"#utility.yul\":2960:2967   */\n      0x00\n        /* \"#utility.yul\":2989:2994   */\n      dup2\n        /* \"#utility.yul\":2978:2994   */\n      swap1\n      pop\n        /* \"#utility.yul\":2923:3000   */\n      swap2\n      swap1\n      pop\n      jump\t// out\n        /* \"#utility.yul\":3006:3239   */\n    tag_45:\n        /* \"#utility.yul\":3045:3048   */\n      0x00\n        /* \"#utility.yul\":3068:3092   */\n      tag_96\n        /* \"#utility.yul\":3086:3091   */\n      dup3\n        /* \"#utility.yul\":3068:3092   */\n      tag_79\n      jump\t// in\n    tag_96:\n        /* \"#utility.yul\":3059:3092   */\n      swap2\n      pop\n        /* \"#utility.yul\":3114:3180   */\n      0xffffffffffffffffffffffffffffffffffffffffffffffffffffffffffffffff\n        /* \"#utility.yul\":3107:3112   */\n      dup3\n        /* \"#utility.yul\":3104:3181   */\n      eq\n        /* \"#utility.yul\":3101:3204   */\n      iszero\n      tag_97\n      jumpi\n        /* \"#utility.yul\":3184:3202   */\n      tag_98\n      tag_93\n      jump\t// in\n    tag_98:\n        /* \"#utility.yul\":3101:3204   */\n    tag_97:\n        /* \"#utility.yul\":3231:3232   */\n      0x01\n        /* \"#utility.yul\":3224:3229   */\n      dup3\n        /* \"#utility.yul\":3220:3233   */\n      add\n        /* \"#utility.yul\":3213:3233   */\n      swap1\n      pop\n        /* \"#utility.yul\":3006:3239   */\n      swap2\n      swap1\n      pop\n      jump\t// out\n        /* \"#utility.yul\":3245:3425   */\n    tag_93:\n        /* \"#utility.yul\":3293:3370   */\n      0x4e487b7100000000000000000000000000000000000000000000000000000000\n        /* \"#utility.yul\":3290:3291   */\n      0x00\n        /* \"#utility.yul\":3283:3371   */\n      mstore\n        /* \"#utility.yul\":3390:3394   */\n      0x11\n        /* \"#utility.yul\":3387:3388   */\n      0x04\n        /* \"#utility.yul\":3380:3395   */\n      mstore\n        /* \"#utility.yul\":3414:3418   */\n      0x24\n        /* \"#utility.yul\":3411:3412   */\n      0x00\n        /* \"#utility.yul\":3404:3419   */\n      revert\n        /* \"#utility.yul\":3431:3611   */\n    tag_32:\n        /* \"#utility.yul\":3479:3556   */\n      0x4e487b7100000000000000000000000000000000000000000000000000000000\n        /* \"#utility.yul\":3476:3477   */\n      0x00\n        /* \"#utility.yul\":3469:3557   */\n      mstore\n        /* \"#utility.yul\":3576:3580   */\n      0x32\n        /* \"#utility.yul\":3573:3574   */\n      0x04\n        /* \"#utility.yul\":3566:3581   */\n      mstore\n        /* \"#utility.yul\":3600:3604   */\n      0x24\n        /* \"#utility.yul\":3597:3598   */\n      0x00\n        /* \"#utility.yul\":3590:3605   */\n      revert\n        /* \"#utility.yul\":3740:3857   */\n    tag_56:\n        /* \"#utility.yul\":3849:3850   */\n      0x00\n        /* \"#utility.yul\":3846:3847   */\n      dup1\n        /* \"#utility.yul\":3839:3851   */\n      revert\n        /* \"#utility.yul\":3863:3985   */\n    tag_52:\n        /* \"#utility.yul\":3936:3960   */\n      tag_105\n        /* \"#utility.yul\":3954:3959   */\n      dup2\n        /* \"#utility.yul\":3936:3960   */\n      tag_79\n      jump\t// in\n    tag_105:\n        /* \"#utility.yul\":3929:3934   */\n      dup2\n        /* \"#utility.yul\":3926:3961   */\n      eq\n        /* \"#utility.yul\":3916:3979   */\n      tag_106\n      jumpi\n        /* \"#utility.yul\":3975:3976   */\n      0x00\n        /* \"#utility.yul\":3972:3973   */\n      dup1\n        /* \"#utility.yul\":3965:3977   */\n      revert\n        /* \"#utility.yul\":3916:3979   */\n    tag_106:\n        /* \"#utility.yul\":3863:3985   */\n      pop\n      jump\t// out\n\n    auxdata: 0xa2646970667358221220c32c85017f1fd97d0673e279baa634fbd357894cca90ff98a9e79941867d27b564736f6c63430008070033\n}\n",
				"bytecode": {
					"linkReferences": {},
					"object": "608060405260008060006101000a81548160ff0219169083151502179055506040518060a00160405280600a60ff168152602001601460ff168152602001601e60ff168152602001602860ff168152602001603260ff16815250600190600561006992919061007c565b5034801561007657600080fd5b506100eb565b8280548282559060005260206000209081019282156100bd579160200282015b828111156100bc578251829060ff1690559160200191906001019061009c565b5b5090506100ca91906100ce565b5090565b5b808211156100e75760008160009055506001016100cf565b5090565b6104fd806100fa6000396000f3fe608060405234801561001057600080fd5b506004361061004c5760003560e01c80630469a5e2146100515780636bc7deae1461006f5780639fd44f5a1461008d578063a80c52e9146100a9575b600080fd5b6100596100b3565b604051610066919061036b565b60405180910390f35b61007761010b565b604051610084919061036b565b60405180910390f35b6100a760048036038101906100a291906102a6565b610163565b005b6100b1610265565b005b6060600180548060200260200160405190810160405280929190818152602001828054801561010157602002820191906000526020600020905b8154815260200190600101908083116100ed575b5050505050905090565b6060600180548060200260200160405190810160405280929190818152602001828054801561015957602002820191906000526020600020905b815481526020019060010190808311610145575b5050505050905090565b816001808054905061017591906103c6565b11156101bd5780600183815481106101905761018f61047c565b5b906000526020600020018190555060016000806101000a81548160ff021916908315150217905550610261565b600060018054905090505b6001836101d591906103c6565b81101561025f5782600180805490506101ee91906103c6565b146102225760016000908060018154018082558091505060019003906000526020600020016000909190919091505561024c565b60018290806001815401808255809150506001900390600052602060002001600090919091909150555b808061025790610404565b9150506101c8565b505b5050565b6001607b9080600181540180825580915050600190039060005260206000200160009091909190915055565b6000813590506102a0816104b0565b92915050565b600080604083850312156102bd576102bc6104ab565b5b60006102cb85828601610291565b92505060206102dc85828601610291565b9150509250929050565b60006102f2838361035c565b60208301905092915050565b60006103098261039d565b61031381856103b5565b935061031e8361038d565b8060005b8381101561034f57815161033688826102e6565b9750610341836103a8565b925050600181019050610322565b5085935050505092915050565b610365816103fa565b82525050565b6000602082019050818103600083015261038581846102fe565b905092915050565b6000819050602082019050919050565b600081519050919050565b6000602082019050919050565b600082825260208201905092915050565b60006103d1826103fa565b91506103dc836103fa565b9250828210156103ef576103ee61044d565b5b828203905092915050565b6000819050919050565b600061040f826103fa565b91507fffffffffffffffffffffffffffffffffffffffffffffffffffffffffffffffff8214156104425761044161044d565b5b600182019050919050565b7f4e487b7100000000000000000000000000000000000000000000000000000000600052601160045260246000fd5b7f4e487b7100000000000000000000000000000000000000000000000000000000600052603260045260246000fd5b600080fd5b6104b9816103fa565b81146104c457600080fd5b5056fea2646970667358221220c32c85017f1fd97d0673e279baa634fbd357894cca90ff98a9e79941867d27b564736f6c63430008070033",
					"opcodes": "PUSH1 0x80 PUSH1 0x40 MSTORE PUSH1 0x0 DUP1 PUSH1 0x0 PUSH2 0x100 EXP DUP2 SLOAD DUP2 PUSH1 0xFF MUL NOT AND SWAP1 DUP4 ISZERO ISZERO MUL OR SWAP1 SSTORE POP PUSH1 0x40 MLOAD DUP1 PUSH1 0xA0 ADD PUSH1 0x40 MSTORE DUP1 PUSH1 0xA PUSH1 0xFF AND DUP2 MSTORE PUSH1 0x20 ADD PUSH1 0x14 PUSH1 0xFF AND DUP2 MSTORE PUSH1 0x20 ADD PUSH1 0x1E PUSH1 0xFF AND DUP2 MSTORE PUSH1 0x20 ADD PUSH1 0x28 PUSH1 0xFF AND DUP2 MSTORE PUSH1 0x20 ADD PUSH1 0x32 PUSH1 0xFF AND DUP2 MSTORE POP PUSH1 0x1 SWAP1 PUSH1 0x5 PUSH2 0x69 SWAP3 SWAP2 SWAP1 PUSH2 0x7C JUMP JUMPDEST POP CALLVALUE DUP1 ISZERO PUSH2 0x76 JUMPI PUSH1 0x0 DUP1 REVERT JUMPDEST POP PUSH2 0xEB JUMP JUMPDEST DUP3 DUP1 SLOAD DUP3 DUP3 SSTORE SWAP1 PUSH1 0x0 MSTORE PUSH1 0x20 PUSH1 0x0 KECCAK256 SWAP1 DUP2 ADD SWAP3 DUP3 ISZERO PUSH2 0xBD JUMPI SWAP2 PUSH1 0x20 MUL DUP3 ADD JUMPDEST DUP3 DUP2 GT ISZERO PUSH2 0xBC JUMPI DUP3 MLOAD DUP3 SWAP1 PUSH1 0xFF AND SWAP1 SSTORE SWAP2 PUSH1 0x20 ADD SWAP2 SWAP1 PUSH1 0x1 ADD SWAP1 PUSH2 0x9C JUMP JUMPDEST JUMPDEST POP SWAP1 POP PUSH2 0xCA SWAP2 SWAP1 PUSH2 0xCE JUMP JUMPDEST POP SWAP1 JUMP JUMPDEST JUMPDEST DUP1 DUP3 GT ISZERO PUSH2 0xE7 JUMPI PUSH1 0x0 DUP2 PUSH1 0x0 SWAP1 SSTORE POP PUSH1 0x1 ADD PUSH2 0xCF JUMP JUMPDEST POP SWAP1 JUMP JUMPDEST PUSH2 0x4FD DUP1 PUSH2 0xFA PUSH1 0x0 CODECOPY PUSH1 0x0 RETURN INVALID PUSH1 0x80 PUSH1 0x40 MSTORE CALLVALUE DUP1 ISZERO PUSH2 0x10 JUMPI PUSH1 0x0 DUP1 REVERT JUMPDEST POP PUSH1 0x4 CALLDATASIZE LT PUSH2 0x4C JUMPI PUSH1 0x0 CALLDATALOAD PUSH1 0xE0 SHR DUP1 PUSH4 0x469A5E2 EQ PUSH2 0x51 JUMPI DUP1 PUSH4 0x6BC7DEAE EQ PUSH2 0x6F JUMPI DUP1 PUSH4 0x9FD44F5A EQ PUSH2 0x8D JUMPI DUP1 PUSH4 0xA80C52E9 EQ PUSH2 0xA9 JUMPI JUMPDEST PUSH1 0x0 DUP1 REVERT JUMPDEST PUSH2 0x59 PUSH2 0xB3 JUMP JUMPDEST PUSH1 0x40 MLOAD PUSH2 0x66 SWAP2 SWAP1 PUSH2 0x36B JUMP JUMPDEST PUSH1 0x40 MLOAD DUP1 SWAP2 SUB SWAP1 RETURN JUMPDEST PUSH2 0x77 PUSH2 0x10B JUMP JUMPDEST PUSH1 0x40 MLOAD PUSH2 0x84 SWAP2 SWAP1 PUSH2 0x36B JUMP JUMPDEST PUSH1 0x40 MLOAD DUP1 SWAP2 SUB SWAP1 RETURN JUMPDEST PUSH2 0xA7 PUSH1 0x4 DUP1 CALLDATASIZE SUB DUP2 ADD SWAP1 PUSH2 0xA2 SWAP2 SWAP1 PUSH2 0x2A6 JUMP JUMPDEST PUSH2 0x163 JUMP JUMPDEST STOP JUMPDEST PUSH2 0xB1 PUSH2 0x265 JUMP JUMPDEST STOP JUMPDEST PUSH1 0x60 PUSH1 0x1 DUP1 SLOAD DUP1 PUSH1 0x20 MUL PUSH1 0x20 ADD PUSH1 0x40 MLOAD SWAP1 DUP2 ADD PUSH1 0x40 MSTORE DUP1 SWAP3 SWAP2 SWAP1 DUP2 DUP2 MSTORE PUSH1 0x20 ADD DUP3 DUP1 SLOAD DUP1 ISZERO PUSH2 0x101 JUMPI PUSH1 0x20 MUL DUP3 ADD SWAP2 SWAP1 PUSH1 0x0 MSTORE PUSH1 0x20 PUSH1 0x0 KECCAK256 SWAP1 JUMPDEST DUP2 SLOAD DUP2 MSTORE PUSH1 0x20 ADD SWAP1 PUSH1 0x1 ADD SWAP1 DUP1 DUP4 GT PUSH2 0xED JUMPI JUMPDEST POP POP POP POP POP SWAP1 POP SWAP1 JUMP JUMPDEST PUSH1 0x60 PUSH1 0x1 DUP1 SLOAD DUP1 PUSH1 0x20 MUL PUSH1 0x20 ADD PUSH1 0x40 MLOAD SWAP1 DUP2 ADD PUSH1 0x40 MSTORE DUP1 SWAP3 SWAP2 SWAP1 DUP2 DUP2 MSTORE PUSH1 0x20 ADD DUP3 DUP1 SLOAD DUP1 ISZERO PUSH2 0x159 JUMPI PUSH1 0x20 MUL DUP3 ADD SWAP2 SWAP1 PUSH1 0x0 MSTORE PUSH1 0x20 PUSH1 0x0 KECCAK256 SWAP1 JUMPDEST DUP2 SLOAD DUP2 MSTORE PUSH1 0x20 ADD SWAP1 PUSH1 0x1 ADD SWAP1 DUP1 DUP4 GT PUSH2 0x145 JUMPI JUMPDEST POP POP POP POP POP SWAP1 POP SWAP1 JUMP JUMPDEST DUP2 PUSH1 0x1 DUP1 DUP1 SLOAD SWAP1 POP PUSH2 0x175 SWAP2 SWAP1 PUSH2 0x3C6 JUMP JUMPDEST GT ISZERO PUSH2 0x1BD JUMPI DUP1 PUSH1 0x1 DUP4 DUP2 SLOAD DUP2 LT PUSH2 0x190 JUMPI PUSH2 0x18F PUSH2 0x47C JUMP JUMPDEST JUMPDEST SWAP1 PUSH1 0x0 MSTORE PUSH1 0x20 PUSH1 0x0 KECCAK256 ADD DUP2 SWAP1 SSTORE POP PUSH1 0x1 PUSH1 0x0 DUP1 PUSH2 0x100 EXP DUP2 SLOAD DUP2 PUSH1 0xFF MUL NOT AND SWAP1 DUP4 ISZERO ISZERO MUL OR SWAP1 SSTORE POP PUSH2 0x261 JUMP JUMPDEST PUSH1 0x0 PUSH1 0x1 DUP1 SLOAD SWAP1 POP SWAP1 POP JUMPDEST PUSH1 0x1 DUP4 PUSH2 0x1D5 SWAP2 SWAP1 PUSH2 0x3C6 JUMP JUMPDEST DUP2 LT ISZERO PUSH2 0x25F JUMPI DUP3 PUSH1 0x1 DUP1 DUP1 SLOAD SWAP1 POP PUSH2 0x1EE SWAP2 SWAP1 PUSH2 0x3C6 JUMP JUMPDEST EQ PUSH2 0x222 JUMPI PUSH1 0x1 PUSH1 0x0 SWAP1 DUP1 PUSH1 0x1 DUP2 SLOAD ADD DUP1 DUP3 SSTORE DUP1 SWAP2 POP POP PUSH1 0x1 SWAP1 SUB SWAP1 PUSH1 0x0 MSTORE PUSH1 0x20 PUSH1 0x0 KECCAK256 ADD PUSH1 0x0 SWAP1 SWAP2 SWAP1 SWAP2 SWAP1 SWAP2 POP SSTORE PUSH2 0x24C JUMP JUMPDEST PUSH1 0x1 DUP3 SWAP1 DUP1 PUSH1 0x1 DUP2 SLOAD ADD DUP1 DUP3 SSTORE DUP1 SWAP2 POP POP PUSH1 0x1 SWAP1 SUB SWAP1 PUSH1 0x0 MSTORE PUSH1 0x20 PUSH1 0x0 KECCAK256 ADD PUSH1 0x0 SWAP1 SWAP2 SWAP1 SWAP2 SWAP1 SWAP2 POP SSTORE JUMPDEST DUP1 DUP1 PUSH2 0x257 SWAP1 PUSH2 0x404 JUMP JUMPDEST SWAP2 POP POP PUSH2 0x1C8 JUMP JUMPDEST POP JUMPDEST POP POP JUMP JUMPDEST PUSH1 0x1 PUSH1 0x7B SWAP1 DUP1 PUSH1 0x1 DUP2 SLOAD ADD DUP1 DUP3 SSTORE DUP1 SWAP2 POP POP PUSH1 0x1 SWAP1 SUB SWAP1 PUSH1 0x0 MSTORE PUSH1 0x20 PUSH1 0x0 KECCAK256 ADD PUSH1 0x0 SWAP1 SWAP2 SWAP1 SWAP2 SWAP1 SWAP2 POP SSTORE JUMP JUMPDEST PUSH1 0x0 DUP2 CALLDATALOAD SWAP1 POP PUSH2 0x2A0 DUP2 PUSH2 0x4B0 JUMP JUMPDEST SWAP3 SWAP2 POP POP JUMP JUMPDEST PUSH1 0x0 DUP1 PUSH1 0x40 DUP4 DUP6 SUB SLT ISZERO PUSH2 0x2BD JUMPI PUSH2 0x2BC PUSH2 0x4AB JUMP JUMPDEST JUMPDEST PUSH1 0x0 PUSH2 0x2CB DUP6 DUP3 DUP7 ADD PUSH2 0x291 JUMP JUMPDEST SWAP3 POP POP PUSH1 0x20 PUSH2 0x2DC DUP6 DUP3 DUP7 ADD PUSH2 0x291 JUMP JUMPDEST SWAP2 POP POP SWAP3 POP SWAP3 SWAP1 POP JUMP JUMPDEST PUSH1 0x0 PUSH2 0x2F2 DUP4 DUP4 PUSH2 0x35C JUMP JUMPDEST PUSH1 0x20 DUP4 ADD SWAP1 POP SWAP3 SWAP2 POP POP JUMP JUMPDEST PUSH1 0x0 PUSH2 0x309 DUP3 PUSH2 0x39D JUMP JUMPDEST PUSH2 0x313 DUP2 DUP6 PUSH2 0x3B5 JUMP JUMPDEST SWAP4 POP PUSH2 0x31E DUP4 PUSH2 0x38D JUMP JUMPDEST DUP1 PUSH1 0x0 JUMPDEST DUP4 DUP2 LT ISZERO PUSH2 0x34F JUMPI DUP2 MLOAD PUSH2 0x336 DUP9 DUP3 PUSH2 0x2E6 JUMP JUMPDEST SWAP8 POP PUSH2 0x341 DUP4 PUSH2 0x3A8 JUMP JUMPDEST SWAP3 POP POP PUSH1 0x1 DUP2 ADD SWAP1 POP PUSH2 0x322 JUMP JUMPDEST POP DUP6 SWAP4 POP POP POP POP SWAP3 SWAP2 POP POP JUMP JUMPDEST PUSH2 0x365 DUP2 PUSH2 0x3FA JUMP JUMPDEST DUP3 MSTORE POP POP JUMP JUMPDEST PUSH1 0x0 PUSH1 0x20 DUP3 ADD SWAP1 POP DUP2 DUP2 SUB PUSH1 0x0 DUP4 ADD MSTORE PUSH2 0x385 DUP2 DUP5 PUSH2 0x2FE JUMP JUMPDEST SWAP1 POP SWAP3 SWAP2 POP POP JUMP JUMPDEST PUSH1 0x0 DUP2 SWAP1 POP PUSH1 0x20 DUP3 ADD SWAP1 POP SWAP2 SWAP1 POP JUMP JUMPDEST PUSH1 0x0 DUP2 MLOAD SWAP1 POP SWAP2 SWAP1 POP JUMP JUMPDEST PUSH1 0x0 PUSH1 0x20 DUP3 ADD SWAP1 POP SWAP2 SWAP1 POP JUMP JUMPDEST PUSH1 0x0 DUP3 DUP3 MSTORE PUSH1 0x20 DUP3 ADD SWAP1 POP SWAP3 SWAP2 POP POP JUMP JUMPDEST PUSH1 0x0 PUSH2 0x3D1 DUP3 PUSH2 0x3FA JUMP JUMPDEST SWAP2 POP PUSH2 0x3DC DUP4 PUSH2 0x3FA JUMP JUMPDEST SWAP3 POP DUP3 DUP3 LT ISZERO PUSH2 0x3EF JUMPI PUSH2 0x3EE PUSH2 0x44D JUMP JUMPDEST JUMPDEST DUP3 DUP3 SUB SWAP1 POP SWAP3 SWAP2 POP POP JUMP JUMPDEST PUSH1 0x0 DUP2 SWAP1 POP SWAP2 SWAP1 POP JUMP JUMPDEST PUSH1 0x0 PUSH2 0x40F DUP3 PUSH2 0x3FA JUMP JUMPDEST SWAP2 POP PUSH32 0xFFFFFFFFFFFFFFFFFFFFFFFFFFFFFFFFFFFFFFFFFFFFFFFFFFFFFFFFFFFFFFFF DUP3 EQ ISZERO PUSH2 0x442 JUMPI PUSH2 0x441 PUSH2 0x44D JUMP JUMPDEST JUMPDEST PUSH1 0x1 DUP3 ADD SWAP1 POP SWAP2 SWAP1 POP JUMP JUMPDEST PUSH32 0x4E487B7100000000000000000000000000000000000000000000000000000000 PUSH1 0x0 MSTORE PUSH1 0x11 PUSH1 0x4 MSTORE PUSH1 0x24 PUSH1 0x0 REVERT JUMPDEST PUSH32 0x4E487B7100000000000000000000000000000000000000000000000000000000 PUSH1 0x0 MSTORE PUSH1 0x32 PUSH1 0x4 MSTORE PUSH1 0x24 PUSH1 0x0 REVERT JUMPDEST PUSH1 0x0 DUP1 REVERT JUMPDEST PUSH2 0x4B9 DUP2 PUSH2 0x3FA JUMP JUMPDEST DUP2 EQ PUSH2 0x4C4 JUMPI PUSH1 0x0 DUP1 REVERT JUMPDEST POP JUMP INVALID LOG2 PUSH5 0x6970667358 0x22 SLT KECCAK256 0xC3 0x2C DUP6 ADD PUSH32 0x1FD97D0673E279BAA634FBD357894CCA90FF98A9E79941867D27B564736F6C63 NUMBER STOP ADDMOD SMOD STOP CALLER "
				},
				"gasEstimates": {
					"creation": {
						"codeDepositCost": "255400",
						"executionCost": "infinite",
						"totalCost": "infinite"
					},
					"external": {
						"getarr()": "infinite",
						"pushnum()": "infinite",
						"simpleoushinarr()": "46611",
						"updatearr(uint256,uint256)": "infinite"
					}
				},
				"methodIdentifiers": {
					"getarr()": "6bc7deae",
					"pushnum()": "0469a5e2",
					"simpleoushinarr()": "a80c52e9",
					"updatearr(uint256,uint256)": "9fd44f5a"
				}
			},
			"storageLayout": {
				"storage": [
					{
						"astId": 4,
						"contract": "dynamicsizearr.sol:fixedsizearray",
						"label": "update",
						"offset": 0,
						"slot": "0",
						"type": "t_bool"
					},
					{
						"astId": 13,
						"contract": "dynamicsizearr.sol:fixedsizearray",
						"label": "arr",
						"offset": 0,
						"slot": "1",
						"type": "t_array(t_uint256)dyn_storage"
					}
				],
				"types": {
					"t_array(t_uint256)dyn_storage": {
						"base": "t_uint256",
						"encoding": "dynamic_array",
						"label": "uint256[]",
						"numberOfBytes": "32"
					},
					"t_bool": {
						"encoding": "inplace",
						"label": "bool",
						"numberOfBytes": "1"
					},
					"t_uint256": {
						"encoding": "inplace",
						"label": "uint256",
						"numberOfBytes": "32"
					}
				}
			},
			"userdoc": {
				"kind": "user",
				"methods": {},
				"version": 1
			}
		}
	}
}