{
	"localvariable.sol": {
		"localvariable": {
			"abi": [
				{
					"inputs": [],
					"stateMutability": "nonpayable",
					"type": "constructor"
				},
				{
					"inputs": [],
					"name": "boolvar",
					"outputs": [
						{
							"internalType": "bool",
							"name": "",
							"type": "bool"
						}
					],
					"stateMutability": "view",
					"type": "function"
				},
				{
					"inputs": [],
					"name": "statevarable",
					"outputs": [
						{
							"internalType": "uint256",
							"name": "",
							"type": "uint256"
						}
					],
					"stateMutability": "view",
					"type": "function"
				}
			],
			"devdoc": {
				"kind": "dev",
				"methods": {},
				"version": 1
			},
			"evm": {
				"assembly": "    /* \"localvariable.sol\":63:207  contract localvariable{... */\n  mstore(0x40, 0x80)\n    /* \"localvariable.sol\":144:149  false */\n  0x00\n    /* \"localvariable.sol\":122:149  bool public boolvar = false */\n  0x01\n  exp(0x0100, 0x00)\n  dup2\n  sload\n  dup2\n  0xff\n  mul\n  not\n  and\n  swap1\n  dup4\n  iszero\n  iszero\n  mul\n  or\n  swap1\n  sstore\n  pop\n    /* \"localvariable.sol\":156:204  constructor(){... */\n  callvalue\n  dup1\n  iszero\n  tag_1\n  jumpi\n  0x00\n  dup1\n  revert\ntag_1:\n  pop\n    /* \"localvariable.sol\":194:197  100 */\n  0x64\n    /* \"localvariable.sol\":179:191  statevarable */\n  0x00\n    /* \"localvariable.sol\":179:197  statevarable = 100 */\n  dup2\n  swap1\n  sstore\n  pop\n    /* \"localvariable.sol\":63:207  contract localvariable{... */\n  dataSize(sub_0)\n  dup1\n  dataOffset(sub_0)\n  0x00\n  codecopy\n  0x00\n  return\nstop\n\nsub_0: assembly {\n        /* \"localvariable.sol\":63:207  contract localvariable{... */\n      mstore(0x40, 0x80)\n      callvalue\n      dup1\n      iszero\n      tag_1\n      jumpi\n      0x00\n      dup1\n      revert\n    tag_1:\n      pop\n      jumpi(tag_2, lt(calldatasize, 0x04))\n      shr(0xe0, calldataload(0x00))\n      dup1\n      0x8a3b12ae\n      eq\n      tag_3\n      jumpi\n      dup1\n      0xb75f17c5\n      eq\n      tag_4\n      jumpi\n    tag_2:\n      0x00\n      dup1\n      revert\n        /* \"localvariable.sol\":92:116  uint public statevarable */\n    tag_3:\n      tag_5\n      tag_6\n      jump\t// in\n    tag_5:\n      mload(0x40)\n      tag_7\n      swap2\n      swap1\n      tag_8\n      jump\t// in\n    tag_7:\n      mload(0x40)\n      dup1\n      swap2\n      sub\n      swap1\n      return\n        /* \"localvariable.sol\":122:149  bool public boolvar = false */\n    tag_4:\n      tag_9\n      tag_10\n      jump\t// in\n    tag_9:\n      mload(0x40)\n      tag_11\n      swap2\n      swap1\n      tag_12\n      jump\t// in\n    tag_11:\n      mload(0x40)\n      dup1\n      swap2\n      sub\n      swap1\n      return\n        /* \"localvariable.sol\":92:116  uint public statevarable */\n    tag_6:\n      sload(0x00)\n      dup2\n      jump\t// out\n        /* \"localvariable.sol\":122:149  bool public boolvar = false */\n    tag_10:\n      0x01\n      0x00\n      swap1\n      sload\n      swap1\n      0x0100\n      exp\n      swap1\n      div\n      0xff\n      and\n      dup2\n      jump\t// out\n        /* \"#utility.yul\":7:116   */\n    tag_14:\n        /* \"#utility.yul\":88:109   */\n      tag_16\n        /* \"#utility.yul\":103:108   */\n      dup2\n        /* \"#utility.yul\":88:109   */\n      tag_17\n      jump\t// in\n    tag_16:\n        /* \"#utility.yul\":83:86   */\n      dup3\n        /* \"#utility.yul\":76:110   */\n      mstore\n        /* \"#utility.yul\":7:116   */\n      pop\n      pop\n      jump\t// out\n        /* \"#utility.yul\":122:240   */\n    tag_18:\n        /* \"#utility.yul\":209:233   */\n      tag_20\n        /* \"#utility.yul\":227:232   */\n      dup2\n        /* \"#utility.yul\":209:233   */\n      tag_21\n      jump\t// in\n    tag_20:\n        /* \"#utility.yul\":204:207   */\n      dup3\n        /* \"#utility.yul\":197:234   */\n      mstore\n        /* \"#utility.yul\":122:240   */\n      pop\n      pop\n      jump\t// out\n        /* \"#utility.yul\":246:456   */\n    tag_12:\n        /* \"#utility.yul\":333:337   */\n      0x00\n        /* \"#utility.yul\":371:373   */\n      0x20\n        /* \"#utility.yul\":360:369   */\n      dup3\n        /* \"#utility.yul\":356:374   */\n      add\n        /* \"#utility.yul\":348:374   */\n      swap1\n      pop\n        /* \"#utility.yul\":384:449   */\n      tag_23\n        /* \"#utility.yul\":446:447   */\n      0x00\n        /* \"#utility.yul\":435:444   */\n      dup4\n        /* \"#utility.yul\":431:448   */\n      add\n        /* \"#utility.yul\":422:428   */\n      dup5\n        /* \"#utility.yul\":384:449   */\n      tag_14\n      jump\t// in\n    tag_23:\n        /* \"#utility.yul\":246:456   */\n      swap3\n      swap2\n      pop\n      pop\n      jump\t// out\n        /* \"#utility.yul\":462:684   */\n    tag_8:\n        /* \"#utility.yul\":555:559   */\n      0x00\n        /* \"#utility.yul\":593:595   */\n      0x20\n        /* \"#utility.yul\":582:591   */\n      dup3\n        /* \"#utility.yul\":578:596   */\n      add\n        /* \"#utility.yul\":570:596   */\n      swap1\n      pop\n        /* \"#utility.yul\":606:677   */\n      tag_25\n        /* \"#utility.yul\":674:675   */\n      0x00\n        /* \"#utility.yul\":663:672   */\n      dup4\n        /* \"#utility.yul\":659:676   */\n      add\n        /* \"#utility.yul\":650:656   */\n      dup5\n        /* \"#utility.yul\":606:677   */\n      tag_18\n      jump\t// in\n    tag_25:\n        /* \"#utility.yul\":462:684   */\n      swap3\n      swap2\n      pop\n      pop\n      jump\t// out\n        /* \"#utility.yul\":690:780   */\n    tag_17:\n        /* \"#utility.yul\":724:731   */\n      0x00\n        /* \"#utility.yul\":767:772   */\n      dup2\n        /* \"#utility.yul\":760:773   */\n      iszero\n        /* \"#utility.yul\":753:774   */\n      iszero\n        /* \"#utility.yul\":742:774   */\n      swap1\n      pop\n        /* \"#utility.yul\":690:780   */\n      swap2\n      swap1\n      pop\n      jump\t// out\n        /* \"#utility.yul\":786:863   */\n    tag_21:\n        /* \"#utility.yul\":823:830   */\n      0x00\n        /* \"#utility.yul\":852:857   */\n      dup2\n        /* \"#utility.yul\":841:857   */\n      swap1\n      pop\n        /* \"#utility.yul\":786:863   */\n      swap2\n      swap1\n      pop\n      jump\t// out\n\n    auxdata: 0xa2646970667358221220d91818de2f8f3366b17a826da30517ae7e66c0a46178f8edf081ed98e379de3564736f6c63430008070033\n}\n",
				"bytecode": {
					"linkReferences": {},
					"object": "60806040526000600160006101000a81548160ff02191690831515021790555034801561002b57600080fd5b50606460008190555061011c806100436000396000f3fe6080604052348015600f57600080fd5b506004361060325760003560e01c80638a3b12ae146037578063b75f17c5146051575b600080fd5b603d606b565b6040516048919060b7565b60405180910390f35b60576071565b60405160629190609e565b60405180910390f35b60005481565b600160009054906101000a900460ff1681565b608b8160d0565b82525050565b60988160dc565b82525050565b600060208201905060b160008301846084565b92915050565b600060208201905060ca60008301846091565b92915050565b60008115159050919050565b600081905091905056fea2646970667358221220d91818de2f8f3366b17a826da30517ae7e66c0a46178f8edf081ed98e379de3564736f6c63430008070033",
					"opcodes": "PUSH1 0x80 PUSH1 0x40 MSTORE PUSH1 0x0 PUSH1 0x1 PUSH1 0x0 PUSH2 0x100 EXP DUP2 SLOAD DUP2 PUSH1 0xFF MUL NOT AND SWAP1 DUP4 ISZERO ISZERO MUL OR SWAP1 SSTORE POP CALLVALUE DUP1 ISZERO PUSH2 0x2B JUMPI PUSH1 0x0 DUP1 REVERT JUMPDEST POP PUSH1 0x64 PUSH1 0x0 DUP2 SWAP1 SSTORE POP PUSH2 0x11C DUP1 PUSH2 0x43 PUSH1 0x0 CODECOPY PUSH1 0x0 RETURN INVALID PUSH1 0x80 PUSH1 0x40 MSTORE CALLVALUE DUP1 ISZERO PUSH1 0xF JUMPI PUSH1 0x0 DUP1 REVERT JUMPDEST POP PUSH1 0x4 CALLDATASIZE LT PUSH1 0x32 JUMPI PUSH1 0x0 CALLDATALOAD PUSH1 0xE0 SHR DUP1 PUSH4 0x8A3B12AE EQ PUSH1 0x37 JUMPI DUP1 PUSH4 0xB75F17C5 EQ PUSH1 0x51 JUMPI JUMPDEST PUSH1 0x0 DUP1 REVERT JUMPDEST PUSH1 0x3D PUSH1 0x6B JUMP JUMPDEST PUSH1 0x40 MLOAD PUSH1 0x48 SWAP2 SWAP1 PUSH1 0xB7 JUMP JUMPDEST PUSH1 0x40 MLOAD DUP1 SWAP2 SUB SWAP1 RETURN JUMPDEST PUSH1 0x57 PUSH1 0x71 JUMP JUMPDEST PUSH1 0x40 MLOAD PUSH1 0x62 SWAP2 SWAP1 PUSH1 0x9E JUMP JUMPDEST PUSH1 0x40 MLOAD DUP1 SWAP2 SUB SWAP1 RETURN JUMPDEST PUSH1 0x0 SLOAD DUP2 JUMP JUMPDEST PUSH1 0x1 PUSH1 0x0 SWAP1 SLOAD SWAP1 PUSH2 0x100 EXP SWAP1 DIV PUSH1 0xFF AND DUP2 JUMP JUMPDEST PUSH1 0x8B DUP2 PUSH1 0xD0 JUMP JUMPDEST DUP3 MSTORE POP POP JUMP JUMPDEST PUSH1 0x98 DUP2 PUSH1 0xDC JUMP JUMPDEST DUP3 MSTORE POP POP JUMP JUMPDEST PUSH1 0x0 PUSH1 0x20 DUP3 ADD SWAP1 POP PUSH1 0xB1 PUSH1 0x0 DUP4 ADD DUP5 PUSH1 0x84 JUMP JUMPDEST SWAP3 SWAP2 POP POP JUMP JUMPDEST PUSH1 0x0 PUSH1 0x20 DUP3 ADD SWAP1 POP PUSH1 0xCA PUSH1 0x0 DUP4 ADD DUP5 PUSH1 0x91 JUMP JUMPDEST SWAP3 SWAP2 POP POP JUMP JUMPDEST PUSH1 0x0 DUP2 ISZERO ISZERO SWAP1 POP SWAP2 SWAP1 POP JUMP JUMPDEST PUSH1 0x0 DUP2 SWAP1 POP SWAP2 SWAP1 POP JUMP INVALID LOG2 PUSH5 0x6970667358 0x22 SLT KECCAK256 0xD9 XOR XOR 0xDE 0x2F DUP16 CALLER PUSH7 0xB17A826DA30517 0xAE PUSH31 0x66C0A46178F8EDF081ED98E379DE3564736F6C634300080700330000000000 "
				},
				"gasEstimates": {
					"creation": {
						"codeDepositCost": "56800",
						"executionCost": "46486",
						"totalCost": "103286"
					},
					"external": {
						"boolvar()": "2471",
						"statevarable()": "2407"
					}
				},
				"methodIdentifiers": {
					"boolvar()": "b75f17c5",
					"statevarable()": "8a3b12ae"
				}
			},
			"storageLayout": {
				"storage": [
					{
						"astId": 3,
						"contract": "localvariable.sol:localvariable",
						"label": "statevarable",
						"offset": 0,
						"slot": "0",
						"type": "t_uint256"
					},
					{
						"astId": 6,
						"contract": "localvariable.sol:localvariable",
						"label": "boolvar",
						"offset": 0,
						"slot": "1",
						"type": "t_bool"
					}
				],
				"types": {
					"t_bool": {
						"encoding": "inplace",
						"label": "bool",
						"numberOfBytes": "1"
					},
					"t_uint256": {
						"encoding": "inplace",
						"label": "uint256",
						"numberOfBytes": "32"
					}
				}
			},
			"userdoc": {
				"kind": "user",
				"methods": {},
				"version": 1
			}
		}
	}
}