{
	"smartAuction.sol": {
		"smartAuction": {
			"abi": [
				{
					"inputs": [],
					"stateMutability": "nonpayable",
					"type": "constructor"
				},
				{
					"inputs": [],
					"name": "auctionState",
					"outputs": [
						{
							"internalType": "enum smartAuction.Auction_state",
							"name": "",
							"type": "uint8"
						}
					],
					"stateMutability": "view",
					"type": "function"
				},
				{
					"inputs": [],
					"name": "auctioneer",
					"outputs": [
						{
							"internalType": "address payable",
							"name": "",
							"type": "address"
						}
					],
					"stateMutability": "view",
					"type": "function"
				},
				{
					"inputs": [],
					"name": "bid",
					"outputs": [],
					"stateMutability": "payable",
					"type": "function"
				},
				{
					"inputs": [],
					"name": "bid_inc",
					"outputs": [
						{
							"internalType": "uint256",
							"name": "",
							"type": "uint256"
						}
					],
					"stateMutability": "view",
					"type": "function"
				},
				{
					"inputs": [
						{
							"internalType": "address",
							"name": "",
							"type": "address"
						}
					],
					"name": "bids",
					"outputs": [
						{
							"internalType": "uint256",
							"name": "",
							"type": "uint256"
						}
					],
					"stateMutability": "view",
					"type": "function"
				},
				{
					"inputs": [],
					"name": "cancelAuction",
					"outputs": [],
					"stateMutability": "nonpayable",
					"type": "function"
				},
				{
					"inputs": [],
					"name": "endBlock",
					"outputs": [
						{
							"internalType": "uint256",
							"name": "",
							"type": "uint256"
						}
					],
					"stateMutability": "view",
					"type": "function"
				},
				{
					"inputs": [],
					"name": "finalizeAuction",
					"outputs": [],
					"stateMutability": "view",
					"type": "function"
				},
				{
					"inputs": [],
					"name": "highest_bid",
					"outputs": [
						{
							"internalType": "uint256",
							"name": "",
							"type": "uint256"
						}
					],
					"stateMutability": "view",
					"type": "function"
				},
				{
					"inputs": [],
					"name": "highest_bidder",
					"outputs": [
						{
							"internalType": "address payable",
							"name": "",
							"type": "address"
						}
					],
					"stateMutability": "view",
					"type": "function"
				},
				{
					"inputs": [],
					"name": "highest_payable_bid",
					"outputs": [
						{
							"internalType": "uint256",
							"name": "",
							"type": "uint256"
						}
					],
					"stateMutability": "view",
					"type": "function"
				},
				{
					"inputs": [],
					"name": "startBlock",
					"outputs": [
						{
							"internalType": "uint256",
							"name": "",
							"type": "uint256"
						}
					],
					"stateMutability": "view",
					"type": "function"
				}
			],
			"devdoc": {
				"kind": "dev",
				"methods": {},
				"version": 1
			},
			"evm": {
				"assembly": "    /* \"smartAuction.sol\":63:2942  contract smartAuction{... */\n  mstore(0x40, 0x80)\n    /* \"smartAuction.sol\":472:678  constructor(){... */\n  callvalue\n  dup1\n  iszero\n  tag_1\n  jumpi\n  0x00\n  dup1\n  revert\ntag_1:\n  pop\n    /* \"smartAuction.sol\":516:526  msg.sender */\n  caller\n    /* \"smartAuction.sol\":495:505  auctioneer */\n  0x00\n  dup1\n    /* \"smartAuction.sol\":495:527  auctioneer = payable(msg.sender) */\n  0x0100\n  exp\n  dup2\n  sload\n  dup2\n  0xffffffffffffffffffffffffffffffffffffffff\n  mul\n  not\n  and\n  swap1\n  dup4\n  0xffffffffffffffffffffffffffffffffffffffff\n  and\n  mul\n  or\n  swap1\n  sstore\n  pop\n    /* \"smartAuction.sol\":550:562  block.number */\n  number\n    /* \"smartAuction.sol\":537:547  startBlock */\n  0x01\n    /* \"smartAuction.sol\":537:562  startBlock = block.number */\n  dup2\n  swap1\n  sstore\n  pop\n    /* \"smartAuction.sol\":588:609  Auction_state.Running */\n  0x01\n    /* \"smartAuction.sol\":572:584  auctionState */\n  0x03\n  0x00\n    /* \"smartAuction.sol\":572:609  auctionState =  Auction_state.Running */\n  0x0100\n  exp\n  dup2\n  sload\n  dup2\n  0xff\n  mul\n  not\n  and\n  swap1\n  dup4\n  0x03\n  dup2\n  gt\n  iszero\n  tag_4\n  jumpi\n  tag_5\n  tag_6\n  jump\t// in\ntag_5:\ntag_4:\n  mul\n  or\n  swap1\n  sstore\n  pop\n    /* \"smartAuction.sol\":643:644  1 */\n  0x01\n    /* \"smartAuction.sol\":630:640  startBlock */\n  dup1\n  sload\n    /* \"smartAuction.sol\":630:644  startBlock + 1 */\n  tag_7\n  swap2\n  swap1\n  tag_8\n  jump\t// in\ntag_7:\n    /* \"smartAuction.sol\":619:627  endBlock */\n  0x02\n    /* \"smartAuction.sol\":619:644  endBlock = startBlock + 1 */\n  dup2\n  swap1\n  sstore\n  pop\n    /* \"smartAuction.sol\":664:671  1 ether */\n  0x0de0b6b3a7640000\n    /* \"smartAuction.sol\":654:661  bid_inc */\n  0x06\n    /* \"smartAuction.sol\":654:671  bid_inc = 1 ether */\n  dup2\n  swap1\n  sstore\n  pop\n    /* \"smartAuction.sol\":63:2942  contract smartAuction{... */\n  jump(tag_9)\n    /* \"#utility.yul\":7:312   */\ntag_8:\n    /* \"#utility.yul\":47:50   */\n  0x00\n    /* \"#utility.yul\":66:86   */\n  tag_12\n    /* \"#utility.yul\":84:85   */\n  dup3\n    /* \"#utility.yul\":66:86   */\n  tag_13\n  jump\t// in\ntag_12:\n    /* \"#utility.yul\":61:86   */\n  swap2\n  pop\n    /* \"#utility.yul\":100:120   */\n  tag_14\n    /* \"#utility.yul\":118:119   */\n  dup4\n    /* \"#utility.yul\":100:120   */\n  tag_13\n  jump\t// in\ntag_14:\n    /* \"#utility.yul\":95:120   */\n  swap3\n  pop\n    /* \"#utility.yul\":254:255   */\n  dup3\n    /* \"#utility.yul\":186:252   */\n  0xffffffffffffffffffffffffffffffffffffffffffffffffffffffffffffffff\n    /* \"#utility.yul\":182:256   */\n  sub\n    /* \"#utility.yul\":179:180   */\n  dup3\n    /* \"#utility.yul\":176:257   */\n  gt\n    /* \"#utility.yul\":173:280   */\n  iszero\n  tag_15\n  jumpi\n    /* \"#utility.yul\":260:278   */\n  tag_16\n  tag_17\n  jump\t// in\ntag_16:\n    /* \"#utility.yul\":173:280   */\ntag_15:\n    /* \"#utility.yul\":304:305   */\n  dup3\n    /* \"#utility.yul\":301:302   */\n  dup3\n    /* \"#utility.yul\":297:306   */\n  add\n    /* \"#utility.yul\":290:306   */\n  swap1\n  pop\n    /* \"#utility.yul\":7:312   */\n  swap3\n  swap2\n  pop\n  pop\n  jump\t// out\n    /* \"#utility.yul\":318:395   */\ntag_13:\n    /* \"#utility.yul\":355:362   */\n  0x00\n    /* \"#utility.yul\":384:389   */\n  dup2\n    /* \"#utility.yul\":373:389   */\n  swap1\n  pop\n    /* \"#utility.yul\":318:395   */\n  swap2\n  swap1\n  pop\n  jump\t// out\n    /* \"#utility.yul\":401:581   */\ntag_17:\n    /* \"#utility.yul\":449:526   */\n  0x4e487b7100000000000000000000000000000000000000000000000000000000\n    /* \"#utility.yul\":446:447   */\n  0x00\n    /* \"#utility.yul\":439:527   */\n  mstore\n    /* \"#utility.yul\":546:550   */\n  0x11\n    /* \"#utility.yul\":543:544   */\n  0x04\n    /* \"#utility.yul\":536:551   */\n  mstore\n    /* \"#utility.yul\":570:574   */\n  0x24\n    /* \"#utility.yul\":567:568   */\n  0x00\n    /* \"#utility.yul\":560:575   */\n  revert\n    /* \"#utility.yul\":587:767   */\ntag_6:\n    /* \"#utility.yul\":635:712   */\n  0x4e487b7100000000000000000000000000000000000000000000000000000000\n    /* \"#utility.yul\":632:633   */\n  0x00\n    /* \"#utility.yul\":625:713   */\n  mstore\n    /* \"#utility.yul\":732:736   */\n  0x21\n    /* \"#utility.yul\":729:730   */\n  0x04\n    /* \"#utility.yul\":722:737   */\n  mstore\n    /* \"#utility.yul\":756:760   */\n  0x24\n    /* \"#utility.yul\":753:754   */\n  0x00\n    /* \"#utility.yul\":746:761   */\n  revert\n    /* \"smartAuction.sol\":63:2942  contract smartAuction{... */\ntag_9:\n  dataSize(sub_0)\n  dup1\n  dataOffset(sub_0)\n  0x00\n  codecopy\n  0x00\n  return\nstop\n\nsub_0: assembly {\n        /* \"smartAuction.sol\":63:2942  contract smartAuction{... */\n      mstore(0x40, 0x80)\n      jumpi(tag_1, lt(calldatasize, 0x04))\n      shr(0xe0, calldataload(0x00))\n      dup1\n      0x7fb45099\n      gt\n      tag_14\n      jumpi\n      dup1\n      0x7fb45099\n      eq\n      tag_8\n      jumpi\n      dup1\n      0x8fa8b790\n      eq\n      tag_9\n      jumpi\n      dup1\n      0xbd9215f4\n      eq\n      tag_10\n      jumpi\n      dup1\n      0xe5c60091\n      eq\n      tag_11\n      jumpi\n      dup1\n      0xf3ef35f8\n      eq\n      tag_12\n      jumpi\n      dup1\n      0xf77282ab\n      eq\n      tag_13\n      jumpi\n      jump(tag_1)\n    tag_14:\n      dup1\n      0x083c6323\n      eq\n      tag_2\n      jumpi\n      dup1\n      0x1998aeef\n      eq\n      tag_3\n      jumpi\n      dup1\n      0x48cd4cb1\n      eq\n      tag_4\n      jumpi\n      dup1\n      0x5ec2c7bf\n      eq\n      tag_5\n      jumpi\n      dup1\n      0x62ea82db\n      eq\n      tag_6\n      jumpi\n      dup1\n      0x7eb695a1\n      eq\n      tag_7\n      jumpi\n    tag_1:\n      0x00\n      dup1\n      revert\n        /* \"smartAuction.sol\":159:179  uint public endBlock */\n    tag_2:\n      callvalue\n      dup1\n      iszero\n      tag_15\n      jumpi\n      0x00\n      dup1\n      revert\n    tag_15:\n      pop\n      tag_16\n      tag_17\n      jump\t// in\n    tag_16:\n      mload(0x40)\n      tag_18\n      swap2\n      swap1\n      tag_19\n      jump\t// in\n    tag_18:\n      mload(0x40)\n      dup1\n      swap2\n      sub\n      swap1\n      return\n        /* \"smartAuction.sol\":1379:1977  function bid() payable public notOwner started ending{... */\n    tag_3:\n      tag_20\n      tag_21\n      jump\t// in\n    tag_20:\n      stop\n        /* \"smartAuction.sol\":131:153  uint public startBlock */\n    tag_4:\n      callvalue\n      dup1\n      iszero\n      tag_22\n      jumpi\n      0x00\n      dup1\n      revert\n    tag_22:\n      pop\n      tag_23\n      tag_24\n      jump\t// in\n    tag_23:\n      mload(0x40)\n      tag_25\n      swap2\n      swap1\n      tag_19\n      jump\t// in\n    tag_25:\n      mload(0x40)\n      dup1\n      swap2\n      sub\n      swap1\n      return\n        /* \"smartAuction.sol\":91:125  address payable public  auctioneer */\n    tag_5:\n      callvalue\n      dup1\n      iszero\n      tag_26\n      jumpi\n      0x00\n      dup1\n      revert\n    tag_26:\n      pop\n      tag_27\n      tag_28\n      jump\t// in\n    tag_27:\n      mload(0x40)\n      tag_29\n      swap2\n      swap1\n      tag_30\n      jump\t// in\n    tag_29:\n      mload(0x40)\n      dup1\n      swap2\n      sub\n      swap1\n      return\n        /* \"smartAuction.sol\":429:465  mapping(address => uint) public bids */\n    tag_6:\n      callvalue\n      dup1\n      iszero\n      tag_31\n      jumpi\n      0x00\n      dup1\n      revert\n    tag_31:\n      pop\n      tag_32\n      0x04\n      dup1\n      calldatasize\n      sub\n      dup2\n      add\n      swap1\n      tag_33\n      swap2\n      swap1\n      tag_34\n      jump\t// in\n    tag_33:\n      tag_35\n      jump\t// in\n    tag_32:\n      mload(0x40)\n      tag_36\n      swap2\n      swap1\n      tag_19\n      jump\t// in\n    tag_36:\n      mload(0x40)\n      dup1\n      swap2\n      sub\n      swap1\n      return\n        /* \"smartAuction.sol\":322:353  uint public highest_payable_bid */\n    tag_7:\n      callvalue\n      dup1\n      iszero\n      tag_37\n      jumpi\n      0x00\n      dup1\n      revert\n    tag_37:\n      pop\n      tag_38\n      tag_39\n      jump\t// in\n    tag_38:\n      mload(0x40)\n      tag_40\n      swap2\n      swap1\n      tag_19\n      jump\t// in\n    tag_40:\n      mload(0x40)\n      dup1\n      swap2\n      sub\n      swap1\n      return\n        /* \"smartAuction.sol\":253:286  Auction_state public auctionState */\n    tag_8:\n      callvalue\n      dup1\n      iszero\n      tag_41\n      jumpi\n      0x00\n      dup1\n      revert\n    tag_41:\n      pop\n      tag_42\n      tag_43\n      jump\t// in\n    tag_42:\n      mload(0x40)\n      tag_44\n      swap2\n      swap1\n      tag_45\n      jump\t// in\n    tag_44:\n      mload(0x40)\n      dup1\n      swap2\n      sub\n      swap1\n      return\n        /* \"smartAuction.sol\":1133:1227  function cancelAuction() public Owner{... */\n    tag_9:\n      callvalue\n      dup1\n      iszero\n      tag_46\n      jumpi\n      0x00\n      dup1\n      revert\n    tag_46:\n      pop\n      tag_47\n      tag_48\n      jump\t// in\n    tag_47:\n      stop\n        /* \"smartAuction.sol\":385:422  address payable public highest_bidder */\n    tag_10:\n      callvalue\n      dup1\n      iszero\n      tag_49\n      jumpi\n      0x00\n      dup1\n      revert\n    tag_49:\n      pop\n      tag_50\n      tag_51\n      jump\t// in\n    tag_50:\n      mload(0x40)\n      tag_52\n      swap2\n      swap1\n      tag_30\n      jump\t// in\n    tag_52:\n      mload(0x40)\n      dup1\n      swap2\n      sub\n      swap1\n      return\n        /* \"smartAuction.sol\":293:316  uint public highest_bid */\n    tag_11:\n      callvalue\n      dup1\n      iszero\n      tag_53\n      jumpi\n      0x00\n      dup1\n      revert\n    tag_53:\n      pop\n      tag_54\n      tag_55\n      jump\t// in\n    tag_54:\n      mload(0x40)\n      tag_56\n      swap2\n      swap1\n      tag_19\n      jump\t// in\n    tag_56:\n      mload(0x40)\n      dup1\n      swap2\n      sub\n      swap1\n      return\n        /* \"smartAuction.sol\":359:378  uint public bid_inc */\n    tag_12:\n      callvalue\n      dup1\n      iszero\n      tag_57\n      jumpi\n      0x00\n      dup1\n      revert\n    tag_57:\n      pop\n      tag_58\n      tag_59\n      jump\t// in\n    tag_58:\n      mload(0x40)\n      tag_60\n      swap2\n      swap1\n      tag_19\n      jump\t// in\n    tag_60:\n      mload(0x40)\n      dup1\n      swap2\n      sub\n      swap1\n      return\n        /* \"smartAuction.sol\":1983:2940  function finalizeAuction() public view {... */\n    tag_13:\n      callvalue\n      dup1\n      iszero\n      tag_61\n      jumpi\n      0x00\n      dup1\n      revert\n    tag_61:\n      pop\n      tag_62\n      tag_63\n      jump\t// in\n    tag_62:\n      stop\n        /* \"smartAuction.sol\":159:179  uint public endBlock */\n    tag_17:\n      sload(0x02)\n      dup2\n      jump\t// out\n        /* \"smartAuction.sol\":1379:1977  function bid() payable public notOwner started ending{... */\n    tag_21:\n        /* \"smartAuction.sol\":735:745  auctioneer */\n      0x00\n      dup1\n      sload\n      swap1\n      0x0100\n      exp\n      swap1\n      div\n      0xffffffffffffffffffffffffffffffffffffffff\n      and\n        /* \"smartAuction.sol\":721:745  msg.sender != auctioneer */\n      0xffffffffffffffffffffffffffffffffffffffff\n      and\n        /* \"smartAuction.sol\":721:731  msg.sender */\n      caller\n        /* \"smartAuction.sol\":721:745  msg.sender != auctioneer */\n      0xffffffffffffffffffffffffffffffffffffffff\n      and\n      eq\n      iszero\n        /* \"smartAuction.sol\":713:766  require(msg.sender != auctioneer, \"Owner Cannot bid\") */\n      tag_65\n      jumpi\n      mload(0x40)\n      0x08c379a000000000000000000000000000000000000000000000000000000000\n      dup2\n      mstore\n      0x04\n      add\n      tag_66\n      swap1\n      tag_67\n      jump\t// in\n    tag_66:\n      mload(0x40)\n      dup1\n      swap2\n      sub\n      swap1\n      revert\n    tag_65:\n        /* \"smartAuction.sol\":942:952  startBlock */\n      sload(0x01)\n        /* \"smartAuction.sol\":929:941  block.number */\n      number\n        /* \"smartAuction.sol\":929:952  block.number>startBlock */\n      gt\n        /* \"smartAuction.sol\":921:1001  require(block.number>startBlock, \"Start Block must be greater than total block\") */\n      tag_69\n      jumpi\n      mload(0x40)\n      0x08c379a000000000000000000000000000000000000000000000000000000000\n      dup2\n      mstore\n      0x04\n      add\n      tag_70\n      swap1\n      tag_71\n      jump\t// in\n    tag_70:\n      mload(0x40)\n      dup1\n      swap2\n      sub\n      swap1\n      revert\n    tag_69:\n        /* \"smartAuction.sol\":1072:1080  endBlock */\n      sload(0x02)\n        /* \"smartAuction.sol\":1059:1071  block.number */\n      number\n        /* \"smartAuction.sol\":1059:1080  block.number<endBlock */\n      lt\n        /* \"smartAuction.sol\":1051:1109  require(block.number<endBlock, \"Auction is not Ended yet\") */\n      tag_73\n      jumpi\n      mload(0x40)\n      0x08c379a000000000000000000000000000000000000000000000000000000000\n      dup2\n      mstore\n      0x04\n      add\n      tag_74\n      swap1\n      tag_75\n      jump\t// in\n    tag_74:\n      mload(0x40)\n      dup1\n      swap2\n      sub\n      swap1\n      revert\n    tag_73:\n        /* \"smartAuction.sol\":1475:1496  Auction_state.Running */\n      0x01\n        /* \"smartAuction.sol\":1459:1496  auctionState == Auction_state.Running */\n      0x03\n      dup2\n      gt\n      iszero\n      tag_77\n      jumpi\n      tag_78\n      tag_79\n      jump\t// in\n    tag_78:\n    tag_77:\n        /* \"smartAuction.sol\":1459:1471  auctionState */\n      0x03\n      0x00\n      swap1\n      sload\n      swap1\n      0x0100\n      exp\n      swap1\n      div\n      0xff\n      and\n        /* \"smartAuction.sol\":1459:1496  auctionState == Auction_state.Running */\n      0x03\n      dup2\n      gt\n      iszero\n      tag_80\n      jumpi\n      tag_81\n      tag_79\n      jump\t// in\n    tag_81:\n    tag_80:\n      eq\n        /* \"smartAuction.sol\":1451:1497  require(auctionState == Auction_state.Running) */\n      tag_82\n      jumpi\n      0x00\n      dup1\n      revert\n    tag_82:\n        /* \"smartAuction.sol\":1527:1534  2 ether */\n      0x1bc16d674ec80000\n        /* \"smartAuction.sol\":1515:1524  msg.value */\n      callvalue\n        /* \"smartAuction.sol\":1515:1534  msg.value > 2 ether */\n      gt\n        /* \"smartAuction.sol\":1507:1535  require(msg.value > 2 ether) */\n      tag_83\n      jumpi\n      0x00\n      dup1\n      revert\n    tag_83:\n        /* \"smartAuction.sol\":1546:1561  uint currentBid */\n      0x00\n        /* \"smartAuction.sol\":1583:1592  msg.value */\n      callvalue\n        /* \"smartAuction.sol\":1564:1568  bids */\n      0x08\n        /* \"smartAuction.sol\":1564:1580  bids[msg.sender] */\n      0x00\n        /* \"smartAuction.sol\":1569:1579  msg.sender */\n      caller\n        /* \"smartAuction.sol\":1564:1580  bids[msg.sender] */\n      0xffffffffffffffffffffffffffffffffffffffff\n      and\n      0xffffffffffffffffffffffffffffffffffffffff\n      and\n      dup2\n      mstore\n      0x20\n      add\n      swap1\n      dup2\n      mstore\n      0x20\n      add\n      0x00\n      keccak256\n      sload\n        /* \"smartAuction.sol\":1564:1592  bids[msg.sender] + msg.value */\n      tag_84\n      swap2\n      swap1\n      tag_85\n      jump\t// in\n    tag_84:\n        /* \"smartAuction.sol\":1546:1592  uint currentBid = bids[msg.sender] + msg.value */\n      swap1\n      pop\n        /* \"smartAuction.sol\":1624:1643  highest_payable_bid */\n      sload(0x05)\n        /* \"smartAuction.sol\":1611:1621  currentBid */\n      dup2\n        /* \"smartAuction.sol\":1611:1643  currentBid > highest_payable_bid */\n      gt\n        /* \"smartAuction.sol\":1603:1675  require(currentBid > highest_payable_bid, \"Increase You  Bid Valu than\") */\n      tag_86\n      jumpi\n      mload(0x40)\n      0x08c379a000000000000000000000000000000000000000000000000000000000\n      dup2\n      mstore\n      0x04\n      add\n      tag_87\n      swap1\n      tag_88\n      jump\t// in\n    tag_87:\n      mload(0x40)\n      dup1\n      swap2\n      sub\n      swap1\n      revert\n    tag_86:\n        /* \"smartAuction.sol\":1702:1706  bids */\n      0x08\n        /* \"smartAuction.sol\":1702:1722  bids[highest_bidder] */\n      0x00\n        /* \"smartAuction.sol\":1707:1721  highest_bidder */\n      0x07\n      0x00\n      swap1\n      sload\n      swap1\n      0x0100\n      exp\n      swap1\n      div\n      0xffffffffffffffffffffffffffffffffffffffff\n      and\n        /* \"smartAuction.sol\":1702:1722  bids[highest_bidder] */\n      0xffffffffffffffffffffffffffffffffffffffff\n      and\n      0xffffffffffffffffffffffffffffffffffffffff\n      and\n      dup2\n      mstore\n      0x20\n      add\n      swap1\n      dup2\n      mstore\n      0x20\n      add\n      0x00\n      keccak256\n      sload\n        /* \"smartAuction.sol\":1689:1699  currentBid */\n      dup2\n        /* \"smartAuction.sol\":1689:1722  currentBid < bids[highest_bidder] */\n      lt\n        /* \"smartAuction.sol\":1686:1970  if(currentBid < bids[highest_bidder]){... */\n      iszero\n      tag_89\n      jumpi\n        /* \"smartAuction.sol\":1759:1804  min(currentBid+bid_inc, bids[highest_bidder]) */\n      tag_90\n        /* \"smartAuction.sol\":1774:1781  bid_inc */\n      sload(0x06)\n        /* \"smartAuction.sol\":1763:1773  currentBid */\n      dup3\n        /* \"smartAuction.sol\":1763:1781  currentBid+bid_inc */\n      tag_91\n      swap2\n      swap1\n      tag_85\n      jump\t// in\n    tag_91:\n        /* \"smartAuction.sol\":1783:1787  bids */\n      0x08\n        /* \"smartAuction.sol\":1783:1803  bids[highest_bidder] */\n      0x00\n        /* \"smartAuction.sol\":1788:1802  highest_bidder */\n      0x07\n      0x00\n      swap1\n      sload\n      swap1\n      0x0100\n      exp\n      swap1\n      div\n      0xffffffffffffffffffffffffffffffffffffffff\n      and\n        /* \"smartAuction.sol\":1783:1803  bids[highest_bidder] */\n      0xffffffffffffffffffffffffffffffffffffffff\n      and\n      0xffffffffffffffffffffffffffffffffffffffff\n      and\n      dup2\n      mstore\n      0x20\n      add\n      swap1\n      dup2\n      mstore\n      0x20\n      add\n      0x00\n      keccak256\n      sload\n        /* \"smartAuction.sol\":1759:1762  min */\n      tag_92\n        /* \"smartAuction.sol\":1759:1804  min(currentBid+bid_inc, bids[highest_bidder]) */\n      jump\t// in\n    tag_90:\n        /* \"smartAuction.sol\":1737:1756  highest_payable_bid */\n      0x05\n        /* \"smartAuction.sol\":1737:1804  highest_payable_bid = min(currentBid+bid_inc, bids[highest_bidder]) */\n      dup2\n      swap1\n      sstore\n      pop\n        /* \"smartAuction.sol\":1686:1970  if(currentBid < bids[highest_bidder]){... */\n      jump(tag_93)\n    tag_89:\n        /* \"smartAuction.sol\":1864:1909  min(currentBid, bids[highest_bidder]+bid_inc) */\n      tag_94\n        /* \"smartAuction.sol\":1868:1878  currentBid */\n      dup2\n        /* \"smartAuction.sol\":1901:1908  bid_inc */\n      sload(0x06)\n        /* \"smartAuction.sol\":1880:1884  bids */\n      0x08\n        /* \"smartAuction.sol\":1880:1900  bids[highest_bidder] */\n      0x00\n        /* \"smartAuction.sol\":1885:1899  highest_bidder */\n      0x07\n      0x00\n      swap1\n      sload\n      swap1\n      0x0100\n      exp\n      swap1\n      div\n      0xffffffffffffffffffffffffffffffffffffffff\n      and\n        /* \"smartAuction.sol\":1880:1900  bids[highest_bidder] */\n      0xffffffffffffffffffffffffffffffffffffffff\n      and\n      0xffffffffffffffffffffffffffffffffffffffff\n      and\n      dup2\n      mstore\n      0x20\n      add\n      swap1\n      dup2\n      mstore\n      0x20\n      add\n      0x00\n      keccak256\n      sload\n        /* \"smartAuction.sol\":1880:1908  bids[highest_bidder]+bid_inc */\n      tag_95\n      swap2\n      swap1\n      tag_85\n      jump\t// in\n    tag_95:\n        /* \"smartAuction.sol\":1864:1867  min */\n      tag_92\n        /* \"smartAuction.sol\":1864:1909  min(currentBid, bids[highest_bidder]+bid_inc) */\n      jump\t// in\n    tag_94:\n        /* \"smartAuction.sol\":1842:1861  highest_payable_bid */\n      0x05\n        /* \"smartAuction.sol\":1842:1909  highest_payable_bid = min(currentBid, bids[highest_bidder]+bid_inc) */\n      dup2\n      swap1\n      sstore\n      pop\n        /* \"smartAuction.sol\":1948:1958  msg.sender */\n      caller\n        /* \"smartAuction.sol\":1923:1937  highest_bidder */\n      0x07\n      0x00\n        /* \"smartAuction.sol\":1923:1959  highest_bidder = payable(msg.sender) */\n      0x0100\n      exp\n      dup2\n      sload\n      dup2\n      0xffffffffffffffffffffffffffffffffffffffff\n      mul\n      not\n      and\n      swap1\n      dup4\n      0xffffffffffffffffffffffffffffffffffffffff\n      and\n      mul\n      or\n      swap1\n      sstore\n      pop\n        /* \"smartAuction.sol\":1686:1970  if(currentBid < bids[highest_bidder]){... */\n    tag_93:\n        /* \"smartAuction.sol\":1432:1977  {... */\n      pop\n        /* \"smartAuction.sol\":1379:1977  function bid() payable public notOwner started ending{... */\n      jump\t// out\n        /* \"smartAuction.sol\":131:153  uint public startBlock */\n    tag_24:\n      sload(0x01)\n      dup2\n      jump\t// out\n        /* \"smartAuction.sol\":91:125  address payable public  auctioneer */\n    tag_28:\n      0x00\n      dup1\n      sload\n      swap1\n      0x0100\n      exp\n      swap1\n      div\n      0xffffffffffffffffffffffffffffffffffffffff\n      and\n      dup2\n      jump\t// out\n        /* \"smartAuction.sol\":429:465  mapping(address => uint) public bids */\n    tag_35:\n      mstore(0x20, 0x08)\n      dup1\n      0x00\n      mstore\n      keccak256(0x00, 0x40)\n      0x00\n      swap2\n      pop\n      swap1\n      pop\n      sload\n      dup2\n      jump\t// out\n        /* \"smartAuction.sol\":322:353  uint public highest_payable_bid */\n    tag_39:\n      sload(0x05)\n      dup2\n      jump\t// out\n        /* \"smartAuction.sol\":253:286  Auction_state public auctionState */\n    tag_43:\n      0x03\n      0x00\n      swap1\n      sload\n      swap1\n      0x0100\n      exp\n      swap1\n      div\n      0xff\n      and\n      dup2\n      jump\t// out\n        /* \"smartAuction.sol\":1133:1227  function cancelAuction() public Owner{... */\n    tag_48:\n        /* \"smartAuction.sol\":838:848  auctioneer */\n      0x00\n      dup1\n      sload\n      swap1\n      0x0100\n      exp\n      swap1\n      div\n      0xffffffffffffffffffffffffffffffffffffffff\n      and\n        /* \"smartAuction.sol\":824:848  msg.sender == auctioneer */\n      0xffffffffffffffffffffffffffffffffffffffff\n      and\n        /* \"smartAuction.sol\":824:834  msg.sender */\n      caller\n        /* \"smartAuction.sol\":824:848  msg.sender == auctioneer */\n      0xffffffffffffffffffffffffffffffffffffffff\n      and\n      eq\n        /* \"smartAuction.sol\":816:869  require(msg.sender == auctioneer, \"Owner Cannot bid\") */\n      tag_97\n      jumpi\n      mload(0x40)\n      0x08c379a000000000000000000000000000000000000000000000000000000000\n      dup2\n      mstore\n      0x04\n      add\n      tag_98\n      swap1\n      tag_67\n      jump\t// in\n    tag_98:\n      mload(0x40)\n      dup1\n      swap2\n      sub\n      swap1\n      revert\n    tag_97:\n        /* \"smartAuction.sol\":1196:1219  Auction_state.Cancelled */\n      0x03\n        /* \"smartAuction.sol\":1181:1193  auctionState */\n      dup1\n      0x00\n        /* \"smartAuction.sol\":1181:1219  auctionState = Auction_state.Cancelled */\n      0x0100\n      exp\n      dup2\n      sload\n      dup2\n      0xff\n      mul\n      not\n      and\n      swap1\n      dup4\n      0x03\n      dup2\n      gt\n      iszero\n      tag_100\n      jumpi\n      tag_101\n      tag_79\n      jump\t// in\n    tag_101:\n    tag_100:\n      mul\n      or\n      swap1\n      sstore\n      pop\n        /* \"smartAuction.sol\":1133:1227  function cancelAuction() public Owner{... */\n      jump\t// out\n        /* \"smartAuction.sol\":385:422  address payable public highest_bidder */\n    tag_51:\n      0x07\n      0x00\n      swap1\n      sload\n      swap1\n      0x0100\n      exp\n      swap1\n      div\n      0xffffffffffffffffffffffffffffffffffffffff\n      and\n      dup2\n      jump\t// out\n        /* \"smartAuction.sol\":293:316  uint public highest_bid */\n    tag_55:\n      sload(0x04)\n      dup2\n      jump\t// out\n        /* \"smartAuction.sol\":359:378  uint public bid_inc */\n    tag_59:\n      sload(0x06)\n      dup2\n      jump\t// out\n        /* \"smartAuction.sol\":1983:2940  function finalizeAuction() public view {... */\n    tag_63:\n        /* \"smartAuction.sol\":2056:2079  Auction_state.Cancelled */\n      0x03\n        /* \"smartAuction.sol\":2040:2079  auctionState == Auction_state.Cancelled */\n      dup1\n      dup2\n      gt\n      iszero\n      tag_103\n      jumpi\n      tag_104\n      tag_79\n      jump\t// in\n    tag_104:\n    tag_103:\n        /* \"smartAuction.sol\":2040:2052  auctionState */\n      0x03\n      0x00\n      swap1\n      sload\n      swap1\n      0x0100\n      exp\n      swap1\n      div\n      0xff\n      and\n        /* \"smartAuction.sol\":2040:2079  auctionState == Auction_state.Cancelled */\n      0x03\n      dup2\n      gt\n      iszero\n      tag_105\n      jumpi\n      tag_106\n      tag_79\n      jump\t// in\n    tag_106:\n    tag_105:\n      eq\n        /* \"smartAuction.sol\":2040:2122  auctionState == Auction_state.Cancelled || auctionState == Auction_state.Cancelled */\n      dup1\n      tag_107\n      jumpi\n      pop\n        /* \"smartAuction.sol\":2099:2122  Auction_state.Cancelled */\n      0x03\n        /* \"smartAuction.sol\":2083:2122  auctionState == Auction_state.Cancelled */\n      dup1\n      dup2\n      gt\n      iszero\n      tag_108\n      jumpi\n      tag_109\n      tag_79\n      jump\t// in\n    tag_109:\n    tag_108:\n        /* \"smartAuction.sol\":2083:2095  auctionState */\n      0x03\n      0x00\n      swap1\n      sload\n      swap1\n      0x0100\n      exp\n      swap1\n      div\n      0xff\n      and\n        /* \"smartAuction.sol\":2083:2122  auctionState == Auction_state.Cancelled */\n      0x03\n      dup2\n      gt\n      iszero\n      tag_110\n      jumpi\n      tag_111\n      tag_79\n      jump\t// in\n    tag_111:\n    tag_110:\n      eq\n        /* \"smartAuction.sol\":2040:2122  auctionState == Auction_state.Cancelled || auctionState == Auction_state.Cancelled */\n    tag_107:\n        /* \"smartAuction.sol\":2040:2149  auctionState == Auction_state.Cancelled || auctionState == Auction_state.Cancelled || block.number > endBlock */\n      dup1\n      tag_112\n      jumpi\n      pop\n        /* \"smartAuction.sol\":2141:2149  endBlock */\n      sload(0x02)\n        /* \"smartAuction.sol\":2126:2138  block.number */\n      number\n        /* \"smartAuction.sol\":2126:2149  block.number > endBlock */\n      gt\n        /* \"smartAuction.sol\":2040:2149  auctionState == Auction_state.Cancelled || auctionState == Auction_state.Cancelled || block.number > endBlock */\n    tag_112:\n        /* \"smartAuction.sol\":2032:2150  require(auctionState == Auction_state.Cancelled || auctionState == Auction_state.Cancelled || block.number > endBlock) */\n      tag_113\n      jumpi\n      0x00\n      dup1\n      revert\n    tag_113:\n        /* \"smartAuction.sol\":2182:2192  auctioneer */\n      0x00\n      dup1\n      sload\n      swap1\n      0x0100\n      exp\n      swap1\n      div\n      0xffffffffffffffffffffffffffffffffffffffff\n      and\n        /* \"smartAuction.sol\":2168:2192  msg.sender == auctioneer */\n      0xffffffffffffffffffffffffffffffffffffffff\n      and\n        /* \"smartAuction.sol\":2168:2178  msg.sender */\n      caller\n        /* \"smartAuction.sol\":2168:2192  msg.sender == auctioneer */\n      0xffffffffffffffffffffffffffffffffffffffff\n      and\n      eq\n        /* \"smartAuction.sol\":2168:2216  msg.sender == auctioneer || bids[msg.sender] > 0 */\n      dup1\n      tag_114\n      jumpi\n      pop\n        /* \"smartAuction.sol\":2215:2216  0 */\n      0x00\n        /* \"smartAuction.sol\":2196:2200  bids */\n      0x08\n        /* \"smartAuction.sol\":2196:2212  bids[msg.sender] */\n      0x00\n        /* \"smartAuction.sol\":2201:2211  msg.sender */\n      caller\n        /* \"smartAuction.sol\":2196:2212  bids[msg.sender] */\n      0xffffffffffffffffffffffffffffffffffffffff\n      and\n      0xffffffffffffffffffffffffffffffffffffffff\n      and\n      dup2\n      mstore\n      0x20\n      add\n      swap1\n      dup2\n      mstore\n      0x20\n      add\n      0x00\n      keccak256\n      sload\n        /* \"smartAuction.sol\":2196:2216  bids[msg.sender] > 0 */\n      gt\n        /* \"smartAuction.sol\":2168:2216  msg.sender == auctioneer || bids[msg.sender] > 0 */\n    tag_114:\n        /* \"smartAuction.sol\":2160:2217  require(msg.sender == auctioneer || bids[msg.sender] > 0) */\n      tag_115\n      jumpi\n      0x00\n      dup1\n      revert\n    tag_115:\n        /* \"smartAuction.sol\":2229:2251  address payable person */\n      0x00\n        /* \"smartAuction.sol\":2262:2272  uint value */\n      dup1\n        /* \"smartAuction.sol\":2302:2325  Auction_state.Cancelled */\n      0x03\n        /* \"smartAuction.sol\":2286:2325  auctionState == Auction_state.Cancelled */\n      dup1\n      dup2\n      gt\n      iszero\n      tag_116\n      jumpi\n      tag_117\n      tag_79\n      jump\t// in\n    tag_117:\n    tag_116:\n        /* \"smartAuction.sol\":2286:2298  auctionState */\n      0x03\n      0x00\n      swap1\n      sload\n      swap1\n      0x0100\n      exp\n      swap1\n      div\n      0xff\n      and\n        /* \"smartAuction.sol\":2286:2325  auctionState == Auction_state.Cancelled */\n      0x03\n      dup2\n      gt\n      iszero\n      tag_118\n      jumpi\n      tag_119\n      tag_79\n      jump\t// in\n    tag_119:\n    tag_118:\n      eq\n        /* \"smartAuction.sol\":2283:2933  if(auctionState == Auction_state.Cancelled){... */\n      iszero\n      tag_120\n      jumpi\n        /* \"smartAuction.sol\":2357:2367  msg.sender */\n      caller\n        /* \"smartAuction.sol\":2340:2368  person = payable(msg.sender) */\n      swap2\n      pop\n        /* \"smartAuction.sol\":2390:2394  bids */\n      0x08\n        /* \"smartAuction.sol\":2390:2406  bids[msg.sender] */\n      0x00\n        /* \"smartAuction.sol\":2395:2405  msg.sender */\n      caller\n        /* \"smartAuction.sol\":2390:2406  bids[msg.sender] */\n      0xffffffffffffffffffffffffffffffffffffffff\n      and\n      0xffffffffffffffffffffffffffffffffffffffff\n      and\n      dup2\n      mstore\n      0x20\n      add\n      swap1\n      dup2\n      mstore\n      0x20\n      add\n      0x00\n      keccak256\n      sload\n        /* \"smartAuction.sol\":2382:2406  value = bids[msg.sender] */\n      swap1\n      pop\n        /* \"smartAuction.sol\":2283:2933  if(auctionState == Auction_state.Cancelled){... */\n      jump(tag_121)\n    tag_120:\n        /* \"smartAuction.sol\":2462:2472  auctioneer */\n      0x00\n      dup1\n      sload\n      swap1\n      0x0100\n      exp\n      swap1\n      div\n      0xffffffffffffffffffffffffffffffffffffffff\n      and\n        /* \"smartAuction.sol\":2448:2472  msg.sender == auctioneer */\n      0xffffffffffffffffffffffffffffffffffffffff\n      and\n        /* \"smartAuction.sol\":2448:2458  msg.sender */\n      caller\n        /* \"smartAuction.sol\":2448:2472  msg.sender == auctioneer */\n      0xffffffffffffffffffffffffffffffffffffffff\n      and\n      eq\n        /* \"smartAuction.sol\":2445:2923  if(msg.sender == auctioneer){... */\n      iszero\n      tag_122\n      jumpi\n        /* \"smartAuction.sol\":2500:2510  auctioneer */\n      0x00\n      dup1\n      sload\n      swap1\n      0x0100\n      exp\n      swap1\n      div\n      0xffffffffffffffffffffffffffffffffffffffff\n      and\n        /* \"smartAuction.sol\":2491:2510  person = auctioneer */\n      swap2\n      pop\n        /* \"smartAuction.sol\":2536:2555  highest_payable_bid */\n      sload(0x05)\n        /* \"smartAuction.sol\":2528:2555  value = highest_payable_bid */\n      swap1\n      pop\n        /* \"smartAuction.sol\":2445:2923  if(msg.sender == auctioneer){... */\n      jump(tag_123)\n    tag_122:\n        /* \"smartAuction.sol\":2622:2636  highest_bidder */\n      0x07\n      0x00\n      swap1\n      sload\n      swap1\n      0x0100\n      exp\n      swap1\n      div\n      0xffffffffffffffffffffffffffffffffffffffff\n      and\n        /* \"smartAuction.sol\":2608:2636  msg.sender == highest_bidder */\n      0xffffffffffffffffffffffffffffffffffffffff\n      and\n        /* \"smartAuction.sol\":2608:2618  msg.sender */\n      caller\n        /* \"smartAuction.sol\":2608:2636  msg.sender == highest_bidder */\n      0xffffffffffffffffffffffffffffffffffffffff\n      and\n      eq\n        /* \"smartAuction.sol\":2605:2909  if(msg.sender == highest_bidder){... */\n      iszero\n      tag_124\n      jumpi\n        /* \"smartAuction.sol\":2668:2682  highest_bidder */\n      0x07\n      0x00\n      swap1\n      sload\n      swap1\n      0x0100\n      exp\n      swap1\n      div\n      0xffffffffffffffffffffffffffffffffffffffff\n      and\n        /* \"smartAuction.sol\":2659:2682  person = highest_bidder */\n      swap2\n      pop\n        /* \"smartAuction.sol\":2735:2754  highest_payable_bid */\n      sload(0x05)\n        /* \"smartAuction.sol\":2712:2716  bids */\n      0x08\n        /* \"smartAuction.sol\":2712:2732  bids[highest_bidder] */\n      0x00\n        /* \"smartAuction.sol\":2717:2731  highest_bidder */\n      0x07\n      0x00\n      swap1\n      sload\n      swap1\n      0x0100\n      exp\n      swap1\n      div\n      0xffffffffffffffffffffffffffffffffffffffff\n      and\n        /* \"smartAuction.sol\":2712:2732  bids[highest_bidder] */\n      0xffffffffffffffffffffffffffffffffffffffff\n      and\n      0xffffffffffffffffffffffffffffffffffffffff\n      and\n      dup2\n      mstore\n      0x20\n      add\n      swap1\n      dup2\n      mstore\n      0x20\n      add\n      0x00\n      keccak256\n      sload\n        /* \"smartAuction.sol\":2712:2754  bids[highest_bidder] - highest_payable_bid */\n      tag_125\n      swap2\n      swap1\n      tag_126\n      jump\t// in\n    tag_125:\n        /* \"smartAuction.sol\":2704:2754  value = bids[highest_bidder] - highest_payable_bid */\n      swap1\n      pop\n        /* \"smartAuction.sol\":2605:2909  if(msg.sender == highest_bidder){... */\n      jump(tag_127)\n    tag_124:\n        /* \"smartAuction.sol\":2833:2843  msg.sender */\n      caller\n        /* \"smartAuction.sol\":2816:2844  person = payable(msg.sender) */\n      swap2\n      pop\n        /* \"smartAuction.sol\":2874:2878  bids */\n      0x08\n        /* \"smartAuction.sol\":2874:2890  bids[msg.sender] */\n      0x00\n        /* \"smartAuction.sol\":2879:2889  msg.sender */\n      caller\n        /* \"smartAuction.sol\":2874:2890  bids[msg.sender] */\n      0xffffffffffffffffffffffffffffffffffffffff\n      and\n      0xffffffffffffffffffffffffffffffffffffffff\n      and\n      dup2\n      mstore\n      0x20\n      add\n      swap1\n      dup2\n      mstore\n      0x20\n      add\n      0x00\n      keccak256\n      sload\n        /* \"smartAuction.sol\":2866:2890  value = bids[msg.sender] */\n      swap1\n      pop\n        /* \"smartAuction.sol\":2605:2909  if(msg.sender == highest_bidder){... */\n    tag_127:\n        /* \"smartAuction.sol\":2445:2923  if(msg.sender == auctioneer){... */\n    tag_123:\n        /* \"smartAuction.sol\":2283:2933  if(auctionState == Auction_state.Cancelled){... */\n    tag_121:\n        /* \"smartAuction.sol\":2022:2940  {... */\n      pop\n      pop\n        /* \"smartAuction.sol\":1983:2940  function finalizeAuction() public view {... */\n      jump\t// out\n        /* \"smartAuction.sol\":1233:1373  function min(uint _x , uint _y) private pure returns(uint){... */\n    tag_92:\n        /* \"smartAuction.sol\":1286:1290  uint */\n      0x00\n        /* \"smartAuction.sol\":1311:1313  _y */\n      dup2\n        /* \"smartAuction.sol\":1305:1307  _x */\n      dup4\n        /* \"smartAuction.sol\":1305:1313  _x <= _y */\n      gt\n        /* \"smartAuction.sol\":1302:1348  if(_x <= _y){... */\n      tag_129\n      jumpi\n        /* \"smartAuction.sol\":1335:1337  _x */\n      dup3\n        /* \"smartAuction.sol\":1328:1337  return _x */\n      swap1\n      pop\n      jump(tag_128)\n        /* \"smartAuction.sol\":1302:1348  if(_x <= _y){... */\n    tag_129:\n        /* \"smartAuction.sol\":1364:1366  _y */\n      dup2\n        /* \"smartAuction.sol\":1357:1366  return _y */\n      swap1\n      pop\n        /* \"smartAuction.sol\":1233:1373  function min(uint _x , uint _y) private pure returns(uint){... */\n    tag_128:\n      swap3\n      swap2\n      pop\n      pop\n      jump\t// out\n        /* \"#utility.yul\":7:146   */\n    tag_131:\n        /* \"#utility.yul\":53:58   */\n      0x00\n        /* \"#utility.yul\":91:97   */\n      dup2\n        /* \"#utility.yul\":78:98   */\n      calldataload\n        /* \"#utility.yul\":69:98   */\n      swap1\n      pop\n        /* \"#utility.yul\":107:140   */\n      tag_133\n        /* \"#utility.yul\":134:139   */\n      dup2\n        /* \"#utility.yul\":107:140   */\n      tag_134\n      jump\t// in\n    tag_133:\n        /* \"#utility.yul\":7:146   */\n      swap3\n      swap2\n      pop\n      pop\n      jump\t// out\n        /* \"#utility.yul\":152:481   */\n    tag_34:\n        /* \"#utility.yul\":211:217   */\n      0x00\n        /* \"#utility.yul\":260:262   */\n      0x20\n        /* \"#utility.yul\":248:257   */\n      dup3\n        /* \"#utility.yul\":239:246   */\n      dup5\n        /* \"#utility.yul\":235:258   */\n      sub\n        /* \"#utility.yul\":231:263   */\n      slt\n        /* \"#utility.yul\":228:347   */\n      iszero\n      tag_136\n      jumpi\n        /* \"#utility.yul\":266:345   */\n      tag_137\n      tag_138\n      jump\t// in\n    tag_137:\n        /* \"#utility.yul\":228:347   */\n    tag_136:\n        /* \"#utility.yul\":386:387   */\n      0x00\n        /* \"#utility.yul\":411:464   */\n      tag_139\n        /* \"#utility.yul\":456:463   */\n      dup5\n        /* \"#utility.yul\":447:453   */\n      dup3\n        /* \"#utility.yul\":436:445   */\n      dup6\n        /* \"#utility.yul\":432:454   */\n      add\n        /* \"#utility.yul\":411:464   */\n      tag_131\n      jump\t// in\n    tag_139:\n        /* \"#utility.yul\":401:464   */\n      swap2\n      pop\n        /* \"#utility.yul\":357:474   */\n      pop\n        /* \"#utility.yul\":152:481   */\n      swap3\n      swap2\n      pop\n      pop\n      jump\t// out\n        /* \"#utility.yul\":487:629   */\n    tag_140:\n        /* \"#utility.yul\":590:622   */\n      tag_142\n        /* \"#utility.yul\":616:621   */\n      dup2\n        /* \"#utility.yul\":590:622   */\n      tag_143\n      jump\t// in\n    tag_142:\n        /* \"#utility.yul\":585:588   */\n      dup3\n        /* \"#utility.yul\":578:623   */\n      mstore\n        /* \"#utility.yul\":487:629   */\n      pop\n      pop\n      jump\t// out\n        /* \"#utility.yul\":635:794   */\n    tag_144:\n        /* \"#utility.yul\":736:787   */\n      tag_146\n        /* \"#utility.yul\":781:786   */\n      dup2\n        /* \"#utility.yul\":736:787   */\n      tag_147\n      jump\t// in\n    tag_146:\n        /* \"#utility.yul\":731:734   */\n      dup3\n        /* \"#utility.yul\":724:788   */\n      mstore\n        /* \"#utility.yul\":635:794   */\n      pop\n      pop\n      jump\t// out\n        /* \"#utility.yul\":800:1166   */\n    tag_148:\n        /* \"#utility.yul\":942:945   */\n      0x00\n        /* \"#utility.yul\":963:1030   */\n      tag_150\n        /* \"#utility.yul\":1027:1029   */\n      0x10\n        /* \"#utility.yul\":1022:1025   */\n      dup4\n        /* \"#utility.yul\":963:1030   */\n      tag_151\n      jump\t// in\n    tag_150:\n        /* \"#utility.yul\":956:1030   */\n      swap2\n      pop\n        /* \"#utility.yul\":1039:1132   */\n      tag_152\n        /* \"#utility.yul\":1128:1131   */\n      dup3\n        /* \"#utility.yul\":1039:1132   */\n      tag_153\n      jump\t// in\n    tag_152:\n        /* \"#utility.yul\":1157:1159   */\n      0x20\n        /* \"#utility.yul\":1152:1155   */\n      dup3\n        /* \"#utility.yul\":1148:1160   */\n      add\n        /* \"#utility.yul\":1141:1160   */\n      swap1\n      pop\n        /* \"#utility.yul\":800:1166   */\n      swap2\n      swap1\n      pop\n      jump\t// out\n        /* \"#utility.yul\":1172:1538   */\n    tag_154:\n        /* \"#utility.yul\":1314:1317   */\n      0x00\n        /* \"#utility.yul\":1335:1402   */\n      tag_156\n        /* \"#utility.yul\":1399:1401   */\n      0x2c\n        /* \"#utility.yul\":1394:1397   */\n      dup4\n        /* \"#utility.yul\":1335:1402   */\n      tag_151\n      jump\t// in\n    tag_156:\n        /* \"#utility.yul\":1328:1402   */\n      swap2\n      pop\n        /* \"#utility.yul\":1411:1504   */\n      tag_157\n        /* \"#utility.yul\":1500:1503   */\n      dup3\n        /* \"#utility.yul\":1411:1504   */\n      tag_158\n      jump\t// in\n    tag_157:\n        /* \"#utility.yul\":1529:1531   */\n      0x40\n        /* \"#utility.yul\":1524:1527   */\n      dup3\n        /* \"#utility.yul\":1520:1532   */\n      add\n        /* \"#utility.yul\":1513:1532   */\n      swap1\n      pop\n        /* \"#utility.yul\":1172:1538   */\n      swap2\n      swap1\n      pop\n      jump\t// out\n        /* \"#utility.yul\":1544:1910   */\n    tag_159:\n        /* \"#utility.yul\":1686:1689   */\n      0x00\n        /* \"#utility.yul\":1707:1774   */\n      tag_161\n        /* \"#utility.yul\":1771:1773   */\n      0x18\n        /* \"#utility.yul\":1766:1769   */\n      dup4\n        /* \"#utility.yul\":1707:1774   */\n      tag_151\n      jump\t// in\n    tag_161:\n        /* \"#utility.yul\":1700:1774   */\n      swap2\n      pop\n        /* \"#utility.yul\":1783:1876   */\n      tag_162\n        /* \"#utility.yul\":1872:1875   */\n      dup3\n        /* \"#utility.yul\":1783:1876   */\n      tag_163\n      jump\t// in\n    tag_162:\n        /* \"#utility.yul\":1901:1903   */\n      0x20\n        /* \"#utility.yul\":1896:1899   */\n      dup3\n        /* \"#utility.yul\":1892:1904   */\n      add\n        /* \"#utility.yul\":1885:1904   */\n      swap1\n      pop\n        /* \"#utility.yul\":1544:1910   */\n      swap2\n      swap1\n      pop\n      jump\t// out\n        /* \"#utility.yul\":1916:2282   */\n    tag_164:\n        /* \"#utility.yul\":2058:2061   */\n      0x00\n        /* \"#utility.yul\":2079:2146   */\n      tag_166\n        /* \"#utility.yul\":2143:2145   */\n      0x1b\n        /* \"#utility.yul\":2138:2141   */\n      dup4\n        /* \"#utility.yul\":2079:2146   */\n      tag_151\n      jump\t// in\n    tag_166:\n        /* \"#utility.yul\":2072:2146   */\n      swap2\n      pop\n        /* \"#utility.yul\":2155:2248   */\n      tag_167\n        /* \"#utility.yul\":2244:2247   */\n      dup3\n        /* \"#utility.yul\":2155:2248   */\n      tag_168\n      jump\t// in\n    tag_167:\n        /* \"#utility.yul\":2273:2275   */\n      0x20\n        /* \"#utility.yul\":2268:2271   */\n      dup3\n        /* \"#utility.yul\":2264:2276   */\n      add\n        /* \"#utility.yul\":2257:2276   */\n      swap1\n      pop\n        /* \"#utility.yul\":1916:2282   */\n      swap2\n      swap1\n      pop\n      jump\t// out\n        /* \"#utility.yul\":2288:2406   */\n    tag_169:\n        /* \"#utility.yul\":2375:2399   */\n      tag_171\n        /* \"#utility.yul\":2393:2398   */\n      dup2\n        /* \"#utility.yul\":2375:2399   */\n      tag_172\n      jump\t// in\n    tag_171:\n        /* \"#utility.yul\":2370:2373   */\n      dup3\n        /* \"#utility.yul\":2363:2400   */\n      mstore\n        /* \"#utility.yul\":2288:2406   */\n      pop\n      pop\n      jump\t// out\n        /* \"#utility.yul\":2412:2666   */\n    tag_30:\n        /* \"#utility.yul\":2521:2525   */\n      0x00\n        /* \"#utility.yul\":2559:2561   */\n      0x20\n        /* \"#utility.yul\":2548:2557   */\n      dup3\n        /* \"#utility.yul\":2544:2562   */\n      add\n        /* \"#utility.yul\":2536:2562   */\n      swap1\n      pop\n        /* \"#utility.yul\":2572:2659   */\n      tag_174\n        /* \"#utility.yul\":2656:2657   */\n      0x00\n        /* \"#utility.yul\":2645:2654   */\n      dup4\n        /* \"#utility.yul\":2641:2658   */\n      add\n        /* \"#utility.yul\":2632:2638   */\n      dup5\n        /* \"#utility.yul\":2572:2659   */\n      tag_140\n      jump\t// in\n    tag_174:\n        /* \"#utility.yul\":2412:2666   */\n      swap3\n      swap2\n      pop\n      pop\n      jump\t// out\n        /* \"#utility.yul\":2672:2922   */\n    tag_45:\n        /* \"#utility.yul\":2779:2783   */\n      0x00\n        /* \"#utility.yul\":2817:2819   */\n      0x20\n        /* \"#utility.yul\":2806:2815   */\n      dup3\n        /* \"#utility.yul\":2802:2820   */\n      add\n        /* \"#utility.yul\":2794:2820   */\n      swap1\n      pop\n        /* \"#utility.yul\":2830:2915   */\n      tag_176\n        /* \"#utility.yul\":2912:2913   */\n      0x00\n        /* \"#utility.yul\":2901:2910   */\n      dup4\n        /* \"#utility.yul\":2897:2914   */\n      add\n        /* \"#utility.yul\":2888:2894   */\n      dup5\n        /* \"#utility.yul\":2830:2915   */\n      tag_144\n      jump\t// in\n    tag_176:\n        /* \"#utility.yul\":2672:2922   */\n      swap3\n      swap2\n      pop\n      pop\n      jump\t// out\n        /* \"#utility.yul\":2928:3347   */\n    tag_67:\n        /* \"#utility.yul\":3094:3098   */\n      0x00\n        /* \"#utility.yul\":3132:3134   */\n      0x20\n        /* \"#utility.yul\":3121:3130   */\n      dup3\n        /* \"#utility.yul\":3117:3135   */\n      add\n        /* \"#utility.yul\":3109:3135   */\n      swap1\n      pop\n        /* \"#utility.yul\":3181:3190   */\n      dup2\n        /* \"#utility.yul\":3175:3179   */\n      dup2\n        /* \"#utility.yul\":3171:3191   */\n      sub\n        /* \"#utility.yul\":3167:3168   */\n      0x00\n        /* \"#utility.yul\":3156:3165   */\n      dup4\n        /* \"#utility.yul\":3152:3169   */\n      add\n        /* \"#utility.yul\":3145:3192   */\n      mstore\n        /* \"#utility.yul\":3209:3340   */\n      tag_178\n        /* \"#utility.yul\":3335:3339   */\n      dup2\n        /* \"#utility.yul\":3209:3340   */\n      tag_148\n      jump\t// in\n    tag_178:\n        /* \"#utility.yul\":3201:3340   */\n      swap1\n      pop\n        /* \"#utility.yul\":2928:3347   */\n      swap2\n      swap1\n      pop\n      jump\t// out\n        /* \"#utility.yul\":3353:3772   */\n    tag_71:\n        /* \"#utility.yul\":3519:3523   */\n      0x00\n        /* \"#utility.yul\":3557:3559   */\n      0x20\n        /* \"#utility.yul\":3546:3555   */\n      dup3\n        /* \"#utility.yul\":3542:3560   */\n      add\n        /* \"#utility.yul\":3534:3560   */\n      swap1\n      pop\n        /* \"#utility.yul\":3606:3615   */\n      dup2\n        /* \"#utility.yul\":3600:3604   */\n      dup2\n        /* \"#utility.yul\":3596:3616   */\n      sub\n        /* \"#utility.yul\":3592:3593   */\n      0x00\n        /* \"#utility.yul\":3581:3590   */\n      dup4\n        /* \"#utility.yul\":3577:3594   */\n      add\n        /* \"#utility.yul\":3570:3617   */\n      mstore\n        /* \"#utility.yul\":3634:3765   */\n      tag_180\n        /* \"#utility.yul\":3760:3764   */\n      dup2\n        /* \"#utility.yul\":3634:3765   */\n      tag_154\n      jump\t// in\n    tag_180:\n        /* \"#utility.yul\":3626:3765   */\n      swap1\n      pop\n        /* \"#utility.yul\":3353:3772   */\n      swap2\n      swap1\n      pop\n      jump\t// out\n        /* \"#utility.yul\":3778:4197   */\n    tag_75:\n        /* \"#utility.yul\":3944:3948   */\n      0x00\n        /* \"#utility.yul\":3982:3984   */\n      0x20\n        /* \"#utility.yul\":3971:3980   */\n      dup3\n        /* \"#utility.yul\":3967:3985   */\n      add\n        /* \"#utility.yul\":3959:3985   */\n      swap1\n      pop\n        /* \"#utility.yul\":4031:4040   */\n      dup2\n        /* \"#utility.yul\":4025:4029   */\n      dup2\n        /* \"#utility.yul\":4021:4041   */\n      sub\n        /* \"#utility.yul\":4017:4018   */\n      0x00\n        /* \"#utility.yul\":4006:4015   */\n      dup4\n        /* \"#utility.yul\":4002:4019   */\n      add\n        /* \"#utility.yul\":3995:4042   */\n      mstore\n        /* \"#utility.yul\":4059:4190   */\n      tag_182\n        /* \"#utility.yul\":4185:4189   */\n      dup2\n        /* \"#utility.yul\":4059:4190   */\n      tag_159\n      jump\t// in\n    tag_182:\n        /* \"#utility.yul\":4051:4190   */\n      swap1\n      pop\n        /* \"#utility.yul\":3778:4197   */\n      swap2\n      swap1\n      pop\n      jump\t// out\n        /* \"#utility.yul\":4203:4622   */\n    tag_88:\n        /* \"#utility.yul\":4369:4373   */\n      0x00\n        /* \"#utility.yul\":4407:4409   */\n      0x20\n        /* \"#utility.yul\":4396:4405   */\n      dup3\n        /* \"#utility.yul\":4392:4410   */\n      add\n        /* \"#utility.yul\":4384:4410   */\n      swap1\n      pop\n        /* \"#utility.yul\":4456:4465   */\n      dup2\n        /* \"#utility.yul\":4450:4454   */\n      dup2\n        /* \"#utility.yul\":4446:4466   */\n      sub\n        /* \"#utility.yul\":4442:4443   */\n      0x00\n        /* \"#utility.yul\":4431:4440   */\n      dup4\n        /* \"#utility.yul\":4427:4444   */\n      add\n        /* \"#utility.yul\":4420:4467   */\n      mstore\n        /* \"#utility.yul\":4484:4615   */\n      tag_184\n        /* \"#utility.yul\":4610:4614   */\n      dup2\n        /* \"#utility.yul\":4484:4615   */\n      tag_164\n      jump\t// in\n    tag_184:\n        /* \"#utility.yul\":4476:4615   */\n      swap1\n      pop\n        /* \"#utility.yul\":4203:4622   */\n      swap2\n      swap1\n      pop\n      jump\t// out\n        /* \"#utility.yul\":4628:4850   */\n    tag_19:\n        /* \"#utility.yul\":4721:4725   */\n      0x00\n        /* \"#utility.yul\":4759:4761   */\n      0x20\n        /* \"#utility.yul\":4748:4757   */\n      dup3\n        /* \"#utility.yul\":4744:4762   */\n      add\n        /* \"#utility.yul\":4736:4762   */\n      swap1\n      pop\n        /* \"#utility.yul\":4772:4843   */\n      tag_186\n        /* \"#utility.yul\":4840:4841   */\n      0x00\n        /* \"#utility.yul\":4829:4838   */\n      dup4\n        /* \"#utility.yul\":4825:4842   */\n      add\n        /* \"#utility.yul\":4816:4822   */\n      dup5\n        /* \"#utility.yul\":4772:4843   */\n      tag_169\n      jump\t// in\n    tag_186:\n        /* \"#utility.yul\":4628:4850   */\n      swap3\n      swap2\n      pop\n      pop\n      jump\t// out\n        /* \"#utility.yul\":4937:5106   */\n    tag_151:\n        /* \"#utility.yul\":5021:5032   */\n      0x00\n        /* \"#utility.yul\":5055:5061   */\n      dup3\n        /* \"#utility.yul\":5050:5053   */\n      dup3\n        /* \"#utility.yul\":5043:5062   */\n      mstore\n        /* \"#utility.yul\":5095:5099   */\n      0x20\n        /* \"#utility.yul\":5090:5093   */\n      dup3\n        /* \"#utility.yul\":5086:5100   */\n      add\n        /* \"#utility.yul\":5071:5100   */\n      swap1\n      pop\n        /* \"#utility.yul\":4937:5106   */\n      swap3\n      swap2\n      pop\n      pop\n      jump\t// out\n        /* \"#utility.yul\":5112:5417   */\n    tag_85:\n        /* \"#utility.yul\":5152:5155   */\n      0x00\n        /* \"#utility.yul\":5171:5191   */\n      tag_191\n        /* \"#utility.yul\":5189:5190   */\n      dup3\n        /* \"#utility.yul\":5171:5191   */\n      tag_172\n      jump\t// in\n    tag_191:\n        /* \"#utility.yul\":5166:5191   */\n      swap2\n      pop\n        /* \"#utility.yul\":5205:5225   */\n      tag_192\n        /* \"#utility.yul\":5223:5224   */\n      dup4\n        /* \"#utility.yul\":5205:5225   */\n      tag_172\n      jump\t// in\n    tag_192:\n        /* \"#utility.yul\":5200:5225   */\n      swap3\n      pop\n        /* \"#utility.yul\":5359:5360   */\n      dup3\n        /* \"#utility.yul\":5291:5357   */\n      0xffffffffffffffffffffffffffffffffffffffffffffffffffffffffffffffff\n        /* \"#utility.yul\":5287:5361   */\n      sub\n        /* \"#utility.yul\":5284:5285   */\n      dup3\n        /* \"#utility.yul\":5281:5362   */\n      gt\n        /* \"#utility.yul\":5278:5385   */\n      iszero\n      tag_193\n      jumpi\n        /* \"#utility.yul\":5365:5383   */\n      tag_194\n      tag_195\n      jump\t// in\n    tag_194:\n        /* \"#utility.yul\":5278:5385   */\n    tag_193:\n        /* \"#utility.yul\":5409:5410   */\n      dup3\n        /* \"#utility.yul\":5406:5407   */\n      dup3\n        /* \"#utility.yul\":5402:5411   */\n      add\n        /* \"#utility.yul\":5395:5411   */\n      swap1\n      pop\n        /* \"#utility.yul\":5112:5417   */\n      swap3\n      swap2\n      pop\n      pop\n      jump\t// out\n        /* \"#utility.yul\":5423:5614   */\n    tag_126:\n        /* \"#utility.yul\":5463:5467   */\n      0x00\n        /* \"#utility.yul\":5483:5503   */\n      tag_197\n        /* \"#utility.yul\":5501:5502   */\n      dup3\n        /* \"#utility.yul\":5483:5503   */\n      tag_172\n      jump\t// in\n    tag_197:\n        /* \"#utility.yul\":5478:5503   */\n      swap2\n      pop\n        /* \"#utility.yul\":5517:5537   */\n      tag_198\n        /* \"#utility.yul\":5535:5536   */\n      dup4\n        /* \"#utility.yul\":5517:5537   */\n      tag_172\n      jump\t// in\n    tag_198:\n        /* \"#utility.yul\":5512:5537   */\n      swap3\n      pop\n        /* \"#utility.yul\":5556:5557   */\n      dup3\n        /* \"#utility.yul\":5553:5554   */\n      dup3\n        /* \"#utility.yul\":5550:5558   */\n      lt\n        /* \"#utility.yul\":5547:5581   */\n      iszero\n      tag_199\n      jumpi\n        /* \"#utility.yul\":5561:5579   */\n      tag_200\n      tag_195\n      jump\t// in\n    tag_200:\n        /* \"#utility.yul\":5547:5581   */\n    tag_199:\n        /* \"#utility.yul\":5606:5607   */\n      dup3\n        /* \"#utility.yul\":5603:5604   */\n      dup3\n        /* \"#utility.yul\":5599:5608   */\n      sub\n        /* \"#utility.yul\":5591:5608   */\n      swap1\n      pop\n        /* \"#utility.yul\":5423:5614   */\n      swap3\n      swap2\n      pop\n      pop\n      jump\t// out\n        /* \"#utility.yul\":5620:5716   */\n    tag_201:\n        /* \"#utility.yul\":5657:5664   */\n      0x00\n        /* \"#utility.yul\":5686:5710   */\n      tag_203\n        /* \"#utility.yul\":5704:5709   */\n      dup3\n        /* \"#utility.yul\":5686:5710   */\n      tag_204\n      jump\t// in\n    tag_203:\n        /* \"#utility.yul\":5675:5710   */\n      swap1\n      pop\n        /* \"#utility.yul\":5620:5716   */\n      swap2\n      swap1\n      pop\n      jump\t// out\n        /* \"#utility.yul\":5722:5826   */\n    tag_143:\n        /* \"#utility.yul\":5767:5774   */\n      0x00\n        /* \"#utility.yul\":5796:5820   */\n      tag_206\n        /* \"#utility.yul\":5814:5819   */\n      dup3\n        /* \"#utility.yul\":5796:5820   */\n      tag_204\n      jump\t// in\n    tag_206:\n        /* \"#utility.yul\":5785:5820   */\n      swap1\n      pop\n        /* \"#utility.yul\":5722:5826   */\n      swap2\n      swap1\n      pop\n      jump\t// out\n        /* \"#utility.yul\":5832:5975   */\n    tag_207:\n        /* \"#utility.yul\":5885:5892   */\n      0x00\n        /* \"#utility.yul\":5914:5919   */\n      dup2\n        /* \"#utility.yul\":5903:5919   */\n      swap1\n      pop\n        /* \"#utility.yul\":5920:5969   */\n      tag_209\n        /* \"#utility.yul\":5963:5968   */\n      dup3\n        /* \"#utility.yul\":5920:5969   */\n      tag_210\n      jump\t// in\n    tag_209:\n        /* \"#utility.yul\":5832:5975   */\n      swap2\n      swap1\n      pop\n      jump\t// out\n        /* \"#utility.yul\":5981:6107   */\n    tag_204:\n        /* \"#utility.yul\":6018:6025   */\n      0x00\n        /* \"#utility.yul\":6058:6100   */\n      0xffffffffffffffffffffffffffffffffffffffff\n        /* \"#utility.yul\":6051:6056   */\n      dup3\n        /* \"#utility.yul\":6047:6101   */\n      and\n        /* \"#utility.yul\":6036:6101   */\n      swap1\n      pop\n        /* \"#utility.yul\":5981:6107   */\n      swap2\n      swap1\n      pop\n      jump\t// out\n        /* \"#utility.yul\":6113:6190   */\n    tag_172:\n        /* \"#utility.yul\":6150:6157   */\n      0x00\n        /* \"#utility.yul\":6179:6184   */\n      dup2\n        /* \"#utility.yul\":6168:6184   */\n      swap1\n      pop\n        /* \"#utility.yul\":6113:6190   */\n      swap2\n      swap1\n      pop\n      jump\t// out\n        /* \"#utility.yul\":6196:6339   */\n    tag_147:\n        /* \"#utility.yul\":6260:6269   */\n      0x00\n        /* \"#utility.yul\":6293:6333   */\n      tag_214\n        /* \"#utility.yul\":6327:6332   */\n      dup3\n        /* \"#utility.yul\":6293:6333   */\n      tag_207\n      jump\t// in\n    tag_214:\n        /* \"#utility.yul\":6280:6333   */\n      swap1\n      pop\n        /* \"#utility.yul\":6196:6339   */\n      swap2\n      swap1\n      pop\n      jump\t// out\n        /* \"#utility.yul\":6345:6525   */\n    tag_195:\n        /* \"#utility.yul\":6393:6470   */\n      0x4e487b7100000000000000000000000000000000000000000000000000000000\n        /* \"#utility.yul\":6390:6391   */\n      0x00\n        /* \"#utility.yul\":6383:6471   */\n      mstore\n        /* \"#utility.yul\":6490:6494   */\n      0x11\n        /* \"#utility.yul\":6487:6488   */\n      0x04\n        /* \"#utility.yul\":6480:6495   */\n      mstore\n        /* \"#utility.yul\":6514:6518   */\n      0x24\n        /* \"#utility.yul\":6511:6512   */\n      0x00\n        /* \"#utility.yul\":6504:6519   */\n      revert\n        /* \"#utility.yul\":6531:6711   */\n    tag_79:\n        /* \"#utility.yul\":6579:6656   */\n      0x4e487b7100000000000000000000000000000000000000000000000000000000\n        /* \"#utility.yul\":6576:6577   */\n      0x00\n        /* \"#utility.yul\":6569:6657   */\n      mstore\n        /* \"#utility.yul\":6676:6680   */\n      0x21\n        /* \"#utility.yul\":6673:6674   */\n      0x04\n        /* \"#utility.yul\":6666:6681   */\n      mstore\n        /* \"#utility.yul\":6700:6704   */\n      0x24\n        /* \"#utility.yul\":6697:6698   */\n      0x00\n        /* \"#utility.yul\":6690:6705   */\n      revert\n        /* \"#utility.yul\":6840:6957   */\n    tag_138:\n        /* \"#utility.yul\":6949:6950   */\n      0x00\n        /* \"#utility.yul\":6946:6947   */\n      dup1\n        /* \"#utility.yul\":6939:6951   */\n      revert\n        /* \"#utility.yul\":6963:7129   */\n    tag_153:\n        /* \"#utility.yul\":7103:7121   */\n      0x4f776e65722043616e6e6f742062696400000000000000000000000000000000\n        /* \"#utility.yul\":7099:7100   */\n      0x00\n        /* \"#utility.yul\":7091:7097   */\n      dup3\n        /* \"#utility.yul\":7087:7101   */\n      add\n        /* \"#utility.yul\":7080:7122   */\n      mstore\n        /* \"#utility.yul\":6963:7129   */\n      pop\n      jump\t// out\n        /* \"#utility.yul\":7135:7366   */\n    tag_158:\n        /* \"#utility.yul\":7275:7309   */\n      0x537461727420426c6f636b206d7573742062652067726561746572207468616e\n        /* \"#utility.yul\":7271:7272   */\n      0x00\n        /* \"#utility.yul\":7263:7269   */\n      dup3\n        /* \"#utility.yul\":7259:7273   */\n      add\n        /* \"#utility.yul\":7252:7310   */\n      mstore\n        /* \"#utility.yul\":7344:7358   */\n      0x20746f74616c20626c6f636b0000000000000000000000000000000000000000\n        /* \"#utility.yul\":7339:7341   */\n      0x20\n        /* \"#utility.yul\":7331:7337   */\n      dup3\n        /* \"#utility.yul\":7327:7342   */\n      add\n        /* \"#utility.yul\":7320:7359   */\n      mstore\n        /* \"#utility.yul\":7135:7366   */\n      pop\n      jump\t// out\n        /* \"#utility.yul\":7372:7546   */\n    tag_163:\n        /* \"#utility.yul\":7512:7538   */\n      0x41756374696f6e206973206e6f7420456e646564207965740000000000000000\n        /* \"#utility.yul\":7508:7509   */\n      0x00\n        /* \"#utility.yul\":7500:7506   */\n      dup3\n        /* \"#utility.yul\":7496:7510   */\n      add\n        /* \"#utility.yul\":7489:7539   */\n      mstore\n        /* \"#utility.yul\":7372:7546   */\n      pop\n      jump\t// out\n        /* \"#utility.yul\":7552:7729   */\n    tag_168:\n        /* \"#utility.yul\":7692:7721   */\n      0x496e63726561736520596f7520204269642056616c75207468616e0000000000\n        /* \"#utility.yul\":7688:7689   */\n      0x00\n        /* \"#utility.yul\":7680:7686   */\n      dup3\n        /* \"#utility.yul\":7676:7690   */\n      add\n        /* \"#utility.yul\":7669:7722   */\n      mstore\n        /* \"#utility.yul\":7552:7729   */\n      pop\n      jump\t// out\n        /* \"#utility.yul\":7735:7856   */\n    tag_210:\n        /* \"#utility.yul\":7824:7825   */\n      0x04\n        /* \"#utility.yul\":7817:7822   */\n      dup2\n        /* \"#utility.yul\":7814:7826   */\n      lt\n        /* \"#utility.yul\":7804:7850   */\n      tag_225\n      jumpi\n        /* \"#utility.yul\":7830:7848   */\n      tag_226\n      tag_79\n      jump\t// in\n    tag_226:\n        /* \"#utility.yul\":7804:7850   */\n    tag_225:\n        /* \"#utility.yul\":7735:7856   */\n      pop\n      jump\t// out\n        /* \"#utility.yul\":7862:7984   */\n    tag_134:\n        /* \"#utility.yul\":7935:7959   */\n      tag_228\n        /* \"#utility.yul\":7953:7958   */\n      dup2\n        /* \"#utility.yul\":7935:7959   */\n      tag_201\n      jump\t// in\n    tag_228:\n        /* \"#utility.yul\":7928:7933   */\n      dup2\n        /* \"#utility.yul\":7925:7960   */\n      eq\n        /* \"#utility.yul\":7915:7978   */\n      tag_229\n      jumpi\n        /* \"#utility.yul\":7974:7975   */\n      0x00\n        /* \"#utility.yul\":7971:7972   */\n      dup1\n        /* \"#utility.yul\":7964:7976   */\n      revert\n        /* \"#utility.yul\":7915:7978   */\n    tag_229:\n        /* \"#utility.yul\":7862:7984   */\n      pop\n      jump\t// out\n\n    auxdata: 0xa2646970667358221220989919d02e15870b1307fa115b517ab0e1a6eae1c111a18cf36f7fc35b4d99cd64736f6c63430008070033\n}\n",
				"bytecode": {
					"linkReferences": {},
					"object": "608060405234801561001057600080fd5b50336000806101000a81548173ffffffffffffffffffffffffffffffffffffffff021916908373ffffffffffffffffffffffffffffffffffffffff160217905550436001819055506001600360006101000a81548160ff0219169083600381111561007e5761007d61013a565b5b02179055506001805461009191906100ab565b600281905550670de0b6b3a7640000600681905550610169565b60006100b682610101565b91506100c183610101565b9250827fffffffffffffffffffffffffffffffffffffffffffffffffffffffffffffffff038211156100f6576100f561010b565b5b828201905092915050565b6000819050919050565b7f4e487b7100000000000000000000000000000000000000000000000000000000600052601160045260246000fd5b7f4e487b7100000000000000000000000000000000000000000000000000000000600052602160045260246000fd5b610f66806101786000396000f3fe6080604052600436106100a75760003560e01c80637fb45099116100645780637fb450991461019f5780638fa8b790146101ca578063bd9215f4146101e1578063e5c600911461020c578063f3ef35f814610237578063f77282ab14610262576100a7565b8063083c6323146100ac5780631998aeef146100d757806348cd4cb1146100e15780635ec2c7bf1461010c57806362ea82db146101375780637eb695a114610174575b600080fd5b3480156100b857600080fd5b506100c1610279565b6040516100ce9190610caf565b60405180910390f35b6100df61027f565b005b3480156100ed57600080fd5b506100f661062c565b6040516101039190610caf565b60405180910390f35b34801561011857600080fd5b50610121610632565b60405161012e9190610bf9565b60405180910390f35b34801561014357600080fd5b5061015e60048036038101906101599190610b13565b610656565b60405161016b9190610caf565b60405180910390f35b34801561018057600080fd5b5061018961066e565b6040516101969190610caf565b60405180910390f35b3480156101ab57600080fd5b506101b4610674565b6040516101c19190610c14565b60405180910390f35b3480156101d657600080fd5b506101df610687565b005b3480156101ed57600080fd5b506101f6610741565b6040516102039190610bf9565b60405180910390f35b34801561021857600080fd5b50610221610767565b60405161022e9190610caf565b60405180910390f35b34801561024357600080fd5b5061024c61076d565b6040516102599190610caf565b60405180910390f35b34801561026e57600080fd5b50610277610773565b005b60025481565b60008054906101000a900473ffffffffffffffffffffffffffffffffffffffff1673ffffffffffffffffffffffffffffffffffffffff163373ffffffffffffffffffffffffffffffffffffffff16141561030e576040517f08c379a000000000000000000000000000000000000000000000000000000000815260040161030590610c2f565b60405180910390fd5b6001544311610352576040517f08c379a000000000000000000000000000000000000000000000000000000000815260040161034990610c4f565b60405180910390fd5b6002544310610396576040517f08c379a000000000000000000000000000000000000000000000000000000000815260040161038d90610c6f565b60405180910390fd5b600160038111156103aa576103a9610e07565b5b600360009054906101000a900460ff1660038111156103cc576103cb610e07565b5b146103d657600080fd5b671bc16d674ec8000034116103ea57600080fd5b600034600860003373ffffffffffffffffffffffffffffffffffffffff1673ffffffffffffffffffffffffffffffffffffffff168152602001908152602001600020546104379190610cdb565b9050600554811161047d576040517f08c379a000000000000000000000000000000000000000000000000000000000815260040161047490610c8f565b60405180910390fd5b60086000600760009054906101000a900473ffffffffffffffffffffffffffffffffffffffff1673ffffffffffffffffffffffffffffffffffffffff1673ffffffffffffffffffffffffffffffffffffffff168152602001908152602001600020548110156105695761055e600654826104f79190610cdb565b60086000600760009054906101000a900473ffffffffffffffffffffffffffffffffffffffff1673ffffffffffffffffffffffffffffffffffffffff1673ffffffffffffffffffffffffffffffffffffffff16815260200190815260200160002054610ae3565b600581905550610629565b6105e18160065460086000600760009054906101000a900473ffffffffffffffffffffffffffffffffffffffff1673ffffffffffffffffffffffffffffffffffffffff1673ffffffffffffffffffffffffffffffffffffffff168152602001908152602001600020546105dc9190610cdb565b610ae3565b60058190555033600760006101000a81548173ffffffffffffffffffffffffffffffffffffffff021916908373ffffffffffffffffffffffffffffffffffffffff1602179055505b50565b60015481565b60008054906101000a900473ffffffffffffffffffffffffffffffffffffffff1681565b60086020528060005260406000206000915090505481565b60055481565b600360009054906101000a900460ff1681565b60008054906101000a900473ffffffffffffffffffffffffffffffffffffffff1673ffffffffffffffffffffffffffffffffffffffff163373ffffffffffffffffffffffffffffffffffffffff1614610715576040517f08c379a000000000000000000000000000000000000000000000000000000000815260040161070c90610c2f565b60405180910390fd5b60038060006101000a81548160ff0219169083600381111561073a57610739610e07565b5b0217905550565b600760009054906101000a900473ffffffffffffffffffffffffffffffffffffffff1681565b60045481565b60065481565b60038081111561078657610785610e07565b5b600360009054906101000a900460ff1660038111156107a8576107a7610e07565b5b14806107e657506003808111156107c2576107c1610e07565b5b600360009054906101000a900460ff1660038111156107e4576107e3610e07565b5b145b806107f2575060025443115b6107fb57600080fd5b60008054906101000a900473ffffffffffffffffffffffffffffffffffffffff1673ffffffffffffffffffffffffffffffffffffffff163373ffffffffffffffffffffffffffffffffffffffff16148061089457506000600860003373ffffffffffffffffffffffffffffffffffffffff1673ffffffffffffffffffffffffffffffffffffffff16815260200190815260200160002054115b61089d57600080fd5b6000806003808111156108b3576108b2610e07565b5b600360009054906101000a900460ff1660038111156108d5576108d4610e07565b5b141561092557339150600860003373ffffffffffffffffffffffffffffffffffffffff1673ffffffffffffffffffffffffffffffffffffffff168152602001908152602001600020549050610adf565b60008054906101000a900473ffffffffffffffffffffffffffffffffffffffff1673ffffffffffffffffffffffffffffffffffffffff163373ffffffffffffffffffffffffffffffffffffffff1614156109a65760008054906101000a900473ffffffffffffffffffffffffffffffffffffffff1691506005549050610ade565b600760009054906101000a900473ffffffffffffffffffffffffffffffffffffffff1673ffffffffffffffffffffffffffffffffffffffff163373ffffffffffffffffffffffffffffffffffffffff161415610a9757600760009054906101000a900473ffffffffffffffffffffffffffffffffffffffff16915060055460086000600760009054906101000a900473ffffffffffffffffffffffffffffffffffffffff1673ffffffffffffffffffffffffffffffffffffffff1673ffffffffffffffffffffffffffffffffffffffff16815260200190815260200160002054610a909190610d31565b9050610add565b339150600860003373ffffffffffffffffffffffffffffffffffffffff1673ffffffffffffffffffffffffffffffffffffffff1681526020019081526020016000205490505b5b5b5050565b6000818311610af457829050610af8565b8190505b92915050565b600081359050610b0d81610f19565b92915050565b600060208284031215610b2957610b28610e36565b5b6000610b3784828501610afe565b91505092915050565b610b4981610d77565b82525050565b610b5881610dc6565b82525050565b6000610b6b601083610cca565b9150610b7682610e3b565b602082019050919050565b6000610b8e602c83610cca565b9150610b9982610e64565b604082019050919050565b6000610bb1601883610cca565b9150610bbc82610eb3565b602082019050919050565b6000610bd4601b83610cca565b9150610bdf82610edc565b602082019050919050565b610bf381610dbc565b82525050565b6000602082019050610c0e6000830184610b40565b92915050565b6000602082019050610c296000830184610b4f565b92915050565b60006020820190508181036000830152610c4881610b5e565b9050919050565b60006020820190508181036000830152610c6881610b81565b9050919050565b60006020820190508181036000830152610c8881610ba4565b9050919050565b60006020820190508181036000830152610ca881610bc7565b9050919050565b6000602082019050610cc46000830184610bea565b92915050565b600082825260208201905092915050565b6000610ce682610dbc565b9150610cf183610dbc565b9250827fffffffffffffffffffffffffffffffffffffffffffffffffffffffffffffffff03821115610d2657610d25610dd8565b5b828201905092915050565b6000610d3c82610dbc565b9150610d4783610dbc565b925082821015610d5a57610d59610dd8565b5b828203905092915050565b6000610d7082610d9c565b9050919050565b6000610d8282610d9c565b9050919050565b6000819050610d9782610f05565b919050565b600073ffffffffffffffffffffffffffffffffffffffff82169050919050565b6000819050919050565b6000610dd182610d89565b9050919050565b7f4e487b7100000000000000000000000000000000000000000000000000000000600052601160045260246000fd5b7f4e487b7100000000000000000000000000000000000000000000000000000000600052602160045260246000fd5b600080fd5b7f4f776e65722043616e6e6f742062696400000000000000000000000000000000600082015250565b7f537461727420426c6f636b206d7573742062652067726561746572207468616e60008201527f20746f74616c20626c6f636b0000000000000000000000000000000000000000602082015250565b7f41756374696f6e206973206e6f7420456e646564207965740000000000000000600082015250565b7f496e63726561736520596f7520204269642056616c75207468616e0000000000600082015250565b60048110610f1657610f15610e07565b5b50565b610f2281610d65565b8114610f2d57600080fd5b5056fea2646970667358221220989919d02e15870b1307fa115b517ab0e1a6eae1c111a18cf36f7fc35b4d99cd64736f6c63430008070033",
					"opcodes": "PUSH1 0x80 PUSH1 0x40 MSTORE CALLVALUE DUP1 ISZERO PUSH2 0x10 JUMPI PUSH1 0x0 DUP1 REVERT JUMPDEST POP CALLER PUSH1 0x0 DUP1 PUSH2 0x100 EXP DUP2 SLOAD DUP2 PUSH20 0xFFFFFFFFFFFFFFFFFFFFFFFFFFFFFFFFFFFFFFFF MUL NOT AND SWAP1 DUP4 PUSH20 0xFFFFFFFFFFFFFFFFFFFFFFFFFFFFFFFFFFFFFFFF AND MUL OR SWAP1 SSTORE POP NUMBER PUSH1 0x1 DUP2 SWAP1 SSTORE POP PUSH1 0x1 PUSH1 0x3 PUSH1 0x0 PUSH2 0x100 EXP DUP2 SLOAD DUP2 PUSH1 0xFF MUL NOT AND SWAP1 DUP4 PUSH1 0x3 DUP2 GT ISZERO PUSH2 0x7E JUMPI PUSH2 0x7D PUSH2 0x13A JUMP JUMPDEST JUMPDEST MUL OR SWAP1 SSTORE POP PUSH1 0x1 DUP1 SLOAD PUSH2 0x91 SWAP2 SWAP1 PUSH2 0xAB JUMP JUMPDEST PUSH1 0x2 DUP2 SWAP1 SSTORE POP PUSH8 0xDE0B6B3A7640000 PUSH1 0x6 DUP2 SWAP1 SSTORE POP PUSH2 0x169 JUMP JUMPDEST PUSH1 0x0 PUSH2 0xB6 DUP3 PUSH2 0x101 JUMP JUMPDEST SWAP2 POP PUSH2 0xC1 DUP4 PUSH2 0x101 JUMP JUMPDEST SWAP3 POP DUP3 PUSH32 0xFFFFFFFFFFFFFFFFFFFFFFFFFFFFFFFFFFFFFFFFFFFFFFFFFFFFFFFFFFFFFFFF SUB DUP3 GT ISZERO PUSH2 0xF6 JUMPI PUSH2 0xF5 PUSH2 0x10B JUMP JUMPDEST JUMPDEST DUP3 DUP3 ADD SWAP1 POP SWAP3 SWAP2 POP POP JUMP JUMPDEST PUSH1 0x0 DUP2 SWAP1 POP SWAP2 SWAP1 POP JUMP JUMPDEST PUSH32 0x4E487B7100000000000000000000000000000000000000000000000000000000 PUSH1 0x0 MSTORE PUSH1 0x11 PUSH1 0x4 MSTORE PUSH1 0x24 PUSH1 0x0 REVERT JUMPDEST PUSH32 0x4E487B7100000000000000000000000000000000000000000000000000000000 PUSH1 0x0 MSTORE PUSH1 0x21 PUSH1 0x4 MSTORE PUSH1 0x24 PUSH1 0x0 REVERT JUMPDEST PUSH2 0xF66 DUP1 PUSH2 0x178 PUSH1 0x0 CODECOPY PUSH1 0x0 RETURN INVALID PUSH1 0x80 PUSH1 0x40 MSTORE PUSH1 0x4 CALLDATASIZE LT PUSH2 0xA7 JUMPI PUSH1 0x0 CALLDATALOAD PUSH1 0xE0 SHR DUP1 PUSH4 0x7FB45099 GT PUSH2 0x64 JUMPI DUP1 PUSH4 0x7FB45099 EQ PUSH2 0x19F JUMPI DUP1 PUSH4 0x8FA8B790 EQ PUSH2 0x1CA JUMPI DUP1 PUSH4 0xBD9215F4 EQ PUSH2 0x1E1 JUMPI DUP1 PUSH4 0xE5C60091 EQ PUSH2 0x20C JUMPI DUP1 PUSH4 0xF3EF35F8 EQ PUSH2 0x237 JUMPI DUP1 PUSH4 0xF77282AB EQ PUSH2 0x262 JUMPI PUSH2 0xA7 JUMP JUMPDEST DUP1 PUSH4 0x83C6323 EQ PUSH2 0xAC JUMPI DUP1 PUSH4 0x1998AEEF EQ PUSH2 0xD7 JUMPI DUP1 PUSH4 0x48CD4CB1 EQ PUSH2 0xE1 JUMPI DUP1 PUSH4 0x5EC2C7BF EQ PUSH2 0x10C JUMPI DUP1 PUSH4 0x62EA82DB EQ PUSH2 0x137 JUMPI DUP1 PUSH4 0x7EB695A1 EQ PUSH2 0x174 JUMPI JUMPDEST PUSH1 0x0 DUP1 REVERT JUMPDEST CALLVALUE DUP1 ISZERO PUSH2 0xB8 JUMPI PUSH1 0x0 DUP1 REVERT JUMPDEST POP PUSH2 0xC1 PUSH2 0x279 JUMP JUMPDEST PUSH1 0x40 MLOAD PUSH2 0xCE SWAP2 SWAP1 PUSH2 0xCAF JUMP JUMPDEST PUSH1 0x40 MLOAD DUP1 SWAP2 SUB SWAP1 RETURN JUMPDEST PUSH2 0xDF PUSH2 0x27F JUMP JUMPDEST STOP JUMPDEST CALLVALUE DUP1 ISZERO PUSH2 0xED JUMPI PUSH1 0x0 DUP1 REVERT JUMPDEST POP PUSH2 0xF6 PUSH2 0x62C JUMP JUMPDEST PUSH1 0x40 MLOAD PUSH2 0x103 SWAP2 SWAP1 PUSH2 0xCAF JUMP JUMPDEST PUSH1 0x40 MLOAD DUP1 SWAP2 SUB SWAP1 RETURN JUMPDEST CALLVALUE DUP1 ISZERO PUSH2 0x118 JUMPI PUSH1 0x0 DUP1 REVERT JUMPDEST POP PUSH2 0x121 PUSH2 0x632 JUMP JUMPDEST PUSH1 0x40 MLOAD PUSH2 0x12E SWAP2 SWAP1 PUSH2 0xBF9 JUMP JUMPDEST PUSH1 0x40 MLOAD DUP1 SWAP2 SUB SWAP1 RETURN JUMPDEST CALLVALUE DUP1 ISZERO PUSH2 0x143 JUMPI PUSH1 0x0 DUP1 REVERT JUMPDEST POP PUSH2 0x15E PUSH1 0x4 DUP1 CALLDATASIZE SUB DUP2 ADD SWAP1 PUSH2 0x159 SWAP2 SWAP1 PUSH2 0xB13 JUMP JUMPDEST PUSH2 0x656 JUMP JUMPDEST PUSH1 0x40 MLOAD PUSH2 0x16B SWAP2 SWAP1 PUSH2 0xCAF JUMP JUMPDEST PUSH1 0x40 MLOAD DUP1 SWAP2 SUB SWAP1 RETURN JUMPDEST CALLVALUE DUP1 ISZERO PUSH2 0x180 JUMPI PUSH1 0x0 DUP1 REVERT JUMPDEST POP PUSH2 0x189 PUSH2 0x66E JUMP JUMPDEST PUSH1 0x40 MLOAD PUSH2 0x196 SWAP2 SWAP1 PUSH2 0xCAF JUMP JUMPDEST PUSH1 0x40 MLOAD DUP1 SWAP2 SUB SWAP1 RETURN JUMPDEST CALLVALUE DUP1 ISZERO PUSH2 0x1AB JUMPI PUSH1 0x0 DUP1 REVERT JUMPDEST POP PUSH2 0x1B4 PUSH2 0x674 JUMP JUMPDEST PUSH1 0x40 MLOAD PUSH2 0x1C1 SWAP2 SWAP1 PUSH2 0xC14 JUMP JUMPDEST PUSH1 0x40 MLOAD DUP1 SWAP2 SUB SWAP1 RETURN JUMPDEST CALLVALUE DUP1 ISZERO PUSH2 0x1D6 JUMPI PUSH1 0x0 DUP1 REVERT JUMPDEST POP PUSH2 0x1DF PUSH2 0x687 JUMP JUMPDEST STOP JUMPDEST CALLVALUE DUP1 ISZERO PUSH2 0x1ED JUMPI PUSH1 0x0 DUP1 REVERT JUMPDEST POP PUSH2 0x1F6 PUSH2 0x741 JUMP JUMPDEST PUSH1 0x40 MLOAD PUSH2 0x203 SWAP2 SWAP1 PUSH2 0xBF9 JUMP JUMPDEST PUSH1 0x40 MLOAD DUP1 SWAP2 SUB SWAP1 RETURN JUMPDEST CALLVALUE DUP1 ISZERO PUSH2 0x218 JUMPI PUSH1 0x0 DUP1 REVERT JUMPDEST POP PUSH2 0x221 PUSH2 0x767 JUMP JUMPDEST PUSH1 0x40 MLOAD PUSH2 0x22E SWAP2 SWAP1 PUSH2 0xCAF JUMP JUMPDEST PUSH1 0x40 MLOAD DUP1 SWAP2 SUB SWAP1 RETURN JUMPDEST CALLVALUE DUP1 ISZERO PUSH2 0x243 JUMPI PUSH1 0x0 DUP1 REVERT JUMPDEST POP PUSH2 0x24C PUSH2 0x76D JUMP JUMPDEST PUSH1 0x40 MLOAD PUSH2 0x259 SWAP2 SWAP1 PUSH2 0xCAF JUMP JUMPDEST PUSH1 0x40 MLOAD DUP1 SWAP2 SUB SWAP1 RETURN JUMPDEST CALLVALUE DUP1 ISZERO PUSH2 0x26E JUMPI PUSH1 0x0 DUP1 REVERT JUMPDEST POP PUSH2 0x277 PUSH2 0x773 JUMP JUMPDEST STOP JUMPDEST PUSH1 0x2 SLOAD DUP2 JUMP JUMPDEST PUSH1 0x0 DUP1 SLOAD SWAP1 PUSH2 0x100 EXP SWAP1 DIV PUSH20 0xFFFFFFFFFFFFFFFFFFFFFFFFFFFFFFFFFFFFFFFF AND PUSH20 0xFFFFFFFFFFFFFFFFFFFFFFFFFFFFFFFFFFFFFFFF AND CALLER PUSH20 0xFFFFFFFFFFFFFFFFFFFFFFFFFFFFFFFFFFFFFFFF AND EQ ISZERO PUSH2 0x30E JUMPI PUSH1 0x40 MLOAD PUSH32 0x8C379A000000000000000000000000000000000000000000000000000000000 DUP2 MSTORE PUSH1 0x4 ADD PUSH2 0x305 SWAP1 PUSH2 0xC2F JUMP JUMPDEST PUSH1 0x40 MLOAD DUP1 SWAP2 SUB SWAP1 REVERT JUMPDEST PUSH1 0x1 SLOAD NUMBER GT PUSH2 0x352 JUMPI PUSH1 0x40 MLOAD PUSH32 0x8C379A000000000000000000000000000000000000000000000000000000000 DUP2 MSTORE PUSH1 0x4 ADD PUSH2 0x349 SWAP1 PUSH2 0xC4F JUMP JUMPDEST PUSH1 0x40 MLOAD DUP1 SWAP2 SUB SWAP1 REVERT JUMPDEST PUSH1 0x2 SLOAD NUMBER LT PUSH2 0x396 JUMPI PUSH1 0x40 MLOAD PUSH32 0x8C379A000000000000000000000000000000000000000000000000000000000 DUP2 MSTORE PUSH1 0x4 ADD PUSH2 0x38D SWAP1 PUSH2 0xC6F JUMP JUMPDEST PUSH1 0x40 MLOAD DUP1 SWAP2 SUB SWAP1 REVERT JUMPDEST PUSH1 0x1 PUSH1 0x3 DUP2 GT ISZERO PUSH2 0x3AA JUMPI PUSH2 0x3A9 PUSH2 0xE07 JUMP JUMPDEST JUMPDEST PUSH1 0x3 PUSH1 0x0 SWAP1 SLOAD SWAP1 PUSH2 0x100 EXP SWAP1 DIV PUSH1 0xFF AND PUSH1 0x3 DUP2 GT ISZERO PUSH2 0x3CC JUMPI PUSH2 0x3CB PUSH2 0xE07 JUMP JUMPDEST JUMPDEST EQ PUSH2 0x3D6 JUMPI PUSH1 0x0 DUP1 REVERT JUMPDEST PUSH8 0x1BC16D674EC80000 CALLVALUE GT PUSH2 0x3EA JUMPI PUSH1 0x0 DUP1 REVERT JUMPDEST PUSH1 0x0 CALLVALUE PUSH1 0x8 PUSH1 0x0 CALLER PUSH20 0xFFFFFFFFFFFFFFFFFFFFFFFFFFFFFFFFFFFFFFFF AND PUSH20 0xFFFFFFFFFFFFFFFFFFFFFFFFFFFFFFFFFFFFFFFF AND DUP2 MSTORE PUSH1 0x20 ADD SWAP1 DUP2 MSTORE PUSH1 0x20 ADD PUSH1 0x0 KECCAK256 SLOAD PUSH2 0x437 SWAP2 SWAP1 PUSH2 0xCDB JUMP JUMPDEST SWAP1 POP PUSH1 0x5 SLOAD DUP2 GT PUSH2 0x47D JUMPI PUSH1 0x40 MLOAD PUSH32 0x8C379A000000000000000000000000000000000000000000000000000000000 DUP2 MSTORE PUSH1 0x4 ADD PUSH2 0x474 SWAP1 PUSH2 0xC8F JUMP JUMPDEST PUSH1 0x40 MLOAD DUP1 SWAP2 SUB SWAP1 REVERT JUMPDEST PUSH1 0x8 PUSH1 0x0 PUSH1 0x7 PUSH1 0x0 SWAP1 SLOAD SWAP1 PUSH2 0x100 EXP SWAP1 DIV PUSH20 0xFFFFFFFFFFFFFFFFFFFFFFFFFFFFFFFFFFFFFFFF AND PUSH20 0xFFFFFFFFFFFFFFFFFFFFFFFFFFFFFFFFFFFFFFFF AND PUSH20 0xFFFFFFFFFFFFFFFFFFFFFFFFFFFFFFFFFFFFFFFF AND DUP2 MSTORE PUSH1 0x20 ADD SWAP1 DUP2 MSTORE PUSH1 0x20 ADD PUSH1 0x0 KECCAK256 SLOAD DUP2 LT ISZERO PUSH2 0x569 JUMPI PUSH2 0x55E PUSH1 0x6 SLOAD DUP3 PUSH2 0x4F7 SWAP2 SWAP1 PUSH2 0xCDB JUMP JUMPDEST PUSH1 0x8 PUSH1 0x0 PUSH1 0x7 PUSH1 0x0 SWAP1 SLOAD SWAP1 PUSH2 0x100 EXP SWAP1 DIV PUSH20 0xFFFFFFFFFFFFFFFFFFFFFFFFFFFFFFFFFFFFFFFF AND PUSH20 0xFFFFFFFFFFFFFFFFFFFFFFFFFFFFFFFFFFFFFFFF AND PUSH20 0xFFFFFFFFFFFFFFFFFFFFFFFFFFFFFFFFFFFFFFFF AND DUP2 MSTORE PUSH1 0x20 ADD SWAP1 DUP2 MSTORE PUSH1 0x20 ADD PUSH1 0x0 KECCAK256 SLOAD PUSH2 0xAE3 JUMP JUMPDEST PUSH1 0x5 DUP2 SWAP1 SSTORE POP PUSH2 0x629 JUMP JUMPDEST PUSH2 0x5E1 DUP2 PUSH1 0x6 SLOAD PUSH1 0x8 PUSH1 0x0 PUSH1 0x7 PUSH1 0x0 SWAP1 SLOAD SWAP1 PUSH2 0x100 EXP SWAP1 DIV PUSH20 0xFFFFFFFFFFFFFFFFFFFFFFFFFFFFFFFFFFFFFFFF AND PUSH20 0xFFFFFFFFFFFFFFFFFFFFFFFFFFFFFFFFFFFFFFFF AND PUSH20 0xFFFFFFFFFFFFFFFFFFFFFFFFFFFFFFFFFFFFFFFF AND DUP2 MSTORE PUSH1 0x20 ADD SWAP1 DUP2 MSTORE PUSH1 0x20 ADD PUSH1 0x0 KECCAK256 SLOAD PUSH2 0x5DC SWAP2 SWAP1 PUSH2 0xCDB JUMP JUMPDEST PUSH2 0xAE3 JUMP JUMPDEST PUSH1 0x5 DUP2 SWAP1 SSTORE POP CALLER PUSH1 0x7 PUSH1 0x0 PUSH2 0x100 EXP DUP2 SLOAD DUP2 PUSH20 0xFFFFFFFFFFFFFFFFFFFFFFFFFFFFFFFFFFFFFFFF MUL NOT AND SWAP1 DUP4 PUSH20 0xFFFFFFFFFFFFFFFFFFFFFFFFFFFFFFFFFFFFFFFF AND MUL OR SWAP1 SSTORE POP JUMPDEST POP JUMP JUMPDEST PUSH1 0x1 SLOAD DUP2 JUMP JUMPDEST PUSH1 0x0 DUP1 SLOAD SWAP1 PUSH2 0x100 EXP SWAP1 DIV PUSH20 0xFFFFFFFFFFFFFFFFFFFFFFFFFFFFFFFFFFFFFFFF AND DUP2 JUMP JUMPDEST PUSH1 0x8 PUSH1 0x20 MSTORE DUP1 PUSH1 0x0 MSTORE PUSH1 0x40 PUSH1 0x0 KECCAK256 PUSH1 0x0 SWAP2 POP SWAP1 POP SLOAD DUP2 JUMP JUMPDEST PUSH1 0x5 SLOAD DUP2 JUMP JUMPDEST PUSH1 0x3 PUSH1 0x0 SWAP1 SLOAD SWAP1 PUSH2 0x100 EXP SWAP1 DIV PUSH1 0xFF AND DUP2 JUMP JUMPDEST PUSH1 0x0 DUP1 SLOAD SWAP1 PUSH2 0x100 EXP SWAP1 DIV PUSH20 0xFFFFFFFFFFFFFFFFFFFFFFFFFFFFFFFFFFFFFFFF AND PUSH20 0xFFFFFFFFFFFFFFFFFFFFFFFFFFFFFFFFFFFFFFFF AND CALLER PUSH20 0xFFFFFFFFFFFFFFFFFFFFFFFFFFFFFFFFFFFFFFFF AND EQ PUSH2 0x715 JUMPI PUSH1 0x40 MLOAD PUSH32 0x8C379A000000000000000000000000000000000000000000000000000000000 DUP2 MSTORE PUSH1 0x4 ADD PUSH2 0x70C SWAP1 PUSH2 0xC2F JUMP JUMPDEST PUSH1 0x40 MLOAD DUP1 SWAP2 SUB SWAP1 REVERT JUMPDEST PUSH1 0x3 DUP1 PUSH1 0x0 PUSH2 0x100 EXP DUP2 SLOAD DUP2 PUSH1 0xFF MUL NOT AND SWAP1 DUP4 PUSH1 0x3 DUP2 GT ISZERO PUSH2 0x73A JUMPI PUSH2 0x739 PUSH2 0xE07 JUMP JUMPDEST JUMPDEST MUL OR SWAP1 SSTORE POP JUMP JUMPDEST PUSH1 0x7 PUSH1 0x0 SWAP1 SLOAD SWAP1 PUSH2 0x100 EXP SWAP1 DIV PUSH20 0xFFFFFFFFFFFFFFFFFFFFFFFFFFFFFFFFFFFFFFFF AND DUP2 JUMP JUMPDEST PUSH1 0x4 SLOAD DUP2 JUMP JUMPDEST PUSH1 0x6 SLOAD DUP2 JUMP JUMPDEST PUSH1 0x3 DUP1 DUP2 GT ISZERO PUSH2 0x786 JUMPI PUSH2 0x785 PUSH2 0xE07 JUMP JUMPDEST JUMPDEST PUSH1 0x3 PUSH1 0x0 SWAP1 SLOAD SWAP1 PUSH2 0x100 EXP SWAP1 DIV PUSH1 0xFF AND PUSH1 0x3 DUP2 GT ISZERO PUSH2 0x7A8 JUMPI PUSH2 0x7A7 PUSH2 0xE07 JUMP JUMPDEST JUMPDEST EQ DUP1 PUSH2 0x7E6 JUMPI POP PUSH1 0x3 DUP1 DUP2 GT ISZERO PUSH2 0x7C2 JUMPI PUSH2 0x7C1 PUSH2 0xE07 JUMP JUMPDEST JUMPDEST PUSH1 0x3 PUSH1 0x0 SWAP1 SLOAD SWAP1 PUSH2 0x100 EXP SWAP1 DIV PUSH1 0xFF AND PUSH1 0x3 DUP2 GT ISZERO PUSH2 0x7E4 JUMPI PUSH2 0x7E3 PUSH2 0xE07 JUMP JUMPDEST JUMPDEST EQ JUMPDEST DUP1 PUSH2 0x7F2 JUMPI POP PUSH1 0x2 SLOAD NUMBER GT JUMPDEST PUSH2 0x7FB JUMPI PUSH1 0x0 DUP1 REVERT JUMPDEST PUSH1 0x0 DUP1 SLOAD SWAP1 PUSH2 0x100 EXP SWAP1 DIV PUSH20 0xFFFFFFFFFFFFFFFFFFFFFFFFFFFFFFFFFFFFFFFF AND PUSH20 0xFFFFFFFFFFFFFFFFFFFFFFFFFFFFFFFFFFFFFFFF AND CALLER PUSH20 0xFFFFFFFFFFFFFFFFFFFFFFFFFFFFFFFFFFFFFFFF AND EQ DUP1 PUSH2 0x894 JUMPI POP PUSH1 0x0 PUSH1 0x8 PUSH1 0x0 CALLER PUSH20 0xFFFFFFFFFFFFFFFFFFFFFFFFFFFFFFFFFFFFFFFF AND PUSH20 0xFFFFFFFFFFFFFFFFFFFFFFFFFFFFFFFFFFFFFFFF AND DUP2 MSTORE PUSH1 0x20 ADD SWAP1 DUP2 MSTORE PUSH1 0x20 ADD PUSH1 0x0 KECCAK256 SLOAD GT JUMPDEST PUSH2 0x89D JUMPI PUSH1 0x0 DUP1 REVERT JUMPDEST PUSH1 0x0 DUP1 PUSH1 0x3 DUP1 DUP2 GT ISZERO PUSH2 0x8B3 JUMPI PUSH2 0x8B2 PUSH2 0xE07 JUMP JUMPDEST JUMPDEST PUSH1 0x3 PUSH1 0x0 SWAP1 SLOAD SWAP1 PUSH2 0x100 EXP SWAP1 DIV PUSH1 0xFF AND PUSH1 0x3 DUP2 GT ISZERO PUSH2 0x8D5 JUMPI PUSH2 0x8D4 PUSH2 0xE07 JUMP JUMPDEST JUMPDEST EQ ISZERO PUSH2 0x925 JUMPI CALLER SWAP2 POP PUSH1 0x8 PUSH1 0x0 CALLER PUSH20 0xFFFFFFFFFFFFFFFFFFFFFFFFFFFFFFFFFFFFFFFF AND PUSH20 0xFFFFFFFFFFFFFFFFFFFFFFFFFFFFFFFFFFFFFFFF AND DUP2 MSTORE PUSH1 0x20 ADD SWAP1 DUP2 MSTORE PUSH1 0x20 ADD PUSH1 0x0 KECCAK256 SLOAD SWAP1 POP PUSH2 0xADF JUMP JUMPDEST PUSH1 0x0 DUP1 SLOAD SWAP1 PUSH2 0x100 EXP SWAP1 DIV PUSH20 0xFFFFFFFFFFFFFFFFFFFFFFFFFFFFFFFFFFFFFFFF AND PUSH20 0xFFFFFFFFFFFFFFFFFFFFFFFFFFFFFFFFFFFFFFFF AND CALLER PUSH20 0xFFFFFFFFFFFFFFFFFFFFFFFFFFFFFFFFFFFFFFFF AND EQ ISZERO PUSH2 0x9A6 JUMPI PUSH1 0x0 DUP1 SLOAD SWAP1 PUSH2 0x100 EXP SWAP1 DIV PUSH20 0xFFFFFFFFFFFFFFFFFFFFFFFFFFFFFFFFFFFFFFFF AND SWAP2 POP PUSH1 0x5 SLOAD SWAP1 POP PUSH2 0xADE JUMP JUMPDEST PUSH1 0x7 PUSH1 0x0 SWAP1 SLOAD SWAP1 PUSH2 0x100 EXP SWAP1 DIV PUSH20 0xFFFFFFFFFFFFFFFFFFFFFFFFFFFFFFFFFFFFFFFF AND PUSH20 0xFFFFFFFFFFFFFFFFFFFFFFFFFFFFFFFFFFFFFFFF AND CALLER PUSH20 0xFFFFFFFFFFFFFFFFFFFFFFFFFFFFFFFFFFFFFFFF AND EQ ISZERO PUSH2 0xA97 JUMPI PUSH1 0x7 PUSH1 0x0 SWAP1 SLOAD SWAP1 PUSH2 0x100 EXP SWAP1 DIV PUSH20 0xFFFFFFFFFFFFFFFFFFFFFFFFFFFFFFFFFFFFFFFF AND SWAP2 POP PUSH1 0x5 SLOAD PUSH1 0x8 PUSH1 0x0 PUSH1 0x7 PUSH1 0x0 SWAP1 SLOAD SWAP1 PUSH2 0x100 EXP SWAP1 DIV PUSH20 0xFFFFFFFFFFFFFFFFFFFFFFFFFFFFFFFFFFFFFFFF AND PUSH20 0xFFFFFFFFFFFFFFFFFFFFFFFFFFFFFFFFFFFFFFFF AND PUSH20 0xFFFFFFFFFFFFFFFFFFFFFFFFFFFFFFFFFFFFFFFF AND DUP2 MSTORE PUSH1 0x20 ADD SWAP1 DUP2 MSTORE PUSH1 0x20 ADD PUSH1 0x0 KECCAK256 SLOAD PUSH2 0xA90 SWAP2 SWAP1 PUSH2 0xD31 JUMP JUMPDEST SWAP1 POP PUSH2 0xADD JUMP JUMPDEST CALLER SWAP2 POP PUSH1 0x8 PUSH1 0x0 CALLER PUSH20 0xFFFFFFFFFFFFFFFFFFFFFFFFFFFFFFFFFFFFFFFF AND PUSH20 0xFFFFFFFFFFFFFFFFFFFFFFFFFFFFFFFFFFFFFFFF AND DUP2 MSTORE PUSH1 0x20 ADD SWAP1 DUP2 MSTORE PUSH1 0x20 ADD PUSH1 0x0 KECCAK256 SLOAD SWAP1 POP JUMPDEST JUMPDEST JUMPDEST POP POP JUMP JUMPDEST PUSH1 0x0 DUP2 DUP4 GT PUSH2 0xAF4 JUMPI DUP3 SWAP1 POP PUSH2 0xAF8 JUMP JUMPDEST DUP2 SWAP1 POP JUMPDEST SWAP3 SWAP2 POP POP JUMP JUMPDEST PUSH1 0x0 DUP2 CALLDATALOAD SWAP1 POP PUSH2 0xB0D DUP2 PUSH2 0xF19 JUMP JUMPDEST SWAP3 SWAP2 POP POP JUMP JUMPDEST PUSH1 0x0 PUSH1 0x20 DUP3 DUP5 SUB SLT ISZERO PUSH2 0xB29 JUMPI PUSH2 0xB28 PUSH2 0xE36 JUMP JUMPDEST JUMPDEST PUSH1 0x0 PUSH2 0xB37 DUP5 DUP3 DUP6 ADD PUSH2 0xAFE JUMP JUMPDEST SWAP2 POP POP SWAP3 SWAP2 POP POP JUMP JUMPDEST PUSH2 0xB49 DUP2 PUSH2 0xD77 JUMP JUMPDEST DUP3 MSTORE POP POP JUMP JUMPDEST PUSH2 0xB58 DUP2 PUSH2 0xDC6 JUMP JUMPDEST DUP3 MSTORE POP POP JUMP JUMPDEST PUSH1 0x0 PUSH2 0xB6B PUSH1 0x10 DUP4 PUSH2 0xCCA JUMP JUMPDEST SWAP2 POP PUSH2 0xB76 DUP3 PUSH2 0xE3B JUMP JUMPDEST PUSH1 0x20 DUP3 ADD SWAP1 POP SWAP2 SWAP1 POP JUMP JUMPDEST PUSH1 0x0 PUSH2 0xB8E PUSH1 0x2C DUP4 PUSH2 0xCCA JUMP JUMPDEST SWAP2 POP PUSH2 0xB99 DUP3 PUSH2 0xE64 JUMP JUMPDEST PUSH1 0x40 DUP3 ADD SWAP1 POP SWAP2 SWAP1 POP JUMP JUMPDEST PUSH1 0x0 PUSH2 0xBB1 PUSH1 0x18 DUP4 PUSH2 0xCCA JUMP JUMPDEST SWAP2 POP PUSH2 0xBBC DUP3 PUSH2 0xEB3 JUMP JUMPDEST PUSH1 0x20 DUP3 ADD SWAP1 POP SWAP2 SWAP1 POP JUMP JUMPDEST PUSH1 0x0 PUSH2 0xBD4 PUSH1 0x1B DUP4 PUSH2 0xCCA JUMP JUMPDEST SWAP2 POP PUSH2 0xBDF DUP3 PUSH2 0xEDC JUMP JUMPDEST PUSH1 0x20 DUP3 ADD SWAP1 POP SWAP2 SWAP1 POP JUMP JUMPDEST PUSH2 0xBF3 DUP2 PUSH2 0xDBC JUMP JUMPDEST DUP3 MSTORE POP POP JUMP JUMPDEST PUSH1 0x0 PUSH1 0x20 DUP3 ADD SWAP1 POP PUSH2 0xC0E PUSH1 0x0 DUP4 ADD DUP5 PUSH2 0xB40 JUMP JUMPDEST SWAP3 SWAP2 POP POP JUMP JUMPDEST PUSH1 0x0 PUSH1 0x20 DUP3 ADD SWAP1 POP PUSH2 0xC29 PUSH1 0x0 DUP4 ADD DUP5 PUSH2 0xB4F JUMP JUMPDEST SWAP3 SWAP2 POP POP JUMP JUMPDEST PUSH1 0x0 PUSH1 0x20 DUP3 ADD SWAP1 POP DUP2 DUP2 SUB PUSH1 0x0 DUP4 ADD MSTORE PUSH2 0xC48 DUP2 PUSH2 0xB5E JUMP JUMPDEST SWAP1 POP SWAP2 SWAP1 POP JUMP JUMPDEST PUSH1 0x0 PUSH1 0x20 DUP3 ADD SWAP1 POP DUP2 DUP2 SUB PUSH1 0x0 DUP4 ADD MSTORE PUSH2 0xC68 DUP2 PUSH2 0xB81 JUMP JUMPDEST SWAP1 POP SWAP2 SWAP1 POP JUMP JUMPDEST PUSH1 0x0 PUSH1 0x20 DUP3 ADD SWAP1 POP DUP2 DUP2 SUB PUSH1 0x0 DUP4 ADD MSTORE PUSH2 0xC88 DUP2 PUSH2 0xBA4 JUMP JUMPDEST SWAP1 POP SWAP2 SWAP1 POP JUMP JUMPDEST PUSH1 0x0 PUSH1 0x20 DUP3 ADD SWAP1 POP DUP2 DUP2 SUB PUSH1 0x0 DUP4 ADD MSTORE PUSH2 0xCA8 DUP2 PUSH2 0xBC7 JUMP JUMPDEST SWAP1 POP SWAP2 SWAP1 POP JUMP JUMPDEST PUSH1 0x0 PUSH1 0x20 DUP3 ADD SWAP1 POP PUSH2 0xCC4 PUSH1 0x0 DUP4 ADD DUP5 PUSH2 0xBEA JUMP JUMPDEST SWAP3 SWAP2 POP POP JUMP JUMPDEST PUSH1 0x0 DUP3 DUP3 MSTORE PUSH1 0x20 DUP3 ADD SWAP1 POP SWAP3 SWAP2 POP POP JUMP JUMPDEST PUSH1 0x0 PUSH2 0xCE6 DUP3 PUSH2 0xDBC JUMP JUMPDEST SWAP2 POP PUSH2 0xCF1 DUP4 PUSH2 0xDBC JUMP JUMPDEST SWAP3 POP DUP3 PUSH32 0xFFFFFFFFFFFFFFFFFFFFFFFFFFFFFFFFFFFFFFFFFFFFFFFFFFFFFFFFFFFFFFFF SUB DUP3 GT ISZERO PUSH2 0xD26 JUMPI PUSH2 0xD25 PUSH2 0xDD8 JUMP JUMPDEST JUMPDEST DUP3 DUP3 ADD SWAP1 POP SWAP3 SWAP2 POP POP JUMP JUMPDEST PUSH1 0x0 PUSH2 0xD3C DUP3 PUSH2 0xDBC JUMP JUMPDEST SWAP2 POP PUSH2 0xD47 DUP4 PUSH2 0xDBC JUMP JUMPDEST SWAP3 POP DUP3 DUP3 LT ISZERO PUSH2 0xD5A JUMPI PUSH2 0xD59 PUSH2 0xDD8 JUMP JUMPDEST JUMPDEST DUP3 DUP3 SUB SWAP1 POP SWAP3 SWAP2 POP POP JUMP JUMPDEST PUSH1 0x0 PUSH2 0xD70 DUP3 PUSH2 0xD9C JUMP JUMPDEST SWAP1 POP SWAP2 SWAP1 POP JUMP JUMPDEST PUSH1 0x0 PUSH2 0xD82 DUP3 PUSH2 0xD9C JUMP JUMPDEST SWAP1 POP SWAP2 SWAP1 POP JUMP JUMPDEST PUSH1 0x0 DUP2 SWAP1 POP PUSH2 0xD97 DUP3 PUSH2 0xF05 JUMP JUMPDEST SWAP2 SWAP1 POP JUMP JUMPDEST PUSH1 0x0 PUSH20 0xFFFFFFFFFFFFFFFFFFFFFFFFFFFFFFFFFFFFFFFF DUP3 AND SWAP1 POP SWAP2 SWAP1 POP JUMP JUMPDEST PUSH1 0x0 DUP2 SWAP1 POP SWAP2 SWAP1 POP JUMP JUMPDEST PUSH1 0x0 PUSH2 0xDD1 DUP3 PUSH2 0xD89 JUMP JUMPDEST SWAP1 POP SWAP2 SWAP1 POP JUMP JUMPDEST PUSH32 0x4E487B7100000000000000000000000000000000000000000000000000000000 PUSH1 0x0 MSTORE PUSH1 0x11 PUSH1 0x4 MSTORE PUSH1 0x24 PUSH1 0x0 REVERT JUMPDEST PUSH32 0x4E487B7100000000000000000000000000000000000000000000000000000000 PUSH1 0x0 MSTORE PUSH1 0x21 PUSH1 0x4 MSTORE PUSH1 0x24 PUSH1 0x0 REVERT JUMPDEST PUSH1 0x0 DUP1 REVERT JUMPDEST PUSH32 0x4F776E65722043616E6E6F742062696400000000000000000000000000000000 PUSH1 0x0 DUP3 ADD MSTORE POP JUMP JUMPDEST PUSH32 0x537461727420426C6F636B206D7573742062652067726561746572207468616E PUSH1 0x0 DUP3 ADD MSTORE PUSH32 0x20746F74616C20626C6F636B0000000000000000000000000000000000000000 PUSH1 0x20 DUP3 ADD MSTORE POP JUMP JUMPDEST PUSH32 0x41756374696F6E206973206E6F7420456E646564207965740000000000000000 PUSH1 0x0 DUP3 ADD MSTORE POP JUMP JUMPDEST PUSH32 0x496E63726561736520596F7520204269642056616C75207468616E0000000000 PUSH1 0x0 DUP3 ADD MSTORE POP JUMP JUMPDEST PUSH1 0x4 DUP2 LT PUSH2 0xF16 JUMPI PUSH2 0xF15 PUSH2 0xE07 JUMP JUMPDEST JUMPDEST POP JUMP JUMPDEST PUSH2 0xF22 DUP2 PUSH2 0xD65 JUMP JUMPDEST DUP2 EQ PUSH2 0xF2D JUMPI PUSH1 0x0 DUP1 REVERT JUMPDEST POP JUMP INVALID LOG2 PUSH5 0x6970667358 0x22 SLT KECCAK256 SWAP9 SWAP10 NOT 0xD0 0x2E ISZERO DUP8 SIGNEXTEND SGT SMOD STATICCALL GT JUMPDEST MLOAD PUSH27 0xB0E1A6EAE1C111A18CF36F7FC35B4D99CD64736F6C634300080700 CALLER "
				},
				"gasEstimates": {
					"creation": {
						"codeDepositCost": "788400",
						"executionCost": "infinite",
						"totalCost": "infinite"
					},
					"external": {
						"auctionState()": "2560",
						"auctioneer()": "2578",
						"bid()": "infinite",
						"bid_inc()": "2517",
						"bids(address)": "2903",
						"cancelAuction()": "26620",
						"endBlock()": "2430",
						"finalizeAuction()": "infinite",
						"highest_bid()": "2495",
						"highest_bidder()": "2558",
						"highest_payable_bid()": "2540",
						"startBlock()": "2474"
					},
					"internal": {
						"min(uint256,uint256)": "64"
					}
				},
				"methodIdentifiers": {
					"auctionState()": "7fb45099",
					"auctioneer()": "5ec2c7bf",
					"bid()": "1998aeef",
					"bid_inc()": "f3ef35f8",
					"bids(address)": "62ea82db",
					"cancelAuction()": "8fa8b790",
					"endBlock()": "083c6323",
					"finalizeAuction()": "f77282ab",
					"highest_bid()": "e5c60091",
					"highest_bidder()": "bd9215f4",
					"highest_payable_bid()": "7eb695a1",
					"startBlock()": "48cd4cb1"
				}
			},
			"storageLayout": {
				"storage": [
					{
						"astId": 3,
						"contract": "smartAuction.sol:smartAuction",
						"label": "auctioneer",
						"offset": 0,
						"slot": "0",
						"type": "t_address_payable"
					},
					{
						"astId": 5,
						"contract": "smartAuction.sol:smartAuction",
						"label": "startBlock",
						"offset": 0,
						"slot": "1",
						"type": "t_uint256"
					},
					{
						"astId": 7,
						"contract": "smartAuction.sol:smartAuction",
						"label": "endBlock",
						"offset": 0,
						"slot": "2",
						"type": "t_uint256"
					},
					{
						"astId": 15,
						"contract": "smartAuction.sol:smartAuction",
						"label": "auctionState",
						"offset": 0,
						"slot": "3",
						"type": "t_enum(Auction_state)12"
					},
					{
						"astId": 17,
						"contract": "smartAuction.sol:smartAuction",
						"label": "highest_bid",
						"offset": 0,
						"slot": "4",
						"type": "t_uint256"
					},
					{
						"astId": 19,
						"contract": "smartAuction.sol:smartAuction",
						"label": "highest_payable_bid",
						"offset": 0,
						"slot": "5",
						"type": "t_uint256"
					},
					{
						"astId": 21,
						"contract": "smartAuction.sol:smartAuction",
						"label": "bid_inc",
						"offset": 0,
						"slot": "6",
						"type": "t_uint256"
					},
					{
						"astId": 23,
						"contract": "smartAuction.sol:smartAuction",
						"label": "highest_bidder",
						"offset": 0,
						"slot": "7",
						"type": "t_address_payable"
					},
					{
						"astId": 27,
						"contract": "smartAuction.sol:smartAuction",
						"label": "bids",
						"offset": 0,
						"slot": "8",
						"type": "t_mapping(t_address,t_uint256)"
					}
				],
				"types": {
					"t_address": {
						"encoding": "inplace",
						"label": "address",
						"numberOfBytes": "20"
					},
					"t_address_payable": {
						"encoding": "inplace",
						"label": "address payable",
						"numberOfBytes": "20"
					},
					"t_enum(Auction_state)12": {
						"encoding": "inplace",
						"label": "enum smartAuction.Auction_state",
						"numberOfBytes": "1"
					},
					"t_mapping(t_address,t_uint256)": {
						"encoding": "mapping",
						"key": "t_address",
						"label": "mapping(address => uint256)",
						"numberOfBytes": "32",
						"value": "t_uint256"
					},
					"t_uint256": {
						"encoding": "inplace",
						"label": "uint256",
						"numberOfBytes": "32"
					}
				}
			},
			"userdoc": {
				"kind": "user",
				"methods": {},
				"version": 1
			}
		}
	}
}