{
	"eventImplementation.sol": {
		"chatApp": {
			"abi": [
				{
					"anonymous": false,
					"inputs": [
						{
							"indexed": false,
							"internalType": "address",
							"name": "_from",
							"type": "address"
						},
						{
							"indexed": false,
							"internalType": "address",
							"name": "_to",
							"type": "address"
						},
						{
							"indexed": false,
							"internalType": "string",
							"name": "message",
							"type": "string"
						},
						{
							"indexed": false,
							"internalType": "uint256",
							"name": "_just",
							"type": "uint256"
						}
					],
					"name": "chat",
					"type": "event"
				},
				{
					"inputs": [
						{
							"internalType": "address",
							"name": "_to",
							"type": "address"
						},
						{
							"internalType": "string",
							"name": "_message",
							"type": "string"
						}
					],
					"name": "sendMessage",
					"outputs": [],
					"stateMutability": "nonpayable",
					"type": "function"
				}
			],
			"devdoc": {
				"kind": "dev",
				"methods": {},
				"version": 1
			},
			"evm": {
				"assembly": "    /* \"eventImplementation.sol\":248:468  contract chatApp{... */\n  mstore(0x40, 0x80)\n  callvalue\n  dup1\n  iszero\n  tag_1\n  jumpi\n  0x00\n  dup1\n  revert\ntag_1:\n  pop\n  dataSize(sub_0)\n  dup1\n  dataOffset(sub_0)\n  0x00\n  codecopy\n  0x00\n  return\nstop\n\nsub_0: assembly {\n        /* \"eventImplementation.sol\":248:468  contract chatApp{... */\n      mstore(0x40, 0x80)\n      callvalue\n      dup1\n      iszero\n      tag_1\n      jumpi\n      0x00\n      dup1\n      revert\n    tag_1:\n      pop\n      jumpi(tag_2, lt(calldatasize, 0x04))\n      shr(0xe0, calldataload(0x00))\n      dup1\n      0xde6f24bb\n      eq\n      tag_3\n      jumpi\n    tag_2:\n      0x00\n      dup1\n      revert\n        /* \"eventImplementation.sol\":344:466  function sendMessage(address _to ,string memory _message) public{... */\n    tag_3:\n      tag_4\n      0x04\n      dup1\n      calldatasize\n      sub\n      dup2\n      add\n      swap1\n      tag_5\n      swap2\n      swap1\n      tag_6\n      jump\t// in\n    tag_5:\n      tag_7\n      jump\t// in\n    tag_4:\n      stop\n    tag_7:\n        /* \"eventImplementation.sol\":423:458  chat(msg.sender, _to, _message, 33) */\n      0xb785e7a98aba39f6fedc531bd71cb8efcede02900d65532400685ff10476fa40\n        /* \"eventImplementation.sol\":428:438  msg.sender */\n      caller\n        /* \"eventImplementation.sol\":440:443  _to */\n      dup4\n        /* \"eventImplementation.sol\":445:453  _message */\n      dup4\n        /* \"eventImplementation.sol\":455:457  33 */\n      0x21\n        /* \"eventImplementation.sol\":423:458  chat(msg.sender, _to, _message, 33) */\n      mload(0x40)\n      tag_9\n      swap5\n      swap4\n      swap3\n      swap2\n      swap1\n      tag_10\n      jump\t// in\n    tag_9:\n      mload(0x40)\n      dup1\n      swap2\n      sub\n      swap1\n      log1\n        /* \"eventImplementation.sol\":344:466  function sendMessage(address _to ,string memory _message) public{... */\n      pop\n      pop\n      jump\t// out\n        /* \"#utility.yul\":7:419   */\n    tag_12:\n        /* \"#utility.yul\":85:90   */\n      0x00\n        /* \"#utility.yul\":110:176   */\n      tag_14\n        /* \"#utility.yul\":126:175   */\n      tag_15\n        /* \"#utility.yul\":168:174   */\n      dup5\n        /* \"#utility.yul\":126:175   */\n      tag_16\n      jump\t// in\n    tag_15:\n        /* \"#utility.yul\":110:176   */\n      tag_17\n      jump\t// in\n    tag_14:\n        /* \"#utility.yul\":101:176   */\n      swap1\n      pop\n        /* \"#utility.yul\":199:205   */\n      dup3\n        /* \"#utility.yul\":192:197   */\n      dup2\n        /* \"#utility.yul\":185:206   */\n      mstore\n        /* \"#utility.yul\":237:241   */\n      0x20\n        /* \"#utility.yul\":230:235   */\n      dup2\n        /* \"#utility.yul\":226:242   */\n      add\n        /* \"#utility.yul\":275:278   */\n      dup5\n        /* \"#utility.yul\":266:272   */\n      dup5\n        /* \"#utility.yul\":261:264   */\n      dup5\n        /* \"#utility.yul\":257:273   */\n      add\n        /* \"#utility.yul\":254:279   */\n      gt\n        /* \"#utility.yul\":251:363   */\n      iszero\n      tag_18\n      jumpi\n        /* \"#utility.yul\":282:361   */\n      tag_19\n      tag_20\n      jump\t// in\n    tag_19:\n        /* \"#utility.yul\":251:363   */\n    tag_18:\n        /* \"#utility.yul\":372:413   */\n      tag_21\n        /* \"#utility.yul\":406:412   */\n      dup5\n        /* \"#utility.yul\":401:404   */\n      dup3\n        /* \"#utility.yul\":396:399   */\n      dup6\n        /* \"#utility.yul\":372:413   */\n      tag_22\n      jump\t// in\n    tag_21:\n        /* \"#utility.yul\":91:419   */\n      pop\n        /* \"#utility.yul\":7:419   */\n      swap4\n      swap3\n      pop\n      pop\n      pop\n      jump\t// out\n        /* \"#utility.yul\":425:564   */\n    tag_23:\n        /* \"#utility.yul\":471:476   */\n      0x00\n        /* \"#utility.yul\":509:515   */\n      dup2\n        /* \"#utility.yul\":496:516   */\n      calldataload\n        /* \"#utility.yul\":487:516   */\n      swap1\n      pop\n        /* \"#utility.yul\":525:558   */\n      tag_25\n        /* \"#utility.yul\":552:557   */\n      dup2\n        /* \"#utility.yul\":525:558   */\n      tag_26\n      jump\t// in\n    tag_25:\n        /* \"#utility.yul\":425:564   */\n      swap3\n      swap2\n      pop\n      pop\n      jump\t// out\n        /* \"#utility.yul\":584:924   */\n    tag_27:\n        /* \"#utility.yul\":640:645   */\n      0x00\n        /* \"#utility.yul\":689:692   */\n      dup3\n        /* \"#utility.yul\":682:686   */\n      0x1f\n        /* \"#utility.yul\":674:680   */\n      dup4\n        /* \"#utility.yul\":670:687   */\n      add\n        /* \"#utility.yul\":666:693   */\n      slt\n        /* \"#utility.yul\":656:778   */\n      tag_29\n      jumpi\n        /* \"#utility.yul\":697:776   */\n      tag_30\n      tag_31\n      jump\t// in\n    tag_30:\n        /* \"#utility.yul\":656:778   */\n    tag_29:\n        /* \"#utility.yul\":814:820   */\n      dup2\n        /* \"#utility.yul\":801:821   */\n      calldataload\n        /* \"#utility.yul\":839:918   */\n      tag_32\n        /* \"#utility.yul\":914:917   */\n      dup5\n        /* \"#utility.yul\":906:912   */\n      dup3\n        /* \"#utility.yul\":899:903   */\n      0x20\n        /* \"#utility.yul\":891:897   */\n      dup7\n        /* \"#utility.yul\":887:904   */\n      add\n        /* \"#utility.yul\":839:918   */\n      tag_12\n      jump\t// in\n    tag_32:\n        /* \"#utility.yul\":830:918   */\n      swap2\n      pop\n        /* \"#utility.yul\":646:924   */\n      pop\n        /* \"#utility.yul\":584:924   */\n      swap3\n      swap2\n      pop\n      pop\n      jump\t// out\n        /* \"#utility.yul\":930:1584   */\n    tag_6:\n        /* \"#utility.yul\":1008:1014   */\n      0x00\n        /* \"#utility.yul\":1016:1022   */\n      dup1\n        /* \"#utility.yul\":1065:1067   */\n      0x40\n        /* \"#utility.yul\":1053:1062   */\n      dup4\n        /* \"#utility.yul\":1044:1051   */\n      dup6\n        /* \"#utility.yul\":1040:1063   */\n      sub\n        /* \"#utility.yul\":1036:1068   */\n      slt\n        /* \"#utility.yul\":1033:1152   */\n      iszero\n      tag_34\n      jumpi\n        /* \"#utility.yul\":1071:1150   */\n      tag_35\n      tag_36\n      jump\t// in\n    tag_35:\n        /* \"#utility.yul\":1033:1152   */\n    tag_34:\n        /* \"#utility.yul\":1191:1192   */\n      0x00\n        /* \"#utility.yul\":1216:1269   */\n      tag_37\n        /* \"#utility.yul\":1261:1268   */\n      dup6\n        /* \"#utility.yul\":1252:1258   */\n      dup3\n        /* \"#utility.yul\":1241:1250   */\n      dup7\n        /* \"#utility.yul\":1237:1259   */\n      add\n        /* \"#utility.yul\":1216:1269   */\n      tag_23\n      jump\t// in\n    tag_37:\n        /* \"#utility.yul\":1206:1269   */\n      swap3\n      pop\n        /* \"#utility.yul\":1162:1279   */\n      pop\n        /* \"#utility.yul\":1346:1348   */\n      0x20\n        /* \"#utility.yul\":1335:1344   */\n      dup4\n        /* \"#utility.yul\":1331:1349   */\n      add\n        /* \"#utility.yul\":1318:1350   */\n      calldataload\n        /* \"#utility.yul\":1377:1395   */\n      0xffffffffffffffff\n        /* \"#utility.yul\":1369:1375   */\n      dup2\n        /* \"#utility.yul\":1366:1396   */\n      gt\n        /* \"#utility.yul\":1363:1480   */\n      iszero\n      tag_38\n      jumpi\n        /* \"#utility.yul\":1399:1478   */\n      tag_39\n      tag_40\n      jump\t// in\n    tag_39:\n        /* \"#utility.yul\":1363:1480   */\n    tag_38:\n        /* \"#utility.yul\":1504:1567   */\n      tag_41\n        /* \"#utility.yul\":1559:1566   */\n      dup6\n        /* \"#utility.yul\":1550:1556   */\n      dup3\n        /* \"#utility.yul\":1539:1548   */\n      dup7\n        /* \"#utility.yul\":1535:1557   */\n      add\n        /* \"#utility.yul\":1504:1567   */\n      tag_27\n      jump\t// in\n    tag_41:\n        /* \"#utility.yul\":1494:1567   */\n      swap2\n      pop\n        /* \"#utility.yul\":1289:1577   */\n      pop\n        /* \"#utility.yul\":930:1584   */\n      swap3\n      pop\n      swap3\n      swap1\n      pop\n      jump\t// out\n        /* \"#utility.yul\":1590:1708   */\n    tag_42:\n        /* \"#utility.yul\":1677:1701   */\n      tag_44\n        /* \"#utility.yul\":1695:1700   */\n      dup2\n        /* \"#utility.yul\":1677:1701   */\n      tag_45\n      jump\t// in\n    tag_44:\n        /* \"#utility.yul\":1672:1675   */\n      dup3\n        /* \"#utility.yul\":1665:1702   */\n      mstore\n        /* \"#utility.yul\":1590:1708   */\n      pop\n      pop\n      jump\t// out\n        /* \"#utility.yul\":1714:1863   */\n    tag_46:\n        /* \"#utility.yul\":1810:1856   */\n      tag_48\n        /* \"#utility.yul\":1850:1855   */\n      dup2\n        /* \"#utility.yul\":1810:1856   */\n      tag_49\n      jump\t// in\n    tag_48:\n        /* \"#utility.yul\":1805:1808   */\n      dup3\n        /* \"#utility.yul\":1798:1857   */\n      mstore\n        /* \"#utility.yul\":1714:1863   */\n      pop\n      pop\n      jump\t// out\n        /* \"#utility.yul\":1869:2233   */\n    tag_50:\n        /* \"#utility.yul\":1957:1960   */\n      0x00\n        /* \"#utility.yul\":1985:2024   */\n      tag_52\n        /* \"#utility.yul\":2018:2023   */\n      dup3\n        /* \"#utility.yul\":1985:2024   */\n      tag_53\n      jump\t// in\n    tag_52:\n        /* \"#utility.yul\":2040:2111   */\n      tag_54\n        /* \"#utility.yul\":2104:2110   */\n      dup2\n        /* \"#utility.yul\":2099:2102   */\n      dup6\n        /* \"#utility.yul\":2040:2111   */\n      tag_55\n      jump\t// in\n    tag_54:\n        /* \"#utility.yul\":2033:2111   */\n      swap4\n      pop\n        /* \"#utility.yul\":2120:2172   */\n      tag_56\n        /* \"#utility.yul\":2165:2171   */\n      dup2\n        /* \"#utility.yul\":2160:2163   */\n      dup6\n        /* \"#utility.yul\":2153:2157   */\n      0x20\n        /* \"#utility.yul\":2146:2151   */\n      dup7\n        /* \"#utility.yul\":2142:2158   */\n      add\n        /* \"#utility.yul\":2120:2172   */\n      tag_57\n      jump\t// in\n    tag_56:\n        /* \"#utility.yul\":2197:2226   */\n      tag_58\n        /* \"#utility.yul\":2219:2225   */\n      dup2\n        /* \"#utility.yul\":2197:2226   */\n      tag_59\n      jump\t// in\n    tag_58:\n        /* \"#utility.yul\":2192:2195   */\n      dup5\n        /* \"#utility.yul\":2188:2227   */\n      add\n        /* \"#utility.yul\":2181:2227   */\n      swap2\n      pop\n        /* \"#utility.yul\":1961:2233   */\n      pop\n        /* \"#utility.yul\":1869:2233   */\n      swap3\n      swap2\n      pop\n      pop\n      jump\t// out\n        /* \"#utility.yul\":2239:2901   */\n    tag_10:\n        /* \"#utility.yul\":2445:2449   */\n      0x00\n        /* \"#utility.yul\":2483:2486   */\n      0x80\n        /* \"#utility.yul\":2472:2481   */\n      dup3\n        /* \"#utility.yul\":2468:2487   */\n      add\n        /* \"#utility.yul\":2460:2487   */\n      swap1\n      pop\n        /* \"#utility.yul\":2497:2568   */\n      tag_61\n        /* \"#utility.yul\":2565:2566   */\n      0x00\n        /* \"#utility.yul\":2554:2563   */\n      dup4\n        /* \"#utility.yul\":2550:2567   */\n      add\n        /* \"#utility.yul\":2541:2547   */\n      dup8\n        /* \"#utility.yul\":2497:2568   */\n      tag_42\n      jump\t// in\n    tag_61:\n        /* \"#utility.yul\":2578:2650   */\n      tag_62\n        /* \"#utility.yul\":2646:2648   */\n      0x20\n        /* \"#utility.yul\":2635:2644   */\n      dup4\n        /* \"#utility.yul\":2631:2649   */\n      add\n        /* \"#utility.yul\":2622:2628   */\n      dup7\n        /* \"#utility.yul\":2578:2650   */\n      tag_42\n      jump\t// in\n    tag_62:\n        /* \"#utility.yul\":2697:2706   */\n      dup2\n        /* \"#utility.yul\":2691:2695   */\n      dup2\n        /* \"#utility.yul\":2687:2707   */\n      sub\n        /* \"#utility.yul\":2682:2684   */\n      0x40\n        /* \"#utility.yul\":2671:2680   */\n      dup4\n        /* \"#utility.yul\":2667:2685   */\n      add\n        /* \"#utility.yul\":2660:2708   */\n      mstore\n        /* \"#utility.yul\":2725:2803   */\n      tag_63\n        /* \"#utility.yul\":2798:2802   */\n      dup2\n        /* \"#utility.yul\":2789:2795   */\n      dup6\n        /* \"#utility.yul\":2725:2803   */\n      tag_50\n      jump\t// in\n    tag_63:\n        /* \"#utility.yul\":2717:2803   */\n      swap1\n      pop\n        /* \"#utility.yul\":2813:2894   */\n      tag_64\n        /* \"#utility.yul\":2890:2892   */\n      0x60\n        /* \"#utility.yul\":2879:2888   */\n      dup4\n        /* \"#utility.yul\":2875:2893   */\n      add\n        /* \"#utility.yul\":2866:2872   */\n      dup5\n        /* \"#utility.yul\":2813:2894   */\n      tag_46\n      jump\t// in\n    tag_64:\n        /* \"#utility.yul\":2239:2901   */\n      swap6\n      swap5\n      pop\n      pop\n      pop\n      pop\n      pop\n      jump\t// out\n        /* \"#utility.yul\":2907:3036   */\n    tag_17:\n        /* \"#utility.yul\":2941:2947   */\n      0x00\n        /* \"#utility.yul\":2968:2988   */\n      tag_66\n      tag_67\n      jump\t// in\n    tag_66:\n        /* \"#utility.yul\":2958:2988   */\n      swap1\n      pop\n        /* \"#utility.yul\":2997:3030   */\n      tag_68\n        /* \"#utility.yul\":3025:3029   */\n      dup3\n        /* \"#utility.yul\":3017:3023   */\n      dup3\n        /* \"#utility.yul\":2997:3030   */\n      tag_69\n      jump\t// in\n    tag_68:\n        /* \"#utility.yul\":2907:3036   */\n      swap2\n      swap1\n      pop\n      jump\t// out\n        /* \"#utility.yul\":3042:3117   */\n    tag_67:\n        /* \"#utility.yul\":3075:3081   */\n      0x00\n        /* \"#utility.yul\":3108:3110   */\n      0x40\n        /* \"#utility.yul\":3102:3111   */\n      mload\n        /* \"#utility.yul\":3092:3111   */\n      swap1\n      pop\n        /* \"#utility.yul\":3042:3117   */\n      swap1\n      jump\t// out\n        /* \"#utility.yul\":3123:3431   */\n    tag_16:\n        /* \"#utility.yul\":3185:3189   */\n      0x00\n        /* \"#utility.yul\":3275:3293   */\n      0xffffffffffffffff\n        /* \"#utility.yul\":3267:3273   */\n      dup3\n        /* \"#utility.yul\":3264:3294   */\n      gt\n        /* \"#utility.yul\":3261:3317   */\n      iszero\n      tag_72\n      jumpi\n        /* \"#utility.yul\":3297:3315   */\n      tag_73\n      tag_74\n      jump\t// in\n    tag_73:\n        /* \"#utility.yul\":3261:3317   */\n    tag_72:\n        /* \"#utility.yul\":3335:3364   */\n      tag_75\n        /* \"#utility.yul\":3357:3363   */\n      dup3\n        /* \"#utility.yul\":3335:3364   */\n      tag_59\n      jump\t// in\n    tag_75:\n        /* \"#utility.yul\":3327:3364   */\n      swap1\n      pop\n        /* \"#utility.yul\":3419:3423   */\n      0x20\n        /* \"#utility.yul\":3413:3417   */\n      dup2\n        /* \"#utility.yul\":3409:3424   */\n      add\n        /* \"#utility.yul\":3401:3424   */\n      swap1\n      pop\n        /* \"#utility.yul\":3123:3431   */\n      swap2\n      swap1\n      pop\n      jump\t// out\n        /* \"#utility.yul\":3437:3536   */\n    tag_53:\n        /* \"#utility.yul\":3489:3495   */\n      0x00\n        /* \"#utility.yul\":3523:3528   */\n      dup2\n        /* \"#utility.yul\":3517:3529   */\n      mload\n        /* \"#utility.yul\":3507:3529   */\n      swap1\n      pop\n        /* \"#utility.yul\":3437:3536   */\n      swap2\n      swap1\n      pop\n      jump\t// out\n        /* \"#utility.yul\":3542:3711   */\n    tag_55:\n        /* \"#utility.yul\":3626:3637   */\n      0x00\n        /* \"#utility.yul\":3660:3666   */\n      dup3\n        /* \"#utility.yul\":3655:3658   */\n      dup3\n        /* \"#utility.yul\":3648:3667   */\n      mstore\n        /* \"#utility.yul\":3700:3704   */\n      0x20\n        /* \"#utility.yul\":3695:3698   */\n      dup3\n        /* \"#utility.yul\":3691:3705   */\n      add\n        /* \"#utility.yul\":3676:3705   */\n      swap1\n      pop\n        /* \"#utility.yul\":3542:3711   */\n      swap3\n      swap2\n      pop\n      pop\n      jump\t// out\n        /* \"#utility.yul\":3717:3813   */\n    tag_45:\n        /* \"#utility.yul\":3754:3761   */\n      0x00\n        /* \"#utility.yul\":3783:3807   */\n      tag_79\n        /* \"#utility.yul\":3801:3806   */\n      dup3\n        /* \"#utility.yul\":3783:3807   */\n      tag_80\n      jump\t// in\n    tag_79:\n        /* \"#utility.yul\":3772:3807   */\n      swap1\n      pop\n        /* \"#utility.yul\":3717:3813   */\n      swap2\n      swap1\n      pop\n      jump\t// out\n        /* \"#utility.yul\":3819:3945   */\n    tag_80:\n        /* \"#utility.yul\":3856:3863   */\n      0x00\n        /* \"#utility.yul\":3896:3938   */\n      0xffffffffffffffffffffffffffffffffffffffff\n        /* \"#utility.yul\":3889:3894   */\n      dup3\n        /* \"#utility.yul\":3885:3939   */\n      and\n        /* \"#utility.yul\":3874:3939   */\n      swap1\n      pop\n        /* \"#utility.yul\":3819:3945   */\n      swap2\n      swap1\n      pop\n      jump\t// out\n        /* \"#utility.yul\":3951:4028   */\n    tag_82:\n        /* \"#utility.yul\":3988:3995   */\n      0x00\n        /* \"#utility.yul\":4017:4022   */\n      dup2\n        /* \"#utility.yul\":4006:4022   */\n      swap1\n      pop\n        /* \"#utility.yul\":3951:4028   */\n      swap2\n      swap1\n      pop\n      jump\t// out\n        /* \"#utility.yul\":4034:4156   */\n    tag_49:\n        /* \"#utility.yul\":4093:4102   */\n      0x00\n        /* \"#utility.yul\":4126:4150   */\n      tag_85\n        /* \"#utility.yul\":4144:4149   */\n      dup3\n        /* \"#utility.yul\":4126:4150   */\n      tag_82\n      jump\t// in\n    tag_85:\n        /* \"#utility.yul\":4113:4150   */\n      swap1\n      pop\n        /* \"#utility.yul\":4034:4156   */\n      swap2\n      swap1\n      pop\n      jump\t// out\n        /* \"#utility.yul\":4162:4316   */\n    tag_22:\n        /* \"#utility.yul\":4246:4252   */\n      dup3\n        /* \"#utility.yul\":4241:4244   */\n      dup2\n        /* \"#utility.yul\":4236:4239   */\n      dup4\n        /* \"#utility.yul\":4223:4253   */\n      calldatacopy\n        /* \"#utility.yul\":4308:4309   */\n      0x00\n        /* \"#utility.yul\":4299:4305   */\n      dup4\n        /* \"#utility.yul\":4294:4297   */\n      dup4\n        /* \"#utility.yul\":4290:4306   */\n      add\n        /* \"#utility.yul\":4283:4310   */\n      mstore\n        /* \"#utility.yul\":4162:4316   */\n      pop\n      pop\n      pop\n      jump\t// out\n        /* \"#utility.yul\":4322:4629   */\n    tag_57:\n        /* \"#utility.yul\":4390:4391   */\n      0x00\n        /* \"#utility.yul\":4400:4513   */\n    tag_88:\n        /* \"#utility.yul\":4414:4420   */\n      dup4\n        /* \"#utility.yul\":4411:4412   */\n      dup2\n        /* \"#utility.yul\":4408:4421   */\n      lt\n        /* \"#utility.yul\":4400:4513   */\n      iszero\n      tag_90\n      jumpi\n        /* \"#utility.yul\":4499:4500   */\n      dup1\n        /* \"#utility.yul\":4494:4497   */\n      dup3\n        /* \"#utility.yul\":4490:4501   */\n      add\n        /* \"#utility.yul\":4484:4502   */\n      mload\n        /* \"#utility.yul\":4480:4481   */\n      dup2\n        /* \"#utility.yul\":4475:4478   */\n      dup5\n        /* \"#utility.yul\":4471:4482   */\n      add\n        /* \"#utility.yul\":4464:4503   */\n      mstore\n        /* \"#utility.yul\":4436:4438   */\n      0x20\n        /* \"#utility.yul\":4433:4434   */\n      dup2\n        /* \"#utility.yul\":4429:4439   */\n      add\n        /* \"#utility.yul\":4424:4439   */\n      swap1\n      pop\n        /* \"#utility.yul\":4400:4513   */\n      jump(tag_88)\n    tag_90:\n        /* \"#utility.yul\":4531:4537   */\n      dup4\n        /* \"#utility.yul\":4528:4529   */\n      dup2\n        /* \"#utility.yul\":4525:4538   */\n      gt\n        /* \"#utility.yul\":4522:4623   */\n      iszero\n      tag_91\n      jumpi\n        /* \"#utility.yul\":4611:4612   */\n      0x00\n        /* \"#utility.yul\":4602:4608   */\n      dup5\n        /* \"#utility.yul\":4597:4600   */\n      dup5\n        /* \"#utility.yul\":4593:4609   */\n      add\n        /* \"#utility.yul\":4586:4613   */\n      mstore\n        /* \"#utility.yul\":4522:4623   */\n    tag_91:\n        /* \"#utility.yul\":4371:4629   */\n      pop\n        /* \"#utility.yul\":4322:4629   */\n      pop\n      pop\n      pop\n      jump\t// out\n        /* \"#utility.yul\":4635:4916   */\n    tag_69:\n        /* \"#utility.yul\":4718:4745   */\n      tag_93\n        /* \"#utility.yul\":4740:4744   */\n      dup3\n        /* \"#utility.yul\":4718:4745   */\n      tag_59\n      jump\t// in\n    tag_93:\n        /* \"#utility.yul\":4710:4716   */\n      dup2\n        /* \"#utility.yul\":4706:4746   */\n      add\n        /* \"#utility.yul\":4848:4854   */\n      dup2\n        /* \"#utility.yul\":4836:4846   */\n      dup2\n        /* \"#utility.yul\":4833:4855   */\n      lt\n        /* \"#utility.yul\":4812:4830   */\n      0xffffffffffffffff\n        /* \"#utility.yul\":4800:4810   */\n      dup3\n        /* \"#utility.yul\":4797:4831   */\n      gt\n        /* \"#utility.yul\":4794:4856   */\n      or\n        /* \"#utility.yul\":4791:4879   */\n      iszero\n      tag_94\n      jumpi\n        /* \"#utility.yul\":4859:4877   */\n      tag_95\n      tag_74\n      jump\t// in\n    tag_95:\n        /* \"#utility.yul\":4791:4879   */\n    tag_94:\n        /* \"#utility.yul\":4899:4909   */\n      dup1\n        /* \"#utility.yul\":4895:4897   */\n      0x40\n        /* \"#utility.yul\":4888:4910   */\n      mstore\n        /* \"#utility.yul\":4678:4916   */\n      pop\n        /* \"#utility.yul\":4635:4916   */\n      pop\n      pop\n      jump\t// out\n        /* \"#utility.yul\":4922:5102   */\n    tag_74:\n        /* \"#utility.yul\":4970:5047   */\n      0x4e487b7100000000000000000000000000000000000000000000000000000000\n        /* \"#utility.yul\":4967:4968   */\n      0x00\n        /* \"#utility.yul\":4960:5048   */\n      mstore\n        /* \"#utility.yul\":5067:5071   */\n      0x41\n        /* \"#utility.yul\":5064:5065   */\n      0x04\n        /* \"#utility.yul\":5057:5072   */\n      mstore\n        /* \"#utility.yul\":5091:5095   */\n      0x24\n        /* \"#utility.yul\":5088:5089   */\n      0x00\n        /* \"#utility.yul\":5081:5096   */\n      revert\n        /* \"#utility.yul\":5108:5225   */\n    tag_31:\n        /* \"#utility.yul\":5217:5218   */\n      0x00\n        /* \"#utility.yul\":5214:5215   */\n      dup1\n        /* \"#utility.yul\":5207:5219   */\n      revert\n        /* \"#utility.yul\":5231:5348   */\n    tag_20:\n        /* \"#utility.yul\":5340:5341   */\n      0x00\n        /* \"#utility.yul\":5337:5338   */\n      dup1\n        /* \"#utility.yul\":5330:5342   */\n      revert\n        /* \"#utility.yul\":5354:5471   */\n    tag_40:\n        /* \"#utility.yul\":5463:5464   */\n      0x00\n        /* \"#utility.yul\":5460:5461   */\n      dup1\n        /* \"#utility.yul\":5453:5465   */\n      revert\n        /* \"#utility.yul\":5477:5594   */\n    tag_36:\n        /* \"#utility.yul\":5586:5587   */\n      0x00\n        /* \"#utility.yul\":5583:5584   */\n      dup1\n        /* \"#utility.yul\":5576:5588   */\n      revert\n        /* \"#utility.yul\":5600:5702   */\n    tag_59:\n        /* \"#utility.yul\":5641:5647   */\n      0x00\n        /* \"#utility.yul\":5692:5694   */\n      0x1f\n        /* \"#utility.yul\":5688:5695   */\n      not\n        /* \"#utility.yul\":5683:5685   */\n      0x1f\n        /* \"#utility.yul\":5676:5681   */\n      dup4\n        /* \"#utility.yul\":5672:5686   */\n      add\n        /* \"#utility.yul\":5668:5696   */\n      and\n        /* \"#utility.yul\":5658:5696   */\n      swap1\n      pop\n        /* \"#utility.yul\":5600:5702   */\n      swap2\n      swap1\n      pop\n      jump\t// out\n        /* \"#utility.yul\":5708:5830   */\n    tag_26:\n        /* \"#utility.yul\":5781:5805   */\n      tag_103\n        /* \"#utility.yul\":5799:5804   */\n      dup2\n        /* \"#utility.yul\":5781:5805   */\n      tag_45\n      jump\t// in\n    tag_103:\n        /* \"#utility.yul\":5774:5779   */\n      dup2\n        /* \"#utility.yul\":5771:5806   */\n      eq\n        /* \"#utility.yul\":5761:5824   */\n      tag_104\n      jumpi\n        /* \"#utility.yul\":5820:5821   */\n      0x00\n        /* \"#utility.yul\":5817:5818   */\n      dup1\n        /* \"#utility.yul\":5810:5822   */\n      revert\n        /* \"#utility.yul\":5761:5824   */\n    tag_104:\n        /* \"#utility.yul\":5708:5830   */\n      pop\n      jump\t// out\n\n    auxdata: 0xa2646970667358221220a5de8175586d1f94960fe2ae5e5f2161b1c9dd21118b250d142fc7aea9d28f8764736f6c63430008070033\n}\n",
				"bytecode": {
					"linkReferences": {},
					"object": "608060405234801561001057600080fd5b506103e6806100206000396000f3fe608060405234801561001057600080fd5b506004361061002b5760003560e01c8063de6f24bb14610030575b600080fd5b61004a60048036038101906100459190610113565b61004c565b005b7fb785e7a98aba39f6fedc531bd71cb8efcede02900d65532400685ff10476fa40338383602160405161008294939291906101c6565b60405180910390a15050565b60006100a161009c84610237565b610212565b9050828152602081018484840111156100bd576100bc610379565b5b6100c88482856102d2565b509392505050565b6000813590506100df81610399565b92915050565b600082601f8301126100fa576100f9610374565b5b813561010a84826020860161008e565b91505092915050565b6000806040838503121561012a57610129610383565b5b6000610138858286016100d0565b925050602083013567ffffffffffffffff8111156101595761015861037e565b5b610165858286016100e5565b9150509250929050565b61017881610284565b82525050565b610187816102c0565b82525050565b600061019882610268565b6101a28185610273565b93506101b28185602086016102e1565b6101bb81610388565b840191505092915050565b60006080820190506101db600083018761016f565b6101e8602083018661016f565b81810360408301526101fa818561018d565b9050610209606083018461017e565b95945050505050565b600061021c61022d565b90506102288282610314565b919050565b6000604051905090565b600067ffffffffffffffff82111561025257610251610345565b5b61025b82610388565b9050602081019050919050565b600081519050919050565b600082825260208201905092915050565b600061028f82610296565b9050919050565b600073ffffffffffffffffffffffffffffffffffffffff82169050919050565b6000819050919050565b60006102cb826102b6565b9050919050565b82818337600083830152505050565b60005b838110156102ff5780820151818401526020810190506102e4565b8381111561030e576000848401525b50505050565b61031d82610388565b810181811067ffffffffffffffff8211171561033c5761033b610345565b5b80604052505050565b7f4e487b7100000000000000000000000000000000000000000000000000000000600052604160045260246000fd5b600080fd5b600080fd5b600080fd5b600080fd5b6000601f19601f8301169050919050565b6103a281610284565b81146103ad57600080fd5b5056fea2646970667358221220a5de8175586d1f94960fe2ae5e5f2161b1c9dd21118b250d142fc7aea9d28f8764736f6c63430008070033",
					"opcodes": "PUSH1 0x80 PUSH1 0x40 MSTORE CALLVALUE DUP1 ISZERO PUSH2 0x10 JUMPI PUSH1 0x0 DUP1 REVERT JUMPDEST POP PUSH2 0x3E6 DUP1 PUSH2 0x20 PUSH1 0x0 CODECOPY PUSH1 0x0 RETURN INVALID PUSH1 0x80 PUSH1 0x40 MSTORE CALLVALUE DUP1 ISZERO PUSH2 0x10 JUMPI PUSH1 0x0 DUP1 REVERT JUMPDEST POP PUSH1 0x4 CALLDATASIZE LT PUSH2 0x2B JUMPI PUSH1 0x0 CALLDATALOAD PUSH1 0xE0 SHR DUP1 PUSH4 0xDE6F24BB EQ PUSH2 0x30 JUMPI JUMPDEST PUSH1 0x0 DUP1 REVERT JUMPDEST PUSH2 0x4A PUSH1 0x4 DUP1 CALLDATASIZE SUB DUP2 ADD SWAP1 PUSH2 0x45 SWAP2 SWAP1 PUSH2 0x113 JUMP JUMPDEST PUSH2 0x4C JUMP JUMPDEST STOP JUMPDEST PUSH32 0xB785E7A98ABA39F6FEDC531BD71CB8EFCEDE02900D65532400685FF10476FA40 CALLER DUP4 DUP4 PUSH1 0x21 PUSH1 0x40 MLOAD PUSH2 0x82 SWAP5 SWAP4 SWAP3 SWAP2 SWAP1 PUSH2 0x1C6 JUMP JUMPDEST PUSH1 0x40 MLOAD DUP1 SWAP2 SUB SWAP1 LOG1 POP POP JUMP JUMPDEST PUSH1 0x0 PUSH2 0xA1 PUSH2 0x9C DUP5 PUSH2 0x237 JUMP JUMPDEST PUSH2 0x212 JUMP JUMPDEST SWAP1 POP DUP3 DUP2 MSTORE PUSH1 0x20 DUP2 ADD DUP5 DUP5 DUP5 ADD GT ISZERO PUSH2 0xBD JUMPI PUSH2 0xBC PUSH2 0x379 JUMP JUMPDEST JUMPDEST PUSH2 0xC8 DUP5 DUP3 DUP6 PUSH2 0x2D2 JUMP JUMPDEST POP SWAP4 SWAP3 POP POP POP JUMP JUMPDEST PUSH1 0x0 DUP2 CALLDATALOAD SWAP1 POP PUSH2 0xDF DUP2 PUSH2 0x399 JUMP JUMPDEST SWAP3 SWAP2 POP POP JUMP JUMPDEST PUSH1 0x0 DUP3 PUSH1 0x1F DUP4 ADD SLT PUSH2 0xFA JUMPI PUSH2 0xF9 PUSH2 0x374 JUMP JUMPDEST JUMPDEST DUP2 CALLDATALOAD PUSH2 0x10A DUP5 DUP3 PUSH1 0x20 DUP7 ADD PUSH2 0x8E JUMP JUMPDEST SWAP2 POP POP SWAP3 SWAP2 POP POP JUMP JUMPDEST PUSH1 0x0 DUP1 PUSH1 0x40 DUP4 DUP6 SUB SLT ISZERO PUSH2 0x12A JUMPI PUSH2 0x129 PUSH2 0x383 JUMP JUMPDEST JUMPDEST PUSH1 0x0 PUSH2 0x138 DUP6 DUP3 DUP7 ADD PUSH2 0xD0 JUMP JUMPDEST SWAP3 POP POP PUSH1 0x20 DUP4 ADD CALLDATALOAD PUSH8 0xFFFFFFFFFFFFFFFF DUP2 GT ISZERO PUSH2 0x159 JUMPI PUSH2 0x158 PUSH2 0x37E JUMP JUMPDEST JUMPDEST PUSH2 0x165 DUP6 DUP3 DUP7 ADD PUSH2 0xE5 JUMP JUMPDEST SWAP2 POP POP SWAP3 POP SWAP3 SWAP1 POP JUMP JUMPDEST PUSH2 0x178 DUP2 PUSH2 0x284 JUMP JUMPDEST DUP3 MSTORE POP POP JUMP JUMPDEST PUSH2 0x187 DUP2 PUSH2 0x2C0 JUMP JUMPDEST DUP3 MSTORE POP POP JUMP JUMPDEST PUSH1 0x0 PUSH2 0x198 DUP3 PUSH2 0x268 JUMP JUMPDEST PUSH2 0x1A2 DUP2 DUP6 PUSH2 0x273 JUMP JUMPDEST SWAP4 POP PUSH2 0x1B2 DUP2 DUP6 PUSH1 0x20 DUP7 ADD PUSH2 0x2E1 JUMP JUMPDEST PUSH2 0x1BB DUP2 PUSH2 0x388 JUMP JUMPDEST DUP5 ADD SWAP2 POP POP SWAP3 SWAP2 POP POP JUMP JUMPDEST PUSH1 0x0 PUSH1 0x80 DUP3 ADD SWAP1 POP PUSH2 0x1DB PUSH1 0x0 DUP4 ADD DUP8 PUSH2 0x16F JUMP JUMPDEST PUSH2 0x1E8 PUSH1 0x20 DUP4 ADD DUP7 PUSH2 0x16F JUMP JUMPDEST DUP2 DUP2 SUB PUSH1 0x40 DUP4 ADD MSTORE PUSH2 0x1FA DUP2 DUP6 PUSH2 0x18D JUMP JUMPDEST SWAP1 POP PUSH2 0x209 PUSH1 0x60 DUP4 ADD DUP5 PUSH2 0x17E JUMP JUMPDEST SWAP6 SWAP5 POP POP POP POP POP JUMP JUMPDEST PUSH1 0x0 PUSH2 0x21C PUSH2 0x22D JUMP JUMPDEST SWAP1 POP PUSH2 0x228 DUP3 DUP3 PUSH2 0x314 JUMP JUMPDEST SWAP2 SWAP1 POP JUMP JUMPDEST PUSH1 0x0 PUSH1 0x40 MLOAD SWAP1 POP SWAP1 JUMP JUMPDEST PUSH1 0x0 PUSH8 0xFFFFFFFFFFFFFFFF DUP3 GT ISZERO PUSH2 0x252 JUMPI PUSH2 0x251 PUSH2 0x345 JUMP JUMPDEST JUMPDEST PUSH2 0x25B DUP3 PUSH2 0x388 JUMP JUMPDEST SWAP1 POP PUSH1 0x20 DUP2 ADD SWAP1 POP SWAP2 SWAP1 POP JUMP JUMPDEST PUSH1 0x0 DUP2 MLOAD SWAP1 POP SWAP2 SWAP1 POP JUMP JUMPDEST PUSH1 0x0 DUP3 DUP3 MSTORE PUSH1 0x20 DUP3 ADD SWAP1 POP SWAP3 SWAP2 POP POP JUMP JUMPDEST PUSH1 0x0 PUSH2 0x28F DUP3 PUSH2 0x296 JUMP JUMPDEST SWAP1 POP SWAP2 SWAP1 POP JUMP JUMPDEST PUSH1 0x0 PUSH20 0xFFFFFFFFFFFFFFFFFFFFFFFFFFFFFFFFFFFFFFFF DUP3 AND SWAP1 POP SWAP2 SWAP1 POP JUMP JUMPDEST PUSH1 0x0 DUP2 SWAP1 POP SWAP2 SWAP1 POP JUMP JUMPDEST PUSH1 0x0 PUSH2 0x2CB DUP3 PUSH2 0x2B6 JUMP JUMPDEST SWAP1 POP SWAP2 SWAP1 POP JUMP JUMPDEST DUP3 DUP2 DUP4 CALLDATACOPY PUSH1 0x0 DUP4 DUP4 ADD MSTORE POP POP POP JUMP JUMPDEST PUSH1 0x0 JUMPDEST DUP4 DUP2 LT ISZERO PUSH2 0x2FF JUMPI DUP1 DUP3 ADD MLOAD DUP2 DUP5 ADD MSTORE PUSH1 0x20 DUP2 ADD SWAP1 POP PUSH2 0x2E4 JUMP JUMPDEST DUP4 DUP2 GT ISZERO PUSH2 0x30E JUMPI PUSH1 0x0 DUP5 DUP5 ADD MSTORE JUMPDEST POP POP POP POP JUMP JUMPDEST PUSH2 0x31D DUP3 PUSH2 0x388 JUMP JUMPDEST DUP2 ADD DUP2 DUP2 LT PUSH8 0xFFFFFFFFFFFFFFFF DUP3 GT OR ISZERO PUSH2 0x33C JUMPI PUSH2 0x33B PUSH2 0x345 JUMP JUMPDEST JUMPDEST DUP1 PUSH1 0x40 MSTORE POP POP POP JUMP JUMPDEST PUSH32 0x4E487B7100000000000000000000000000000000000000000000000000000000 PUSH1 0x0 MSTORE PUSH1 0x41 PUSH1 0x4 MSTORE PUSH1 0x24 PUSH1 0x0 REVERT JUMPDEST PUSH1 0x0 DUP1 REVERT JUMPDEST PUSH1 0x0 DUP1 REVERT JUMPDEST PUSH1 0x0 DUP1 REVERT JUMPDEST PUSH1 0x0 DUP1 REVERT JUMPDEST PUSH1 0x0 PUSH1 0x1F NOT PUSH1 0x1F DUP4 ADD AND SWAP1 POP SWAP2 SWAP1 POP JUMP JUMPDEST PUSH2 0x3A2 DUP2 PUSH2 0x284 JUMP JUMPDEST DUP2 EQ PUSH2 0x3AD JUMPI PUSH1 0x0 DUP1 REVERT JUMPDEST POP JUMP INVALID LOG2 PUSH5 0x6970667358 0x22 SLT KECCAK256 0xA5 0xDE DUP2 PUSH22 0x586D1F94960FE2AE5E5F2161B1C9DD21118B250D142F 0xC7 0xAE 0xA9 0xD2 DUP16 DUP8 PUSH5 0x736F6C6343 STOP ADDMOD SMOD STOP CALLER "
				},
				"gasEstimates": {
					"creation": {
						"codeDepositCost": "199600",
						"executionCost": "245",
						"totalCost": "199845"
					},
					"external": {
						"sendMessage(address,string)": "infinite"
					}
				},
				"methodIdentifiers": {
					"sendMessage(address,string)": "de6f24bb"
				}
			},
			"storageLayout": {
				"storage": [],
				"types": null
			},
			"userdoc": {
				"kind": "user",
				"methods": {},
				"version": 1
			}
		}
	}
}