{
	"smartAuction.sol": {
		"smartAuction": {
			"abi": [
				{
					"inputs": [],
					"stateMutability": "nonpayable",
					"type": "constructor"
				},
				{
					"inputs": [],
					"name": "autioneer",
					"outputs": [
						{
							"internalType": "address payable",
							"name": "",
							"type": "address"
						}
					],
					"stateMutability": "view",
					"type": "function"
				},
				{
					"inputs": [],
					"name": "bid_inc",
					"outputs": [
						{
							"internalType": "uint256",
							"name": "",
							"type": "uint256"
						}
					],
					"stateMutability": "view",
					"type": "function"
				},
				{
					"inputs": [],
					"name": "endBlock",
					"outputs": [
						{
							"internalType": "uint256",
							"name": "",
							"type": "uint256"
						}
					],
					"stateMutability": "view",
					"type": "function"
				},
				{
					"inputs": [],
					"name": "highest_bid",
					"outputs": [
						{
							"internalType": "uint256",
							"name": "",
							"type": "uint256"
						}
					],
					"stateMutability": "view",
					"type": "function"
				},
				{
					"inputs": [],
					"name": "highest_payable_bid",
					"outputs": [
						{
							"internalType": "uint256",
							"name": "",
							"type": "uint256"
						}
					],
					"stateMutability": "view",
					"type": "function"
				},
				{
					"inputs": [],
					"name": "startBlock",
					"outputs": [
						{
							"internalType": "uint256",
							"name": "",
							"type": "uint256"
						}
					],
					"stateMutability": "view",
					"type": "function"
				},
				{
					"inputs": [],
					"name": "state",
					"outputs": [
						{
							"internalType": "enum smartAuction.Auction_state",
							"name": "",
							"type": "uint8"
						}
					],
					"stateMutability": "view",
					"type": "function"
				}
			],
			"devdoc": {
				"kind": "dev",
				"methods": {},
				"version": 1
			},
			"evm": {
				"assembly": "    /* \"smartAuction.sol\":63:506  contract smartAuction{... */\n  mstore(0x40, 0x80)\n    /* \"smartAuction.sol\":185:281  constructor(){... */\n  callvalue\n  dup1\n  iszero\n  tag_1\n  jumpi\n  0x00\n  dup1\n  revert\ntag_1:\n  pop\n    /* \"smartAuction.sol\":228:238  msg.sender */\n  caller\n    /* \"smartAuction.sol\":208:217  autioneer */\n  0x00\n  dup1\n    /* \"smartAuction.sol\":208:239  autioneer = payable(msg.sender) */\n  0x0100\n  exp\n  dup2\n  sload\n  dup2\n  0xffffffffffffffffffffffffffffffffffffffff\n  mul\n  not\n  and\n  swap1\n  dup4\n  0xffffffffffffffffffffffffffffffffffffffff\n  and\n  mul\n  or\n  swap1\n  sstore\n  pop\n    /* \"smartAuction.sol\":262:274  block.number */\n  number\n    /* \"smartAuction.sol\":249:259  startBlock */\n  0x01\n    /* \"smartAuction.sol\":249:274  startBlock = block.number */\n  dup2\n  swap1\n  sstore\n  pop\n    /* \"smartAuction.sol\":63:506  contract smartAuction{... */\n  dataSize(sub_0)\n  dup1\n  dataOffset(sub_0)\n  0x00\n  codecopy\n  0x00\n  return\nstop\n\nsub_0: assembly {\n        /* \"smartAuction.sol\":63:506  contract smartAuction{... */\n      mstore(0x40, 0x80)\n      callvalue\n      dup1\n      iszero\n      tag_1\n      jumpi\n      0x00\n      dup1\n      revert\n    tag_1:\n      pop\n      jumpi(tag_2, lt(calldatasize, 0x04))\n      shr(0xe0, calldataload(0x00))\n      dup1\n      0xb035bf60\n      gt\n      tag_10\n      jumpi\n      dup1\n      0xb035bf60\n      eq\n      tag_6\n      jumpi\n      dup1\n      0xc19d93fb\n      eq\n      tag_7\n      jumpi\n      dup1\n      0xe5c60091\n      eq\n      tag_8\n      jumpi\n      dup1\n      0xf3ef35f8\n      eq\n      tag_9\n      jumpi\n      jump(tag_2)\n    tag_10:\n      dup1\n      0x083c6323\n      eq\n      tag_3\n      jumpi\n      dup1\n      0x48cd4cb1\n      eq\n      tag_4\n      jumpi\n      dup1\n      0x7eb695a1\n      eq\n      tag_5\n      jumpi\n    tag_2:\n      0x00\n      dup1\n      revert\n        /* \"smartAuction.sol\":158:178  uint public endBlock */\n    tag_3:\n      tag_11\n      tag_12\n      jump\t// in\n    tag_11:\n      mload(0x40)\n      tag_13\n      swap2\n      swap1\n      tag_14\n      jump\t// in\n    tag_13:\n      mload(0x40)\n      dup1\n      swap2\n      sub\n      swap1\n      return\n        /* \"smartAuction.sol\":130:152  uint public startBlock */\n    tag_4:\n      tag_15\n      tag_16\n      jump\t// in\n    tag_15:\n      mload(0x40)\n      tag_17\n      swap2\n      swap1\n      tag_14\n      jump\t// in\n    tag_17:\n      mload(0x40)\n      dup1\n      swap2\n      sub\n      swap1\n      return\n        /* \"smartAuction.sol\":447:478  uint public highest_payable_bid */\n    tag_5:\n      tag_18\n      tag_19\n      jump\t// in\n    tag_18:\n      mload(0x40)\n      tag_20\n      swap2\n      swap1\n      tag_14\n      jump\t// in\n    tag_20:\n      mload(0x40)\n      dup1\n      swap2\n      sub\n      swap1\n      return\n        /* \"smartAuction.sol\":91:124  address payable public  autioneer */\n    tag_6:\n      tag_21\n      tag_22\n      jump\t// in\n    tag_21:\n      mload(0x40)\n      tag_23\n      swap2\n      swap1\n      tag_24\n      jump\t// in\n    tag_23:\n      mload(0x40)\n      dup1\n      swap2\n      sub\n      swap1\n      return\n        /* \"smartAuction.sol\":385:411  Auction_state public state */\n    tag_7:\n      tag_25\n      tag_26\n      jump\t// in\n    tag_25:\n      mload(0x40)\n      tag_27\n      swap2\n      swap1\n      tag_28\n      jump\t// in\n    tag_27:\n      mload(0x40)\n      dup1\n      swap2\n      sub\n      swap1\n      return\n        /* \"smartAuction.sol\":418:441  uint public highest_bid */\n    tag_8:\n      tag_29\n      tag_30\n      jump\t// in\n    tag_29:\n      mload(0x40)\n      tag_31\n      swap2\n      swap1\n      tag_14\n      jump\t// in\n    tag_31:\n      mload(0x40)\n      dup1\n      swap2\n      sub\n      swap1\n      return\n        /* \"smartAuction.sol\":484:503  uint public bid_inc */\n    tag_9:\n      tag_32\n      tag_33\n      jump\t// in\n    tag_32:\n      mload(0x40)\n      tag_34\n      swap2\n      swap1\n      tag_14\n      jump\t// in\n    tag_34:\n      mload(0x40)\n      dup1\n      swap2\n      sub\n      swap1\n      return\n        /* \"smartAuction.sol\":158:178  uint public endBlock */\n    tag_12:\n      sload(0x02)\n      dup2\n      jump\t// out\n        /* \"smartAuction.sol\":130:152  uint public startBlock */\n    tag_16:\n      sload(0x01)\n      dup2\n      jump\t// out\n        /* \"smartAuction.sol\":447:478  uint public highest_payable_bid */\n    tag_19:\n      sload(0x05)\n      dup2\n      jump\t// out\n        /* \"smartAuction.sol\":91:124  address payable public  autioneer */\n    tag_22:\n      0x00\n      dup1\n      sload\n      swap1\n      0x0100\n      exp\n      swap1\n      div\n      0xffffffffffffffffffffffffffffffffffffffff\n      and\n      dup2\n      jump\t// out\n        /* \"smartAuction.sol\":385:411  Auction_state public state */\n    tag_26:\n      0x03\n      0x00\n      swap1\n      sload\n      swap1\n      0x0100\n      exp\n      swap1\n      div\n      0xff\n      and\n      dup2\n      jump\t// out\n        /* \"smartAuction.sol\":418:441  uint public highest_bid */\n    tag_30:\n      sload(0x04)\n      dup2\n      jump\t// out\n        /* \"smartAuction.sol\":484:503  uint public bid_inc */\n    tag_33:\n      sload(0x06)\n      dup2\n      jump\t// out\n        /* \"#utility.yul\":7:149   */\n    tag_36:\n        /* \"#utility.yul\":110:142   */\n      tag_38\n        /* \"#utility.yul\":136:141   */\n      dup2\n        /* \"#utility.yul\":110:142   */\n      tag_39\n      jump\t// in\n    tag_38:\n        /* \"#utility.yul\":105:108   */\n      dup3\n        /* \"#utility.yul\":98:143   */\n      mstore\n        /* \"#utility.yul\":7:149   */\n      pop\n      pop\n      jump\t// out\n        /* \"#utility.yul\":155:314   */\n    tag_40:\n        /* \"#utility.yul\":256:307   */\n      tag_42\n        /* \"#utility.yul\":301:306   */\n      dup2\n        /* \"#utility.yul\":256:307   */\n      tag_43\n      jump\t// in\n    tag_42:\n        /* \"#utility.yul\":251:254   */\n      dup3\n        /* \"#utility.yul\":244:308   */\n      mstore\n        /* \"#utility.yul\":155:314   */\n      pop\n      pop\n      jump\t// out\n        /* \"#utility.yul\":320:438   */\n    tag_44:\n        /* \"#utility.yul\":407:431   */\n      tag_46\n        /* \"#utility.yul\":425:430   */\n      dup2\n        /* \"#utility.yul\":407:431   */\n      tag_47\n      jump\t// in\n    tag_46:\n        /* \"#utility.yul\":402:405   */\n      dup3\n        /* \"#utility.yul\":395:432   */\n      mstore\n        /* \"#utility.yul\":320:438   */\n      pop\n      pop\n      jump\t// out\n        /* \"#utility.yul\":444:698   */\n    tag_24:\n        /* \"#utility.yul\":553:557   */\n      0x00\n        /* \"#utility.yul\":591:593   */\n      0x20\n        /* \"#utility.yul\":580:589   */\n      dup3\n        /* \"#utility.yul\":576:594   */\n      add\n        /* \"#utility.yul\":568:594   */\n      swap1\n      pop\n        /* \"#utility.yul\":604:691   */\n      tag_49\n        /* \"#utility.yul\":688:689   */\n      0x00\n        /* \"#utility.yul\":677:686   */\n      dup4\n        /* \"#utility.yul\":673:690   */\n      add\n        /* \"#utility.yul\":664:670   */\n      dup5\n        /* \"#utility.yul\":604:691   */\n      tag_36\n      jump\t// in\n    tag_49:\n        /* \"#utility.yul\":444:698   */\n      swap3\n      swap2\n      pop\n      pop\n      jump\t// out\n        /* \"#utility.yul\":704:954   */\n    tag_28:\n        /* \"#utility.yul\":811:815   */\n      0x00\n        /* \"#utility.yul\":849:851   */\n      0x20\n        /* \"#utility.yul\":838:847   */\n      dup3\n        /* \"#utility.yul\":834:852   */\n      add\n        /* \"#utility.yul\":826:852   */\n      swap1\n      pop\n        /* \"#utility.yul\":862:947   */\n      tag_51\n        /* \"#utility.yul\":944:945   */\n      0x00\n        /* \"#utility.yul\":933:942   */\n      dup4\n        /* \"#utility.yul\":929:946   */\n      add\n        /* \"#utility.yul\":920:926   */\n      dup5\n        /* \"#utility.yul\":862:947   */\n      tag_40\n      jump\t// in\n    tag_51:\n        /* \"#utility.yul\":704:954   */\n      swap3\n      swap2\n      pop\n      pop\n      jump\t// out\n        /* \"#utility.yul\":960:1182   */\n    tag_14:\n        /* \"#utility.yul\":1053:1057   */\n      0x00\n        /* \"#utility.yul\":1091:1093   */\n      0x20\n        /* \"#utility.yul\":1080:1089   */\n      dup3\n        /* \"#utility.yul\":1076:1094   */\n      add\n        /* \"#utility.yul\":1068:1094   */\n      swap1\n      pop\n        /* \"#utility.yul\":1104:1175   */\n      tag_53\n        /* \"#utility.yul\":1172:1173   */\n      0x00\n        /* \"#utility.yul\":1161:1170   */\n      dup4\n        /* \"#utility.yul\":1157:1174   */\n      add\n        /* \"#utility.yul\":1148:1154   */\n      dup5\n        /* \"#utility.yul\":1104:1175   */\n      tag_44\n      jump\t// in\n    tag_53:\n        /* \"#utility.yul\":960:1182   */\n      swap3\n      swap2\n      pop\n      pop\n      jump\t// out\n        /* \"#utility.yul\":1188:1292   */\n    tag_39:\n        /* \"#utility.yul\":1233:1240   */\n      0x00\n        /* \"#utility.yul\":1262:1286   */\n      tag_55\n        /* \"#utility.yul\":1280:1285   */\n      dup3\n        /* \"#utility.yul\":1262:1286   */\n      tag_56\n      jump\t// in\n    tag_55:\n        /* \"#utility.yul\":1251:1286   */\n      swap1\n      pop\n        /* \"#utility.yul\":1188:1292   */\n      swap2\n      swap1\n      pop\n      jump\t// out\n        /* \"#utility.yul\":1298:1441   */\n    tag_57:\n        /* \"#utility.yul\":1351:1358   */\n      0x00\n        /* \"#utility.yul\":1380:1385   */\n      dup2\n        /* \"#utility.yul\":1369:1385   */\n      swap1\n      pop\n        /* \"#utility.yul\":1386:1435   */\n      tag_59\n        /* \"#utility.yul\":1429:1434   */\n      dup3\n        /* \"#utility.yul\":1386:1435   */\n      tag_60\n      jump\t// in\n    tag_59:\n        /* \"#utility.yul\":1298:1441   */\n      swap2\n      swap1\n      pop\n      jump\t// out\n        /* \"#utility.yul\":1447:1573   */\n    tag_56:\n        /* \"#utility.yul\":1484:1491   */\n      0x00\n        /* \"#utility.yul\":1524:1566   */\n      0xffffffffffffffffffffffffffffffffffffffff\n        /* \"#utility.yul\":1517:1522   */\n      dup3\n        /* \"#utility.yul\":1513:1567   */\n      and\n        /* \"#utility.yul\":1502:1567   */\n      swap1\n      pop\n        /* \"#utility.yul\":1447:1573   */\n      swap2\n      swap1\n      pop\n      jump\t// out\n        /* \"#utility.yul\":1579:1656   */\n    tag_47:\n        /* \"#utility.yul\":1616:1623   */\n      0x00\n        /* \"#utility.yul\":1645:1650   */\n      dup2\n        /* \"#utility.yul\":1634:1650   */\n      swap1\n      pop\n        /* \"#utility.yul\":1579:1656   */\n      swap2\n      swap1\n      pop\n      jump\t// out\n        /* \"#utility.yul\":1662:1805   */\n    tag_43:\n        /* \"#utility.yul\":1726:1735   */\n      0x00\n        /* \"#utility.yul\":1759:1799   */\n      tag_64\n        /* \"#utility.yul\":1793:1798   */\n      dup3\n        /* \"#utility.yul\":1759:1799   */\n      tag_57\n      jump\t// in\n    tag_64:\n        /* \"#utility.yul\":1746:1799   */\n      swap1\n      pop\n        /* \"#utility.yul\":1662:1805   */\n      swap2\n      swap1\n      pop\n      jump\t// out\n        /* \"#utility.yul\":1811:1991   */\n    tag_65:\n        /* \"#utility.yul\":1859:1936   */\n      0x4e487b7100000000000000000000000000000000000000000000000000000000\n        /* \"#utility.yul\":1856:1857   */\n      0x00\n        /* \"#utility.yul\":1849:1937   */\n      mstore\n        /* \"#utility.yul\":1956:1960   */\n      0x21\n        /* \"#utility.yul\":1953:1954   */\n      0x04\n        /* \"#utility.yul\":1946:1961   */\n      mstore\n        /* \"#utility.yul\":1980:1984   */\n      0x24\n        /* \"#utility.yul\":1977:1978   */\n      0x00\n        /* \"#utility.yul\":1970:1985   */\n      revert\n        /* \"#utility.yul\":1997:2118   */\n    tag_60:\n        /* \"#utility.yul\":2086:2087   */\n      0x04\n        /* \"#utility.yul\":2079:2084   */\n      dup2\n        /* \"#utility.yul\":2076:2088   */\n      lt\n        /* \"#utility.yul\":2066:2112   */\n      tag_68\n      jumpi\n        /* \"#utility.yul\":2092:2110   */\n      tag_69\n      tag_65\n      jump\t// in\n    tag_69:\n        /* \"#utility.yul\":2066:2112   */\n    tag_68:\n        /* \"#utility.yul\":1997:2118   */\n      pop\n      jump\t// out\n\n    auxdata: 0xa2646970667358221220f82abc2979ceb928477e45e8d6b4abed0217ee7c2964cbd73b3c0e753ecd38c064736f6c63430008070033\n}\n",
				"bytecode": {
					"linkReferences": {},
					"object": "608060405234801561001057600080fd5b50336000806101000a81548173ffffffffffffffffffffffffffffffffffffffff021916908373ffffffffffffffffffffffffffffffffffffffff16021790555043600181905550610301806100676000396000f3fe608060405234801561001057600080fd5b506004361061007d5760003560e01c8063b035bf601161005b578063b035bf60146100dc578063c19d93fb146100fa578063e5c6009114610118578063f3ef35f8146101365761007d565b8063083c63231461008257806348cd4cb1146100a05780637eb695a1146100be575b600080fd5b61008a610154565b604051610097919061020c565b60405180910390f35b6100a861015a565b6040516100b5919061020c565b60405180910390f35b6100c6610160565b6040516100d3919061020c565b60405180910390f35b6100e4610166565b6040516100f191906101d6565b60405180910390f35b61010261018a565b60405161010f91906101f1565b60405180910390f35b61012061019d565b60405161012d919061020c565b60405180910390f35b61013e6101a3565b60405161014b919061020c565b60405180910390f35b60025481565b60015481565b60055481565b60008054906101000a900473ffffffffffffffffffffffffffffffffffffffff1681565b600360009054906101000a900460ff1681565b60045481565b60065481565b6101b281610227565b82525050565b6101c181610276565b82525050565b6101d08161026c565b82525050565b60006020820190506101eb60008301846101a9565b92915050565b600060208201905061020660008301846101b8565b92915050565b600060208201905061022160008301846101c7565b92915050565b60006102328261024c565b9050919050565b6000819050610247826102b7565b919050565b600073ffffffffffffffffffffffffffffffffffffffff82169050919050565b6000819050919050565b600061028182610239565b9050919050565b7f4e487b7100000000000000000000000000000000000000000000000000000000600052602160045260246000fd5b600481106102c8576102c7610288565b5b5056fea2646970667358221220f82abc2979ceb928477e45e8d6b4abed0217ee7c2964cbd73b3c0e753ecd38c064736f6c63430008070033",
					"opcodes": "PUSH1 0x80 PUSH1 0x40 MSTORE CALLVALUE DUP1 ISZERO PUSH2 0x10 JUMPI PUSH1 0x0 DUP1 REVERT JUMPDEST POP CALLER PUSH1 0x0 DUP1 PUSH2 0x100 EXP DUP2 SLOAD DUP2 PUSH20 0xFFFFFFFFFFFFFFFFFFFFFFFFFFFFFFFFFFFFFFFF MUL NOT AND SWAP1 DUP4 PUSH20 0xFFFFFFFFFFFFFFFFFFFFFFFFFFFFFFFFFFFFFFFF AND MUL OR SWAP1 SSTORE POP NUMBER PUSH1 0x1 DUP2 SWAP1 SSTORE POP PUSH2 0x301 DUP1 PUSH2 0x67 PUSH1 0x0 CODECOPY PUSH1 0x0 RETURN INVALID PUSH1 0x80 PUSH1 0x40 MSTORE CALLVALUE DUP1 ISZERO PUSH2 0x10 JUMPI PUSH1 0x0 DUP1 REVERT JUMPDEST POP PUSH1 0x4 CALLDATASIZE LT PUSH2 0x7D JUMPI PUSH1 0x0 CALLDATALOAD PUSH1 0xE0 SHR DUP1 PUSH4 0xB035BF60 GT PUSH2 0x5B JUMPI DUP1 PUSH4 0xB035BF60 EQ PUSH2 0xDC JUMPI DUP1 PUSH4 0xC19D93FB EQ PUSH2 0xFA JUMPI DUP1 PUSH4 0xE5C60091 EQ PUSH2 0x118 JUMPI DUP1 PUSH4 0xF3EF35F8 EQ PUSH2 0x136 JUMPI PUSH2 0x7D JUMP JUMPDEST DUP1 PUSH4 0x83C6323 EQ PUSH2 0x82 JUMPI DUP1 PUSH4 0x48CD4CB1 EQ PUSH2 0xA0 JUMPI DUP1 PUSH4 0x7EB695A1 EQ PUSH2 0xBE JUMPI JUMPDEST PUSH1 0x0 DUP1 REVERT JUMPDEST PUSH2 0x8A PUSH2 0x154 JUMP JUMPDEST PUSH1 0x40 MLOAD PUSH2 0x97 SWAP2 SWAP1 PUSH2 0x20C JUMP JUMPDEST PUSH1 0x40 MLOAD DUP1 SWAP2 SUB SWAP1 RETURN JUMPDEST PUSH2 0xA8 PUSH2 0x15A JUMP JUMPDEST PUSH1 0x40 MLOAD PUSH2 0xB5 SWAP2 SWAP1 PUSH2 0x20C JUMP JUMPDEST PUSH1 0x40 MLOAD DUP1 SWAP2 SUB SWAP1 RETURN JUMPDEST PUSH2 0xC6 PUSH2 0x160 JUMP JUMPDEST PUSH1 0x40 MLOAD PUSH2 0xD3 SWAP2 SWAP1 PUSH2 0x20C JUMP JUMPDEST PUSH1 0x40 MLOAD DUP1 SWAP2 SUB SWAP1 RETURN JUMPDEST PUSH2 0xE4 PUSH2 0x166 JUMP JUMPDEST PUSH1 0x40 MLOAD PUSH2 0xF1 SWAP2 SWAP1 PUSH2 0x1D6 JUMP JUMPDEST PUSH1 0x40 MLOAD DUP1 SWAP2 SUB SWAP1 RETURN JUMPDEST PUSH2 0x102 PUSH2 0x18A JUMP JUMPDEST PUSH1 0x40 MLOAD PUSH2 0x10F SWAP2 SWAP1 PUSH2 0x1F1 JUMP JUMPDEST PUSH1 0x40 MLOAD DUP1 SWAP2 SUB SWAP1 RETURN JUMPDEST PUSH2 0x120 PUSH2 0x19D JUMP JUMPDEST PUSH1 0x40 MLOAD PUSH2 0x12D SWAP2 SWAP1 PUSH2 0x20C JUMP JUMPDEST PUSH1 0x40 MLOAD DUP1 SWAP2 SUB SWAP1 RETURN JUMPDEST PUSH2 0x13E PUSH2 0x1A3 JUMP JUMPDEST PUSH1 0x40 MLOAD PUSH2 0x14B SWAP2 SWAP1 PUSH2 0x20C JUMP JUMPDEST PUSH1 0x40 MLOAD DUP1 SWAP2 SUB SWAP1 RETURN JUMPDEST PUSH1 0x2 SLOAD DUP2 JUMP JUMPDEST PUSH1 0x1 SLOAD DUP2 JUMP JUMPDEST PUSH1 0x5 SLOAD DUP2 JUMP JUMPDEST PUSH1 0x0 DUP1 SLOAD SWAP1 PUSH2 0x100 EXP SWAP1 DIV PUSH20 0xFFFFFFFFFFFFFFFFFFFFFFFFFFFFFFFFFFFFFFFF AND DUP2 JUMP JUMPDEST PUSH1 0x3 PUSH1 0x0 SWAP1 SLOAD SWAP1 PUSH2 0x100 EXP SWAP1 DIV PUSH1 0xFF AND DUP2 JUMP JUMPDEST PUSH1 0x4 SLOAD DUP2 JUMP JUMPDEST PUSH1 0x6 SLOAD DUP2 JUMP JUMPDEST PUSH2 0x1B2 DUP2 PUSH2 0x227 JUMP JUMPDEST DUP3 MSTORE POP POP JUMP JUMPDEST PUSH2 0x1C1 DUP2 PUSH2 0x276 JUMP JUMPDEST DUP3 MSTORE POP POP JUMP JUMPDEST PUSH2 0x1D0 DUP2 PUSH2 0x26C JUMP JUMPDEST DUP3 MSTORE POP POP JUMP JUMPDEST PUSH1 0x0 PUSH1 0x20 DUP3 ADD SWAP1 POP PUSH2 0x1EB PUSH1 0x0 DUP4 ADD DUP5 PUSH2 0x1A9 JUMP JUMPDEST SWAP3 SWAP2 POP POP JUMP JUMPDEST PUSH1 0x0 PUSH1 0x20 DUP3 ADD SWAP1 POP PUSH2 0x206 PUSH1 0x0 DUP4 ADD DUP5 PUSH2 0x1B8 JUMP JUMPDEST SWAP3 SWAP2 POP POP JUMP JUMPDEST PUSH1 0x0 PUSH1 0x20 DUP3 ADD SWAP1 POP PUSH2 0x221 PUSH1 0x0 DUP4 ADD DUP5 PUSH2 0x1C7 JUMP JUMPDEST SWAP3 SWAP2 POP POP JUMP JUMPDEST PUSH1 0x0 PUSH2 0x232 DUP3 PUSH2 0x24C JUMP JUMPDEST SWAP1 POP SWAP2 SWAP1 POP JUMP JUMPDEST PUSH1 0x0 DUP2 SWAP1 POP PUSH2 0x247 DUP3 PUSH2 0x2B7 JUMP JUMPDEST SWAP2 SWAP1 POP JUMP JUMPDEST PUSH1 0x0 PUSH20 0xFFFFFFFFFFFFFFFFFFFFFFFFFFFFFFFFFFFFFFFF DUP3 AND SWAP1 POP SWAP2 SWAP1 POP JUMP JUMPDEST PUSH1 0x0 DUP2 SWAP1 POP SWAP2 SWAP1 POP JUMP JUMPDEST PUSH1 0x0 PUSH2 0x281 DUP3 PUSH2 0x239 JUMP JUMPDEST SWAP1 POP SWAP2 SWAP1 POP JUMP JUMPDEST PUSH32 0x4E487B7100000000000000000000000000000000000000000000000000000000 PUSH1 0x0 MSTORE PUSH1 0x21 PUSH1 0x4 MSTORE PUSH1 0x24 PUSH1 0x0 REVERT JUMPDEST PUSH1 0x4 DUP2 LT PUSH2 0x2C8 JUMPI PUSH2 0x2C7 PUSH2 0x288 JUMP JUMPDEST JUMPDEST POP JUMP INVALID LOG2 PUSH5 0x6970667358 0x22 SLT KECCAK256 0xF8 0x2A 0xBC 0x29 PUSH26 0xCEB928477E45E8D6B4ABED0217EE7C2964CBD73B3C0E753ECD38 0xC0 PUSH5 0x736F6C6343 STOP ADDMOD SMOD STOP CALLER "
				},
				"gasEstimates": {
					"creation": {
						"codeDepositCost": "153800",
						"executionCost": "46581",
						"totalCost": "200381"
					},
					"external": {
						"autioneer()": "2511",
						"bid_inc()": "2495",
						"endBlock()": "2430",
						"highest_bid()": "2473",
						"highest_payable_bid()": "2474",
						"startBlock()": "2452",
						"state()": "2582"
					}
				},
				"methodIdentifiers": {
					"autioneer()": "b035bf60",
					"bid_inc()": "f3ef35f8",
					"endBlock()": "083c6323",
					"highest_bid()": "e5c60091",
					"highest_payable_bid()": "7eb695a1",
					"startBlock()": "48cd4cb1",
					"state()": "c19d93fb"
				}
			},
			"storageLayout": {
				"storage": [
					{
						"astId": 3,
						"contract": "smartAuction.sol:smartAuction",
						"label": "autioneer",
						"offset": 0,
						"slot": "0",
						"type": "t_address_payable"
					},
					{
						"astId": 5,
						"contract": "smartAuction.sol:smartAuction",
						"label": "startBlock",
						"offset": 0,
						"slot": "1",
						"type": "t_uint256"
					},
					{
						"astId": 7,
						"contract": "smartAuction.sol:smartAuction",
						"label": "endBlock",
						"offset": 0,
						"slot": "2",
						"type": "t_uint256"
					},
					{
						"astId": 32,
						"contract": "smartAuction.sol:smartAuction",
						"label": "state",
						"offset": 0,
						"slot": "3",
						"type": "t_enum(Auction_state)29"
					},
					{
						"astId": 34,
						"contract": "smartAuction.sol:smartAuction",
						"label": "highest_bid",
						"offset": 0,
						"slot": "4",
						"type": "t_uint256"
					},
					{
						"astId": 36,
						"contract": "smartAuction.sol:smartAuction",
						"label": "highest_payable_bid",
						"offset": 0,
						"slot": "5",
						"type": "t_uint256"
					},
					{
						"astId": 38,
						"contract": "smartAuction.sol:smartAuction",
						"label": "bid_inc",
						"offset": 0,
						"slot": "6",
						"type": "t_uint256"
					}
				],
				"types": {
					"t_address_payable": {
						"encoding": "inplace",
						"label": "address payable",
						"numberOfBytes": "20"
					},
					"t_enum(Auction_state)29": {
						"encoding": "inplace",
						"label": "enum smartAuction.Auction_state",
						"numberOfBytes": "1"
					},
					"t_uint256": {
						"encoding": "inplace",
						"label": "uint256",
						"numberOfBytes": "32"
					}
				}
			},
			"userdoc": {
				"kind": "user",
				"methods": {},
				"version": 1
			}
		}
	}
}