{
	"data": {
		"bytecode": {
			"linkReferences": {},
			"object": "608060405234801561001057600080fd5b506102ee806100206000396000f3fe6080604052600436106100225760003560e01c8063c71daccb1461009e57610060565b36610060577ff9ca4064fff824200469e1f667603e00386d9f1576c2a99a7f0d0e40553541633460405161005691906101bb565b60405180910390a1005b7ff9ca4064fff824200469e1f667603e00386d9f1576c2a99a7f0d0e40553541633460003660405161009493929190610176565b60405180910390a1005b3480156100aa57600080fd5b506100b36100c9565b6040516100c091906101fc565b60405180910390f35b600047905090565b60006100dd8385610217565b93506100ea838584610243565b6100f383610252565b840190509392505050565b600061010b600883610228565b915061011682610263565b602082019050919050565b600061012e600083610217565b91506101398261028c565b600082019050919050565b6000610151600783610228565b915061015c8261028f565b602082019050919050565b61017081610239565b82525050565b6000606082019050818103600083015261018f816100fe565b905061019e6020830186610167565b81810360408301526101b18184866100d1565b9050949350505050565b600060608201905081810360008301526101d481610144565b90506101e36020830184610167565b81810360408301526101f481610121565b905092915050565b60006020820190506102116000830184610167565b92915050565b600082825260208201905092915050565b600082825260208201905092915050565b6000819050919050565b82818337600083830152505050565b6000601f19601f8301169050919050565b7f66616c6c6261636b000000000000000000000000000000000000000000000000600082015250565b50565b7f726563656976650000000000000000000000000000000000000000000000000060008201525056fea264697066735822122028dc48b732052d8fbf9d1ee83da75df6044f9fcc583394b2f629fa9cd1b74dbd64736f6c63430008070033",
			"opcodes": "PUSH1 0x80 PUSH1 0x40 MSTORE CALLVALUE DUP1 ISZERO PUSH2 0x10 JUMPI PUSH1 0x0 DUP1 REVERT JUMPDEST POP PUSH2 0x2EE DUP1 PUSH2 0x20 PUSH1 0x0 CODECOPY PUSH1 0x0 RETURN INVALID PUSH1 0x80 PUSH1 0x40 MSTORE PUSH1 0x4 CALLDATASIZE LT PUSH2 0x22 JUMPI PUSH1 0x0 CALLDATALOAD PUSH1 0xE0 SHR DUP1 PUSH4 0xC71DACCB EQ PUSH2 0x9E JUMPI PUSH2 0x60 JUMP JUMPDEST CALLDATASIZE PUSH2 0x60 JUMPI PUSH32 0xF9CA4064FFF824200469E1F667603E00386D9F1576C2A99A7F0D0E4055354163 CALLVALUE PUSH1 0x40 MLOAD PUSH2 0x56 SWAP2 SWAP1 PUSH2 0x1BB JUMP JUMPDEST PUSH1 0x40 MLOAD DUP1 SWAP2 SUB SWAP1 LOG1 STOP JUMPDEST PUSH32 0xF9CA4064FFF824200469E1F667603E00386D9F1576C2A99A7F0D0E4055354163 CALLVALUE PUSH1 0x0 CALLDATASIZE PUSH1 0x40 MLOAD PUSH2 0x94 SWAP4 SWAP3 SWAP2 SWAP1 PUSH2 0x176 JUMP JUMPDEST PUSH1 0x40 MLOAD DUP1 SWAP2 SUB SWAP1 LOG1 STOP JUMPDEST CALLVALUE DUP1 ISZERO PUSH2 0xAA JUMPI PUSH1 0x0 DUP1 REVERT JUMPDEST POP PUSH2 0xB3 PUSH2 0xC9 JUMP JUMPDEST PUSH1 0x40 MLOAD PUSH2 0xC0 SWAP2 SWAP1 PUSH2 0x1FC JUMP JUMPDEST PUSH1 0x40 MLOAD DUP1 SWAP2 SUB SWAP1 RETURN JUMPDEST PUSH1 0x0 SELFBALANCE SWAP1 POP SWAP1 JUMP JUMPDEST PUSH1 0x0 PUSH2 0xDD DUP4 DUP6 PUSH2 0x217 JUMP JUMPDEST SWAP4 POP PUSH2 0xEA DUP4 DUP6 DUP5 PUSH2 0x243 JUMP JUMPDEST PUSH2 0xF3 DUP4 PUSH2 0x252 JUMP JUMPDEST DUP5 ADD SWAP1 POP SWAP4 SWAP3 POP POP POP JUMP JUMPDEST PUSH1 0x0 PUSH2 0x10B PUSH1 0x8 DUP4 PUSH2 0x228 JUMP JUMPDEST SWAP2 POP PUSH2 0x116 DUP3 PUSH2 0x263 JUMP JUMPDEST PUSH1 0x20 DUP3 ADD SWAP1 POP SWAP2 SWAP1 POP JUMP JUMPDEST PUSH1 0x0 PUSH2 0x12E PUSH1 0x0 DUP4 PUSH2 0x217 JUMP JUMPDEST SWAP2 POP PUSH2 0x139 DUP3 PUSH2 0x28C JUMP JUMPDEST PUSH1 0x0 DUP3 ADD SWAP1 POP SWAP2 SWAP1 POP JUMP JUMPDEST PUSH1 0x0 PUSH2 0x151 PUSH1 0x7 DUP4 PUSH2 0x228 JUMP JUMPDEST SWAP2 POP PUSH2 0x15C DUP3 PUSH2 0x28F JUMP JUMPDEST PUSH1 0x20 DUP3 ADD SWAP1 POP SWAP2 SWAP1 POP JUMP JUMPDEST PUSH2 0x170 DUP2 PUSH2 0x239 JUMP JUMPDEST DUP3 MSTORE POP POP JUMP JUMPDEST PUSH1 0x0 PUSH1 0x60 DUP3 ADD SWAP1 POP DUP2 DUP2 SUB PUSH1 0x0 DUP4 ADD MSTORE PUSH2 0x18F DUP2 PUSH2 0xFE JUMP JUMPDEST SWAP1 POP PUSH2 0x19E PUSH1 0x20 DUP4 ADD DUP7 PUSH2 0x167 JUMP JUMPDEST DUP2 DUP2 SUB PUSH1 0x40 DUP4 ADD MSTORE PUSH2 0x1B1 DUP2 DUP5 DUP7 PUSH2 0xD1 JUMP JUMPDEST SWAP1 POP SWAP5 SWAP4 POP POP POP POP JUMP JUMPDEST PUSH1 0x0 PUSH1 0x60 DUP3 ADD SWAP1 POP DUP2 DUP2 SUB PUSH1 0x0 DUP4 ADD MSTORE PUSH2 0x1D4 DUP2 PUSH2 0x144 JUMP JUMPDEST SWAP1 POP PUSH2 0x1E3 PUSH1 0x20 DUP4 ADD DUP5 PUSH2 0x167 JUMP JUMPDEST DUP2 DUP2 SUB PUSH1 0x40 DUP4 ADD MSTORE PUSH2 0x1F4 DUP2 PUSH2 0x121 JUMP JUMPDEST SWAP1 POP SWAP3 SWAP2 POP POP JUMP JUMPDEST PUSH1 0x0 PUSH1 0x20 DUP3 ADD SWAP1 POP PUSH2 0x211 PUSH1 0x0 DUP4 ADD DUP5 PUSH2 0x167 JUMP JUMPDEST SWAP3 SWAP2 POP POP JUMP JUMPDEST PUSH1 0x0 DUP3 DUP3 MSTORE PUSH1 0x20 DUP3 ADD SWAP1 POP SWAP3 SWAP2 POP POP JUMP JUMPDEST PUSH1 0x0 DUP3 DUP3 MSTORE PUSH1 0x20 DUP3 ADD SWAP1 POP SWAP3 SWAP2 POP POP JUMP JUMPDEST PUSH1 0x0 DUP2 SWAP1 POP SWAP2 SWAP1 POP JUMP JUMPDEST DUP3 DUP2 DUP4 CALLDATACOPY PUSH1 0x0 DUP4 DUP4 ADD MSTORE POP POP POP JUMP JUMPDEST PUSH1 0x0 PUSH1 0x1F NOT PUSH1 0x1F DUP4 ADD AND SWAP1 POP SWAP2 SWAP1 POP JUMP JUMPDEST PUSH32 0x66616C6C6261636B000000000000000000000000000000000000000000000000 PUSH1 0x0 DUP3 ADD MSTORE POP JUMP JUMPDEST POP JUMP JUMPDEST PUSH32 0x7265636569766500000000000000000000000000000000000000000000000000 PUSH1 0x0 DUP3 ADD MSTORE POP JUMP INVALID LOG2 PUSH5 0x6970667358 0x22 SLT KECCAK256 0x28 0xDC BASEFEE 0xB7 ORIGIN SDIV 0x2D DUP16 0xBF SWAP14 0x1E 0xE8 RETURNDATASIZE 0xA7 0x5D 0xF6 DIV 0x4F SWAP16 0xCC PC CALLER SWAP5 0xB2 0xF6 0x29 STATICCALL SWAP13 0xD1 0xB7 0x4D 0xBD PUSH5 0x736F6C6343 STOP ADDMOD SMOD STOP CALLER "
		},
		"gasEstimates": {
			"creation": {
				"codeDepositCost": "150000",
				"executionCost": "196",
				"totalCost": "150196"
			},
			"external": {
				"": "infinite",
				"checkBalance()": "317"
			}
		},
		"methodIdentifiers": {
			"checkBalance()": "c71daccb"
		}
	},
	"abi": [
		{
			"anonymous": false,
			"inputs": [
				{
					"indexed": false,
					"internalType": "string",
					"name": "fun",
					"type": "string"
				},
				{
					"indexed": false,
					"internalType": "uint256",
					"name": "_val",
					"type": "uint256"
				},
				{
					"indexed": false,
					"internalType": "bytes",
					"name": "data",
					"type": "bytes"
				}
			],
			"name": "log",
			"type": "event"
		},
		{
			"stateMutability": "payable",
			"type": "fallback"
		},
		{
			"inputs": [],
			"name": "checkBalance",
			"outputs": [
				{
					"internalType": "uint256",
					"name": "",
					"type": "uint256"
				}
			],
			"stateMutability": "view",
			"type": "function"
		},
		{
			"stateMutability": "payable",
			"type": "receive"
		}
	]
}